{
  "address": "0xb2Da450e09895581fbCc41EFb71479efB3B998ec",
  "abi": [
    {
      "inputs": [],
      "name": "contractURI",
      "outputs": [
        {
          "internalType": "string",
          "name": "",
          "type": "string"
        }
      ],
      "stateMutability": "pure",
      "type": "function"
    },
    {
      "inputs": [
        {
          "internalType": "uint256",
          "name": "id",
          "type": "uint256"
        }
      ],
      "name": "tokenURI",
      "outputs": [
        {
          "internalType": "string",
          "name": "",
          "type": "string"
        }
      ],
      "stateMutability": "pure",
      "type": "function"
    }
  ],
  "transactionHash": "0x7421f9dc6bfa928c6f13b4c423c8400c1e9b40e5dae7365241d11587c13e502c",
  "args": [],
  "solcInputHash": "91ec20bd84f402d22d504921fb4a04d0",
  "bytecode": "0x608060405234801561001057600080fd5b506149da806100206000396000f3fe608060405234801561001057600080fd5b50600436106100365760003560e01c8063c87b56dd1461003b578063e8a3d48514610064575b600080fd5b61004e6100493660046114d7565b61006c565b60405161005b9190611520565b60405180910390f35b61004e61007d565b6060610077826100a0565b92915050565b60606040518061250001604052806124ca815260200161239f6124ca9139905090565b60408051620186a0808252620186c082019092526060916000919060208201818036833701905050905060006100d6848361066c565b905060006100e56040866115cf565b905060006100f86010600688901c6115cf565b90506000604051806060016040528060408152602001614965604091399050600080610125866020611612565b90506001830191508087019050600060405180610120016040528060fc815260200161486960fc913960408051600480825260a0820190925291925060009182916020820160808036833701905050905061018e565b806000811215610189576000035b919050565b612af861271062ffffff60038b0260200186015160e81c1602046000805b612df681101561064a5761223e8111156101cd5781156101cd576001820391505b610bb88110156101e8576101f48210156101e8576001820191505b6000805b60038110156105fa57600087156105e1578c61024357610218620f42406002620f42408b06020361017b565b60029081027ffffffffffffffffffffffffffffffffffffffffffffffffffffffffffff0bdc0010590505b60018d14156102c557620f42408807620d59f8811215610267576007601082020591505b620d59f881131561027e57601081620f4240030291505b620d59f881141561029557601081620f4240030291505b50620f42407ffffffffffffffffffffffffffffffffffffffffffffffffffffffffffff0bdc09091016207a12002055b60028d14156102ff5750620f42407ffffffffffffffffffffffffffffffffffffffffffffffffffffffffffff85ee081890701620aae6002055b60038d141561034857507ffffffffffffffffffffffffffffffffffffffffffffffffffffffffffff0bdc0620f424088076207a12081101561034257620f424091505b50600490055b60048d141561039157507ffffffffffffffffffffffffffffffffffffffffffffffffffffffffffff0bdc0620f424088076204c4b481101561038b57620f424091505b50600490055b60058d14156103f057600488029050620f42406207a120620186a06207a12060026207a1206103d3620f4240621e8480620f42406207a1208b0205070361017b565b03056103e8620f4240621e848088070361017b565b010303020590505b60068d141561045e57506002878102906203d090906207a12061043f7ffffffffffffffffffffffffffffffffffffffffffffffffffffffffffff0bdc0621e8480608060fe8f0205070161017b565b0305036207a120610459620f4240621e848085070361017b565b030190505b60078d141561055b5760208701516040880151606089015160808a01516380000000613039856341c64e6d020106935062027100623d0900848e03020482915080620f424001620f42406380000000621e848088020403828401020592508c93506305f5e1006064820260af0360036004868601020502059550507ffffffffffffffffffffffffffffffffffffffffffffffffffffffffffff0bdc0851215610525577ffffffffffffffffffffffffffffffffffffffffffffffffffffffffffff0bdc094505b620f424085131561053757620f424094505b60208b019390935260408a019190915260608901526080880152600a600591909102055b60088d14156105c85750600760056002621e8480608060fe8c02058190077fffffffffffffffffffffffffffffffffffffffffffffffffffffffffffe91ca001829005918b0207017fffffffffffffffffffffffffffffffffffffffffffffffffffffffffffe54c100102055b6102bc8582020590506080621e84806101008302050190505b96850196600882026010031b91909101906001016101ec565b50603f8160121c168901518853600188019750603f81600c1c168901518853600188019750603f8160061c168901518853600188019750603f8116890151885350600196909601956003016101ac565b50505061065c8a8587612df68d61077d565b50979a9950505050505050505050565b60008061067a8460006109a8565b90506000610689856000610c73565b905060008282848461069a8a610eb7565b6106a38b610fe7565b88886040516020016106bc989796959493929190611646565b604080517fffffffffffffffffffffffffffffffffffffffffffffffffffffffffffffffe0818403018152919052805190915060208083019087015b6020831061073557815181527fffffffffffffffffffffffffffffffffffffffffffffffffffffffffffffffe090920191602091820191016106f8565b905181516020939093036101000a7fffffffffffffffffffffffffffffffffffffffffffffffffffffffffffffffff0180199091169216919091179052519250505092915050565b60228453600184019350607d84536001840193506020858503038552600060086001846107aa91906119a9565b6107b59060026119c0565b6107c090602c611612565b6107ca91906119a9565b90506000602c6107db836008611612565b6107e591906119a9565b905060346107f4846020611612565b6107fe91906119a9565b603f602084901b64ff0000000016601085811b63ff000000169190910162ff00008616019085901c61ff0016016546000000005701602a81901c919091168701519189019750908753600187019650603f8160241c168601518753600187019650603f81601e1c168601518753600187019650603f8160181c168601518753600187019650603f8160121c168601518753600187019650603f81600c1c168601518753600187019650603f8160061c168601518753600187019650603f811686015187535060046108d0846020611612565b6108da91906119a9565b603f602083901b64ff0000000016601084811b63ff000000169190910162ff00008516019084901c61ff0016016561000000005701602a81901c919091168701519189019750908753600187019650603f8160241c168601518753600187019650603f81601e1c168601518753600187019650603f8160181c168601518753600187019650603f8160121c168601518753600187019650603f81600c1c168601518753600187019650603f8160061c168601518753600187019650603f811686015187535050505050505050565b606060006109bb6010600686901c6115cf565b9050806109ff576040518060400160405280600881526020017f545249414e474c450000000000000000000000000000000000000000000000008152509150610c6c565b8060011415610a865782610a48576040518060400160405280600c81526020017f54494c5445442532305341570000000000000000000000000000000000000000815250610a7f565b6040518060400160405280600e81526020017f54494c54454425323532305341570000000000000000000000000000000000008152505b9150610c6c565b8060021415610acc576040518060400160405280600381526020017f53415700000000000000000000000000000000000000000000000000000000008152509150610c6c565b8060031415610b12576040518060400160405280600681526020017f53515541524500000000000000000000000000000000000000000000000000008152509150610c6c565b8060041415610b58576040518060400160405280600581526020017f50554c53450000000000000000000000000000000000000000000000000000008152509150610c6c565b8060051415610b9e576040518060400160405280600581526020017f4f5247414e0000000000000000000000000000000000000000000000000000008152509150610c6c565b8060061415610be4576040518060400160405280600681526020017f50484153455200000000000000000000000000000000000000000000000000008152509150610c6c565b8060071415610c2a576040518060400160405280600581526020017f4e4f4953450000000000000000000000000000000000000000000000000000008152509150610c6c565b8060081415610c6c576040518060400160405280600981526020017f46554e4b595f534157000000000000000000000000000000000000000000000081525091505b5092915050565b60606000610c826040856115cf565b90506000610c91600c836115cf565b90508060ff811615610cab5780610ca7816119fd565b9150505b60028260ff161115610cc55780610cc1816119fd565b9150505b60058260ff161115610cdf5780610cdb816119fd565b9150505b60078260ff161115610cf95780610cf5816119fd565b9150505b60098260ff161115610d135780610d0f816119fd565b9150505b60006007610d22836002611a38565b610d2c9190611a5d565b610d37906041611a38565b60f81b90506000610d49600c86611a7f565b610d54906032611a38565b60f81b90508360ff1660011480610d6e57508360ff166003145b80610d7c57508360ff166006145b80610d8a57508360ff166008145b80610d9857508360ff16600a145b15610e7c578615610e1b576040517fff0000000000000000000000000000000000000000000000000000000000000080841660208301527f25323532330000000000000000000000000000000000000000000000000000006021830152821660268201526027015b60405160208183030381529060405295505050505050610077565b6040517fff0000000000000000000000000000000000000000000000000000000000000080841660208301527f2532330000000000000000000000000000000000000000000000000000000000602183015282166024820152602501610e00565b6040517fff00000000000000000000000000000000000000000000000000000000000000808416602083015282166021820152602201610e00565b606081610ef757505060408051808201909152600181527f3000000000000000000000000000000000000000000000000000000000000000602082015290565b8160005b8115610f0f57600101600a82049150610efb565b60008167ffffffffffffffff811115610f2a57610f2a611571565b6040519080825280601f01601f191660200182016040528015610f54576020820181803683370190505b5090507fffffffffffffffffffffffffffffffffffffffffffffffffffffffffffffffff82015b8515610fde57600a860660300160f81b82828060019003935081518110610fa457610fa4611a93565b60200101907effffffffffffffffffffffffffffffffffffffffffffffffffffffffffffff1916908160001a905350600a86049550610f7b565b50949350505050565b6060600060405180610120016040528060fc815260200161486960fc91399050600683901c600061101885826109a8565b60408051808201909152600681527f66366665363300000000000000000000000000000000000000000000000000006020820152909150600090600161ffff85161415611099575060408051808201909152600681527f66656334323500000000000000000000000000000000000000000000000000006020820152611477565b8361ffff16600214156110e0575060408051808201909152600681527f66333737333400000000000000000000000000000000000000000000000000006020820152611477565b8361ffff1660031415611127575060408051808201909152600681527f64303131343100000000000000000000000000000000000000000000000000006020820152611477565b8361ffff166004141561116e575060408051808201909152600681527f34353061326300000000000000000000000000000000000000000000000000006020820152611477565b8361ffff16600514156111b5575060408051808201909152600681527f36643162333200000000000000000000000000000000000000000000000000006020820152611477565b8361ffff16600614156111fc575060408051808201909152600681527f63343735346100000000000000000000000000000000000000000000000000006020820152611477565b8361ffff1660071415611243575060408051808201909152600681527f65386361613900000000000000000000000000000000000000000000000000006020820152611477565b8361ffff166008141561128a575060408051808201909152600681527f36656630343300000000000000000000000000000000000000000000000000006020820152611477565b8361ffff16600914156112d1575060408051808201909152600681527f30376266373500000000000000000000000000000000000000000000000000006020820152611477565b8361ffff16600a1415611318575060408051808201909152600681527f30303563393900000000000000000000000000000000000000000000000000006020820152611477565b8361ffff16600b141561135f575060408051808201909152600681527f30373834616100000000000000000000000000000000000000000000000000006020820152611477565b8361ffff16600c14156113a6575060408051808201909152600681527f33306431643100000000000000000000000000000000000000000000000000006020820152611477565b8361ffff16600d14156113ed575060408051808201909152600681527f34383137613300000000000000000000000000000000000000000000000000006020820152611477565b8361ffff16600e1415611434575060408051808201909152600681527f38303334626500000000000000000000000000000000000000000000000000006020820152611477565b8361ffff16600f1415611477575060408051808201909152600681527f623936616438000000000000000000000000000000000000000000000000000060208201525b606462ffffff600360408a060260200187015160e81c16049150808161149c84610eb7565b856114a88b6001610c73565b6040516020016114bc959493929190611ac2565b60405160208183030381529060405295505050505050919050565b6000602082840312156114e957600080fd5b5035919050565b60005b8381101561150b5781810151838201526020016114f3565b8381111561151a576000848401525b50505050565b602081526000825180602084015261153f8160408501602087016114f0565b601f017fffffffffffffffffffffffffffffffffffffffffffffffffffffffffffffffe0169190910160400192915050565b7f4e487b7100000000000000000000000000000000000000000000000000000000600052604160045260246000fd5b7f4e487b7100000000000000000000000000000000000000000000000000000000600052601260045260246000fd5b6000826115de576115de6115a0565b500690565b7f4e487b7100000000000000000000000000000000000000000000000000000000600052601160045260246000fd5b60008219821115611625576116256115e3565b500190565b6000815161163c8185602086016114f0565b9290920192915050565b7f646174613a6170706c69636174696f6e2f6a736f6e2c7b226e616d65223a220081526000895161167e81601f850160208e016114f0565b7f2532300000000000000000000000000000000000000000000000000000000000601f9184019182015289516116bb816022840160208e016114f0565b016116e8602282017f222c226465736372697074696f6e223a22426c656570253230253237000000009052565b6116f5603e82018a61162a565b7f2532300000000000000000000000000000000000000000000000000000000000815290506117c561172a600383018a61162a565b7f2532372532432532306125323066756c6c792532306f6e2d636861696e25323081527f67656e657261746564253230736f756e64253230676976696e672532306f6e6560208201527f253230766f7465253230696e253230746865253230426c65657073253230444160408201527f4f222c2265787465726e616c5f75726c223a2200000000000000000000000000606082015260730190565b7f68747470733a2f2f626c656570732e6172742f626c656570732f25323369643d815290506117f7602082018861162a565b7f222c22696d616765223a2200000000000000000000000000000000000000000081529050611829600b82018761162a565b7f222c000000000000000000000000000000000000000000000000000000000000815290507f2261747472696275746573223a5b7b2274726169745f74797065223a22496e7360028201527f7472756d656e74222c2276616c7565223a22000000000000000000000000000060228201526119026118fc6118ad603484018861162a565b7f227d2c7b2274726169745f74797065223a224e6f7465222c2276616c7565223a81527f2200000000000000000000000000000000000000000000000000000000000000602082015260210190565b8561162a565b7f227d5d2c0000000000000000000000000000000000000000000000000000000081527f22616e696d6174696f6e5f75726c223a22646174613a617564696f2f7761763b60048201527f6261736536342c556b6c47526741414141425851565a465a6d3130494241414160248201527f414142414145412b436f414150425641414142414167415a474630595141410060448201526063019b9a5050505050505050505050565b6000828210156119bb576119bb6115e3565b500390565b6000817fffffffffffffffffffffffffffffffffffffffffffffffffffffffffffffffff04831182151516156119f8576119f86115e3565b500290565b600060ff821680611a1057611a106115e3565b7fffffffffffffffffffffffffffffffffffffffffffffffffffffffffffffffff0192915050565b600060ff821660ff84168060ff03821115611a5557611a556115e3565b019392505050565b600060ff831680611a7057611a706115a0565b8060ff84160691505092915050565b600082611a8e57611a8e6115a0565b500490565b7f4e487b7100000000000000000000000000000000000000000000000000000000600052603260045260246000fd5b7f646174613a696d6167652f7376672b786d6c2c3c7376672532353230786d6c6e81527f733d27687474703a2f2f7777772e77332e6f72672f323030302f73766727253260208201527f35323076696577426f783d27302532353230302532353230353132253235323060408201527f3531322725323532307374796c653d277374726f6b653a253235323300000000606082015260008651611b6c81607c850160208b016114f0565b7f3b66696c6c3a2532353233000000000000000000000000000000000000000000607c918401918201528651611ba9816087840160208b016114f0565b7f3b273e3c726563742532353230783d2736272532353230793d27362725323532608792909101918201527f3077696474683d273530302725323532306865696768743d273530302725323560a78201527f323072783d2736342725323532307374796c653d277374726f6b653a2532353260c78201527f336461623839343b7374726f6b652d77696474683a383b66696c6c3a2532353260e78201527f333030303b272f3e3c746578742532353230783d273335272532353230793d276101078201527f3335272532353230646f6d696e616e742d626173656c696e653d2768616e67696101278201527f6e67272532353230746578742d616e63686f723d2773746172742725323532306101478201527f7374796c653d27666f6e742d73697a653a333270783b273e0000000000000000610167820152612392611e41611e3b611da0611d9a611cff61017f87018c61162a565b7f2532353230687a3c2f746578743e3c746578742532353230783d27323536272581527f32353230793d27313135272532353230646f6d696e616e742d626173656c696e60208201527f653d276d6964646c65272532353230746578742d616e63686f723d276d69646460408201527f6c652725323532307374796c653d27666f6e742d73697a653a333670783b273e606082015260800190565b8961162a565b7f3c2f746578743e3c746578742532353230783d27323536272532353230793d2781527f343230272532353230646f6d696e616e742d626173656c696e653d276d69646460208201527f6c65272532353230746578742d616e63686f723d276d6964646c65272532353260408201527f307374796c653d27666f6e742d73697a653a373270783b273e00000000000000606082015260790190565b8661162a565b7f3c2f746578743e3c6725323532307472616e73666f726d3d277472616e736c6181527f7465283136302c313630297363616c6528302e382c302e3829273e3c7374796c60208201527f653e2e5a7b616e696d6174696f6e3a70756c736525323532303173253235323060408201527f696e66696e6974653b7472616e73666f726d2d626f783a66696c6c2d626f783b60608201527f7472616e73666f726d2d6f726967696e3a63656e7465723b7374726f6b653a6e60808201527f6f6e653b7d2532353233417b616e696d6174696f6e2d64656c61793a2e31357360a08201527f3b7d2532353233427b616e696d6174696f6e2d64656c61793a2e3330733b7d2560c08201527f32353233437b616e696d6174696f6e2d64656c61793a2e3435733b7d2532353260e08201527f33447b616e696d6174696f6e2d64656c61793a2e3630733b7d2532353233457b6101008201527f616e696d6174696f6e2d64656c61793a2e3735733b7d2532353233467b616e696101208201527f6d6174696f6e2d64656c61793a2e3930733b7d406b65796672616d65732532356101408201527f323070756c736525323532307b302532357b7472616e73666f726d3a7363616c6101608201527f65592831293b7d35302532357b7472616e73666f726d3a7363616c6559282e376101808201527f293b7d3130302532357b7472616e73666f726d3a7363616c65592831293b74726101a08201527f616e73666f726d2d6f726967696e3a63656e7465723b7d7d3c2f7374796c653e6101c08201527f3c726563742532353230636c6173733d275a27253235323069643d27412725326101e08201527f353230783d2730272532353230793d27373027253235323077696474683d27326102008201527f302725323532306865696768743d27383027253235323072783d273130273e3c6102208201527f2f726563743e3c726563742532353230636c6173733d275a27253235323069646102408201527f3d2742272532353230783d273338272532353230793d273234272532353230776102608201527f696474683d2732302725323532306865696768743d27313732272532353230726102808201527f783d273130273e3c2f726563743e3c726563742532353230636c6173733d275a6102a08201527f27253235323069643d2743272532353230783d273736272532353230793d27366102c08201527f3027253235323077696474683d2732302725323532306865696768743d2731306102e08201527f3027253235323072783d273130273e3c2f726563743e3c7265637425323532306103008201527f636c6173733d275a27253235323069643d2744272532353230783d27313134276103208201527f2532353230793d27363027253235323077696474683d273230272532353230686103408201527f65696768743d2731303027253235323072783d273130273e3c2f726563743e3c6103608201527f726563742532353230636c6173733d275a27253235323069643d2745272532356103808201527f3230783d27313532272532353230793d273027253235323077696474683d27326103a08201527f302725323532306865696768743d2732323027253235323072783d273130273e6103c08201527f3c2f726563743e3c726563742532353230636c6173733d275a272532353230696103e08201527f643d2746272532353230783d27313930272532353230793d27333527253235326104008201527f3077696474683d2732302725323532306865696768743d2731353027253235326104208201527f3072783d273130273e3c2f726563743e3c2f673e3c2f7376673e00000000000061044082015261045a0190565b9897505050505050505056fe646174613a6170706c69636174696f6e2f6a736f6e2c7b226e616d65223a22426c65657073222c226465736372697074696f6e223a22426c656570732532306172652532307468652532306669727374253230736f756e647325323066756c6c7925323067656e6572617465642532306f6e2d636861696e253230776974682532307a65726f25323065787465726e616c69746965732e25323045616368253230426c65657025323067697665732532306f6e65253230766f7465253230696e253230746865253230426c6565707325323044414f2e2532305468657925323063616e253230616c736f2532306265253230636f6d62696e6564253230746f2532306372656174652532304f6e636861696e2532304d656c6f646965732e222c22696d616765223a22646174613a696d6167652f7376672b786d6c3b6261736536342c50484e325a79423261575633516d393450534977494441674e544579494455784d69496765473173626e4d39496d6830644841364c79393364336375647a4d7562334a6e4c7a49774d44417663335a6e4969423462577875637a703462476c75617a30696148523063446f764c336433647935334d793576636d63764d546b354f53393462476c75617949676333523562475539496d4a685932746e636d3931626d51745932397362334936596d786859327337496a34385a7942705a44306955336c74596d397363794967633352796232746c50534a756232356c4969427a64484a766132557464326c6b64476739496a456949475a7062477739496d3576626d556949475a7062477774636e56735a5430695a585a6c626d396b5a43492b504763675a6d6c736244306949305242516a67354e43492b44516f38634746306143426b50534a4e4d6a59314c6a6b304c4451774e4342444d6a59334c6a41354d6977304d4451674d6a59344c6a49784e4377304d444d754f445532494449324f53347a4d4459734e44417a4c6a55324f4342444d6a63774c6a4d354f4377304d444d754d6a67674d6a63784c6a4d334c4451774d6934344d7a59674d6a63794c6a49794d6977304d4449754d6a4d3249454d794e7a4d754d4463304c4451774d5334324d7a59674d6a637a4c6a63314d6977304d4441754f445979494449334e4334794e5459734d7a6b354c6a6b784e4342444d6a63304c6a63324c444d354f4334354e6a59674d6a63314c6a41784d69777a4f5463754f445130494449334e5334774d5449734d7a6b324c6a55304f4342444d6a63314c6a41784d69777a4f5451754f5451674d6a63304c6a59794d69777a4f544d754e545932494449334d7934344e4449734d7a6b794c6a51794e6942444d6a637a4c6a41324d69777a4f5445754d6a6732494449334d5334344f43777a4f5441754e446734494449334d4334794f5459734d7a6b774c6a417a4d6942444d6a63784c6a51304f43777a4f446b754e4467674d6a63794c6a4d784f43777a4f4467754e7a6379494449334d6934354d4459734d7a67334c6a6b774f4342444d6a637a4c6a51354e43777a4f4463754d445130494449334d7934334f4467734d7a67314c6a6b324e4341794e7a4d754e7a67344c444d344e4334324e6a6767517a49334d7934334f4467734d7a677a4c6a51324f4341794e7a4d754e546b734d7a67794c6a5132494449334d7934784f5451734d7a67784c6a59304e4342444d6a63794c6a63354f43777a4f4441754f444934494449334d6934794e43777a4f4441754d546330494449334d5334314d69777a4e7a6b754e6a677949454d794e7a41754f43777a4e7a6b754d546b674d6a59354c6a6b7a4e69777a4e7a67754f444d32494449324f4334354d6a67734d7a63344c6a597949454d794e6a63754f5449734d7a63344c6a51774e4341794e6a59754f4441304c444d334f4334794f5459674d6a59314c6a55344c444d334f4334794f545967544449314d7934304f4451734d7a63344c6a49354e69424d4d6a557a4c6a51344e4377304d445167544449324e5334354e4377304d4451675769424e4d6a59304c6a67324c444d344f433433494577794e546b754d544d324c444d344f433433494577794e546b754d544d324c444d344d6934324f446767544449324e4334304d6a67734d7a67794c6a59344f4342444d6a59304c6a6b7a4d69777a4f4449754e6a6734494449324e5334304d5467734d7a67794c6a637a494449324e5334344f4459734d7a67794c6a67784e4342444d6a59324c6a4d314e43777a4f4449754f446b34494449324e6934334e6a67734d7a677a4c6a41304f4341794e6a63754d5449344c444d344d7934794e6a5167517a49324e7934304f4467734d7a677a4c6a5134494449324e7934334e7a59734d7a677a4c6a6334494449324e7934354f5449734d7a67304c6a45324e4342444d6a59344c6a49774f43777a4f4451754e545134494449324f43347a4d5459734d7a67314c6a4130494449324f43347a4d5459734d7a67314c6a593049454d794e6a67754d7a45324c444d344e6934334d6941794e6a63754f546b794c444d344e793431494449324e79347a4e4451734d7a67334c6a6b3449454d794e6a59754e6a6b324c444d344f4334304e6941794e6a55754f4459344c444d344f433433494449324e4334344e69777a4f4467754e794261494530794e6a55754d5467304c444d354f5334324d446767544449314f5334784d7a59734d7a6b354c6a59774f43424d4d6a55354c6a457a4e69777a4f5449754e545579494577794e6a55754d6a6b794c444d354d6934314e544967517a49324e6934314d5459734d7a6b794c6a55314d6941794e6a63754e53777a4f5449754f444d30494449324f4334794e4451734d7a6b7a4c6a4d354f4342444d6a59344c6a6b344f43777a4f544d754f545979494449324f53347a4e69777a4f5451754f544130494449324f53347a4e69777a4f5459754d6a493049454d794e6a6b754d7a59734d7a6b324c6a67354e6941794e6a6b754d6a51324c444d354e7934304e4467674d6a59354c6a41784f43777a4f5463754f446767517a49324f4334334f53777a4f5467754d7a4579494449324f4334304f4451734d7a6b344c6a59314e4341794e6a67754d53777a4f5467754f54413249454d794e6a63754e7a45324c444d354f5334784e5467674d6a59334c6a49334d69777a4f546b754d7a4d34494449324e6934334e6a67734d7a6b354c6a51304e6942444d6a59324c6a49324e43777a4f546b754e545530494449324e5334334d7a59734d7a6b354c6a59774f4341794e6a55754d5467304c444d354f5334324d4467675769424e4d7a45784c6a41774f4377304d44516754444d784d5334774d4467734d7a6b354c6a49304f43424d4d6a6b344c6a51344c444d354f5334794e446767544449354f4334304f43777a4e7a67754d6a6b32494577794f5449754f4449344c444d334f4334794f545967544449354d6934344d6a67734e4441304945777a4d5445754d4441344c4451774e4342614945307a4e4463754e6a67344c4451774e43424d4d7a51334c6a59344f43777a4f546b754d6a51344945777a4d7a4d754f4449344c444d354f5334794e44676754444d7a4d7934344d6a67734d7a6b794c6a6b304f43424d4d7a51324c6a49344e43777a4f5449754f5451344945777a4e4459754d6a67304c444d344f4334314e54596754444d7a4d7934344d6a67734d7a67344c6a55314e69424d4d7a4d7a4c6a67794f43777a4f444d754d4451344945777a4e4463754e43777a4f444d754d4451344945777a4e4463754e43777a4e7a67754d6a6b324945777a4d6a67754d5463324c444d334f4334794f54596754444d794f4334784e7a59734e4441304945777a4e4463754e6a67344c4451774e4342614945307a4f4455754d4445324c4451774e43424d4d7a67314c6a41784e69777a4f546b754d6a51344945777a4e7a45754d5455324c444d354f5334794e44676754444d334d5334784e5459734d7a6b794c6a6b304f43424d4d7a677a4c6a59784d69777a4f5449754f5451344945777a4f444d754e6a45794c444d344f4334314e54596754444d334d5334784e5459734d7a67344c6a55314e69424d4d7a63784c6a45314e69777a4f444d754d4451344945777a4f4451754e7a49344c444d344d7934774e44676754444d344e4334334d6a67734d7a63344c6a49354e69424d4d7a59314c6a55774e43777a4e7a67754d6a6b324945777a4e6a55754e5441304c4451774e43424d4d7a67314c6a41784e6977304d4451675769424e4e4441344c6a51344e4377304d445167544451774f4334304f4451734d7a6b304c6a63344e43424d4e4445304c6a51794e43777a4f5451754e7a673049454d304d5459754d444d794c444d354e4334334f4451674e4445334c6a51734d7a6b304c6a5531494451784f4334314d6a67734d7a6b304c6a41344d6942444e4445354c6a59314e69777a4f544d754e6a4530494451794d4334314e7a51734d7a6b794c6a6b354e6941304d6a45754d6a67794c444d354d6934794d6a6767517a51794d5334354f53777a4f5445754e4459674e4449794c6a55774e69777a4f5441754e546334494451794d6934344d79777a4f446b754e54677949454d304d6a4d754d5455304c444d344f4334314f4459674e44497a4c6a4d784e69777a4f4463754e546379494451794d79347a4d5459734d7a67324c6a553049454d304d6a4d754d7a45324c444d344e5334304f4451674e44497a4c6a45314e43777a4f4451754e445930494451794d6934344d79777a4f444d754e446767517a51794d6934314d4459734d7a67794c6a51354e6941304d6a45754f546b734d7a67784c6a5979494451794d5334794f4449734d7a67774c6a67314d6942444e4449774c6a55334e43777a4f4441754d446730494451784f5334324e5459734d7a63354c6a51324e6941304d5467754e5449344c444d334f4334354f546767517a51784e7934304c444d334f4334314d7941304d5459754d444d794c444d334f4334794f5459674e4445304c6a51794e43777a4e7a67754d6a6b32494577304d4449754f444d794c444d334f4334794f545967544451774d6934344d7a49734e444130494577304d4467754e4467304c4451774e434261494530304d5449754f4463324c444d354d43347a4f544967544451774f4334304f4451734d7a6b774c6a4d354d69424d4e4441344c6a51344e43777a4f4449754e6a6734494577304d5449754f4463324c444d344d6934324f446767517a51784d7934314d6a51734d7a67794c6a59344f4341304d5451754d5451344c444d344d6934334d7a59674e4445304c6a63304f43777a4f4449754f444d7949454d304d5455754d7a51344c444d344d6934354d6a67674e4445314c6a67334e69777a4f444d754d544530494451784e69347a4d7a49734d7a677a4c6a4d3549454d304d5459754e7a67344c444d344d7934324e6a59674e4445334c6a45314e43777a4f4451754d445532494451784e7934304d79777a4f4451754e545967517a51784e7934334d4459734d7a67314c6a41324e4341304d5463754f4451304c444d344e5334334d6a51674e4445334c6a67304e43777a4f4459754e545167517a51784e7934344e4451734d7a67334c6a4d314e6941304d5463754e7a41324c444d344f4334774d5459674e4445334c6a517a4c444d344f4334314d6942444e4445334c6a45314e43777a4f446b754d444930494451784e6934334f4467734d7a67354c6a51784e4341304d5459754d7a4d794c444d344f5334324f5342444e4445314c6a67334e69777a4f446b754f545932494451784e53347a4e4467734d7a6b774c6a45314d6941304d5451754e7a51344c444d354d4334794e446767517a51784e4334784e4467734d7a6b774c6a4d304e4341304d544d754e5449304c444d354d43347a4f5449674e4445794c6a67334e69777a4f5441754d7a6b7949466f67545451314d4334784e6a67734e4441304c6a55334e6942444e4455784c6a6b794c4451774e4334314e7a59674e44557a4c6a51324d6977304d4451754d7a6379494451314e4334334f5451734e44417a4c6a6b324e4342444e4455324c6a45794e6977304d444d754e545532494451314e7934794e4449734e4441794c6a6b344e6941304e5467754d5451794c4451774d6934794e545167517a51314f5334774e4449734e4441784c6a55794d6941304e546b754e7a49734e4441774c6a59314d6941304e6a41754d5463324c444d354f5334324e445167517a51324d4334324d7a49734d7a6b344c6a597a4e6941304e6a41754f4459734d7a6b334c6a55304e4341304e6a41754f4459734d7a6b324c6a4d324f4342444e4459774c6a67324c444d354e4334354d6a67674e4459774c6a55314e43777a4f544d754e7a5132494451314f5334354e4449734d7a6b794c6a67794d6942444e4455354c6a4d7a4c444d354d5334344f5467674e4455344c6a59774e43777a4f5445754d5459674e4455334c6a63324e43777a4f5441754e6a413449454d304e5459754f5449304c444d354d4334774e5459674e4455324c6a41334f43777a4f446b754e6a5530494451314e5334794d6a59734d7a67354c6a51774d6942444e4455304c6a4d334e43777a4f446b754d5455674e44557a4c6a63774f43777a4f4467754f546332494451314d7934794d6a67734d7a67344c6a673449454d304e5445754e6a49734d7a67344c6a51334d6941304e5441754d7a45344c444d344f4334784d7a59674e4451354c6a4d794d69777a4f4463754f44637949454d304e4467754d7a49324c444d344e7934324d4467674e4451334c6a55304e69777a4f4463754d7a5130494451304e6934354f4449734d7a67334c6a413449454d304e4459754e4445344c444d344e6934344d5459674e4451324c6a41304c444d344e6934314d6a67674e4451314c6a67304f43777a4f4459754d6a453249454d304e4455754e6a55324c444d344e5334354d4451674e4451314c6a55324c444d344e5334304f5459674e4451314c6a55324c444d344e4334354f544967517a51304e5334314e69777a4f4451754e4451674e4451314c6a59344c444d344d7934354f4451674e4451314c6a6b794c444d344d7934324d6a5167517a51304e6934784e69777a4f444d754d6a5930494451304e6934304e6a59734d7a67794c6a6b324e4341304e4459754f444d344c444d344d6934334d6a5167517a51304e7934794d53777a4f4449754e446730494451304e7934324d6a51734d7a67794c6a4d784e6941304e4467754d4467734d7a67794c6a497949454d304e4467754e544d324c444d344d6934784d6a51674e4451344c6a6b354d69777a4f4449754d446332494451304f5334304e4467734d7a67794c6a41334e6942444e4455774c6a45304e43777a4f4449754d446332494451314d4334334f4459734d7a67794c6a457a4e6941304e5445754d7a63304c444d344d6934794e545967517a51314d5334354e6a49734d7a67794c6a4d334e6941304e5449754e4467304c444d344d6934314f4341304e5449754f5451734d7a67794c6a67324f4342444e44557a4c6a4d354e69777a4f444d754d545532494451314d7934334e6a49734d7a677a4c6a55314d6941304e5451754d444d344c444d344e4334774e545967517a51314e43347a4d5451734d7a67304c6a5532494451314e4334304e7a59734d7a67314c6a45354e6941304e5451754e5449304c444d344e5334354e6a5167544451314f5334354f5459734d7a67314c6a6b324e4342444e4455354c6a6b354e69777a4f4451754e446332494451314f5334334d5451734d7a677a4c6a4978494451314f5334784e53777a4f4449754d54593249454d304e5467754e5467324c444d344d5334784d6a49674e4455334c6a67794e43777a4f4441754d6a5930494451314e6934344e6a51734d7a63354c6a55354d6942444e4455314c6a6b774e43777a4e7a67754f5449674e4455304c6a67774e69777a4e7a67754e444d30494451314d7934314e79777a4e7a67754d544d3049454d304e5449754d7a4d304c444d334e7934344d7a51674e4455784c6a41304e43777a4e7a63754e6a6730494451304f5334334c444d334e7934324f445167517a51304f4334314e4467734d7a63334c6a59344e4341304e4463754d7a6b324c444d334e7934344e4341304e4459754d6a51304c444d334f4334784e544967517a51304e5334774f5449734d7a63344c6a51324e4341304e4451754d4459734d7a63344c6a6b304e4341304e444d754d5451344c444d334f5334314f544967517a51304d6934794d7a59734d7a67774c6a4930494451304d5334304f5467734d7a67784c6a4131494451304d4334354d7a51734d7a67794c6a41794d6942444e4451774c6a4d334c444d344d6934354f5451674e4451774c6a41344f43777a4f4451754d5451674e4451774c6a41344f43777a4f4455754e445967517a51304d4334774f4467734d7a67324c6a597a4e6941304e4441754d7a45734d7a67334c6a597a4f4341304e4441754e7a55304c444d344f4334304e6a5967517a51304d5334784f5467734d7a67354c6a49354e4341304e4445754e7a67734d7a67354c6a6b344e4341304e4449754e53777a4f5441754e544d3249454d304e444d754d6a49734d7a6b784c6a41344f4341304e4451754d444d324c444d354d5334314d7a67674e4451304c6a6b304f43777a4f5445754f44673249454d304e4455754f4459734d7a6b794c6a497a4e4341304e4459754e7a6b324c444d354d6934314d6a67674e4451334c6a63314e69777a4f5449754e7a593449454d304e4467754e6a6b794c444d354d7934774d7a49674e4451354c6a59784e69777a4f544d754d6a6379494451314d4334314d6a67734d7a6b7a4c6a51344f4342444e4455784c6a51304c444d354d7934334d4451674e4455794c6a49314e69777a4f544d754f545532494451314d6934354e7a59734d7a6b304c6a49304e4342444e44557a4c6a59354e69777a4f5451754e544d79494451314e4334794e7a67734d7a6b304c6a67354d6941304e5451754e7a49794c444d354e53347a4d6a5167517a51314e5334784e6a59734d7a6b314c6a63314e6941304e5455754d7a67344c444d354e69347a4d6941304e5455754d7a67344c444d354e7934774d545967517a51314e53347a4f4467734d7a6b334c6a59324e4341304e5455754d6a49734d7a6b344c6a45354f4341304e5451754f4467304c444d354f4334324d546767517a51314e4334314e4467734d7a6b354c6a417a4f4341304e5451754d5449344c444d354f53347a4e6a67674e44557a4c6a59794e43777a4f546b754e6a413449454d304e544d754d5449734d7a6b354c6a67304f4341304e5449754e5467734e4441774c6a4178494451314d6934774d4451734e4441774c6a41354e4342444e4455784c6a51794f4377304d4441754d546334494451314d4334344f4467734e4441774c6a4979494451314d43347a4f4451734e4441774c6a497949454d304e446b754e6a51734e4441774c6a4979494451304f4334354d6977304d4441754d544d674e4451344c6a49794e43777a4f546b754f545567517a51304e7934314d6a67734d7a6b354c6a6333494451304e6934354d6a49734d7a6b354c6a51354e4341304e4459754e4441324c444d354f5334784d6a4967517a51304e5334344f53777a4f5467754e7a55674e4451314c6a51334e69777a4f5467754d6a5930494451304e5334784e6a51734d7a6b334c6a59324e4342444e4451304c6a67314d69777a4f5463754d445930494451304e4334324f5459734d7a6b324c6a4d7a4d6941304e4451754e6a6b324c444d354e5334304e6a67675444517a4f5334794d6a51734d7a6b314c6a51324f4342444e444d354c6a49734d7a6b334c6a41314d6941304d7a6b754e4467344c444d354f4334304d6941304e4441754d4467344c444d354f5334314e7a4967517a51304d4334324f4467734e4441774c6a63794e4341304e4445754e446b344c4451774d5334324e7a49674e4451794c6a55784f4377304d4449754e44453249454d304e444d754e544d344c4451774d7934784e6941304e4451754e7a45304c4451774d7934334d4459674e4451324c6a41304e6977304d4451754d44553049454d304e4463754d7a63344c4451774e4334304d4449674e4451344c6a63314d6977304d4451754e546332494451314d4334784e6a67734e4441304c6a55334e694261496942705a443069516b7846525642544969426d615778734c584a3162475539496d3576626e706c636d3869506a7776634746306144344e436a786e49476c6b50534a48636d39316343496764484a68626e4e6d62334a7450534a30636d4675633278686447556f4d6a55784c6a41774d4441774d4377674d54517a4c6a41774d4441774d436b695067304b50484e306557786c5067304b4c6c70375957357062574630615739754f6e423162484e6c4944467a49476c755a6d6c756158526c4f3352795957357a5a6d3979625331696233673649475a7062477774596d39344f3352795957357a5a6d397962533176636d6c6e6157343649474e6c626e526c636a743944516f6a51587468626d6c7459585270623234745a47567359586b364c6a4531637a743944516f6a516e7468626d6c7459585270623234745a47567359586b364c6a4d77637a743944516f6a51337468626d6c7459585270623234745a47567359586b364c6a5131637a743944516f6a52487468626d6c7459585270623234745a47567359586b364c6a5977637a743944516f6a52587468626d6c7459585270623234745a47567359586b364c6a6331637a743944516f6a526e7468626d6c7459585270623234745a47567359586b364c6a6b77637a743944516f6a52337468626d6c7459585270623234745a47567359586b364d5334774e584d376651304b493068375957357062574630615739754c57526c624746354f6a45754d6a427a4f33304e43694e4a653246756157316864476c766269316b5a57786865546f784c6a4d31637a743944517041613256355a6e4a686257567a4948423162484e6c494873774a587430636d467563325a76636d303649484e6a5957786c575367784b547430636d467563325a76636d307462334a705a326c754f6a55774a5341314d435537665455774a53423764484a68626e4e6d62334a744f69427a593246735a566b6f4c6a63704f3352795957357a5a6d397962533176636d6c6e61573436494455774a5341314d435537665445774d435567653352795957357a5a6d397962546f6763324e686247565a4b4445704f3352795957357a5a6d397962533176636d6c6e61573436494455774a5341314d4355376658304e436a7776633352356247552b44516f38636d566a6443426a6247467a637a30695769496761575139496b456949486739496a416949486b39496a63774969423361575230614430694d6a41694947686c6157646f644430694f44416949484a34505349784d43492b504339795a574e305067304b50484a6c593351675932786863334d39496c6f6949476c6b50534a43496942345053497a4f434967655430694d6a5169494864705a48526f505349794d434967614756705a326830505349784e7a496949484a34505349784d43492b504339795a574e305067304b50484a6c593351675932786863334d39496c6f6949476c6b50534a4449694234505349334e694967655430694e6a4169494864705a48526f505349794d434967614756705a326830505349784d44416949484a34505349784d43492b504339795a574e305067304b50484a6c593351675932786863334d39496c6f6949476c6b50534a4549694234505349784d54516949486b39496a59774969423361575230614430694d6a41694947686c6157646f644430694d54417749694279654430694d544169506a7776636d566a6444344e436a78795a574e3049474e7359584e7a50534a61496942705a44306952534967654430694d54557949694235505349774969423361575230614430694d6a41694947686c6157646f644430694d6a497749694279654430694d544169506a7776636d566a6444344e436a78795a574e3049474e7359584e7a50534a61496942705a44306952694967654430694d546b77496942355053497a4e53496764326c6b64476739496a49774969426f5a576c6e61485139496a45314d434967636e6739496a4577496a34384c334a6c5933512b44516f384c32632b44516f386347397365576476626942705a44306956484a705957356e624755694948427661573530637a30694d54497a4944457a4d6941784f5455754d6a457a4d7a4d7a494449314d5334774f5441784e7a67674d54497a494449354d7934334d6a6b334e4467674e5445674d6a55784c6a41354d4445334f43492b50433977623278355a323975506a7877623278355a32397549476c6b50534a55636d6c68626d64735a53496764484a68626e4e6d62334a7450534a30636d4675633278686447556f4d54497a4c6a45774e6a59324e7977674d7a45314c6a4d304e4459794e796b6763324e686247556f4d5377674c544570494852795957357a624746305a5367744d54497a4c6a45774e6a59324e7977674c544d784e53347a4e4451324d6a63704943496763473970626e527a505349784d6a4d674d6a59304c6a6b314f5455774e6941784f5455754d6a457a4d7a4d7a49444d324e5334334d6a6b334e4467674d54497a4c6a45774e6a59324e79417a4d6a4d754e4455324d6a67314944557849444d324e5334334d6a6b334e446769506a77766347397365576476626a34384c32632b5043396e506a777663335a6e50673d3d222c2265787465726e616c5f6c696e6b223a2268747470733a2f2f626c656570732e617274227d00198d001b12001cae001e6200203100221b00242200264800288f002af8002d8600303b00331900362300395b003cc4004061004435004844004c9000511d0055f0005b0c006076006633006c460072b60079890080c300886b00908700992000a23a00abe000b61800c0ec00cc6500d88d00e56d00f3110101850110d601210f01323f0144750157c0016c310181d90198ca01b11901cada01e62302030b0221ab02421e02647e0288ea02af8002d8620303b10331940362320395b403cc4604061604435704843c04c8fc0511d4055f0005b0c306076306632906c464072b6707988b080c2c0886ad0908770991f90a23a80abe000b61860c0ec54142434445464748494a4b4c4d4e4f505152535455565758595a6162636465666768696a6b6c6d6e6f707172737475767778797a303132333435363738392b2fa2646970667358221220f72ca643ccc874e03a2b7da19405f4273376502e9d1a89835eb020fdf471fe0664736f6c63430008090033",
  "devdoc": {
    "kind": "dev",
    "methods": {},
    "version": 1
  },
  "userdoc": {
    "kind": "user",
    "methods": {},
    "version": 1
  },
  "storageLayout": {
    "storage": [],
    "types": null
  }
}