{
  "address": "0xF2cc118e3cd00024d6de8313Fb82F7FfadEc2A81",
  "abi": [
    {
      "inputs": [
        {
          "internalType": "contract Bleeps",
          "name": "bleeps",
          "type": "address"
        },
        {
          "internalType": "uint256",
          "name": "price",
          "type": "uint256"
        },
        {
          "internalType": "uint256",
          "name": "startTime",
          "type": "uint256"
        },
        {
          "internalType": "uint256",
          "name": "whitelistPrice",
          "type": "uint256"
        },
        {
          "internalType": "uint256",
          "name": "whitelistEndTime",
          "type": "uint256"
        },
        {
          "internalType": "bytes32",
          "name": "whitelistMerkleRoot",
          "type": "bytes32"
        },
        {
          "internalType": "address payable",
          "name": "projectCreator",
          "type": "address"
        },
        {
          "internalType": "uint256",
          "name": "creatorFeePer10000",
          "type": "uint256"
        },
        {
          "internalType": "address payable",
          "name": "saleRecipient",
          "type": "address"
        },
        {
          "internalType": "uint256",
          "name": "uptoInstr",
          "type": "uint256"
        }
      ],
      "stateMutability": "nonpayable",
      "type": "constructor"
    },
    {
      "inputs": [
        {
          "internalType": "uint16",
          "name": "id",
          "type": "uint16"
        },
        {
          "internalType": "address",
          "name": "to",
          "type": "address"
        }
      ],
      "name": "creatorMint",
      "outputs": [],
      "stateMutability": "nonpayable",
      "type": "function"
    },
    {
      "inputs": [
        {
          "internalType": "uint16[]",
          "name": "ids",
          "type": "uint16[]"
        },
        {
          "internalType": "address",
          "name": "to",
          "type": "address"
        }
      ],
      "name": "creatorMultiMint",
      "outputs": [],
      "stateMutability": "nonpayable",
      "type": "function"
    },
    {
      "inputs": [
        {
          "internalType": "uint256",
          "name": "id",
          "type": "uint256"
        }
      ],
      "name": "isOpenForSale",
      "outputs": [
        {
          "internalType": "bool",
          "name": "",
          "type": "bool"
        }
      ],
      "stateMutability": "view",
      "type": "function"
    },
    {
      "inputs": [
        {
          "internalType": "uint256",
          "name": "passId",
          "type": "uint256"
        }
      ],
      "name": "isPassUsed",
      "outputs": [
        {
          "internalType": "bool",
          "name": "",
          "type": "bool"
        }
      ],
      "stateMutability": "view",
      "type": "function"
    },
    {
      "inputs": [
        {
          "internalType": "uint256",
          "name": "id",
          "type": "uint256"
        }
      ],
      "name": "isReserved",
      "outputs": [
        {
          "internalType": "bool",
          "name": "",
          "type": "bool"
        }
      ],
      "stateMutability": "pure",
      "type": "function"
    },
    {
      "inputs": [
        {
          "internalType": "uint16",
          "name": "id",
          "type": "uint16"
        },
        {
          "internalType": "address",
          "name": "to",
          "type": "address"
        }
      ],
      "name": "mint",
      "outputs": [],
      "stateMutability": "payable",
      "type": "function"
    },
    {
      "inputs": [
        {
          "internalType": "uint16",
          "name": "id",
          "type": "uint16"
        },
        {
          "internalType": "address",
          "name": "to",
          "type": "address"
        },
        {
          "internalType": "uint256",
          "name": "passId",
          "type": "uint256"
        },
        {
          "internalType": "bytes32[]",
          "name": "proof",
          "type": "bytes32[]"
        }
      ],
      "name": "mintWithPassId",
      "outputs": [],
      "stateMutability": "payable",
      "type": "function"
    },
    {
      "inputs": [
        {
          "internalType": "uint16",
          "name": "id",
          "type": "uint16"
        },
        {
          "internalType": "address",
          "name": "to",
          "type": "address"
        },
        {
          "internalType": "uint256",
          "name": "passId",
          "type": "uint256"
        },
        {
          "internalType": "bytes",
          "name": "signature",
          "type": "bytes"
        },
        {
          "internalType": "bytes32[]",
          "name": "proof",
          "type": "bytes32[]"
        }
      ],
      "name": "mintWithSalePass",
      "outputs": [],
      "stateMutability": "payable",
      "type": "function"
    },
    {
      "inputs": [
        {
          "internalType": "uint256",
          "name": "passId",
          "type": "uint256"
        },
        {
          "internalType": "uint256[]",
          "name": "ids",
          "type": "uint256[]"
        }
      ],
      "name": "ownersAndPriceInfo",
      "outputs": [
        {
          "internalType": "address[]",
          "name": "addresses",
          "type": "address[]"
        },
        {
          "internalType": "uint256",
          "name": "price",
          "type": "uint256"
        },
        {
          "internalType": "uint256",
          "name": "startTime",
          "type": "uint256"
        },
        {
          "internalType": "uint256",
          "name": "whitelistPrice",
          "type": "uint256"
        },
        {
          "internalType": "uint256",
          "name": "whitelistEndTime",
          "type": "uint256"
        },
        {
          "internalType": "bytes32",
          "name": "whitelistMerkleRoot",
          "type": "bytes32"
        },
        {
          "internalType": "bool",
          "name": "passUsed",
          "type": "bool"
        },
        {
          "internalType": "uint256",
          "name": "uptoInstr",
          "type": "uint256"
        }
      ],
      "stateMutability": "view",
      "type": "function"
    },
    {
      "inputs": [],
      "name": "priceInfo",
      "outputs": [
        {
          "internalType": "uint256",
          "name": "price",
          "type": "uint256"
        },
        {
          "internalType": "uint256",
          "name": "startTime",
          "type": "uint256"
        },
        {
          "internalType": "uint256",
          "name": "whitelistPrice",
          "type": "uint256"
        },
        {
          "internalType": "uint256",
          "name": "whitelistEndTime",
          "type": "uint256"
        },
        {
          "internalType": "bytes32",
          "name": "whitelistMerkleRoot",
          "type": "bytes32"
        }
      ],
      "stateMutability": "view",
      "type": "function"
    }
  ],
  "transactionHash": "0x2c0f9959b666cb9f4300265f259cac4cde30086cf6bcd042939fbc5f2bbb1495",
  "args": [
    "0xF05BFe2c5536e40ADCDbF7458882ea16F5Ad248f",
    "100000000000000000",
    1638145928,
    "100000000000000000",
    1638405128,
    "0xfb117d912e3c52ebc042fd8f02117989d914a345939c64db8e5aa90df08a04e9",
    "0xE53cd71271AcAdbeb0f64d9c8C62bBdDc8cA9e66",
    2500,
    "0x7c8ABDBF144D80FBd95a8743A83961cF5Fd4a6cF",
    8
  ],
  "linkedData": {
    "numPrivatePasses": 815,
    "leaves": [
      {
        "passId": "0",
        "signer": "0x4cF03d880EB02e82aDFbb3a35a14193E1ac40E80"
      },
      {
        "passId": "1",
        "signer": "0x09E512Fb5b7d06D2850F1e9d128aade8B5E74E4B"
      },
      {
        "passId": "2",
        "signer": "0x2B040A2Ec139B76Db8E391590e00B215C08C0a1E"
      },
      {
        "passId": "3",
        "signer": "0xAEE239382B91fdD1Ad6dA37D48f025d6879011c4"
      },
      {
        "passId": "4",
        "signer": "0x5146949D1bb5D1059E18ac77138B9B07528127D6"
      },
      {
        "passId": "5",
        "signer": "0x652F088cd7f4117b621A98181dAc66BbaA31E0Dc"
      },
      {
        "passId": "6",
        "signer": "0x89e7f9f39Ee14Ddc0FcF69aEb5dFEf6492CeBA85"
      },
      {
        "passId": "7",
        "signer": "0xbF22fEBff70D0AF6bA9FAcA87a720Dfef4f08195"
      },
      {
        "passId": "8",
        "signer": "0xF87a8c47394B772dF132F28A2309553af023aCc5"
      },
      {
        "passId": "9",
        "signer": "0xb1f5F69bAA2e705632953C9Bfc7264C5e8813Ec6"
      },
      {
        "passId": "10",
        "signer": "0xbD50df09B8BF0F64F2e43a4b2af451d082b61B7F"
      },
      {
        "passId": "11",
        "signer": "0xF12689B181Ab38C0f2F19d61e94c3Dd6E6D6809f"
      },
      {
        "passId": "12",
        "signer": "0x2e336B92f351762f22769430393d10e80813621d"
      },
      {
        "passId": "13",
        "signer": "0x57A555393962BAf6c49a21b7f12dcA2149aE844c"
      },
      {
        "passId": "14",
        "signer": "0xce50b0170B097d9687fb71e0550E7Fe10dA054fC"
      },
      {
        "passId": "15",
        "signer": "0x18e0411f5522adcBe58Ff00a27b19AFf9631eA5E"
      },
      {
        "passId": "16",
        "signer": "0x1EB8dD09a6C96a8954FD972c6f72Fc2DE3058914"
      },
      {
        "passId": "17",
        "signer": "0x3B51Bc9Afe079280b724744acA3961EC08092937"
      },
      {
        "passId": "18",
        "signer": "0x2B78aC8EC114D781d3B549Bf00e16c3BD784cbc7"
      },
      {
        "passId": "19",
        "signer": "0xa58998C9E9dF5a520e6292afE870F3F3eF3253f1"
      },
      {
        "passId": "20",
        "signer": "0x724152a0C4240cCEe1eC477EE5c80E1e3993a876"
      },
      {
        "passId": "21",
        "signer": "0x29F4D9347d11DD47354369230064e95908593ea6"
      },
      {
        "passId": "22",
        "signer": "0xcDC9c39616Af01c6337AC744A3fCd63D84c8169D"
      },
      {
        "passId": "23",
        "signer": "0xbdA711c18B40E3a3D0758D8E029cf5542FF1f963"
      },
      {
        "passId": "24",
        "signer": "0x64be841f9BC46Cf0584923Ab6e27EFe687389032"
      },
      {
        "passId": "25",
        "signer": "0xCF807E8F548aB4f5F33E834E022B7fC50e22f83C"
      },
      {
        "passId": "26",
        "signer": "0xc041E1F4897cb268dD520c3fE3DdAFEEb40FD58A"
      },
      {
        "passId": "27",
        "signer": "0xC86d1216F4c86663ca0e74dd2D2A560d1Fce5175"
      },
      {
        "passId": "28",
        "signer": "0x956b6B961259c7f2AEE7bA36735530d8C509B73c"
      },
      {
        "passId": "29",
        "signer": "0xc50A5e1D3318b79C61ED273A867730D9878719cf"
      },
      {
        "passId": "30",
        "signer": "0x0c2929B625759b58bd1988a4e134786ddFdB4383"
      },
      {
        "passId": "31",
        "signer": "0xe5e96d73d24Ac627A7d7718ffab86aBd07EaE29E"
      },
      {
        "passId": "32",
        "signer": "0x4056286c7943d46fF647Ef1C5adBdF3571bbe003"
      },
      {
        "passId": "33",
        "signer": "0x1022bfa39B3D99a3220D6181F0125F7cE4491460"
      },
      {
        "passId": "34",
        "signer": "0xB4e88fC035FCBfd7230EEF46f426246660A2E8e7"
      },
      {
        "passId": "35",
        "signer": "0x91C3CE897bD5617C703B05f51C17Fc411d79F0b6"
      },
      {
        "passId": "36",
        "signer": "0xec5696D6692173d12421409e4517464eAf7E00a2"
      },
      {
        "passId": "37",
        "signer": "0x9E60f3f5966A7Cd62f82b52E87896F1E161463aD"
      },
      {
        "passId": "38",
        "signer": "0xfAA7A4fDDAAA3E2efd5be4e1E96514434b2Ef732"
      },
      {
        "passId": "39",
        "signer": "0xaE6f71bA262c8E51c4b410e5b9f6A2362d05e7Fe"
      },
      {
        "passId": "40",
        "signer": "0xfE2874E3a6ed424a32Bd901aA5c378e16Da3Dc01"
      },
      {
        "passId": "41",
        "signer": "0x376310abA989b399dCccb3287707E6379CfB0f66"
      },
      {
        "passId": "42",
        "signer": "0xd04721783Bf79833858d8B93Bb38eFb26D5b7289"
      },
      {
        "passId": "43",
        "signer": "0x5A3313956d0F6630bE9962A17dd8811Abe66e763"
      },
      {
        "passId": "44",
        "signer": "0xaAE391A4b0E5B2F35ffa46b4f81C3622a06a9694"
      },
      {
        "passId": "45",
        "signer": "0x8828f3F0C5722d56ab87EF164050d87e01D915dE"
      },
      {
        "passId": "46",
        "signer": "0xcD796a2306855EAec96617d1B0f9eBdF74624060"
      },
      {
        "passId": "47",
        "signer": "0x983ccc20E191635eC8757cEBBc1b38dB6f0E6526"
      },
      {
        "passId": "48",
        "signer": "0x775B7bEDeb60Ef50B92AA33e0c54b96e032C9eA4"
      },
      {
        "passId": "49",
        "signer": "0x19E5A8988ebAC104806F6be9f61CACA00B16E966"
      },
      {
        "passId": "50",
        "signer": "0xD08309eb6C1B5210B2f6340Dd93f808E97665A66"
      },
      {
        "passId": "51",
        "signer": "0xA73aEA7A406b1578d79D2adAFCF9E1092353b922"
      },
      {
        "passId": "52",
        "signer": "0xAc14b8E4b511Aa9dC93E916F01a81234488B1A0e"
      },
      {
        "passId": "53",
        "signer": "0xCA207426aa59585846533bbA8bAB006A7b6E0B8F"
      },
      {
        "passId": "54",
        "signer": "0xE89C429E91EEcc89a31daA5293bc5D3567F608D7"
      },
      {
        "passId": "55",
        "signer": "0x19D77cA113af7d1f7c891cb49fc1c0A28cEf641d"
      },
      {
        "passId": "56",
        "signer": "0xdac8b811cd717E729d157AA505Dcca169d15b121"
      },
      {
        "passId": "57",
        "signer": "0xE7dBf21B03A38d4E1762ecAa74c2B994Aa58F18B"
      },
      {
        "passId": "58",
        "signer": "0x137CBfE1337B50060cC354d260eeB0A9E0238dCC"
      },
      {
        "passId": "59",
        "signer": "0xC47e6D6a0456219c2726E956593370c32f476c05"
      },
      {
        "passId": "60",
        "signer": "0x19A97068349D0eaF6f36aE719b9f494DB4dE2c6A"
      },
      {
        "passId": "61",
        "signer": "0xc4126b4F3C2E825a39e25E2882532853FD0f9dbC"
      },
      {
        "passId": "62",
        "signer": "0x36024C3288B0D8125296594d5Bf95F382b97d254"
      },
      {
        "passId": "63",
        "signer": "0xEea8B4F5E060773185cC2193698F07f539ba4139"
      },
      {
        "passId": "64",
        "signer": "0x1eB216564ee5d09d56ed8F0739e77e0c0fB35E7D"
      },
      {
        "passId": "65",
        "signer": "0x4D15171063096A79b22587fc410252C6d9C9D641"
      },
      {
        "passId": "66",
        "signer": "0xFFf56982525ff388Cf038D68A65D6cB14D75D427"
      },
      {
        "passId": "67",
        "signer": "0x7eA3DA5ca792E0cb7b4FB11814D6D82914bE9783"
      },
      {
        "passId": "68",
        "signer": "0x1B0b85B586f5d9863786303410557ADa48ECD603"
      },
      {
        "passId": "69",
        "signer": "0x37037908329a0762AEcA513aAe66e6D1BcF2490f"
      },
      {
        "passId": "70",
        "signer": "0x0ed0f11Cb67532bD07e17f83869bfeE03f3EAc50"
      },
      {
        "passId": "71",
        "signer": "0x34D4FA06Ea602777248E4Ca377536bbD7AdD808C"
      },
      {
        "passId": "72",
        "signer": "0xEf3591c669614Df2C17a687984529Df9D9cCad3C"
      },
      {
        "passId": "73",
        "signer": "0xDbaA84ededb7939dB602FCC98197C2B581C262dB"
      },
      {
        "passId": "74",
        "signer": "0x276b1b2106241b63DBCbC4c7B9531B4D59666787"
      },
      {
        "passId": "75",
        "signer": "0xC633A6560Fbc9657E36Ec51a4b837d44D2F6A614"
      },
      {
        "passId": "76",
        "signer": "0xdF57762C77F8Ae86784BA3c32f0b412a4e9086C8"
      },
      {
        "passId": "77",
        "signer": "0x5eBc4A40A00f07f3C5527d511e0A830fC1E9eCdf"
      },
      {
        "passId": "78",
        "signer": "0xc124105Ed5810c830C29782Caee117E155E89F72"
      },
      {
        "passId": "79",
        "signer": "0xb60Af0C0f30226a1FDC1613128C00a324c8b7D5a"
      },
      {
        "passId": "80",
        "signer": "0xb579A98435D5BF48230258E78f80c5E9FD2c10Cd"
      },
      {
        "passId": "81",
        "signer": "0x39ac9A95b9899b6d7D5253eb4232D24Da4Bfb6fa"
      },
      {
        "passId": "82",
        "signer": "0x0E1ea27433f68e9ae9B74d2fA198b03784696B3D"
      },
      {
        "passId": "83",
        "signer": "0x26524d00603c345eD5B7D968eBFc858B0519d996"
      },
      {
        "passId": "84",
        "signer": "0xF458a68888c4604f615A2cdC95e4A7fc81DFE462"
      },
      {
        "passId": "85",
        "signer": "0x6373374ca7cBEAECB9bddC60Fe3AbB19dEe97e1c"
      },
      {
        "passId": "86",
        "signer": "0xabB9AF8E59Bb12F558588E0a065F02945e1fcb41"
      },
      {
        "passId": "87",
        "signer": "0xD7481804438350b64431991aF87215bf1b7e071f"
      },
      {
        "passId": "88",
        "signer": "0x84b20D26546dc6319D3B057Da5b5911d30ce40fe"
      },
      {
        "passId": "89",
        "signer": "0xD63f7B836A00878F59eC7af08Ee0C54f7A059350"
      },
      {
        "passId": "90",
        "signer": "0x2569d31F5dF375BE5bffEA37B346830c12A3BDb8"
      },
      {
        "passId": "91",
        "signer": "0x67b19Be11Fab941801Ca1302A99fd96aB3792E18"
      },
      {
        "passId": "92",
        "signer": "0x51C0d8dC499646F5001FF1d066408c92fb3468f0"
      },
      {
        "passId": "93",
        "signer": "0xC482B7fdD84948278dBa6F08b9E5B3052f3A0A8C"
      },
      {
        "passId": "94",
        "signer": "0x30252446Da90063795E9707729357bb5Dd0f9071"
      },
      {
        "passId": "95",
        "signer": "0xA645Ab9661467c7a0251C2e337CF7Af4C8cfC2dE"
      },
      {
        "passId": "96",
        "signer": "0x2500E276FFB36C26F86d4cF77D2f408764212eD7"
      },
      {
        "passId": "97",
        "signer": "0x6Fa619eD41DE9FC7321aDdc6cb74619BCaD8f6b3"
      },
      {
        "passId": "98",
        "signer": "0x6F30C5b120Fc297669354e8dbacad655362F6348"
      },
      {
        "passId": "99",
        "signer": "0x50Cad045668eE1CF045801A8e0893B8b5753f39B"
      },
      {
        "passId": "100",
        "signer": "0xA193976E2312733b25EFb95039A6708617616673"
      },
      {
        "passId": "101",
        "signer": "0x455B999cd04c1d9B782e2528e9c0412DcD085561"
      },
      {
        "passId": "102",
        "signer": "0xFEa391f9f6392073C94eDc9BE24d539F61CfCc74"
      },
      {
        "passId": "103",
        "signer": "0xA3DDA54bF42CBeDF8ad7D8E2C834B62bE0Aedd16"
      },
      {
        "passId": "104",
        "signer": "0x4fA4aB71a92B0647045F4Ee96B7fC8e970c61665"
      },
      {
        "passId": "105",
        "signer": "0x1bA9D4193a916bE3dAAFCDD31a8b0B04ebd5fc7e"
      },
      {
        "passId": "106",
        "signer": "0xe170E25E5aB77ffaAee12c7FA268fC6b4369B86f"
      },
      {
        "passId": "107",
        "signer": "0x1efE2c8Db233b5D3A5A13b51c6692E54B016B1e1"
      },
      {
        "passId": "108",
        "signer": "0xe7Cb2bABBd82AB7443639d2Fe6e014fC4b857737"
      },
      {
        "passId": "109",
        "signer": "0xd0140A48705e18927fE8daB0949c7aeFf8Ab8bE8"
      },
      {
        "passId": "110",
        "signer": "0xD1E109b57805094EaD68C591930E93E1d17B2098"
      },
      {
        "passId": "111",
        "signer": "0x1520c358149C882e31d8d2763135f6B3E7e457d2"
      },
      {
        "passId": "112",
        "signer": "0xefeEf6F882CC88D84e5a285110A3F721156F3c14"
      },
      {
        "passId": "113",
        "signer": "0xf847Cec3983502BC1F94DCb5f7309581E13879e3"
      },
      {
        "passId": "114",
        "signer": "0x8bd3347Ca3703a9C654bD87518D39B7c62e08D19"
      },
      {
        "passId": "115",
        "signer": "0x7777b3172736a3D3c1d3DB71B25aEc3a38b5c360"
      },
      {
        "passId": "116",
        "signer": "0x2DcC58Ade1F374695E08fba58e60520Ba0b8D731"
      },
      {
        "passId": "117",
        "signer": "0x6f1d6Eb3F2eE3Cdc31c1DeBe734195ec6c1DC2e0"
      },
      {
        "passId": "118",
        "signer": "0xC49D1bF7526b88e7e388CC494D826Ef92307fE22"
      },
      {
        "passId": "119",
        "signer": "0xDBf261958F1e10aa13c778Ed022b24150205a05d"
      },
      {
        "passId": "120",
        "signer": "0xC5809B9e40c0DE5b95BdcC7c814E0413733B50b7"
      },
      {
        "passId": "121",
        "signer": "0x0f82CD3f58dc2a73cA9fC361E0eBE24E80914E17"
      },
      {
        "passId": "122",
        "signer": "0x4ff51586f60260Cf7a302E54d8116D3d2262d451"
      },
      {
        "passId": "123",
        "signer": "0xD300d052e553eF8Aa57fD94F9F6ecFdaBa00C795"
      },
      {
        "passId": "124",
        "signer": "0x41E4617D74b3a3E4C7e03b4C4F9859BCa02e8FF2"
      },
      {
        "passId": "125",
        "signer": "0xACBa754302B7F7205524F4734D609F820b583Ecb"
      },
      {
        "passId": "126",
        "signer": "0xe7cd826533C58c99F29b461aAceB30dC47145682"
      },
      {
        "passId": "127",
        "signer": "0x5d48c5A82524cf581647054BffFb6a6CB62D6697"
      },
      {
        "passId": "128",
        "signer": "0x2F25E172664623C375e4d28029a0015d54c8C0B2"
      },
      {
        "passId": "129",
        "signer": "0xcff4600056d20Ffe3E0f4B6092E1570A611602c5"
      },
      {
        "passId": "130",
        "signer": "0xFE29eC0792647639a08b7A518a7f69a7EFaB9BF0"
      },
      {
        "passId": "131",
        "signer": "0x78Db7Cb0b48873243C2CBED469cb56287A819894"
      },
      {
        "passId": "132",
        "signer": "0xa725612C595e782f4CbEcbD35992c4Bd3CF7bdeb"
      },
      {
        "passId": "133",
        "signer": "0x8170a174b26B6d7f23396B67FCD6E99C3B954357"
      },
      {
        "passId": "134",
        "signer": "0x6C82dA201F635C2244E1b449756d60FD0Fb70f30"
      },
      {
        "passId": "135",
        "signer": "0x89Ee13b3bAf5EFe683fFCc4995AA0B15f9EF5F6A"
      },
      {
        "passId": "136",
        "signer": "0xCeF06841AB132Cf37cF3a756b79F8783CCaFd5ec"
      },
      {
        "passId": "137",
        "signer": "0x7916e0598a47825E8fbb9878C43637294F6d2dB4"
      },
      {
        "passId": "138",
        "signer": "0xB2Eb9726B3f5214E4DA77638B592D4fC91115B3d"
      },
      {
        "passId": "139",
        "signer": "0x0BDAce21eBfAc04f6A86F61eaAA85A0eb5E6E173"
      },
      {
        "passId": "140",
        "signer": "0xAC152954e353040503E5D005B957d2481bFb7446"
      },
      {
        "passId": "141",
        "signer": "0x0a55e2aBC750217dF8336F2834cAa39203db7d72"
      },
      {
        "passId": "142",
        "signer": "0x1b19A9FcdA1dA48bb662A3767647Ec762713C3Cf"
      },
      {
        "passId": "143",
        "signer": "0x7E05bd81F10163a93F68Ffe15CF4fe47F0d93A99"
      },
      {
        "passId": "144",
        "signer": "0x59ED3042355D5AE5ecc417dD5075D45aCF470989"
      },
      {
        "passId": "145",
        "signer": "0xf8E98beA347970Ad9E71e6992E103622674B8587"
      },
      {
        "passId": "146",
        "signer": "0xA0D5c61913e49AfB04D30BDe91013BCf5D37220f"
      },
      {
        "passId": "147",
        "signer": "0x5f535b0A3D7aD6Fda3335C71F87262A9323A625F"
      },
      {
        "passId": "148",
        "signer": "0x58BCc3DC1C78bE57f0a28b808549018fED3204b4"
      },
      {
        "passId": "149",
        "signer": "0xb25feFF7651933aC464A5414810515d9269333ce"
      },
      {
        "passId": "150",
        "signer": "0xd5dE6302e512BD1e457E7601A726C2938726268a"
      },
      {
        "passId": "151",
        "signer": "0x25f27f4BbE551d059FC66f1E461b545ac7f148b9"
      },
      {
        "passId": "152",
        "signer": "0xCBecCAf5059d43f28A1d0f9988De954Fd21E7b44"
      },
      {
        "passId": "153",
        "signer": "0x124500f6B889CCF958833591b40541c3b1b53b37"
      },
      {
        "passId": "154",
        "signer": "0x90F5f4A24b53B637885714411523c07301730470"
      },
      {
        "passId": "155",
        "signer": "0xd01fE60F2d0487C5752C3C7c9FDA28F19E2a0681"
      },
      {
        "passId": "156",
        "signer": "0x7Ecf285D4ab427Eaa85AebdEDf42FeceEdFE1353"
      },
      {
        "passId": "157",
        "signer": "0x9E04C4D4dd295dDBc0a7FB292aD1d2C1143eE384"
      },
      {
        "passId": "158",
        "signer": "0x724A977Fc51b3bA2CEDB59435829cE1588fa9469"
      },
      {
        "passId": "159",
        "signer": "0xAda14B4C5E8B6eA6Ae8cf7A8EB113794Eab14409"
      },
      {
        "passId": "160",
        "signer": "0x59156e38f21a4116Cc88e93e48D2Dd52f3CcD9D9"
      },
      {
        "passId": "161",
        "signer": "0xa401D04CcBa68170032dd7Db81BB9CeC8869a083"
      },
      {
        "passId": "162",
        "signer": "0xB750A765c6e4Fc89c61D3184faf05Be17ceFDDbB"
      },
      {
        "passId": "163",
        "signer": "0x8912a5627f65A74675e0d7070cE206eb909210cF"
      },
      {
        "passId": "164",
        "signer": "0xfC395988F3621f6caF32556a98F7F854488800eB"
      },
      {
        "passId": "165",
        "signer": "0xeEab26135484A209fC4350aE8a632aB78BFA5992"
      },
      {
        "passId": "166",
        "signer": "0x1505aDEb998aE3C3C08417FEE9c20E82157861fe"
      },
      {
        "passId": "167",
        "signer": "0x32279e15299B09082C33509c711cFC34b25c4043"
      },
      {
        "passId": "168",
        "signer": "0xdb4D578018b0f3e5C5E2E584522D344a1a814697"
      },
      {
        "passId": "169",
        "signer": "0x7f257553BcF3fd1aa2fAf23823E8c5b73F862C9A"
      },
      {
        "passId": "170",
        "signer": "0x90c185eCC127e3BD73294746b80c45AA52e705e2"
      },
      {
        "passId": "171",
        "signer": "0xf3c3C57945f8fe6dE464D7956E709b9e69a018ee"
      },
      {
        "passId": "172",
        "signer": "0xE590C902B01f3Fc537aac785758599551ba52167"
      },
      {
        "passId": "173",
        "signer": "0x3a76d959050636E9e8da83c9762fF83c44013f46"
      },
      {
        "passId": "174",
        "signer": "0xD641880bd509b752A7D831764A1c9ddFDadb02B1"
      },
      {
        "passId": "175",
        "signer": "0x2E0dCEe425c2b0B4843FF3a7dCeA9FF6EE36f081"
      },
      {
        "passId": "176",
        "signer": "0xc50202A5A04bA85bE5CBD35F9156299AD1b6A328"
      },
      {
        "passId": "177",
        "signer": "0x43FE3148A560DA990681C3D4A22eC263Bd40B8C2"
      },
      {
        "passId": "178",
        "signer": "0x21d195d69C830Ab45BF37839D1625aB0fdE4d5d3"
      },
      {
        "passId": "179",
        "signer": "0xCc36640B3b02de7EC3CBF9Ff4213950B5E1ee83A"
      },
      {
        "passId": "180",
        "signer": "0x7CEF54343366199D593F645313Dab92861E5475a"
      },
      {
        "passId": "181",
        "signer": "0x6D90b5Ad1531f89bEEB0Cb1445BB1a3E8F1D6BeA"
      },
      {
        "passId": "182",
        "signer": "0xCF3fBE08823Dbd4016d2898fdbE77C983D94fcE8"
      },
      {
        "passId": "183",
        "signer": "0x2619bc9BE2Ecc6DEE8257c95C6cd786d55B59B29"
      },
      {
        "passId": "184",
        "signer": "0x6d76dB51C8Bdf219117B73F7229FE55694E32185"
      },
      {
        "passId": "185",
        "signer": "0xe94BDb7262fAD1F30a94a09B9082EDed51E727f4"
      },
      {
        "passId": "186",
        "signer": "0x16c7e9Dd549984aFef5BbfA5C210e1960b1FC5c3"
      },
      {
        "passId": "187",
        "signer": "0x043340e75bBDB151015De83d1335f11264C417C7"
      },
      {
        "passId": "188",
        "signer": "0x637829Af74DfDBeA590869BFe7700F8196358F05"
      },
      {
        "passId": "189",
        "signer": "0x70558e6141e69Cbe3f2b236e614a914885630c46"
      },
      {
        "passId": "190",
        "signer": "0x89A4D0b601161950994985f4ED209E161f9Fe7e4"
      },
      {
        "passId": "191",
        "signer": "0xcE2b094C6CffcF7b3cD99fac5909CE41311Faa4e"
      },
      {
        "passId": "192",
        "signer": "0xf251a004E82e1255f4d534B9399968E7c37615EC"
      },
      {
        "passId": "193",
        "signer": "0x24e2086b443Ec72BC40D1245cF39fe28C308718B"
      },
      {
        "passId": "194",
        "signer": "0x13d3643d28062e0a9E6aE8826e02B04D1bc64deB"
      },
      {
        "passId": "195",
        "signer": "0x33Fc5421979Ba3282A9312F15A7f301523Ae1949"
      },
      {
        "passId": "196",
        "signer": "0x2E764AE6a78745178D608021dD46ceAFF96AcE6C"
      },
      {
        "passId": "197",
        "signer": "0x63B479C1Eb578c441F54E4520eeD76F18710BcBb"
      },
      {
        "passId": "198",
        "signer": "0x9A28cD000296B58dBC4B1d846e96Ec5a01Cb70e1"
      },
      {
        "passId": "199",
        "signer": "0x10310A3ea2F43889A4d117d19b7F464fB4F2011D"
      },
      {
        "passId": "200",
        "signer": "0x435E41e769347df60797Ea7B28D31dc9b5aFE1aF"
      },
      {
        "passId": "201",
        "signer": "0x3c806DA025DB751F2D5E3097b3944beCAbdc4CBa"
      },
      {
        "passId": "202",
        "signer": "0x80e651BE08ad9186f70bef9ce30B0A20aB482273"
      },
      {
        "passId": "203",
        "signer": "0x805f5c4879a67C2caB9959DBc753aa5847669606"
      },
      {
        "passId": "204",
        "signer": "0x152656653D9D2414E40F094D643EEbcAd67c0827"
      },
      {
        "passId": "205",
        "signer": "0x00ACCDDe8fc4062d85f9F42979b17f15fa00D004"
      },
      {
        "passId": "206",
        "signer": "0x861acf1d800Dc2089CbF7df0fcF618e821BD202b"
      },
      {
        "passId": "207",
        "signer": "0xC07b2695EC390762075e24eC77902e89b5c86526"
      },
      {
        "passId": "208",
        "signer": "0x84b71117ef273e81B46748C12b44A783304E4682"
      },
      {
        "passId": "209",
        "signer": "0xF7169a941E9232B12cdA00Fb3de5ef034CC8a490"
      },
      {
        "passId": "210",
        "signer": "0x9FB2180F339D02dF597cF928190cE3CA0Db60bDC"
      },
      {
        "passId": "211",
        "signer": "0xB1B092Dd1FFd1e33c8Bd2947c0Db79248FB084ff"
      },
      {
        "passId": "212",
        "signer": "0xcBB5B88BE5C32753d4b835a808Ec3A21B41A73dC"
      },
      {
        "passId": "213",
        "signer": "0xb93D6E2c840b09aEDD13cB0270750Dc7291859AC"
      },
      {
        "passId": "214",
        "signer": "0xA09B2C67c071A0dAb9D59B24Ba4938B5B39AE5ED"
      },
      {
        "passId": "215",
        "signer": "0xc97d6D78dFeB3DAc5C6c45ab063FE30950983c58"
      },
      {
        "passId": "216",
        "signer": "0x7e8028671c6134Db52E5C07444b111994ca4C97E"
      },
      {
        "passId": "217",
        "signer": "0xBd6a9a815f0Ff8DfBe279CE6214EE1F4280b07DE"
      },
      {
        "passId": "218",
        "signer": "0x6b2AAD949d8dffa46Ca410FDae795BB52Bc1344C"
      },
      {
        "passId": "219",
        "signer": "0x950DD872301C4eB4b901B16bD334F2D1DAc7e932"
      },
      {
        "passId": "220",
        "signer": "0x5deb6dDDC2431f5845e7a9B55B02B132C4958e4F"
      },
      {
        "passId": "221",
        "signer": "0x3F8F7eb2590A3CF87Bd25bF301065dd0740440cA"
      },
      {
        "passId": "222",
        "signer": "0xa2eC730A9D0997DA6b415553A94eBb25dF3BeD28"
      },
      {
        "passId": "223",
        "signer": "0x2703223C0201F4Ec89805aD0073664BA5F9719fe"
      },
      {
        "passId": "224",
        "signer": "0x19F33995eeAfF3aB07fFDaC3f4B8f973dbc2301e"
      },
      {
        "passId": "225",
        "signer": "0x062B0cBbdA6Ff6A6D67135e426E91Bc83b0620d3"
      },
      {
        "passId": "226",
        "signer": "0xFEC46bbb220044978F4BD1fb7b2C3695552ea017"
      },
      {
        "passId": "227",
        "signer": "0x0F801F3046f1173eA9d518F915AcE16A2de836f5"
      },
      {
        "passId": "228",
        "signer": "0x0EA0a24CFdD43e1CB76320D82d648376FedCdF69"
      },
      {
        "passId": "229",
        "signer": "0xe522c5b84dd015aCFAEF704e027bE25b21b2Cf8D"
      },
      {
        "passId": "230",
        "signer": "0x3361864A9009a6F81Ddf3d9ddd2F3a60AeACf447"
      },
      {
        "passId": "231",
        "signer": "0xF6Ded11350466CAd623cbf7ccF6F6786E473B524"
      },
      {
        "passId": "232",
        "signer": "0x3c9C2d9B3077676EE649b76842e70eD296Ba4dCB"
      },
      {
        "passId": "233",
        "signer": "0xbA3aEc2B7dedA38Ea20b706340A74a2a8709AE13"
      },
      {
        "passId": "234",
        "signer": "0x7CC686Ad75F77c240E2796B7a19444aE242E78Fc"
      },
      {
        "passId": "235",
        "signer": "0xC18a27D4ccDd5F9bB1c6a7E91B1da14545a495c6"
      },
      {
        "passId": "236",
        "signer": "0xb49bC100ed96301B1d9D404d90CA8761EC0f2521"
      },
      {
        "passId": "237",
        "signer": "0xd54535baabe3C1633F4ED93163BC0B47D4feAB73"
      },
      {
        "passId": "238",
        "signer": "0x38F4Ad07e0587151D9646A5b2997aB0368e39546"
      },
      {
        "passId": "239",
        "signer": "0x635c2dDec1A1279c7E616194F6571C0EF8d1eb7B"
      },
      {
        "passId": "240",
        "signer": "0xCEED30F6eb2D8ECB674D49AD1c572FDFDaA90b82"
      },
      {
        "passId": "241",
        "signer": "0xAAA8275E47Cf3dC48F577262f28b860591792f31"
      },
      {
        "passId": "242",
        "signer": "0x5A6308780c670004733F44171E64ECe2188FDb30"
      },
      {
        "passId": "243",
        "signer": "0x03bB6e13820225dB111Ec4Ae28Ffa6f80E4F4332"
      },
      {
        "passId": "244",
        "signer": "0x7047Bcb2D1673FA092a5F1E62D6d00a8c0b44f76"
      },
      {
        "passId": "245",
        "signer": "0xd0155eA829c620089F7Aa2d5d45DB426dd22D0Ec"
      },
      {
        "passId": "246",
        "signer": "0x7D9e44f0D20D1d03f105938d0EADd89441710D05"
      },
      {
        "passId": "247",
        "signer": "0x9daC0CdFBbd33F92dF69E1e1dd93233B1bfF148d"
      },
      {
        "passId": "248",
        "signer": "0xC84a321215404e1de55EDC37c40fB6DbEe3Ac4A2"
      },
      {
        "passId": "249",
        "signer": "0x8035bb6648524016BF4694462d1DA73E06Bd7436"
      },
      {
        "passId": "250",
        "signer": "0xB870D67484A4e8Fb928662065D561E803C541571"
      },
      {
        "passId": "251",
        "signer": "0x46c9BD3eFb06315a8D56284aE4a37fd343bACEa6"
      },
      {
        "passId": "252",
        "signer": "0x15CcD3DaBDB86EffA8F6799d7c5451811ab89A7e"
      },
      {
        "passId": "253",
        "signer": "0x1e0fe80e4ed4117EFA32DFdf42972186356A9BD1"
      },
      {
        "passId": "254",
        "signer": "0x47DF6335f11a0979281A7b0b62f77831206C3A3e"
      },
      {
        "passId": "255",
        "signer": "0x63bb4985f2CA7421EC96A54E1C05727768Df2Ca8"
      },
      {
        "passId": "256",
        "signer": "0x066850D3143CF5e207a812f1575B6f0Ef501d008"
      },
      {
        "passId": "257",
        "signer": "0xD5E15790A527F5F5dc15F1A8cab7Ea970D828BEE"
      },
      {
        "passId": "258",
        "signer": "0x89564817F678CbcDaceA6e9e1Fa118E0dDdB5b0F"
      },
      {
        "passId": "259",
        "signer": "0x56E841f62cb018Ed0ca3B5e64CD4547a239e13f4"
      },
      {
        "passId": "260",
        "signer": "0xD52EA89824638d9b6E05Fa53deF5da12DC6e360b"
      },
      {
        "passId": "261",
        "signer": "0x7B14217010F2911c724736108eF2409B121EcAA3"
      },
      {
        "passId": "262",
        "signer": "0x6658294a56Aa5EF4763C0200F67797320FcC4137"
      },
      {
        "passId": "263",
        "signer": "0x6A77b2BA46675c3601754c86a6bbb36520491988"
      },
      {
        "passId": "264",
        "signer": "0xC15F287b3A156E59021b4D56C1F3172567852aa7"
      },
      {
        "passId": "265",
        "signer": "0xC90aD0036E18640106A8b6B41068AB5A7aA45768"
      },
      {
        "passId": "266",
        "signer": "0x7C2fd525563e6a041368f0191Db0b12Ed8d6ff69"
      },
      {
        "passId": "267",
        "signer": "0x6AA3156f88D2c46F1a464883C097e569A8b25f52"
      },
      {
        "passId": "268",
        "signer": "0x13Ff493B624Afdf54712A33B85F710B699e03313"
      },
      {
        "passId": "269",
        "signer": "0xf659FEC07e7174d8E8c9bb9328D73a85EeecF5A4"
      },
      {
        "passId": "270",
        "signer": "0xf34136dc56F07c0e27B1f1B529A47a02d3cF5CC9"
      },
      {
        "passId": "271",
        "signer": "0xD6bC7f59d7d044a62183E8B02d486E93c9Dae9b1"
      },
      {
        "passId": "272",
        "signer": "0xdb3Db472Ef8cB6c7F1A36786fb76C03A5d93013C"
      },
      {
        "passId": "273",
        "signer": "0x00bbfB0be56Fc11ecBf83D80bF64d9133a85f0E3"
      },
      {
        "passId": "274",
        "signer": "0x8622725F11cCd3a344e80262a4CAF9c62DF8e95C"
      },
      {
        "passId": "275",
        "signer": "0x8988B94074f0be162dc1ABD21fc499505DdF365a"
      },
      {
        "passId": "276",
        "signer": "0x0a7b9AE272422fF154303B499737239b75D50dF9"
      },
      {
        "passId": "277",
        "signer": "0x88a525Ca10AEF088BBC71ce9a7BB861fc2FCAC75"
      },
      {
        "passId": "278",
        "signer": "0x9aca1EC24e2068d0F6bDA377591CcCcCc8bBdd01"
      },
      {
        "passId": "279",
        "signer": "0x4F674b8299d2EcA0C6D9ea9199AEE820DA348e87"
      },
      {
        "passId": "280",
        "signer": "0x43DB8d6e3B0AF41d2aB9F811034A6AB371948648"
      },
      {
        "passId": "281",
        "signer": "0x4a40b3B49187910c1e231eDf3550582B9Ab4Aed3"
      },
      {
        "passId": "282",
        "signer": "0xBab98daBca0827Ad873B2BA2D8d6d121c45C0e05"
      },
      {
        "passId": "283",
        "signer": "0x81512E1D57122f4316e1cF8B9F06F92847a332ec"
      },
      {
        "passId": "284",
        "signer": "0x0E94109bDb9a6E7eb82758552e010755D38031e3"
      },
      {
        "passId": "285",
        "signer": "0x2957A8aBD84d218c2A8bE7fAb4ABC3dCe690957C"
      },
      {
        "passId": "286",
        "signer": "0x6327Ca3e271602768ed2BeE9159254a4F4AAe88d"
      },
      {
        "passId": "287",
        "signer": "0x25203A8137901d1C4D597D1e252E7CA93A9c96da"
      },
      {
        "passId": "288",
        "signer": "0xFce334f455Ab0591E9a1573a98097598Dc15BC7B"
      },
      {
        "passId": "289",
        "signer": "0x27A0f8737DfDed2C108F699349fB45314d3Be8CD"
      },
      {
        "passId": "290",
        "signer": "0x9efEB36a7540D506aA480A553D5B39c2b144E271"
      },
      {
        "passId": "291",
        "signer": "0xf961D588c403E7A3C40de1295cA0778806F8bFc9"
      },
      {
        "passId": "292",
        "signer": "0xC661918D3882F246dB2535136D298A2d2A562aC8"
      },
      {
        "passId": "293",
        "signer": "0x4dF9e5122C0b9E3bF05F282F076CE2dc5CEEf3Be"
      },
      {
        "passId": "294",
        "signer": "0xD504bb0d10f7a7Ec2884D0E23d6179336E267aAc"
      },
      {
        "passId": "295",
        "signer": "0x47c6E5cbcB4a1EA2C8C349af115C0F3b2b888259"
      },
      {
        "passId": "296",
        "signer": "0x7D433dD254485aBF19786b7be8480897E1F4BB91"
      },
      {
        "passId": "297",
        "signer": "0xb5477d1d8FCeE6D987ba504f3C972aB0a54e9b31"
      },
      {
        "passId": "298",
        "signer": "0x2386d4920adB299ded4359D5D979016658F46267"
      },
      {
        "passId": "299",
        "signer": "0x1F43aCAA2690C2585F469Db269989d42d6949F8a"
      },
      {
        "passId": "300",
        "signer": "0xB53E020b2c3fe5B5830F9bD0FeB5e31863572E66"
      },
      {
        "passId": "301",
        "signer": "0xDF7baefF4653A8f0770a1BBA96cCEc1B2A29e4Ee"
      },
      {
        "passId": "302",
        "signer": "0xEe54175BEd96c40B2c8389A62b9628cd9b5de9Ea"
      },
      {
        "passId": "303",
        "signer": "0xeF86CAa8f2e1dC56d13A08BC717746F859d51208"
      },
      {
        "passId": "304",
        "signer": "0xb788Be970faC6534914b04e5D96B44E718F5B458"
      },
      {
        "passId": "305",
        "signer": "0xc267AcEB447674524Bf0029Dd434Da59Ff9B6fc1"
      },
      {
        "passId": "306",
        "signer": "0x0E17820383Ce49FA4EA67e6E77F94c5B1Ec2010f"
      },
      {
        "passId": "307",
        "signer": "0xD0D8007E35f554A05097A2c8431a72F9086E9A55"
      },
      {
        "passId": "308",
        "signer": "0x10137877e3E1f26Fd735E6f357b00Ef3f9721c8d"
      },
      {
        "passId": "309",
        "signer": "0xc168BA7446b07bd7a43Df4C3CC3f0Bc35518710C"
      },
      {
        "passId": "310",
        "signer": "0xBa1CaF61baA8aAb9aCDC6b19a554114B9490878B"
      },
      {
        "passId": "311",
        "signer": "0x6507afFA613ADd3fe7671FA4F84CBa43871edF01"
      },
      {
        "passId": "312",
        "signer": "0x0f913Bd82a82b3747ac3aE2c14f92166584146E0"
      },
      {
        "passId": "313",
        "signer": "0xC33992AB753eb388c9846a617F3f114bA6CD6C7A"
      },
      {
        "passId": "314",
        "signer": "0xF7D684fac16D4362c651288c88134f26069ac05E"
      },
      {
        "passId": "315",
        "signer": "0xD8D26b3e648066271980e0127AC2B8BbDe625352"
      },
      {
        "passId": "316",
        "signer": "0xD7DC5E34AD482290c46c892aDc1D544eF2d6C079"
      },
      {
        "passId": "317",
        "signer": "0x75B8233da89D758b64c0d7EE6b0F08d16B361c24"
      },
      {
        "passId": "318",
        "signer": "0xB83AfBBF657A91c9b72E1a0E28Baac6D3c647B5F"
      },
      {
        "passId": "319",
        "signer": "0x114CF0455Ae7D318db0944e89a4c7980D100d988"
      },
      {
        "passId": "320",
        "signer": "0xbabAeF9783cB6e1d87a6CF6CA9ED101D9948D364"
      },
      {
        "passId": "321",
        "signer": "0x2796aa7FB1629fAFB3D92029d5FabBC71c313058"
      },
      {
        "passId": "322",
        "signer": "0xd933fAE51441C585A81899E5D5CC823d090bDB57"
      },
      {
        "passId": "323",
        "signer": "0xFA3216552057585512C1b1670FCdabE7CE1C2842"
      },
      {
        "passId": "324",
        "signer": "0x9b079594af6bEe9c8EEfaDa1b29Acfcc77Ef4229"
      },
      {
        "passId": "325",
        "signer": "0x3F02d965a30b38c65E5c8504F2e5b3bC7755d5E8"
      },
      {
        "passId": "326",
        "signer": "0x9Cc433bA339447b0b7F6AC2297A80Be65dE28DCe"
      },
      {
        "passId": "327",
        "signer": "0xCAcbEfEC345d7BC358f4d894b121017bd11b7164"
      },
      {
        "passId": "328",
        "signer": "0xb715029Bd2E32f9293A12b8036c8020cc29A27e8"
      },
      {
        "passId": "329",
        "signer": "0x61716E2Fb25a7205d85BFcFf965CD233c2ABD82b"
      },
      {
        "passId": "330",
        "signer": "0xc1F19D18852343DBf3658164543B5f9bc0F1DE7f"
      },
      {
        "passId": "331",
        "signer": "0xe13115658D049d20f33BC11F717CEb9F28197D57"
      },
      {
        "passId": "332",
        "signer": "0x37192FcE04BF0AfDBFEFa50848C34b2B747B8fe2"
      },
      {
        "passId": "333",
        "signer": "0x9C73Ff7297d72eD7c8e0085ACE4C2dA693b226b3"
      },
      {
        "passId": "334",
        "signer": "0xEA9c2C10B94a3CDd70bdFa3bB95f403E0B21464F"
      },
      {
        "passId": "335",
        "signer": "0x487b44befb19c494ca27FB41C194d14Df4dD368C"
      },
      {
        "passId": "336",
        "signer": "0x6b436aEC8110D06fd00D9C23e3b68b450023cDd6"
      },
      {
        "passId": "337",
        "signer": "0x93CF721D8DD8EC4Cff6A6116B1bCd74D0a4E148e"
      },
      {
        "passId": "338",
        "signer": "0x6881d10Aef81E59e6eDe2f0bDC217532D8d077c7"
      },
      {
        "passId": "339",
        "signer": "0xC8b24fBF72DD81d7393Eb0225D22d221E8643B32"
      },
      {
        "passId": "340",
        "signer": "0xcFda551D4c2C11A92Eac1bf04F0166BF8636B32a"
      },
      {
        "passId": "341",
        "signer": "0x9fabc1D6dD7BFDa0Ac87d7FAc55e93cE11e5627f"
      },
      {
        "passId": "342",
        "signer": "0x27211123ffe3Afe5b5aA18aEcd4e8986F11B32fa"
      },
      {
        "passId": "343",
        "signer": "0x13f17EbFbA35C386CD50E13766E3aB887c2eF909"
      },
      {
        "passId": "344",
        "signer": "0xe9d91521f02A4d67A3a17982F06B1aab74F6B817"
      },
      {
        "passId": "345",
        "signer": "0x618886546903D5aae4401AceCDA07fD201Bc5beb"
      },
      {
        "passId": "346",
        "signer": "0x47D87D1b4f8024B73CB257cE7325D48E94986a6e"
      },
      {
        "passId": "347",
        "signer": "0xb5572FDDcD09678e945A00fca31DFAb90bd8F4e6"
      },
      {
        "passId": "348",
        "signer": "0xF27fd5eC9180E732F88A60D30699aeBE86B1bf46"
      },
      {
        "passId": "349",
        "signer": "0x92Eda625d36265AefA0E3F21519d221aA62B4683"
      },
      {
        "passId": "350",
        "signer": "0xdC3b48cB2C43F15FE3c353cbf871750485841ea0"
      },
      {
        "passId": "351",
        "signer": "0xC4a22BEBf60B6540FBb809e8c1706C25cbdBA80E"
      },
      {
        "passId": "352",
        "signer": "0x2ce41a483C96cd778620FEd3Db02cBadF167b68c"
      },
      {
        "passId": "353",
        "signer": "0x36c753e344519B4E81aAAfd06425E97d0Fae27A3"
      },
      {
        "passId": "354",
        "signer": "0xB35b20f3F236624dc406bcaD12E5C3bC477f7A0D"
      },
      {
        "passId": "355",
        "signer": "0x3B3e0D7F1a549Bf08ca7AAE32191F493A4d1Ccb6"
      },
      {
        "passId": "356",
        "signer": "0x76B8EeA2f975843563CBFbC268cDA0488835EEB6"
      },
      {
        "passId": "357",
        "signer": "0xC7E30663b83270A90793e5E852FC932aD98D2C50"
      },
      {
        "passId": "358",
        "signer": "0x87F491C395A67750B06c55e604C1588335DaefA1"
      },
      {
        "passId": "359",
        "signer": "0x4eF8E2bd6d4DA6fa948F556e14D524687d88aA0E"
      },
      {
        "passId": "360",
        "signer": "0xb964636eA638062069844C3a4D1cb129a8509b9e"
      },
      {
        "passId": "361",
        "signer": "0xb88d4FbAB32E712D168dc5CF3cbbB76a89E9C1AF"
      },
      {
        "passId": "362",
        "signer": "0xe07B0b7cBE5E0375A7C30da445c7439a0be712df"
      },
      {
        "passId": "363",
        "signer": "0xb410630C18014093b166191598C2c8450D3eaa10"
      },
      {
        "passId": "364",
        "signer": "0xecC1827A9f5E439623727BF30Cdbbe26F499aA58"
      },
      {
        "passId": "365",
        "signer": "0x5055B7C1f5738a0Ff3313B25E6Ec5743E1b5c91a"
      },
      {
        "passId": "366",
        "signer": "0xC441B9edd1c581079c07A62DDE6E6735E25DC14E"
      },
      {
        "passId": "367",
        "signer": "0x05384ECFcE633D9b7Ed706F0C7eAC4b9461358B7"
      },
      {
        "passId": "368",
        "signer": "0x35F6835D8fb584f71Fff9271C965005Bb3Cf85e9"
      },
      {
        "passId": "369",
        "signer": "0x89f30cd265167D778098C28c4FbD7c9e1e068dF1"
      },
      {
        "passId": "370",
        "signer": "0x46c7B761058F2a910bA0cA42DaC2eCF15ea7cdFA"
      },
      {
        "passId": "371",
        "signer": "0xBdc98C08Bb28BAA6143A0b0241cD379611E8fF7e"
      },
      {
        "passId": "372",
        "signer": "0x680644904aecAa49694DEb9b6f77563c342E6507"
      },
      {
        "passId": "373",
        "signer": "0xbF6d32DAA78A38cC853f4aDdBA25e7A1887b46eC"
      },
      {
        "passId": "374",
        "signer": "0xF737ccc3cFcd12451A60a2D1CC5C5Db95beeAD54"
      },
      {
        "passId": "375",
        "signer": "0x2F0Aa75737b4196fbf721f054b7e726b8c7c1F80"
      },
      {
        "passId": "376",
        "signer": "0xA93E90dC580c924F7607C5398A332d394a900d41"
      },
      {
        "passId": "377",
        "signer": "0xCb5a957BA10D91E496F5627e0149599784840308"
      },
      {
        "passId": "378",
        "signer": "0x3faC1386aEbb9EE06b94295e52a3630a9b47aaA4"
      },
      {
        "passId": "379",
        "signer": "0x957157e8686d990B14B310cC5d99817D0Ca677A3"
      },
      {
        "passId": "380",
        "signer": "0xbEBBE92356D3d419d5BA0aDcb46e2038007979E9"
      },
      {
        "passId": "381",
        "signer": "0x237B2cd6C4CC231E33656B2210817E692EeC0D1a"
      },
      {
        "passId": "382",
        "signer": "0x4DaCf2A9987aB0be24852E122D84ad5BAE0C4012"
      },
      {
        "passId": "383",
        "signer": "0x69FFd54B1421bc086f75200c1df3e26D7ca38065"
      },
      {
        "passId": "384",
        "signer": "0x1D16459583cBecD2C6551FC2572FE2f2A99967F1"
      },
      {
        "passId": "385",
        "signer": "0xE9bBb49770Ed240f081Dd508B3d2FFdAc3caC704"
      },
      {
        "passId": "386",
        "signer": "0xc35B66371fdd05980e783933Bd6BeDB8347ceaEa"
      },
      {
        "passId": "387",
        "signer": "0x62f16948ed0ee743a9413659Ed920C01fC5F3FF9"
      },
      {
        "passId": "388",
        "signer": "0x9BBf80E2B0fF0BFd02840f8e3ef100036cb4527e"
      },
      {
        "passId": "389",
        "signer": "0x78067F6bCa4634283D21387CBDdFf53e0644A51F"
      },
      {
        "passId": "390",
        "signer": "0x13AfA58725e292e94AE02771Cb772333Bb4ed40a"
      },
      {
        "passId": "391",
        "signer": "0xfE0320a0625486ccAeE6B93ad639cCaeb8BD9cDD"
      },
      {
        "passId": "392",
        "signer": "0x078Cd9702A60e855426b0371237AB437d2aD76a0"
      },
      {
        "passId": "393",
        "signer": "0x99d3A5aEEe4b3FD379BB769856f4c7E85e7AD166"
      },
      {
        "passId": "394",
        "signer": "0x7603Cfa78c96B6d16855818b526e84A72b18f5a3"
      },
      {
        "passId": "395",
        "signer": "0x0890221707de15F7832Fd4e4a0F67F9A057712E8"
      },
      {
        "passId": "396",
        "signer": "0x09451aF753839b73160cC929bA1BDa33ADb71a9B"
      },
      {
        "passId": "397",
        "signer": "0xB7c5a1355C45BB177660679d7D12799d320DC33c"
      },
      {
        "passId": "398",
        "signer": "0x947698fE0B7c072E98c9E6EdcD526F33A60F023E"
      },
      {
        "passId": "399",
        "signer": "0xe88D317759DE1e2feFAb01774dd17535a072cb4f"
      },
      {
        "passId": "400",
        "signer": "0xa1457d09d3055ff44C54F412D9b23554f93743b1"
      },
      {
        "passId": "401",
        "signer": "0x698737Ea4a3F1A904326516e52F9b0DF496032Fb"
      },
      {
        "passId": "402",
        "signer": "0xA2e35848E6063b0117b7d403a1b680f8D62E519b"
      },
      {
        "passId": "403",
        "signer": "0x910820C4617928aFc5Ee48b2c65259C6807645e6"
      },
      {
        "passId": "404",
        "signer": "0xc4Ac206612314063B4a19f8640bB82Ae4815BA8D"
      },
      {
        "passId": "405",
        "signer": "0xEAdF8ca8CFbD7Ba3f4680695f3e2c6153549CE5C"
      },
      {
        "passId": "406",
        "signer": "0x647a86dBfEbFF78Da223155CA344AE70DBF89CA3"
      },
      {
        "passId": "407",
        "signer": "0x1C09C079785f926582666BE61b568a170fF4F2D3"
      },
      {
        "passId": "408",
        "signer": "0x299e5530B49bdF640c6b1C56d824E1245AbBEf1F"
      },
      {
        "passId": "409",
        "signer": "0x9CF9090d30909cC80d26D37f3079f81223Cee2F0"
      },
      {
        "passId": "410",
        "signer": "0xa865b611FC120bfD6e6024AD71550a8D07213270"
      },
      {
        "passId": "411",
        "signer": "0x6c59E84599E6578373Da4114819B9903071cac05"
      },
      {
        "passId": "412",
        "signer": "0x958375D04f360dccf78748ecE02c19d8DADea8d6"
      },
      {
        "passId": "413",
        "signer": "0x6E76fc5dB463d9684d160410f28846172EaB99D9"
      },
      {
        "passId": "414",
        "signer": "0x0C5E6AAEa7c16b2335C3EE1CD60f0c9FB9510896"
      },
      {
        "passId": "415",
        "signer": "0x47E2adCb6c3D2d030d19ef537CDDE22493d349A5"
      },
      {
        "passId": "416",
        "signer": "0x2FD0fe9B768f48CA3d0209bc6f6A339Ebf044D69"
      },
      {
        "passId": "417",
        "signer": "0xB10769F571f0A6Bf472E4116e45a655499905cF4"
      },
      {
        "passId": "418",
        "signer": "0x9B701fedc3f299d6F8997cF80298A5fa930dAcC3"
      },
      {
        "passId": "419",
        "signer": "0xDBE09AB6F9D7576160295E16E72B4D7DB41c4579"
      },
      {
        "passId": "420",
        "signer": "0x4447E59Cb857575E3098C2D3E8131b66Be8222AB"
      },
      {
        "passId": "421",
        "signer": "0xe2bAEB5554A538500eEE918148637BE917dB2448"
      },
      {
        "passId": "422",
        "signer": "0x1c4FD93f315Ac64434339957892809211112499d"
      },
      {
        "passId": "423",
        "signer": "0x8a94183d5f72FBE8A2cb0d48d79EBe7800011E7e"
      },
      {
        "passId": "424",
        "signer": "0x7c13013eDf48fF3ecFDDC3aa84091f67F3aC824D"
      },
      {
        "passId": "425",
        "signer": "0x5EcCB37806110E35ccd0747DCc2Cc61D55453757"
      },
      {
        "passId": "426",
        "signer": "0xe8A31025d55f16BC53BD70D027887d2cd810b7c8"
      },
      {
        "passId": "427",
        "signer": "0xB6E6dbf6E8497532E9DF1c01D8E4076B04eeE7a6"
      },
      {
        "passId": "428",
        "signer": "0x9043FB20BC311b1E38Ef42ceaE1C9Ed43ADA21C6"
      },
      {
        "passId": "429",
        "signer": "0x25Bb5cd4f0c6F238fAFE770D4E0f8641b08c4Ce1"
      },
      {
        "passId": "430",
        "signer": "0xcc613E0ED0659C8e247718098748B90A802dF969"
      },
      {
        "passId": "431",
        "signer": "0xa0BaE1F96A82B16eA2f42A21DaB6451d2A71166B"
      },
      {
        "passId": "432",
        "signer": "0x4F7ef102b43Cf5fA69927C5BA6a5bA2746515064"
      },
      {
        "passId": "433",
        "signer": "0xDC7d30D218A3C9740d3e3C7944cFAED4912558E0"
      },
      {
        "passId": "434",
        "signer": "0xA3b561F5654c9524A094f130d8198779Ce7b33B9"
      },
      {
        "passId": "435",
        "signer": "0x261851d678eCbdaE4C1b7765e44713683ce6853C"
      },
      {
        "passId": "436",
        "signer": "0x6C196a7F280C1f255be912CA68E6BafA9dCD46A7"
      },
      {
        "passId": "437",
        "signer": "0x3513a79A362c1F01480d8fed454c662B20765E11"
      },
      {
        "passId": "438",
        "signer": "0xA05C93ad5fC433E9EC1eC0B9D77da68793aa3a15"
      },
      {
        "passId": "439",
        "signer": "0x47E3436BfE12D18AE7F311e9984B5421316f391B"
      },
      {
        "passId": "440",
        "signer": "0x5Dd9F5BA45e52dd67786272f903FEfb9B3530675"
      },
      {
        "passId": "441",
        "signer": "0x4000FfbCa476C8E650cE6f375444e8dC268a98b1"
      },
      {
        "passId": "442",
        "signer": "0x57d4F8A109F23784154fC53d4214FcE356bB3090"
      },
      {
        "passId": "443",
        "signer": "0x57a0A2f89ab7744Ce5b450f1e973e571DCc51Df1"
      },
      {
        "passId": "444",
        "signer": "0xe245A873a39157E3865C3EEAebE56096534f888E"
      },
      {
        "passId": "445",
        "signer": "0xE5d976f3312F4a272345ea2b4f338cE703cD4B50"
      },
      {
        "passId": "446",
        "signer": "0x8F6FEF50d308557b0c1158Eb6dee7B0583CfC1f0"
      },
      {
        "passId": "447",
        "signer": "0xa3188dD4b32E468A982009A35A00aA99d7aFd114"
      },
      {
        "passId": "448",
        "signer": "0xDD2466b3E0b774236a3B212F4ee990B8275C4f43"
      },
      {
        "passId": "449",
        "signer": "0x5820d3C6c58999F915c51c27776f7AAfBA9Fa9B8"
      },
      {
        "passId": "450",
        "signer": "0x2db9C09ed48c8E1fe429DDc27d3832BFA89D983D"
      },
      {
        "passId": "451",
        "signer": "0x02E6a2c0E7C9943a8b9d12DdC6F9F8EdC497A372"
      },
      {
        "passId": "452",
        "signer": "0xc42b56Bd552169B39382c429f81Fe8203e0996D2"
      },
      {
        "passId": "453",
        "signer": "0x63f7cD27A1ea78b986D2CA0A0028F781eB89c1f5"
      },
      {
        "passId": "454",
        "signer": "0x45D31C3B911DCf59eA7Ca25bA2C5Cd27D0e012C9"
      },
      {
        "passId": "455",
        "signer": "0x89FD4dAf6f3AeDc0ee9594DA6098e5e624b3f9B8"
      },
      {
        "passId": "456",
        "signer": "0xf4C635Cd53D0172cDc5CDdF9aFf822FE00b24e6D"
      },
      {
        "passId": "457",
        "signer": "0xDA5C4e7bB6bb1aDd5B40e2a088b065D7ECD862F3"
      },
      {
        "passId": "458",
        "signer": "0x4063B76c477116e852311D88228cAD9b933c0Dcc"
      },
      {
        "passId": "459",
        "signer": "0x2B3Cb2008e399697B595895ffeA03Cda6D0CF217"
      },
      {
        "passId": "460",
        "signer": "0x5b22DB2cB9D657Fe63e6069F644Ec59c2D97F64d"
      },
      {
        "passId": "461",
        "signer": "0xCaA7222cF5792B7e0dbd8D68473C61b2736664F8"
      },
      {
        "passId": "462",
        "signer": "0x87dfBE7EC981B427A416e2aD0bCbCE29Ca4e22d9"
      },
      {
        "passId": "463",
        "signer": "0x8C0Bd5fCd76630eb18Bb771C1aA24B83312b329E"
      },
      {
        "passId": "464",
        "signer": "0x8c12BF949606964A191A1AF5f44049eaa4CF7027"
      },
      {
        "passId": "465",
        "signer": "0xF616b286D741088840cA913275309D8809e86526"
      },
      {
        "passId": "466",
        "signer": "0xBB4d5adDDd660397859C524c8beF5c98e6D90487"
      },
      {
        "passId": "467",
        "signer": "0x4FA97C512FD5C71e605116067D5fC05D28b9ee22"
      },
      {
        "passId": "468",
        "signer": "0x0188d2AE4AB2DFC32C8498ed423Cb457b41fA9e9"
      },
      {
        "passId": "469",
        "signer": "0xF54B2dEF0aA2e29Ab4264C8cFc6F3db218747B03"
      },
      {
        "passId": "470",
        "signer": "0x119D4881Bc5D808E9AaC9Dd2Bc732Cf6AB19e4e4"
      },
      {
        "passId": "471",
        "signer": "0xBf8AF1530781Cb016701Cb629fEaddf4ff79276b"
      },
      {
        "passId": "472",
        "signer": "0x6d6A5cC257feC587E26Aa5cCD287D04239Ea56ca"
      },
      {
        "passId": "473",
        "signer": "0xa025CB746946eA611ca5Bc8402419953B4a378d0"
      },
      {
        "passId": "474",
        "signer": "0x173C38B58443F473C4674B33622cAD40DD5312c8"
      },
      {
        "passId": "475",
        "signer": "0x48AfC37629242C299bb0b5ce58EF5482cbdE0869"
      },
      {
        "passId": "476",
        "signer": "0x8AD22ab98AE4A596310Cb54D90799CD2E7d72a5E"
      },
      {
        "passId": "477",
        "signer": "0x97eFA4bCc528732D98d3A6f9615F22F65a314F9F"
      },
      {
        "passId": "478",
        "signer": "0x90Ec566f370804a778ea4289f7B7feA4E34A38b8"
      },
      {
        "passId": "479",
        "signer": "0x316382909Ea570b2AB0082E06B8f7DC64AD00b45"
      },
      {
        "passId": "480",
        "signer": "0xbF45eDD67E3a1d233Bc2fE07b029A12B46cD24c3"
      },
      {
        "passId": "481",
        "signer": "0x13fd82b79Ef0f875Dc9506996e0c5B70C2046403"
      },
      {
        "passId": "482",
        "signer": "0x36C3e57A4875815C73Ac95Ae93935B6Fe77066Bd"
      },
      {
        "passId": "483",
        "signer": "0xa2FA16F125dC5Dc8b763e21e9180C5cCd7B35aa5"
      },
      {
        "passId": "484",
        "signer": "0x177aD91b9Df583DAa07841cc8bbBFB84cf0A7a84"
      },
      {
        "passId": "485",
        "signer": "0xb3c1ebb9Cc444032ad3F2414157369adAC5aab7e"
      },
      {
        "passId": "486",
        "signer": "0x233AA97AfFb3EB35306c884DC33B5DBC1bE551e1"
      },
      {
        "passId": "487",
        "signer": "0xE877Efc5d42723bc90Fc927B77D45EC30c36140c"
      },
      {
        "passId": "488",
        "signer": "0x45198d441a3784c4Df8779CE49f1190563D2d50E"
      },
      {
        "passId": "489",
        "signer": "0x8563dbE26642B29000C457E76518085fa2189e0A"
      },
      {
        "passId": "490",
        "signer": "0x36e6778595d69c5722b1e18E7eDe78fE69fE984e"
      },
      {
        "passId": "491",
        "signer": "0x2f19D84363AC39BDd422c7766AA26e2B9f9C5316"
      },
      {
        "passId": "492",
        "signer": "0xd545CE6B541B18e0B801F23063956057ee2Da101"
      },
      {
        "passId": "493",
        "signer": "0x0DC9ABd12DEf1F38A3e20bEDf4e40750159ca563"
      },
      {
        "passId": "494",
        "signer": "0xfD8A554B7ECAbEaC490bEF5937fF7eA7E528726d"
      },
      {
        "passId": "495",
        "signer": "0x7F50D2e4cEfd4679aDe69E0424c68845EaAd0E6c"
      },
      {
        "passId": "496",
        "signer": "0x29a52fb7eb83e307C9EAC579Cd93bc0D963fb751"
      },
      {
        "passId": "497",
        "signer": "0xE6C4b870E4974c5eA7b6773Ba6C0ECcb8Cc8377D"
      },
      {
        "passId": "498",
        "signer": "0x1D4422b46D511b388312aF6B091348133455CD33"
      },
      {
        "passId": "499",
        "signer": "0x1153eE3A1A25528b4F1E08Bd915D1e07222FcdDA"
      },
      {
        "passId": "500",
        "signer": "0xaD1cF929EAf9e9FB83067015aD79635C5f667451"
      },
      {
        "passId": "501",
        "signer": "0xf7df934e0882BC10e1fB812365c4D756E7c06193"
      },
      {
        "passId": "502",
        "signer": "0xa48637c696E404935Fd5BD1aA186B872b370C834"
      },
      {
        "passId": "503",
        "signer": "0xF4D5cf0788e2E6f1a03ec03218726f6AAFadDD71"
      },
      {
        "passId": "504",
        "signer": "0x0D8aeefE5046F495c296CA78e75D14AED606DCE0"
      },
      {
        "passId": "505",
        "signer": "0x1d3e70E8D431864AcCDCee98B29E69342f932868"
      },
      {
        "passId": "506",
        "signer": "0x6cD436E0d47b603c1b4D106a1aC302A3570560Ab"
      },
      {
        "passId": "507",
        "signer": "0x09d5f4A6DDca68e9F98e204C4c3Beb99A9182e97"
      },
      {
        "passId": "508",
        "signer": "0xB2cEA05380df1a42Ca6AE336AfFD9e1F7ed2b565"
      },
      {
        "passId": "509",
        "signer": "0x8D3737aA810aa5aeac7accBe398dE975259ce524"
      },
      {
        "passId": "510",
        "signer": "0xD6d9b8302ee4F7D077D0A3e3BcAB80b4902d0b2D"
      },
      {
        "passId": "511",
        "signer": "0x68C020c6E19CbE09008e9D306ADe60A9681b129a"
      },
      {
        "passId": "512",
        "signer": "0x1bd2b2cE85bA9C7587F3cDE808aC6d9e265f49fd"
      },
      {
        "passId": "513",
        "signer": "0x85441F21e5af0D3Bb15FA103209949dd964217F8"
      },
      {
        "passId": "514",
        "signer": "0x4f23C7B6360C48DD3726f4b22a638f6B4C0aA19b"
      },
      {
        "passId": "515",
        "signer": "0x98bfbD42C1Bc19cCe47C532433f71D4275a2FEf9"
      },
      {
        "passId": "516",
        "signer": "0xdA011aCb0F8714aC2150DC026bEbCC9B5b2CC4ea"
      },
      {
        "passId": "517",
        "signer": "0xB04b9eA7Befab837b66b971c172Bff54F46E46da"
      },
      {
        "passId": "518",
        "signer": "0x000c10116f0f17a0Ad4f5f515B0C5Ad9EbCD8b8B"
      },
      {
        "passId": "519",
        "signer": "0xc04695E3369a0B1061B43c37f951e67BdD3bd907"
      },
      {
        "passId": "520",
        "signer": "0x50887340baDdEdf83d11d8DeC92094B7AfCDFa6c"
      },
      {
        "passId": "521",
        "signer": "0x30305984C4BD1CE1F80102F686Aaa607798cD4e0"
      },
      {
        "passId": "522",
        "signer": "0xe1e3152f62A7448465A696e42BeFbbA0FfC2d471"
      },
      {
        "passId": "523",
        "signer": "0xdf53449488470cc9e6EF3354B36521c107Bc430B"
      },
      {
        "passId": "524",
        "signer": "0xC318a012A6435D0285469c47a5f2F760BCB03f0A"
      },
      {
        "passId": "525",
        "signer": "0x3dd2Cc164A28224B0195d601f0b968a5d3c1Eed9"
      },
      {
        "passId": "526",
        "signer": "0x5538DCB941f18AFD5a98472445505df9e0E8EED8"
      },
      {
        "passId": "527",
        "signer": "0xeFE5BEa96dAC4a13173Ad5Eb04C0EBBD7fEDd6e4"
      },
      {
        "passId": "528",
        "signer": "0x8af503937350B6c5107B5ab491D700a5cc7AB284"
      },
      {
        "passId": "529",
        "signer": "0xe1FdD660aF117D322866Ad918348e9A66Cc51bF7"
      },
      {
        "passId": "530",
        "signer": "0x192f7F5e1A3918029921ef4f900eefb3C7946395"
      },
      {
        "passId": "531",
        "signer": "0xe5EB49081A5014BF282b77ed97ed41d49FC76B74"
      },
      {
        "passId": "532",
        "signer": "0xf5CA0E8C2154E1bC3D5bD5c8cEB373D452C32261"
      },
      {
        "passId": "533",
        "signer": "0x51E6Ac99c5F03B2bA0c9F9b67B74A72F40D6E0a7"
      },
      {
        "passId": "534",
        "signer": "0x710D8dB35446d0c7765ebAF814Fe783eC917Fa00"
      },
      {
        "passId": "535",
        "signer": "0x8D9b11C23140C354C597B1bfa16E032C59eD1BF6"
      },
      {
        "passId": "536",
        "signer": "0xe6b7Eb565dA65087103D97a2C1f4292DBDdBD015"
      },
      {
        "passId": "537",
        "signer": "0x2e727Afd58aeaCA8F7E94527B2202D6617ad44fc"
      },
      {
        "passId": "538",
        "signer": "0x666555eAB8d6a0Ae14f6c12281ff022173bc0332"
      },
      {
        "passId": "539",
        "signer": "0xde23509d4C278Ef3c2604380f61204F13Ac07d0e"
      },
      {
        "passId": "540",
        "signer": "0x6D58D2D27D5089dD2fcf8b418A7ddeAcA08BeF5B"
      },
      {
        "passId": "541",
        "signer": "0x40B0F8076DDa5729D94F441c1364b80BC1f63ccb"
      },
      {
        "passId": "542",
        "signer": "0xD09CCa6B74e6Fe9F8BCC55A3CdD008a05CAc9d28"
      },
      {
        "passId": "543",
        "signer": "0x6B8d7A46b839492C88AA4C627Fb334C4ae451f58"
      },
      {
        "passId": "544",
        "signer": "0xc823a687851D0D22a083faF5A6BE8c89F8A0Bc4E"
      },
      {
        "passId": "545",
        "signer": "0x69E1aA79F949365E2C4Bb389aE5E93E576717C86"
      },
      {
        "passId": "546",
        "signer": "0xf1D967733DBb08375F9eC03F35f8478D8be15e04"
      },
      {
        "passId": "547",
        "signer": "0xf39313A697CC84d8a56424363E81c429071aF6A8"
      },
      {
        "passId": "548",
        "signer": "0x9087155996169abd15F4e30C62B9bd889409b7eD"
      },
      {
        "passId": "549",
        "signer": "0x53697bf07dF85001188C5258BFdB1Aa2bFaf503B"
      },
      {
        "passId": "550",
        "signer": "0x9Ce7972A7098382B65275AFb5c318890eadcd645"
      },
      {
        "passId": "551",
        "signer": "0x844d8DcA32711469Ad6A454F8b56F2a4e9AF0157"
      },
      {
        "passId": "552",
        "signer": "0xE68c33a441be7d9380D177467F33786ED9225e35"
      },
      {
        "passId": "553",
        "signer": "0xd5a6B953b7cc1d3e1995942E1bE10BCB801243ac"
      },
      {
        "passId": "554",
        "signer": "0x9B2dAaADf7B72188552Bd215BAD461C3C8B5EDAe"
      },
      {
        "passId": "555",
        "signer": "0xda84914CF343Cd41c38c8BFE3E05ca80F55A392D"
      },
      {
        "passId": "556",
        "signer": "0xC1e13EAa40543E65A27975a2b23f069d737b630b"
      },
      {
        "passId": "557",
        "signer": "0x5dda2A99aee3D0CF0c1c2ECaEDe547231A5f3357"
      },
      {
        "passId": "558",
        "signer": "0x82577a71764D294B2D69510602C5636C6BedD2Ba"
      },
      {
        "passId": "559",
        "signer": "0xe3c7FFbc7613c23C26a94e916bf5F1d9C69829c6"
      },
      {
        "passId": "560",
        "signer": "0xdd98b89527c25D226d77cf214239150DA2A2994F"
      },
      {
        "passId": "561",
        "signer": "0x03ca77A2A696394AcfdD34a6c4bc4418794a9765"
      },
      {
        "passId": "562",
        "signer": "0x6e1fD6a66797D9DEbddFe86024d0343B89F9cF4a"
      },
      {
        "passId": "563",
        "signer": "0x8962BD99A53F996B57b258bFa9aB94E7C0E7E1CD"
      },
      {
        "passId": "564",
        "signer": "0xa5A4c02A795ceB206B27D36f126c61164d26a985"
      },
      {
        "passId": "565",
        "signer": "0xEe7FfE58c1d711b5254C86d1c1210310359b71BD"
      },
      {
        "passId": "566",
        "signer": "0xF635A01AA3Ed7456f4Fe5A900e294b2311AeDaBF"
      },
      {
        "passId": "567",
        "signer": "0x3041204b4b1b4E27cE365F5E98BAd6cfD5aC47C5"
      },
      {
        "passId": "568",
        "signer": "0xc9b0c2f0034A78037139470B8B76c33269dC85dE"
      },
      {
        "passId": "569",
        "signer": "0x44FdF238ED28bFb82958E964877257db5f162ce1"
      },
      {
        "passId": "570",
        "signer": "0x22a411F20e0729602f2f21d643950f10AB41DDCF"
      },
      {
        "passId": "571",
        "signer": "0x1Dca632cBD8072e06012BB6C7f987B9D5C2C9A45"
      },
      {
        "passId": "572",
        "signer": "0x475799c082e3fD11D3508c5d973115A66e243A9B"
      },
      {
        "passId": "573",
        "signer": "0x5E465B0bD40F56d26B11148494bb84DA7b0022F6"
      },
      {
        "passId": "574",
        "signer": "0xa3e8216Fa2F1aC476C13400708b581052043A27E"
      },
      {
        "passId": "575",
        "signer": "0x12199b4Aa1a51420D5Ae75AE289a223832d24cC0"
      },
      {
        "passId": "576",
        "signer": "0x9D810D4F2851306827Bc5C7709b32870CE0685A6"
      },
      {
        "passId": "577",
        "signer": "0x4B2F85C11A178956c9B9f26c38AF7487B2FdCa24"
      },
      {
        "passId": "578",
        "signer": "0xe8A16A53cDB8aB3D74CeB1421D5e7c876A20d093"
      },
      {
        "passId": "579",
        "signer": "0x573e8654e27FCb377e8781BC161E8b5d5260DF21"
      },
      {
        "passId": "580",
        "signer": "0xED18582ad124A78Bcb0DBdB041f78898954B6C9b"
      },
      {
        "passId": "581",
        "signer": "0xacA65BAc5aC943A51CdB1F579d2111cC437A16a2"
      },
      {
        "passId": "582",
        "signer": "0x34e0e1Eb575B394c6ab618706DbDAB21Db092E97"
      },
      {
        "passId": "583",
        "signer": "0x840Ea9a3Bf5ac1Ece347b7aCd3e1Ee74FEFE28aC"
      },
      {
        "passId": "584",
        "signer": "0x5a52eeCe5986D1DEf9678Cf02B3fb6277EA3886A"
      },
      {
        "passId": "585",
        "signer": "0xD13e45D64A22D4Fb5050453dC3f0CEF30A6890D0"
      },
      {
        "passId": "586",
        "signer": "0x7da8B2328100CD8E82EadA563867b9a9b6C63B70"
      },
      {
        "passId": "587",
        "signer": "0x540f967fb8BE5d4A4AdD39c6d7e851647Eb4CdcF"
      },
      {
        "passId": "588",
        "signer": "0x9B61bDcc7b8065c3a7DB3D64a33cFa74f4EB0639"
      },
      {
        "passId": "589",
        "signer": "0x749Bc7513AFa4890e6C43B8Af97F947eF36BE4c3"
      },
      {
        "passId": "590",
        "signer": "0xd3EA65625aA70d104D8f266b4Bb0BeE013b6FD91"
      },
      {
        "passId": "591",
        "signer": "0xc16Bc3d4c3f85D39B367425C20765F66C319677b"
      },
      {
        "passId": "592",
        "signer": "0xACD62DAf719f3e59004772eC4dCC1b65B7648daa"
      },
      {
        "passId": "593",
        "signer": "0x2C5166C8b599e2Dfac21BF475882DDF2afB31e49"
      },
      {
        "passId": "594",
        "signer": "0xC789116Bc2FFE43926F898ACf909Ca7854580e00"
      },
      {
        "passId": "595",
        "signer": "0xAc0dF014190fD5AF74dA0161cbe080b5996df467"
      },
      {
        "passId": "596",
        "signer": "0x3A796B4286D545027eaba9CAa56be1505298A59c"
      },
      {
        "passId": "597",
        "signer": "0x9C1B47B84528410b9c74101cbF6Dd452984D9034"
      },
      {
        "passId": "598",
        "signer": "0x2EDFfB3A44c07897F7A04C4e76558EbDFbf03842"
      },
      {
        "passId": "599",
        "signer": "0xf9b91d9412CB880AC68304c318f10d693fE55BC2"
      },
      {
        "passId": "600",
        "signer": "0xdE946E4c1aDc0437720591ac1ac1068CEca08cED"
      },
      {
        "passId": "601",
        "signer": "0x737b41903f5f599a913a1F1154575B658E77c349"
      },
      {
        "passId": "602",
        "signer": "0xA16D073f6d9Af2838DD827c86EBA95692f59f326"
      },
      {
        "passId": "603",
        "signer": "0x114af5e769983fc618d7CE2a01239778b94f3e0C"
      },
      {
        "passId": "604",
        "signer": "0x6c560F43046Ac16a09C190f8131d1eA3e8E08248"
      },
      {
        "passId": "605",
        "signer": "0x58D1cf58Ee2bA598D92083991d9Eb8098208bDD6"
      },
      {
        "passId": "606",
        "signer": "0x07B7B2446c034177aC5EB509f6B0AF14da6e5B9A"
      },
      {
        "passId": "607",
        "signer": "0xD004C0c4267d63976FFdb568b35510795557bF19"
      },
      {
        "passId": "608",
        "signer": "0xa88f59Aa00b36DAAc65d0f006DcA8e97c1534Db6"
      },
      {
        "passId": "609",
        "signer": "0x4f0B1a1291dAFB0E4Ae7Cbd43337716748a8612f"
      },
      {
        "passId": "610",
        "signer": "0x1F0088d95596bf275877D82A202EE59d827baD7d"
      },
      {
        "passId": "611",
        "signer": "0xAEc0BF4ce0BF183abcA98BaC7906002F75948D06"
      },
      {
        "passId": "612",
        "signer": "0xa4399Ce5F4d2046421235ca1e2fB36a7F118c7B9"
      },
      {
        "passId": "613",
        "signer": "0x33E358805A9490d02691029C08D4aB046DA75132"
      },
      {
        "passId": "614",
        "signer": "0x64236756792187256099B3E49969477722aDD4A7"
      },
      {
        "passId": "615",
        "signer": "0xE10fDA8eA595805fC38494C4b0750b07a906AeD3"
      },
      {
        "passId": "616",
        "signer": "0x730e5e7E267AFdEcBC2fFb59d2216838ac455B46"
      },
      {
        "passId": "617",
        "signer": "0xDe5c384348267b718B35a4Dc40da139D6433765F"
      },
      {
        "passId": "618",
        "signer": "0xe33cC9D0f094Af94e9Fd35FB04bf1CB4967081AF"
      },
      {
        "passId": "619",
        "signer": "0x7bb4799cBA8CF310C37047b97cdD2f0b7d53cE6c"
      },
      {
        "passId": "620",
        "signer": "0xF5aaC83d5D759aADCbd370cD0762ab32b43ee0Fb"
      },
      {
        "passId": "621",
        "signer": "0x99AB378E176CA7a713442b9c36DDfAf8f3dEE319"
      },
      {
        "passId": "622",
        "signer": "0xBfA85ac31dfF5192D9a62443c2f5CeceA7FCf730"
      },
      {
        "passId": "623",
        "signer": "0xd702E47061Ba9d6Ed879E1C467F620c00318999D"
      },
      {
        "passId": "624",
        "signer": "0x08e1106327aDcDE0652e4CBDF22653107b983527"
      },
      {
        "passId": "625",
        "signer": "0x701250fe9c42D504A21652025acD99f6E30195F6"
      },
      {
        "passId": "626",
        "signer": "0x334c2569d5e9EF3d8f99f72799Fb590FD479639d"
      },
      {
        "passId": "627",
        "signer": "0x5EBc3D4f9dF818D48967C6Eb3Bbdde0831aeB219"
      },
      {
        "passId": "628",
        "signer": "0x91243409D8b14C6bEE3A46D990bDe2F126f7C346"
      },
      {
        "passId": "629",
        "signer": "0x90d1B59d9128Acc3E718e5386F7f6392028618D7"
      },
      {
        "passId": "630",
        "signer": "0xF0636720Fc350B8dc7a2b77AF312c9d0861F3906"
      },
      {
        "passId": "631",
        "signer": "0x74E28880a76a1B2b7E760ce38395a3087271Bd53"
      },
      {
        "passId": "632",
        "signer": "0x150f4778b10D27229686245fFCbdD3b47559A487"
      },
      {
        "passId": "633",
        "signer": "0x4B16fA6574Fb0E965493024471f775D3eE00cBA7"
      },
      {
        "passId": "634",
        "signer": "0x49112b2e85a7eAa72e839826CF271F0E2DC17764"
      },
      {
        "passId": "635",
        "signer": "0xad5aA1f22164D4bD0CF263Aee164AcF9f7E70D21"
      },
      {
        "passId": "636",
        "signer": "0xB9574b39b0a7d63d1CF419eb92966DD43760245d"
      },
      {
        "passId": "637",
        "signer": "0xdc742a34e6a22f4E87c5B9Af2db3f91C88A1B0C5"
      },
      {
        "passId": "638",
        "signer": "0xF4e236E7E44985EeB4118B14CC0ebA4318b031C6"
      },
      {
        "passId": "639",
        "signer": "0xcec60D65e5A9A02fe4A2f7576d12cd6858AA8Db7"
      },
      {
        "passId": "640",
        "signer": "0xD7bB67724E191EeFEE25e390CfAb8f77c0378C64"
      },
      {
        "passId": "641",
        "signer": "0x865E69692457067cA79B285337Be9028bE53611D"
      },
      {
        "passId": "642",
        "signer": "0x1835dcf907af6d2Fa80292E98d3D8a060c81f602"
      },
      {
        "passId": "643",
        "signer": "0x462Ad9E5a17c01E66fE9f1791eb82B672488A444"
      },
      {
        "passId": "644",
        "signer": "0x45388d553100B3A8D9Ad5D1145aD2f127534F0A0"
      },
      {
        "passId": "645",
        "signer": "0xF5b06Fa9172023b2c79c69D14EAC3855E2D4977a"
      },
      {
        "passId": "646",
        "signer": "0x29eEaE3f3cF1E9B2E1e81D7a3E32fB0B8aA829BA"
      },
      {
        "passId": "647",
        "signer": "0x407EA28Fa7D5c83B37069098796ae2cc53bAa65E"
      },
      {
        "passId": "648",
        "signer": "0xD953F2633c43CdE79Ed603D106F5ae0b2F6d50D8"
      },
      {
        "passId": "649",
        "signer": "0xD6103F30239C9C51fD7843527854772Cd84F56b4"
      },
      {
        "passId": "650",
        "signer": "0x39f45D27ba3C99bf21B7B4Db799FeE79e7eD5f1D"
      },
      {
        "passId": "651",
        "signer": "0x8d6fa9D774ED69b291d70634ceAF2235D01efFfF"
      },
      {
        "passId": "652",
        "signer": "0x0443A8238eb8C6Ac294674C26ac6f1763DDF9A11"
      },
      {
        "passId": "653",
        "signer": "0xBc7D58B05bE0C3ed00075CB98Fd18819691bb4bC"
      },
      {
        "passId": "654",
        "signer": "0x4D4bda76D466A847EE8De07Ac80858ce8c8658A8"
      },
      {
        "passId": "655",
        "signer": "0x94962eeB8ff327D89F72AA195deFdc274Df6ab61"
      },
      {
        "passId": "656",
        "signer": "0x00322ECC4EDc4Ba44845F8043D3605A2d670D236"
      },
      {
        "passId": "657",
        "signer": "0x41C7ada16F1668be457D0FE73a5cb681CF328F18"
      },
      {
        "passId": "658",
        "signer": "0x31dBdfd07ad2769A60F7689E96395e4a21AA6ba8"
      },
      {
        "passId": "659",
        "signer": "0x0CC905436582a2dcF50410AbbB7754DA86482F0F"
      },
      {
        "passId": "660",
        "signer": "0x08408d518DAF57F0AE9da06311aFBEEA61bA234c"
      },
      {
        "passId": "661",
        "signer": "0x7FD1d7A8f990BaBFEaB3e1440d9f850290409Ef0"
      },
      {
        "passId": "662",
        "signer": "0x1cbd6c7dF095813e80404285d5D6a8D681e10fFC"
      },
      {
        "passId": "663",
        "signer": "0x41BA8a6Fa999BaBbBAD40a20Ebc85780506Fcabf"
      },
      {
        "passId": "664",
        "signer": "0x8C4b9db1B46b0a41a327dAA7420fB0FFeadA317f"
      },
      {
        "passId": "665",
        "signer": "0x3647c174f394750Bbe99B84D2e89c3Ae261D084C"
      },
      {
        "passId": "666",
        "signer": "0x13a7E6EC50120A84a4Fc3C19bcC00374D066279e"
      },
      {
        "passId": "667",
        "signer": "0xB0E1439d428AF05BA8147E0FB3Bab0392D679B9C"
      },
      {
        "passId": "668",
        "signer": "0xdcC50c6e8d507707be6DEeA34e454846C1085344"
      },
      {
        "passId": "669",
        "signer": "0x9f68eD5e9A827434B46Ef0172eA34a4828d41340"
      },
      {
        "passId": "670",
        "signer": "0x9D747B34d08e7f9f6a1D34728f00d0bd0acC5678"
      },
      {
        "passId": "671",
        "signer": "0xAb0f06dB01E5485E6cFd310e95aA783ff99e9776"
      },
      {
        "passId": "672",
        "signer": "0xb0ff2c080D6bb3f1d6fcE4B2055f296DF0Bd89F0"
      },
      {
        "passId": "673",
        "signer": "0x411F4d8c083DC409598716a4EFdBF3Cbe8BFd4a6"
      },
      {
        "passId": "674",
        "signer": "0x90A37821DE6574B91C6fD3165fcB04253eC02c1a"
      },
      {
        "passId": "675",
        "signer": "0x9A45D64c4d4893410FA95c69e68a1d2D94a7D881"
      },
      {
        "passId": "676",
        "signer": "0x281fb1C22e1B5a4D6fDa6c528fceF640a4B113Cc"
      },
      {
        "passId": "677",
        "signer": "0x1FF45c51A78EC867A222f50D0D212f830618AE6E"
      },
      {
        "passId": "678",
        "signer": "0xD9Cc3742E3BF647317D05F0326DFB36C816fE559"
      },
      {
        "passId": "679",
        "signer": "0x54563d007c346E1B835c7c92974d19ed247e17Bd"
      },
      {
        "passId": "680",
        "signer": "0x7bb7d1EFD4D7d1b5774CE15B94839CAD60596C7B"
      },
      {
        "passId": "681",
        "signer": "0xAD9085ff88627d28e1735829B1B5c44628BC3A3D"
      },
      {
        "passId": "682",
        "signer": "0x97473D25Ec9845280495F811A742a295cc99498a"
      },
      {
        "passId": "683",
        "signer": "0xC9Ca92b47d55f6372136054868b2fd8E5F6764E1"
      },
      {
        "passId": "684",
        "signer": "0x785C066C3857a27748aEDb7abFF6502012d9a595"
      },
      {
        "passId": "685",
        "signer": "0xE140b495EA9Ed50431A9957cBa2BDA935fC5b89a"
      },
      {
        "passId": "686",
        "signer": "0x4c06e161F9Ec4690Db8f067D0e7223E1380eFe7C"
      },
      {
        "passId": "687",
        "signer": "0x70bc7d78334D5cC5e0fA121e94e5eB9FE2D59114"
      },
      {
        "passId": "688",
        "signer": "0xa8775C779FE924c684F4c22c5915bbCdC5FF7057"
      },
      {
        "passId": "689",
        "signer": "0xFA816A5B57536B3E9569d22392A82e426Bee5ca6"
      },
      {
        "passId": "690",
        "signer": "0x5F4f45E31ffB16602701010dF28b6b01eF13F321"
      },
      {
        "passId": "691",
        "signer": "0x1C041f925c625F833fA40005a9A744E46716a49b"
      },
      {
        "passId": "692",
        "signer": "0x3Cf00FEA06de247E8B51A75706117F8A128eF52E"
      },
      {
        "passId": "693",
        "signer": "0xd02723EB6b87a7ae8c13573a6622820c023FA215"
      },
      {
        "passId": "694",
        "signer": "0xC5db80d7e3BC418b2CEB8C3916f41BC2825baED2"
      },
      {
        "passId": "695",
        "signer": "0xc63198AdBe93886C76A240F829d6170EA6d85f22"
      },
      {
        "passId": "696",
        "signer": "0x6176dEaBda53820C3bf49efBe3817Dd41De9F3A2"
      },
      {
        "passId": "697",
        "signer": "0x8D99aC79b8ABa5F26Bb32256AdcacA8730023d87"
      },
      {
        "passId": "698",
        "signer": "0x2257628f5a3e7C49d69A96bE7d3B18d3016662d4"
      },
      {
        "passId": "699",
        "signer": "0xEB04FBc929508aa1F2247510d3b4CdA3dcB4f03c"
      },
      {
        "passId": "700",
        "signer": "0x4cDbfC17fD70B650037ebbBCF956e6F3767A7884"
      },
      {
        "passId": "701",
        "signer": "0xAbF0bCb690d01420D380db7Bf14FEae621CE13fC"
      },
      {
        "passId": "702",
        "signer": "0x7043A3402C02664F9AfCe6E87677e92117087F33"
      },
      {
        "passId": "703",
        "signer": "0x01f4450ba18a31c448cA533b2872F3e83ED751CE"
      },
      {
        "passId": "704",
        "signer": "0x29c1415049a3d5049852b9ee582396d88DBd5dC2"
      },
      {
        "passId": "705",
        "signer": "0x2Bb157Ab2e24Fc7b4706FB448A8E8f3A9B754E51"
      },
      {
        "passId": "706",
        "signer": "0x2fc6AaB37ab8a6257A8553D432Bb8b246F2b03F5"
      },
      {
        "passId": "707",
        "signer": "0x9f9af2F5F115e7343317b9731FefFA55d2D49307"
      },
      {
        "passId": "708",
        "signer": "0x027bAe7d0564419d3F331a3FA39131b6b43cc365"
      },
      {
        "passId": "709",
        "signer": "0x9664DdEeb7F91ccC4FEE6a6984Bb5A599f13095f"
      },
      {
        "passId": "710",
        "signer": "0xf2a91AaaBb76f5dB16E1526E577C6DaD84Ad3Cd7"
      },
      {
        "passId": "711",
        "signer": "0x7b1DdaE1Eafb3f5943Eb968Ca69269c9885a7fA6"
      },
      {
        "passId": "712",
        "signer": "0xF41337f58b5C9f04c8EA37913cb0c80e43b50b08"
      },
      {
        "passId": "713",
        "signer": "0xBFe663058fFC447037F7D1cc5B83A97191a95eD4"
      },
      {
        "passId": "714",
        "signer": "0x0dAB4C5092F4C99fA97361d1a5C9b0e563d5369A"
      },
      {
        "passId": "715",
        "signer": "0xA6871B3e143109034511D12D3AB89e2230B7c46e"
      },
      {
        "passId": "716",
        "signer": "0x6244639f52c2eb030Cd95829502DcF497D5eBBbE"
      },
      {
        "passId": "717",
        "signer": "0x903a0cdEAf2951F8B9d25d770D2d8165E05296F3"
      },
      {
        "passId": "718",
        "signer": "0x563A298e4a112b8723D755150554E614d8331612"
      },
      {
        "passId": "719",
        "signer": "0x040c024336D20349Be8260C58e0dD4114E078Be0"
      },
      {
        "passId": "720",
        "signer": "0x1fe4E590aA4C091d0Bf9d895697835871Edfe68e"
      },
      {
        "passId": "721",
        "signer": "0x06c46114Deff0F54eCD8D85F70f8Deb9C714e5B7"
      },
      {
        "passId": "722",
        "signer": "0x7B3c036B711946d71e5669561F198D4C205d39e2"
      },
      {
        "passId": "723",
        "signer": "0xFaf0dfAaED714F4bf14a82a390AdDEd4CF6dD096"
      },
      {
        "passId": "724",
        "signer": "0xFc50947368c88bd430E0549a016E90934b5C5087"
      },
      {
        "passId": "725",
        "signer": "0xA63d775C87623DAefb098120833b08ed28f194F2"
      },
      {
        "passId": "726",
        "signer": "0xa6772a708354fa06bA9A438324296704161adF14"
      },
      {
        "passId": "727",
        "signer": "0xb34902a63508241347E014d9972C08289496AA2e"
      },
      {
        "passId": "728",
        "signer": "0x2d9f10DD69670a6cEE3e176a94D216a17C1f1Ce1"
      },
      {
        "passId": "729",
        "signer": "0x5F939b7De5662b6853ddA496123F7909B87e83CC"
      },
      {
        "passId": "730",
        "signer": "0x377e1FC505Ecbc9EfCa38C1ad8573bDe51E78993"
      },
      {
        "passId": "731",
        "signer": "0x6ACb06c1b16a1e45F3682425B356814db3656889"
      },
      {
        "passId": "732",
        "signer": "0x91dfd51FA1b4eFdf7b5Ff633637EB66402e87E85"
      },
      {
        "passId": "733",
        "signer": "0x162428dfEbe005eE993D33d555B0dE44e59319CD"
      },
      {
        "passId": "734",
        "signer": "0x923bC528bBA0246F1d2D0aBdf647Ba7a75D294CB"
      },
      {
        "passId": "735",
        "signer": "0x0C75ffB66F71f4E17C84E4051c167bA85f0fD600"
      },
      {
        "passId": "736",
        "signer": "0x32A46a94f87C67bdDE7E87De0d83F3CA156f34e4"
      },
      {
        "passId": "737",
        "signer": "0x6fD142E8C3528fF767382ac9d3bDB3651CA6538F"
      },
      {
        "passId": "738",
        "signer": "0xd0758FbC4C34Ff60b287ACD164BA0D45C4CF3D6C"
      },
      {
        "passId": "739",
        "signer": "0x811F7388ce9e6b389AB4F92116084fec40a4ad67"
      },
      {
        "passId": "740",
        "signer": "0x155a84df629cC36E481389A7BcddEFb8143dBf86"
      },
      {
        "passId": "741",
        "signer": "0xb67126b592Af463CDbbC90C4eCcaf3E55eff4aF0"
      },
      {
        "passId": "742",
        "signer": "0xAc84C925d9DD265C6317A2d258a9B50B09F48c6f"
      },
      {
        "passId": "743",
        "signer": "0x1F36cC8f1812388e58e869555F3851b80Eb38178"
      },
      {
        "passId": "744",
        "signer": "0x3c0e83898DE28163278a1732C8292D342eC669Ad"
      },
      {
        "passId": "745",
        "signer": "0x78Bb84D7419a4C789558a340bBC778F73feBe883"
      },
      {
        "passId": "746",
        "signer": "0xE5C435b8D970F09978969016D8e6853A922bb4bd"
      },
      {
        "passId": "747",
        "signer": "0x459CF76FcA6D65E5088666030CB6515C8eb89331"
      },
      {
        "passId": "748",
        "signer": "0xE3a9772581bE55659F561c2db14c636Cb358153c"
      },
      {
        "passId": "749",
        "signer": "0x4f52a826916fB3303405227c3cCD6b4B558a7f06"
      },
      {
        "passId": "750",
        "signer": "0x09552fe52dD9f81995af50E1F89BD257A3b856Be"
      },
      {
        "passId": "751",
        "signer": "0x57130AB882f04B6623ad43F3396e972486FdFa13"
      },
      {
        "passId": "752",
        "signer": "0x6929197E068eD8B931AdEcf2682876F56c1ac414"
      },
      {
        "passId": "753",
        "signer": "0x7274116E5B04abaFF8cb13382618a072eA64E938"
      },
      {
        "passId": "754",
        "signer": "0x143a36E34182AA84555547528513352B836187aE"
      },
      {
        "passId": "755",
        "signer": "0xCA5c2046ff0DEb919c1EeAee5706a2410A774814"
      },
      {
        "passId": "756",
        "signer": "0x0992DCe9EDDb538C634821490E5556dA83724799"
      },
      {
        "passId": "757",
        "signer": "0xb6837FAC704117193084525b1Bd577Ac475bE5D7"
      },
      {
        "passId": "758",
        "signer": "0x2ba85C5AeAEB9b471F1056B2AD32e56979aEDBD0"
      },
      {
        "passId": "759",
        "signer": "0x5e47d501d5FB620a4186d9A3E8D76Ae634Be2Ee0"
      },
      {
        "passId": "760",
        "signer": "0xC5568CA8a5AFBAA878848388F897B504D8C34567"
      },
      {
        "passId": "761",
        "signer": "0xBE3B0997ffbb70b28Eac634566090a9cEB8B495a"
      },
      {
        "passId": "762",
        "signer": "0xb731240D5268A0526d68D93c0128f08Dd4387f8E"
      },
      {
        "passId": "763",
        "signer": "0x070d525e5478d3eBFB8734E9e9eB42497f2FC217"
      },
      {
        "passId": "764",
        "signer": "0xBa256E594f031cFeDbeb7a7c3B91EC4f62175Ace"
      },
      {
        "passId": "765",
        "signer": "0x4529A072216f5B0E0C5D5C4694DaA8e977646820"
      },
      {
        "passId": "766",
        "signer": "0x9d7e08A21EB6Eb6B142959D1eA94b1ceC150c27c"
      },
      {
        "passId": "767",
        "signer": "0xDbc31BB0493c3805c64Cd9ac7B228297219cd541"
      },
      {
        "passId": "768",
        "signer": "0x7d7C095637d1ee28F63440d1ed5D502Dff6b0E03"
      },
      {
        "passId": "769",
        "signer": "0xC5f0AC554A3940998B3B69C4b3426990EaC8E0Ef"
      },
      {
        "passId": "770",
        "signer": "0xa982026605F1737402B2A0406C810015AE73Ce11"
      },
      {
        "passId": "771",
        "signer": "0x6a4016D9Fcb1A64a6f500C9535BBbB464b476484"
      },
      {
        "passId": "772",
        "signer": "0xB57376235A072B83689e8E9De9aa7B4054b56b0a"
      },
      {
        "passId": "773",
        "signer": "0x741Ca0704A1665b33A9f04065E754D8D27637a1A"
      },
      {
        "passId": "774",
        "signer": "0x2EE27DC152de49a9a5413799656cD7f7f096Dbe5"
      },
      {
        "passId": "775",
        "signer": "0xCcA8AC4d5B82b2e874f705Bf5f47adFA795b5377"
      },
      {
        "passId": "776",
        "signer": "0xeaddd7BBF0d6eED2b9343FE2a811c3CB6CeCC760"
      },
      {
        "passId": "777",
        "signer": "0x6E78194f78e74723F44c73DCa9C55c70c3468385"
      },
      {
        "passId": "778",
        "signer": "0x825B64Bbb3D49997e806f24CD2d65C6Ea4a2Ec4c"
      },
      {
        "passId": "779",
        "signer": "0x73d79b25b4E86EF927A4f9367A9dA1F70e1486b3"
      },
      {
        "passId": "780",
        "signer": "0x0c8Ac529c57014005C487eF7E12d7c8BA9d98C48"
      },
      {
        "passId": "781",
        "signer": "0xb9C43Ced2E1539aa22c54e48744cb77818F8DFF7"
      },
      {
        "passId": "782",
        "signer": "0x55a1dF353d1470C93cEC2f677Ccc11A75AE2cD82"
      },
      {
        "passId": "783",
        "signer": "0x2500fE72C9A6D60eA224a7E97456D3eF69Fb47a7"
      },
      {
        "passId": "784",
        "signer": "0x266725423e4eFC450D86c06e23d1321a290230E8"
      },
      {
        "passId": "785",
        "signer": "0x3be540Aa582F26bA4B813C969DEA6c90259A4cc1"
      },
      {
        "passId": "786",
        "signer": "0x8846866561e6aC83924B5c98e2E10E8C2db5Aa7D"
      },
      {
        "passId": "787",
        "signer": "0x4AB892f037f89C178c4ad3587f10390b9fEb532A"
      },
      {
        "passId": "788",
        "signer": "0xed322b4bCFa3AbCfB11eFf681a7dD16B302Acd93"
      },
      {
        "passId": "789",
        "signer": "0xFdbA164dC62C4dF7027793d1227C1e210029BeAA"
      },
      {
        "passId": "790",
        "signer": "0xe933Cb580070E437c1dEFae5bcee0630b9C3aDb8"
      },
      {
        "passId": "791",
        "signer": "0x10585dd93901dBB48611100d5E37C8676EDe38F0"
      },
      {
        "passId": "792",
        "signer": "0xB6739b6553903439624a84D1B19aC638f9460c00"
      },
      {
        "passId": "793",
        "signer": "0xAEF59cc7B9fA2Ef6092C6AA6D59F35738E1ACe70"
      },
      {
        "passId": "794",
        "signer": "0x5cc79d009eEDf9E949e7CA6E6Ed482BD1f12C0a3"
      },
      {
        "passId": "795",
        "signer": "0xAc467F704036a8a54c2Cfa9c4639779fA305Ca4b"
      },
      {
        "passId": "796",
        "signer": "0x305d762fAea0915352106fd2F1dc7D84398158Ef"
      },
      {
        "passId": "797",
        "signer": "0x4aa58ef028668E1ecea0d1Bc31F38469D0095260"
      },
      {
        "passId": "798",
        "signer": "0x5724Fd7c6053caf0250B9b317d8D3A3Eef5778FC"
      },
      {
        "passId": "799",
        "signer": "0xA395b7a622e40E6CA7affe355639ED345f7D3162"
      },
      {
        "passId": "800",
        "signer": "0x9a3fe7ba686651460147417961BaCC03A4F9d3dD"
      },
      {
        "passId": "801",
        "signer": "0x6D5a1053c211B1FF7138375A80e7E16FB1CD8ad0"
      },
      {
        "passId": "802",
        "signer": "0x227bF7487e277d476771406A5B4BE40f153412a7"
      },
      {
        "passId": "803",
        "signer": "0xeF934f521d685F9747A5B7A78cC251624c129847"
      },
      {
        "passId": "804",
        "signer": "0xB4F42DF900c1DDD0a1d97d552e58471D1FC2Feec"
      },
      {
        "passId": "805",
        "signer": "0x094941452d810098987cd3938b0054483bCa3CE8"
      },
      {
        "passId": "806",
        "signer": "0x2bAF17033775D5c7043306E0FB95ec5b2032c353"
      },
      {
        "passId": "807",
        "signer": "0xd9788Bc2085603AeC27cda2dCeC6992B590a7F78"
      },
      {
        "passId": "808",
        "signer": "0x70E296A1C9B0058b3455D37A10Ac8c0b96616b43"
      },
      {
        "passId": "809",
        "signer": "0xE81DAB9aB843Ff53f4fA0aC4f5e7c018D2c2DBAd"
      },
      {
        "passId": "810",
        "signer": "0x5D10cA2c99201f2B71AB94c796494Bf8290A9844"
      },
      {
        "passId": "811",
        "signer": "0x9cc4749c0F024c824d546456BDeD405cE55F6164"
      },
      {
        "passId": "812",
        "signer": "0x672222C35183e67B3bd30C27c1aa0C307210f257"
      },
      {
        "passId": "813",
        "signer": "0x95081263134b77d4c1db6d374c292362F04Ef2F1"
      },
      {
        "passId": "814",
        "signer": "0x4a059675b97f04A5BFD746970b10df61AD50c46F"
      },
      {
        "passId": "815",
        "signer": "0x000000000000000000000000000000000000dead"
      },
      {
        "passId": "816",
        "signer": "0x000001f568875f378bf6d170b790967fe429c81a"
      },
      {
        "passId": "817",
        "signer": "0x0078c86e12186e2de1ff6fef5f1ada2bffde4ea5"
      },
      {
        "passId": "818",
        "signer": "0x024f1f8b3789bfdf9edb47f58a0d7a3afeaea804"
      },
      {
        "passId": "819",
        "signer": "0x049808d5eaa90a2665b9703d2246dded34f1eb73"
      },
      {
        "passId": "820",
        "signer": "0x05e8074088797c1f9057febf374deee0bc38e894"
      },
      {
        "passId": "821",
        "signer": "0x05ea539365d91df315e8ddd736e90431696fe8c4"
      },
      {
        "passId": "822",
        "signer": "0x09280340849e66948149804cac539cc7227512be"
      },
      {
        "passId": "823",
        "signer": "0x0946bc5c2f9848665cc3811458de403d0a78ad8e"
      },
      {
        "passId": "824",
        "signer": "0x0985224a811e65c235dbf4a2c2117712aabe4e39"
      },
      {
        "passId": "825",
        "signer": "0x0d0aca99686fced8e6fb39134aaed96f09b5283c"
      },
      {
        "passId": "826",
        "signer": "0x0d94b6e4c2aa9383964986020b3534d34885f700"
      },
      {
        "passId": "827",
        "signer": "0x0dd544d0da95666d7c3d38460feb4b5f25eaa515"
      },
      {
        "passId": "828",
        "signer": "0x0ea59c05be4b7149aaed26be764b618ac0255643"
      },
      {
        "passId": "829",
        "signer": "0x10b28ee04853bdd30d1fd7b302fbe5691c144aa0"
      },
      {
        "passId": "830",
        "signer": "0x10f6c58b9dc9603cb24ee9a5220bb4a470781676"
      },
      {
        "passId": "831",
        "signer": "0x12579783fbe8c2645d7a634b238da748405975a2"
      },
      {
        "passId": "832",
        "signer": "0x136c65a3f31682fcf683906ddbf3c76db2633f99"
      },
      {
        "passId": "833",
        "signer": "0x139d9a36ff2b6bfb8558dfbc22486da48c77a396"
      },
      {
        "passId": "834",
        "signer": "0x13b3a50f3947476eda74fe191344524e2d2d28e5"
      },
      {
        "passId": "835",
        "signer": "0x13e46ccd194ca86212236543d2e7376b00bafa42"
      },
      {
        "passId": "836",
        "signer": "0x1423fcc74da82fa03d70fa1f7a122db1ba231783"
      },
      {
        "passId": "837",
        "signer": "0x1436dbffbdde71d16a2c4d23f9116c3158c4d984"
      },
      {
        "passId": "838",
        "signer": "0x1527fa3a0778d574adfe714b7e60c7b2a1bf7c29"
      },
      {
        "passId": "839",
        "signer": "0x1974341df4b113a4c16f3d3f106176dec0e4da67"
      },
      {
        "passId": "840",
        "signer": "0x1c062628943a930b805849b494719c7d23c77bd5"
      },
      {
        "passId": "841",
        "signer": "0x1ec9503bbdad721ef3ad485b4b14ce0671dc9925"
      },
      {
        "passId": "842",
        "signer": "0x21c5edc237e95049f92059af6a571fdb700f2b82"
      },
      {
        "passId": "843",
        "signer": "0x2224acd07fd9b269ab5200a9a3df8062624deefb"
      },
      {
        "passId": "844",
        "signer": "0x230eb64900d027dfe372786b3342bd6178ec37d1"
      },
      {
        "passId": "845",
        "signer": "0x273c25abd33eca095e228fde0f15e8f7ec4eb4d9"
      },
      {
        "passId": "846",
        "signer": "0x27d9b6692ec1fb802cc8ceef74270ca4b448076a"
      },
      {
        "passId": "847",
        "signer": "0x290420874bf65691b98b67d042c06bbc31f85f11"
      },
      {
        "passId": "848",
        "signer": "0x2993db31d165c33d848e44a1c26a805ba411d324"
      },
      {
        "passId": "849",
        "signer": "0x2d2c46d26c8fec693586e067c4fc2b2ddc2b4cb3"
      },
      {
        "passId": "850",
        "signer": "0x2d79097b9e4c4f41654b2c91c39fd2c97af00c76"
      },
      {
        "passId": "851",
        "signer": "0x2de2299db048a9e3b8d1934b8dae11b8041cc4fd"
      },
      {
        "passId": "852",
        "signer": "0x2e50783188e23742dd3168682e39381ff5fa9731"
      },
      {
        "passId": "853",
        "signer": "0x2e699391d1b3b8577557b4c0ef6a1d9e8a394f04"
      },
      {
        "passId": "854",
        "signer": "0x308bff328370fc4a9683ab9fcd79a21be6dc5ee4"
      },
      {
        "passId": "855",
        "signer": "0x342c6bfa287ce37b8b53eee0e5b6e6bcbea98c76"
      },
      {
        "passId": "856",
        "signer": "0x362f020fd4420c317e7a0722994ba8bc3380d0e8"
      },
      {
        "passId": "857",
        "signer": "0x3668a20653316a7dd85342f64a4c984d146cadfe"
      },
      {
        "passId": "858",
        "signer": "0x37b699d7eead58433d352d1c77b2db1391f11ce5"
      },
      {
        "passId": "859",
        "signer": "0x3ad353e2845b96fb1b58c1ca6cda46b870de8d6f"
      },
      {
        "passId": "860",
        "signer": "0x3d14410609731ec7924ea8b1f13de544bb46a9a6"
      },
      {
        "passId": "861",
        "signer": "0x4011d09a86d0aca8377a4a8bad691f1aceecd672"
      },
      {
        "passId": "862",
        "signer": "0x41a7276167b80da8815df5b0ddaba3be29984250"
      },
      {
        "passId": "863",
        "signer": "0x44dc2ec15b3483fc8590f6b396cea5f8f2fbf3bd"
      },
      {
        "passId": "864",
        "signer": "0x4530307f98208d3bd5b9631880bc7351770c8810"
      },
      {
        "passId": "865",
        "signer": "0x4a1d757699ab73dd4b48b15049b6f1479b2f3511"
      },
      {
        "passId": "866",
        "signer": "0x4b0bd713574e67a97b3ff8f647f329794a2cbb64"
      },
      {
        "passId": "867",
        "signer": "0x4d03a186b3c7d039ff9a212cd8e81dc34a670b35"
      },
      {
        "passId": "868",
        "signer": "0x4de4a829d42191007431d608775430f3ab072082"
      },
      {
        "passId": "869",
        "signer": "0x4e012d25472225f3385baa43ed64dfec5885c51d"
      },
      {
        "passId": "870",
        "signer": "0x4ffb72b66eba24521736924f87dfe10677d82286"
      },
      {
        "passId": "871",
        "signer": "0x50f27cdb650879a41fb07038bf2b818845c20e17"
      },
      {
        "passId": "872",
        "signer": "0x5285ac85a979b612f5c5320961311bba099670f0"
      },
      {
        "passId": "873",
        "signer": "0x530cf036ed4fa58f7301a9c788c9806624cefd19"
      },
      {
        "passId": "874",
        "signer": "0x5310a9b64847c1b927f823a4bc8836e93f09dc78"
      },
      {
        "passId": "875",
        "signer": "0x54463aae905082c678708bb6c25226eb8f38d5a6"
      },
      {
        "passId": "876",
        "signer": "0x562bf1b67dc40d9b7c3ddd49e45ae58e61e1b76e"
      },
      {
        "passId": "877",
        "signer": "0x568b491fb2b4b9440f6d05e7723df0060fdaef1c"
      },
      {
        "passId": "878",
        "signer": "0x5a016b206d0314c7ec641c3a6fd89dac7fea010e"
      },
      {
        "passId": "879",
        "signer": "0x5b158f897f5ace2afefaf7ace8ce0cdbbbc9168a"
      },
      {
        "passId": "880",
        "signer": "0x5ba02f4ff6af1d9d2af8774d10fd32eb57d4e2e6"
      },
      {
        "passId": "881",
        "signer": "0x5bd685375c21375165438ca7f3eae7ec4fade8c5"
      },
      {
        "passId": "882",
        "signer": "0x5d9e720a1c16b98ab897165803c4d96e8060b8e4"
      },
      {
        "passId": "883",
        "signer": "0x5e01d9928ea32d1d3ae2f3263b6ec6c165dc2d76"
      },
      {
        "passId": "884",
        "signer": "0x5ee42438d0d8fc399c94ef3543665e993e847b49"
      },
      {
        "passId": "885",
        "signer": "0x5f8e56d7f3642dd8783774460da2d3a7c54aacda"
      },
      {
        "passId": "886",
        "signer": "0x5fb8b9512684d451d4e585a1a0aabfb48a253c67"
      },
      {
        "passId": "887",
        "signer": "0x6186290b28d511bff971631c916244a9fc539cfe"
      },
      {
        "passId": "888",
        "signer": "0x62f099a34f01d57c67a100851184bea0d48b45f6"
      },
      {
        "passId": "889",
        "signer": "0x63244b5f1ebcb999ea012da652dffee6653bf8f5"
      },
      {
        "passId": "890",
        "signer": "0x64e00561fa9b1f2f2048b2d4f571279689dd9541"
      },
      {
        "passId": "891",
        "signer": "0x65565244e5700b85c90358468faf37c85db55099"
      },
      {
        "passId": "892",
        "signer": "0x6584b48ccebd9c3e4413a1dd4cdbc38b2500cdf3"
      },
      {
        "passId": "893",
        "signer": "0x65d88c64b01b9481352fa8a68b54ed1b3b687388"
      },
      {
        "passId": "894",
        "signer": "0x663d3947f03ef5b387992b880ac85940057c13e3"
      },
      {
        "passId": "895",
        "signer": "0x67c3097a968db89610825976ec9a5976a966c044"
      },
      {
        "passId": "896",
        "signer": "0x68016f094ebb7b55b04372af335455854b0e2eb6"
      },
      {
        "passId": "897",
        "signer": "0x6854dc5c9e3d3ce0b9dd7250d866908515465dc6"
      },
      {
        "passId": "898",
        "signer": "0x686e960ebd9aceb1771850444d4d3a7810a0dac9"
      },
      {
        "passId": "899",
        "signer": "0x6d7fd0438219c0f753a1ccf7c4885bb6cb260999"
      },
      {
        "passId": "900",
        "signer": "0x704c978d50590b21e4c2f43eb4da24fe61fcd707"
      },
      {
        "passId": "901",
        "signer": "0x73e60cd967e957bc6e074f93320ffa1d52697d5b"
      },
      {
        "passId": "902",
        "signer": "0x75331ebbe0b00b97cab532384f13c9b479f074ec"
      },
      {
        "passId": "903",
        "signer": "0x75ef2eff7b12f5f900ef5c787036deab18423d1a"
      },
      {
        "passId": "904",
        "signer": "0x78885686feec340ab544428f161e7d621f520e29"
      },
      {
        "passId": "905",
        "signer": "0x79bebfcb560141f22959c62bbd2930d5c7e35d30"
      },
      {
        "passId": "906",
        "signer": "0x79fd2f15e0ea8c27b5192259f9da63f4e562f021"
      },
      {
        "passId": "907",
        "signer": "0x7a824bea2bed9399a68cd0e340224809521c81d9"
      },
      {
        "passId": "908",
        "signer": "0x7d6a8ffcaf98cac58340329b3a91759888cb1363"
      },
      {
        "passId": "909",
        "signer": "0x7e7a55b11dd9a02b4da169620adfc36b930100fc"
      },
      {
        "passId": "910",
        "signer": "0x80d0d54050c15971b21e877d95441800f5aa9ee8"
      },
      {
        "passId": "911",
        "signer": "0x8177598e08ee8199c160a48c7a0af31ab54bb59f"
      },
      {
        "passId": "912",
        "signer": "0x82410609593d876761681580cf304c794bd58d09"
      },
      {
        "passId": "913",
        "signer": "0x826f63afd9517364cbebe91a859f10b102505a40"
      },
      {
        "passId": "914",
        "signer": "0x836ef81a58e5565b8d1d555ec8e9a5c2792511c6"
      },
      {
        "passId": "915",
        "signer": "0x83d3c179e7906e7f6755658c70e106f1ed3c5782"
      },
      {
        "passId": "916",
        "signer": "0x84eeb7db3f93feb5a8a98f56dabb970a6797c187"
      },
      {
        "passId": "917",
        "signer": "0x865c2f85c9fea1c6ac7f53de07554d68cb92ed88"
      },
      {
        "passId": "918",
        "signer": "0x8725be0bb6ea759d10fbb52fedecc7dcd6890072"
      },
      {
        "passId": "919",
        "signer": "0x87dfef3b445667292aac89078b51f0f75795805f"
      },
      {
        "passId": "920",
        "signer": "0x88906af7616f88f610d1e479325a5c5f93ba1e2c"
      },
      {
        "passId": "921",
        "signer": "0x8a53b8b59877df193c6dae7b8d1d38251af563cf"
      },
      {
        "passId": "922",
        "signer": "0x8b5e90aa714c967efc8c286f46ce0fc822e1cfb0"
      },
      {
        "passId": "923",
        "signer": "0x8c0c3c60118b24b31806eae82ab4186821bf23f1"
      },
      {
        "passId": "924",
        "signer": "0x8c2e67bd3d0f432ef75d9ae6623cd0dfbce66050"
      },
      {
        "passId": "925",
        "signer": "0x8dc9d43df20681cd62ca0acb24ae7ce2794f835d"
      },
      {
        "passId": "926",
        "signer": "0x8df55ecf2c261b44d079302dc95327fe32f74eed"
      },
      {
        "passId": "927",
        "signer": "0x8ebbf8f59b7b7849e359f7e1cc395df6741c24b9"
      },
      {
        "passId": "928",
        "signer": "0x92e7faa1c7b1cf703e3cda42183978f16fa15713"
      },
      {
        "passId": "929",
        "signer": "0x932a824a4d3d0680e0b352de150e6f212b8ac841"
      },
      {
        "passId": "930",
        "signer": "0x95a4350e1cb5e795d3ebe8bee63d9183de5449d1"
      },
      {
        "passId": "931",
        "signer": "0x96dc89dbe84970ee42a2f0b35fb50599e6745ff8"
      },
      {
        "passId": "932",
        "signer": "0x975ab68d4c15d6db02e101d5be03c5b49b9a3282"
      },
      {
        "passId": "933",
        "signer": "0x9de0b0402258a6a562331da7b3c13b29578789c4"
      },
      {
        "passId": "934",
        "signer": "0x9fc6d6c7326585fd3c2a743a1f505990d6e9df3f"
      },
      {
        "passId": "935",
        "signer": "0xa0863e36c30f4974a3a0e2cfc2802513cfaa22f1"
      },
      {
        "passId": "936",
        "signer": "0xa0a6dc36041fb386378458006fecbddd02555ddd"
      },
      {
        "passId": "937",
        "signer": "0xa0d71d516c6149c958c489ab24223c99f5df906f"
      },
      {
        "passId": "938",
        "signer": "0xa0f838d02983161ee469bff969964b7051ac1cd9"
      },
      {
        "passId": "939",
        "signer": "0xa596370bc21dee36872b98009dfbbf465dbfefa3"
      },
      {
        "passId": "940",
        "signer": "0xa5975974cac3fefd831e42bdd2fe84cb5ee3b3de"
      },
      {
        "passId": "941",
        "signer": "0xa6157b7bb7ec05e2b6feafd686797f9ea05411cc"
      },
      {
        "passId": "942",
        "signer": "0xa6f4fa9840aa6825446c820af6d5eccf9f78ba05"
      },
      {
        "passId": "943",
        "signer": "0xa77d9227eee861e01519548b6000acca8600eebe"
      },
      {
        "passId": "944",
        "signer": "0xa7d9f4fd84cdd4bee564adc1b18e3e8aa79d25f1"
      },
      {
        "passId": "945",
        "signer": "0xa88e4a192f3ff5e46dcc96efefb38dfec7bb250c"
      },
      {
        "passId": "946",
        "signer": "0xab2f02d8d409ee4f67fdda5aac5ca7a64a897271"
      },
      {
        "passId": "947",
        "signer": "0xac75cdc34283406b050cadf4ea5902a9310b138e"
      },
      {
        "passId": "948",
        "signer": "0xad9f9194c68bd83250a534a7da574687e1f102ff"
      },
      {
        "passId": "949",
        "signer": "0xae8ce6bb2b95684f57c097b407f4e9b55d9ca432"
      },
      {
        "passId": "950",
        "signer": "0xaee2f40fe0568bd859bc6a518c7ef3252fdc9bf0"
      },
      {
        "passId": "951",
        "signer": "0xaf5cb828389bd6413e7bcd00ed2dcf2bdc1a015a"
      },
      {
        "passId": "952",
        "signer": "0xaf8fbf59e221d27b55dc3adc2366f9230bcf5096"
      },
      {
        "passId": "953",
        "signer": "0xb29b1936c11b77cec6061a9daf765ee2666c8f77"
      },
      {
        "passId": "954",
        "signer": "0xb347b5b99c49ce6c555071a1f0498c81511ad977"
      },
      {
        "passId": "955",
        "signer": "0xb3522064694ac9870dbf00eebc2712762193bb64"
      },
      {
        "passId": "956",
        "signer": "0xb353268ce17d2c7f0f4f8aff152e548c43633df5"
      },
      {
        "passId": "957",
        "signer": "0xb66190f67ed8f0ca790ddfe541ee1bd0da53fe70"
      },
      {
        "passId": "958",
        "signer": "0xb74e4d1592dad73f3745f57605580108ebaedad5"
      },
      {
        "passId": "959",
        "signer": "0xb7f9f538aa1b41ae2853eb63f1939187ffe70eb4"
      },
      {
        "passId": "960",
        "signer": "0xbb46c6e4d8a59520fbb11638c2d1228cc65f5a6c"
      },
      {
        "passId": "961",
        "signer": "0xbc10a3ae909b1b94f4c3e39607ad19d386dce32a"
      },
      {
        "passId": "962",
        "signer": "0xbd12aa424c207e90b66402c1f0aec357e8b1ded7"
      },
      {
        "passId": "963",
        "signer": "0xbe5be517537e53f09e88bcdf61da238477dca226"
      },
      {
        "passId": "964",
        "signer": "0xbeeef66749b64afe43bbc9475635eb510cfe4922"
      },
      {
        "passId": "965",
        "signer": "0xbf1ed1ea654ad49472daedc21a31c8d28e6bb790"
      },
      {
        "passId": "966",
        "signer": "0xbf27384febdc054bbd7e388761919e7d98f7da0c"
      },
      {
        "passId": "967",
        "signer": "0xbfdb50dc66c8df9fd9688d8fe5a0c34126427645"
      },
      {
        "passId": "968",
        "signer": "0xc09d3402515676b81a2f768c365146ea3faa5605"
      },
      {
        "passId": "969",
        "signer": "0xc0e5e14bdecd9ed6954a9e14c74e97cebd91bb94"
      },
      {
        "passId": "970",
        "signer": "0xc169699a825066f2f07e0b29c4082094b32a3f3e"
      },
      {
        "passId": "971",
        "signer": "0xc3a67c1437353bdc9c53060235a34018711de0cf"
      },
      {
        "passId": "972",
        "signer": "0xc42c694d0215b27bce1a871a4a2ad38cf0120a82"
      },
      {
        "passId": "973",
        "signer": "0xc555347d2b369b074be94fe6f7ae9ab43966b884"
      },
      {
        "passId": "974",
        "signer": "0xc665a60f22dda926b920deb8ffac0ef9d8a17460"
      },
      {
        "passId": "975",
        "signer": "0xc8286a9bf1f9bf8f3006fa014915c78b7e75111c"
      },
      {
        "passId": "976",
        "signer": "0xc8bace82793074fad3337424bdb84e306b2f8a44"
      },
      {
        "passId": "977",
        "signer": "0xc9a009bed9ed8a32499e18c20f7cd12132c8d6cb"
      },
      {
        "passId": "978",
        "signer": "0xca11d10ceb098f597a0cab28117fc3465991a63c"
      },
      {
        "passId": "979",
        "signer": "0xcbd2f544073eb35b59a8eb19194a222a5361cd74"
      },
      {
        "passId": "980",
        "signer": "0xcda685c8444f659ac3fe778f8d143aabdf1a21ab"
      },
      {
        "passId": "981",
        "signer": "0xcea78aaa93e917fb5e1802901db2b20aa4411b44"
      },
      {
        "passId": "982",
        "signer": "0xcef871b113d2bb5d3fa5dc96d2d288dd38082aae"
      },
      {
        "passId": "983",
        "signer": "0xcf680fb77c12e2aa2dec82f3ae0c0e527f549fe2"
      },
      {
        "passId": "984",
        "signer": "0xd1eddfcc4596cc8bd0bd7495beab9b979fc50336"
      },
      {
        "passId": "985",
        "signer": "0xd3e64b9dea13e4840a0da20965bd0ca37d05a12a"
      },
      {
        "passId": "986",
        "signer": "0xd651e2c626ee210fc38676124d5007ac822ad749"
      },
      {
        "passId": "987",
        "signer": "0xd657860fc512ec2250a7385a353f599e3276fddb"
      },
      {
        "passId": "988",
        "signer": "0xd6e02c13a6cc133c9d019495414667ea7bee05cc"
      },
      {
        "passId": "989",
        "signer": "0xdc190d7cea8e8bf0b381617062200c10cfff0a91"
      },
      {
        "passId": "990",
        "signer": "0xdd6c81d6d587e2d49eaadffb4ce380564046002a"
      },
      {
        "passId": "991",
        "signer": "0xddb92a96054132801cae3943b2f966fc2c308ac8"
      },
      {
        "passId": "992",
        "signer": "0xdde3ca351d85a4b4cc6aff8d42c0840959859053"
      },
      {
        "passId": "993",
        "signer": "0xe00a3ab72b29eb4ac2695221f62cdf872cb5d483"
      },
      {
        "passId": "994",
        "signer": "0xe120ed22a0cd12d5de6122aa7d5b6d93ac218b49"
      },
      {
        "passId": "995",
        "signer": "0xe20adb03a470b5573bf572dd918e052d0d17866e"
      },
      {
        "passId": "996",
        "signer": "0xe363c2fba75cbd27487b17430e1efbdd2add374e"
      },
      {
        "passId": "997",
        "signer": "0xe5a3d77d7788a83f3549dd7f08fc2aced7e262d2"
      },
      {
        "passId": "998",
        "signer": "0xe66e1e9e37e4e148b21eb22001431818e980d060"
      },
      {
        "passId": "999",
        "signer": "0xe7bd51dc30d4bdc9fddd42ea7c0a283590c9d416"
      },
      {
        "passId": "1000",
        "signer": "0xeb42cd8a1fe1ff556960a9a03ca29aa13f8aa838"
      },
      {
        "passId": "1001",
        "signer": "0xed0f30677c760ea8f0bff70c76eafc79d5f7c3c8"
      },
      {
        "passId": "1002",
        "signer": "0xeddd55a234240042695d7430bf0a09b9038a26ad"
      },
      {
        "passId": "1003",
        "signer": "0xee4d308cc1cde3dd0adcb5a2c85edff22db64918"
      },
      {
        "passId": "1004",
        "signer": "0xee9439a12a7c2a9b6600ca8a498620580d2f116e"
      },
      {
        "passId": "1005",
        "signer": "0xeeaf61935c0c48f8f8cc28c381683d7fa2f75e1c"
      },
      {
        "passId": "1006",
        "signer": "0xef1271ae97bc1a1b356ab697e9ed0d1d4e05fcda"
      },
      {
        "passId": "1007",
        "signer": "0xf19bc58f747d6ea11959bf2a0fa81e53285546ac"
      },
      {
        "passId": "1008",
        "signer": "0xf1e1c701b49b1dc2405a9e8ef40f9f88802b80fa"
      },
      {
        "passId": "1009",
        "signer": "0xf2b15320db6992ba49a7563e50e888c20edcbe3c"
      },
      {
        "passId": "1010",
        "signer": "0xf341c3abb49feb96b4822e68227b54c6fb9f6318"
      },
      {
        "passId": "1011",
        "signer": "0xf3493f6812b1f22b40f8539db2510e13ac251f96"
      },
      {
        "passId": "1012",
        "signer": "0xf3b1b6e83be4d55695f1d30ac3d307d9d5ca98ff"
      },
      {
        "passId": "1013",
        "signer": "0xf464d1a37d8ef9449722f44a4eeb715c0e0acdb3"
      },
      {
        "passId": "1014",
        "signer": "0xf6910d47fbb1f5518d60c721d4189936ecd5a1b6"
      },
      {
        "passId": "1015",
        "signer": "0xf73c935815908ad9a056fc50269f95d8ba032e9d"
      },
      {
        "passId": "1016",
        "signer": "0xf78cd306b23031de9e739a5bcde61764e82ad5ef"
      },
      {
        "passId": "1017",
        "signer": "0xf942040710bedf7220beb24b220631c2255e87f1"
      },
      {
        "passId": "1018",
        "signer": "0xf943e1d2db38db468f66a79b08ec23f8c4375ce3"
      },
      {
        "passId": "1019",
        "signer": "0xfa46dedf812c5803b1e2cea10eef3f27dafeca56"
      },
      {
        "passId": "1020",
        "signer": "0xfa9f104f338846b38b083c9e567ff6bbe43ab5f7"
      },
      {
        "passId": "1021",
        "signer": "0xfd12799b9fb97dc61d9ad7ad4ffba5624004bc62"
      },
      {
        "passId": "1022",
        "signer": "0xfe1e7dc61721f34a25c9eb4dc1a1a8f352c923ef"
      },
      {
        "passId": "1023",
        "signer": "0xfffff6e70842330948ca47254f2be673b1cb0db7"
      }
    ],
    "startTime": 1638145928,
    "publicSaleTimestamp": 1638405128,
    "percentageForCreator": 2500,
    "price": "100000000000000000"
  },
  "solcInputHash": "c5183fca1b51dbc1abba9e78dc523ebc",
  "bytecode": "0x6101a06040523480156200001257600080fd5b506040516200210138038062002101833981016040819052620000359162000091565b6001600160a01b03998a1660805292891660a05260c09190915290961660e05261010094909452610120929092526101405261016052610180526000556200012c565b6001600160a01b03811681146200008e57600080fd5b50565b6000806000806000806000806000806101408b8d031215620000b257600080fd5b8a51620000bf8162000078565b809a505060208b0151985060408b0151975060608b0151965060808b0151955060a08b0151945060c08b0151620000f68162000078565b60e08c01516101008d01519195509350620001118162000078565b809250506101208b015190509295989b9194979a5092959850565b60805160a05160c05160e0516101005161012051610140516101605161018051611edf62000222600039600081816101bd01528181610c050152610e2e015260008181610197015281816102dc015281816104110152818161051f01528181610be2015261103701526000818161016f01528181610bbf015261105f01526000818161014901528181610b9c0152610e5501526000818161012601528181610b7901526110850152600061159e0152600081816114ac01526114da0152600081816105cd015281816107fd015261152601526000818161078501528181610a0d01528181610aaa01526111a90152611edf6000f3fe6080604052600436106100b15760003560e01c80639c20551311610069578063d93459b61161004e578063d93459b61461023c578063e957a3811461025c578063f19b57c21461027c57600080fd5b80639c20551314610209578063ca9dca041461021c57600080fd5b80637361a72e1161009a5780637361a72e1461010057806381059f7814610113578063990b0f60146101e957600080fd5b80632228adcc146100b65780632558e933146100eb575b600080fd5b3480156100c257600080fd5b506100d66100d1366004611747565b6102b0565b60405190151581526020015b60405180910390f35b6100fe6100f93660046118a6565b6102da565b005b6100fe61010e3660046119a8565b61040f565b34801561011f57600080fd5b50604080517f000000000000000000000000000000000000000000000000000000000000000081527f000000000000000000000000000000000000000000000000000000000000000060208201527f0000000000000000000000000000000000000000000000000000000000000000918101919091527f000000000000000000000000000000000000000000000000000000000000000060608201527f0000000000000000000000000000000000000000000000000000000000000000608082015260a0016100e2565b3480156101f557600080fd5b506100d6610204366004611747565b6104d2565b6100fe610217366004611a12565b61051d565b34801561022857600080fd5b506100fe610237366004611a12565b6105b5565b34801561024857600080fd5b506100fe610257366004611a8e565b6107e5565b34801561026857600080fd5b506100d6610277366004611747565b610a7d565b34801561028857600080fd5b5061029c610297366004611ae5565b610a9b565b6040516100e2989796959493929190611b31565b6000806102c26010600685901c611bf7565b905080600714806102d35750806008145b9392505050565b7f00000000000000000000000000000000000000000000000000000000000000004210156103fe5761030b83610c43565b600061037683858760405160200161035292919091825260601b7fffffffffffffffffffffffffffffffffffffffff00000000000000000000000016602082015260340190565b60405160208183030381529060405280519060200120610d0190919063ffffffff16565b905060006103848583610d25565b90506103908382610d86565b6103fb576040517f08c379a000000000000000000000000000000000000000000000000000000000815260206004820152600d60248201527f494e56414c49445f50524f4f460000000000000000000000000000000000000060448201526064015b60405180910390fd5b50505b6104088585610e53565b5050505050565b7f00000000000000000000000000000000000000000000000000000000000000004210156104c25761044082610c43565b33600061044d8483610d25565b90506104598382610d86565b6104bf576040517f08c379a000000000000000000000000000000000000000000000000000000000815260206004820152600d60248201527f494e56414c49445f50524f4f460000000000000000000000000000000000000060448201526064016103f2565b50505b6104cc8484610e53565b50505050565b6000806104e161010084611c3a565b905060006104f182610100611c4e565b6104fb9085611c8b565b60009283526001602081905260409093205492901b9182169091149392505050565b7f00000000000000000000000000000000000000000000000000000000000000004210156105a7576040517f08c379a000000000000000000000000000000000000000000000000000000000815260206004820152601460248201527f524551554952455f504153535f4f525f5741495400000000000000000000000060448201526064016103f2565b6105b18282610e53565b5050565b3373ffffffffffffffffffffffffffffffffffffffff7f00000000000000000000000000000000000000000000000000000000000000001614610654576040517f08c379a000000000000000000000000000000000000000000000000000000000815260206004820152600e60248201527f4e4f545f415554484f52495a454400000000000000000000000000000000000060448201526064016103f2565b6102408261ffff16106106c3576040517f08c379a000000000000000000000000000000000000000000000000000000000815260206004820152600d60248201527f494e56414c49445f534f554e440000000000000000000000000000000000000060448201526064016103f2565b6106d08261ffff166102b0565b610736576040517f08c379a000000000000000000000000000000000000000000000000000000000815260206004820152600c60248201527f4e4f545f5245534552564544000000000000000000000000000000000000000060448201526064016103f2565b6040517f9c20551300000000000000000000000000000000000000000000000000000000815261ffff8316600482015273ffffffffffffffffffffffffffffffffffffffff82811660248301527f00000000000000000000000000000000000000000000000000000000000000001690639c20551390604401600060405180830381600087803b1580156107c957600080fd5b505af11580156107dd573d6000803e3d6000fd5b505050505050565b3373ffffffffffffffffffffffffffffffffffffffff7f00000000000000000000000000000000000000000000000000000000000000001614610884576040517f08c379a000000000000000000000000000000000000000000000000000000000815260206004820152600e60248201527f4e4f545f415554484f52495a454400000000000000000000000000000000000060448201526064016103f2565b60005b828110156109cf576102408484838181106108a4576108a4611ca2565b90506020020160208101906108b99190611cd1565b61ffff1610610924576040517f08c379a000000000000000000000000000000000000000000000000000000000815260206004820152600d60248201527f494e56414c49445f534f554e440000000000000000000000000000000000000060448201526064016103f2565b61095784848381811061093957610939611ca2565b905060200201602081019061094e9190611cd1565b61ffff166102b0565b6109bd576040517f08c379a000000000000000000000000000000000000000000000000000000000815260206004820152600c60248201527f4e4f545f5245534552564544000000000000000000000000000000000000000060448201526064016103f2565b806109c781611cec565b915050610887565b506040517fe2ea128800000000000000000000000000000000000000000000000000000000815273ffffffffffffffffffffffffffffffffffffffff7f0000000000000000000000000000000000000000000000000000000000000000169063e2ea128890610a4690869086908690600401611d25565b600060405180830381600087803b158015610a6057600080fd5b505af1158015610a74573d6000803e3d6000fd5b50505050505050565b600080610a8f6010600685901c611bf7565b60005410159392505050565b606060008060008060008060007f000000000000000000000000000000000000000000000000000000000000000073ffffffffffffffffffffffffffffffffffffffff1663a0554c268b8b6040518363ffffffff1660e01b8152600401610b03929190611d8b565b60006040518083038186803b158015610b1b57600080fd5b505afa158015610b2f573d6000803e3d6000fd5b505050506040513d6000823e601f3d9081017fffffffffffffffffffffffffffffffffffffffffffffffffffffffffffffffe0168201604052610b759190810190611de0565b97507f000000000000000000000000000000000000000000000000000000000000000096507f000000000000000000000000000000000000000000000000000000000000000095507f000000000000000000000000000000000000000000000000000000000000000094507f000000000000000000000000000000000000000000000000000000000000000093507f00000000000000000000000000000000000000000000000000000000000000009250610c2f8b6104d2565b915060005490509397509397509397509397565b6000610c5161010083611c3a565b90506000610c6182610100611c4e565b610c6b9084611c8b565b600083815260016020819052604090912054911b915080821615610ceb576040517f08c379a000000000000000000000000000000000000000000000000000000000815260206004820152601160248201527f504153535f414c52454144595f5553454400000000000000000000000000000060448201526064016103f2565b6000928352600160205260409092209117905550565b6000806000610d1085856111d8565b91509150610d1d81611248565b509392505050565b60008282604051602001610d6892919091825260601b7fffffffffffffffffffffffffffffffffffffffff00000000000000000000000016602082015260340190565b60405160208183030381529060405280519060200120905092915050565b6000805b8351811015610e2a576000848281518110610da757610da7611ca2565b6020026020010151905080841015610dea576040805160208101869052908101829052606001604051602081830303815290604052805190602001209350610e17565b60408051602081018390529081018590526060016040516020818303038152906040528051906020012093505b5080610e2281611cec565b915050610d8a565b50507f000000000000000000000000000000000000000000000000000000000000000014919050565b7f0000000000000000000000000000000000000000000000000000000000000000421015610edd576040517f08c379a000000000000000000000000000000000000000000000000000000000815260206004820152601060248201527f53414c455f4e4f545f535441525445440000000000000000000000000000000060448201526064016103f2565b6102408261ffff1610610f4c576040517f08c379a000000000000000000000000000000000000000000000000000000000815260206004820152600d60248201527f494e56414c49445f534f554e440000000000000000000000000000000000000060448201526064016103f2565b610f598261ffff16610a7d565b610fbf576040517f08c379a000000000000000000000000000000000000000000000000000000000815260206004820152601b60248201527f494e535455524d454e545f4e4f545f5945545f464f525f53414c45000000000060448201526064016103f2565b610fcc8261ffff166102b0565b15611033576040517f08c379a000000000000000000000000000000000000000000000000000000000815260206004820152600860248201527f524553455256454400000000000000000000000000000000000000000000000060448201526064016103f2565b60007f0000000000000000000000000000000000000000000000000000000000000000421015611083577f00000000000000000000000000000000000000000000000000000000000000006110a5565b7f00000000000000000000000000000000000000000000000000000000000000005b905080341015611111576040517f08c379a000000000000000000000000000000000000000000000000000000000815260206004820152600a60248201527f4e4f545f454e4f5547480000000000000000000000000000000000000000000060448201526064016103f2565b8034111561115157336108fc6111278334611c8b565b6040518115909202916000818181858888f1935050505015801561114f573d6000803e3d6000fd5b505b61115a816114a4565b6040517f9c20551300000000000000000000000000000000000000000000000000000000815261ffff8416600482015273ffffffffffffffffffffffffffffffffffffffff83811660248301527f00000000000000000000000000000000000000000000000000000000000000001690639c20551390604401610a46565b60008082516041141561120f5760208301516040840151606085015160001a611203878285856115e7565b94509450505050611241565b825160401415611239576020830151604084015161122e8683836116ff565b935093505050611241565b506000905060025b9250929050565b600081600481111561125c5761125c611e7a565b14156112655750565b600181600481111561127957611279611e7a565b14156112e1576040517f08c379a000000000000000000000000000000000000000000000000000000000815260206004820152601860248201527f45434453413a20696e76616c6964207369676e6174757265000000000000000060448201526064016103f2565b60028160048111156112f5576112f5611e7a565b141561135d576040517f08c379a000000000000000000000000000000000000000000000000000000000815260206004820152601f60248201527f45434453413a20696e76616c6964207369676e6174757265206c656e6774680060448201526064016103f2565b600381600481111561137157611371611e7a565b14156113ff576040517f08c379a000000000000000000000000000000000000000000000000000000000815260206004820152602260248201527f45434453413a20696e76616c6964207369676e6174757265202773272076616c60448201527f756500000000000000000000000000000000000000000000000000000000000060648201526084016103f2565b600481600481111561141357611413611e7a565b14156114a1576040517f08c379a000000000000000000000000000000000000000000000000000000000815260206004820152602260248201527f45434453413a20696e76616c6964207369676e6174757265202776272076616c60448201527f756500000000000000000000000000000000000000000000000000000000000060648201526084016103f2565b50565b80156114a1577f00000000000000000000000000000000000000000000000000000000000000001561157e5760006127106114ff7f000000000000000000000000000000000000000000000000000000000000000084611c4e565b6115099190611c3a565b60405190915073ffffffffffffffffffffffffffffffffffffffff7f0000000000000000000000000000000000000000000000000000000000000000169082156108fc029083906000818181858888f1935050505015801561156f573d6000803e3d6000fd5b5061157a8183611c8b565b9150505b80156114a15760405173ffffffffffffffffffffffffffffffffffffffff7f0000000000000000000000000000000000000000000000000000000000000000169082156108fc029083906000818181858888f193505050501580156105b1573d6000803e3d6000fd5b6000807f7fffffffffffffffffffffffffffffff5d576e7357a4501ddfe92f46681b20a083111561161e57506000905060036116f6565b8460ff16601b1415801561163657508460ff16601c14155b1561164757506000905060046116f6565b6040805160008082526020820180845289905260ff881692820192909252606081018690526080810185905260019060a0016020604051602081039080840390855afa15801561169b573d6000803e3d6000fd5b50506040517fffffffffffffffffffffffffffffffffffffffffffffffffffffffffffffffe0015191505073ffffffffffffffffffffffffffffffffffffffff81166116ef576000600192509250506116f6565b9150600090505b94509492505050565b6000807f7fffffffffffffffffffffffffffffffffffffffffffffffffffffffffffffff831660ff84901c601b01611739878288856115e7565b935093505050935093915050565b60006020828403121561175957600080fd5b5035919050565b803561ffff8116811461177257600080fd5b919050565b73ffffffffffffffffffffffffffffffffffffffff811681146114a157600080fd5b7f4e487b7100000000000000000000000000000000000000000000000000000000600052604160045260246000fd5b604051601f82017fffffffffffffffffffffffffffffffffffffffffffffffffffffffffffffffe016810167ffffffffffffffff8111828210171561180f5761180f611799565b604052919050565b600067ffffffffffffffff82111561183157611831611799565b5060051b60200190565b600082601f83011261184c57600080fd5b8135602061186161185c83611817565b6117c8565b82815260059290921b8401810191818101908684111561188057600080fd5b8286015b8481101561189b5780358352918301918301611884565b509695505050505050565b600080600080600060a086880312156118be57600080fd5b6118c786611760565b94506020808701356118d881611777565b945060408701359350606087013567ffffffffffffffff808211156118fc57600080fd5b818901915089601f83011261191057600080fd5b81358181111561192257611922611799565b611952847fffffffffffffffffffffffffffffffffffffffffffffffffffffffffffffffe0601f840116016117c8565b8181528b8583860101111561196657600080fd5b81858501868301376000918101909401529193506080880135918083111561198d57600080fd5b505061199b8882890161183b565b9150509295509295909350565b600080600080608085870312156119be57600080fd5b6119c785611760565b935060208501356119d781611777565b925060408501359150606085013567ffffffffffffffff8111156119fa57600080fd5b611a068782880161183b565b91505092959194509250565b60008060408385031215611a2557600080fd5b611a2e83611760565b91506020830135611a3e81611777565b809150509250929050565b60008083601f840112611a5b57600080fd5b50813567ffffffffffffffff811115611a7357600080fd5b6020830191508360208260051b850101111561124157600080fd5b600080600060408486031215611aa357600080fd5b833567ffffffffffffffff811115611aba57600080fd5b611ac686828701611a49565b9094509250506020840135611ada81611777565b809150509250925092565b600080600060408486031215611afa57600080fd5b83359250602084013567ffffffffffffffff811115611b1857600080fd5b611b2486828701611a49565b9497909650939450505050565b6101008082528951908201819052600090610120830190602090818d01845b82811015611b8257815173ffffffffffffffffffffffffffffffffffffffff1685529383019390830190600101611b50565b5050508192508a8185015250508760408301528660608301528560808301528460a0830152611bb560c083018515159052565b8260e08301529998505050505050505050565b7f4e487b7100000000000000000000000000000000000000000000000000000000600052601260045260246000fd5b600082611c0657611c06611bc8565b500690565b7f4e487b7100000000000000000000000000000000000000000000000000000000600052601160045260246000fd5b600082611c4957611c49611bc8565b500490565b6000817fffffffffffffffffffffffffffffffffffffffffffffffffffffffffffffffff0483118215151615611c8657611c86611c0b565b500290565b600082821015611c9d57611c9d611c0b565b500390565b7f4e487b7100000000000000000000000000000000000000000000000000000000600052603260045260246000fd5b600060208284031215611ce357600080fd5b6102d382611760565b60007fffffffffffffffffffffffffffffffffffffffffffffffffffffffffffffffff821415611d1e57611d1e611c0b565b5060010190565b6040808252810183905260008460608301825b86811015611d615761ffff611d4c84611760565b16825260209283019290910190600101611d38565b50809250505073ffffffffffffffffffffffffffffffffffffffff83166020830152949350505050565b6020815281602082015260007f07ffffffffffffffffffffffffffffffffffffffffffffffffffffffffffffff831115611dc457600080fd5b8260051b80856040850137600092016040019182525092915050565b60006020808385031215611df357600080fd5b825167ffffffffffffffff811115611e0a57600080fd5b8301601f81018513611e1b57600080fd5b8051611e2961185c82611817565b81815260059190911b82018301908381019087831115611e4857600080fd5b928401925b82841015611e6f578351611e6081611777565b82529284019290840190611e4d565b979650505050505050565b7f4e487b7100000000000000000000000000000000000000000000000000000000600052602160045260246000fdfea2646970667358221220d0ef12cc2eb434d573db30b4b987962dc76eefda01b674dcbfb79ce8497033cc64736f6c63430008090033",
  "devdoc": {
    "kind": "dev",
    "methods": {},
    "version": 1
  },
  "userdoc": {
    "kind": "user",
    "methods": {},
    "version": 1
  },
  "storageLayout": {
    "storage": [
      {
        "astId": 10767,
        "contract": "src/bleeps/BleepsFixedPriceSale.sol:BleepsFixedPriceSale",
        "label": "_uptoInstr",
        "offset": 0,
        "slot": "0",
        "type": "t_uint256"
      },
      {
        "astId": 10771,
        "contract": "src/bleeps/BleepsFixedPriceSale.sol:BleepsFixedPriceSale",
        "label": "_passUsed",
        "offset": 0,
        "slot": "1",
        "type": "t_mapping(t_uint256,t_uint256)"
      }
    ],
    "types": {
      "t_mapping(t_uint256,t_uint256)": {
        "encoding": "mapping",
        "key": "t_uint256",
        "label": "mapping(uint256 => uint256)",
        "numberOfBytes": "32",
        "value": "t_uint256"
      },
      "t_uint256": {
        "encoding": "inplace",
        "label": "uint256",
        "numberOfBytes": "32"
      }
    }
  }
}