{
  "address": "0xC95534174506355699498e49CD643a9A6FF9F80D",
  "abi": [
    {
      "inputs": [
        {
          "internalType": "uint256",
          "name": "minDelay",
          "type": "uint256"
        },
        {
          "internalType": "address",
          "name": "guardian",
          "type": "address"
        }
      ],
      "stateMutability": "nonpayable",
      "type": "constructor"
    },
    {
      "anonymous": false,
      "inputs": [
        {
          "indexed": true,
          "internalType": "bytes32",
          "name": "id",
          "type": "bytes32"
        },
        {
          "indexed": true,
          "internalType": "uint256",
          "name": "index",
          "type": "uint256"
        },
        {
          "indexed": false,
          "internalType": "address",
          "name": "target",
          "type": "address"
        },
        {
          "indexed": false,
          "internalType": "uint256",
          "name": "value",
          "type": "uint256"
        },
        {
          "indexed": false,
          "internalType": "bytes",
          "name": "data",
          "type": "bytes"
        }
      ],
      "name": "CallExecuted",
      "type": "event"
    },
    {
      "anonymous": false,
      "inputs": [
        {
          "indexed": true,
          "internalType": "bytes32",
          "name": "id",
          "type": "bytes32"
        },
        {
          "indexed": true,
          "internalType": "uint256",
          "name": "index",
          "type": "uint256"
        },
        {
          "indexed": false,
          "internalType": "address",
          "name": "target",
          "type": "address"
        },
        {
          "indexed": false,
          "internalType": "uint256",
          "name": "value",
          "type": "uint256"
        },
        {
          "indexed": false,
          "internalType": "bytes",
          "name": "data",
          "type": "bytes"
        },
        {
          "indexed": false,
          "internalType": "bytes32",
          "name": "predecessor",
          "type": "bytes32"
        },
        {
          "indexed": false,
          "internalType": "uint256",
          "name": "delay",
          "type": "uint256"
        }
      ],
      "name": "CallScheduled",
      "type": "event"
    },
    {
      "anonymous": false,
      "inputs": [
        {
          "indexed": true,
          "internalType": "bytes32",
          "name": "id",
          "type": "bytes32"
        }
      ],
      "name": "Cancelled",
      "type": "event"
    },
    {
      "anonymous": false,
      "inputs": [
        {
          "indexed": false,
          "internalType": "uint256",
          "name": "oldDuration",
          "type": "uint256"
        },
        {
          "indexed": false,
          "internalType": "uint256",
          "name": "newDuration",
          "type": "uint256"
        }
      ],
      "name": "MinDelayChange",
      "type": "event"
    },
    {
      "anonymous": false,
      "inputs": [
        {
          "indexed": true,
          "internalType": "bytes32",
          "name": "role",
          "type": "bytes32"
        },
        {
          "indexed": true,
          "internalType": "bytes32",
          "name": "previousAdminRole",
          "type": "bytes32"
        },
        {
          "indexed": true,
          "internalType": "bytes32",
          "name": "newAdminRole",
          "type": "bytes32"
        }
      ],
      "name": "RoleAdminChanged",
      "type": "event"
    },
    {
      "anonymous": false,
      "inputs": [
        {
          "indexed": true,
          "internalType": "bytes32",
          "name": "role",
          "type": "bytes32"
        },
        {
          "indexed": true,
          "internalType": "address",
          "name": "account",
          "type": "address"
        },
        {
          "indexed": true,
          "internalType": "address",
          "name": "sender",
          "type": "address"
        }
      ],
      "name": "RoleGranted",
      "type": "event"
    },
    {
      "anonymous": false,
      "inputs": [
        {
          "indexed": true,
          "internalType": "bytes32",
          "name": "role",
          "type": "bytes32"
        },
        {
          "indexed": true,
          "internalType": "address",
          "name": "account",
          "type": "address"
        },
        {
          "indexed": true,
          "internalType": "address",
          "name": "sender",
          "type": "address"
        }
      ],
      "name": "RoleRevoked",
      "type": "event"
    },
    {
      "inputs": [],
      "name": "DEFAULT_ADMIN_ROLE",
      "outputs": [
        {
          "internalType": "bytes32",
          "name": "",
          "type": "bytes32"
        }
      ],
      "stateMutability": "view",
      "type": "function"
    },
    {
      "inputs": [],
      "name": "EXECUTOR_ROLE",
      "outputs": [
        {
          "internalType": "bytes32",
          "name": "",
          "type": "bytes32"
        }
      ],
      "stateMutability": "view",
      "type": "function"
    },
    {
      "inputs": [],
      "name": "GUARDIAN_ROLE",
      "outputs": [
        {
          "internalType": "bytes32",
          "name": "",
          "type": "bytes32"
        }
      ],
      "stateMutability": "view",
      "type": "function"
    },
    {
      "inputs": [],
      "name": "PROPOSER_ROLE",
      "outputs": [
        {
          "internalType": "bytes32",
          "name": "",
          "type": "bytes32"
        }
      ],
      "stateMutability": "view",
      "type": "function"
    },
    {
      "inputs": [],
      "name": "TIMELOCK_ADMIN_ROLE",
      "outputs": [
        {
          "internalType": "bytes32",
          "name": "",
          "type": "bytes32"
        }
      ],
      "stateMutability": "view",
      "type": "function"
    },
    {
      "inputs": [],
      "name": "VOID_ROLE",
      "outputs": [
        {
          "internalType": "bytes32",
          "name": "",
          "type": "bytes32"
        }
      ],
      "stateMutability": "view",
      "type": "function"
    },
    {
      "inputs": [
        {
          "internalType": "bytes32",
          "name": "id",
          "type": "bytes32"
        }
      ],
      "name": "cancel",
      "outputs": [],
      "stateMutability": "nonpayable",
      "type": "function"
    },
    {
      "inputs": [
        {
          "internalType": "address",
          "name": "target",
          "type": "address"
        },
        {
          "internalType": "uint256",
          "name": "value",
          "type": "uint256"
        },
        {
          "internalType": "bytes",
          "name": "data",
          "type": "bytes"
        },
        {
          "internalType": "bytes32",
          "name": "predecessor",
          "type": "bytes32"
        },
        {
          "internalType": "bytes32",
          "name": "salt",
          "type": "bytes32"
        }
      ],
      "name": "execute",
      "outputs": [],
      "stateMutability": "payable",
      "type": "function"
    },
    {
      "inputs": [
        {
          "internalType": "address[]",
          "name": "targets",
          "type": "address[]"
        },
        {
          "internalType": "uint256[]",
          "name": "values",
          "type": "uint256[]"
        },
        {
          "internalType": "bytes[]",
          "name": "datas",
          "type": "bytes[]"
        },
        {
          "internalType": "bytes32",
          "name": "predecessor",
          "type": "bytes32"
        },
        {
          "internalType": "bytes32",
          "name": "salt",
          "type": "bytes32"
        }
      ],
      "name": "executeBatch",
      "outputs": [],
      "stateMutability": "payable",
      "type": "function"
    },
    {
      "inputs": [],
      "name": "getMinDelay",
      "outputs": [
        {
          "internalType": "uint256",
          "name": "duration",
          "type": "uint256"
        }
      ],
      "stateMutability": "view",
      "type": "function"
    },
    {
      "inputs": [
        {
          "internalType": "bytes32",
          "name": "role",
          "type": "bytes32"
        }
      ],
      "name": "getRoleAdmin",
      "outputs": [
        {
          "internalType": "bytes32",
          "name": "",
          "type": "bytes32"
        }
      ],
      "stateMutability": "view",
      "type": "function"
    },
    {
      "inputs": [
        {
          "internalType": "bytes32",
          "name": "id",
          "type": "bytes32"
        }
      ],
      "name": "getTimestamp",
      "outputs": [
        {
          "internalType": "uint256",
          "name": "timestamp",
          "type": "uint256"
        }
      ],
      "stateMutability": "view",
      "type": "function"
    },
    {
      "inputs": [
        {
          "internalType": "bytes32",
          "name": "role",
          "type": "bytes32"
        },
        {
          "internalType": "address",
          "name": "account",
          "type": "address"
        }
      ],
      "name": "grantRole",
      "outputs": [],
      "stateMutability": "nonpayable",
      "type": "function"
    },
    {
      "inputs": [
        {
          "internalType": "bytes32",
          "name": "role",
          "type": "bytes32"
        },
        {
          "internalType": "address",
          "name": "account",
          "type": "address"
        }
      ],
      "name": "hasRole",
      "outputs": [
        {
          "internalType": "bool",
          "name": "",
          "type": "bool"
        }
      ],
      "stateMutability": "view",
      "type": "function"
    },
    {
      "inputs": [
        {
          "internalType": "address",
          "name": "target",
          "type": "address"
        },
        {
          "internalType": "uint256",
          "name": "value",
          "type": "uint256"
        },
        {
          "internalType": "bytes",
          "name": "data",
          "type": "bytes"
        },
        {
          "internalType": "bytes32",
          "name": "predecessor",
          "type": "bytes32"
        },
        {
          "internalType": "bytes32",
          "name": "salt",
          "type": "bytes32"
        }
      ],
      "name": "hashOperation",
      "outputs": [
        {
          "internalType": "bytes32",
          "name": "hash",
          "type": "bytes32"
        }
      ],
      "stateMutability": "pure",
      "type": "function"
    },
    {
      "inputs": [
        {
          "internalType": "address[]",
          "name": "targets",
          "type": "address[]"
        },
        {
          "internalType": "uint256[]",
          "name": "values",
          "type": "uint256[]"
        },
        {
          "internalType": "bytes[]",
          "name": "datas",
          "type": "bytes[]"
        },
        {
          "internalType": "bytes32",
          "name": "predecessor",
          "type": "bytes32"
        },
        {
          "internalType": "bytes32",
          "name": "salt",
          "type": "bytes32"
        }
      ],
      "name": "hashOperationBatch",
      "outputs": [
        {
          "internalType": "bytes32",
          "name": "hash",
          "type": "bytes32"
        }
      ],
      "stateMutability": "pure",
      "type": "function"
    },
    {
      "inputs": [],
      "name": "immortalizeGovernance",
      "outputs": [],
      "stateMutability": "nonpayable",
      "type": "function"
    },
    {
      "inputs": [],
      "name": "immortalized",
      "outputs": [
        {
          "internalType": "bool",
          "name": "",
          "type": "bool"
        }
      ],
      "stateMutability": "view",
      "type": "function"
    },
    {
      "inputs": [
        {
          "internalType": "bytes32",
          "name": "id",
          "type": "bytes32"
        }
      ],
      "name": "isOperation",
      "outputs": [
        {
          "internalType": "bool",
          "name": "pending",
          "type": "bool"
        }
      ],
      "stateMutability": "view",
      "type": "function"
    },
    {
      "inputs": [
        {
          "internalType": "bytes32",
          "name": "id",
          "type": "bytes32"
        }
      ],
      "name": "isOperationDone",
      "outputs": [
        {
          "internalType": "bool",
          "name": "done",
          "type": "bool"
        }
      ],
      "stateMutability": "view",
      "type": "function"
    },
    {
      "inputs": [
        {
          "internalType": "bytes32",
          "name": "id",
          "type": "bytes32"
        }
      ],
      "name": "isOperationPending",
      "outputs": [
        {
          "internalType": "bool",
          "name": "pending",
          "type": "bool"
        }
      ],
      "stateMutability": "view",
      "type": "function"
    },
    {
      "inputs": [
        {
          "internalType": "bytes32",
          "name": "id",
          "type": "bytes32"
        }
      ],
      "name": "isOperationReady",
      "outputs": [
        {
          "internalType": "bool",
          "name": "ready",
          "type": "bool"
        }
      ],
      "stateMutability": "view",
      "type": "function"
    },
    {
      "inputs": [
        {
          "internalType": "address",
          "name": "",
          "type": "address"
        },
        {
          "internalType": "address",
          "name": "",
          "type": "address"
        },
        {
          "internalType": "uint256[]",
          "name": "",
          "type": "uint256[]"
        },
        {
          "internalType": "uint256[]",
          "name": "",
          "type": "uint256[]"
        },
        {
          "internalType": "bytes",
          "name": "",
          "type": "bytes"
        }
      ],
      "name": "onERC1155BatchReceived",
      "outputs": [
        {
          "internalType": "bytes4",
          "name": "",
          "type": "bytes4"
        }
      ],
      "stateMutability": "pure",
      "type": "function"
    },
    {
      "inputs": [
        {
          "internalType": "address",
          "name": "",
          "type": "address"
        },
        {
          "internalType": "address",
          "name": "",
          "type": "address"
        },
        {
          "internalType": "uint256",
          "name": "",
          "type": "uint256"
        },
        {
          "internalType": "uint256",
          "name": "",
          "type": "uint256"
        },
        {
          "internalType": "bytes",
          "name": "",
          "type": "bytes"
        }
      ],
      "name": "onERC1155Received",
      "outputs": [
        {
          "internalType": "bytes4",
          "name": "",
          "type": "bytes4"
        }
      ],
      "stateMutability": "pure",
      "type": "function"
    },
    {
      "inputs": [
        {
          "internalType": "address",
          "name": "",
          "type": "address"
        },
        {
          "internalType": "address",
          "name": "",
          "type": "address"
        },
        {
          "internalType": "uint256",
          "name": "",
          "type": "uint256"
        },
        {
          "internalType": "bytes",
          "name": "",
          "type": "bytes"
        }
      ],
      "name": "onERC721Received",
      "outputs": [
        {
          "internalType": "bytes4",
          "name": "",
          "type": "bytes4"
        }
      ],
      "stateMutability": "pure",
      "type": "function"
    },
    {
      "inputs": [
        {
          "internalType": "bytes32",
          "name": "role",
          "type": "bytes32"
        },
        {
          "internalType": "address",
          "name": "account",
          "type": "address"
        }
      ],
      "name": "renounceRole",
      "outputs": [],
      "stateMutability": "nonpayable",
      "type": "function"
    },
    {
      "inputs": [
        {
          "internalType": "bytes32",
          "name": "role",
          "type": "bytes32"
        },
        {
          "internalType": "address",
          "name": "account",
          "type": "address"
        }
      ],
      "name": "revokeRole",
      "outputs": [],
      "stateMutability": "nonpayable",
      "type": "function"
    },
    {
      "inputs": [
        {
          "internalType": "address",
          "name": "target",
          "type": "address"
        },
        {
          "internalType": "uint256",
          "name": "value",
          "type": "uint256"
        },
        {
          "internalType": "bytes",
          "name": "data",
          "type": "bytes"
        },
        {
          "internalType": "bytes32",
          "name": "predecessor",
          "type": "bytes32"
        },
        {
          "internalType": "bytes32",
          "name": "salt",
          "type": "bytes32"
        },
        {
          "internalType": "uint256",
          "name": "delay",
          "type": "uint256"
        }
      ],
      "name": "schedule",
      "outputs": [],
      "stateMutability": "nonpayable",
      "type": "function"
    },
    {
      "inputs": [
        {
          "internalType": "address[]",
          "name": "targets",
          "type": "address[]"
        },
        {
          "internalType": "uint256[]",
          "name": "values",
          "type": "uint256[]"
        },
        {
          "internalType": "bytes[]",
          "name": "datas",
          "type": "bytes[]"
        },
        {
          "internalType": "bytes32",
          "name": "predecessor",
          "type": "bytes32"
        },
        {
          "internalType": "bytes32",
          "name": "salt",
          "type": "bytes32"
        },
        {
          "internalType": "uint256",
          "name": "delay",
          "type": "uint256"
        }
      ],
      "name": "scheduleBatch",
      "outputs": [],
      "stateMutability": "nonpayable",
      "type": "function"
    },
    {
      "inputs": [
        {
          "internalType": "bytes4",
          "name": "interfaceId",
          "type": "bytes4"
        }
      ],
      "name": "supportsInterface",
      "outputs": [
        {
          "internalType": "bool",
          "name": "",
          "type": "bool"
        }
      ],
      "stateMutability": "view",
      "type": "function"
    },
    {
      "inputs": [
        {
          "internalType": "uint256",
          "name": "newDelay",
          "type": "uint256"
        }
      ],
      "name": "updateDelay",
      "outputs": [],
      "stateMutability": "nonpayable",
      "type": "function"
    },
    {
      "stateMutability": "payable",
      "type": "receive"
    }
  ],
  "transactionHash": "0x09e150839f2302f12d8b83b59383889c6e34b0a2f182e112b1b8ea37c45d215e",
  "args": [
    "172800",
    "0xCcFe9B3769473eeBb45a592313583616038f6274"
  ],
  "solcInputHash": "0aa5e8caf410d135294d72c9064920c1",
  "bytecode": "0x60806040523480156200001157600080fd5b5060405162002b5138038062002b51833981016040819052620000349162000362565b6040805160008082526020820190815281830190925283916200006760008051602062002ad18339815191528062000267565b6200009160008051602062002af183398151915260008051602062002ad183398151915262000267565b620000bb60008051602062002b1183398151915260008051602062002ad183398151915262000267565b620000d660008051602062002ad183398151915233620002b2565b620000f160008051602062002ad183398151915230620002b2565b60005b82518110156200014e576200013b60008051602062002af1833981519152848381518110620001275762000127620003a1565b6020026020010151620002b260201b60201c565b6200014681620003b7565b9050620000f4565b5060005b815181101562000198576200018560008051602062002b11833981519152838381518110620001275762000127620003a1565b6200019081620003b7565b905062000152565b5060028390556040805160008152602081018590527f11c24f4ead16507c69ac467fbd5e4eed5fb5c699626d2cc6d66421df253886d5910160405180910390a1505050620001fd60008051602062002b118339815191526000620002b260201b60201c565b620002297fb74efb1331f2ac159f6a86c8c3fad56a75c3c91bdefeba4af6441cd313e03d468062000267565b6200024460008051602062002b318339815191528062000267565b6200025f60008051602062002b3183398151915282620002b2565b5050620003e1565b600082815260208190526040808220600101805490849055905190918391839186917fbd79b86ffe0ab8e8776151514217cd7cacd52c909f66475c3af44e129f0b00ff9190a4505050565b620002be8282620002c2565b5050565b6000828152602081815260408083206001600160a01b038516845290915290205460ff16620002be576000828152602081815260408083206001600160a01b03851684529091529020805460ff191660011790556200031e3390565b6001600160a01b0316816001600160a01b0316837f2f8788117e7eff1d82e926ec794901d17c78024a50270940304540a733656f0d60405160405180910390a45050565b600080604083850312156200037657600080fd5b825160208401519092506001600160a01b03811681146200039657600080fd5b809150509250929050565b634e487b7160e01b600052603260045260246000fd5b6000600019821415620003da57634e487b7160e01b600052601160045260246000fd5b5060010190565b6126e080620003f16000396000f3fe6080604052600436106101dc5760003560e01c8063584b153e11610102578063b1c5f42711610095578063d547741f11610064578063d547741f14610685578063e38335e5146106a5578063f23a6e61146106b8578063f27a0c92146106fe57600080fd5b8063b1c5f427146105d0578063bc197c81146105f0578063c4d252f514610638578063d45c44351461065857600080fd5b80638f2a0bb0116100d15780638f2a0bb0146105165780638f61f4f51461053657806391d148541461056a578063a217fddf146105bb57600080fd5b8063584b153e1461048257806364d62353146104a25780638065657f146104c2578063875d1239146104e257600080fd5b8063150b7a021161017a5780632d446ac6116101495780632d446ac6146104085780632f2ff15d1461042257806331d507501461044257806336568abe1461046257600080fd5b8063150b7a02146102fd578063248a9ca31461037357806324ea54f4146103a35780632ab0f529146103d757600080fd5b80630d3cf6fc116101b65780630d3cf6fc14610281578063134008d3146102b557806313bc9f20146102c857806314a709b9146102e857600080fd5b806301d5062a146101e857806301ffc9a71461020a57806307bd02651461023f57600080fd5b366101e357005b600080fd5b3480156101f457600080fd5b50610208610203366004611cca565b610713565b005b34801561021657600080fd5b5061022a610225366004611d3f565b6107a9565b60405190151581526020015b60405180910390f35b34801561024b57600080fd5b506102737fd8aa0f3194971a2a116679f7c2090f6939c8d4e01a2a8d7e41d55e5351469e6381565b604051908152602001610236565b34801561028d57600080fd5b506102737f5f58e3a2316349923ce3780f8d587db2d72378aed66a8261c916544fa6846ca581565b6102086102c3366004611d81565b610842565b3480156102d457600080fd5b5061022a6102e3366004611ded565b6108fd565b3480156102f457600080fd5b50610208610923565b34801561030957600080fd5b50610342610318366004611e06565b7f150b7a020000000000000000000000000000000000000000000000000000000095945050505050565b6040517fffffffff000000000000000000000000000000000000000000000000000000009091168152602001610236565b34801561037f57600080fd5b5061027361038e366004611ded565b60009081526020819052604090206001015490565b3480156103af57600080fd5b506102737f55435dd261a4b9b3364963f7738a7a662ad9c84396d64be3365284bb7f0a504181565b3480156103e357600080fd5b5061022a6103f2366004611ded565b6000908152600160208190526040909120541490565b34801561041457600080fd5b5060035461022a9060ff1681565b34801561042e57600080fd5b5061020861043d366004611e75565b610a5a565b34801561044e57600080fd5b5061022a61045d366004611ded565b610a85565b34801561046e57600080fd5b5061020861047d366004611e75565b610a9e565b34801561048e57600080fd5b5061022a61049d366004611ded565b610b1e565b3480156104ae57600080fd5b506102086104bd366004611ded565b610b34565b3480156104ce57600080fd5b506102736104dd366004611d81565b610c04565b3480156104ee57600080fd5b506102737fb74efb1331f2ac159f6a86c8c3fad56a75c3c91bdefeba4af6441cd313e03d4681565b34801561052257600080fd5b50610208610531366004611ee6565b610c43565b34801561054257600080fd5b506102737fb09aa5aeb3702cfd50b6b62bc4532604938f21248a27a1d5ca736082b6819cc181565b34801561057657600080fd5b5061022a610585366004611e75565b60009182526020828152604080842073ffffffffffffffffffffffffffffffffffffffff93909316845291905290205460ff1690565b3480156105c757600080fd5b50610273600081565b3480156105dc57600080fd5b506102736105eb366004611f98565b610e76565b3480156105fc57600080fd5b5061034261060b366004612041565b7fbc197c810000000000000000000000000000000000000000000000000000000098975050505050505050565b34801561064457600080fd5b50610208610653366004611ded565b610ebb565b34801561066457600080fd5b50610273610673366004611ded565b60009081526001602052604090205490565b34801561069157600080fd5b506102086106a0366004611e75565b610fb7565b6102086106b3366004611f98565b610fdd565b3480156106c457600080fd5b506103426106d33660046120fc565b7ff23a6e61000000000000000000000000000000000000000000000000000000009695505050505050565b34801561070a57600080fd5b50600254610273565b7fb09aa5aeb3702cfd50b6b62bc4532604938f21248a27a1d5ca736082b6819cc161073e8133611235565b600061074e898989898989610c04565b905061075a8184611305565b6000817f4cf4410cc57040e44862ef0f45f3dd5a5e02db8eb8add648d4b0e236f1d07dca8b8b8b8b8b8a604051610796969594939291906121bd565b60405180910390a3505050505050505050565b60007fffffffff0000000000000000000000000000000000000000000000000000000082167f7965db0b00000000000000000000000000000000000000000000000000000000148061083c57507f01ffc9a7000000000000000000000000000000000000000000000000000000007fffffffff000000000000000000000000000000000000000000000000000000008316145b92915050565b600080527fdae2aa361dfd1ca020a396615627d436107c35eff9fe7738a3512819782d70696020527f5ba6852781629bcdcd4bdaa6de76d786f1c64b16acdac474e55bebc0ea157951547fd8aa0f3194971a2a116679f7c2090f6939c8d4e01a2a8d7e41d55e5351469e639060ff166108bf576108bf8133611235565b60006108cf888888888888610c04565b90506108db818561144d565b6108ea8160008a8a8a8a61158a565b6108f3816116cf565b5050505050505050565b60008181526001602052604081205460018111801561091c5750428111155b9392505050565b7f55435dd261a4b9b3364963f7738a7a662ad9c84396d64be3365284bb7f0a504161094e8133611235565b6109987f5f58e3a2316349923ce3780f8d587db2d72378aed66a8261c916544fa6846ca57fb74efb1331f2ac159f6a86c8c3fad56a75c3c91bdefeba4af6441cd313e03d46611778565b6109e27fb09aa5aeb3702cfd50b6b62bc4532604938f21248a27a1d5ca736082b6819cc17fb74efb1331f2ac159f6a86c8c3fad56a75c3c91bdefeba4af6441cd313e03d46611778565b610a2c7fd8aa0f3194971a2a116679f7c2090f6939c8d4e01a2a8d7e41d55e5351469e637fb74efb1331f2ac159f6a86c8c3fad56a75c3c91bdefeba4af6441cd313e03d46611778565b50600380547fffffffffffffffffffffffffffffffffffffffffffffffffffffffffffffff00166001179055565b600082815260208190526040902060010154610a768133611235565b610a8083836117c3565b505050565b60008181526001602052604081205481905b1192915050565b60035460ff1615610b10576040517f08c379a000000000000000000000000000000000000000000000000000000000815260206004820152601a60248201527f476f7665726e616e636520697320696d6d6f7274616c697a656400000000000060448201526064015b60405180910390fd5b610b1a82826118b3565b5050565b6000818152600160208190526040822054610a97565b333014610bc3576040517f08c379a000000000000000000000000000000000000000000000000000000000815260206004820152602b60248201527f54696d656c6f636b436f6e74726f6c6c65723a2063616c6c6572206d7573742060448201527f62652074696d656c6f636b0000000000000000000000000000000000000000006064820152608401610b07565b60025460408051918252602082018390527f11c24f4ead16507c69ac467fbd5e4eed5fb5c699626d2cc6d66421df253886d5910160405180910390a1600255565b6000868686868686604051602001610c21969594939291906121bd565b6040516020818303038152906040528051906020012090509695505050505050565b7fb09aa5aeb3702cfd50b6b62bc4532604938f21248a27a1d5ca736082b6819cc1610c6e8133611235565b888714610cfd576040517f08c379a000000000000000000000000000000000000000000000000000000000815260206004820152602360248201527f54696d656c6f636b436f6e74726f6c6c65723a206c656e677468206d69736d6160448201527f74636800000000000000000000000000000000000000000000000000000000006064820152608401610b07565b888514610d8c576040517f08c379a000000000000000000000000000000000000000000000000000000000815260206004820152602360248201527f54696d656c6f636b436f6e74726f6c6c65723a206c656e677468206d69736d6160448201527f74636800000000000000000000000000000000000000000000000000000000006064820152608401610b07565b6000610d9e8b8b8b8b8b8b8b8b610e76565b9050610daa8184611305565b60005b8a811015610e685780827f4cf4410cc57040e44862ef0f45f3dd5a5e02db8eb8add648d4b0e236f1d07dca8e8e85818110610dea57610dea612208565b9050602002016020810190610dff9190612237565b8d8d86818110610e1157610e11612208565b905060200201358c8c87818110610e2a57610e2a612208565b9050602002810190610e3c9190612252565b8c8b604051610e50969594939291906121bd565b60405180910390a3610e61816122e6565b9050610dad565b505050505050505050505050565b60008888888888888888604051602001610e979897969594939291906123ce565b60405160208183030381529060405280519060200120905098975050505050505050565b7fb09aa5aeb3702cfd50b6b62bc4532604938f21248a27a1d5ca736082b6819cc1610ee68133611235565b610eef82610b1e565b610f7b576040517f08c379a000000000000000000000000000000000000000000000000000000000815260206004820152603160248201527f54696d656c6f636b436f6e74726f6c6c65723a206f7065726174696f6e20636160448201527f6e6e6f742062652063616e63656c6c65640000000000000000000000000000006064820152608401610b07565b6000828152600160205260408082208290555183917fbaa1eb22f2a492ba1a5fea61b8df4d27c6c8b5f3971e63bb58fa14ff72eedb7091a25050565b600082815260208190526040902060010154610fd38133611235565b610a80838361195e565b600080527fdae2aa361dfd1ca020a396615627d436107c35eff9fe7738a3512819782d70696020527f5ba6852781629bcdcd4bdaa6de76d786f1c64b16acdac474e55bebc0ea157951547fd8aa0f3194971a2a116679f7c2090f6939c8d4e01a2a8d7e41d55e5351469e639060ff1661105a5761105a8133611235565b8786146110e9576040517f08c379a000000000000000000000000000000000000000000000000000000000815260206004820152602360248201527f54696d656c6f636b436f6e74726f6c6c65723a206c656e677468206d69736d6160448201527f74636800000000000000000000000000000000000000000000000000000000006064820152608401610b07565b878414611178576040517f08c379a000000000000000000000000000000000000000000000000000000000815260206004820152602360248201527f54696d656c6f636b436f6e74726f6c6c65723a206c656e677468206d69736d6160448201527f74636800000000000000000000000000000000000000000000000000000000006064820152608401610b07565b600061118a8a8a8a8a8a8a8a8a610e76565b9050611196818561144d565b60005b8981101561121f5761120f82828d8d858181106111b8576111b8612208565b90506020020160208101906111cd9190612237565b8c8c868181106111df576111df612208565b905060200201358b8b878181106111f8576111f8612208565b905060200281019061120a9190612252565b61158a565b611218816122e6565b9050611199565b50611229816116cf565b50505050505050505050565b60008281526020818152604080832073ffffffffffffffffffffffffffffffffffffffff8516845290915290205460ff16610b1a5761128b8173ffffffffffffffffffffffffffffffffffffffff166014611a15565b611296836020611a15565b6040516020016112a79291906124cf565b604080517fffffffffffffffffffffffffffffffffffffffffffffffffffffffffffffffe0818403018152908290527f08c379a0000000000000000000000000000000000000000000000000000000008252610b0791600401612550565b61130e82610a85565b1561139b576040517f08c379a000000000000000000000000000000000000000000000000000000000815260206004820152602f60248201527f54696d656c6f636b436f6e74726f6c6c65723a206f7065726174696f6e20616c60448201527f7265616479207363686564756c656400000000000000000000000000000000006064820152608401610b07565b60025481101561142d576040517f08c379a000000000000000000000000000000000000000000000000000000000815260206004820152602660248201527f54696d656c6f636b436f6e74726f6c6c65723a20696e73756666696369656e7460448201527f2064656c617900000000000000000000000000000000000000000000000000006064820152608401610b07565b61143781426125a1565b6000928352600160205260409092209190915550565b611456826108fd565b6114e2576040517f08c379a000000000000000000000000000000000000000000000000000000000815260206004820152602a60248201527f54696d656c6f636b436f6e74726f6c6c65723a206f7065726174696f6e20697360448201527f206e6f74207265616479000000000000000000000000000000000000000000006064820152608401610b07565b8015806114fe5750600081815260016020819052604090912054145b610b1a576040517f08c379a000000000000000000000000000000000000000000000000000000000815260206004820152602660248201527f54696d656c6f636b436f6e74726f6c6c65723a206d697373696e67206465706560448201527f6e64656e637900000000000000000000000000000000000000000000000000006064820152608401610b07565b60008473ffffffffffffffffffffffffffffffffffffffff168484846040516115b49291906125b9565b60006040518083038185875af1925050503d80600081146115f1576040519150601f19603f3d011682016040523d82523d6000602084013e6115f6565b606091505b5050905080611687576040517f08c379a000000000000000000000000000000000000000000000000000000000815260206004820152603360248201527f54696d656c6f636b436f6e74726f6c6c65723a20756e6465726c79696e67207460448201527f72616e73616374696f6e207265766572746564000000000000000000000000006064820152608401610b07565b85877fc2617efa69bab66782fa219543714338489c4e9e178271560a91b82c3f612b58878787876040516116be94939291906125c9565b60405180910390a350505050505050565b6116d8816108fd565b611764576040517f08c379a000000000000000000000000000000000000000000000000000000000815260206004820152602a60248201527f54696d656c6f636b436f6e74726f6c6c65723a206f7065726174696f6e20697360448201527f206e6f74207265616479000000000000000000000000000000000000000000006064820152608401610b07565b600090815260016020819052604090912055565b600082815260208190526040808220600101805490849055905190918391839186917fbd79b86ffe0ab8e8776151514217cd7cacd52c909f66475c3af44e129f0b00ff9190a4505050565b60008281526020818152604080832073ffffffffffffffffffffffffffffffffffffffff8516845290915290205460ff16610b1a5760008281526020818152604080832073ffffffffffffffffffffffffffffffffffffffff85168452909152902080547fffffffffffffffffffffffffffffffffffffffffffffffffffffffffffffff001660011790556118553390565b73ffffffffffffffffffffffffffffffffffffffff168173ffffffffffffffffffffffffffffffffffffffff16837f2f8788117e7eff1d82e926ec794901d17c78024a50270940304540a733656f0d60405160405180910390a45050565b73ffffffffffffffffffffffffffffffffffffffff81163314611958576040517f08c379a000000000000000000000000000000000000000000000000000000000815260206004820152602f60248201527f416363657373436f6e74726f6c3a2063616e206f6e6c792072656e6f756e636560448201527f20726f6c657320666f722073656c6600000000000000000000000000000000006064820152608401610b07565b610b1a82825b60008281526020818152604080832073ffffffffffffffffffffffffffffffffffffffff8516845290915290205460ff1615610b1a5760008281526020818152604080832073ffffffffffffffffffffffffffffffffffffffff8516808552925280832080547fffffffffffffffffffffffffffffffffffffffffffffffffffffffffffffff0016905551339285917ff6391f5c32d9c69d2a47ea670b442974b53935d1edc7fd64eb21e047a839171b9190a45050565b60606000611a24836002612609565b611a2f9060026125a1565b67ffffffffffffffff811115611a4757611a47612646565b6040519080825280601f01601f191660200182016040528015611a71576020820181803683370190505b5090507f300000000000000000000000000000000000000000000000000000000000000081600081518110611aa857611aa8612208565b60200101907effffffffffffffffffffffffffffffffffffffffffffffffffffffffffffff1916908160001a9053507f780000000000000000000000000000000000000000000000000000000000000081600181518110611b0b57611b0b612208565b60200101907effffffffffffffffffffffffffffffffffffffffffffffffffffffffffffff1916908160001a9053506000611b47846002612609565b611b529060016125a1565b90505b6001811115611bef577f303132333435363738396162636465660000000000000000000000000000000085600f1660108110611b9357611b93612208565b1a60f81b828281518110611ba957611ba9612208565b60200101907effffffffffffffffffffffffffffffffffffffffffffffffffffffffffffff1916908160001a90535060049490941c93611be881612675565b9050611b55565b50831561091c576040517f08c379a000000000000000000000000000000000000000000000000000000000815260206004820181905260248201527f537472696e67733a20686578206c656e67746820696e73756666696369656e746044820152606401610b07565b803573ffffffffffffffffffffffffffffffffffffffff81168114611c7c57600080fd5b919050565b60008083601f840112611c9357600080fd5b50813567ffffffffffffffff811115611cab57600080fd5b602083019150836020828501011115611cc357600080fd5b9250929050565b600080600080600080600060c0888a031215611ce557600080fd5b611cee88611c58565b965060208801359550604088013567ffffffffffffffff811115611d1157600080fd5b611d1d8a828b01611c81565b989b979a50986060810135976080820135975060a09091013595509350505050565b600060208284031215611d5157600080fd5b81357fffffffff000000000000000000000000000000000000000000000000000000008116811461091c57600080fd5b60008060008060008060a08789031215611d9a57600080fd5b611da387611c58565b955060208701359450604087013567ffffffffffffffff811115611dc657600080fd5b611dd289828a01611c81565b979a9699509760608101359660809091013595509350505050565b600060208284031215611dff57600080fd5b5035919050565b600080600080600060808688031215611e1e57600080fd5b611e2786611c58565b9450611e3560208701611c58565b935060408601359250606086013567ffffffffffffffff811115611e5857600080fd5b611e6488828901611c81565b969995985093965092949392505050565b60008060408385031215611e8857600080fd5b82359150611e9860208401611c58565b90509250929050565b60008083601f840112611eb357600080fd5b50813567ffffffffffffffff811115611ecb57600080fd5b6020830191508360208260051b8501011115611cc357600080fd5b600080600080600080600080600060c08a8c031215611f0457600080fd5b893567ffffffffffffffff80821115611f1c57600080fd5b611f288d838e01611ea1565b909b50995060208c0135915080821115611f4157600080fd5b611f4d8d838e01611ea1565b909950975060408c0135915080821115611f6657600080fd5b50611f738c828d01611ea1565b9a9d999c50979a969997986060880135976080810135975060a0013595509350505050565b60008060008060008060008060a0898b031215611fb457600080fd5b883567ffffffffffffffff80821115611fcc57600080fd5b611fd88c838d01611ea1565b909a50985060208b0135915080821115611ff157600080fd5b611ffd8c838d01611ea1565b909850965060408b013591508082111561201657600080fd5b506120238b828c01611ea1565b999c989b509699959896976060870135966080013595509350505050565b60008060008060008060008060a0898b03121561205d57600080fd5b61206689611c58565b975061207460208a01611c58565b9650604089013567ffffffffffffffff8082111561209157600080fd5b61209d8c838d01611ea1565b909850965060608b01359150808211156120b657600080fd5b6120c28c838d01611ea1565b909650945060808b01359150808211156120db57600080fd5b506120e88b828c01611c81565b999c989b5096995094979396929594505050565b60008060008060008060a0878903121561211557600080fd5b61211e87611c58565b955061212c60208801611c58565b94506040870135935060608701359250608087013567ffffffffffffffff81111561215657600080fd5b61216289828a01611c81565b979a9699509497509295939492505050565b8183528181602085013750600060208284010152600060207fffffffffffffffffffffffffffffffffffffffffffffffffffffffffffffffe0601f840116840101905092915050565b73ffffffffffffffffffffffffffffffffffffffff8716815285602082015260a0604082015260006121f360a083018688612174565b60608301949094525060800152949350505050565b7f4e487b7100000000000000000000000000000000000000000000000000000000600052603260045260246000fd5b60006020828403121561224957600080fd5b61091c82611c58565b60008083357fffffffffffffffffffffffffffffffffffffffffffffffffffffffffffffffe184360301811261228757600080fd5b83018035915067ffffffffffffffff8211156122a257600080fd5b602001915036819003821315611cc357600080fd5b7f4e487b7100000000000000000000000000000000000000000000000000000000600052601160045260246000fd5b60007fffffffffffffffffffffffffffffffffffffffffffffffffffffffffffffffff821415612318576123186122b7565b5060010190565b81835260006020808501808196508560051b810191508460005b878110156123c157828403895281357fffffffffffffffffffffffffffffffffffffffffffffffffffffffffffffffe188360301811261237857600080fd5b8701803567ffffffffffffffff81111561239157600080fd5b8036038913156123a057600080fd5b6123ad8682898501612174565b9a87019a9550505090840190600101612339565b5091979650505050505050565b60a0808252810188905260008960c08301825b8b81101561241c5773ffffffffffffffffffffffffffffffffffffffff61240784611c58565b168252602092830192909101906001016123e1565b5083810360208501528881527f07ffffffffffffffffffffffffffffffffffffffffffffffffffffffffffffff89111561245557600080fd5b8860051b9150818a60208301378181019150506020810160008152602084830301604085015261248681888a61231f565b6060850196909652505050608001529695505050505050565b60005b838110156124ba5781810151838201526020016124a2565b838111156124c9576000848401525b50505050565b7f416363657373436f6e74726f6c3a206163636f756e742000000000000000000081526000835161250781601785016020880161249f565b7f206973206d697373696e6720726f6c6520000000000000000000000000000000601791840191820152835161254481602884016020880161249f565b01602801949350505050565b602081526000825180602084015261256f81604085016020870161249f565b601f017fffffffffffffffffffffffffffffffffffffffffffffffffffffffffffffffe0169190910160400192915050565b600082198211156125b4576125b46122b7565b500190565b8183823760009101908152919050565b73ffffffffffffffffffffffffffffffffffffffff851681528360208201526060604082015260006125ff606083018486612174565b9695505050505050565b6000817fffffffffffffffffffffffffffffffffffffffffffffffffffffffffffffffff0483118215151615612641576126416122b7565b500290565b7f4e487b7100000000000000000000000000000000000000000000000000000000600052604160045260246000fd5b600081612684576126846122b7565b507fffffffffffffffffffffffffffffffffffffffffffffffffffffffffffffffff019056fea2646970667358221220e1ee38bc784ed044b3178fc412e9abf22e5fdbd3566d3d7fb8dce21f9fa3d51e64736f6c634300080900335f58e3a2316349923ce3780f8d587db2d72378aed66a8261c916544fa6846ca5b09aa5aeb3702cfd50b6b62bc4532604938f21248a27a1d5ca736082b6819cc1d8aa0f3194971a2a116679f7c2090f6939c8d4e01a2a8d7e41d55e5351469e6355435dd261a4b9b3364963f7738a7a662ad9c84396d64be3365284bb7f0a5041",
  "devdoc": {
    "kind": "dev",
    "methods": {
      "cancel(bytes32)": {
        "details": "Cancel an operation. Requirements: - the caller must have the 'proposer' role."
      },
      "execute(address,uint256,bytes,bytes32,bytes32)": {
        "details": "Execute an (ready) operation containing a single transaction. Emits a {CallExecuted} event. Requirements: - the caller must have the 'executor' role."
      },
      "executeBatch(address[],uint256[],bytes[],bytes32,bytes32)": {
        "details": "Execute an (ready) operation containing a batch of transactions. Emits one {CallExecuted} event per transaction in the batch. Requirements: - the caller must have the 'executor' role."
      },
      "getMinDelay()": {
        "details": "Returns the minimum delay for an operation to become valid. This value can be changed by executing an operation that calls `updateDelay`."
      },
      "getRoleAdmin(bytes32)": {
        "details": "Returns the admin role that controls `role`. See {grantRole} and {revokeRole}. To change a role's admin, use {_setRoleAdmin}."
      },
      "getTimestamp(bytes32)": {
        "details": "Returns the timestamp at with an operation becomes ready (0 for unset operations, 1 for done operations)."
      },
      "grantRole(bytes32,address)": {
        "details": "Grants `role` to `account`. If `account` had not been already granted `role`, emits a {RoleGranted} event. Requirements: - the caller must have ``role``'s admin role."
      },
      "hasRole(bytes32,address)": {
        "details": "Returns `true` if `account` has been granted `role`."
      },
      "hashOperation(address,uint256,bytes,bytes32,bytes32)": {
        "details": "Returns the identifier of an operation containing a single transaction."
      },
      "hashOperationBatch(address[],uint256[],bytes[],bytes32,bytes32)": {
        "details": "Returns the identifier of an operation containing a batch of transactions."
      },
      "isOperation(bytes32)": {
        "details": "Returns whether an id correspond to a registered operation. This includes both Pending, Ready and Done operations."
      },
      "isOperationDone(bytes32)": {
        "details": "Returns whether an operation is done or not."
      },
      "isOperationPending(bytes32)": {
        "details": "Returns whether an operation is pending or not."
      },
      "isOperationReady(bytes32)": {
        "details": "Returns whether an operation is ready or not."
      },
      "renounceRole(bytes32,address)": {
        "details": "Revokes `role` from the calling account. Roles are often managed via {grantRole} and {revokeRole}: this function's purpose is to provide a mechanism for accounts to lose their privileges if they are compromised (such as when a trusted device is misplaced). If the calling account had been granted `role`, emits a {RoleRevoked} event. Requirements: - the caller must be `account`."
      },
      "revokeRole(bytes32,address)": {
        "details": "Revokes `role` from `account`. If `account` had been granted `role`, emits a {RoleRevoked} event. Requirements: - the caller must have ``role``'s admin role."
      },
      "schedule(address,uint256,bytes,bytes32,bytes32,uint256)": {
        "details": "Schedule an operation containing a single transaction. Emits a {CallScheduled} event. Requirements: - the caller must have the 'proposer' role."
      },
      "scheduleBatch(address[],uint256[],bytes[],bytes32,bytes32,uint256)": {
        "details": "Schedule an operation containing a batch of transactions. Emits one {CallScheduled} event per transaction in the batch. Requirements: - the caller must have the 'proposer' role."
      },
      "supportsInterface(bytes4)": {
        "details": "See {IERC165-supportsInterface}."
      },
      "updateDelay(uint256)": {
        "details": "Changes the minimum timelock duration for future operations. Emits a {MinDelayChange} event. Requirements: - the caller must be the timelock itself. This can only be achieved by scheduling and later executing an operation where the timelock is the target and the data is the ABI-encoded call to this function."
      }
    },
    "version": 1
  },
  "userdoc": {
    "kind": "user",
    "methods": {
      "GUARDIAN_ROLE()": {
        "notice": "role that is able to immortalise the set of proposers and executors, cannot do anything else"
      },
      "VOID_ROLE()": {
        "notice": "role that belongs to no-one, used to prevent changes without the need to keep track of admins for other roles, just set all admin roles to VOID_ROLE"
      }
    },
    "version": 1
  },
  "storageLayout": {
    "storage": [
      {
        "astId": 24,
        "contract": "src/bleepsdao/BleepsDAOAccount.sol:BleepsDAOAccount",
        "label": "_roles",
        "offset": 0,
        "slot": "0",
        "type": "t_mapping(t_bytes32,t_struct(RoleData)19_storage)"
      },
      {
        "astId": 1428,
        "contract": "src/bleepsdao/BleepsDAOAccount.sol:BleepsDAOAccount",
        "label": "_timestamps",
        "offset": 0,
        "slot": "1",
        "type": "t_mapping(t_bytes32,t_uint256)"
      },
      {
        "astId": 1430,
        "contract": "src/bleepsdao/BleepsDAOAccount.sol:BleepsDAOAccount",
        "label": "_minDelay",
        "offset": 0,
        "slot": "2",
        "type": "t_uint256"
      },
      {
        "astId": 12816,
        "contract": "src/bleepsdao/BleepsDAOAccount.sol:BleepsDAOAccount",
        "label": "immortalized",
        "offset": 0,
        "slot": "3",
        "type": "t_bool"
      }
    ],
    "types": {
      "t_address": {
        "encoding": "inplace",
        "label": "address",
        "numberOfBytes": "20"
      },
      "t_bool": {
        "encoding": "inplace",
        "label": "bool",
        "numberOfBytes": "1"
      },
      "t_bytes32": {
        "encoding": "inplace",
        "label": "bytes32",
        "numberOfBytes": "32"
      },
      "t_mapping(t_address,t_bool)": {
        "encoding": "mapping",
        "key": "t_address",
        "label": "mapping(address => bool)",
        "numberOfBytes": "32",
        "value": "t_bool"
      },
      "t_mapping(t_bytes32,t_struct(RoleData)19_storage)": {
        "encoding": "mapping",
        "key": "t_bytes32",
        "label": "mapping(bytes32 => struct AccessControl.RoleData)",
        "numberOfBytes": "32",
        "value": "t_struct(RoleData)19_storage"
      },
      "t_mapping(t_bytes32,t_uint256)": {
        "encoding": "mapping",
        "key": "t_bytes32",
        "label": "mapping(bytes32 => uint256)",
        "numberOfBytes": "32",
        "value": "t_uint256"
      },
      "t_struct(RoleData)19_storage": {
        "encoding": "inplace",
        "label": "struct AccessControl.RoleData",
        "members": [
          {
            "astId": 16,
            "contract": "src/bleepsdao/BleepsDAOAccount.sol:BleepsDAOAccount",
            "label": "members",
            "offset": 0,
            "slot": "0",
            "type": "t_mapping(t_address,t_bool)"
          },
          {
            "astId": 18,
            "contract": "src/bleepsdao/BleepsDAOAccount.sol:BleepsDAOAccount",
            "label": "adminRole",
            "offset": 0,
            "slot": "1",
            "type": "t_bytes32"
          }
        ],
        "numberOfBytes": "64"
      },
      "t_uint256": {
        "encoding": "inplace",
        "label": "uint256",
        "numberOfBytes": "32"
      }
    }
  }
}