{
  "address": "0xEa71C9b1C7fb0F2712C9064Cc3caae0B5826fc97",
  "abi": [
    {
      "inputs": [
        {
          "internalType": "contract Bleeps",
          "name": "bleeps",
          "type": "address"
        },
        {
          "internalType": "uint256",
          "name": "price",
          "type": "uint256"
        },
        {
          "internalType": "uint256",
          "name": "startTime",
          "type": "uint256"
        },
        {
          "internalType": "uint256",
          "name": "whitelistPrice",
          "type": "uint256"
        },
        {
          "internalType": "uint256",
          "name": "whitelistEndTime",
          "type": "uint256"
        },
        {
          "internalType": "bytes32",
          "name": "whitelistMerkleRoot",
          "type": "bytes32"
        },
        {
          "internalType": "address payable",
          "name": "projectCreator",
          "type": "address"
        },
        {
          "internalType": "uint256",
          "name": "creatorFeePer10000",
          "type": "uint256"
        },
        {
          "internalType": "address payable",
          "name": "saleRecipient",
          "type": "address"
        },
        {
          "internalType": "uint256",
          "name": "uptoInstr",
          "type": "uint256"
        }
      ],
      "stateMutability": "nonpayable",
      "type": "constructor"
    },
    {
      "inputs": [
        {
          "internalType": "uint16",
          "name": "id",
          "type": "uint16"
        },
        {
          "internalType": "address",
          "name": "to",
          "type": "address"
        }
      ],
      "name": "creatorMint",
      "outputs": [],
      "stateMutability": "nonpayable",
      "type": "function"
    },
    {
      "inputs": [
        {
          "internalType": "uint16[]",
          "name": "ids",
          "type": "uint16[]"
        },
        {
          "internalType": "address",
          "name": "to",
          "type": "address"
        }
      ],
      "name": "creatorMultiMint",
      "outputs": [],
      "stateMutability": "nonpayable",
      "type": "function"
    },
    {
      "inputs": [
        {
          "internalType": "uint256",
          "name": "id",
          "type": "uint256"
        }
      ],
      "name": "isOpenForSale",
      "outputs": [
        {
          "internalType": "bool",
          "name": "",
          "type": "bool"
        }
      ],
      "stateMutability": "view",
      "type": "function"
    },
    {
      "inputs": [
        {
          "internalType": "uint256",
          "name": "passId",
          "type": "uint256"
        }
      ],
      "name": "isPassUsed",
      "outputs": [
        {
          "internalType": "bool",
          "name": "",
          "type": "bool"
        }
      ],
      "stateMutability": "view",
      "type": "function"
    },
    {
      "inputs": [
        {
          "internalType": "uint256",
          "name": "id",
          "type": "uint256"
        }
      ],
      "name": "isReserved",
      "outputs": [
        {
          "internalType": "bool",
          "name": "",
          "type": "bool"
        }
      ],
      "stateMutability": "pure",
      "type": "function"
    },
    {
      "inputs": [
        {
          "internalType": "uint16",
          "name": "id",
          "type": "uint16"
        },
        {
          "internalType": "address",
          "name": "to",
          "type": "address"
        }
      ],
      "name": "mint",
      "outputs": [],
      "stateMutability": "payable",
      "type": "function"
    },
    {
      "inputs": [
        {
          "internalType": "uint16",
          "name": "id",
          "type": "uint16"
        },
        {
          "internalType": "address",
          "name": "to",
          "type": "address"
        },
        {
          "internalType": "uint256",
          "name": "passId",
          "type": "uint256"
        },
        {
          "internalType": "bytes32[]",
          "name": "proof",
          "type": "bytes32[]"
        }
      ],
      "name": "mintWithPassId",
      "outputs": [],
      "stateMutability": "payable",
      "type": "function"
    },
    {
      "inputs": [
        {
          "internalType": "uint16",
          "name": "id",
          "type": "uint16"
        },
        {
          "internalType": "address",
          "name": "to",
          "type": "address"
        },
        {
          "internalType": "uint256",
          "name": "passId",
          "type": "uint256"
        },
        {
          "internalType": "bytes",
          "name": "signature",
          "type": "bytes"
        },
        {
          "internalType": "bytes32[]",
          "name": "proof",
          "type": "bytes32[]"
        }
      ],
      "name": "mintWithSalePass",
      "outputs": [],
      "stateMutability": "payable",
      "type": "function"
    },
    {
      "inputs": [
        {
          "internalType": "uint256",
          "name": "passId",
          "type": "uint256"
        },
        {
          "internalType": "uint256[]",
          "name": "ids",
          "type": "uint256[]"
        }
      ],
      "name": "ownersAndPriceInfo",
      "outputs": [
        {
          "internalType": "address[]",
          "name": "addresses",
          "type": "address[]"
        },
        {
          "internalType": "uint256",
          "name": "price",
          "type": "uint256"
        },
        {
          "internalType": "uint256",
          "name": "startTime",
          "type": "uint256"
        },
        {
          "internalType": "uint256",
          "name": "whitelistPrice",
          "type": "uint256"
        },
        {
          "internalType": "uint256",
          "name": "whitelistEndTime",
          "type": "uint256"
        },
        {
          "internalType": "bytes32",
          "name": "whitelistMerkleRoot",
          "type": "bytes32"
        },
        {
          "internalType": "bool",
          "name": "passUsed",
          "type": "bool"
        },
        {
          "internalType": "uint256",
          "name": "uptoInstr",
          "type": "uint256"
        }
      ],
      "stateMutability": "view",
      "type": "function"
    },
    {
      "inputs": [],
      "name": "priceInfo",
      "outputs": [
        {
          "internalType": "uint256",
          "name": "price",
          "type": "uint256"
        },
        {
          "internalType": "uint256",
          "name": "startTime",
          "type": "uint256"
        },
        {
          "internalType": "uint256",
          "name": "whitelistPrice",
          "type": "uint256"
        },
        {
          "internalType": "uint256",
          "name": "whitelistEndTime",
          "type": "uint256"
        },
        {
          "internalType": "bytes32",
          "name": "whitelistMerkleRoot",
          "type": "bytes32"
        }
      ],
      "stateMutability": "view",
      "type": "function"
    }
  ],
  "transactionHash": "0x353ae98a88de1e02a02bbbe8d0fc2334d2e725b946238e2b8a5b45f316ded3d4",
  "args": [
    "0x5529D4B3ad21751604650a6b61d796225EEDc95E",
    "100000000000000000",
    1638120705,
    "100000000000000000",
    1638379905,
    "0x99691340ffd1d935bb6c08bf4b937b6c08b5dd5ee42f13bc087cfce3a23021b6",
    "0xE53cd71271AcAdbeb0f64d9c8C62bBdDc8cA9e66",
    2500,
    "0x357F35bc0976DBd048cdfaD64eF8a585BD6Fce2a",
    8
  ],
  "linkedData": {
    "numPrivatePasses": 815,
    "leaves": [
      {
        "passId": "0",
        "signer": "0x4Df17D74812232fd1838609384DbBA63f3E6C02d"
      },
      {
        "passId": "1",
        "signer": "0x535dd581Dce18ae3c784225c2D9f9944f0974eC4"
      },
      {
        "passId": "2",
        "signer": "0x34B06180C58edD777799880eD5c65C075F6c83b1"
      },
      {
        "passId": "3",
        "signer": "0x36de783F1eB55ed4c5de83E13F7FA838D6bd6f83"
      },
      {
        "passId": "4",
        "signer": "0xA14A8cD12BB5533DbCA0e2804fCDE7022525F2E0"
      },
      {
        "passId": "5",
        "signer": "0xF8F8Fba8f93392A25F64aaAbC29F2a6e0B633A59"
      },
      {
        "passId": "6",
        "signer": "0x5A9be78aFDe897BE127BfFECD2BD4b208870e691"
      },
      {
        "passId": "7",
        "signer": "0xA09Db242012C0a58D81255A7beEC9A8Be576241E"
      },
      {
        "passId": "8",
        "signer": "0x9Cd1E5e9093B43e80624C84b2A5A6a0e97F670Dc"
      },
      {
        "passId": "9",
        "signer": "0xcb3b5FF3aef165b36BD86e78Db442FdA47b1C978"
      },
      {
        "passId": "10",
        "signer": "0x69c83041CbDf98dE867c4Ab1893f400226b95559"
      },
      {
        "passId": "11",
        "signer": "0x0721C61d9028e6d6997cF0E445D10F42880b34c0"
      },
      {
        "passId": "12",
        "signer": "0xc03AF243f867C83C4731d0cB684e7a1977DDc8F0"
      },
      {
        "passId": "13",
        "signer": "0x63Cd70F65B2BFfD18680B74a8AB816E198F16809"
      },
      {
        "passId": "14",
        "signer": "0x63e006b2ce7CbDb14E64fce7eEC733DFd776b409"
      },
      {
        "passId": "15",
        "signer": "0xb69e97cfc318fB166eDeFD3dcF318E6ADe314781"
      },
      {
        "passId": "16",
        "signer": "0xa079FE348fE4E9320FBaa0E02d7B745203e55F69"
      },
      {
        "passId": "17",
        "signer": "0xCf1D1Cb6A9ad99f0A0043e87ff5F4fB53F808A9e"
      },
      {
        "passId": "18",
        "signer": "0x7Eb5BA652d9218a984d9e9C0aE5AEFe1cf9c84F0"
      },
      {
        "passId": "19",
        "signer": "0xa61A0bbBB49b7EfA2409E6542657acc4B216909D"
      },
      {
        "passId": "20",
        "signer": "0x76fE6aCF83c3769d7CD90F4ad845E2B8E06cd778"
      },
      {
        "passId": "21",
        "signer": "0xafE123D67C5Ab64e6ae12EeBD50aB0Ea199cD39c"
      },
      {
        "passId": "22",
        "signer": "0x52Eb464F1Be44560758E3126D70Fb43ff5485D05"
      },
      {
        "passId": "23",
        "signer": "0x73e4BD880b867a7A61779CA644E3BF369d120974"
      },
      {
        "passId": "24",
        "signer": "0xc3824406b2e672cA3d79f47Ca3f4B773c2A392DF"
      },
      {
        "passId": "25",
        "signer": "0x58b1f94E125BF147c12FF4807ac593d3c7dB4e1c"
      },
      {
        "passId": "26",
        "signer": "0x35839BA6614b0B33283c8F8f21c9D8cc8FE5F29B"
      },
      {
        "passId": "27",
        "signer": "0xfB006CBF174923CD88D7C492E9BfDd4C4b4a93ff"
      },
      {
        "passId": "28",
        "signer": "0x6628CC25C707f3BDA0548234D47B8735C25b3cB4"
      },
      {
        "passId": "29",
        "signer": "0xBBcB9D744168A4eAe5946b12A420BC6139bC7a9D"
      },
      {
        "passId": "30",
        "signer": "0x15ddA90869199283F970B360860A8A9a98A7CdD9"
      },
      {
        "passId": "31",
        "signer": "0x1AB3a841189C00CB6CDe01442588c408CCd1bDdF"
      },
      {
        "passId": "32",
        "signer": "0x7Ef945AeE52253739B7F3B9b458B940BDfECdF0D"
      },
      {
        "passId": "33",
        "signer": "0x2Da05acC2Cb66b74115B444Df447847a50B7498f"
      },
      {
        "passId": "34",
        "signer": "0x8998B6b94d7aBFC6105e7273B48eEE647Be628Dd"
      },
      {
        "passId": "35",
        "signer": "0x3Bb06E3a282fC0D660E25a8d0d1598d45E883286"
      },
      {
        "passId": "36",
        "signer": "0x38C5e550e5c05B2D078ed7f0FcFB5dFbe425265D"
      },
      {
        "passId": "37",
        "signer": "0xB988309500172895a390eDe5A4A556d2549D6Da9"
      },
      {
        "passId": "38",
        "signer": "0xCee93C53688404f2bDbBB046bb103aaf3F3c1e3f"
      },
      {
        "passId": "39",
        "signer": "0xCf6BeDf3d943daa2084C73aD4D1C93F1c42e30d8"
      },
      {
        "passId": "40",
        "signer": "0x3A24c259bd0203a86EC200520E89471886a18830"
      },
      {
        "passId": "41",
        "signer": "0x5aAf575aF5777B1b4df64C49b3E731eD74c4778b"
      },
      {
        "passId": "42",
        "signer": "0xDEB9A4d16EfF62AbFf937d55ad4f8B3045B88d79"
      },
      {
        "passId": "43",
        "signer": "0xD4704cA7d1Fb671D0bbc1dE43241B19EB0E5414D"
      },
      {
        "passId": "44",
        "signer": "0x6a6dE676eF65999ceB1f1612A9D334CB165fF35B"
      },
      {
        "passId": "45",
        "signer": "0x7018C1ccf5e97B9De6FffdF98433eda11F13932e"
      },
      {
        "passId": "46",
        "signer": "0x54C4adD1b942af745e18c6D3D58049299De22fa4"
      },
      {
        "passId": "47",
        "signer": "0x445C018309AA79774e93331768eA55b5474Aa7c3"
      },
      {
        "passId": "48",
        "signer": "0xC97C33d4df7d36B3EE01e697ffBcFe1Fb8ccE9D3"
      },
      {
        "passId": "49",
        "signer": "0x1a683e64bFd6B8c4c350918F207db79Dd148f034"
      },
      {
        "passId": "50",
        "signer": "0x56df474d5D3840F7DB394790Ccdea0DA5274Dd40"
      },
      {
        "passId": "51",
        "signer": "0x22d7cb16F71b313670C1436719b6e9694112e567"
      },
      {
        "passId": "52",
        "signer": "0x124F06aed255127FDEB6d4E2cAE19Bf51e1d3170"
      },
      {
        "passId": "53",
        "signer": "0x7F327C38BC1b3fe8f45B5cAA4470d1E6d3292fA3"
      },
      {
        "passId": "54",
        "signer": "0x8bE73Ae3f3F2078f9cAfa2735f665C7C140540eF"
      },
      {
        "passId": "55",
        "signer": "0x3B634bC88fA7eA9bd4ec876cA24D8705F6357814"
      },
      {
        "passId": "56",
        "signer": "0x8D74D6bCCeC6e01E151430b4fFe5F2503Ef7e158"
      },
      {
        "passId": "57",
        "signer": "0xf53Cb2D20286Bc12fA67c05e1BfF364C75c6D132"
      },
      {
        "passId": "58",
        "signer": "0xc7212D1ca118e04aB1500CEAe2cE869CC730Faf3"
      },
      {
        "passId": "59",
        "signer": "0x1A1A3862b1F5d800FfC808e62Fc02f61ED2f2A66"
      },
      {
        "passId": "60",
        "signer": "0x44DaB34c58c91fC417Fa8a353932cdDb63Ebb98b"
      },
      {
        "passId": "61",
        "signer": "0xb36E3CB4F8CcA5F9E17492C599B59d358F3Df369"
      },
      {
        "passId": "62",
        "signer": "0xb27599370C794EcBe0Ca42e9aE1B396C38BAcD6b"
      },
      {
        "passId": "63",
        "signer": "0x4C3d8665F3E8a4713F4d2a6b187728b6C21ffdc0"
      },
      {
        "passId": "64",
        "signer": "0xd6390D4eD2b0e625Dbc504A57412278134CAd52b"
      },
      {
        "passId": "65",
        "signer": "0x9514c13b7A56552159fa3B219AcEF5dF44507E9d"
      },
      {
        "passId": "66",
        "signer": "0x1d76Ce0DABF2f0f0721D05b1F475a039b2dA89E6"
      },
      {
        "passId": "67",
        "signer": "0xBaf52cC9341AF2390CdDc8962e5c8a00A22DA12b"
      },
      {
        "passId": "68",
        "signer": "0x22D4C6bAA5b24E0A1D0B65C2Bf136767a5eB879B"
      },
      {
        "passId": "69",
        "signer": "0x08cc0315Cb5769Bcef9019E0E1F9E7aACA7Abf03"
      },
      {
        "passId": "70",
        "signer": "0x59ef2A8a5954F0945329E07474A940F8747459e0"
      },
      {
        "passId": "71",
        "signer": "0x38d76ba9dC25E29147780cB60f00fe65a659C304"
      },
      {
        "passId": "72",
        "signer": "0x2B6A915529f4428698261fCCfC55604BfD06B5eE"
      },
      {
        "passId": "73",
        "signer": "0xFcB4159d85a8C3cB15b41b7D3b854e2dd6C246DC"
      },
      {
        "passId": "74",
        "signer": "0xAe39DC305Fc17E8F962Bea6Bd17D391a9c586959"
      },
      {
        "passId": "75",
        "signer": "0x53a68492cfbD7951E5925a3dc3b9ffa7c36aC4e2"
      },
      {
        "passId": "76",
        "signer": "0x6E1587AC17c5A2009f0f71213F453464220e7d72"
      },
      {
        "passId": "77",
        "signer": "0xC9E04055c7E11D622f5a30c8b34f0BdB51EB5DE2"
      },
      {
        "passId": "78",
        "signer": "0x76d5004289351787D2cC15E4C12F920fb58f987B"
      },
      {
        "passId": "79",
        "signer": "0x5c2874eB1B16959d74b31A68d7Eb0Ee320B6a435"
      },
      {
        "passId": "80",
        "signer": "0xE0cEA9D412aAb4eC081Ae5595c5A8534f2580Bef"
      },
      {
        "passId": "81",
        "signer": "0x34f8D35A9Afd151F1273D0A95b7D7b82C0f283D3"
      },
      {
        "passId": "82",
        "signer": "0x990c63AAB109D8f929ADb040740615516b88110f"
      },
      {
        "passId": "83",
        "signer": "0x607ebed70374C886fE1921B77aC10Cb90a4E7D8F"
      },
      {
        "passId": "84",
        "signer": "0xD9836dD0A0778C338A49171c86957fEF40A43d9f"
      },
      {
        "passId": "85",
        "signer": "0x027487F1452611A860965B647a3685beDC304e66"
      },
      {
        "passId": "86",
        "signer": "0xcC8223103A8Ed447c2560f5D9d9F389bA7dBaE60"
      },
      {
        "passId": "87",
        "signer": "0xc153228ef91dD417c12024fF3341351f48377611"
      },
      {
        "passId": "88",
        "signer": "0x539C1ABd53b3720e7A793A40f551A296EcA72135"
      },
      {
        "passId": "89",
        "signer": "0x5F689b8637fD9deaf3e3838D2f08D66260C361F4"
      },
      {
        "passId": "90",
        "signer": "0x7956283d45A284836062b5AB610b0ff75d7C420a"
      },
      {
        "passId": "91",
        "signer": "0x2fF9F60E73148bf9eeC0073eBA91bfCEE1456Dba"
      },
      {
        "passId": "92",
        "signer": "0x2B6ECe5dc4361771e993e277E159DE0dF7bFB17D"
      },
      {
        "passId": "93",
        "signer": "0x5f90cFBEc0Fb4383A5E7396734E867fa81896961"
      },
      {
        "passId": "94",
        "signer": "0x3b5B428FEe94a30b46a8B345c3270aDF0375214C"
      },
      {
        "passId": "95",
        "signer": "0xBB28757aCafB353DBAb47a7eA29eBAf4C1b685Bb"
      },
      {
        "passId": "96",
        "signer": "0xb1Ca5E99DBbaFb79d57FC6F1B04f98b940f99b9b"
      },
      {
        "passId": "97",
        "signer": "0xBcd92119d219fd58FA9492c2CA83F2Ca3277dA02"
      },
      {
        "passId": "98",
        "signer": "0xbD0b52275223602d20D763700eC0B5Ca1eA1157F"
      },
      {
        "passId": "99",
        "signer": "0x507C3349921366e0B4d886A66c35341deC457Cdb"
      },
      {
        "passId": "100",
        "signer": "0xBFD048167b47a2A4A48B9e2f882aeF51bc6b4852"
      },
      {
        "passId": "101",
        "signer": "0x498E98F2A96f7BbAF1D15054337d5a98D5E443EE"
      },
      {
        "passId": "102",
        "signer": "0xAa83b403B5Df3b6eDf2677400b5CBd9fF9db4297"
      },
      {
        "passId": "103",
        "signer": "0xa331a204E6B5ebc5330301D478CbaBfb347E2e79"
      },
      {
        "passId": "104",
        "signer": "0x68692C64e95a953cbdB7fF49D45d28ba8d24e285"
      },
      {
        "passId": "105",
        "signer": "0xb03cF6895C3d9b66d0A780F8297962C62ebcD7D9"
      },
      {
        "passId": "106",
        "signer": "0xd8b7907eE6EE9520F473d87B1fB4b9B170FA18a6"
      },
      {
        "passId": "107",
        "signer": "0xa8C945a6eC81f8A799Cba84f8303c96612B6ba6C"
      },
      {
        "passId": "108",
        "signer": "0x4C6850a4D1586B2A02855Bb65703D4E5e4c21129"
      },
      {
        "passId": "109",
        "signer": "0xe13E01aa5773Ea42Ede0463660a15246A78D86Cf"
      },
      {
        "passId": "110",
        "signer": "0xEa6b2C92be47F256B2952D237Eb4a57482fb66b3"
      },
      {
        "passId": "111",
        "signer": "0xe653C7769F1a729cac1575c0A84cBd2B2a7eE5f8"
      },
      {
        "passId": "112",
        "signer": "0x30a42D1903EB658705f1322FE251A0aA9f56D131"
      },
      {
        "passId": "113",
        "signer": "0x47882B9Ef30Db96b1DF526894f396d60099b7704"
      },
      {
        "passId": "114",
        "signer": "0x28B3eae810BA0f90a6480a38ff4f1d5D868be035"
      },
      {
        "passId": "115",
        "signer": "0x45fF9F37C3EDfBbFbE6A1e3DF464b26e882F18fB"
      },
      {
        "passId": "116",
        "signer": "0xB5BE7B25A397CfDA2D358bcE825126693d4f635e"
      },
      {
        "passId": "117",
        "signer": "0x7d79bbcfE78443e1e7c71a7a87C3C7a7a1F242B2"
      },
      {
        "passId": "118",
        "signer": "0x00329D72983b9FE524FaBF44e49bC929f6A37dB7"
      },
      {
        "passId": "119",
        "signer": "0x8A8FEd4c3931d4be3d0CeF792fEd59A2c9d952bc"
      },
      {
        "passId": "120",
        "signer": "0x23D637A4D30E4821b3B829B1a024Aa2018F84c0c"
      },
      {
        "passId": "121",
        "signer": "0xAcA3dDd53a8F7a5C74480aC1a6210d38d9442945"
      },
      {
        "passId": "122",
        "signer": "0x21488d4E8dE6B78a502e559227CfE2415a4f6Cbf"
      },
      {
        "passId": "123",
        "signer": "0x03c6ad98445C1E51305D31bC237E5beCfb909eC8"
      },
      {
        "passId": "124",
        "signer": "0xEa96fb1eC922E39bAD1fc148dab46C2dA8Ead97d"
      },
      {
        "passId": "125",
        "signer": "0x6ce17373f4BcF7a8E7Aa3D7bE9F7E593e1eF0e35"
      },
      {
        "passId": "126",
        "signer": "0xdA1d0604D3DEeEE4076A2DAee531F8Af4A099296"
      },
      {
        "passId": "127",
        "signer": "0x6677D9132EA80b3122150Ef31197C183e8dB093d"
      },
      {
        "passId": "128",
        "signer": "0x923B776897277A816AfE91d20566996623F7783C"
      },
      {
        "passId": "129",
        "signer": "0xa080884C829eAf70F6CAa110a50160bb64d441DC"
      },
      {
        "passId": "130",
        "signer": "0x9a6a3c7C929E21eb6DbF39BB46336a5b8bE2Ca59"
      },
      {
        "passId": "131",
        "signer": "0xfb6fA547585A46368F8F3C7dF098e7A1a3A3f153"
      },
      {
        "passId": "132",
        "signer": "0x3377f35AAf9375E8380f4F58203441964aE3EfCC"
      },
      {
        "passId": "133",
        "signer": "0x622cD1E83fe03da5AeFb0a18106d828CA4d1A71c"
      },
      {
        "passId": "134",
        "signer": "0x749f469cE91f5cdEa30F72bed89b6966821a4ea4"
      },
      {
        "passId": "135",
        "signer": "0xBdcBb15a65d21d2D697362a6Ce9a141498744967"
      },
      {
        "passId": "136",
        "signer": "0x545A108c76d7b4d494E32c878c59bd84b605DAD7"
      },
      {
        "passId": "137",
        "signer": "0x1858f9aCF06994B208812497287D135e41387EA8"
      },
      {
        "passId": "138",
        "signer": "0x4B514043eD477DE4aCD1449d4341eB4daE9dA5c4"
      },
      {
        "passId": "139",
        "signer": "0xD5593377da6a6C5042765E72E4a485701b713904"
      },
      {
        "passId": "140",
        "signer": "0x0125a217195F74C6B1D09C2d20012b18880847C4"
      },
      {
        "passId": "141",
        "signer": "0xaCA50ff216b30730Ac8a7e2b6c2BBaAE2301fc5d"
      },
      {
        "passId": "142",
        "signer": "0x0A3E400fbac61bBE5eAf555B96aD39087DDC122E"
      },
      {
        "passId": "143",
        "signer": "0x9A05E11F70Be4F51553B48bDb46ec2bb9860e26A"
      },
      {
        "passId": "144",
        "signer": "0x3Ed3aB950Fb427b965DE82F61ABF83AFF8634e5f"
      },
      {
        "passId": "145",
        "signer": "0x5D4076ee3F5aA42ACb798B40f6c57344A09Fa9b1"
      },
      {
        "passId": "146",
        "signer": "0x495ba3Fd1a70E8C000ee9710252f272B00eF1784"
      },
      {
        "passId": "147",
        "signer": "0x7FCC5ce67582187b6FD7c000BE28d1FcDc4f2F52"
      },
      {
        "passId": "148",
        "signer": "0xDDfDbca080E986bD3E9e088F49ac7f23c96D4c56"
      },
      {
        "passId": "149",
        "signer": "0xA3D09a0A7de74adA9F1E2B4F99dAc61A1B1aD04A"
      },
      {
        "passId": "150",
        "signer": "0x1Af29bAD4E910Ca04b01AEa9f3BA527b6aA153C1"
      },
      {
        "passId": "151",
        "signer": "0xE68e7304198a5bC7977B943d14354b787bEd1063"
      },
      {
        "passId": "152",
        "signer": "0x982ED69cFDa94a73784436451ffCEd02d664D30b"
      },
      {
        "passId": "153",
        "signer": "0xAf786506CBDe8EE346987D18d0AA6c6b16c47D14"
      },
      {
        "passId": "154",
        "signer": "0x52B96350A00bDA665a154dd167DDae86803b8CD1"
      },
      {
        "passId": "155",
        "signer": "0xea1E2AdD8BA8A1F900B9d185F8DFfb863d706163"
      },
      {
        "passId": "156",
        "signer": "0x79CD5d8338d84f9BCFcDBf089beec9CA8415AF70"
      },
      {
        "passId": "157",
        "signer": "0xF8efdd4b63298d8d3672a6F01A1bB30c5A63443E"
      },
      {
        "passId": "158",
        "signer": "0x41d4b7C01867283Cf45982386DAF0809b1344D59"
      },
      {
        "passId": "159",
        "signer": "0xDa1Ad4f830ec594D226a385177d3b2C2021dd60f"
      },
      {
        "passId": "160",
        "signer": "0x75d140528269811A856190A3948B268d3938FEd6"
      },
      {
        "passId": "161",
        "signer": "0xA43438492aFD9084e7Aa0D0f11f22d6d72eCFe1a"
      },
      {
        "passId": "162",
        "signer": "0xF3d0C7f239C8Aa6aA43f5cAA72D4529E3443cC18"
      },
      {
        "passId": "163",
        "signer": "0xb821622b6A41bd7d552951A0B8B58fB330bA5F44"
      },
      {
        "passId": "164",
        "signer": "0xda6175B91c687A7C7257866506e692EAc4c86187"
      },
      {
        "passId": "165",
        "signer": "0x13B0B680960BafC40419CEC9351082497dDa452A"
      },
      {
        "passId": "166",
        "signer": "0xc08Dc0119af112d9BcdC902221836143c0AA5070"
      },
      {
        "passId": "167",
        "signer": "0x8F06079B20741e62eBb99F4e11390D44e3CF846C"
      },
      {
        "passId": "168",
        "signer": "0x1C471d9e10369c1dBde58CB575403eBb50479aCe"
      },
      {
        "passId": "169",
        "signer": "0xE8f9400F13f2db6c51dEedD845bfE92C0DDB883B"
      },
      {
        "passId": "170",
        "signer": "0x547F23c95c19CE726CBD765257590B482E78e930"
      },
      {
        "passId": "171",
        "signer": "0xf197701219a70c89f23b0c0971089690471d54B3"
      },
      {
        "passId": "172",
        "signer": "0x0F4ABD4a9B3C607EB80e4268a749faAEC0a0de29"
      },
      {
        "passId": "173",
        "signer": "0x97122Dc8dB04f8EA3eCaFb345Bef408ABD85DCC8"
      },
      {
        "passId": "174",
        "signer": "0x8327D34465b79D8F7A419b8E0F709fEEE76d87b7"
      },
      {
        "passId": "175",
        "signer": "0x7BD68548B0B76f17848446DfC5B03922d694e0e3"
      },
      {
        "passId": "176",
        "signer": "0x4e43dE2EE5481ac43482183A141b6a439e6994dF"
      },
      {
        "passId": "177",
        "signer": "0x4B08c6B57f1093b59F3e4C1d57bd3a2A6ac23A64"
      },
      {
        "passId": "178",
        "signer": "0xaC77302dc10D8eEAE0b03336e808D709E6a9625f"
      },
      {
        "passId": "179",
        "signer": "0xDe9670c0662436185bd2492f658AF9a7EA8e4df0"
      },
      {
        "passId": "180",
        "signer": "0xFAf23a64B67FfaCB2De13A0382892d764b823c7d"
      },
      {
        "passId": "181",
        "signer": "0xDd1B1061657E03A6334113ecf06AC12E79Cc0C1B"
      },
      {
        "passId": "182",
        "signer": "0xB9a226121AB78A9B728a987a6432c14716fDb667"
      },
      {
        "passId": "183",
        "signer": "0x69EE1c8bC1C2EFeeBb13C2305E26D32507649FAD"
      },
      {
        "passId": "184",
        "signer": "0x8339621C2df4F57fD20168Ae5520911127480713"
      },
      {
        "passId": "185",
        "signer": "0x0601D52510caf949582f9294C0d3e73BB3742360"
      },
      {
        "passId": "186",
        "signer": "0xf1b0F27F280f5A76314Bc5Ee815fB2a890668874"
      },
      {
        "passId": "187",
        "signer": "0x5fF12DE401F66d7e618d8EED4146F053df318A61"
      },
      {
        "passId": "188",
        "signer": "0x645984071186e4728d16134A75862B8c374B3ff3"
      },
      {
        "passId": "189",
        "signer": "0x3c3dF0509fc312b9b86e2259E0E834C83345dc61"
      },
      {
        "passId": "190",
        "signer": "0x260652cBfb00480E019eD66d10c25CB29c0AF964"
      },
      {
        "passId": "191",
        "signer": "0x388Cc15F97Fad758E2EB080E5A8De810c65D09d7"
      },
      {
        "passId": "192",
        "signer": "0x92ef43c36b59583899Af817d45d1B5eD13da228D"
      },
      {
        "passId": "193",
        "signer": "0xfFE9406eD8bbC0f786bBb1c939e06B0d72B05552"
      },
      {
        "passId": "194",
        "signer": "0x2d5D0F46a0F50cf2F865525a86C9C1CCdc754D3d"
      },
      {
        "passId": "195",
        "signer": "0x88082b6573584cf096aBF6454e6adbe7a9495D42"
      },
      {
        "passId": "196",
        "signer": "0x581a5Da3AFEc346E28c366A2b94b83EF8d35eBfB"
      },
      {
        "passId": "197",
        "signer": "0xEa9B4D03200824dA92D1Eb5250724126886f8c05"
      },
      {
        "passId": "198",
        "signer": "0x5912621037860C7C7940315Af527C9d721F9CA20"
      },
      {
        "passId": "199",
        "signer": "0xB8636F5d5D154DB0b88E5b868Ac1fCaEe47CcfA4"
      },
      {
        "passId": "200",
        "signer": "0x0d981D55eCcFb5085dE7CA1B1bA3D27A73763370"
      },
      {
        "passId": "201",
        "signer": "0x352de519f9908f9A540ae6F612b3226D720C1B60"
      },
      {
        "passId": "202",
        "signer": "0xa7a4bfdeD12Ca4cE22cb95015E760c0C2362c776"
      },
      {
        "passId": "203",
        "signer": "0x69A77D5A9dEc3eD117Da1910C9509Fd7444eD4AA"
      },
      {
        "passId": "204",
        "signer": "0x590C635e53420224712Fcfc744004Baa78231954"
      },
      {
        "passId": "205",
        "signer": "0x33907782FE65A48280122e9598Ce3c1e2faC0bdF"
      },
      {
        "passId": "206",
        "signer": "0xb8913eF2868cd65e2e1C0C648e9ec7d0E99F2000"
      },
      {
        "passId": "207",
        "signer": "0xA135aB9767B4BFd54B5534182b6F4D158fC674F1"
      },
      {
        "passId": "208",
        "signer": "0x94607db2D179764Df02fc2d72CA8336ADaC1C937"
      },
      {
        "passId": "209",
        "signer": "0x4e57a09B29A72Dcac7328aFE7Cc065555F054812"
      },
      {
        "passId": "210",
        "signer": "0x315A95833AF10d01609e5885145f89E72528B151"
      },
      {
        "passId": "211",
        "signer": "0x490C57d462C74700aFbEbeE0B74aB987E39b9dA9"
      },
      {
        "passId": "212",
        "signer": "0x45fBED06e9C7bC992FAD61dbA1076aB4bA2De485"
      },
      {
        "passId": "213",
        "signer": "0xA034baD1c5D4987544A7D394A2c55f46d4171a5B"
      },
      {
        "passId": "214",
        "signer": "0x84ECBc58c40A4f80FfA947b4Ac9e9BA15121422f"
      },
      {
        "passId": "215",
        "signer": "0xB739dD300C11a8a1D2d89E96d936Af916C17D726"
      },
      {
        "passId": "216",
        "signer": "0x6EC9Ac0E3BE8b167C65A39Af3DE78A01F0F33B1b"
      },
      {
        "passId": "217",
        "signer": "0xe1268c05A92356335e061ca691DBd1794a4096c7"
      },
      {
        "passId": "218",
        "signer": "0xE26024712B16618BE808CdCDd1C5090dc9F06394"
      },
      {
        "passId": "219",
        "signer": "0xc902a5C0D47AfA8880e816B98Ea0Ed2F7b50abee"
      },
      {
        "passId": "220",
        "signer": "0x061E1E66a519B42B75706060b46A8258990A3232"
      },
      {
        "passId": "221",
        "signer": "0x9C5cbEaAf4e5767C3267AB7D668D994BeB381f41"
      },
      {
        "passId": "222",
        "signer": "0x08ba3C0554985A79f1eFCD2fB328730982b32833"
      },
      {
        "passId": "223",
        "signer": "0xF949D5026b3BA4d60A9DB74fb5C9A8058058c34d"
      },
      {
        "passId": "224",
        "signer": "0x7c4ee9949c0570B2b47e973a88dFE119ac1e0357"
      },
      {
        "passId": "225",
        "signer": "0xfd4cC6dB38CF996a26eA7f6fb6cd0195F518d104"
      },
      {
        "passId": "226",
        "signer": "0x820254229789847415A2D99d6d2F4ba4C8FA8068"
      },
      {
        "passId": "227",
        "signer": "0x418630d912fC436D6c377632F60C6343108Fe0dD"
      },
      {
        "passId": "228",
        "signer": "0xBfa103c28Eeb64274Fa6328bF5D462ea7088579B"
      },
      {
        "passId": "229",
        "signer": "0xEf512913bCa6c4905a71102E8d3ac965FDB5df9A"
      },
      {
        "passId": "230",
        "signer": "0xeF07043aD1EDe4fdeC0b05c5B5B868C273F70e43"
      },
      {
        "passId": "231",
        "signer": "0x8d2C8A90C6Ce3461C9277C5f1333368B883b5e7B"
      },
      {
        "passId": "232",
        "signer": "0xe509155FF32a6395632032421f6D99E5FB737B7a"
      },
      {
        "passId": "233",
        "signer": "0x002ECFcC370d4C94065b4ED4Ac16973a0CE06Bf8"
      },
      {
        "passId": "234",
        "signer": "0xc2ADcec4B9683d860B22dc20E11aC6C9A0184C20"
      },
      {
        "passId": "235",
        "signer": "0x53b42B8E2a570C7c9a3A7Ad0e4c3FE0F7F33701e"
      },
      {
        "passId": "236",
        "signer": "0x0E324ccf91e3c0c346f3F6B0eA3b7B96eBf299cb"
      },
      {
        "passId": "237",
        "signer": "0xE7485E313b28DF056C59c4A817255bC72a687Feb"
      },
      {
        "passId": "238",
        "signer": "0x6284eE7B99A0F949fF854a10f68F97E654EfBEDB"
      },
      {
        "passId": "239",
        "signer": "0x64CbfBbE8B1c6D202f77e77b1D90Bc34ab6D9e3b"
      },
      {
        "passId": "240",
        "signer": "0x9b22c1f80bd03689bAe592fD2f1c562146616c23"
      },
      {
        "passId": "241",
        "signer": "0x811FB1b298F60c449FA56262849709B09c941F94"
      },
      {
        "passId": "242",
        "signer": "0x1f3E3F9dbbB7Aaa0215C152262234C9Bf40A7ab5"
      },
      {
        "passId": "243",
        "signer": "0x0116CF1463Ac4f2E5BBd56262679E5Ff0A5763ae"
      },
      {
        "passId": "244",
        "signer": "0xd7AAe3ecfE822BA5D00a8A286fadD1A8889Bf195"
      },
      {
        "passId": "245",
        "signer": "0x4FE59DD7DF0c46D6f76F5F895A76Ec5Bc3d5a15B"
      },
      {
        "passId": "246",
        "signer": "0xb0bd3Cd0c0a6C8F6e6142c2C3109F8770e252411"
      },
      {
        "passId": "247",
        "signer": "0xb40e040BcDa555cc661602F7d789261C8Ef3a04A"
      },
      {
        "passId": "248",
        "signer": "0xb558f9EAB878a424B8e61A340C26177253a25d59"
      },
      {
        "passId": "249",
        "signer": "0xFB4df002caB411B15B51B5BB964074670313035f"
      },
      {
        "passId": "250",
        "signer": "0x22a9cE96A5aCD4380fDBF4FCc282545c2Bd60BcF"
      },
      {
        "passId": "251",
        "signer": "0x9AFBe0ED52388d2d53975F4b2F6cc2679e87D3Eb"
      },
      {
        "passId": "252",
        "signer": "0x2BCE05924350230c3f49170F90CeCDe1d2CA21b9"
      },
      {
        "passId": "253",
        "signer": "0x10500e154ea3bec7789E3C1d264a5F52B09bDbE0"
      },
      {
        "passId": "254",
        "signer": "0x677a4C2d739f2D6061CE06Be14B0813a52742d5d"
      },
      {
        "passId": "255",
        "signer": "0xd90D1E64d9ee7413c86d8DC21A3c336060CB360F"
      },
      {
        "passId": "256",
        "signer": "0xd4404d6172b6772bE31F284CCdaf1183F3e62c83"
      },
      {
        "passId": "257",
        "signer": "0x598CCA5551D51AA3Daa726FBf8FC5fE60E510721"
      },
      {
        "passId": "258",
        "signer": "0xB20153b6068b151528f2831A3d76B32bF2E357fB"
      },
      {
        "passId": "259",
        "signer": "0x9983346a80dCcB018c5C476B76B8252Aa10f0a07"
      },
      {
        "passId": "260",
        "signer": "0xB2d7A66E3E8789B6B2e9290e827B8d5Fe13ab641"
      },
      {
        "passId": "261",
        "signer": "0x4e9bC1d12267763A6C97Fc5113025060613e01F1"
      },
      {
        "passId": "262",
        "signer": "0x734A68BA0Ad78BD59032586060a0649b88fEA8c1"
      },
      {
        "passId": "263",
        "signer": "0xEE0Fd4A711e098005CD9F45299715a4594E504DB"
      },
      {
        "passId": "264",
        "signer": "0x25bD488255c87E8629F8141cD44AFA2cb7F29B74"
      },
      {
        "passId": "265",
        "signer": "0x5f799b4BC96cdF79B6703D026e5676FeE77feD87"
      },
      {
        "passId": "266",
        "signer": "0x45A976DcC33Ee56fA4a373a94386c2a5F5652B72"
      },
      {
        "passId": "267",
        "signer": "0xD900586E2e25d5e05Ec1E39eCAe6829B0e478283"
      },
      {
        "passId": "268",
        "signer": "0xf261963353c2823aeA59f7E3e1dc15E278745C6e"
      },
      {
        "passId": "269",
        "signer": "0xA4E2cbb2F8642994c347714fc2215815239Cc7dE"
      },
      {
        "passId": "270",
        "signer": "0x2978Aa9540b24df64c7610Acff826dbD0CC003A3"
      },
      {
        "passId": "271",
        "signer": "0x13243e426D966B975a1d5f678b942a0380D6f929"
      },
      {
        "passId": "272",
        "signer": "0xb0E0489f81Cefd9bd768458Eb51f0b1a07D6250E"
      },
      {
        "passId": "273",
        "signer": "0x17Aea4267f12b89Fa6FdEC975e27739A0c564C0f"
      },
      {
        "passId": "274",
        "signer": "0xd02b0f4F1bf140D8069aB02e5bb77E6471822be8"
      },
      {
        "passId": "275",
        "signer": "0xF0946c08d216524e493422cBaae5E2F51399870E"
      },
      {
        "passId": "276",
        "signer": "0xFD3081D653C54e2a6BED7ffB4656a6f7FC2baAC5"
      },
      {
        "passId": "277",
        "signer": "0xa783dD1a5665270DCe32C2b8De15af383AB1519D"
      },
      {
        "passId": "278",
        "signer": "0xCd975e93b7046d571f671AebD1C29b513A1CD320"
      },
      {
        "passId": "279",
        "signer": "0x3Ea95eB36AA25eB70b73Bd4F2A66352d5AF4A696"
      },
      {
        "passId": "280",
        "signer": "0x8D893cB4336621D1AFb40CeF9B2c21f408dcfA28"
      },
      {
        "passId": "281",
        "signer": "0x88d4395F0aBc06a5C0DdFC62dB433E020BF81B45"
      },
      {
        "passId": "282",
        "signer": "0x2D9F70A0578d57b6f6f23084fba3dCaE3df82659"
      },
      {
        "passId": "283",
        "signer": "0x05381a08B6710b4b95DdF435C6e199642F23b437"
      },
      {
        "passId": "284",
        "signer": "0x0a76e307E7548DFC606ABc4B7634DD66b2EcCB07"
      },
      {
        "passId": "285",
        "signer": "0xBe33D7f8561DBD3980688Ca43d53Aeb263d4c7F3"
      },
      {
        "passId": "286",
        "signer": "0x75029Ed4b24De2A971FB4e5558155150E1DDB072"
      },
      {
        "passId": "287",
        "signer": "0xeAd936afE104982B5e0CF49f28310226D19Fc00E"
      },
      {
        "passId": "288",
        "signer": "0x096502074b67A6a249fAf08a7469E28b8b1Ac99e"
      },
      {
        "passId": "289",
        "signer": "0x706f4Abd1a61C16374662E52980c6E332D29117A"
      },
      {
        "passId": "290",
        "signer": "0xa28Eb0EEaFeAaA649Ef519ebB17e1202864A174F"
      },
      {
        "passId": "291",
        "signer": "0x63cF8D8Bc6f29a65726d04e03e855ca8bF62227D"
      },
      {
        "passId": "292",
        "signer": "0x30093827fc9024D4F7eB4b7a2D35f52dE8F92BE4"
      },
      {
        "passId": "293",
        "signer": "0xd117546B1D4aaFbB864da49066b9A6C21C1C093B"
      },
      {
        "passId": "294",
        "signer": "0x132D96C1Ae5bB29B26c9b877e808F5C9a42D03b1"
      },
      {
        "passId": "295",
        "signer": "0xD2827dE4ebf0bE66b6dc92B38f61dc5362ce2552"
      },
      {
        "passId": "296",
        "signer": "0xb4c37C22fB9D691881BbD51a8383433aBE7F6623"
      },
      {
        "passId": "297",
        "signer": "0xd6E210fF610079d44399689fBf19Cd13B50a9D07"
      },
      {
        "passId": "298",
        "signer": "0x279ef9d5428306204DDdE638707A81B5C3e6FA3a"
      },
      {
        "passId": "299",
        "signer": "0xC73314863c85f51e31e9359fC315393e12F055af"
      },
      {
        "passId": "300",
        "signer": "0x12A9bfcf22ba1514AbEe343c88093787753C6Ebf"
      },
      {
        "passId": "301",
        "signer": "0x09eBaEF201BAC2C36F0638Bc5b47752B795A2aA4"
      },
      {
        "passId": "302",
        "signer": "0xFAaC1D9c042Eeb609e5bb741c7A016305f7F1207"
      },
      {
        "passId": "303",
        "signer": "0x7943676e747aDb1e57645a11e7800dfa6CE704C2"
      },
      {
        "passId": "304",
        "signer": "0xf03d9225d3B3792E7ec54c2d9b281D60Dfc41Ff2"
      },
      {
        "passId": "305",
        "signer": "0x5556FaeE0e61663968C821990cF8a0fdD57A4922"
      },
      {
        "passId": "306",
        "signer": "0xCaf8405BC149836Ba98936291ab0AAD306A239BF"
      },
      {
        "passId": "307",
        "signer": "0x54c817fEBA1A703309B06367E5EaC1aCd08D9FeE"
      },
      {
        "passId": "308",
        "signer": "0xdB39877A4CaF028Ee5011CE05381f1603cF809f4"
      },
      {
        "passId": "309",
        "signer": "0x4713c4a9EcD11784984aa233aF4690E0D6d766B2"
      },
      {
        "passId": "310",
        "signer": "0x01874E2a28a99b8F3C2849926474f97a55801eF9"
      },
      {
        "passId": "311",
        "signer": "0x1BF992d5F96D8eD7b13103EED2d6eEB8464980E6"
      },
      {
        "passId": "312",
        "signer": "0x311072BA8e2c3Cf151e9e782250199801D7bE20E"
      },
      {
        "passId": "313",
        "signer": "0x208bbFD9121906EC8A3af874c81892cA67cc47aB"
      },
      {
        "passId": "314",
        "signer": "0xa22490CA0e1d86d612F231bc24E21B797Cc5E7CE"
      },
      {
        "passId": "315",
        "signer": "0xD38c10D6dda8C12Ef4F1c9Fec2ae2082974eE660"
      },
      {
        "passId": "316",
        "signer": "0x0C981D1956E0237f60b9E8A8fDc3996091Dd0Cdc"
      },
      {
        "passId": "317",
        "signer": "0x6eA7cF900C39841C764ECE31F4a7B1c2ce472A46"
      },
      {
        "passId": "318",
        "signer": "0xA9a6f485BF7b274CB35Dc09CB234b82F88bd1871"
      },
      {
        "passId": "319",
        "signer": "0x427923e73ae182EA4832A8D6694226Ad5ba93663"
      },
      {
        "passId": "320",
        "signer": "0x5ED86A3579a003C9681A775E779CE58596015327"
      },
      {
        "passId": "321",
        "signer": "0xDe7Fc1e37E186feEAE177c75be65fa880e09e1eB"
      },
      {
        "passId": "322",
        "signer": "0xaA4E1CfB2c9941c420DB38e2bd7cC3887f26f1aA"
      },
      {
        "passId": "323",
        "signer": "0x1214bC9411117E28F79ed054e7599371c4303D90"
      },
      {
        "passId": "324",
        "signer": "0xF236452B2204F5073C087A20C0ee8445cC6508f1"
      },
      {
        "passId": "325",
        "signer": "0x7d0729D2864bC797ADfE84D1df911d1da023E5B0"
      },
      {
        "passId": "326",
        "signer": "0x993ad7EC234200487dC8722a7F6ce4425018dC38"
      },
      {
        "passId": "327",
        "signer": "0x18e98B636BCad192B08fBf0A1596d625597d6096"
      },
      {
        "passId": "328",
        "signer": "0x675485979b2454Ea4A8135Aa4D3E79A10Ef95A07"
      },
      {
        "passId": "329",
        "signer": "0x373f8BB0fdEEb9B7Ff034c9899a7695f602Ac9F1"
      },
      {
        "passId": "330",
        "signer": "0x8b465777a4fb57ead804f2d02eEbA601c8A6967F"
      },
      {
        "passId": "331",
        "signer": "0x97D2cF7e4B23e58D93B73375b6a6106a91c8C9B6"
      },
      {
        "passId": "332",
        "signer": "0x45A3696Fe90B88b31D8A96caFE5cdAe6B63D63f3"
      },
      {
        "passId": "333",
        "signer": "0x5Abd343e670A4d625eD82cD09C61ac1a632b523A"
      },
      {
        "passId": "334",
        "signer": "0x90ff5626b5c69F0216C667ce192e5AABA6CB7e89"
      },
      {
        "passId": "335",
        "signer": "0x7adC89177a2409e10E9F98E900063d477BeDda32"
      },
      {
        "passId": "336",
        "signer": "0xE307BCC64A4407A1cE9899e2C9916B32a95eab80"
      },
      {
        "passId": "337",
        "signer": "0xD8f593a355A5bf35225D6552515489269e6Db24d"
      },
      {
        "passId": "338",
        "signer": "0x01DE4c146bdB8Ed8da237f9b027F39eF6181a347"
      },
      {
        "passId": "339",
        "signer": "0x15cbe2602219D25e94f3Aff661D2e7a9348034C4"
      },
      {
        "passId": "340",
        "signer": "0xfD7d1DCff6806fFd4924B89cf6b3cbFD56e28Fa2"
      },
      {
        "passId": "341",
        "signer": "0x06b7b7f3D24B79a5D20faaAf0CD00B61F73Ec4e5"
      },
      {
        "passId": "342",
        "signer": "0x2bFe7c305570e04f89c9bac51bC8934a15857b6C"
      },
      {
        "passId": "343",
        "signer": "0xB7c8F48c18b41E1E4E2D49Eb46C6bb6815442576"
      },
      {
        "passId": "344",
        "signer": "0x3e931A544905bF593c7Df6Ca2434A0445F01D724"
      },
      {
        "passId": "345",
        "signer": "0x2c893ac0FFB5a44997565f50e928639e52344899"
      },
      {
        "passId": "346",
        "signer": "0x69981F437D4e40ABaF4c25E01b31cb76E877a0c4"
      },
      {
        "passId": "347",
        "signer": "0x5485eD0010Da5D00e1052689677B47D398B1bb2e"
      },
      {
        "passId": "348",
        "signer": "0x9974b20A10f820386e0C85F09b5D67EF08D39195"
      },
      {
        "passId": "349",
        "signer": "0x3D090e7aC8d2161F1FA77471220952002dC17789"
      },
      {
        "passId": "350",
        "signer": "0x1F7212E07101b7905cE3A43ea5Dae5c36D61Cb4b"
      },
      {
        "passId": "351",
        "signer": "0x9cBfAF14637a96f988d489acF865E24F05765d98"
      },
      {
        "passId": "352",
        "signer": "0xe4574C8BDC47528aF45cCBfAC994178d25c48B74"
      },
      {
        "passId": "353",
        "signer": "0x38DfD726120d42Cd926066213C5171c7a1521C41"
      },
      {
        "passId": "354",
        "signer": "0xf3F24172D6cC2B02f476A84c0061d07dbb99421E"
      },
      {
        "passId": "355",
        "signer": "0xa24410A26145518d5a3C827B332829522e207450"
      },
      {
        "passId": "356",
        "signer": "0xfdfe02403655EBF70A70008880ED1FF8A10F6257"
      },
      {
        "passId": "357",
        "signer": "0x20C40C3fdF150363AeBc34ed8212283A336d1e14"
      },
      {
        "passId": "358",
        "signer": "0x032107cFEBFCE820364FDd5F5d05cB0dd7EBBbb9"
      },
      {
        "passId": "359",
        "signer": "0x6B4126f59CFC53C68847e7287aE0FF7447b69dAf"
      },
      {
        "passId": "360",
        "signer": "0xB38B826DFB1390A511Bd1d4d407447bbeACd99d3"
      },
      {
        "passId": "361",
        "signer": "0x98115Bf8D20A8F5348b7deb4c0d0bce458135bEf"
      },
      {
        "passId": "362",
        "signer": "0xBa7188FfbF49D2369738f9B58534c8668F3E5D02"
      },
      {
        "passId": "363",
        "signer": "0x37e62cE42F00cC5A7CC8104C2E3d7a0C26dCbFC0"
      },
      {
        "passId": "364",
        "signer": "0x8c97c26A2A48746FB80BbA47DBAE018E0Ca4D4D0"
      },
      {
        "passId": "365",
        "signer": "0x04C2a49E96783441742eD1Ee319932BC37c6a865"
      },
      {
        "passId": "366",
        "signer": "0xB158532707CBDbA3E1247EB54b133C01AE254B6F"
      },
      {
        "passId": "367",
        "signer": "0x3C4E0D4E2bc174b5d183d80341eA6985aC25d7ca"
      },
      {
        "passId": "368",
        "signer": "0x4d6316d5EE82b2Be29f422D9e3DA1c42EFef3913"
      },
      {
        "passId": "369",
        "signer": "0xAfdDdf293E1F3c5DAf2992880068e9344Bb0c2a2"
      },
      {
        "passId": "370",
        "signer": "0xC488395be5c6c4cECc3697d5113e414faFb97F92"
      },
      {
        "passId": "371",
        "signer": "0x9fCDeF39A10cc655E9dc63EF126b72594B71F816"
      },
      {
        "passId": "372",
        "signer": "0x43bBfEF3B8469a8f6ebD5e8E06A8C754f87e64fc"
      },
      {
        "passId": "373",
        "signer": "0x6c1ba15De08b21984977eA3750850B2f8654b302"
      },
      {
        "passId": "374",
        "signer": "0x95641e7bE1388c4fFF115D7d14b9323936623F41"
      },
      {
        "passId": "375",
        "signer": "0x28d9ef87076373932BE679985Bb58499390061eF"
      },
      {
        "passId": "376",
        "signer": "0x10Abe9c8e69e562fa1BA32bf6A9571509919FAD6"
      },
      {
        "passId": "377",
        "signer": "0xCcA4aF56D4FD07676208597bB77148C05E318bcD"
      },
      {
        "passId": "378",
        "signer": "0x1aAEd7A27D93593567961916317E7Ba5eC09e5Ed"
      },
      {
        "passId": "379",
        "signer": "0x85325ad799B47325D3FD3cC8340a803c860A2aBE"
      },
      {
        "passId": "380",
        "signer": "0xfC51A1A576aa89D4889ED5b9483C2D44F993ec5C"
      },
      {
        "passId": "381",
        "signer": "0xC067D928F8f44C0A76c8DfC7Abd5d3965F4FC292"
      },
      {
        "passId": "382",
        "signer": "0xF729959DEA3dd5DaEcF00740644455210d6dE5Bd"
      },
      {
        "passId": "383",
        "signer": "0xF569269C08A60fe4dDacCCFf3D777be9aD7D8c74"
      },
      {
        "passId": "384",
        "signer": "0x5bBc4C8724680EeD2276f9Ee1e857c233feb5326"
      },
      {
        "passId": "385",
        "signer": "0xe38169b7f9189D61Df7CaF3867037D3946b69D8e"
      },
      {
        "passId": "386",
        "signer": "0x5dfa4D3Bed0EcA6651393390226f496Aa1212fa5"
      },
      {
        "passId": "387",
        "signer": "0x32F6A2E6FAb2dFFD8aF3427230D26d8202D1dEdC"
      },
      {
        "passId": "388",
        "signer": "0xB6ED1692cC65a4EaCf604A10AF4006ff9edc45aE"
      },
      {
        "passId": "389",
        "signer": "0xf71246ee8f90C1a7EdA82b9cEB1f7EfD41aE1ee0"
      },
      {
        "passId": "390",
        "signer": "0x91d7570cAc50B8E6222d6A3161e97A49C749a3e9"
      },
      {
        "passId": "391",
        "signer": "0x410D2844d79F2fEaF441c88589baE0ebF52391D3"
      },
      {
        "passId": "392",
        "signer": "0x326508ACA3723B3C83BD7377C043f255A41B8B5c"
      },
      {
        "passId": "393",
        "signer": "0x4bAf7951CcaF010ee6660bfc45e77e0dB6610897"
      },
      {
        "passId": "394",
        "signer": "0xd5B6a84bDc6F44e3c0083203A35A7198BC21EdCB"
      },
      {
        "passId": "395",
        "signer": "0xE7473B554D5Bea4eF0e6C8dFFB68F86aF18565CD"
      },
      {
        "passId": "396",
        "signer": "0x4fc7AFf66cf60875Be9Fa2e9248AaF5eD716D9eF"
      },
      {
        "passId": "397",
        "signer": "0x6bEf0e852532951a0A6a80bF625765B6d4D24763"
      },
      {
        "passId": "398",
        "signer": "0x063Ef7fB5E93D52B57D4dCE2f7963e6621Dcb17E"
      },
      {
        "passId": "399",
        "signer": "0x6Ee36dEfD3712054054D7AEf11f2373e7bF77B0E"
      },
      {
        "passId": "400",
        "signer": "0xba0a0b0A05F99e06815d9360EbBF2F07214dF8a5"
      },
      {
        "passId": "401",
        "signer": "0x672449C940a82CcCc9F5812aBA66ef819c6CA93e"
      },
      {
        "passId": "402",
        "signer": "0x8469624BEa3e7DDEA42AcD9c70E1677DA20c3EC2"
      },
      {
        "passId": "403",
        "signer": "0xE07DD6213270C787f02dbA0309D4f902D3F7E24f"
      },
      {
        "passId": "404",
        "signer": "0xc932c1c61de157441bCD9c2b8bD4E27C3161370d"
      },
      {
        "passId": "405",
        "signer": "0x14C37a2b2777E2AB50C99Ecd5cdfB300C71B873a"
      },
      {
        "passId": "406",
        "signer": "0x5Cc7f6e6d53E303dc02fF90cb799069417387fAE"
      },
      {
        "passId": "407",
        "signer": "0x7c524b508c12D7Cf276ad3f8A9907F7CFb0fb16D"
      },
      {
        "passId": "408",
        "signer": "0x5dCC530626077BCF1cc9267E418fB3a56f7c1599"
      },
      {
        "passId": "409",
        "signer": "0xAE1cA04cE9DFC5d0c7Fa99dc3c79828C4b920026"
      },
      {
        "passId": "410",
        "signer": "0x05Ec587CaF1aE2CAED6184a7d7e0adC82f398882"
      },
      {
        "passId": "411",
        "signer": "0xB653cD86e22cC01eD848E9fD09FdfEAB91033456"
      },
      {
        "passId": "412",
        "signer": "0x6a5f109c87841e22eB8BcdCCb89B54f6deC912D1"
      },
      {
        "passId": "413",
        "signer": "0xb3c83d73003CbfdD64f74d20aE6f7A8a5eB01932"
      },
      {
        "passId": "414",
        "signer": "0xA4f8be8f0EdCEed6A64674327aF0F993F0cbE3a6"
      },
      {
        "passId": "415",
        "signer": "0x5430f4EC2318276a78D705621D8cA927192ECcdD"
      },
      {
        "passId": "416",
        "signer": "0x7610ee3F0575849a14dE59BE183796f0C34c3c38"
      },
      {
        "passId": "417",
        "signer": "0xcFA0645E829E5405cf8E146E8Ea6796B822D0626"
      },
      {
        "passId": "418",
        "signer": "0xFcDED375922599F863A54152fAf87AcbBC5A351B"
      },
      {
        "passId": "419",
        "signer": "0x68B66C93a0b06940Cc1Fa14532f8941009ec8CFe"
      },
      {
        "passId": "420",
        "signer": "0x3F02212363889545763Cd2FA574DE9F736E2CE2a"
      },
      {
        "passId": "421",
        "signer": "0x30De69D999C2Ad73499eeF3fcFd6Ecd0a2383a8e"
      },
      {
        "passId": "422",
        "signer": "0xF4854ffA7d948Cec99D549eCDF2b5FCD5442353f"
      },
      {
        "passId": "423",
        "signer": "0xbe22cfAc252102f94fcaBf232071D50EDec64B64"
      },
      {
        "passId": "424",
        "signer": "0xf29294C5B97517682879BfaD71261Db84ba44ccc"
      },
      {
        "passId": "425",
        "signer": "0xC28D07dF8C9B248FEc2f86e573680B5D377aa4b2"
      },
      {
        "passId": "426",
        "signer": "0x90cf88D6D3CFd5ce8EE9AB79c698A91Eb7460a14"
      },
      {
        "passId": "427",
        "signer": "0x43866BfFe5A149b99D9B494906ab59F2743BE15A"
      },
      {
        "passId": "428",
        "signer": "0x3d5eEC10D74b85d9eCb150e3Ef85F5B493D61662"
      },
      {
        "passId": "429",
        "signer": "0x5D5004b602279c6df3B58201d473c775245f1FF2"
      },
      {
        "passId": "430",
        "signer": "0x0f7B854612165Ca4A9f11167968dFCBa6d966797"
      },
      {
        "passId": "431",
        "signer": "0x0E67E2409C5e9Db9BE05e33D5c22be4F6Ea69690"
      },
      {
        "passId": "432",
        "signer": "0xf2DF52Aa86A311FA4E7FD8C5C4E0eF5b2230665f"
      },
      {
        "passId": "433",
        "signer": "0xc62Fc5eEEFb02E1A25Eb1fC2EF2E380e1fCDD2a8"
      },
      {
        "passId": "434",
        "signer": "0xaE01C16253DdBFF84a87443dc8d0EF83208DCD56"
      },
      {
        "passId": "435",
        "signer": "0xb1A79bdC8a9366a764b50A56A097AEB29530fb10"
      },
      {
        "passId": "436",
        "signer": "0x7EE71BE37Efd215eCE263B63B0986daE5d9477B0"
      },
      {
        "passId": "437",
        "signer": "0x5d1f25aB1E89Aa8720BD0003De99E13ac52c33A0"
      },
      {
        "passId": "438",
        "signer": "0x75F9CFDbDB8d87c6974B64993C80642679fC0bc9"
      },
      {
        "passId": "439",
        "signer": "0x608fE14A84FF7062745c595Eb4afE600A8256760"
      },
      {
        "passId": "440",
        "signer": "0xfa1F37273d301Bb5e4907e70E1903D01eABBF8B0"
      },
      {
        "passId": "441",
        "signer": "0x1fc4bb02f67B02c4Ce6a13d41f3be755dCCA5f36"
      },
      {
        "passId": "442",
        "signer": "0xB7Ef8028d7aB4c1E7f257b0746A1ef908c323eb4"
      },
      {
        "passId": "443",
        "signer": "0x71d83FdE7e3A34D1Fc47f7FDd38Feb7ccc2595a0"
      },
      {
        "passId": "444",
        "signer": "0x7B3A31a5fC025E9BB1A75f0299A177FAfC2fA710"
      },
      {
        "passId": "445",
        "signer": "0xdb826f27a17C8C79f77eB7Cd8977F21567aE427b"
      },
      {
        "passId": "446",
        "signer": "0xA09465783706Ec1c4bB78B2cFAe85c3D6fE3400b"
      },
      {
        "passId": "447",
        "signer": "0x2dc8b8A590ecEA0fa001e3C43a78beAea863AC0E"
      },
      {
        "passId": "448",
        "signer": "0xa4fFe9182Bf635FEFFCDa44dD0b9b7f1Ab3b3cB1"
      },
      {
        "passId": "449",
        "signer": "0x5457A560a0245e0cF6E32ad63D22FdF06D077BDb"
      },
      {
        "passId": "450",
        "signer": "0x6902CBE55306cA523163F6373eC8021c60B63552"
      },
      {
        "passId": "451",
        "signer": "0xe41B897cd9c78cFD55B51bA0BD898A07c435FB09"
      },
      {
        "passId": "452",
        "signer": "0xa810DE9DDF956670553Ca2B5dBca0eF9f2878bb3"
      },
      {
        "passId": "453",
        "signer": "0xd294347943dF8BFe6041b5f860dCd9A3cb0A248a"
      },
      {
        "passId": "454",
        "signer": "0x3352E012a97A993A5bc28e19123f1AcDD54a8257"
      },
      {
        "passId": "455",
        "signer": "0xF311A1A1ea8747b543bfc3Ee8D7B35a26bd9d8a9"
      },
      {
        "passId": "456",
        "signer": "0x69603A066bd783f485928b72ca89899a22e2DAF3"
      },
      {
        "passId": "457",
        "signer": "0x39CAE9F227A3ca6304bb06eFFEA0595924054Fb7"
      },
      {
        "passId": "458",
        "signer": "0x228F0D411bC4Ee9A748164Afe0D891874920519B"
      },
      {
        "passId": "459",
        "signer": "0xEaec09B04973cCD3668a3e2F6C20478c1104D3Ca"
      },
      {
        "passId": "460",
        "signer": "0x4F46FABc26b4f13507906deE98755036C2234Fa5"
      },
      {
        "passId": "461",
        "signer": "0x3672F6E74265C2c21Dc0aC421FaF5E36B9677fa6"
      },
      {
        "passId": "462",
        "signer": "0x0851a3df0aCc8c58c7e6AF43740010D9e36d1B55"
      },
      {
        "passId": "463",
        "signer": "0x65543c26aA7E18D08283E73096a76E28b94F85b2"
      },
      {
        "passId": "464",
        "signer": "0x8a3a6d41a4c13eB0e5e4fC74981109d03C1714e2"
      },
      {
        "passId": "465",
        "signer": "0x0233d3CC29610BA174d7A65347cC51c91cE1cA4c"
      },
      {
        "passId": "466",
        "signer": "0x0eC28dfe3411777DB69e5Cf1E91B73Ddb35C55BC"
      },
      {
        "passId": "467",
        "signer": "0xd47972F969dEf349947C6f50A7e744632073f3D3"
      },
      {
        "passId": "468",
        "signer": "0xD1772aD36fA3F375dd7876e3c35b7f837c5F3A39"
      },
      {
        "passId": "469",
        "signer": "0xCFa2F3369f9223DbB8886A326305E6b950543904"
      },
      {
        "passId": "470",
        "signer": "0x7b38f73eC70a290D3096B544df7CE424F632d0B0"
      },
      {
        "passId": "471",
        "signer": "0xBB2795eA5f71C70fC5fe14C0fa3ad55292e01036"
      },
      {
        "passId": "472",
        "signer": "0x9EeB43e534567c76F2ECc65568fE431e912dAad2"
      },
      {
        "passId": "473",
        "signer": "0x71FFba89BEFf693703C7BCf619af60ea8b30Eb53"
      },
      {
        "passId": "474",
        "signer": "0x4dC4477f30DB63e83A67c3A642c5273d6E7B8D67"
      },
      {
        "passId": "475",
        "signer": "0xDe817E5d574691C229b28457a0b02596acf61595"
      },
      {
        "passId": "476",
        "signer": "0x48C57cE06696f672D8D537075b25ED142522E5c6"
      },
      {
        "passId": "477",
        "signer": "0x437E3e8c1539356DB1Ce653E3c3D5E251aDA39Df"
      },
      {
        "passId": "478",
        "signer": "0x3cd79BB29B7B2c6C685Ad7fC133784489F9F6826"
      },
      {
        "passId": "479",
        "signer": "0x4c389eBFEcb52aE98ff2f2822f09a0Ca75997efa"
      },
      {
        "passId": "480",
        "signer": "0x7195C473301d6b043df7ccC1a973Bb860a8B8492"
      },
      {
        "passId": "481",
        "signer": "0x44E987F8Acb4104c29C0E9BcCc89D48EB575203A"
      },
      {
        "passId": "482",
        "signer": "0x1fA9e2741f79Dd95238c347846E5965D8073d287"
      },
      {
        "passId": "483",
        "signer": "0x86dE4e8683056750688C6D095f5a0daB4a49D4B1"
      },
      {
        "passId": "484",
        "signer": "0xa34d1F6b67285DAB4E11B2121082e523558a230B"
      },
      {
        "passId": "485",
        "signer": "0xE513ce17f3d99253ccC4E320c27Be5c1c7A98B6D"
      },
      {
        "passId": "486",
        "signer": "0x7e729778F64A2Ca107F6829558c83f0990DE84Fa"
      },
      {
        "passId": "487",
        "signer": "0x29699931FD45ac53F532CE9b31E062096feF2Ff2"
      },
      {
        "passId": "488",
        "signer": "0x29e52066042439eC431F9e6553c714845D889caB"
      },
      {
        "passId": "489",
        "signer": "0x57e533dd4cF9478372da8Ff325EEBFaBbDc894dE"
      },
      {
        "passId": "490",
        "signer": "0x9C32A488874D985630bC303863053549CAE5eA95"
      },
      {
        "passId": "491",
        "signer": "0x4b6E5CC589403fec608f54189c02cC715Ec64327"
      },
      {
        "passId": "492",
        "signer": "0x53f1E6e61190Fb7Ff9858D14e1BD07A88b631095"
      },
      {
        "passId": "493",
        "signer": "0x999331057f137e6a7A8cbd63f5b11028af6484C5"
      },
      {
        "passId": "494",
        "signer": "0xA8F3B1E06DA0E4F09fA0bc692Fa449f03648eF6E"
      },
      {
        "passId": "495",
        "signer": "0x67dc7433627Bc3b22704ce39737fE597347bdd44"
      },
      {
        "passId": "496",
        "signer": "0x282bc74078e50e868777ECA0364d84Cb38b4e1E6"
      },
      {
        "passId": "497",
        "signer": "0x237f0861b1A7D6B9B65DEDa85584268A7271eb64"
      },
      {
        "passId": "498",
        "signer": "0x80a87B8817b138607921Dab9eB2463F8EA679Eb4"
      },
      {
        "passId": "499",
        "signer": "0xDF0a5769b9784EBd532c59D3A94afF0049B4a6E9"
      },
      {
        "passId": "500",
        "signer": "0x1D310e2AcE21FE2aCB4D1e0a62832fabE3DACd4E"
      },
      {
        "passId": "501",
        "signer": "0xcD1B5091667Fec4b7701c98d88F175ec40fe0861"
      },
      {
        "passId": "502",
        "signer": "0x4eAEdf576a755DC76458672ea9C36479BD98d4B1"
      },
      {
        "passId": "503",
        "signer": "0x9D94f15FFe37F6e5F2043C28d4f48FDC2596c466"
      },
      {
        "passId": "504",
        "signer": "0x36f2Ce832f3FF862176E6df012528ef4adAb7E52"
      },
      {
        "passId": "505",
        "signer": "0xd7BC1D83F1fBd0825C96F5c8f47586B2C0f2Ba5b"
      },
      {
        "passId": "506",
        "signer": "0x0A71c3E9DE605b2EcBD163a10546B04036117b10"
      },
      {
        "passId": "507",
        "signer": "0x1330Be5aAC9f9aDa09FeecE08eD6Ffd85C895a2C"
      },
      {
        "passId": "508",
        "signer": "0x286543943599d87b4330bdD32AAbd02f629dF735"
      },
      {
        "passId": "509",
        "signer": "0x41ed5C425A71272A39E2819c525A4d7c1a44A17c"
      },
      {
        "passId": "510",
        "signer": "0xc3dD007b717336986c3d69eB7C389E27d525F841"
      },
      {
        "passId": "511",
        "signer": "0xe4fe02Ca1648E2Ec571cE18eb4e695756f793770"
      },
      {
        "passId": "512",
        "signer": "0x46bcA67bBdaf54602f6bd269f20d06be15621b17"
      },
      {
        "passId": "513",
        "signer": "0x6A8f66FB8320c76ecC819a62394d8b5fd4aBBAb6"
      },
      {
        "passId": "514",
        "signer": "0x0467B45A49b1dfe0717f3BEBb5B9371420021cAd"
      },
      {
        "passId": "515",
        "signer": "0x7BB7d4ed3c91675358Eb950f2E5967F794Ce6235"
      },
      {
        "passId": "516",
        "signer": "0x07f3ADA8f6673739f3620240109689ec53d0F185"
      },
      {
        "passId": "517",
        "signer": "0x532555C84e48bb62579B56D9bdD49A1f3135BEa9"
      },
      {
        "passId": "518",
        "signer": "0x741247aECFfC0886E7CDaA1Ac264Adf66EB965af"
      },
      {
        "passId": "519",
        "signer": "0xf705FE35E02aF637d3076C5C81E0E946c4dd78c4"
      },
      {
        "passId": "520",
        "signer": "0xb9Eb663975475752e9e70De9cc0D2543fA5fEf9d"
      },
      {
        "passId": "521",
        "signer": "0x701d99C5dBF02da376cBCAB72595a20dDad3a103"
      },
      {
        "passId": "522",
        "signer": "0xa471992f27fbD67FD0e37dC25e19346c97b4A762"
      },
      {
        "passId": "523",
        "signer": "0x7a0DF79c0EF6607f3AeF48Af710755381f8f79e5"
      },
      {
        "passId": "524",
        "signer": "0x55E256865fa03a60596e3E64d263275fb3bF0435"
      },
      {
        "passId": "525",
        "signer": "0x418a2881caEB58ff7eEA5a418215544427C61e7b"
      },
      {
        "passId": "526",
        "signer": "0x54Acf20570a418F87275c1fD17B49dde96872a05"
      },
      {
        "passId": "527",
        "signer": "0x683cB80b078bC27b984Ee7C66fB0766845B68669"
      },
      {
        "passId": "528",
        "signer": "0xcbe11B65760E8EE0B5DC484B918abe165A04672d"
      },
      {
        "passId": "529",
        "signer": "0xBaBd68b98705F9b13D07cB92CD8F1aa6F1CDF438"
      },
      {
        "passId": "530",
        "signer": "0xd72E42B6375D03b60B81c5Ef75726144F6F5FB05"
      },
      {
        "passId": "531",
        "signer": "0xD099FEd72E73d312D5E40AC73499e6fB7bee4390"
      },
      {
        "passId": "532",
        "signer": "0x11d8ddda0d236f47faD328C908111a13F24773d8"
      },
      {
        "passId": "533",
        "signer": "0xCeacB23769e3828A768BB952835C5ecACbF2262d"
      },
      {
        "passId": "534",
        "signer": "0x5561E54c50cEc380a763D20E40bd0Fc12933857E"
      },
      {
        "passId": "535",
        "signer": "0x04e5e3F668fB7c1E733db62bb8228C0Bf0b649cc"
      },
      {
        "passId": "536",
        "signer": "0x58881D6F8a3EBFdbC0E531BB617457515abE3c3A"
      },
      {
        "passId": "537",
        "signer": "0xd62644cc24Ae1C76Ec16646E1dA00742Ac4788B3"
      },
      {
        "passId": "538",
        "signer": "0xbb5B4AD3385E98FfAaF785Ef3593c5064a71CfA1"
      },
      {
        "passId": "539",
        "signer": "0x3dB58CD5e3fd8B2949451aCA9ee5DF444C6d3a2A"
      },
      {
        "passId": "540",
        "signer": "0x0Ee95E7dd08f422927B0F1Dc894184f44c20c1B7"
      },
      {
        "passId": "541",
        "signer": "0xdaFF2Aa14ED4aaB00Ec0C46E7EFEd04686D5235d"
      },
      {
        "passId": "542",
        "signer": "0x1D159907565D58A17022981599F227aDA34cC77b"
      },
      {
        "passId": "543",
        "signer": "0x87f2Bf04772275806Bf3c948650D8E49E42698F3"
      },
      {
        "passId": "544",
        "signer": "0x262aF6f57E3C404E3aBf9648Fd9D970501c1d63E"
      },
      {
        "passId": "545",
        "signer": "0xc46Fbc5515470b17403fF11BEA7EC56485757894"
      },
      {
        "passId": "546",
        "signer": "0xC700eac3b20841218B526C98eA926cFB8f78c863"
      },
      {
        "passId": "547",
        "signer": "0x832995972165F4AAbEebff886C590311c3A565e8"
      },
      {
        "passId": "548",
        "signer": "0x14EEBd64e3f35cA05d8cD6a73080A3fd5ad25Bab"
      },
      {
        "passId": "549",
        "signer": "0xB83746C6B17a346E742A74d8385f962fA9d204cE"
      },
      {
        "passId": "550",
        "signer": "0x7AbB1D3fF1692894ceee34a6f33845679C4e6539"
      },
      {
        "passId": "551",
        "signer": "0xfc40AD4f4613313a9C795BE7022eBa3650F641Ff"
      },
      {
        "passId": "552",
        "signer": "0xcE7e7e0724213a4cBEF78fA078b17df059722796"
      },
      {
        "passId": "553",
        "signer": "0xaC65ae6eFe341C85f4f66efEb188a6a36DB8F3E9"
      },
      {
        "passId": "554",
        "signer": "0x4392E09977735Ac94f5864fDCBD75408348A697A"
      },
      {
        "passId": "555",
        "signer": "0x813372cd41c58Ff02604F11481F908c29870069B"
      },
      {
        "passId": "556",
        "signer": "0xe605E84ccAB40305718a45C0F75a6CAb51EED84c"
      },
      {
        "passId": "557",
        "signer": "0x213518573d7736F5094536b8E6C47d2dF6bbF86e"
      },
      {
        "passId": "558",
        "signer": "0xD71D66C66A0e391610B38Fcf7eC158922a2ddD6e"
      },
      {
        "passId": "559",
        "signer": "0x1DF6c2Dd991e84911C6D2dBBc94C9A01420F629d"
      },
      {
        "passId": "560",
        "signer": "0x1377e35af3BBe2BA09Ca0d818Ca4aE8b7D4e62E4"
      },
      {
        "passId": "561",
        "signer": "0x8C5376F7dc4C2763970d05e17099f8D217dbFa02"
      },
      {
        "passId": "562",
        "signer": "0xd99E11739E75BC4410D29B8318E9ff20816e3fE4"
      },
      {
        "passId": "563",
        "signer": "0x867Db2D69f879c06b9A9456F1c0f73C6aFBeE7b3"
      },
      {
        "passId": "564",
        "signer": "0xa34e3F1De75DBF106496EF3027f241c3652161D0"
      },
      {
        "passId": "565",
        "signer": "0x6108056a0e073AecF0cBE9D52Ef83E3cbD5B5C91"
      },
      {
        "passId": "566",
        "signer": "0xCd4AE401e17Ec9352EB3C1842bbFcAeA0f13da30"
      },
      {
        "passId": "567",
        "signer": "0x19a4b218C240f3fe49217A833431661a6D9AA535"
      },
      {
        "passId": "568",
        "signer": "0x065550b52D4fd9Cd7BeE2165b355E582C0E03852"
      },
      {
        "passId": "569",
        "signer": "0x5c4325FACe8CaD382e0A8A6a4b73bc733E95Ab50"
      },
      {
        "passId": "570",
        "signer": "0x163d1edaEC5898bbd63473bddb3cfBe8b0Ec37Fe"
      },
      {
        "passId": "571",
        "signer": "0xDFCb674B8AaebeA7711574D2e11CaDc8107e449D"
      },
      {
        "passId": "572",
        "signer": "0x2346430BB074ACeA872156605f24520314eCFa21"
      },
      {
        "passId": "573",
        "signer": "0xB294E4D39FdeE7c7Af45a2827471C66803CdE443"
      },
      {
        "passId": "574",
        "signer": "0x8159C991d5A74b8619b0a5547dE69F4D765E308e"
      },
      {
        "passId": "575",
        "signer": "0x7769150F01e51efaFF8cD02E64D15D01B776134B"
      },
      {
        "passId": "576",
        "signer": "0x6f8f731E16fB146c6691E74Edee41A9c6fdcE172"
      },
      {
        "passId": "577",
        "signer": "0xB9451518a1802ED8D461719265982DD15C6c0a96"
      },
      {
        "passId": "578",
        "signer": "0xDCCB1a155eFE673B4A40cEF940E0618F6bC35911"
      },
      {
        "passId": "579",
        "signer": "0x00Ddfd6b89216b5B4194E9136694Fd1077e47D5a"
      },
      {
        "passId": "580",
        "signer": "0xD179aA8928f2652b7F46E3F8B125837d40CE59c6"
      },
      {
        "passId": "581",
        "signer": "0x4E16ea3b590c07DC9C661065284f28f0f7B9a4Eb"
      },
      {
        "passId": "582",
        "signer": "0x8ABF1Bc9099f2098FAc4E06661F6218492319C8F"
      },
      {
        "passId": "583",
        "signer": "0x8145741843bfd207e88235f0089962979d04c8C9"
      },
      {
        "passId": "584",
        "signer": "0x47d718c99B02874599Df63F5c82eacF3AdCCC803"
      },
      {
        "passId": "585",
        "signer": "0x9dA59A3894259f5b00e1e3E8Aa3baFC67D4AE125"
      },
      {
        "passId": "586",
        "signer": "0xe1f83d401A20a840513B97899208EfCCCcBFFB88"
      },
      {
        "passId": "587",
        "signer": "0xcB4D25d2c521d233975581558b6527C733da4825"
      },
      {
        "passId": "588",
        "signer": "0x6f2EF4f6531946Fe393198Bc608A99E368456132"
      },
      {
        "passId": "589",
        "signer": "0x310c042cF98a4221211577b73e22c966dEB6cA79"
      },
      {
        "passId": "590",
        "signer": "0xEa128D00a7838DBC7E0DaC229a42c6A61f2312bE"
      },
      {
        "passId": "591",
        "signer": "0xeAA1d858Eec6Cb4e0Bd787b50b6Fc165D59D4d63"
      },
      {
        "passId": "592",
        "signer": "0x62103aE131bCda729Ad308B4E506319B67B073AA"
      },
      {
        "passId": "593",
        "signer": "0x004E8E2Ea9faf579724AE5a4642B0a038d4D287D"
      },
      {
        "passId": "594",
        "signer": "0x4d67D4f31320BCdC5692Ef289F6BCC3259cFa407"
      },
      {
        "passId": "595",
        "signer": "0x9f374D6060328F8572cAc8Da8B60E9643Da4B3BA"
      },
      {
        "passId": "596",
        "signer": "0x3ead59cDfC93DD0D90637318b4BfE1CACaDceBce"
      },
      {
        "passId": "597",
        "signer": "0x79733A6C9dcba70D5f28986EE02722B820f9aB3a"
      },
      {
        "passId": "598",
        "signer": "0x400234bAfFC5fF7e265f9B965346789c0530C3fd"
      },
      {
        "passId": "599",
        "signer": "0x2f776e4A26f40573C6924B38A85EeaB6356775C7"
      },
      {
        "passId": "600",
        "signer": "0x693D92507736f1BD51961af95102fE8EEe6daDca"
      },
      {
        "passId": "601",
        "signer": "0x6184F373E8Fb6530796ba5017c4a4e97846057B4"
      },
      {
        "passId": "602",
        "signer": "0x0f66b1BdFef9Aa176956D6C5d2312F4372EE6329"
      },
      {
        "passId": "603",
        "signer": "0x4246E14a472de1dE30060ce46576bAf3b100d5F9"
      },
      {
        "passId": "604",
        "signer": "0xc5F9FC3F50aa950ec1B1F1c75ca421cF4a1656b8"
      },
      {
        "passId": "605",
        "signer": "0x2118fC2fe31BD8C354C5189738F65c0Cc1d3ce9e"
      },
      {
        "passId": "606",
        "signer": "0x6cA05dECCe4d15aC4F7eD5392bf2A024d9861D0e"
      },
      {
        "passId": "607",
        "signer": "0xee38df2AE0F0F4D1dF82d686Bb98ec5b80BC0E71"
      },
      {
        "passId": "608",
        "signer": "0xD4002f3e2E7AAe2B3551e4759B2B841E0b1f53E5"
      },
      {
        "passId": "609",
        "signer": "0xD86213637F10edbB6B6777E35fb6969338021460"
      },
      {
        "passId": "610",
        "signer": "0x7411657bC358708225D3aCA3c23d2e19556Bf37C"
      },
      {
        "passId": "611",
        "signer": "0xb9b33D77Be89d1DC3eC9c70A2147cFe32Ab0bd88"
      },
      {
        "passId": "612",
        "signer": "0x9C6a04B07B5475002861EfB60f9581670BfC3b32"
      },
      {
        "passId": "613",
        "signer": "0xF0AC741cd3334d8BaD9FadaE795d270bF533527f"
      },
      {
        "passId": "614",
        "signer": "0x55b54666AFC9f713001F859D93061f492aA9e4a7"
      },
      {
        "passId": "615",
        "signer": "0x4Fc2D9D583C5c7f56d9D99f713376cACFF20A133"
      },
      {
        "passId": "616",
        "signer": "0x3391B873244D3e6ca0bC0ec665415DfE941DC5eC"
      },
      {
        "passId": "617",
        "signer": "0x0089bCecC26DfbBB69d8Bc0FdfAc55d5e71707b9"
      },
      {
        "passId": "618",
        "signer": "0x2b3Ddd6B2a57227c9Cf2dC96f3D0003B0d800aED"
      },
      {
        "passId": "619",
        "signer": "0x0397A0C4dc910F7E453Bce6Ab8cb89697c3DC467"
      },
      {
        "passId": "620",
        "signer": "0x3E68ac35aDF1f2a3dD0aCE5dF36De7DBc6fb2504"
      },
      {
        "passId": "621",
        "signer": "0xAf63bad385a9c1aC0E0C5B2986dB70071c1FB6e5"
      },
      {
        "passId": "622",
        "signer": "0xE1Ac8381abdbDc4d83C3166652e68ca71761530b"
      },
      {
        "passId": "623",
        "signer": "0x65041Ba37438bE7480092756a3563782e45a895c"
      },
      {
        "passId": "624",
        "signer": "0x1542A0FC757eF48e4Beb64ee1C6493291de9c90c"
      },
      {
        "passId": "625",
        "signer": "0xCadE828BD80C6F9bbF7A8910e5288F6462088e3a"
      },
      {
        "passId": "626",
        "signer": "0x07276691667f9b4A025e8eb6A8c34E5a9e90F381"
      },
      {
        "passId": "627",
        "signer": "0xDdD50A5Fbf5bf532159174cf4bEDb9D8306fB9fa"
      },
      {
        "passId": "628",
        "signer": "0x88f962edC1051E81d1e716e186064826ad7000FB"
      },
      {
        "passId": "629",
        "signer": "0xF039b08EB6C2477c77DBbc9e6a82Aed0DD39b4e8"
      },
      {
        "passId": "630",
        "signer": "0xE6e320d81873dB99508a4404b7DCb220288E753f"
      },
      {
        "passId": "631",
        "signer": "0x24Be446cA6aBdCF41a098177679def1Db9018cc2"
      },
      {
        "passId": "632",
        "signer": "0xf930bE7c2A4ab4FcD2b53e675038990390113988"
      },
      {
        "passId": "633",
        "signer": "0x160116811Bf373aD3C1c06a23c4ee7d88c8a56fF"
      },
      {
        "passId": "634",
        "signer": "0x6dac532b46ea5A375326d2f187BA76a23521953C"
      },
      {
        "passId": "635",
        "signer": "0xEeAA53da34c35610860AFEbb36929A39822DD184"
      },
      {
        "passId": "636",
        "signer": "0x068573e6bE95f4D7a097887b77765BfFDb6827Dc"
      },
      {
        "passId": "637",
        "signer": "0xfdEB6Eac15489F0d92d9Ffea17932c409807F2f8"
      },
      {
        "passId": "638",
        "signer": "0xEFc0b825b50412fF5a2E35621958310CD2C1c1f2"
      },
      {
        "passId": "639",
        "signer": "0x0920071e72270672bE22669fFA3EEe1db190B901"
      },
      {
        "passId": "640",
        "signer": "0x82656590d0274b3570c3F8377534109649a6c237"
      },
      {
        "passId": "641",
        "signer": "0x175C2cD3F65F9cf80bcf9855D28bd41581763aA6"
      },
      {
        "passId": "642",
        "signer": "0x4137a0b795A54AFf4cd55C95E5a58AA8fA0373fE"
      },
      {
        "passId": "643",
        "signer": "0x8bBED02609F976b32ce8d9EAB3Fcd0B31619D0C1"
      },
      {
        "passId": "644",
        "signer": "0x7f017Dce2930771c45642b067067C921dD66031B"
      },
      {
        "passId": "645",
        "signer": "0xF49c4b438Cd56c03291fC9Ea51c9436521659461"
      },
      {
        "passId": "646",
        "signer": "0x52167b8c6368d299C55657A35CFF99501C0108ff"
      },
      {
        "passId": "647",
        "signer": "0x82Fe94abc83DA126bE870aD67d6C2Efa30a0121B"
      },
      {
        "passId": "648",
        "signer": "0xF3F01906E6525d6C8E18b949Ea2679337EE530e3"
      },
      {
        "passId": "649",
        "signer": "0x6468af7767013Cfc84452180f219b5fc3A3345a9"
      },
      {
        "passId": "650",
        "signer": "0x8Cc316B2B0B49271495a8ae2270D48C1a221aCc2"
      },
      {
        "passId": "651",
        "signer": "0x36e2Ee74D55C26b7B322a115017A41A851c28C78"
      },
      {
        "passId": "652",
        "signer": "0xcc3d306495b6D6d31839a6e36f14380a6f2917E8"
      },
      {
        "passId": "653",
        "signer": "0xbCa942C457Ffe7167Ad50cfd174E08AB5aA3Ff87"
      },
      {
        "passId": "654",
        "signer": "0xE0e7028086460a7Eea899Ea409ADBaD129144A13"
      },
      {
        "passId": "655",
        "signer": "0x7E879522806Cbdc7879B40FD093939131f205158"
      },
      {
        "passId": "656",
        "signer": "0x803e78DacF31eB45c2067453A382522b21565d04"
      },
      {
        "passId": "657",
        "signer": "0x6A39d442DadbD0A7F16bC52655d34D8FD71bb389"
      },
      {
        "passId": "658",
        "signer": "0x129FE2eb3EE2Ec684ADf1B6a255f9B6f51413c02"
      },
      {
        "passId": "659",
        "signer": "0x8E89B4615317B7f67eA4F2607F7Fd3115F9314e8"
      },
      {
        "passId": "660",
        "signer": "0x3447EE8cc458E15C5Ab2F963bD5C96e765fFaD2e"
      },
      {
        "passId": "661",
        "signer": "0x192E0c27e5b731800Ea02EaCE7876ce9e0300a36"
      },
      {
        "passId": "662",
        "signer": "0x7c134Ca0fAfaA28ca618217800a125E9E34ccc6F"
      },
      {
        "passId": "663",
        "signer": "0xb7125C3464d74C2BFB6e30F9a2cd7C078D80D841"
      },
      {
        "passId": "664",
        "signer": "0xA2959a48549A9cF8ACdEa50aCa8de92cA6aAe541"
      },
      {
        "passId": "665",
        "signer": "0x52A1433eFC542a82AdE16AE352c75885ecB1E0f2"
      },
      {
        "passId": "666",
        "signer": "0xbF01538cdCb3Bc23ebD3aDC7745Cb17ccc5B8380"
      },
      {
        "passId": "667",
        "signer": "0x5D0f0228a525FA52bbf228cde5C284F5A0364347"
      },
      {
        "passId": "668",
        "signer": "0x6498022626f50692de5f274c666AF26e677c0ac6"
      },
      {
        "passId": "669",
        "signer": "0xc14D774266723c4F589EF505d4aba5fAb7f00782"
      },
      {
        "passId": "670",
        "signer": "0x45faBdB1374E7235Af8a61a23AEb4c32AAaef618"
      },
      {
        "passId": "671",
        "signer": "0xB4FbD259a086d77Bb9859b2aeD45A723DD364e1B"
      },
      {
        "passId": "672",
        "signer": "0xE1c4104F8F2341c7f046Ad71beE9664db58a11d9"
      },
      {
        "passId": "673",
        "signer": "0x0330E3D7BB8238673f1b460437595c10F461943E"
      },
      {
        "passId": "674",
        "signer": "0x7dA270F187e15Da0672617b1d24b22d31839BB42"
      },
      {
        "passId": "675",
        "signer": "0xbECfD2F3218555ECA18e6E63303E0093F8381cFA"
      },
      {
        "passId": "676",
        "signer": "0x5aCDDA2975A7f3fB4aE1656FbEC08b96C083FE92"
      },
      {
        "passId": "677",
        "signer": "0x2ad53cb0aA18432D55cd678bC07247d81e8A500a"
      },
      {
        "passId": "678",
        "signer": "0x29523b22FE9E5C66943629E9cE7DBc63Ff46FF74"
      },
      {
        "passId": "679",
        "signer": "0x4e3AbeCFB534AEe9938d7095A85B2D1538b9ED0C"
      },
      {
        "passId": "680",
        "signer": "0x0C50B97B6fDa8CA997d73e2e0E928F27451Cf7c7"
      },
      {
        "passId": "681",
        "signer": "0xA817aD3cFe77673881c1d58Da840302b3a95A908"
      },
      {
        "passId": "682",
        "signer": "0x38B590B6796ECfe0008c2D8F228Df5B7f7bFc834"
      },
      {
        "passId": "683",
        "signer": "0x0Dcba9349B108a55b30dc6470fa82c5134B6F5c1"
      },
      {
        "passId": "684",
        "signer": "0xbA6d9018F2d4Dc2260A4ceadb006bE6B50207E02"
      },
      {
        "passId": "685",
        "signer": "0xf33bfbB4E1D5db6E47E8F6ba8016cd94C7dA5c66"
      },
      {
        "passId": "686",
        "signer": "0xb176e2536df3a0b1Ef4369AF8BED128E5DA73Aa1"
      },
      {
        "passId": "687",
        "signer": "0x546de3B9dF21A5281289616050d5e5Cd02510455"
      },
      {
        "passId": "688",
        "signer": "0xA074F9bFCC0814BEe7dA3dc64bA13e5B9ae0E6a4"
      },
      {
        "passId": "689",
        "signer": "0xe27A0dc0C9A7EcBBc92C0C237e9716B94d76fCfd"
      },
      {
        "passId": "690",
        "signer": "0x43aC54d64fD8F11cb54BE3E62b2060beBF729224"
      },
      {
        "passId": "691",
        "signer": "0xB97331D2AAb3C4F91Fac34136EDac3eA2B372319"
      },
      {
        "passId": "692",
        "signer": "0x2d4B1Bb59114A10d61f2a839390cBd69AD4aC375"
      },
      {
        "passId": "693",
        "signer": "0xEF7DC0Ed5A905C685c047964f85Bfc9AD4acB65D"
      },
      {
        "passId": "694",
        "signer": "0x49E7c5c9614c161d195A2103BF6D1A38438fd8ae"
      },
      {
        "passId": "695",
        "signer": "0x809F79D391ADeb207335caF6dd3dE2E612682aA9"
      },
      {
        "passId": "696",
        "signer": "0xF185Ca34d7dC64d16784E9736E0A5cc58FDA76C1"
      },
      {
        "passId": "697",
        "signer": "0xaf7c5aDD10fEaB67846e541a8a90abA16bB1DB32"
      },
      {
        "passId": "698",
        "signer": "0xBdB04f138E96a5d1b4cB7b2E77213e98Cf4aa2C7"
      },
      {
        "passId": "699",
        "signer": "0x28AA527712B62D3B6763453dA260a7d51e8f4879"
      },
      {
        "passId": "700",
        "signer": "0x9bb4De06443d1c6a90921d023C1f8a6310fF3083"
      },
      {
        "passId": "701",
        "signer": "0x533f24A7Ea799dCe25C7b33ac63038147F0190D1"
      },
      {
        "passId": "702",
        "signer": "0xAD975f0261aC35F7Cf2eA52F9010297B1C4E1D0f"
      },
      {
        "passId": "703",
        "signer": "0x93357510aAA397606DaF25678b8EE8Feb02C7a36"
      },
      {
        "passId": "704",
        "signer": "0xdCc483EFF7FD558e95cC2FA4e4750a1B554F32C4"
      },
      {
        "passId": "705",
        "signer": "0x2D093425DfD64189001F01a61898B444D15617C7"
      },
      {
        "passId": "706",
        "signer": "0x64383aEb90fcc0A4C176b292161a274564b07E07"
      },
      {
        "passId": "707",
        "signer": "0xa856e72Cb4F0499AEa9cF9B871b928414A85faEF"
      },
      {
        "passId": "708",
        "signer": "0x60281a8454a0CFF6Ae0c6698dACeB96cd3F9493b"
      },
      {
        "passId": "709",
        "signer": "0xA35AE42bC6e9522d1a24FA86844244409BedC2F1"
      },
      {
        "passId": "710",
        "signer": "0x44d9FA4579862D51fCCD9D9C014179b417975735"
      },
      {
        "passId": "711",
        "signer": "0xdE9dD0dCb684E72aA95A0246F35F9718ED305975"
      },
      {
        "passId": "712",
        "signer": "0x6AAB2FCEC26b8ddBF2f3c502A507868d4aF1354b"
      },
      {
        "passId": "713",
        "signer": "0xc96aF0A55d4b8f2e8ed8CE77214B08Ec0f68796C"
      },
      {
        "passId": "714",
        "signer": "0xaEb77321919Dd6D1310713Cd2608Cf658Dbb871C"
      },
      {
        "passId": "715",
        "signer": "0xC4d6cA7FA404D1Ac7b1C58fe7422D612ee815Ae9"
      },
      {
        "passId": "716",
        "signer": "0x7b60409897eC49Dbc9fe6e90d5bAd2AE8CEF7959"
      },
      {
        "passId": "717",
        "signer": "0x4D24e7f6445485C2Df6140c3662cc6D22906d167"
      },
      {
        "passId": "718",
        "signer": "0x2F9672c5eC503A85eBcF272749C9FFB6569bFd7f"
      },
      {
        "passId": "719",
        "signer": "0x9677a9f1a2089Abe6e7Ec202750dcA9beDE935b0"
      },
      {
        "passId": "720",
        "signer": "0x337ae963A885DD9b5Af90690d43B207b4a0A8ACD"
      },
      {
        "passId": "721",
        "signer": "0xb603c2d587e9Fb44477C428DBA5ADe494b8894F2"
      },
      {
        "passId": "722",
        "signer": "0xF881F48cB6C879AE9b3e9faBAD0e14A1D33CC746"
      },
      {
        "passId": "723",
        "signer": "0x7bD14120F73629535AaDDe1e49bB6f574De251A1"
      },
      {
        "passId": "724",
        "signer": "0xe9945AF560c96910D7c555C6D55FA51bd57D977F"
      },
      {
        "passId": "725",
        "signer": "0xC6c35471E66475286CbfaC713aB9345416420e9A"
      },
      {
        "passId": "726",
        "signer": "0xF47B250EaEE8EEc1Ecd1b493888dD1Bd71BBd6Cd"
      },
      {
        "passId": "727",
        "signer": "0x4eE7396beaab1D79851Ef9769f85233e1000ddFF"
      },
      {
        "passId": "728",
        "signer": "0xf871D32B1B5501D6118D02Eeac31a55C0fab629E"
      },
      {
        "passId": "729",
        "signer": "0x06e1D1904dFe1d517A23c2B6c02AeB248D14615A"
      },
      {
        "passId": "730",
        "signer": "0x2632A6793f97c366E47FAc017Ab74853bd5fAdf7"
      },
      {
        "passId": "731",
        "signer": "0xb2d8A531d635E004265d7b5a4171674b8b44406C"
      },
      {
        "passId": "732",
        "signer": "0x2765756593727745E0E7C8d33373f2728d2457b9"
      },
      {
        "passId": "733",
        "signer": "0x3518D970B63fa56d693450BD34Ad1C99d1db8EA1"
      },
      {
        "passId": "734",
        "signer": "0xb05C030d659Ba65cb394a0667f5A7F44dD29f461"
      },
      {
        "passId": "735",
        "signer": "0xAed180735795E9D1cCB743a02C003cf2c3cb2C75"
      },
      {
        "passId": "736",
        "signer": "0x2Ca9e06c836123f626D0Cb8F8CFD53563EFDf4b1"
      },
      {
        "passId": "737",
        "signer": "0xBfA27e0dAe7C3E404783B8Dc3aF06D116a4B48b3"
      },
      {
        "passId": "738",
        "signer": "0xAC5d257b6b3Dca2011f2ed9670C4c141c5Fe799C"
      },
      {
        "passId": "739",
        "signer": "0xE929AFAF7EFb66100050fd7af715B08Bdd548BcD"
      },
      {
        "passId": "740",
        "signer": "0x2759A867a4e2CdF2D210c266FD0AbF390f79CE6A"
      },
      {
        "passId": "741",
        "signer": "0xf4fCBDE77f07fba7173E1760832128C54339717B"
      },
      {
        "passId": "742",
        "signer": "0xE173a31491618c1dB3027a40f0fd3aEFcA13C46F"
      },
      {
        "passId": "743",
        "signer": "0x8b7dbb4825b7807F8F6cAA5B347FcBAf91b50aF4"
      },
      {
        "passId": "744",
        "signer": "0x8b85F41547A0954dB2c47FFB85eA62363DF17f66"
      },
      {
        "passId": "745",
        "signer": "0xAB97d7a2b5004f42f47CA890dA4438B6035253B5"
      },
      {
        "passId": "746",
        "signer": "0x8c20848809F3A5D3Cc0761B94E51E91dd2aB7C92"
      },
      {
        "passId": "747",
        "signer": "0xb2B8AE99608BE374813Ee5E5A3aF90fbA4EeF256"
      },
      {
        "passId": "748",
        "signer": "0x87b3F0794f92b753Bb8FB903C72207955489e4Af"
      },
      {
        "passId": "749",
        "signer": "0xf71419FDE6FF6FC1a2B571aa2E98B33a8c1B6B25"
      },
      {
        "passId": "750",
        "signer": "0x1b87F96cA92b19f77D83b557013d9efB2b67F01a"
      },
      {
        "passId": "751",
        "signer": "0xdd53DC89090c988d592f9BE02Ea36843AA8e9F2b"
      },
      {
        "passId": "752",
        "signer": "0x741d1486865F7F08Ecd25e24862FCaF131cD1F6c"
      },
      {
        "passId": "753",
        "signer": "0x2a6dD6e73E0471CcBC572d10B1B5374254851f6e"
      },
      {
        "passId": "754",
        "signer": "0x107fD88Ecd62E0Fe4753B31173dF7A1D5E87301F"
      },
      {
        "passId": "755",
        "signer": "0xe98C4267f151b78da55b4ce952eeebe32f30EFA2"
      },
      {
        "passId": "756",
        "signer": "0x38e415C5fd53d6e22f44dDB14d366ae080Ea4849"
      },
      {
        "passId": "757",
        "signer": "0x12C96D53dD62Ff9E6a30FBc0D251091e072c6fF8"
      },
      {
        "passId": "758",
        "signer": "0xA5bE5b0949e84DdC3f2C573e973609eAb2FDEF26"
      },
      {
        "passId": "759",
        "signer": "0x1681a1ECcE353102F145EaBbDf8582EcA769D0F2"
      },
      {
        "passId": "760",
        "signer": "0xDc54d545a08D6B1fB09370B74E2b4F380A6Ed5c6"
      },
      {
        "passId": "761",
        "signer": "0x2a34f489fF9c0f2D00A31e43A5960c6c2c3da912"
      },
      {
        "passId": "762",
        "signer": "0xF311f136089E7FA878dd35D50711207120Ad175D"
      },
      {
        "passId": "763",
        "signer": "0xb57BC319aCf8543362F6cfc0DdeD9A76001c13d0"
      },
      {
        "passId": "764",
        "signer": "0xf828DD71cd8dfE9341C03f5A47BE7578E8FAF199"
      },
      {
        "passId": "765",
        "signer": "0x0aD3f9C5e8f734A18f2bcABEF49Cd4dc290e666e"
      },
      {
        "passId": "766",
        "signer": "0x87efd54f0bd6644c2193c365F2FB10d693b15C6a"
      },
      {
        "passId": "767",
        "signer": "0x06035444F7B31A493a5d67a6429c4fE91c7a280b"
      },
      {
        "passId": "768",
        "signer": "0xEbBa0DC19E827d438191cB6A569EA6a1278c8a78"
      },
      {
        "passId": "769",
        "signer": "0x07E040f0ed08f466838AaBd71F3F2106723Ee92b"
      },
      {
        "passId": "770",
        "signer": "0x37d1040c1738a9C5F6fE1C297BC8B5C52d35fD27"
      },
      {
        "passId": "771",
        "signer": "0x79611ac64f273548ddC6414cd23fBe9a3571CcCF"
      },
      {
        "passId": "772",
        "signer": "0xd0Ce4EAdE3606d114F4e3327B387f30a4DDa2D32"
      },
      {
        "passId": "773",
        "signer": "0xa3896Dc9FC80460D82C96B5AE2732372bF958e01"
      },
      {
        "passId": "774",
        "signer": "0x3689484F58bff7297F2ADF8F39acd35081Af50F8"
      },
      {
        "passId": "775",
        "signer": "0x472A4235389aDAFa2C84245fbbafE7fbE9A69959"
      },
      {
        "passId": "776",
        "signer": "0x59e4C07437e9b1CaB2BFa53383b8034064E5297E"
      },
      {
        "passId": "777",
        "signer": "0x0C437BB0b3211ec153086D24A5cddA9d5e15b407"
      },
      {
        "passId": "778",
        "signer": "0x9f91d9574D965686f604719D2724F46aA4d0f264"
      },
      {
        "passId": "779",
        "signer": "0x439b09324c6b8de8618BC64dEd5D3E4Cb20A628f"
      },
      {
        "passId": "780",
        "signer": "0xC4b514127b8683B90b81A818352cc58e01feBD0a"
      },
      {
        "passId": "781",
        "signer": "0x919b4e7C52653cCe5CB33bE0f6070f4425119b82"
      },
      {
        "passId": "782",
        "signer": "0x4C3f9bd993018c35eA92a504576E6Dc3732b7C10"
      },
      {
        "passId": "783",
        "signer": "0x111BA658341f3828609C00D24d46E0cc2C926341"
      },
      {
        "passId": "784",
        "signer": "0xA1854D5588600437c26D47B8ec75B4B31FA13cf2"
      },
      {
        "passId": "785",
        "signer": "0xccF9322BF1b473c459D3E1635012c17B79856f75"
      },
      {
        "passId": "786",
        "signer": "0x5F7a194Ca57469d7ff3Cc4302fc9a9a648381A48"
      },
      {
        "passId": "787",
        "signer": "0x649d8a3f87fe9Fdc3f8bddfE65bb124Be9EB701B"
      },
      {
        "passId": "788",
        "signer": "0x528A286797618E307D77d58BEE8eF68C6F915817"
      },
      {
        "passId": "789",
        "signer": "0x2D88665554276e3DB1c3963E782136547497014E"
      },
      {
        "passId": "790",
        "signer": "0x0CA91Fe2235a97ee7F8acE976ee8b8E3903c276b"
      },
      {
        "passId": "791",
        "signer": "0xf062FeF1874acE9A4dCc9c8F2A38500e49dd1E21"
      },
      {
        "passId": "792",
        "signer": "0xc0C1D35Db6Be5FAfe3faa9Dcf8BBE73eF1aB0246"
      },
      {
        "passId": "793",
        "signer": "0x8F7AF8f3c2bd1CCC1E26155f76dBCB24F317a877"
      },
      {
        "passId": "794",
        "signer": "0x24805ef06D5106e9509B5A7EB0339d9DC4a82637"
      },
      {
        "passId": "795",
        "signer": "0x3562f8737Dc25579B3876Db8FcCb32b8307DbA91"
      },
      {
        "passId": "796",
        "signer": "0x7c71A69D173c9fEEE332cDe89d7099A29618593A"
      },
      {
        "passId": "797",
        "signer": "0xb35F79BE10883ea9d50E5e5d2d6B038db0f18fb9"
      },
      {
        "passId": "798",
        "signer": "0x165673cA41D5C8A79329cc86007051DdE2448BC3"
      },
      {
        "passId": "799",
        "signer": "0x7e5f65FEf59dfFD099e963BA10a251Ca6c6F668d"
      },
      {
        "passId": "800",
        "signer": "0x3098Ef1151F6071664dC8964208B4cabdE3bbcce"
      },
      {
        "passId": "801",
        "signer": "0x300d3BCB17C3C435dEaC45880924D31789090D83"
      },
      {
        "passId": "802",
        "signer": "0x84eE27EaD4DD76C7Aa437d3Ded91514Ba0731BCf"
      },
      {
        "passId": "803",
        "signer": "0x2EEA5B74D714A94D5C92cDdb477265d8d15a3eC5"
      },
      {
        "passId": "804",
        "signer": "0xB2284B5B75FAA63850979022626b320363CC32B6"
      },
      {
        "passId": "805",
        "signer": "0x78c401fA6D5b6944c374f39617b486D2f1371394"
      },
      {
        "passId": "806",
        "signer": "0xB3cCbb155C267A996d7B7E7F9b3B5ED316103d19"
      },
      {
        "passId": "807",
        "signer": "0x45e406D2f5aAEDc49d568ec84e1Fd6E7b7aa68A4"
      },
      {
        "passId": "808",
        "signer": "0x866Aa524b5Bb8850F9d9D90F5195712206a5E462"
      },
      {
        "passId": "809",
        "signer": "0x3d654F8c313e5c7cAC0cd8ebdd836776e37CD09c"
      },
      {
        "passId": "810",
        "signer": "0x9A7Ba6b5a324a4a8b4392770B6339E5811953AA1"
      },
      {
        "passId": "811",
        "signer": "0x580716b07fE096ec42815F46AaA771539330A3a9"
      },
      {
        "passId": "812",
        "signer": "0xad222D329d7260a1E0242c637f4eb949C92aada8"
      },
      {
        "passId": "813",
        "signer": "0xa09D2fa87aC7358a83FdeA41743e9BC38e3dc613"
      },
      {
        "passId": "814",
        "signer": "0xAc27ecEe90f3EAE806a94A2dB913F7E44dF38190"
      },
      {
        "passId": "815",
        "signer": "0x000000000000000000000000000000000000dead"
      },
      {
        "passId": "816",
        "signer": "0x000001f568875f378bf6d170b790967fe429c81a"
      },
      {
        "passId": "817",
        "signer": "0x0078c86e12186e2de1ff6fef5f1ada2bffde4ea5"
      },
      {
        "passId": "818",
        "signer": "0x024f1f8b3789bfdf9edb47f58a0d7a3afeaea804"
      },
      {
        "passId": "819",
        "signer": "0x049808d5eaa90a2665b9703d2246dded34f1eb73"
      },
      {
        "passId": "820",
        "signer": "0x05e8074088797c1f9057febf374deee0bc38e894"
      },
      {
        "passId": "821",
        "signer": "0x05ea539365d91df315e8ddd736e90431696fe8c4"
      },
      {
        "passId": "822",
        "signer": "0x09280340849e66948149804cac539cc7227512be"
      },
      {
        "passId": "823",
        "signer": "0x0946bc5c2f9848665cc3811458de403d0a78ad8e"
      },
      {
        "passId": "824",
        "signer": "0x0985224a811e65c235dbf4a2c2117712aabe4e39"
      },
      {
        "passId": "825",
        "signer": "0x0d0aca99686fced8e6fb39134aaed96f09b5283c"
      },
      {
        "passId": "826",
        "signer": "0x0d94b6e4c2aa9383964986020b3534d34885f700"
      },
      {
        "passId": "827",
        "signer": "0x0dd544d0da95666d7c3d38460feb4b5f25eaa515"
      },
      {
        "passId": "828",
        "signer": "0x0ea59c05be4b7149aaed26be764b618ac0255643"
      },
      {
        "passId": "829",
        "signer": "0x10b28ee04853bdd30d1fd7b302fbe5691c144aa0"
      },
      {
        "passId": "830",
        "signer": "0x10f6c58b9dc9603cb24ee9a5220bb4a470781676"
      },
      {
        "passId": "831",
        "signer": "0x12579783fbe8c2645d7a634b238da748405975a2"
      },
      {
        "passId": "832",
        "signer": "0x136c65a3f31682fcf683906ddbf3c76db2633f99"
      },
      {
        "passId": "833",
        "signer": "0x139d9a36ff2b6bfb8558dfbc22486da48c77a396"
      },
      {
        "passId": "834",
        "signer": "0x13b3a50f3947476eda74fe191344524e2d2d28e5"
      },
      {
        "passId": "835",
        "signer": "0x13e46ccd194ca86212236543d2e7376b00bafa42"
      },
      {
        "passId": "836",
        "signer": "0x1423fcc74da82fa03d70fa1f7a122db1ba231783"
      },
      {
        "passId": "837",
        "signer": "0x1436dbffbdde71d16a2c4d23f9116c3158c4d984"
      },
      {
        "passId": "838",
        "signer": "0x1527fa3a0778d574adfe714b7e60c7b2a1bf7c29"
      },
      {
        "passId": "839",
        "signer": "0x1974341df4b113a4c16f3d3f106176dec0e4da67"
      },
      {
        "passId": "840",
        "signer": "0x1c062628943a930b805849b494719c7d23c77bd5"
      },
      {
        "passId": "841",
        "signer": "0x1ec9503bbdad721ef3ad485b4b14ce0671dc9925"
      },
      {
        "passId": "842",
        "signer": "0x21c5edc237e95049f92059af6a571fdb700f2b82"
      },
      {
        "passId": "843",
        "signer": "0x2224acd07fd9b269ab5200a9a3df8062624deefb"
      },
      {
        "passId": "844",
        "signer": "0x230eb64900d027dfe372786b3342bd6178ec37d1"
      },
      {
        "passId": "845",
        "signer": "0x273c25abd33eca095e228fde0f15e8f7ec4eb4d9"
      },
      {
        "passId": "846",
        "signer": "0x27d9b6692ec1fb802cc8ceef74270ca4b448076a"
      },
      {
        "passId": "847",
        "signer": "0x290420874bf65691b98b67d042c06bbc31f85f11"
      },
      {
        "passId": "848",
        "signer": "0x2993db31d165c33d848e44a1c26a805ba411d324"
      },
      {
        "passId": "849",
        "signer": "0x2d2c46d26c8fec693586e067c4fc2b2ddc2b4cb3"
      },
      {
        "passId": "850",
        "signer": "0x2d79097b9e4c4f41654b2c91c39fd2c97af00c76"
      },
      {
        "passId": "851",
        "signer": "0x2de2299db048a9e3b8d1934b8dae11b8041cc4fd"
      },
      {
        "passId": "852",
        "signer": "0x2e50783188e23742dd3168682e39381ff5fa9731"
      },
      {
        "passId": "853",
        "signer": "0x2e699391d1b3b8577557b4c0ef6a1d9e8a394f04"
      },
      {
        "passId": "854",
        "signer": "0x308bff328370fc4a9683ab9fcd79a21be6dc5ee4"
      },
      {
        "passId": "855",
        "signer": "0x342c6bfa287ce37b8b53eee0e5b6e6bcbea98c76"
      },
      {
        "passId": "856",
        "signer": "0x362f020fd4420c317e7a0722994ba8bc3380d0e8"
      },
      {
        "passId": "857",
        "signer": "0x3668a20653316a7dd85342f64a4c984d146cadfe"
      },
      {
        "passId": "858",
        "signer": "0x37b699d7eead58433d352d1c77b2db1391f11ce5"
      },
      {
        "passId": "859",
        "signer": "0x3ad353e2845b96fb1b58c1ca6cda46b870de8d6f"
      },
      {
        "passId": "860",
        "signer": "0x3d14410609731ec7924ea8b1f13de544bb46a9a6"
      },
      {
        "passId": "861",
        "signer": "0x4011d09a86d0aca8377a4a8bad691f1aceecd672"
      },
      {
        "passId": "862",
        "signer": "0x41a7276167b80da8815df5b0ddaba3be29984250"
      },
      {
        "passId": "863",
        "signer": "0x44dc2ec15b3483fc8590f6b396cea5f8f2fbf3bd"
      },
      {
        "passId": "864",
        "signer": "0x4530307f98208d3bd5b9631880bc7351770c8810"
      },
      {
        "passId": "865",
        "signer": "0x4a1d757699ab73dd4b48b15049b6f1479b2f3511"
      },
      {
        "passId": "866",
        "signer": "0x4b0bd713574e67a97b3ff8f647f329794a2cbb64"
      },
      {
        "passId": "867",
        "signer": "0x4d03a186b3c7d039ff9a212cd8e81dc34a670b35"
      },
      {
        "passId": "868",
        "signer": "0x4de4a829d42191007431d608775430f3ab072082"
      },
      {
        "passId": "869",
        "signer": "0x4e012d25472225f3385baa43ed64dfec5885c51d"
      },
      {
        "passId": "870",
        "signer": "0x4ffb72b66eba24521736924f87dfe10677d82286"
      },
      {
        "passId": "871",
        "signer": "0x50f27cdb650879a41fb07038bf2b818845c20e17"
      },
      {
        "passId": "872",
        "signer": "0x5285ac85a979b612f5c5320961311bba099670f0"
      },
      {
        "passId": "873",
        "signer": "0x530cf036ed4fa58f7301a9c788c9806624cefd19"
      },
      {
        "passId": "874",
        "signer": "0x5310a9b64847c1b927f823a4bc8836e93f09dc78"
      },
      {
        "passId": "875",
        "signer": "0x54463aae905082c678708bb6c25226eb8f38d5a6"
      },
      {
        "passId": "876",
        "signer": "0x562bf1b67dc40d9b7c3ddd49e45ae58e61e1b76e"
      },
      {
        "passId": "877",
        "signer": "0x568b491fb2b4b9440f6d05e7723df0060fdaef1c"
      },
      {
        "passId": "878",
        "signer": "0x5a016b206d0314c7ec641c3a6fd89dac7fea010e"
      },
      {
        "passId": "879",
        "signer": "0x5b158f897f5ace2afefaf7ace8ce0cdbbbc9168a"
      },
      {
        "passId": "880",
        "signer": "0x5ba02f4ff6af1d9d2af8774d10fd32eb57d4e2e6"
      },
      {
        "passId": "881",
        "signer": "0x5bd685375c21375165438ca7f3eae7ec4fade8c5"
      },
      {
        "passId": "882",
        "signer": "0x5d9e720a1c16b98ab897165803c4d96e8060b8e4"
      },
      {
        "passId": "883",
        "signer": "0x5e01d9928ea32d1d3ae2f3263b6ec6c165dc2d76"
      },
      {
        "passId": "884",
        "signer": "0x5ee42438d0d8fc399c94ef3543665e993e847b49"
      },
      {
        "passId": "885",
        "signer": "0x5f8e56d7f3642dd8783774460da2d3a7c54aacda"
      },
      {
        "passId": "886",
        "signer": "0x5fb8b9512684d451d4e585a1a0aabfb48a253c67"
      },
      {
        "passId": "887",
        "signer": "0x6186290b28d511bff971631c916244a9fc539cfe"
      },
      {
        "passId": "888",
        "signer": "0x62f099a34f01d57c67a100851184bea0d48b45f6"
      },
      {
        "passId": "889",
        "signer": "0x63244b5f1ebcb999ea012da652dffee6653bf8f5"
      },
      {
        "passId": "890",
        "signer": "0x64e00561fa9b1f2f2048b2d4f571279689dd9541"
      },
      {
        "passId": "891",
        "signer": "0x65565244e5700b85c90358468faf37c85db55099"
      },
      {
        "passId": "892",
        "signer": "0x6584b48ccebd9c3e4413a1dd4cdbc38b2500cdf3"
      },
      {
        "passId": "893",
        "signer": "0x65d88c64b01b9481352fa8a68b54ed1b3b687388"
      },
      {
        "passId": "894",
        "signer": "0x663d3947f03ef5b387992b880ac85940057c13e3"
      },
      {
        "passId": "895",
        "signer": "0x67c3097a968db89610825976ec9a5976a966c044"
      },
      {
        "passId": "896",
        "signer": "0x68016f094ebb7b55b04372af335455854b0e2eb6"
      },
      {
        "passId": "897",
        "signer": "0x6854dc5c9e3d3ce0b9dd7250d866908515465dc6"
      },
      {
        "passId": "898",
        "signer": "0x686e960ebd9aceb1771850444d4d3a7810a0dac9"
      },
      {
        "passId": "899",
        "signer": "0x6d7fd0438219c0f753a1ccf7c4885bb6cb260999"
      },
      {
        "passId": "900",
        "signer": "0x704c978d50590b21e4c2f43eb4da24fe61fcd707"
      },
      {
        "passId": "901",
        "signer": "0x73e60cd967e957bc6e074f93320ffa1d52697d5b"
      },
      {
        "passId": "902",
        "signer": "0x75331ebbe0b00b97cab532384f13c9b479f074ec"
      },
      {
        "passId": "903",
        "signer": "0x75ef2eff7b12f5f900ef5c787036deab18423d1a"
      },
      {
        "passId": "904",
        "signer": "0x78885686feec340ab544428f161e7d621f520e29"
      },
      {
        "passId": "905",
        "signer": "0x79bebfcb560141f22959c62bbd2930d5c7e35d30"
      },
      {
        "passId": "906",
        "signer": "0x79fd2f15e0ea8c27b5192259f9da63f4e562f021"
      },
      {
        "passId": "907",
        "signer": "0x7a824bea2bed9399a68cd0e340224809521c81d9"
      },
      {
        "passId": "908",
        "signer": "0x7d6a8ffcaf98cac58340329b3a91759888cb1363"
      },
      {
        "passId": "909",
        "signer": "0x7e7a55b11dd9a02b4da169620adfc36b930100fc"
      },
      {
        "passId": "910",
        "signer": "0x80d0d54050c15971b21e877d95441800f5aa9ee8"
      },
      {
        "passId": "911",
        "signer": "0x8177598e08ee8199c160a48c7a0af31ab54bb59f"
      },
      {
        "passId": "912",
        "signer": "0x82410609593d876761681580cf304c794bd58d09"
      },
      {
        "passId": "913",
        "signer": "0x826f63afd9517364cbebe91a859f10b102505a40"
      },
      {
        "passId": "914",
        "signer": "0x836ef81a58e5565b8d1d555ec8e9a5c2792511c6"
      },
      {
        "passId": "915",
        "signer": "0x83d3c179e7906e7f6755658c70e106f1ed3c5782"
      },
      {
        "passId": "916",
        "signer": "0x84eeb7db3f93feb5a8a98f56dabb970a6797c187"
      },
      {
        "passId": "917",
        "signer": "0x865c2f85c9fea1c6ac7f53de07554d68cb92ed88"
      },
      {
        "passId": "918",
        "signer": "0x8725be0bb6ea759d10fbb52fedecc7dcd6890072"
      },
      {
        "passId": "919",
        "signer": "0x87dfef3b445667292aac89078b51f0f75795805f"
      },
      {
        "passId": "920",
        "signer": "0x88906af7616f88f610d1e479325a5c5f93ba1e2c"
      },
      {
        "passId": "921",
        "signer": "0x8a53b8b59877df193c6dae7b8d1d38251af563cf"
      },
      {
        "passId": "922",
        "signer": "0x8b5e90aa714c967efc8c286f46ce0fc822e1cfb0"
      },
      {
        "passId": "923",
        "signer": "0x8c0c3c60118b24b31806eae82ab4186821bf23f1"
      },
      {
        "passId": "924",
        "signer": "0x8c2e67bd3d0f432ef75d9ae6623cd0dfbce66050"
      },
      {
        "passId": "925",
        "signer": "0x8dc9d43df20681cd62ca0acb24ae7ce2794f835d"
      },
      {
        "passId": "926",
        "signer": "0x8df55ecf2c261b44d079302dc95327fe32f74eed"
      },
      {
        "passId": "927",
        "signer": "0x8ebbf8f59b7b7849e359f7e1cc395df6741c24b9"
      },
      {
        "passId": "928",
        "signer": "0x92e7faa1c7b1cf703e3cda42183978f16fa15713"
      },
      {
        "passId": "929",
        "signer": "0x932a824a4d3d0680e0b352de150e6f212b8ac841"
      },
      {
        "passId": "930",
        "signer": "0x95a4350e1cb5e795d3ebe8bee63d9183de5449d1"
      },
      {
        "passId": "931",
        "signer": "0x96dc89dbe84970ee42a2f0b35fb50599e6745ff8"
      },
      {
        "passId": "932",
        "signer": "0x975ab68d4c15d6db02e101d5be03c5b49b9a3282"
      },
      {
        "passId": "933",
        "signer": "0x9de0b0402258a6a562331da7b3c13b29578789c4"
      },
      {
        "passId": "934",
        "signer": "0x9fc6d6c7326585fd3c2a743a1f505990d6e9df3f"
      },
      {
        "passId": "935",
        "signer": "0xa0863e36c30f4974a3a0e2cfc2802513cfaa22f1"
      },
      {
        "passId": "936",
        "signer": "0xa0a6dc36041fb386378458006fecbddd02555ddd"
      },
      {
        "passId": "937",
        "signer": "0xa0d71d516c6149c958c489ab24223c99f5df906f"
      },
      {
        "passId": "938",
        "signer": "0xa0f838d02983161ee469bff969964b7051ac1cd9"
      },
      {
        "passId": "939",
        "signer": "0xa596370bc21dee36872b98009dfbbf465dbfefa3"
      },
      {
        "passId": "940",
        "signer": "0xa5975974cac3fefd831e42bdd2fe84cb5ee3b3de"
      },
      {
        "passId": "941",
        "signer": "0xa6157b7bb7ec05e2b6feafd686797f9ea05411cc"
      },
      {
        "passId": "942",
        "signer": "0xa6f4fa9840aa6825446c820af6d5eccf9f78ba05"
      },
      {
        "passId": "943",
        "signer": "0xa77d9227eee861e01519548b6000acca8600eebe"
      },
      {
        "passId": "944",
        "signer": "0xa7d9f4fd84cdd4bee564adc1b18e3e8aa79d25f1"
      },
      {
        "passId": "945",
        "signer": "0xa88e4a192f3ff5e46dcc96efefb38dfec7bb250c"
      },
      {
        "passId": "946",
        "signer": "0xab2f02d8d409ee4f67fdda5aac5ca7a64a897271"
      },
      {
        "passId": "947",
        "signer": "0xac75cdc34283406b050cadf4ea5902a9310b138e"
      },
      {
        "passId": "948",
        "signer": "0xad9f9194c68bd83250a534a7da574687e1f102ff"
      },
      {
        "passId": "949",
        "signer": "0xae8ce6bb2b95684f57c097b407f4e9b55d9ca432"
      },
      {
        "passId": "950",
        "signer": "0xaee2f40fe0568bd859bc6a518c7ef3252fdc9bf0"
      },
      {
        "passId": "951",
        "signer": "0xaf5cb828389bd6413e7bcd00ed2dcf2bdc1a015a"
      },
      {
        "passId": "952",
        "signer": "0xaf8fbf59e221d27b55dc3adc2366f9230bcf5096"
      },
      {
        "passId": "953",
        "signer": "0xb29b1936c11b77cec6061a9daf765ee2666c8f77"
      },
      {
        "passId": "954",
        "signer": "0xb347b5b99c49ce6c555071a1f0498c81511ad977"
      },
      {
        "passId": "955",
        "signer": "0xb3522064694ac9870dbf00eebc2712762193bb64"
      },
      {
        "passId": "956",
        "signer": "0xb353268ce17d2c7f0f4f8aff152e548c43633df5"
      },
      {
        "passId": "957",
        "signer": "0xb66190f67ed8f0ca790ddfe541ee1bd0da53fe70"
      },
      {
        "passId": "958",
        "signer": "0xb74e4d1592dad73f3745f57605580108ebaedad5"
      },
      {
        "passId": "959",
        "signer": "0xb7f9f538aa1b41ae2853eb63f1939187ffe70eb4"
      },
      {
        "passId": "960",
        "signer": "0xbb46c6e4d8a59520fbb11638c2d1228cc65f5a6c"
      },
      {
        "passId": "961",
        "signer": "0xbc10a3ae909b1b94f4c3e39607ad19d386dce32a"
      },
      {
        "passId": "962",
        "signer": "0xbd12aa424c207e90b66402c1f0aec357e8b1ded7"
      },
      {
        "passId": "963",
        "signer": "0xbe5be517537e53f09e88bcdf61da238477dca226"
      },
      {
        "passId": "964",
        "signer": "0xbeeef66749b64afe43bbc9475635eb510cfe4922"
      },
      {
        "passId": "965",
        "signer": "0xbf1ed1ea654ad49472daedc21a31c8d28e6bb790"
      },
      {
        "passId": "966",
        "signer": "0xbf27384febdc054bbd7e388761919e7d98f7da0c"
      },
      {
        "passId": "967",
        "signer": "0xbfdb50dc66c8df9fd9688d8fe5a0c34126427645"
      },
      {
        "passId": "968",
        "signer": "0xc09d3402515676b81a2f768c365146ea3faa5605"
      },
      {
        "passId": "969",
        "signer": "0xc0e5e14bdecd9ed6954a9e14c74e97cebd91bb94"
      },
      {
        "passId": "970",
        "signer": "0xc169699a825066f2f07e0b29c4082094b32a3f3e"
      },
      {
        "passId": "971",
        "signer": "0xc3a67c1437353bdc9c53060235a34018711de0cf"
      },
      {
        "passId": "972",
        "signer": "0xc42c694d0215b27bce1a871a4a2ad38cf0120a82"
      },
      {
        "passId": "973",
        "signer": "0xc555347d2b369b074be94fe6f7ae9ab43966b884"
      },
      {
        "passId": "974",
        "signer": "0xc665a60f22dda926b920deb8ffac0ef9d8a17460"
      },
      {
        "passId": "975",
        "signer": "0xc8286a9bf1f9bf8f3006fa014915c78b7e75111c"
      },
      {
        "passId": "976",
        "signer": "0xc8bace82793074fad3337424bdb84e306b2f8a44"
      },
      {
        "passId": "977",
        "signer": "0xc9a009bed9ed8a32499e18c20f7cd12132c8d6cb"
      },
      {
        "passId": "978",
        "signer": "0xca11d10ceb098f597a0cab28117fc3465991a63c"
      },
      {
        "passId": "979",
        "signer": "0xcbd2f544073eb35b59a8eb19194a222a5361cd74"
      },
      {
        "passId": "980",
        "signer": "0xcda685c8444f659ac3fe778f8d143aabdf1a21ab"
      },
      {
        "passId": "981",
        "signer": "0xcea78aaa93e917fb5e1802901db2b20aa4411b44"
      },
      {
        "passId": "982",
        "signer": "0xcef871b113d2bb5d3fa5dc96d2d288dd38082aae"
      },
      {
        "passId": "983",
        "signer": "0xcf680fb77c12e2aa2dec82f3ae0c0e527f549fe2"
      },
      {
        "passId": "984",
        "signer": "0xd1eddfcc4596cc8bd0bd7495beab9b979fc50336"
      },
      {
        "passId": "985",
        "signer": "0xd3e64b9dea13e4840a0da20965bd0ca37d05a12a"
      },
      {
        "passId": "986",
        "signer": "0xd651e2c626ee210fc38676124d5007ac822ad749"
      },
      {
        "passId": "987",
        "signer": "0xd657860fc512ec2250a7385a353f599e3276fddb"
      },
      {
        "passId": "988",
        "signer": "0xd6e02c13a6cc133c9d019495414667ea7bee05cc"
      },
      {
        "passId": "989",
        "signer": "0xdc190d7cea8e8bf0b381617062200c10cfff0a91"
      },
      {
        "passId": "990",
        "signer": "0xdd6c81d6d587e2d49eaadffb4ce380564046002a"
      },
      {
        "passId": "991",
        "signer": "0xddb92a96054132801cae3943b2f966fc2c308ac8"
      },
      {
        "passId": "992",
        "signer": "0xdde3ca351d85a4b4cc6aff8d42c0840959859053"
      },
      {
        "passId": "993",
        "signer": "0xe00a3ab72b29eb4ac2695221f62cdf872cb5d483"
      },
      {
        "passId": "994",
        "signer": "0xe120ed22a0cd12d5de6122aa7d5b6d93ac218b49"
      },
      {
        "passId": "995",
        "signer": "0xe20adb03a470b5573bf572dd918e052d0d17866e"
      },
      {
        "passId": "996",
        "signer": "0xe363c2fba75cbd27487b17430e1efbdd2add374e"
      },
      {
        "passId": "997",
        "signer": "0xe5a3d77d7788a83f3549dd7f08fc2aced7e262d2"
      },
      {
        "passId": "998",
        "signer": "0xe66e1e9e37e4e148b21eb22001431818e980d060"
      },
      {
        "passId": "999",
        "signer": "0xe7bd51dc30d4bdc9fddd42ea7c0a283590c9d416"
      },
      {
        "passId": "1000",
        "signer": "0xeb42cd8a1fe1ff556960a9a03ca29aa13f8aa838"
      },
      {
        "passId": "1001",
        "signer": "0xed0f30677c760ea8f0bff70c76eafc79d5f7c3c8"
      },
      {
        "passId": "1002",
        "signer": "0xeddd55a234240042695d7430bf0a09b9038a26ad"
      },
      {
        "passId": "1003",
        "signer": "0xee4d308cc1cde3dd0adcb5a2c85edff22db64918"
      },
      {
        "passId": "1004",
        "signer": "0xee9439a12a7c2a9b6600ca8a498620580d2f116e"
      },
      {
        "passId": "1005",
        "signer": "0xeeaf61935c0c48f8f8cc28c381683d7fa2f75e1c"
      },
      {
        "passId": "1006",
        "signer": "0xef1271ae97bc1a1b356ab697e9ed0d1d4e05fcda"
      },
      {
        "passId": "1007",
        "signer": "0xf19bc58f747d6ea11959bf2a0fa81e53285546ac"
      },
      {
        "passId": "1008",
        "signer": "0xf1e1c701b49b1dc2405a9e8ef40f9f88802b80fa"
      },
      {
        "passId": "1009",
        "signer": "0xf2b15320db6992ba49a7563e50e888c20edcbe3c"
      },
      {
        "passId": "1010",
        "signer": "0xf341c3abb49feb96b4822e68227b54c6fb9f6318"
      },
      {
        "passId": "1011",
        "signer": "0xf3493f6812b1f22b40f8539db2510e13ac251f96"
      },
      {
        "passId": "1012",
        "signer": "0xf3b1b6e83be4d55695f1d30ac3d307d9d5ca98ff"
      },
      {
        "passId": "1013",
        "signer": "0xf464d1a37d8ef9449722f44a4eeb715c0e0acdb3"
      },
      {
        "passId": "1014",
        "signer": "0xf6910d47fbb1f5518d60c721d4189936ecd5a1b6"
      },
      {
        "passId": "1015",
        "signer": "0xf73c935815908ad9a056fc50269f95d8ba032e9d"
      },
      {
        "passId": "1016",
        "signer": "0xf78cd306b23031de9e739a5bcde61764e82ad5ef"
      },
      {
        "passId": "1017",
        "signer": "0xf942040710bedf7220beb24b220631c2255e87f1"
      },
      {
        "passId": "1018",
        "signer": "0xf943e1d2db38db468f66a79b08ec23f8c4375ce3"
      },
      {
        "passId": "1019",
        "signer": "0xfa46dedf812c5803b1e2cea10eef3f27dafeca56"
      },
      {
        "passId": "1020",
        "signer": "0xfa9f104f338846b38b083c9e567ff6bbe43ab5f7"
      },
      {
        "passId": "1021",
        "signer": "0xfd12799b9fb97dc61d9ad7ad4ffba5624004bc62"
      },
      {
        "passId": "1022",
        "signer": "0xfe1e7dc61721f34a25c9eb4dc1a1a8f352c923ef"
      },
      {
        "passId": "1023",
        "signer": "0xfffff6e70842330948ca47254f2be673b1cb0db7"
      }
    ],
    "startTime": 1638120705,
    "publicSaleTimestamp": 1638379905,
    "percentageForCreator": 2500,
    "price": "100000000000000000"
  },
  "solcInputHash": "e51401ff8f31b15585d9d1fdfeccfeec",
  "bytecode": "0x6101a06040523480156200001257600080fd5b506040516200210138038062002101833981016040819052620000359162000091565b6001600160a01b03998a1660805292891660a05260c09190915290961660e05261010094909452610120929092526101405261016052610180526000556200012c565b6001600160a01b03811681146200008e57600080fd5b50565b6000806000806000806000806000806101408b8d031215620000b257600080fd5b8a51620000bf8162000078565b809a505060208b0151985060408b0151975060608b0151965060808b0151955060a08b0151945060c08b0151620000f68162000078565b60e08c01516101008d01519195509350620001118162000078565b809250506101208b015190509295989b9194979a5092959850565b60805160a05160c05160e0516101005161012051610140516101605161018051611edf62000222600039600081816101bd01528181610c050152610e2e015260008181610197015281816102dc015281816104110152818161051f01528181610be2015261103701526000818161016f01528181610bbf015261105f01526000818161014901528181610b9c0152610e5501526000818161012601528181610b7901526110850152600061159e0152600081816114ac01526114da0152600081816105cd015281816107fd015261152601526000818161078501528181610a0d01528181610aaa01526111a90152611edf6000f3fe6080604052600436106100b15760003560e01c80639c20551311610069578063d93459b61161004e578063d93459b61461023c578063e957a3811461025c578063f19b57c21461027c57600080fd5b80639c20551314610209578063ca9dca041461021c57600080fd5b80637361a72e1161009a5780637361a72e1461010057806381059f7814610113578063990b0f60146101e957600080fd5b80632228adcc146100b65780632558e933146100eb575b600080fd5b3480156100c257600080fd5b506100d66100d1366004611747565b6102b0565b60405190151581526020015b60405180910390f35b6100fe6100f93660046118a6565b6102da565b005b6100fe61010e3660046119a8565b61040f565b34801561011f57600080fd5b50604080517f000000000000000000000000000000000000000000000000000000000000000081527f000000000000000000000000000000000000000000000000000000000000000060208201527f0000000000000000000000000000000000000000000000000000000000000000918101919091527f000000000000000000000000000000000000000000000000000000000000000060608201527f0000000000000000000000000000000000000000000000000000000000000000608082015260a0016100e2565b3480156101f557600080fd5b506100d6610204366004611747565b6104d2565b6100fe610217366004611a12565b61051d565b34801561022857600080fd5b506100fe610237366004611a12565b6105b5565b34801561024857600080fd5b506100fe610257366004611a8e565b6107e5565b34801561026857600080fd5b506100d6610277366004611747565b610a7d565b34801561028857600080fd5b5061029c610297366004611ae5565b610a9b565b6040516100e2989796959493929190611b31565b6000806102c26010600685901c611bf7565b905080600714806102d35750806008145b9392505050565b7f00000000000000000000000000000000000000000000000000000000000000004210156103fe5761030b83610c43565b600061037683858760405160200161035292919091825260601b7fffffffffffffffffffffffffffffffffffffffff00000000000000000000000016602082015260340190565b60405160208183030381529060405280519060200120610d0190919063ffffffff16565b905060006103848583610d25565b90506103908382610d86565b6103fb576040517f08c379a000000000000000000000000000000000000000000000000000000000815260206004820152600d60248201527f494e56414c49445f50524f4f460000000000000000000000000000000000000060448201526064015b60405180910390fd5b50505b6104088585610e53565b5050505050565b7f00000000000000000000000000000000000000000000000000000000000000004210156104c25761044082610c43565b33600061044d8483610d25565b90506104598382610d86565b6104bf576040517f08c379a000000000000000000000000000000000000000000000000000000000815260206004820152600d60248201527f494e56414c49445f50524f4f460000000000000000000000000000000000000060448201526064016103f2565b50505b6104cc8484610e53565b50505050565b6000806104e161010084611c3a565b905060006104f182610100611c4e565b6104fb9085611c8b565b60009283526001602081905260409093205492901b9182169091149392505050565b7f00000000000000000000000000000000000000000000000000000000000000004210156105a7576040517f08c379a000000000000000000000000000000000000000000000000000000000815260206004820152601460248201527f524551554952455f504153535f4f525f5741495400000000000000000000000060448201526064016103f2565b6105b18282610e53565b5050565b3373ffffffffffffffffffffffffffffffffffffffff7f00000000000000000000000000000000000000000000000000000000000000001614610654576040517f08c379a000000000000000000000000000000000000000000000000000000000815260206004820152600e60248201527f4e4f545f415554484f52495a454400000000000000000000000000000000000060448201526064016103f2565b6102408261ffff16106106c3576040517f08c379a000000000000000000000000000000000000000000000000000000000815260206004820152600d60248201527f494e56414c49445f534f554e440000000000000000000000000000000000000060448201526064016103f2565b6106d08261ffff166102b0565b610736576040517f08c379a000000000000000000000000000000000000000000000000000000000815260206004820152600c60248201527f4e4f545f5245534552564544000000000000000000000000000000000000000060448201526064016103f2565b6040517f9c20551300000000000000000000000000000000000000000000000000000000815261ffff8316600482015273ffffffffffffffffffffffffffffffffffffffff82811660248301527f00000000000000000000000000000000000000000000000000000000000000001690639c20551390604401600060405180830381600087803b1580156107c957600080fd5b505af11580156107dd573d6000803e3d6000fd5b505050505050565b3373ffffffffffffffffffffffffffffffffffffffff7f00000000000000000000000000000000000000000000000000000000000000001614610884576040517f08c379a000000000000000000000000000000000000000000000000000000000815260206004820152600e60248201527f4e4f545f415554484f52495a454400000000000000000000000000000000000060448201526064016103f2565b60005b828110156109cf576102408484838181106108a4576108a4611ca2565b90506020020160208101906108b99190611cd1565b61ffff1610610924576040517f08c379a000000000000000000000000000000000000000000000000000000000815260206004820152600d60248201527f494e56414c49445f534f554e440000000000000000000000000000000000000060448201526064016103f2565b61095784848381811061093957610939611ca2565b905060200201602081019061094e9190611cd1565b61ffff166102b0565b6109bd576040517f08c379a000000000000000000000000000000000000000000000000000000000815260206004820152600c60248201527f4e4f545f5245534552564544000000000000000000000000000000000000000060448201526064016103f2565b806109c781611cec565b915050610887565b506040517fe2ea128800000000000000000000000000000000000000000000000000000000815273ffffffffffffffffffffffffffffffffffffffff7f0000000000000000000000000000000000000000000000000000000000000000169063e2ea128890610a4690869086908690600401611d25565b600060405180830381600087803b158015610a6057600080fd5b505af1158015610a74573d6000803e3d6000fd5b50505050505050565b600080610a8f6010600685901c611bf7565b60005410159392505050565b606060008060008060008060007f000000000000000000000000000000000000000000000000000000000000000073ffffffffffffffffffffffffffffffffffffffff1663a0554c268b8b6040518363ffffffff1660e01b8152600401610b03929190611d8b565b60006040518083038186803b158015610b1b57600080fd5b505afa158015610b2f573d6000803e3d6000fd5b505050506040513d6000823e601f3d9081017fffffffffffffffffffffffffffffffffffffffffffffffffffffffffffffffe0168201604052610b759190810190611de0565b97507f000000000000000000000000000000000000000000000000000000000000000096507f000000000000000000000000000000000000000000000000000000000000000095507f000000000000000000000000000000000000000000000000000000000000000094507f000000000000000000000000000000000000000000000000000000000000000093507f00000000000000000000000000000000000000000000000000000000000000009250610c2f8b6104d2565b915060005490509397509397509397509397565b6000610c5161010083611c3a565b90506000610c6182610100611c4e565b610c6b9084611c8b565b600083815260016020819052604090912054911b915080821615610ceb576040517f08c379a000000000000000000000000000000000000000000000000000000000815260206004820152601160248201527f504153535f414c52454144595f5553454400000000000000000000000000000060448201526064016103f2565b6000928352600160205260409092209117905550565b6000806000610d1085856111d8565b91509150610d1d81611248565b509392505050565b60008282604051602001610d6892919091825260601b7fffffffffffffffffffffffffffffffffffffffff00000000000000000000000016602082015260340190565b60405160208183030381529060405280519060200120905092915050565b6000805b8351811015610e2a576000848281518110610da757610da7611ca2565b6020026020010151905080841015610dea576040805160208101869052908101829052606001604051602081830303815290604052805190602001209350610e17565b60408051602081018390529081018590526060016040516020818303038152906040528051906020012093505b5080610e2281611cec565b915050610d8a565b50507f000000000000000000000000000000000000000000000000000000000000000014919050565b7f0000000000000000000000000000000000000000000000000000000000000000421015610edd576040517f08c379a000000000000000000000000000000000000000000000000000000000815260206004820152601060248201527f53414c455f4e4f545f535441525445440000000000000000000000000000000060448201526064016103f2565b6102408261ffff1610610f4c576040517f08c379a000000000000000000000000000000000000000000000000000000000815260206004820152600d60248201527f494e56414c49445f534f554e440000000000000000000000000000000000000060448201526064016103f2565b610f598261ffff16610a7d565b610fbf576040517f08c379a000000000000000000000000000000000000000000000000000000000815260206004820152601b60248201527f494e535455524d454e545f4e4f545f5945545f464f525f53414c45000000000060448201526064016103f2565b610fcc8261ffff166102b0565b15611033576040517f08c379a000000000000000000000000000000000000000000000000000000000815260206004820152600860248201527f524553455256454400000000000000000000000000000000000000000000000060448201526064016103f2565b60007f0000000000000000000000000000000000000000000000000000000000000000421015611083577f00000000000000000000000000000000000000000000000000000000000000006110a5565b7f00000000000000000000000000000000000000000000000000000000000000005b905080341015611111576040517f08c379a000000000000000000000000000000000000000000000000000000000815260206004820152600a60248201527f4e4f545f454e4f5547480000000000000000000000000000000000000000000060448201526064016103f2565b8034111561115157336108fc6111278334611c8b565b6040518115909202916000818181858888f1935050505015801561114f573d6000803e3d6000fd5b505b61115a816114a4565b6040517f9c20551300000000000000000000000000000000000000000000000000000000815261ffff8416600482015273ffffffffffffffffffffffffffffffffffffffff83811660248301527f00000000000000000000000000000000000000000000000000000000000000001690639c20551390604401610a46565b60008082516041141561120f5760208301516040840151606085015160001a611203878285856115e7565b94509450505050611241565b825160401415611239576020830151604084015161122e8683836116ff565b935093505050611241565b506000905060025b9250929050565b600081600481111561125c5761125c611e7a565b14156112655750565b600181600481111561127957611279611e7a565b14156112e1576040517f08c379a000000000000000000000000000000000000000000000000000000000815260206004820152601860248201527f45434453413a20696e76616c6964207369676e6174757265000000000000000060448201526064016103f2565b60028160048111156112f5576112f5611e7a565b141561135d576040517f08c379a000000000000000000000000000000000000000000000000000000000815260206004820152601f60248201527f45434453413a20696e76616c6964207369676e6174757265206c656e6774680060448201526064016103f2565b600381600481111561137157611371611e7a565b14156113ff576040517f08c379a000000000000000000000000000000000000000000000000000000000815260206004820152602260248201527f45434453413a20696e76616c6964207369676e6174757265202773272076616c60448201527f756500000000000000000000000000000000000000000000000000000000000060648201526084016103f2565b600481600481111561141357611413611e7a565b14156114a1576040517f08c379a000000000000000000000000000000000000000000000000000000000815260206004820152602260248201527f45434453413a20696e76616c6964207369676e6174757265202776272076616c60448201527f756500000000000000000000000000000000000000000000000000000000000060648201526084016103f2565b50565b80156114a1577f00000000000000000000000000000000000000000000000000000000000000001561157e5760006127106114ff7f000000000000000000000000000000000000000000000000000000000000000084611c4e565b6115099190611c3a565b60405190915073ffffffffffffffffffffffffffffffffffffffff7f0000000000000000000000000000000000000000000000000000000000000000169082156108fc029083906000818181858888f1935050505015801561156f573d6000803e3d6000fd5b5061157a8183611c8b565b9150505b80156114a15760405173ffffffffffffffffffffffffffffffffffffffff7f0000000000000000000000000000000000000000000000000000000000000000169082156108fc029083906000818181858888f193505050501580156105b1573d6000803e3d6000fd5b6000807f7fffffffffffffffffffffffffffffff5d576e7357a4501ddfe92f46681b20a083111561161e57506000905060036116f6565b8460ff16601b1415801561163657508460ff16601c14155b1561164757506000905060046116f6565b6040805160008082526020820180845289905260ff881692820192909252606081018690526080810185905260019060a0016020604051602081039080840390855afa15801561169b573d6000803e3d6000fd5b50506040517fffffffffffffffffffffffffffffffffffffffffffffffffffffffffffffffe0015191505073ffffffffffffffffffffffffffffffffffffffff81166116ef576000600192509250506116f6565b9150600090505b94509492505050565b6000807f7fffffffffffffffffffffffffffffffffffffffffffffffffffffffffffffff831660ff84901c601b01611739878288856115e7565b935093505050935093915050565b60006020828403121561175957600080fd5b5035919050565b803561ffff8116811461177257600080fd5b919050565b73ffffffffffffffffffffffffffffffffffffffff811681146114a157600080fd5b7f4e487b7100000000000000000000000000000000000000000000000000000000600052604160045260246000fd5b604051601f82017fffffffffffffffffffffffffffffffffffffffffffffffffffffffffffffffe016810167ffffffffffffffff8111828210171561180f5761180f611799565b604052919050565b600067ffffffffffffffff82111561183157611831611799565b5060051b60200190565b600082601f83011261184c57600080fd5b8135602061186161185c83611817565b6117c8565b82815260059290921b8401810191818101908684111561188057600080fd5b8286015b8481101561189b5780358352918301918301611884565b509695505050505050565b600080600080600060a086880312156118be57600080fd5b6118c786611760565b94506020808701356118d881611777565b945060408701359350606087013567ffffffffffffffff808211156118fc57600080fd5b818901915089601f83011261191057600080fd5b81358181111561192257611922611799565b611952847fffffffffffffffffffffffffffffffffffffffffffffffffffffffffffffffe0601f840116016117c8565b8181528b8583860101111561196657600080fd5b81858501868301376000918101909401529193506080880135918083111561198d57600080fd5b505061199b8882890161183b565b9150509295509295909350565b600080600080608085870312156119be57600080fd5b6119c785611760565b935060208501356119d781611777565b925060408501359150606085013567ffffffffffffffff8111156119fa57600080fd5b611a068782880161183b565b91505092959194509250565b60008060408385031215611a2557600080fd5b611a2e83611760565b91506020830135611a3e81611777565b809150509250929050565b60008083601f840112611a5b57600080fd5b50813567ffffffffffffffff811115611a7357600080fd5b6020830191508360208260051b850101111561124157600080fd5b600080600060408486031215611aa357600080fd5b833567ffffffffffffffff811115611aba57600080fd5b611ac686828701611a49565b9094509250506020840135611ada81611777565b809150509250925092565b600080600060408486031215611afa57600080fd5b83359250602084013567ffffffffffffffff811115611b1857600080fd5b611b2486828701611a49565b9497909650939450505050565b6101008082528951908201819052600090610120830190602090818d01845b82811015611b8257815173ffffffffffffffffffffffffffffffffffffffff1685529383019390830190600101611b50565b5050508192508a8185015250508760408301528660608301528560808301528460a0830152611bb560c083018515159052565b8260e08301529998505050505050505050565b7f4e487b7100000000000000000000000000000000000000000000000000000000600052601260045260246000fd5b600082611c0657611c06611bc8565b500690565b7f4e487b7100000000000000000000000000000000000000000000000000000000600052601160045260246000fd5b600082611c4957611c49611bc8565b500490565b6000817fffffffffffffffffffffffffffffffffffffffffffffffffffffffffffffffff0483118215151615611c8657611c86611c0b565b500290565b600082821015611c9d57611c9d611c0b565b500390565b7f4e487b7100000000000000000000000000000000000000000000000000000000600052603260045260246000fd5b600060208284031215611ce357600080fd5b6102d382611760565b60007fffffffffffffffffffffffffffffffffffffffffffffffffffffffffffffffff821415611d1e57611d1e611c0b565b5060010190565b6040808252810183905260008460608301825b86811015611d615761ffff611d4c84611760565b16825260209283019290910190600101611d38565b50809250505073ffffffffffffffffffffffffffffffffffffffff83166020830152949350505050565b6020815281602082015260007f07ffffffffffffffffffffffffffffffffffffffffffffffffffffffffffffff831115611dc457600080fd5b8260051b80856040850137600092016040019182525092915050565b60006020808385031215611df357600080fd5b825167ffffffffffffffff811115611e0a57600080fd5b8301601f81018513611e1b57600080fd5b8051611e2961185c82611817565b81815260059190911b82018301908381019087831115611e4857600080fd5b928401925b82841015611e6f578351611e6081611777565b82529284019290840190611e4d565b979650505050505050565b7f4e487b7100000000000000000000000000000000000000000000000000000000600052602160045260246000fdfea26469706673582212202911677db3b52bdb51464edbb8288ac47893c4b27897620dbaaf08f5f3be69ab64736f6c63430008090033",
  "devdoc": {
    "kind": "dev",
    "methods": {},
    "version": 1
  },
  "userdoc": {
    "kind": "user",
    "methods": {},
    "version": 1
  },
  "storageLayout": {
    "storage": [
      {
        "astId": 10767,
        "contract": "src/bleeps/BleepsFixedPriceSale.sol:BleepsFixedPriceSale",
        "label": "_uptoInstr",
        "offset": 0,
        "slot": "0",
        "type": "t_uint256"
      },
      {
        "astId": 10771,
        "contract": "src/bleeps/BleepsFixedPriceSale.sol:BleepsFixedPriceSale",
        "label": "_passUsed",
        "offset": 0,
        "slot": "1",
        "type": "t_mapping(t_uint256,t_uint256)"
      }
    ],
    "types": {
      "t_mapping(t_uint256,t_uint256)": {
        "encoding": "mapping",
        "key": "t_uint256",
        "label": "mapping(uint256 => uint256)",
        "numberOfBytes": "32",
        "value": "t_uint256"
      },
      "t_uint256": {
        "encoding": "inplace",
        "label": "uint256",
        "numberOfBytes": "32"
      }
    }
  }
}