{
  "address": "0x53378858778c97850E81c23301B6b967869D3B00",
  "abi": [
    {
      "inputs": [
        {
          "internalType": "contract Bleeps",
          "name": "bleeps",
          "type": "address"
        },
        {
          "internalType": "uint256",
          "name": "price",
          "type": "uint256"
        },
        {
          "internalType": "uint256",
          "name": "whitelistPrice",
          "type": "uint256"
        },
        {
          "internalType": "uint256",
          "name": "whitelistTimeLimit",
          "type": "uint256"
        },
        {
          "internalType": "bytes32",
          "name": "whitelistMerkleRoot",
          "type": "bytes32"
        },
        {
          "internalType": "address payable",
          "name": "projectCreator",
          "type": "address"
        },
        {
          "internalType": "uint256",
          "name": "creatorFeePer10000",
          "type": "uint256"
        },
        {
          "internalType": "address payable",
          "name": "saleRecipient",
          "type": "address"
        },
        {
          "internalType": "uint256",
          "name": "uptoInstr",
          "type": "uint256"
        }
      ],
      "stateMutability": "nonpayable",
      "type": "constructor"
    },
    {
      "inputs": [
        {
          "internalType": "uint16",
          "name": "id",
          "type": "uint16"
        },
        {
          "internalType": "address",
          "name": "to",
          "type": "address"
        }
      ],
      "name": "creatorMint",
      "outputs": [],
      "stateMutability": "nonpayable",
      "type": "function"
    },
    {
      "inputs": [
        {
          "internalType": "uint16[]",
          "name": "ids",
          "type": "uint16[]"
        },
        {
          "internalType": "address",
          "name": "to",
          "type": "address"
        }
      ],
      "name": "creatorMultiMint",
      "outputs": [],
      "stateMutability": "nonpayable",
      "type": "function"
    },
    {
      "inputs": [
        {
          "internalType": "uint256",
          "name": "id",
          "type": "uint256"
        }
      ],
      "name": "isOpenForSale",
      "outputs": [
        {
          "internalType": "bool",
          "name": "",
          "type": "bool"
        }
      ],
      "stateMutability": "view",
      "type": "function"
    },
    {
      "inputs": [
        {
          "internalType": "uint256",
          "name": "passId",
          "type": "uint256"
        }
      ],
      "name": "isPassUsed",
      "outputs": [
        {
          "internalType": "bool",
          "name": "",
          "type": "bool"
        }
      ],
      "stateMutability": "view",
      "type": "function"
    },
    {
      "inputs": [
        {
          "internalType": "uint256",
          "name": "id",
          "type": "uint256"
        }
      ],
      "name": "isReserved",
      "outputs": [
        {
          "internalType": "bool",
          "name": "",
          "type": "bool"
        }
      ],
      "stateMutability": "pure",
      "type": "function"
    },
    {
      "inputs": [
        {
          "internalType": "uint16",
          "name": "id",
          "type": "uint16"
        },
        {
          "internalType": "address",
          "name": "to",
          "type": "address"
        }
      ],
      "name": "mint",
      "outputs": [],
      "stateMutability": "payable",
      "type": "function"
    },
    {
      "inputs": [
        {
          "internalType": "uint16",
          "name": "id",
          "type": "uint16"
        },
        {
          "internalType": "address",
          "name": "to",
          "type": "address"
        },
        {
          "internalType": "uint256",
          "name": "passId",
          "type": "uint256"
        },
        {
          "internalType": "bytes32[]",
          "name": "proof",
          "type": "bytes32[]"
        }
      ],
      "name": "mintWithPassId",
      "outputs": [],
      "stateMutability": "payable",
      "type": "function"
    },
    {
      "inputs": [
        {
          "internalType": "uint16",
          "name": "id",
          "type": "uint16"
        },
        {
          "internalType": "address",
          "name": "to",
          "type": "address"
        },
        {
          "internalType": "uint256",
          "name": "passId",
          "type": "uint256"
        },
        {
          "internalType": "bytes",
          "name": "signature",
          "type": "bytes"
        },
        {
          "internalType": "bytes32[]",
          "name": "proof",
          "type": "bytes32[]"
        }
      ],
      "name": "mintWithSalePass",
      "outputs": [],
      "stateMutability": "payable",
      "type": "function"
    },
    {
      "inputs": [
        {
          "internalType": "address",
          "name": "purchaser",
          "type": "address"
        },
        {
          "internalType": "uint256",
          "name": "passId",
          "type": "uint256"
        },
        {
          "internalType": "uint256[]",
          "name": "ids",
          "type": "uint256[]"
        }
      ],
      "name": "ownersAndPriceInfo",
      "outputs": [
        {
          "internalType": "address[]",
          "name": "addresses",
          "type": "address[]"
        },
        {
          "internalType": "uint256",
          "name": "price",
          "type": "uint256"
        },
        {
          "internalType": "uint256",
          "name": "whitelistPrice",
          "type": "uint256"
        },
        {
          "internalType": "uint256",
          "name": "whitelistTimeLimit",
          "type": "uint256"
        },
        {
          "internalType": "bytes32",
          "name": "whitelistMerkleRoot",
          "type": "bytes32"
        },
        {
          "internalType": "bool",
          "name": "passUsed",
          "type": "bool"
        },
        {
          "internalType": "uint256",
          "name": "uptoInstr",
          "type": "uint256"
        }
      ],
      "stateMutability": "view",
      "type": "function"
    },
    {
      "inputs": [
        {
          "internalType": "address",
          "name": "purchaser",
          "type": "address"
        }
      ],
      "name": "priceInfo",
      "outputs": [
        {
          "internalType": "uint256",
          "name": "price",
          "type": "uint256"
        },
        {
          "internalType": "uint256",
          "name": "whitelistPrice",
          "type": "uint256"
        },
        {
          "internalType": "uint256",
          "name": "whitelistTimeLimit",
          "type": "uint256"
        },
        {
          "internalType": "bytes32",
          "name": "whitelistMerkleRoot",
          "type": "bytes32"
        }
      ],
      "stateMutability": "view",
      "type": "function"
    }
  ],
  "transactionHash": "0xceb26c384d219a3f585ca61e9f1c849e96579857684605249f3718329bfe3ae4",
  "args": [
    "0x96Ff43b3C0Ff14f6341813Bc3976C51f8bc383e0",
    "100000000000000000",
    "100000000000000000",
    1638024920,
    "0xcf9355bfe51d25a76b462e787404ed2cc9f059069cf1cecde93aa823995ae015",
    "0xE53cd71271AcAdbeb0f64d9c8C62bBdDc8cA9e66",
    2446,
    "0x5A32B1d3A222321cb2e72f013fE723Be2E763Acf",
    2
  ],
  "linkedData": {
    "numPrivatePasses": 815,
    "leaves": [
      {
        "passId": "0",
        "signer": "0xBFD2953192eb381eA0FAA73c683a02C1BEa586d4"
      },
      {
        "passId": "1",
        "signer": "0x4e93f9c01ADa946E4116F1B705Ae2A974De64eAc"
      },
      {
        "passId": "2",
        "signer": "0xF99A039e96D3248ace8696FCc1b412495a233EDf"
      },
      {
        "passId": "3",
        "signer": "0xc3A8fcf462e7E8ECa55dA591D9ec50E28b508d42"
      },
      {
        "passId": "4",
        "signer": "0x6852cf1eAD02B7af293693A57dCC55D315767135"
      },
      {
        "passId": "5",
        "signer": "0x2c91ED47f64e173bFBdA84C5eDC7b823ceD073CC"
      },
      {
        "passId": "6",
        "signer": "0xB8696b64ca01A0aB86959F1dEB4a2cA74868447B"
      },
      {
        "passId": "7",
        "signer": "0x78292438E912e8e383bA88d026CA07f4F20E9548"
      },
      {
        "passId": "8",
        "signer": "0x8CD3BE742fAA31bF878BDC876e42D6660E5601A8"
      },
      {
        "passId": "9",
        "signer": "0xCE4C039869f5d3B792e0a74A2483Ac5F1Efee1b7"
      },
      {
        "passId": "10",
        "signer": "0x79468611b556B677ab3F754f3630C16Bbac1BcD6"
      },
      {
        "passId": "11",
        "signer": "0x97e3CB825985AbE28346dC9d4795F445d853172d"
      },
      {
        "passId": "12",
        "signer": "0x77451398C32dCE4814c54400831882641465F7CA"
      },
      {
        "passId": "13",
        "signer": "0xB040d0099C2Fac2Ef3D96F7943189515F32E3f12"
      },
      {
        "passId": "14",
        "signer": "0xF01a60B2a06b8E86ce79D583C241382951dB0444"
      },
      {
        "passId": "15",
        "signer": "0x9e49Ad425f15557E33E5268619e887e887a331a2"
      },
      {
        "passId": "16",
        "signer": "0x0F72de7889255cd32642E2F3e9A450aBb612f0d6"
      },
      {
        "passId": "17",
        "signer": "0x5B70Fd99b5bdC52855D01412Dcd0f4Df992C7340"
      },
      {
        "passId": "18",
        "signer": "0x87F44bEa7Dd3308Ee1AFe171ba9c513d154489a7"
      },
      {
        "passId": "19",
        "signer": "0x7b96E1140B8f1140BbBe3B440096a558eed6dC13"
      },
      {
        "passId": "20",
        "signer": "0x2EEfA6d0CD1aB8953A7f42B118ec5b882dB4CF80"
      },
      {
        "passId": "21",
        "signer": "0x41F6b734A287b20C46A1Be4D444701aA38943C97"
      },
      {
        "passId": "22",
        "signer": "0x532107A138fADAfe8ce50E2b3CeBc05286eA84bE"
      },
      {
        "passId": "23",
        "signer": "0x6Cff2baF436bcB88614B93Ad246F4A40fc409F01"
      },
      {
        "passId": "24",
        "signer": "0xF3644804248E2Bc5403bb9e6Def26a00d99283D8"
      },
      {
        "passId": "25",
        "signer": "0x99312095Ec7A2598eD627e174D68b874B15dBa7b"
      },
      {
        "passId": "26",
        "signer": "0x7F768F986Fec6e367024Dc2dE45162526bE17f80"
      },
      {
        "passId": "27",
        "signer": "0xe8c7fb8abFaB3bf25812d48b53E701089D14546B"
      },
      {
        "passId": "28",
        "signer": "0xC94A9bD17CFfbDDF7D7193c1b3DDd2979085593b"
      },
      {
        "passId": "29",
        "signer": "0x613b70301B06Bb0Bf8ebA02Bf8e1a9f0c83B6Dfe"
      },
      {
        "passId": "30",
        "signer": "0xc4B9eB34223e61bFB5431907dD3aa3a411103D95"
      },
      {
        "passId": "31",
        "signer": "0x3691939d7D1793CCfd2576CD8E3d941490b68b3A"
      },
      {
        "passId": "32",
        "signer": "0x29F0F52BCe92E2b1C3E7D4Fa3c20D1A4b784FAA5"
      },
      {
        "passId": "33",
        "signer": "0x36408d5149f6826264184909b0BAdeaB1117389D"
      },
      {
        "passId": "34",
        "signer": "0x5D1bf8b42C1cf3C6DcA689d0e665c918889c7eeB"
      },
      {
        "passId": "35",
        "signer": "0x57275ff4e11F13A824fB9b6e745B3a8552d7Bfbe"
      },
      {
        "passId": "36",
        "signer": "0xA3149F88d1dD9DA10CB3d2fBF1FD59961DDf8DB2"
      },
      {
        "passId": "37",
        "signer": "0x33F3be5277C5EB04eE8aB9Ec3FB7745cF05f83f2"
      },
      {
        "passId": "38",
        "signer": "0x9BbEc56b2c0B47Bc81d6A88e6BA37Bc3d5977f24"
      },
      {
        "passId": "39",
        "signer": "0x20994e990EA19b5411fFf10bc5AB57aa719F6Cd0"
      },
      {
        "passId": "40",
        "signer": "0x7cae0109b36154eaBbcA73fe0972d727059911B2"
      },
      {
        "passId": "41",
        "signer": "0xA831A84c121c4AC6384726AEa9AFC5e85231A317"
      },
      {
        "passId": "42",
        "signer": "0x6038456F29389e57855f5b504e9c95AC8Cc19F14"
      },
      {
        "passId": "43",
        "signer": "0x315f62B64fdbd2655c8d3520845Be2667Fa08fD2"
      },
      {
        "passId": "44",
        "signer": "0x3692843facba4abF22143A2E51214D3BD5D62f37"
      },
      {
        "passId": "45",
        "signer": "0x8F2Df815e5713588c88FE6b28DBEF6B1498C0eaE"
      },
      {
        "passId": "46",
        "signer": "0xBB5071264040d7a8194597e31131899D0047FC87"
      },
      {
        "passId": "47",
        "signer": "0x6907Bf0b223381536704AB31EE9Cd1D77B5408b3"
      },
      {
        "passId": "48",
        "signer": "0x040333b944a978F7C199d78dd40fbB992d8C3662"
      },
      {
        "passId": "49",
        "signer": "0x8dA1986Ec87fFb838bb6fd5837d0aA2A5B117350"
      },
      {
        "passId": "50",
        "signer": "0xAAE7343412Da0A208b08482D5964A34F8B69f173"
      },
      {
        "passId": "51",
        "signer": "0xB02eF4424D3E6FE4B0646aB8F870f95C1ACBb307"
      },
      {
        "passId": "52",
        "signer": "0x35C961AB86C7F3C24169e9AE820F7B738e2b3e18"
      },
      {
        "passId": "53",
        "signer": "0x3DE4b7491826815C796A4f217c222a39392494ba"
      },
      {
        "passId": "54",
        "signer": "0xa523cf284A22b5eB478c0c375C30C88b300Faea3"
      },
      {
        "passId": "55",
        "signer": "0x4EaD8bc22f6AeD49a085c6986068ee1095357E30"
      },
      {
        "passId": "56",
        "signer": "0x466E9FC805c08D644912b91A57e8802eF8d3700F"
      },
      {
        "passId": "57",
        "signer": "0xb4722EA245b7F645B9e76C8B683353D2E4862711"
      },
      {
        "passId": "58",
        "signer": "0x7D1Bc5e8614fD9E66eeBf0D77a0c5883A7A077D2"
      },
      {
        "passId": "59",
        "signer": "0x1588Bd10c9108BBE28107138c9A46551BBe1a786"
      },
      {
        "passId": "60",
        "signer": "0xc9fa135ec900A2fa92d8C3aCE7e91cEdE10E09C4"
      },
      {
        "passId": "61",
        "signer": "0xb8019bb98733E96abBbc959107702C1048faC237"
      },
      {
        "passId": "62",
        "signer": "0xd13B69deF0c40CCc56bcf9Ed6F93c24F09c6dd8c"
      },
      {
        "passId": "63",
        "signer": "0xe887BBD3a43BD33Fa9dF803A25Bd7586A6461402"
      },
      {
        "passId": "64",
        "signer": "0x6110322b4E9340ab861E72E7dD80bAF04F53c76E"
      },
      {
        "passId": "65",
        "signer": "0x4822f99f43FfDeCc4b2B07740D85Bf79f8C0419F"
      },
      {
        "passId": "66",
        "signer": "0x9a950D48b94a9BEDD3d97aE1E3EDC8181aDF00D5"
      },
      {
        "passId": "67",
        "signer": "0xeEEf6BDD88aebD7486c7EE3BA49a164070C9ec6A"
      },
      {
        "passId": "68",
        "signer": "0x5Fd795eC8999F048aD63c0307c249c55C4E414f8"
      },
      {
        "passId": "69",
        "signer": "0x1DEDd9C3e78b4f018bba940b7C95A67BDF1c145a"
      },
      {
        "passId": "70",
        "signer": "0xA1fE49394172F53d39130e9Ec50E57470d9d047d"
      },
      {
        "passId": "71",
        "signer": "0x5EdcC56766bbA2F691DC40257700b5e44ad1331b"
      },
      {
        "passId": "72",
        "signer": "0x1e5309EBff31D27fB7461730b47EdB49E30b0D9a"
      },
      {
        "passId": "73",
        "signer": "0x0dC218EAc5F3032Cc712A633fFf333cAF4d646c5"
      },
      {
        "passId": "74",
        "signer": "0x2Bd6A7Bfca34aefE59240457BA42E4b59cfDEefa"
      },
      {
        "passId": "75",
        "signer": "0x9F3a931dC4b4466a1BAE16C54b5262B5cdeaE16F"
      },
      {
        "passId": "76",
        "signer": "0x61C206B66fCC65eD2c33679fe7be9092b242248C"
      },
      {
        "passId": "77",
        "signer": "0x2538754e34dF2150243b54acd9BEAD37EA115beF"
      },
      {
        "passId": "78",
        "signer": "0x0806ADfdD1E320A1013DBDdd5e55B659bE7b758b"
      },
      {
        "passId": "79",
        "signer": "0x1c60C7b7bdf956463D21635Bd54eA354F51E0875"
      },
      {
        "passId": "80",
        "signer": "0xCF89Ba2597eF2B804EDC023eD4805B787598b8Ae"
      },
      {
        "passId": "81",
        "signer": "0x4B38865d978421D7af73C0e47f19EaFC9670519F"
      },
      {
        "passId": "82",
        "signer": "0xC90DE11d4D4d2014Df5b3DB591E01F914FBa4280"
      },
      {
        "passId": "83",
        "signer": "0x16212E7D85b4b5C8DA2dE2189280Ecb4E4944ffc"
      },
      {
        "passId": "84",
        "signer": "0x236915f5855e52a925Dbc9186fe430B8b1767f6b"
      },
      {
        "passId": "85",
        "signer": "0x1bA6cAA153311D200e2F9334F2Cb0E5881156369"
      },
      {
        "passId": "86",
        "signer": "0x6eD9d3A9Db64f7DeF201F90e677952b1E55e4859"
      },
      {
        "passId": "87",
        "signer": "0x401f0700F1dd46F02Ff13CDd52c55B7Df9C561dD"
      },
      {
        "passId": "88",
        "signer": "0xE0Ff75C89CefAb1a697904a2D4d88145A6F8c239"
      },
      {
        "passId": "89",
        "signer": "0x7684E6DB9f2223001501f60fEcE957f57324eFcA"
      },
      {
        "passId": "90",
        "signer": "0x26FD67FDB56aA3EC0146b26b89676EaA214EC5E8"
      },
      {
        "passId": "91",
        "signer": "0x66d9A44d09A3532FFdaB3c6C115e215bed81B98C"
      },
      {
        "passId": "92",
        "signer": "0xb80A203db64c02A7409CC40EDA5D01e06A1f9176"
      },
      {
        "passId": "93",
        "signer": "0x9d4C7429c351E209119ED6FcF9E8bBa624d9d851"
      },
      {
        "passId": "94",
        "signer": "0xc95512e3bCa0290DDf5dF0b1E3512D156E97D734"
      },
      {
        "passId": "95",
        "signer": "0x9679f0b56a8E23E4F12bcfb11Dcb44207C6b8e2a"
      },
      {
        "passId": "96",
        "signer": "0x77964A5a06Eb875D58E956dB50bE832F7C5eb980"
      },
      {
        "passId": "97",
        "signer": "0xF39Ba2508FF5717f79a1FE6213da2345a6fC98FA"
      },
      {
        "passId": "98",
        "signer": "0x6a842eDE8acb40f482a4f19395E46919464d88C7"
      },
      {
        "passId": "99",
        "signer": "0x02d126Ce63314F319AF8cf0f31D3e1809d936955"
      },
      {
        "passId": "100",
        "signer": "0x65B70Fb0ECC003a38632d904ad5CBDa6aead714E"
      },
      {
        "passId": "101",
        "signer": "0x2F08F65B64D95E502EF60f712DbF245f519086A7"
      },
      {
        "passId": "102",
        "signer": "0xb6b57C43EeaF8a4A89c0E8C071ff4E7cB43cEb04"
      },
      {
        "passId": "103",
        "signer": "0x22B78966f3d9EE6676D6262bd0b53b6415E06486"
      },
      {
        "passId": "104",
        "signer": "0xd340F589BC038ff7e7Ae99A34133CB01d213565C"
      },
      {
        "passId": "105",
        "signer": "0x28553525d9C3874eD76e732ae519A9C5A0d85c52"
      },
      {
        "passId": "106",
        "signer": "0xFf68fFA68ba00C044a9e179fa06686aC1ea81F99"
      },
      {
        "passId": "107",
        "signer": "0x3CF5099bFdD18620B27d60A4a7E07869af2BA996"
      },
      {
        "passId": "108",
        "signer": "0x02aB880104eF41812DabD4b77055BD8984da95aa"
      },
      {
        "passId": "109",
        "signer": "0x9449619EBCCc5B31B5733aD6eA03e262A76ba02a"
      },
      {
        "passId": "110",
        "signer": "0x0C6Ee74F4D45c10bB43E166C355F82c052209eA5"
      },
      {
        "passId": "111",
        "signer": "0x23f489c0a56Fbd6FDB96b23162Fe2DF926E43C80"
      },
      {
        "passId": "112",
        "signer": "0x80cCf495f4C5Cf43BbfC3E33F3652553b512b88C"
      },
      {
        "passId": "113",
        "signer": "0x71a7B7b8e9Ddaed4e894C1f78fa648bBAd6785a9"
      },
      {
        "passId": "114",
        "signer": "0xB56A3f26db1d2403B9F114fBE125574A436caE40"
      },
      {
        "passId": "115",
        "signer": "0x782A02Aa9fA2B71Ea075aDc93a5cf19667095729"
      },
      {
        "passId": "116",
        "signer": "0x99575F84585b2Df38Ae644381B13a10cE1774024"
      },
      {
        "passId": "117",
        "signer": "0x59c40635c7D2B03d99478f979e9Ba5767Ce51368"
      },
      {
        "passId": "118",
        "signer": "0x2e08521E842eCb18DE6925d4E5949E7a8371C703"
      },
      {
        "passId": "119",
        "signer": "0x72F58c3bb9611b255f42C0Cc84C5e4FeCbD09173"
      },
      {
        "passId": "120",
        "signer": "0xD93624E1f7629b8168C6775Ad922749702483897"
      },
      {
        "passId": "121",
        "signer": "0x32ebA9BB862FF9aFdeBB790019f4b7f08A469025"
      },
      {
        "passId": "122",
        "signer": "0x217C91D4906824D63e4C2ACb856CfC21E02F04dA"
      },
      {
        "passId": "123",
        "signer": "0x421E2a2517B9a5b1B69f12546192bC8C35F120B4"
      },
      {
        "passId": "124",
        "signer": "0x31Dd3FCAdbA32eE397710A5EEb5849ce69F553C2"
      },
      {
        "passId": "125",
        "signer": "0x1189962dF2047eCF57B6d44a074852FFa376d745"
      },
      {
        "passId": "126",
        "signer": "0xF695415f6B67A2997F004B8D37F9bBA647C32837"
      },
      {
        "passId": "127",
        "signer": "0x3A2Ba6B3655B0eaBC04B42C89b772b30577Ea05e"
      },
      {
        "passId": "128",
        "signer": "0x761BAd883c26ff49E8ee02d482958Ebf2FD852Fe"
      },
      {
        "passId": "129",
        "signer": "0x1F2C98F4701046169deB24Cb68F90234B608B91e"
      },
      {
        "passId": "130",
        "signer": "0x8Ee17d0225B9177f48c83d78288d64afE640d65F"
      },
      {
        "passId": "131",
        "signer": "0x26F4764398FdD86c948E7052e492ffC6eA59CB81"
      },
      {
        "passId": "132",
        "signer": "0xa1CC1d3FCA492770830119edf252d80f6113160e"
      },
      {
        "passId": "133",
        "signer": "0x93A9fa60310E790e69501dB6fFa0D8c04359cE7E"
      },
      {
        "passId": "134",
        "signer": "0xE5942fa1Cd4d50bF111b1E1a9CFBc3702D722C58"
      },
      {
        "passId": "135",
        "signer": "0xFEe937BfCBA0dAe121ABab46FF628bACD2f36a2E"
      },
      {
        "passId": "136",
        "signer": "0xda2369cE30e4d6F0180fB16f6E2a84a00aC7c513"
      },
      {
        "passId": "137",
        "signer": "0x455626C1795Dc5eFc1D2B9a0f75fdb357ba277ff"
      },
      {
        "passId": "138",
        "signer": "0x3eF439A64125fA07E0a4692905C6Ef98A15076D5"
      },
      {
        "passId": "139",
        "signer": "0x0999523316B04867D1A2Ec152951D1d568c86CEE"
      },
      {
        "passId": "140",
        "signer": "0x9C11A7BabcD0E42Cf57020524f56c12c0014274C"
      },
      {
        "passId": "141",
        "signer": "0x6B6a93177D001D0c3C590849F58eb35660B6136e"
      },
      {
        "passId": "142",
        "signer": "0x03706Fa52a93244f665990AbA2b25a880297Eec6"
      },
      {
        "passId": "143",
        "signer": "0x17a8194E42E142070Dd649D45A56F4959C35217b"
      },
      {
        "passId": "144",
        "signer": "0x9F111b1Eb5DC97d5c553103f181B30399ffbA9c4"
      },
      {
        "passId": "145",
        "signer": "0xbe0C4B21FcF20C4D410E68579C4b6b2e5B6ED48A"
      },
      {
        "passId": "146",
        "signer": "0x85bf009C581585EC25C6ba17D1e304430ce459EE"
      },
      {
        "passId": "147",
        "signer": "0x08b8454bf09FBC198B37bdad1EfD8278333c3112"
      },
      {
        "passId": "148",
        "signer": "0x787486fe7Db8931d32e61Ac7C0BBdd88Fbc498c6"
      },
      {
        "passId": "149",
        "signer": "0xb9Fe1447ba6cc481c4d4c131ffce286f68Fd4086"
      },
      {
        "passId": "150",
        "signer": "0x49317bB70f736Fd8666a15B7a19d59e72A6D7789"
      },
      {
        "passId": "151",
        "signer": "0x7E30dF7FBc74Cd37fdC79202DB3ae549355036Be"
      },
      {
        "passId": "152",
        "signer": "0x1311518fB100aF2Cb58A3565badC27eeE0c4077D"
      },
      {
        "passId": "153",
        "signer": "0x2aA33d6119101D7E6E8c424AFeE9C49B56a4f1d2"
      },
      {
        "passId": "154",
        "signer": "0xA4E4616373eb1B123a49fB27D0BEd44901CCa71f"
      },
      {
        "passId": "155",
        "signer": "0x37d3b106136Bc3a25d95e8fab9bE9ba90132E60d"
      },
      {
        "passId": "156",
        "signer": "0x9b8848660D48C4F34F200F9C1A5C74F01d6973eB"
      },
      {
        "passId": "157",
        "signer": "0xF4798546B354643DaAf8689Cfc96cE8A30107d66"
      },
      {
        "passId": "158",
        "signer": "0xCA4309FE3bC787535a98F7839A159887Eb710306"
      },
      {
        "passId": "159",
        "signer": "0xA9F218B64BDA3D6c150066C5758cf242a8971A1d"
      },
      {
        "passId": "160",
        "signer": "0x0B0b41458957B384547864261804832F53dE2a87"
      },
      {
        "passId": "161",
        "signer": "0xb7b50E4681DA535E69B9E20Bc14e179F276CA5C4"
      },
      {
        "passId": "162",
        "signer": "0xBEfC54596E6FEE097Ef6CBF15188Df3B26431742"
      },
      {
        "passId": "163",
        "signer": "0x4Cc3083e15EE08cf72c17A61636b682972615dd5"
      },
      {
        "passId": "164",
        "signer": "0xB5752B89E4912BFbD1dA42190663002dfA70814D"
      },
      {
        "passId": "165",
        "signer": "0x8A3D40B2477170a9ED0435D789deD9859d9c4242"
      },
      {
        "passId": "166",
        "signer": "0xDe153c165c53B8803F51FA92c8C24093DF9DCcd9"
      },
      {
        "passId": "167",
        "signer": "0x832F7b0571bb88669Ef88278162Ca781105cC064"
      },
      {
        "passId": "168",
        "signer": "0x2398c6319463090541691eD852D2b30d950fD04D"
      },
      {
        "passId": "169",
        "signer": "0x678Dadc747F787985aAbD59bD868Cd7cc5df60A3"
      },
      {
        "passId": "170",
        "signer": "0xaae41416E76f95B553C65f0E07Ac820641d2877b"
      },
      {
        "passId": "171",
        "signer": "0x36D8ce355b598dDB3CD0b8A845eaC388d84b3986"
      },
      {
        "passId": "172",
        "signer": "0xA2d1f0ae9500ccf8195e5875315cb8D5cbcCc90c"
      },
      {
        "passId": "173",
        "signer": "0xae2B1D4F185d3893945c2E49A10AB61a7161Dd64"
      },
      {
        "passId": "174",
        "signer": "0xcDa261Ee40713e051986bDE988432B174C614e4c"
      },
      {
        "passId": "175",
        "signer": "0x935C903af3E5921B472D5Aad4ACC2B108aEE761E"
      },
      {
        "passId": "176",
        "signer": "0x21123a3d78021738b8109B923d3aF6A80A6595E1"
      },
      {
        "passId": "177",
        "signer": "0x9e1B6b4e9F1d6576ccF7d8B257d6423eBF2D8c47"
      },
      {
        "passId": "178",
        "signer": "0x7BBE35a802321c258379242Ab61765faC9D20B1b"
      },
      {
        "passId": "179",
        "signer": "0x16C6592A9Ea8a93620Ba51914203D1d20B51EDA7"
      },
      {
        "passId": "180",
        "signer": "0x5C199D48A06D43f28C5953a9111ff50D9A7F6126"
      },
      {
        "passId": "181",
        "signer": "0x795a27665007D39EA1b523e41EF4B2E50ceB6F4c"
      },
      {
        "passId": "182",
        "signer": "0x405Cd5E1C248Cc22EAB7651faBa8c0a3219Dfb35"
      },
      {
        "passId": "183",
        "signer": "0x38589aa1db8AEbfeb773eee079dc7E36157E8beb"
      },
      {
        "passId": "184",
        "signer": "0xe2BaE8C9dC2F9cA3092eFe42b2eDc0fe943E793a"
      },
      {
        "passId": "185",
        "signer": "0x0244191F7c7cF935E13f989593aB44ac8a590Eae"
      },
      {
        "passId": "186",
        "signer": "0x814CCf7e922839C6b2daE06b438A641c6969fD57"
      },
      {
        "passId": "187",
        "signer": "0x22af62EE38deBa68B6D6aA40DE5f673e95D26f79"
      },
      {
        "passId": "188",
        "signer": "0x8646f0Af414318082dC41cFB00070A4427Bbb354"
      },
      {
        "passId": "189",
        "signer": "0x2ABc0378fE46E2658a86b0ED63C3d9A241f7fDd1"
      },
      {
        "passId": "190",
        "signer": "0x1BA70149cF8532B2FF43c4E1368f67935DBa25af"
      },
      {
        "passId": "191",
        "signer": "0xa865E5E0cE9c18323595e253900AE3C40CF319d1"
      },
      {
        "passId": "192",
        "signer": "0x20b8dcEE5d835d97aEd5956795F21968BF3c9fa2"
      },
      {
        "passId": "193",
        "signer": "0x2DDEEf6287e730468f77C881f254663eB536ab51"
      },
      {
        "passId": "194",
        "signer": "0xeaE79a3ee2CCfCbD76C2E672661155Adf00C4beb"
      },
      {
        "passId": "195",
        "signer": "0x5317440d6E214E6E93EAd1B25BE58E355AD66041"
      },
      {
        "passId": "196",
        "signer": "0xFF98451C7EC11c617Ad76B88421b0d12D3A9A5d8"
      },
      {
        "passId": "197",
        "signer": "0x89ef6c33a790EAaf244a56Be09f16f2421908757"
      },
      {
        "passId": "198",
        "signer": "0xeD98028571B3Aa6641accB6C8E0FBE38Dfa8E94A"
      },
      {
        "passId": "199",
        "signer": "0xfb88C15b599721753a2B9a02f001f6CB0f87EA5f"
      },
      {
        "passId": "200",
        "signer": "0x59e2B54CD534b3d963aCabC1b756e6888B4DC236"
      },
      {
        "passId": "201",
        "signer": "0x3054EA22A6F2e71a3C1A9ac64Ee7Bb3110581F77"
      },
      {
        "passId": "202",
        "signer": "0x3EA664aA5D7dD034eBe6E78c324114cF9dF99F4f"
      },
      {
        "passId": "203",
        "signer": "0xf334f288B1609F8739c19ca79f272132A4F19Ef3"
      },
      {
        "passId": "204",
        "signer": "0x63E68EDE8f292EA197A17b0deA4f36dAf673C9eD"
      },
      {
        "passId": "205",
        "signer": "0xF501E65256798Eb88403Ee6F7c6C92A81D4B83De"
      },
      {
        "passId": "206",
        "signer": "0x4CaC5E2dC44A260788dBC2389732371CDcb363F6"
      },
      {
        "passId": "207",
        "signer": "0x69862FfaC3240c511464b86c7903cd0fEfCA5604"
      },
      {
        "passId": "208",
        "signer": "0x49e3d0c301cdA2fe29203417211B6015DF1c1412"
      },
      {
        "passId": "209",
        "signer": "0x645e5973e4a770a45cbC6318600977a25844fF13"
      },
      {
        "passId": "210",
        "signer": "0xACb4bEd6657B7C037ae9911642b875aCb046AF43"
      },
      {
        "passId": "211",
        "signer": "0x4956871F1F953764f408327046934CE195f8E829"
      },
      {
        "passId": "212",
        "signer": "0x164EE571c13d73270Bbf489C507a27975cC07Ea7"
      },
      {
        "passId": "213",
        "signer": "0x714546142B3E0f241739FC519E81f4E47D74f650"
      },
      {
        "passId": "214",
        "signer": "0xc6bd70D3493F57bF0B6D7f7B543996bA9d79CE3c"
      },
      {
        "passId": "215",
        "signer": "0x847D84EACF73c95D5473C0d773494f6A22AA2335"
      },
      {
        "passId": "216",
        "signer": "0x4495644620B3d4153Ca6342a12c335285cFB73C4"
      },
      {
        "passId": "217",
        "signer": "0x0F9dAf46e210683Ab5cb5cdba14e60d9616af98f"
      },
      {
        "passId": "218",
        "signer": "0x8E2aA181ff655b3538bD393380f15B93a0552346"
      },
      {
        "passId": "219",
        "signer": "0xF51B2F311b715F9ae33576794F91139b420390fD"
      },
      {
        "passId": "220",
        "signer": "0x6453Fb261B86D8836DCDE34cbe4A06cC2Ec02d65"
      },
      {
        "passId": "221",
        "signer": "0x6A6aF7c4A9FAB14d375eB3Ec124c26754Ab81Ed5"
      },
      {
        "passId": "222",
        "signer": "0x3737CA43c309091Cd2FfE7A333F897C934213035"
      },
      {
        "passId": "223",
        "signer": "0x90b165d1f153249cf48DE91C9f221AF74e0e0909"
      },
      {
        "passId": "224",
        "signer": "0xBE15Bf87BFF532276f60B87023864FfA3A1bD25f"
      },
      {
        "passId": "225",
        "signer": "0xeca9ca60cCD1F30eBF221973121F050bcADa6D42"
      },
      {
        "passId": "226",
        "signer": "0xFD9A9FA5F59894059343C837394B212Be0A671fC"
      },
      {
        "passId": "227",
        "signer": "0xe9275e263222c6cA5a9aABBb510D169a4AE72245"
      },
      {
        "passId": "228",
        "signer": "0xBC9Ec84eBF32DF7d43375664212640D600880813"
      },
      {
        "passId": "229",
        "signer": "0x51bDCe638FC59E389408DE5dA1b0c8f38c371d0D"
      },
      {
        "passId": "230",
        "signer": "0xa008E0C68a91EE6CbcaBf001a2febE114048A29d"
      },
      {
        "passId": "231",
        "signer": "0x32de41c0f92690060Ad32483C87E0e17a94C1cC8"
      },
      {
        "passId": "232",
        "signer": "0xf8198C34215Bf5eF32Ec968CCD213324A84B5462"
      },
      {
        "passId": "233",
        "signer": "0x52CA9405FdC717e18A43D37BEEd188128862B44A"
      },
      {
        "passId": "234",
        "signer": "0x6f95aC4B4CC00B10B86aC55b92330Eb0e2Ad965a"
      },
      {
        "passId": "235",
        "signer": "0x9467155d903373d81343d8d011f604C93FeEf988"
      },
      {
        "passId": "236",
        "signer": "0x9bB55b0C60fDc67d2214A80a4BAD9A9132F824A0"
      },
      {
        "passId": "237",
        "signer": "0xcC212BAAB9cb4289e01a0dBE43c2071C7eC82ff0"
      },
      {
        "passId": "238",
        "signer": "0xB96BC232746Aa05E55CAb70abA7c0286B508aeD0"
      },
      {
        "passId": "239",
        "signer": "0x59647F8b7D63BADD3a64e5950535E32c387AAF99"
      },
      {
        "passId": "240",
        "signer": "0x1327B33c0D5b744e0f4a5890813b8Fd1F8FC8f83"
      },
      {
        "passId": "241",
        "signer": "0xE5EF52a61f9eE2fCFa0F5e8851179932B077351C"
      },
      {
        "passId": "242",
        "signer": "0x835660261Abffb0Fc4a361ac952fb4dED32D4f39"
      },
      {
        "passId": "243",
        "signer": "0xd173AE7922d3629BB93F9658288E71714f9388ec"
      },
      {
        "passId": "244",
        "signer": "0xca984942609679e2CfE09A2B4BEccb9Bdd20c90D"
      },
      {
        "passId": "245",
        "signer": "0xAcAcab8458e70f3744E62131166949eC331aA52E"
      },
      {
        "passId": "246",
        "signer": "0xfFA6cCC6c78c20b36ac0bB93e94E26021830aCfc"
      },
      {
        "passId": "247",
        "signer": "0x900336B57767d80A23D6aB4B175BD8A7c859e66d"
      },
      {
        "passId": "248",
        "signer": "0x1d4434298DFB18580eD5f8308FCe9989cbFF6C78"
      },
      {
        "passId": "249",
        "signer": "0xc360ae7678A09cd0848DC83Fe5B1f68Ed647412C"
      },
      {
        "passId": "250",
        "signer": "0x24Af70A197AC3Bee1503028D7b738ccbd0D0C9CC"
      },
      {
        "passId": "251",
        "signer": "0x6F5093aE93C519BAF208f4F5098830C640a9dAde"
      },
      {
        "passId": "252",
        "signer": "0xce654248bAFf1F48c6CfCC67E7D1E2FDAC2fDa58"
      },
      {
        "passId": "253",
        "signer": "0xF5cBACc93B2aDCA81935cA5CafA355B70ab48D7D"
      },
      {
        "passId": "254",
        "signer": "0x12Da5544B76b18EFB8357CC0CEEAcA4Daf7dd44A"
      },
      {
        "passId": "255",
        "signer": "0x73Ba1Ac005ba4dd3279219691D035FF8661cEbfa"
      },
      {
        "passId": "256",
        "signer": "0x29588D1C841E4527243c195a716397ECC2dBeC49"
      },
      {
        "passId": "257",
        "signer": "0x7aE5fAFcC5e249E1606e28e3048afA4fD4898C06"
      },
      {
        "passId": "258",
        "signer": "0x83963A3493626C251bB825D07f10745093EaC679"
      },
      {
        "passId": "259",
        "signer": "0x333FAa3a7B80c45BeFe1EA9f14e31b05ceda6A2c"
      },
      {
        "passId": "260",
        "signer": "0xa848Bcd7Fe1D5480aBFed8fea67bb56714566ec6"
      },
      {
        "passId": "261",
        "signer": "0xaCF826C7519313d94298c2a6427D7DaA9f31d6D1"
      },
      {
        "passId": "262",
        "signer": "0x11A47C6258F35720d817Ef7ae7ca7445504B6A4b"
      },
      {
        "passId": "263",
        "signer": "0x060671FDD07C1086A61ed97469058702Fa1b73FD"
      },
      {
        "passId": "264",
        "signer": "0xe1978D5BDE9074D61887ba4d9663ef197E436c3f"
      },
      {
        "passId": "265",
        "signer": "0x0bB2350B0f3F2b83FF530EBcfe0e147155193f4D"
      },
      {
        "passId": "266",
        "signer": "0x2A9DAc9e1Ee7dD213c5023F0D75435A4DB2e94FE"
      },
      {
        "passId": "267",
        "signer": "0xff54D93dAFB2F1E3b212CB6bc552d70Aff26593A"
      },
      {
        "passId": "268",
        "signer": "0x7024E059df93d0B726F3ac1eD34C61F2560A2433"
      },
      {
        "passId": "269",
        "signer": "0x8e688a9e972EE5df86610eA2A867627A462B8e0D"
      },
      {
        "passId": "270",
        "signer": "0xa3E438a20c00e955466cA5e4bb75542C8F2E004c"
      },
      {
        "passId": "271",
        "signer": "0x3A11126dB30c24Ffb25a5D5D6cB248Cd79A2abB0"
      },
      {
        "passId": "272",
        "signer": "0xBA6832A43944Ae28e8438e7eBF5565f241744537"
      },
      {
        "passId": "273",
        "signer": "0xB877e48A0D086789DE58CE7922C0C62eB7F98515"
      },
      {
        "passId": "274",
        "signer": "0xF442c44E44873Da08Aa1a2583D063B9BD562A4BA"
      },
      {
        "passId": "275",
        "signer": "0xB75FE99DB7d370000d68BcB1013f08efDc9eD33F"
      },
      {
        "passId": "276",
        "signer": "0xB620f4aecb9004c421C2505729EF3D6eE1BE37eb"
      },
      {
        "passId": "277",
        "signer": "0x8469a6D5323De22A11687Cd2CbeB2F09a65A2335"
      },
      {
        "passId": "278",
        "signer": "0x5bFB96f202e409c406773af848fA871f76ABf3Fc"
      },
      {
        "passId": "279",
        "signer": "0x02081a753dE1084bE7d65ed095156cD69da4F46B"
      },
      {
        "passId": "280",
        "signer": "0x1Fc11D7C1C3328B4923805167E4062814D69290A"
      },
      {
        "passId": "281",
        "signer": "0x35c60D047A6c767c9D72fc9600FD92e9a6D7FB28"
      },
      {
        "passId": "282",
        "signer": "0x336470aBf13A4eC93C59644EB089bdbD4723Ab43"
      },
      {
        "passId": "283",
        "signer": "0x468A7d199978D83ff635B0E7A9573db3A37a9A2D"
      },
      {
        "passId": "284",
        "signer": "0x09442F02383680eD4Bb0a0dbC99F3De43301a476"
      },
      {
        "passId": "285",
        "signer": "0x322Acc4033EF8DD3daDb4519FAF4dd3a7D1a6CFf"
      },
      {
        "passId": "286",
        "signer": "0x1A05d67419cec0651516d8200FEC026E0CD3049D"
      },
      {
        "passId": "287",
        "signer": "0x2A2C0a8e960Edd1b6cBa2f5615D7D7871C686268"
      },
      {
        "passId": "288",
        "signer": "0xFD643A0a69fBAd6E7EA4EF34E43633aB3ce6Fe50"
      },
      {
        "passId": "289",
        "signer": "0xa1b85BBeD88Ef6ac632540A623a5CF885D329Dd6"
      },
      {
        "passId": "290",
        "signer": "0xC8289Fd734D8A997990740Bc3f9bf9119a2C9c41"
      },
      {
        "passId": "291",
        "signer": "0xB3d873E567D98D9252E4De3e0aC6BDBaC48a5f9E"
      },
      {
        "passId": "292",
        "signer": "0xFFfb33a0b4b24632121294DE7813dA55B22423C1"
      },
      {
        "passId": "293",
        "signer": "0x4F394b387eed8E00F81f0c556de4A3e5067e7461"
      },
      {
        "passId": "294",
        "signer": "0x031927feBCFF8B245949898dB260d4f82f752072"
      },
      {
        "passId": "295",
        "signer": "0xa4741c3ED77F39c7155716656F523E4E1752d597"
      },
      {
        "passId": "296",
        "signer": "0x1C884a87888EB59973f93aF7DE21F48914b114c1"
      },
      {
        "passId": "297",
        "signer": "0xA62Bebc52f99A6C74d011DF3EE2A6e848131d396"
      },
      {
        "passId": "298",
        "signer": "0x9c8D3653A557D9A955B60725809D2A208365ef73"
      },
      {
        "passId": "299",
        "signer": "0x7B596916c3E0CAe7d49B5c1067a7BDfa48961e6d"
      },
      {
        "passId": "300",
        "signer": "0x3CfB8Abb1e0d0722B7a5fCaC51e9f6EF2a1a6876"
      },
      {
        "passId": "301",
        "signer": "0x632164a5999BCF759570116f6A116A6d9c8459c1"
      },
      {
        "passId": "302",
        "signer": "0xEf56Fa79c5D476CDe717E558c8B2E581583ca036"
      },
      {
        "passId": "303",
        "signer": "0xc5EfCb8b813A15005f15e5D9B79ce7934C42685C"
      },
      {
        "passId": "304",
        "signer": "0xEa7f461289e83E5A00984c8D0bCE45026eB9c9DB"
      },
      {
        "passId": "305",
        "signer": "0x6376D8C850B6FDB391742E3Ba46274b5b39E407B"
      },
      {
        "passId": "306",
        "signer": "0x885CB5120a6422e674A1de529229DA7f8243E34C"
      },
      {
        "passId": "307",
        "signer": "0x0e34Df44a70D24f06dD330eF198c759C7D81C221"
      },
      {
        "passId": "308",
        "signer": "0x4116907237Ab9504d65F5A789EfC72106A2bb45f"
      },
      {
        "passId": "309",
        "signer": "0xC23B243aBeedacA6c26373d30E02437AaA22D469"
      },
      {
        "passId": "310",
        "signer": "0xE916851aa9535a37c204eC7F16580236d5Eefae9"
      },
      {
        "passId": "311",
        "signer": "0xF998913de895Ac11e5679997aF5feA8bAe1ff0b3"
      },
      {
        "passId": "312",
        "signer": "0x9f1bf4e21eE502b7d1d2579D3C2398B39cE9f8c0"
      },
      {
        "passId": "313",
        "signer": "0x95a3BE4D198db2D78e6633aF313483e6f3F23DF2"
      },
      {
        "passId": "314",
        "signer": "0x72018627294d5890D03e676B12f57FA970a398A4"
      },
      {
        "passId": "315",
        "signer": "0xE8c0BCc864B394558Cd8b442E1c6f49899e867B6"
      },
      {
        "passId": "316",
        "signer": "0xe3aAF3c6F654fCbD4Cd541308Dba1662b6903281"
      },
      {
        "passId": "317",
        "signer": "0x1bfefBF520142218b0B4fa64F0DB48aFffA84dc2"
      },
      {
        "passId": "318",
        "signer": "0xC306670447A7aB3716374a769Fb39edE05E0f2b8"
      },
      {
        "passId": "319",
        "signer": "0x486B8aEbC8B037233e877f190C6fad9Cdd8a5744"
      },
      {
        "passId": "320",
        "signer": "0xf6C58a5889114D929804F9369A5674465758913d"
      },
      {
        "passId": "321",
        "signer": "0x84B526BA0507AE7622Bf16fA2e861eE08a5612Df"
      },
      {
        "passId": "322",
        "signer": "0xcc338994E657f2B481Da34d2a081827aAF9638AA"
      },
      {
        "passId": "323",
        "signer": "0x145A1586860defc7243279a769A1d9c267E0e3a2"
      },
      {
        "passId": "324",
        "signer": "0x8Ef891DfBB47bc9dcF9Bcc81038CeB0afB6DCDC2"
      },
      {
        "passId": "325",
        "signer": "0x304DA9167f559FBc144Bd3C0B8545197Fb4a525d"
      },
      {
        "passId": "326",
        "signer": "0xdC2BD73679a783F359888227942246BC8A87c8Ee"
      },
      {
        "passId": "327",
        "signer": "0x17540De6B4c62E7a2A65ceDF091761a28725f6bC"
      },
      {
        "passId": "328",
        "signer": "0x8143D3284Aa30A7c029cCF69e2B386Ed67Dc96ca"
      },
      {
        "passId": "329",
        "signer": "0xb3eABC41776F8e399AE4e767098A07D7b803e953"
      },
      {
        "passId": "330",
        "signer": "0xCd53aF39f8f466002fE2AB05708ff7b8Aff84D44"
      },
      {
        "passId": "331",
        "signer": "0xaCd678C1B2723b406A422b2C481292F8B8a9D2f9"
      },
      {
        "passId": "332",
        "signer": "0x7AC5C2A1202Fb965b68e200dE8f93C3e9bFBB02D"
      },
      {
        "passId": "333",
        "signer": "0x5A9c0CB4B042288849C929C6aFBA5Ab9D164a725"
      },
      {
        "passId": "334",
        "signer": "0xbda6F78Bb9bcE1969201a3Ee2528DE70fe6d8783"
      },
      {
        "passId": "335",
        "signer": "0xA65eB69EB4Ad892F4f1DAe21f2F2a4a0d7c93770"
      },
      {
        "passId": "336",
        "signer": "0x8a6F7b36D273e692Ce721F948E984d31f441F4F3"
      },
      {
        "passId": "337",
        "signer": "0x269Dc5D3268DdA83BFD13EB5819f43caaBE400F7"
      },
      {
        "passId": "338",
        "signer": "0xC8ce702A556dc5D1EB4AD14aa8D4933BdcD9f594"
      },
      {
        "passId": "339",
        "signer": "0xe8D66f1f5E39ed38aFD1E7787dD63a8897182314"
      },
      {
        "passId": "340",
        "signer": "0xe0063a4a485b73DE573a81E2FE79DC4dFFc5Fe23"
      },
      {
        "passId": "341",
        "signer": "0xc1d95aA9Ad4bB884c6c9980371DC05BA53Cc01AB"
      },
      {
        "passId": "342",
        "signer": "0xaD9ADa24224eB1d217F477EB2900fDdd289f5cca"
      },
      {
        "passId": "343",
        "signer": "0x5966d26F481630C902adF4941e089FF26b0BA403"
      },
      {
        "passId": "344",
        "signer": "0x78cAe77203E550372B5a4E6BF0856e31c5665473"
      },
      {
        "passId": "345",
        "signer": "0xa6a34E5eBDf05335a40c9449251a7e12017eeC5f"
      },
      {
        "passId": "346",
        "signer": "0x55F763be8478a53223AE4cF305F5D0A66AD093CF"
      },
      {
        "passId": "347",
        "signer": "0xf1629A0FFBEE78c44055983a55039A953E4BbAcB"
      },
      {
        "passId": "348",
        "signer": "0x178dDF1438d1280279F2ffe14248cbfE7cAC73e1"
      },
      {
        "passId": "349",
        "signer": "0x17460aCF7f4e99060d9e602D573ab87211eC6eD3"
      },
      {
        "passId": "350",
        "signer": "0x54A347706494223d2D702bd162b207600f113dE0"
      },
      {
        "passId": "351",
        "signer": "0xb3c77ABcd050b1246f9b6e20c88c6320CfB4103d"
      },
      {
        "passId": "352",
        "signer": "0xFFa5a6fe954EA359c2b893D0c524aa4723c1c039"
      },
      {
        "passId": "353",
        "signer": "0xA42A754d54e3780146ba2834Ce6836E9c8bDa63F"
      },
      {
        "passId": "354",
        "signer": "0x166B2DfcBa0f4A8cfBFA70dd647014A1e869975F"
      },
      {
        "passId": "355",
        "signer": "0x59039583490eA183C84e71DDf5e66384aE45CCe3"
      },
      {
        "passId": "356",
        "signer": "0xDd393a8b3cFdF60a4Ad444E7355A46EA20C1fB9b"
      },
      {
        "passId": "357",
        "signer": "0x3a880dcD074ffAFB3d81Ff9f0D35e3a7fbC99145"
      },
      {
        "passId": "358",
        "signer": "0xb16380900Ad3e2C0a479a1E5E42B4e75F50EE08B"
      },
      {
        "passId": "359",
        "signer": "0xDeeB8A70A7A0F49ce115f7e3d4050b192cA3F63a"
      },
      {
        "passId": "360",
        "signer": "0x103281C9F157b77Ee0112D35EEa0c3D95E6a9D08"
      },
      {
        "passId": "361",
        "signer": "0x1608f61bC8f6F5b7710F886C2713E7a868037733"
      },
      {
        "passId": "362",
        "signer": "0xDCd1A59EeaE6009dDd84da7259bF3855c045d5dd"
      },
      {
        "passId": "363",
        "signer": "0x11ea3Ea0BA155c264c238efBAb90fc656fC630E9"
      },
      {
        "passId": "364",
        "signer": "0x47D335471153958400D5DDfe499658A3422549b6"
      },
      {
        "passId": "365",
        "signer": "0xDe13f41981734cB345D59751ce6940B69EE60ECa"
      },
      {
        "passId": "366",
        "signer": "0x149b90c425e567b62266cEb7C1546908E57c6DD5"
      },
      {
        "passId": "367",
        "signer": "0x57dA8F9A55e2b32aF089cbb62dce04a4B668b2e9"
      },
      {
        "passId": "368",
        "signer": "0xC33E291bea601C02a874ac4b236b8CE03F94dD9d"
      },
      {
        "passId": "369",
        "signer": "0xA81D0dE714872106c4B693ff817f9fe3277aF59b"
      },
      {
        "passId": "370",
        "signer": "0xBBB4D44E743ABe2B84De8f7eea75aef7Db78A1A8"
      },
      {
        "passId": "371",
        "signer": "0x8462DBcB4f51b06142A2904c5C17C042DAE502Cd"
      },
      {
        "passId": "372",
        "signer": "0x1F9dD1bb8A0D3F79d581268d2dF3db4E0BE1dd4F"
      },
      {
        "passId": "373",
        "signer": "0xc9BcF5b7EbAD5953Ecc30Bb76bb22Bb3Cadc3582"
      },
      {
        "passId": "374",
        "signer": "0x3f7F77C86984F64Ce7b4dc08777770D03a53F962"
      },
      {
        "passId": "375",
        "signer": "0x512b086d6b690B810aF46fdfff446f252fB188fA"
      },
      {
        "passId": "376",
        "signer": "0x98B0DAE91776b2a4aee764d3d84Bb53bD57Fc43E"
      },
      {
        "passId": "377",
        "signer": "0x530BB3A847411A88497a37EE6393b6c1f11ae692"
      },
      {
        "passId": "378",
        "signer": "0xa3717337B6BeDABDe784B70F744260255F8e552e"
      },
      {
        "passId": "379",
        "signer": "0x8Ac6C622cc49feE1e64e6F03cD2b077F2eca4914"
      },
      {
        "passId": "380",
        "signer": "0xE52e972e1A82C3F81762c20509713e126E935C80"
      },
      {
        "passId": "381",
        "signer": "0x4229Ef52929cff969b2517269220731E37f30e10"
      },
      {
        "passId": "382",
        "signer": "0xc49Bcf4D216dd823ca13A31873FD7B4B6755E907"
      },
      {
        "passId": "383",
        "signer": "0x1786f196388dae043e241e7fb41eE3Ba3fAE211b"
      },
      {
        "passId": "384",
        "signer": "0xB7ADb7b2D17ca4d9ec59d945C5ACD166Ea5e5E95"
      },
      {
        "passId": "385",
        "signer": "0x02d4f92B75f3a8C2E34ee0aEAF197c5dA2b0ca3F"
      },
      {
        "passId": "386",
        "signer": "0x2Eb6Aa3187CB1Cf540aC89f73E9a1b9f3bfB2020"
      },
      {
        "passId": "387",
        "signer": "0x07cb3B4B5188597B9AF8dBDCFaE1555a1E2e412F"
      },
      {
        "passId": "388",
        "signer": "0x6053ECEc698DA0bA75cBa88B44BDfa3c4F930d53"
      },
      {
        "passId": "389",
        "signer": "0x66d63B16d522aE3751C76C3d0b259794ef413F5D"
      },
      {
        "passId": "390",
        "signer": "0x9622cf692362b40346B635B8A21A89F2314DE341"
      },
      {
        "passId": "391",
        "signer": "0x327A9f7214C948bB5324E748795803a177B331B8"
      },
      {
        "passId": "392",
        "signer": "0xe4BC89e7D4B0f78fAb29f5107AaFc7F9784aF607"
      },
      {
        "passId": "393",
        "signer": "0x3A86f1782B99e78F6a32A2e963e9b8aA4E872f87"
      },
      {
        "passId": "394",
        "signer": "0x69D3f19ab517Fe305ecf0958d6aa12c893087d37"
      },
      {
        "passId": "395",
        "signer": "0xDFBB8a579D3ceD14FE1C8b8166106786d9b42e4A"
      },
      {
        "passId": "396",
        "signer": "0x6e3C80458d8aA08a2b0Dd6dF2706247E873eE57A"
      },
      {
        "passId": "397",
        "signer": "0xA49A808b600CEC12EfA959fE860a1E1D5C1FBafF"
      },
      {
        "passId": "398",
        "signer": "0x972Ff29Cb9c5B934AE16fa822b44520f209111FC"
      },
      {
        "passId": "399",
        "signer": "0x6Ec5B25aDA511FC315f251aE0E7D977E404f4128"
      },
      {
        "passId": "400",
        "signer": "0x22f85E71DA11D39144cf778Bb654658b0664790B"
      },
      {
        "passId": "401",
        "signer": "0x55Ac2ba0a37F1604C5CE5316F17D9a0546DA1718"
      },
      {
        "passId": "402",
        "signer": "0xaa235F3dEc7f19625f74a206661B42cB62c074f9"
      },
      {
        "passId": "403",
        "signer": "0x9AFe54541ddEb1C17e2AB68782f77E38AEA8B36e"
      },
      {
        "passId": "404",
        "signer": "0xAA129d774041D965385F26d374C842d48ED05d74"
      },
      {
        "passId": "405",
        "signer": "0x7b95Daa13Bf69e58641f4EFB156499098458cbCa"
      },
      {
        "passId": "406",
        "signer": "0xca83b51Ef05B1B94580C7A816Be79370C78f63C4"
      },
      {
        "passId": "407",
        "signer": "0xA4E9c22b8Ebc45AA7D7dB1f6e261251a942E8FF6"
      },
      {
        "passId": "408",
        "signer": "0x65d02dee8fb9A7492cbf2757784A9aff045fB972"
      },
      {
        "passId": "409",
        "signer": "0x18297CD3e576A852219cC770Ae3Ff6e10A3FFea8"
      },
      {
        "passId": "410",
        "signer": "0x23a9620362fA7E785CF7c2df7b93168B9E09C07E"
      },
      {
        "passId": "411",
        "signer": "0x5e63db5692F45a2eE2A056523aF2EF9c820CEd35"
      },
      {
        "passId": "412",
        "signer": "0x2B3de4822Ab18BCB257fED9c40498e485cc5760b"
      },
      {
        "passId": "413",
        "signer": "0xD41019473d8a8a90c2E49c39Cf0C4557a1d5cb8e"
      },
      {
        "passId": "414",
        "signer": "0x90F289Dd064eE054DC9147Cd8312e2753605CAFf"
      },
      {
        "passId": "415",
        "signer": "0xf449517789A30C31E64A00665b7C85A14874F5a5"
      },
      {
        "passId": "416",
        "signer": "0x147A11D54176fFEf69D258D506b870ED21b580Ce"
      },
      {
        "passId": "417",
        "signer": "0x25f0e4a11Dd2832FDe68bD89c6609A5fEA5E5154"
      },
      {
        "passId": "418",
        "signer": "0x30B8C8B249b68F7e50926969bD44280f22932986"
      },
      {
        "passId": "419",
        "signer": "0xB544ED03d43a1b1DE37F0C94764241735464825c"
      },
      {
        "passId": "420",
        "signer": "0x4Ff35a30c0C50dD1360BC08C59c47265395f2F3F"
      },
      {
        "passId": "421",
        "signer": "0xEd8175CC0Dda4c318501BEa899AbAe710D132d64"
      },
      {
        "passId": "422",
        "signer": "0x32A7Dda482CdD1215352B297e1F144eB13d2cB06"
      },
      {
        "passId": "423",
        "signer": "0x7b38203EeABE4CF27c8F6b8eB043023c32aE63Cd"
      },
      {
        "passId": "424",
        "signer": "0x59aee517D232bd1300649b8373D1600cbA2694a3"
      },
      {
        "passId": "425",
        "signer": "0x78cBD9DA15714fb577C8F53cb6Da87d00EF4e6f6"
      },
      {
        "passId": "426",
        "signer": "0x6CD2001a3029E25dB06603B9110C42b38C06151B"
      },
      {
        "passId": "427",
        "signer": "0x0A55615Fe999AC2B0c8c500e0ca30905C9267dE0"
      },
      {
        "passId": "428",
        "signer": "0xfEaC41A7118F618b6D74603F6633313cc11eFA9B"
      },
      {
        "passId": "429",
        "signer": "0x0b8b32260822a2D73574D15d47bA4ce68AF841f8"
      },
      {
        "passId": "430",
        "signer": "0x542daF34f8CB633aF8509AAd6850Fb8FCf26F839"
      },
      {
        "passId": "431",
        "signer": "0x0Ad6bC8C1cfdA5493B0475dae5d5DAAC60bF74af"
      },
      {
        "passId": "432",
        "signer": "0xb8934e09722A530507804F407cb4bd9D141FEf87"
      },
      {
        "passId": "433",
        "signer": "0x376696477E3F47F14Cf3cB3396805756e1b2b5Bb"
      },
      {
        "passId": "434",
        "signer": "0x37C8E5051De2d637944C1A57F8D4c38a3C686386"
      },
      {
        "passId": "435",
        "signer": "0x08594b57Aeba728E53BB5eeBA2BA566E45B40595"
      },
      {
        "passId": "436",
        "signer": "0x216609c62d385052226Ee572F65900300bFEF1d4"
      },
      {
        "passId": "437",
        "signer": "0xee89fb1A9d4d6c4f96e7F856DEc67D5f9EF57c45"
      },
      {
        "passId": "438",
        "signer": "0xBBE5A44f5786e4F1C5D41c0C761D215b759Cda44"
      },
      {
        "passId": "439",
        "signer": "0xa02603b25B9161d4B7E2D3bf81e81f076707FeAC"
      },
      {
        "passId": "440",
        "signer": "0x668eB324A4F2711f0C06f53700E3D2866Cf2a22e"
      },
      {
        "passId": "441",
        "signer": "0x5660682cA07F4bcfC9185c11c086501Edc9Bea82"
      },
      {
        "passId": "442",
        "signer": "0x1f6Ce5D075a80c4Dcec537AEba7c7e7F394c8CaC"
      },
      {
        "passId": "443",
        "signer": "0x04634A18F3db5b85E462bE49001485392fa477c9"
      },
      {
        "passId": "444",
        "signer": "0x12E2413590C1F2efE5FA0e4F045e494389Ae3557"
      },
      {
        "passId": "445",
        "signer": "0x27Ae460e3E2aE41c9910953d42a53C18e2c52FBe"
      },
      {
        "passId": "446",
        "signer": "0x7C49db858527368ABF0d50b80a2112eA7a132a0B"
      },
      {
        "passId": "447",
        "signer": "0xc3F037D0F0af91565f911cf24aCd98587ACf8Ff0"
      },
      {
        "passId": "448",
        "signer": "0xD72b48970d92773fe70129745eC26bf475Ce4A10"
      },
      {
        "passId": "449",
        "signer": "0xb2304c3b20e1087588167048a78A838177b3608F"
      },
      {
        "passId": "450",
        "signer": "0x979F68a1Fd647Ad0436b70a3de007Ebab8001251"
      },
      {
        "passId": "451",
        "signer": "0x2b77719a7B029Df386eF030DC69c4cDbEa917D3E"
      },
      {
        "passId": "452",
        "signer": "0x5E45f56362565159d167c27a85eF9cfEe2fcd0cF"
      },
      {
        "passId": "453",
        "signer": "0xDc49ECae5523d8Ee332bfE6E5E0A1F0Bc03bE15A"
      },
      {
        "passId": "454",
        "signer": "0x24F05eAD4334263A04d41Ca70ac709b1E9a7daEe"
      },
      {
        "passId": "455",
        "signer": "0x7D50B86C8fbF1c5e3245A49ac787b7398be50081"
      },
      {
        "passId": "456",
        "signer": "0xc56620F1744cEBBc710eDC4108CBC39Bd6F4F6a1"
      },
      {
        "passId": "457",
        "signer": "0xDE854De3C3816Dc0d4659Bd249c28a125DAd1D11"
      },
      {
        "passId": "458",
        "signer": "0x3f562ED570d067bE839379F65A3e522BcE1B58a1"
      },
      {
        "passId": "459",
        "signer": "0xd7d40503E641209d3c5B10717c9040061016eA99"
      },
      {
        "passId": "460",
        "signer": "0x9b57FC18324127256a27382883198eD6e19b421b"
      },
      {
        "passId": "461",
        "signer": "0xAE40de0b838e3451e99B6d51Cb12a628336DCA22"
      },
      {
        "passId": "462",
        "signer": "0xB445C065A2Cd6f0db1e3b1D7D6D39141a44fe647"
      },
      {
        "passId": "463",
        "signer": "0xA277504BD28592BefF488fcfBBb8369d21F2df12"
      },
      {
        "passId": "464",
        "signer": "0x20EA74941d536ace7D781A7eeD36b100910dCCb2"
      },
      {
        "passId": "465",
        "signer": "0x26b1E48911826E682F807440BEA041c9a2A72E93"
      },
      {
        "passId": "466",
        "signer": "0x0c265cbAe6bDACbCf55c12906C3902b740d2EaA8"
      },
      {
        "passId": "467",
        "signer": "0x70970F1E8fc015a4c0F8FEaF0E7AcefC3b1f0175"
      },
      {
        "passId": "468",
        "signer": "0x453fC0f91e4991Ba6Cd6c363A89eF963D86ae41a"
      },
      {
        "passId": "469",
        "signer": "0xecDC74d7021BC4881dd238CbAbd787C3acF21728"
      },
      {
        "passId": "470",
        "signer": "0x1798b5dC248083281A4A65adb1c661a4fC3C5f25"
      },
      {
        "passId": "471",
        "signer": "0x4D00C864a391A592e6dFB1d71e3055158F736c3d"
      },
      {
        "passId": "472",
        "signer": "0x9f025b1D2A47dae8f1131bDCAa45efF15BC7e8C5"
      },
      {
        "passId": "473",
        "signer": "0xFb1bC89f938d2fc4AfF0f948829503cA3D41f3B1"
      },
      {
        "passId": "474",
        "signer": "0x77235180855Bc072F1e4e00CbC9F07C8A19d3FAC"
      },
      {
        "passId": "475",
        "signer": "0xCC9D2Ca979888D54f942836487047F99d6eE1d5F"
      },
      {
        "passId": "476",
        "signer": "0x31d3dCce3B73fD96B4ddc2dfFa8fEfB9D8464C13"
      },
      {
        "passId": "477",
        "signer": "0xa7241687F992F8d0e2A555AFDb2AceBA64DD1697"
      },
      {
        "passId": "478",
        "signer": "0xea2f576184f4aeff219A7587Fa5117C9CF1ec7F1"
      },
      {
        "passId": "479",
        "signer": "0xF1347e635528BC0c22d023cbf64925e2D1F4D0e6"
      },
      {
        "passId": "480",
        "signer": "0xbBDf41Ac1523643bB60f44b4Bf41546528eCdDd9"
      },
      {
        "passId": "481",
        "signer": "0x39142088b359A85288f0B534610FDB11D274B806"
      },
      {
        "passId": "482",
        "signer": "0x17BE810b5b056d3E1a9FFe547E7Ab95c4E0FE426"
      },
      {
        "passId": "483",
        "signer": "0x7F5E37380bcdc8fA00eE7bc24c7d595738aEA8Ce"
      },
      {
        "passId": "484",
        "signer": "0x9e0a34bc3DE1139C608a7fCcb0e325a02Bb52626"
      },
      {
        "passId": "485",
        "signer": "0xED43b3352725e4D53Ea511Ba47cE06902a02DCE0"
      },
      {
        "passId": "486",
        "signer": "0xcc4FBE7F6EB4982812d30370FDfE31696087635F"
      },
      {
        "passId": "487",
        "signer": "0xd7b010792dBcA03328951254D2C467E60413d397"
      },
      {
        "passId": "488",
        "signer": "0xf496Bb29A69E32C8b18E15cA7Fc1A7c7bEeBc3fc"
      },
      {
        "passId": "489",
        "signer": "0x54F820986CbC5d2639FAA93DCf44C4Ea5285581a"
      },
      {
        "passId": "490",
        "signer": "0x9a71029885723574745ddf64117765D35Bfccf1f"
      },
      {
        "passId": "491",
        "signer": "0x94fEB0142F3340913F359807c65812DCeefd66e5"
      },
      {
        "passId": "492",
        "signer": "0x51c97840b8C610A60242F9aDD3bE041a39892A70"
      },
      {
        "passId": "493",
        "signer": "0xB663b78eB5E1150639Efa416aEEb5A33378d745b"
      },
      {
        "passId": "494",
        "signer": "0x7d5ee43C5F3D9c200f6EC1d5b3A506E7ac28374F"
      },
      {
        "passId": "495",
        "signer": "0xbD7d8D38bcF7177c9a4AF064688fE056dEb962c7"
      },
      {
        "passId": "496",
        "signer": "0x0E3039b37449518b29FFA69AF1b55Ba4D2756113"
      },
      {
        "passId": "497",
        "signer": "0x53b7b7651F7DdFfD6a1091e25167F0a5f2aD00ec"
      },
      {
        "passId": "498",
        "signer": "0x0172B0Ec2c2bc20C9B50a0722b831a4aC14475B0"
      },
      {
        "passId": "499",
        "signer": "0x9D45476Af1cFb9c2d6579f6De147537A166794Fd"
      },
      {
        "passId": "500",
        "signer": "0x20fc472fF0279dA2eAB0375C7358fdbc64584Bd8"
      },
      {
        "passId": "501",
        "signer": "0x0FC69c804C97c27cF7cBf871db824FA8037b9Ccf"
      },
      {
        "passId": "502",
        "signer": "0xbCbC3BdbAB8616d8aD779D525789E179055180eB"
      },
      {
        "passId": "503",
        "signer": "0x31720eB9316F959AebC7ffCc8487fC1a07587E9D"
      },
      {
        "passId": "504",
        "signer": "0x9BD54A114a454CA08704d1133EDd3b7aD40CA236"
      },
      {
        "passId": "505",
        "signer": "0x024f317d4613D18EaC549Db076f33099F72aD30a"
      },
      {
        "passId": "506",
        "signer": "0xC3E930C0B1F25194DdfeB4e5e17f68e7aC40Cae1"
      },
      {
        "passId": "507",
        "signer": "0xc42699Ae0e90904B3136DE17cfC57D5547A219F9"
      },
      {
        "passId": "508",
        "signer": "0x603351C218dd5b244d92e423F4C4a2297D4249ec"
      },
      {
        "passId": "509",
        "signer": "0x2FAAfC33DA4d1C0bdE6b5e1a31a6F00C2f4Ba66D"
      },
      {
        "passId": "510",
        "signer": "0x71ac9Ec60542B4164FB10be364A6E778951755BB"
      },
      {
        "passId": "511",
        "signer": "0x089EbC9dEB740226D12d447D13d6c514D8d03A2A"
      },
      {
        "passId": "512",
        "signer": "0x976b9b5419CB35DB3583ACFB20C7a1B65B4C47C7"
      },
      {
        "passId": "513",
        "signer": "0x1C4C7a547482310Ac27806d6D28B0FBc85Aab8c7"
      },
      {
        "passId": "514",
        "signer": "0x2c5d214f8F5aDa9cA1EB6e80c3dF260a534b40a9"
      },
      {
        "passId": "515",
        "signer": "0x1A28578bF97Ee13c7ab770106316266A84Eca176"
      },
      {
        "passId": "516",
        "signer": "0xbd8E0e1f697f213B231c6a13dC50d980662695C5"
      },
      {
        "passId": "517",
        "signer": "0xB7250cAeB28968d7b617205E06C3A9f5379272a0"
      },
      {
        "passId": "518",
        "signer": "0xb220eb3aa5C24acBae822680CBBd974ab7600253"
      },
      {
        "passId": "519",
        "signer": "0x870039b1AA4d2620C2D82bF17241eDB8fe9B5389"
      },
      {
        "passId": "520",
        "signer": "0x1c79d6a2Aa19eed23e8F735CB530A61769a96aA3"
      },
      {
        "passId": "521",
        "signer": "0x546fd78E373E7fd3D2a9FF401c73cc0D54592e02"
      },
      {
        "passId": "522",
        "signer": "0x083E55fbd29A11BE6124f98A9808d6ff32063095"
      },
      {
        "passId": "523",
        "signer": "0x1a4637609fb0b0b8246e6e8A35E93B50D933b94f"
      },
      {
        "passId": "524",
        "signer": "0xF57bF908ac02840992FBEdC9B6b3f26DE7866CC0"
      },
      {
        "passId": "525",
        "signer": "0x1c374A1cd9f387D5505AC0492dd6bD234E8466dB"
      },
      {
        "passId": "526",
        "signer": "0x05B824C079550C15fA20bc1cC7DcF82531aA7e4E"
      },
      {
        "passId": "527",
        "signer": "0xdEEE61Fe069AdeD31451785ace1a3f73804dF5c9"
      },
      {
        "passId": "528",
        "signer": "0xAA7788E3E5472cC965704557fDa0ce7B75E19221"
      },
      {
        "passId": "529",
        "signer": "0xEBf05bD2555E5337785Cd7B78919510ac9C2913B"
      },
      {
        "passId": "530",
        "signer": "0x670af2882088a3ca5bcCbD23268B69EE91b943C3"
      },
      {
        "passId": "531",
        "signer": "0x266D9d985d50d364E875C5C756Ab0faa87a75F3c"
      },
      {
        "passId": "532",
        "signer": "0x480aD52dc26fD293eE3b4f9449703b1d6e088B5D"
      },
      {
        "passId": "533",
        "signer": "0xB798113b7c0C018Da4D2cdEA79AD10f4846f8D86"
      },
      {
        "passId": "534",
        "signer": "0xb75f93B9B3Ae79caE66366e39D10b5AeB0068B29"
      },
      {
        "passId": "535",
        "signer": "0xC1288fd76b1d81BefE280228EdF2e4A17873b870"
      },
      {
        "passId": "536",
        "signer": "0xC5c159D9286b15CFA84bcA7891ec325E3Adc814E"
      },
      {
        "passId": "537",
        "signer": "0xEfe02fBB623872F51919370A5E0C65de7B902fFC"
      },
      {
        "passId": "538",
        "signer": "0x55Ca71B65E7bc267814cA42D10E0bca91eE81232"
      },
      {
        "passId": "539",
        "signer": "0x8f066583cb9c3b19e03B9025e4a934b5099f1263"
      },
      {
        "passId": "540",
        "signer": "0x120D411431D0C9713936590Fa03854b7f9F98cfF"
      },
      {
        "passId": "541",
        "signer": "0xDeEc00474393d2F8C16054824f500142950DF7C0"
      },
      {
        "passId": "542",
        "signer": "0xD1081b28CD5d1C2f31240CD7451889b37A0f4730"
      },
      {
        "passId": "543",
        "signer": "0x2E6520D94fD792D6A30103047c8ba3D0BfE5c4a9"
      },
      {
        "passId": "544",
        "signer": "0x5017b19098536B3b72B5723d96364328c54e6B55"
      },
      {
        "passId": "545",
        "signer": "0x42d93483313314C3bC0C84aF3d12Ea7F773EB069"
      },
      {
        "passId": "546",
        "signer": "0x94336F4e6a94422f80fc4528E3E169E7bA3FfD86"
      },
      {
        "passId": "547",
        "signer": "0x07E5b43d2f7d40E63749F300e7FB1E7d276B27B0"
      },
      {
        "passId": "548",
        "signer": "0xBCa9b7F38C98c753440a70D7a723AB7b592a08bC"
      },
      {
        "passId": "549",
        "signer": "0x69126D3Ff0Cc42d8f8aD3c6f26019f01c417c305"
      },
      {
        "passId": "550",
        "signer": "0x3d6619dA174516Ce409a6B794b7094539eDFfCd5"
      },
      {
        "passId": "551",
        "signer": "0x9C6A3Fa9b80d3d022451b2335c0b8e12672bc5d4"
      },
      {
        "passId": "552",
        "signer": "0x42E5bB12C44FE9dA20e20C08E2eb4c7eC143572E"
      },
      {
        "passId": "553",
        "signer": "0xf8F27AF96caf444EB308ec85738dbcdF396ec758"
      },
      {
        "passId": "554",
        "signer": "0x356fAAD4815346022E5fAE81707B89cE4F22FC27"
      },
      {
        "passId": "555",
        "signer": "0x10F835a97f837bDAdACa1b0C4494e97449b1811C"
      },
      {
        "passId": "556",
        "signer": "0xb73A1af844697Bf4d903Efbf9e1AFcA7D99797EC"
      },
      {
        "passId": "557",
        "signer": "0x6Cc8519035b2Dac46f8a68e51abeD93C77d9c2BD"
      },
      {
        "passId": "558",
        "signer": "0x201C4426395C33026D4A612387824Cb6a98DAF24"
      },
      {
        "passId": "559",
        "signer": "0x5F2A173665888a7A04a7843E897401b68bBA5659"
      },
      {
        "passId": "560",
        "signer": "0x82f46c25A6466Fd2eCD4e3208Aed14BB8f52d7c9"
      },
      {
        "passId": "561",
        "signer": "0x1FA778fF7b4d18B3Cff643829f921e38d90BF317"
      },
      {
        "passId": "562",
        "signer": "0x9592B8E05d47355A25efD267E73C2617B0ff27a5"
      },
      {
        "passId": "563",
        "signer": "0x31FD16E1Da1641505Ec64F0f3fb3F0cf02c93182"
      },
      {
        "passId": "564",
        "signer": "0xc2763CfDa6Acb9e7D8C52D1AF1Ad83F64cc57Fcf"
      },
      {
        "passId": "565",
        "signer": "0xcD2b9192d9Ac2C75c5d55f50E7c81A0049C4e1A2"
      },
      {
        "passId": "566",
        "signer": "0x9AaeB5f6ff77a31CE19da0398F5d2A6e18039afA"
      },
      {
        "passId": "567",
        "signer": "0xA181e49C9af36CEab80361A8F5bee9FDb7FAc2A5"
      },
      {
        "passId": "568",
        "signer": "0x24e59e89b29840C1B095B013c558aD233BAD6134"
      },
      {
        "passId": "569",
        "signer": "0xeA89788D6F39428949Dd286CAa3E958aCc28673C"
      },
      {
        "passId": "570",
        "signer": "0x17CB91DDCd17Ab6EbC3619bd92b2B2b7220D4229"
      },
      {
        "passId": "571",
        "signer": "0x8c184b6fCA2Cf01f502c7111DA27Ae36869281d6"
      },
      {
        "passId": "572",
        "signer": "0x319F51b80f912e5112b20C63416735365E56FB84"
      },
      {
        "passId": "573",
        "signer": "0x11B9126cab2cE8d6BE743C5C3751C7208B84472b"
      },
      {
        "passId": "574",
        "signer": "0x177551cb0271De94397e508c3Df44b04c2D4ef85"
      },
      {
        "passId": "575",
        "signer": "0x555D51502de7ae0d7f514CFc17358cc5ad4D476f"
      },
      {
        "passId": "576",
        "signer": "0x328153F8eA976237c09E462dc60fEAaB0A79E54E"
      },
      {
        "passId": "577",
        "signer": "0x374F166b735569F14F726FB7e05807c5112ffd5c"
      },
      {
        "passId": "578",
        "signer": "0x2a0baE6965f9AcEd7d161d390B2559f02099e36a"
      },
      {
        "passId": "579",
        "signer": "0x46AE2468cEe1Fc3A26Bf0b8840038cAb7E2A6780"
      },
      {
        "passId": "580",
        "signer": "0x8b132eB2Da2b64C02A862bE350eE52FC7480CB5B"
      },
      {
        "passId": "581",
        "signer": "0x03F8Ff78cd20d625bE1156993Ae04F79b6B7323c"
      },
      {
        "passId": "582",
        "signer": "0x46F2Cde2F3a4E08C647c0b83cB84b4f08793c6a6"
      },
      {
        "passId": "583",
        "signer": "0xEc187A006EFD68DD5A51BFF30CB6844CbaB807aa"
      },
      {
        "passId": "584",
        "signer": "0xBfA5d3830C5eb87A8d5Dc7629D573Dc8b3D13e6d"
      },
      {
        "passId": "585",
        "signer": "0xd0a46c746a8C991aC14B9aa388aEc14c70F1b06c"
      },
      {
        "passId": "586",
        "signer": "0x67362CDf08b0971AC652693E3f386303Ced0d807"
      },
      {
        "passId": "587",
        "signer": "0xab8021f06e29fF4DE776F31beE250bccdE304bd9"
      },
      {
        "passId": "588",
        "signer": "0x85316C1e001e9DCfFb1850Dad52EF59AeCAd591C"
      },
      {
        "passId": "589",
        "signer": "0x4fD72fEFc7bf4D8311f088f344Bd1F276695F7Bb"
      },
      {
        "passId": "590",
        "signer": "0x84cEdFfD84a04f9dea55ea25bF8AA8619b6C115e"
      },
      {
        "passId": "591",
        "signer": "0xac9cE192418B23612F3C129512Df790EAc1F7bCb"
      },
      {
        "passId": "592",
        "signer": "0xF19210E65D69c8603391B1a8d4501937D8BB26Aa"
      },
      {
        "passId": "593",
        "signer": "0xCfCC39158612d62C414eFCf78359B33f79888E4f"
      },
      {
        "passId": "594",
        "signer": "0x6db27359163bf48b13ce8D675C1a07596e49ECC8"
      },
      {
        "passId": "595",
        "signer": "0x91C8A827a2612c0490FeC4433b527B2b56562970"
      },
      {
        "passId": "596",
        "signer": "0xa8AA3275e3ffca6e31D02A7aE54170109Fd6BFA7"
      },
      {
        "passId": "597",
        "signer": "0xDEb907Aa2EAcB6Bc3C33c867f637017b99e7CF94"
      },
      {
        "passId": "598",
        "signer": "0x4E010d9E92CF5596047bcFAF78861cC4f0C240d6"
      },
      {
        "passId": "599",
        "signer": "0x60690d060708550cdD3b2008720EDac854e11086"
      },
      {
        "passId": "600",
        "signer": "0x38e17f9bC30BadF34B9cc70826C4FB62a8a086A9"
      },
      {
        "passId": "601",
        "signer": "0xcD0412C11A8DB55fCbcB9Fe159F7F85A56591870"
      },
      {
        "passId": "602",
        "signer": "0x1C50C4609B854eF413EF7dc6aa4944aeeBeba0A5"
      },
      {
        "passId": "603",
        "signer": "0x68C6E216E25f7d706DD68ffCb00B4f69F402F820"
      },
      {
        "passId": "604",
        "signer": "0xD45d0880c67D3a68A8b540bd299f7fe51E0b53Fd"
      },
      {
        "passId": "605",
        "signer": "0x98D3a46C55452ba89123d880457dB184e31DfF19"
      },
      {
        "passId": "606",
        "signer": "0xA19a655875C0Aca45A9cE1D61534aaA0fa237c9e"
      },
      {
        "passId": "607",
        "signer": "0x6aa9a699B15090bd7FcC7F9BAa729E5b485E1265"
      },
      {
        "passId": "608",
        "signer": "0x8Ac4035c1f11c33d41961d392f502Ca4Afec1BcE"
      },
      {
        "passId": "609",
        "signer": "0xF85830a98362704Fdf7B7050921fA3B41D928eB7"
      },
      {
        "passId": "610",
        "signer": "0x1917C9fDB6E5CE904826335f05c2537521564a38"
      },
      {
        "passId": "611",
        "signer": "0xe98dDeA6a08A5BfF7a412db121D0f97a9955A682"
      },
      {
        "passId": "612",
        "signer": "0x4B3552F706156807f8d23aCADa52E4c153929fd3"
      },
      {
        "passId": "613",
        "signer": "0x4c880773a1333068A0A0dBE786701ff1deD7fa27"
      },
      {
        "passId": "614",
        "signer": "0x35466284C75e3cb2eC6626f21a82d891A962b7bF"
      },
      {
        "passId": "615",
        "signer": "0xbFF8706c8d8407Cfc66f3fE718f3423670f4E6Ae"
      },
      {
        "passId": "616",
        "signer": "0x3479D26C5704d68B927A65D2dE41517f5319b0Dc"
      },
      {
        "passId": "617",
        "signer": "0xf87BB9d8d4B510240A96C6Eb7488673C607f602e"
      },
      {
        "passId": "618",
        "signer": "0x89D0c66AFf8fC95012B7DC1af10ec89F33A16Eb0"
      },
      {
        "passId": "619",
        "signer": "0xE658942Eba15CF04cDCAba47e902f5643691E902"
      },
      {
        "passId": "620",
        "signer": "0xEe228AAb3a955B6eD433329D6957075B688F87BC"
      },
      {
        "passId": "621",
        "signer": "0xc0F20EA4c6A4529238287DAD9958647C715DBC94"
      },
      {
        "passId": "622",
        "signer": "0xea56fE61CC6BDe91dE236Cf21CDFb9c30aaC89F1"
      },
      {
        "passId": "623",
        "signer": "0xa1b425F3FF22B8E716F4DaAbe8A7f5DCeb042CCe"
      },
      {
        "passId": "624",
        "signer": "0x36De57A94A0d8CC342C5c6335ca89e31d27c5A0c"
      },
      {
        "passId": "625",
        "signer": "0xD56cD347475Fe98602c680F17807b10eF09Bf0c3"
      },
      {
        "passId": "626",
        "signer": "0x4C60954F3A4B40ca9C169b4f3Fb8572EC065B856"
      },
      {
        "passId": "627",
        "signer": "0x8c90399D7e4868fc1D0125227a7A676750058b8b"
      },
      {
        "passId": "628",
        "signer": "0x30D04CF5f0c2695D08EECA44b6e8746577271a2c"
      },
      {
        "passId": "629",
        "signer": "0xF9e41BE7d5Af1F9968Ce8b0aE7392fF97f265F85"
      },
      {
        "passId": "630",
        "signer": "0xb86e436c042C932cE10de311740b3EFc29a6fd6f"
      },
      {
        "passId": "631",
        "signer": "0xcC2B98C1A31dF6eb371497445fE236Ba0F7b00Cb"
      },
      {
        "passId": "632",
        "signer": "0x16DDaf15f9b277341E816a09460b6c56CDB4431a"
      },
      {
        "passId": "633",
        "signer": "0x5f81A3b50Fa33EA16A72f7b05324123980c0220b"
      },
      {
        "passId": "634",
        "signer": "0x34479EaC593c137c3B095CAED7F716F76Df5c385"
      },
      {
        "passId": "635",
        "signer": "0x5b84e6CBB7091455498752d8924f2841927E7F3A"
      },
      {
        "passId": "636",
        "signer": "0x7592532aFDee4E2B23A84f7FDEF999A9D3347711"
      },
      {
        "passId": "637",
        "signer": "0xB5b2dC44DcffaBB0A0d0c84c6A7E730664eBd020"
      },
      {
        "passId": "638",
        "signer": "0x57584aD7dd4fE6c3e89E49DE94A00873422858B5"
      },
      {
        "passId": "639",
        "signer": "0x4fb85369305536c4e062412A757576E18650E21d"
      },
      {
        "passId": "640",
        "signer": "0x83Fe362FF5c3fC8ebE253c550E2dfa27b6A2D3C5"
      },
      {
        "passId": "641",
        "signer": "0xf560892884C1123C5C2d0c2a71e989188cbBab24"
      },
      {
        "passId": "642",
        "signer": "0x0977Ff0eec9C3faE85cabFcB40403BF06E836029"
      },
      {
        "passId": "643",
        "signer": "0x120430479cCD770186aF5133e6a00d87A0656b82"
      },
      {
        "passId": "644",
        "signer": "0x687fA8818518BF0C19811A301dae954aD14AebC5"
      },
      {
        "passId": "645",
        "signer": "0x970b9a47a8A45218440895EFef2DD57045657cE8"
      },
      {
        "passId": "646",
        "signer": "0x20ee8cA2007679583FC0e2F9db39B8E16d845EdA"
      },
      {
        "passId": "647",
        "signer": "0x65eb370203870E52928C7cF194B0B32Ab22AE75B"
      },
      {
        "passId": "648",
        "signer": "0x2bFff297F5dFd5d5c56706b370c00404Fd59bfaA"
      },
      {
        "passId": "649",
        "signer": "0xCe52bfA77de79c465870C285e3Dc271f2A3Da446"
      },
      {
        "passId": "650",
        "signer": "0x94923F37CfFD7AFa129bF48DA513a22908E4A48d"
      },
      {
        "passId": "651",
        "signer": "0xebDf8db055FB953D0261a20AB724c4b0BC22E422"
      },
      {
        "passId": "652",
        "signer": "0xc5057EeF3FfcEfFF2cC0c28E3f0aED35Ae8a484D"
      },
      {
        "passId": "653",
        "signer": "0x99aEd3c8b3B800F584174A373254E98bb72a9E87"
      },
      {
        "passId": "654",
        "signer": "0x1Cb49Dde1FD4B10D9E5D595aa0Ef111238EE016B"
      },
      {
        "passId": "655",
        "signer": "0x03cFd1763286a42A4DDc3479F19761BeB0bCBF45"
      },
      {
        "passId": "656",
        "signer": "0x7D4B0c7921FF8FF6C3b3ec606Ed03034eE560F7c"
      },
      {
        "passId": "657",
        "signer": "0x8c6Bb82E14EFef3b544c7aB24cca69fADDD094C0"
      },
      {
        "passId": "658",
        "signer": "0x578E80c545aC9d5fcd15e75619F7DCD40d64AF1c"
      },
      {
        "passId": "659",
        "signer": "0x056b3C7928654baa6563937FE8Ebf2cA3a0d1C85"
      },
      {
        "passId": "660",
        "signer": "0xbC03b69931B3C139c0DeA20985Bc3b02ABCa2759"
      },
      {
        "passId": "661",
        "signer": "0x1cB299Ab0236593Eed0A418D5FAF39fc4c78005E"
      },
      {
        "passId": "662",
        "signer": "0xfc719A027E4597bAAaCD1C630a71834D6Bc6B3d7"
      },
      {
        "passId": "663",
        "signer": "0x189a41faB8954BF4E4Ee1d30b7937562B0BcA801"
      },
      {
        "passId": "664",
        "signer": "0x1ece81184F039307b961a2107876f647Db67aBa4"
      },
      {
        "passId": "665",
        "signer": "0x3EC33DF91aa2762990b03585126a8409b6da626f"
      },
      {
        "passId": "666",
        "signer": "0x7496A7ACC369B0c6e2077Bbf88bae139E2c55FCF"
      },
      {
        "passId": "667",
        "signer": "0x42811903933cC8eD52665fAff480447BE46D4a3D"
      },
      {
        "passId": "668",
        "signer": "0x8b15Ee352443f3a27278A4066f4b483FAfC49E4A"
      },
      {
        "passId": "669",
        "signer": "0xd8b1D17de93b1056c8A4504c6cc53A51eeB4B406"
      },
      {
        "passId": "670",
        "signer": "0x636b95510aF5e9c912B2156CB555Cb99656260eB"
      },
      {
        "passId": "671",
        "signer": "0x8824FeE8baeEc3F561c9bc98aF232b4637694968"
      },
      {
        "passId": "672",
        "signer": "0xA018f19daB2fB6BE1CcA93ca1F958B4fD6125721"
      },
      {
        "passId": "673",
        "signer": "0xCae1241038aeb8a029006C41e41432d123Aa16dd"
      },
      {
        "passId": "674",
        "signer": "0xc09b1aDE0f0d8a3013FFAce216b76011a3D92AC7"
      },
      {
        "passId": "675",
        "signer": "0xA54fA9C2438704D0065089243a392D72aa6EC675"
      },
      {
        "passId": "676",
        "signer": "0x6c4C541b758d29C9d213D55Af6415852cE513Ad8"
      },
      {
        "passId": "677",
        "signer": "0xB1D25Eb1df00697A8F6d5c668C102bFcdeF5876E"
      },
      {
        "passId": "678",
        "signer": "0xcc3bfEA494c7a052cf5C120450565FA1e4db1631"
      },
      {
        "passId": "679",
        "signer": "0xfdc8DC2DcfE603591a15d0107635C7eA8D9F00Ca"
      },
      {
        "passId": "680",
        "signer": "0x95d51f6cBd198CeD7F06b9E4f516D85fC15E12f4"
      },
      {
        "passId": "681",
        "signer": "0x629B619c5296985812E37365AeB0871503094A03"
      },
      {
        "passId": "682",
        "signer": "0x20Fb3E18363A9f3109B88b65cA0375B1687fb82B"
      },
      {
        "passId": "683",
        "signer": "0xED4002d70E2F6fd00178291159AD1109cB9A3699"
      },
      {
        "passId": "684",
        "signer": "0x9f0dA0417005307B50CBc0562BDf2efa3370E402"
      },
      {
        "passId": "685",
        "signer": "0xDD9f134d58654d12f3407409DE1F4B7dC96b8336"
      },
      {
        "passId": "686",
        "signer": "0xaf29Ea356059fc1EbE702EE869be6D6543FC00a8"
      },
      {
        "passId": "687",
        "signer": "0x274F52b30EB519CFaAfA2d769B57112F10041A2d"
      },
      {
        "passId": "688",
        "signer": "0xb45d182C54182174115dA5C283e55D8dbf9C3A4d"
      },
      {
        "passId": "689",
        "signer": "0x5Be2c980b8Fa73782E60983Ea257fE57727fA0Cc"
      },
      {
        "passId": "690",
        "signer": "0x15a231d509e93586F0C72E15Af898bfc38345537"
      },
      {
        "passId": "691",
        "signer": "0xdBF5ef798413613851BAE35157e820c52Ab7062A"
      },
      {
        "passId": "692",
        "signer": "0xDdCadA9Ae95A2C0C0d5b2c18209939f7D4172adF"
      },
      {
        "passId": "693",
        "signer": "0x9218D32C8A0d7f9731cB7C29c10A320d12223274"
      },
      {
        "passId": "694",
        "signer": "0xC6854e95c2D50E28a61D647F4000e4BBc2EF0b4F"
      },
      {
        "passId": "695",
        "signer": "0x76F1e2334edA994876cEF4E1cDebf096a3068b2a"
      },
      {
        "passId": "696",
        "signer": "0xa2895D4a1fB083Ff9691C25aC82B86B0E9a29851"
      },
      {
        "passId": "697",
        "signer": "0xe30f1686E97ee69604ea80f9F9658F4680A521C8"
      },
      {
        "passId": "698",
        "signer": "0x60A4623e1f8f219c13c8dB482f8c5bC5Bb5beEee"
      },
      {
        "passId": "699",
        "signer": "0xE8682Bf5516C5CD4F7CE4BC64A87EE9543d1c2D4"
      },
      {
        "passId": "700",
        "signer": "0x50bD5C73255bc9C7F0Bdda3d1127f081EF53d2A8"
      },
      {
        "passId": "701",
        "signer": "0x5f6e1E7Ea1958142cc1384C77D245dd5b6cD637F"
      },
      {
        "passId": "702",
        "signer": "0xf2ae621F6185F2B4791daF4b5AE30C706d2e4972"
      },
      {
        "passId": "703",
        "signer": "0x4746ef060677Eb08C7511a4B18FB58F557178CEC"
      },
      {
        "passId": "704",
        "signer": "0xfe7f8aFe68e0B8d268580cd7Da6A79E14C678645"
      },
      {
        "passId": "705",
        "signer": "0x6b6f1Eae661084eac576C3A40599E60c7C27BC03"
      },
      {
        "passId": "706",
        "signer": "0x10e1A7a3F16201381F3c6528b6D7405B40823BF7"
      },
      {
        "passId": "707",
        "signer": "0x7d2a2984b1337611Cf852F9353dCD6D6B30A023D"
      },
      {
        "passId": "708",
        "signer": "0x5add686afAADEee379C5861E3Af0Cd95382AEE25"
      },
      {
        "passId": "709",
        "signer": "0x8eb237d7e1C320AFa9d5e77B3fBA0A006349C0E4"
      },
      {
        "passId": "710",
        "signer": "0x3E368fc3d466C139A9DB29c875d555382dd893f2"
      },
      {
        "passId": "711",
        "signer": "0x6df5B7c99BC4f74614FA43D5D854cE1513B079Cb"
      },
      {
        "passId": "712",
        "signer": "0x90D25A60c8Ad5EaF52ecA5482cA31b3E0e43ebCC"
      },
      {
        "passId": "713",
        "signer": "0x8eE49f9348Ab0637D624fFEC5A3a9403A7c57b79"
      },
      {
        "passId": "714",
        "signer": "0x6b5D8036c57e77a3AbD4B275043E9c91f9decdf7"
      },
      {
        "passId": "715",
        "signer": "0xDb9A36E79b613f6D54b44776ce585EaA1236cB26"
      },
      {
        "passId": "716",
        "signer": "0xaadEA010Aa081C409bD86b172c5928A05c1d0A43"
      },
      {
        "passId": "717",
        "signer": "0x5a483Ee57dE31DDfb8EC7b49Be24e11e81c51EBB"
      },
      {
        "passId": "718",
        "signer": "0xf0c519524150E2B24Ed534124cBE7d8406a2C833"
      },
      {
        "passId": "719",
        "signer": "0x3dA580D0bfa8E061A6a37Ddd0E6A2055DA607cb9"
      },
      {
        "passId": "720",
        "signer": "0x40B8D32ffcc079BDE011C923E7218AF52Fed5e3A"
      },
      {
        "passId": "721",
        "signer": "0xEEC9Bb00f02138DECB27ee4927E6c962dAf94C31"
      },
      {
        "passId": "722",
        "signer": "0x37260531e7aFCbe31b90Ba17c06B260aA916117B"
      },
      {
        "passId": "723",
        "signer": "0xd988112C01c2FB994C1acEdbe9bf1921f1275690"
      },
      {
        "passId": "724",
        "signer": "0x79167c5FF8753c3d39FEbd33c89A0737CB076a59"
      },
      {
        "passId": "725",
        "signer": "0x8cEA3533DfC9Ef819A3f6E8d4CbDe2fA5829F101"
      },
      {
        "passId": "726",
        "signer": "0xdCa7e214DCB06Bb228d78D3aa34De011c5Db5C42"
      },
      {
        "passId": "727",
        "signer": "0x9Ca020c83F36d41d65D48EF6ba5B778Df7fa79D9"
      },
      {
        "passId": "728",
        "signer": "0x01D0c678F4B3DbaB212D4C2E3f1129aa8d50d9f7"
      },
      {
        "passId": "729",
        "signer": "0x5f58F3281Ecab32bfdDcBAd69121ceb5496276Ca"
      },
      {
        "passId": "730",
        "signer": "0xB34B4BE16dAA0C3e5503008b56C4BA32d788E033"
      },
      {
        "passId": "731",
        "signer": "0x38ECB368D057a3E0bAcE838488A331B04FA5D263"
      },
      {
        "passId": "732",
        "signer": "0xb46e4b0735dC3711e00D228D61d94c36095c7bCe"
      },
      {
        "passId": "733",
        "signer": "0x9A8a5BeA5D4e7Ea3a5D8ef4b5C64D57659Ae60Bd"
      },
      {
        "passId": "734",
        "signer": "0x4C3B86a17A6E58Ac56a2FAFf14c99afd765A3fE9"
      },
      {
        "passId": "735",
        "signer": "0x18F618b0Ffc4E6dFf83A6E170dfeFe613d5251dF"
      },
      {
        "passId": "736",
        "signer": "0x9BC4349920517a869BBAF69B88EB1E28A314748A"
      },
      {
        "passId": "737",
        "signer": "0xe259334d9Fcf9e6ad8fb78dC5970C483a19b8f08"
      },
      {
        "passId": "738",
        "signer": "0xbE12F6eD76149Bb299648BaC005288641304D001"
      },
      {
        "passId": "739",
        "signer": "0xc092C9f42d43CEcc226EA774E9d0a65Ba99d3e13"
      },
      {
        "passId": "740",
        "signer": "0xAF926e4E5935344A05023B20AD6B6aACdE4B3C37"
      },
      {
        "passId": "741",
        "signer": "0x21bBC89577E7ADE7510014d7bBbaea4cF73438e8"
      },
      {
        "passId": "742",
        "signer": "0xF4091CB10855faD3e5Ee2e0cFd75a6123c38068E"
      },
      {
        "passId": "743",
        "signer": "0x9E3B6A9d51a34c6c536510384Cf93E140C142795"
      },
      {
        "passId": "744",
        "signer": "0x7C851B52CD20fC8B9e646fDa8fAaA8d2Aa4B420d"
      },
      {
        "passId": "745",
        "signer": "0xc85863C6656946BddA64F62eD488C33A78d0C78E"
      },
      {
        "passId": "746",
        "signer": "0xCa05a205F56c86a1eAa728ffa0a8907095C37892"
      },
      {
        "passId": "747",
        "signer": "0x74ED59874F384b8273904d9C2e8BC28eE007FE70"
      },
      {
        "passId": "748",
        "signer": "0x2e8E0E8d78455A353048Af01C9B7f41d98527ab5"
      },
      {
        "passId": "749",
        "signer": "0xd3F61BAeD3484Ae3b2253f08485198966688543f"
      },
      {
        "passId": "750",
        "signer": "0x961F3B112Db0707bB50c5d51fD251F31CA9615B5"
      },
      {
        "passId": "751",
        "signer": "0x125ef8a134B115Da11bE15C9b617BBb4317881b4"
      },
      {
        "passId": "752",
        "signer": "0xE38617827A6569D40e61Ef97D55E21D672d963C2"
      },
      {
        "passId": "753",
        "signer": "0xd76Ae68B90ae0846C11017F403887b6F1b984b9D"
      },
      {
        "passId": "754",
        "signer": "0xfd3D401129386c489535f6461FDa879d5c85449F"
      },
      {
        "passId": "755",
        "signer": "0x6a8d21FFaee68Ef893d4ECD61ddbA6dD27B8F297"
      },
      {
        "passId": "756",
        "signer": "0x094338c3329Dc895ed811D0Ee205d68792cF10c9"
      },
      {
        "passId": "757",
        "signer": "0xF3dddCa2718829D013b38D0fB8D764779AE17573"
      },
      {
        "passId": "758",
        "signer": "0xA8631E51857eBcbDEd41392983edc2282B85E0b8"
      },
      {
        "passId": "759",
        "signer": "0x31feC4D4f908716F853ad40d5Cb70957a970194E"
      },
      {
        "passId": "760",
        "signer": "0xfd1dE2601F90eee9dB943e10D4039F8F8587F6BD"
      },
      {
        "passId": "761",
        "signer": "0x179041AF63985bbd24607860247d80eac691b490"
      },
      {
        "passId": "762",
        "signer": "0x7526A48CfA4436DFE832BD9C03515d63C18B9d45"
      },
      {
        "passId": "763",
        "signer": "0x19dA261C87acEd6b82a90b9FC2d26dA87fc9d4E9"
      },
      {
        "passId": "764",
        "signer": "0x535aa5f8573472105c5Cba4eE911A64dF8ad3cDC"
      },
      {
        "passId": "765",
        "signer": "0x6AcB4f8Dffe4c8D8f0b051b1b628EdA443b349d0"
      },
      {
        "passId": "766",
        "signer": "0x9501B2acc2Bb8dA37db02f973AAa8B9c956B5C0B"
      },
      {
        "passId": "767",
        "signer": "0x9C95012d76b8760e5b7A4879138873E661bC02d7"
      },
      {
        "passId": "768",
        "signer": "0x0b84Bc88322a8411139Cc99c155cDaA9363AdBC7"
      },
      {
        "passId": "769",
        "signer": "0xA9Ffc8ac54cCD6f395DBef894B01C14506D9c64D"
      },
      {
        "passId": "770",
        "signer": "0xE39E4D59C09aBc037Ae13afe49f328f9640e3C6B"
      },
      {
        "passId": "771",
        "signer": "0xe095c59c031ffd150Ec9c01e54876Ba90Bca665d"
      },
      {
        "passId": "772",
        "signer": "0x2008aa7Cb8487aaCbD774c890e81e839652c20FA"
      },
      {
        "passId": "773",
        "signer": "0xAAc82947D9eeedc77BF12830FB467faCBeCD51f8"
      },
      {
        "passId": "774",
        "signer": "0xe4a3bCdA149ABdc063eF1fA3788812353BCdcFf4"
      },
      {
        "passId": "775",
        "signer": "0xc7cb778797A4A491bE398377FaeD32F7b775DF06"
      },
      {
        "passId": "776",
        "signer": "0x4ab0ce4c3CFe2C681cBdd4e242E71f3356E42f08"
      },
      {
        "passId": "777",
        "signer": "0x0988a97a966d7533170091b71e1f58887CBa8289"
      },
      {
        "passId": "778",
        "signer": "0xeB50ba8913e1DAc0410B2E70a6937E56306447B8"
      },
      {
        "passId": "779",
        "signer": "0x6Ac840C5B02Ace15a151656e04b7D7d5d6317326"
      },
      {
        "passId": "780",
        "signer": "0xC7f1E1fF35744Ae76e966567Ed95A1c924551EC6"
      },
      {
        "passId": "781",
        "signer": "0x47425679d851446B3cFB249268Df35Ac110Db5Ff"
      },
      {
        "passId": "782",
        "signer": "0xeAb8B920C0D82aEca77694DF8D8DaA1b342D6a18"
      },
      {
        "passId": "783",
        "signer": "0x40ad6999D3D52aF8d0455BB0F92a3f2482687c4e"
      },
      {
        "passId": "784",
        "signer": "0x78537197e180a02cf7F32E79C7AD04cfFE533b50"
      },
      {
        "passId": "785",
        "signer": "0x4CF97D9dAB99dfcE2d463ee4cA47fbe9Dd345E6e"
      },
      {
        "passId": "786",
        "signer": "0xC382606d7986E2D0418F5406ddE4D8e80F5B5F14"
      },
      {
        "passId": "787",
        "signer": "0x4DA14D0a93267D59fD99f978deFbd79EF9Fbc6B4"
      },
      {
        "passId": "788",
        "signer": "0x20d0E30414CfE6eED32B0efA1D4A4aCE96D75468"
      },
      {
        "passId": "789",
        "signer": "0xB7E0f82793975b98406c27B4Be2B1B2F1250Ade3"
      },
      {
        "passId": "790",
        "signer": "0x54Ad837996fEF0eb3589C61F7a67c9b3D40d2aeB"
      },
      {
        "passId": "791",
        "signer": "0x4D4C2AB673d08958351128c1d6E80f6D5f663E35"
      },
      {
        "passId": "792",
        "signer": "0xa3f354BC7647d19e8AFfCEb16186ccb674018635"
      },
      {
        "passId": "793",
        "signer": "0x0DA5042F5D95940E6B1072F48623208578d85b5A"
      },
      {
        "passId": "794",
        "signer": "0x79a67973f14D073c49A8012CcD3Be85213b79457"
      },
      {
        "passId": "795",
        "signer": "0x2402555010C11EAd88a6D612796ec684e71f4af7"
      },
      {
        "passId": "796",
        "signer": "0x47E765bbA1929502A40d56Cc8397261f84F634DC"
      },
      {
        "passId": "797",
        "signer": "0x7aFA496713B2CDeC4bdb408B320147cD57544040"
      },
      {
        "passId": "798",
        "signer": "0x69E87ba7aE800c51e6CB3D878DD51f49C2b95A4f"
      },
      {
        "passId": "799",
        "signer": "0x6D8e197a88Bfd46D4e3721FF44658084856eC1Fe"
      },
      {
        "passId": "800",
        "signer": "0x42f0306217212591496CDDdDCe06BeA2A973ED8a"
      },
      {
        "passId": "801",
        "signer": "0xA0D992B22AdCDf7f7B11740B82AEd6F67AD2B602"
      },
      {
        "passId": "802",
        "signer": "0xda93BF9F0C2Ab1F55906A6ffAcb910aD115365B8"
      },
      {
        "passId": "803",
        "signer": "0x4e76014E01127316F8Ad58Ce25fea122510aF0E3"
      },
      {
        "passId": "804",
        "signer": "0x53Ec646b713c9e8CA7A4EFe3A3C3015be1a6bF22"
      },
      {
        "passId": "805",
        "signer": "0x75Ef3C1Ca62705AD6206145c3180bdBf5F600143"
      },
      {
        "passId": "806",
        "signer": "0x4C5bD45f8F3628f39ED55D3907425C4E75d431C9"
      },
      {
        "passId": "807",
        "signer": "0x134c5D12955a95b67E524b5A7BC4aDb18C80b299"
      },
      {
        "passId": "808",
        "signer": "0x5161F5C587328196A4ea00297aaE539d43E32C01"
      },
      {
        "passId": "809",
        "signer": "0x83654f7AE7E20FfD7c5Ee22206EC53B5C759005E"
      },
      {
        "passId": "810",
        "signer": "0xfc8A52661102fD0dfe96cd139018db8dB772880B"
      },
      {
        "passId": "811",
        "signer": "0x80FEA2C61197cED8Cd6a09EF1818343b3da99319"
      },
      {
        "passId": "812",
        "signer": "0x5AcC9b9Cc57eA77B8730550E9cE406d6Bc274007"
      },
      {
        "passId": "813",
        "signer": "0xDCde3ce45EB49830B087e09B1c5ceE5b01816Fd6"
      },
      {
        "passId": "814",
        "signer": "0x7dC9e23B6517Ea2cfb7C7eDEf39449C3fD1a3381"
      },
      {
        "passId": "815",
        "signer": "0x000000000000000000000000000000000000dead"
      },
      {
        "passId": "816",
        "signer": "0x000001f568875f378bf6d170b790967fe429c81a"
      },
      {
        "passId": "817",
        "signer": "0x0078c86e12186e2de1ff6fef5f1ada2bffde4ea5"
      },
      {
        "passId": "818",
        "signer": "0x024f1f8b3789bfdf9edb47f58a0d7a3afeaea804"
      },
      {
        "passId": "819",
        "signer": "0x049808d5eaa90a2665b9703d2246dded34f1eb73"
      },
      {
        "passId": "820",
        "signer": "0x05e8074088797c1f9057febf374deee0bc38e894"
      },
      {
        "passId": "821",
        "signer": "0x05ea539365d91df315e8ddd736e90431696fe8c4"
      },
      {
        "passId": "822",
        "signer": "0x09280340849e66948149804cac539cc7227512be"
      },
      {
        "passId": "823",
        "signer": "0x0946bc5c2f9848665cc3811458de403d0a78ad8e"
      },
      {
        "passId": "824",
        "signer": "0x0985224a811e65c235dbf4a2c2117712aabe4e39"
      },
      {
        "passId": "825",
        "signer": "0x0d0aca99686fced8e6fb39134aaed96f09b5283c"
      },
      {
        "passId": "826",
        "signer": "0x0d94b6e4c2aa9383964986020b3534d34885f700"
      },
      {
        "passId": "827",
        "signer": "0x0dd544d0da95666d7c3d38460feb4b5f25eaa515"
      },
      {
        "passId": "828",
        "signer": "0x0ea59c05be4b7149aaed26be764b618ac0255643"
      },
      {
        "passId": "829",
        "signer": "0x10b28ee04853bdd30d1fd7b302fbe5691c144aa0"
      },
      {
        "passId": "830",
        "signer": "0x10f6c58b9dc9603cb24ee9a5220bb4a470781676"
      },
      {
        "passId": "831",
        "signer": "0x12579783fbe8c2645d7a634b238da748405975a2"
      },
      {
        "passId": "832",
        "signer": "0x136c65a3f31682fcf683906ddbf3c76db2633f99"
      },
      {
        "passId": "833",
        "signer": "0x139d9a36ff2b6bfb8558dfbc22486da48c77a396"
      },
      {
        "passId": "834",
        "signer": "0x13b3a50f3947476eda74fe191344524e2d2d28e5"
      },
      {
        "passId": "835",
        "signer": "0x13e46ccd194ca86212236543d2e7376b00bafa42"
      },
      {
        "passId": "836",
        "signer": "0x1423fcc74da82fa03d70fa1f7a122db1ba231783"
      },
      {
        "passId": "837",
        "signer": "0x1436dbffbdde71d16a2c4d23f9116c3158c4d984"
      },
      {
        "passId": "838",
        "signer": "0x1527fa3a0778d574adfe714b7e60c7b2a1bf7c29"
      },
      {
        "passId": "839",
        "signer": "0x1974341df4b113a4c16f3d3f106176dec0e4da67"
      },
      {
        "passId": "840",
        "signer": "0x1c062628943a930b805849b494719c7d23c77bd5"
      },
      {
        "passId": "841",
        "signer": "0x1ec9503bbdad721ef3ad485b4b14ce0671dc9925"
      },
      {
        "passId": "842",
        "signer": "0x21c5edc237e95049f92059af6a571fdb700f2b82"
      },
      {
        "passId": "843",
        "signer": "0x2224acd07fd9b269ab5200a9a3df8062624deefb"
      },
      {
        "passId": "844",
        "signer": "0x230eb64900d027dfe372786b3342bd6178ec37d1"
      },
      {
        "passId": "845",
        "signer": "0x273c25abd33eca095e228fde0f15e8f7ec4eb4d9"
      },
      {
        "passId": "846",
        "signer": "0x27d9b6692ec1fb802cc8ceef74270ca4b448076a"
      },
      {
        "passId": "847",
        "signer": "0x290420874bf65691b98b67d042c06bbc31f85f11"
      },
      {
        "passId": "848",
        "signer": "0x2993db31d165c33d848e44a1c26a805ba411d324"
      },
      {
        "passId": "849",
        "signer": "0x2d2c46d26c8fec693586e067c4fc2b2ddc2b4cb3"
      },
      {
        "passId": "850",
        "signer": "0x2d79097b9e4c4f41654b2c91c39fd2c97af00c76"
      },
      {
        "passId": "851",
        "signer": "0x2de2299db048a9e3b8d1934b8dae11b8041cc4fd"
      },
      {
        "passId": "852",
        "signer": "0x2e50783188e23742dd3168682e39381ff5fa9731"
      },
      {
        "passId": "853",
        "signer": "0x2e699391d1b3b8577557b4c0ef6a1d9e8a394f04"
      },
      {
        "passId": "854",
        "signer": "0x308bff328370fc4a9683ab9fcd79a21be6dc5ee4"
      },
      {
        "passId": "855",
        "signer": "0x342c6bfa287ce37b8b53eee0e5b6e6bcbea98c76"
      },
      {
        "passId": "856",
        "signer": "0x362f020fd4420c317e7a0722994ba8bc3380d0e8"
      },
      {
        "passId": "857",
        "signer": "0x3668a20653316a7dd85342f64a4c984d146cadfe"
      },
      {
        "passId": "858",
        "signer": "0x37b699d7eead58433d352d1c77b2db1391f11ce5"
      },
      {
        "passId": "859",
        "signer": "0x3ad353e2845b96fb1b58c1ca6cda46b870de8d6f"
      },
      {
        "passId": "860",
        "signer": "0x3d14410609731ec7924ea8b1f13de544bb46a9a6"
      },
      {
        "passId": "861",
        "signer": "0x4011d09a86d0aca8377a4a8bad691f1aceecd672"
      },
      {
        "passId": "862",
        "signer": "0x41a7276167b80da8815df5b0ddaba3be29984250"
      },
      {
        "passId": "863",
        "signer": "0x44dc2ec15b3483fc8590f6b396cea5f8f2fbf3bd"
      },
      {
        "passId": "864",
        "signer": "0x4530307f98208d3bd5b9631880bc7351770c8810"
      },
      {
        "passId": "865",
        "signer": "0x4a1d757699ab73dd4b48b15049b6f1479b2f3511"
      },
      {
        "passId": "866",
        "signer": "0x4b0bd713574e67a97b3ff8f647f329794a2cbb64"
      },
      {
        "passId": "867",
        "signer": "0x4d03a186b3c7d039ff9a212cd8e81dc34a670b35"
      },
      {
        "passId": "868",
        "signer": "0x4de4a829d42191007431d608775430f3ab072082"
      },
      {
        "passId": "869",
        "signer": "0x4e012d25472225f3385baa43ed64dfec5885c51d"
      },
      {
        "passId": "870",
        "signer": "0x4ffb72b66eba24521736924f87dfe10677d82286"
      },
      {
        "passId": "871",
        "signer": "0x50f27cdb650879a41fb07038bf2b818845c20e17"
      },
      {
        "passId": "872",
        "signer": "0x5285ac85a979b612f5c5320961311bba099670f0"
      },
      {
        "passId": "873",
        "signer": "0x530cf036ed4fa58f7301a9c788c9806624cefd19"
      },
      {
        "passId": "874",
        "signer": "0x5310a9b64847c1b927f823a4bc8836e93f09dc78"
      },
      {
        "passId": "875",
        "signer": "0x54463aae905082c678708bb6c25226eb8f38d5a6"
      },
      {
        "passId": "876",
        "signer": "0x562bf1b67dc40d9b7c3ddd49e45ae58e61e1b76e"
      },
      {
        "passId": "877",
        "signer": "0x568b491fb2b4b9440f6d05e7723df0060fdaef1c"
      },
      {
        "passId": "878",
        "signer": "0x5a016b206d0314c7ec641c3a6fd89dac7fea010e"
      },
      {
        "passId": "879",
        "signer": "0x5b158f897f5ace2afefaf7ace8ce0cdbbbc9168a"
      },
      {
        "passId": "880",
        "signer": "0x5ba02f4ff6af1d9d2af8774d10fd32eb57d4e2e6"
      },
      {
        "passId": "881",
        "signer": "0x5bd685375c21375165438ca7f3eae7ec4fade8c5"
      },
      {
        "passId": "882",
        "signer": "0x5d9e720a1c16b98ab897165803c4d96e8060b8e4"
      },
      {
        "passId": "883",
        "signer": "0x5e01d9928ea32d1d3ae2f3263b6ec6c165dc2d76"
      },
      {
        "passId": "884",
        "signer": "0x5ee42438d0d8fc399c94ef3543665e993e847b49"
      },
      {
        "passId": "885",
        "signer": "0x5f8e56d7f3642dd8783774460da2d3a7c54aacda"
      },
      {
        "passId": "886",
        "signer": "0x5fb8b9512684d451d4e585a1a0aabfb48a253c67"
      },
      {
        "passId": "887",
        "signer": "0x6186290b28d511bff971631c916244a9fc539cfe"
      },
      {
        "passId": "888",
        "signer": "0x62f099a34f01d57c67a100851184bea0d48b45f6"
      },
      {
        "passId": "889",
        "signer": "0x63244b5f1ebcb999ea012da652dffee6653bf8f5"
      },
      {
        "passId": "890",
        "signer": "0x64e00561fa9b1f2f2048b2d4f571279689dd9541"
      },
      {
        "passId": "891",
        "signer": "0x65565244e5700b85c90358468faf37c85db55099"
      },
      {
        "passId": "892",
        "signer": "0x6584b48ccebd9c3e4413a1dd4cdbc38b2500cdf3"
      },
      {
        "passId": "893",
        "signer": "0x65d88c64b01b9481352fa8a68b54ed1b3b687388"
      },
      {
        "passId": "894",
        "signer": "0x663d3947f03ef5b387992b880ac85940057c13e3"
      },
      {
        "passId": "895",
        "signer": "0x67c3097a968db89610825976ec9a5976a966c044"
      },
      {
        "passId": "896",
        "signer": "0x68016f094ebb7b55b04372af335455854b0e2eb6"
      },
      {
        "passId": "897",
        "signer": "0x6854dc5c9e3d3ce0b9dd7250d866908515465dc6"
      },
      {
        "passId": "898",
        "signer": "0x686e960ebd9aceb1771850444d4d3a7810a0dac9"
      },
      {
        "passId": "899",
        "signer": "0x6d7fd0438219c0f753a1ccf7c4885bb6cb260999"
      },
      {
        "passId": "900",
        "signer": "0x704c978d50590b21e4c2f43eb4da24fe61fcd707"
      },
      {
        "passId": "901",
        "signer": "0x73e60cd967e957bc6e074f93320ffa1d52697d5b"
      },
      {
        "passId": "902",
        "signer": "0x75331ebbe0b00b97cab532384f13c9b479f074ec"
      },
      {
        "passId": "903",
        "signer": "0x75ef2eff7b12f5f900ef5c787036deab18423d1a"
      },
      {
        "passId": "904",
        "signer": "0x78885686feec340ab544428f161e7d621f520e29"
      },
      {
        "passId": "905",
        "signer": "0x79bebfcb560141f22959c62bbd2930d5c7e35d30"
      },
      {
        "passId": "906",
        "signer": "0x79fd2f15e0ea8c27b5192259f9da63f4e562f021"
      },
      {
        "passId": "907",
        "signer": "0x7a824bea2bed9399a68cd0e340224809521c81d9"
      },
      {
        "passId": "908",
        "signer": "0x7d6a8ffcaf98cac58340329b3a91759888cb1363"
      },
      {
        "passId": "909",
        "signer": "0x7e7a55b11dd9a02b4da169620adfc36b930100fc"
      },
      {
        "passId": "910",
        "signer": "0x80d0d54050c15971b21e877d95441800f5aa9ee8"
      },
      {
        "passId": "911",
        "signer": "0x8177598e08ee8199c160a48c7a0af31ab54bb59f"
      },
      {
        "passId": "912",
        "signer": "0x82410609593d876761681580cf304c794bd58d09"
      },
      {
        "passId": "913",
        "signer": "0x826f63afd9517364cbebe91a859f10b102505a40"
      },
      {
        "passId": "914",
        "signer": "0x836ef81a58e5565b8d1d555ec8e9a5c2792511c6"
      },
      {
        "passId": "915",
        "signer": "0x83d3c179e7906e7f6755658c70e106f1ed3c5782"
      },
      {
        "passId": "916",
        "signer": "0x84eeb7db3f93feb5a8a98f56dabb970a6797c187"
      },
      {
        "passId": "917",
        "signer": "0x865c2f85c9fea1c6ac7f53de07554d68cb92ed88"
      },
      {
        "passId": "918",
        "signer": "0x8725be0bb6ea759d10fbb52fedecc7dcd6890072"
      },
      {
        "passId": "919",
        "signer": "0x87dfef3b445667292aac89078b51f0f75795805f"
      },
      {
        "passId": "920",
        "signer": "0x88906af7616f88f610d1e479325a5c5f93ba1e2c"
      },
      {
        "passId": "921",
        "signer": "0x8a53b8b59877df193c6dae7b8d1d38251af563cf"
      },
      {
        "passId": "922",
        "signer": "0x8b5e90aa714c967efc8c286f46ce0fc822e1cfb0"
      },
      {
        "passId": "923",
        "signer": "0x8c0c3c60118b24b31806eae82ab4186821bf23f1"
      },
      {
        "passId": "924",
        "signer": "0x8c2e67bd3d0f432ef75d9ae6623cd0dfbce66050"
      },
      {
        "passId": "925",
        "signer": "0x8dc9d43df20681cd62ca0acb24ae7ce2794f835d"
      },
      {
        "passId": "926",
        "signer": "0x8df55ecf2c261b44d079302dc95327fe32f74eed"
      },
      {
        "passId": "927",
        "signer": "0x8ebbf8f59b7b7849e359f7e1cc395df6741c24b9"
      },
      {
        "passId": "928",
        "signer": "0x92e7faa1c7b1cf703e3cda42183978f16fa15713"
      },
      {
        "passId": "929",
        "signer": "0x932a824a4d3d0680e0b352de150e6f212b8ac841"
      },
      {
        "passId": "930",
        "signer": "0x95a4350e1cb5e795d3ebe8bee63d9183de5449d1"
      },
      {
        "passId": "931",
        "signer": "0x96dc89dbe84970ee42a2f0b35fb50599e6745ff8"
      },
      {
        "passId": "932",
        "signer": "0x975ab68d4c15d6db02e101d5be03c5b49b9a3282"
      },
      {
        "passId": "933",
        "signer": "0x9de0b0402258a6a562331da7b3c13b29578789c4"
      },
      {
        "passId": "934",
        "signer": "0x9fc6d6c7326585fd3c2a743a1f505990d6e9df3f"
      },
      {
        "passId": "935",
        "signer": "0xa0863e36c30f4974a3a0e2cfc2802513cfaa22f1"
      },
      {
        "passId": "936",
        "signer": "0xa0a6dc36041fb386378458006fecbddd02555ddd"
      },
      {
        "passId": "937",
        "signer": "0xa0d71d516c6149c958c489ab24223c99f5df906f"
      },
      {
        "passId": "938",
        "signer": "0xa0f838d02983161ee469bff969964b7051ac1cd9"
      },
      {
        "passId": "939",
        "signer": "0xa596370bc21dee36872b98009dfbbf465dbfefa3"
      },
      {
        "passId": "940",
        "signer": "0xa5975974cac3fefd831e42bdd2fe84cb5ee3b3de"
      },
      {
        "passId": "941",
        "signer": "0xa6157b7bb7ec05e2b6feafd686797f9ea05411cc"
      },
      {
        "passId": "942",
        "signer": "0xa6f4fa9840aa6825446c820af6d5eccf9f78ba05"
      },
      {
        "passId": "943",
        "signer": "0xa77d9227eee861e01519548b6000acca8600eebe"
      },
      {
        "passId": "944",
        "signer": "0xa7d9f4fd84cdd4bee564adc1b18e3e8aa79d25f1"
      },
      {
        "passId": "945",
        "signer": "0xa88e4a192f3ff5e46dcc96efefb38dfec7bb250c"
      },
      {
        "passId": "946",
        "signer": "0xab2f02d8d409ee4f67fdda5aac5ca7a64a897271"
      },
      {
        "passId": "947",
        "signer": "0xac75cdc34283406b050cadf4ea5902a9310b138e"
      },
      {
        "passId": "948",
        "signer": "0xad9f9194c68bd83250a534a7da574687e1f102ff"
      },
      {
        "passId": "949",
        "signer": "0xae8ce6bb2b95684f57c097b407f4e9b55d9ca432"
      },
      {
        "passId": "950",
        "signer": "0xaee2f40fe0568bd859bc6a518c7ef3252fdc9bf0"
      },
      {
        "passId": "951",
        "signer": "0xaf5cb828389bd6413e7bcd00ed2dcf2bdc1a015a"
      },
      {
        "passId": "952",
        "signer": "0xaf8fbf59e221d27b55dc3adc2366f9230bcf5096"
      },
      {
        "passId": "953",
        "signer": "0xb29b1936c11b77cec6061a9daf765ee2666c8f77"
      },
      {
        "passId": "954",
        "signer": "0xb347b5b99c49ce6c555071a1f0498c81511ad977"
      },
      {
        "passId": "955",
        "signer": "0xb3522064694ac9870dbf00eebc2712762193bb64"
      },
      {
        "passId": "956",
        "signer": "0xb353268ce17d2c7f0f4f8aff152e548c43633df5"
      },
      {
        "passId": "957",
        "signer": "0xb66190f67ed8f0ca790ddfe541ee1bd0da53fe70"
      },
      {
        "passId": "958",
        "signer": "0xb74e4d1592dad73f3745f57605580108ebaedad5"
      },
      {
        "passId": "959",
        "signer": "0xb7f9f538aa1b41ae2853eb63f1939187ffe70eb4"
      },
      {
        "passId": "960",
        "signer": "0xbb46c6e4d8a59520fbb11638c2d1228cc65f5a6c"
      },
      {
        "passId": "961",
        "signer": "0xbc10a3ae909b1b94f4c3e39607ad19d386dce32a"
      },
      {
        "passId": "962",
        "signer": "0xbd12aa424c207e90b66402c1f0aec357e8b1ded7"
      },
      {
        "passId": "963",
        "signer": "0xbe5be517537e53f09e88bcdf61da238477dca226"
      },
      {
        "passId": "964",
        "signer": "0xbeeef66749b64afe43bbc9475635eb510cfe4922"
      },
      {
        "passId": "965",
        "signer": "0xbf1ed1ea654ad49472daedc21a31c8d28e6bb790"
      },
      {
        "passId": "966",
        "signer": "0xbf27384febdc054bbd7e388761919e7d98f7da0c"
      },
      {
        "passId": "967",
        "signer": "0xbfdb50dc66c8df9fd9688d8fe5a0c34126427645"
      },
      {
        "passId": "968",
        "signer": "0xc09d3402515676b81a2f768c365146ea3faa5605"
      },
      {
        "passId": "969",
        "signer": "0xc0e5e14bdecd9ed6954a9e14c74e97cebd91bb94"
      },
      {
        "passId": "970",
        "signer": "0xc169699a825066f2f07e0b29c4082094b32a3f3e"
      },
      {
        "passId": "971",
        "signer": "0xc3a67c1437353bdc9c53060235a34018711de0cf"
      },
      {
        "passId": "972",
        "signer": "0xc42c694d0215b27bce1a871a4a2ad38cf0120a82"
      },
      {
        "passId": "973",
        "signer": "0xc555347d2b369b074be94fe6f7ae9ab43966b884"
      },
      {
        "passId": "974",
        "signer": "0xc665a60f22dda926b920deb8ffac0ef9d8a17460"
      },
      {
        "passId": "975",
        "signer": "0xc8286a9bf1f9bf8f3006fa014915c78b7e75111c"
      },
      {
        "passId": "976",
        "signer": "0xc8bace82793074fad3337424bdb84e306b2f8a44"
      },
      {
        "passId": "977",
        "signer": "0xc9a009bed9ed8a32499e18c20f7cd12132c8d6cb"
      },
      {
        "passId": "978",
        "signer": "0xca11d10ceb098f597a0cab28117fc3465991a63c"
      },
      {
        "passId": "979",
        "signer": "0xcbd2f544073eb35b59a8eb19194a222a5361cd74"
      },
      {
        "passId": "980",
        "signer": "0xcda685c8444f659ac3fe778f8d143aabdf1a21ab"
      },
      {
        "passId": "981",
        "signer": "0xcea78aaa93e917fb5e1802901db2b20aa4411b44"
      },
      {
        "passId": "982",
        "signer": "0xcef871b113d2bb5d3fa5dc96d2d288dd38082aae"
      },
      {
        "passId": "983",
        "signer": "0xcf680fb77c12e2aa2dec82f3ae0c0e527f549fe2"
      },
      {
        "passId": "984",
        "signer": "0xd1eddfcc4596cc8bd0bd7495beab9b979fc50336"
      },
      {
        "passId": "985",
        "signer": "0xd3e64b9dea13e4840a0da20965bd0ca37d05a12a"
      },
      {
        "passId": "986",
        "signer": "0xd651e2c626ee210fc38676124d5007ac822ad749"
      },
      {
        "passId": "987",
        "signer": "0xd657860fc512ec2250a7385a353f599e3276fddb"
      },
      {
        "passId": "988",
        "signer": "0xd6e02c13a6cc133c9d019495414667ea7bee05cc"
      },
      {
        "passId": "989",
        "signer": "0xdc190d7cea8e8bf0b381617062200c10cfff0a91"
      },
      {
        "passId": "990",
        "signer": "0xdd6c81d6d587e2d49eaadffb4ce380564046002a"
      },
      {
        "passId": "991",
        "signer": "0xddb92a96054132801cae3943b2f966fc2c308ac8"
      },
      {
        "passId": "992",
        "signer": "0xdde3ca351d85a4b4cc6aff8d42c0840959859053"
      },
      {
        "passId": "993",
        "signer": "0xe00a3ab72b29eb4ac2695221f62cdf872cb5d483"
      },
      {
        "passId": "994",
        "signer": "0xe120ed22a0cd12d5de6122aa7d5b6d93ac218b49"
      },
      {
        "passId": "995",
        "signer": "0xe20adb03a470b5573bf572dd918e052d0d17866e"
      },
      {
        "passId": "996",
        "signer": "0xe363c2fba75cbd27487b17430e1efbdd2add374e"
      },
      {
        "passId": "997",
        "signer": "0xe5a3d77d7788a83f3549dd7f08fc2aced7e262d2"
      },
      {
        "passId": "998",
        "signer": "0xe66e1e9e37e4e148b21eb22001431818e980d060"
      },
      {
        "passId": "999",
        "signer": "0xe7bd51dc30d4bdc9fddd42ea7c0a283590c9d416"
      },
      {
        "passId": "1000",
        "signer": "0xeb42cd8a1fe1ff556960a9a03ca29aa13f8aa838"
      },
      {
        "passId": "1001",
        "signer": "0xed0f30677c760ea8f0bff70c76eafc79d5f7c3c8"
      },
      {
        "passId": "1002",
        "signer": "0xeddd55a234240042695d7430bf0a09b9038a26ad"
      },
      {
        "passId": "1003",
        "signer": "0xee4d308cc1cde3dd0adcb5a2c85edff22db64918"
      },
      {
        "passId": "1004",
        "signer": "0xee9439a12a7c2a9b6600ca8a498620580d2f116e"
      },
      {
        "passId": "1005",
        "signer": "0xeeaf61935c0c48f8f8cc28c381683d7fa2f75e1c"
      },
      {
        "passId": "1006",
        "signer": "0xef1271ae97bc1a1b356ab697e9ed0d1d4e05fcda"
      },
      {
        "passId": "1007",
        "signer": "0xf19bc58f747d6ea11959bf2a0fa81e53285546ac"
      },
      {
        "passId": "1008",
        "signer": "0xf1e1c701b49b1dc2405a9e8ef40f9f88802b80fa"
      },
      {
        "passId": "1009",
        "signer": "0xf2b15320db6992ba49a7563e50e888c20edcbe3c"
      },
      {
        "passId": "1010",
        "signer": "0xf341c3abb49feb96b4822e68227b54c6fb9f6318"
      },
      {
        "passId": "1011",
        "signer": "0xf3493f6812b1f22b40f8539db2510e13ac251f96"
      },
      {
        "passId": "1012",
        "signer": "0xf3b1b6e83be4d55695f1d30ac3d307d9d5ca98ff"
      },
      {
        "passId": "1013",
        "signer": "0xf464d1a37d8ef9449722f44a4eeb715c0e0acdb3"
      },
      {
        "passId": "1014",
        "signer": "0xf6910d47fbb1f5518d60c721d4189936ecd5a1b6"
      },
      {
        "passId": "1015",
        "signer": "0xf73c935815908ad9a056fc50269f95d8ba032e9d"
      },
      {
        "passId": "1016",
        "signer": "0xf78cd306b23031de9e739a5bcde61764e82ad5ef"
      },
      {
        "passId": "1017",
        "signer": "0xf942040710bedf7220beb24b220631c2255e87f1"
      },
      {
        "passId": "1018",
        "signer": "0xf943e1d2db38db468f66a79b08ec23f8c4375ce3"
      },
      {
        "passId": "1019",
        "signer": "0xfa46dedf812c5803b1e2cea10eef3f27dafeca56"
      },
      {
        "passId": "1020",
        "signer": "0xfa9f104f338846b38b083c9e567ff6bbe43ab5f7"
      },
      {
        "passId": "1021",
        "signer": "0xfd12799b9fb97dc61d9ad7ad4ffba5624004bc62"
      },
      {
        "passId": "1022",
        "signer": "0xfe1e7dc61721f34a25c9eb4dc1a1a8f352c923ef"
      },
      {
        "passId": "1023",
        "signer": "0xfffff6e70842330948ca47254f2be673b1cb0db7"
      }
    ],
    "publicSaleTimestamp": 1638024920,
    "deploymentCost": 0,
    "percentageForCreator": 2446,
    "price": "100000000000000000"
  },
  "solcInputHash": "c2d8f5d5aa701e4398409589817095a9",
  "bytecode": "0x6101806040523480156200001257600080fd5b50604051620020303803806200203083398101604081905262000035916200008d565b6001600160a01b0398891660805292881660a05260c09190915290951660e052610100939093526101209190915261014052610160526000556200011d565b6001600160a01b03811681146200008a57600080fd5b50565b60008060008060008060008060006101208a8c031215620000ad57600080fd5b8951620000ba8162000074565b8099505060208a0151975060408a0151965060608a0151955060808a0151945060a08a0151620000ea8162000074565b60c08b015160e08c01519195509350620001048162000074565b809250506101008a015190509295985092959850929598565b60805160a05160c05160e05161010051610120516101405161016051611e36620001fa600039600081816101b7015281816103e80152610dfd015260008181610196015281816103c50152818161045301528181610588015281816106960152610f7c015260008181610175015281816103a20152610fa40152600081816101540152818161037f0152610fca015260006114da0152600081816113e801526114160152600081816107440152818161097401526114620152600081816102b0015281816108fc01528181610b8401526110e50152611e366000f3fe6080604052600436106100b15760003560e01c8063990b0f6011610069578063ca9dca041161004e578063ca9dca0414610243578063d93459b614610263578063e957a3811461028357600080fd5b8063990b0f60146102105780639c2055131461023057600080fd5b80632558e9331161009a5780632558e933146101225780636d048d53146101375780637361a72e146101fd57600080fd5b80630ccc797f146100b65780632228adcc146100f2575b600080fd5b3480156100c257600080fd5b506100d66100d13660046116ea565b6102a3565b6040516100e99796959493929190611746565b60405180910390f35b3480156100fe57600080fd5b5061011261010d3660046117cb565b610427565b60405190151581526020016100e9565b610135610130366004611908565b610451565b005b34801561014357600080fd5b506101dd610152366004611a0a565b7f00000000000000000000000000000000000000000000000000000000000000007f00000000000000000000000000000000000000000000000000000000000000007f00000000000000000000000000000000000000000000000000000000000000007f00000000000000000000000000000000000000000000000000000000000000009193509193565b6040805194855260208501939093529183015260608201526080016100e9565b61013561020b366004611a27565b610586565b34801561021c57600080fd5b5061011261022b3660046117cb565b610649565b61013561023e366004611a91565b610694565b34801561024f57600080fd5b5061013561025e366004611a91565b61072c565b34801561026f57600080fd5b5061013561027e366004611ac8565b61095c565b34801561028f57600080fd5b5061011261029e3660046117cb565b610bf4565b60606000806000806000807f000000000000000000000000000000000000000000000000000000000000000073ffffffffffffffffffffffffffffffffffffffff1663a0554c268a8a6040518363ffffffff1660e01b8152600401610309929190611b1f565b60006040518083038186803b15801561032157600080fd5b505afa158015610335573d6000803e3d6000fd5b505050506040513d6000823e601f3d9081017fffffffffffffffffffffffffffffffffffffffffffffffffffffffffffffffe016820160405261037b9190810190611b74565b96507f000000000000000000000000000000000000000000000000000000000000000095507f000000000000000000000000000000000000000000000000000000000000000094507f000000000000000000000000000000000000000000000000000000000000000093507f000000000000000000000000000000000000000000000000000000000000000092506104128a610649565b91506000549050949950949992975094509450565b6000806104396010600685901c611c3d565b9050806007148061044a5750806008145b9392505050565b7f00000000000000000000000000000000000000000000000000000000000000004210156105755761048283610c12565b60006104ed8385876040516020016104c992919091825260601b7fffffffffffffffffffffffffffffffffffffffff00000000000000000000000016602082015260340190565b60405160208183030381529060405280519060200120610cd090919063ffffffff16565b905060006104fb8583610cf4565b90506105078382610d55565b610572576040517f08c379a000000000000000000000000000000000000000000000000000000000815260206004820152600d60248201527f494e56414c49445f50524f4f460000000000000000000000000000000000000060448201526064015b60405180910390fd5b50505b61057f8585610e22565b5050505050565b7f0000000000000000000000000000000000000000000000000000000000000000421015610639576105b782610c12565b3360006105c48483610cf4565b90506105d08382610d55565b610636576040517f08c379a000000000000000000000000000000000000000000000000000000000815260206004820152600d60248201527f494e56414c49445f50524f4f46000000000000000000000000000000000000006044820152606401610569565b50505b6106438484610e22565b50505050565b60008061065861010084611c80565b9050600061066882610100611c94565b6106729085611cd1565b60009283526001602081905260409093205492901b9182169091149392505050565b7f000000000000000000000000000000000000000000000000000000000000000042101561071e576040517f08c379a000000000000000000000000000000000000000000000000000000000815260206004820152601460248201527f524551554952455f504153535f4f525f574149540000000000000000000000006044820152606401610569565b6107288282610e22565b5050565b3373ffffffffffffffffffffffffffffffffffffffff7f000000000000000000000000000000000000000000000000000000000000000016146107cb576040517f08c379a000000000000000000000000000000000000000000000000000000000815260206004820152600e60248201527f4e4f545f415554484f52495a45440000000000000000000000000000000000006044820152606401610569565b6102408261ffff161061083a576040517f08c379a000000000000000000000000000000000000000000000000000000000815260206004820152600d60248201527f494e56414c49445f534f554e44000000000000000000000000000000000000006044820152606401610569565b6108478261ffff16610427565b6108ad576040517f08c379a000000000000000000000000000000000000000000000000000000000815260206004820152600c60248201527f4e4f545f524553455256454400000000000000000000000000000000000000006044820152606401610569565b6040517f9c20551300000000000000000000000000000000000000000000000000000000815261ffff8316600482015273ffffffffffffffffffffffffffffffffffffffff82811660248301527f00000000000000000000000000000000000000000000000000000000000000001690639c20551390604401600060405180830381600087803b15801561094057600080fd5b505af1158015610954573d6000803e3d6000fd5b505050505050565b3373ffffffffffffffffffffffffffffffffffffffff7f000000000000000000000000000000000000000000000000000000000000000016146109fb576040517f08c379a000000000000000000000000000000000000000000000000000000000815260206004820152600e60248201527f4e4f545f415554484f52495a45440000000000000000000000000000000000006044820152606401610569565b60005b82811015610b4657610240848483818110610a1b57610a1b611ce8565b9050602002016020810190610a309190611d17565b61ffff1610610a9b576040517f08c379a000000000000000000000000000000000000000000000000000000000815260206004820152600d60248201527f494e56414c49445f534f554e44000000000000000000000000000000000000006044820152606401610569565b610ace848483818110610ab057610ab0611ce8565b9050602002016020810190610ac59190611d17565b61ffff16610427565b610b34576040517f08c379a000000000000000000000000000000000000000000000000000000000815260206004820152600c60248201527f4e4f545f524553455256454400000000000000000000000000000000000000006044820152606401610569565b80610b3e81611d32565b9150506109fe565b506040517fe2ea128800000000000000000000000000000000000000000000000000000000815273ffffffffffffffffffffffffffffffffffffffff7f0000000000000000000000000000000000000000000000000000000000000000169063e2ea128890610bbd90869086908690600401611d6b565b600060405180830381600087803b158015610bd757600080fd5b505af1158015610beb573d6000803e3d6000fd5b50505050505050565b600080610c066010600685901c611c3d565b60005410159392505050565b6000610c2061010083611c80565b90506000610c3082610100611c94565b610c3a9084611cd1565b600083815260016020819052604090912054911b915080821615610cba576040517f08c379a000000000000000000000000000000000000000000000000000000000815260206004820152601160248201527f504153535f414c52454144595f555345440000000000000000000000000000006044820152606401610569565b6000928352600160205260409092209117905550565b6000806000610cdf8585611114565b91509150610cec81611184565b509392505050565b60008282604051602001610d3792919091825260601b7fffffffffffffffffffffffffffffffffffffffff00000000000000000000000016602082015260340190565b60405160208183030381529060405280519060200120905092915050565b6000805b8351811015610df9576000848281518110610d7657610d76611ce8565b6020026020010151905080841015610db9576040805160208101869052908101829052606001604051602081830303815290604052805190602001209350610de6565b60408051602081018390529081018590526060016040516020818303038152906040528051906020012093505b5080610df181611d32565b915050610d59565b50507f000000000000000000000000000000000000000000000000000000000000000014919050565b6102408261ffff1610610e91576040517f08c379a000000000000000000000000000000000000000000000000000000000815260206004820152600d60248201527f494e56414c49445f534f554e44000000000000000000000000000000000000006044820152606401610569565b610e9e8261ffff16610bf4565b610f04576040517f08c379a000000000000000000000000000000000000000000000000000000000815260206004820152601b60248201527f494e535455524d454e545f4e4f545f5945545f464f525f53414c4500000000006044820152606401610569565b610f118261ffff16610427565b15610f78576040517f08c379a000000000000000000000000000000000000000000000000000000000815260206004820152600860248201527f52455345525645440000000000000000000000000000000000000000000000006044820152606401610569565b60007f0000000000000000000000000000000000000000000000000000000000000000421015610fc8577f0000000000000000000000000000000000000000000000000000000000000000610fea565b7f00000000000000000000000000000000000000000000000000000000000000005b905080341015611056576040517f08c379a000000000000000000000000000000000000000000000000000000000815260206004820152600a60248201527f4e4f545f454e4f554748000000000000000000000000000000000000000000006044820152606401610569565b336108fc6110648334611cd1565b6040518115909202916000818181858888f1935050505015801561108c573d6000803e3d6000fd5b50611096816113e0565b6040517f9c20551300000000000000000000000000000000000000000000000000000000815261ffff8416600482015273ffffffffffffffffffffffffffffffffffffffff83811660248301527f00000000000000000000000000000000000000000000000000000000000000001690639c20551390604401610bbd565b60008082516041141561114b5760208301516040840151606085015160001a61113f87828585611523565b9450945050505061117d565b825160401415611175576020830151604084015161116a86838361163b565b93509350505061117d565b506000905060025b9250929050565b600081600481111561119857611198611dd1565b14156111a15750565b60018160048111156111b5576111b5611dd1565b141561121d576040517f08c379a000000000000000000000000000000000000000000000000000000000815260206004820152601860248201527f45434453413a20696e76616c6964207369676e617475726500000000000000006044820152606401610569565b600281600481111561123157611231611dd1565b1415611299576040517f08c379a000000000000000000000000000000000000000000000000000000000815260206004820152601f60248201527f45434453413a20696e76616c6964207369676e6174757265206c656e677468006044820152606401610569565b60038160048111156112ad576112ad611dd1565b141561133b576040517f08c379a000000000000000000000000000000000000000000000000000000000815260206004820152602260248201527f45434453413a20696e76616c6964207369676e6174757265202773272076616c60448201527f75650000000000000000000000000000000000000000000000000000000000006064820152608401610569565b600481600481111561134f5761134f611dd1565b14156113dd576040517f08c379a000000000000000000000000000000000000000000000000000000000815260206004820152602260248201527f45434453413a20696e76616c6964207369676e6174757265202776272076616c60448201527f75650000000000000000000000000000000000000000000000000000000000006064820152608401610569565b50565b80156113dd577f0000000000000000000000000000000000000000000000000000000000000000156114ba57600061271061143b7f000000000000000000000000000000000000000000000000000000000000000084611c94565b6114459190611c80565b60405190915073ffffffffffffffffffffffffffffffffffffffff7f0000000000000000000000000000000000000000000000000000000000000000169082156108fc029083906000818181858888f193505050501580156114ab573d6000803e3d6000fd5b506114b68183611cd1565b9150505b80156113dd5760405173ffffffffffffffffffffffffffffffffffffffff7f0000000000000000000000000000000000000000000000000000000000000000169082156108fc029083906000818181858888f19350505050158015610728573d6000803e3d6000fd5b6000807f7fffffffffffffffffffffffffffffff5d576e7357a4501ddfe92f46681b20a083111561155a5750600090506003611632565b8460ff16601b1415801561157257508460ff16601c14155b156115835750600090506004611632565b6040805160008082526020820180845289905260ff881692820192909252606081018690526080810185905260019060a0016020604051602081039080840390855afa1580156115d7573d6000803e3d6000fd5b50506040517fffffffffffffffffffffffffffffffffffffffffffffffffffffffffffffffe0015191505073ffffffffffffffffffffffffffffffffffffffff811661162b57600060019250925050611632565b9150600090505b94509492505050565b6000807f7fffffffffffffffffffffffffffffffffffffffffffffffffffffffffffffff831660ff84901c601b0161167587828885611523565b935093505050935093915050565b73ffffffffffffffffffffffffffffffffffffffff811681146113dd57600080fd5b60008083601f8401126116b757600080fd5b50813567ffffffffffffffff8111156116cf57600080fd5b6020830191508360208260051b850101111561117d57600080fd5b6000806000806060858703121561170057600080fd5b843561170b81611683565b935060208501359250604085013567ffffffffffffffff81111561172e57600080fd5b61173a878288016116a5565b95989497509550505050565b60e08082528851908201819052600090602090610100840190828c01845b8281101561179657815173ffffffffffffffffffffffffffffffffffffffff1684529284019290840190600101611764565b5050509083019890985250604081019590955260608501939093526080840191909152151560a083015260c090910152919050565b6000602082840312156117dd57600080fd5b5035919050565b803561ffff811681146117f657600080fd5b919050565b7f4e487b7100000000000000000000000000000000000000000000000000000000600052604160045260246000fd5b604051601f82017fffffffffffffffffffffffffffffffffffffffffffffffffffffffffffffffe016810167ffffffffffffffff81118282101715611871576118716117fb565b604052919050565b600067ffffffffffffffff821115611893576118936117fb565b5060051b60200190565b600082601f8301126118ae57600080fd5b813560206118c36118be83611879565b61182a565b82815260059290921b840181019181810190868411156118e257600080fd5b8286015b848110156118fd57803583529183019183016118e6565b509695505050505050565b600080600080600060a0868803121561192057600080fd5b611929866117e4565b945060208087013561193a81611683565b945060408701359350606087013567ffffffffffffffff8082111561195e57600080fd5b818901915089601f83011261197257600080fd5b813581811115611984576119846117fb565b6119b4847fffffffffffffffffffffffffffffffffffffffffffffffffffffffffffffffe0601f8401160161182a565b8181528b858386010111156119c857600080fd5b8185850186830137600091810190940152919350608088013591808311156119ef57600080fd5b50506119fd8882890161189d565b9150509295509295909350565b600060208284031215611a1c57600080fd5b813561044a81611683565b60008060008060808587031215611a3d57600080fd5b611a46856117e4565b93506020850135611a5681611683565b925060408501359150606085013567ffffffffffffffff811115611a7957600080fd5b611a858782880161189d565b91505092959194509250565b60008060408385031215611aa457600080fd5b611aad836117e4565b91506020830135611abd81611683565b809150509250929050565b600080600060408486031215611add57600080fd5b833567ffffffffffffffff811115611af457600080fd5b611b00868287016116a5565b9094509250506020840135611b1481611683565b809150509250925092565b6020815281602082015260007f07ffffffffffffffffffffffffffffffffffffffffffffffffffffffffffffff831115611b5857600080fd5b8260051b80856040850137600092016040019182525092915050565b60006020808385031215611b8757600080fd5b825167ffffffffffffffff811115611b9e57600080fd5b8301601f81018513611baf57600080fd5b8051611bbd6118be82611879565b81815260059190911b82018301908381019087831115611bdc57600080fd5b928401925b82841015611c03578351611bf481611683565b82529284019290840190611be1565b979650505050505050565b7f4e487b7100000000000000000000000000000000000000000000000000000000600052601260045260246000fd5b600082611c4c57611c4c611c0e565b500690565b7f4e487b7100000000000000000000000000000000000000000000000000000000600052601160045260246000fd5b600082611c8f57611c8f611c0e565b500490565b6000817fffffffffffffffffffffffffffffffffffffffffffffffffffffffffffffffff0483118215151615611ccc57611ccc611c51565b500290565b600082821015611ce357611ce3611c51565b500390565b7f4e487b7100000000000000000000000000000000000000000000000000000000600052603260045260246000fd5b600060208284031215611d2957600080fd5b61044a826117e4565b60007fffffffffffffffffffffffffffffffffffffffffffffffffffffffffffffffff821415611d6457611d64611c51565b5060010190565b6040808252810183905260008460608301825b86811015611da75761ffff611d92846117e4565b16825260209283019290910190600101611d7e565b50809250505073ffffffffffffffffffffffffffffffffffffffff83166020830152949350505050565b7f4e487b7100000000000000000000000000000000000000000000000000000000600052602160045260246000fdfea264697066735822122047332d7899b3c5748739a07f75fb6f2503aabc4953c4ac388f1201a68e847d2664736f6c63430008090033",
  "devdoc": {
    "kind": "dev",
    "methods": {},
    "version": 1
  },
  "userdoc": {
    "kind": "user",
    "methods": {},
    "version": 1
  },
  "storageLayout": {
    "storage": [
      {
        "astId": 10446,
        "contract": "src/bleeps/BleepsFixedPriceSale.sol:BleepsFixedPriceSale",
        "label": "_uptoInstr",
        "offset": 0,
        "slot": "0",
        "type": "t_uint256"
      },
      {
        "astId": 10450,
        "contract": "src/bleeps/BleepsFixedPriceSale.sol:BleepsFixedPriceSale",
        "label": "_passUsed",
        "offset": 0,
        "slot": "1",
        "type": "t_mapping(t_uint256,t_uint256)"
      }
    ],
    "types": {
      "t_mapping(t_uint256,t_uint256)": {
        "encoding": "mapping",
        "key": "t_uint256",
        "label": "mapping(uint256 => uint256)",
        "numberOfBytes": "32",
        "value": "t_uint256"
      },
      "t_uint256": {
        "encoding": "inplace",
        "label": "uint256",
        "numberOfBytes": "32"
      }
    }
  }
}