{
  "address": "0xA4d5363006CC709fb94a77e577FE71bF159006ef",
  "abi": [
    {
      "inputs": [
        {
          "internalType": "address",
          "name": "ens",
          "type": "address"
        },
        {
          "internalType": "address",
          "name": "initialOwner",
          "type": "address"
        },
        {
          "internalType": "address",
          "name": "initialTokenURIAdmin",
          "type": "address"
        },
        {
          "internalType": "address",
          "name": "initialMinterAdmin",
          "type": "address"
        },
        {
          "internalType": "address",
          "name": "initialRoyaltyAdmin",
          "type": "address"
        },
        {
          "internalType": "address",
          "name": "initialGuardian",
          "type": "address"
        },
        {
          "internalType": "address",
          "name": "openseaProxyRegistry",
          "type": "address"
        },
        {
          "internalType": "address",
          "name": "initialRoyaltyReceiver",
          "type": "address"
        },
        {
          "internalType": "uint96",
          "name": "imitialRoyaltyPer10Thousands",
          "type": "uint96"
        },
        {
          "internalType": "contract ITokenURI",
          "name": "initialTokenURIContract",
          "type": "address"
        },
        {
          "internalType": "address",
          "name": "initialCheckpointingDisabler",
          "type": "address"
        }
      ],
      "stateMutability": "nonpayable",
      "type": "constructor"
    },
    {
      "anonymous": false,
      "inputs": [
        {
          "indexed": true,
          "internalType": "address",
          "name": "owner",
          "type": "address"
        },
        {
          "indexed": true,
          "internalType": "address",
          "name": "approved",
          "type": "address"
        },
        {
          "indexed": true,
          "internalType": "uint256",
          "name": "tokenId",
          "type": "uint256"
        }
      ],
      "name": "Approval",
      "type": "event"
    },
    {
      "anonymous": false,
      "inputs": [
        {
          "indexed": true,
          "internalType": "address",
          "name": "owner",
          "type": "address"
        },
        {
          "indexed": true,
          "internalType": "address",
          "name": "operator",
          "type": "address"
        },
        {
          "indexed": false,
          "internalType": "bool",
          "name": "approved",
          "type": "bool"
        }
      ],
      "name": "ApprovalForAll",
      "type": "event"
    },
    {
      "anonymous": false,
      "inputs": [],
      "name": "CheckpointingDisabled",
      "type": "event"
    },
    {
      "anonymous": false,
      "inputs": [
        {
          "indexed": false,
          "internalType": "address",
          "name": "newCheckpointingDisabler",
          "type": "address"
        }
      ],
      "name": "CheckpointingDisablerSet",
      "type": "event"
    },
    {
      "anonymous": false,
      "inputs": [
        {
          "indexed": true,
          "internalType": "address",
          "name": "delegator",
          "type": "address"
        },
        {
          "indexed": true,
          "internalType": "address",
          "name": "fromDelegate",
          "type": "address"
        },
        {
          "indexed": true,
          "internalType": "address",
          "name": "toDelegate",
          "type": "address"
        }
      ],
      "name": "DelegateChanged",
      "type": "event"
    },
    {
      "anonymous": false,
      "inputs": [
        {
          "indexed": true,
          "internalType": "address",
          "name": "delegate",
          "type": "address"
        },
        {
          "indexed": false,
          "internalType": "uint256",
          "name": "previousBalance",
          "type": "uint256"
        },
        {
          "indexed": false,
          "internalType": "uint256",
          "name": "newBalance",
          "type": "uint256"
        }
      ],
      "name": "DelegateVotesChanged",
      "type": "event"
    },
    {
      "anonymous": false,
      "inputs": [
        {
          "indexed": false,
          "internalType": "address",
          "name": "newGuardian",
          "type": "address"
        }
      ],
      "name": "GuardianSet",
      "type": "event"
    },
    {
      "anonymous": false,
      "inputs": [
        {
          "indexed": false,
          "internalType": "address",
          "name": "newMinterAdmin",
          "type": "address"
        }
      ],
      "name": "MinterAdminSet",
      "type": "event"
    },
    {
      "anonymous": false,
      "inputs": [
        {
          "indexed": false,
          "internalType": "address",
          "name": "newMinter",
          "type": "address"
        }
      ],
      "name": "MinterSet",
      "type": "event"
    },
    {
      "anonymous": false,
      "inputs": [
        {
          "indexed": true,
          "internalType": "address",
          "name": "previousOwner",
          "type": "address"
        },
        {
          "indexed": true,
          "internalType": "address",
          "name": "newOwner",
          "type": "address"
        }
      ],
      "name": "OwnershipTransferred",
      "type": "event"
    },
    {
      "anonymous": false,
      "inputs": [
        {
          "indexed": false,
          "internalType": "address",
          "name": "newRoyaltyAdmin",
          "type": "address"
        }
      ],
      "name": "RoyaltyAdminSet",
      "type": "event"
    },
    {
      "anonymous": false,
      "inputs": [
        {
          "indexed": false,
          "internalType": "address",
          "name": "receiver",
          "type": "address"
        },
        {
          "indexed": false,
          "internalType": "uint256",
          "name": "royaltyPer10Thousands",
          "type": "uint256"
        }
      ],
      "name": "RoyaltySet",
      "type": "event"
    },
    {
      "anonymous": false,
      "inputs": [
        {
          "indexed": false,
          "internalType": "address",
          "name": "newTokenURIAdmin",
          "type": "address"
        }
      ],
      "name": "TokenURIAdminSet",
      "type": "event"
    },
    {
      "anonymous": false,
      "inputs": [
        {
          "indexed": false,
          "internalType": "contract ITokenURI",
          "name": "newTokenURIContract",
          "type": "address"
        }
      ],
      "name": "TokenURIContractSet",
      "type": "event"
    },
    {
      "anonymous": false,
      "inputs": [
        {
          "indexed": true,
          "internalType": "address",
          "name": "from",
          "type": "address"
        },
        {
          "indexed": true,
          "internalType": "address",
          "name": "to",
          "type": "address"
        },
        {
          "indexed": true,
          "internalType": "uint256",
          "name": "tokenId",
          "type": "uint256"
        }
      ],
      "name": "Transfer",
      "type": "event"
    },
    {
      "inputs": [],
      "name": "DELEGATION_TYPEHASH",
      "outputs": [
        {
          "internalType": "bytes32",
          "name": "",
          "type": "bytes32"
        }
      ],
      "stateMutability": "view",
      "type": "function"
    },
    {
      "inputs": [],
      "name": "DOMAIN_SEPARATOR",
      "outputs": [
        {
          "internalType": "bytes32",
          "name": "",
          "type": "bytes32"
        }
      ],
      "stateMutability": "view",
      "type": "function"
    },
    {
      "inputs": [],
      "name": "DOMAIN_TYPEHASH",
      "outputs": [
        {
          "internalType": "bytes32",
          "name": "",
          "type": "bytes32"
        }
      ],
      "stateMutability": "view",
      "type": "function"
    },
    {
      "inputs": [],
      "name": "PERMIT_FOR_ALL_TYPEHASH",
      "outputs": [
        {
          "internalType": "bytes32",
          "name": "",
          "type": "bytes32"
        }
      ],
      "stateMutability": "view",
      "type": "function"
    },
    {
      "inputs": [],
      "name": "PERMIT_TYPEHASH",
      "outputs": [
        {
          "internalType": "bytes32",
          "name": "",
          "type": "bytes32"
        }
      ],
      "stateMutability": "view",
      "type": "function"
    },
    {
      "inputs": [
        {
          "internalType": "address",
          "name": "owner",
          "type": "address"
        }
      ],
      "name": "accountNonces",
      "outputs": [
        {
          "internalType": "uint256",
          "name": "nonce",
          "type": "uint256"
        }
      ],
      "stateMutability": "view",
      "type": "function"
    },
    {
      "inputs": [
        {
          "internalType": "address",
          "name": "operator",
          "type": "address"
        },
        {
          "internalType": "uint256",
          "name": "id",
          "type": "uint256"
        }
      ],
      "name": "approve",
      "outputs": [],
      "stateMutability": "nonpayable",
      "type": "function"
    },
    {
      "inputs": [
        {
          "internalType": "address",
          "name": "owner",
          "type": "address"
        }
      ],
      "name": "balanceOf",
      "outputs": [
        {
          "internalType": "uint256",
          "name": "balance",
          "type": "uint256"
        }
      ],
      "stateMutability": "view",
      "type": "function"
    },
    {
      "inputs": [],
      "name": "checkpointingDisabler",
      "outputs": [
        {
          "internalType": "address",
          "name": "",
          "type": "address"
        }
      ],
      "stateMutability": "view",
      "type": "function"
    },
    {
      "inputs": [
        {
          "internalType": "address",
          "name": "",
          "type": "address"
        },
        {
          "internalType": "uint32",
          "name": "",
          "type": "uint32"
        }
      ],
      "name": "checkpoints",
      "outputs": [
        {
          "internalType": "uint32",
          "name": "fromBlock",
          "type": "uint32"
        },
        {
          "internalType": "uint96",
          "name": "votes",
          "type": "uint96"
        }
      ],
      "stateMutability": "view",
      "type": "function"
    },
    {
      "inputs": [],
      "name": "contractURI",
      "outputs": [
        {
          "internalType": "string",
          "name": "",
          "type": "string"
        }
      ],
      "stateMutability": "view",
      "type": "function"
    },
    {
      "inputs": [],
      "name": "decimals",
      "outputs": [
        {
          "internalType": "uint8",
          "name": "",
          "type": "uint8"
        }
      ],
      "stateMutability": "view",
      "type": "function"
    },
    {
      "inputs": [
        {
          "internalType": "address",
          "name": "delegatee",
          "type": "address"
        }
      ],
      "name": "delegate",
      "outputs": [],
      "stateMutability": "nonpayable",
      "type": "function"
    },
    {
      "inputs": [
        {
          "internalType": "address",
          "name": "delegatee",
          "type": "address"
        },
        {
          "internalType": "uint256",
          "name": "nonce",
          "type": "uint256"
        },
        {
          "internalType": "uint256",
          "name": "expiry",
          "type": "uint256"
        },
        {
          "internalType": "uint8",
          "name": "v",
          "type": "uint8"
        },
        {
          "internalType": "bytes32",
          "name": "r",
          "type": "bytes32"
        },
        {
          "internalType": "bytes32",
          "name": "s",
          "type": "bytes32"
        }
      ],
      "name": "delegateBySig",
      "outputs": [],
      "stateMutability": "nonpayable",
      "type": "function"
    },
    {
      "inputs": [
        {
          "internalType": "address",
          "name": "delegator",
          "type": "address"
        }
      ],
      "name": "delegates",
      "outputs": [
        {
          "internalType": "address",
          "name": "",
          "type": "address"
        }
      ],
      "stateMutability": "view",
      "type": "function"
    },
    {
      "inputs": [],
      "name": "disableTheUseOfCheckpoints",
      "outputs": [],
      "stateMutability": "nonpayable",
      "type": "function"
    },
    {
      "inputs": [
        {
          "internalType": "uint256",
          "name": "id",
          "type": "uint256"
        }
      ],
      "name": "getApproved",
      "outputs": [
        {
          "internalType": "address",
          "name": "",
          "type": "address"
        }
      ],
      "stateMutability": "view",
      "type": "function"
    },
    {
      "inputs": [
        {
          "internalType": "address",
          "name": "account",
          "type": "address"
        }
      ],
      "name": "getCurrentVotes",
      "outputs": [
        {
          "internalType": "uint96",
          "name": "",
          "type": "uint96"
        }
      ],
      "stateMutability": "view",
      "type": "function"
    },
    {
      "inputs": [
        {
          "internalType": "address",
          "name": "account",
          "type": "address"
        },
        {
          "internalType": "uint256",
          "name": "blockNumber",
          "type": "uint256"
        }
      ],
      "name": "getPastVotes",
      "outputs": [
        {
          "internalType": "uint96",
          "name": "",
          "type": "uint96"
        }
      ],
      "stateMutability": "view",
      "type": "function"
    },
    {
      "inputs": [
        {
          "internalType": "address",
          "name": "account",
          "type": "address"
        },
        {
          "internalType": "uint256",
          "name": "blockNumber",
          "type": "uint256"
        }
      ],
      "name": "getPriorVotes",
      "outputs": [
        {
          "internalType": "uint96",
          "name": "",
          "type": "uint96"
        }
      ],
      "stateMutability": "view",
      "type": "function"
    },
    {
      "inputs": [
        {
          "internalType": "address",
          "name": "account",
          "type": "address"
        }
      ],
      "name": "getVotes",
      "outputs": [
        {
          "internalType": "uint96",
          "name": "",
          "type": "uint96"
        }
      ],
      "stateMutability": "view",
      "type": "function"
    },
    {
      "inputs": [],
      "name": "guardian",
      "outputs": [
        {
          "internalType": "address",
          "name": "",
          "type": "address"
        }
      ],
      "stateMutability": "view",
      "type": "function"
    },
    {
      "inputs": [
        {
          "internalType": "address",
          "name": "owner",
          "type": "address"
        },
        {
          "internalType": "address",
          "name": "operator",
          "type": "address"
        }
      ],
      "name": "isApprovedForAll",
      "outputs": [
        {
          "internalType": "bool",
          "name": "isOperator",
          "type": "bool"
        }
      ],
      "stateMutability": "view",
      "type": "function"
    },
    {
      "inputs": [
        {
          "internalType": "uint16",
          "name": "id",
          "type": "uint16"
        },
        {
          "internalType": "address",
          "name": "to",
          "type": "address"
        }
      ],
      "name": "mint",
      "outputs": [],
      "stateMutability": "nonpayable",
      "type": "function"
    },
    {
      "inputs": [],
      "name": "minter",
      "outputs": [
        {
          "internalType": "address",
          "name": "",
          "type": "address"
        }
      ],
      "stateMutability": "view",
      "type": "function"
    },
    {
      "inputs": [],
      "name": "minterAdmin",
      "outputs": [
        {
          "internalType": "address",
          "name": "",
          "type": "address"
        }
      ],
      "stateMutability": "view",
      "type": "function"
    },
    {
      "inputs": [
        {
          "internalType": "uint16[]",
          "name": "ids",
          "type": "uint16[]"
        },
        {
          "internalType": "address",
          "name": "to",
          "type": "address"
        }
      ],
      "name": "multiMint",
      "outputs": [],
      "stateMutability": "nonpayable",
      "type": "function"
    },
    {
      "inputs": [
        {
          "internalType": "bytes[]",
          "name": "data",
          "type": "bytes[]"
        }
      ],
      "name": "multicall",
      "outputs": [
        {
          "internalType": "bytes[]",
          "name": "results",
          "type": "bytes[]"
        }
      ],
      "stateMutability": "payable",
      "type": "function"
    },
    {
      "inputs": [],
      "name": "name",
      "outputs": [
        {
          "internalType": "string",
          "name": "",
          "type": "string"
        }
      ],
      "stateMutability": "pure",
      "type": "function"
    },
    {
      "inputs": [
        {
          "internalType": "uint256",
          "name": "id",
          "type": "uint256"
        }
      ],
      "name": "nonces",
      "outputs": [
        {
          "internalType": "uint256",
          "name": "nonce",
          "type": "uint256"
        }
      ],
      "stateMutability": "view",
      "type": "function"
    },
    {
      "inputs": [
        {
          "internalType": "address",
          "name": "account",
          "type": "address"
        }
      ],
      "name": "nonces",
      "outputs": [
        {
          "internalType": "uint256",
          "name": "nonce",
          "type": "uint256"
        }
      ],
      "stateMutability": "view",
      "type": "function"
    },
    {
      "inputs": [
        {
          "internalType": "address",
          "name": "",
          "type": "address"
        }
      ],
      "name": "numCheckpoints",
      "outputs": [
        {
          "internalType": "uint32",
          "name": "",
          "type": "uint32"
        }
      ],
      "stateMutability": "view",
      "type": "function"
    },
    {
      "inputs": [],
      "name": "owner",
      "outputs": [
        {
          "internalType": "address",
          "name": "",
          "type": "address"
        }
      ],
      "stateMutability": "view",
      "type": "function"
    },
    {
      "inputs": [
        {
          "internalType": "uint256[]",
          "name": "ids",
          "type": "uint256[]"
        }
      ],
      "name": "ownerAndLastTransferBlockNumberList",
      "outputs": [
        {
          "components": [
            {
              "internalType": "address",
              "name": "owner",
              "type": "address"
            },
            {
              "internalType": "uint256",
              "name": "lastTransferBlockNumber",
              "type": "uint256"
            }
          ],
          "internalType": "struct ERC721Base.OwnerData[]",
          "name": "ownersData",
          "type": "tuple[]"
        }
      ],
      "stateMutability": "view",
      "type": "function"
    },
    {
      "inputs": [
        {
          "internalType": "uint256",
          "name": "id",
          "type": "uint256"
        }
      ],
      "name": "ownerOf",
      "outputs": [
        {
          "internalType": "address",
          "name": "owner",
          "type": "address"
        }
      ],
      "stateMutability": "view",
      "type": "function"
    },
    {
      "inputs": [
        {
          "internalType": "uint256[]",
          "name": "ids",
          "type": "uint256[]"
        }
      ],
      "name": "owners",
      "outputs": [
        {
          "internalType": "address[]",
          "name": "addresses",
          "type": "address[]"
        }
      ],
      "stateMutability": "view",
      "type": "function"
    },
    {
      "inputs": [
        {
          "internalType": "address",
          "name": "spender",
          "type": "address"
        },
        {
          "internalType": "uint256",
          "name": "tokenId",
          "type": "uint256"
        },
        {
          "internalType": "uint256",
          "name": "deadline",
          "type": "uint256"
        },
        {
          "internalType": "bytes",
          "name": "sig",
          "type": "bytes"
        }
      ],
      "name": "permit",
      "outputs": [],
      "stateMutability": "nonpayable",
      "type": "function"
    },
    {
      "inputs": [
        {
          "internalType": "address",
          "name": "signer",
          "type": "address"
        },
        {
          "internalType": "address",
          "name": "spender",
          "type": "address"
        },
        {
          "internalType": "uint256",
          "name": "deadline",
          "type": "uint256"
        },
        {
          "internalType": "bytes",
          "name": "sig",
          "type": "bytes"
        }
      ],
      "name": "permitForAll",
      "outputs": [],
      "stateMutability": "nonpayable",
      "type": "function"
    },
    {
      "inputs": [],
      "name": "royaltyAdmin",
      "outputs": [
        {
          "internalType": "address",
          "name": "",
          "type": "address"
        }
      ],
      "stateMutability": "view",
      "type": "function"
    },
    {
      "inputs": [
        {
          "internalType": "uint256",
          "name": "id",
          "type": "uint256"
        },
        {
          "internalType": "uint256",
          "name": "salePrice",
          "type": "uint256"
        }
      ],
      "name": "royaltyInfo",
      "outputs": [
        {
          "internalType": "address",
          "name": "receiver",
          "type": "address"
        },
        {
          "internalType": "uint256",
          "name": "royaltyAmount",
          "type": "uint256"
        }
      ],
      "stateMutability": "view",
      "type": "function"
    },
    {
      "inputs": [
        {
          "internalType": "address",
          "name": "from",
          "type": "address"
        },
        {
          "internalType": "address",
          "name": "to",
          "type": "address"
        },
        {
          "internalType": "uint256",
          "name": "id",
          "type": "uint256"
        }
      ],
      "name": "safeTransferFrom",
      "outputs": [],
      "stateMutability": "nonpayable",
      "type": "function"
    },
    {
      "inputs": [
        {
          "internalType": "address",
          "name": "from",
          "type": "address"
        },
        {
          "internalType": "address",
          "name": "to",
          "type": "address"
        },
        {
          "internalType": "uint256",
          "name": "id",
          "type": "uint256"
        },
        {
          "internalType": "bytes",
          "name": "data",
          "type": "bytes"
        }
      ],
      "name": "safeTransferFrom",
      "outputs": [],
      "stateMutability": "nonpayable",
      "type": "function"
    },
    {
      "inputs": [
        {
          "internalType": "address",
          "name": "operator",
          "type": "address"
        },
        {
          "internalType": "bool",
          "name": "approved",
          "type": "bool"
        }
      ],
      "name": "setApprovalForAll",
      "outputs": [],
      "stateMutability": "nonpayable",
      "type": "function"
    },
    {
      "inputs": [
        {
          "internalType": "address",
          "name": "newCheckpointingDisabler",
          "type": "address"
        }
      ],
      "name": "setCheckpointingDisabler",
      "outputs": [],
      "stateMutability": "nonpayable",
      "type": "function"
    },
    {
      "inputs": [
        {
          "internalType": "string",
          "name": "name",
          "type": "string"
        }
      ],
      "name": "setENSName",
      "outputs": [],
      "stateMutability": "nonpayable",
      "type": "function"
    },
    {
      "inputs": [
        {
          "internalType": "address",
          "name": "newGuardian",
          "type": "address"
        }
      ],
      "name": "setGuardian",
      "outputs": [],
      "stateMutability": "nonpayable",
      "type": "function"
    },
    {
      "inputs": [
        {
          "internalType": "address",
          "name": "newMinter",
          "type": "address"
        }
      ],
      "name": "setMinter",
      "outputs": [],
      "stateMutability": "nonpayable",
      "type": "function"
    },
    {
      "inputs": [
        {
          "internalType": "address",
          "name": "newMinterAdmin",
          "type": "address"
        }
      ],
      "name": "setMinterAdmin",
      "outputs": [],
      "stateMutability": "nonpayable",
      "type": "function"
    },
    {
      "inputs": [
        {
          "internalType": "address",
          "name": "newRoyaltyAdmin",
          "type": "address"
        }
      ],
      "name": "setRoyaltyAdmin",
      "outputs": [],
      "stateMutability": "nonpayable",
      "type": "function"
    },
    {
      "inputs": [
        {
          "internalType": "address",
          "name": "newReceiver",
          "type": "address"
        },
        {
          "internalType": "uint96",
          "name": "royaltyPer10Thousands",
          "type": "uint96"
        }
      ],
      "name": "setRoyaltyParameters",
      "outputs": [],
      "stateMutability": "nonpayable",
      "type": "function"
    },
    {
      "inputs": [
        {
          "internalType": "address",
          "name": "newTokenURIAdmin",
          "type": "address"
        }
      ],
      "name": "setTokenURIAdmin",
      "outputs": [],
      "stateMutability": "nonpayable",
      "type": "function"
    },
    {
      "inputs": [
        {
          "internalType": "contract ITokenURI",
          "name": "newTokenURIContract",
          "type": "address"
        }
      ],
      "name": "setTokenURIContract",
      "outputs": [],
      "stateMutability": "nonpayable",
      "type": "function"
    },
    {
      "inputs": [
        {
          "internalType": "uint256",
          "name": "id",
          "type": "uint256"
        }
      ],
      "name": "sound",
      "outputs": [
        {
          "internalType": "uint8",
          "name": "note",
          "type": "uint8"
        },
        {
          "internalType": "uint8",
          "name": "instrument",
          "type": "uint8"
        }
      ],
      "stateMutability": "pure",
      "type": "function"
    },
    {
      "inputs": [
        {
          "internalType": "bytes4",
          "name": "id",
          "type": "bytes4"
        }
      ],
      "name": "supportsInterface",
      "outputs": [
        {
          "internalType": "bool",
          "name": "",
          "type": "bool"
        }
      ],
      "stateMutability": "pure",
      "type": "function"
    },
    {
      "inputs": [],
      "name": "symbol",
      "outputs": [
        {
          "internalType": "string",
          "name": "",
          "type": "string"
        }
      ],
      "stateMutability": "pure",
      "type": "function"
    },
    {
      "inputs": [
        {
          "internalType": "uint256",
          "name": "id",
          "type": "uint256"
        }
      ],
      "name": "tokenNonces",
      "outputs": [
        {
          "internalType": "uint256",
          "name": "nonce",
          "type": "uint256"
        }
      ],
      "stateMutability": "view",
      "type": "function"
    },
    {
      "inputs": [
        {
          "internalType": "uint256",
          "name": "id",
          "type": "uint256"
        }
      ],
      "name": "tokenURI",
      "outputs": [
        {
          "internalType": "string",
          "name": "",
          "type": "string"
        }
      ],
      "stateMutability": "view",
      "type": "function"
    },
    {
      "inputs": [],
      "name": "tokenURIAdmin",
      "outputs": [
        {
          "internalType": "address",
          "name": "",
          "type": "address"
        }
      ],
      "stateMutability": "view",
      "type": "function"
    },
    {
      "inputs": [],
      "name": "tokenURIContract",
      "outputs": [
        {
          "internalType": "contract ITokenURI",
          "name": "",
          "type": "address"
        }
      ],
      "stateMutability": "view",
      "type": "function"
    },
    {
      "inputs": [
        {
          "internalType": "address",
          "name": "from",
          "type": "address"
        },
        {
          "internalType": "address",
          "name": "to",
          "type": "address"
        },
        {
          "internalType": "uint256",
          "name": "id",
          "type": "uint256"
        }
      ],
      "name": "transferFrom",
      "outputs": [],
      "stateMutability": "nonpayable",
      "type": "function"
    },
    {
      "inputs": [
        {
          "internalType": "address",
          "name": "newOwner",
          "type": "address"
        }
      ],
      "name": "transferOwnership",
      "outputs": [],
      "stateMutability": "nonpayable",
      "type": "function"
    },
    {
      "inputs": [
        {
          "internalType": "address",
          "name": "delegator",
          "type": "address"
        }
      ],
      "name": "votesToDelegate",
      "outputs": [
        {
          "internalType": "uint96",
          "name": "",
          "type": "uint96"
        }
      ],
      "stateMutability": "view",
      "type": "function"
    },
    {
      "inputs": [
        {
          "internalType": "contract IERC20",
          "name": "token",
          "type": "address"
        },
        {
          "internalType": "address",
          "name": "to",
          "type": "address"
        }
      ],
      "name": "withdrawERC20",
      "outputs": [],
      "stateMutability": "nonpayable",
      "type": "function"
    }
  ],
  "transactionHash": "0x5120dcd15db4f3b24c812002ed1b0958f9fdd7f28b1ba34699a889e57f3accbc",
  "args": [
    "0x00000000000C2E074eC69A0dFb2997BA6C7d2e1e",
    "0x61c461EcC993aaDEB7e4b47E96d1B8cC37314B20",
    "0xE53cd71271AcAdbeb0f64d9c8C62bBdDc8cA9e66",
    "0x61c461EcC993aaDEB7e4b47E96d1B8cC37314B20",
    "0xE53cd71271AcAdbeb0f64d9c8C62bBdDc8cA9e66",
    "0xE53cd71271AcAdbeb0f64d9c8C62bBdDc8cA9e66",
    "0xf57b2c51ded3a29e6891aba85459d600256cf317",
    "0xE53cd71271AcAdbeb0f64d9c8C62bBdDc8cA9e66",
    500,
    "0xD1Ea8145F252039327954Bd921C3ED502Bac7C16",
    "0xE53cd71271AcAdbeb0f64d9c8C62bBdDc8cA9e66"
  ],
  "solcInputHash": "fe2d698dc766749c774f141be3fe643d",
  "bytecode": "0x6101006040526005805460ff191660011790553480156200001f57600080fd5b5060405162006451380380620064518339810160408190526200004291620003bc565b6001600160a01b0385166080524660a08190528b908b908b908b908b908b906200006c8162000303565b60c052506001600160a01b0386811660e052600980546001600160a01b0319908116888416908117909255600a80548216888516179055600b80548216868516179055600c80548216878516179055600e8054909116928416929092179091556040516000907f8be0079c531659141344cd1fd0a4f28419497f9722a3daafe3b4186f6b6457e0908290a36040516001600160a01b03851681527f89de65ceb8cdf195a0b50021ed65dd305b54d3b744a0e283bd98c6058e2edd789060200160405180910390a16040516001600160a01b03831681527fb17416b845258d996b82b66c3c9166088ec5edf592b35fcce47c62a73d61ef419060200160405180910390a16040516001600160a01b03841681527fb8e0165b6664b7af8f9563c66e3d6b987c2d06fe192539d7123a0777b41a7c899060200160405180910390a16040516001600160a01b03821681527fe6c09ffe4572dc9ceaa5ddde4ae41befa655d6fdfe8052077af0970f700e942e9060200160405180910390a15050600f80546001600160a01b0319166001600160a01b0388169081179091556040519081527f6bf5b09f847c9c9e97addeaf1ea9d5fd44ff6ae2c9c4aaf55fb476eca421a45d945060200192506200023e915050565b60405180910390a1601180546001600160a01b0319166001600160a01b0383169081179091556040519081527f4b70ff24654603d6961acf6a0cf30db833fc126dac63891114f984fefcc2b0649060200160405180910390a16001600160a01b038416600160a01b6001600160601b03851690810282176010556040805192835260208301919091527fb744dc8fdcd17f69ad99fdabe0fe0ed8fea41193727ed2123d997550eaae918f910160405180910390a15050505050505050505050620004c4565b60007f8cad95687ba82c2ce50e74f7b754645e5117c3a5bec8151c0726d5857980a8666200034a604080518082019091526006815265426c6565707360d01b602082015290565b80516020918201206040805192830193909352918101919091526060810183905230608082015260a001604051602081830303815290604052805190602001209050919050565b6001600160a01b0381168114620003a757600080fd5b50565b8051620003b78162000391565b919050565b60008060008060008060008060008060006101608c8e031215620003df57600080fd5b8b51620003ec8162000391565b60208d0151909b50620003ff8162000391565b60408d0151909a50620004128162000391565b60608d0151909950620004258162000391565b60808d0151909850620004388162000391565b60a08d01519097506200044b8162000391565b60c08d01519096506200045e8162000391565b60e08d0151909550620004718162000391565b6101008d01519094506001600160601b03811681146200049057600080fd5b9250620004a16101208d01620003aa565b9150620004b26101408d01620003aa565b90509295989b509295989b9093969950565b60805160a05160c05160e051615f4c620005056000396000611c250152600061406d0152600061403801526000818161455901526145df0152615f4c6000f3fe6080604052600436106103b85760003560e01c80637ba9638b116101f2578063ac9650d81161010d578063e7a324dc116100a0578063f1127ed81161006f578063f1127ed814610d21578063f2fde38b14610da0578063f394528214610dc0578063fca3b5aa14610ded57600080fd5b8063e7a324dc14610c98578063e8a3d48514610ccc578063e9580e9114610ce1578063e985e9c514610d0157600080fd5b8063c3cda520116100dc578063c3cda52014610c23578063c87b56dd14610c43578063e2ea128814610c63578063e6b34e8614610c8357600080fd5b8063ac9650d814610ba3578063adc5fcc214610bc3578063b4b5ea5714610be3578063b88d4fde14610c0357600080fd5b806395d89b4111610185578063a0554c2611610154578063a0554c2614610b09578063a22cb46514610b36578063a754d48f14610b56578063ab84ee6f14610b8357600080fd5b806395d89b4114610a6357806399235f3914610aa95780639ab24eb014610ac95780639c20551314610ae957600080fd5b80638a0dac4a116101c15780638a0dac4a146109c95780638cc66011146109e95780638da5cb5b14610a165780639456fbcc14610a4357600080fd5b80637ba9638b1461093c5780637ecebe001461095c57806382fc31471461097c578063894e851f1461099c57600080fd5b80633a46b1a8116102e25780636352211e1161027557806370a082311161024457806370a08231146108bc578063745a41bc146108dc57806377dd4ac3146108fc578063782d6fe11461091c57600080fd5b80636352211e14610807578063639147af14610827578063698f87be146108475780636fcfff451461087457600080fd5b8063580f6da2116102b1578063580f6da214610750578063585956d614610793578063587cde1e146107c75780635c19a95c146107e757600080fd5b80633a46b1a8146106a657806342842e0e146106e3578063452a9320146107035780634d6878211461073057600080fd5b806323b872dd1161035a57806330adf81f1161032957806330adf81f14610609578063313ce5671461063d57806334dd800d146106645780633644e5151461069157600080fd5b806323b872dd1461053757806324d42fe7146105575780632954dbfa146105775780632a55205a146105bd57600080fd5b8063081812fc11610396578063081812fc14610493578063095ea7b3146104b3578063141a468c146104d557806320606b701461050357600080fd5b806301ffc9a7146103bd57806306fdde03146103f25780630754617214610441575b600080fd5b3480156103c957600080fd5b506103dd6103d83660046152c4565b610e0d565b60405190151581526020015b60405180910390f35b3480156103fe57600080fd5b5060408051808201909152600681527f426c65657073000000000000000000000000000000000000000000000000000060208201525b6040516103e99190615357565b34801561044d57600080fd5b50600d5461046e9073ffffffffffffffffffffffffffffffffffffffff1681565b60405173ffffffffffffffffffffffffffffffffffffffff90911681526020016103e9565b34801561049f57600080fd5b5061046e6104ae36600461536a565b610e6a565b3480156104bf57600080fd5b506104d36104ce3660046153a5565b610f5b565b005b3480156104e157600080fd5b506104f56104f036600461536a565b6110c5565b6040519081526020016103e9565b34801561050f57600080fd5b506104f57f8cad95687ba82c2ce50e74f7b754645e5117c3a5bec8151c0726d5857980a86681565b34801561054357600080fd5b506104d36105523660046153d1565b6110d0565b34801561056357600080fd5b506104d361057236600461542c565b611413565b34801561058357600080fd5b506105a361059236600461536a565b603f81169160069190911c600f1690565b6040805160ff9384168152929091166020830152016103e9565b3480156105c957600080fd5b506105dd6105d8366004615465565b611516565b6040805173ffffffffffffffffffffffffffffffffffffffff90931683526020830191909152016103e9565b34801561061557600080fd5b506104f57f49ecf333e5b8c95c40fdafc95c1ad136e8914a8fb55e9dc8bb01eaa83a2df9ad81565b34801561064957600080fd5b50610652600081565b60405160ff90911681526020016103e9565b34801561067057600080fd5b50600a5461046e9073ffffffffffffffffffffffffffffffffffffffff1681565b34801561069d57600080fd5b506104f561157b565b3480156106b257600080fd5b506106c66106c13660046153a5565b61158a565b6040516bffffffffffffffffffffffff90911681526020016103e9565b3480156106ef57600080fd5b506104d36106fe3660046153d1565b611638565b34801561070f57600080fd5b50600e5461046e9073ffffffffffffffffffffffffffffffffffffffff1681565b34801561073c57600080fd5b506104d361074b366004615487565b611658565b34801561075c57600080fd5b506104f561076b366004615487565b73ffffffffffffffffffffffffffffffffffffffff1660009081526004602052604090205490565b34801561079f57600080fd5b506104f57f29795620f29ed5790c945e3f419a1b3e2381aa07751ccffe5b81231639d74cd581565b3480156107d357600080fd5b5061046e6107e2366004615487565b611753565b3480156107f357600080fd5b506104d3610802366004615487565b611790565b34801561081357600080fd5b5061046e61082236600461536a565b6117bb565b34801561083357600080fd5b506104d3610842366004615487565b61184c565b34801561085357600080fd5b50600f5461046e9073ffffffffffffffffffffffffffffffffffffffff1681565b34801561088057600080fd5b506108a761088f366004615487565b60086020526000908152604090205463ffffffff1681565b60405163ffffffff90911681526020016103e9565b3480156108c857600080fd5b506104f56108d7366004615487565b611981565b3480156108e857600080fd5b506104d36108f73660046155c6565b611a29565b34801561090857600080fd5b506104d3610917366004615629565b611b53565b34801561092857600080fd5b506106c66109373660046153a5565b611d5b565b34801561094857600080fd5b506104d3610957366004615487565b612072565b34801561096857600080fd5b506104f5610977366004615487565b6121a7565b34801561098857600080fd5b506104d3610997366004615487565b6121d2565b3480156109a857600080fd5b50600b5461046e9073ffffffffffffffffffffffffffffffffffffffff1681565b3480156109d557600080fd5b506104d36109e4366004615487565b6122c6565b3480156109f557600080fd5b5060115461046e9073ffffffffffffffffffffffffffffffffffffffff1681565b348015610a2257600080fd5b5060095461046e9073ffffffffffffffffffffffffffffffffffffffff1681565b348015610a4f57600080fd5b506104d3610a5e366004615672565b6123ba565b348015610a6f57600080fd5b5060408051808201909152600581527f424c4545500000000000000000000000000000000000000000000000000000006020820152610434565b348015610ab557600080fd5b506104d3610ac4366004615487565b612585565b348015610ad557600080fd5b506106c6610ae4366004615487565b6126ba565b348015610af557600080fd5b506104d3610b043660046156b2565b6126c5565b348015610b1557600080fd5b50610b29610b24366004615713565b612964565b6040516103e99190615755565b348015610b4257600080fd5b506104d3610b513660046157bd565b612a37565b348015610b6257600080fd5b50600c5461046e9073ffffffffffffffffffffffffffffffffffffffff1681565b348015610b8f57600080fd5b506104d3610b9e3660046157eb565b612a46565b610bb6610bb1366004615713565b612b03565b6040516103e9919061583f565b348015610bcf57600080fd5b506104f5610bde36600461536a565b612c6e565b348015610bef57600080fd5b506106c6610bfe366004615487565b612d0c565b348015610c0f57600080fd5b506104d3610c1e3660046157eb565b612da9565b348015610c2f57600080fd5b506104d3610c3e3660046158bf565b6130e6565b348015610c4f57600080fd5b50610434610c5e36600461536a565b61345f565b348015610c6f57600080fd5b506104d3610c7e366004615921565b613524565b348015610c8f57600080fd5b506104d3613805565b348015610ca457600080fd5b506104f57fe48329057bfd03d55e49b547132e39cffd9c1820ad7b9d4c5307691425d15adf81565b348015610cd857600080fd5b50610434613935565b348015610ced57600080fd5b506106c6610cfc366004615487565b613a2d565b348015610d0d57600080fd5b506103dd610d1c366004615672565b613a59565b348015610d2d57600080fd5b50610d77610d3c366004615978565b600760209081526000928352604080842090915290825290205463ffffffff81169064010000000090046bffffffffffffffffffffffff1682565b6040805163ffffffff90931683526bffffffffffffffffffffffff9091166020830152016103e9565b348015610dac57600080fd5b506104d3610dbb366004615487565b613aa1565b348015610dcc57600080fd5b50610de0610ddb366004615713565b613b3c565b6040516103e991906159af565b348015610df957600080fd5b506104d3610e08366004615487565b613c6f565b6000610e1882613d63565b80610e6457507f2a55205a000000000000000000000000000000000000000000000000000000007fffffffff000000000000000000000000000000000000000000000000000000008316145b92915050565b6000818152602081905260408120547f80000000000000000000000000000000000000000000000000000000000000008082161473ffffffffffffffffffffffffffffffffffffffff8216610f20576040517f08c379a000000000000000000000000000000000000000000000000000000000815260206004820152601160248201527f4e4f4e4558495354454e545f544f4b454e00000000000000000000000000000060448201526064015b60405180910390fd5b8015610f515750505060009081526003602052604090205473ffffffffffffffffffffffffffffffffffffffff1690565b5060009392505050565b6000818152602081905260409020546affffffffffffffffffffff60a082901c1673ffffffffffffffffffffffffffffffffffffffff8216610ff9576040517f08c379a000000000000000000000000000000000000000000000000000000000815260206004820152601160248201527f4e4f4e4558495354454e545f544f4b454e0000000000000000000000000000006044820152606401610f17565b3373ffffffffffffffffffffffffffffffffffffffff8316148061104d575073ffffffffffffffffffffffffffffffffffffffff8216600090815260026020908152604080832033845290915290205460ff165b6110b3576040517f08c379a000000000000000000000000000000000000000000000000000000000815260206004820152601560248201527f554e415554484f52495a45445f415050524f56414c00000000000000000000006044820152606401610f17565b6110bf82828686613e0b565b50505050565b6000610e6482612c6e565b6000818152602081905260409020547f80000000000000000000000000000000000000000000000000000000000000008082161473ffffffffffffffffffffffffffffffffffffffff8216611181576040517f08c379a000000000000000000000000000000000000000000000000000000000815260206004820152601160248201527f4e4f4e4558495354454e545f544f4b454e0000000000000000000000000000006044820152606401610f17565b8473ffffffffffffffffffffffffffffffffffffffff168273ffffffffffffffffffffffffffffffffffffffff1614611216576040517f08c379a000000000000000000000000000000000000000000000000000000000815260206004820152600960248201527f4e4f545f4f574e455200000000000000000000000000000000000000000000006044820152606401610f17565b73ffffffffffffffffffffffffffffffffffffffff8416611293576040517f08c379a000000000000000000000000000000000000000000000000000000000815260206004820152601260248201527f4e4f545f544f5f5a45524f4144445245535300000000000000000000000000006044820152606401610f17565b73ffffffffffffffffffffffffffffffffffffffff8416301415611313576040517f08c379a000000000000000000000000000000000000000000000000000000000815260206004820152600b60248201527f4e4f545f544f5f544849530000000000000000000000000000000000000000006044820152606401610f17565b3373ffffffffffffffffffffffffffffffffffffffff86161461140157808015611360575060008381526003602052604090205473ffffffffffffffffffffffffffffffffffffffff1633145b8061139b575073ffffffffffffffffffffffffffffffffffffffff8516600090815260026020908152604080832033845290915290205460ff165b611401576040517f08c379a000000000000000000000000000000000000000000000000000000000815260206004820152601560248201527f554e415554484f52495a45445f5452414e5346455200000000000000000000006044820152606401610f17565b61140c858585613f44565b5050505050565b600b5473ffffffffffffffffffffffffffffffffffffffff163314611494576040517f08c379a000000000000000000000000000000000000000000000000000000000815260206004820152600e60248201527f4e4f545f415554484f52495a45440000000000000000000000000000000000006044820152606401610f17565b73ffffffffffffffffffffffffffffffffffffffff8216740100000000000000000000000000000000000000006bffffffffffffffffffffffff831690810282176010556040805192835260208301919091527fb744dc8fdcd17f69ad99fdabe0fe0ed8fea41193727ed2123d997550eaae918f910160405180910390a15050565b60105473ffffffffffffffffffffffffffffffffffffffff81169060009061271090611568907401000000000000000000000000000000000000000090046bffffffffffffffffffffffff1685615a43565b6115729190615aaf565b90509250929050565b6000611585614033565b905090565b6040517f782d6fe100000000000000000000000000000000000000000000000000000000815273ffffffffffffffffffffffffffffffffffffffff8316600482015260248101829052600090309063782d6fe19060440160206040518083038186803b1580156115f957600080fd5b505afa15801561160d573d6000803e3d6000fd5b505050506040513d601f19601f820116820180604052508101906116319190615ac3565b9392505050565b61165383838360405180602001604052806000815250612da9565b505050565b60115473ffffffffffffffffffffffffffffffffffffffff1633146116d9576040517f08c379a000000000000000000000000000000000000000000000000000000000815260206004820152600e60248201527f4e4f545f415554484f52495a45440000000000000000000000000000000000006044820152606401610f17565b601180547fffffffffffffffffffffffff00000000000000000000000000000000000000001673ffffffffffffffffffffffffffffffffffffffff83169081179091556040519081527f4b70ff24654603d6961acf6a0cf30db833fc126dac63891114f984fefcc2b064906020015b60405180910390a150565b73ffffffffffffffffffffffffffffffffffffffff80821660009081526006602052604081205490911680156117895780611631565b5090919050565b73ffffffffffffffffffffffffffffffffffffffff81166117ae5750335b6117b83382614093565b50565b60008181526020819052604090205473ffffffffffffffffffffffffffffffffffffffff8116611847576040517f08c379a000000000000000000000000000000000000000000000000000000000815260206004820152601160248201527f4e4f4e4558495354454e545f544f4b454e0000000000000000000000000000006044820152606401610f17565b919050565b600a5473ffffffffffffffffffffffffffffffffffffffff163314806118a85750600e5473ffffffffffffffffffffffffffffffffffffffff16331480156118a8575073ffffffffffffffffffffffffffffffffffffffff8116155b61190e576040517f08c379a000000000000000000000000000000000000000000000000000000000815260206004820152600e60248201527f4e4f545f415554484f52495a45440000000000000000000000000000000000006044820152606401610f17565b600a80547fffffffffffffffffffffffff00000000000000000000000000000000000000001673ffffffffffffffffffffffffffffffffffffffff83169081179091556040519081527f89de65ceb8cdf195a0b50021ed65dd305b54d3b744a0e283bd98c6058e2edd7890602001611748565b600073ffffffffffffffffffffffffffffffffffffffff8216611a00576040517f08c379a000000000000000000000000000000000000000000000000000000000815260206004820152601260248201527f5a45524f5f414444524553535f4f574e455200000000000000000000000000006044820152606401610f17565b5073ffffffffffffffffffffffffffffffffffffffff1660009081526001602052604090205490565b42821015611a93576040517f08c379a000000000000000000000000000000000000000000000000000000000815260206004820152601760248201527f5045524d49545f444541444c494e455f455850495245440000000000000000006044820152606401610f17565b6000838152602081905260409020546affffffffffffffffffffff60a082901c1673ffffffffffffffffffffffffffffffffffffffff8216611b31576040517f08c379a000000000000000000000000000000000000000000000000000000000815260206004820152601160248201527f4e4f4e4558495354454e545f544f4b454e0000000000000000000000000000006044820152606401610f17565b611b3f828787878588614138565b611b4b82828888613e0b565b505050505050565b60095473ffffffffffffffffffffffffffffffffffffffff163314611bd4576040517f08c379a000000000000000000000000000000000000000000000000000000000815260206004820152600e60248201527f4e4f545f415554484f52495a45440000000000000000000000000000000000006044820152606401610f17565b6040517f02571be30000000000000000000000000000000000000000000000000000000081527f91d1777781884d03a6757a803996e38de2a42967fb37eeaca72729271025a9e260048201526000907f000000000000000000000000000000000000000000000000000000000000000073ffffffffffffffffffffffffffffffffffffffff16906302571be39060240160206040518083038186803b158015611c7c57600080fd5b505afa158015611c90573d6000803e3d6000fd5b505050506040513d601f19601f82011682018060405250810190611cb49190615ae0565b6040517fc47f002700000000000000000000000000000000000000000000000000000000815290915073ffffffffffffffffffffffffffffffffffffffff82169063c47f002790611d09908590600401615357565b602060405180830381600087803b158015611d2357600080fd5b505af1158015611d37573d6000803e3d6000fd5b505050506040513d601f19601f820116820180604052508101906116539190615afd565b6000438210611dec576040517f08c379a000000000000000000000000000000000000000000000000000000000815260206004820152603760248201527f455243373231436865636b706f696e7461626c653a3a6765745072696f72566f60448201527f7465733a206e6f74207965742064657465726d696e65640000000000000000006064820152608401610f17565b73ffffffffffffffffffffffffffffffffffffffff831660009081526008602052604090205463ffffffff1680611e27576000915050610e64565b73ffffffffffffffffffffffffffffffffffffffff841660009081526007602052604081208491611e59600185615b16565b63ffffffff90811682526020820192909252604001600020541611611edf5773ffffffffffffffffffffffffffffffffffffffff8416600090815260076020526040812090611ea9600184615b16565b63ffffffff16815260208101919091526040016000205464010000000090046bffffffffffffffffffffffff169150610e649050565b73ffffffffffffffffffffffffffffffffffffffff8416600090815260076020908152604080832083805290915290205463ffffffff16831015611f27576000915050610e64565b600080611f35600184615b16565b90505b8163ffffffff168163ffffffff16111561201a5760006002611f5a8484615b16565b611f649190615b3b565b611f6e9083615b16565b73ffffffffffffffffffffffffffffffffffffffff8816600090815260076020908152604080832063ffffffff8581168552908352928190208151808301909252549283168082526401000000009093046bffffffffffffffffffffffff1691810191909152919250871415611fee57602001519450610e649350505050565b805163ffffffff1687111561200557819350612013565b612010600183615b16565b92505b5050611f38565b5073ffffffffffffffffffffffffffffffffffffffff8516600090815260076020908152604080832063ffffffff909416835292905220546bffffffffffffffffffffffff6401000000009091041691505092915050565b600b5473ffffffffffffffffffffffffffffffffffffffff163314806120ce5750600e5473ffffffffffffffffffffffffffffffffffffffff16331480156120ce575073ffffffffffffffffffffffffffffffffffffffff8116155b612134576040517f08c379a000000000000000000000000000000000000000000000000000000000815260206004820152600e60248201527f4e4f545f415554484f52495a45440000000000000000000000000000000000006044820152606401610f17565b600b80547fffffffffffffffffffffffff00000000000000000000000000000000000000001673ffffffffffffffffffffffffffffffffffffffff83169081179091556040519081527fb17416b845258d996b82b66c3c9166088ec5edf592b35fcce47c62a73d61ef4190602001611748565b73ffffffffffffffffffffffffffffffffffffffff8116600090815260046020526040812054610e64565b600a5473ffffffffffffffffffffffffffffffffffffffff163314612253576040517f08c379a000000000000000000000000000000000000000000000000000000000815260206004820152600e60248201527f4e4f545f415554484f52495a45440000000000000000000000000000000000006044820152606401610f17565b600f80547fffffffffffffffffffffffff00000000000000000000000000000000000000001673ffffffffffffffffffffffffffffffffffffffff83169081179091556040519081527f6bf5b09f847c9c9e97addeaf1ea9d5fd44ff6ae2c9c4aaf55fb476eca421a45d90602001611748565b600e5473ffffffffffffffffffffffffffffffffffffffff163314612347576040517f08c379a000000000000000000000000000000000000000000000000000000000815260206004820152600e60248201527f4e4f545f415554484f52495a45440000000000000000000000000000000000006044820152606401610f17565b600e80547fffffffffffffffffffffffff00000000000000000000000000000000000000001673ffffffffffffffffffffffffffffffffffffffff83169081179091556040519081527fe6c09ffe4572dc9ceaa5ddde4ae41befa655d6fdfe8052077af0970f700e942e90602001611748565b60095473ffffffffffffffffffffffffffffffffffffffff16331461243b576040517f08c379a000000000000000000000000000000000000000000000000000000000815260206004820152600e60248201527f4e4f545f415554484f52495a45440000000000000000000000000000000000006044820152606401610f17565b6040517f70a0823100000000000000000000000000000000000000000000000000000000815230600482015273ffffffffffffffffffffffffffffffffffffffff83169063a9059cbb90839083906370a082319060240160206040518083038186803b1580156124aa57600080fd5b505afa1580156124be573d6000803e3d6000fd5b505050506040513d601f19601f820116820180604052508101906124e29190615afd565b6040517fffffffff0000000000000000000000000000000000000000000000000000000060e085901b16815273ffffffffffffffffffffffffffffffffffffffff90921660048301526024820152604401602060405180830381600087803b15801561254d57600080fd5b505af1158015612561573d6000803e3d6000fd5b505050506040513d601f19601f820116820180604052508101906116539190615b5e565b600c5473ffffffffffffffffffffffffffffffffffffffff163314806125e15750600e5473ffffffffffffffffffffffffffffffffffffffff16331480156125e1575073ffffffffffffffffffffffffffffffffffffffff8116155b612647576040517f08c379a000000000000000000000000000000000000000000000000000000000815260206004820152600e60248201527f4e4f545f415554484f52495a45440000000000000000000000000000000000006044820152606401610f17565b600c80547fffffffffffffffffffffffff00000000000000000000000000000000000000001673ffffffffffffffffffffffffffffffffffffffff83169081179091556040519081527fb8e0165b6664b7af8f9563c66e3d6b987c2d06fe192539d7123a0777b41a7c8990602001611748565b6000610e6482612d0c565b600d5473ffffffffffffffffffffffffffffffffffffffff163314612746576040517f08c379a000000000000000000000000000000000000000000000000000000000815260206004820152601360248201527f4f4e4c595f4d494e5445525f414c4c4f574544000000000000000000000000006044820152606401610f17565b6104008261ffff16106127b5576040517f08c379a000000000000000000000000000000000000000000000000000000000815260206004820152600d60248201527f494e56414c49445f424c454550000000000000000000000000000000000000006044820152606401610f17565b73ffffffffffffffffffffffffffffffffffffffff8116612832576040517f08c379a000000000000000000000000000000000000000000000000000000000815260206004820152601260248201527f4e4f545f544f5f5a45524f4144445245535300000000000000000000000000006044820152606401610f17565b73ffffffffffffffffffffffffffffffffffffffff81163014156128b2576040517f08c379a000000000000000000000000000000000000000000000000000000000815260206004820152600b60248201527f4e4f545f544f5f544849530000000000000000000000000000000000000000006044820152606401610f17565b61ffff821660009081526020819052604090205473ffffffffffffffffffffffffffffffffffffffff811615612944576040517f08c379a000000000000000000000000000000000000000000000000000000000815260206004820152600f60248201527f414c52454144595f4352454154454400000000000000000000000000000000006044820152606401610f17565b6116536000838561ffff166040518060200160405280600081525061428c565b60608167ffffffffffffffff81111561297f5761297f6154a4565b6040519080825280602002602001820160405280156129a8578160200160208202803683370190505b50905060005b82811015612a305760008484838181106129ca576129ca615b7b565b905060200201359050600080828152602001908152602001600020548383815181106129f8576129f8615b7b565b73ffffffffffffffffffffffffffffffffffffffff909216602092830291909101909101525080612a2881615baa565b9150506129ae565b5092915050565b612a42338383614327565b5050565b42821015612ab0576040517f08c379a000000000000000000000000000000000000000000000000000000000815260206004820152601760248201527f5045524d49545f444541444c494e455f455850495245440000000000000000006044820152606401610f17565b73ffffffffffffffffffffffffffffffffffffffff841660009081526004602052604081208054612af792879287928792909190612aed83615baa565b91905055856143bf565b6110bf84846001614327565b60608167ffffffffffffffff811115612b1e57612b1e6154a4565b604051908082528060200260200182016040528015612b5157816020015b6060815260200190600190039081612b3c5790505b50905060005b82811015612a305760008030868685818110612b7557612b75615b7b565b9050602002810190612b879190615be3565b604051612b95929190615c48565b600060405180830381855af49150503d8060008114612bd0576040519150601f19603f3d011682016040523d82523d6000602084013e612bd5565b606091505b509150915081612c3b57604481511015612bee57600080fd5b60048101905080806020019051810190612c089190615c58565b6040517f08c379a0000000000000000000000000000000000000000000000000000000008152600401610f179190615357565b80848481518110612c4e57612c4e615b7b565b602002602001018190525050508080612c6690615baa565b915050612b57565b6000818152602081905260408120546affffffffffffffffffffff60a082901c1673ffffffffffffffffffffffffffffffffffffffff8216611631576040517f08c379a000000000000000000000000000000000000000000000000000000000815260206004820152601160248201527f4e4f4e4558495354454e545f544f4b454e0000000000000000000000000000006044820152606401610f17565b73ffffffffffffffffffffffffffffffffffffffff811660009081526008602052604081205463ffffffff1680612d44576000611631565b73ffffffffffffffffffffffffffffffffffffffff8316600090815260076020526040812090612d75600184615b16565b63ffffffff16815260208101919091526040016000205464010000000090046bffffffffffffffffffffffff169392505050565b6000828152602081905260409020547f80000000000000000000000000000000000000000000000000000000000000008082161473ffffffffffffffffffffffffffffffffffffffff8216612e5a576040517f08c379a000000000000000000000000000000000000000000000000000000000815260206004820152601160248201527f4e4f4e4558495354454e545f544f4b454e0000000000000000000000000000006044820152606401610f17565b8573ffffffffffffffffffffffffffffffffffffffff168273ffffffffffffffffffffffffffffffffffffffff1614612eef576040517f08c379a000000000000000000000000000000000000000000000000000000000815260206004820152600960248201527f4e4f545f4f574e455200000000000000000000000000000000000000000000006044820152606401610f17565b73ffffffffffffffffffffffffffffffffffffffff8516612f6c576040517f08c379a000000000000000000000000000000000000000000000000000000000815260206004820152601260248201527f4e4f545f544f5f5a45524f4144445245535300000000000000000000000000006044820152606401610f17565b73ffffffffffffffffffffffffffffffffffffffff8516301415612fec576040517f08c379a000000000000000000000000000000000000000000000000000000000815260206004820152600b60248201527f4e4f545f544f5f544849530000000000000000000000000000000000000000006044820152606401610f17565b3373ffffffffffffffffffffffffffffffffffffffff8716146130da57808015613039575060008481526003602052604090205473ffffffffffffffffffffffffffffffffffffffff1633145b80613074575073ffffffffffffffffffffffffffffffffffffffff8616600090815260026020908152604080832033845290915290205460ff165b6130da576040517f08c379a000000000000000000000000000000000000000000000000000000000815260206004820152601560248201527f554e415554484f52495a45445f5452414e5346455200000000000000000000006044820152606401610f17565b611b4b8686868661428c565b60006130f0614033565b604080517fe48329057bfd03d55e49b547132e39cffd9c1820ad7b9d4c5307691425d15adf602082015273ffffffffffffffffffffffffffffffffffffffff8a1691810191909152606081018890526080810187905260a001604051602081830303815290604052805190602001206040516020016131a19291907f190100000000000000000000000000000000000000000000000000000000000081526002810192909252602282015260420190565b604080517fffffffffffffffffffffffffffffffffffffffffffffffffffffffffffffffe08184030181528282528051602091820120600080855291840180845281905260ff88169284019290925260608301869052608083018590529092509060019060a0016020604051602081039080840390855afa15801561322a573d6000803e3d6000fd5b50506040517fffffffffffffffffffffffffffffffffffffffffffffffffffffffffffffffe0015191505073ffffffffffffffffffffffffffffffffffffffff81166132f8576040517f08c379a000000000000000000000000000000000000000000000000000000000815260206004820152603660248201527f455243373231436865636b706f696e7461626c653a3a64656c6567617465427960448201527f5369673a20696e76616c6964207369676e6174757265000000000000000000006064820152608401610f17565b73ffffffffffffffffffffffffffffffffffffffff8116600090815260046020526040812080549161332983615baa565b9190505587146133bb576040517f08c379a000000000000000000000000000000000000000000000000000000000815260206004820152603260248201527f455243373231436865636b706f696e7461626c653a3a64656c6567617465427960448201527f5369673a20696e76616c6964206e6f6e636500000000000000000000000000006064820152608401610f17565b8542111561344b576040517f08c379a000000000000000000000000000000000000000000000000000000000815260206004820152603660248201527f455243373231436865636b706f696e7461626c653a3a64656c6567617465427960448201527f5369673a207369676e61747572652065787069726564000000000000000000006064820152608401610f17565b6134558189614093565b5050505050505050565b600f546040517fc87b56dd0000000000000000000000000000000000000000000000000000000081526004810183905260609173ffffffffffffffffffffffffffffffffffffffff169063c87b56dd9060240160006040518083038186803b1580156134ca57600080fd5b505afa1580156134de573d6000803e3d6000fd5b505050506040513d6000823e601f3d9081017fffffffffffffffffffffffffffffffffffffffffffffffffffffffffffffffe0168201604052610e649190810190615c58565b600d5473ffffffffffffffffffffffffffffffffffffffff1633146135a5576040517f08c379a000000000000000000000000000000000000000000000000000000000815260206004820152601360248201527f4f4e4c595f4d494e5445525f414c4c4f574544000000000000000000000000006044820152606401610f17565b73ffffffffffffffffffffffffffffffffffffffff8116613622576040517f08c379a000000000000000000000000000000000000000000000000000000000815260206004820152601260248201527f4e4f545f544f5f5a45524f4144445245535300000000000000000000000000006044820152606401610f17565b73ffffffffffffffffffffffffffffffffffffffff81163014156136a2576040517f08c379a000000000000000000000000000000000000000000000000000000000815260206004820152600b60248201527f4e4f545f544f5f544849530000000000000000000000000000000000000000006044820152606401610f17565b60005b828110156110bf5760008484838181106136c1576136c1615b7b565b90506020020160208101906136d69190615ccf565b61ffff1690506104008110613747576040517f08c379a000000000000000000000000000000000000000000000000000000000815260206004820152600d60248201527f494e56414c49445f424c454550000000000000000000000000000000000000006044820152606401610f17565b60008181526020819052604090205473ffffffffffffffffffffffffffffffffffffffff8116156137d4576040517f08c379a000000000000000000000000000000000000000000000000000000000815260206004820152600f60248201527f414c52454144595f4352454154454400000000000000000000000000000000006044820152606401610f17565b6137f0600085846040518060200160405280600081525061428c565b505080806137fd90615baa565b9150506136a5565b60115473ffffffffffffffffffffffffffffffffffffffff163314613886576040517f08c379a000000000000000000000000000000000000000000000000000000000815260206004820152600e60248201527f4e4f545f415554484f52495a45440000000000000000000000000000000000006044820152606401610f17565b600580547fffffffffffffffffffffffffffffffffffffffffffffffffffffffffffffff00169055601180547fffffffffffffffffffffffff0000000000000000000000000000000000000000169055604051600081527f4b70ff24654603d6961acf6a0cf30db833fc126dac63891114f984fefcc2b0649060200160405180910390a16040517f3355f5c11ec5fbd9909c4fbd232bf8592a749dba18405f16df892fa6b40eddae90600090a1565b600f546010546040517fcc4c332400000000000000000000000000000000000000000000000000000000815273ffffffffffffffffffffffffffffffffffffffff8083166004830152740100000000000000000000000000000000000000009092046bffffffffffffffffffffffff166024820152606092919091169063cc4c33249060440160006040518083038186803b1580156139d357600080fd5b505afa1580156139e7573d6000803e3d6000fd5b505050506040513d6000823e601f3d9081017fffffffffffffffffffffffffffffffffffffffffffffffffffffffffffffffe01682016040526115859190810190615c58565b6000610e64613a3b83611981565b6040518060600160405280603d8152602001615ea3603d9139614503565b73ffffffffffffffffffffffffffffffffffffffff808316600090815260026020908152604080832093851683529290529081205460ff168061163157506116318383614555565b60095473ffffffffffffffffffffffffffffffffffffffff16338114613ac657600080fd5b600980547fffffffffffffffffffffffff00000000000000000000000000000000000000001673ffffffffffffffffffffffffffffffffffffffff84811691821790925560405190918316907f8be0079c531659141344cd1fd0a4f28419497f9722a3daafe3b4186f6b6457e090600090a35050565b60608167ffffffffffffffff811115613b5757613b576154a4565b604051908082528060200260200182016040528015613b9c57816020015b6040805180820190915260008082526020820152815260200190600190039081613b755790505b50905060005b82811015612a30576000806000868685818110613bc157613bc1615b7b565b90506020020135815260200190815260200160002054905080838381518110613bec57613bec615b7b565b60200260200101516000019073ffffffffffffffffffffffffffffffffffffffff16908173ffffffffffffffffffffffffffffffffffffffff168152505060a081901c6affffffffffffffffffffff16838381518110613c4e57613c4e615b7b565b60209081029190910181015101525080613c6781615baa565b915050613ba2565b600c5473ffffffffffffffffffffffffffffffffffffffff163314613cf0576040517f08c379a000000000000000000000000000000000000000000000000000000000815260206004820152600e60248201527f4e4f545f415554484f52495a45440000000000000000000000000000000000006044820152606401610f17565b600d80547fffffffffffffffffffffffff00000000000000000000000000000000000000001673ffffffffffffffffffffffffffffffffffffffff83169081179091556040519081527f726b590ef91a8c76ad05bbe91a57ef84605276528f49cd47d787f558a4e755b690602001611748565b6000613d6e8261467e565b80613dba57507fffffffff0000000000000000000000000000000000000000000000000000000082167f5604e22500000000000000000000000000000000000000000000000000000000145b80610e6457507fffffffff0000000000000000000000000000000000000000000000000000000082167fefdb586b000000000000000000000000000000000000000000000000000000001492915050565b73ffffffffffffffffffffffffffffffffffffffff8216613e5857600081815260208190526040902060a084901b73ffffffffffffffffffffffffffffffffffffffff8616179055613ee3565b6000818152602081815260408083207f800000000000000000000000000000000000000000000000000000000000000073ffffffffffffffffffffffffffffffffffffffff89811660a08a901b1791909117909155600390925290912080547fffffffffffffffffffffffff0000000000000000000000000000000000000000169184169190911790555b808273ffffffffffffffffffffffffffffffffffffffff168573ffffffffffffffffffffffffffffffffffffffff167f8c5be1e5ebec7d5bd14f71427d1e84f3dd0314c0f7b2291e5b200ac8c7c3b92560405160405180910390a450505050565b613f4f83838361475f565b73ffffffffffffffffffffffffffffffffffffffff808316600090815260016020819052604090912080549091019055831615613fd25773ffffffffffffffffffffffffffffffffffffffff8316600090815260016020526040902080547fffffffffffffffffffffffffffffffffffffffffffffffffffffffffffffffff0190555b6000818152602081905260408082204360a01b73ffffffffffffffffffffffffffffffffffffffff80871691821790925591518493918716917fddf252ad1be2c89b69c2b068fc378daa952ba7f163c4a11628f55a4df523b3ef91a4505050565b6000467f0000000000000000000000000000000000000000000000000000000000000000811461406b5761406681614786565b61408d565b7f00000000000000000000000000000000000000000000000000000000000000005b91505090565b600061409e83611753565b73ffffffffffffffffffffffffffffffffffffffff84811660008181526006602052604080822080547fffffffffffffffffffffffff000000000000000000000000000000000000000016888616908117909155905194955093928516927f3134e8a2e6d97e929a7e54011ea5485d7d196dd5f0ba4d4ef95803e8e3fc257f9190a4600061412b84613a2d565b90506110bf82848361482a565b6000614142614033565b604080517f49ecf333e5b8c95c40fdafc95c1ad136e8914a8fb55e9dc8bb01eaa83a2df9ad602082015273ffffffffffffffffffffffffffffffffffffffff891691810191909152606081018790526080810185905260a0810186905260c001604051602081830303815290604052805190602001206040516020016141fa9291907f190100000000000000000000000000000000000000000000000000000000000081526002810192909252602282015260420190565b60405160208183030381529060405280519060200120905061421d878284614a4f565b614283576040517f08c379a000000000000000000000000000000000000000000000000000000000815260206004820152601160248201527f494e56414c49445f5349474e41545552450000000000000000000000000000006044820152606401610f17565b50505050505050565b614297848484613f44565b73ffffffffffffffffffffffffffffffffffffffff83163b156110bf576142c13385858585614c3e565b6110bf576040517f08c379a000000000000000000000000000000000000000000000000000000000815260206004820152601860248201527f4552433732315f5452414e534645525f52454a454354454400000000000000006044820152606401610f17565b73ffffffffffffffffffffffffffffffffffffffff83811660008181526002602090815260408083209487168084529482529182902080547fffffffffffffffffffffffffffffffffffffffffffffffffffffffffffffff001686151590811790915591519182527f17307eab39ab6107e8899845ad3d59bd9653f200f220920489ca2b5937696c31910160405180910390a3505050565b60006143c9614033565b604080517f29795620f29ed5790c945e3f419a1b3e2381aa07751ccffe5b81231639d74cd5602082015273ffffffffffffffffffffffffffffffffffffffff881691810191909152606081018590526080810186905260a0016040516020818303038152906040528051906020012060405160200161447a9291907f190100000000000000000000000000000000000000000000000000000000000081526002810192909252602282015260420190565b60405160208183030381529060405280519060200120905061449d868284614a4f565b611b4b576040517f08c379a000000000000000000000000000000000000000000000000000000000815260206004820152601160248201527f494e56414c49445f5349474e41545552450000000000000000000000000000006044820152606401610f17565b6000816c01000000000000000000000000841061454d576040517f08c379a0000000000000000000000000000000000000000000000000000000008152600401610f179190615357565b509192915050565b60007f000000000000000000000000000000000000000000000000000000000000000073ffffffffffffffffffffffffffffffffffffffff1661459a57506000610e64565b6040517fc455279100000000000000000000000000000000000000000000000000000000815273ffffffffffffffffffffffffffffffffffffffff84811660048301527f0000000000000000000000000000000000000000000000000000000000000000918482169183169063c45527919060240160206040518083038186803b15801561462757600080fd5b505afa15801561463b573d6000803e3d6000fd5b505050506040513d601f19601f8201168201806040525081019061465f9190615ae0565b73ffffffffffffffffffffffffffffffffffffffff1614949350505050565b60007f01ffc9a7000000000000000000000000000000000000000000000000000000007fffffffff000000000000000000000000000000000000000000000000000000008316148061471157507f80ac58cd000000000000000000000000000000000000000000000000000000007fffffffff000000000000000000000000000000000000000000000000000000008316145b80610e645750507fffffffff00000000000000000000000000000000000000000000000000000000167f5b5e139f000000000000000000000000000000000000000000000000000000001490565b60055460ff16156116535761165361477684611753565b61477f84611753565b600161482a565b60007f8cad95687ba82c2ce50e74f7b754645e5117c3a5bec8151c0726d5857980a8666147e360408051808201909152600681527f426c656570730000000000000000000000000000000000000000000000000000602082015290565b80516020918201206040805192830193909352918101919091526060810183905230608082015260a001604051602081830303815290604052805190602001209050919050565b8173ffffffffffffffffffffffffffffffffffffffff168373ffffffffffffffffffffffffffffffffffffffff161415801561487457506000816bffffffffffffffffffffffff16115b156116535773ffffffffffffffffffffffffffffffffffffffff8316156149665773ffffffffffffffffffffffffffffffffffffffff831660009081526008602052604081205463ffffffff1690816148ce57600061492d565b73ffffffffffffffffffffffffffffffffffffffff85166000908152600760205260408120906148ff600185615b16565b63ffffffff16815260208101919091526040016000205464010000000090046bffffffffffffffffffffffff165b905060006149548285604051806060016040528060378152602001615ee060379139614d22565b905061496286848484614d90565b5050505b73ffffffffffffffffffffffffffffffffffffffff8216156116535773ffffffffffffffffffffffffffffffffffffffff821660009081526008602052604081205463ffffffff1690816149bb576000614a1a565b73ffffffffffffffffffffffffffffffffffffffff84166000908152600760205260408120906149ec600185615b16565b63ffffffff16815260208101919091526040016000205464010000000090046bffffffffffffffffffffffff165b90506000614a418285604051806060016040528060368152602001615e2960369139615013565b9050611b4b85848484614d90565b6000806000614a5e8585615084565b90925090506000816004811115614a7757614a77615cea565b148015614aaf57508573ffffffffffffffffffffffffffffffffffffffff168273ffffffffffffffffffffffffffffffffffffffff16145b15614abf57600192505050611631565b6000808773ffffffffffffffffffffffffffffffffffffffff16631626ba7e60e01b8888604051602401614af4929190615d19565b604080517fffffffffffffffffffffffffffffffffffffffffffffffffffffffffffffffe08184030181529181526020820180517bffffffffffffffffffffffffffffffffffffffffffffffffffffffff167fffffffff00000000000000000000000000000000000000000000000000000000909416939093179092529051614b7d9190615d32565b600060405180830381855afa9150503d8060008114614bb8576040519150601f19603f3d011682016040523d82523d6000602084013e614bbd565b606091505b5091509150818015614bd0575080516020145b8015614c32575080517f1626ba7e0000000000000000000000000000000000000000000000000000000090614c0e9083016020908101908401615d4e565b7fffffffff0000000000000000000000000000000000000000000000000000000016145b98975050505050505050565b6000808473ffffffffffffffffffffffffffffffffffffffff1663150b7a02888887876040518563ffffffff1660e01b8152600401614c809493929190615d6b565b602060405180830381600087803b158015614c9a57600080fd5b505af1158015614cae573d6000803e3d6000fd5b505050506040513d601f19601f82011682018060405250810190614cd29190615d4e565b7fffffffff00000000000000000000000000000000000000000000000000000000167f150b7a02000000000000000000000000000000000000000000000000000000001491505095945050505050565b6000836bffffffffffffffffffffffff16836bffffffffffffffffffffffff1611158290614d7d576040517f08c379a0000000000000000000000000000000000000000000000000000000008152600401610f179190615357565b50614d888385615db4565b949350505050565b6000614db443604051806080016040528060448152602001615e5f604491396150f4565b905060008463ffffffff16118015614e1b575073ffffffffffffffffffffffffffffffffffffffff8516600090815260076020526040812063ffffffff831691614dff600188615b16565b63ffffffff908116825260208201929092526040016000205416145b15614eb15773ffffffffffffffffffffffffffffffffffffffff851660009081526007602052604081208391614e52600188615b16565b63ffffffff168152602081019190915260400160002080546bffffffffffffffffffffffff92909216640100000000027fffffffffffffffffffffffffffffffff000000000000000000000000ffffffff909216919091179055614fac565b60408051808201825263ffffffff80841682526bffffffffffffffffffffffff808616602080850191825273ffffffffffffffffffffffffffffffffffffffff8b166000908152600782528681208b8616825290915294909420925183549451909116640100000000027fffffffffffffffffffffffffffffffff00000000000000000000000000000000909416911617919091179055614f53846001615dd9565b73ffffffffffffffffffffffffffffffffffffffff8616600090815260086020526040902080547fffffffffffffffffffffffffffffffffffffffffffffffffffffffff000000001663ffffffff929092169190911790555b604080516bffffffffffffffffffffffff80861682528416602082015273ffffffffffffffffffffffffffffffffffffffff8716917fdec2bacdd2f05b59de34da9b523dff8be42e5e38e818c82fdb0bae774387a724910160405180910390a25050505050565b6000806150208486615e01565b9050846bffffffffffffffffffffffff16816bffffffffffffffffffffffff161015839061507b576040517f08c379a0000000000000000000000000000000000000000000000000000000008152600401610f179190615357565b50949350505050565b6000808251604114156150bb5760208301516040840151606085015160001a6150af87828585615136565b945094505050506150ed565b8251604014156150e557602083015160408401516150da86838361524e565b9350935050506150ed565b506000905060025b9250929050565b600081640100000000841061454d576040517f08c379a0000000000000000000000000000000000000000000000000000000008152600401610f179190615357565b6000807f7fffffffffffffffffffffffffffffff5d576e7357a4501ddfe92f46681b20a083111561516d5750600090506003615245565b8460ff16601b1415801561518557508460ff16601c14155b156151965750600090506004615245565b6040805160008082526020820180845289905260ff881692820192909252606081018690526080810185905260019060a0016020604051602081039080840390855afa1580156151ea573d6000803e3d6000fd5b50506040517fffffffffffffffffffffffffffffffffffffffffffffffffffffffffffffffe0015191505073ffffffffffffffffffffffffffffffffffffffff811661523e57600060019250925050615245565b9150600090505b94509492505050565b6000807f7fffffffffffffffffffffffffffffffffffffffffffffffffffffffffffffff831660ff84901c601b0161528887828885615136565b935093505050935093915050565b7fffffffff00000000000000000000000000000000000000000000000000000000811681146117b857600080fd5b6000602082840312156152d657600080fd5b813561163181615296565b60005b838110156152fc5781810151838201526020016152e4565b838111156110bf5750506000910152565b600081518084526153258160208601602086016152e1565b601f017fffffffffffffffffffffffffffffffffffffffffffffffffffffffffffffffe0169290920160200192915050565b602081526000611631602083018461530d565b60006020828403121561537c57600080fd5b5035919050565b73ffffffffffffffffffffffffffffffffffffffff811681146117b857600080fd5b600080604083850312156153b857600080fd5b82356153c381615383565b946020939093013593505050565b6000806000606084860312156153e657600080fd5b83356153f181615383565b9250602084013561540181615383565b929592945050506040919091013590565b6bffffffffffffffffffffffff811681146117b857600080fd5b6000806040838503121561543f57600080fd5b823561544a81615383565b9150602083013561545a81615412565b809150509250929050565b6000806040838503121561547857600080fd5b50508035926020909101359150565b60006020828403121561549957600080fd5b813561163181615383565b7f4e487b7100000000000000000000000000000000000000000000000000000000600052604160045260246000fd5b604051601f82017fffffffffffffffffffffffffffffffffffffffffffffffffffffffffffffffe016810167ffffffffffffffff8111828210171561551a5761551a6154a4565b604052919050565b600067ffffffffffffffff82111561553c5761553c6154a4565b50601f017fffffffffffffffffffffffffffffffffffffffffffffffffffffffffffffffe01660200190565b600061557b61557684615522565b6154d3565b905082815283838301111561558f57600080fd5b828260208301376000602084830101529392505050565b600082601f8301126155b757600080fd5b61163183833560208501615568565b600080600080608085870312156155dc57600080fd5b84356155e781615383565b93506020850135925060408501359150606085013567ffffffffffffffff81111561561157600080fd5b61561d878288016155a6565b91505092959194509250565b60006020828403121561563b57600080fd5b813567ffffffffffffffff81111561565257600080fd5b8201601f8101841361566357600080fd5b614d8884823560208401615568565b6000806040838503121561568557600080fd5b823561569081615383565b9150602083013561545a81615383565b803561ffff8116811461184757600080fd5b600080604083850312156156c557600080fd5b615690836156a0565b60008083601f8401126156e057600080fd5b50813567ffffffffffffffff8111156156f857600080fd5b6020830191508360208260051b85010111156150ed57600080fd5b6000806020838503121561572657600080fd5b823567ffffffffffffffff81111561573d57600080fd5b615749858286016156ce565b90969095509350505050565b6020808252825182820181905260009190848201906040850190845b818110156157a357835173ffffffffffffffffffffffffffffffffffffffff1683529284019291840191600101615771565b50909695505050505050565b80151581146117b857600080fd5b600080604083850312156157d057600080fd5b82356157db81615383565b9150602083013561545a816157af565b6000806000806080858703121561580157600080fd5b843561580c81615383565b9350602085013561581c81615383565b925060408501359150606085013567ffffffffffffffff81111561561157600080fd5b6000602080830181845280855180835260408601915060408160051b870101925083870160005b828110156158b2577fffffffffffffffffffffffffffffffffffffffffffffffffffffffffffffffc08886030184526158a085835161530d565b94509285019290850190600101615866565b5092979650505050505050565b60008060008060008060c087890312156158d857600080fd5b86356158e381615383565b95506020870135945060408701359350606087013560ff8116811461590757600080fd5b9598949750929560808101359460a0909101359350915050565b60008060006040848603121561593657600080fd5b833567ffffffffffffffff81111561594d57600080fd5b615959868287016156ce565b909450925050602084013561596d81615383565b809150509250925092565b6000806040838503121561598b57600080fd5b823561599681615383565b9150602083013563ffffffff8116811461545a57600080fd5b602080825282518282018190526000919060409081850190868401855b82811015615a07578151805173ffffffffffffffffffffffffffffffffffffffff1685528601518685015292840192908501906001016159cc565b5091979650505050505050565b7f4e487b7100000000000000000000000000000000000000000000000000000000600052601160045260246000fd5b6000817fffffffffffffffffffffffffffffffffffffffffffffffffffffffffffffffff0483118215151615615a7b57615a7b615a14565b500290565b7f4e487b7100000000000000000000000000000000000000000000000000000000600052601260045260246000fd5b600082615abe57615abe615a80565b500490565b600060208284031215615ad557600080fd5b815161163181615412565b600060208284031215615af257600080fd5b815161163181615383565b600060208284031215615b0f57600080fd5b5051919050565b600063ffffffff83811690831681811015615b3357615b33615a14565b039392505050565b600063ffffffff80841680615b5257615b52615a80565b92169190910492915050565b600060208284031215615b7057600080fd5b8151611631816157af565b7f4e487b7100000000000000000000000000000000000000000000000000000000600052603260045260246000fd5b60007fffffffffffffffffffffffffffffffffffffffffffffffffffffffffffffffff821415615bdc57615bdc615a14565b5060010190565b60008083357fffffffffffffffffffffffffffffffffffffffffffffffffffffffffffffffe1843603018112615c1857600080fd5b83018035915067ffffffffffffffff821115615c3357600080fd5b6020019150368190038213156150ed57600080fd5b8183823760009101908152919050565b600060208284031215615c6a57600080fd5b815167ffffffffffffffff811115615c8157600080fd5b8201601f81018413615c9257600080fd5b8051615ca061557682615522565b818152856020838501011115615cb557600080fd5b615cc68260208301602086016152e1565b95945050505050565b600060208284031215615ce157600080fd5b611631826156a0565b7f4e487b7100000000000000000000000000000000000000000000000000000000600052602160045260246000fd5b828152604060208201526000614d88604083018461530d565b60008251615d448184602087016152e1565b9190910192915050565b600060208284031215615d6057600080fd5b815161163181615296565b600073ffffffffffffffffffffffffffffffffffffffff808716835280861660208401525083604083015260806060830152615daa608083018461530d565b9695505050505050565b60006bffffffffffffffffffffffff83811690831681811015615b3357615b33615a14565b600063ffffffff808316818516808303821115615df857615df8615a14565b01949350505050565b60006bffffffffffffffffffffffff808316818516808303821115615df857615df8615a1456fe455243373231436865636b706f696e7461626c653a3a5f6d6f766544656c6567617465733a20616d6f756e74206f766572666c6f7773455243373231436865636b706f696e7461626c653a3a5f7772697465436865636b706f696e743a20626c6f636b206e756d62657220657863656564732033322062697473455243373231436865636b706f696e7461626c653a3a766f746573546f44656c65676174653a20616d6f756e7420657863656564732039362062697473455243373231436865636b706f696e7461626c653a3a5f6d6f766544656c6567617465733a20616d6f756e7420756e646572666c6f7773a2646970667358221220489cadf8db22da2fd11c34ed05fa23a2cccbba99852cbece88dfa1b448b59f7c64736f6c63430008090033",
  "devdoc": {
    "kind": "dev",
    "methods": {
      "DOMAIN_SEPARATOR()": {
        "details": "Return the DOMAIN_SEPARATOR."
      },
      "approve(address,uint256)": {
        "params": {
          "id": "The id of the token.",
          "operator": "The address receiving the approval."
        }
      },
      "balanceOf(address)": {
        "params": {
          "owner": "The address to look for."
        },
        "returns": {
          "balance": "The number of tokens owned by the address."
        }
      },
      "constructor": {
        "details": "Create the Bleeps contract",
        "params": {
          "ens": "ENS address for the network the contract is deployed to",
          "imitialRoyaltyPer10Thousands": "amount of royalty in 10,000 basis point",
          "initialCheckpointingDisabler": "admin able to cancel checkpointing",
          "initialGuardian": "guardian able to immortalize rules",
          "initialMinterAdmin": "admin able to set the minter contract.",
          "initialOwner": "address that can set the ENS name of the contract and that can witthdraw ERC20 tokens sent by mistake here.",
          "initialRoyaltyAdmin": "admin able to update the royalty receiver and rates.",
          "initialRoyaltyReceiver": "receiver of royalties",
          "initialTokenURIAdmin": "admin able to update the tokenURI contract.",
          "initialTokenURIContract": "initial tokenURI contract that generate the metadata including the wav file.",
          "openseaProxyRegistry": "allow Bleeps to be sold on opensea without prior approval tx as long as the user have already an opensea proxy."
        }
      },
      "delegate(address)": {
        "params": {
          "delegatee": "The address to delegate votes to"
        }
      },
      "delegateBySig(address,uint256,uint256,uint8,bytes32,bytes32)": {
        "params": {
          "delegatee": "The address to delegate votes to",
          "expiry": "The time at which to expire the signature",
          "nonce": "The contract state required to match the signature",
          "r": "Half of the ECDSA signature pair",
          "s": "Half of the ECDSA signature pair",
          "v": "The recovery byte of the signature"
        }
      },
      "getApproved(uint256)": {
        "params": {
          "id": "The id of the token."
        },
        "returns": {
          "_0": "The address of the operator."
        }
      },
      "getCurrentVotes(address)": {
        "params": {
          "account": "The address to get votes balance"
        },
        "returns": {
          "_0": "The number of current votes for `account`"
        }
      },
      "getPastVotes(address,uint256)": {
        "details": "Block number must be a finalized block or else this function will revert to prevent misinformation.",
        "params": {
          "account": "The address of the account to check",
          "blockNumber": "The block number to get the vote balance at"
        },
        "returns": {
          "_0": "The number of votes the account had as of the given block"
        }
      },
      "getPriorVotes(address,uint256)": {
        "details": "Block number must be a finalized block or else this function will revert to prevent misinformation.",
        "params": {
          "account": "The address of the account to check",
          "blockNumber": "The block number to get the vote balance at"
        },
        "returns": {
          "_0": "The number of votes the account had as of the given block"
        }
      },
      "getVotes(address)": {
        "params": {
          "account": "The address to get votes balance"
        },
        "returns": {
          "_0": "The number of current votes for `account`"
        }
      },
      "isApprovedForAll(address,address)": {
        "params": {
          "operator": "The address of the operator.",
          "owner": "The address of the owner."
        },
        "returns": {
          "isOperator": "The status of the approval."
        }
      },
      "mint(uint16,address)": {
        "params": {
          "id": "bleep id which represent a pair of (note, instrument).",
          "to": "address that will receive the Bleep."
        }
      },
      "multiMint(uint16[],address)": {
        "params": {
          "ids": "list of bleep id which represent each a pair of (note, instrument).",
          "to": "address that will receive the Bleeps."
        }
      },
      "multicall(bytes[])": {
        "details": "The `msg.value` should not be trusted for any method callable from multicall.",
        "params": {
          "data": "The encoded function data for each of the calls to make to this contract."
        },
        "returns": {
          "results": "The results from each of the calls passed in via data."
        }
      },
      "ownerAndLastTransferBlockNumberList(uint256[])": {
        "params": {
          "ids": "The list of token ids to check."
        },
        "returns": {
          "ownersData": "The list of (owner, lastTransferBlockNumber) for each ids given as input."
        }
      },
      "ownerOf(uint256)": {
        "params": {
          "id": "The id of the token."
        },
        "returns": {
          "owner": "The address of the token owner."
        }
      },
      "owners(uint256[])": {
        "params": {
          "ids": "The list if token ids to check."
        },
        "returns": {
          "addresses": "The list of addresses, corresponding to the list of ids."
        }
      },
      "royaltyInfo(uint256,uint256)": {
        "params": {
          "id": "- the token queried for royalty information.",
          "salePrice": "- the sale price of the token specified by id."
        },
        "returns": {
          "receiver": "- address of who should be sent the royalty payment.",
          "royaltyAmount": "- the royalty payment amount for salePrice."
        }
      },
      "safeTransferFrom(address,address,uint256)": {
        "params": {
          "from": "The send of the token.",
          "id": "The id of the token.",
          "to": "The recipient of the token."
        }
      },
      "safeTransferFrom(address,address,uint256,bytes)": {
        "params": {
          "data": "Additional data.",
          "from": "The sender of the token.",
          "id": "The id of the token.",
          "to": "The recipient of the token."
        }
      },
      "setApprovalForAll(address,bool)": {
        "params": {
          "approved": "The determination of the approval.",
          "operator": "The address receiving the approval."
        }
      },
      "setCheckpointingDisabler(address)": {
        "params": {
          "newCheckpointingDisabler": "new address that can disable the use of checkpointing. can be the zero address to remove the ability to change."
        }
      },
      "setRoyaltyParameters(address,uint96)": {
        "params": {
          "newReceiver": "the address that should receive the royalty proceeds.",
          "royaltyPer10Thousands": "the share of the salePrice (in 1/10000) given to the receiver."
        }
      },
      "setTokenURIContract(address)": {
        "params": {
          "newTokenURIContract": "The address of the new tokenURI contract."
        }
      },
      "sound(uint256)": {
        "params": {
          "id": "bleep id which represent a pair of (note, instrument)."
        },
        "returns": {
          "instrument": "the instrument index (0 to 16). At launch there is only 9 instrument but the DAO could add more (up to 16 in total).",
          "note": "the note index (0 to 63) starting from C2 to D#7"
        }
      },
      "supportsInterface(bytes4)": {
        "params": {
          "id": "The id of the interface."
        },
        "returns": {
          "_0": "Whether the interface is supported."
        }
      },
      "transferFrom(address,address,uint256)": {
        "params": {
          "from": "The sender of the token.",
          "id": "The id of the token.",
          "to": "The recipient of the token."
        }
      },
      "votesToDelegate(address)": {
        "details": "Used when calling `_delegate()`"
      }
    },
    "stateVariables": {
      "checkpointingDisabler": {
        "details": "address that is able to switch off the use of checkpointing, this will make token transfers much cheaper in term of gas, but require the design of a new governance system."
      }
    },
    "version": 1
  },
  "userdoc": {
    "events": {
      "DelegateChanged(address,address,address)": {
        "notice": "An event thats emitted when an account changes its delegate"
      },
      "DelegateVotesChanged(address,uint256,uint256)": {
        "notice": "An event thats emitted when a delegate account's vote balance changes"
      }
    },
    "kind": "user",
    "methods": {
      "DELEGATION_TYPEHASH()": {
        "notice": "The EIP-712 typehash for the delegation struct used by the contract"
      },
      "approve(address,uint256)": {
        "notice": "Approve an operator to transfer a specific token on the senders behalf."
      },
      "balanceOf(address)": {
        "notice": "Get the number of tokens owned by an address."
      },
      "checkpoints(address,uint32)": {
        "notice": "A record of votes checkpoints for each account, by index"
      },
      "contractURI()": {
        "notice": "Returns the Uniform Resource Identifier (URI) for the token collection."
      },
      "decimals()": {
        "notice": "Defines decimals as per ERC-20 convention to make integrations with 3rd party governance platforms easier"
      },
      "delegate(address)": {
        "notice": "Delegate votes from `msg.sender` to `delegatee`"
      },
      "delegateBySig(address,uint256,uint256,uint8,bytes32,bytes32)": {
        "notice": "Delegates votes from signatory to `delegatee`"
      },
      "delegates(address)": {
        "notice": "Overrides the standard `Comp.sol` delegates mapping to return the delegator's own address if they haven't delegated. This avoids having to delegate to oneself."
      },
      "disableTheUseOfCheckpoints()": {
        "notice": "disable checkpointing overhead This can be used if the governance system can switch to use ownerAndLastTransferBlockNumberOf instead of checkpoints"
      },
      "getApproved(uint256)": {
        "notice": "Get the approved operator for a specific token."
      },
      "getCurrentVotes(address)": {
        "notice": "Gets the current votes balance for `account`"
      },
      "getPastVotes(address,uint256)": {
        "notice": "Determine the prior number of votes for an account as of a block number"
      },
      "getPriorVotes(address,uint256)": {
        "notice": "Determine the prior number of votes for an account as of a block number"
      },
      "getVotes(address)": {
        "notice": "Gets the current votes balance for `account`"
      },
      "guardian()": {
        "notice": "guardian has some special vetoing power to guide the direction of the DAO. It can only remove rights from the DAO. It could be used to immortalize rules. For example: the royalty setup could be frozen."
      },
      "isApprovedForAll(address,address)": {
        "notice": "Check if the sender approved the operator."
      },
      "mint(uint16,address)": {
        "notice": "mint one of bleep if not already minted. Can only be called by `minter`."
      },
      "minter()": {
        "notice": "address allowed to mint, allow the sale contract to be separated from the token contract that can focus on the core logic Once all 1024 potential bleeps (there could be less, at minimum there are 576 bleeps) are minted, no minter can mint anymore"
      },
      "minterAdmin()": {
        "notice": "minterAdmin can update the minter. At the time being there is 576 Bleeps but there is space for extra instrument and the upper limit is 1024. could be given to the DAO later so instrument can be added, the sale of these new bleeps could benenfit the DAO too and add new members."
      },
      "multiMint(uint16[],address)": {
        "notice": "mint multiple bleeps if not already minted. Can only be called by `minter`."
      },
      "multicall(bytes[])": {
        "notice": "Call multiple functions in the current contract and return the data from all of them if they all succeed."
      },
      "name()": {
        "notice": "A descriptive name for a collection of NFTs in this contract."
      },
      "numCheckpoints(address)": {
        "notice": "The number of checkpoints for each account"
      },
      "owner()": {
        "notice": "the address of the current owner, that is able to set ENS names and withdraw ERC20 owned by the contract."
      },
      "ownerAndLastTransferBlockNumberList(uint256[])": {
        "notice": "Get the list of owner of a token and the blockNumber of its last transfer, useful to voting mechanism."
      },
      "ownerOf(uint256)": {
        "notice": "Get the owner of a token."
      },
      "owners(uint256[])": {
        "notice": "give the list of owners for the list of ids given."
      },
      "royaltyAdmin()": {
        "notice": "address allowed to set royalty parameters"
      },
      "royaltyInfo(uint256,uint256)": {
        "notice": "Called with the sale price to determine how much royalty is owed and to whom."
      },
      "safeTransferFrom(address,address,uint256)": {
        "notice": "Transfer a token between 2 addresses letting the receiver know of the transfer."
      },
      "safeTransferFrom(address,address,uint256,bytes)": {
        "notice": "Transfer a token between 2 addresses letting the receiver knows of the transfer."
      },
      "setApprovalForAll(address,bool)": {
        "notice": "Set the approval for an operator to manage all the tokens of the sender."
      },
      "setCheckpointingDisabler(address)": {
        "notice": "update the address that can disable the use of checkpinting, can be used to disable it entirely."
      },
      "setGuardian(address)": {
        "notice": "set the new guardian that can freeze the other admins (except owner). Can only be called by the current guardian."
      },
      "setMinter(address)": {
        "notice": "set the new minter that can mint Bleeps (up to 1024). Can only be called by the minter admin."
      },
      "setMinterAdmin(address)": {
        "notice": "set the new minterAdmin that can set the minter for Bleeps Can only be called by the current minter admin."
      },
      "setRoyaltyAdmin(address)": {
        "notice": "set the new royaltyAdmin that can change the royalties Can only be called by the current royalty admin."
      },
      "setRoyaltyParameters(address,uint96)": {
        "notice": "set a new royalty receiver and rate, Can only be set by the `royaltyAdmin`."
      },
      "setTokenURIAdmin(address)": {
        "notice": "set the new tokenURIAdmin that can change the tokenURI Can only be called by the current tokenURI admin."
      },
      "setTokenURIContract(address)": {
        "notice": "set a new tokenURI contract, that generate the metadata including the wav file, Can only be set by the `tokenURIAdmin`."
      },
      "sound(uint256)": {
        "notice": "gives the note and instrument for a particular Bleep id."
      },
      "supportsInterface(bytes4)": {
        "notice": "Check if the contract supports an interface."
      },
      "symbol()": {
        "notice": "An abbreviated name for NFTs in this contract."
      },
      "tokenURI(uint256)": {
        "notice": "Returns the Uniform Resource Identifier (URI) for token `id`."
      },
      "tokenURIAdmin()": {
        "notice": "tokenURIAdmin can update the tokenURI contract, this is intended to be relinquished once the tokenURI has been heavily tested in the wild and that no modification are needed."
      },
      "tokenURIContract()": {
        "notice": "the contract that actually generate the sound (and all metadata via the a data: uri via tokenURI call)."
      },
      "transferFrom(address,address,uint256)": {
        "notice": "Transfer a token between 2 addresses."
      },
      "transferOwnership(address)": {
        "notice": "Transfers ownership of the contract to a new account (`newOwner`). Can only be called by the current owner."
      },
      "votesToDelegate(address)": {
        "notice": "The votes a delegator can delegate, which is the current balance of the delegator."
      }
    },
    "version": 1
  },
  "storageLayout": {
    "storage": [
      {
        "astId": 6429,
        "contract": "src/bleeps/Bleeps.sol:Bleeps",
        "label": "_owners",
        "offset": 0,
        "slot": "0",
        "type": "t_mapping(t_uint256,t_uint256)"
      },
      {
        "astId": 6433,
        "contract": "src/bleeps/Bleeps.sol:Bleeps",
        "label": "_balances",
        "offset": 0,
        "slot": "1",
        "type": "t_mapping(t_address,t_uint256)"
      },
      {
        "astId": 6439,
        "contract": "src/bleeps/Bleeps.sol:Bleeps",
        "label": "_operatorsForAll",
        "offset": 0,
        "slot": "2",
        "type": "t_mapping(t_address,t_mapping(t_address,t_bool))"
      },
      {
        "astId": 6443,
        "contract": "src/bleeps/Bleeps.sol:Bleeps",
        "label": "_operators",
        "offset": 0,
        "slot": "3",
        "type": "t_mapping(t_uint256,t_address)"
      },
      {
        "astId": 7376,
        "contract": "src/bleeps/Bleeps.sol:Bleeps",
        "label": "_userNonces",
        "offset": 0,
        "slot": "4",
        "type": "t_mapping(t_address,t_uint256)"
      },
      {
        "astId": 8089,
        "contract": "src/bleeps/Bleeps.sol:Bleeps",
        "label": "_useCheckpoints",
        "offset": 0,
        "slot": "5",
        "type": "t_bool"
      },
      {
        "astId": 8098,
        "contract": "src/bleeps/Bleeps.sol:Bleeps",
        "label": "_delegates",
        "offset": 0,
        "slot": "6",
        "type": "t_mapping(t_address,t_address)"
      },
      {
        "astId": 8111,
        "contract": "src/bleeps/Bleeps.sol:Bleeps",
        "label": "checkpoints",
        "offset": 0,
        "slot": "7",
        "type": "t_mapping(t_address,t_mapping(t_uint32,t_struct(Checkpoint)8103_storage))"
      },
      {
        "astId": 8116,
        "contract": "src/bleeps/Bleeps.sol:Bleeps",
        "label": "numCheckpoints",
        "offset": 0,
        "slot": "8",
        "type": "t_mapping(t_address,t_uint32)"
      },
      {
        "astId": 11483,
        "contract": "src/bleeps/Bleeps.sol:Bleeps",
        "label": "owner",
        "offset": 0,
        "slot": "9",
        "type": "t_address"
      },
      {
        "astId": 11486,
        "contract": "src/bleeps/Bleeps.sol:Bleeps",
        "label": "tokenURIAdmin",
        "offset": 0,
        "slot": "10",
        "type": "t_address"
      },
      {
        "astId": 11489,
        "contract": "src/bleeps/Bleeps.sol:Bleeps",
        "label": "royaltyAdmin",
        "offset": 0,
        "slot": "11",
        "type": "t_address"
      },
      {
        "astId": 11492,
        "contract": "src/bleeps/Bleeps.sol:Bleeps",
        "label": "minterAdmin",
        "offset": 0,
        "slot": "12",
        "type": "t_address"
      },
      {
        "astId": 11495,
        "contract": "src/bleeps/Bleeps.sol:Bleeps",
        "label": "minter",
        "offset": 0,
        "slot": "13",
        "type": "t_address"
      },
      {
        "astId": 11498,
        "contract": "src/bleeps/Bleeps.sol:Bleeps",
        "label": "guardian",
        "offset": 0,
        "slot": "14",
        "type": "t_address"
      },
      {
        "astId": 9843,
        "contract": "src/bleeps/Bleeps.sol:Bleeps",
        "label": "tokenURIContract",
        "offset": 0,
        "slot": "15",
        "type": "t_contract(ITokenURI)13293"
      },
      {
        "astId": 9851,
        "contract": "src/bleeps/Bleeps.sol:Bleeps",
        "label": "_royalty",
        "offset": 0,
        "slot": "16",
        "type": "t_struct(Royalty)9848_storage"
      },
      {
        "astId": 9854,
        "contract": "src/bleeps/Bleeps.sol:Bleeps",
        "label": "checkpointingDisabler",
        "offset": 0,
        "slot": "17",
        "type": "t_address"
      }
    ],
    "types": {
      "t_address": {
        "encoding": "inplace",
        "label": "address",
        "numberOfBytes": "20"
      },
      "t_bool": {
        "encoding": "inplace",
        "label": "bool",
        "numberOfBytes": "1"
      },
      "t_contract(ITokenURI)13293": {
        "encoding": "inplace",
        "label": "contract ITokenURI",
        "numberOfBytes": "20"
      },
      "t_mapping(t_address,t_address)": {
        "encoding": "mapping",
        "key": "t_address",
        "label": "mapping(address => address)",
        "numberOfBytes": "32",
        "value": "t_address"
      },
      "t_mapping(t_address,t_bool)": {
        "encoding": "mapping",
        "key": "t_address",
        "label": "mapping(address => bool)",
        "numberOfBytes": "32",
        "value": "t_bool"
      },
      "t_mapping(t_address,t_mapping(t_address,t_bool))": {
        "encoding": "mapping",
        "key": "t_address",
        "label": "mapping(address => mapping(address => bool))",
        "numberOfBytes": "32",
        "value": "t_mapping(t_address,t_bool)"
      },
      "t_mapping(t_address,t_mapping(t_uint32,t_struct(Checkpoint)8103_storage))": {
        "encoding": "mapping",
        "key": "t_address",
        "label": "mapping(address => mapping(uint32 => struct ERC721Checkpointable.Checkpoint))",
        "numberOfBytes": "32",
        "value": "t_mapping(t_uint32,t_struct(Checkpoint)8103_storage)"
      },
      "t_mapping(t_address,t_uint256)": {
        "encoding": "mapping",
        "key": "t_address",
        "label": "mapping(address => uint256)",
        "numberOfBytes": "32",
        "value": "t_uint256"
      },
      "t_mapping(t_address,t_uint32)": {
        "encoding": "mapping",
        "key": "t_address",
        "label": "mapping(address => uint32)",
        "numberOfBytes": "32",
        "value": "t_uint32"
      },
      "t_mapping(t_uint256,t_address)": {
        "encoding": "mapping",
        "key": "t_uint256",
        "label": "mapping(uint256 => address)",
        "numberOfBytes": "32",
        "value": "t_address"
      },
      "t_mapping(t_uint256,t_uint256)": {
        "encoding": "mapping",
        "key": "t_uint256",
        "label": "mapping(uint256 => uint256)",
        "numberOfBytes": "32",
        "value": "t_uint256"
      },
      "t_mapping(t_uint32,t_struct(Checkpoint)8103_storage)": {
        "encoding": "mapping",
        "key": "t_uint32",
        "label": "mapping(uint32 => struct ERC721Checkpointable.Checkpoint)",
        "numberOfBytes": "32",
        "value": "t_struct(Checkpoint)8103_storage"
      },
      "t_struct(Checkpoint)8103_storage": {
        "encoding": "inplace",
        "label": "struct ERC721Checkpointable.Checkpoint",
        "members": [
          {
            "astId": 8100,
            "contract": "src/bleeps/Bleeps.sol:Bleeps",
            "label": "fromBlock",
            "offset": 0,
            "slot": "0",
            "type": "t_uint32"
          },
          {
            "astId": 8102,
            "contract": "src/bleeps/Bleeps.sol:Bleeps",
            "label": "votes",
            "offset": 4,
            "slot": "0",
            "type": "t_uint96"
          }
        ],
        "numberOfBytes": "32"
      },
      "t_struct(Royalty)9848_storage": {
        "encoding": "inplace",
        "label": "struct Bleeps.Royalty",
        "members": [
          {
            "astId": 9845,
            "contract": "src/bleeps/Bleeps.sol:Bleeps",
            "label": "receiver",
            "offset": 0,
            "slot": "0",
            "type": "t_address"
          },
          {
            "astId": 9847,
            "contract": "src/bleeps/Bleeps.sol:Bleeps",
            "label": "per10Thousands",
            "offset": 20,
            "slot": "0",
            "type": "t_uint96"
          }
        ],
        "numberOfBytes": "32"
      },
      "t_uint256": {
        "encoding": "inplace",
        "label": "uint256",
        "numberOfBytes": "32"
      },
      "t_uint32": {
        "encoding": "inplace",
        "label": "uint32",
        "numberOfBytes": "4"
      },
      "t_uint96": {
        "encoding": "inplace",
        "label": "uint96",
        "numberOfBytes": "12"
      }
    }
  }
}