{
  "address": "0xD1Ea8145F252039327954Bd921C3ED502Bac7C16",
  "abi": [
    {
      "inputs": [
        {
          "internalType": "address",
          "name": "receiver",
          "type": "address"
        },
        {
          "internalType": "uint96",
          "name": "per10Thousands",
          "type": "uint96"
        }
      ],
      "name": "contractURI",
      "outputs": [
        {
          "internalType": "string",
          "name": "",
          "type": "string"
        }
      ],
      "stateMutability": "pure",
      "type": "function"
    },
    {
      "inputs": [
        {
          "internalType": "uint256",
          "name": "id",
          "type": "uint256"
        }
      ],
      "name": "tokenURI",
      "outputs": [
        {
          "internalType": "string",
          "name": "",
          "type": "string"
        }
      ],
      "stateMutability": "pure",
      "type": "function"
    }
  ],
  "transactionHash": "0xb36ab1cbab4b87f92baff6c60d2a987ee45dd7ea775ade85920d1fe0b5632837",
  "args": [],
  "solcInputHash": "fe2d698dc766749c774f141be3fe643d",
  "bytecode": "0x608060405234801561001057600080fd5b5061566580620000216000396000f3fe608060405234801561001057600080fd5b50600436106100365760003560e01c8063c87b56dd1461003b578063cc4c332414610064575b600080fd5b61004e6100493660046117b9565b610077565b60405161005b9190611802565b60405180910390f35b61004e610072366004611853565b610088565b6060610082826100ea565b92915050565b60606100a1826bffffffffffffffffffffffff166106b6565b6100c273ffffffffffffffffffffffffffffffffffffffff851660146107f0565b6040516020016100d39291906118d2565b604051602081830303815290604052905092915050565b60408051620186a0808252620186c082019092526060916000919060208201818036833701905050905060006101208483610a3e565b9050600061012f6040866146ac565b905060006101426010600688901c6146ac565b905060006040518060600160405280604081526020016155f060409139905060008061016f8660206146ef565b90506001830191508087019050600060405180610120016040528060fc81526020016154f460fc913960408051600480825260a082019092529192506000918291602082016080803683370190505090506101d8565b8060008112156101d3576000035b919050565b612af861271062ffffff60038b0260200186015160e81c1602046000805b612df68110156106945761223e811115610217578115610217576001820391505b610bb8811015610232576101f4821015610232576001820191505b6000805b6003811015610644576000871561062b578c61028d57610262620f42406002620f42408b0602036101c5565b60029081027ffffffffffffffffffffffffffffffffffffffffffffffffffffffffffff0bdc0010590505b60018d141561030f57620f42408807620d59f88112156102b1576007601082020591505b620d59f88113156102c857601081620f4240030291505b620d59f88114156102df57601081620f4240030291505b50620f42407ffffffffffffffffffffffffffffffffffffffffffffffffffffffffffff0bdc09091016207a12002055b60028d14156103495750620f42407ffffffffffffffffffffffffffffffffffffffffffffffffffffffffffff85ee081890701620aae6002055b60038d141561039257507ffffffffffffffffffffffffffffffffffffffffffffffffffffffffffff0bdc0620f424088076207a12081101561038c57620f424091505b50600490055b60048d14156103db57507ffffffffffffffffffffffffffffffffffffffffffffffffffffffffffff0bdc0620f424088076204c4b48110156103d557620f424091505b50600490055b60058d141561043a57600488029050620f42406207a120620186a06207a12060026207a12061041d620f4240621e8480620f42406207a1208b020507036101c5565b0305610432620f4240621e84808807036101c5565b010303020590505b60068d14156104a857506002878102906203d090906207a1206104897ffffffffffffffffffffffffffffffffffffffffffffffffffffffffffff0bdc0621e8480608060fe8f020507016101c5565b0305036207a1206104a3620f4240621e84808507036101c5565b030190505b60078d14156105a55760208701516040880151606089015160808a01516380000000613039856341c64e6d020106935062027100623d0900848e03020482915080620f424001620f42406380000000621e848088020403828401020592508c93506305f5e1006064820260af0360036004868601020502059550507ffffffffffffffffffffffffffffffffffffffffffffffffffffffffffff0bdc085121561056f577ffffffffffffffffffffffffffffffffffffffffffffffffffffffffffff0bdc094505b620f424085131561058157620f424094505b60208b019390935260408a019190915260608901526080880152600a600591909102055b60088d14156106125750600760056002621e8480608060fe8c02058190077fffffffffffffffffffffffffffffffffffffffffffffffffffffffffffe91ca001829005918b0207017fffffffffffffffffffffffffffffffffffffffffffffffffffffffffffe54c100102055b6102bc8582020590506080621e84806101008302050190505b96850196600882026010031b9190910190600101610236565b50603f8160121c168901518853600188019750603f81600c1c168901518853600188019750603f8160061c168901518853600188019750603f8116890151885350600196909601956003016101f6565b5050506106a68a8587612df68d610b4e565b50979a9950505050505050505050565b6060816106f657505060408051808201909152600181527f3000000000000000000000000000000000000000000000000000000000000000602082015290565b8160005b8115610720578061070a81614707565b91506107199050600a83614740565b91506106fa565b60008167ffffffffffffffff81111561073b5761073b61464e565b6040519080825280601f01601f191660200182016040528015610765576020820181803683370190505b5090505b84156107e85761077a600183614754565b9150610787600a866146ac565b6107929060306146ef565b60f81b8183815181106107a7576107a761476b565b60200101907effffffffffffffffffffffffffffffffffffffffffffffffffffffffffffff1916908160001a9053506107e1600a86614740565b9450610769565b949350505050565b606060006107ff83600261479a565b61080a9060026146ef565b67ffffffffffffffff8111156108225761082261464e565b6040519080825280601f01601f19166020018201604052801561084c576020820181803683370190505b5090507f3000000000000000000000000000000000000000000000000000000000000000816000815181106108835761088361476b565b60200101907effffffffffffffffffffffffffffffffffffffffffffffffffffffffffffff1916908160001a9053507f7800000000000000000000000000000000000000000000000000000000000000816001815181106108e6576108e661476b565b60200101907effffffffffffffffffffffffffffffffffffffffffffffffffffffffffffff1916908160001a905350600061092284600261479a565b61092d9060016146ef565b90505b60018111156109ca577f303132333435363738396162636465660000000000000000000000000000000085600f166010811061096e5761096e61476b565b1a60f81b8282815181106109845761098461476b565b60200101907effffffffffffffffffffffffffffffffffffffffffffffffffffffffffffff1916908160001a90535060049490941c936109c3816147d7565b9050610930565b508315610a37576040517f08c379a000000000000000000000000000000000000000000000000000000000815260206004820181905260248201527f537472696e67733a20686578206c656e67746820696e73756666696369656e74604482015260640160405180910390fd5b9392505050565b600080610a4c846000610d79565b90506000610a5b856000611085565b9050600082828484610a6c8a6106b6565b610a758b6112c9565b8888604051602001610a8e98979695949392919061480c565b604080517fffffffffffffffffffffffffffffffffffffffffffffffffffffffffffffffe0818403018152919052805190915060208083019087015b60208310610b0757815181527fffffffffffffffffffffffffffffffffffffffffffffffffffffffffffffffe09092019160209182019101610aca565b905181516020939093036101000a7fffffffffffffffffffffffffffffffffffffffffffffffffffffffffffffffff01801990911692169190911790525195945050505050565b60228453600184019350607d8453600184019350602085850303855260006008600184610b7b9190614754565b610b8690600261479a565b610b9190602c6146ef565b610b9b9190614754565b90506000602c610bac8360086146ef565b610bb69190614754565b90506034610bc58460206146ef565b610bcf9190614754565b603f602084901b64ff0000000016601085811b63ff000000169190910162ff00008616019085901c61ff0016016546000000005701602a81901c919091168701519189019750908753600187019650603f8160241c168601518753600187019650603f81601e1c168601518753600187019650603f8160181c168601518753600187019650603f8160121c168601518753600187019650603f81600c1c168601518753600187019650603f8160061c168601518753600187019650603f81168601518753506004610ca18460206146ef565b610cab9190614754565b603f602083901b64ff0000000016601084811b63ff000000169190910162ff00008516019084901c61ff0016016561000000005701602a81901c919091168701519189019750908753600187019650603f8160241c168601518753600187019650603f81601e1c168601518753600187019650603f8160181c168601518753600187019650603f8160121c168601518753600187019650603f81600c1c168601518753600187019650603f8160061c168601518753600187019650603f811686015187535050505050505050565b60606000610d8c6010600686901c6146ac565b905080610dd0576040518060400160405280600881526020017f545249414e474c45000000000000000000000000000000000000000000000000815250915061107e565b8060011415610e575782610e19576040518060400160405280600c81526020017f54494c5445442532305341570000000000000000000000000000000000000000815250610e50565b6040518060400160405280600e81526020017f54494c54454425323532305341570000000000000000000000000000000000008152505b915061107e565b8060021415610e9d576040518060400160405280600381526020017f5341570000000000000000000000000000000000000000000000000000000000815250915061107e565b8060031415610ee3576040518060400160405280600681526020017f5351554152450000000000000000000000000000000000000000000000000000815250915061107e565b8060041415610f29576040518060400160405280600581526020017f50554c5345000000000000000000000000000000000000000000000000000000815250915061107e565b8060051415610f6f576040518060400160405280600581526020017f4f5247414e000000000000000000000000000000000000000000000000000000815250915061107e565b8060061415610fb5576040518060400160405280600681526020017f5048415345520000000000000000000000000000000000000000000000000000815250915061107e565b8060071415610ffb576040518060400160405280600581526020017f4e4f495345000000000000000000000000000000000000000000000000000000815250915061107e565b806008141561107e5782611044576040518060400160405280600b81526020017f46554e4b5925323053415700000000000000000000000000000000000000000081525061107b565b6040518060400160405280600d81526020017f46554e4b592532353230534157000000000000000000000000000000000000008152505b91505b5092915050565b606060006110946040856146ac565b905060006110a3600c836146ac565b90508060ff8116156110bd57806110b981614b95565b9150505b60028260ff1611156110d757806110d381614b95565b9150505b60058260ff1611156110f157806110ed81614b95565b9150505b60078260ff16111561110b578061110781614b95565b9150505b60098260ff161115611125578061112181614b95565b9150505b60006007611134836002614bd0565b61113e9190614bf5565b611149906041614bd0565b60f81b9050600061115b600c86614740565b611166906032614bd0565b60f81b90508360ff166001148061118057508360ff166003145b8061118e57508360ff166006145b8061119c57508360ff166008145b806111aa57508360ff16600a145b1561128e57861561122d576040517fff0000000000000000000000000000000000000000000000000000000000000080841660208301527f25323532330000000000000000000000000000000000000000000000000000006021830152821660268201526027015b60405160208183030381529060405295505050505050610082565b6040517fff0000000000000000000000000000000000000000000000000000000000000080841660208301527f2532330000000000000000000000000000000000000000000000000000000000602183015282166024820152602501611212565b6040517fff00000000000000000000000000000000000000000000000000000000000000808416602083015282166021820152602201611212565b6060600060405180610120016040528060fc81526020016154f460fc91399050600683901c60006112fa8582610d79565b60408051808201909152600681527f66366665363300000000000000000000000000000000000000000000000000006020820152909150600090600161ffff8516141561137b575060408051808201909152600681527f30303834646200000000000000000000000000000000000000000000000000006020820152611759565b8361ffff16600214156113c2575060408051808201909152600681527f66333737333400000000000000000000000000000000000000000000000000006020820152611759565b8361ffff1660031415611409575060408051808201909152600681527f64313131316500000000000000000000000000000000000000000000000000006020820152611759565b8361ffff1660041415611450575060408051808201909152600681527f61643137366300000000000000000000000000000000000000000000000000006020820152611759565b8361ffff1660051415611497575060408051808201909152600681527f38303334626500000000000000000000000000000000000000000000000000006020820152611759565b8361ffff16600614156114de575060408051808201909152600681527f33306431623900000000000000000000000000000000000000000000000000006020820152611759565b8361ffff1660071415611525575060408051808201909152600681527f66663639623400000000000000000000000000000000000000000000000000006020820152611759565b8361ffff166008141561156c575060408051808201909152600681527f36336462336200000000000000000000000000000000000000000000000000006020820152611759565b8361ffff16600914156115b3575060408051808201909152600681527f30366436383300000000000000000000000000000000000000000000000000006020820152611759565b8361ffff16600a14156115fa575060408051808201909152600681527f66656334323500000000000000000000000000000000000000000000000000006020820152611759565b8361ffff16600b1415611641575060408051808201909152600681527f31643962633200000000000000000000000000000000000000000000000000006020820152611759565b8361ffff16600c1415611688575060408051808201909152600681527f61643630313300000000000000000000000000000000000000000000000000006020820152611759565b8361ffff16600d14156116cf575060408051808201909152600681527f35313138626100000000000000000000000000000000000000000000000000006020820152611759565b8361ffff16600e1415611716575060408051808201909152600681527f61383233343900000000000000000000000000000000000000000000000000006020820152611759565b8361ffff16600f1415611759575060408051808201909152600681527f623936616438000000000000000000000000000000000000000000000000000060208201525b606462ffffff600360408a060260200187015160e81c16049150808161177e846106b6565b8561178a8b6001611085565b60405160200161179e959493929190614c17565b60405160208183030381529060405295505050505050919050565b6000602082840312156117cb57600080fd5b5035919050565b60005b838110156117ed5781810151838201526020016117d5565b838111156117fc576000848401525b50505050565b60208152600082518060208401526118218160408501602087016117d2565b601f017fffffffffffffffffffffffffffffffffffffffffffffffffffffffffffffffe0169190910160400192915050565b6000806040838503121561186657600080fd5b823573ffffffffffffffffffffffffffffffffffffffff8116811461188a57600080fd5b915060208301356bffffffffffffffffffffffff811681146118ab57600080fd5b809150509250929050565b600081516118c88185602086016117d2565b9290920192915050565b7f646174613a6170706c69636174696f6e2f6a736f6e2c7b226e616d65223a224281527f6c65657073222c226465736372697074696f6e223a22426c656570732532306160208201527f72652532307468652532306669727374253230736f756e647325323066756c6c60408201527f7925323067656e6572617465642532306f6e2d636861696e253230776974682560608201527f32307a65726f25323065787465726e616c69746965732e25323045616368253260808201527f30426c65657025323067697665732532306f6e65253230766f7465253230696e60a08201527f253230746865253230426c6565707325323044414f2e2532305468657925323060c08201527f63616e253230616c736f2532306265253230636f6d62696e6564253230746f2560e08201527f32306372656174652532304f6e636861696e2532304d656c6f646965732e222c6101008201527f22696d616765223a22646174613a696d6167652f7376672b786d6c3b626173656101208201527f36342c50484e325a79423261575633516d393450534977494441674e544579496101408201527f4455784d69496765473173626e4d39496d6830644841364c79393364336375646101608201527f7a4d7562334a6e4c7a49774d44417663335a6e4969423462577875637a7034626101808201527f476c75617a30696148523063446f764c336433647935334d793576636d63764d6101a08201527f546b354f53393462476c75617949676333523562475539496d4a685932746e636101c08201527f6d3931626d51745932397362334936596d786859327337496a34385a7942705a6101e08201527f44306955336c74596d397363794967633352796232746c50534a756232356c496102008201527f69427a64484a766132557464326c6b64476739496a456949475a7062477739496102208201527f6d3576626d556949475a7062477774636e56735a5430695a585a6c626d396b5a6102408201527f43492b504763675a6d6c736244306949305242516a67354e43492b44516f38636102608201527f4746306143426b50534a4e4d6a59314c6a6b304c4451774e4342444d6a59334c6102808201527f6a41354d6977304d4451674d6a59344c6a49784e4377304d444d754f445532496102a08201527f4449324f53347a4d4459734e44417a4c6a55324f4342444d6a63774c6a4d354f6102c08201527f4377304d444d754d6a67674d6a63784c6a4d334c4451774d6934344d7a59674d6102e08201527f6a63794c6a49794d6977304d4449754d6a4d3249454d794e7a4d754d4463304c6103008201527f4451774d5334324d7a59674d6a637a4c6a63314d6977304d4441754f445979496103208201527f4449334e4334794e5459734d7a6b354c6a6b784e4342444d6a63304c6a63324c6103408201527f444d354f4334354e6a59674d6a63314c6a41784d69777a4f5463754f445130496103608201527f4449334e5334774d5449734d7a6b324c6a55304f4342444d6a63314c6a41784d6103808201527f69777a4f5451754f5451674d6a63304c6a59794d69777a4f544d754e545932496103a08201527f4449334d7934344e4449734d7a6b794c6a51794e6942444d6a637a4c6a41324d6103c08201527f69777a4f5445754d6a6732494449334d5334344f43777a4f5441754e446734496103e08201527f4449334d4334794f5459734d7a6b774c6a417a4d6942444d6a63784c6a51304f6104008201527f43777a4f446b754e4467674d6a63794c6a4d784f43777a4f4467754e7a6379496104208201527f4449334d6934354d4459734d7a67334c6a6b774f4342444d6a637a4c6a51354e6104408201527f43777a4f4463754d445130494449334d7934334f4467734d7a67314c6a6b324e6104608201527f4341794e7a4d754e7a67344c444d344e4334324e6a6767517a49334d7934334f6104808201527f4467734d7a677a4c6a51324f4341794e7a4d754e546b734d7a67794c6a5132496104a08201527f4449334d7934784f5451734d7a67784c6a59304e4342444d6a63794c6a63354f6104c08201527f43777a4f4441754f444934494449334d6934794e43777a4f4441754d546330496104e08201527f4449334d5334314d69777a4e7a6b754e6a677949454d794e7a41754f43777a4e6105008201527f7a6b754d546b674d6a59354c6a6b7a4e69777a4e7a67754f444d32494449324f6105208201527f4334354d6a67734d7a63344c6a597949454d794e6a63754f5449734d7a63344c6105408201527f6a51774e4341794e6a59754f4441304c444d334f4334794f5459674d6a59314c6105608201527f6a55344c444d334f4334794f545967544449314d7934304f4451734d7a63344c6105808201527f6a49354e69424d4d6a557a4c6a51344e4377304d445167544449324e5334354e6105a08201527f4377304d4451675769424e4d6a59304c6a67324c444d344f433433494577794e6105c08201527f546b754d544d324c444d344f433433494577794e546b754d544d324c444d344d6105e08201527f6934324f446767544449324e4334304d6a67734d7a67794c6a59344f4342444d6106008201527f6a59304c6a6b7a4d69777a4f4449754e6a6734494449324e5334304d5467734d6106208201527f7a67794c6a637a494449324e5334344f4459734d7a67794c6a67784e4342444d6106408201527f6a59324c6a4d314e43777a4f4449754f446b34494449324e6934334e6a67734d6106608201527f7a677a4c6a41304f4341794e6a63754d5449344c444d344d7934794e6a5167516106808201527f7a49324e7934304f4467734d7a677a4c6a5134494449324e7934334e7a59734d6106a08201527f7a677a4c6a6334494449324e7934354f5449734d7a67304c6a45324e4342444d6106c08201527f6a59344c6a49774f43777a4f4451754e545134494449324f43347a4d5459734d6106e08201527f7a67314c6a4130494449324f43347a4d5459734d7a67314c6a593049454d794e6107008201527f6a67754d7a45324c444d344e6934334d6941794e6a63754f546b794c444d344e6107208201527f793431494449324e79347a4e4451734d7a67334c6a6b3449454d794e6a59754e6107408201527f6a6b324c444d344f4334304e6941794e6a55754f4459344c444d344f433433496107608201527f4449324e4334344e69777a4f4467754e794261494530794e6a55754d5467304c6107808201527f444d354f5334324d446767544449314f5334784d7a59734d7a6b354c6a59774f6107a08201527f43424d4d6a55354c6a457a4e69777a4f5449754e545579494577794e6a55754d6107c08201527f6a6b794c444d354d6934314e544967517a49324e6934314d5459734d7a6b794c6107e08201527f6a55314d6941794e6a63754e53777a4f5449754f444d30494449324f4334794e6108008201527f4451734d7a6b7a4c6a4d354f4342444d6a59344c6a6b344f43777a4f544d754f6108208201527f545979494449324f53347a4e69777a4f5451754f544130494449324f53347a4e6108408201527f69777a4f5459754d6a493049454d794e6a6b754d7a59734d7a6b324c6a67354e6108608201527f6941794e6a6b754d6a51324c444d354e7934304e4467674d6a59354c6a41784f6108808201527f43777a4f5463754f446767517a49324f4334334f53777a4f5467754d7a4579496108a08201527f4449324f4334304f4451734d7a6b344c6a59314e4341794e6a67754d53777a4f6108c08201527f5467754f54413249454d794e6a63754e7a45324c444d354f5334784e5467674d6108e08201527f6a59334c6a49334d69777a4f546b754d7a4d34494449324e6934334e6a67734d6109008201527f7a6b354c6a51304e6942444d6a59324c6a49324e43777a4f546b754e545530496109208201527f4449324e5334334d7a59734d7a6b354c6a59774f4341794e6a55754d5467304c6109408201527f444d354f5334324d4467675769424e4d7a45784c6a41774f4377304d445167546109608201527f444d784d5334774d4467734d7a6b354c6a49304f43424d4d6a6b344c6a51344c6109808201527f444d354f5334794e446767544449354f4334304f43777a4e7a67754d6a6b32496109a08201527f4577794f5449754f4449344c444d334f4334794f545967544449354d6934344d6109c08201527f6a67734e4441304945777a4d5445754d4441344c4451774e4342614945307a4e6109e08201527f4463754e6a67344c4451774e43424d4d7a51334c6a59344f43777a4f546b754d610a008201527f6a51344945777a4d7a4d754f4449344c444d354f5334794e44676754444d7a4d610a208201527f7934344d6a67734d7a6b794c6a6b304f43424d4d7a51324c6a49344e43777a4f610a408201527f5449754f5451344945777a4e4459754d6a67304c444d344f4334314e54596754610a608201527f444d7a4d7934344d6a67734d7a67344c6a55314e69424d4d7a4d7a4c6a67794f610a808201527f43777a4f444d754d4451344945777a4e4463754e43777a4f444d754d44513449610aa08201527f45777a4e4463754e43777a4e7a67754d6a6b324945777a4d6a67754d5463324c610ac08201527f444d334f4334794f54596754444d794f4334784e7a59734e4441304945777a4e610ae08201527f4463754e6a67344c4451774e4342614945307a4f4455754d4445324c4451774e610b008201527f43424d4d7a67314c6a41784e69777a4f546b754d6a51344945777a4e7a45754d610b208201527f5455324c444d354f5334794e44676754444d334d5334784e5459734d7a6b794c610b408201527f6a6b304f43424d4d7a677a4c6a59784d69777a4f5449754f5451344945777a4f610b608201527f444d754e6a45794c444d344f4334314e54596754444d334d5334784e5459734d610b808201527f7a67344c6a55314e69424d4d7a63784c6a45314e69777a4f444d754d44513449610ba08201527f45777a4f4451754e7a49344c444d344d7934774e44676754444d344e4334334d610bc08201527f6a67734d7a63344c6a49354e69424d4d7a59314c6a55774e43777a4e7a67754d610be08201527f6a6b324945777a4e6a55754e5441304c4451774e43424d4d7a67314c6a41784e610c008201527f6977304d4451675769424e4e4441344c6a51344e4377304d445167544451774f610c208201527f4334304f4451734d7a6b304c6a63344e43424d4e4445304c6a51794e43777a4f610c408201527f5451754e7a673049454d304d5459754d444d794c444d354e4334334f4451674e610c608201527f4445334c6a51734d7a6b304c6a5531494451784f4334314d6a67734d7a6b304c610c808201527f6a41344d6942444e4445354c6a59314e69777a4f544d754e6a4530494451794d610ca08201527f4334314e7a51734d7a6b794c6a6b354e6941304d6a45754d6a67794c444d354d610cc08201527f6934794d6a6767517a51794d5334354f53777a4f5445754e4459674e4449794c610ce08201527f6a55774e69777a4f5441754e546334494451794d6934344d79777a4f446b754e610d008201527f54677949454d304d6a4d754d5455304c444d344f4334314f4459674e44497a4c610d208201527f6a4d784e69777a4f4463754e546379494451794d79347a4d5459734d7a67324c610d408201527f6a553049454d304d6a4d754d7a45324c444d344e5334304f4451674e44497a4c610d608201527f6a45314e43777a4f4451754e445930494451794d6934344d79777a4f444d754e610d808201527f446767517a51794d6934314d4459734d7a67794c6a51354e6941304d6a45754f610da08201527f546b734d7a67784c6a5979494451794d5334794f4449734d7a67774c6a67314d610dc08201527f6942444e4449774c6a55334e43777a4f4441754d446730494451784f5334324e610de08201527f5459734d7a63354c6a51324e6941304d5467754e5449344c444d334f4334354f610e008201527f546767517a51784e7934304c444d334f4334314d7941304d5459754d444d794c610e208201527f444d334f4334794f5459674e4445304c6a51794e43777a4e7a67754d6a6b3249610e408201527f4577304d4449754f444d794c444d334f4334794f545967544451774d6934344d610e608201527f7a49734e444130494577304d4467754e4467304c4451774e434261494530304d610e808201527f5449754f4463324c444d354d43347a4f544967544451774f4334304f4451734d610ea08201527f7a6b774c6a4d354d69424d4e4441344c6a51344e43777a4f4449754e6a673449610ec08201527f4577304d5449754f4463324c444d344d6934324f446767517a51784d7934314d610ee08201527f6a51734d7a67794c6a59344f4341304d5451754d5451344c444d344d6934334d610f008201527f7a59674e4445304c6a63304f43777a4f4449754f444d7949454d304d5455754d610f208201527f7a51344c444d344d6934354d6a67674e4445314c6a67334e69777a4f444d754d610f408201527f544530494451784e69347a4d7a49734d7a677a4c6a4d3549454d304d5459754e610f608201527f7a67344c444d344d7934324e6a59674e4445334c6a45314e43777a4f4451754d610f808201527f445532494451784e7934304d79777a4f4451754e545967517a51784e7934334d610fa08201527f4459734d7a67314c6a41324e4341304d5463754f4451304c444d344e5334334d610fc08201527f6a51674e4445334c6a67304e43777a4f4459754e545167517a51784e7934344e610fe08201527f4451734d7a67334c6a4d314e6941304d5463754e7a41324c444d344f4334774d6110008201527f5459674e4445334c6a517a4c444d344f4334314d6942444e4445334c6a45314e6110208201527f43777a4f446b754d444930494451784e6934334f4467734d7a67354c6a51784e6110408201527f4341304d5459754d7a4d794c444d344f5334324f5342444e4445314c6a67334e6110608201527f69777a4f446b754f545932494451784e53347a4e4467734d7a6b774c6a45314d6110808201527f6941304d5451754e7a51344c444d354d4334794e446767517a51784e4334784e6110a08201527f4467734d7a6b774c6a4d304e4341304d544d754e5449304c444d354d43347a4f6110c08201527f5449674e4445794c6a67334e69777a4f5441754d7a6b7949466f67545451314d6110e08201527f4334784e6a67734e4441304c6a55334e6942444e4455784c6a6b794c4451774e6111008201527f4334314e7a59674e44557a4c6a51324d6977304d4451754d7a6379494451314e6111208201527f4334334f5451734e44417a4c6a6b324e4342444e4455324c6a45794e6977304d6111408201527f444d754e545532494451314e7934794e4449734e4441794c6a6b344e6941304e6111608201527f5467754d5451794c4451774d6934794e545167517a51314f5334774e4449734e6111808201527f4441784c6a55794d6941304e546b754e7a49734e4441774c6a59314d6941304e6111a08201527f6a41754d5463324c444d354f5334324e445167517a51324d4334324d7a49734d6111c08201527f7a6b344c6a597a4e6941304e6a41754f4459734d7a6b334c6a55304e4341304e6111e08201527f6a41754f4459734d7a6b324c6a4d324f4342444e4459774c6a67324c444d354e6112008201527f4334354d6a67674e4459774c6a55314e43777a4f544d754e7a5132494451314f6112208201527f5334354e4449734d7a6b794c6a67794d6942444e4455354c6a4d7a4c444d354d6112408201527f5334344f5467674e4455344c6a59774e43777a4f5445754d5459674e4455334c6112608201527f6a63324e43777a4f5441754e6a413449454d304e5459754f5449304c444d354d6112808201527f4334774e5459674e4455324c6a41334f43777a4f446b754e6a5530494451314e6112a08201527f5334794d6a59734d7a67354c6a51774d6942444e4455304c6a4d334e43777a4f6112c08201527f446b754d5455674e44557a4c6a63774f43777a4f4467754f546332494451314d6112e08201527f7934794d6a67734d7a67344c6a673449454d304e5445754e6a49734d7a67344c6113008201527f6a51334d6941304e5441754d7a45344c444d344f4334784d7a59674e4451354c6113208201527f6a4d794d69777a4f4463754f44637949454d304e4467754d7a49324c444d344e6113408201527f7934324d4467674e4451334c6a55304e69777a4f4463754d7a5130494451304e6113608201527f6934354f4449734d7a67334c6a413449454d304e4459754e4445344c444d344e6113808201527f6934344d5459674e4451324c6a41304c444d344e6934314d6a67674e4451314c6113a08201527f6a67304f43777a4f4459754d6a453249454d304e4455754e6a55324c444d344e6113c08201527f5334354d4451674e4451314c6a55324c444d344e5334304f5459674e4451314c6113e08201527f6a55324c444d344e4334354f544967517a51304e5334314e69777a4f4451754e6114008201527f4451674e4451314c6a59344c444d344d7934354f4451674e4451314c6a6b794c6114208201527f444d344d7934324d6a5167517a51304e6934784e69777a4f444d754d6a5930496114408201527f4451304e6934304e6a59734d7a67794c6a6b324e4341304e4459754f444d344c6114608201527f444d344d6934334d6a5167517a51304e7934794d53777a4f4449754e446730496114808201527f4451304e7934324d6a51734d7a67794c6a4d784e6941304e4467754d4467734d6114a08201527f7a67794c6a497949454d304e4467754e544d324c444d344d6934784d6a51674e6114c08201527f4451344c6a6b354d69777a4f4449754d446332494451304f5334304e4467734d6114e08201527f7a67794c6a41334e6942444e4455774c6a45304e43777a4f4449754d446332496115008201527f4451314d4334334f4459734d7a67794c6a457a4e6941304e5445754d7a63304c6115208201527f444d344d6934794e545967517a51314d5334354e6a49734d7a67794c6a4d334e6115408201527f6941304e5449754e4467304c444d344d6934314f4341304e5449754f5451734d6115608201527f7a67794c6a67324f4342444e44557a4c6a4d354e69777a4f444d754d545532496115808201527f4451314d7934334e6a49734d7a677a4c6a55314d6941304e5451754d444d344c6115a08201527f444d344e4334774e545967517a51314e43347a4d5451734d7a67304c6a5532496115c08201527f4451314e4334304e7a59734d7a67314c6a45354e6941304e5451754e5449304c6115e08201527f444d344e5334354e6a5167544451314f5334354f5459734d7a67314c6a6b324e6116008201527f4342444e4455354c6a6b354e69777a4f4451754e446332494451314f5334334d6116208201527f5451734d7a677a4c6a4978494451314f5334784e53777a4f4449754d545932496116408201527f454d304e5467754e5467324c444d344d5334784d6a49674e4455334c6a67794e6116608201527f43777a4f4441754d6a5930494451314e6934344e6a51734d7a63354c6a55354d6116808201527f6942444e4455314c6a6b774e43777a4e7a67754f5449674e4455304c6a67774e6116a08201527f69777a4e7a67754e444d30494451314d7934314e79777a4e7a67754d544d30496116c08201527f454d304e5449754d7a4d304c444d334e7934344d7a51674e4455784c6a41304e6116e08201527f43777a4e7a63754e6a6730494451304f5334334c444d334e7934324f445167516117008201527f7a51304f4334314e4467734d7a63334c6a59344e4341304e4463754d7a6b324c6117208201527f444d334e7934344e4341304e4459754d6a51304c444d334f4334784e544967516117408201527f7a51304e5334774f5449734d7a63344c6a51324e4341304e4451754d4459734d6117608201527f7a63344c6a6b304e4341304e444d754d5451344c444d334f5334314f544967516117808201527f7a51304d6934794d7a59734d7a67774c6a4930494451304d5334304f5467734d6117a08201527f7a67784c6a4131494451304d4334354d7a51734d7a67794c6a41794d6942444e6117c08201527f4451774c6a4d334c444d344d6934354f5451674e4451774c6a41344f43777a4f6117e08201527f4451754d5451674e4451774c6a41344f43777a4f4455754e445967517a51304d6118008201527f4334774f4467734d7a67324c6a597a4e6941304e4441754d7a45734d7a67334c6118208201527f6a597a4f4341304e4441754e7a55304c444d344f4334304e6a5967517a51304d6118408201527f5334784f5467734d7a67354c6a49354e4341304e4445754e7a67734d7a67354c6118608201527f6a6b344e4341304e4449754e53777a4f5441754e544d3249454d304e444d754d6118808201527f6a49734d7a6b784c6a41344f4341304e4451754d444d324c444d354d5334314d6118a08201527f7a67674e4451304c6a6b304f43777a4f5445754f44673249454d304e4455754f6118c08201527f4459734d7a6b794c6a497a4e4341304e4459754e7a6b324c444d354d6934314d6118e08201527f6a67674e4451334c6a63314e69777a4f5449754e7a593449454d304e4467754e6119008201527f6a6b794c444d354d7934774d7a49674e4451354c6a59784e69777a4f544d754d6119208201527f6a6379494451314d4334314d6a67734d7a6b7a4c6a51344f4342444e4455784c6119408201527f6a51304c444d354d7934334d4451674e4455794c6a49314e69777a4f544d754f6119608201527f545532494451314d6934354e7a59734d7a6b304c6a49304e4342444e44557a4c6119808201527f6a59354e69777a4f5451754e544d79494451314e4334794e7a67734d7a6b304c6119a08201527f6a67354d6941304e5451754e7a49794c444d354e53347a4d6a5167517a51314e6119c08201527f5334784e6a59734d7a6b314c6a63314e6941304e5455754d7a67344c444d354e6119e08201527f69347a4d6941304e5455754d7a67344c444d354e7934774d545967517a51314e611a008201527f53347a4f4467734d7a6b334c6a59324e4341304e5455754d6a49734d7a6b344c611a208201527f6a45354f4341304e5451754f4467304c444d354f4334324d546767517a51314e611a408201527f4334314e4467734d7a6b354c6a417a4f4341304e5451754d5449344c444d354f611a608201527f53347a4e6a67674e44557a4c6a59794e43777a4f546b754e6a413449454d304e611a808201527f544d754d5449734d7a6b354c6a67304f4341304e5449754e5467734e4441774c611aa08201527f6a4178494451314d6934774d4451734e4441774c6a41354e4342444e4455784c611ac08201527f6a51794f4377304d4441754d546334494451314d4334344f4467734e4441774c611ae08201527f6a4979494451314d43347a4f4451734e4441774c6a497949454d304e446b754e611b008201527f6a51734e4441774c6a4979494451304f4334354d6977304d4441754d544d674e611b208201527f4451344c6a49794e43777a4f546b754f545567517a51304e7934314d6a67734d611b408201527f7a6b354c6a6333494451304e6934354d6a49734d7a6b354c6a51354e4341304e611b608201527f4459754e4441324c444d354f5334784d6a4967517a51304e5334344f53777a4f611b808201527f5467754e7a55674e4451314c6a51334e69777a4f5467754d6a5930494451304e611ba08201527f5334784e6a51734d7a6b334c6a59324e4342444e4451304c6a67314d69777a4f611bc08201527f5463754d445930494451304e4334324f5459734d7a6b324c6a4d7a4d6941304e611be08201527f4451754e6a6b324c444d354e5334304e6a67675444517a4f5334794d6a51734d611c008201527f7a6b314c6a51324f4342444e444d354c6a49734d7a6b334c6a41314d6941304d611c208201527f7a6b754e4467344c444d354f4334304d6941304e4441754d4467344c444d354f611c408201527f5334314e7a4967517a51304d4334324f4467734e4441774c6a63794e4341304e611c608201527f4445754e446b344c4451774d5334324e7a49674e4451794c6a55784f4377304d611c808201527f4449754e44453249454d304e444d754e544d344c4451774d7934784e6941304e611ca08201527f4451754e7a45304c4451774d7934334d4459674e4451324c6a41304e6977304d611cc08201527f4451754d44553049454d304e4463754d7a63344c4451774e4334304d4449674e611ce08201527f4451344c6a63314d6977304d4451754e546332494451314d4334784e6a67734e611d008201527f4441304c6a55334e694261496942705a443069516b7846525642544969426d61611d208201527f5778734c584a3162475539496d3576626e706c636d3869506a77766347463061611d408201527f44344e436a786e49476c6b50534a48636d39316343496764484a68626e4e6d62611d608201527f334a7450534a30636d4675633278686447556f4d6a55784c6a41774d4441774d611d808201527f4377674d54517a4c6a41774d4441774d436b695067304b50484e306557786c50611da08201527f67304b4c6c70375957357062574630615739754f6e423162484e6c4944467a49611dc08201527f476c755a6d6c756158526c4f3352795957357a5a6d3979625331696233673649611de08201527f475a7062477774596d39344f3352795957357a5a6d397962533176636d6c6e61611e008201527f57343649474e6c626e526c636a743944516f6a51587468626d6c745958527062611e208201527f3234745a47567359586b364c6a4531637a743944516f6a516e7468626d6c7459611e408201527f585270623234745a47567359586b364c6a4d77637a743944516f6a5133746862611e608201527f6d6c7459585270623234745a47567359586b364c6a5131637a743944516f6a52611e808201527f487468626d6c7459585270623234745a47567359586b364c6a5977637a743944611ea08201527f516f6a52587468626d6c7459585270623234745a47567359586b364c6a633163611ec08201527f7a743944516f6a526e7468626d6c7459585270623234745a47567359586b364c611ee08201527f6a6b77637a743944516f6a52337468626d6c7459585270623234745a47567359611f008201527f586b364d5334774e584d376651304b493068375957357062574630615739754c611f208201527f57526c624746354f6a45754d6a427a4f33304e43694e4a653246756157316864611f408201527f476c766269316b5a57786865546f784c6a4d31637a743944517041613256355a611f608201527f6e4a686257567a4948423162484e6c494873774a587430636d467563325a7663611f808201527f6d303649484e6a5957786c575367784b547430636d467563325a76636d307462611fa08201527f334a705a326c754f6a55774a5341314d435537665455774a53423764484a6862611fc08201527f6e4e6d62334a744f69427a593246735a566b6f4c6a63704f3352795957357a5a611fe08201527f6d397962533176636d6c6e61573436494455774a5341314d435537665445774d6120008201527f435567653352795957357a5a6d397962546f6763324e686247565a4b4445704f6120208201527f3352795957357a5a6d397962533176636d6c6e61573436494455774a5341314d6120408201527f4355376658304e436a7776633352356247552b44516f38636d566a6443426a626120608201527f47467a637a30695769496761575139496b456949486739496a416949486b39496120808201527f6a63774969423361575230614430694d6a41694947686c6157646f644430694f6120a08201527f44416949484a34505349784d43492b504339795a574e305067304b50484a6c596120c08201527f3351675932786863334d39496c6f6949476c6b50534a43496942345053497a4f6120e08201527f434967655430694d6a5169494864705a48526f505349794d434967614756705a6121008201527f326830505349784e7a496949484a34505349784d43492b504339795a574e30506121208201527f67304b50484a6c593351675932786863334d39496c6f6949476c6b50534a44496121408201527f694234505349334e694967655430694e6a4169494864705a48526f505349794d6121608201527f434967614756705a326830505349784d44416949484a34505349784d43492b506121808201527f4339795a574e305067304b50484a6c593351675932786863334d39496c6f69496121a08201527f476c6b50534a4549694234505349784d54516949486b39496a597749694233616121c08201527f575230614430694d6a41694947686c6157646f644430694d54417749694279656121e08201527f4430694d544169506a7776636d566a6444344e436a78795a574e3049474e73596122008201527f584e7a50534a61496942705a44306952534967654430694d54557949694235506122208201527f5349774969423361575230614430694d6a41694947686c6157646f644430694d6122408201527f6a497749694279654430694d544169506a7776636d566a6444344e436a78795a6122608201527f574e3049474e7359584e7a50534a61496942705a44306952694967654430694d6122808201527f546b77496942355053497a4e53496764326c6b64476739496a49774969426f5a6122a08201527f576c6e61485139496a45314d434967636e6739496a4577496a34384c334a6c596122c08201527f33512b44516f384c32632b44516f386347397365576476626942705a443069566122e08201527f484a705957356e624755694948427661573530637a30694d54497a4944457a4d6123008201527f6941784f5455754d6a457a4d7a4d7a494449314d5334774f5441784e7a67674d6123208201527f54497a494449354d7934334d6a6b334e4467674e5445674d6a55784c6a41354d6123408201527f4445334f43492b50433977623278355a323975506a7877623278355a323975496123608201527f476c6b50534a55636d6c68626d64735a53496764484a68626e4e6d62334a74506123808201527f534a30636d4675633278686447556f4d54497a4c6a45774e6a59324e7977674d6123a08201527f7a45314c6a4d304e4459794e796b6763324e686247556f4d5377674c544570496123c08201527f4852795957357a624746305a5367744d54497a4c6a45774e6a59324e7977674c6123e08201527f544d784e53347a4e4451324d6a63704943496763473970626e527a505349784d6124008201527f6a4d674d6a59304c6a6b314f5455774e6941784f5455754d6a457a4d7a4d7a496124208201527f444d324e5334334d6a6b334e4467674d54497a4c6a45774e6a59324e79417a4d6124408201527f6a4d754e4455324d6a67314944557849444d324e5334334d6a6b334e446769506124608201527f6a77766347397365576476626a34384c32632b5043396e506a777663335a6e506124808201527f673d3d222c2265787465726e616c5f6c696e6b223a2268747470733a2f2f626c6124a08201527f656570732e617274222c2273656c6c65725f6665655f62617369735f706f696e6124c08201527f7473223a000000000000000000000000000000000000000000000000000000006124e082015260006145ef6124e48301856118b6565b7f2c226665655f726563697069656e74223a220000000000000000000000000000815261461f60128201856118b6565b7f227d000000000000000000000000000000000000000000000000000000000000815260020195945050505050565b7f4e487b7100000000000000000000000000000000000000000000000000000000600052604160045260246000fd5b7f4e487b7100000000000000000000000000000000000000000000000000000000600052601260045260246000fd5b6000826146bb576146bb61467d565b500690565b7f4e487b7100000000000000000000000000000000000000000000000000000000600052601160045260246000fd5b60008219821115614702576147026146c0565b500190565b60007fffffffffffffffffffffffffffffffffffffffffffffffffffffffffffffffff821415614739576147396146c0565b5060010190565b60008261474f5761474f61467d565b500490565b600082821015614766576147666146c0565b500390565b7f4e487b7100000000000000000000000000000000000000000000000000000000600052603260045260246000fd5b6000817fffffffffffffffffffffffffffffffffffffffffffffffffffffffffffffffff04831182151516156147d2576147d26146c0565b500290565b6000816147e6576147e66146c0565b507fffffffffffffffffffffffffffffffffffffffffffffffffffffffffffffffff0190565b7f646174613a6170706c69636174696f6e2f6a736f6e2c7b226e616d65223a220081526000895161484481601f850160208e016117d2565b7f2532300000000000000000000000000000000000000000000000000000000000601f918401918201528951614881816022840160208e016117d2565b016148ae602282017f222c226465736372697074696f6e223a22426c656570253230253237000000009052565b6148bb603e82018a6118b6565b7f2532300000000000000000000000000000000000000000000000000000000000815290506149b16148f0600383018a6118b6565b7f25323725324325323061253230736f756e6425323066756c6c7925323067656e81527f6572617465642532306f6e2d636861696e25323074686174253230676976657360208201527f2532306974732532306f776e65722532306f6e65253230766f7465253230696e60408201527f253230746865253230426c6565707325323044414f222c2265787465726e616c60608201527f5f75726c223a2200000000000000000000000000000000000000000000000000608082015260870190565b7f68747470733a2f2f626c656570732e6172742f626c656570732f25323369643d815290506149e360208201886118b6565b7f222c22696d616765223a2200000000000000000000000000000000000000000081529050614a15600b8201876118b6565b7f222c000000000000000000000000000000000000000000000000000000000000815290507f2261747472696275746573223a5b7b2274726169745f74797065223a22496e7360028201527f7472756d656e74222c2276616c7565223a2200000000000000000000000000006022820152614aee614ae8614a9960348401886118b6565b7f227d2c7b2274726169745f74797065223a224e6f7465222c2276616c7565223a81527f2200000000000000000000000000000000000000000000000000000000000000602082015260210190565b856118b6565b7f227d5d2c0000000000000000000000000000000000000000000000000000000081527f22616e696d6174696f6e5f75726c223a22646174613a617564696f2f7761763b60048201527f6261736536342c556b6c47526741414141425851565a465a6d3130494241414160248201527f414142414145412b436f414150425641414142414167415a474630595141410060448201526063019b9a5050505050505050505050565b600060ff821680614ba857614ba86146c0565b7fffffffffffffffffffffffffffffffffffffffffffffffffffffffffffffffff0192915050565b600060ff821660ff84168060ff03821115614bed57614bed6146c0565b019392505050565b600060ff831680614c0857614c0861467d565b8060ff84160691505092915050565b7f646174613a696d6167652f7376672b786d6c2c3c7376672532353230786d6c6e81527f733d27687474703a2f2f7777772e77332e6f72672f323030302f73766727253260208201527f35323076696577426f783d27302532353230302532353230353132253235323060408201527f3531322725323532307374796c653d277374726f6b653a253235323300000000606082015260008651614cc181607c850160208b016117d2565b7f3b66696c6c3a2532353233000000000000000000000000000000000000000000607c918401918201528651614cfe816087840160208b016117d2565b7f3b273e3c726563742532353230783d2736272532353230793d27362725323532608792909101918201527f3077696474683d273530302725323532306865696768743d273530302725323560a78201527f323072783d2736342725323532307374796c653d277374726f6b653a2532353260c78201527f336461623839343b7374726f6b652d77696474683a383b66696c6c3a2532353260e78201527f333030303b272f3e3c746578742532353230783d273335272532353230793d276101078201527f3335272532353230646f6d696e616e742d626173656c696e653d2768616e67696101278201527f6e67272532353230746578742d616e63686f723d2773746172742725323532306101478201527f7374796c653d27666f6e742d73697a653a333270783b273e00000000000000006101678201526154e7614f96614f90614ef5614eef614e5461017f87018c6118b6565b7f2532353230687a3c2f746578743e3c746578742532353230783d27323536272581527f32353230793d27313135272532353230646f6d696e616e742d626173656c696e60208201527f653d276d6964646c65272532353230746578742d616e63686f723d276d69646460408201527f6c652725323532307374796c653d27666f6e742d73697a653a333670783b273e606082015260800190565b896118b6565b7f3c2f746578743e3c746578742532353230783d27323536272532353230793d2781527f343230272532353230646f6d696e616e742d626173656c696e653d276d69646460208201527f6c65272532353230746578742d616e63686f723d276d6964646c65272532353260408201527f307374796c653d27666f6e742d73697a653a373270783b273e00000000000000606082015260790190565b866118b6565b7f3c2f746578743e3c6725323532307472616e73666f726d3d277472616e736c6181527f7465283136302c313630297363616c6528302e382c302e3829273e3c7374796c60208201527f653e2e5a7b616e696d6174696f6e3a70756c736525323532303173253235323060408201527f696e66696e6974653b7472616e73666f726d2d626f783a66696c6c2d626f783b60608201527f7472616e73666f726d2d6f726967696e3a63656e7465723b7374726f6b653a6e60808201527f6f6e653b7d2532353233417b616e696d6174696f6e2d64656c61793a2e31357360a08201527f3b7d2532353233427b616e696d6174696f6e2d64656c61793a2e3330733b7d2560c08201527f32353233437b616e696d6174696f6e2d64656c61793a2e3435733b7d2532353260e08201527f33447b616e696d6174696f6e2d64656c61793a2e3630733b7d2532353233457b6101008201527f616e696d6174696f6e2d64656c61793a2e3735733b7d2532353233467b616e696101208201527f6d6174696f6e2d64656c61793a2e3930733b7d406b65796672616d65732532356101408201527f323070756c736525323532307b302532357b7472616e73666f726d3a7363616c6101608201527f65592831293b7d35302532357b7472616e73666f726d3a7363616c6559282e376101808201527f293b7d3130302532357b7472616e73666f726d3a7363616c65592831293b74726101a08201527f616e73666f726d2d6f726967696e3a63656e7465723b7d7d3c2f7374796c653e6101c08201527f3c726563742532353230636c6173733d275a27253235323069643d27412725326101e08201527f353230783d2730272532353230793d27373027253235323077696474683d27326102008201527f302725323532306865696768743d27383027253235323072783d273130273e3c6102208201527f2f726563743e3c726563742532353230636c6173733d275a27253235323069646102408201527f3d2742272532353230783d273338272532353230793d273234272532353230776102608201527f696474683d2732302725323532306865696768743d27313732272532353230726102808201527f783d273130273e3c2f726563743e3c726563742532353230636c6173733d275a6102a08201527f27253235323069643d2743272532353230783d273736272532353230793d27366102c08201527f3027253235323077696474683d2732302725323532306865696768743d2731306102e08201527f3027253235323072783d273130273e3c2f726563743e3c7265637425323532306103008201527f636c6173733d275a27253235323069643d2744272532353230783d27313134276103208201527f2532353230793d27363027253235323077696474683d273230272532353230686103408201527f65696768743d2731303027253235323072783d273130273e3c2f726563743e3c6103608201527f726563742532353230636c6173733d275a27253235323069643d2745272532356103808201527f3230783d27313532272532353230793d273027253235323077696474683d27326103a08201527f302725323532306865696768743d2732323027253235323072783d273130273e6103c08201527f3c2f726563743e3c726563742532353230636c6173733d275a272532353230696103e08201527f643d2746272532353230783d27313930272532353230793d27333527253235326104008201527f3077696474683d2732302725323532306865696768743d2731353027253235326104208201527f3072783d273130273e3c2f726563743e3c2f673e3c2f7376673e00000000000061044082015261045a0190565b9897505050505050505056fe00198d001b12001cae001e6200203100221b00242200264800288f002af8002d8600303b00331900362300395b003cc4004061004435004844004c9000511d0055f0005b0c006076006633006c460072b60079890080c300886b00908700992000a23a00abe000b61800c0ec00cc6500d88d00e56d00f3110101850110d601210f01323f0144750157c0016c310181d90198ca01b11901cada01e62302030b0221ab02421e02647e0288ea02af8002d8620303b10331940362320395b403cc4604061604435704843c04c8fc0511d4055f0005b0c306076306632906c464072b6707988b080c2c0886ad0908770991f90a23a80abe000b61860c0ec54142434445464748494a4b4c4d4e4f505152535455565758595a6162636465666768696a6b6c6d6e6f707172737475767778797a303132333435363738392b2fa26469706673582212204d182fffbd82469ca523fb3e4b85d3192e956ea6755efea71c86a400362cc22c64736f6c63430008090033",
  "devdoc": {
    "kind": "dev",
    "methods": {},
    "version": 1
  },
  "userdoc": {
    "kind": "user",
    "methods": {},
    "version": 1
  },
  "storageLayout": {
    "storage": [],
    "types": null
  }
}