{
  "address": "0xf586c3ff19dD211AAffbCdFfEABBea85B17ed8ed",
  "abi": [
    {
      "inputs": [
        {
          "internalType": "contract Bleeps",
          "name": "bleeps",
          "type": "address"
        },
        {
          "internalType": "uint256",
          "name": "price",
          "type": "uint256"
        },
        {
          "internalType": "uint256",
          "name": "startTime",
          "type": "uint256"
        },
        {
          "internalType": "uint256",
          "name": "whitelistPrice",
          "type": "uint256"
        },
        {
          "internalType": "uint256",
          "name": "whitelistEndTime",
          "type": "uint256"
        },
        {
          "internalType": "bytes32",
          "name": "whitelistMerkleRoot",
          "type": "bytes32"
        },
        {
          "internalType": "address payable",
          "name": "projectCreator",
          "type": "address"
        },
        {
          "internalType": "uint256",
          "name": "creatorFeePer10000",
          "type": "uint256"
        },
        {
          "internalType": "address payable",
          "name": "saleRecipient",
          "type": "address"
        },
        {
          "internalType": "uint256",
          "name": "uptoInstr",
          "type": "uint256"
        }
      ],
      "stateMutability": "nonpayable",
      "type": "constructor"
    },
    {
      "inputs": [
        {
          "internalType": "uint16",
          "name": "id",
          "type": "uint16"
        },
        {
          "internalType": "address",
          "name": "to",
          "type": "address"
        }
      ],
      "name": "creatorMint",
      "outputs": [],
      "stateMutability": "nonpayable",
      "type": "function"
    },
    {
      "inputs": [
        {
          "internalType": "uint16[]",
          "name": "ids",
          "type": "uint16[]"
        },
        {
          "internalType": "address",
          "name": "to",
          "type": "address"
        }
      ],
      "name": "creatorMultiMint",
      "outputs": [],
      "stateMutability": "nonpayable",
      "type": "function"
    },
    {
      "inputs": [
        {
          "internalType": "uint256",
          "name": "id",
          "type": "uint256"
        }
      ],
      "name": "isOpenForSale",
      "outputs": [
        {
          "internalType": "bool",
          "name": "",
          "type": "bool"
        }
      ],
      "stateMutability": "view",
      "type": "function"
    },
    {
      "inputs": [
        {
          "internalType": "uint256",
          "name": "passId",
          "type": "uint256"
        }
      ],
      "name": "isPassUsed",
      "outputs": [
        {
          "internalType": "bool",
          "name": "",
          "type": "bool"
        }
      ],
      "stateMutability": "view",
      "type": "function"
    },
    {
      "inputs": [
        {
          "internalType": "uint256",
          "name": "id",
          "type": "uint256"
        }
      ],
      "name": "isReserved",
      "outputs": [
        {
          "internalType": "bool",
          "name": "",
          "type": "bool"
        }
      ],
      "stateMutability": "pure",
      "type": "function"
    },
    {
      "inputs": [
        {
          "internalType": "uint16",
          "name": "id",
          "type": "uint16"
        },
        {
          "internalType": "address",
          "name": "to",
          "type": "address"
        }
      ],
      "name": "mint",
      "outputs": [],
      "stateMutability": "payable",
      "type": "function"
    },
    {
      "inputs": [
        {
          "internalType": "uint16",
          "name": "id",
          "type": "uint16"
        },
        {
          "internalType": "address",
          "name": "to",
          "type": "address"
        },
        {
          "internalType": "uint256",
          "name": "passId",
          "type": "uint256"
        },
        {
          "internalType": "bytes32[]",
          "name": "proof",
          "type": "bytes32[]"
        }
      ],
      "name": "mintWithPassId",
      "outputs": [],
      "stateMutability": "payable",
      "type": "function"
    },
    {
      "inputs": [
        {
          "internalType": "uint16",
          "name": "id",
          "type": "uint16"
        },
        {
          "internalType": "address",
          "name": "to",
          "type": "address"
        },
        {
          "internalType": "uint256",
          "name": "passId",
          "type": "uint256"
        },
        {
          "internalType": "bytes",
          "name": "signature",
          "type": "bytes"
        },
        {
          "internalType": "bytes32[]",
          "name": "proof",
          "type": "bytes32[]"
        }
      ],
      "name": "mintWithSalePass",
      "outputs": [],
      "stateMutability": "payable",
      "type": "function"
    },
    {
      "inputs": [
        {
          "internalType": "uint256",
          "name": "passId",
          "type": "uint256"
        },
        {
          "internalType": "uint256[]",
          "name": "ids",
          "type": "uint256[]"
        }
      ],
      "name": "ownersAndPriceInfo",
      "outputs": [
        {
          "internalType": "address[]",
          "name": "addresses",
          "type": "address[]"
        },
        {
          "internalType": "uint256",
          "name": "price",
          "type": "uint256"
        },
        {
          "internalType": "uint256",
          "name": "startTime",
          "type": "uint256"
        },
        {
          "internalType": "uint256",
          "name": "whitelistPrice",
          "type": "uint256"
        },
        {
          "internalType": "uint256",
          "name": "whitelistEndTime",
          "type": "uint256"
        },
        {
          "internalType": "bytes32",
          "name": "whitelistMerkleRoot",
          "type": "bytes32"
        },
        {
          "internalType": "bool",
          "name": "passUsed",
          "type": "bool"
        },
        {
          "internalType": "uint256",
          "name": "uptoInstr",
          "type": "uint256"
        }
      ],
      "stateMutability": "view",
      "type": "function"
    },
    {
      "inputs": [],
      "name": "priceInfo",
      "outputs": [
        {
          "internalType": "uint256",
          "name": "price",
          "type": "uint256"
        },
        {
          "internalType": "uint256",
          "name": "startTime",
          "type": "uint256"
        },
        {
          "internalType": "uint256",
          "name": "whitelistPrice",
          "type": "uint256"
        },
        {
          "internalType": "uint256",
          "name": "whitelistEndTime",
          "type": "uint256"
        },
        {
          "internalType": "bytes32",
          "name": "whitelistMerkleRoot",
          "type": "bytes32"
        }
      ],
      "stateMutability": "view",
      "type": "function"
    }
  ],
  "transactionHash": "0x9d741109192e333875597a9708d5dca38f994d17cf2f33ac82f4a1116d62fe0c",
  "args": [
    "0xA4d5363006CC709fb94a77e577FE71bF159006ef",
    "100000000000000000",
    1638149425,
    "100000000000000000",
    1638408625,
    "0x1561fd354c12716549c7c5859febc7c05c3e6f3153d68150708c7d4b8009763e",
    "0xE53cd71271AcAdbeb0f64d9c8C62bBdDc8cA9e66",
    2500,
    "0xd419dd1E662FFea4ff0C3194dA0Ab67Ad94e182C",
    8
  ],
  "linkedData": {
    "numPrivatePasses": 815,
    "leaves": [
      {
        "passId": "0",
        "signer": "0x60F7797bF5367b1048668e8259826fE384208175"
      },
      {
        "passId": "1",
        "signer": "0xD8f3b2C4Ac03B6303c09EAec32BF26D1A3D02289"
      },
      {
        "passId": "2",
        "signer": "0xCdF5c5A9ADD72a4BEe7b9124242e3890911142AC"
      },
      {
        "passId": "3",
        "signer": "0x48b0e9E2c3b8949A6dA7c099325b3FC0F603c449"
      },
      {
        "passId": "4",
        "signer": "0x8b5bf51d28f056Dd80D84a9BD3dDb07016c7c554"
      },
      {
        "passId": "5",
        "signer": "0xf61C4fF661C5CfDF3bB33899d4C43375C98C5292"
      },
      {
        "passId": "6",
        "signer": "0x184D7A7C42Ff01b0E63aC1343dF546F437e52e58"
      },
      {
        "passId": "7",
        "signer": "0x54A44B5e93a86904B7D77DeF7e07586CE792c91B"
      },
      {
        "passId": "8",
        "signer": "0x422D7F31a3503F97A75C6fFac842695dd57a8eb6"
      },
      {
        "passId": "9",
        "signer": "0xC2887EdD14eb9b684473453d170D2B398825ae5d"
      },
      {
        "passId": "10",
        "signer": "0x15d41dda539575d56e54B3cEFEc2D4Ff6a36a68a"
      },
      {
        "passId": "11",
        "signer": "0x8Ad2B91414bb66Ebc57B1F54a973092b173Ab3C3"
      },
      {
        "passId": "12",
        "signer": "0x741e25FC43D6B8480C78A6241FE898530920F3D5"
      },
      {
        "passId": "13",
        "signer": "0xF368F1A32187518b9DeEEe16CbD05A27813C7a0E"
      },
      {
        "passId": "14",
        "signer": "0x20A71B2Ad4D19c3bfFe86374371A8B624A8DeD3B"
      },
      {
        "passId": "15",
        "signer": "0x25579Da0311f81D328aC70a955FcED918Ca29350"
      },
      {
        "passId": "16",
        "signer": "0x6394EfA79d16230Fdf358380130C4039C2Ac3fB0"
      },
      {
        "passId": "17",
        "signer": "0x3dE6cC14712e7d5446eaeaCcbec38De1849c59A6"
      },
      {
        "passId": "18",
        "signer": "0x99bAB57e83E3c2a61901B3ab4ebbE3b8bd99Ad60"
      },
      {
        "passId": "19",
        "signer": "0xc7de608D7533f407816E8b9E01603AA364Fda9E1"
      },
      {
        "passId": "20",
        "signer": "0xe5c08843aA24293Ee53f62d26d1A175B402d1CE6"
      },
      {
        "passId": "21",
        "signer": "0x2f6A633C9936744b7d5061459d635de990Ff13F7"
      },
      {
        "passId": "22",
        "signer": "0x0F1CdfcCbb2c5cCDa90Ef10a95d1e3450C279ACF"
      },
      {
        "passId": "23",
        "signer": "0x20B200EF7d96d54ca32a0d861417E3a1F6AA4439"
      },
      {
        "passId": "24",
        "signer": "0x09271A92a3Ec286eCa4C2b71cF58bA8D346e0b0C"
      },
      {
        "passId": "25",
        "signer": "0x3Aeb96b55975cBaD4b458Bf518F3Cc1F1f30A0F7"
      },
      {
        "passId": "26",
        "signer": "0x16a63E72b6863Ff4e0De2F10BFa8E7888124B94c"
      },
      {
        "passId": "27",
        "signer": "0x9567964D8Edc9256F17a8d3202E048CfCAC251b4"
      },
      {
        "passId": "28",
        "signer": "0x6244F1Bbed479CBd28dB305c581Bc595176E8C9B"
      },
      {
        "passId": "29",
        "signer": "0x20b318019cfF751CB854663A524556531D60dD5c"
      },
      {
        "passId": "30",
        "signer": "0x05EBcCc0A183C8468692133dcCDDD1fC7164435A"
      },
      {
        "passId": "31",
        "signer": "0x6dc44F4B6213a1bfB9dd3816aEd9a385F5368e16"
      },
      {
        "passId": "32",
        "signer": "0x412624cd89C186D5baa887b9f565e851E108dd2F"
      },
      {
        "passId": "33",
        "signer": "0x32fcaF2634875DF4d93aa1Ce4A5288f82D4Fcb45"
      },
      {
        "passId": "34",
        "signer": "0xc9594f0D30269F9Ea51889a4eb82E791B16115A2"
      },
      {
        "passId": "35",
        "signer": "0xDc87E2429842478b26D25302a80c6bFBa880D2fC"
      },
      {
        "passId": "36",
        "signer": "0xE7CdC10ff5156320cA55112556812F28624F42E9"
      },
      {
        "passId": "37",
        "signer": "0x49a2b848d1F6F869f674D1796b53279972Fa1CFB"
      },
      {
        "passId": "38",
        "signer": "0x180034b822e7176226e2ef70Ed37b720e8fC1F4C"
      },
      {
        "passId": "39",
        "signer": "0xCF8673d385bd235df3d355CD4766B0e04c9975b5"
      },
      {
        "passId": "40",
        "signer": "0x8e5F0Ea538336123e9A37900fBae5dFD1FA70894"
      },
      {
        "passId": "41",
        "signer": "0x260Cce8d46b57206d826f97eE13Ad2f936a1b35E"
      },
      {
        "passId": "42",
        "signer": "0x3C8B23695b05cdE3Cd93E02BAcfBF9b4A4214Fe4"
      },
      {
        "passId": "43",
        "signer": "0xBe9E9b5E6c7EEa8beE680bb49970A9cb1F0DD046"
      },
      {
        "passId": "44",
        "signer": "0x8C5e922bA7e5BAAfdB32aA3c181CE36b76e49949"
      },
      {
        "passId": "45",
        "signer": "0xb33cCd9491F5E208eCe4A99adFBaa4a46eabF2E0"
      },
      {
        "passId": "46",
        "signer": "0x9Fd00A484460059FF155886563a1e39A0b39Fd79"
      },
      {
        "passId": "47",
        "signer": "0xa87140aA0845eD78839d3BE8426371F9490a9a57"
      },
      {
        "passId": "48",
        "signer": "0x613507B59AA2448bc72254E4D262f7e05c826d09"
      },
      {
        "passId": "49",
        "signer": "0xbFb12F3050e25f38024FCc3d789f5F422871072D"
      },
      {
        "passId": "50",
        "signer": "0x21E0c40e55d94b2D4c8864516d749010D95A6113"
      },
      {
        "passId": "51",
        "signer": "0x3650B3B58d6F0283EeBAF8e4b713434eE2343166"
      },
      {
        "passId": "52",
        "signer": "0x74c226d0a8416Cf9F322C7C84865dFE84182aaD2"
      },
      {
        "passId": "53",
        "signer": "0x04B5835737338Cb7D11bdC114De036fa0AB0051F"
      },
      {
        "passId": "54",
        "signer": "0x7AEC563D4398E5b3d9216f85CDC762de8d0e6F9c"
      },
      {
        "passId": "55",
        "signer": "0xe03e8e48a2577c1F87B9A27a0d63caEAd2232665"
      },
      {
        "passId": "56",
        "signer": "0x0Ff9ff6D77B53871609f9EbC2EdDCaC52D0Bf439"
      },
      {
        "passId": "57",
        "signer": "0xd3Ca92768757afBF5194Ec87dFa4f6b6002147A9"
      },
      {
        "passId": "58",
        "signer": "0x603B7dA77007Ca340D11f0D7d135376354Bf848D"
      },
      {
        "passId": "59",
        "signer": "0xC8687342A27adB6724F57F217200b646D352c141"
      },
      {
        "passId": "60",
        "signer": "0x077A5db38CAd76f03D6d834035EE721C1873EDf4"
      },
      {
        "passId": "61",
        "signer": "0x0D039F0f7dcD0D8Fb4e479f861cFd48d4D961A91"
      },
      {
        "passId": "62",
        "signer": "0xB94C811D8f627f6070b30d8347E0C1755e172f84"
      },
      {
        "passId": "63",
        "signer": "0x97c99B0F2AD3bA62e0E68E7102456a27DbCD26bf"
      },
      {
        "passId": "64",
        "signer": "0xf7e59889F2B6eeafa245CbbfF4B3966c762C3Ac5"
      },
      {
        "passId": "65",
        "signer": "0x37F932562cfCA86d950b4436C9BB53a8f877596e"
      },
      {
        "passId": "66",
        "signer": "0xe6d5cc1a174a908f77F9506B95E2eeaF46D61bb3"
      },
      {
        "passId": "67",
        "signer": "0x92d4E7aE7dC07eAA1cf2AA3458380f0c745ae769"
      },
      {
        "passId": "68",
        "signer": "0x91A77881fae88168c6AdAaDE99573e62D213EcAC"
      },
      {
        "passId": "69",
        "signer": "0x72315d69193965cB63F8c2D1C72E61775C515505"
      },
      {
        "passId": "70",
        "signer": "0x798aFa513586d243986dE73A6682ce439C672e3D"
      },
      {
        "passId": "71",
        "signer": "0x5Df8b21A2B54ea7d96ad6108e56B93A617E75092"
      },
      {
        "passId": "72",
        "signer": "0x0756b09e23d483260244eAa5C209b8803a55BB86"
      },
      {
        "passId": "73",
        "signer": "0xD2352B15aE2eDc3A4D16c87DF687D5D7075C8Dd9"
      },
      {
        "passId": "74",
        "signer": "0x170c40Fd2A4cE84aA76Ae58bA43bA74F583039da"
      },
      {
        "passId": "75",
        "signer": "0x943735Af1FB447F1B73B1a9AC4Db00Dc55f7C540"
      },
      {
        "passId": "76",
        "signer": "0x23a7F540664e8e32BcD46a470B0434a53588270D"
      },
      {
        "passId": "77",
        "signer": "0xf6e36edB9007850be28c4ACa7235c639828Fbc3c"
      },
      {
        "passId": "78",
        "signer": "0xaE3e1f8EfA39e7f1433c7132ce256eBd880D31a0"
      },
      {
        "passId": "79",
        "signer": "0xdA61ab0d1f5E9f0c3b924b18CbF4738a63504ADD"
      },
      {
        "passId": "80",
        "signer": "0xa4eaB2B3A13fCE4d4d300abA1Deb091b60D4d41C"
      },
      {
        "passId": "81",
        "signer": "0x2bE988EDAa581a46b05db7f4a6DCE818Fa8e989d"
      },
      {
        "passId": "82",
        "signer": "0xcb731b8c5fFd587167377FDa01a3d1eBa53012E0"
      },
      {
        "passId": "83",
        "signer": "0xFe83000CF8d43CFb4147B84862EA8052991fe2b9"
      },
      {
        "passId": "84",
        "signer": "0x3B42272d0d28E55538Da60f4541718d0E12F7b54"
      },
      {
        "passId": "85",
        "signer": "0xaF3696d872915E2207eB310E16963a55a11d42f4"
      },
      {
        "passId": "86",
        "signer": "0x04EB8552353D2300FfF7075F63ebCCd4A8EEec8b"
      },
      {
        "passId": "87",
        "signer": "0x66744c5612560Ad5a1D3eeca08E327f983295C76"
      },
      {
        "passId": "88",
        "signer": "0x7Cb5b7B88009d6c7A0113F4C0654485f2F462888"
      },
      {
        "passId": "89",
        "signer": "0x7bc8B422A060af32Aa7Ad5C52C4db174dF90B58D"
      },
      {
        "passId": "90",
        "signer": "0x916aa8Df03AdC63e44E5f16e27E991DEa1988E6E"
      },
      {
        "passId": "91",
        "signer": "0x9B6965A8B2cD0890838dD263154595B0df65d783"
      },
      {
        "passId": "92",
        "signer": "0x8A9deCc305309e3723bF5B5B67eC2196b93C99dF"
      },
      {
        "passId": "93",
        "signer": "0x63355Ea7bC2B33EF41d0e186B7725A6f101EB57f"
      },
      {
        "passId": "94",
        "signer": "0x15eC5613668d6BC4E361D9EedCD30C0077241584"
      },
      {
        "passId": "95",
        "signer": "0x33F384529f4202BFe636f6a8972110fb4FCc8638"
      },
      {
        "passId": "96",
        "signer": "0x9f5127C43734de55B663bBE009040A09440d6eC0"
      },
      {
        "passId": "97",
        "signer": "0xaA9075E87fc46D4b869810664352F43b61B7Bc40"
      },
      {
        "passId": "98",
        "signer": "0x0fFa92C9ac609a35B1f8453e478e5C2A5D38Bb17"
      },
      {
        "passId": "99",
        "signer": "0x15D18D3E0616c754C80c4397Dc6b55d81a08D5A4"
      },
      {
        "passId": "100",
        "signer": "0x34Ba4B596A14580810518fDbaacB8189e1bE3e2D"
      },
      {
        "passId": "101",
        "signer": "0xDFDC2718697C185474AeC662bE6C2e81f5aE9072"
      },
      {
        "passId": "102",
        "signer": "0x835E4b5d9917624CF5b8d23259A97B4874D482E1"
      },
      {
        "passId": "103",
        "signer": "0x0564035fC1c3F5e2233E0cb853D9fc5D4b44109a"
      },
      {
        "passId": "104",
        "signer": "0xD9DC95697C5ec5BAF3C6e848F62Eb29acA3a02f0"
      },
      {
        "passId": "105",
        "signer": "0x2d00979AaC428c42CE4e9bbB67C9Bc76178F12De"
      },
      {
        "passId": "106",
        "signer": "0x60ABC83A4ed68257f20596410AB5Bbb5C029B1B2"
      },
      {
        "passId": "107",
        "signer": "0x522D3F0624d1E7980C44Ef59fC010B0BfC3E406a"
      },
      {
        "passId": "108",
        "signer": "0x24bdF2091ECC10852d9593aFA9766E316a65cF5e"
      },
      {
        "passId": "109",
        "signer": "0xb91b22B0d6ec52a6f0A7198efDD0e722e00133bf"
      },
      {
        "passId": "110",
        "signer": "0xe4BddA877bD7fC9F387D8a032FBBC723B22c7449"
      },
      {
        "passId": "111",
        "signer": "0x5b5f2fAADA58dBe399d95f4fE45f8C1C9C63D9D0"
      },
      {
        "passId": "112",
        "signer": "0xAFE487163479bBE75899F2C13641900123f3C1b9"
      },
      {
        "passId": "113",
        "signer": "0xc67204Bb0954e6A72c5eE14A235B8F6dFBa722dB"
      },
      {
        "passId": "114",
        "signer": "0x37B658f3aB576dB08fB71B5363A0be81937874A4"
      },
      {
        "passId": "115",
        "signer": "0x42b8D74f4d8B2305574eC8203cB41801392e71d0"
      },
      {
        "passId": "116",
        "signer": "0x373d10FB798238560BfFB933E29dcAeB93C1F3A9"
      },
      {
        "passId": "117",
        "signer": "0x61Dcf186695f751971A25252d9bC4e7D0C8b90bf"
      },
      {
        "passId": "118",
        "signer": "0xC684415bCA5c5f141603eD70aFC98Fd3cAf6FE62"
      },
      {
        "passId": "119",
        "signer": "0xdbD47b08442A7F5072CCae8345c719a3c1C970cF"
      },
      {
        "passId": "120",
        "signer": "0x6783b788b1816de14B04376b34Ae4eF3C3CCf71F"
      },
      {
        "passId": "121",
        "signer": "0xA780aE470514dBC0616F6C304D1255127C01549A"
      },
      {
        "passId": "122",
        "signer": "0xf0aAe7B1a2Eceb12d8b8F934285d3877563c284A"
      },
      {
        "passId": "123",
        "signer": "0x6Ea4b272Ab222095a5dF3FFDb4aea6214E9C6EBE"
      },
      {
        "passId": "124",
        "signer": "0x2B5fCe99256D5EB87dFf83c32Fa2C3Ca6c75A12A"
      },
      {
        "passId": "125",
        "signer": "0x8012F6Aa97beCD37B59c36979A423a5eC4C628ee"
      },
      {
        "passId": "126",
        "signer": "0x90d4f338CaCc4d979BE43C703028B8857D97415B"
      },
      {
        "passId": "127",
        "signer": "0xf42d0F31e182a58F6ff613d214beF20c27f099A1"
      },
      {
        "passId": "128",
        "signer": "0xBEaC776730ee21f4636e30BdE0DA61e726E87824"
      },
      {
        "passId": "129",
        "signer": "0x9Cf26962Ab9603E516920FBc058e17F756376606"
      },
      {
        "passId": "130",
        "signer": "0xF984B143a5F89aeDb1ea682dC8946CbA2Cf7df40"
      },
      {
        "passId": "131",
        "signer": "0x7E4d91e44531699A9Ff8d7bC18069AB1F6Fff312"
      },
      {
        "passId": "132",
        "signer": "0xC1CD499ce34134e0897776a2FA9D642E91A66274"
      },
      {
        "passId": "133",
        "signer": "0x26541b7ef2E4cB9692c8cA246a658B9a41C8E2E9"
      },
      {
        "passId": "134",
        "signer": "0x79d4eD134A571D90A5a37514D3cfCA99Dff57f06"
      },
      {
        "passId": "135",
        "signer": "0x91cE591CD3F90611858137A56F0Cc2e83C037363"
      },
      {
        "passId": "136",
        "signer": "0xec07F561e2Eb53EF1A20C5c422199Bf8cA333174"
      },
      {
        "passId": "137",
        "signer": "0x6e735785f94007CD296dfE2ab2303fb494C2CCf2"
      },
      {
        "passId": "138",
        "signer": "0xa549C4249BFddaecE1a71dDAb32D66294A2aD1E0"
      },
      {
        "passId": "139",
        "signer": "0x5087Bed3D71e01FC491910982caBeFe321c9B588"
      },
      {
        "passId": "140",
        "signer": "0xd9dB972C02a73bb286858e035f999ee9cD3C4d44"
      },
      {
        "passId": "141",
        "signer": "0x5250a841164902132a82e7b4fd492c2A13Fe6274"
      },
      {
        "passId": "142",
        "signer": "0x47796f375486A2Ef3B2cE5f6c49F0081269cbA46"
      },
      {
        "passId": "143",
        "signer": "0x60EEa4E534AF384C400647ab2181d7aFBbAC247A"
      },
      {
        "passId": "144",
        "signer": "0xD902464aDbA76208cf1569c7F7A9FFCD76B07f0F"
      },
      {
        "passId": "145",
        "signer": "0xC458B0C6f0348b4CcFa76362d4ad189912df79Ee"
      },
      {
        "passId": "146",
        "signer": "0xF88AE5be21af0Cf1206d5145A2707374Da8C8C6a"
      },
      {
        "passId": "147",
        "signer": "0x1345a37b7DA5FD8a70ad3124cFB160B5eF0CCF63"
      },
      {
        "passId": "148",
        "signer": "0x67EaC35239d87d5FF376258f74feeF25A335c3d0"
      },
      {
        "passId": "149",
        "signer": "0xC608846f83F8567527eC3cF677e1EDcbC5c97605"
      },
      {
        "passId": "150",
        "signer": "0xcF9a57C890127a1E448b9bcBEdb6b338bE1bfc8f"
      },
      {
        "passId": "151",
        "signer": "0xC181eAd7837DA655E8C8fDd862Ac5Ef624009adA"
      },
      {
        "passId": "152",
        "signer": "0x3bB339E577814C5d381952588d702e04415C87ac"
      },
      {
        "passId": "153",
        "signer": "0xE5778cF16F471fF02b49370dBac8cDb63239d52e"
      },
      {
        "passId": "154",
        "signer": "0x2Cd0643aF812e58AE7c7434398A3F2b2f1E3B7Ae"
      },
      {
        "passId": "155",
        "signer": "0xaCd44792b7eD1fa1fc37DD5652f92Ea8Feb54927"
      },
      {
        "passId": "156",
        "signer": "0x1c17a1A44DB40db14cD46A10e75424FD4d62B29b"
      },
      {
        "passId": "157",
        "signer": "0xAB2c85023973d76421C5DF154535A60b6540b7d0"
      },
      {
        "passId": "158",
        "signer": "0x1B165623f97526B40dB0BDCd37667ef0C72AeFD4"
      },
      {
        "passId": "159",
        "signer": "0x4C86DFcD41D5EfB6b63C91baC9f01bCD382D8EFe"
      },
      {
        "passId": "160",
        "signer": "0x745060bF102fA3554DD667823796F9679de91011"
      },
      {
        "passId": "161",
        "signer": "0x82eEfF5F40fB11708BEb862E91589D7099E08432"
      },
      {
        "passId": "162",
        "signer": "0x47a03aDA370EddAF67f6A31629Af52eA22E5Ec7B"
      },
      {
        "passId": "163",
        "signer": "0x875c01A605Cd28bC717bD5b5b20DC3e57c234085"
      },
      {
        "passId": "164",
        "signer": "0xb12663501C70565E4821a5Dcb053FB4a6209244F"
      },
      {
        "passId": "165",
        "signer": "0x17e90bc937E8aAD2AC3C19A688Ab2A89C094f4E8"
      },
      {
        "passId": "166",
        "signer": "0xe1507fDDbAD95cb7F51A68CCCc4FcFbBc92F3bE1"
      },
      {
        "passId": "167",
        "signer": "0x895bbafad12E9baBb8acA5d3b2138CFdBE36D60E"
      },
      {
        "passId": "168",
        "signer": "0x5C2E1659d099f88A0D004B35C7D417572dAaa705"
      },
      {
        "passId": "169",
        "signer": "0x83FB71348425b3867fEeCa3356C51a25d7F6dD67"
      },
      {
        "passId": "170",
        "signer": "0x82F0b65c620536D999F2f6055Ab792a954128129"
      },
      {
        "passId": "171",
        "signer": "0x06E75033B7B95D7111FEd7914EBd6ddBcEC934C5"
      },
      {
        "passId": "172",
        "signer": "0xfbf85469aAd3D893DC86333720e27dD5D3C703b7"
      },
      {
        "passId": "173",
        "signer": "0x7E3Cb8dBAD691647BDC6BBF50e75Ef95bA10BD5d"
      },
      {
        "passId": "174",
        "signer": "0x397bfCc16EC75732dE98AE0Db5EC5c71218335c0"
      },
      {
        "passId": "175",
        "signer": "0xE2237DAb13808f098581df31fbBbb35Fb5b5e13f"
      },
      {
        "passId": "176",
        "signer": "0x07577B6a8DfCA34dfeAee086A85aA29D2230fEE8"
      },
      {
        "passId": "177",
        "signer": "0xd56652ACcF71ad45A1f4D57719aF842C1Ce1ca54"
      },
      {
        "passId": "178",
        "signer": "0x0cF304D833f22231a9e9B0e1De1C7AD9636a4258"
      },
      {
        "passId": "179",
        "signer": "0x432Ee72F43814D207957BdF1d6D4D1aeA61d589d"
      },
      {
        "passId": "180",
        "signer": "0xEFC126B0bbea01Fa2a02FFEA039eC56E8439F365"
      },
      {
        "passId": "181",
        "signer": "0xbBB034442616DBF5BCCCEEb0B0e7be269e031A0F"
      },
      {
        "passId": "182",
        "signer": "0xcB4aa27C6e7Bb75f8Ec63e88cD587d0C5e1024B3"
      },
      {
        "passId": "183",
        "signer": "0x53Ce5196fBa88b88cDf3a27F17ed69d01B2c1e6C"
      },
      {
        "passId": "184",
        "signer": "0xeCDCA9d0c55B4d996b2d97FdAFd69E0F65A40B98"
      },
      {
        "passId": "185",
        "signer": "0x36e0cA3d404eB111b715004CaCC5501C3b6e4397"
      },
      {
        "passId": "186",
        "signer": "0x46B1aA3c098aF345d51f3B966d57722894f35655"
      },
      {
        "passId": "187",
        "signer": "0x1C876E01240E423263BFD9e3C1c6514F8A118a27"
      },
      {
        "passId": "188",
        "signer": "0x28EDEF98213dE9B30d8dEFeBC791Ba46521a1aCC"
      },
      {
        "passId": "189",
        "signer": "0x311709d21Ede144e84E080F569928497500d8918"
      },
      {
        "passId": "190",
        "signer": "0x638B7547db0f26990F1E846d6b2aaA5Cb5108A08"
      },
      {
        "passId": "191",
        "signer": "0xCCc480204725C58E202bf9BdA27dd024ac1EB48e"
      },
      {
        "passId": "192",
        "signer": "0xCe190a3D100ed6023EB12c8fA2c36e532c81Caa0"
      },
      {
        "passId": "193",
        "signer": "0xC5b9306aB4F8836aCb8Eb2064Fd3c7F49764DA61"
      },
      {
        "passId": "194",
        "signer": "0xADc334359f2ce2ed7db676DcF0be39aB1d7a4572"
      },
      {
        "passId": "195",
        "signer": "0x96b06629638bb805d2986b88c7A3761bFa3d57c7"
      },
      {
        "passId": "196",
        "signer": "0x31321000cBe3e1CC1DEC7Ef92006d993b4b02645"
      },
      {
        "passId": "197",
        "signer": "0x97bb9159983Ad934F677d2D1DF3f1dE49a816D8b"
      },
      {
        "passId": "198",
        "signer": "0xA9d7478685604aCaac85274E01a4D89a75029E2C"
      },
      {
        "passId": "199",
        "signer": "0xDC472E8b33CD85B963ec39B9525359bbA0FDbb7D"
      },
      {
        "passId": "200",
        "signer": "0x2AFe1C337589D485E96C2CC76131649bC8a7821D"
      },
      {
        "passId": "201",
        "signer": "0xa419f36e8929774be0897fDbAe7bE8C3D80ce61A"
      },
      {
        "passId": "202",
        "signer": "0x3d314EC84f3F6f036Cd7D891b1B3C4F3d0A7d5DE"
      },
      {
        "passId": "203",
        "signer": "0x8F54cDFc3eadbd6C0748eC8EF888Fd92Ba255bf9"
      },
      {
        "passId": "204",
        "signer": "0x5E38C3658fd144683190DEB92823d9cDe53b8963"
      },
      {
        "passId": "205",
        "signer": "0xDa6F39dE26d76Fa5b5F2b6DAb438ea731eB353Cd"
      },
      {
        "passId": "206",
        "signer": "0xc6b12157160CBfd41F624B08B3d5691c16419E73"
      },
      {
        "passId": "207",
        "signer": "0x759135d7FF8123060Cd883C43e3a9f395bA324c2"
      },
      {
        "passId": "208",
        "signer": "0x77e296AD58f2A583643173C70F8B0074Dde8cEeb"
      },
      {
        "passId": "209",
        "signer": "0x75842d1af5b14Ce2b04FccBb378C9bB37973E0AA"
      },
      {
        "passId": "210",
        "signer": "0x3458820e3c7961a25270fDae200eF50dA19f2D5B"
      },
      {
        "passId": "211",
        "signer": "0xC3666CD5B73C74653de6bB6755fd0d897B1985EE"
      },
      {
        "passId": "212",
        "signer": "0x301a412333bb85b10297197C8ba6d6263b08614D"
      },
      {
        "passId": "213",
        "signer": "0x864Ac1093D9c41B2Fc0b51b495A8a579B3e2755c"
      },
      {
        "passId": "214",
        "signer": "0x2BEbB8A321ffeA2Ce3A16683bD6753136cE7C31b"
      },
      {
        "passId": "215",
        "signer": "0xA1c59C6532409848f3aE81d118AE9Cd66643292B"
      },
      {
        "passId": "216",
        "signer": "0xb02Dd0349083eF1edE62791A52cDA05e40eC1BaA"
      },
      {
        "passId": "217",
        "signer": "0x09e6825ED74f6dbd3b49DD118F9BBAAd1F159C2b"
      },
      {
        "passId": "218",
        "signer": "0xD55bbc272a7359713142030e7B83eD8B4A9979d6"
      },
      {
        "passId": "219",
        "signer": "0x155F3fbF96a859c13d7fC8E8FC41Fd4D7741f1e9"
      },
      {
        "passId": "220",
        "signer": "0xB7775Cb1Eca7074eF05f419c02b5581e0140bf76"
      },
      {
        "passId": "221",
        "signer": "0xaD879aEAe5d324Bcbc9336FD89313929714280b4"
      },
      {
        "passId": "222",
        "signer": "0x082a7fC366FCe40BC785496904e822B1faa4b061"
      },
      {
        "passId": "223",
        "signer": "0xC7177B006bB0ec7B631F90695e0466bbFE226fB1"
      },
      {
        "passId": "224",
        "signer": "0x650a70e6f787E3CBC17a14e99de2ABfD03944d9D"
      },
      {
        "passId": "225",
        "signer": "0xA1258991bF7f6Dd98ec0500438A4CbB3b81628Ae"
      },
      {
        "passId": "226",
        "signer": "0xB000897f3F9437D4d3c20368d5cFa943a9Cf0836"
      },
      {
        "passId": "227",
        "signer": "0x124585Ba1bf25201c4F554e43380D6792ed5BCd5"
      },
      {
        "passId": "228",
        "signer": "0x23b23726D2515670F861E0A28F7844B99CF6A668"
      },
      {
        "passId": "229",
        "signer": "0x7937Dca449BdAf11506B31b8a8cB4cd52392B33E"
      },
      {
        "passId": "230",
        "signer": "0x22dB1551Ed123AFDE08348B0D1AB0A86A190EfFC"
      },
      {
        "passId": "231",
        "signer": "0x7c6bB2344bEd06f14A7ec73c2bef96e802a2cE20"
      },
      {
        "passId": "232",
        "signer": "0xFED9834872897413Effd9BB9bccC99c799E1f212"
      },
      {
        "passId": "233",
        "signer": "0x64233CA1828a1252C3458794D1c55eC91e241Cae"
      },
      {
        "passId": "234",
        "signer": "0x2bdD13154d862F1Bb914e9FaAf222EE374633F7e"
      },
      {
        "passId": "235",
        "signer": "0x906A7B8fC293c2Dd78DE37b8A300fe2903271Bde"
      },
      {
        "passId": "236",
        "signer": "0xDCCCc08fCBe81f5Ba7D21075b62cE61267a0df49"
      },
      {
        "passId": "237",
        "signer": "0x9172DA281CCdBFA031C77ACff80B57b965d6dEea"
      },
      {
        "passId": "238",
        "signer": "0xE142E3053B266cF543e07A1dD429d31A6221393f"
      },
      {
        "passId": "239",
        "signer": "0xfeb8c665E7539441d25f671E47582eE2F7a6aD75"
      },
      {
        "passId": "240",
        "signer": "0x3892FE5093B8a2f82Aa54e9F203eFCbD573B2aEa"
      },
      {
        "passId": "241",
        "signer": "0xA12FfF722F9fdF0ca622E4a2882B74450621efa4"
      },
      {
        "passId": "242",
        "signer": "0xdf4B8B420Ed65FEEC078D40F3197c2ab83F4734f"
      },
      {
        "passId": "243",
        "signer": "0xD2d3dC5D4874EC962EC658F7b23871eEEb98399A"
      },
      {
        "passId": "244",
        "signer": "0xdAD34c02617dbdb0AC8d54782d5318B6ce8Fc00d"
      },
      {
        "passId": "245",
        "signer": "0x21a182e1093b5036432E5CeCaf374b2e68E3690E"
      },
      {
        "passId": "246",
        "signer": "0xE0c243780bfDAc415698aE4e96C4614Ebc37D303"
      },
      {
        "passId": "247",
        "signer": "0xdC40E3E452053Bbd1C987A38f38be94A72100F3D"
      },
      {
        "passId": "248",
        "signer": "0xc446cc3733E26071B10196e0cabBFC684C103cbf"
      },
      {
        "passId": "249",
        "signer": "0xc639b74c1e8C6840F63F759d19E340cFF944D2b9"
      },
      {
        "passId": "250",
        "signer": "0x82e173E798d900959B3F15f77BC51Cd52F1198a1"
      },
      {
        "passId": "251",
        "signer": "0xcC7Ed6A677E8A0567bF10F3cD32A101755C27A76"
      },
      {
        "passId": "252",
        "signer": "0x309694555392cE2eFa7f3f189Fa10D195737Bf13"
      },
      {
        "passId": "253",
        "signer": "0x50078bD4DB9dd58Ee2f0B7A59e2981ffb1830440"
      },
      {
        "passId": "254",
        "signer": "0x62405ffA857c4e27fecd1ccB8aCe764b7B6b0745"
      },
      {
        "passId": "255",
        "signer": "0x745f37d6FAFA8b4ff4F43c4Be99cfDbBb9C3702b"
      },
      {
        "passId": "256",
        "signer": "0x1369E5354579c4F7ECdA581B75d20f7E5b99a777"
      },
      {
        "passId": "257",
        "signer": "0x16Ba12cA4961B96bAbc153CC2A424FeE293D1EaF"
      },
      {
        "passId": "258",
        "signer": "0x79e10Ec9CB0e3E564a62324fC0DE7D1C9125da1C"
      },
      {
        "passId": "259",
        "signer": "0x157e4f1b6d540725855b5af0B94A4FF746BEa19B"
      },
      {
        "passId": "260",
        "signer": "0x422fd9111b2112D95D9F2a9ccf39B2E83cAF335B"
      },
      {
        "passId": "261",
        "signer": "0xF99A4a9A4346E824F485f2A87032B80677862AF0"
      },
      {
        "passId": "262",
        "signer": "0x17229dC93eeECd3d509f99B4930bd73D648B72E9"
      },
      {
        "passId": "263",
        "signer": "0x675d47e44693effD345bC30567a0e6b3044d9A39"
      },
      {
        "passId": "264",
        "signer": "0x4DcC8A62e00E818A98183b1D517411BA3917aF03"
      },
      {
        "passId": "265",
        "signer": "0xCa86e554E021686d97Ebe0d4C4b242A426D3b232"
      },
      {
        "passId": "266",
        "signer": "0xaCe60978f829d5C6fe9b0C78F10261356FB0e156"
      },
      {
        "passId": "267",
        "signer": "0x97B618CeBb85DED2f05703F00aeEC213fF027313"
      },
      {
        "passId": "268",
        "signer": "0x3456870712BDdc5eBbcd508cEDe04DF40C506e1D"
      },
      {
        "passId": "269",
        "signer": "0xfec5Eb6a25aA015eE8c5241c64f256ee1D44b5eB"
      },
      {
        "passId": "270",
        "signer": "0x36753Bf3f915274fa42752d0d2339FfD62f07155"
      },
      {
        "passId": "271",
        "signer": "0x8AbEf0b0B6316D04377fbb7490Ef12e80ba937EA"
      },
      {
        "passId": "272",
        "signer": "0x02Eb679EFf71e45f02dA23EdD752Bd1bEb05352a"
      },
      {
        "passId": "273",
        "signer": "0xA788d5143915831394057B75Aa548F66123e044f"
      },
      {
        "passId": "274",
        "signer": "0x81aAa9aa87a9c137b6FEAbd48bc339dD6f231551"
      },
      {
        "passId": "275",
        "signer": "0x8Cb16Ca9337EF594758B0069CeC4485d76C5392F"
      },
      {
        "passId": "276",
        "signer": "0x055a6D03093B0fcfFBaba257C634839350CA912A"
      },
      {
        "passId": "277",
        "signer": "0x6490aa4CdC98A5885b1a6E41bdA22F97EAe62720"
      },
      {
        "passId": "278",
        "signer": "0xD27663a59D43aD46B77611376e5700C7c92463bE"
      },
      {
        "passId": "279",
        "signer": "0x4153d080d293A18d9Eb486c547AAF15B05f6886D"
      },
      {
        "passId": "280",
        "signer": "0xf33b9A79EDB8De0e2c4Fc228D10c2340AC6580DE"
      },
      {
        "passId": "281",
        "signer": "0xBAC31a8725cbBD1d741cDDC9241Bca0c61c4e122"
      },
      {
        "passId": "282",
        "signer": "0x340289f26908168140D1DFa0F23a9e4633Af1cB8"
      },
      {
        "passId": "283",
        "signer": "0x13a6b52cf46aE44b19De36ae9855006126B0f4E9"
      },
      {
        "passId": "284",
        "signer": "0x0131EF2474b516cdD5069F61224FEBa3c446B902"
      },
      {
        "passId": "285",
        "signer": "0x0De51BEc12e0f29D300a4fBD908dda887339D3BD"
      },
      {
        "passId": "286",
        "signer": "0xA9A139689976e8E4ff19723cF17EC0C076DBa17d"
      },
      {
        "passId": "287",
        "signer": "0x559d1C0214Fb2F63dBd0360bA5666FEB75d727F3"
      },
      {
        "passId": "288",
        "signer": "0xA90b471538FE9d624EDB77A99f5aC3636d3D9946"
      },
      {
        "passId": "289",
        "signer": "0xD711A0bfA2ccE8B299f83E2977C6a6D590666719"
      },
      {
        "passId": "290",
        "signer": "0x72a6694877bB5C5Eb6bD287d0ba064439D9F4362"
      },
      {
        "passId": "291",
        "signer": "0x9bD5F111d5f02d8Ef303aDbE75B015B2429047c8"
      },
      {
        "passId": "292",
        "signer": "0x590AAc4FB7Fe597dEFa9Cba9f15f692f6929aA81"
      },
      {
        "passId": "293",
        "signer": "0x44967b55d47f3B95559A18D2EAe39E6be9Ca5c95"
      },
      {
        "passId": "294",
        "signer": "0x813458E2188303a117DDA1da115093DeBCd0364f"
      },
      {
        "passId": "295",
        "signer": "0x640c4Acb51b46b650232dE92BaC30aEebF36DFb6"
      },
      {
        "passId": "296",
        "signer": "0x43ceB1De3b88EA21C531a47A4f48A0d11F4547b6"
      },
      {
        "passId": "297",
        "signer": "0xed50Cfa9F1f40BEa5E067fC503B954b145B7D857"
      },
      {
        "passId": "298",
        "signer": "0xf96289Ede2C52494cb074F0c067DE96862cF9888"
      },
      {
        "passId": "299",
        "signer": "0x6F5225cb02b509B93C0bEDcee70f6615c04D482b"
      },
      {
        "passId": "300",
        "signer": "0x92f3D9933413c4Dd7262537273Be9e98A9e58763"
      },
      {
        "passId": "301",
        "signer": "0x9503DBf200AA80F5613632249AF2113a359F3c37"
      },
      {
        "passId": "302",
        "signer": "0xDCdeBCa0d02d4B464F9009515D3F6Ca2141B8F70"
      },
      {
        "passId": "303",
        "signer": "0xAd301735bAB5BAdb1E17eF9B6dC28590a7AB6C65"
      },
      {
        "passId": "304",
        "signer": "0x1CF055cCAF2cAAC188e1469DD6bC1cA5a38a0D24"
      },
      {
        "passId": "305",
        "signer": "0x6465a344A260C1CC95367BAB50363dC0fA95d0A2"
      },
      {
        "passId": "306",
        "signer": "0xbc9E88e3eaA31AEC464d8f9fdBf17817C3bE9377"
      },
      {
        "passId": "307",
        "signer": "0x3a4371e5517058D4F881B26C7B8b114FDf63bAf8"
      },
      {
        "passId": "308",
        "signer": "0xf5EB20759D590f910b1F0A332C634F54a5f5De38"
      },
      {
        "passId": "309",
        "signer": "0xa9C1430a7570e4A34c166888DdC3b5a96a8C4adc"
      },
      {
        "passId": "310",
        "signer": "0xd2019f18B6E0e0ED49017E420dE4a68c62B6906b"
      },
      {
        "passId": "311",
        "signer": "0x96dd6bEa135F7Cc8A929AbaACFf2f1BDb2687D27"
      },
      {
        "passId": "312",
        "signer": "0x932BBFcb64CeBb7FF5c3f90d8493d4AfDBc9a4ed"
      },
      {
        "passId": "313",
        "signer": "0x9e36e52b3295C5D35FDf0eca194DA5804a49AdFD"
      },
      {
        "passId": "314",
        "signer": "0x717b03013670BB70AEd9492c18C49AE52AcA2d4e"
      },
      {
        "passId": "315",
        "signer": "0x17DEd38306df0A639b070bc5ff7B06109CAd2F0C"
      },
      {
        "passId": "316",
        "signer": "0x34DFCE58C6B86B854d4aFaA23d5fbbF7A07a218f"
      },
      {
        "passId": "317",
        "signer": "0x7a41eB915c700cAc8eF45A087b34F4e9422E6D6d"
      },
      {
        "passId": "318",
        "signer": "0x9a6A489a530B95013854eb90a50f1f41Dd3860ad"
      },
      {
        "passId": "319",
        "signer": "0x0008d755465BC2A76F9169AB9E6d9B084FB185d2"
      },
      {
        "passId": "320",
        "signer": "0xF9EfD85D988a8f1C8FBE5d1aC26Da5954dd3137e"
      },
      {
        "passId": "321",
        "signer": "0x23A47Ee9bBFD17F4E581B83d2ff037a0F6e62D63"
      },
      {
        "passId": "322",
        "signer": "0xA29157F445C626cb1DF316ea43629Bab907A07Ac"
      },
      {
        "passId": "323",
        "signer": "0xc1Cd989b9fD979E67dAD9F1C719848f80Dfe2017"
      },
      {
        "passId": "324",
        "signer": "0x5f6d59641CF78a6CBF3117F1e57ecb94E5BC72A6"
      },
      {
        "passId": "325",
        "signer": "0x77886F8E7854E31B06D8b3155798FF83a08FFB1a"
      },
      {
        "passId": "326",
        "signer": "0x7EC714b3A7A56822fFae6CcC4d66B99F98dc1F75"
      },
      {
        "passId": "327",
        "signer": "0x97Ee0A911f5cccF2D039aF61Be6A2AB57ad5De62"
      },
      {
        "passId": "328",
        "signer": "0xD2E1a333319b96BC13Fee5843B54c39Cde23b699"
      },
      {
        "passId": "329",
        "signer": "0xf56b3cA981A7F4F5caCdDdeA8ACe612Da70d34EE"
      },
      {
        "passId": "330",
        "signer": "0xC8c9033D3fAE394dF7A185bb6aeB01123C3d781b"
      },
      {
        "passId": "331",
        "signer": "0x6A0956dd7b01EB43b17ed020323f5634Ac0127c4"
      },
      {
        "passId": "332",
        "signer": "0x51a89Fb162aFbf411aedd489903452557AB1F96A"
      },
      {
        "passId": "333",
        "signer": "0x973eB63102bA9351b64c34d602ba650fa78743B2"
      },
      {
        "passId": "334",
        "signer": "0xEDA658ed77d626C175f7550F453Ee6842f4Ee243"
      },
      {
        "passId": "335",
        "signer": "0x9A052758d6604596681e391A4E190055fC8bB349"
      },
      {
        "passId": "336",
        "signer": "0xf0673aE070bc4B66dd7C4dcA396793675Bc84a57"
      },
      {
        "passId": "337",
        "signer": "0x3d2dB949d42552214eD97BF1b377D87B21b5237a"
      },
      {
        "passId": "338",
        "signer": "0xcb674AcFa1215b111C80dcB78E499B65209d50C3"
      },
      {
        "passId": "339",
        "signer": "0x455954bcC467F112Aac716EE8172Cc5600eB4E8A"
      },
      {
        "passId": "340",
        "signer": "0x1F899161b09836D7E72174E20b3D94aF40F77152"
      },
      {
        "passId": "341",
        "signer": "0x1F0747dc38C65fe92054F70F366dd2c88505F892"
      },
      {
        "passId": "342",
        "signer": "0x56Bc83af3971468c3EDd1d0808624Df50e934DF1"
      },
      {
        "passId": "343",
        "signer": "0x75Bea57C5496ec3c52664A1EA8714bd1509F4909"
      },
      {
        "passId": "344",
        "signer": "0x5b3621853Ae6b39C4C3d2E3c810B206A0750b26c"
      },
      {
        "passId": "345",
        "signer": "0xBC0FB890b6DAe36ea894467cF599CfBCf63D26b9"
      },
      {
        "passId": "346",
        "signer": "0x39B1a41972275D7AdeB84B13281C34fA5E8869F9"
      },
      {
        "passId": "347",
        "signer": "0xF8Ee681E5dc75777800723ECe3AE5899771f325d"
      },
      {
        "passId": "348",
        "signer": "0x49498e01Cdd20bde4B626153Cc99DaE94c3E99cB"
      },
      {
        "passId": "349",
        "signer": "0xaa58F49E31D6dB7acF26C0b200A19eb4B8c92b44"
      },
      {
        "passId": "350",
        "signer": "0x7e51DD4dE4Cf0ee56Ec0a37D7B7dc5ece88C0b4d"
      },
      {
        "passId": "351",
        "signer": "0x03Bf20313579834b29ca67a6947bC0Da7055b02B"
      },
      {
        "passId": "352",
        "signer": "0x62bCd43043C2C06397E772f79a8075d8E2011E94"
      },
      {
        "passId": "353",
        "signer": "0xBf97205Fac5276fE8eE774c43b4064DaAe753b7E"
      },
      {
        "passId": "354",
        "signer": "0xA4CbaeC09E295b32d71d3011c29E35b046Ea3F3C"
      },
      {
        "passId": "355",
        "signer": "0x956e2170C037f2f779E6922E78B2b15D26482C6d"
      },
      {
        "passId": "356",
        "signer": "0xb2C72124bfE01C9fE4735FF4492B3d4058023035"
      },
      {
        "passId": "357",
        "signer": "0x8Cf4aD2f8b86EF2c5e25Fb7e2C83970ea81E5202"
      },
      {
        "passId": "358",
        "signer": "0xee30a8C097EAe50a935D295F8c884c030D26f748"
      },
      {
        "passId": "359",
        "signer": "0x0d538a90c8d9Ba310234c36BDAab62C21fA43F1a"
      },
      {
        "passId": "360",
        "signer": "0x106a9e50FFAe7BEA9E96aF65e369Da198EC8EB57"
      },
      {
        "passId": "361",
        "signer": "0x9cC0c425f5bfd4f78F5fbD90aE662ad44F03D6dB"
      },
      {
        "passId": "362",
        "signer": "0x1E05DB91deCA6b27d8C2aB1134aEbB7780FcE97E"
      },
      {
        "passId": "363",
        "signer": "0xae8508918B5cF8fcdc2b5E999359309743A635BE"
      },
      {
        "passId": "364",
        "signer": "0xC7927c4616Fbc311e67222a54E1D5c31a4b1783E"
      },
      {
        "passId": "365",
        "signer": "0xBE7864121270B507b270cD61619545E0F7031164"
      },
      {
        "passId": "366",
        "signer": "0x0FDbAC40383Bb6460E64Eef5d3db68294E006539"
      },
      {
        "passId": "367",
        "signer": "0x40812334efa07c2dBeC5042D912Bc52Dc76a0acc"
      },
      {
        "passId": "368",
        "signer": "0x54C529714d5EF26A61be8e68FAba1bB1d6C642Fb"
      },
      {
        "passId": "369",
        "signer": "0x95887b8C0A3082780E849F79297e3f0075bEaEE6"
      },
      {
        "passId": "370",
        "signer": "0xF76bDff1c6826F5bF165794454A7D4397E8eA89C"
      },
      {
        "passId": "371",
        "signer": "0x02da5c7049FE55Bf8BCfB28AaA07C9088d9FaeD3"
      },
      {
        "passId": "372",
        "signer": "0x33A11a5f97736Ce6512dbB452Cf1EA945034Ab47"
      },
      {
        "passId": "373",
        "signer": "0xD3F61CD5E1DCc7b02ed15612Be11528E0e0d98D8"
      },
      {
        "passId": "374",
        "signer": "0xbe80Ac5d2DB0E40c5F8E8ca1385653c79E7ff412"
      },
      {
        "passId": "375",
        "signer": "0x39eCe602cCD606867f1F1f201AE0A67b46b0657a"
      },
      {
        "passId": "376",
        "signer": "0x1F5B9Ce82A41957988c2172E8792885A8EcfA2af"
      },
      {
        "passId": "377",
        "signer": "0x8d3051F58C94B94DEFDb00c8E0e3862E9EdF463F"
      },
      {
        "passId": "378",
        "signer": "0x234CC0d906eb55C5dBD3b90d82382b5b60BFA662"
      },
      {
        "passId": "379",
        "signer": "0xe3DCAAaAf6A4fe2BCb46E8F78D7F2614c90e1481"
      },
      {
        "passId": "380",
        "signer": "0x8eFdCcd8C6788AFa2CB2232b86f56894b7C517B8"
      },
      {
        "passId": "381",
        "signer": "0x686593dAe9F4329891759D0Ba874f62A30e407a5"
      },
      {
        "passId": "382",
        "signer": "0x47cBb3DAC41AA424622b70a8b4783bf95550b6C9"
      },
      {
        "passId": "383",
        "signer": "0x8bA07D8076CB9c7af6C7d0ccE669a7F451EB4a2C"
      },
      {
        "passId": "384",
        "signer": "0x40b606cF6132d1a3f2A0F15087E554e95D23440A"
      },
      {
        "passId": "385",
        "signer": "0x703949BDF0475af14d78a33f78c519F9C9Fe5FE1"
      },
      {
        "passId": "386",
        "signer": "0xf662Da83EB11764649674e2A1Ee0C91721A582D0"
      },
      {
        "passId": "387",
        "signer": "0xF39aA1334f36a9Bc77533aC307Eb80653Ce5d3EE"
      },
      {
        "passId": "388",
        "signer": "0xe310d01ABEFa70e413f8c7d92cEB0DC72d0CdD4e"
      },
      {
        "passId": "389",
        "signer": "0x4fb5e11B54a81F3e27DdDeD421841DCe07C237a6"
      },
      {
        "passId": "390",
        "signer": "0xB891D2D9f5a0Ac2fdE90b7cea039f2bf5B98a86A"
      },
      {
        "passId": "391",
        "signer": "0xd17Ebb67389E8eCBe8e3519aCa4d24f3413c23A0"
      },
      {
        "passId": "392",
        "signer": "0x39E36b65334dFb6C33D8401fc5B6403a104A1ba3"
      },
      {
        "passId": "393",
        "signer": "0xeD332B31158C94F485d1aC00DcC6bda5F2f0F77d"
      },
      {
        "passId": "394",
        "signer": "0xafC48872342EAcf3B393618BFf8f5dD01a7F9a8F"
      },
      {
        "passId": "395",
        "signer": "0x3a1410a3f2C6754375D2D7e7Dcc632D4Ae5031e1"
      },
      {
        "passId": "396",
        "signer": "0xE292ED7fa68BEd11534b4D98C9A88dA8d612a699"
      },
      {
        "passId": "397",
        "signer": "0x071b5848ae77fe00A05fa9e3fEcA2B6181DD6F93"
      },
      {
        "passId": "398",
        "signer": "0xB089Bb30bb38395CD8C413D88F8734BC7Ca271eA"
      },
      {
        "passId": "399",
        "signer": "0xC9521585804f66668dC7bD4692B753410a75e8Fa"
      },
      {
        "passId": "400",
        "signer": "0x93163c3C8E585b1f58C4CBc8d3A4CBeD67d40F7e"
      },
      {
        "passId": "401",
        "signer": "0xD6e622C97C6242D64F7219fDdCC30F78e55F4dFA"
      },
      {
        "passId": "402",
        "signer": "0x0720F7951F6332E4a49203d0F0B231c2CF3dB481"
      },
      {
        "passId": "403",
        "signer": "0x1f3e841C9Ae45D8D04225d6C6c6166342E0ab322"
      },
      {
        "passId": "404",
        "signer": "0x701c07d5d88854f5703A950dD8c8592a2080DBD2"
      },
      {
        "passId": "405",
        "signer": "0x0D336E68f73E13C061a4261171fDdDF57a38e575"
      },
      {
        "passId": "406",
        "signer": "0xE1a85910E7928Df483F189D2f258247bCa1d11F2"
      },
      {
        "passId": "407",
        "signer": "0x2f3D92b24F979153821Dd8179F73308A669C219b"
      },
      {
        "passId": "408",
        "signer": "0x6bcB1f4A48c747170756bCE9915CEEcaa3Fb7675"
      },
      {
        "passId": "409",
        "signer": "0xa9B2f331637Cb97867cF20eFe326C51894D19610"
      },
      {
        "passId": "410",
        "signer": "0xdEfEFa52aC6eBc9002D903d7928DB5f32CA839Bb"
      },
      {
        "passId": "411",
        "signer": "0x7F67f4387E79a5Bc781f299Eb44F25f506aa3164"
      },
      {
        "passId": "412",
        "signer": "0x884e2211C5dA0cefd32310d2CaAD9A585B4a3E38"
      },
      {
        "passId": "413",
        "signer": "0xA6d3A871FFbFD4CF2Fd4CEBdDcda9baA5a926D22"
      },
      {
        "passId": "414",
        "signer": "0xB36bEB32aF1deE6E21EeEC7A8A5FF74e11325e43"
      },
      {
        "passId": "415",
        "signer": "0x01902879aF3D16c17938687e9b48B1C55184B50c"
      },
      {
        "passId": "416",
        "signer": "0x351a75c2D11Ed6E88B5336c92eE8106a5031d6BF"
      },
      {
        "passId": "417",
        "signer": "0xF404008acBF5BE72Fe2576AB0739a0c25c6cbAB2"
      },
      {
        "passId": "418",
        "signer": "0x547f284CbFA3d8adb00e50Bc316D74647dC21439"
      },
      {
        "passId": "419",
        "signer": "0x45e3DA1364C43C440F3b6295aAF7F64B8616fbbe"
      },
      {
        "passId": "420",
        "signer": "0x6a1b8FFB2d7943e78B1f061703799a2aB7dE83A2"
      },
      {
        "passId": "421",
        "signer": "0xb1194DeDA8fd0FA6CeDd32e0d234Fa84117AbaFc"
      },
      {
        "passId": "422",
        "signer": "0xEf436418B68dF6c3c1dfCd187C117016F1662F87"
      },
      {
        "passId": "423",
        "signer": "0x9d94f9d6CAC8d7B55A056661295D9237AEc092B6"
      },
      {
        "passId": "424",
        "signer": "0xADcA70A11e87dBEA806ba9Bd286b67063D298646"
      },
      {
        "passId": "425",
        "signer": "0x577e4691945E7eCe6F4dB45A056785a4B71ac069"
      },
      {
        "passId": "426",
        "signer": "0x501FF00FD5676C1cF236ADe07d8E7E8A9cADC3e7"
      },
      {
        "passId": "427",
        "signer": "0xB2039a87c568eEe3535E573d527d66b516CD9c70"
      },
      {
        "passId": "428",
        "signer": "0x892E1bf70C0220ac31454A13747c888cE6a92659"
      },
      {
        "passId": "429",
        "signer": "0x6420e1A8eA0978Ebf410b8d410bd78a944fb7DEd"
      },
      {
        "passId": "430",
        "signer": "0x6aE5D77FEceF0f31E72aC6B35A5e7433FBAc5DD3"
      },
      {
        "passId": "431",
        "signer": "0xb85Cd1dDD763646c3c56dAcd617C76c1A35C1519"
      },
      {
        "passId": "432",
        "signer": "0x2C7c97B10033382033b835F026a7D6b04635E607"
      },
      {
        "passId": "433",
        "signer": "0x96bF5417e58c93f1c97F6365D44D2334e907A0f9"
      },
      {
        "passId": "434",
        "signer": "0xc737B0A13AB7fF1a7a85217F9c5Cb4bc1CeBF2E4"
      },
      {
        "passId": "435",
        "signer": "0x77550883fC1ad3BC11d2CA796Fea5216Ce9D7Ea1"
      },
      {
        "passId": "436",
        "signer": "0xC9E27fC598AEa5c9f628961Fb577d44EFb58dC0b"
      },
      {
        "passId": "437",
        "signer": "0x697f01Ec214ACfC61366B287e591bCCEeaAD3b9F"
      },
      {
        "passId": "438",
        "signer": "0x689A8Cf24dB3a50F578c6768e4Ef7175d554fd1F"
      },
      {
        "passId": "439",
        "signer": "0x921E4B5606a9b4Ba3bD91f0870E0b523640bF7Bc"
      },
      {
        "passId": "440",
        "signer": "0xCdc99879a8A74FC607AAd6cA66813caD37fd952a"
      },
      {
        "passId": "441",
        "signer": "0x0cfFEE6C858B459D8e70b68A77Dc50A90eB85343"
      },
      {
        "passId": "442",
        "signer": "0x517cD89C49763F3D971877B6cfC7bAE809Cf7ac0"
      },
      {
        "passId": "443",
        "signer": "0x15790E9Ff6451FA0c3c74E3A1a53497f86441E92"
      },
      {
        "passId": "444",
        "signer": "0xbFd345976129cd7CD984322186608D46512b5bEC"
      },
      {
        "passId": "445",
        "signer": "0xA1154492540A3B2417E7Fe8fbD468CdeE806a0Dc"
      },
      {
        "passId": "446",
        "signer": "0x36F5075044924eeEB5F37D0B6508A23fb3A7ff5E"
      },
      {
        "passId": "447",
        "signer": "0xBb0dA6a693Ecb3e76c7ABB3ead3b31cEE828aEAF"
      },
      {
        "passId": "448",
        "signer": "0xc333F2dAFFD4A6c8a51352af69878199A7c7c694"
      },
      {
        "passId": "449",
        "signer": "0x8dA0ecCfA0f03A2e29565f3a01cc5548118FC955"
      },
      {
        "passId": "450",
        "signer": "0x70E7efeb9D34918f6f525595C3c1799F114E94B3"
      },
      {
        "passId": "451",
        "signer": "0x23fb9467533ad518c07Bb8b166aFb034f612A755"
      },
      {
        "passId": "452",
        "signer": "0x3Ea5C6772A1ED53F3EC7dC423Bb35849EDcD4d33"
      },
      {
        "passId": "453",
        "signer": "0x994017fF468fD8C21a29A58D780B8C59bD630315"
      },
      {
        "passId": "454",
        "signer": "0xD047A2f21bbE2E65b55aBEeC8C88DC368c0E510D"
      },
      {
        "passId": "455",
        "signer": "0xa68c0879E07E7b953CB5cBeE4C76F9aa1DD8ad8C"
      },
      {
        "passId": "456",
        "signer": "0x3937c780f52F4b46CE6c79F4e3D5fD089B781372"
      },
      {
        "passId": "457",
        "signer": "0xf8caD4d4cf30442941336088a49B640ced18FC09"
      },
      {
        "passId": "458",
        "signer": "0x66245abaa0ad779d9aA13Ec023E7303340A54A93"
      },
      {
        "passId": "459",
        "signer": "0x075B2B602F6908e5c18363A60452dAf65551229c"
      },
      {
        "passId": "460",
        "signer": "0x37cd641e857cefCB683793095566747f937481EF"
      },
      {
        "passId": "461",
        "signer": "0x2112cF92f0036C588B2b7664710b64E29bD1a376"
      },
      {
        "passId": "462",
        "signer": "0xCAd3405b905e46f23eC346fdB30C5E3e7BAED02a"
      },
      {
        "passId": "463",
        "signer": "0xF5aF33725133712c0EA6D776920ABc24f3487B25"
      },
      {
        "passId": "464",
        "signer": "0x9DEa7c5C35361abB07e6E62d81C3c0A45FE0d0BC"
      },
      {
        "passId": "465",
        "signer": "0x6ccc66758C622aD66218176AFB00271f022B18b5"
      },
      {
        "passId": "466",
        "signer": "0xf50cc69513d05665b3F496F972e3E9538aDb3Cd9"
      },
      {
        "passId": "467",
        "signer": "0x6702a4B65AcA270f458209E785287F5715Df422b"
      },
      {
        "passId": "468",
        "signer": "0x0627F3F6021A7Ae01ce57a1Aa57365D2321B818A"
      },
      {
        "passId": "469",
        "signer": "0x153f5DA1F63CbAe04858137CE310AFD8E0038448"
      },
      {
        "passId": "470",
        "signer": "0xFEd5Fd1Bb00b394cDa56d267a5e280d37D5aF24f"
      },
      {
        "passId": "471",
        "signer": "0xFCdf75Ce51a5C7eEB36268485a42dC4627939F53"
      },
      {
        "passId": "472",
        "signer": "0x1621b559713857D17BCb749f11F047330f39f84a"
      },
      {
        "passId": "473",
        "signer": "0xF021f5149089bEEf0884d647aa3bf01f2D958214"
      },
      {
        "passId": "474",
        "signer": "0xbf11a59c4a032BaC0be29f62ad248e65af8d7232"
      },
      {
        "passId": "475",
        "signer": "0xD01bE1f7339d0D33c99c2449d674aDFD94E9b1B2"
      },
      {
        "passId": "476",
        "signer": "0x105d7a90F7939B60E0b7149d973a4f0868fEc9f6"
      },
      {
        "passId": "477",
        "signer": "0x94F53C08Ef8fa10267535f81C97AAbAAA706a6D6"
      },
      {
        "passId": "478",
        "signer": "0xA5bf800a162323660356144d08abF92Cd4eb7DA4"
      },
      {
        "passId": "479",
        "signer": "0x5Ff04FC0d58bd9443a3E6B295eF68a20E70cA5e9"
      },
      {
        "passId": "480",
        "signer": "0x157DF10Efc2226a97F772bAE2aADE567E2ac6ECe"
      },
      {
        "passId": "481",
        "signer": "0x0a0D428A5aB5C2D6E6612ad3c18c262e5380f56A"
      },
      {
        "passId": "482",
        "signer": "0x84DE9207a9ba9891Fc216F69c7E7441B8FCd682F"
      },
      {
        "passId": "483",
        "signer": "0xdfF15ac3a2f5E6aF66c83FAE45FD8962CAAbFFDA"
      },
      {
        "passId": "484",
        "signer": "0x173169D36E495dda99C4d9F34dFcE29B8D3B1B20"
      },
      {
        "passId": "485",
        "signer": "0xbC287bE8c4e11B0508b141AE01319A56Fb8013A8"
      },
      {
        "passId": "486",
        "signer": "0x8eeB2FD548B481f01Dd63540FE88e17B986C9d65"
      },
      {
        "passId": "487",
        "signer": "0xF9b97B6734A00b588AAeCA0aC5d2B6Bb2bcaf94A"
      },
      {
        "passId": "488",
        "signer": "0xD9c1b3903DDa74CFD7EB983e4E0E3f48A1E14531"
      },
      {
        "passId": "489",
        "signer": "0x20e2Bd7DFe9AD30A5198EB73eaB49Dd2AB21d33d"
      },
      {
        "passId": "490",
        "signer": "0x38fEBdf1bA6CC1676bE3a915E35A8b19d53f3704"
      },
      {
        "passId": "491",
        "signer": "0x325BDa01ec81123557af971F5Db5197385D45b95"
      },
      {
        "passId": "492",
        "signer": "0x762b5FA06Df4d521699C38950C2E4666b59C1B8A"
      },
      {
        "passId": "493",
        "signer": "0x5D9Bb8C241147f196C2b22Df7eC2da76CdCa3B50"
      },
      {
        "passId": "494",
        "signer": "0xBeF9EA0900f430eBFF7DA6334fAf21893D09ECbd"
      },
      {
        "passId": "495",
        "signer": "0x86487cddB8e7f89267338D1BcDADb7913ae85A7C"
      },
      {
        "passId": "496",
        "signer": "0xB4eafd481A2eeF717031B7286A84B0F522348eef"
      },
      {
        "passId": "497",
        "signer": "0xbe6aA6c19dEf2f008C60d1C44d15a7E0AB264144"
      },
      {
        "passId": "498",
        "signer": "0xCc56D91A6cE8A0b17e5137a6A7dEe5c0f9CDBb48"
      },
      {
        "passId": "499",
        "signer": "0x6add7C3000bF699a964d379eF55aDB5896b79E31"
      },
      {
        "passId": "500",
        "signer": "0xad2698CE88A0B3DEc7978BE24A68Ec622F6eA9A3"
      },
      {
        "passId": "501",
        "signer": "0x9478a1b02aBeb3EC5fFa6A311089B9C9F2cB466B"
      },
      {
        "passId": "502",
        "signer": "0x0158ff9a56dFdf2a0D6cB9cEA030CC5011c01dd7"
      },
      {
        "passId": "503",
        "signer": "0x3311aea59980F234dc7A6bEe0cC699B31dB3C304"
      },
      {
        "passId": "504",
        "signer": "0xE84A6e9E43E6D305Bab008651A4f820e920FF410"
      },
      {
        "passId": "505",
        "signer": "0x7f6527836991951045c0C6a2F8623511fC78f775"
      },
      {
        "passId": "506",
        "signer": "0xA32495ED36CaFfF97EA46f582fd1d52dd6e5b1cd"
      },
      {
        "passId": "507",
        "signer": "0x6fFEf806a3d78304eeB136008f09cDc8Ee5D3DAD"
      },
      {
        "passId": "508",
        "signer": "0x78cDA873EcFFE0337E7D58F84C1713AFa6B91bC7"
      },
      {
        "passId": "509",
        "signer": "0xaa1c0e886cf3B74B72BD4B8f0f22270664E1A01E"
      },
      {
        "passId": "510",
        "signer": "0x303af8A992e76e02ef6783ae8ac0ddF525D598Be"
      },
      {
        "passId": "511",
        "signer": "0xDb23C5B52c84532ECC672579ec652E2328F5A93B"
      },
      {
        "passId": "512",
        "signer": "0x3db4E65D82Fba45E8Fc8d188e4a1D97f2B353956"
      },
      {
        "passId": "513",
        "signer": "0x9852Aa11D44D2057822B845aa942C83D6A846157"
      },
      {
        "passId": "514",
        "signer": "0x3016c0519B9532DBF47669C3ADBf1443D9E67e19"
      },
      {
        "passId": "515",
        "signer": "0x630893cc871882202A1751abe5BDB4A7eCD266b3"
      },
      {
        "passId": "516",
        "signer": "0x247D1fDEB77875a0A6B7505c5cD84129d6CC8897"
      },
      {
        "passId": "517",
        "signer": "0xCCf74f8c856276Ea1FD68b419697BC166aB430CD"
      },
      {
        "passId": "518",
        "signer": "0x12551dB60Cf27D66ba47463F0C0940B747Bbc80b"
      },
      {
        "passId": "519",
        "signer": "0xdc81370faB3679b24DA880f4De792f15DC65F025"
      },
      {
        "passId": "520",
        "signer": "0xD4689C6bE0cDa8BC9FE476D872D22c730B444604"
      },
      {
        "passId": "521",
        "signer": "0x8ae35285C41A867cA2A59046F85AcAF72a92B1BE"
      },
      {
        "passId": "522",
        "signer": "0xFDD5D4BdD961a1E703Ec8a918621f2aa7aA8D319"
      },
      {
        "passId": "523",
        "signer": "0x2bC265480976E2bB9B14807732491d25c53FC141"
      },
      {
        "passId": "524",
        "signer": "0x19877B071F90179F5eB39c264012E87b672A8706"
      },
      {
        "passId": "525",
        "signer": "0xaFBE8347422D0Fa4521E32b954d1076d9ea95A7F"
      },
      {
        "passId": "526",
        "signer": "0x16fd473D7ce52D633076D7C19a53512CeC7597ad"
      },
      {
        "passId": "527",
        "signer": "0xA00d7aB217db13E354482A4D697BFBe207f051AE"
      },
      {
        "passId": "528",
        "signer": "0x3ADE13F7d3eBE5c89a44FB28a7E75cdF4FB20Af7"
      },
      {
        "passId": "529",
        "signer": "0x90bE2209C25CC977472634b3B56E74A1b8e98F46"
      },
      {
        "passId": "530",
        "signer": "0xFB8660eAe277417B544f3620e0583C38c22d7831"
      },
      {
        "passId": "531",
        "signer": "0xF7c8B51a4d056498d43E5e6D9953BdE806f041Ad"
      },
      {
        "passId": "532",
        "signer": "0xE61fb1bEd4acAdfdbd6De38Ef8066972D9B533d4"
      },
      {
        "passId": "533",
        "signer": "0x6497a96BaB19DDEA1caA0CcaFb830A9A81DC2632"
      },
      {
        "passId": "534",
        "signer": "0x711d7Bd7450556D195E2Dc8E4e1cbcD94429095b"
      },
      {
        "passId": "535",
        "signer": "0x3A39417480B80Ea25890b2De76375aa3D0d7e860"
      },
      {
        "passId": "536",
        "signer": "0xea4986B14a9E98B01A615349874b8Baa407Aa845"
      },
      {
        "passId": "537",
        "signer": "0x95A3519473b9f9e10AB83cdCF9d1Aa74c47FBaB9"
      },
      {
        "passId": "538",
        "signer": "0x0C21D2E0B1D931076B98E63af3cD6983Fe4e881C"
      },
      {
        "passId": "539",
        "signer": "0x788E58F319999E6b3EA3dE99caa11bebA72D2107"
      },
      {
        "passId": "540",
        "signer": "0xC01939e91a4598761c828C9f7c0535Ad330CB2dA"
      },
      {
        "passId": "541",
        "signer": "0x222e5f53F5aa7664da523688C9cCDA9ACE3F40BE"
      },
      {
        "passId": "542",
        "signer": "0xa530Ff4C1CA72DA392D02003f87E5579Dc37C292"
      },
      {
        "passId": "543",
        "signer": "0x3767C4DA3652A9ce82ed2c2a17848e7fF60951c1"
      },
      {
        "passId": "544",
        "signer": "0x5B26BDcc009968b145ca73Af58712B78556Ff953"
      },
      {
        "passId": "545",
        "signer": "0x62f067458CcD2e27aC91B1Fb2f4Cd735a52031B4"
      },
      {
        "passId": "546",
        "signer": "0xcE281Ad5f44D4D797e2c4e935DD457f319BB94Bb"
      },
      {
        "passId": "547",
        "signer": "0x453c05CAB7EF6f3D62A39Bd4397d88301490224D"
      },
      {
        "passId": "548",
        "signer": "0x4F8623dc8F4Bf3b61f5032F9aFaa9Aa2EA438109"
      },
      {
        "passId": "549",
        "signer": "0xDf5EA8837eB41C44378fa123A87D67B91e297b03"
      },
      {
        "passId": "550",
        "signer": "0xBb7E87cAd39f83b73B8Cb157CDfeD92814fCec99"
      },
      {
        "passId": "551",
        "signer": "0xfF61cdf94c18B3c72eA45eD04ce69e0d1872A620"
      },
      {
        "passId": "552",
        "signer": "0xA1888D22fAD080d0FF1e58deD83f8Af3B7A70ca7"
      },
      {
        "passId": "553",
        "signer": "0xE6a4A04060D32ab81f4579d05f40709140B64200"
      },
      {
        "passId": "554",
        "signer": "0x51F38eEc16F93372E1Fa0d4903d9546EbE73543a"
      },
      {
        "passId": "555",
        "signer": "0xa54D87FDb55744bADef75f381eC0083a36Bc6Ed4"
      },
      {
        "passId": "556",
        "signer": "0x2896c10b508738d1b30b6Ba608c0D9a74EDa2e87"
      },
      {
        "passId": "557",
        "signer": "0xD4efa91891184A72eD9c3df03dB110720aeE885b"
      },
      {
        "passId": "558",
        "signer": "0xB9572f2101e882B56c8FD3b741e099efD11b5664"
      },
      {
        "passId": "559",
        "signer": "0x46619e77544242121Cc8D1bA9f8A960fBd5f7D09"
      },
      {
        "passId": "560",
        "signer": "0xE09877618fbBa87f4A0a6Bc47361b631c9DD2741"
      },
      {
        "passId": "561",
        "signer": "0xA0145C3890679f0449c823040A8bAD3E3D8F667F"
      },
      {
        "passId": "562",
        "signer": "0xDB47fA68F7078601fE937bEa4aD2e0A04Bc79b53"
      },
      {
        "passId": "563",
        "signer": "0x03599dEC555f028e62dE1611574b77194Ae5588f"
      },
      {
        "passId": "564",
        "signer": "0x5B4cffDc25CEad1E7e58c120186467F2ffaA66Fc"
      },
      {
        "passId": "565",
        "signer": "0x9cB968c1F027258F95aDE0Ffdad75e4Fd2F11770"
      },
      {
        "passId": "566",
        "signer": "0x0782bd5b636c213801be039D91b3fF150B2c9733"
      },
      {
        "passId": "567",
        "signer": "0x0590b568854C4AF2CB8b19F2683c4ab77077326e"
      },
      {
        "passId": "568",
        "signer": "0xE1D6D614a1D9dA8E9e1B28dbc898768B1972f5E9"
      },
      {
        "passId": "569",
        "signer": "0xE9ba99d7201BCE233A7631d2038017102D6b9b89"
      },
      {
        "passId": "570",
        "signer": "0x7134FEC9B2B9F62EbDe72C7D38A14b47a5830A5e"
      },
      {
        "passId": "571",
        "signer": "0x3e2d98e13C079D7869EB3D135789Bb0f8d76A345"
      },
      {
        "passId": "572",
        "signer": "0x9f8C880A97afA1B72e032fb76aAc337fdAa866A4"
      },
      {
        "passId": "573",
        "signer": "0x868EE1258b2D454256584b80AEf39CF831640078"
      },
      {
        "passId": "574",
        "signer": "0x6e6faAFbdd07fF1ca12afF0F52d35821ABA197C5"
      },
      {
        "passId": "575",
        "signer": "0x75E8ee962E5AF90932a5308e2C7257b6A43D8bde"
      },
      {
        "passId": "576",
        "signer": "0x958C6661775920EB2C8F45c5989F7C9F9f27c9BE"
      },
      {
        "passId": "577",
        "signer": "0x68c2efc5Eb3C1C28EB89491A0607a67AF32895aC"
      },
      {
        "passId": "578",
        "signer": "0x83d9FfD26D241533e2E1935D244D4E66aAeCa07e"
      },
      {
        "passId": "579",
        "signer": "0x168C5300b36F99F5910C74fe6E044F19832Cc0Df"
      },
      {
        "passId": "580",
        "signer": "0xa84a9174692cE0d386360f4F56e0859DfEDa3937"
      },
      {
        "passId": "581",
        "signer": "0x1D807B4b013297Fe9be35de0a879c75a86361504"
      },
      {
        "passId": "582",
        "signer": "0x2EDD18266bE5aC79E8ff14cA9b535aa1A2Dbb372"
      },
      {
        "passId": "583",
        "signer": "0xDDaD455D8BbD859f1625D041256BB0bcF4F14415"
      },
      {
        "passId": "584",
        "signer": "0xf0024D550769acB3Ad50EDc298E886D3fa3EBE46"
      },
      {
        "passId": "585",
        "signer": "0x8ae4dD0cD35BDdcE30beE6524B46D071342f67AC"
      },
      {
        "passId": "586",
        "signer": "0x5371Ca9Ef34aC66941cFA379A36e67DA48cbdAfa"
      },
      {
        "passId": "587",
        "signer": "0xB596550a23dd9F5C403428A5b6e4106A044926AC"
      },
      {
        "passId": "588",
        "signer": "0x4050C0b58a2fC0dF3a3a00f626b87AFC64060035"
      },
      {
        "passId": "589",
        "signer": "0x8B550DEd8B0FEFA9da36E38859FC6d633171BD54"
      },
      {
        "passId": "590",
        "signer": "0xB52A2b5586Be0C1C42510E5d9d4e428BFAc8F824"
      },
      {
        "passId": "591",
        "signer": "0x45Ae6E53be6AFca56f3fd9b87825376d33258e92"
      },
      {
        "passId": "592",
        "signer": "0xF34deee6dDB8FC9E3d185E8bAA61eee2f9FE8d2a"
      },
      {
        "passId": "593",
        "signer": "0x53a7a1d005441d44692c1A22d2F5cFAb1F8c1D58"
      },
      {
        "passId": "594",
        "signer": "0x207BcCd4557B1a366e11eDE42E1cCeA76A415007"
      },
      {
        "passId": "595",
        "signer": "0x782Ae371b9071C4Eb291080E6c35077dF1CA1a40"
      },
      {
        "passId": "596",
        "signer": "0xBf7d09DA62fA8AA7c08640C16493780b652097F6"
      },
      {
        "passId": "597",
        "signer": "0x24CdbE77ddAEFdBd8a5B5aB4784755C05d79c68C"
      },
      {
        "passId": "598",
        "signer": "0x3b7F1D19A34f3828B67F6820d3025aa1aE4cf177"
      },
      {
        "passId": "599",
        "signer": "0x8F664c76E742FC484b92E57300aBEdDdC146Bd11"
      },
      {
        "passId": "600",
        "signer": "0x75E3b1B59D03d7f2A142021BF46B71F26a288C0d"
      },
      {
        "passId": "601",
        "signer": "0xEe08A0B4ddc89DBc19240931b418892376a6ef8b"
      },
      {
        "passId": "602",
        "signer": "0xbF242625cB901fE80F91FD5Eea4a341f829C6160"
      },
      {
        "passId": "603",
        "signer": "0x9660a5f7407178031eA9BE14183f9E245658a8Ea"
      },
      {
        "passId": "604",
        "signer": "0x98f3626eE6cB02683Eb12719AA3221e0d806A611"
      },
      {
        "passId": "605",
        "signer": "0xf4E5ff9Ff9420502712868A8a395c2AACE8acA1e"
      },
      {
        "passId": "606",
        "signer": "0xB76C8D2858D0A0033543CD21EBC82E34bb5B6088"
      },
      {
        "passId": "607",
        "signer": "0x4add0d2bB7396680D50D327d134ffB77ceA5Db4e"
      },
      {
        "passId": "608",
        "signer": "0xa04d553dB2502740cF75F9425D64A88252a377ab"
      },
      {
        "passId": "609",
        "signer": "0x8DFB3645B12932D7c82e35c9C6913c832C5B41c4"
      },
      {
        "passId": "610",
        "signer": "0x595AD1E958c81f8fbF32419c3920e841a41C06ec"
      },
      {
        "passId": "611",
        "signer": "0x56728f3513Dc5b7117fA36f9fAacDec8d6c37C33"
      },
      {
        "passId": "612",
        "signer": "0x720Bdb6357073691904f3695433A62d19fE207bA"
      },
      {
        "passId": "613",
        "signer": "0x8771e38FE395674dC8Fdf8bbcD99C8d7B2c29611"
      },
      {
        "passId": "614",
        "signer": "0x99D7E5b9b15A7a58D464E21F535e2365D4935E43"
      },
      {
        "passId": "615",
        "signer": "0x58003CF6fA2651c409b78589c33715Df79c70b82"
      },
      {
        "passId": "616",
        "signer": "0xeD73aF6B55229b75f10BDFb75D84d9C707969430"
      },
      {
        "passId": "617",
        "signer": "0xcFe159AeC6a9a6fcEFA1893b3c075208743030Ec"
      },
      {
        "passId": "618",
        "signer": "0x67447Cc4170EE08440B825794E90E35eBFa145De"
      },
      {
        "passId": "619",
        "signer": "0x6745288929872eEEfDA7B0Bc3f1Ed517796C11AC"
      },
      {
        "passId": "620",
        "signer": "0xBbCB1b80cE983245ac014caB3fc880548C42cC72"
      },
      {
        "passId": "621",
        "signer": "0xC1bdF1c8C82A9C0b9D16C84ef4c85Be9e913939f"
      },
      {
        "passId": "622",
        "signer": "0x31f8ba712Adcf46c597ceB4A5a29B5A3A305E67B"
      },
      {
        "passId": "623",
        "signer": "0xA749269362500Bf7588D9b31D4a019DA5A0b1f33"
      },
      {
        "passId": "624",
        "signer": "0xE35E9B41E054ae92459aF144eD8fa94DAfBa4A7b"
      },
      {
        "passId": "625",
        "signer": "0xB27Bf912A1f0F944f4F0dA0eEB34F74E1EefA004"
      },
      {
        "passId": "626",
        "signer": "0xf80c326921412444cf88E2F695fd46ebE962A349"
      },
      {
        "passId": "627",
        "signer": "0x8FD7099353705798a5AfDC9FD40e78dF2272678C"
      },
      {
        "passId": "628",
        "signer": "0xad77ACc668555CE9F60004F5dEb94c6d02dE2185"
      },
      {
        "passId": "629",
        "signer": "0x44fcfc1ca3AD6dDd34f30BF0f2AbF34D8af92E68"
      },
      {
        "passId": "630",
        "signer": "0x910fCCD7A16Ac2b6D61D6860DE134cDB2DA40d5e"
      },
      {
        "passId": "631",
        "signer": "0x483e48A87a04158b951FacF839E120C898b9bf56"
      },
      {
        "passId": "632",
        "signer": "0x446198825FFaEE26A3EADA1c9F24F4311B253Bb6"
      },
      {
        "passId": "633",
        "signer": "0x7AA4d7554f5AdF6E6eCe467f8824CC61D9665df5"
      },
      {
        "passId": "634",
        "signer": "0xFE98622645fF5F2cA3F638AdfA1510aE756E82Fa"
      },
      {
        "passId": "635",
        "signer": "0xb364181C6e34418A6c0a1546380bF17fa86aBe90"
      },
      {
        "passId": "636",
        "signer": "0x97fF08307Dc71cBC86dF518c1d076bb3213ca79C"
      },
      {
        "passId": "637",
        "signer": "0x71dd8e0CfA37f7297b819535f8953C480D2da947"
      },
      {
        "passId": "638",
        "signer": "0x150E9A370753435c7940d1868354dc6b86a74726"
      },
      {
        "passId": "639",
        "signer": "0xa8e71d83A6bF7648cC5822104bF483EB8aD97781"
      },
      {
        "passId": "640",
        "signer": "0xaF84475740217AaEAc458Dd877b969d7E822D64c"
      },
      {
        "passId": "641",
        "signer": "0x348695Ad028D3891861B93B325b73F2d44CDB004"
      },
      {
        "passId": "642",
        "signer": "0xD319211e894c8Df277c5cd420d0a326d98C888B5"
      },
      {
        "passId": "643",
        "signer": "0x7E04ECA9858Ad4Dc4f57D636Df3A1e64A2e0Db38"
      },
      {
        "passId": "644",
        "signer": "0x2D62c4821de0FE3532AC224136c3BD031aCca535"
      },
      {
        "passId": "645",
        "signer": "0xFce709dD7519B4E2E49C2286294C6407866E5931"
      },
      {
        "passId": "646",
        "signer": "0x825FAe079B5b28CB42d2229a74Ff3116e2e0084c"
      },
      {
        "passId": "647",
        "signer": "0xBa75a8907F2DEF5e10DE6D729430576e8ECd2d1E"
      },
      {
        "passId": "648",
        "signer": "0x48f6FF2A1d9bF5d2c8d7B9d337bD0bb5e13D345b"
      },
      {
        "passId": "649",
        "signer": "0xf540b5A172Cdf109c7a5141e93db41f70bDf8171"
      },
      {
        "passId": "650",
        "signer": "0x38f7Fc623e12eE823230f99e7f5A36AB605490CC"
      },
      {
        "passId": "651",
        "signer": "0x6BbE5D8169FF2270135f6386E7c0de9b585e4e5e"
      },
      {
        "passId": "652",
        "signer": "0x2979AE3e273E7328E52602773820DF11F2477A1b"
      },
      {
        "passId": "653",
        "signer": "0xd6F790A37Dd60829AFf6d4efa8A60Cefd463A820"
      },
      {
        "passId": "654",
        "signer": "0xf7579b34019EeC2be5Cb997b32c550Be02789FAe"
      },
      {
        "passId": "655",
        "signer": "0xD2b93704ca00dfC3C1BB7c488da1E647ADC337D4"
      },
      {
        "passId": "656",
        "signer": "0xb4Afbb45F00BFd21235C43C7743F06A99c37529F"
      },
      {
        "passId": "657",
        "signer": "0xd9986EA0258Fa7CB05238aD148b17D58E8e8D4f0"
      },
      {
        "passId": "658",
        "signer": "0x773113D3f058994E11984bAd64f4Ce70ae24d9Ce"
      },
      {
        "passId": "659",
        "signer": "0xbB974Ab1F8E7C1E4F3Cc7415AAAe4F91F1344cEC"
      },
      {
        "passId": "660",
        "signer": "0xA1F19d4F8725e6009bbFCd7cB258855498Ec001E"
      },
      {
        "passId": "661",
        "signer": "0x8a5F41cFF9Cec445e97C007f5100F743631A1CaE"
      },
      {
        "passId": "662",
        "signer": "0x2100cC75ac12BABaCE024f599A9b25Bb47E97C44"
      },
      {
        "passId": "663",
        "signer": "0x02A0E0F63210fB14c6A18889D8daab0BD252F93e"
      },
      {
        "passId": "664",
        "signer": "0x08e7db634f66b2a8CB0191dcd2C7a619f6de590c"
      },
      {
        "passId": "665",
        "signer": "0x8c3A2014634312e98AB7C14Cd865b1b25B9470D7"
      },
      {
        "passId": "666",
        "signer": "0x519b41a531A6DfA347c1430ED74C42ceb91d3A46"
      },
      {
        "passId": "667",
        "signer": "0x66520E2ca05CE1De33D689a749C870F04CA2cA43"
      },
      {
        "passId": "668",
        "signer": "0x5D3bE3467570Fa0d4bb4Ad5aa195d761a2426E9B"
      },
      {
        "passId": "669",
        "signer": "0x6cE5a5aEa8C1350c0A20a41803618D89352CCf46"
      },
      {
        "passId": "670",
        "signer": "0xc421095464Bc1433edb368E40dE1Cd5f6101C54d"
      },
      {
        "passId": "671",
        "signer": "0xB1223895Aa04C1a9275EE1c7f17Ebb14B56C30f6"
      },
      {
        "passId": "672",
        "signer": "0x405961e1C51059ca422b91d9fBe56474ce67c2cE"
      },
      {
        "passId": "673",
        "signer": "0x330F9596411Ffaf48261115f9f47Bd1b74d2d490"
      },
      {
        "passId": "674",
        "signer": "0x329Acb945952Cd30caf6e25b27cC0C073FE90A4D"
      },
      {
        "passId": "675",
        "signer": "0x260750FcB9f05D0412145c0B820D53f7B2052d63"
      },
      {
        "passId": "676",
        "signer": "0x745939529a567Aff36695d5D57D9D989290b7678"
      },
      {
        "passId": "677",
        "signer": "0xFCc601D87Cdee84aE2469eBe439De030ba5bf5B2"
      },
      {
        "passId": "678",
        "signer": "0x189678691790f968df4ce000D1Ab5d72C8e5e947"
      },
      {
        "passId": "679",
        "signer": "0x9aa0b0A1c3Fe71E378e4a640e6f570Cd2EfC9B11"
      },
      {
        "passId": "680",
        "signer": "0x7f517b4379edED19777C6BB16DAd0006C5bacffB"
      },
      {
        "passId": "681",
        "signer": "0xfE3cFE9ADdC6a6aDDea9DC44530cb3b6BB4f849b"
      },
      {
        "passId": "682",
        "signer": "0x7B64A2418061CA78ddada11b1D5eEC9823528408"
      },
      {
        "passId": "683",
        "signer": "0x1c4Aaa153A0b828aE77Ee29668236D46e47A7504"
      },
      {
        "passId": "684",
        "signer": "0xC01691b238d92Ddd6a4128C14b007C5A8DC530C3"
      },
      {
        "passId": "685",
        "signer": "0x03aF5fa6e25dA875b14b3D795FBEf4fd3c0f8af1"
      },
      {
        "passId": "686",
        "signer": "0x5d2753aFd4430eF2c6F0F1B0153d09c022187426"
      },
      {
        "passId": "687",
        "signer": "0x77212220b9614be86c19d7A61677f7d5Ea4A63BF"
      },
      {
        "passId": "688",
        "signer": "0x0c36e37d83049f5f57dA4F5824ae127020551FA7"
      },
      {
        "passId": "689",
        "signer": "0x9dDc221Ef5050E5c0aAc0499E069370e96D213C7"
      },
      {
        "passId": "690",
        "signer": "0x2a5a805fFE4d4cAcd9f6D12eAD67A85E55130e5A"
      },
      {
        "passId": "691",
        "signer": "0xDEeA9732254667eBD20f2D096c02F07a75244b53"
      },
      {
        "passId": "692",
        "signer": "0x1e523E9AD401700656ba31F01925969D0054455F"
      },
      {
        "passId": "693",
        "signer": "0x7a0c49f6E2cd8205f1541E548847183246a999cd"
      },
      {
        "passId": "694",
        "signer": "0x634cB6e641B8bdC3Ee3B7112a7980D3886f95260"
      },
      {
        "passId": "695",
        "signer": "0xF2059659E69c27E441085A060b942157D237df05"
      },
      {
        "passId": "696",
        "signer": "0x53AcD9970D9a30ceCf0d7099d205ed655ee11545"
      },
      {
        "passId": "697",
        "signer": "0x59dD2BA529634439A2Ebd5d5E8C4F71ed37b6FE3"
      },
      {
        "passId": "698",
        "signer": "0x3C3fcE06a55bF49761DfdC483ef69265b63221E1"
      },
      {
        "passId": "699",
        "signer": "0x7A98D0AAF4442Bc7661c5143f6394c781D7c6a20"
      },
      {
        "passId": "700",
        "signer": "0x0A3176BD2bB0201B8303b0412028e578990b278d"
      },
      {
        "passId": "701",
        "signer": "0xC4a6340A774c6D537F6f7D90bE117DCDD6E8CB7E"
      },
      {
        "passId": "702",
        "signer": "0xfA311943155A969De20154a4c473BB0b962b2e90"
      },
      {
        "passId": "703",
        "signer": "0x0dBC651151DC2bF99a7389F6c074917b3313CCe7"
      },
      {
        "passId": "704",
        "signer": "0x85c3C9532F6a4C5a27808fd0F0bd60Df3c78B557"
      },
      {
        "passId": "705",
        "signer": "0xCF8cD8a4E05dFe0767D2fe123aE286AB718CD238"
      },
      {
        "passId": "706",
        "signer": "0xc39c5673dfBdE20fF058A3E63f88c76FCE47F2Fd"
      },
      {
        "passId": "707",
        "signer": "0xf1Cd187B37e0F574Be6C9AD38DCcf4C46B9D64Cf"
      },
      {
        "passId": "708",
        "signer": "0xb6E5986F667668526e28E473eb4F6CF2bdB62D6e"
      },
      {
        "passId": "709",
        "signer": "0x15Dd38402CC6ff8A4a9235e945B1C16c874EcC7E"
      },
      {
        "passId": "710",
        "signer": "0xA1a433C3AcceC649f78fA11bDd3D28afed96fd52"
      },
      {
        "passId": "711",
        "signer": "0xef5ECE02778f7101D307265956D170c528A68a73"
      },
      {
        "passId": "712",
        "signer": "0x841F057c4a1A275c0e5e22de5Bd7fd6705486F69"
      },
      {
        "passId": "713",
        "signer": "0xd9E8fAb3A9e89ed6f9C937633C684219e873899B"
      },
      {
        "passId": "714",
        "signer": "0x87bDff24351d32F785E551b54f0CC192F7675c61"
      },
      {
        "passId": "715",
        "signer": "0x0BF21c57c1F340d749F9a71DCB1B7f80C5e18547"
      },
      {
        "passId": "716",
        "signer": "0x3BA892daE99a531EADa8e2483000870fAd956B69"
      },
      {
        "passId": "717",
        "signer": "0x3C48E9eb309fA59D75b0C990e7b7592302C3005F"
      },
      {
        "passId": "718",
        "signer": "0x9DB9Efea186B0F78137bd167BEC0a36C0d2629fe"
      },
      {
        "passId": "719",
        "signer": "0x9ea315413eCA0D7B9568448Bd293aa3dF8215f1a"
      },
      {
        "passId": "720",
        "signer": "0xd59A3d37618d7259479a305Ca246a1Ce42e34a96"
      },
      {
        "passId": "721",
        "signer": "0x0bcFFc0aB671e3CC6912371de49A043432e669D0"
      },
      {
        "passId": "722",
        "signer": "0xDB6857f0ee3D431105F0be36Aebc802EcDc72E21"
      },
      {
        "passId": "723",
        "signer": "0x898A0BE6F0D43ea6E6B8639664c94d8Ae842EB85"
      },
      {
        "passId": "724",
        "signer": "0x931770f76E2DFD6C82F1C17999b3F6482DBf92Bb"
      },
      {
        "passId": "725",
        "signer": "0x2756815A4e48CB2956eCd4Ed24d189EFdF5dD399"
      },
      {
        "passId": "726",
        "signer": "0xca867CF02F0309C801CB12c2fc717A9e5F630e1a"
      },
      {
        "passId": "727",
        "signer": "0x4CA4e450EDAc4e1D5EC0f15FA351c2A89A82a7CB"
      },
      {
        "passId": "728",
        "signer": "0x3247bcdc33f5C429cE5Dd00D71928d6ABEF1bF28"
      },
      {
        "passId": "729",
        "signer": "0xf6Adc5fc9E85930732a58413ec5DCe2817a66Ea0"
      },
      {
        "passId": "730",
        "signer": "0xb41f896D7762F993DE8f2910D39F3B801Ef624b4"
      },
      {
        "passId": "731",
        "signer": "0x47af4FD769eB57af63DB24569894213b730F7aa1"
      },
      {
        "passId": "732",
        "signer": "0x2966124161723bb5d38Df88050a3e1d6579638d2"
      },
      {
        "passId": "733",
        "signer": "0x5b3FAAfeE255d5023a85229207C455dD96FdaE4d"
      },
      {
        "passId": "734",
        "signer": "0xb0869B282b9BDB8912CAf846Edf80Ec05d06B79d"
      },
      {
        "passId": "735",
        "signer": "0xA3E9469D3516A19Fef2cBB7052dB12e1D1A9A950"
      },
      {
        "passId": "736",
        "signer": "0xb64085dD3ab7e27f7A1aFC5f4f7d5f040333E8C8"
      },
      {
        "passId": "737",
        "signer": "0x0B8f4CB40a713ED3281e6e76FCB7dA9cb056DF8E"
      },
      {
        "passId": "738",
        "signer": "0x57e794C0320213fD01A7475961FeB9B6bd9A9b32"
      },
      {
        "passId": "739",
        "signer": "0x3B8741D77aDb2c8A856dB21DD9B35734f99eA97F"
      },
      {
        "passId": "740",
        "signer": "0x026e3B9D740D34bb06781DEFB937C9Bd47B8d20b"
      },
      {
        "passId": "741",
        "signer": "0xdd1DdA62B42d8075Ad8319517747E51E65Cc8740"
      },
      {
        "passId": "742",
        "signer": "0x2DdcbA57447758Cf61513A850FC2A0bb90bDeAca"
      },
      {
        "passId": "743",
        "signer": "0x85B277848cf808224F100eb882bCCFF23B271c5c"
      },
      {
        "passId": "744",
        "signer": "0x24056bbd7222051abBe8d91C398fc9Ea7D61B950"
      },
      {
        "passId": "745",
        "signer": "0x826dea62a3A3221A0a8F2Be946cd4bb4e5eF3D1a"
      },
      {
        "passId": "746",
        "signer": "0xA67Fb28534DC4AE6bDDa5Ec0cadcc4Dd5ff712b2"
      },
      {
        "passId": "747",
        "signer": "0x1E86005031FC0c1FBa2e8ACbA172024031b34934"
      },
      {
        "passId": "748",
        "signer": "0xC207fe75cd92Cd4cEAC3c328f5e32739039B2033"
      },
      {
        "passId": "749",
        "signer": "0x3E89D7C620b42219D9A18C58BBAC3136B10dfa5c"
      },
      {
        "passId": "750",
        "signer": "0x25E97939b7502e5D2eFD0Be63c6aa750488E5DB8"
      },
      {
        "passId": "751",
        "signer": "0x80C042e6719ABAF6E1Bc738D48FC065A67704fB2"
      },
      {
        "passId": "752",
        "signer": "0x78AB7AD120bB38256721D534FafeBd8D69677Acf"
      },
      {
        "passId": "753",
        "signer": "0xBe4a30df5AD5b60f3F16b1505c1c07AeB8fba5fB"
      },
      {
        "passId": "754",
        "signer": "0x125BbBE41f8f25F7B27d0cd050B3D653b32a6e30"
      },
      {
        "passId": "755",
        "signer": "0x65b6e7E68a6659191039965FeF58DaF08Efb5FBf"
      },
      {
        "passId": "756",
        "signer": "0x58855FE1a720e4f0A171eb79669a65C7a5c1881F"
      },
      {
        "passId": "757",
        "signer": "0x534bb4516d669eA53A0b6BD89A4F36E20786856c"
      },
      {
        "passId": "758",
        "signer": "0x03BEef6e2aa5522801B9Bc7941617cb96a2C8c6D"
      },
      {
        "passId": "759",
        "signer": "0xA17b7c6ED1F3EB13dAa7C8E9151433237688C1d0"
      },
      {
        "passId": "760",
        "signer": "0x632b66d7D656f58d3228237385FbF5247A29D9d3"
      },
      {
        "passId": "761",
        "signer": "0xA462409C1c119e242960B1ec555184acF781D0D0"
      },
      {
        "passId": "762",
        "signer": "0x867534a56D73585F133A2fd97649716C1B5a9d89"
      },
      {
        "passId": "763",
        "signer": "0x37f49377E124b2eF0D58Ba586caeDa75fdDdDFB6"
      },
      {
        "passId": "764",
        "signer": "0xD1c2caA05cb515FEc37356738e135ec557171523"
      },
      {
        "passId": "765",
        "signer": "0x147ea8563f0cDfb09C5cbdE7464E881Dd414aCF2"
      },
      {
        "passId": "766",
        "signer": "0xa68aed91dc2AFf32Fc0d840897Bbf0fc1140a06F"
      },
      {
        "passId": "767",
        "signer": "0x907557a8771005b95F10360FC24BE8B8B8466304"
      },
      {
        "passId": "768",
        "signer": "0x6BF0ab444B4B0163Fb15478C1ecAa9859E68f419"
      },
      {
        "passId": "769",
        "signer": "0x7fb38607DD820899d91Fe5d2a9A7398642F4A53F"
      },
      {
        "passId": "770",
        "signer": "0xe381db144C79E633A2E7fA355AD87f329d9E4639"
      },
      {
        "passId": "771",
        "signer": "0x2967744fb3b8Db8A3D80140532c9632daE2C292B"
      },
      {
        "passId": "772",
        "signer": "0xc028D7d9202D58d57DBe2dB6eFb11BF00E612deE"
      },
      {
        "passId": "773",
        "signer": "0x76318682DB88E2418f78d9b9fA1b825BBE73f5Ad"
      },
      {
        "passId": "774",
        "signer": "0x5CcEFD448764596c6B142E8d69a0812115b2b770"
      },
      {
        "passId": "775",
        "signer": "0x08E4fEb16Fa0E9670b52f0F4CE53215c30AeeDEd"
      },
      {
        "passId": "776",
        "signer": "0xD7da099D0690E0F98CeD3494D6F86b8fd89618f8"
      },
      {
        "passId": "777",
        "signer": "0x390bb4fcCBB27844333cE940Beaa103f7Af4E7EC"
      },
      {
        "passId": "778",
        "signer": "0x04A2Af4C1174D05223e8e8E31Da11EafBB936174"
      },
      {
        "passId": "779",
        "signer": "0x9BCDb73C5A5cfE2Ba19F6Ef044E0e42aA41e8D4B"
      },
      {
        "passId": "780",
        "signer": "0xA17874A395Ac43109512E10D9794efD931918CCb"
      },
      {
        "passId": "781",
        "signer": "0x3Ee004596bAef51ca1E4Ed9646627bfF791f0d1b"
      },
      {
        "passId": "782",
        "signer": "0x8bF7EC2aA93b41bD9c5C6475E6c59aF618527D7e"
      },
      {
        "passId": "783",
        "signer": "0xfaF637304fF767A77418F8CcAF18b335fA871154"
      },
      {
        "passId": "784",
        "signer": "0x14f52A87d0F2f22E0b9dA768C92233884571953C"
      },
      {
        "passId": "785",
        "signer": "0x90c317c8155FAce1D3D15CD8ad44e1B81DC25069"
      },
      {
        "passId": "786",
        "signer": "0x2Afc9ba704CAf6eA2c41A6f1f14bCa87f0fFd037"
      },
      {
        "passId": "787",
        "signer": "0x04927E735a4CEec9E1140E04111086D29e205e3D"
      },
      {
        "passId": "788",
        "signer": "0xec42990Ad7C0dE4932e8e012FC6B1Cf45C490D43"
      },
      {
        "passId": "789",
        "signer": "0x43948BA16a38cB8ADb56720E26dA06a93D6F311b"
      },
      {
        "passId": "790",
        "signer": "0xfc9c54f5CCceCC11ac87a3bC7766a889Fa5687E1"
      },
      {
        "passId": "791",
        "signer": "0x8362Fd9BCfA3a173f787ADd12A038e4ddF6A006f"
      },
      {
        "passId": "792",
        "signer": "0xf3064D605Ff5e04B7aCD345892212de0dd3336ad"
      },
      {
        "passId": "793",
        "signer": "0x2d3E58322280286Afa98708682B4C6eFCe640a04"
      },
      {
        "passId": "794",
        "signer": "0x3C081253a47E4952234f8dE2b897c932B83BdeaD"
      },
      {
        "passId": "795",
        "signer": "0xc29ebEb6A26cCD43b109d3C6eAfbd5dA4c9162D3"
      },
      {
        "passId": "796",
        "signer": "0x2f59D15674cB5CEf93dBAc9D28Ed98762E978847"
      },
      {
        "passId": "797",
        "signer": "0x4696da509BBd0034Df41C9c32391cE3cBd991d5c"
      },
      {
        "passId": "798",
        "signer": "0x60E1f4843dbE1d94814b9b3FBeC6ad59A5891BE6"
      },
      {
        "passId": "799",
        "signer": "0x99Fe2bF288393AA8f8234E1fcCC308Add725dCD9"
      },
      {
        "passId": "800",
        "signer": "0xac48eB823b1600cDB6aef8dA3F581396939b85Ba"
      },
      {
        "passId": "801",
        "signer": "0x666b81DfF15200418CB39E29C040232787c2d932"
      },
      {
        "passId": "802",
        "signer": "0x74484e699DFEC32F5C26c9ff0Cd254Adf4d17642"
      },
      {
        "passId": "803",
        "signer": "0x6407d1ee43367493034E2C0844636bbFB79d23B4"
      },
      {
        "passId": "804",
        "signer": "0xd25DEe16fab5D3EeB5DCa27B4bb6Ddca869BA94b"
      },
      {
        "passId": "805",
        "signer": "0xc26Fb694FbB4eA155833E8b65359Ea70a0a0FeA2"
      },
      {
        "passId": "806",
        "signer": "0x72Dc869ea4E9d23194935fa21Fa5149eA76F4e86"
      },
      {
        "passId": "807",
        "signer": "0x9942FDA3e20603eb2271B60F9051635fFC61c693"
      },
      {
        "passId": "808",
        "signer": "0xB04d609e66F3Fc920760Ba2E6f2BBd7b6d8B96F6"
      },
      {
        "passId": "809",
        "signer": "0xD699E6430F56bFF15e57f286aC1a806632785b7a"
      },
      {
        "passId": "810",
        "signer": "0xECC2F97B3a379Ff0c04D81c19016b4Da90FC15E9"
      },
      {
        "passId": "811",
        "signer": "0xFF1F2355D27C80537Ee161cA8DC658626de588B9"
      },
      {
        "passId": "812",
        "signer": "0xabF18db2213EEaB12ACAE692Aef3F9192e9Fc296"
      },
      {
        "passId": "813",
        "signer": "0x9624892aD6c1aF9A76Ef157da956867440768E78"
      },
      {
        "passId": "814",
        "signer": "0x28c31e1E6DfBceAA1b2f078154e1FD186Ebb50a5"
      },
      {
        "passId": "815",
        "signer": "0x000000000000000000000000000000000000dead"
      },
      {
        "passId": "816",
        "signer": "0x000001f568875f378bf6d170b790967fe429c81a"
      },
      {
        "passId": "817",
        "signer": "0x0078c86e12186e2de1ff6fef5f1ada2bffde4ea5"
      },
      {
        "passId": "818",
        "signer": "0x024f1f8b3789bfdf9edb47f58a0d7a3afeaea804"
      },
      {
        "passId": "819",
        "signer": "0x049808d5eaa90a2665b9703d2246dded34f1eb73"
      },
      {
        "passId": "820",
        "signer": "0x05e8074088797c1f9057febf374deee0bc38e894"
      },
      {
        "passId": "821",
        "signer": "0x05ea539365d91df315e8ddd736e90431696fe8c4"
      },
      {
        "passId": "822",
        "signer": "0x09280340849e66948149804cac539cc7227512be"
      },
      {
        "passId": "823",
        "signer": "0x0946bc5c2f9848665cc3811458de403d0a78ad8e"
      },
      {
        "passId": "824",
        "signer": "0x0985224a811e65c235dbf4a2c2117712aabe4e39"
      },
      {
        "passId": "825",
        "signer": "0x0d0aca99686fced8e6fb39134aaed96f09b5283c"
      },
      {
        "passId": "826",
        "signer": "0x0d94b6e4c2aa9383964986020b3534d34885f700"
      },
      {
        "passId": "827",
        "signer": "0x0dd544d0da95666d7c3d38460feb4b5f25eaa515"
      },
      {
        "passId": "828",
        "signer": "0x0ea59c05be4b7149aaed26be764b618ac0255643"
      },
      {
        "passId": "829",
        "signer": "0x10b28ee04853bdd30d1fd7b302fbe5691c144aa0"
      },
      {
        "passId": "830",
        "signer": "0x10f6c58b9dc9603cb24ee9a5220bb4a470781676"
      },
      {
        "passId": "831",
        "signer": "0x12579783fbe8c2645d7a634b238da748405975a2"
      },
      {
        "passId": "832",
        "signer": "0x136c65a3f31682fcf683906ddbf3c76db2633f99"
      },
      {
        "passId": "833",
        "signer": "0x139d9a36ff2b6bfb8558dfbc22486da48c77a396"
      },
      {
        "passId": "834",
        "signer": "0x13b3a50f3947476eda74fe191344524e2d2d28e5"
      },
      {
        "passId": "835",
        "signer": "0x13e46ccd194ca86212236543d2e7376b00bafa42"
      },
      {
        "passId": "836",
        "signer": "0x1423fcc74da82fa03d70fa1f7a122db1ba231783"
      },
      {
        "passId": "837",
        "signer": "0x1436dbffbdde71d16a2c4d23f9116c3158c4d984"
      },
      {
        "passId": "838",
        "signer": "0x1527fa3a0778d574adfe714b7e60c7b2a1bf7c29"
      },
      {
        "passId": "839",
        "signer": "0x1974341df4b113a4c16f3d3f106176dec0e4da67"
      },
      {
        "passId": "840",
        "signer": "0x1c062628943a930b805849b494719c7d23c77bd5"
      },
      {
        "passId": "841",
        "signer": "0x1ec9503bbdad721ef3ad485b4b14ce0671dc9925"
      },
      {
        "passId": "842",
        "signer": "0x21c5edc237e95049f92059af6a571fdb700f2b82"
      },
      {
        "passId": "843",
        "signer": "0x2224acd07fd9b269ab5200a9a3df8062624deefb"
      },
      {
        "passId": "844",
        "signer": "0x230eb64900d027dfe372786b3342bd6178ec37d1"
      },
      {
        "passId": "845",
        "signer": "0x273c25abd33eca095e228fde0f15e8f7ec4eb4d9"
      },
      {
        "passId": "846",
        "signer": "0x27d9b6692ec1fb802cc8ceef74270ca4b448076a"
      },
      {
        "passId": "847",
        "signer": "0x290420874bf65691b98b67d042c06bbc31f85f11"
      },
      {
        "passId": "848",
        "signer": "0x2993db31d165c33d848e44a1c26a805ba411d324"
      },
      {
        "passId": "849",
        "signer": "0x2d2c46d26c8fec693586e067c4fc2b2ddc2b4cb3"
      },
      {
        "passId": "850",
        "signer": "0x2d79097b9e4c4f41654b2c91c39fd2c97af00c76"
      },
      {
        "passId": "851",
        "signer": "0x2de2299db048a9e3b8d1934b8dae11b8041cc4fd"
      },
      {
        "passId": "852",
        "signer": "0x2e50783188e23742dd3168682e39381ff5fa9731"
      },
      {
        "passId": "853",
        "signer": "0x2e699391d1b3b8577557b4c0ef6a1d9e8a394f04"
      },
      {
        "passId": "854",
        "signer": "0x308bff328370fc4a9683ab9fcd79a21be6dc5ee4"
      },
      {
        "passId": "855",
        "signer": "0x342c6bfa287ce37b8b53eee0e5b6e6bcbea98c76"
      },
      {
        "passId": "856",
        "signer": "0x362f020fd4420c317e7a0722994ba8bc3380d0e8"
      },
      {
        "passId": "857",
        "signer": "0x3668a20653316a7dd85342f64a4c984d146cadfe"
      },
      {
        "passId": "858",
        "signer": "0x37b699d7eead58433d352d1c77b2db1391f11ce5"
      },
      {
        "passId": "859",
        "signer": "0x3ad353e2845b96fb1b58c1ca6cda46b870de8d6f"
      },
      {
        "passId": "860",
        "signer": "0x3d14410609731ec7924ea8b1f13de544bb46a9a6"
      },
      {
        "passId": "861",
        "signer": "0x4011d09a86d0aca8377a4a8bad691f1aceecd672"
      },
      {
        "passId": "862",
        "signer": "0x41a7276167b80da8815df5b0ddaba3be29984250"
      },
      {
        "passId": "863",
        "signer": "0x44dc2ec15b3483fc8590f6b396cea5f8f2fbf3bd"
      },
      {
        "passId": "864",
        "signer": "0x4530307f98208d3bd5b9631880bc7351770c8810"
      },
      {
        "passId": "865",
        "signer": "0x4a1d757699ab73dd4b48b15049b6f1479b2f3511"
      },
      {
        "passId": "866",
        "signer": "0x4b0bd713574e67a97b3ff8f647f329794a2cbb64"
      },
      {
        "passId": "867",
        "signer": "0x4d03a186b3c7d039ff9a212cd8e81dc34a670b35"
      },
      {
        "passId": "868",
        "signer": "0x4de4a829d42191007431d608775430f3ab072082"
      },
      {
        "passId": "869",
        "signer": "0x4e012d25472225f3385baa43ed64dfec5885c51d"
      },
      {
        "passId": "870",
        "signer": "0x4ffb72b66eba24521736924f87dfe10677d82286"
      },
      {
        "passId": "871",
        "signer": "0x50f27cdb650879a41fb07038bf2b818845c20e17"
      },
      {
        "passId": "872",
        "signer": "0x5285ac85a979b612f5c5320961311bba099670f0"
      },
      {
        "passId": "873",
        "signer": "0x530cf036ed4fa58f7301a9c788c9806624cefd19"
      },
      {
        "passId": "874",
        "signer": "0x5310a9b64847c1b927f823a4bc8836e93f09dc78"
      },
      {
        "passId": "875",
        "signer": "0x54463aae905082c678708bb6c25226eb8f38d5a6"
      },
      {
        "passId": "876",
        "signer": "0x562bf1b67dc40d9b7c3ddd49e45ae58e61e1b76e"
      },
      {
        "passId": "877",
        "signer": "0x568b491fb2b4b9440f6d05e7723df0060fdaef1c"
      },
      {
        "passId": "878",
        "signer": "0x5a016b206d0314c7ec641c3a6fd89dac7fea010e"
      },
      {
        "passId": "879",
        "signer": "0x5b158f897f5ace2afefaf7ace8ce0cdbbbc9168a"
      },
      {
        "passId": "880",
        "signer": "0x5ba02f4ff6af1d9d2af8774d10fd32eb57d4e2e6"
      },
      {
        "passId": "881",
        "signer": "0x5bd685375c21375165438ca7f3eae7ec4fade8c5"
      },
      {
        "passId": "882",
        "signer": "0x5d9e720a1c16b98ab897165803c4d96e8060b8e4"
      },
      {
        "passId": "883",
        "signer": "0x5e01d9928ea32d1d3ae2f3263b6ec6c165dc2d76"
      },
      {
        "passId": "884",
        "signer": "0x5ee42438d0d8fc399c94ef3543665e993e847b49"
      },
      {
        "passId": "885",
        "signer": "0x5f8e56d7f3642dd8783774460da2d3a7c54aacda"
      },
      {
        "passId": "886",
        "signer": "0x5fb8b9512684d451d4e585a1a0aabfb48a253c67"
      },
      {
        "passId": "887",
        "signer": "0x6186290b28d511bff971631c916244a9fc539cfe"
      },
      {
        "passId": "888",
        "signer": "0x62f099a34f01d57c67a100851184bea0d48b45f6"
      },
      {
        "passId": "889",
        "signer": "0x63244b5f1ebcb999ea012da652dffee6653bf8f5"
      },
      {
        "passId": "890",
        "signer": "0x64e00561fa9b1f2f2048b2d4f571279689dd9541"
      },
      {
        "passId": "891",
        "signer": "0x65565244e5700b85c90358468faf37c85db55099"
      },
      {
        "passId": "892",
        "signer": "0x6584b48ccebd9c3e4413a1dd4cdbc38b2500cdf3"
      },
      {
        "passId": "893",
        "signer": "0x65d88c64b01b9481352fa8a68b54ed1b3b687388"
      },
      {
        "passId": "894",
        "signer": "0x663d3947f03ef5b387992b880ac85940057c13e3"
      },
      {
        "passId": "895",
        "signer": "0x67c3097a968db89610825976ec9a5976a966c044"
      },
      {
        "passId": "896",
        "signer": "0x68016f094ebb7b55b04372af335455854b0e2eb6"
      },
      {
        "passId": "897",
        "signer": "0x6854dc5c9e3d3ce0b9dd7250d866908515465dc6"
      },
      {
        "passId": "898",
        "signer": "0x686e960ebd9aceb1771850444d4d3a7810a0dac9"
      },
      {
        "passId": "899",
        "signer": "0x6d7fd0438219c0f753a1ccf7c4885bb6cb260999"
      },
      {
        "passId": "900",
        "signer": "0x704c978d50590b21e4c2f43eb4da24fe61fcd707"
      },
      {
        "passId": "901",
        "signer": "0x73e60cd967e957bc6e074f93320ffa1d52697d5b"
      },
      {
        "passId": "902",
        "signer": "0x75331ebbe0b00b97cab532384f13c9b479f074ec"
      },
      {
        "passId": "903",
        "signer": "0x75ef2eff7b12f5f900ef5c787036deab18423d1a"
      },
      {
        "passId": "904",
        "signer": "0x78885686feec340ab544428f161e7d621f520e29"
      },
      {
        "passId": "905",
        "signer": "0x79bebfcb560141f22959c62bbd2930d5c7e35d30"
      },
      {
        "passId": "906",
        "signer": "0x79fd2f15e0ea8c27b5192259f9da63f4e562f021"
      },
      {
        "passId": "907",
        "signer": "0x7a824bea2bed9399a68cd0e340224809521c81d9"
      },
      {
        "passId": "908",
        "signer": "0x7d6a8ffcaf98cac58340329b3a91759888cb1363"
      },
      {
        "passId": "909",
        "signer": "0x7e7a55b11dd9a02b4da169620adfc36b930100fc"
      },
      {
        "passId": "910",
        "signer": "0x80d0d54050c15971b21e877d95441800f5aa9ee8"
      },
      {
        "passId": "911",
        "signer": "0x8177598e08ee8199c160a48c7a0af31ab54bb59f"
      },
      {
        "passId": "912",
        "signer": "0x82410609593d876761681580cf304c794bd58d09"
      },
      {
        "passId": "913",
        "signer": "0x826f63afd9517364cbebe91a859f10b102505a40"
      },
      {
        "passId": "914",
        "signer": "0x836ef81a58e5565b8d1d555ec8e9a5c2792511c6"
      },
      {
        "passId": "915",
        "signer": "0x83d3c179e7906e7f6755658c70e106f1ed3c5782"
      },
      {
        "passId": "916",
        "signer": "0x84eeb7db3f93feb5a8a98f56dabb970a6797c187"
      },
      {
        "passId": "917",
        "signer": "0x865c2f85c9fea1c6ac7f53de07554d68cb92ed88"
      },
      {
        "passId": "918",
        "signer": "0x8725be0bb6ea759d10fbb52fedecc7dcd6890072"
      },
      {
        "passId": "919",
        "signer": "0x87dfef3b445667292aac89078b51f0f75795805f"
      },
      {
        "passId": "920",
        "signer": "0x88906af7616f88f610d1e479325a5c5f93ba1e2c"
      },
      {
        "passId": "921",
        "signer": "0x8a53b8b59877df193c6dae7b8d1d38251af563cf"
      },
      {
        "passId": "922",
        "signer": "0x8b5e90aa714c967efc8c286f46ce0fc822e1cfb0"
      },
      {
        "passId": "923",
        "signer": "0x8c0c3c60118b24b31806eae82ab4186821bf23f1"
      },
      {
        "passId": "924",
        "signer": "0x8c2e67bd3d0f432ef75d9ae6623cd0dfbce66050"
      },
      {
        "passId": "925",
        "signer": "0x8dc9d43df20681cd62ca0acb24ae7ce2794f835d"
      },
      {
        "passId": "926",
        "signer": "0x8df55ecf2c261b44d079302dc95327fe32f74eed"
      },
      {
        "passId": "927",
        "signer": "0x8ebbf8f59b7b7849e359f7e1cc395df6741c24b9"
      },
      {
        "passId": "928",
        "signer": "0x92e7faa1c7b1cf703e3cda42183978f16fa15713"
      },
      {
        "passId": "929",
        "signer": "0x932a824a4d3d0680e0b352de150e6f212b8ac841"
      },
      {
        "passId": "930",
        "signer": "0x95a4350e1cb5e795d3ebe8bee63d9183de5449d1"
      },
      {
        "passId": "931",
        "signer": "0x96dc89dbe84970ee42a2f0b35fb50599e6745ff8"
      },
      {
        "passId": "932",
        "signer": "0x975ab68d4c15d6db02e101d5be03c5b49b9a3282"
      },
      {
        "passId": "933",
        "signer": "0x9de0b0402258a6a562331da7b3c13b29578789c4"
      },
      {
        "passId": "934",
        "signer": "0x9fc6d6c7326585fd3c2a743a1f505990d6e9df3f"
      },
      {
        "passId": "935",
        "signer": "0xa0863e36c30f4974a3a0e2cfc2802513cfaa22f1"
      },
      {
        "passId": "936",
        "signer": "0xa0a6dc36041fb386378458006fecbddd02555ddd"
      },
      {
        "passId": "937",
        "signer": "0xa0d71d516c6149c958c489ab24223c99f5df906f"
      },
      {
        "passId": "938",
        "signer": "0xa0f838d02983161ee469bff969964b7051ac1cd9"
      },
      {
        "passId": "939",
        "signer": "0xa596370bc21dee36872b98009dfbbf465dbfefa3"
      },
      {
        "passId": "940",
        "signer": "0xa5975974cac3fefd831e42bdd2fe84cb5ee3b3de"
      },
      {
        "passId": "941",
        "signer": "0xa6157b7bb7ec05e2b6feafd686797f9ea05411cc"
      },
      {
        "passId": "942",
        "signer": "0xa6f4fa9840aa6825446c820af6d5eccf9f78ba05"
      },
      {
        "passId": "943",
        "signer": "0xa77d9227eee861e01519548b6000acca8600eebe"
      },
      {
        "passId": "944",
        "signer": "0xa7d9f4fd84cdd4bee564adc1b18e3e8aa79d25f1"
      },
      {
        "passId": "945",
        "signer": "0xa88e4a192f3ff5e46dcc96efefb38dfec7bb250c"
      },
      {
        "passId": "946",
        "signer": "0xab2f02d8d409ee4f67fdda5aac5ca7a64a897271"
      },
      {
        "passId": "947",
        "signer": "0xac75cdc34283406b050cadf4ea5902a9310b138e"
      },
      {
        "passId": "948",
        "signer": "0xad9f9194c68bd83250a534a7da574687e1f102ff"
      },
      {
        "passId": "949",
        "signer": "0xae8ce6bb2b95684f57c097b407f4e9b55d9ca432"
      },
      {
        "passId": "950",
        "signer": "0xaee2f40fe0568bd859bc6a518c7ef3252fdc9bf0"
      },
      {
        "passId": "951",
        "signer": "0xaf5cb828389bd6413e7bcd00ed2dcf2bdc1a015a"
      },
      {
        "passId": "952",
        "signer": "0xaf8fbf59e221d27b55dc3adc2366f9230bcf5096"
      },
      {
        "passId": "953",
        "signer": "0xb29b1936c11b77cec6061a9daf765ee2666c8f77"
      },
      {
        "passId": "954",
        "signer": "0xb347b5b99c49ce6c555071a1f0498c81511ad977"
      },
      {
        "passId": "955",
        "signer": "0xb3522064694ac9870dbf00eebc2712762193bb64"
      },
      {
        "passId": "956",
        "signer": "0xb353268ce17d2c7f0f4f8aff152e548c43633df5"
      },
      {
        "passId": "957",
        "signer": "0xb66190f67ed8f0ca790ddfe541ee1bd0da53fe70"
      },
      {
        "passId": "958",
        "signer": "0xb74e4d1592dad73f3745f57605580108ebaedad5"
      },
      {
        "passId": "959",
        "signer": "0xb7f9f538aa1b41ae2853eb63f1939187ffe70eb4"
      },
      {
        "passId": "960",
        "signer": "0xbb46c6e4d8a59520fbb11638c2d1228cc65f5a6c"
      },
      {
        "passId": "961",
        "signer": "0xbc10a3ae909b1b94f4c3e39607ad19d386dce32a"
      },
      {
        "passId": "962",
        "signer": "0xbd12aa424c207e90b66402c1f0aec357e8b1ded7"
      },
      {
        "passId": "963",
        "signer": "0xbe5be517537e53f09e88bcdf61da238477dca226"
      },
      {
        "passId": "964",
        "signer": "0xbeeef66749b64afe43bbc9475635eb510cfe4922"
      },
      {
        "passId": "965",
        "signer": "0xbf1ed1ea654ad49472daedc21a31c8d28e6bb790"
      },
      {
        "passId": "966",
        "signer": "0xbf27384febdc054bbd7e388761919e7d98f7da0c"
      },
      {
        "passId": "967",
        "signer": "0xbfdb50dc66c8df9fd9688d8fe5a0c34126427645"
      },
      {
        "passId": "968",
        "signer": "0xc09d3402515676b81a2f768c365146ea3faa5605"
      },
      {
        "passId": "969",
        "signer": "0xc0e5e14bdecd9ed6954a9e14c74e97cebd91bb94"
      },
      {
        "passId": "970",
        "signer": "0xc169699a825066f2f07e0b29c4082094b32a3f3e"
      },
      {
        "passId": "971",
        "signer": "0xc3a67c1437353bdc9c53060235a34018711de0cf"
      },
      {
        "passId": "972",
        "signer": "0xc42c694d0215b27bce1a871a4a2ad38cf0120a82"
      },
      {
        "passId": "973",
        "signer": "0xc555347d2b369b074be94fe6f7ae9ab43966b884"
      },
      {
        "passId": "974",
        "signer": "0xc665a60f22dda926b920deb8ffac0ef9d8a17460"
      },
      {
        "passId": "975",
        "signer": "0xc8286a9bf1f9bf8f3006fa014915c78b7e75111c"
      },
      {
        "passId": "976",
        "signer": "0xc8bace82793074fad3337424bdb84e306b2f8a44"
      },
      {
        "passId": "977",
        "signer": "0xc9a009bed9ed8a32499e18c20f7cd12132c8d6cb"
      },
      {
        "passId": "978",
        "signer": "0xca11d10ceb098f597a0cab28117fc3465991a63c"
      },
      {
        "passId": "979",
        "signer": "0xcbd2f544073eb35b59a8eb19194a222a5361cd74"
      },
      {
        "passId": "980",
        "signer": "0xcda685c8444f659ac3fe778f8d143aabdf1a21ab"
      },
      {
        "passId": "981",
        "signer": "0xcea78aaa93e917fb5e1802901db2b20aa4411b44"
      },
      {
        "passId": "982",
        "signer": "0xcef871b113d2bb5d3fa5dc96d2d288dd38082aae"
      },
      {
        "passId": "983",
        "signer": "0xcf680fb77c12e2aa2dec82f3ae0c0e527f549fe2"
      },
      {
        "passId": "984",
        "signer": "0xd1eddfcc4596cc8bd0bd7495beab9b979fc50336"
      },
      {
        "passId": "985",
        "signer": "0xd3e64b9dea13e4840a0da20965bd0ca37d05a12a"
      },
      {
        "passId": "986",
        "signer": "0xd651e2c626ee210fc38676124d5007ac822ad749"
      },
      {
        "passId": "987",
        "signer": "0xd657860fc512ec2250a7385a353f599e3276fddb"
      },
      {
        "passId": "988",
        "signer": "0xd6e02c13a6cc133c9d019495414667ea7bee05cc"
      },
      {
        "passId": "989",
        "signer": "0xdc190d7cea8e8bf0b381617062200c10cfff0a91"
      },
      {
        "passId": "990",
        "signer": "0xdd6c81d6d587e2d49eaadffb4ce380564046002a"
      },
      {
        "passId": "991",
        "signer": "0xddb92a96054132801cae3943b2f966fc2c308ac8"
      },
      {
        "passId": "992",
        "signer": "0xdde3ca351d85a4b4cc6aff8d42c0840959859053"
      },
      {
        "passId": "993",
        "signer": "0xe00a3ab72b29eb4ac2695221f62cdf872cb5d483"
      },
      {
        "passId": "994",
        "signer": "0xe120ed22a0cd12d5de6122aa7d5b6d93ac218b49"
      },
      {
        "passId": "995",
        "signer": "0xe20adb03a470b5573bf572dd918e052d0d17866e"
      },
      {
        "passId": "996",
        "signer": "0xe363c2fba75cbd27487b17430e1efbdd2add374e"
      },
      {
        "passId": "997",
        "signer": "0xe5a3d77d7788a83f3549dd7f08fc2aced7e262d2"
      },
      {
        "passId": "998",
        "signer": "0xe66e1e9e37e4e148b21eb22001431818e980d060"
      },
      {
        "passId": "999",
        "signer": "0xe7bd51dc30d4bdc9fddd42ea7c0a283590c9d416"
      },
      {
        "passId": "1000",
        "signer": "0xeb42cd8a1fe1ff556960a9a03ca29aa13f8aa838"
      },
      {
        "passId": "1001",
        "signer": "0xed0f30677c760ea8f0bff70c76eafc79d5f7c3c8"
      },
      {
        "passId": "1002",
        "signer": "0xeddd55a234240042695d7430bf0a09b9038a26ad"
      },
      {
        "passId": "1003",
        "signer": "0xee4d308cc1cde3dd0adcb5a2c85edff22db64918"
      },
      {
        "passId": "1004",
        "signer": "0xee9439a12a7c2a9b6600ca8a498620580d2f116e"
      },
      {
        "passId": "1005",
        "signer": "0xeeaf61935c0c48f8f8cc28c381683d7fa2f75e1c"
      },
      {
        "passId": "1006",
        "signer": "0xef1271ae97bc1a1b356ab697e9ed0d1d4e05fcda"
      },
      {
        "passId": "1007",
        "signer": "0xf19bc58f747d6ea11959bf2a0fa81e53285546ac"
      },
      {
        "passId": "1008",
        "signer": "0xf1e1c701b49b1dc2405a9e8ef40f9f88802b80fa"
      },
      {
        "passId": "1009",
        "signer": "0xf2b15320db6992ba49a7563e50e888c20edcbe3c"
      },
      {
        "passId": "1010",
        "signer": "0xf341c3abb49feb96b4822e68227b54c6fb9f6318"
      },
      {
        "passId": "1011",
        "signer": "0xf3493f6812b1f22b40f8539db2510e13ac251f96"
      },
      {
        "passId": "1012",
        "signer": "0xf3b1b6e83be4d55695f1d30ac3d307d9d5ca98ff"
      },
      {
        "passId": "1013",
        "signer": "0xf464d1a37d8ef9449722f44a4eeb715c0e0acdb3"
      },
      {
        "passId": "1014",
        "signer": "0xf6910d47fbb1f5518d60c721d4189936ecd5a1b6"
      },
      {
        "passId": "1015",
        "signer": "0xf73c935815908ad9a056fc50269f95d8ba032e9d"
      },
      {
        "passId": "1016",
        "signer": "0xf78cd306b23031de9e739a5bcde61764e82ad5ef"
      },
      {
        "passId": "1017",
        "signer": "0xf942040710bedf7220beb24b220631c2255e87f1"
      },
      {
        "passId": "1018",
        "signer": "0xf943e1d2db38db468f66a79b08ec23f8c4375ce3"
      },
      {
        "passId": "1019",
        "signer": "0xfa46dedf812c5803b1e2cea10eef3f27dafeca56"
      },
      {
        "passId": "1020",
        "signer": "0xfa9f104f338846b38b083c9e567ff6bbe43ab5f7"
      },
      {
        "passId": "1021",
        "signer": "0xfd12799b9fb97dc61d9ad7ad4ffba5624004bc62"
      },
      {
        "passId": "1022",
        "signer": "0xfe1e7dc61721f34a25c9eb4dc1a1a8f352c923ef"
      },
      {
        "passId": "1023",
        "signer": "0xfffff6e70842330948ca47254f2be673b1cb0db7"
      }
    ],
    "startTime": 1638149425,
    "publicSaleTimestamp": 1638408625,
    "percentageForCreator": 2500,
    "price": "100000000000000000"
  },
  "solcInputHash": "fe2d698dc766749c774f141be3fe643d",
  "bytecode": "0x6101a06040523480156200001257600080fd5b506040516200210138038062002101833981016040819052620000359162000091565b6001600160a01b03998a1660805292891660a05260c09190915290961660e05261010094909452610120929092526101405261016052610180526000556200012c565b6001600160a01b03811681146200008e57600080fd5b50565b6000806000806000806000806000806101408b8d031215620000b257600080fd5b8a51620000bf8162000078565b809a505060208b0151985060408b0151975060608b0151965060808b0151955060a08b0151945060c08b0151620000f68162000078565b60e08c01516101008d01519195509350620001118162000078565b809250506101208b015190509295989b9194979a5092959850565b60805160a05160c05160e0516101005161012051610140516101605161018051611edf62000222600039600081816101bd01528181610c050152610e2e015260008181610197015281816102dc015281816104110152818161051f01528181610be2015261103701526000818161016f01528181610bbf015261105f01526000818161014901528181610b9c0152610e5501526000818161012601528181610b7901526110850152600061159e0152600081816114ac01526114da0152600081816105cd015281816107fd015261152601526000818161078501528181610a0d01528181610aaa01526111a90152611edf6000f3fe6080604052600436106100b15760003560e01c80639c20551311610069578063d93459b61161004e578063d93459b61461023c578063e957a3811461025c578063f19b57c21461027c57600080fd5b80639c20551314610209578063ca9dca041461021c57600080fd5b80637361a72e1161009a5780637361a72e1461010057806381059f7814610113578063990b0f60146101e957600080fd5b80632228adcc146100b65780632558e933146100eb575b600080fd5b3480156100c257600080fd5b506100d66100d1366004611747565b6102b0565b60405190151581526020015b60405180910390f35b6100fe6100f93660046118a6565b6102da565b005b6100fe61010e3660046119a8565b61040f565b34801561011f57600080fd5b50604080517f000000000000000000000000000000000000000000000000000000000000000081527f000000000000000000000000000000000000000000000000000000000000000060208201527f0000000000000000000000000000000000000000000000000000000000000000918101919091527f000000000000000000000000000000000000000000000000000000000000000060608201527f0000000000000000000000000000000000000000000000000000000000000000608082015260a0016100e2565b3480156101f557600080fd5b506100d6610204366004611747565b6104d2565b6100fe610217366004611a12565b61051d565b34801561022857600080fd5b506100fe610237366004611a12565b6105b5565b34801561024857600080fd5b506100fe610257366004611a8e565b6107e5565b34801561026857600080fd5b506100d6610277366004611747565b610a7d565b34801561028857600080fd5b5061029c610297366004611ae5565b610a9b565b6040516100e2989796959493929190611b31565b6000806102c26010600685901c611bf7565b905080600714806102d35750806008145b9392505050565b7f00000000000000000000000000000000000000000000000000000000000000004210156103fe5761030b83610c43565b600061037683858760405160200161035292919091825260601b7fffffffffffffffffffffffffffffffffffffffff00000000000000000000000016602082015260340190565b60405160208183030381529060405280519060200120610d0190919063ffffffff16565b905060006103848583610d25565b90506103908382610d86565b6103fb576040517f08c379a000000000000000000000000000000000000000000000000000000000815260206004820152600d60248201527f494e56414c49445f50524f4f460000000000000000000000000000000000000060448201526064015b60405180910390fd5b50505b6104088585610e53565b5050505050565b7f00000000000000000000000000000000000000000000000000000000000000004210156104c25761044082610c43565b33600061044d8483610d25565b90506104598382610d86565b6104bf576040517f08c379a000000000000000000000000000000000000000000000000000000000815260206004820152600d60248201527f494e56414c49445f50524f4f460000000000000000000000000000000000000060448201526064016103f2565b50505b6104cc8484610e53565b50505050565b6000806104e161010084611c3a565b905060006104f182610100611c4e565b6104fb9085611c8b565b60009283526001602081905260409093205492901b9182169091149392505050565b7f00000000000000000000000000000000000000000000000000000000000000004210156105a7576040517f08c379a000000000000000000000000000000000000000000000000000000000815260206004820152601460248201527f524551554952455f504153535f4f525f5741495400000000000000000000000060448201526064016103f2565b6105b18282610e53565b5050565b3373ffffffffffffffffffffffffffffffffffffffff7f00000000000000000000000000000000000000000000000000000000000000001614610654576040517f08c379a000000000000000000000000000000000000000000000000000000000815260206004820152600e60248201527f4e4f545f415554484f52495a454400000000000000000000000000000000000060448201526064016103f2565b6102408261ffff16106106c3576040517f08c379a000000000000000000000000000000000000000000000000000000000815260206004820152600d60248201527f494e56414c49445f534f554e440000000000000000000000000000000000000060448201526064016103f2565b6106d08261ffff166102b0565b610736576040517f08c379a000000000000000000000000000000000000000000000000000000000815260206004820152600c60248201527f4e4f545f5245534552564544000000000000000000000000000000000000000060448201526064016103f2565b6040517f9c20551300000000000000000000000000000000000000000000000000000000815261ffff8316600482015273ffffffffffffffffffffffffffffffffffffffff82811660248301527f00000000000000000000000000000000000000000000000000000000000000001690639c20551390604401600060405180830381600087803b1580156107c957600080fd5b505af11580156107dd573d6000803e3d6000fd5b505050505050565b3373ffffffffffffffffffffffffffffffffffffffff7f00000000000000000000000000000000000000000000000000000000000000001614610884576040517f08c379a000000000000000000000000000000000000000000000000000000000815260206004820152600e60248201527f4e4f545f415554484f52495a454400000000000000000000000000000000000060448201526064016103f2565b60005b828110156109cf576102408484838181106108a4576108a4611ca2565b90506020020160208101906108b99190611cd1565b61ffff1610610924576040517f08c379a000000000000000000000000000000000000000000000000000000000815260206004820152600d60248201527f494e56414c49445f534f554e440000000000000000000000000000000000000060448201526064016103f2565b61095784848381811061093957610939611ca2565b905060200201602081019061094e9190611cd1565b61ffff166102b0565b6109bd576040517f08c379a000000000000000000000000000000000000000000000000000000000815260206004820152600c60248201527f4e4f545f5245534552564544000000000000000000000000000000000000000060448201526064016103f2565b806109c781611cec565b915050610887565b506040517fe2ea128800000000000000000000000000000000000000000000000000000000815273ffffffffffffffffffffffffffffffffffffffff7f0000000000000000000000000000000000000000000000000000000000000000169063e2ea128890610a4690869086908690600401611d25565b600060405180830381600087803b158015610a6057600080fd5b505af1158015610a74573d6000803e3d6000fd5b50505050505050565b600080610a8f6010600685901c611bf7565b60005410159392505050565b606060008060008060008060007f000000000000000000000000000000000000000000000000000000000000000073ffffffffffffffffffffffffffffffffffffffff1663a0554c268b8b6040518363ffffffff1660e01b8152600401610b03929190611d8b565b60006040518083038186803b158015610b1b57600080fd5b505afa158015610b2f573d6000803e3d6000fd5b505050506040513d6000823e601f3d9081017fffffffffffffffffffffffffffffffffffffffffffffffffffffffffffffffe0168201604052610b759190810190611de0565b97507f000000000000000000000000000000000000000000000000000000000000000096507f000000000000000000000000000000000000000000000000000000000000000095507f000000000000000000000000000000000000000000000000000000000000000094507f000000000000000000000000000000000000000000000000000000000000000093507f00000000000000000000000000000000000000000000000000000000000000009250610c2f8b6104d2565b915060005490509397509397509397509397565b6000610c5161010083611c3a565b90506000610c6182610100611c4e565b610c6b9084611c8b565b600083815260016020819052604090912054911b915080821615610ceb576040517f08c379a000000000000000000000000000000000000000000000000000000000815260206004820152601160248201527f504153535f414c52454144595f5553454400000000000000000000000000000060448201526064016103f2565b6000928352600160205260409092209117905550565b6000806000610d1085856111d8565b91509150610d1d81611248565b509392505050565b60008282604051602001610d6892919091825260601b7fffffffffffffffffffffffffffffffffffffffff00000000000000000000000016602082015260340190565b60405160208183030381529060405280519060200120905092915050565b6000805b8351811015610e2a576000848281518110610da757610da7611ca2565b6020026020010151905080841015610dea576040805160208101869052908101829052606001604051602081830303815290604052805190602001209350610e17565b60408051602081018390529081018590526060016040516020818303038152906040528051906020012093505b5080610e2281611cec565b915050610d8a565b50507f000000000000000000000000000000000000000000000000000000000000000014919050565b7f0000000000000000000000000000000000000000000000000000000000000000421015610edd576040517f08c379a000000000000000000000000000000000000000000000000000000000815260206004820152601060248201527f53414c455f4e4f545f535441525445440000000000000000000000000000000060448201526064016103f2565b6102408261ffff1610610f4c576040517f08c379a000000000000000000000000000000000000000000000000000000000815260206004820152600d60248201527f494e56414c49445f534f554e440000000000000000000000000000000000000060448201526064016103f2565b610f598261ffff16610a7d565b610fbf576040517f08c379a000000000000000000000000000000000000000000000000000000000815260206004820152601b60248201527f494e535455524d454e545f4e4f545f5945545f464f525f53414c45000000000060448201526064016103f2565b610fcc8261ffff166102b0565b15611033576040517f08c379a000000000000000000000000000000000000000000000000000000000815260206004820152600860248201527f524553455256454400000000000000000000000000000000000000000000000060448201526064016103f2565b60007f0000000000000000000000000000000000000000000000000000000000000000421015611083577f00000000000000000000000000000000000000000000000000000000000000006110a5565b7f00000000000000000000000000000000000000000000000000000000000000005b905080341015611111576040517f08c379a000000000000000000000000000000000000000000000000000000000815260206004820152600a60248201527f4e4f545f454e4f5547480000000000000000000000000000000000000000000060448201526064016103f2565b8034111561115157336108fc6111278334611c8b565b6040518115909202916000818181858888f1935050505015801561114f573d6000803e3d6000fd5b505b61115a816114a4565b6040517f9c20551300000000000000000000000000000000000000000000000000000000815261ffff8416600482015273ffffffffffffffffffffffffffffffffffffffff83811660248301527f00000000000000000000000000000000000000000000000000000000000000001690639c20551390604401610a46565b60008082516041141561120f5760208301516040840151606085015160001a611203878285856115e7565b94509450505050611241565b825160401415611239576020830151604084015161122e8683836116ff565b935093505050611241565b506000905060025b9250929050565b600081600481111561125c5761125c611e7a565b14156112655750565b600181600481111561127957611279611e7a565b14156112e1576040517f08c379a000000000000000000000000000000000000000000000000000000000815260206004820152601860248201527f45434453413a20696e76616c6964207369676e6174757265000000000000000060448201526064016103f2565b60028160048111156112f5576112f5611e7a565b141561135d576040517f08c379a000000000000000000000000000000000000000000000000000000000815260206004820152601f60248201527f45434453413a20696e76616c6964207369676e6174757265206c656e6774680060448201526064016103f2565b600381600481111561137157611371611e7a565b14156113ff576040517f08c379a000000000000000000000000000000000000000000000000000000000815260206004820152602260248201527f45434453413a20696e76616c6964207369676e6174757265202773272076616c60448201527f756500000000000000000000000000000000000000000000000000000000000060648201526084016103f2565b600481600481111561141357611413611e7a565b14156114a1576040517f08c379a000000000000000000000000000000000000000000000000000000000815260206004820152602260248201527f45434453413a20696e76616c6964207369676e6174757265202776272076616c60448201527f756500000000000000000000000000000000000000000000000000000000000060648201526084016103f2565b50565b80156114a1577f00000000000000000000000000000000000000000000000000000000000000001561157e5760006127106114ff7f000000000000000000000000000000000000000000000000000000000000000084611c4e565b6115099190611c3a565b60405190915073ffffffffffffffffffffffffffffffffffffffff7f0000000000000000000000000000000000000000000000000000000000000000169082156108fc029083906000818181858888f1935050505015801561156f573d6000803e3d6000fd5b5061157a8183611c8b565b9150505b80156114a15760405173ffffffffffffffffffffffffffffffffffffffff7f0000000000000000000000000000000000000000000000000000000000000000169082156108fc029083906000818181858888f193505050501580156105b1573d6000803e3d6000fd5b6000807f7fffffffffffffffffffffffffffffff5d576e7357a4501ddfe92f46681b20a083111561161e57506000905060036116f6565b8460ff16601b1415801561163657508460ff16601c14155b1561164757506000905060046116f6565b6040805160008082526020820180845289905260ff881692820192909252606081018690526080810185905260019060a0016020604051602081039080840390855afa15801561169b573d6000803e3d6000fd5b50506040517fffffffffffffffffffffffffffffffffffffffffffffffffffffffffffffffe0015191505073ffffffffffffffffffffffffffffffffffffffff81166116ef576000600192509250506116f6565b9150600090505b94509492505050565b6000807f7fffffffffffffffffffffffffffffffffffffffffffffffffffffffffffffff831660ff84901c601b01611739878288856115e7565b935093505050935093915050565b60006020828403121561175957600080fd5b5035919050565b803561ffff8116811461177257600080fd5b919050565b73ffffffffffffffffffffffffffffffffffffffff811681146114a157600080fd5b7f4e487b7100000000000000000000000000000000000000000000000000000000600052604160045260246000fd5b604051601f82017fffffffffffffffffffffffffffffffffffffffffffffffffffffffffffffffe016810167ffffffffffffffff8111828210171561180f5761180f611799565b604052919050565b600067ffffffffffffffff82111561183157611831611799565b5060051b60200190565b600082601f83011261184c57600080fd5b8135602061186161185c83611817565b6117c8565b82815260059290921b8401810191818101908684111561188057600080fd5b8286015b8481101561189b5780358352918301918301611884565b509695505050505050565b600080600080600060a086880312156118be57600080fd5b6118c786611760565b94506020808701356118d881611777565b945060408701359350606087013567ffffffffffffffff808211156118fc57600080fd5b818901915089601f83011261191057600080fd5b81358181111561192257611922611799565b611952847fffffffffffffffffffffffffffffffffffffffffffffffffffffffffffffffe0601f840116016117c8565b8181528b8583860101111561196657600080fd5b81858501868301376000918101909401529193506080880135918083111561198d57600080fd5b505061199b8882890161183b565b9150509295509295909350565b600080600080608085870312156119be57600080fd5b6119c785611760565b935060208501356119d781611777565b925060408501359150606085013567ffffffffffffffff8111156119fa57600080fd5b611a068782880161183b565b91505092959194509250565b60008060408385031215611a2557600080fd5b611a2e83611760565b91506020830135611a3e81611777565b809150509250929050565b60008083601f840112611a5b57600080fd5b50813567ffffffffffffffff811115611a7357600080fd5b6020830191508360208260051b850101111561124157600080fd5b600080600060408486031215611aa357600080fd5b833567ffffffffffffffff811115611aba57600080fd5b611ac686828701611a49565b9094509250506020840135611ada81611777565b809150509250925092565b600080600060408486031215611afa57600080fd5b83359250602084013567ffffffffffffffff811115611b1857600080fd5b611b2486828701611a49565b9497909650939450505050565b6101008082528951908201819052600090610120830190602090818d01845b82811015611b8257815173ffffffffffffffffffffffffffffffffffffffff1685529383019390830190600101611b50565b5050508192508a8185015250508760408301528660608301528560808301528460a0830152611bb560c083018515159052565b8260e08301529998505050505050505050565b7f4e487b7100000000000000000000000000000000000000000000000000000000600052601260045260246000fd5b600082611c0657611c06611bc8565b500690565b7f4e487b7100000000000000000000000000000000000000000000000000000000600052601160045260246000fd5b600082611c4957611c49611bc8565b500490565b6000817fffffffffffffffffffffffffffffffffffffffffffffffffffffffffffffffff0483118215151615611c8657611c86611c0b565b500290565b600082821015611c9d57611c9d611c0b565b500390565b7f4e487b7100000000000000000000000000000000000000000000000000000000600052603260045260246000fd5b600060208284031215611ce357600080fd5b6102d382611760565b60007fffffffffffffffffffffffffffffffffffffffffffffffffffffffffffffffff821415611d1e57611d1e611c0b565b5060010190565b6040808252810183905260008460608301825b86811015611d615761ffff611d4c84611760565b16825260209283019290910190600101611d38565b50809250505073ffffffffffffffffffffffffffffffffffffffff83166020830152949350505050565b6020815281602082015260007f07ffffffffffffffffffffffffffffffffffffffffffffffffffffffffffffff831115611dc457600080fd5b8260051b80856040850137600092016040019182525092915050565b60006020808385031215611df357600080fd5b825167ffffffffffffffff811115611e0a57600080fd5b8301601f81018513611e1b57600080fd5b8051611e2961185c82611817565b81815260059190911b82018301908381019087831115611e4857600080fd5b928401925b82841015611e6f578351611e6081611777565b82529284019290840190611e4d565b979650505050505050565b7f4e487b7100000000000000000000000000000000000000000000000000000000600052602160045260246000fdfea2646970667358221220e378235ed66e6e75e6fa87153cdeaddb3c6049d070bd1ac4da44e7058205335f64736f6c63430008090033",
  "devdoc": {
    "kind": "dev",
    "methods": {},
    "version": 1
  },
  "userdoc": {
    "kind": "user",
    "methods": {},
    "version": 1
  },
  "storageLayout": {
    "storage": [
      {
        "astId": 10767,
        "contract": "src/bleeps/BleepsFixedPriceSale.sol:BleepsFixedPriceSale",
        "label": "_uptoInstr",
        "offset": 0,
        "slot": "0",
        "type": "t_uint256"
      },
      {
        "astId": 10771,
        "contract": "src/bleeps/BleepsFixedPriceSale.sol:BleepsFixedPriceSale",
        "label": "_passUsed",
        "offset": 0,
        "slot": "1",
        "type": "t_mapping(t_uint256,t_uint256)"
      }
    ],
    "types": {
      "t_mapping(t_uint256,t_uint256)": {
        "encoding": "mapping",
        "key": "t_uint256",
        "label": "mapping(uint256 => uint256)",
        "numberOfBytes": "32",
        "value": "t_uint256"
      },
      "t_uint256": {
        "encoding": "inplace",
        "label": "uint256",
        "numberOfBytes": "32"
      }
    }
  }
}