{
  "address": "0x8c01CdF9058f828112Ea1201b5737B184f2E247E",
  "abi": [
    {
      "inputs": [
        {
          "internalType": "contract Bleeps",
          "name": "bleeps",
          "type": "address"
        },
        {
          "internalType": "uint256",
          "name": "initPrice",
          "type": "uint256"
        },
        {
          "internalType": "uint256",
          "name": "delay",
          "type": "uint256"
        },
        {
          "internalType": "uint256",
          "name": "lastPrice",
          "type": "uint256"
        },
        {
          "internalType": "uint256",
          "name": "startTime",
          "type": "uint256"
        },
        {
          "internalType": "address payable",
          "name": "recipient",
          "type": "address"
        },
        {
          "internalType": "contract IERC721",
          "name": "mandalas",
          "type": "address"
        }
      ],
      "stateMutability": "nonpayable",
      "type": "constructor"
    },
    {
      "inputs": [
        {
          "internalType": "uint16",
          "name": "id",
          "type": "uint16"
        },
        {
          "internalType": "address",
          "name": "to",
          "type": "address"
        }
      ],
      "name": "mint",
      "outputs": [],
      "stateMutability": "payable",
      "type": "function"
    },
    {
      "inputs": [
        {
          "internalType": "uint256[]",
          "name": "ids",
          "type": "uint256[]"
        }
      ],
      "name": "ownersAndPriceInfo",
      "outputs": [
        {
          "internalType": "address[]",
          "name": "addresses",
          "type": "address[]"
        },
        {
          "internalType": "uint256",
          "name": "startTime",
          "type": "uint256"
        },
        {
          "internalType": "uint256",
          "name": "initPrice",
          "type": "uint256"
        },
        {
          "internalType": "uint256",
          "name": "delay",
          "type": "uint256"
        },
        {
          "internalType": "uint256",
          "name": "lastPrice",
          "type": "uint256"
        }
      ],
      "stateMutability": "view",
      "type": "function"
    },
    {
      "inputs": [],
      "name": "priceInfo",
      "outputs": [
        {
          "internalType": "uint256",
          "name": "startTime",
          "type": "uint256"
        },
        {
          "internalType": "uint256",
          "name": "initPrice",
          "type": "uint256"
        },
        {
          "internalType": "uint256",
          "name": "delay",
          "type": "uint256"
        },
        {
          "internalType": "uint256",
          "name": "lastPrice",
          "type": "uint256"
        }
      ],
      "stateMutability": "view",
      "type": "function"
    }
  ],
  "transactionHash": "0x209206ea3da00d9a93ce6433ad101fc873611f987e35eeb163fcd685cf48d5d7",
  "args": [
    "0xD09e3B3B4D4224a0995A59397eCEA2EAeb0a51D0",
    "2000000000000000000",
    172800,
    "100000000000000000",
    1635507323,
    "0xE53cd71271AcAdbeb0f64d9c8C62bBdDc8cA9e66",
    "0x4A219d8DE28C125edd354bBCc505cdc6eed771D7"
  ],
  "solcInputHash": "453ac7c543cabb868498baff475e6c82",
  "bytecode": "0x61016060405234801561001157600080fd5b50604051610e42380380610e428339810160408190526100309161007c565b6001600160a01b0396871660805260c09590955260e0939093526101009190915260a05282166101205216610140526100f1565b6001600160a01b038116811461007957600080fd5b50565b600080600080600080600060e0888a03121561009757600080fd5b87516100a281610064565b809750506020880151955060408801519450606088015193506080880151925060a08801516100d081610064565b60c08901519092506100e181610064565b8091505092959891949750929550565b60805160a05160c05160e051610100516101205161014051610c996101a96000396000610560015260008181610357015261075601526000818160f70152818161027901528181610439015281816104a9015261051401526000818160cf015281816102560152818161048201526104d101526000818160a901528181610233015281816103e5015261045a015260008181608601528181610210015261040b01526000818161014201526107f60152610c996000f3fe6080604052600436106100345760003560e01c80632a2c67ff1461003957806381059f78146100735780639c20551314610123575b600080fd5b34801561004557600080fd5b50610059610054366004610857565b610138565b60405161006a9594939291906108cc565b60405180910390f35b34801561007f57600080fd5b50604080517f000000000000000000000000000000000000000000000000000000000000000081527f000000000000000000000000000000000000000000000000000000000000000060208201527f0000000000000000000000000000000000000000000000000000000000000000918101919091527f0000000000000000000000000000000000000000000000000000000000000000606082015260800161006a565b610136610131366004610966565b6102a0565b005b60606000806000807f000000000000000000000000000000000000000000000000000000000000000073ffffffffffffffffffffffffffffffffffffffff1663a0554c2688886040518363ffffffff1660e01b815260040161019b9291906109a6565b60006040518083038186803b1580156101b357600080fd5b505afa1580156101c7573d6000803e3d6000fd5b505050506040513d6000823e601f3d9081017fffffffffffffffffffffffffffffffffffffffffffffffffffffffffffffffe016820160405261020d9190810190610a3a565b977f000000000000000000000000000000000000000000000000000000000000000097507f000000000000000000000000000000000000000000000000000000000000000096507f000000000000000000000000000000000000000000000000000000000000000095507f0000000000000000000000000000000000000000000000000000000000000000945092505050565b6102408261ffff1610610314576040517f08c379a000000000000000000000000000000000000000000000000000000000815260206004820152600d60248201527f494e56414c49445f534f554e440000000000000000000000000000000000000060448201526064015b60405180910390fd5b600061032960106103ff600686901c16610b4c565b9050806006148061033a5750806008145b156103e3573373ffffffffffffffffffffffffffffffffffffffff7f000000000000000000000000000000000000000000000000000000000000000016146103de576040517f08c379a000000000000000000000000000000000000000000000000000000000815260206004820152601960248201527f546865736520626c656570732061726520726573657276656400000000000000604482015260640161030b565b6107a7565b7f000000000000000000000000000000000000000000000000000000000000000060006104307f000000000000000000000000000000000000000000000000000000000000000042610b8f565b9050600061047e7f00000000000000000000000000000000000000000000000000000000000000007f0000000000000000000000000000000000000000000000000000000000000000610b8f565b90507f000000000000000000000000000000000000000000000000000000000000000082106104cf577f0000000000000000000000000000000000000000000000000000000000000000925061053b565b7f00000000000000000000000000000000000000000000000000000000000000006104fa8382610b8f565b6105049083610ba6565b61050e9190610be3565b610538907f0000000000000000000000000000000000000000000000000000000000000000610bf7565b92505b604051336024820152600090819073ffffffffffffffffffffffffffffffffffffffff7f00000000000000000000000000000000000000000000000000000000000000001690604401604080517fffffffffffffffffffffffffffffffffffffffffffffffffffffffffffffffe08184030181529181526020820180517bffffffffffffffffffffffffffffffffffffffffffffffffffffffff167f70a0823100000000000000000000000000000000000000000000000000000000179052516106059190610c0f565b600060405180830381855afa9150503d8060008114610640576040519150601f19603f3d011682016040523d82523d6000602084013e610645565b606091505b5091509150600082801561065a575060008251115b610665576000610679565b818060200190518101906106799190610c4a565b9050801561069b57600a61068e876008610ba6565b6106989190610be3565b95505b85341015610705576040517f08c379a000000000000000000000000000000000000000000000000000000000815260206004820152600a60248201527f4e4f545f454e4f55474800000000000000000000000000000000000000000000604482015260640161030b565b336108fc6107138834610b8f565b6040518115909202916000818181858888f1935050505015801561073b573d6000803e3d6000fd5b5060405173ffffffffffffffffffffffffffffffffffffffff7f0000000000000000000000000000000000000000000000000000000000000000169087156108fc029088906000818181858888f1935050505015801561079f573d6000803e3d6000fd5b505050505050505b6040517f9c20551300000000000000000000000000000000000000000000000000000000815261ffff8416600482015273ffffffffffffffffffffffffffffffffffffffff83811660248301527f00000000000000000000000000000000000000000000000000000000000000001690639c20551390604401600060405180830381600087803b15801561083a57600080fd5b505af115801561084e573d6000803e3d6000fd5b50505050505050565b6000806020838503121561086a57600080fd5b823567ffffffffffffffff8082111561088257600080fd5b818501915085601f83011261089657600080fd5b8135818111156108a557600080fd5b8660208260051b85010111156108ba57600080fd5b60209290920196919550909350505050565b60a0808252865190820181905260009060209060c0840190828a01845b8281101561091b57815173ffffffffffffffffffffffffffffffffffffffff16845292840192908401906001016108e9565b505050908301969096525060408101939093526060830191909152608090910152919050565b73ffffffffffffffffffffffffffffffffffffffff8116811461096357600080fd5b50565b6000806040838503121561097957600080fd5b823561ffff8116811461098b57600080fd5b9150602083013561099b81610941565b809150509250929050565b6020815281602082015260007f07ffffffffffffffffffffffffffffffffffffffffffffffffffffffffffffff8311156109df57600080fd5b8260051b80856040850137600092016040019182525092915050565b7f4e487b7100000000000000000000000000000000000000000000000000000000600052604160045260246000fd5b8051610a3581610941565b919050565b60006020808385031215610a4d57600080fd5b825167ffffffffffffffff80821115610a6557600080fd5b818501915085601f830112610a7957600080fd5b815181811115610a8b57610a8b6109fb565b8060051b6040517fffffffffffffffffffffffffffffffffffffffffffffffffffffffffffffffe0603f83011681018181108582111715610ace57610ace6109fb565b604052918252848201925083810185019188831115610aec57600080fd5b938501935b82851015610b1157610b0285610a2a565b84529385019392850192610af1565b98975050505050505050565b7f4e487b7100000000000000000000000000000000000000000000000000000000600052601260045260246000fd5b600082610b5b57610b5b610b1d565b500690565b7f4e487b7100000000000000000000000000000000000000000000000000000000600052601160045260246000fd5b600082821015610ba157610ba1610b60565b500390565b6000817fffffffffffffffffffffffffffffffffffffffffffffffffffffffffffffffff0483118215151615610bde57610bde610b60565b500290565b600082610bf257610bf2610b1d565b500490565b60008219821115610c0a57610c0a610b60565b500190565b6000825160005b81811015610c305760208186018101518583015201610c16565b81811115610c3f576000828501525b509190910192915050565b600060208284031215610c5c57600080fd5b505191905056fea26469706673582212200fbfd25fde1421c53cb7e122270bf2224cbbbd46dd743565474e1b84253c576e64736f6c63430008090033",
  "devdoc": {
    "kind": "dev",
    "methods": {},
    "version": 1
  },
  "userdoc": {
    "kind": "user",
    "methods": {},
    "version": 1
  },
  "storageLayout": {
    "storage": [],
    "types": null
  }
}