{
  "address": "0x9aca0EfC65812b01C3920644eDF2F13952CBfa79",
  "abi": [
    {
      "inputs": [
        {
          "internalType": "contract Bleeps",
          "name": "bleeps",
          "type": "address"
        },
        {
          "internalType": "uint256",
          "name": "price",
          "type": "uint256"
        },
        {
          "internalType": "uint256",
          "name": "startTime",
          "type": "uint256"
        },
        {
          "internalType": "uint256",
          "name": "whitelistPrice",
          "type": "uint256"
        },
        {
          "internalType": "uint256",
          "name": "whitelistEndTime",
          "type": "uint256"
        },
        {
          "internalType": "bytes32",
          "name": "whitelistMerkleRoot",
          "type": "bytes32"
        },
        {
          "internalType": "address payable",
          "name": "projectCreator",
          "type": "address"
        },
        {
          "internalType": "uint256",
          "name": "creatorFeePer10000",
          "type": "uint256"
        },
        {
          "internalType": "address payable",
          "name": "saleRecipient",
          "type": "address"
        },
        {
          "internalType": "uint256",
          "name": "uptoInstr",
          "type": "uint256"
        }
      ],
      "stateMutability": "nonpayable",
      "type": "constructor"
    },
    {
      "inputs": [
        {
          "internalType": "uint16",
          "name": "id",
          "type": "uint16"
        },
        {
          "internalType": "address",
          "name": "to",
          "type": "address"
        }
      ],
      "name": "creatorMint",
      "outputs": [],
      "stateMutability": "nonpayable",
      "type": "function"
    },
    {
      "inputs": [
        {
          "internalType": "uint16[]",
          "name": "ids",
          "type": "uint16[]"
        },
        {
          "internalType": "address",
          "name": "to",
          "type": "address"
        }
      ],
      "name": "creatorMultiMint",
      "outputs": [],
      "stateMutability": "nonpayable",
      "type": "function"
    },
    {
      "inputs": [
        {
          "internalType": "uint256",
          "name": "id",
          "type": "uint256"
        }
      ],
      "name": "isOpenForSale",
      "outputs": [
        {
          "internalType": "bool",
          "name": "",
          "type": "bool"
        }
      ],
      "stateMutability": "view",
      "type": "function"
    },
    {
      "inputs": [
        {
          "internalType": "uint256",
          "name": "passId",
          "type": "uint256"
        }
      ],
      "name": "isPassUsed",
      "outputs": [
        {
          "internalType": "bool",
          "name": "",
          "type": "bool"
        }
      ],
      "stateMutability": "view",
      "type": "function"
    },
    {
      "inputs": [
        {
          "internalType": "uint256",
          "name": "id",
          "type": "uint256"
        }
      ],
      "name": "isReserved",
      "outputs": [
        {
          "internalType": "bool",
          "name": "",
          "type": "bool"
        }
      ],
      "stateMutability": "pure",
      "type": "function"
    },
    {
      "inputs": [
        {
          "internalType": "uint16",
          "name": "id",
          "type": "uint16"
        },
        {
          "internalType": "address",
          "name": "to",
          "type": "address"
        }
      ],
      "name": "mint",
      "outputs": [],
      "stateMutability": "payable",
      "type": "function"
    },
    {
      "inputs": [
        {
          "internalType": "uint16",
          "name": "id",
          "type": "uint16"
        },
        {
          "internalType": "address",
          "name": "to",
          "type": "address"
        },
        {
          "internalType": "uint256",
          "name": "passId",
          "type": "uint256"
        },
        {
          "internalType": "bytes32[]",
          "name": "proof",
          "type": "bytes32[]"
        }
      ],
      "name": "mintWithPassId",
      "outputs": [],
      "stateMutability": "payable",
      "type": "function"
    },
    {
      "inputs": [
        {
          "internalType": "uint16",
          "name": "id",
          "type": "uint16"
        },
        {
          "internalType": "address",
          "name": "to",
          "type": "address"
        },
        {
          "internalType": "uint256",
          "name": "passId",
          "type": "uint256"
        },
        {
          "internalType": "bytes",
          "name": "signature",
          "type": "bytes"
        },
        {
          "internalType": "bytes32[]",
          "name": "proof",
          "type": "bytes32[]"
        }
      ],
      "name": "mintWithSalePass",
      "outputs": [],
      "stateMutability": "payable",
      "type": "function"
    },
    {
      "inputs": [
        {
          "internalType": "uint256",
          "name": "passId",
          "type": "uint256"
        },
        {
          "internalType": "uint256[]",
          "name": "ids",
          "type": "uint256[]"
        }
      ],
      "name": "ownersAndPriceInfo",
      "outputs": [
        {
          "internalType": "address[]",
          "name": "addresses",
          "type": "address[]"
        },
        {
          "internalType": "uint256",
          "name": "price",
          "type": "uint256"
        },
        {
          "internalType": "uint256",
          "name": "startTime",
          "type": "uint256"
        },
        {
          "internalType": "uint256",
          "name": "whitelistPrice",
          "type": "uint256"
        },
        {
          "internalType": "uint256",
          "name": "whitelistEndTime",
          "type": "uint256"
        },
        {
          "internalType": "bytes32",
          "name": "whitelistMerkleRoot",
          "type": "bytes32"
        },
        {
          "internalType": "bool",
          "name": "passUsed",
          "type": "bool"
        },
        {
          "internalType": "uint256",
          "name": "uptoInstr",
          "type": "uint256"
        }
      ],
      "stateMutability": "view",
      "type": "function"
    },
    {
      "inputs": [],
      "name": "priceInfo",
      "outputs": [
        {
          "internalType": "uint256",
          "name": "price",
          "type": "uint256"
        },
        {
          "internalType": "uint256",
          "name": "startTime",
          "type": "uint256"
        },
        {
          "internalType": "uint256",
          "name": "whitelistPrice",
          "type": "uint256"
        },
        {
          "internalType": "uint256",
          "name": "whitelistEndTime",
          "type": "uint256"
        },
        {
          "internalType": "bytes32",
          "name": "whitelistMerkleRoot",
          "type": "bytes32"
        }
      ],
      "stateMutability": "view",
      "type": "function"
    }
  ],
  "transactionHash": "0x4d4890a49747eeaaa658c22f4e9e0fb99d5bdb6883524e87e79ffbbd30d3a1b1",
  "args": [
    "0x0DB16EC25897f0aEBA70152619E164dA3bc861d9",
    "100000000000000000",
    1638352108,
    "100000000000000000",
    1638352108,
    "0x265d0a4c29b6be4c27e67767fbebec6b414b112d0253193e587fe8bbebc31875",
    "0xcE1AEF3e0A5324F7AB6e21B4dacc10B82666E1e2",
    2500,
    "0x75228237A4a2472C71B6d310Fa29a39f84aB9a25",
    8
  ],
  "linkedData": {
    "numPrivatePasses": 815,
    "leaves": [
      {
        "passId": "0",
        "signer": "0x484a8F8D05932f245455c67e0Fb90BEf7dD4D12e"
      },
      {
        "passId": "1",
        "signer": "0xa706A269A765667C315A7345e332141d3F331f1c"
      },
      {
        "passId": "2",
        "signer": "0x311bbC519c493767c826B4333819885985Bbc3e7"
      },
      {
        "passId": "3",
        "signer": "0x6C307bb1b818a79d302E1af8D4eC23D33D1B3E0C"
      },
      {
        "passId": "4",
        "signer": "0x7cd3658a8459949B4fE7e4cA2639Da169D448EF6"
      },
      {
        "passId": "5",
        "signer": "0xc442f9Cb536F6F6F4D36984e0d4b7C165F6DB068"
      },
      {
        "passId": "6",
        "signer": "0x5ED569BAB336DAf960Aaf3E18239fc2017cbB5cC"
      },
      {
        "passId": "7",
        "signer": "0x3BeFE239259bD19169237f50Cc081B61E3a9c309"
      },
      {
        "passId": "8",
        "signer": "0x644fbd2E25a5EC2269711Ba49F6EaC5c74cC095a"
      },
      {
        "passId": "9",
        "signer": "0xBef2Da0E93881b6e0306F7F71fDA4Bb1493FBfF5"
      },
      {
        "passId": "10",
        "signer": "0xdd3435b2eeaAbB53E87F9349634bD9d290C46156"
      },
      {
        "passId": "11",
        "signer": "0x5dd6982e1c6e18633873EfA7fe1EC37988F9Ea7f"
      },
      {
        "passId": "12",
        "signer": "0xE33E345A8F2B656ba2345E366233Fb13ED3c78b8"
      },
      {
        "passId": "13",
        "signer": "0x678e8Ca3E88801846E2AC31A832A39f18d6c64c8"
      },
      {
        "passId": "14",
        "signer": "0x9d933bE3b1F40b2848490d1f976a27D1344c40cC"
      },
      {
        "passId": "15",
        "signer": "0x9437ce4C9D9bb5991d3037c939abf8a5CD0Dc938"
      },
      {
        "passId": "16",
        "signer": "0x5848AF7018153EEceA88F9D5D0de96B538E15BC6"
      },
      {
        "passId": "17",
        "signer": "0x607DDB7585d754f6D0317A7460681EA70b99f2Dc"
      },
      {
        "passId": "18",
        "signer": "0x147BcA4124C7823378F7A30fC3752606DAdAc583"
      },
      {
        "passId": "19",
        "signer": "0x749f18f74E8db8879646c090dDf3e48240A5504c"
      },
      {
        "passId": "20",
        "signer": "0xA518f2bE17e9195b865DD20cD587a7D844AC5741"
      },
      {
        "passId": "21",
        "signer": "0x376563667e6ADb0AB3845F0B2414B9596d73072a"
      },
      {
        "passId": "22",
        "signer": "0x0Da9Dde8bEc873A9512A89a84F201E607E4d22C7"
      },
      {
        "passId": "23",
        "signer": "0x2DEE26c491BC2F28A2a74C588331b1c89B37cE4a"
      },
      {
        "passId": "24",
        "signer": "0xd9f0335C21a76f9B9aD4c97FbaA35b03b9168Bf0"
      },
      {
        "passId": "25",
        "signer": "0xaae1f352614be662014E5275205eF2cd7193ce50"
      },
      {
        "passId": "26",
        "signer": "0xB69029004704c2D904C9139Afb16eD257A283A9A"
      },
      {
        "passId": "27",
        "signer": "0x57d8100cC82Df4f445Ab3b626E4132d1B55d5D8B"
      },
      {
        "passId": "28",
        "signer": "0x90cF9FF85E2855093bb9995e357533a2BAcB3D0C"
      },
      {
        "passId": "29",
        "signer": "0x66f099f12e338a620e1ac8F106e222367cF6c051"
      },
      {
        "passId": "30",
        "signer": "0xb4706Fb9f78de984c185fa2b783C2196B4463a56"
      },
      {
        "passId": "31",
        "signer": "0x1A25d750C68F732aaF27231931Ea546Da0225dA4"
      },
      {
        "passId": "32",
        "signer": "0x60Ef3da509CF76508EA06C3FceEAD08990298Fbc"
      },
      {
        "passId": "33",
        "signer": "0xeAAC86baBAE745cdFfB25AC09F66F14c56F3295B"
      },
      {
        "passId": "34",
        "signer": "0xb9D19ac82E7ad111360C521784EdFfeD08432003"
      },
      {
        "passId": "35",
        "signer": "0xE180466b0c2d8BB1c7D27bA5747dAD589908bfaE"
      },
      {
        "passId": "36",
        "signer": "0x8F240984Ea3F16c397E96F2932606667E5fD180A"
      },
      {
        "passId": "37",
        "signer": "0x5881DfC0a1A1fCe552bB274199c1bAB5be48c3fd"
      },
      {
        "passId": "38",
        "signer": "0x6d5381BBe143917557882651f26DB3eA37075f0A"
      },
      {
        "passId": "39",
        "signer": "0xD43EBE62Ba618d4A81a2B556DB638e238704d304"
      },
      {
        "passId": "40",
        "signer": "0x54cB295171f86723D075A32B1e7473b1EC5Ed3e4"
      },
      {
        "passId": "41",
        "signer": "0x7bcb1872eC88BF6b88cB53fF8c3065FDa2066294"
      },
      {
        "passId": "42",
        "signer": "0xF992C5815eC187C62e00Ee580114E093B195Ee53"
      },
      {
        "passId": "43",
        "signer": "0x759DE563E863378150cd3Caae496b4c3Bb53C9A7"
      },
      {
        "passId": "44",
        "signer": "0x5082079149a50D8303B4C9B091b73915ddDc1d6C"
      },
      {
        "passId": "45",
        "signer": "0xF1A25eC5D1c5bD93F59c812c30157Edd487F111f"
      },
      {
        "passId": "46",
        "signer": "0x87D732D911BFc964C03c7f0cb5d9dc079A95FCa7"
      },
      {
        "passId": "47",
        "signer": "0xD80bf58D8477218F50775001207B91Bb1Cd7bd3B"
      },
      {
        "passId": "48",
        "signer": "0xc0Ec45e4c3Af07e2038F535cfc5cd835683D61e9"
      },
      {
        "passId": "49",
        "signer": "0x0975389F79B0311C1265eda9E0D6F4D049b2B838"
      },
      {
        "passId": "50",
        "signer": "0x44794587ca3E23870CDB167Ca48AEe2212a57039"
      },
      {
        "passId": "51",
        "signer": "0x759579bA75E7A1efE9941C6395fCBC56de30E129"
      },
      {
        "passId": "52",
        "signer": "0xDbb7Fd7E1bf2fcA3035a4D42bE6f8D30d39b7fCD"
      },
      {
        "passId": "53",
        "signer": "0x1A85c6D191F14F45D6e3C04b0D933c54e80247A9"
      },
      {
        "passId": "54",
        "signer": "0x40E4CEf74c254898E62795955A53Af6E6cC536fb"
      },
      {
        "passId": "55",
        "signer": "0x6FE9e1c31724FafAA4a8E67576b54c7F54CCD6bb"
      },
      {
        "passId": "56",
        "signer": "0xABd0b760DB495f1cfE0Ccf492bF4fF9c679bD89b"
      },
      {
        "passId": "57",
        "signer": "0x8141FF6F76e346EE978BfE1BB03BF5866Fa8F55E"
      },
      {
        "passId": "58",
        "signer": "0x04685b72B6C6C69918e8692EAD43615c5737aEa0"
      },
      {
        "passId": "59",
        "signer": "0x0062a820D39916FE42B524756Fec82Ab5F41D573"
      },
      {
        "passId": "60",
        "signer": "0x84b12B65B8A15f9a83716B56ABcAe240701274F6"
      },
      {
        "passId": "61",
        "signer": "0x8844aC3A20Ec4cb9B23abd35577458088abf89C6"
      },
      {
        "passId": "62",
        "signer": "0x89452FA4494B0B6B1D2d1b69853BDf3088504aaA"
      },
      {
        "passId": "63",
        "signer": "0xdEc4291158CC7878737CA670fC945804a20C7750"
      },
      {
        "passId": "64",
        "signer": "0x0eE3aE6529Bc3F1cDe8CFA1E510Ac13170430267"
      },
      {
        "passId": "65",
        "signer": "0x270f084d19dfE27FbcA5d0D0d61f60346F9DC17B"
      },
      {
        "passId": "66",
        "signer": "0xE7C7cFCfB4e1d14b3A766e297cb46B5D3414050e"
      },
      {
        "passId": "67",
        "signer": "0x4d8EFBA9308D8d9e693ef0d3882a69a7Aa749AB4"
      },
      {
        "passId": "68",
        "signer": "0xC42Be68620884bA1615B8CB7Ca2075d9Fc5752a0"
      },
      {
        "passId": "69",
        "signer": "0x9ecff8E831F1B39561CEAE98Bcd5856828192863"
      },
      {
        "passId": "70",
        "signer": "0xE6A189680233E53D68De23f799c623bb30C3a770"
      },
      {
        "passId": "71",
        "signer": "0x046C1cC14295e756B9c8965EC5527825B082164e"
      },
      {
        "passId": "72",
        "signer": "0x036dEe1B703f231D43563922CCeE657B456C0Acc"
      },
      {
        "passId": "73",
        "signer": "0xFd8d8d4E0956730aEEF0d6C2292D153cea0C8e00"
      },
      {
        "passId": "74",
        "signer": "0x3F31d350b569AA107926fb85E30A12b563849BC1"
      },
      {
        "passId": "75",
        "signer": "0x7198175B82A12e6D2952d8f3C85EF351aa0Faa8a"
      },
      {
        "passId": "76",
        "signer": "0x05A563bA59b220ed4E697571Ebb95768aB6A1ef4"
      },
      {
        "passId": "77",
        "signer": "0xa5273B8C441c935df2FeC843BE87786697FbB9cB"
      },
      {
        "passId": "78",
        "signer": "0xED5d1D6974eF98dE79BD9100BDA44660d82198cD"
      },
      {
        "passId": "79",
        "signer": "0xe0295742ef2FaD2dCf11c009E6cC27ef9F42A713"
      },
      {
        "passId": "80",
        "signer": "0xb7EB169e853D67B6efc9A3d259E225029b926d00"
      },
      {
        "passId": "81",
        "signer": "0xc2e973d679577304c588A9e36b1f1C28eB6D24B5"
      },
      {
        "passId": "82",
        "signer": "0xaA1F1022E647ecF174eC5abC96c45812A884c856"
      },
      {
        "passId": "83",
        "signer": "0xF9FF5251b21FF01BF0A6521E1E15c0d07912Ab34"
      },
      {
        "passId": "84",
        "signer": "0xa9b279D9BBDd6981E9C3D84A097B2C0ca2780548"
      },
      {
        "passId": "85",
        "signer": "0x81E6224245fb411093d69A982579Aa87ec750ec4"
      },
      {
        "passId": "86",
        "signer": "0xF610642C016A7817dAb31f208CB30d4AB6E4Bf0a"
      },
      {
        "passId": "87",
        "signer": "0x6febB37f3959c9e79739937f50940ed2B4a4f149"
      },
      {
        "passId": "88",
        "signer": "0x200290c6423D0F614eC646f6b1CE77363A6c5c99"
      },
      {
        "passId": "89",
        "signer": "0x7A9eAccC60C8167B423A744eE774D22337c27747"
      },
      {
        "passId": "90",
        "signer": "0xcd56eE1bCcd3F7640fdA980F59726c3D3E893E88"
      },
      {
        "passId": "91",
        "signer": "0xF2Bb18CC3d1CF26C153Be90C4151432E5B12ea0e"
      },
      {
        "passId": "92",
        "signer": "0x85764ca573D5d9bD9B995b76bc748529Fa522c79"
      },
      {
        "passId": "93",
        "signer": "0x11aBB0cb8FbaB478b7279e2c1519b5FD52db828A"
      },
      {
        "passId": "94",
        "signer": "0x1432Dae87FA54b570042988Af6Ec2152503E1E36"
      },
      {
        "passId": "95",
        "signer": "0x93393358615F2b643d3f04e8c03616122E9E8cF2"
      },
      {
        "passId": "96",
        "signer": "0x324af9139c0FaF60141dAD53DA127e4bda684115"
      },
      {
        "passId": "97",
        "signer": "0xFa8FcA836765761180328Ba14fe389a45FE4ec43"
      },
      {
        "passId": "98",
        "signer": "0xcb44B8c91BeBC55d1a03408CE47FAbbf3dE2c8Ae"
      },
      {
        "passId": "99",
        "signer": "0x2d70e640A78ccfB045AEA5B60D9d86d125b70ad1"
      },
      {
        "passId": "100",
        "signer": "0x2712006E14076226eD84fD133f9364a78eDE4533"
      },
      {
        "passId": "101",
        "signer": "0x79ee91d43A1a6c12d4125C710D0934Ad72777a19"
      },
      {
        "passId": "102",
        "signer": "0x48E52DB6743a019A2C66A72246Cc08e331c575ef"
      },
      {
        "passId": "103",
        "signer": "0x3B03cEC2052Ca9ef59EA0A18b96Ce0737c9F2860"
      },
      {
        "passId": "104",
        "signer": "0x65F5392074dF1C7DCD52EbA1a48B5A893742DB7a"
      },
      {
        "passId": "105",
        "signer": "0x6a9c3c64FF3a517793Fe1F6a9FFAf6c9b83ccC17"
      },
      {
        "passId": "106",
        "signer": "0xBcD75712Ba8600B19662588240EC13074D08bDDa"
      },
      {
        "passId": "107",
        "signer": "0x9B9eEd18Db4F22beaa0d541Bcbea96ADD71Ecb26"
      },
      {
        "passId": "108",
        "signer": "0xA814b9818C6c7c9051604a7aD8503937c590F323"
      },
      {
        "passId": "109",
        "signer": "0x25754a01eb82453ceC237DDDE155717A8C72C62A"
      },
      {
        "passId": "110",
        "signer": "0xa0c89642Ac9489911bf8Ce73b57761Bd089dA9F4"
      },
      {
        "passId": "111",
        "signer": "0xc34dbC5e7EA8b26533bFe2acb7aa738Ce050dA29"
      },
      {
        "passId": "112",
        "signer": "0xD21fb9bC5C6d5817c4E7132b613049DDeE5E5820"
      },
      {
        "passId": "113",
        "signer": "0x47F603036724F35CBBD18E262B45d53f209fE7C2"
      },
      {
        "passId": "114",
        "signer": "0x7493EdE969D7BfE6fFCcD5A47D1D73AAA2631e1e"
      },
      {
        "passId": "115",
        "signer": "0xbF76ca403ce846486E161A1Ccf86Da3d60b942a6"
      },
      {
        "passId": "116",
        "signer": "0x058b3dB1aB24d33db56f7D51Fe3876b57e569Fdc"
      },
      {
        "passId": "117",
        "signer": "0x2CB9ff8FBa2451fAF1E58DB6C4161914c35F5Ab6"
      },
      {
        "passId": "118",
        "signer": "0xBC7EFd17238017f0A5eaC4b95B29DDc37b975bbb"
      },
      {
        "passId": "119",
        "signer": "0x472B4F189F448e954aC466d0f4C99375D2a6062a"
      },
      {
        "passId": "120",
        "signer": "0x2D8282099dD31D3E915da0EC37A0f0F4a6B5A7f3"
      },
      {
        "passId": "121",
        "signer": "0x5E183316fbA6B797BDBda0166aa05063A6bD2098"
      },
      {
        "passId": "122",
        "signer": "0x0d4690b9ED7925024979Ac0D0eE6b54CDFe6fE80"
      },
      {
        "passId": "123",
        "signer": "0xDd67f7eafF0973dabB338bcb6883f90f5c21303A"
      },
      {
        "passId": "124",
        "signer": "0x0B16A10D387ba7baB939E1519Ad53c155D63461d"
      },
      {
        "passId": "125",
        "signer": "0x35fCD46cD0f8D54E0fc6DA6a77b8686E68d0Ce32"
      },
      {
        "passId": "126",
        "signer": "0x41836C5Ff9402845bC38F9508247325B286873Dc"
      },
      {
        "passId": "127",
        "signer": "0x91e42Ad961fE9d8cf4D28C466723e6BB8cC7F39E"
      },
      {
        "passId": "128",
        "signer": "0x9c3f51428C44af4B28dE15260f8b15AbBc1650e8"
      },
      {
        "passId": "129",
        "signer": "0xB8C012b9Db7A249275f4bA28850D70143e1756a6"
      },
      {
        "passId": "130",
        "signer": "0x656961886FBe686a9658B20a0Ba9Bd193A24780f"
      },
      {
        "passId": "131",
        "signer": "0x578608C3a26042568b64Ea78d2E707b1B1898B18"
      },
      {
        "passId": "132",
        "signer": "0x311e021Cfb44Fc3CeE63bB6B91BC75Dd69aBeb1b"
      },
      {
        "passId": "133",
        "signer": "0x4D1b661C66967DB2D8bB4334BeF50a4129Da167F"
      },
      {
        "passId": "134",
        "signer": "0xe3fb185E83b814D41239bd9b340b9d59DD77A0f6"
      },
      {
        "passId": "135",
        "signer": "0xA831428711d496d6aE55045180a24A118d26404E"
      },
      {
        "passId": "136",
        "signer": "0xcF709F372100A8c38C5E0C6C2bAE9047Bd75415c"
      },
      {
        "passId": "137",
        "signer": "0x02F3304C0478f6a5afc338061A45bb136Ac65309"
      },
      {
        "passId": "138",
        "signer": "0xb99587fd316e1eAb237164EEEB0276fa95A59CFc"
      },
      {
        "passId": "139",
        "signer": "0xE9363451Dec1AcC037EcaB76CF59d442B84e9b17"
      },
      {
        "passId": "140",
        "signer": "0x748A5289ba2922954b5F7bc88b8e026846A62344"
      },
      {
        "passId": "141",
        "signer": "0xfE94eB5f4671e80fb9038f7b50eb03d360Fe8916"
      },
      {
        "passId": "142",
        "signer": "0xF19412A4585318b53F4e648F11130CDB48b53b23"
      },
      {
        "passId": "143",
        "signer": "0x3C1f2e223e39B9Cfd8eB22148307DeA80421411C"
      },
      {
        "passId": "144",
        "signer": "0x11354ad767f094F562483027820c37151aA719C3"
      },
      {
        "passId": "145",
        "signer": "0xb4fb36eB1399487C8Cd046Ab818Cc6C12BA264BD"
      },
      {
        "passId": "146",
        "signer": "0xbBb250A0ccB2Dc98AfAF1F6f0D3CA0803E44e187"
      },
      {
        "passId": "147",
        "signer": "0xa52f6EC029fF12055525f85B937B7f05AFD6b30e"
      },
      {
        "passId": "148",
        "signer": "0x40B6910fd3fc38Fe18d864FBc7A92DB89421B96A"
      },
      {
        "passId": "149",
        "signer": "0x9EEb95490A07F8E345031dE9BA3D015a425b44C6"
      },
      {
        "passId": "150",
        "signer": "0x63142a1E323c7B8598e0db60aAd6Be124F6762d3"
      },
      {
        "passId": "151",
        "signer": "0xEeAbaC501f0a5a8f9d9508E828c583FAc6659775"
      },
      {
        "passId": "152",
        "signer": "0xb0ac53af2D518CdB6EE64DAE0A81ee29b606A5E1"
      },
      {
        "passId": "153",
        "signer": "0x8C84c57E54b28527ba769c12DF550e033D099D0c"
      },
      {
        "passId": "154",
        "signer": "0x0DC9C993262425F3646973265ec2979df53078bE"
      },
      {
        "passId": "155",
        "signer": "0xdb7A69D42481d45ED36EB5a8A2AF51e597FF4D41"
      },
      {
        "passId": "156",
        "signer": "0xf7ab1D333ec99e8E74EFe8b8b1dc80B0273EEe04"
      },
      {
        "passId": "157",
        "signer": "0xC7703Dee14d3225e34BB0c26a5f1A5B0987F9c30"
      },
      {
        "passId": "158",
        "signer": "0x0247978ff8c91371CC8D68e25634c7C02Cc5efB7"
      },
      {
        "passId": "159",
        "signer": "0x10ffee0642aBaFBd428b6b3306D3680D54310137"
      },
      {
        "passId": "160",
        "signer": "0xd6ecCa98d5C5f951a4a68A3B5B7eAe1CC1873dA5"
      },
      {
        "passId": "161",
        "signer": "0x745709Bdf6Ca85f876BC511B86428A1219143A2F"
      },
      {
        "passId": "162",
        "signer": "0xC33c215A5404f3f6Bb9d54df415f33c51704708a"
      },
      {
        "passId": "163",
        "signer": "0x063AbD43EbD765b021234600409516d0B0Cd6D0c"
      },
      {
        "passId": "164",
        "signer": "0xc396FD8B0F70A4027bd8D945b047802AbB747790"
      },
      {
        "passId": "165",
        "signer": "0x6a22c2C643bADE29Ea573EF579421cF1Be793590"
      },
      {
        "passId": "166",
        "signer": "0xe85a062676A9d66fed655f63A75e957d7EBAB9aB"
      },
      {
        "passId": "167",
        "signer": "0x032d19BA19701235c5546df254cdCE9e119496cF"
      },
      {
        "passId": "168",
        "signer": "0x98A172216C508c87a82D8458dEF258B736FEf361"
      },
      {
        "passId": "169",
        "signer": "0x7B043a2997a6dd271dE2b439eBE0e30DcCeDDD8D"
      },
      {
        "passId": "170",
        "signer": "0x25Bb51c2eCc27012cF1bbE3a07e397C72D48eA30"
      },
      {
        "passId": "171",
        "signer": "0xDe54A63Ac848C90d82D23f21CA40E691273E70a1"
      },
      {
        "passId": "172",
        "signer": "0x4ebFF01Cc55b9c3434EfD1196A7b31baf4ea5823"
      },
      {
        "passId": "173",
        "signer": "0xeD7DE676380e2793d174EE307D2364881Fc19417"
      },
      {
        "passId": "174",
        "signer": "0x266Ea3346400BB5B26b5Ff44C6095E2ecfB3689A"
      },
      {
        "passId": "175",
        "signer": "0x7108e5896241153DD9AF5A00e2F8da7570c44bf0"
      },
      {
        "passId": "176",
        "signer": "0xDC931FbC37283A97674db7fAFe3A9Cd201C5a71e"
      },
      {
        "passId": "177",
        "signer": "0x65570a940464eD13e3F5C60D9BB3feD23b3Cecca"
      },
      {
        "passId": "178",
        "signer": "0xB8872b88E5d957887271fA6CB270DB84D0db8eEe"
      },
      {
        "passId": "179",
        "signer": "0xEa6ba059034e73d42eDaB2179dC45ce1596A009c"
      },
      {
        "passId": "180",
        "signer": "0x30B262018D3122Ed98C8B6F1c75661e09493f09F"
      },
      {
        "passId": "181",
        "signer": "0x8DB93cc2E2AFec8db05db9f36C9898eA6D383AA4"
      },
      {
        "passId": "182",
        "signer": "0x127367d811a6F08d3D62B2902956FB96aB4bAe9B"
      },
      {
        "passId": "183",
        "signer": "0x648613e75cA021fD2F9b5f89421F256BD224b1eE"
      },
      {
        "passId": "184",
        "signer": "0xf633C71fC0250565E0CF3486b6DBc77D0CeD844e"
      },
      {
        "passId": "185",
        "signer": "0x1A906b7197BEE3757EFFE7A536e07BE0231d8F9F"
      },
      {
        "passId": "186",
        "signer": "0x76c79B29D4031457A6F199E7ea3271e7C5A7b51e"
      },
      {
        "passId": "187",
        "signer": "0x82F69695c02b67938CE25205B74CafC424DEf978"
      },
      {
        "passId": "188",
        "signer": "0xA3F33D626B495255990AC68a04a0679E3a63B72b"
      },
      {
        "passId": "189",
        "signer": "0x5C05F025F7688f93686eeB364d281e5545ad2f3d"
      },
      {
        "passId": "190",
        "signer": "0xfBae9CB5C78a40602025a6826a02d3ca9A1c8850"
      },
      {
        "passId": "191",
        "signer": "0x30fcc1B570e39B71C9925A58eabC89C8C0Cb46b9"
      },
      {
        "passId": "192",
        "signer": "0x931221b8375E43f9ddc98743BE369B307790b046"
      },
      {
        "passId": "193",
        "signer": "0x124d18982481c798997E9B9C6A15f5C9dF715D2C"
      },
      {
        "passId": "194",
        "signer": "0x6d4b7B24523B234b5cF24A9f707Df286CBd9d351"
      },
      {
        "passId": "195",
        "signer": "0x661ee7c12a2785bb4e99BAaE9ae27827D2C1D588"
      },
      {
        "passId": "196",
        "signer": "0x450627c3967590ccE0251ab998b810074BcD32c5"
      },
      {
        "passId": "197",
        "signer": "0xd2c236AAFA40772D9C17F36E5212291Ae8c496D7"
      },
      {
        "passId": "198",
        "signer": "0xe50D724bA9AaEBed62A605d0031751ebA55C83eE"
      },
      {
        "passId": "199",
        "signer": "0x692C6044b5A6021e8badbaEFE343264108abB9db"
      },
      {
        "passId": "200",
        "signer": "0xa105f7dED1E14eb8DBCA9A49AeB9cb116502Bb35"
      },
      {
        "passId": "201",
        "signer": "0xa66062172f5b06535988EA1da21448ee15382fb6"
      },
      {
        "passId": "202",
        "signer": "0x63e5e460844B0d65437c992Ea4119EDB3AF0C1c4"
      },
      {
        "passId": "203",
        "signer": "0x749f6194a5132b1039055556C0d52A1Cc206177D"
      },
      {
        "passId": "204",
        "signer": "0x50cd16970BC8c3f52a1951e8a8Dd09b0Cc8Ba111"
      },
      {
        "passId": "205",
        "signer": "0x2939307b3AeEbAA70Ad22233AfBa8FC74391F61F"
      },
      {
        "passId": "206",
        "signer": "0x91cAd43F3c1b094d1aDD9cfac229D3874025dA25"
      },
      {
        "passId": "207",
        "signer": "0xB4b8F1425bCb9A9ae4a5D0e8E92F41c8C33F64A3"
      },
      {
        "passId": "208",
        "signer": "0x0a0349cc34407c862316BCBAD5A70D0652D3c490"
      },
      {
        "passId": "209",
        "signer": "0x3e057DAE05C9b61d0a9e244cb5001f64C8ac2EA1"
      },
      {
        "passId": "210",
        "signer": "0xB702f50bFeCe992360495EC7D69230955dD04d8c"
      },
      {
        "passId": "211",
        "signer": "0xF561F2b0c684e8891EeaCa59D162cA5342943A45"
      },
      {
        "passId": "212",
        "signer": "0xc2402AEB28EbbFfd99781EeC533208dD5b6748e8"
      },
      {
        "passId": "213",
        "signer": "0x6987E76AD5699905cefa9e4a370841Bc0f96E073"
      },
      {
        "passId": "214",
        "signer": "0xF4385C613B1E4D1CCE32ea899b427eC7104BF330"
      },
      {
        "passId": "215",
        "signer": "0x9752C779132cdD27Df6d4e86Fa895b704A34295C"
      },
      {
        "passId": "216",
        "signer": "0xFA73581F1272F87ed89eA8fE7b09cE429c5acDf6"
      },
      {
        "passId": "217",
        "signer": "0xA82DE8C28901e648b644996884515acF91D40E5B"
      },
      {
        "passId": "218",
        "signer": "0xE69f5ee90D4827D06ff3D194f1599cffA6306959"
      },
      {
        "passId": "219",
        "signer": "0x3Baf4d6Bb8C635356390A5C451e6CA9B7559d7a7"
      },
      {
        "passId": "220",
        "signer": "0x767aD28D969C63Bc93c8D4ffcf01F3E06DC9d1a0"
      },
      {
        "passId": "221",
        "signer": "0x0D820c0D6171bBfF90c049F8483FaF257d629FC3"
      },
      {
        "passId": "222",
        "signer": "0xD2d745dfD7f6Fc0893Db5A7846713423ad88d481"
      },
      {
        "passId": "223",
        "signer": "0xD356242FF74236b418E8B6DB0A88121A274009d4"
      },
      {
        "passId": "224",
        "signer": "0x9228f4E15F74F4e52e0F3f7D45B57885a35695b5"
      },
      {
        "passId": "225",
        "signer": "0xD18980BD08B36574E56e6D35404Edc64A5FE012D"
      },
      {
        "passId": "226",
        "signer": "0x4e1631DB2Fae19D7A96962E8FFafc45F362E59c4"
      },
      {
        "passId": "227",
        "signer": "0x6204B7180C9eBc05aADAE209A2E94cd923AAdF43"
      },
      {
        "passId": "228",
        "signer": "0xe8Cd0170506d130F4407C067690F207df2e6CD7b"
      },
      {
        "passId": "229",
        "signer": "0xE3f61A7Ed72E807f0abcb134F49A25352da8Fb25"
      },
      {
        "passId": "230",
        "signer": "0x949E733EA69fE40c9F3339bA7e55E64DB1F93F54"
      },
      {
        "passId": "231",
        "signer": "0x66cf6Ba591f384A827351679F59b17B139AAE9dD"
      },
      {
        "passId": "232",
        "signer": "0xDeaB5f2d25878171B41aD50b93D0fD6F94a64C0d"
      },
      {
        "passId": "233",
        "signer": "0x92e32BB72a5ee9445D25d24d0beec5e8C7f28527"
      },
      {
        "passId": "234",
        "signer": "0xB51a751F1e00f051A350cFa160f875C9fB557AA6"
      },
      {
        "passId": "235",
        "signer": "0xc9C6d5eB996b268241FDA00cCCd81D0a43678Ab3"
      },
      {
        "passId": "236",
        "signer": "0xBac6E359c387e7483D897D739Ae1D20C93464cD2"
      },
      {
        "passId": "237",
        "signer": "0x7bA078233ceE1099bFD12824a42E73Bd9f944567"
      },
      {
        "passId": "238",
        "signer": "0x75cA70dF3A911916AD3bECEd9f7b05268677aA13"
      },
      {
        "passId": "239",
        "signer": "0x09Fb9865fef91E1c947Cb8Aa930e1193b25f7bE5"
      },
      {
        "passId": "240",
        "signer": "0xb20eE77B6C5219f50af43A1029d47af58e945bD4"
      },
      {
        "passId": "241",
        "signer": "0xe0B33e8c161c9A13694129bced0f33cE38569B67"
      },
      {
        "passId": "242",
        "signer": "0xa0AAa67c1FAE4faC10059f6fD0820D300238Ef1a"
      },
      {
        "passId": "243",
        "signer": "0x61A12741749497c1f54af447C58DD56c3c0A2B9c"
      },
      {
        "passId": "244",
        "signer": "0xde646e0D516872dCE19d5F90640eFEeEA8074bdE"
      },
      {
        "passId": "245",
        "signer": "0x343DFcE1a3ABAB3746CA9FFA1cB399844589183a"
      },
      {
        "passId": "246",
        "signer": "0xA2E1Ce40359cb087b76B2932Cc66d7e14A1Ba72C"
      },
      {
        "passId": "247",
        "signer": "0xBb23a428E2888A0980ca8cc2796CB5c338EB0aa6"
      },
      {
        "passId": "248",
        "signer": "0xeaf79b427Dba174E833d7758f811318c97207113"
      },
      {
        "passId": "249",
        "signer": "0x61eB0969C71dA1766532Eb2376B8b4A1d7Ca0F14"
      },
      {
        "passId": "250",
        "signer": "0x640CcA936faF8F799d6DDC93cfb332B65AA1C9B6"
      },
      {
        "passId": "251",
        "signer": "0xCD2910957a04b405f16df17e5373bcBd84E6F743"
      },
      {
        "passId": "252",
        "signer": "0x9E91a3B34b1748b58b358495f4C262f300b5b743"
      },
      {
        "passId": "253",
        "signer": "0xC6Cd9dE4A03317301cd5CEf7BcADe4aDE8B4FEF0"
      },
      {
        "passId": "254",
        "signer": "0x02a16689c56d4d6B5A4a80c6Bdc5A71AFF075290"
      },
      {
        "passId": "255",
        "signer": "0x053ae6cb85b8eD043765552bAC330A6EFEF10a90"
      },
      {
        "passId": "256",
        "signer": "0x71701946Ec25c616C908d42f4c2cD09c6B39708C"
      },
      {
        "passId": "257",
        "signer": "0x073De400b8f7e8d6288F8B624cEF71192E172bc8"
      },
      {
        "passId": "258",
        "signer": "0x6f6B9288E08C6603B6c24F7F5C6aF5f3e8d6F9E7"
      },
      {
        "passId": "259",
        "signer": "0xFc3f29a91d0FE41c36c3ca3c20724FA0D23Ca63E"
      },
      {
        "passId": "260",
        "signer": "0x207FeC7740482E832f0d27Ef4520e383331872FF"
      },
      {
        "passId": "261",
        "signer": "0x1d660060Ccf6753B80D92a7811bb2f63aa9Da9b4"
      },
      {
        "passId": "262",
        "signer": "0x34969268F88cC935F5e09220b9CE8A5a97C423a8"
      },
      {
        "passId": "263",
        "signer": "0xce9b7eCAA27f22EB8E41cB68946855749b7829c0"
      },
      {
        "passId": "264",
        "signer": "0x78E2a9Ca8f73E7a1E2492e4b98A02DBe596e84E4"
      },
      {
        "passId": "265",
        "signer": "0x5d9f5BA364a6FE3aAd49287A732b41572F60aFF9"
      },
      {
        "passId": "266",
        "signer": "0xbD8de889B838A80deb8aBe9595714a010f290570"
      },
      {
        "passId": "267",
        "signer": "0xEE20870C3885dD7027B0FaE0158917F1aabF41AF"
      },
      {
        "passId": "268",
        "signer": "0xC73Cb49B1c76B5232A977faE12692889aa04DE1f"
      },
      {
        "passId": "269",
        "signer": "0x39cD7Df43B938e6d8c99a4Aa3356074A8464d044"
      },
      {
        "passId": "270",
        "signer": "0x8ad2E9f637E4DEE2691a8c64042dC8c09564a7Cd"
      },
      {
        "passId": "271",
        "signer": "0x8d94EdBfB1C3141682Af65AA2C321AaB86EC6C9d"
      },
      {
        "passId": "272",
        "signer": "0x4C8FEb3364335467d6E03C47832855E5fBebF856"
      },
      {
        "passId": "273",
        "signer": "0x2F93Bd0A0Cea874Cfd201195584A1Ea1f5337661"
      },
      {
        "passId": "274",
        "signer": "0xA3796d21Df15C43D7D71B57d096659C98FCBeb44"
      },
      {
        "passId": "275",
        "signer": "0xCBf68F255F62Ce4F19a0da31e653fB538d824AE0"
      },
      {
        "passId": "276",
        "signer": "0x5284bB8EdDF26687608697F803B7E0349f04583d"
      },
      {
        "passId": "277",
        "signer": "0x95A8eaE2e9A7AcB1AD7B3996bF7653cD535d15Da"
      },
      {
        "passId": "278",
        "signer": "0xB8e574FD51Db9B3ecC7E3a4df177aA20a2a0aa49"
      },
      {
        "passId": "279",
        "signer": "0x54cEFA4d7F52AC6137cd2322aF6391f8f9BfB947"
      },
      {
        "passId": "280",
        "signer": "0x4D87B9503390419C49F86f59e47eEA8162565C3B"
      },
      {
        "passId": "281",
        "signer": "0x44f8CbdC001415140e408F76Fc2a54bD0d78d1D2"
      },
      {
        "passId": "282",
        "signer": "0x1842FA26Ce95ed4231bD6EecCDDc9ae2a7181057"
      },
      {
        "passId": "283",
        "signer": "0x40c8B4548A0d2E5933158f17F08ce490D4109f5E"
      },
      {
        "passId": "284",
        "signer": "0x7DA804c458Fc1CDb7F3081E9e2917B0057735906"
      },
      {
        "passId": "285",
        "signer": "0xF03D0f497FC99fec211fC64301cAD5110B25dE8F"
      },
      {
        "passId": "286",
        "signer": "0xc243e9cE2D44fD31664A506C4C52A0953B6565Af"
      },
      {
        "passId": "287",
        "signer": "0x764E48E3F141A18273A1F1550414aCF80145cF41"
      },
      {
        "passId": "288",
        "signer": "0xe8CE0a254ab2f355Edb302fDB03fF75349F99f20"
      },
      {
        "passId": "289",
        "signer": "0x163ea6561c51d25975e6eD6a8b142C6BF8aA5581"
      },
      {
        "passId": "290",
        "signer": "0x571798F4C1Ff5e9Dc19ca724Ecac6103521A18B1"
      },
      {
        "passId": "291",
        "signer": "0xF0aff8D4e70516385E74F86C83C95A1548b791D3"
      },
      {
        "passId": "292",
        "signer": "0x52433ed7b5CCd20d872cF6f80f7510ADcb7d9ea4"
      },
      {
        "passId": "293",
        "signer": "0x249a291468Ce4bd1DD39f29E58B8641251cF33A7"
      },
      {
        "passId": "294",
        "signer": "0xDA3C2427E5DA6E61dEcC627da27E54d12c650D32"
      },
      {
        "passId": "295",
        "signer": "0xb0c1D75f2cF37C7A7F2CCF1FfdC3467EC1d4834D"
      },
      {
        "passId": "296",
        "signer": "0xb6eF68D5cBd4b5e6F4C5AfdB312015697D2045A2"
      },
      {
        "passId": "297",
        "signer": "0x2098e7Ef91b40EB9282426797308BBaD86F9879F"
      },
      {
        "passId": "298",
        "signer": "0xa23b68fe2dC41c9b52fdB62BF5dA51014e840761"
      },
      {
        "passId": "299",
        "signer": "0x8169055D4D241D104d68938f9043484AA92ffEBf"
      },
      {
        "passId": "300",
        "signer": "0x53e47C98f4e279E1bfCDc5fFd17c90fC5C4D55B7"
      },
      {
        "passId": "301",
        "signer": "0xE0Ee26982a567Ca413f9Fe0C99e792B64099421E"
      },
      {
        "passId": "302",
        "signer": "0x0aD93b38B11f7ea2E5211fC8C7B42bf140Cea826"
      },
      {
        "passId": "303",
        "signer": "0x012559d0B533bfD0BE0e6E06A0E4b084D9dC9478"
      },
      {
        "passId": "304",
        "signer": "0xD8CBAd880781bE7077c0CD52872c9f409edB768B"
      },
      {
        "passId": "305",
        "signer": "0x5Af48bd3F3215aD291Fa3B91dBcfaDA2df1d843e"
      },
      {
        "passId": "306",
        "signer": "0x684f3a12BaD8086a319409e96CB00A438EE42f8B"
      },
      {
        "passId": "307",
        "signer": "0x75FcC12016fd90b66EcC8aE1A5829A177E3399f7"
      },
      {
        "passId": "308",
        "signer": "0x583cEDCD3f05bFA8E3Cf570b501f6218d4F25be6"
      },
      {
        "passId": "309",
        "signer": "0x4fe29cf5c8abA3D931563fCB4225bF1d5B25d029"
      },
      {
        "passId": "310",
        "signer": "0xa6F2db1Ed9789270b0cD95BbCCf11055C05e6ca3"
      },
      {
        "passId": "311",
        "signer": "0x063ba92EDD4CDAEd996a5901eA2D0E2329EcBF8E"
      },
      {
        "passId": "312",
        "signer": "0x6e6150d0f8DD3dd64C38A3Fd61E699B8b4EB6011"
      },
      {
        "passId": "313",
        "signer": "0x2cCB4887431B6E422b1E81d7fbd4843630cAA3Eb"
      },
      {
        "passId": "314",
        "signer": "0x79281fC7a6fd07Ba737cdd453E37BA8bE6b60e42"
      },
      {
        "passId": "315",
        "signer": "0xDC3f2466de4Ed4B99e25672C73fE75dED1a0A539"
      },
      {
        "passId": "316",
        "signer": "0x81cCa118c5a3F2509fb3E08c92dcACc918E0137a"
      },
      {
        "passId": "317",
        "signer": "0xc662398573e80ACB8f1C4Ce7D79cA9Bd06f36C00"
      },
      {
        "passId": "318",
        "signer": "0xa9510879c2dcf45AD753F98ee1C83ce587413993"
      },
      {
        "passId": "319",
        "signer": "0x2bA552f9081d89AE4Af8FC52c30863B019B57841"
      },
      {
        "passId": "320",
        "signer": "0x8bC671bB8508cF4E2759eaB5CAEEe0dB29a74768"
      },
      {
        "passId": "321",
        "signer": "0xB159B7BF8324378C3141F4dD4b1F14FeaD306663"
      },
      {
        "passId": "322",
        "signer": "0x36d10bDF3acf31af94d2A5f624297a6d8143a308"
      },
      {
        "passId": "323",
        "signer": "0x916b46E4587dE397332DC49D69A33Ffc14621aA9"
      },
      {
        "passId": "324",
        "signer": "0x7fA2E264F71da9543Ec149a92e76F21150A400cB"
      },
      {
        "passId": "325",
        "signer": "0xCb15e8717c6ef9716e9706da02Cb8FbD1EDDBD79"
      },
      {
        "passId": "326",
        "signer": "0xc0329c769D2069c4F5F6060883b97BA58ef68BD6"
      },
      {
        "passId": "327",
        "signer": "0x6C8B766187227e8876188cB72f79084E6be988e2"
      },
      {
        "passId": "328",
        "signer": "0x1f7cFDB8375e175231bc3C01580E2188B8186Fe0"
      },
      {
        "passId": "329",
        "signer": "0x23cC5C03861d79a97e564CF337adEbE5331B8cE0"
      },
      {
        "passId": "330",
        "signer": "0x4b9F3744762972C439039d195E56016FeB5b036d"
      },
      {
        "passId": "331",
        "signer": "0xd5c7325C35e662A5eC5303476eb3D30042697C60"
      },
      {
        "passId": "332",
        "signer": "0x54e0e602AF88D0f3C1ae00987f3197C35A643039"
      },
      {
        "passId": "333",
        "signer": "0xD41414cB732aB0fD94afFf36208e45B3043FF8b7"
      },
      {
        "passId": "334",
        "signer": "0x014B39B7BA19128D5165916dAd38dcE961a3B821"
      },
      {
        "passId": "335",
        "signer": "0xFbb2876eA77Ee883b8734133De9477C91215873d"
      },
      {
        "passId": "336",
        "signer": "0x793c2923a9cA088c0746b8E860419f5457faA47c"
      },
      {
        "passId": "337",
        "signer": "0xC199cE543DAf997150A180612681e6c94db131fa"
      },
      {
        "passId": "338",
        "signer": "0x41a7060045e026C1e1d27F0f8e57F797c13b8862"
      },
      {
        "passId": "339",
        "signer": "0x997f808aC47B3b545160719Db3257A1339Bfe37B"
      },
      {
        "passId": "340",
        "signer": "0xEAE8305B5D990ef1c404A83FB5f1bE99b93A56ad"
      },
      {
        "passId": "341",
        "signer": "0x5cA1CA6D984D8d8A1b470F87059CFd2d776d2FF7"
      },
      {
        "passId": "342",
        "signer": "0xD0Bd9AFDfdDF7799415ea8BbcE0988642B26D715"
      },
      {
        "passId": "343",
        "signer": "0x1f86fE795bC30BAcbEA6A6C8310993616c0259cB"
      },
      {
        "passId": "344",
        "signer": "0x47cC371Fc1a76029FB2b1D7a43ED6234E6F42Fa8"
      },
      {
        "passId": "345",
        "signer": "0x20BE936935A7d96f138D889A9cd90793d82Dd21B"
      },
      {
        "passId": "346",
        "signer": "0x7D14Ad455fd5A6BD374D71fcE6799be2B0b6C748"
      },
      {
        "passId": "347",
        "signer": "0xf61597E39D90D70aFf98bBfC651E57B445150086"
      },
      {
        "passId": "348",
        "signer": "0x55343B425096B9674c19dE2FF5Cb2b0a2469247d"
      },
      {
        "passId": "349",
        "signer": "0x5aB97137C17f31b4c4a9Dd65D9cC527eA746efc9"
      },
      {
        "passId": "350",
        "signer": "0x301028deFe8D8FE04ceA26E6E86368a8219EEd3C"
      },
      {
        "passId": "351",
        "signer": "0x54E9A8Fb6b6a55D7b5f8C037E195C2d7FD1472Dc"
      },
      {
        "passId": "352",
        "signer": "0x4B4f6c78B71066Efe2FCe8483710653165C2ff03"
      },
      {
        "passId": "353",
        "signer": "0xB51955DcdC527d6913EDc97112a3585B99eb8824"
      },
      {
        "passId": "354",
        "signer": "0xB0249d032D76187D7Af8b8eD49389F8FA98007fF"
      },
      {
        "passId": "355",
        "signer": "0xee2B42e2bD95cE87A883833C4B28d054975e411e"
      },
      {
        "passId": "356",
        "signer": "0xfa556FDA2017d0205C0Fe34709463a827cB25008"
      },
      {
        "passId": "357",
        "signer": "0x0cdd9d9ef0c05f376af46Ef104029d67030Fa2c4"
      },
      {
        "passId": "358",
        "signer": "0xF04e1368fB62111172BfADfd8BbCF31397906dA9"
      },
      {
        "passId": "359",
        "signer": "0x591b444bAA5291d5a03f836B09aeFcc5c31Bd45c"
      },
      {
        "passId": "360",
        "signer": "0x15e5de8Db12F29EeC9399C155eB00f9E8eB7Ab81"
      },
      {
        "passId": "361",
        "signer": "0x22d06B92b8b44f5Df6f406D957F195089d4F3843"
      },
      {
        "passId": "362",
        "signer": "0x8638CF452b8A78475c986a5cef63f54B7AEAcB76"
      },
      {
        "passId": "363",
        "signer": "0xC4019701596095660835CED06db9dF2E047723Cc"
      },
      {
        "passId": "364",
        "signer": "0x76172DFA982b065318Bf732E0dC38Ea423F20Be6"
      },
      {
        "passId": "365",
        "signer": "0xA6cAa980507933c3e4D2Ce2c9ea8dC7647F882C5"
      },
      {
        "passId": "366",
        "signer": "0xE74CdE87d46124D3D4049af5D75834d878950176"
      },
      {
        "passId": "367",
        "signer": "0x4010e8Fb66cAe3f7AcA493C7F82e2D0c1EedeEBB"
      },
      {
        "passId": "368",
        "signer": "0x61F7a934e1f1763bf12dd40CF6a08d245cC45a00"
      },
      {
        "passId": "369",
        "signer": "0x00b4A51BF9c3fe874Cf76e074936Ad1da204F3E3"
      },
      {
        "passId": "370",
        "signer": "0x1D13D31E4ea463DA22F9953Ba911a5A10720E966"
      },
      {
        "passId": "371",
        "signer": "0xEcF9018facA6CbB314D9fA8aA6175D6e0c541DD8"
      },
      {
        "passId": "372",
        "signer": "0xeE0773B95F421081022E68bF1655eb558934d932"
      },
      {
        "passId": "373",
        "signer": "0xB9ebb5Fa2Fc8aAF292bB55A5154f8C89992546eE"
      },
      {
        "passId": "374",
        "signer": "0x74B39Cb9070881f57c35a265FA2F07d5C3e540c2"
      },
      {
        "passId": "375",
        "signer": "0x2cE745C05CC955FFC247F2433c8dE58145FBb940"
      },
      {
        "passId": "376",
        "signer": "0xf9dcb2609bA3981edc0bF7300398794D4066dBA4"
      },
      {
        "passId": "377",
        "signer": "0x4E0AA19465426C95EcAbF9Bfca19783B17036e14"
      },
      {
        "passId": "378",
        "signer": "0xA98104AF5907bEA23E3b9D6F61520075Ff521C77"
      },
      {
        "passId": "379",
        "signer": "0x3a4D68Ec6c436dBdf4c7565bB2Fc23F812D8d912"
      },
      {
        "passId": "380",
        "signer": "0x848B5e1fF0Dc482430A75C4F63B8F837ACbeA52A"
      },
      {
        "passId": "381",
        "signer": "0x52e081b2DCb1B939d65D5E043Acca1cDD453cF05"
      },
      {
        "passId": "382",
        "signer": "0xE029dbB6530af901f88F154e34853353B28C83E2"
      },
      {
        "passId": "383",
        "signer": "0x427bf42F891fa1311e8487FE24ABC1Ce03428B3D"
      },
      {
        "passId": "384",
        "signer": "0x001c7d802e2132a7cbee82F26738896B34C779f6"
      },
      {
        "passId": "385",
        "signer": "0x2B99e401DCCaB97d37Fc67eB0cb6b423d9d63726"
      },
      {
        "passId": "386",
        "signer": "0x8e64363f20CbF5B23288dB734F024643afdc6183"
      },
      {
        "passId": "387",
        "signer": "0x8a485f334D94FB2821Ca5962c86F529D2A2cC598"
      },
      {
        "passId": "388",
        "signer": "0xB79194478F743fb10a0F43fAE898f3e9188C5b8e"
      },
      {
        "passId": "389",
        "signer": "0x7F21376B9135342C4AB469A52d2d47420222D17d"
      },
      {
        "passId": "390",
        "signer": "0xC7e8f11659A7C925cC18FdD1B0aD87b5D5bA15a6"
      },
      {
        "passId": "391",
        "signer": "0xFD2418Bd93E2C55a8bDC1Ed063420e6d64E2C4eF"
      },
      {
        "passId": "392",
        "signer": "0x5A02eb14E2deA04dE9d5d2140Cca3E5d2D629fa9"
      },
      {
        "passId": "393",
        "signer": "0x919b95b309719A4b005192FFC44De9f3389224b8"
      },
      {
        "passId": "394",
        "signer": "0x0DD9d7E9f46dF7866532d33eb1b036bB6f72f8de"
      },
      {
        "passId": "395",
        "signer": "0x4D5E3aA3b93692be96F653729AAfe5A0Feefc51F"
      },
      {
        "passId": "396",
        "signer": "0x5F700FBb1F0ECb095d3A321a5B8a3751049b68aB"
      },
      {
        "passId": "397",
        "signer": "0xc3e4aaB582337b1CcaFA738521df0AF9eB3C2693"
      },
      {
        "passId": "398",
        "signer": "0xCe9C2BeBB5Ba607533C7Dc18d3fde353B77Eb86C"
      },
      {
        "passId": "399",
        "signer": "0xBfD05DcCB8895905e324388537a5fB3767195392"
      },
      {
        "passId": "400",
        "signer": "0x411c8320e9f5e60cbf4fe458e8233abb7e234C4C"
      },
      {
        "passId": "401",
        "signer": "0x315BfdDCcE4f03a738691215De32aDF99467AAeC"
      },
      {
        "passId": "402",
        "signer": "0x94912B7C3711EBf5ddfdFeDB9e1aa30E2ba6e94d"
      },
      {
        "passId": "403",
        "signer": "0x3d944c623DD4Bfaa942060eB62E805d2Ea415ed1"
      },
      {
        "passId": "404",
        "signer": "0x60D540188d10c8C24E922B3297A1B16658Be981D"
      },
      {
        "passId": "405",
        "signer": "0x5Ae044F5E78099fb22e52934FB4D9f677354fF7A"
      },
      {
        "passId": "406",
        "signer": "0x1b1834388192b07Daeb9DFd98c881301500f73b1"
      },
      {
        "passId": "407",
        "signer": "0x496B297dD29Ee041bEEb3cc3B854E5F6f6125D68"
      },
      {
        "passId": "408",
        "signer": "0x058a05Fa9914b33F2064aE74480Cb1B42c76459D"
      },
      {
        "passId": "409",
        "signer": "0x6C20F9e1707994D042e8d30e444C7278acAe8B4B"
      },
      {
        "passId": "410",
        "signer": "0xeFE5bc245b4e0bBcE84a56654Ea0C911712b5da5"
      },
      {
        "passId": "411",
        "signer": "0xD10033dFE4d20820f13318Fe6F751d82DaB2D746"
      },
      {
        "passId": "412",
        "signer": "0x213E64c50f5BF4bb30F58267f591A2ce421B3e65"
      },
      {
        "passId": "413",
        "signer": "0x224D3c8c5D5Bf42DbfD58bc0A020613284Cb4830"
      },
      {
        "passId": "414",
        "signer": "0x9Fb929195cF2BF6F7FB8d362f308d4F3fE7C7C5A"
      },
      {
        "passId": "415",
        "signer": "0xf476520337e6581c6f59CCBd06909a1703a1b624"
      },
      {
        "passId": "416",
        "signer": "0xe9b6d13BDF911323F9eeDE41A9808fe8a25deB49"
      },
      {
        "passId": "417",
        "signer": "0xC94D51f4d0eF4D1F304a482bA66bCbDfdD69269f"
      },
      {
        "passId": "418",
        "signer": "0xB83AD81d7BEfa185AB5e99Af2f7BFFC8882aE48a"
      },
      {
        "passId": "419",
        "signer": "0x42a905Ac1bad01F13ec6F8d936F66Bd9F8f97a0B"
      },
      {
        "passId": "420",
        "signer": "0x3FBfB160d43E9c6097F885c9834b53a0Dfc48B62"
      },
      {
        "passId": "421",
        "signer": "0x5367E0CA3820719b455336Af1327e24eA23c28C3"
      },
      {
        "passId": "422",
        "signer": "0x699e207C1ad35185A7d6963a5701ae66c606d069"
      },
      {
        "passId": "423",
        "signer": "0xEF36DD9d010207d0E6966308cA4E5b4f2A5939A1"
      },
      {
        "passId": "424",
        "signer": "0x516C54cF1B2247801BB975df0CBbD93D8721cC22"
      },
      {
        "passId": "425",
        "signer": "0x21b2DF4F2101d94fC6db818B9BFf4c2023164CBB"
      },
      {
        "passId": "426",
        "signer": "0xDfC701A7AFE1742d4762A6b2A30fec794ce4bFDB"
      },
      {
        "passId": "427",
        "signer": "0x3467141FFB086CcA993E7AdF888e68B4D4c83071"
      },
      {
        "passId": "428",
        "signer": "0x14D9502449F96389daD9054425CFa60c6969bBFe"
      },
      {
        "passId": "429",
        "signer": "0xa58AC1d7698F658F516E501689f5498e7147BcE6"
      },
      {
        "passId": "430",
        "signer": "0xc6272e3260CFB7096747D2a3e71BD3aFCdb5d824"
      },
      {
        "passId": "431",
        "signer": "0x34c612C86bBf259CD6eF150Eb9e68EF654032c32"
      },
      {
        "passId": "432",
        "signer": "0xfEcADcc4d6213DF70694ca3cc66d4f4D783B8481"
      },
      {
        "passId": "433",
        "signer": "0x0e2A7b7fcA26F0e56491f9f92847e20414210dCF"
      },
      {
        "passId": "434",
        "signer": "0xf28845e602C800d10211A753378d9888bbC86ea5"
      },
      {
        "passId": "435",
        "signer": "0x8Be48Adc2A03Dc3b650112798eDF8649b1054efd"
      },
      {
        "passId": "436",
        "signer": "0x3376E23c15ED0B3e9FfdC6fc25F02EE5E5b0e002"
      },
      {
        "passId": "437",
        "signer": "0xc8B4E0253b43c83884E8120368BEC82b05b87807"
      },
      {
        "passId": "438",
        "signer": "0x8c197de335eBB71C7FD17b336E6cbf32102462CF"
      },
      {
        "passId": "439",
        "signer": "0xD2c38c8A1Dd8a3AAB9A94356D33050b194050D37"
      },
      {
        "passId": "440",
        "signer": "0x920c36a3F56524e3Ee1de42A0c65CE1D60cB77c8"
      },
      {
        "passId": "441",
        "signer": "0x529b22495369DA29A1dF20e0Bc4198e2465420E3"
      },
      {
        "passId": "442",
        "signer": "0x3CBb914B70d1369A965643161AF960b6E9225E80"
      },
      {
        "passId": "443",
        "signer": "0xeaC4fb7B9698D11AB2F5792F7EeacE586174F7De"
      },
      {
        "passId": "444",
        "signer": "0xd07bE345Da1C8149BE094a3A48c870B9Ae8bD17D"
      },
      {
        "passId": "445",
        "signer": "0x2e3e05F194eB3775cAb052D2aba46dCAd5A16CF3"
      },
      {
        "passId": "446",
        "signer": "0x518d1E82442C0a3c2EDAC200CCaA0578cEFA6504"
      },
      {
        "passId": "447",
        "signer": "0x71b8Ffc17e9C56373C521170C3D81c02C9CFA335"
      },
      {
        "passId": "448",
        "signer": "0x7A99a1a5990CE505Bb4e847fF474E24b9fbC05D8"
      },
      {
        "passId": "449",
        "signer": "0x4A853002Ddd825d9C51E460Fa0951D54AA5E2EbE"
      },
      {
        "passId": "450",
        "signer": "0x9d11567D1Fcf39F372E44a447F7926d9E6302825"
      },
      {
        "passId": "451",
        "signer": "0x6e42864763bDc606aaF9B1BB54674584edf7b3DB"
      },
      {
        "passId": "452",
        "signer": "0xbe7EbC1A518aC9b3444F64977829B84fe18463C7"
      },
      {
        "passId": "453",
        "signer": "0x43a35ac52A2D0972A605d85918e84B2c65F16795"
      },
      {
        "passId": "454",
        "signer": "0xCA496692Eed1db8e19F612Fe210d42D2354AFdfa"
      },
      {
        "passId": "455",
        "signer": "0x610BaEDcc7CA48C4d8723e126Ae8EF5ECfCa74Bb"
      },
      {
        "passId": "456",
        "signer": "0x0B4694fe05B18068dBC83ff06fF766D15ce1e419"
      },
      {
        "passId": "457",
        "signer": "0xb8caeEB3922e0732bB3a828798751d06459fEDE0"
      },
      {
        "passId": "458",
        "signer": "0x80267161d49de70283232EA2b766d653F32b5977"
      },
      {
        "passId": "459",
        "signer": "0xE17E7281fb4A0b0192Fab7A1847DC6b394d43e24"
      },
      {
        "passId": "460",
        "signer": "0xb890E5D202c2Cced955A053a325f54021c7290eb"
      },
      {
        "passId": "461",
        "signer": "0xEfCd50b8f30848017646D22878753d9FE8327E2e"
      },
      {
        "passId": "462",
        "signer": "0x605B177634Ba5c42a81FDCf1c40fC29CEaD45B50"
      },
      {
        "passId": "463",
        "signer": "0x8C5f48DcEf0b8167aD0FE3BAaE3A8Bf730032c59"
      },
      {
        "passId": "464",
        "signer": "0xe7c5686E46613590444EaF2b6C23BbEf9F376c5F"
      },
      {
        "passId": "465",
        "signer": "0xebE30b1555049BF385df5Bb687C96fCf94911165"
      },
      {
        "passId": "466",
        "signer": "0xf460f4002Af3EfC0dACD99e0Cbc9D2c897b6D10b"
      },
      {
        "passId": "467",
        "signer": "0xEf57D2821E98D8534a33851B766f49Bf43d9Cc5c"
      },
      {
        "passId": "468",
        "signer": "0xB5EEFcaB61300Be20B04D2545958008A4b0fde28"
      },
      {
        "passId": "469",
        "signer": "0x2aA58C1Ac5a3943BC616507fb8025B21f5CE1a98"
      },
      {
        "passId": "470",
        "signer": "0x2Cb069F27409e7e9897c98209c3A04E242A2e7Ea"
      },
      {
        "passId": "471",
        "signer": "0x88Cb5c0eADeb2231ADDA580f41aeC11fCCE9a3B7"
      },
      {
        "passId": "472",
        "signer": "0x0c92cA7F699C7c0eE1b65D2585b142DcDAE76a4E"
      },
      {
        "passId": "473",
        "signer": "0xfEb9CCd91347CB9ee46c7710666D2a26754c7fd2"
      },
      {
        "passId": "474",
        "signer": "0xB1800e4B33084B7788a2328261C0a7C6a7273f79"
      },
      {
        "passId": "475",
        "signer": "0x5cF951c2F150665345E8B9bd389a9eAfd53D2920"
      },
      {
        "passId": "476",
        "signer": "0xA71A2C48C883eE615c272DF646f129B7E4a4930F"
      },
      {
        "passId": "477",
        "signer": "0x41564254eE1335982d3109A591b2d8f6d3c54262"
      },
      {
        "passId": "478",
        "signer": "0xf16427fAc84a2C837b6eC8f99DA5e065608bCb5E"
      },
      {
        "passId": "479",
        "signer": "0xdf69F3aDdEaca2Ed9EA9b0729BF4b59E3648a7fc"
      },
      {
        "passId": "480",
        "signer": "0xb17Ef0a05Dc86b069629562E4c44D79722157f8e"
      },
      {
        "passId": "481",
        "signer": "0x6D44d50191A05cf4BdeD2476d5BA84B49A554769"
      },
      {
        "passId": "482",
        "signer": "0x437F29b0D5726fCEB64D3C052E7a8155e6A0f222"
      },
      {
        "passId": "483",
        "signer": "0x58Cb9532eb9e3160C168BEaD9EEB03Dc09171674"
      },
      {
        "passId": "484",
        "signer": "0x0fC83624D29F26bE540e57CfEF4F330C29D0c02f"
      },
      {
        "passId": "485",
        "signer": "0x0F8136195b1c0AD3c4b3a020770aa810Dd51DB6a"
      },
      {
        "passId": "486",
        "signer": "0xB4238A4685A3e97fafE68e02BCceB01daEfB2De3"
      },
      {
        "passId": "487",
        "signer": "0x39848EC32C531893884cb6bFB0D6886d66a104Ee"
      },
      {
        "passId": "488",
        "signer": "0xa8Dd6D2f72264c96Fa04A32a0a6dbE0FcDAd7E22"
      },
      {
        "passId": "489",
        "signer": "0x56F43c4233C4F633aE05f32dca3330D7Ad6ef28b"
      },
      {
        "passId": "490",
        "signer": "0x7FADCC23FA329c7253a087800142a8784Fa14B37"
      },
      {
        "passId": "491",
        "signer": "0xB4Caa68CaC4e2881DCa26Cd6a18848481A6bAEc0"
      },
      {
        "passId": "492",
        "signer": "0x01DF9524C9198759026d28146F8cC4Ffcf1c0c4C"
      },
      {
        "passId": "493",
        "signer": "0xDE1bF77FAE422649406D68A6346a37b18bd4A484"
      },
      {
        "passId": "494",
        "signer": "0xe77Acd41B0f2AF2EfbC00bFd5b9A128b54B3C32C"
      },
      {
        "passId": "495",
        "signer": "0x1a6c7957b75fAB2b29ef617376Cb74800379d79F"
      },
      {
        "passId": "496",
        "signer": "0x0A8d7c4B3a298E14056952161D727EC9F9CC29cf"
      },
      {
        "passId": "497",
        "signer": "0x6FC387A7Bf482509E8eB5eF48bDF3519e2FAB69A"
      },
      {
        "passId": "498",
        "signer": "0x2fb9f0dC9998C272AAbBc441ef3f6E657c37937c"
      },
      {
        "passId": "499",
        "signer": "0xA919D921056043E25e4590034b7cdfFA8133a2C0"
      },
      {
        "passId": "500",
        "signer": "0x65f2061F72Eef6A95feb84E9B0e1B4009E92C166"
      },
      {
        "passId": "501",
        "signer": "0x1F5c2157e9527d5d281A010a5b85cC1C0C9FB2ab"
      },
      {
        "passId": "502",
        "signer": "0xf64D6eda6E9c8F0A22B0e9FFd98A00601b8a77d3"
      },
      {
        "passId": "503",
        "signer": "0xA1e3fCA88B083C931b98E63493CE7e9B33Ccdeb9"
      },
      {
        "passId": "504",
        "signer": "0x9a6A430B287768D89e18f172EFE711B1270Ec48c"
      },
      {
        "passId": "505",
        "signer": "0xde075573215C18F269b3C2367181c6328c300cCd"
      },
      {
        "passId": "506",
        "signer": "0x9D67B8738E591b1a0b507D72011b48dB90EA957A"
      },
      {
        "passId": "507",
        "signer": "0xb96D77d4Ba35DF4cd91d3f43F4083d17A8bDDFC3"
      },
      {
        "passId": "508",
        "signer": "0x818721a07D50F323BA5B717C73D94D0DC949520C"
      },
      {
        "passId": "509",
        "signer": "0xd4f4315c25e152f907BBb6Afa0701b2170284c0f"
      },
      {
        "passId": "510",
        "signer": "0x89db71A34E5741e0B6a2E3CD4Dc025eB1BE744BF"
      },
      {
        "passId": "511",
        "signer": "0x3bBe405CF33479aAD46403a516e17ADDa1c87de8"
      },
      {
        "passId": "512",
        "signer": "0x54C3dc2b6412d7316f017F220BE7BeE9d68BD621"
      },
      {
        "passId": "513",
        "signer": "0x531929acd20241Ba016494da46DA932c60Ed6C05"
      },
      {
        "passId": "514",
        "signer": "0xf0483FfcceC1235B63545C9039dbc4E7778d0e64"
      },
      {
        "passId": "515",
        "signer": "0x2A31f73736c780619413eF390913Fb92F09DDE29"
      },
      {
        "passId": "516",
        "signer": "0xaFA60F126C0bba118C6db4f3d8F73b73f50E802c"
      },
      {
        "passId": "517",
        "signer": "0x3268f69e4aF580d23eF9f9442c36aB710EB315EC"
      },
      {
        "passId": "518",
        "signer": "0x63f16E80FE7539b961b28Abc03EDb602bCEb2a8b"
      },
      {
        "passId": "519",
        "signer": "0x32737Fd02F14D44a72F59907bE08BE731A602262"
      },
      {
        "passId": "520",
        "signer": "0x99a5011d2409e41425FFc571760F26670954A30D"
      },
      {
        "passId": "521",
        "signer": "0x57D5Bc798d90579942639e188a5F8c799b60D555"
      },
      {
        "passId": "522",
        "signer": "0xA2b7dCB710E92fe2A8E4ad3b140064B7Ed73CCD5"
      },
      {
        "passId": "523",
        "signer": "0x0c467265FAb958D790283D704069bed40094083a"
      },
      {
        "passId": "524",
        "signer": "0x719A31EE303D0db42b5d00E1f47331440eC85057"
      },
      {
        "passId": "525",
        "signer": "0xAA55a34BBe376b50F19dA18c13Cd791eba5Cf5De"
      },
      {
        "passId": "526",
        "signer": "0xFb2d430A24874bf3eCa051698673C368BbEe79c1"
      },
      {
        "passId": "527",
        "signer": "0x173D93B4E0303513f72D71F300eAE0eDEFb6E613"
      },
      {
        "passId": "528",
        "signer": "0x777A654d90E842979EBDe68e031F6E64c3988EFa"
      },
      {
        "passId": "529",
        "signer": "0x124940a8ddb9186962F87c44eD2bC73001C125F8"
      },
      {
        "passId": "530",
        "signer": "0xF47b3a72683038F2e6860CFf3132aFE52CCA075a"
      },
      {
        "passId": "531",
        "signer": "0x8801CB549c42c04b223C1Fe106fD7BD72074a338"
      },
      {
        "passId": "532",
        "signer": "0x1Db37DF9429fA2114c8948B02A9D1cbc88Be5a7e"
      },
      {
        "passId": "533",
        "signer": "0x297D9300A29AC5C9B798a1b82E0577C73b7C70d1"
      },
      {
        "passId": "534",
        "signer": "0x73f60ADF0779a80b6Bd03922d0D6a8E76F8CDbF2"
      },
      {
        "passId": "535",
        "signer": "0xaC0977eb81B6e931026Fe1DD63A8b8De823702d9"
      },
      {
        "passId": "536",
        "signer": "0x6a428442D05d41C77e2F6d459795BD8D20d1CE12"
      },
      {
        "passId": "537",
        "signer": "0x58cCDf8A93fb1cF65Eee94002cdb19E3e1C310B3"
      },
      {
        "passId": "538",
        "signer": "0xd1E0AB0a59c780a3862cC5F66c52339D0Ae8B8F5"
      },
      {
        "passId": "539",
        "signer": "0x14dB8fbDfC3C4ba6415a791cdA7b4e8BA261d802"
      },
      {
        "passId": "540",
        "signer": "0x5364118c09bcA7d6b1f3A98A5Fc9a2f6F19b6759"
      },
      {
        "passId": "541",
        "signer": "0x10418C769B577758D035fBc45aE15D476391856c"
      },
      {
        "passId": "542",
        "signer": "0x46595853cAd1a24D29860C781A2D8A4Ac8c327FE"
      },
      {
        "passId": "543",
        "signer": "0x1c0e2ab1Ff8514f3Ae251C06E0809d3ab16De679"
      },
      {
        "passId": "544",
        "signer": "0x963fdb41c571a04d4CE4DB92b5127283A9f9F443"
      },
      {
        "passId": "545",
        "signer": "0x604e1477B0bfb3ce5302120C3520B55B65453719"
      },
      {
        "passId": "546",
        "signer": "0x1f820746cdd56684A9dfc39b0c59a1F543083e47"
      },
      {
        "passId": "547",
        "signer": "0x6a78F55590BA600A3742ba653CA324969304BAB1"
      },
      {
        "passId": "548",
        "signer": "0xFCE75C8000114ac3684423d14A4fF1F5ec3A256d"
      },
      {
        "passId": "549",
        "signer": "0x57ae73BC5317b72B498EAdAE3989Cd0F71f80c99"
      },
      {
        "passId": "550",
        "signer": "0x57A17930dE705dD2Af84D80de92952D199fd4B90"
      },
      {
        "passId": "551",
        "signer": "0xB2F1e034F34dA8970fe6D5e152eE9Db5a0D4E37C"
      },
      {
        "passId": "552",
        "signer": "0x89Bcf4141B8651d2bB6B357E1c3623a329aC79cd"
      },
      {
        "passId": "553",
        "signer": "0xA608E0CF8aa8643f61F6B77B8ffee992F2B77630"
      },
      {
        "passId": "554",
        "signer": "0x93Ee33e547ab859CDe0e296c06E8ab6583D103ea"
      },
      {
        "passId": "555",
        "signer": "0xf4fF6b827FEd1509Eb9266A4713624b7fbB92454"
      },
      {
        "passId": "556",
        "signer": "0xA38FA84B45Db0c3E8693F43D0F47487c27B533B7"
      },
      {
        "passId": "557",
        "signer": "0x2071d8265B3e874A0369026B4a29f145bf0E0479"
      },
      {
        "passId": "558",
        "signer": "0xb0ae88Cd4Ca645c480abA64253fC8D3f05A71761"
      },
      {
        "passId": "559",
        "signer": "0x49943963782Ff26093716e829e425e7AF8B324e0"
      },
      {
        "passId": "560",
        "signer": "0x29d63973698ed58Ba548d604acD2A53dCE72BDe1"
      },
      {
        "passId": "561",
        "signer": "0x4CeCD8eA8ea078f048Dc42acDccf7af069e140Ee"
      },
      {
        "passId": "562",
        "signer": "0x4bCFe18a8F2cBcc04266f41b7F310782a01bb6E1"
      },
      {
        "passId": "563",
        "signer": "0xb46704F27b7Fd4A473a32f424a14E247023E5991"
      },
      {
        "passId": "564",
        "signer": "0x6736557808b0dFF1c33687205B3191b3110A62Ae"
      },
      {
        "passId": "565",
        "signer": "0x4040F7eA12C50981139493E6e4a30d1CF7799F80"
      },
      {
        "passId": "566",
        "signer": "0x11Aee74e25cE265c1017773750a109455b003f36"
      },
      {
        "passId": "567",
        "signer": "0x84C1A4B27656FF6b45B83f88787AA44ce09a42a0"
      },
      {
        "passId": "568",
        "signer": "0xd219E55572cFED7542998eB331126e5e1645C4ee"
      },
      {
        "passId": "569",
        "signer": "0x8C5F4F7Fa89Bb64bFe602fA019B376b1D0C249e0"
      },
      {
        "passId": "570",
        "signer": "0x255256f3BefE4A8bdfdAf4468274cF85b6F47a52"
      },
      {
        "passId": "571",
        "signer": "0xEFDB6f81040AbF730d1C68d4528c96BF071EDbF2"
      },
      {
        "passId": "572",
        "signer": "0x37d5a3077Cab3F6d80D951e4Cf17726AD921eE78"
      },
      {
        "passId": "573",
        "signer": "0x0bdB3f36b3174f6577fA431429AF3026beAB6394"
      },
      {
        "passId": "574",
        "signer": "0x68027F37b913935181E9A9b98b20fDdC4FFc31dE"
      },
      {
        "passId": "575",
        "signer": "0x62577002c74a9859f716a3D7CC86c753E248e238"
      },
      {
        "passId": "576",
        "signer": "0x056484621f6be783d5228647CDDC87Be3A7743e0"
      },
      {
        "passId": "577",
        "signer": "0xe9d5cFBAF381950342F824977866584369D5E1b4"
      },
      {
        "passId": "578",
        "signer": "0x029C36DC5D5F7CCb3C7Ec55d2ac352768E450e00"
      },
      {
        "passId": "579",
        "signer": "0x3A84697F4266875716dc68A4973Ded163061Ab2A"
      },
      {
        "passId": "580",
        "signer": "0xdc8EC70A0040e8E77baD14a65912A4C51575ffEF"
      },
      {
        "passId": "581",
        "signer": "0xcd48Fa0ee467311a72D744C2B06Dd5cF0f6822E0"
      },
      {
        "passId": "582",
        "signer": "0xA07fBe73bDF945d06f821530445E44Db05504C95"
      },
      {
        "passId": "583",
        "signer": "0x221ddd64CE34581954E2b2360DF41Fa2E8DDFc15"
      },
      {
        "passId": "584",
        "signer": "0x24452b479eA71687384E82B804269Ca53125036B"
      },
      {
        "passId": "585",
        "signer": "0x7d3dB204d846571B75c258B1Be9dEAff3615f231"
      },
      {
        "passId": "586",
        "signer": "0x88a5712Ddb7201e3CC4d468faee7BfA08f18721C"
      },
      {
        "passId": "587",
        "signer": "0xB78528B15724C616Ca8863bdCF5ca5730286bED0"
      },
      {
        "passId": "588",
        "signer": "0xa781b89CB7BCBDFc9f01417eD7eee7Cfa38C57A3"
      },
      {
        "passId": "589",
        "signer": "0x97A00289e87dde263bcca6Fac92FDD9789BC1C47"
      },
      {
        "passId": "590",
        "signer": "0x3003FF66D6335B2f844faddBe04fB46264Da92B8"
      },
      {
        "passId": "591",
        "signer": "0x28C266Fd7E13E4d782d4C95f0297A2AdbCA75259"
      },
      {
        "passId": "592",
        "signer": "0x62440F894cA01e3f55F3CAb826f1C1eAFC5c414A"
      },
      {
        "passId": "593",
        "signer": "0x51E1E401ec0d1A6B75658714e30e95D27189267A"
      },
      {
        "passId": "594",
        "signer": "0x11eE8663a2DC5Ce2424CBf447eEFef477FD1aA4a"
      },
      {
        "passId": "595",
        "signer": "0x7806Eda429b867BEe23C8fDB94D8Ac49170C56e5"
      },
      {
        "passId": "596",
        "signer": "0x4B3fE3857c83B7AB0BDFF54acD320006A5763204"
      },
      {
        "passId": "597",
        "signer": "0xc7f272E8486E88F778351A42A5E31BA0720472B6"
      },
      {
        "passId": "598",
        "signer": "0xd96383F30c8ec88532a3d6Ffcbd54c9EE743A651"
      },
      {
        "passId": "599",
        "signer": "0xF91C108136be7E63dF2265758c7D9B1a49d9aE67"
      },
      {
        "passId": "600",
        "signer": "0x0d11B0455061D23CE0a9CA2277d54cBB7c534c94"
      },
      {
        "passId": "601",
        "signer": "0x2d28Cc67d8b2424F0c1f282B1259C986Da4a36f6"
      },
      {
        "passId": "602",
        "signer": "0x6Cbc49395Ff59D3D19fb6B4434F75914e98612Bc"
      },
      {
        "passId": "603",
        "signer": "0xa2C33C4D1c47118d182Ce57D64f9Ee64Bf3107EB"
      },
      {
        "passId": "604",
        "signer": "0x628Cf1787c52544282B7076d097BaC4cdC6f3cFF"
      },
      {
        "passId": "605",
        "signer": "0x58EBb52fB3E1Dad215bA7C5114784AE1f6a1Ab64"
      },
      {
        "passId": "606",
        "signer": "0x4272656DEB6991F5744C84E0c7a8145Da286BEA3"
      },
      {
        "passId": "607",
        "signer": "0xbd59657e8a80c7409BB3FaC53c5925b0DbddaeDe"
      },
      {
        "passId": "608",
        "signer": "0x5D97EA65884799e62dF857032D05aA0b62cB1aE0"
      },
      {
        "passId": "609",
        "signer": "0x54A842C7B57845f0ce893B4D9a8B90bE7c09F849"
      },
      {
        "passId": "610",
        "signer": "0xC0843CB207BB2D6485089d8c81e46bDacEDa21B6"
      },
      {
        "passId": "611",
        "signer": "0x01b78b21f0d8777bf5BD7f9488E02E0d900f52AE"
      },
      {
        "passId": "612",
        "signer": "0xf4E3019A5043C7b98480228c6Bfae6D7AF1432BC"
      },
      {
        "passId": "613",
        "signer": "0x68F12A9757D0a1858Cb2aC2e2a4D0B0cB90a8816"
      },
      {
        "passId": "614",
        "signer": "0x0a5f5D47B50eF21AEEd27C9ef88BeF298366F949"
      },
      {
        "passId": "615",
        "signer": "0x68795775B4873df9901587E2B7b15AB71bB8c339"
      },
      {
        "passId": "616",
        "signer": "0x7A1120C6f749f494FB70EAd4145fdb17E0818B2C"
      },
      {
        "passId": "617",
        "signer": "0xEED1471782CCf442BA641aBC20280d921acC4DF2"
      },
      {
        "passId": "618",
        "signer": "0xE7060299ba874DD7622c7f2c64adD53ad574DdDf"
      },
      {
        "passId": "619",
        "signer": "0xDe685F5c2c8a2F8dbd2E0b7d7b293014A2dA5eC2"
      },
      {
        "passId": "620",
        "signer": "0x0591cA8A1E94aA00e82cfA5BA1fcb26A33C3Eee1"
      },
      {
        "passId": "621",
        "signer": "0x334797514FC5448607865f81b6758C395D62Ad72"
      },
      {
        "passId": "622",
        "signer": "0xe95210c46a7E2D71156C3Ed28810eCE7F98eCA25"
      },
      {
        "passId": "623",
        "signer": "0x3BEF6E82c6190C70F779666DADDea13a83803787"
      },
      {
        "passId": "624",
        "signer": "0x374643106004f5c73DADdF8C9bC0f3606492f771"
      },
      {
        "passId": "625",
        "signer": "0x826c643D68D88b5B43f18b71eb8F4A6359a1Bdf2"
      },
      {
        "passId": "626",
        "signer": "0x83f6c3583e97E24c75A75F7ca02Eb3C167858FCA"
      },
      {
        "passId": "627",
        "signer": "0x4207994A5CA8d39D378aB8A6D86348e5dD034EfF"
      },
      {
        "passId": "628",
        "signer": "0x3B7a6C8AA5Ff325AA417096c6694d5049e294919"
      },
      {
        "passId": "629",
        "signer": "0xe1d9cD6B7920315674e31230C7504876a37d19d8"
      },
      {
        "passId": "630",
        "signer": "0xbDe6a8454044713993dEf50e43487246206773d6"
      },
      {
        "passId": "631",
        "signer": "0xa90EF7498F2fAdf63e6998111cF0E3EEE5A4409c"
      },
      {
        "passId": "632",
        "signer": "0x951012C7083081b76b83F3f7305AC9D47376A3A1"
      },
      {
        "passId": "633",
        "signer": "0x773D04bd1EEb9ce0fcA7248B41CB137A4A9C1029"
      },
      {
        "passId": "634",
        "signer": "0xf30bBcbfD2956dcB172Ceb565bCc71A38B7fACdb"
      },
      {
        "passId": "635",
        "signer": "0x2E83256924972F47Dd5ADF0908ef50f6A03cE681"
      },
      {
        "passId": "636",
        "signer": "0xa61977CC37d1d080dc1d6F2e066419ECF2EF1C15"
      },
      {
        "passId": "637",
        "signer": "0x6E8E4cC4659a24B6b3e465Eb0A8e2041eeEC065A"
      },
      {
        "passId": "638",
        "signer": "0x07549A50C914E4Ba94c704D7fC8229A7FD7691FE"
      },
      {
        "passId": "639",
        "signer": "0xb2110c4e73586Be849C1FC0579080169F1bFCd1E"
      },
      {
        "passId": "640",
        "signer": "0xFc27AfE5c263610a24585F87063078cE1023856D"
      },
      {
        "passId": "641",
        "signer": "0xd7c9B9dA96B483D8744cAe4747a5A80e1C4F2F37"
      },
      {
        "passId": "642",
        "signer": "0x6ceF7A2a1dAC3CD6A58ba494cfADf5d82edE672c"
      },
      {
        "passId": "643",
        "signer": "0xD8A7C04a78D58864C49cCF4Eed25c6287A57d10a"
      },
      {
        "passId": "644",
        "signer": "0x8eB09fa35F146a756C24486b2524A22A4D61E7b4"
      },
      {
        "passId": "645",
        "signer": "0xc7a609dB448ff17F348a44BFE97aB2b4831Cb30b"
      },
      {
        "passId": "646",
        "signer": "0x0Bdd27819cFD52DEB02A03E644336681E6D797F8"
      },
      {
        "passId": "647",
        "signer": "0x535886e9DFB4B7fb4805e903587047C23caFF48d"
      },
      {
        "passId": "648",
        "signer": "0x7a5727C0CBb40B11EaA797b548c5C52392208Af3"
      },
      {
        "passId": "649",
        "signer": "0xD12B63Dd653Db4f8697aA09Fe31048fF930e51AE"
      },
      {
        "passId": "650",
        "signer": "0x5F4a2195133bb745D095115218978Da6436Ae10A"
      },
      {
        "passId": "651",
        "signer": "0xc5c2598e762ffDcBCefc509dA89f5D4f526D10b5"
      },
      {
        "passId": "652",
        "signer": "0x1B40806778080A6D6f7BE3d148485d2f815D11Dc"
      },
      {
        "passId": "653",
        "signer": "0x0A4d439d3300acd15192c72c6532216b087ab5F3"
      },
      {
        "passId": "654",
        "signer": "0x0FBB7C5Fa2eb731BBA10B37212a99a3BEF54dB2D"
      },
      {
        "passId": "655",
        "signer": "0x80be2186372b27bfeE905996Fb9a9A1C106D1882"
      },
      {
        "passId": "656",
        "signer": "0x7982e724962eE3819010C149385B9921755f9CfA"
      },
      {
        "passId": "657",
        "signer": "0x6302ac5c6332d2e10850fEA202DE7C02b9d64683"
      },
      {
        "passId": "658",
        "signer": "0xC9f2c6adcbb5F94E383811F2BfC6EAc2981A5349"
      },
      {
        "passId": "659",
        "signer": "0x8ee4e88E94980D262dB9AE5D01eC878EFaF2e2d1"
      },
      {
        "passId": "660",
        "signer": "0x5F70FB95076BAE7533cB73B4853452bC317975f4"
      },
      {
        "passId": "661",
        "signer": "0xA5a9D7E03d2DE534175721101Af5a78FDa785ec0"
      },
      {
        "passId": "662",
        "signer": "0x430d1a1aD9514013483278f86ab033FC1bd73392"
      },
      {
        "passId": "663",
        "signer": "0x719B7943c26Ef826C7fe748972c45eCbBDC98068"
      },
      {
        "passId": "664",
        "signer": "0x3AEcC1179b34dB66364B0fe1EE2ca7126E03bc36"
      },
      {
        "passId": "665",
        "signer": "0x1FCe03Aa96F94D21bfcA756070E680C5aE0c1056"
      },
      {
        "passId": "666",
        "signer": "0x1426968Eb03470Ce832E4BBd4194a588911229fb"
      },
      {
        "passId": "667",
        "signer": "0xF7f6EE78408486144e51b6842c96f3a7fEFc0eC9"
      },
      {
        "passId": "668",
        "signer": "0xd7cc9569Fbc150836eB093C5289C06f0A1BA9593"
      },
      {
        "passId": "669",
        "signer": "0x087316b5f5aB4fD2f41D4eE050D3b97867D59238"
      },
      {
        "passId": "670",
        "signer": "0xA52E6B16F027ae807d7D98e6F7b931019818d0eC"
      },
      {
        "passId": "671",
        "signer": "0xC1920dab5eF6981cD64fe60fB4C0417AAd02775F"
      },
      {
        "passId": "672",
        "signer": "0x3dbC247b3E83297355a1B8D1638F7Ed016518d2a"
      },
      {
        "passId": "673",
        "signer": "0x4019f255a42beDd3280865F4dAF472B2cb40d9Ce"
      },
      {
        "passId": "674",
        "signer": "0x505a1F9A9aC6E2C25a195c84D2758EDfA35CC380"
      },
      {
        "passId": "675",
        "signer": "0x0460864A2FC2a4a59270f04D8289f58A3Ee80478"
      },
      {
        "passId": "676",
        "signer": "0x1A8d170B6618Ec2A6Af2524c9ff3E5999F0054C0"
      },
      {
        "passId": "677",
        "signer": "0x5a973710b5af0EBa0947f0b368289C38149E2c18"
      },
      {
        "passId": "678",
        "signer": "0xF3D7Dc83095fF64924C61C21d891d4a3eabe9159"
      },
      {
        "passId": "679",
        "signer": "0x19BB13aF477bbF10e1316Cd5F8Bb3700F9b2D934"
      },
      {
        "passId": "680",
        "signer": "0x812E5045cEe849a857e6A7b0A2711ca12D3ee177"
      },
      {
        "passId": "681",
        "signer": "0x5dAd6AeB34aAd30bb93aF80B5CAe9Eae4d07a4bd"
      },
      {
        "passId": "682",
        "signer": "0x5B949D70e798E3156Da6994D339eF8d93dBDFfaF"
      },
      {
        "passId": "683",
        "signer": "0xeE944702207821412A7CA83Dd7BbeCe093c5DB42"
      },
      {
        "passId": "684",
        "signer": "0x61C9b3E995173d0E01B8b3E8A70Ca781be9f32Bd"
      },
      {
        "passId": "685",
        "signer": "0x721816F6138730456Fd245353502A2E46bc05D7e"
      },
      {
        "passId": "686",
        "signer": "0xF9C5468692ba289d6F6E8EAF8890b00F7fDcE433"
      },
      {
        "passId": "687",
        "signer": "0x97d6C5979E9e2B213d2E95a50e3D34d8e2F13e9A"
      },
      {
        "passId": "688",
        "signer": "0x18dD56C64d88FF23A12aDd85487977275F12D6f5"
      },
      {
        "passId": "689",
        "signer": "0xaACc7A4BcE1F4934a0004862168a0F423BB49759"
      },
      {
        "passId": "690",
        "signer": "0x73bC54Cd6d22Dcdd430adF68A6dace39d4Ad5262"
      },
      {
        "passId": "691",
        "signer": "0xfB3A6aFa5D4C4B065cEe056B1F106Cdfce88f158"
      },
      {
        "passId": "692",
        "signer": "0x2447C6b8cD140369406B7d7130383DaEeEf76Dd5"
      },
      {
        "passId": "693",
        "signer": "0xbD9bA5dF4fb8EcCbD42dFa08Ad5038A480CaF4BA"
      },
      {
        "passId": "694",
        "signer": "0xc8d48F7b8C3CacCA10D69289eF23E62be52286f9"
      },
      {
        "passId": "695",
        "signer": "0x18B5517dA37781077535F1fF2dbc30CC2052526E"
      },
      {
        "passId": "696",
        "signer": "0x04Cc3087Bd8D0Ac6c39fF3b5DF952B37a809ECFb"
      },
      {
        "passId": "697",
        "signer": "0x21679522504bE70d53919B3482CEC271B74815C9"
      },
      {
        "passId": "698",
        "signer": "0x6d3010D4cB4293220DD49f4eC447BA80404888Fa"
      },
      {
        "passId": "699",
        "signer": "0xe69E47c4571fC5E06e5CaE3efbe81E3130A00013"
      },
      {
        "passId": "700",
        "signer": "0x8003aC8EbceFdc1bcCbC06bF5A79ba664a04C378"
      },
      {
        "passId": "701",
        "signer": "0xCA0AE708d552A022f528Ef17C3169433cf2612C9"
      },
      {
        "passId": "702",
        "signer": "0xa9Bc4E231F03D0fAA07eBef1f912bbA2C4468e8F"
      },
      {
        "passId": "703",
        "signer": "0xA3AF76ceE23e4320BA80C36441ADa37b98b773ba"
      },
      {
        "passId": "704",
        "signer": "0xd8A1E3a9C915c162B0BbD26f16D797bB2e5895DE"
      },
      {
        "passId": "705",
        "signer": "0xCEcd6fD4bc7327c39948aF610D43EfB30296770A"
      },
      {
        "passId": "706",
        "signer": "0x494eFb36ff5181dB13b93a436fEc00Ef70ad77eA"
      },
      {
        "passId": "707",
        "signer": "0xeCA91605A70D71fcA429b54DD6C2b74f27470c4e"
      },
      {
        "passId": "708",
        "signer": "0xEDad416c5059D51F822eab968514f6D942CD355B"
      },
      {
        "passId": "709",
        "signer": "0x41bae2a04816a2472c85036C447aDFe339d0CD1D"
      },
      {
        "passId": "710",
        "signer": "0xe2FBaD5745d3D37ec5195b8bb7B1eA540a1aA5Ba"
      },
      {
        "passId": "711",
        "signer": "0x2fda80657871Dc324E3a7297301b404aeC1a9cCe"
      },
      {
        "passId": "712",
        "signer": "0x8D108D64d09F936e78f0B3bF0F078EAb1654292C"
      },
      {
        "passId": "713",
        "signer": "0xD1a921715554Cf7De9ab747A26041036c26d7FA3"
      },
      {
        "passId": "714",
        "signer": "0x814a051A61919066333244B4194ad3A2066BADfe"
      },
      {
        "passId": "715",
        "signer": "0x76e1f26bAe855718Fc31F961b1Ff624ed11cfA11"
      },
      {
        "passId": "716",
        "signer": "0x2F34Ee68A7D8f24182D65131D5FA14887bE15798"
      },
      {
        "passId": "717",
        "signer": "0x2310ea13edd299Cb973f64CF718D8eBA8e0d2C52"
      },
      {
        "passId": "718",
        "signer": "0xd4303D5539D7F39FC70Ec3348614755030341953"
      },
      {
        "passId": "719",
        "signer": "0x03dc1920150d2831F34A575F1045F0C99A26A3df"
      },
      {
        "passId": "720",
        "signer": "0xD3accD2DA437FA3697268c4571c0b9B9296F2141"
      },
      {
        "passId": "721",
        "signer": "0x5aD2aBA2FA1956be1fBd5bb28818f1FD3D7aAf3C"
      },
      {
        "passId": "722",
        "signer": "0xBA2FdD16334a07b419198701756C913A5Ce363aE"
      },
      {
        "passId": "723",
        "signer": "0x059BaBADfa7cbBc7187a02da73254A9930465D5e"
      },
      {
        "passId": "724",
        "signer": "0xe05EF51FF73D09169F82c37988d5729EfecC7D4C"
      },
      {
        "passId": "725",
        "signer": "0xefa35552d4077B896E9e8C5989D03535999C0C13"
      },
      {
        "passId": "726",
        "signer": "0x22d6347498060dA3Cfb3652aA51898f2A53E0f6c"
      },
      {
        "passId": "727",
        "signer": "0xE02fe6222FB40FDBFD996185e6661D9fBd706cd5"
      },
      {
        "passId": "728",
        "signer": "0x8ED2B69aB2D1bb2B997d6E4989B0ADC0D3Cf6cB1"
      },
      {
        "passId": "729",
        "signer": "0xa8F39B54F7fd75E8Daa98F62518e60991dFADa67"
      },
      {
        "passId": "730",
        "signer": "0xAc0a6765a6375d6607c6cC5586F33420C6287923"
      },
      {
        "passId": "731",
        "signer": "0x3d1cE0070eD71C9AB15D9C038F186bF5216F9A07"
      },
      {
        "passId": "732",
        "signer": "0x5c0172f945044fBF78d9Fe52Ad80a0D32A1A8E41"
      },
      {
        "passId": "733",
        "signer": "0x4c8Cc1824BB919B9004634Ff7ff98c2A430B3050"
      },
      {
        "passId": "734",
        "signer": "0xfF32cC12fB6946fE00BBD3884D14559140f255A0"
      },
      {
        "passId": "735",
        "signer": "0x6Ec38888fe9003bF6fcA27240173aD38c9f33bf8"
      },
      {
        "passId": "736",
        "signer": "0x0910251DEda45d488Ed9369B768154503e5a2722"
      },
      {
        "passId": "737",
        "signer": "0xBBc380C58c73E84c3b862A550d445EE5BAB3A758"
      },
      {
        "passId": "738",
        "signer": "0xD895194A743936462eD4C50CF48f0d6D13a2B6b8"
      },
      {
        "passId": "739",
        "signer": "0x9fa70c9515D798bd128658B93109066C87E10A3E"
      },
      {
        "passId": "740",
        "signer": "0x9033aA29331D5594c19890E9ADa3A6638a1292F1"
      },
      {
        "passId": "741",
        "signer": "0xb20408eb4e60AABaFcB629cBd031DDE6BD1ccc1d"
      },
      {
        "passId": "742",
        "signer": "0xE33b635392A7419217aE8669018cd0DfceC0a3B2"
      },
      {
        "passId": "743",
        "signer": "0xD85357f7982d53F9fd72F5598B8052632aCa3d26"
      },
      {
        "passId": "744",
        "signer": "0xc92a4fa010A771ed0D46d7f82eb799989abF4239"
      },
      {
        "passId": "745",
        "signer": "0x1BF4Be867B72467335872FBaF0eA82a66f1b0ddc"
      },
      {
        "passId": "746",
        "signer": "0x037C705D62ea9d102bd9567475905cdd8ffc49e6"
      },
      {
        "passId": "747",
        "signer": "0x08f70C75B8cE8247C7bB9C286024D8104a06DDe6"
      },
      {
        "passId": "748",
        "signer": "0x95d81327A9D296dc4095835c68a9a6947F5384fB"
      },
      {
        "passId": "749",
        "signer": "0x7B0Ed3e035d5A5ACc345ba244288129F0aD452B3"
      },
      {
        "passId": "750",
        "signer": "0xf978150116cb92efd947e20a0181f6e0bdcffc11"
      },
      {
        "passId": "751",
        "signer": "0x8090Abd8A93C6b0340ABeb7576806A31E4183Aa5"
      },
      {
        "passId": "752",
        "signer": "0x0A1f65e23EE9f7287668BEef9fAC33d1f4880b71"
      },
      {
        "passId": "753",
        "signer": "0x260e9f2859637D042bFe8a8d82b4066ab7FD5818"
      },
      {
        "passId": "754",
        "signer": "0xE90997a895380811F8AaA84bAab3f8f95b0Ac7F5"
      },
      {
        "passId": "755",
        "signer": "0xE7987ACdf4289841d014791C43467082A77b8364"
      },
      {
        "passId": "756",
        "signer": "0x5c8D76817cEbA095a445fa2112850efE4f949038"
      },
      {
        "passId": "757",
        "signer": "0xD8A7eE848F1227643c150f573B33FE9DB0d44Dbb"
      },
      {
        "passId": "758",
        "signer": "0xA415e06c403c7f5aBB16A15A51DeD3dECB80372b"
      },
      {
        "passId": "759",
        "signer": "0xf07d7A69EcefF7516eB969676BD58249FF46e438"
      },
      {
        "passId": "760",
        "signer": "0x2096a7e7e864BC98947256AFB25b6B2273D3e95e"
      },
      {
        "passId": "761",
        "signer": "0x69bfa4a90fD8566042B72D9B53dA8D6D804a0F68"
      },
      {
        "passId": "762",
        "signer": "0x51fFeA5266B46ebd06a5fcE1D914b25D29663d84"
      },
      {
        "passId": "763",
        "signer": "0x3084276472ae4754bccBDD55Da8FEd8744d0cf4e"
      },
      {
        "passId": "764",
        "signer": "0xD40d52CFc2b1b4f6606D7108FDB6C09B05EEdea7"
      },
      {
        "passId": "765",
        "signer": "0x8dCbFAa2F029De2Be003913C5e46D1a57242ED4E"
      },
      {
        "passId": "766",
        "signer": "0x04777Dd74C990644Deb9737a00d4F0ab72e9B46c"
      },
      {
        "passId": "767",
        "signer": "0xfb33d054E9b5bC12d8dbe6Cf322A4c4c2fD74797"
      },
      {
        "passId": "768",
        "signer": "0x690d1823d386E65cB1ff01f7dd3c5450AAEcEF1F"
      },
      {
        "passId": "769",
        "signer": "0xbA152fCfA8d5107718da5EA675dacd15cFf90DCE"
      },
      {
        "passId": "770",
        "signer": "0xEbf89Bd5012b0c81189F4442ea3ea98E4BFC0863"
      },
      {
        "passId": "771",
        "signer": "0x182b9C495f9C4F985Db453dD1B4666882fbAB29a"
      },
      {
        "passId": "772",
        "signer": "0xB8858A896f389E2Eccf17ed1f111A8E70910124c"
      },
      {
        "passId": "773",
        "signer": "0x38AbBf805B5D6EaDb6a4Da2E5cD58e21f6808788"
      },
      {
        "passId": "774",
        "signer": "0x36de5EAb4DE0fA603A3E0975619ef86f66b1c00d"
      },
      {
        "passId": "775",
        "signer": "0x5b3D91f27cCAb6C6551d9009B2B0359E0338Ea27"
      },
      {
        "passId": "776",
        "signer": "0x76dEb0007D9CC2AdDf62b2D6c6E568E80f669b61"
      },
      {
        "passId": "777",
        "signer": "0x61FC8AD199BcFD18ab012101aE50190cfCf51877"
      },
      {
        "passId": "778",
        "signer": "0x2578A1f96905540333a8c6636f7Abb3Cf4E3025A"
      },
      {
        "passId": "779",
        "signer": "0x5B85d991f6f4A2644ef2800625eBC52EBF432050"
      },
      {
        "passId": "780",
        "signer": "0xE63ddDD932a01054acb604587df250B95525668E"
      },
      {
        "passId": "781",
        "signer": "0x8ae94F73c00155D67fDde8F0E8B18536E70E4a01"
      },
      {
        "passId": "782",
        "signer": "0x6D5A030cdacA9cd015E1fF47bA774684BCE66152"
      },
      {
        "passId": "783",
        "signer": "0x3442B698204cD5E974902dEE4eEE8503fBEe6034"
      },
      {
        "passId": "784",
        "signer": "0x96Ae23Cbb12f6f623Bb9D9Fa4ef429091e384ddD"
      },
      {
        "passId": "785",
        "signer": "0xBAf95Fa3aa8c3b0F89DB246D5fb1b564C50d0EdC"
      },
      {
        "passId": "786",
        "signer": "0x76bAa21bd0d967d1028912B98A7BE1e55111fbA4"
      },
      {
        "passId": "787",
        "signer": "0x64c3fb7A483f5951749ef9cc13f92f074742ce9B"
      },
      {
        "passId": "788",
        "signer": "0xFd552bd298c2AE99116F66c997da20e071bDA406"
      },
      {
        "passId": "789",
        "signer": "0x9e74Ef00733B1aacA2a8F9dFdc17dC8C73166ECB"
      },
      {
        "passId": "790",
        "signer": "0x8742FDE6C1eADeB801b711841c83E74E92E42373"
      },
      {
        "passId": "791",
        "signer": "0xb65429F28DFa126286DCD7207b756523fA10B1f2"
      },
      {
        "passId": "792",
        "signer": "0xB20A476367B45FA5cb81D6f1187BB6A761bd3C4d"
      },
      {
        "passId": "793",
        "signer": "0x9Db2ee1a667503a229aF9B213295213826521E29"
      },
      {
        "passId": "794",
        "signer": "0x587439fffB7ACe6c497c770568965b77931c25E6"
      },
      {
        "passId": "795",
        "signer": "0x3C7777C8f0F994e38Aabc1Fcb42F0DB842AF8Fc9"
      },
      {
        "passId": "796",
        "signer": "0x18Fc58f847f6BF462d4b3Cdb35C2f53cd01D0Dee"
      },
      {
        "passId": "797",
        "signer": "0x16E42Fa57da7E5BD11acB4Ed76d938dbe6C0a700"
      },
      {
        "passId": "798",
        "signer": "0x66EE44E3B02C6F6D4Db06a277d0a110a1307d818"
      },
      {
        "passId": "799",
        "signer": "0xFEd5CaB88Fe0d5649D17149fCdeFe5d11Cbf0b6C"
      },
      {
        "passId": "800",
        "signer": "0xd9D89F3a9bd1da059368Cf859E4829a819e9A12e"
      },
      {
        "passId": "801",
        "signer": "0xb43beef4FE08ebEfe74Ca6d7639f2E09A6F7d89d"
      },
      {
        "passId": "802",
        "signer": "0xEA05e5769A912ee91F2bF132974df86e5473329E"
      },
      {
        "passId": "803",
        "signer": "0x2Ba9B401bc9a8efc7Bc66b9a229365f3909351d2"
      },
      {
        "passId": "804",
        "signer": "0xcCCb7588d3E7b663cE6c73608b54737810010250"
      },
      {
        "passId": "805",
        "signer": "0xE509B59cA2F934809829118Bf6A49921A8a3c0dD"
      },
      {
        "passId": "806",
        "signer": "0x24213DA67bcf6760775b76ED157Fc5F72449cE40"
      },
      {
        "passId": "807",
        "signer": "0xd7AF667c637cF33459158A7B420f1131C08d53B7"
      },
      {
        "passId": "808",
        "signer": "0x0B236c836de9b83F9368E015A2D61C8D3aB957A9"
      },
      {
        "passId": "809",
        "signer": "0x71afef4FC6CbC18C757D8C77b78BA474d4654712"
      },
      {
        "passId": "810",
        "signer": "0xdBA5D35468546290E40Ac3D5dCc39EF93825E81f"
      },
      {
        "passId": "811",
        "signer": "0xd1Fb094EE31389fc3671D10156Cc1315BC8b75cE"
      },
      {
        "passId": "812",
        "signer": "0x8E81D33F8E0731783a3D02aD08e4CFca4c373bD0"
      },
      {
        "passId": "813",
        "signer": "0x48a4bC43C35a4eA7B012c6abC5bc36A6A61EB796"
      },
      {
        "passId": "814",
        "signer": "0xb17234A2f8dB23F6D9B7dAD9e263f36CE73F8A0B"
      },
      {
        "passId": "815",
        "signer": "0x000000000000000000000000000000000000dead"
      },
      {
        "passId": "816",
        "signer": "0x000001f568875f378bf6d170b790967fe429c81a"
      },
      {
        "passId": "817",
        "signer": "0x0078c86e12186e2de1ff6fef5f1ada2bffde4ea5"
      },
      {
        "passId": "818",
        "signer": "0x024f1f8b3789bfdf9edb47f58a0d7a3afeaea804"
      },
      {
        "passId": "819",
        "signer": "0x049808d5eaa90a2665b9703d2246dded34f1eb73"
      },
      {
        "passId": "820",
        "signer": "0x05e8074088797c1f9057febf374deee0bc38e894"
      },
      {
        "passId": "821",
        "signer": "0x05ea539365d91df315e8ddd736e90431696fe8c4"
      },
      {
        "passId": "822",
        "signer": "0x09280340849e66948149804cac539cc7227512be"
      },
      {
        "passId": "823",
        "signer": "0x0946bc5c2f9848665cc3811458de403d0a78ad8e"
      },
      {
        "passId": "824",
        "signer": "0x0985224a811e65c235dbf4a2c2117712aabe4e39"
      },
      {
        "passId": "825",
        "signer": "0x0d0aca99686fced8e6fb39134aaed96f09b5283c"
      },
      {
        "passId": "826",
        "signer": "0x0d94b6e4c2aa9383964986020b3534d34885f700"
      },
      {
        "passId": "827",
        "signer": "0x0dd544d0da95666d7c3d38460feb4b5f25eaa515"
      },
      {
        "passId": "828",
        "signer": "0x0ea59c05be4b7149aaed26be764b618ac0255643"
      },
      {
        "passId": "829",
        "signer": "0x10b28ee04853bdd30d1fd7b302fbe5691c144aa0"
      },
      {
        "passId": "830",
        "signer": "0x10f6c58b9dc9603cb24ee9a5220bb4a470781676"
      },
      {
        "passId": "831",
        "signer": "0x12579783fbe8c2645d7a634b238da748405975a2"
      },
      {
        "passId": "832",
        "signer": "0x136c65a3f31682fcf683906ddbf3c76db2633f99"
      },
      {
        "passId": "833",
        "signer": "0x139d9a36ff2b6bfb8558dfbc22486da48c77a396"
      },
      {
        "passId": "834",
        "signer": "0x13b3a50f3947476eda74fe191344524e2d2d28e5"
      },
      {
        "passId": "835",
        "signer": "0x13e46ccd194ca86212236543d2e7376b00bafa42"
      },
      {
        "passId": "836",
        "signer": "0x1423fcc74da82fa03d70fa1f7a122db1ba231783"
      },
      {
        "passId": "837",
        "signer": "0x1436dbffbdde71d16a2c4d23f9116c3158c4d984"
      },
      {
        "passId": "838",
        "signer": "0x1527fa3a0778d574adfe714b7e60c7b2a1bf7c29"
      },
      {
        "passId": "839",
        "signer": "0x1974341df4b113a4c16f3d3f106176dec0e4da67"
      },
      {
        "passId": "840",
        "signer": "0x1c062628943a930b805849b494719c7d23c77bd5"
      },
      {
        "passId": "841",
        "signer": "0x1ec9503bbdad721ef3ad485b4b14ce0671dc9925"
      },
      {
        "passId": "842",
        "signer": "0x21c5edc237e95049f92059af6a571fdb700f2b82"
      },
      {
        "passId": "843",
        "signer": "0x2224acd07fd9b269ab5200a9a3df8062624deefb"
      },
      {
        "passId": "844",
        "signer": "0x230eb64900d027dfe372786b3342bd6178ec37d1"
      },
      {
        "passId": "845",
        "signer": "0x273c25abd33eca095e228fde0f15e8f7ec4eb4d9"
      },
      {
        "passId": "846",
        "signer": "0x27d9b6692ec1fb802cc8ceef74270ca4b448076a"
      },
      {
        "passId": "847",
        "signer": "0x290420874bf65691b98b67d042c06bbc31f85f11"
      },
      {
        "passId": "848",
        "signer": "0x2993db31d165c33d848e44a1c26a805ba411d324"
      },
      {
        "passId": "849",
        "signer": "0x2d2c46d26c8fec693586e067c4fc2b2ddc2b4cb3"
      },
      {
        "passId": "850",
        "signer": "0x2d79097b9e4c4f41654b2c91c39fd2c97af00c76"
      },
      {
        "passId": "851",
        "signer": "0x2de2299db048a9e3b8d1934b8dae11b8041cc4fd"
      },
      {
        "passId": "852",
        "signer": "0x2e50783188e23742dd3168682e39381ff5fa9731"
      },
      {
        "passId": "853",
        "signer": "0x2e699391d1b3b8577557b4c0ef6a1d9e8a394f04"
      },
      {
        "passId": "854",
        "signer": "0x308bff328370fc4a9683ab9fcd79a21be6dc5ee4"
      },
      {
        "passId": "855",
        "signer": "0x342c6bfa287ce37b8b53eee0e5b6e6bcbea98c76"
      },
      {
        "passId": "856",
        "signer": "0x362f020fd4420c317e7a0722994ba8bc3380d0e8"
      },
      {
        "passId": "857",
        "signer": "0x3668a20653316a7dd85342f64a4c984d146cadfe"
      },
      {
        "passId": "858",
        "signer": "0x37b699d7eead58433d352d1c77b2db1391f11ce5"
      },
      {
        "passId": "859",
        "signer": "0x3ad353e2845b96fb1b58c1ca6cda46b870de8d6f"
      },
      {
        "passId": "860",
        "signer": "0x3d14410609731ec7924ea8b1f13de544bb46a9a6"
      },
      {
        "passId": "861",
        "signer": "0x4011d09a86d0aca8377a4a8bad691f1aceecd672"
      },
      {
        "passId": "862",
        "signer": "0x41a7276167b80da8815df5b0ddaba3be29984250"
      },
      {
        "passId": "863",
        "signer": "0x44dc2ec15b3483fc8590f6b396cea5f8f2fbf3bd"
      },
      {
        "passId": "864",
        "signer": "0x4530307f98208d3bd5b9631880bc7351770c8810"
      },
      {
        "passId": "865",
        "signer": "0x4a1d757699ab73dd4b48b15049b6f1479b2f3511"
      },
      {
        "passId": "866",
        "signer": "0x4b0bd713574e67a97b3ff8f647f329794a2cbb64"
      },
      {
        "passId": "867",
        "signer": "0x4d03a186b3c7d039ff9a212cd8e81dc34a670b35"
      },
      {
        "passId": "868",
        "signer": "0x4de4a829d42191007431d608775430f3ab072082"
      },
      {
        "passId": "869",
        "signer": "0x4e012d25472225f3385baa43ed64dfec5885c51d"
      },
      {
        "passId": "870",
        "signer": "0x4ffb72b66eba24521736924f87dfe10677d82286"
      },
      {
        "passId": "871",
        "signer": "0x50f27cdb650879a41fb07038bf2b818845c20e17"
      },
      {
        "passId": "872",
        "signer": "0x5285ac85a979b612f5c5320961311bba099670f0"
      },
      {
        "passId": "873",
        "signer": "0x530cf036ed4fa58f7301a9c788c9806624cefd19"
      },
      {
        "passId": "874",
        "signer": "0x5310a9b64847c1b927f823a4bc8836e93f09dc78"
      },
      {
        "passId": "875",
        "signer": "0x54463aae905082c678708bb6c25226eb8f38d5a6"
      },
      {
        "passId": "876",
        "signer": "0x562bf1b67dc40d9b7c3ddd49e45ae58e61e1b76e"
      },
      {
        "passId": "877",
        "signer": "0x568b491fb2b4b9440f6d05e7723df0060fdaef1c"
      },
      {
        "passId": "878",
        "signer": "0x5a016b206d0314c7ec641c3a6fd89dac7fea010e"
      },
      {
        "passId": "879",
        "signer": "0x5b158f897f5ace2afefaf7ace8ce0cdbbbc9168a"
      },
      {
        "passId": "880",
        "signer": "0x5ba02f4ff6af1d9d2af8774d10fd32eb57d4e2e6"
      },
      {
        "passId": "881",
        "signer": "0x5bd685375c21375165438ca7f3eae7ec4fade8c5"
      },
      {
        "passId": "882",
        "signer": "0x5d9e720a1c16b98ab897165803c4d96e8060b8e4"
      },
      {
        "passId": "883",
        "signer": "0x5e01d9928ea32d1d3ae2f3263b6ec6c165dc2d76"
      },
      {
        "passId": "884",
        "signer": "0x5ee42438d0d8fc399c94ef3543665e993e847b49"
      },
      {
        "passId": "885",
        "signer": "0x5f8e56d7f3642dd8783774460da2d3a7c54aacda"
      },
      {
        "passId": "886",
        "signer": "0x5fb8b9512684d451d4e585a1a0aabfb48a253c67"
      },
      {
        "passId": "887",
        "signer": "0x6186290b28d511bff971631c916244a9fc539cfe"
      },
      {
        "passId": "888",
        "signer": "0x62f099a34f01d57c67a100851184bea0d48b45f6"
      },
      {
        "passId": "889",
        "signer": "0x63244b5f1ebcb999ea012da652dffee6653bf8f5"
      },
      {
        "passId": "890",
        "signer": "0x64e00561fa9b1f2f2048b2d4f571279689dd9541"
      },
      {
        "passId": "891",
        "signer": "0x65565244e5700b85c90358468faf37c85db55099"
      },
      {
        "passId": "892",
        "signer": "0x6584b48ccebd9c3e4413a1dd4cdbc38b2500cdf3"
      },
      {
        "passId": "893",
        "signer": "0x65d88c64b01b9481352fa8a68b54ed1b3b687388"
      },
      {
        "passId": "894",
        "signer": "0x663d3947f03ef5b387992b880ac85940057c13e3"
      },
      {
        "passId": "895",
        "signer": "0x67c3097a968db89610825976ec9a5976a966c044"
      },
      {
        "passId": "896",
        "signer": "0x68016f094ebb7b55b04372af335455854b0e2eb6"
      },
      {
        "passId": "897",
        "signer": "0x6854dc5c9e3d3ce0b9dd7250d866908515465dc6"
      },
      {
        "passId": "898",
        "signer": "0x686e960ebd9aceb1771850444d4d3a7810a0dac9"
      },
      {
        "passId": "899",
        "signer": "0x6d7fd0438219c0f753a1ccf7c4885bb6cb260999"
      },
      {
        "passId": "900",
        "signer": "0x704c978d50590b21e4c2f43eb4da24fe61fcd707"
      },
      {
        "passId": "901",
        "signer": "0x73e60cd967e957bc6e074f93320ffa1d52697d5b"
      },
      {
        "passId": "902",
        "signer": "0x75331ebbe0b00b97cab532384f13c9b479f074ec"
      },
      {
        "passId": "903",
        "signer": "0x75ef2eff7b12f5f900ef5c787036deab18423d1a"
      },
      {
        "passId": "904",
        "signer": "0x78885686feec340ab544428f161e7d621f520e29"
      },
      {
        "passId": "905",
        "signer": "0x79bebfcb560141f22959c62bbd2930d5c7e35d30"
      },
      {
        "passId": "906",
        "signer": "0x79fd2f15e0ea8c27b5192259f9da63f4e562f021"
      },
      {
        "passId": "907",
        "signer": "0x7a824bea2bed9399a68cd0e340224809521c81d9"
      },
      {
        "passId": "908",
        "signer": "0x7d6a8ffcaf98cac58340329b3a91759888cb1363"
      },
      {
        "passId": "909",
        "signer": "0x7e7a55b11dd9a02b4da169620adfc36b930100fc"
      },
      {
        "passId": "910",
        "signer": "0x80d0d54050c15971b21e877d95441800f5aa9ee8"
      },
      {
        "passId": "911",
        "signer": "0x8177598e08ee8199c160a48c7a0af31ab54bb59f"
      },
      {
        "passId": "912",
        "signer": "0x82410609593d876761681580cf304c794bd58d09"
      },
      {
        "passId": "913",
        "signer": "0x826f63afd9517364cbebe91a859f10b102505a40"
      },
      {
        "passId": "914",
        "signer": "0x836ef81a58e5565b8d1d555ec8e9a5c2792511c6"
      },
      {
        "passId": "915",
        "signer": "0x83d3c179e7906e7f6755658c70e106f1ed3c5782"
      },
      {
        "passId": "916",
        "signer": "0x84eeb7db3f93feb5a8a98f56dabb970a6797c187"
      },
      {
        "passId": "917",
        "signer": "0x865c2f85c9fea1c6ac7f53de07554d68cb92ed88"
      },
      {
        "passId": "918",
        "signer": "0x8725be0bb6ea759d10fbb52fedecc7dcd6890072"
      },
      {
        "passId": "919",
        "signer": "0x87dfef3b445667292aac89078b51f0f75795805f"
      },
      {
        "passId": "920",
        "signer": "0x88906af7616f88f610d1e479325a5c5f93ba1e2c"
      },
      {
        "passId": "921",
        "signer": "0x8a53b8b59877df193c6dae7b8d1d38251af563cf"
      },
      {
        "passId": "922",
        "signer": "0x8b5e90aa714c967efc8c286f46ce0fc822e1cfb0"
      },
      {
        "passId": "923",
        "signer": "0x8c0c3c60118b24b31806eae82ab4186821bf23f1"
      },
      {
        "passId": "924",
        "signer": "0x8c2e67bd3d0f432ef75d9ae6623cd0dfbce66050"
      },
      {
        "passId": "925",
        "signer": "0x8dc9d43df20681cd62ca0acb24ae7ce2794f835d"
      },
      {
        "passId": "926",
        "signer": "0x8df55ecf2c261b44d079302dc95327fe32f74eed"
      },
      {
        "passId": "927",
        "signer": "0x8ebbf8f59b7b7849e359f7e1cc395df6741c24b9"
      },
      {
        "passId": "928",
        "signer": "0x92e7faa1c7b1cf703e3cda42183978f16fa15713"
      },
      {
        "passId": "929",
        "signer": "0x932a824a4d3d0680e0b352de150e6f212b8ac841"
      },
      {
        "passId": "930",
        "signer": "0x95a4350e1cb5e795d3ebe8bee63d9183de5449d1"
      },
      {
        "passId": "931",
        "signer": "0x96dc89dbe84970ee42a2f0b35fb50599e6745ff8"
      },
      {
        "passId": "932",
        "signer": "0x975ab68d4c15d6db02e101d5be03c5b49b9a3282"
      },
      {
        "passId": "933",
        "signer": "0x9de0b0402258a6a562331da7b3c13b29578789c4"
      },
      {
        "passId": "934",
        "signer": "0x9fc6d6c7326585fd3c2a743a1f505990d6e9df3f"
      },
      {
        "passId": "935",
        "signer": "0xa0863e36c30f4974a3a0e2cfc2802513cfaa22f1"
      },
      {
        "passId": "936",
        "signer": "0xa0a6dc36041fb386378458006fecbddd02555ddd"
      },
      {
        "passId": "937",
        "signer": "0xa0d71d516c6149c958c489ab24223c99f5df906f"
      },
      {
        "passId": "938",
        "signer": "0xa0f838d02983161ee469bff969964b7051ac1cd9"
      },
      {
        "passId": "939",
        "signer": "0xa596370bc21dee36872b98009dfbbf465dbfefa3"
      },
      {
        "passId": "940",
        "signer": "0xa5975974cac3fefd831e42bdd2fe84cb5ee3b3de"
      },
      {
        "passId": "941",
        "signer": "0xa6157b7bb7ec05e2b6feafd686797f9ea05411cc"
      },
      {
        "passId": "942",
        "signer": "0xa6f4fa9840aa6825446c820af6d5eccf9f78ba05"
      },
      {
        "passId": "943",
        "signer": "0xa77d9227eee861e01519548b6000acca8600eebe"
      },
      {
        "passId": "944",
        "signer": "0xa7d9f4fd84cdd4bee564adc1b18e3e8aa79d25f1"
      },
      {
        "passId": "945",
        "signer": "0xa88e4a192f3ff5e46dcc96efefb38dfec7bb250c"
      },
      {
        "passId": "946",
        "signer": "0xab2f02d8d409ee4f67fdda5aac5ca7a64a897271"
      },
      {
        "passId": "947",
        "signer": "0xac75cdc34283406b050cadf4ea5902a9310b138e"
      },
      {
        "passId": "948",
        "signer": "0xad9f9194c68bd83250a534a7da574687e1f102ff"
      },
      {
        "passId": "949",
        "signer": "0xae8ce6bb2b95684f57c097b407f4e9b55d9ca432"
      },
      {
        "passId": "950",
        "signer": "0xaee2f40fe0568bd859bc6a518c7ef3252fdc9bf0"
      },
      {
        "passId": "951",
        "signer": "0xaf5cb828389bd6413e7bcd00ed2dcf2bdc1a015a"
      },
      {
        "passId": "952",
        "signer": "0xaf8fbf59e221d27b55dc3adc2366f9230bcf5096"
      },
      {
        "passId": "953",
        "signer": "0xb29b1936c11b77cec6061a9daf765ee2666c8f77"
      },
      {
        "passId": "954",
        "signer": "0xb347b5b99c49ce6c555071a1f0498c81511ad977"
      },
      {
        "passId": "955",
        "signer": "0xb3522064694ac9870dbf00eebc2712762193bb64"
      },
      {
        "passId": "956",
        "signer": "0xb353268ce17d2c7f0f4f8aff152e548c43633df5"
      },
      {
        "passId": "957",
        "signer": "0xb66190f67ed8f0ca790ddfe541ee1bd0da53fe70"
      },
      {
        "passId": "958",
        "signer": "0xb74e4d1592dad73f3745f57605580108ebaedad5"
      },
      {
        "passId": "959",
        "signer": "0xb7f9f538aa1b41ae2853eb63f1939187ffe70eb4"
      },
      {
        "passId": "960",
        "signer": "0xbb46c6e4d8a59520fbb11638c2d1228cc65f5a6c"
      },
      {
        "passId": "961",
        "signer": "0xbc10a3ae909b1b94f4c3e39607ad19d386dce32a"
      },
      {
        "passId": "962",
        "signer": "0xbd12aa424c207e90b66402c1f0aec357e8b1ded7"
      },
      {
        "passId": "963",
        "signer": "0xbe5be517537e53f09e88bcdf61da238477dca226"
      },
      {
        "passId": "964",
        "signer": "0xbeeef66749b64afe43bbc9475635eb510cfe4922"
      },
      {
        "passId": "965",
        "signer": "0xbf1ed1ea654ad49472daedc21a31c8d28e6bb790"
      },
      {
        "passId": "966",
        "signer": "0xbf27384febdc054bbd7e388761919e7d98f7da0c"
      },
      {
        "passId": "967",
        "signer": "0xbfdb50dc66c8df9fd9688d8fe5a0c34126427645"
      },
      {
        "passId": "968",
        "signer": "0xc09d3402515676b81a2f768c365146ea3faa5605"
      },
      {
        "passId": "969",
        "signer": "0xc0e5e14bdecd9ed6954a9e14c74e97cebd91bb94"
      },
      {
        "passId": "970",
        "signer": "0xc169699a825066f2f07e0b29c4082094b32a3f3e"
      },
      {
        "passId": "971",
        "signer": "0xc3a67c1437353bdc9c53060235a34018711de0cf"
      },
      {
        "passId": "972",
        "signer": "0xc42c694d0215b27bce1a871a4a2ad38cf0120a82"
      },
      {
        "passId": "973",
        "signer": "0xc555347d2b369b074be94fe6f7ae9ab43966b884"
      },
      {
        "passId": "974",
        "signer": "0xc665a60f22dda926b920deb8ffac0ef9d8a17460"
      },
      {
        "passId": "975",
        "signer": "0xc8286a9bf1f9bf8f3006fa014915c78b7e75111c"
      },
      {
        "passId": "976",
        "signer": "0xc8bace82793074fad3337424bdb84e306b2f8a44"
      },
      {
        "passId": "977",
        "signer": "0xc9a009bed9ed8a32499e18c20f7cd12132c8d6cb"
      },
      {
        "passId": "978",
        "signer": "0xca11d10ceb098f597a0cab28117fc3465991a63c"
      },
      {
        "passId": "979",
        "signer": "0xcbd2f544073eb35b59a8eb19194a222a5361cd74"
      },
      {
        "passId": "980",
        "signer": "0xcda685c8444f659ac3fe778f8d143aabdf1a21ab"
      },
      {
        "passId": "981",
        "signer": "0xcea78aaa93e917fb5e1802901db2b20aa4411b44"
      },
      {
        "passId": "982",
        "signer": "0xcef871b113d2bb5d3fa5dc96d2d288dd38082aae"
      },
      {
        "passId": "983",
        "signer": "0xcf680fb77c12e2aa2dec82f3ae0c0e527f549fe2"
      },
      {
        "passId": "984",
        "signer": "0xd1eddfcc4596cc8bd0bd7495beab9b979fc50336"
      },
      {
        "passId": "985",
        "signer": "0xd3e64b9dea13e4840a0da20965bd0ca37d05a12a"
      },
      {
        "passId": "986",
        "signer": "0xd651e2c626ee210fc38676124d5007ac822ad749"
      },
      {
        "passId": "987",
        "signer": "0xd657860fc512ec2250a7385a353f599e3276fddb"
      },
      {
        "passId": "988",
        "signer": "0xd6e02c13a6cc133c9d019495414667ea7bee05cc"
      },
      {
        "passId": "989",
        "signer": "0xdc190d7cea8e8bf0b381617062200c10cfff0a91"
      },
      {
        "passId": "990",
        "signer": "0xdd6c81d6d587e2d49eaadffb4ce380564046002a"
      },
      {
        "passId": "991",
        "signer": "0xddb92a96054132801cae3943b2f966fc2c308ac8"
      },
      {
        "passId": "992",
        "signer": "0xdde3ca351d85a4b4cc6aff8d42c0840959859053"
      },
      {
        "passId": "993",
        "signer": "0xe00a3ab72b29eb4ac2695221f62cdf872cb5d483"
      },
      {
        "passId": "994",
        "signer": "0xe120ed22a0cd12d5de6122aa7d5b6d93ac218b49"
      },
      {
        "passId": "995",
        "signer": "0xe20adb03a470b5573bf572dd918e052d0d17866e"
      },
      {
        "passId": "996",
        "signer": "0xe363c2fba75cbd27487b17430e1efbdd2add374e"
      },
      {
        "passId": "997",
        "signer": "0xe5a3d77d7788a83f3549dd7f08fc2aced7e262d2"
      },
      {
        "passId": "998",
        "signer": "0xe66e1e9e37e4e148b21eb22001431818e980d060"
      },
      {
        "passId": "999",
        "signer": "0xe7bd51dc30d4bdc9fddd42ea7c0a283590c9d416"
      },
      {
        "passId": "1000",
        "signer": "0xeb42cd8a1fe1ff556960a9a03ca29aa13f8aa838"
      },
      {
        "passId": "1001",
        "signer": "0xed0f30677c760ea8f0bff70c76eafc79d5f7c3c8"
      },
      {
        "passId": "1002",
        "signer": "0xeddd55a234240042695d7430bf0a09b9038a26ad"
      },
      {
        "passId": "1003",
        "signer": "0xee4d308cc1cde3dd0adcb5a2c85edff22db64918"
      },
      {
        "passId": "1004",
        "signer": "0xee9439a12a7c2a9b6600ca8a498620580d2f116e"
      },
      {
        "passId": "1005",
        "signer": "0xeeaf61935c0c48f8f8cc28c381683d7fa2f75e1c"
      },
      {
        "passId": "1006",
        "signer": "0xef1271ae97bc1a1b356ab697e9ed0d1d4e05fcda"
      },
      {
        "passId": "1007",
        "signer": "0xf19bc58f747d6ea11959bf2a0fa81e53285546ac"
      },
      {
        "passId": "1008",
        "signer": "0xf1e1c701b49b1dc2405a9e8ef40f9f88802b80fa"
      },
      {
        "passId": "1009",
        "signer": "0xf2b15320db6992ba49a7563e50e888c20edcbe3c"
      },
      {
        "passId": "1010",
        "signer": "0xf341c3abb49feb96b4822e68227b54c6fb9f6318"
      },
      {
        "passId": "1011",
        "signer": "0xf3493f6812b1f22b40f8539db2510e13ac251f96"
      },
      {
        "passId": "1012",
        "signer": "0xf3b1b6e83be4d55695f1d30ac3d307d9d5ca98ff"
      },
      {
        "passId": "1013",
        "signer": "0xf464d1a37d8ef9449722f44a4eeb715c0e0acdb3"
      },
      {
        "passId": "1014",
        "signer": "0xf6910d47fbb1f5518d60c721d4189936ecd5a1b6"
      },
      {
        "passId": "1015",
        "signer": "0xf73c935815908ad9a056fc50269f95d8ba032e9d"
      },
      {
        "passId": "1016",
        "signer": "0xf78cd306b23031de9e739a5bcde61764e82ad5ef"
      },
      {
        "passId": "1017",
        "signer": "0xf942040710bedf7220beb24b220631c2255e87f1"
      },
      {
        "passId": "1018",
        "signer": "0xf943e1d2db38db468f66a79b08ec23f8c4375ce3"
      },
      {
        "passId": "1019",
        "signer": "0xfa46dedf812c5803b1e2cea10eef3f27dafeca56"
      },
      {
        "passId": "1020",
        "signer": "0xfa9f104f338846b38b083c9e567ff6bbe43ab5f7"
      },
      {
        "passId": "1021",
        "signer": "0xfd12799b9fb97dc61d9ad7ad4ffba5624004bc62"
      },
      {
        "passId": "1022",
        "signer": "0xfe1e7dc61721f34a25c9eb4dc1a1a8f352c923ef"
      },
      {
        "passId": "1023",
        "signer": "0xfffff6e70842330948ca47254f2be673b1cb0db7"
      }
    ],
    "startTime": 1638352108,
    "publicSaleTimestamp": 1638352108,
    "percentageForCreator": 2500,
    "price": "100000000000000000"
  },
  "solcInputHash": "fe2d698dc766749c774f141be3fe643d",
  "bytecode": "0x6101a06040523480156200001257600080fd5b506040516200210138038062002101833981016040819052620000359162000091565b6001600160a01b03998a1660805292891660a05260c09190915290961660e05261010094909452610120929092526101405261016052610180526000556200012c565b6001600160a01b03811681146200008e57600080fd5b50565b6000806000806000806000806000806101408b8d031215620000b257600080fd5b8a51620000bf8162000078565b809a505060208b0151985060408b0151975060608b0151965060808b0151955060a08b0151945060c08b0151620000f68162000078565b60e08c01516101008d01519195509350620001118162000078565b809250506101208b015190509295989b9194979a5092959850565b60805160a05160c05160e0516101005161012051610140516101605161018051611edf62000222600039600081816101bd01528181610c050152610e2e015260008181610197015281816102dc015281816104110152818161051f01528181610be2015261103701526000818161016f01528181610bbf015261105f01526000818161014901528181610b9c0152610e5501526000818161012601528181610b7901526110850152600061159e0152600081816114ac01526114da0152600081816105cd015281816107fd015261152601526000818161078501528181610a0d01528181610aaa01526111a90152611edf6000f3fe6080604052600436106100b15760003560e01c80639c20551311610069578063d93459b61161004e578063d93459b61461023c578063e957a3811461025c578063f19b57c21461027c57600080fd5b80639c20551314610209578063ca9dca041461021c57600080fd5b80637361a72e1161009a5780637361a72e1461010057806381059f7814610113578063990b0f60146101e957600080fd5b80632228adcc146100b65780632558e933146100eb575b600080fd5b3480156100c257600080fd5b506100d66100d1366004611747565b6102b0565b60405190151581526020015b60405180910390f35b6100fe6100f93660046118a6565b6102da565b005b6100fe61010e3660046119a8565b61040f565b34801561011f57600080fd5b50604080517f000000000000000000000000000000000000000000000000000000000000000081527f000000000000000000000000000000000000000000000000000000000000000060208201527f0000000000000000000000000000000000000000000000000000000000000000918101919091527f000000000000000000000000000000000000000000000000000000000000000060608201527f0000000000000000000000000000000000000000000000000000000000000000608082015260a0016100e2565b3480156101f557600080fd5b506100d6610204366004611747565b6104d2565b6100fe610217366004611a12565b61051d565b34801561022857600080fd5b506100fe610237366004611a12565b6105b5565b34801561024857600080fd5b506100fe610257366004611a8e565b6107e5565b34801561026857600080fd5b506100d6610277366004611747565b610a7d565b34801561028857600080fd5b5061029c610297366004611ae5565b610a9b565b6040516100e2989796959493929190611b31565b6000806102c26010600685901c611bf7565b905080600714806102d35750806008145b9392505050565b7f00000000000000000000000000000000000000000000000000000000000000004210156103fe5761030b83610c43565b600061037683858760405160200161035292919091825260601b7fffffffffffffffffffffffffffffffffffffffff00000000000000000000000016602082015260340190565b60405160208183030381529060405280519060200120610d0190919063ffffffff16565b905060006103848583610d25565b90506103908382610d86565b6103fb576040517f08c379a000000000000000000000000000000000000000000000000000000000815260206004820152600d60248201527f494e56414c49445f50524f4f460000000000000000000000000000000000000060448201526064015b60405180910390fd5b50505b6104088585610e53565b5050505050565b7f00000000000000000000000000000000000000000000000000000000000000004210156104c25761044082610c43565b33600061044d8483610d25565b90506104598382610d86565b6104bf576040517f08c379a000000000000000000000000000000000000000000000000000000000815260206004820152600d60248201527f494e56414c49445f50524f4f460000000000000000000000000000000000000060448201526064016103f2565b50505b6104cc8484610e53565b50505050565b6000806104e161010084611c3a565b905060006104f182610100611c4e565b6104fb9085611c8b565b60009283526001602081905260409093205492901b9182169091149392505050565b7f00000000000000000000000000000000000000000000000000000000000000004210156105a7576040517f08c379a000000000000000000000000000000000000000000000000000000000815260206004820152601460248201527f524551554952455f504153535f4f525f5741495400000000000000000000000060448201526064016103f2565b6105b18282610e53565b5050565b3373ffffffffffffffffffffffffffffffffffffffff7f00000000000000000000000000000000000000000000000000000000000000001614610654576040517f08c379a000000000000000000000000000000000000000000000000000000000815260206004820152600e60248201527f4e4f545f415554484f52495a454400000000000000000000000000000000000060448201526064016103f2565b6102408261ffff16106106c3576040517f08c379a000000000000000000000000000000000000000000000000000000000815260206004820152600d60248201527f494e56414c49445f534f554e440000000000000000000000000000000000000060448201526064016103f2565b6106d08261ffff166102b0565b610736576040517f08c379a000000000000000000000000000000000000000000000000000000000815260206004820152600c60248201527f4e4f545f5245534552564544000000000000000000000000000000000000000060448201526064016103f2565b6040517f9c20551300000000000000000000000000000000000000000000000000000000815261ffff8316600482015273ffffffffffffffffffffffffffffffffffffffff82811660248301527f00000000000000000000000000000000000000000000000000000000000000001690639c20551390604401600060405180830381600087803b1580156107c957600080fd5b505af11580156107dd573d6000803e3d6000fd5b505050505050565b3373ffffffffffffffffffffffffffffffffffffffff7f00000000000000000000000000000000000000000000000000000000000000001614610884576040517f08c379a000000000000000000000000000000000000000000000000000000000815260206004820152600e60248201527f4e4f545f415554484f52495a454400000000000000000000000000000000000060448201526064016103f2565b60005b828110156109cf576102408484838181106108a4576108a4611ca2565b90506020020160208101906108b99190611cd1565b61ffff1610610924576040517f08c379a000000000000000000000000000000000000000000000000000000000815260206004820152600d60248201527f494e56414c49445f534f554e440000000000000000000000000000000000000060448201526064016103f2565b61095784848381811061093957610939611ca2565b905060200201602081019061094e9190611cd1565b61ffff166102b0565b6109bd576040517f08c379a000000000000000000000000000000000000000000000000000000000815260206004820152600c60248201527f4e4f545f5245534552564544000000000000000000000000000000000000000060448201526064016103f2565b806109c781611cec565b915050610887565b506040517fe2ea128800000000000000000000000000000000000000000000000000000000815273ffffffffffffffffffffffffffffffffffffffff7f0000000000000000000000000000000000000000000000000000000000000000169063e2ea128890610a4690869086908690600401611d25565b600060405180830381600087803b158015610a6057600080fd5b505af1158015610a74573d6000803e3d6000fd5b50505050505050565b600080610a8f6010600685901c611bf7565b60005410159392505050565b606060008060008060008060007f000000000000000000000000000000000000000000000000000000000000000073ffffffffffffffffffffffffffffffffffffffff1663a0554c268b8b6040518363ffffffff1660e01b8152600401610b03929190611d8b565b60006040518083038186803b158015610b1b57600080fd5b505afa158015610b2f573d6000803e3d6000fd5b505050506040513d6000823e601f3d9081017fffffffffffffffffffffffffffffffffffffffffffffffffffffffffffffffe0168201604052610b759190810190611de0565b97507f000000000000000000000000000000000000000000000000000000000000000096507f000000000000000000000000000000000000000000000000000000000000000095507f000000000000000000000000000000000000000000000000000000000000000094507f000000000000000000000000000000000000000000000000000000000000000093507f00000000000000000000000000000000000000000000000000000000000000009250610c2f8b6104d2565b915060005490509397509397509397509397565b6000610c5161010083611c3a565b90506000610c6182610100611c4e565b610c6b9084611c8b565b600083815260016020819052604090912054911b915080821615610ceb576040517f08c379a000000000000000000000000000000000000000000000000000000000815260206004820152601160248201527f504153535f414c52454144595f5553454400000000000000000000000000000060448201526064016103f2565b6000928352600160205260409092209117905550565b6000806000610d1085856111d8565b91509150610d1d81611248565b509392505050565b60008282604051602001610d6892919091825260601b7fffffffffffffffffffffffffffffffffffffffff00000000000000000000000016602082015260340190565b60405160208183030381529060405280519060200120905092915050565b6000805b8351811015610e2a576000848281518110610da757610da7611ca2565b6020026020010151905080841015610dea576040805160208101869052908101829052606001604051602081830303815290604052805190602001209350610e17565b60408051602081018390529081018590526060016040516020818303038152906040528051906020012093505b5080610e2281611cec565b915050610d8a565b50507f000000000000000000000000000000000000000000000000000000000000000014919050565b7f0000000000000000000000000000000000000000000000000000000000000000421015610edd576040517f08c379a000000000000000000000000000000000000000000000000000000000815260206004820152601060248201527f53414c455f4e4f545f535441525445440000000000000000000000000000000060448201526064016103f2565b6102408261ffff1610610f4c576040517f08c379a000000000000000000000000000000000000000000000000000000000815260206004820152600d60248201527f494e56414c49445f534f554e440000000000000000000000000000000000000060448201526064016103f2565b610f598261ffff16610a7d565b610fbf576040517f08c379a000000000000000000000000000000000000000000000000000000000815260206004820152601b60248201527f494e535455524d454e545f4e4f545f5945545f464f525f53414c45000000000060448201526064016103f2565b610fcc8261ffff166102b0565b15611033576040517f08c379a000000000000000000000000000000000000000000000000000000000815260206004820152600860248201527f524553455256454400000000000000000000000000000000000000000000000060448201526064016103f2565b60007f0000000000000000000000000000000000000000000000000000000000000000421015611083577f00000000000000000000000000000000000000000000000000000000000000006110a5565b7f00000000000000000000000000000000000000000000000000000000000000005b905080341015611111576040517f08c379a000000000000000000000000000000000000000000000000000000000815260206004820152600a60248201527f4e4f545f454e4f5547480000000000000000000000000000000000000000000060448201526064016103f2565b8034111561115157336108fc6111278334611c8b565b6040518115909202916000818181858888f1935050505015801561114f573d6000803e3d6000fd5b505b61115a816114a4565b6040517f9c20551300000000000000000000000000000000000000000000000000000000815261ffff8416600482015273ffffffffffffffffffffffffffffffffffffffff83811660248301527f00000000000000000000000000000000000000000000000000000000000000001690639c20551390604401610a46565b60008082516041141561120f5760208301516040840151606085015160001a611203878285856115e7565b94509450505050611241565b825160401415611239576020830151604084015161122e8683836116ff565b935093505050611241565b506000905060025b9250929050565b600081600481111561125c5761125c611e7a565b14156112655750565b600181600481111561127957611279611e7a565b14156112e1576040517f08c379a000000000000000000000000000000000000000000000000000000000815260206004820152601860248201527f45434453413a20696e76616c6964207369676e6174757265000000000000000060448201526064016103f2565b60028160048111156112f5576112f5611e7a565b141561135d576040517f08c379a000000000000000000000000000000000000000000000000000000000815260206004820152601f60248201527f45434453413a20696e76616c6964207369676e6174757265206c656e6774680060448201526064016103f2565b600381600481111561137157611371611e7a565b14156113ff576040517f08c379a000000000000000000000000000000000000000000000000000000000815260206004820152602260248201527f45434453413a20696e76616c6964207369676e6174757265202773272076616c60448201527f756500000000000000000000000000000000000000000000000000000000000060648201526084016103f2565b600481600481111561141357611413611e7a565b14156114a1576040517f08c379a000000000000000000000000000000000000000000000000000000000815260206004820152602260248201527f45434453413a20696e76616c6964207369676e6174757265202776272076616c60448201527f756500000000000000000000000000000000000000000000000000000000000060648201526084016103f2565b50565b80156114a1577f00000000000000000000000000000000000000000000000000000000000000001561157e5760006127106114ff7f000000000000000000000000000000000000000000000000000000000000000084611c4e565b6115099190611c3a565b60405190915073ffffffffffffffffffffffffffffffffffffffff7f0000000000000000000000000000000000000000000000000000000000000000169082156108fc029083906000818181858888f1935050505015801561156f573d6000803e3d6000fd5b5061157a8183611c8b565b9150505b80156114a15760405173ffffffffffffffffffffffffffffffffffffffff7f0000000000000000000000000000000000000000000000000000000000000000169082156108fc029083906000818181858888f193505050501580156105b1573d6000803e3d6000fd5b6000807f7fffffffffffffffffffffffffffffff5d576e7357a4501ddfe92f46681b20a083111561161e57506000905060036116f6565b8460ff16601b1415801561163657508460ff16601c14155b1561164757506000905060046116f6565b6040805160008082526020820180845289905260ff881692820192909252606081018690526080810185905260019060a0016020604051602081039080840390855afa15801561169b573d6000803e3d6000fd5b50506040517fffffffffffffffffffffffffffffffffffffffffffffffffffffffffffffffe0015191505073ffffffffffffffffffffffffffffffffffffffff81166116ef576000600192509250506116f6565b9150600090505b94509492505050565b6000807f7fffffffffffffffffffffffffffffffffffffffffffffffffffffffffffffff831660ff84901c601b01611739878288856115e7565b935093505050935093915050565b60006020828403121561175957600080fd5b5035919050565b803561ffff8116811461177257600080fd5b919050565b73ffffffffffffffffffffffffffffffffffffffff811681146114a157600080fd5b7f4e487b7100000000000000000000000000000000000000000000000000000000600052604160045260246000fd5b604051601f82017fffffffffffffffffffffffffffffffffffffffffffffffffffffffffffffffe016810167ffffffffffffffff8111828210171561180f5761180f611799565b604052919050565b600067ffffffffffffffff82111561183157611831611799565b5060051b60200190565b600082601f83011261184c57600080fd5b8135602061186161185c83611817565b6117c8565b82815260059290921b8401810191818101908684111561188057600080fd5b8286015b8481101561189b5780358352918301918301611884565b509695505050505050565b600080600080600060a086880312156118be57600080fd5b6118c786611760565b94506020808701356118d881611777565b945060408701359350606087013567ffffffffffffffff808211156118fc57600080fd5b818901915089601f83011261191057600080fd5b81358181111561192257611922611799565b611952847fffffffffffffffffffffffffffffffffffffffffffffffffffffffffffffffe0601f840116016117c8565b8181528b8583860101111561196657600080fd5b81858501868301376000918101909401529193506080880135918083111561198d57600080fd5b505061199b8882890161183b565b9150509295509295909350565b600080600080608085870312156119be57600080fd5b6119c785611760565b935060208501356119d781611777565b925060408501359150606085013567ffffffffffffffff8111156119fa57600080fd5b611a068782880161183b565b91505092959194509250565b60008060408385031215611a2557600080fd5b611a2e83611760565b91506020830135611a3e81611777565b809150509250929050565b60008083601f840112611a5b57600080fd5b50813567ffffffffffffffff811115611a7357600080fd5b6020830191508360208260051b850101111561124157600080fd5b600080600060408486031215611aa357600080fd5b833567ffffffffffffffff811115611aba57600080fd5b611ac686828701611a49565b9094509250506020840135611ada81611777565b809150509250925092565b600080600060408486031215611afa57600080fd5b83359250602084013567ffffffffffffffff811115611b1857600080fd5b611b2486828701611a49565b9497909650939450505050565b6101008082528951908201819052600090610120830190602090818d01845b82811015611b8257815173ffffffffffffffffffffffffffffffffffffffff1685529383019390830190600101611b50565b5050508192508a8185015250508760408301528660608301528560808301528460a0830152611bb560c083018515159052565b8260e08301529998505050505050505050565b7f4e487b7100000000000000000000000000000000000000000000000000000000600052601260045260246000fd5b600082611c0657611c06611bc8565b500690565b7f4e487b7100000000000000000000000000000000000000000000000000000000600052601160045260246000fd5b600082611c4957611c49611bc8565b500490565b6000817fffffffffffffffffffffffffffffffffffffffffffffffffffffffffffffffff0483118215151615611c8657611c86611c0b565b500290565b600082821015611c9d57611c9d611c0b565b500390565b7f4e487b7100000000000000000000000000000000000000000000000000000000600052603260045260246000fd5b600060208284031215611ce357600080fd5b6102d382611760565b60007fffffffffffffffffffffffffffffffffffffffffffffffffffffffffffffffff821415611d1e57611d1e611c0b565b5060010190565b6040808252810183905260008460608301825b86811015611d615761ffff611d4c84611760565b16825260209283019290910190600101611d38565b50809250505073ffffffffffffffffffffffffffffffffffffffff83166020830152949350505050565b6020815281602082015260007f07ffffffffffffffffffffffffffffffffffffffffffffffffffffffffffffff831115611dc457600080fd5b8260051b80856040850137600092016040019182525092915050565b60006020808385031215611df357600080fd5b825167ffffffffffffffff811115611e0a57600080fd5b8301601f81018513611e1b57600080fd5b8051611e2961185c82611817565b81815260059190911b82018301908381019087831115611e4857600080fd5b928401925b82841015611e6f578351611e6081611777565b82529284019290840190611e4d565b979650505050505050565b7f4e487b7100000000000000000000000000000000000000000000000000000000600052602160045260246000fdfea2646970667358221220e378235ed66e6e75e6fa87153cdeaddb3c6049d070bd1ac4da44e7058205335f64736f6c63430008090033",
  "devdoc": {
    "kind": "dev",
    "methods": {},
    "version": 1
  },
  "userdoc": {
    "kind": "user",
    "methods": {},
    "version": 1
  },
  "storageLayout": {
    "storage": [
      {
        "astId": 10767,
        "contract": "src/bleeps/BleepsFixedPriceSale.sol:BleepsFixedPriceSale",
        "label": "_uptoInstr",
        "offset": 0,
        "slot": "0",
        "type": "t_uint256"
      },
      {
        "astId": 10771,
        "contract": "src/bleeps/BleepsFixedPriceSale.sol:BleepsFixedPriceSale",
        "label": "_passUsed",
        "offset": 0,
        "slot": "1",
        "type": "t_mapping(t_uint256,t_uint256)"
      }
    ],
    "types": {
      "t_mapping(t_uint256,t_uint256)": {
        "encoding": "mapping",
        "key": "t_uint256",
        "label": "mapping(uint256 => uint256)",
        "numberOfBytes": "32",
        "value": "t_uint256"
      },
      "t_uint256": {
        "encoding": "inplace",
        "label": "uint256",
        "numberOfBytes": "32"
      }
    }
  }
}