{
  "address": "0x665aE3eE440c5915450D23BBcc43A9f4C9596376",
  "abi": [
    {
      "inputs": [
        {
          "internalType": "address",
          "name": "ens",
          "type": "address"
        },
        {
          "internalType": "address",
          "name": "initialOwner",
          "type": "address"
        },
        {
          "internalType": "address",
          "name": "initialTokenURIAdmin",
          "type": "address"
        },
        {
          "internalType": "address",
          "name": "initialMinterAdmin",
          "type": "address"
        },
        {
          "internalType": "address",
          "name": "initialRoyaltyAdmin",
          "type": "address"
        },
        {
          "internalType": "address",
          "name": "initialGuardian",
          "type": "address"
        },
        {
          "internalType": "address",
          "name": "openseaProxyRegistry",
          "type": "address"
        },
        {
          "internalType": "address",
          "name": "initialRoyaltyReceiver",
          "type": "address"
        },
        {
          "internalType": "uint96",
          "name": "imitialRoyaltyPer10Thousands",
          "type": "uint96"
        },
        {
          "internalType": "contract ITokenURI",
          "name": "initialTokenURIContract",
          "type": "address"
        },
        {
          "internalType": "address",
          "name": "initialCheckpointingDisabler",
          "type": "address"
        }
      ],
      "stateMutability": "nonpayable",
      "type": "constructor"
    },
    {
      "anonymous": false,
      "inputs": [
        {
          "indexed": true,
          "internalType": "address",
          "name": "owner",
          "type": "address"
        },
        {
          "indexed": true,
          "internalType": "address",
          "name": "approved",
          "type": "address"
        },
        {
          "indexed": true,
          "internalType": "uint256",
          "name": "tokenId",
          "type": "uint256"
        }
      ],
      "name": "Approval",
      "type": "event"
    },
    {
      "anonymous": false,
      "inputs": [
        {
          "indexed": true,
          "internalType": "address",
          "name": "owner",
          "type": "address"
        },
        {
          "indexed": true,
          "internalType": "address",
          "name": "operator",
          "type": "address"
        },
        {
          "indexed": false,
          "internalType": "bool",
          "name": "approved",
          "type": "bool"
        }
      ],
      "name": "ApprovalForAll",
      "type": "event"
    },
    {
      "anonymous": false,
      "inputs": [],
      "name": "CheckpointingDisabled",
      "type": "event"
    },
    {
      "anonymous": false,
      "inputs": [
        {
          "indexed": false,
          "internalType": "address",
          "name": "newCheckpointingDisabler",
          "type": "address"
        }
      ],
      "name": "CheckpointingDisablerSet",
      "type": "event"
    },
    {
      "anonymous": false,
      "inputs": [
        {
          "indexed": true,
          "internalType": "address",
          "name": "delegator",
          "type": "address"
        },
        {
          "indexed": true,
          "internalType": "address",
          "name": "fromDelegate",
          "type": "address"
        },
        {
          "indexed": true,
          "internalType": "address",
          "name": "toDelegate",
          "type": "address"
        }
      ],
      "name": "DelegateChanged",
      "type": "event"
    },
    {
      "anonymous": false,
      "inputs": [
        {
          "indexed": true,
          "internalType": "address",
          "name": "delegate",
          "type": "address"
        },
        {
          "indexed": false,
          "internalType": "uint256",
          "name": "previousBalance",
          "type": "uint256"
        },
        {
          "indexed": false,
          "internalType": "uint256",
          "name": "newBalance",
          "type": "uint256"
        }
      ],
      "name": "DelegateVotesChanged",
      "type": "event"
    },
    {
      "anonymous": false,
      "inputs": [
        {
          "indexed": false,
          "internalType": "address",
          "name": "newGuardian",
          "type": "address"
        }
      ],
      "name": "GuardianSet",
      "type": "event"
    },
    {
      "anonymous": false,
      "inputs": [
        {
          "indexed": false,
          "internalType": "address",
          "name": "newMinterAdmin",
          "type": "address"
        }
      ],
      "name": "MinterAdminSet",
      "type": "event"
    },
    {
      "anonymous": false,
      "inputs": [
        {
          "indexed": false,
          "internalType": "address",
          "name": "newMinter",
          "type": "address"
        }
      ],
      "name": "MinterSet",
      "type": "event"
    },
    {
      "anonymous": false,
      "inputs": [
        {
          "indexed": true,
          "internalType": "address",
          "name": "previousOwner",
          "type": "address"
        },
        {
          "indexed": true,
          "internalType": "address",
          "name": "newOwner",
          "type": "address"
        }
      ],
      "name": "OwnershipTransferred",
      "type": "event"
    },
    {
      "anonymous": false,
      "inputs": [
        {
          "indexed": false,
          "internalType": "address",
          "name": "newRoyaltyAdmin",
          "type": "address"
        }
      ],
      "name": "RoyaltyAdminSet",
      "type": "event"
    },
    {
      "anonymous": false,
      "inputs": [
        {
          "indexed": false,
          "internalType": "address",
          "name": "receiver",
          "type": "address"
        },
        {
          "indexed": false,
          "internalType": "uint256",
          "name": "royaltyPer10Thousands",
          "type": "uint256"
        }
      ],
      "name": "RoyaltySet",
      "type": "event"
    },
    {
      "anonymous": false,
      "inputs": [
        {
          "indexed": false,
          "internalType": "address",
          "name": "newTokenURIAdmin",
          "type": "address"
        }
      ],
      "name": "TokenURIAdminSet",
      "type": "event"
    },
    {
      "anonymous": false,
      "inputs": [
        {
          "indexed": false,
          "internalType": "contract ITokenURI",
          "name": "newTokenURIContract",
          "type": "address"
        }
      ],
      "name": "TokenURIContractSet",
      "type": "event"
    },
    {
      "anonymous": false,
      "inputs": [
        {
          "indexed": true,
          "internalType": "address",
          "name": "from",
          "type": "address"
        },
        {
          "indexed": true,
          "internalType": "address",
          "name": "to",
          "type": "address"
        },
        {
          "indexed": true,
          "internalType": "uint256",
          "name": "tokenId",
          "type": "uint256"
        }
      ],
      "name": "Transfer",
      "type": "event"
    },
    {
      "inputs": [],
      "name": "DELEGATION_TYPEHASH",
      "outputs": [
        {
          "internalType": "bytes32",
          "name": "",
          "type": "bytes32"
        }
      ],
      "stateMutability": "view",
      "type": "function"
    },
    {
      "inputs": [],
      "name": "DOMAIN_SEPARATOR",
      "outputs": [
        {
          "internalType": "bytes32",
          "name": "",
          "type": "bytes32"
        }
      ],
      "stateMutability": "view",
      "type": "function"
    },
    {
      "inputs": [],
      "name": "DOMAIN_TYPEHASH",
      "outputs": [
        {
          "internalType": "bytes32",
          "name": "",
          "type": "bytes32"
        }
      ],
      "stateMutability": "view",
      "type": "function"
    },
    {
      "inputs": [],
      "name": "PERMIT_FOR_ALL_TYPEHASH",
      "outputs": [
        {
          "internalType": "bytes32",
          "name": "",
          "type": "bytes32"
        }
      ],
      "stateMutability": "view",
      "type": "function"
    },
    {
      "inputs": [],
      "name": "PERMIT_TYPEHASH",
      "outputs": [
        {
          "internalType": "bytes32",
          "name": "",
          "type": "bytes32"
        }
      ],
      "stateMutability": "view",
      "type": "function"
    },
    {
      "inputs": [
        {
          "internalType": "address",
          "name": "operator",
          "type": "address"
        },
        {
          "internalType": "uint256",
          "name": "id",
          "type": "uint256"
        }
      ],
      "name": "approve",
      "outputs": [],
      "stateMutability": "nonpayable",
      "type": "function"
    },
    {
      "inputs": [
        {
          "internalType": "address",
          "name": "owner",
          "type": "address"
        }
      ],
      "name": "balanceOf",
      "outputs": [
        {
          "internalType": "uint256",
          "name": "balance",
          "type": "uint256"
        }
      ],
      "stateMutability": "view",
      "type": "function"
    },
    {
      "inputs": [],
      "name": "checkpointingDisabler",
      "outputs": [
        {
          "internalType": "address",
          "name": "",
          "type": "address"
        }
      ],
      "stateMutability": "view",
      "type": "function"
    },
    {
      "inputs": [
        {
          "internalType": "address",
          "name": "",
          "type": "address"
        },
        {
          "internalType": "uint32",
          "name": "",
          "type": "uint32"
        }
      ],
      "name": "checkpoints",
      "outputs": [
        {
          "internalType": "uint32",
          "name": "fromBlock",
          "type": "uint32"
        },
        {
          "internalType": "uint96",
          "name": "votes",
          "type": "uint96"
        }
      ],
      "stateMutability": "view",
      "type": "function"
    },
    {
      "inputs": [],
      "name": "contractURI",
      "outputs": [
        {
          "internalType": "string",
          "name": "",
          "type": "string"
        }
      ],
      "stateMutability": "view",
      "type": "function"
    },
    {
      "inputs": [],
      "name": "decimals",
      "outputs": [
        {
          "internalType": "uint8",
          "name": "",
          "type": "uint8"
        }
      ],
      "stateMutability": "view",
      "type": "function"
    },
    {
      "inputs": [
        {
          "internalType": "address",
          "name": "delegatee",
          "type": "address"
        }
      ],
      "name": "delegate",
      "outputs": [],
      "stateMutability": "nonpayable",
      "type": "function"
    },
    {
      "inputs": [
        {
          "internalType": "address",
          "name": "delegatee",
          "type": "address"
        },
        {
          "internalType": "uint256",
          "name": "nonce",
          "type": "uint256"
        },
        {
          "internalType": "uint256",
          "name": "expiry",
          "type": "uint256"
        },
        {
          "internalType": "uint8",
          "name": "v",
          "type": "uint8"
        },
        {
          "internalType": "bytes32",
          "name": "r",
          "type": "bytes32"
        },
        {
          "internalType": "bytes32",
          "name": "s",
          "type": "bytes32"
        }
      ],
      "name": "delegateBySig",
      "outputs": [],
      "stateMutability": "nonpayable",
      "type": "function"
    },
    {
      "inputs": [
        {
          "internalType": "address",
          "name": "delegator",
          "type": "address"
        }
      ],
      "name": "delegates",
      "outputs": [
        {
          "internalType": "address",
          "name": "",
          "type": "address"
        }
      ],
      "stateMutability": "view",
      "type": "function"
    },
    {
      "inputs": [],
      "name": "disableTheUseOfCheckpoints",
      "outputs": [],
      "stateMutability": "nonpayable",
      "type": "function"
    },
    {
      "inputs": [
        {
          "internalType": "uint256",
          "name": "id",
          "type": "uint256"
        }
      ],
      "name": "getApproved",
      "outputs": [
        {
          "internalType": "address",
          "name": "",
          "type": "address"
        }
      ],
      "stateMutability": "view",
      "type": "function"
    },
    {
      "inputs": [
        {
          "internalType": "address",
          "name": "account",
          "type": "address"
        }
      ],
      "name": "getCurrentVotes",
      "outputs": [
        {
          "internalType": "uint96",
          "name": "",
          "type": "uint96"
        }
      ],
      "stateMutability": "view",
      "type": "function"
    },
    {
      "inputs": [
        {
          "internalType": "address",
          "name": "account",
          "type": "address"
        },
        {
          "internalType": "uint256",
          "name": "blockNumber",
          "type": "uint256"
        }
      ],
      "name": "getPastVotes",
      "outputs": [
        {
          "internalType": "uint96",
          "name": "",
          "type": "uint96"
        }
      ],
      "stateMutability": "view",
      "type": "function"
    },
    {
      "inputs": [
        {
          "internalType": "address",
          "name": "account",
          "type": "address"
        },
        {
          "internalType": "uint256",
          "name": "blockNumber",
          "type": "uint256"
        }
      ],
      "name": "getPriorVotes",
      "outputs": [
        {
          "internalType": "uint96",
          "name": "",
          "type": "uint96"
        }
      ],
      "stateMutability": "view",
      "type": "function"
    },
    {
      "inputs": [
        {
          "internalType": "address",
          "name": "account",
          "type": "address"
        }
      ],
      "name": "getVotes",
      "outputs": [
        {
          "internalType": "uint96",
          "name": "",
          "type": "uint96"
        }
      ],
      "stateMutability": "view",
      "type": "function"
    },
    {
      "inputs": [],
      "name": "guardian",
      "outputs": [
        {
          "internalType": "address",
          "name": "",
          "type": "address"
        }
      ],
      "stateMutability": "view",
      "type": "function"
    },
    {
      "inputs": [
        {
          "internalType": "address",
          "name": "owner",
          "type": "address"
        },
        {
          "internalType": "address",
          "name": "operator",
          "type": "address"
        }
      ],
      "name": "isApprovedForAll",
      "outputs": [
        {
          "internalType": "bool",
          "name": "isOperator",
          "type": "bool"
        }
      ],
      "stateMutability": "view",
      "type": "function"
    },
    {
      "inputs": [
        {
          "internalType": "uint16",
          "name": "id",
          "type": "uint16"
        },
        {
          "internalType": "address",
          "name": "to",
          "type": "address"
        }
      ],
      "name": "mint",
      "outputs": [],
      "stateMutability": "nonpayable",
      "type": "function"
    },
    {
      "inputs": [],
      "name": "minter",
      "outputs": [
        {
          "internalType": "address",
          "name": "",
          "type": "address"
        }
      ],
      "stateMutability": "view",
      "type": "function"
    },
    {
      "inputs": [],
      "name": "minterAdmin",
      "outputs": [
        {
          "internalType": "address",
          "name": "",
          "type": "address"
        }
      ],
      "stateMutability": "view",
      "type": "function"
    },
    {
      "inputs": [
        {
          "internalType": "uint16[]",
          "name": "ids",
          "type": "uint16[]"
        },
        {
          "internalType": "address[]",
          "name": "tos",
          "type": "address[]"
        }
      ],
      "name": "multiMint",
      "outputs": [],
      "stateMutability": "nonpayable",
      "type": "function"
    },
    {
      "inputs": [
        {
          "internalType": "bytes[]",
          "name": "data",
          "type": "bytes[]"
        }
      ],
      "name": "multicall",
      "outputs": [
        {
          "internalType": "bytes[]",
          "name": "results",
          "type": "bytes[]"
        }
      ],
      "stateMutability": "payable",
      "type": "function"
    },
    {
      "inputs": [],
      "name": "name",
      "outputs": [
        {
          "internalType": "string",
          "name": "",
          "type": "string"
        }
      ],
      "stateMutability": "pure",
      "type": "function"
    },
    {
      "inputs": [
        {
          "internalType": "uint256",
          "name": "id",
          "type": "uint256"
        }
      ],
      "name": "nonces",
      "outputs": [
        {
          "internalType": "uint256",
          "name": "nonce",
          "type": "uint256"
        }
      ],
      "stateMutability": "view",
      "type": "function"
    },
    {
      "inputs": [
        {
          "internalType": "address",
          "name": "account",
          "type": "address"
        }
      ],
      "name": "nonces",
      "outputs": [
        {
          "internalType": "uint256",
          "name": "nonce",
          "type": "uint256"
        }
      ],
      "stateMutability": "view",
      "type": "function"
    },
    {
      "inputs": [
        {
          "internalType": "address",
          "name": "",
          "type": "address"
        }
      ],
      "name": "numCheckpoints",
      "outputs": [
        {
          "internalType": "uint32",
          "name": "",
          "type": "uint32"
        }
      ],
      "stateMutability": "view",
      "type": "function"
    },
    {
      "inputs": [],
      "name": "owner",
      "outputs": [
        {
          "internalType": "address",
          "name": "",
          "type": "address"
        }
      ],
      "stateMutability": "view",
      "type": "function"
    },
    {
      "inputs": [
        {
          "internalType": "uint256[]",
          "name": "ids",
          "type": "uint256[]"
        }
      ],
      "name": "ownerAndLastTransferBlockNumberList",
      "outputs": [
        {
          "components": [
            {
              "internalType": "address",
              "name": "owner",
              "type": "address"
            },
            {
              "internalType": "uint256",
              "name": "lastTransferBlockNumber",
              "type": "uint256"
            }
          ],
          "internalType": "struct ERC721Base.OwnerData[]",
          "name": "ownersData",
          "type": "tuple[]"
        }
      ],
      "stateMutability": "view",
      "type": "function"
    },
    {
      "inputs": [
        {
          "internalType": "uint256",
          "name": "id",
          "type": "uint256"
        }
      ],
      "name": "ownerOf",
      "outputs": [
        {
          "internalType": "address",
          "name": "owner",
          "type": "address"
        }
      ],
      "stateMutability": "view",
      "type": "function"
    },
    {
      "inputs": [
        {
          "internalType": "uint256[]",
          "name": "ids",
          "type": "uint256[]"
        }
      ],
      "name": "owners",
      "outputs": [
        {
          "internalType": "address[]",
          "name": "addresses",
          "type": "address[]"
        }
      ],
      "stateMutability": "view",
      "type": "function"
    },
    {
      "inputs": [
        {
          "internalType": "address",
          "name": "spender",
          "type": "address"
        },
        {
          "internalType": "uint256",
          "name": "tokenId",
          "type": "uint256"
        },
        {
          "internalType": "uint256",
          "name": "deadline",
          "type": "uint256"
        },
        {
          "internalType": "bytes",
          "name": "sig",
          "type": "bytes"
        }
      ],
      "name": "permit",
      "outputs": [],
      "stateMutability": "nonpayable",
      "type": "function"
    },
    {
      "inputs": [
        {
          "internalType": "address",
          "name": "signer",
          "type": "address"
        },
        {
          "internalType": "address",
          "name": "spender",
          "type": "address"
        },
        {
          "internalType": "uint256",
          "name": "deadline",
          "type": "uint256"
        },
        {
          "internalType": "bytes",
          "name": "sig",
          "type": "bytes"
        }
      ],
      "name": "permitForAll",
      "outputs": [],
      "stateMutability": "nonpayable",
      "type": "function"
    },
    {
      "inputs": [],
      "name": "royaltyAdmin",
      "outputs": [
        {
          "internalType": "address",
          "name": "",
          "type": "address"
        }
      ],
      "stateMutability": "view",
      "type": "function"
    },
    {
      "inputs": [
        {
          "internalType": "uint256",
          "name": "id",
          "type": "uint256"
        },
        {
          "internalType": "uint256",
          "name": "salePrice",
          "type": "uint256"
        }
      ],
      "name": "royaltyInfo",
      "outputs": [
        {
          "internalType": "address",
          "name": "receiver",
          "type": "address"
        },
        {
          "internalType": "uint256",
          "name": "royaltyAmount",
          "type": "uint256"
        }
      ],
      "stateMutability": "view",
      "type": "function"
    },
    {
      "inputs": [
        {
          "internalType": "address",
          "name": "from",
          "type": "address"
        },
        {
          "internalType": "address",
          "name": "to",
          "type": "address"
        },
        {
          "internalType": "uint256",
          "name": "id",
          "type": "uint256"
        }
      ],
      "name": "safeTransferFrom",
      "outputs": [],
      "stateMutability": "nonpayable",
      "type": "function"
    },
    {
      "inputs": [
        {
          "internalType": "address",
          "name": "from",
          "type": "address"
        },
        {
          "internalType": "address",
          "name": "to",
          "type": "address"
        },
        {
          "internalType": "uint256",
          "name": "id",
          "type": "uint256"
        },
        {
          "internalType": "bytes",
          "name": "data",
          "type": "bytes"
        }
      ],
      "name": "safeTransferFrom",
      "outputs": [],
      "stateMutability": "nonpayable",
      "type": "function"
    },
    {
      "inputs": [
        {
          "internalType": "address",
          "name": "operator",
          "type": "address"
        },
        {
          "internalType": "bool",
          "name": "approved",
          "type": "bool"
        }
      ],
      "name": "setApprovalForAll",
      "outputs": [],
      "stateMutability": "nonpayable",
      "type": "function"
    },
    {
      "inputs": [
        {
          "internalType": "address",
          "name": "newCheckpointingDisabler",
          "type": "address"
        }
      ],
      "name": "setCheckpointingDisabler",
      "outputs": [],
      "stateMutability": "nonpayable",
      "type": "function"
    },
    {
      "inputs": [
        {
          "internalType": "string",
          "name": "name",
          "type": "string"
        }
      ],
      "name": "setENSName",
      "outputs": [],
      "stateMutability": "nonpayable",
      "type": "function"
    },
    {
      "inputs": [
        {
          "internalType": "address",
          "name": "newGuardian",
          "type": "address"
        }
      ],
      "name": "setGuardian",
      "outputs": [],
      "stateMutability": "nonpayable",
      "type": "function"
    },
    {
      "inputs": [
        {
          "internalType": "address",
          "name": "newMinter",
          "type": "address"
        }
      ],
      "name": "setMinter",
      "outputs": [],
      "stateMutability": "nonpayable",
      "type": "function"
    },
    {
      "inputs": [
        {
          "internalType": "address",
          "name": "newMinterAdmin",
          "type": "address"
        }
      ],
      "name": "setMinterAdmin",
      "outputs": [],
      "stateMutability": "nonpayable",
      "type": "function"
    },
    {
      "inputs": [
        {
          "internalType": "address",
          "name": "newRoyaltyAdmin",
          "type": "address"
        }
      ],
      "name": "setRoyaltyAdmin",
      "outputs": [],
      "stateMutability": "nonpayable",
      "type": "function"
    },
    {
      "inputs": [
        {
          "internalType": "address",
          "name": "newReceiver",
          "type": "address"
        },
        {
          "internalType": "uint96",
          "name": "royaltyPer10Thousands",
          "type": "uint96"
        }
      ],
      "name": "setRoyaltyParameters",
      "outputs": [],
      "stateMutability": "nonpayable",
      "type": "function"
    },
    {
      "inputs": [
        {
          "internalType": "address",
          "name": "newTokenURIAdmin",
          "type": "address"
        }
      ],
      "name": "setTokenURIAdmin",
      "outputs": [],
      "stateMutability": "nonpayable",
      "type": "function"
    },
    {
      "inputs": [
        {
          "internalType": "contract ITokenURI",
          "name": "newTokenURIContract",
          "type": "address"
        }
      ],
      "name": "setTokenURIContract",
      "outputs": [],
      "stateMutability": "nonpayable",
      "type": "function"
    },
    {
      "inputs": [
        {
          "internalType": "uint256",
          "name": "id",
          "type": "uint256"
        }
      ],
      "name": "sound",
      "outputs": [
        {
          "internalType": "uint8",
          "name": "note",
          "type": "uint8"
        },
        {
          "internalType": "uint8",
          "name": "instrument",
          "type": "uint8"
        }
      ],
      "stateMutability": "pure",
      "type": "function"
    },
    {
      "inputs": [
        {
          "internalType": "bytes4",
          "name": "id",
          "type": "bytes4"
        }
      ],
      "name": "supportsInterface",
      "outputs": [
        {
          "internalType": "bool",
          "name": "",
          "type": "bool"
        }
      ],
      "stateMutability": "pure",
      "type": "function"
    },
    {
      "inputs": [],
      "name": "symbol",
      "outputs": [
        {
          "internalType": "string",
          "name": "",
          "type": "string"
        }
      ],
      "stateMutability": "pure",
      "type": "function"
    },
    {
      "inputs": [
        {
          "internalType": "uint256",
          "name": "id",
          "type": "uint256"
        }
      ],
      "name": "tokenNonces",
      "outputs": [
        {
          "internalType": "uint256",
          "name": "nonce",
          "type": "uint256"
        }
      ],
      "stateMutability": "view",
      "type": "function"
    },
    {
      "inputs": [
        {
          "internalType": "uint256",
          "name": "id",
          "type": "uint256"
        }
      ],
      "name": "tokenURI",
      "outputs": [
        {
          "internalType": "string",
          "name": "",
          "type": "string"
        }
      ],
      "stateMutability": "view",
      "type": "function"
    },
    {
      "inputs": [],
      "name": "tokenURIAdmin",
      "outputs": [
        {
          "internalType": "address",
          "name": "",
          "type": "address"
        }
      ],
      "stateMutability": "view",
      "type": "function"
    },
    {
      "inputs": [],
      "name": "tokenURIContract",
      "outputs": [
        {
          "internalType": "contract ITokenURI",
          "name": "",
          "type": "address"
        }
      ],
      "stateMutability": "view",
      "type": "function"
    },
    {
      "inputs": [
        {
          "internalType": "address",
          "name": "from",
          "type": "address"
        },
        {
          "internalType": "address",
          "name": "to",
          "type": "address"
        },
        {
          "internalType": "uint256",
          "name": "id",
          "type": "uint256"
        }
      ],
      "name": "transferFrom",
      "outputs": [],
      "stateMutability": "nonpayable",
      "type": "function"
    },
    {
      "inputs": [
        {
          "internalType": "address",
          "name": "newOwner",
          "type": "address"
        }
      ],
      "name": "transferOwnership",
      "outputs": [],
      "stateMutability": "nonpayable",
      "type": "function"
    },
    {
      "inputs": [
        {
          "internalType": "address",
          "name": "delegator",
          "type": "address"
        }
      ],
      "name": "votesToDelegate",
      "outputs": [
        {
          "internalType": "uint96",
          "name": "",
          "type": "uint96"
        }
      ],
      "stateMutability": "view",
      "type": "function"
    },
    {
      "inputs": [
        {
          "internalType": "contract IERC20",
          "name": "token",
          "type": "address"
        },
        {
          "internalType": "address",
          "name": "to",
          "type": "address"
        }
      ],
      "name": "withdrawERC20",
      "outputs": [],
      "stateMutability": "nonpayable",
      "type": "function"
    }
  ],
  "transactionHash": "0xacb8a7c2138f89d5f8d1ef26138f70ea83a3b3d890ebb301c36bbd471f46088d",
  "args": [
    "0x00000000000C2E074eC69A0dFb2997BA6C7d2e1e",
    "0x61c461EcC993aaDEB7e4b47E96d1B8cC37314B20",
    "0xCcFe9B3769473eeBb45a592313583616038f6274",
    "0x61c461EcC993aaDEB7e4b47E96d1B8cC37314B20",
    "0xCcFe9B3769473eeBb45a592313583616038f6274",
    "0xCcFe9B3769473eeBb45a592313583616038f6274",
    "0xf57b2c51ded3a29e6891aba85459d600256cf317",
    "0xcE1AEF3e0A5324F7AB6e21B4dacc10B82666E1e2",
    500,
    "0xbe933D73C6D68246FC49D1426df2C7950FDf10A6",
    "0xCcFe9B3769473eeBb45a592313583616038f6274"
  ],
  "solcInputHash": "0aa5e8caf410d135294d72c9064920c1",
  "bytecode": "0x6101006040526005805460ff191660011790553480156200001f57600080fd5b50604051620063f8380380620063f88339810160408190526200004291620003bc565b6001600160a01b0385166080524660a08190528b908b908b908b908b908b906200006c8162000303565b60c052506001600160a01b0386811660e052600980546001600160a01b0319908116888416908117909255600a80548216888516179055600b80548216868516179055600c80548216878516179055600e8054909116928416929092179091556040516000907f8be0079c531659141344cd1fd0a4f28419497f9722a3daafe3b4186f6b6457e0908290a36040516001600160a01b03851681527f89de65ceb8cdf195a0b50021ed65dd305b54d3b744a0e283bd98c6058e2edd789060200160405180910390a16040516001600160a01b03831681527fb17416b845258d996b82b66c3c9166088ec5edf592b35fcce47c62a73d61ef419060200160405180910390a16040516001600160a01b03841681527fb8e0165b6664b7af8f9563c66e3d6b987c2d06fe192539d7123a0777b41a7c899060200160405180910390a16040516001600160a01b03821681527fe6c09ffe4572dc9ceaa5ddde4ae41befa655d6fdfe8052077af0970f700e942e9060200160405180910390a15050600f80546001600160a01b0319166001600160a01b0388169081179091556040519081527f6bf5b09f847c9c9e97addeaf1ea9d5fd44ff6ae2c9c4aaf55fb476eca421a45d945060200192506200023e915050565b60405180910390a1601180546001600160a01b0319166001600160a01b0383169081179091556040519081527f4b70ff24654603d6961acf6a0cf30db833fc126dac63891114f984fefcc2b0649060200160405180910390a16001600160a01b038416600160a01b6001600160601b03851690810282176010556040805192835260208301919091527fb744dc8fdcd17f69ad99fdabe0fe0ed8fea41193727ed2123d997550eaae918f910160405180910390a15050505050505050505050620004c4565b60007f8cad95687ba82c2ce50e74f7b754645e5117c3a5bec8151c0726d5857980a8666200034a604080518082019091526006815265426c6565707360d01b602082015290565b80516020918201206040805192830193909352918101919091526060810183905230608082015260a001604051602081830303815290604052805190602001209050919050565b6001600160a01b0381168114620003a757600080fd5b50565b8051620003b78162000391565b919050565b60008060008060008060008060008060006101608c8e031215620003df57600080fd5b8b51620003ec8162000391565b60208d0151909b50620003ff8162000391565b60408d0151909a50620004128162000391565b60608d0151909950620004258162000391565b60808d0151909850620004388162000391565b60a08d01519097506200044b8162000391565b60c08d01519096506200045e8162000391565b60e08d0151909550620004718162000391565b6101008d01519094506001600160601b03811681146200049057600080fd5b9250620004a16101208d01620003aa565b9150620004b26101408d01620003aa565b90509295989b509295989b9093969950565b60805160a05160c05160e051615ef3620005056000396000611f810152600061409a015260006140650152600081816144eb01526145710152615ef36000f3fe6080604052600436106103ad5760003560e01c80637ba9638b116101e7578063ab84ee6f1161010d578063e7a324dc116100a0578063f1127ed81161006f578063f1127ed814610cf6578063f2fde38b14610d75578063f394528214610d95578063fca3b5aa14610dc257600080fd5b8063e7a324dc14610c6d578063e8a3d48514610ca1578063e9580e9114610cb6578063e985e9c514610cd657600080fd5b8063b88d4fde116100dc578063b88d4fde14610bf8578063c3cda52014610c18578063c87b56dd14610c38578063e6b34e8614610c5857600080fd5b8063ab84ee6f14610b78578063ac9650d814610b98578063adc5fcc214610bb8578063b4b5ea5714610bd857600080fd5b80639456fbcc116101855780639c205513116101545780639c20551314610ade578063a0554c2614610afe578063a22cb46514610b2b578063a754d48f14610b4b57600080fd5b80639456fbcc14610a3857806395d89b4114610a5857806399235f3914610a9e5780639ab24eb014610abe57600080fd5b8063894e851f116101c1578063894e851f146109915780638a0dac4a146109be5780638cc66011146109de5780638da5cb5b14610a0b57600080fd5b80637ba9638b1461090e5780637ecebe001461092e57806382fc31471461097157600080fd5b80633644e515116102d75780636352211e1161026a57806370a082311161023957806370a082311461088e578063745a41bc146108ae57806377dd4ac3146108ce578063782d6fe1146108ee57600080fd5b80636352211e146107d9578063639147af146107f9578063698f87be146108195780636fcfff451461084657600080fd5b80634d687821116102a65780634d68782114610745578063585956d614610765578063587cde1e146107995780635c19a95c146107b957600080fd5b80633644e515146106a65780633a46b1a8146106bb57806342842e0e146106f8578063452a93201461071857600080fd5b806320606b701161034f5780632a55205a1161031e5780632a55205a146105d257806330adf81f1461061e578063313ce5671461065257806334dd800d1461067957600080fd5b806320606b701461051857806323b872dd1461054c57806324d42fe71461056c5780632954dbfa1461058c57600080fd5b8063081812fc1161038b578063081812fc14610488578063095ea7b3146104a8578063141a468c146104ca5780631d57fb6e146104f857600080fd5b806301ffc9a7146103b257806306fdde03146103e75780630754617214610436575b600080fd5b3480156103be57600080fd5b506103d26103cd366004615256565b610de2565b60405190151581526020015b60405180910390f35b3480156103f357600080fd5b5060408051808201909152600681527f426c65657073000000000000000000000000000000000000000000000000000060208201525b6040516103de91906152e9565b34801561044257600080fd5b50600d546104639073ffffffffffffffffffffffffffffffffffffffff1681565b60405173ffffffffffffffffffffffffffffffffffffffff90911681526020016103de565b34801561049457600080fd5b506104636104a33660046152fc565b610e3f565b3480156104b457600080fd5b506104c86104c3366004615337565b610f30565b005b3480156104d657600080fd5b506104ea6104e53660046152fc565b61106f565b6040519081526020016103de565b34801561050457600080fd5b506104c86105133660046153a8565b611114565b34801561052457600080fd5b506104ea7f8cad95687ba82c2ce50e74f7b754645e5117c3a5bec8151c0726d5857980a86681565b34801561055857600080fd5b506104c8610567366004615414565b611466565b34801561057857600080fd5b506104c861058736600461546f565b61177e565b34801561059857600080fd5b506105b86105a73660046152fc565b603f81169160069190911c600f1690565b6040805160ff9384168152929091166020830152016103de565b3480156105de57600080fd5b506105f26105ed3660046154a8565b611881565b6040805173ffffffffffffffffffffffffffffffffffffffff90931683526020830191909152016103de565b34801561062a57600080fd5b506104ea7f49ecf333e5b8c95c40fdafc95c1ad136e8914a8fb55e9dc8bb01eaa83a2df9ad81565b34801561065e57600080fd5b50610667600081565b60405160ff90911681526020016103de565b34801561068557600080fd5b50600a546104639073ffffffffffffffffffffffffffffffffffffffff1681565b3480156106b257600080fd5b506104ea6118e6565b3480156106c757600080fd5b506106db6106d6366004615337565b6118f5565b6040516bffffffffffffffffffffffff90911681526020016103de565b34801561070457600080fd5b506104c8610713366004615414565b61199c565b34801561072457600080fd5b50600e546104639073ffffffffffffffffffffffffffffffffffffffff1681565b34801561075157600080fd5b506104c86107603660046154ca565b6119bc565b34801561077157600080fd5b506104ea7f29795620f29ed5790c945e3f419a1b3e2381aa07751ccffe5b81231639d74cd581565b3480156107a557600080fd5b506104636107b43660046154ca565b611ab7565b3480156107c557600080fd5b506104c86107d43660046154ca565b611af4565b3480156107e557600080fd5b506104636107f43660046152fc565b611b1f565b34801561080557600080fd5b506104c86108143660046154ca565b611bb0565b34801561082557600080fd5b50600f546104639073ffffffffffffffffffffffffffffffffffffffff1681565b34801561085257600080fd5b506108796108613660046154ca565b60086020526000908152604090205463ffffffff1681565b60405163ffffffff90911681526020016103de565b34801561089a57600080fd5b506104ea6108a93660046154ca565b611ce5565b3480156108ba57600080fd5b506104c86108c9366004615609565b611d8d565b3480156108da57600080fd5b506104c86108e936600461566c565b611eaf565b3480156108fa57600080fd5b506106db610909366004615337565b6120b7565b34801561091a57600080fd5b506104c86109293660046154ca565b6123ce565b34801561093a57600080fd5b506104ea6109493660046154ca565b73ffffffffffffffffffffffffffffffffffffffff1660009081526004602052604090205490565b34801561097d57600080fd5b506104c861098c3660046154ca565b612503565b34801561099d57600080fd5b50600b546104639073ffffffffffffffffffffffffffffffffffffffff1681565b3480156109ca57600080fd5b506104c86109d93660046154ca565b6125f7565b3480156109ea57600080fd5b506011546104639073ffffffffffffffffffffffffffffffffffffffff1681565b348015610a1757600080fd5b506009546104639073ffffffffffffffffffffffffffffffffffffffff1681565b348015610a4457600080fd5b506104c8610a533660046156b5565b6126eb565b348015610a6457600080fd5b5060408051808201909152600581527f424c4545500000000000000000000000000000000000000000000000000000006020820152610429565b348015610aaa57600080fd5b506104c8610ab93660046154ca565b6128b6565b348015610aca57600080fd5b506106db610ad93660046154ca565b6129eb565b348015610aea57600080fd5b506104c8610af93660046156f5565b6129f6565b348015610b0a57600080fd5b50610b1e610b19366004615711565b612c95565b6040516103de9190615753565b348015610b3757600080fd5b506104c8610b463660046157bb565b612d68565b348015610b5757600080fd5b50600c546104639073ffffffffffffffffffffffffffffffffffffffff1681565b348015610b8457600080fd5b506104c8610b933660046157e9565b612d77565b610bab610ba6366004615711565b612e34565b6040516103de919061583d565b348015610bc457600080fd5b506104ea610bd33660046152fc565b612f9f565b348015610be457600080fd5b506106db610bf33660046154ca565b612faa565b348015610c0457600080fd5b506104c8610c133660046157e9565b613047565b348015610c2457600080fd5b506104c8610c333660046158bd565b613359565b348015610c4457600080fd5b50610429610c533660046152fc565b6136d2565b348015610c6457600080fd5b506104c8613797565b348015610c7957600080fd5b506104ea7fe48329057bfd03d55e49b547132e39cffd9c1820ad7b9d4c5307691425d15adf81565b348015610cad57600080fd5b506104296138c7565b348015610cc257600080fd5b506106db610cd13660046154ca565b6139bf565b348015610ce257600080fd5b506103d2610cf13660046156b5565b6139eb565b348015610d0257600080fd5b50610d4c610d1136600461591f565b600760209081526000928352604080842090915290825290205463ffffffff81169064010000000090046bffffffffffffffffffffffff1682565b6040805163ffffffff90931683526bffffffffffffffffffffffff9091166020830152016103de565b348015610d8157600080fd5b506104c8610d903660046154ca565b613a33565b348015610da157600080fd5b50610db5610db0366004615711565b613ace565b6040516103de9190615956565b348015610dce57600080fd5b506104c8610ddd3660046154ca565b613c01565b6000610ded82613cf5565b80610e3957507f2a55205a000000000000000000000000000000000000000000000000000000007fffffffff000000000000000000000000000000000000000000000000000000008316145b92915050565b6000818152602081905260408120547f80000000000000000000000000000000000000000000000000000000000000008082161473ffffffffffffffffffffffffffffffffffffffff8216610ef5576040517f08c379a000000000000000000000000000000000000000000000000000000000815260206004820152601160248201527f4e4f4e4558495354454e545f544f4b454e00000000000000000000000000000060448201526064015b60405180910390fd5b8015610f265750505060009081526003602052604090205473ffffffffffffffffffffffffffffffffffffffff1690565b5060009392505050565b6000818152602081905260409020546affffffffffffffffffffff60a082901c1673ffffffffffffffffffffffffffffffffffffffff8216610fce576040517f08c379a000000000000000000000000000000000000000000000000000000000815260206004820152601160248201527f4e4f4e4558495354454e545f544f4b454e0000000000000000000000000000006044820152606401610eec565b3373ffffffffffffffffffffffffffffffffffffffff83161480610ff75750610ff782336139eb565b61105d576040517f08c379a000000000000000000000000000000000000000000000000000000000815260206004820152601560248201527f554e415554484f52495a45445f415050524f56414c00000000000000000000006044820152606401610eec565b61106982828686613d9d565b50505050565b6000818152602081905260408120546affffffffffffffffffffff60a082901c1673ffffffffffffffffffffffffffffffffffffffff821661110d576040517f08c379a000000000000000000000000000000000000000000000000000000000815260206004820152601160248201527f4e4f4e4558495354454e545f544f4b454e0000000000000000000000000000006044820152606401610eec565b9392505050565b600d5473ffffffffffffffffffffffffffffffffffffffff163314611195576040517f08c379a000000000000000000000000000000000000000000000000000000000815260206004820152601360248201527f4f4e4c595f4d494e5445525f414c4c4f574544000000000000000000000000006044820152606401610eec565b600060018214156111cb57828260008181106111b3576111b36159bb565b90506020020160208101906111c891906154ca565b90505b60005b8481101561145e5760008686838181106111ea576111ea6159bb565b90506020020160208101906111ff91906159ea565b61ffff169050600184111561123857848483818110611220576112206159bb565b905060200201602081019061123591906154ca565b92505b73ffffffffffffffffffffffffffffffffffffffff83166112b5576040517f08c379a000000000000000000000000000000000000000000000000000000000815260206004820152601260248201527f4e4f545f544f5f5a45524f4144445245535300000000000000000000000000006044820152606401610eec565b73ffffffffffffffffffffffffffffffffffffffff8316301415611335576040517f08c379a000000000000000000000000000000000000000000000000000000000815260206004820152600b60248201527f4e4f545f544f5f544849530000000000000000000000000000000000000000006044820152606401610eec565b61040081106113a0576040517f08c379a000000000000000000000000000000000000000000000000000000000815260206004820152600d60248201527f494e56414c49445f424c454550000000000000000000000000000000000000006044820152606401610eec565b60008181526020819052604090205473ffffffffffffffffffffffffffffffffffffffff81161561142d576040517f08c379a000000000000000000000000000000000000000000000000000000000815260206004820152600f60248201527f414c52454144595f4352454154454400000000000000000000000000000000006044820152606401610eec565b6114496000858460405180602001604052806000815250613ed6565b5050808061145690615a34565b9150506111ce565b505050505050565b6000818152602081905260409020547f80000000000000000000000000000000000000000000000000000000000000008082161473ffffffffffffffffffffffffffffffffffffffff8216611517576040517f08c379a000000000000000000000000000000000000000000000000000000000815260206004820152601160248201527f4e4f4e4558495354454e545f544f4b454e0000000000000000000000000000006044820152606401610eec565b8473ffffffffffffffffffffffffffffffffffffffff168273ffffffffffffffffffffffffffffffffffffffff16146115ac576040517f08c379a000000000000000000000000000000000000000000000000000000000815260206004820152600960248201527f4e4f545f4f574e455200000000000000000000000000000000000000000000006044820152606401610eec565b73ffffffffffffffffffffffffffffffffffffffff8416611629576040517f08c379a000000000000000000000000000000000000000000000000000000000815260206004820152601260248201527f4e4f545f544f5f5a45524f4144445245535300000000000000000000000000006044820152606401610eec565b73ffffffffffffffffffffffffffffffffffffffff84163014156116a9576040517f08c379a000000000000000000000000000000000000000000000000000000000815260206004820152600b60248201527f4e4f545f544f5f544849530000000000000000000000000000000000000000006044820152606401610eec565b3373ffffffffffffffffffffffffffffffffffffffff86161461176c578080156116f6575060008381526003602052604090205473ffffffffffffffffffffffffffffffffffffffff1633145b80611706575061170685336139eb565b61176c576040517f08c379a000000000000000000000000000000000000000000000000000000000815260206004820152601560248201527f554e415554484f52495a45445f5452414e5346455200000000000000000000006044820152606401610eec565b611777858585613f71565b5050505050565b600b5473ffffffffffffffffffffffffffffffffffffffff1633146117ff576040517f08c379a000000000000000000000000000000000000000000000000000000000815260206004820152600e60248201527f4e4f545f415554484f52495a45440000000000000000000000000000000000006044820152606401610eec565b73ffffffffffffffffffffffffffffffffffffffff8216740100000000000000000000000000000000000000006bffffffffffffffffffffffff831690810282176010556040805192835260208301919091527fb744dc8fdcd17f69ad99fdabe0fe0ed8fea41193727ed2123d997550eaae918f910160405180910390a15050565b60105473ffffffffffffffffffffffffffffffffffffffff811690600090612710906118d3907401000000000000000000000000000000000000000090046bffffffffffffffffffffffff1685615a6d565b6118dd9190615ad9565b90509250929050565b60006118f0614060565b905090565b6040517f782d6fe100000000000000000000000000000000000000000000000000000000815273ffffffffffffffffffffffffffffffffffffffff8316600482015260248101829052600090309063782d6fe19060440160206040518083038186803b15801561196457600080fd5b505afa158015611978573d6000803e3d6000fd5b505050506040513d601f19601f8201168201806040525081019061110d9190615aed565b6119b783838360405180602001604052806000815250613047565b505050565b60115473ffffffffffffffffffffffffffffffffffffffff163314611a3d576040517f08c379a000000000000000000000000000000000000000000000000000000000815260206004820152600e60248201527f4e4f545f415554484f52495a45440000000000000000000000000000000000006044820152606401610eec565b601180547fffffffffffffffffffffffff00000000000000000000000000000000000000001673ffffffffffffffffffffffffffffffffffffffff83169081179091556040519081527f4b70ff24654603d6961acf6a0cf30db833fc126dac63891114f984fefcc2b064906020015b60405180910390a150565b73ffffffffffffffffffffffffffffffffffffffff8082166000908152600660205260408120549091168015611aed578061110d565b5090919050565b73ffffffffffffffffffffffffffffffffffffffff8116611b125750335b611b1c33826140c0565b50565b60008181526020819052604090205473ffffffffffffffffffffffffffffffffffffffff8116611bab576040517f08c379a000000000000000000000000000000000000000000000000000000000815260206004820152601160248201527f4e4f4e4558495354454e545f544f4b454e0000000000000000000000000000006044820152606401610eec565b919050565b600a5473ffffffffffffffffffffffffffffffffffffffff16331480611c0c5750600e5473ffffffffffffffffffffffffffffffffffffffff1633148015611c0c575073ffffffffffffffffffffffffffffffffffffffff8116155b611c72576040517f08c379a000000000000000000000000000000000000000000000000000000000815260206004820152600e60248201527f4e4f545f415554484f52495a45440000000000000000000000000000000000006044820152606401610eec565b600a80547fffffffffffffffffffffffff00000000000000000000000000000000000000001673ffffffffffffffffffffffffffffffffffffffff83169081179091556040519081527f89de65ceb8cdf195a0b50021ed65dd305b54d3b744a0e283bd98c6058e2edd7890602001611aac565b600073ffffffffffffffffffffffffffffffffffffffff8216611d64576040517f08c379a000000000000000000000000000000000000000000000000000000000815260206004820152601260248201527f5a45524f5f414444524553535f4f574e455200000000000000000000000000006044820152606401610eec565b5073ffffffffffffffffffffffffffffffffffffffff1660009081526001602052604090205490565b42821015611df7576040517f08c379a000000000000000000000000000000000000000000000000000000000815260206004820152601760248201527f5045524d49545f444541444c494e455f455850495245440000000000000000006044820152606401610eec565b6000838152602081905260409020546affffffffffffffffffffff60a082901c1673ffffffffffffffffffffffffffffffffffffffff8216611e95576040517f08c379a000000000000000000000000000000000000000000000000000000000815260206004820152601160248201527f4e4f4e4558495354454e545f544f4b454e0000000000000000000000000000006044820152606401610eec565b611ea3828787878588614165565b61145e82828888613d9d565b60095473ffffffffffffffffffffffffffffffffffffffff163314611f30576040517f08c379a000000000000000000000000000000000000000000000000000000000815260206004820152600e60248201527f4e4f545f415554484f52495a45440000000000000000000000000000000000006044820152606401610eec565b6040517f02571be30000000000000000000000000000000000000000000000000000000081527f91d1777781884d03a6757a803996e38de2a42967fb37eeaca72729271025a9e260048201526000907f000000000000000000000000000000000000000000000000000000000000000073ffffffffffffffffffffffffffffffffffffffff16906302571be39060240160206040518083038186803b158015611fd857600080fd5b505afa158015611fec573d6000803e3d6000fd5b505050506040513d601f19601f820116820180604052508101906120109190615b0a565b6040517fc47f002700000000000000000000000000000000000000000000000000000000815290915073ffffffffffffffffffffffffffffffffffffffff82169063c47f0027906120659085906004016152e9565b602060405180830381600087803b15801561207f57600080fd5b505af1158015612093573d6000803e3d6000fd5b505050506040513d601f19601f820116820180604052508101906119b79190615b27565b6000438210612148576040517f08c379a000000000000000000000000000000000000000000000000000000000815260206004820152603760248201527f455243373231436865636b706f696e7461626c653a3a6765745072696f72566f60448201527f7465733a206e6f74207965742064657465726d696e65640000000000000000006064820152608401610eec565b73ffffffffffffffffffffffffffffffffffffffff831660009081526008602052604090205463ffffffff1680612183576000915050610e39565b73ffffffffffffffffffffffffffffffffffffffff8416600090815260076020526040812084916121b5600185615b40565b63ffffffff9081168252602082019290925260400160002054161161223b5773ffffffffffffffffffffffffffffffffffffffff8416600090815260076020526040812090612205600184615b40565b63ffffffff16815260208101919091526040016000205464010000000090046bffffffffffffffffffffffff169150610e399050565b73ffffffffffffffffffffffffffffffffffffffff8416600090815260076020908152604080832083805290915290205463ffffffff16831015612283576000915050610e39565b600080612291600184615b40565b90505b8163ffffffff168163ffffffff16111561237657600060026122b68484615b40565b6122c09190615b65565b6122ca9083615b40565b73ffffffffffffffffffffffffffffffffffffffff8816600090815260076020908152604080832063ffffffff8581168552908352928190208151808301909252549283168082526401000000009093046bffffffffffffffffffffffff169181019190915291925087141561234a57602001519450610e399350505050565b805163ffffffff168711156123615781935061236f565b61236c600183615b40565b92505b5050612294565b5073ffffffffffffffffffffffffffffffffffffffff8516600090815260076020908152604080832063ffffffff909416835292905220546bffffffffffffffffffffffff6401000000009091041691505092915050565b600b5473ffffffffffffffffffffffffffffffffffffffff1633148061242a5750600e5473ffffffffffffffffffffffffffffffffffffffff163314801561242a575073ffffffffffffffffffffffffffffffffffffffff8116155b612490576040517f08c379a000000000000000000000000000000000000000000000000000000000815260206004820152600e60248201527f4e4f545f415554484f52495a45440000000000000000000000000000000000006044820152606401610eec565b600b80547fffffffffffffffffffffffff00000000000000000000000000000000000000001673ffffffffffffffffffffffffffffffffffffffff83169081179091556040519081527fb17416b845258d996b82b66c3c9166088ec5edf592b35fcce47c62a73d61ef4190602001611aac565b600a5473ffffffffffffffffffffffffffffffffffffffff163314612584576040517f08c379a000000000000000000000000000000000000000000000000000000000815260206004820152600e60248201527f4e4f545f415554484f52495a45440000000000000000000000000000000000006044820152606401610eec565b600f80547fffffffffffffffffffffffff00000000000000000000000000000000000000001673ffffffffffffffffffffffffffffffffffffffff83169081179091556040519081527f6bf5b09f847c9c9e97addeaf1ea9d5fd44ff6ae2c9c4aaf55fb476eca421a45d90602001611aac565b600e5473ffffffffffffffffffffffffffffffffffffffff163314612678576040517f08c379a000000000000000000000000000000000000000000000000000000000815260206004820152600e60248201527f4e4f545f415554484f52495a45440000000000000000000000000000000000006044820152606401610eec565b600e80547fffffffffffffffffffffffff00000000000000000000000000000000000000001673ffffffffffffffffffffffffffffffffffffffff83169081179091556040519081527fe6c09ffe4572dc9ceaa5ddde4ae41befa655d6fdfe8052077af0970f700e942e90602001611aac565b60095473ffffffffffffffffffffffffffffffffffffffff16331461276c576040517f08c379a000000000000000000000000000000000000000000000000000000000815260206004820152600e60248201527f4e4f545f415554484f52495a45440000000000000000000000000000000000006044820152606401610eec565b6040517f70a0823100000000000000000000000000000000000000000000000000000000815230600482015273ffffffffffffffffffffffffffffffffffffffff83169063a9059cbb90839083906370a082319060240160206040518083038186803b1580156127db57600080fd5b505afa1580156127ef573d6000803e3d6000fd5b505050506040513d601f19601f820116820180604052508101906128139190615b27565b6040517fffffffff0000000000000000000000000000000000000000000000000000000060e085901b16815273ffffffffffffffffffffffffffffffffffffffff90921660048301526024820152604401602060405180830381600087803b15801561287e57600080fd5b505af1158015612892573d6000803e3d6000fd5b505050506040513d601f19601f820116820180604052508101906119b79190615b88565b600c5473ffffffffffffffffffffffffffffffffffffffff163314806129125750600e5473ffffffffffffffffffffffffffffffffffffffff1633148015612912575073ffffffffffffffffffffffffffffffffffffffff8116155b612978576040517f08c379a000000000000000000000000000000000000000000000000000000000815260206004820152600e60248201527f4e4f545f415554484f52495a45440000000000000000000000000000000000006044820152606401610eec565b600c80547fffffffffffffffffffffffff00000000000000000000000000000000000000001673ffffffffffffffffffffffffffffffffffffffff83169081179091556040519081527fb8e0165b6664b7af8f9563c66e3d6b987c2d06fe192539d7123a0777b41a7c8990602001611aac565b6000610e3982612faa565b600d5473ffffffffffffffffffffffffffffffffffffffff163314612a77576040517f08c379a000000000000000000000000000000000000000000000000000000000815260206004820152601360248201527f4f4e4c595f4d494e5445525f414c4c4f574544000000000000000000000000006044820152606401610eec565b6104008261ffff1610612ae6576040517f08c379a000000000000000000000000000000000000000000000000000000000815260206004820152600d60248201527f494e56414c49445f424c454550000000000000000000000000000000000000006044820152606401610eec565b73ffffffffffffffffffffffffffffffffffffffff8116612b63576040517f08c379a000000000000000000000000000000000000000000000000000000000815260206004820152601260248201527f4e4f545f544f5f5a45524f4144445245535300000000000000000000000000006044820152606401610eec565b73ffffffffffffffffffffffffffffffffffffffff8116301415612be3576040517f08c379a000000000000000000000000000000000000000000000000000000000815260206004820152600b60248201527f4e4f545f544f5f544849530000000000000000000000000000000000000000006044820152606401610eec565b61ffff821660009081526020819052604090205473ffffffffffffffffffffffffffffffffffffffff811615612c75576040517f08c379a000000000000000000000000000000000000000000000000000000000815260206004820152600f60248201527f414c52454144595f4352454154454400000000000000000000000000000000006044820152606401610eec565b6119b76000838561ffff1660405180602001604052806000815250613ed6565b60608167ffffffffffffffff811115612cb057612cb06154e7565b604051908082528060200260200182016040528015612cd9578160200160208202803683370190505b50905060005b82811015612d61576000848483818110612cfb57612cfb6159bb565b90506020020135905060008082815260200190815260200160002054838381518110612d2957612d296159bb565b73ffffffffffffffffffffffffffffffffffffffff909216602092830291909101909101525080612d5981615a34565b915050612cdf565b5092915050565b612d733383836142b9565b5050565b42821015612de1576040517f08c379a000000000000000000000000000000000000000000000000000000000815260206004820152601760248201527f5045524d49545f444541444c494e455f455850495245440000000000000000006044820152606401610eec565b73ffffffffffffffffffffffffffffffffffffffff841660009081526004602052604081208054612e2892879287928792909190612e1e83615a34565b9190505585614351565b611069848460016142b9565b60608167ffffffffffffffff811115612e4f57612e4f6154e7565b604051908082528060200260200182016040528015612e8257816020015b6060815260200190600190039081612e6d5790505b50905060005b82811015612d615760008030868685818110612ea657612ea66159bb565b9050602002810190612eb89190615ba5565b604051612ec6929190615c0a565b600060405180830381855af49150503d8060008114612f01576040519150601f19603f3d011682016040523d82523d6000602084013e612f06565b606091505b509150915081612f6c57604481511015612f1f57600080fd5b60048101905080806020019051810190612f399190615c1a565b6040517f08c379a0000000000000000000000000000000000000000000000000000000008152600401610eec91906152e9565b80848481518110612f7f57612f7f6159bb565b602002602001018190525050508080612f9790615a34565b915050612e88565b6000610e398261106f565b73ffffffffffffffffffffffffffffffffffffffff811660009081526008602052604081205463ffffffff1680612fe257600061110d565b73ffffffffffffffffffffffffffffffffffffffff8316600090815260076020526040812090613013600184615b40565b63ffffffff16815260208101919091526040016000205464010000000090046bffffffffffffffffffffffff169392505050565b6000828152602081905260409020547f80000000000000000000000000000000000000000000000000000000000000008082161473ffffffffffffffffffffffffffffffffffffffff82166130f8576040517f08c379a000000000000000000000000000000000000000000000000000000000815260206004820152601160248201527f4e4f4e4558495354454e545f544f4b454e0000000000000000000000000000006044820152606401610eec565b8573ffffffffffffffffffffffffffffffffffffffff168273ffffffffffffffffffffffffffffffffffffffff161461318d576040517f08c379a000000000000000000000000000000000000000000000000000000000815260206004820152600960248201527f4e4f545f4f574e455200000000000000000000000000000000000000000000006044820152606401610eec565b73ffffffffffffffffffffffffffffffffffffffff851661320a576040517f08c379a000000000000000000000000000000000000000000000000000000000815260206004820152601260248201527f4e4f545f544f5f5a45524f4144445245535300000000000000000000000000006044820152606401610eec565b73ffffffffffffffffffffffffffffffffffffffff851630141561328a576040517f08c379a000000000000000000000000000000000000000000000000000000000815260206004820152600b60248201527f4e4f545f544f5f544849530000000000000000000000000000000000000000006044820152606401610eec565b3373ffffffffffffffffffffffffffffffffffffffff87161461334d578080156132d7575060008481526003602052604090205473ffffffffffffffffffffffffffffffffffffffff1633145b806132e757506132e786336139eb565b61334d576040517f08c379a000000000000000000000000000000000000000000000000000000000815260206004820152601560248201527f554e415554484f52495a45445f5452414e5346455200000000000000000000006044820152606401610eec565b61145e86868686613ed6565b6000613363614060565b604080517fe48329057bfd03d55e49b547132e39cffd9c1820ad7b9d4c5307691425d15adf602082015273ffffffffffffffffffffffffffffffffffffffff8a1691810191909152606081018890526080810187905260a001604051602081830303815290604052805190602001206040516020016134149291907f190100000000000000000000000000000000000000000000000000000000000081526002810192909252602282015260420190565b604080517fffffffffffffffffffffffffffffffffffffffffffffffffffffffffffffffe08184030181528282528051602091820120600080855291840180845281905260ff88169284019290925260608301869052608083018590529092509060019060a0016020604051602081039080840390855afa15801561349d573d6000803e3d6000fd5b50506040517fffffffffffffffffffffffffffffffffffffffffffffffffffffffffffffffe0015191505073ffffffffffffffffffffffffffffffffffffffff811661356b576040517f08c379a000000000000000000000000000000000000000000000000000000000815260206004820152603660248201527f455243373231436865636b706f696e7461626c653a3a64656c6567617465427960448201527f5369673a20696e76616c6964207369676e6174757265000000000000000000006064820152608401610eec565b73ffffffffffffffffffffffffffffffffffffffff8116600090815260046020526040812080549161359c83615a34565b91905055871461362e576040517f08c379a000000000000000000000000000000000000000000000000000000000815260206004820152603260248201527f455243373231436865636b706f696e7461626c653a3a64656c6567617465427960448201527f5369673a20696e76616c6964206e6f6e636500000000000000000000000000006064820152608401610eec565b854211156136be576040517f08c379a000000000000000000000000000000000000000000000000000000000815260206004820152603660248201527f455243373231436865636b706f696e7461626c653a3a64656c6567617465427960448201527f5369673a207369676e61747572652065787069726564000000000000000000006064820152608401610eec565b6136c881896140c0565b5050505050505050565b600f546040517fc87b56dd0000000000000000000000000000000000000000000000000000000081526004810183905260609173ffffffffffffffffffffffffffffffffffffffff169063c87b56dd9060240160006040518083038186803b15801561373d57600080fd5b505afa158015613751573d6000803e3d6000fd5b505050506040513d6000823e601f3d9081017fffffffffffffffffffffffffffffffffffffffffffffffffffffffffffffffe0168201604052610e399190810190615c1a565b60115473ffffffffffffffffffffffffffffffffffffffff163314613818576040517f08c379a000000000000000000000000000000000000000000000000000000000815260206004820152600e60248201527f4e4f545f415554484f52495a45440000000000000000000000000000000000006044820152606401610eec565b600580547fffffffffffffffffffffffffffffffffffffffffffffffffffffffffffffff00169055601180547fffffffffffffffffffffffff0000000000000000000000000000000000000000169055604051600081527f4b70ff24654603d6961acf6a0cf30db833fc126dac63891114f984fefcc2b0649060200160405180910390a16040517f3355f5c11ec5fbd9909c4fbd232bf8592a749dba18405f16df892fa6b40eddae90600090a1565b600f546010546040517fcc4c332400000000000000000000000000000000000000000000000000000000815273ffffffffffffffffffffffffffffffffffffffff8083166004830152740100000000000000000000000000000000000000009092046bffffffffffffffffffffffff166024820152606092919091169063cc4c33249060440160006040518083038186803b15801561396557600080fd5b505afa158015613979573d6000803e3d6000fd5b505050506040513d6000823e601f3d9081017fffffffffffffffffffffffffffffffffffffffffffffffffffffffffffffffe01682016040526118f09190810190615c1a565b6000610e396139cd83611ce5565b6040518060600160405280603d8152602001615e4a603d9139614495565b73ffffffffffffffffffffffffffffffffffffffff808316600090815260026020908152604080832093851683529290529081205460ff168061110d575061110d83836144e7565b60095473ffffffffffffffffffffffffffffffffffffffff16338114613a5857600080fd5b600980547fffffffffffffffffffffffff00000000000000000000000000000000000000001673ffffffffffffffffffffffffffffffffffffffff84811691821790925560405190918316907f8be0079c531659141344cd1fd0a4f28419497f9722a3daafe3b4186f6b6457e090600090a35050565b60608167ffffffffffffffff811115613ae957613ae96154e7565b604051908082528060200260200182016040528015613b2e57816020015b6040805180820190915260008082526020820152815260200190600190039081613b075790505b50905060005b82811015612d61576000806000868685818110613b5357613b536159bb565b90506020020135815260200190815260200160002054905080838381518110613b7e57613b7e6159bb565b60200260200101516000019073ffffffffffffffffffffffffffffffffffffffff16908173ffffffffffffffffffffffffffffffffffffffff168152505060a081901c6affffffffffffffffffffff16838381518110613be057613be06159bb565b60209081029190910181015101525080613bf981615a34565b915050613b34565b600c5473ffffffffffffffffffffffffffffffffffffffff163314613c82576040517f08c379a000000000000000000000000000000000000000000000000000000000815260206004820152600e60248201527f4e4f545f415554484f52495a45440000000000000000000000000000000000006044820152606401610eec565b600d80547fffffffffffffffffffffffff00000000000000000000000000000000000000001673ffffffffffffffffffffffffffffffffffffffff83169081179091556040519081527f726b590ef91a8c76ad05bbe91a57ef84605276528f49cd47d787f558a4e755b690602001611aac565b6000613d0082614610565b80613d4c57507fffffffff0000000000000000000000000000000000000000000000000000000082167f5604e22500000000000000000000000000000000000000000000000000000000145b80610e3957507fffffffff0000000000000000000000000000000000000000000000000000000082167fefdb586b000000000000000000000000000000000000000000000000000000001492915050565b73ffffffffffffffffffffffffffffffffffffffff8216613dea57600081815260208190526040902060a084901b73ffffffffffffffffffffffffffffffffffffffff8616179055613e75565b6000818152602081815260408083207f800000000000000000000000000000000000000000000000000000000000000073ffffffffffffffffffffffffffffffffffffffff89811660a08a901b1791909117909155600390925290912080547fffffffffffffffffffffffff0000000000000000000000000000000000000000169184169190911790555b808273ffffffffffffffffffffffffffffffffffffffff168573ffffffffffffffffffffffffffffffffffffffff167f8c5be1e5ebec7d5bd14f71427d1e84f3dd0314c0f7b2291e5b200ac8c7c3b92560405160405180910390a450505050565b613ee1848484613f71565b73ffffffffffffffffffffffffffffffffffffffff83163b1561106957613f0b33858585856146f1565b611069576040517f08c379a000000000000000000000000000000000000000000000000000000000815260206004820152601860248201527f4552433732315f5452414e534645525f52454a454354454400000000000000006044820152606401610eec565b613f7c8383836147d5565b73ffffffffffffffffffffffffffffffffffffffff808316600090815260016020819052604090912080549091019055831615613fff5773ffffffffffffffffffffffffffffffffffffffff8316600090815260016020526040902080547fffffffffffffffffffffffffffffffffffffffffffffffffffffffffffffffff0190555b6000818152602081905260408082204360a01b73ffffffffffffffffffffffffffffffffffffffff80871691821790925591518493918716917fddf252ad1be2c89b69c2b068fc378daa952ba7f163c4a11628f55a4df523b3ef91a4505050565b6000467f0000000000000000000000000000000000000000000000000000000000000000811461409857614093816147fc565b6140ba565b7f00000000000000000000000000000000000000000000000000000000000000005b91505090565b60006140cb83611ab7565b73ffffffffffffffffffffffffffffffffffffffff84811660008181526006602052604080822080547fffffffffffffffffffffffff000000000000000000000000000000000000000016888616908117909155905194955093928516927f3134e8a2e6d97e929a7e54011ea5485d7d196dd5f0ba4d4ef95803e8e3fc257f9190a46000614158846139bf565b90506110698284836148a0565b600061416f614060565b604080517f49ecf333e5b8c95c40fdafc95c1ad136e8914a8fb55e9dc8bb01eaa83a2df9ad602082015273ffffffffffffffffffffffffffffffffffffffff891691810191909152606081018790526080810185905260a0810186905260c001604051602081830303815290604052805190602001206040516020016142279291907f190100000000000000000000000000000000000000000000000000000000000081526002810192909252602282015260420190565b60405160208183030381529060405280519060200120905061424a878284614ac5565b6142b0576040517f08c379a000000000000000000000000000000000000000000000000000000000815260206004820152601160248201527f494e56414c49445f5349474e41545552450000000000000000000000000000006044820152606401610eec565b50505050505050565b73ffffffffffffffffffffffffffffffffffffffff83811660008181526002602090815260408083209487168084529482529182902080547fffffffffffffffffffffffffffffffffffffffffffffffffffffffffffffff001686151590811790915591519182527f17307eab39ab6107e8899845ad3d59bd9653f200f220920489ca2b5937696c31910160405180910390a3505050565b600061435b614060565b604080517f29795620f29ed5790c945e3f419a1b3e2381aa07751ccffe5b81231639d74cd5602082015273ffffffffffffffffffffffffffffffffffffffff881691810191909152606081018590526080810186905260a0016040516020818303038152906040528051906020012060405160200161440c9291907f190100000000000000000000000000000000000000000000000000000000000081526002810192909252602282015260420190565b60405160208183030381529060405280519060200120905061442f868284614ac5565b61145e576040517f08c379a000000000000000000000000000000000000000000000000000000000815260206004820152601160248201527f494e56414c49445f5349474e41545552450000000000000000000000000000006044820152606401610eec565b6000816c0100000000000000000000000084106144df576040517f08c379a0000000000000000000000000000000000000000000000000000000008152600401610eec91906152e9565b509192915050565b60007f000000000000000000000000000000000000000000000000000000000000000073ffffffffffffffffffffffffffffffffffffffff1661452c57506000610e39565b6040517fc455279100000000000000000000000000000000000000000000000000000000815273ffffffffffffffffffffffffffffffffffffffff84811660048301527f0000000000000000000000000000000000000000000000000000000000000000918482169183169063c45527919060240160206040518083038186803b1580156145b957600080fd5b505afa1580156145cd573d6000803e3d6000fd5b505050506040513d601f19601f820116820180604052508101906145f19190615b0a565b73ffffffffffffffffffffffffffffffffffffffff1614949350505050565b60007f01ffc9a7000000000000000000000000000000000000000000000000000000007fffffffff00000000000000000000000000000000000000000000000000000000831614806146a357507f80ac58cd000000000000000000000000000000000000000000000000000000007fffffffff000000000000000000000000000000000000000000000000000000008316145b80610e395750507fffffffff00000000000000000000000000000000000000000000000000000000167f5b5e139f000000000000000000000000000000000000000000000000000000001490565b6000808473ffffffffffffffffffffffffffffffffffffffff1663150b7a02888887876040518563ffffffff1660e01b81526004016147339493929190615c91565b602060405180830381600087803b15801561474d57600080fd5b505af1158015614761573d6000803e3d6000fd5b505050506040513d601f19601f820116820180604052508101906147859190615cda565b7fffffffff00000000000000000000000000000000000000000000000000000000167f150b7a02000000000000000000000000000000000000000000000000000000001491505095945050505050565b60055460ff16156119b7576119b76147ec84611ab7565b6147f584611ab7565b60016148a0565b60007f8cad95687ba82c2ce50e74f7b754645e5117c3a5bec8151c0726d5857980a86661485960408051808201909152600681527f426c656570730000000000000000000000000000000000000000000000000000602082015290565b80516020918201206040805192830193909352918101919091526060810183905230608082015260a001604051602081830303815290604052805190602001209050919050565b8173ffffffffffffffffffffffffffffffffffffffff168373ffffffffffffffffffffffffffffffffffffffff16141580156148ea57506000816bffffffffffffffffffffffff16115b156119b75773ffffffffffffffffffffffffffffffffffffffff8316156149dc5773ffffffffffffffffffffffffffffffffffffffff831660009081526008602052604081205463ffffffff1690816149445760006149a3565b73ffffffffffffffffffffffffffffffffffffffff8516600090815260076020526040812090614975600185615b40565b63ffffffff16815260208101919091526040016000205464010000000090046bffffffffffffffffffffffff165b905060006149ca8285604051806060016040528060378152602001615e8760379139614cb4565b90506149d886848484614d22565b5050505b73ffffffffffffffffffffffffffffffffffffffff8216156119b75773ffffffffffffffffffffffffffffffffffffffff821660009081526008602052604081205463ffffffff169081614a31576000614a90565b73ffffffffffffffffffffffffffffffffffffffff8416600090815260076020526040812090614a62600185615b40565b63ffffffff16815260208101919091526040016000205464010000000090046bffffffffffffffffffffffff165b90506000614ab78285604051806060016040528060368152602001615dd060369139614fa5565b905061145e85848484614d22565b6000806000614ad48585615016565b90925090506000816004811115614aed57614aed615cf7565b148015614b2557508573ffffffffffffffffffffffffffffffffffffffff168273ffffffffffffffffffffffffffffffffffffffff16145b15614b355760019250505061110d565b6000808773ffffffffffffffffffffffffffffffffffffffff16631626ba7e60e01b8888604051602401614b6a929190615d26565b604080517fffffffffffffffffffffffffffffffffffffffffffffffffffffffffffffffe08184030181529181526020820180517bffffffffffffffffffffffffffffffffffffffffffffffffffffffff167fffffffff00000000000000000000000000000000000000000000000000000000909416939093179092529051614bf39190615d3f565b600060405180830381855afa9150503d8060008114614c2e576040519150601f19603f3d011682016040523d82523d6000602084013e614c33565b606091505b5091509150818015614c46575080516020145b8015614ca8575080517f1626ba7e0000000000000000000000000000000000000000000000000000000090614c849083016020908101908401615cda565b7fffffffff0000000000000000000000000000000000000000000000000000000016145b98975050505050505050565b6000836bffffffffffffffffffffffff16836bffffffffffffffffffffffff1611158290614d0f576040517f08c379a0000000000000000000000000000000000000000000000000000000008152600401610eec91906152e9565b50614d1a8385615d5b565b949350505050565b6000614d4643604051806080016040528060448152602001615e0660449139615086565b905060008463ffffffff16118015614dad575073ffffffffffffffffffffffffffffffffffffffff8516600090815260076020526040812063ffffffff831691614d91600188615b40565b63ffffffff908116825260208201929092526040016000205416145b15614e435773ffffffffffffffffffffffffffffffffffffffff851660009081526007602052604081208391614de4600188615b40565b63ffffffff168152602081019190915260400160002080546bffffffffffffffffffffffff92909216640100000000027fffffffffffffffffffffffffffffffff000000000000000000000000ffffffff909216919091179055614f3e565b60408051808201825263ffffffff80841682526bffffffffffffffffffffffff808616602080850191825273ffffffffffffffffffffffffffffffffffffffff8b166000908152600782528681208b8616825290915294909420925183549451909116640100000000027fffffffffffffffffffffffffffffffff00000000000000000000000000000000909416911617919091179055614ee5846001615d80565b73ffffffffffffffffffffffffffffffffffffffff8616600090815260086020526040902080547fffffffffffffffffffffffffffffffffffffffffffffffffffffffff000000001663ffffffff929092169190911790555b604080516bffffffffffffffffffffffff80861682528416602082015273ffffffffffffffffffffffffffffffffffffffff8716917fdec2bacdd2f05b59de34da9b523dff8be42e5e38e818c82fdb0bae774387a724910160405180910390a25050505050565b600080614fb28486615da8565b9050846bffffffffffffffffffffffff16816bffffffffffffffffffffffff161015839061500d576040517f08c379a0000000000000000000000000000000000000000000000000000000008152600401610eec91906152e9565b50949350505050565b60008082516041141561504d5760208301516040840151606085015160001a615041878285856150c8565b9450945050505061507f565b825160401415615077576020830151604084015161506c8683836151e0565b93509350505061507f565b506000905060025b9250929050565b60008164010000000084106144df576040517f08c379a0000000000000000000000000000000000000000000000000000000008152600401610eec91906152e9565b6000807f7fffffffffffffffffffffffffffffff5d576e7357a4501ddfe92f46681b20a08311156150ff57506000905060036151d7565b8460ff16601b1415801561511757508460ff16601c14155b1561512857506000905060046151d7565b6040805160008082526020820180845289905260ff881692820192909252606081018690526080810185905260019060a0016020604051602081039080840390855afa15801561517c573d6000803e3d6000fd5b50506040517fffffffffffffffffffffffffffffffffffffffffffffffffffffffffffffffe0015191505073ffffffffffffffffffffffffffffffffffffffff81166151d0576000600192509250506151d7565b9150600090505b94509492505050565b6000807f7fffffffffffffffffffffffffffffffffffffffffffffffffffffffffffffff831660ff84901c601b0161521a878288856150c8565b935093505050935093915050565b7fffffffff0000000000000000000000000000000000000000000000000000000081168114611b1c57600080fd5b60006020828403121561526857600080fd5b813561110d81615228565b60005b8381101561528e578181015183820152602001615276565b838111156110695750506000910152565b600081518084526152b7816020860160208601615273565b601f017fffffffffffffffffffffffffffffffffffffffffffffffffffffffffffffffe0169290920160200192915050565b60208152600061110d602083018461529f565b60006020828403121561530e57600080fd5b5035919050565b73ffffffffffffffffffffffffffffffffffffffff81168114611b1c57600080fd5b6000806040838503121561534a57600080fd5b823561535581615315565b946020939093013593505050565b60008083601f84011261537557600080fd5b50813567ffffffffffffffff81111561538d57600080fd5b6020830191508360208260051b850101111561507f57600080fd5b600080600080604085870312156153be57600080fd5b843567ffffffffffffffff808211156153d657600080fd5b6153e288838901615363565b909650945060208701359150808211156153fb57600080fd5b5061540887828801615363565b95989497509550505050565b60008060006060848603121561542957600080fd5b833561543481615315565b9250602084013561544481615315565b929592945050506040919091013590565b6bffffffffffffffffffffffff81168114611b1c57600080fd5b6000806040838503121561548257600080fd5b823561548d81615315565b9150602083013561549d81615455565b809150509250929050565b600080604083850312156154bb57600080fd5b50508035926020909101359150565b6000602082840312156154dc57600080fd5b813561110d81615315565b7f4e487b7100000000000000000000000000000000000000000000000000000000600052604160045260246000fd5b604051601f82017fffffffffffffffffffffffffffffffffffffffffffffffffffffffffffffffe016810167ffffffffffffffff8111828210171561555d5761555d6154e7565b604052919050565b600067ffffffffffffffff82111561557f5761557f6154e7565b50601f017fffffffffffffffffffffffffffffffffffffffffffffffffffffffffffffffe01660200190565b60006155be6155b984615565565b615516565b90508281528383830111156155d257600080fd5b828260208301376000602084830101529392505050565b600082601f8301126155fa57600080fd5b61110d838335602085016155ab565b6000806000806080858703121561561f57600080fd5b843561562a81615315565b93506020850135925060408501359150606085013567ffffffffffffffff81111561565457600080fd5b615660878288016155e9565b91505092959194509250565b60006020828403121561567e57600080fd5b813567ffffffffffffffff81111561569557600080fd5b8201601f810184136156a657600080fd5b614d1a848235602084016155ab565b600080604083850312156156c857600080fd5b82356156d381615315565b9150602083013561549d81615315565b803561ffff81168114611bab57600080fd5b6000806040838503121561570857600080fd5b6156d3836156e3565b6000806020838503121561572457600080fd5b823567ffffffffffffffff81111561573b57600080fd5b61574785828601615363565b90969095509350505050565b6020808252825182820181905260009190848201906040850190845b818110156157a157835173ffffffffffffffffffffffffffffffffffffffff168352928401929184019160010161576f565b50909695505050505050565b8015158114611b1c57600080fd5b600080604083850312156157ce57600080fd5b82356157d981615315565b9150602083013561549d816157ad565b600080600080608085870312156157ff57600080fd5b843561580a81615315565b9350602085013561581a81615315565b925060408501359150606085013567ffffffffffffffff81111561565457600080fd5b6000602080830181845280855180835260408601915060408160051b870101925083870160005b828110156158b0577fffffffffffffffffffffffffffffffffffffffffffffffffffffffffffffffc088860301845261589e85835161529f565b94509285019290850190600101615864565b5092979650505050505050565b60008060008060008060c087890312156158d657600080fd5b86356158e181615315565b95506020870135945060408701359350606087013560ff8116811461590557600080fd5b9598949750929560808101359460a0909101359350915050565b6000806040838503121561593257600080fd5b823561593d81615315565b9150602083013563ffffffff8116811461549d57600080fd5b602080825282518282018190526000919060409081850190868401855b828110156159ae578151805173ffffffffffffffffffffffffffffffffffffffff168552860151868501529284019290850190600101615973565b5091979650505050505050565b7f4e487b7100000000000000000000000000000000000000000000000000000000600052603260045260246000fd5b6000602082840312156159fc57600080fd5b61110d826156e3565b7f4e487b7100000000000000000000000000000000000000000000000000000000600052601160045260246000fd5b60007fffffffffffffffffffffffffffffffffffffffffffffffffffffffffffffffff821415615a6657615a66615a05565b5060010190565b6000817fffffffffffffffffffffffffffffffffffffffffffffffffffffffffffffffff0483118215151615615aa557615aa5615a05565b500290565b7f4e487b7100000000000000000000000000000000000000000000000000000000600052601260045260246000fd5b600082615ae857615ae8615aaa565b500490565b600060208284031215615aff57600080fd5b815161110d81615455565b600060208284031215615b1c57600080fd5b815161110d81615315565b600060208284031215615b3957600080fd5b5051919050565b600063ffffffff83811690831681811015615b5d57615b5d615a05565b039392505050565b600063ffffffff80841680615b7c57615b7c615aaa565b92169190910492915050565b600060208284031215615b9a57600080fd5b815161110d816157ad565b60008083357fffffffffffffffffffffffffffffffffffffffffffffffffffffffffffffffe1843603018112615bda57600080fd5b83018035915067ffffffffffffffff821115615bf557600080fd5b60200191503681900382131561507f57600080fd5b8183823760009101908152919050565b600060208284031215615c2c57600080fd5b815167ffffffffffffffff811115615c4357600080fd5b8201601f81018413615c5457600080fd5b8051615c626155b982615565565b818152856020838501011115615c7757600080fd5b615c88826020830160208601615273565b95945050505050565b600073ffffffffffffffffffffffffffffffffffffffff808716835280861660208401525083604083015260806060830152615cd0608083018461529f565b9695505050505050565b600060208284031215615cec57600080fd5b815161110d81615228565b7f4e487b7100000000000000000000000000000000000000000000000000000000600052602160045260246000fd5b828152604060208201526000614d1a604083018461529f565b60008251615d51818460208701615273565b9190910192915050565b60006bffffffffffffffffffffffff83811690831681811015615b5d57615b5d615a05565b600063ffffffff808316818516808303821115615d9f57615d9f615a05565b01949350505050565b60006bffffffffffffffffffffffff808316818516808303821115615d9f57615d9f615a0556fe455243373231436865636b706f696e7461626c653a3a5f6d6f766544656c6567617465733a20616d6f756e74206f766572666c6f7773455243373231436865636b706f696e7461626c653a3a5f7772697465436865636b706f696e743a20626c6f636b206e756d62657220657863656564732033322062697473455243373231436865636b706f696e7461626c653a3a766f746573546f44656c65676174653a20616d6f756e7420657863656564732039362062697473455243373231436865636b706f696e7461626c653a3a5f6d6f766544656c6567617465733a20616d6f756e7420756e646572666c6f7773a2646970667358221220c3ff90fb34d51bc27eb361c6be4390dc86aa5db0caca6c7b8f4bba03b8b6d8d064736f6c63430008090033",
  "devdoc": {
    "kind": "dev",
    "methods": {
      "DOMAIN_SEPARATOR()": {
        "details": "Return the DOMAIN_SEPARATOR."
      },
      "approve(address,uint256)": {
        "params": {
          "id": "The id of the token.",
          "operator": "The address receiving the approval."
        }
      },
      "balanceOf(address)": {
        "params": {
          "owner": "The address to look for."
        },
        "returns": {
          "balance": "The number of tokens owned by the address."
        }
      },
      "constructor": {
        "details": "Create the Bleeps contract",
        "params": {
          "ens": "ENS address for the network the contract is deployed to",
          "imitialRoyaltyPer10Thousands": "amount of royalty in 10,000 basis point",
          "initialCheckpointingDisabler": "admin able to cancel checkpointing",
          "initialGuardian": "guardian able to immortalize rules",
          "initialMinterAdmin": "admin able to set the minter contract.",
          "initialOwner": "address that can set the ENS name of the contract and that can witthdraw ERC20 tokens sent by mistake here.",
          "initialRoyaltyAdmin": "admin able to update the royalty receiver and rates.",
          "initialRoyaltyReceiver": "receiver of royalties",
          "initialTokenURIAdmin": "admin able to update the tokenURI contract.",
          "initialTokenURIContract": "initial tokenURI contract that generate the metadata including the wav file.",
          "openseaProxyRegistry": "allow Bleeps to be sold on opensea without prior approval tx as long as the user have already an opensea proxy."
        }
      },
      "delegate(address)": {
        "params": {
          "delegatee": "The address to delegate votes to"
        }
      },
      "delegateBySig(address,uint256,uint256,uint8,bytes32,bytes32)": {
        "params": {
          "delegatee": "The address to delegate votes to",
          "expiry": "The time at which to expire the signature",
          "nonce": "The contract state required to match the signature",
          "r": "Half of the ECDSA signature pair",
          "s": "Half of the ECDSA signature pair",
          "v": "The recovery byte of the signature"
        }
      },
      "getApproved(uint256)": {
        "params": {
          "id": "The id of the token."
        },
        "returns": {
          "_0": "The address of the operator."
        }
      },
      "getCurrentVotes(address)": {
        "params": {
          "account": "The address to get votes balance"
        },
        "returns": {
          "_0": "The number of current votes for `account`"
        }
      },
      "getPastVotes(address,uint256)": {
        "details": "Block number must be a finalized block or else this function will revert to prevent misinformation.",
        "params": {
          "account": "The address of the account to check",
          "blockNumber": "The block number to get the vote balance at"
        },
        "returns": {
          "_0": "The number of votes the account had as of the given block"
        }
      },
      "getPriorVotes(address,uint256)": {
        "details": "Block number must be a finalized block or else this function will revert to prevent misinformation.",
        "params": {
          "account": "The address of the account to check",
          "blockNumber": "The block number to get the vote balance at"
        },
        "returns": {
          "_0": "The number of votes the account had as of the given block"
        }
      },
      "getVotes(address)": {
        "params": {
          "account": "The address to get votes balance"
        },
        "returns": {
          "_0": "The number of current votes for `account`"
        }
      },
      "isApprovedForAll(address,address)": {
        "params": {
          "operator": "The address of the operator.",
          "owner": "The address of the owner."
        },
        "returns": {
          "isOperator": "The status of the approval."
        }
      },
      "mint(uint16,address)": {
        "params": {
          "id": "bleep id which represent a pair of (note, instrument).",
          "to": "address that will receive the Bleep."
        }
      },
      "multiMint(uint16[],address[])": {
        "params": {
          "ids": "list of bleep id which represent each a pair of (note, instrument).",
          "tos": "addresses that will receive the Bleeps. (if only one, use for all)"
        }
      },
      "multicall(bytes[])": {
        "details": "The `msg.value` should not be trusted for any method callable from multicall.",
        "params": {
          "data": "The encoded function data for each of the calls to make to this contract."
        },
        "returns": {
          "results": "The results from each of the calls passed in via data."
        }
      },
      "nonces(address)": {
        "params": {
          "account": "the account to query"
        },
        "returns": {
          "nonce": "nonce"
        }
      },
      "nonces(uint256)": {
        "params": {
          "id": "token id to query"
        },
        "returns": {
          "nonce": "nonce"
        }
      },
      "ownerAndLastTransferBlockNumberList(uint256[])": {
        "params": {
          "ids": "The list of token ids to check."
        },
        "returns": {
          "ownersData": "The list of (owner, lastTransferBlockNumber) for each ids given as input."
        }
      },
      "ownerOf(uint256)": {
        "params": {
          "id": "The id of the token."
        },
        "returns": {
          "owner": "The address of the token owner."
        }
      },
      "owners(uint256[])": {
        "params": {
          "ids": "The list if token ids to check."
        },
        "returns": {
          "addresses": "The list of addresses, corresponding to the list of ids."
        }
      },
      "royaltyInfo(uint256,uint256)": {
        "params": {
          "id": "- the token queried for royalty information.",
          "salePrice": "- the sale price of the token specified by id."
        },
        "returns": {
          "receiver": "- address of who should be sent the royalty payment.",
          "royaltyAmount": "- the royalty payment amount for salePrice."
        }
      },
      "safeTransferFrom(address,address,uint256)": {
        "params": {
          "from": "The send of the token.",
          "id": "The id of the token.",
          "to": "The recipient of the token."
        }
      },
      "safeTransferFrom(address,address,uint256,bytes)": {
        "params": {
          "data": "Additional data.",
          "from": "The sender of the token.",
          "id": "The id of the token.",
          "to": "The recipient of the token."
        }
      },
      "setApprovalForAll(address,bool)": {
        "params": {
          "approved": "The determination of the approval.",
          "operator": "The address receiving the approval."
        }
      },
      "setCheckpointingDisabler(address)": {
        "params": {
          "newCheckpointingDisabler": "new address that can disable the use of checkpointing. can be the zero address to remove the ability to change."
        }
      },
      "setRoyaltyParameters(address,uint96)": {
        "params": {
          "newReceiver": "the address that should receive the royalty proceeds.",
          "royaltyPer10Thousands": "the share of the salePrice (in 1/10000) given to the receiver."
        }
      },
      "setTokenURIContract(address)": {
        "params": {
          "newTokenURIContract": "The address of the new tokenURI contract."
        }
      },
      "sound(uint256)": {
        "params": {
          "id": "bleep id which represent a pair of (note, instrument)."
        },
        "returns": {
          "instrument": "the instrument index (0 to 16). At launch there is only 9 instrument but the DAO could add more (up to 16 in total).",
          "note": "the note index (0 to 63) starting from C2 to D#7"
        }
      },
      "supportsInterface(bytes4)": {
        "params": {
          "id": "The id of the interface."
        },
        "returns": {
          "_0": "Whether the interface is supported."
        }
      },
      "tokenNonces(uint256)": {
        "params": {
          "id": "token id to query"
        },
        "returns": {
          "nonce": "nonce"
        }
      },
      "transferFrom(address,address,uint256)": {
        "params": {
          "from": "The sender of the token.",
          "id": "The id of the token.",
          "to": "The recipient of the token."
        }
      },
      "votesToDelegate(address)": {
        "details": "Used when calling `_delegate()`"
      }
    },
    "stateVariables": {
      "checkpointingDisabler": {
        "details": "address that is able to switch off the use of checkpointing, this will make token transfers much cheaper in term of gas, but require the design of a new governance system."
      }
    },
    "version": 1
  },
  "userdoc": {
    "events": {
      "DelegateChanged(address,address,address)": {
        "notice": "An event thats emitted when an account changes its delegate"
      },
      "DelegateVotesChanged(address,uint256,uint256)": {
        "notice": "An event thats emitted when a delegate account's vote balance changes"
      }
    },
    "kind": "user",
    "methods": {
      "DELEGATION_TYPEHASH()": {
        "notice": "The EIP-712 typehash for the delegation struct used by the contract"
      },
      "approve(address,uint256)": {
        "notice": "Approve an operator to transfer a specific token on the senders behalf."
      },
      "balanceOf(address)": {
        "notice": "Get the number of tokens owned by an address."
      },
      "checkpoints(address,uint32)": {
        "notice": "A record of votes checkpoints for each account, by index"
      },
      "contractURI()": {
        "notice": "Returns the Uniform Resource Identifier (URI) for the token collection."
      },
      "decimals()": {
        "notice": "Defines decimals as per ERC-20 convention to make integrations with 3rd party governance platforms easier"
      },
      "delegate(address)": {
        "notice": "Delegate votes from `msg.sender` to `delegatee`"
      },
      "delegateBySig(address,uint256,uint256,uint8,bytes32,bytes32)": {
        "notice": "Delegates votes from signatory to `delegatee`"
      },
      "delegates(address)": {
        "notice": "Overrides the standard `Comp.sol` delegates mapping to return the delegator's own address if they haven't delegated. This avoids having to delegate to oneself."
      },
      "disableTheUseOfCheckpoints()": {
        "notice": "disable checkpointing overhead This can be used if the governance system can switch to use ownerAndLastTransferBlockNumberOf instead of checkpoints"
      },
      "getApproved(uint256)": {
        "notice": "Get the approved operator for a specific token."
      },
      "getCurrentVotes(address)": {
        "notice": "Gets the current votes balance for `account`"
      },
      "getPastVotes(address,uint256)": {
        "notice": "Determine the prior number of votes for an account as of a block number"
      },
      "getPriorVotes(address,uint256)": {
        "notice": "Determine the prior number of votes for an account as of a block number"
      },
      "getVotes(address)": {
        "notice": "Gets the current votes balance for `account`"
      },
      "guardian()": {
        "notice": "guardian has some special vetoing power to guide the direction of the DAO. It can only remove rights from the DAO. It could be used to immortalize rules. For example: the royalty setup could be frozen."
      },
      "isApprovedForAll(address,address)": {
        "notice": "Check if the sender approved the operator."
      },
      "mint(uint16,address)": {
        "notice": "mint one of bleep if not already minted. Can only be called by `minter`."
      },
      "minter()": {
        "notice": "address allowed to mint, allow the sale contract to be separated from the token contract that can focus on the core logic Once all 1024 potential bleeps (there could be less, at minimum there are 576 bleeps) are minted, no minter can mint anymore"
      },
      "minterAdmin()": {
        "notice": "minterAdmin can update the minter. At the time being there is 576 Bleeps but there is space for extra instrument and the upper limit is 1024. could be given to the DAO later so instrument can be added, the sale of these new bleeps could benenfit the DAO too and add new members."
      },
      "multiMint(uint16[],address[])": {
        "notice": "mint multiple bleeps if not already minted. Can only be called by `minter`."
      },
      "multicall(bytes[])": {
        "notice": "Call multiple functions in the current contract and return the data from all of them if they all succeed."
      },
      "name()": {
        "notice": "A descriptive name for a collection of NFTs in this contract."
      },
      "nonces(address)": {
        "notice": "return the account nonce, used for approvalForAll permit or other account related matter"
      },
      "nonces(uint256)": {
        "notice": "return the token nonce, used for individual approve permit or other token related matter"
      },
      "numCheckpoints(address)": {
        "notice": "The number of checkpoints for each account"
      },
      "owner()": {
        "notice": "the address of the current owner, that is able to set ENS names and withdraw ERC20 owned by the contract."
      },
      "ownerAndLastTransferBlockNumberList(uint256[])": {
        "notice": "Get the list of owner of a token and the blockNumber of its last transfer, useful to voting mechanism."
      },
      "ownerOf(uint256)": {
        "notice": "Get the owner of a token."
      },
      "owners(uint256[])": {
        "notice": "give the list of owners for the list of ids given."
      },
      "royaltyAdmin()": {
        "notice": "address allowed to set royalty parameters"
      },
      "royaltyInfo(uint256,uint256)": {
        "notice": "Called with the sale price to determine how much royalty is owed and to whom."
      },
      "safeTransferFrom(address,address,uint256)": {
        "notice": "Transfer a token between 2 addresses letting the receiver know of the transfer."
      },
      "safeTransferFrom(address,address,uint256,bytes)": {
        "notice": "Transfer a token between 2 addresses letting the receiver knows of the transfer."
      },
      "setApprovalForAll(address,bool)": {
        "notice": "Set the approval for an operator to manage all the tokens of the sender."
      },
      "setCheckpointingDisabler(address)": {
        "notice": "update the address that can disable the use of checkpinting, can be used to disable it entirely."
      },
      "setGuardian(address)": {
        "notice": "set the new guardian that can freeze the other admins (except owner). Can only be called by the current guardian."
      },
      "setMinter(address)": {
        "notice": "set the new minter that can mint Bleeps (up to 1024). Can only be called by the minter admin."
      },
      "setMinterAdmin(address)": {
        "notice": "set the new minterAdmin that can set the minter for Bleeps Can only be called by the current minter admin."
      },
      "setRoyaltyAdmin(address)": {
        "notice": "set the new royaltyAdmin that can change the royalties Can only be called by the current royalty admin."
      },
      "setRoyaltyParameters(address,uint96)": {
        "notice": "set a new royalty receiver and rate, Can only be set by the `royaltyAdmin`."
      },
      "setTokenURIAdmin(address)": {
        "notice": "set the new tokenURIAdmin that can change the tokenURI Can only be called by the current tokenURI admin."
      },
      "setTokenURIContract(address)": {
        "notice": "set a new tokenURI contract, that generate the metadata including the wav file, Can only be set by the `tokenURIAdmin`."
      },
      "sound(uint256)": {
        "notice": "gives the note and instrument for a particular Bleep id."
      },
      "supportsInterface(bytes4)": {
        "notice": "Check if the contract supports an interface."
      },
      "symbol()": {
        "notice": "An abbreviated name for NFTs in this contract."
      },
      "tokenNonces(uint256)": {
        "notice": "return the token nonce, used for individual approve permit or other token related matter"
      },
      "tokenURI(uint256)": {
        "notice": "Returns the Uniform Resource Identifier (URI) for token `id`."
      },
      "tokenURIAdmin()": {
        "notice": "tokenURIAdmin can update the tokenURI contract, this is intended to be relinquished once the tokenURI has been heavily tested in the wild and that no modification are needed."
      },
      "tokenURIContract()": {
        "notice": "the contract that actually generate the sound (and all metadata via the a data: uri via tokenURI call)."
      },
      "transferFrom(address,address,uint256)": {
        "notice": "Transfer a token between 2 addresses."
      },
      "transferOwnership(address)": {
        "notice": "Transfers ownership of the contract to a new account (`newOwner`). Can only be called by the current owner."
      },
      "votesToDelegate(address)": {
        "notice": "The votes a delegator can delegate, which is the current balance of the delegator."
      }
    },
    "version": 1
  },
  "storageLayout": {
    "storage": [
      {
        "astId": 6429,
        "contract": "src/bleeps/Bleeps.sol:Bleeps",
        "label": "_owners",
        "offset": 0,
        "slot": "0",
        "type": "t_mapping(t_uint256,t_uint256)"
      },
      {
        "astId": 6433,
        "contract": "src/bleeps/Bleeps.sol:Bleeps",
        "label": "_balances",
        "offset": 0,
        "slot": "1",
        "type": "t_mapping(t_address,t_uint256)"
      },
      {
        "astId": 6439,
        "contract": "src/bleeps/Bleeps.sol:Bleeps",
        "label": "_operatorsForAll",
        "offset": 0,
        "slot": "2",
        "type": "t_mapping(t_address,t_mapping(t_address,t_bool))"
      },
      {
        "astId": 6443,
        "contract": "src/bleeps/Bleeps.sol:Bleeps",
        "label": "_operators",
        "offset": 0,
        "slot": "3",
        "type": "t_mapping(t_uint256,t_address)"
      },
      {
        "astId": 7373,
        "contract": "src/bleeps/Bleeps.sol:Bleeps",
        "label": "_userNonces",
        "offset": 0,
        "slot": "4",
        "type": "t_mapping(t_address,t_uint256)"
      },
      {
        "astId": 8075,
        "contract": "src/bleeps/Bleeps.sol:Bleeps",
        "label": "_useCheckpoints",
        "offset": 0,
        "slot": "5",
        "type": "t_bool"
      },
      {
        "astId": 8084,
        "contract": "src/bleeps/Bleeps.sol:Bleeps",
        "label": "_delegates",
        "offset": 0,
        "slot": "6",
        "type": "t_mapping(t_address,t_address)"
      },
      {
        "astId": 8097,
        "contract": "src/bleeps/Bleeps.sol:Bleeps",
        "label": "checkpoints",
        "offset": 0,
        "slot": "7",
        "type": "t_mapping(t_address,t_mapping(t_uint32,t_struct(Checkpoint)8089_storage))"
      },
      {
        "astId": 8102,
        "contract": "src/bleeps/Bleeps.sol:Bleeps",
        "label": "numCheckpoints",
        "offset": 0,
        "slot": "8",
        "type": "t_mapping(t_address,t_uint32)"
      },
      {
        "astId": 11531,
        "contract": "src/bleeps/Bleeps.sol:Bleeps",
        "label": "owner",
        "offset": 0,
        "slot": "9",
        "type": "t_address"
      },
      {
        "astId": 11534,
        "contract": "src/bleeps/Bleeps.sol:Bleeps",
        "label": "tokenURIAdmin",
        "offset": 0,
        "slot": "10",
        "type": "t_address"
      },
      {
        "astId": 11537,
        "contract": "src/bleeps/Bleeps.sol:Bleeps",
        "label": "royaltyAdmin",
        "offset": 0,
        "slot": "11",
        "type": "t_address"
      },
      {
        "astId": 11540,
        "contract": "src/bleeps/Bleeps.sol:Bleeps",
        "label": "minterAdmin",
        "offset": 0,
        "slot": "12",
        "type": "t_address"
      },
      {
        "astId": 11543,
        "contract": "src/bleeps/Bleeps.sol:Bleeps",
        "label": "minter",
        "offset": 0,
        "slot": "13",
        "type": "t_address"
      },
      {
        "astId": 11546,
        "contract": "src/bleeps/Bleeps.sol:Bleeps",
        "label": "guardian",
        "offset": 0,
        "slot": "14",
        "type": "t_address"
      },
      {
        "astId": 9829,
        "contract": "src/bleeps/Bleeps.sol:Bleeps",
        "label": "tokenURIContract",
        "offset": 0,
        "slot": "15",
        "type": "t_contract(ITokenURI)13404"
      },
      {
        "astId": 9837,
        "contract": "src/bleeps/Bleeps.sol:Bleeps",
        "label": "_royalty",
        "offset": 0,
        "slot": "16",
        "type": "t_struct(Royalty)9834_storage"
      },
      {
        "astId": 9840,
        "contract": "src/bleeps/Bleeps.sol:Bleeps",
        "label": "checkpointingDisabler",
        "offset": 0,
        "slot": "17",
        "type": "t_address"
      }
    ],
    "types": {
      "t_address": {
        "encoding": "inplace",
        "label": "address",
        "numberOfBytes": "20"
      },
      "t_bool": {
        "encoding": "inplace",
        "label": "bool",
        "numberOfBytes": "1"
      },
      "t_contract(ITokenURI)13404": {
        "encoding": "inplace",
        "label": "contract ITokenURI",
        "numberOfBytes": "20"
      },
      "t_mapping(t_address,t_address)": {
        "encoding": "mapping",
        "key": "t_address",
        "label": "mapping(address => address)",
        "numberOfBytes": "32",
        "value": "t_address"
      },
      "t_mapping(t_address,t_bool)": {
        "encoding": "mapping",
        "key": "t_address",
        "label": "mapping(address => bool)",
        "numberOfBytes": "32",
        "value": "t_bool"
      },
      "t_mapping(t_address,t_mapping(t_address,t_bool))": {
        "encoding": "mapping",
        "key": "t_address",
        "label": "mapping(address => mapping(address => bool))",
        "numberOfBytes": "32",
        "value": "t_mapping(t_address,t_bool)"
      },
      "t_mapping(t_address,t_mapping(t_uint32,t_struct(Checkpoint)8089_storage))": {
        "encoding": "mapping",
        "key": "t_address",
        "label": "mapping(address => mapping(uint32 => struct ERC721Checkpointable.Checkpoint))",
        "numberOfBytes": "32",
        "value": "t_mapping(t_uint32,t_struct(Checkpoint)8089_storage)"
      },
      "t_mapping(t_address,t_uint256)": {
        "encoding": "mapping",
        "key": "t_address",
        "label": "mapping(address => uint256)",
        "numberOfBytes": "32",
        "value": "t_uint256"
      },
      "t_mapping(t_address,t_uint32)": {
        "encoding": "mapping",
        "key": "t_address",
        "label": "mapping(address => uint32)",
        "numberOfBytes": "32",
        "value": "t_uint32"
      },
      "t_mapping(t_uint256,t_address)": {
        "encoding": "mapping",
        "key": "t_uint256",
        "label": "mapping(uint256 => address)",
        "numberOfBytes": "32",
        "value": "t_address"
      },
      "t_mapping(t_uint256,t_uint256)": {
        "encoding": "mapping",
        "key": "t_uint256",
        "label": "mapping(uint256 => uint256)",
        "numberOfBytes": "32",
        "value": "t_uint256"
      },
      "t_mapping(t_uint32,t_struct(Checkpoint)8089_storage)": {
        "encoding": "mapping",
        "key": "t_uint32",
        "label": "mapping(uint32 => struct ERC721Checkpointable.Checkpoint)",
        "numberOfBytes": "32",
        "value": "t_struct(Checkpoint)8089_storage"
      },
      "t_struct(Checkpoint)8089_storage": {
        "encoding": "inplace",
        "label": "struct ERC721Checkpointable.Checkpoint",
        "members": [
          {
            "astId": 8086,
            "contract": "src/bleeps/Bleeps.sol:Bleeps",
            "label": "fromBlock",
            "offset": 0,
            "slot": "0",
            "type": "t_uint32"
          },
          {
            "astId": 8088,
            "contract": "src/bleeps/Bleeps.sol:Bleeps",
            "label": "votes",
            "offset": 4,
            "slot": "0",
            "type": "t_uint96"
          }
        ],
        "numberOfBytes": "32"
      },
      "t_struct(Royalty)9834_storage": {
        "encoding": "inplace",
        "label": "struct Bleeps.Royalty",
        "members": [
          {
            "astId": 9831,
            "contract": "src/bleeps/Bleeps.sol:Bleeps",
            "label": "receiver",
            "offset": 0,
            "slot": "0",
            "type": "t_address"
          },
          {
            "astId": 9833,
            "contract": "src/bleeps/Bleeps.sol:Bleeps",
            "label": "per10Thousands",
            "offset": 20,
            "slot": "0",
            "type": "t_uint96"
          }
        ],
        "numberOfBytes": "32"
      },
      "t_uint256": {
        "encoding": "inplace",
        "label": "uint256",
        "numberOfBytes": "32"
      },
      "t_uint32": {
        "encoding": "inplace",
        "label": "uint32",
        "numberOfBytes": "4"
      },
      "t_uint96": {
        "encoding": "inplace",
        "label": "uint96",
        "numberOfBytes": "12"
      }
    }
  }
}