{
  "address": "0xb78591b0783d1C16451435A8d279Bd10342dd567",
  "abi": [
    {
      "inputs": [
        {
          "internalType": "contract Bleeps",
          "name": "bleeps",
          "type": "address"
        },
        {
          "internalType": "uint256",
          "name": "price",
          "type": "uint256"
        },
        {
          "internalType": "uint256",
          "name": "whitelistPrice",
          "type": "uint256"
        },
        {
          "internalType": "uint256",
          "name": "whitelistTimeLimit",
          "type": "uint256"
        },
        {
          "internalType": "bytes32",
          "name": "whitelistMerkleRoot",
          "type": "bytes32"
        },
        {
          "internalType": "address payable",
          "name": "projectCreator",
          "type": "address"
        },
        {
          "internalType": "uint256",
          "name": "creatorFeePer10000",
          "type": "uint256"
        },
        {
          "internalType": "address payable",
          "name": "saleRecipient",
          "type": "address"
        },
        {
          "internalType": "uint256",
          "name": "deploymentCostToPay",
          "type": "uint256"
        },
        {
          "internalType": "contract IERC721",
          "name": "mandalas",
          "type": "address"
        },
        {
          "internalType": "uint256",
          "name": "mandalasDiscountPercentage",
          "type": "uint256"
        },
        {
          "internalType": "uint256",
          "name": "uptoInstr",
          "type": "uint256"
        }
      ],
      "stateMutability": "nonpayable",
      "type": "constructor"
    },
    {
      "inputs": [
        {
          "internalType": "uint16",
          "name": "id",
          "type": "uint16"
        },
        {
          "internalType": "address",
          "name": "to",
          "type": "address"
        }
      ],
      "name": "creatorMint",
      "outputs": [],
      "stateMutability": "nonpayable",
      "type": "function"
    },
    {
      "inputs": [
        {
          "internalType": "uint16[]",
          "name": "ids",
          "type": "uint16[]"
        },
        {
          "internalType": "address",
          "name": "to",
          "type": "address"
        }
      ],
      "name": "creatorMultiMint",
      "outputs": [],
      "stateMutability": "nonpayable",
      "type": "function"
    },
    {
      "inputs": [
        {
          "internalType": "uint256",
          "name": "id",
          "type": "uint256"
        }
      ],
      "name": "isOpenForSale",
      "outputs": [
        {
          "internalType": "bool",
          "name": "",
          "type": "bool"
        }
      ],
      "stateMutability": "view",
      "type": "function"
    },
    {
      "inputs": [
        {
          "internalType": "uint256",
          "name": "passId",
          "type": "uint256"
        }
      ],
      "name": "isPassUsed",
      "outputs": [
        {
          "internalType": "bool",
          "name": "",
          "type": "bool"
        }
      ],
      "stateMutability": "view",
      "type": "function"
    },
    {
      "inputs": [
        {
          "internalType": "uint256",
          "name": "id",
          "type": "uint256"
        }
      ],
      "name": "isReserved",
      "outputs": [
        {
          "internalType": "bool",
          "name": "",
          "type": "bool"
        }
      ],
      "stateMutability": "pure",
      "type": "function"
    },
    {
      "inputs": [
        {
          "internalType": "uint16",
          "name": "id",
          "type": "uint16"
        },
        {
          "internalType": "address",
          "name": "to",
          "type": "address"
        }
      ],
      "name": "mint",
      "outputs": [],
      "stateMutability": "payable",
      "type": "function"
    },
    {
      "inputs": [
        {
          "internalType": "uint16",
          "name": "id",
          "type": "uint16"
        },
        {
          "internalType": "address",
          "name": "to",
          "type": "address"
        },
        {
          "internalType": "uint256",
          "name": "passId",
          "type": "uint256"
        },
        {
          "internalType": "bytes32[]",
          "name": "proof",
          "type": "bytes32[]"
        }
      ],
      "name": "mintWithPassId",
      "outputs": [],
      "stateMutability": "payable",
      "type": "function"
    },
    {
      "inputs": [
        {
          "internalType": "uint16",
          "name": "id",
          "type": "uint16"
        },
        {
          "internalType": "address",
          "name": "to",
          "type": "address"
        },
        {
          "internalType": "uint256",
          "name": "passId",
          "type": "uint256"
        },
        {
          "internalType": "bytes",
          "name": "signature",
          "type": "bytes"
        },
        {
          "internalType": "bytes32[]",
          "name": "proof",
          "type": "bytes32[]"
        }
      ],
      "name": "mintWithSalePass",
      "outputs": [],
      "stateMutability": "payable",
      "type": "function"
    },
    {
      "inputs": [
        {
          "internalType": "address",
          "name": "purchaser",
          "type": "address"
        },
        {
          "internalType": "uint256",
          "name": "passId",
          "type": "uint256"
        },
        {
          "internalType": "uint256[]",
          "name": "ids",
          "type": "uint256[]"
        }
      ],
      "name": "ownersAndPriceInfo",
      "outputs": [
        {
          "internalType": "address[]",
          "name": "addresses",
          "type": "address[]"
        },
        {
          "internalType": "uint256",
          "name": "price",
          "type": "uint256"
        },
        {
          "internalType": "uint256",
          "name": "whitelistPrice",
          "type": "uint256"
        },
        {
          "internalType": "uint256",
          "name": "whitelistTimeLimit",
          "type": "uint256"
        },
        {
          "internalType": "bytes32",
          "name": "whitelistMerkleRoot",
          "type": "bytes32"
        },
        {
          "internalType": "uint256",
          "name": "mandalasDiscountPercentage",
          "type": "uint256"
        },
        {
          "internalType": "bool",
          "name": "hasMandalas",
          "type": "bool"
        },
        {
          "internalType": "bool",
          "name": "passUsed",
          "type": "bool"
        },
        {
          "internalType": "uint256",
          "name": "uptoInstr",
          "type": "uint256"
        }
      ],
      "stateMutability": "view",
      "type": "function"
    },
    {
      "inputs": [
        {
          "internalType": "address",
          "name": "purchaser",
          "type": "address"
        }
      ],
      "name": "priceInfo",
      "outputs": [
        {
          "internalType": "uint256",
          "name": "price",
          "type": "uint256"
        },
        {
          "internalType": "uint256",
          "name": "whitelistPrice",
          "type": "uint256"
        },
        {
          "internalType": "uint256",
          "name": "whitelistTimeLimit",
          "type": "uint256"
        },
        {
          "internalType": "bytes32",
          "name": "whitelistMerkleRoot",
          "type": "bytes32"
        },
        {
          "internalType": "uint256",
          "name": "mandalasDiscountPercentage",
          "type": "uint256"
        },
        {
          "internalType": "bool",
          "name": "hasMandalas",
          "type": "bool"
        }
      ],
      "stateMutability": "view",
      "type": "function"
    }
  ],
  "transactionHash": "0x6feaa5d5c35dbc9785aea95e3bcbe63ad71539dd7ff8ff0b580bdfcbece3a574",
  "args": [
    "0x204B042aDe7b0e42717055Fe2dD45E548f033a83",
    "100000000000000000",
    "100000000000000000",
    1637361038,
    "0xc6b5c76271b48c1b7c88158cd21ade23080ee3c5210a75d015275eef5fac70ef",
    "0xE53cd71271AcAdbeb0f64d9c8C62bBdDc8cA9e66",
    2000,
    "0xFe8d39C8EBC72601d8dcBD21b1BA42Dc18FffD04",
    "3500000000000000000",
    "0x4A219d8DE28C125edd354bBCc505cdc6eed771D7",
    0,
    2
  ],
  "linkedData": {
    "leaves": [
      {
        "passId": "0",
        "signer": "0xB7F9973f3Bf71FE820431Da5cCF08aA3B1ed48B4"
      },
      {
        "passId": "1",
        "signer": "0xa9E79d3c33a74E05320878A76A5Acc8952D129a3"
      },
      {
        "passId": "2",
        "signer": "0x26E99b435618df1cA502110653Ea690b5A96eA35"
      },
      {
        "passId": "3",
        "signer": "0x14679e712106a5692b336c8f099469b0dabC83bC"
      },
      {
        "passId": "4",
        "signer": "0x6d8659C6F5Bb61410C4efef259B9278e2671E5c0"
      },
      {
        "passId": "5",
        "signer": "0x54a45F8C7B8C82ff440AC3577d1c0c2e40431ef1"
      },
      {
        "passId": "6",
        "signer": "0x7E41D4b1768fFD249d1dE5c0183d1A17BCfb3403"
      },
      {
        "passId": "7",
        "signer": "0x154896B7c53e4Ee30a41772A6E4a0A1F97AC4c2F"
      },
      {
        "passId": "8",
        "signer": "0x4b8F19bCf10756Ac6Fe0CE1D534855D34b2C347D"
      },
      {
        "passId": "9",
        "signer": "0xD6B81d2471dB1688eaF240C188C2291EB71b2963"
      },
      {
        "passId": "10",
        "signer": "0xE7b75A7379915479CD0B0c66b10bDFb3eB8367ee"
      },
      {
        "passId": "11",
        "signer": "0x63602A8566B6c98be84f8a230Ab406e52c64cc1f"
      },
      {
        "passId": "12",
        "signer": "0x36D770D6B321E01005E039fb10341cc9F0d059b8"
      },
      {
        "passId": "13",
        "signer": "0x202ccEf631693Ee3f7edED3bB5282BfC91774251"
      },
      {
        "passId": "14",
        "signer": "0xA43F014741bfe4CDD4Db450906574C7247444aF4"
      },
      {
        "passId": "15",
        "signer": "0x86Ab810789C5d08B511d857767a7e89acbf37bfb"
      },
      {
        "passId": "16",
        "signer": "0x28B5417BAa436557CF3c9c4D3025657FFfF00730"
      },
      {
        "passId": "17",
        "signer": "0xaD109A03Fe79498Aa4A732bE7f36EcAe8beb402e"
      },
      {
        "passId": "18",
        "signer": "0x47cb1477754287508bD6f6B28660179e464a2046"
      },
      {
        "passId": "19",
        "signer": "0xD32Af29907CA99dF8e963453935D6e7b64994aE5"
      },
      {
        "passId": "20",
        "signer": "0x226B834C6EF98dc5C38B93CDC694D26D2AFcbD3C"
      },
      {
        "passId": "21",
        "signer": "0xa8a60e154AB1Ab3FED04Db4E2C8d073D3f62dF8A"
      },
      {
        "passId": "22",
        "signer": "0xfdE84CB04612c83B35E3258Cd1B396edb79457f4"
      },
      {
        "passId": "23",
        "signer": "0x81d10951EA1fee123F6c40868A9A341c90662A7A"
      },
      {
        "passId": "24",
        "signer": "0x85ad384556F451B1bdaf6A2fC0b6112997622A73"
      },
      {
        "passId": "25",
        "signer": "0x356c3C66f53E6DfCa982ad82c98aE5d9D513D7c0"
      },
      {
        "passId": "26",
        "signer": "0xf73ea02F806f032e669E23CC2659197dc4e20272"
      },
      {
        "passId": "27",
        "signer": "0x35b1b43A0def695dD58cB9874B5e774611c87bC2"
      },
      {
        "passId": "28",
        "signer": "0x06BB0CFe3b49E024a39A3eFAeE5b63e154a60738"
      },
      {
        "passId": "29",
        "signer": "0x5a8b919E55cED2BF0305A3285bD9EF5151249289"
      },
      {
        "passId": "30",
        "signer": "0x79594C7476C9D528Ae8746E50d05f73D7c070237"
      },
      {
        "passId": "31",
        "signer": "0x16857C19e75eaB8B7861177eA6dBE263dde9Ba50"
      },
      {
        "passId": "32",
        "signer": "0x1E028F8fcE2defE04894e03D55e08c45EA83ed65"
      },
      {
        "passId": "33",
        "signer": "0x8644DBFc76f3EDcf7FBA8aa0730221E45ACe2eac"
      },
      {
        "passId": "34",
        "signer": "0x8CE2b55820b5f2B0e8a6a693D1d5a31869871e4E"
      },
      {
        "passId": "35",
        "signer": "0x6F10b22c452390Fb40DdD8674189F0D5c2649A53"
      },
      {
        "passId": "36",
        "signer": "0xa267a90223c5c301E5FE840cA75026fD804A7482"
      },
      {
        "passId": "37",
        "signer": "0x364f028DC8075e33E19230dD637ee8202BcD71B2"
      },
      {
        "passId": "38",
        "signer": "0x2B87629f62dE67a36690ED67de8F2dCE64CF8Eed"
      },
      {
        "passId": "39",
        "signer": "0x71065E99Ed660288D83E90BC4c525B4b48A65772"
      },
      {
        "passId": "40",
        "signer": "0x537a14dd6270693186Df6407d77d758526Dac060"
      },
      {
        "passId": "41",
        "signer": "0x14E217eF97e9b12f1B15304F3E8a580f397170F0"
      },
      {
        "passId": "42",
        "signer": "0x2FfbBe371C49C2644D33323BA26eB7e059FDF533"
      },
      {
        "passId": "43",
        "signer": "0x80772a4d7AC635DEc9E4f1f25624FFF4FcCF5899"
      },
      {
        "passId": "44",
        "signer": "0x928622670A4d71A0CD03c1517CBABd2260B4B3bf"
      },
      {
        "passId": "45",
        "signer": "0x6003EB89A4261b6e8C7aB1Cb8D2882f94090FAbc"
      },
      {
        "passId": "46",
        "signer": "0xD9FCF52970F88D88D475e85B2398983DF77CD6BD"
      },
      {
        "passId": "47",
        "signer": "0x029cf68C6ba4D2D7b5fef60eD1c8484478d941F7"
      },
      {
        "passId": "48",
        "signer": "0x71ddD0f31CAB70Fe583F9242b3d590C2679699A9"
      },
      {
        "passId": "49",
        "signer": "0x72D3cca3d2262d8C6387217C54832f5Af1e47dC4"
      },
      {
        "passId": "50",
        "signer": "0x930Aacc4Fe51BA1cEa0995b8B54D28B8dBFc207D"
      },
      {
        "passId": "51",
        "signer": "0x91d34f05DF33f6B715f2278e90eDf564686A81cC"
      },
      {
        "passId": "52",
        "signer": "0x9348e8A2d3E3Ec93527db50fDd6ac4BC10e82Aab"
      },
      {
        "passId": "53",
        "signer": "0xA0Fc8e100ad3F6A34e41F73fF3049A2BAd7126eD"
      },
      {
        "passId": "54",
        "signer": "0x67CC0739E6A7435f893222F5B71b4068d2CBAADb"
      },
      {
        "passId": "55",
        "signer": "0x1f64Dd20E433A9c586bF5b03b98Ff66604379356"
      },
      {
        "passId": "56",
        "signer": "0x8DEa130098F1365d3172c4267fC44fA27c33CeBE"
      },
      {
        "passId": "57",
        "signer": "0x2Fa225932cfa124546457bd73aB8D8502Caf36Cd"
      },
      {
        "passId": "58",
        "signer": "0x50bA1A4897E4672ee9C8982dE51175AF08d3Ff3d"
      },
      {
        "passId": "59",
        "signer": "0xF29f86810a6ddE2E022ee5Ad277aC2e20f1B9012"
      },
      {
        "passId": "60",
        "signer": "0xe7f19Df8778dE2955343926AC4FC35697c3d6381"
      },
      {
        "passId": "61",
        "signer": "0x242F59f30991E98949eF6c211788F6348A17558C"
      },
      {
        "passId": "62",
        "signer": "0x42916CfA915eC21236Dea75d1753bcEC78D16847"
      },
      {
        "passId": "63",
        "signer": "0xAaBDEbBcceBc13Fd95f9d2190600F887165F94D0"
      },
      {
        "passId": "64",
        "signer": "0x4Ba4E8B438AB24ee3b080dD2C7882E5c12CB6d7E"
      },
      {
        "passId": "65",
        "signer": "0xaF727082ef875F5EF3c42851A7691Fa5dE8e07F9"
      },
      {
        "passId": "66",
        "signer": "0xE09De1cf0F316c5436865b094D7bd8A32ff01Dc1"
      },
      {
        "passId": "67",
        "signer": "0xA323fbfA30a281AdC4FC29590004a59380aEF9C4"
      },
      {
        "passId": "68",
        "signer": "0xa24d673971F5fe69b0F000E6605B1f04f4F300f5"
      },
      {
        "passId": "69",
        "signer": "0xD5a89b4607032158A0e2d844dB183B1Ee580cfa3"
      },
      {
        "passId": "70",
        "signer": "0xF1c163DC76705c4F3779786c9BcCBaDDC0747995"
      },
      {
        "passId": "71",
        "signer": "0x8BD5775bd557ab0e25fB93d3B535cBEB865Bd786"
      },
      {
        "passId": "72",
        "signer": "0xEff28A9ba1D809650086D83EF1866622a6B90320"
      },
      {
        "passId": "73",
        "signer": "0x2ad625D4B8eBfc87DBc591CC92bd38d4e542e224"
      },
      {
        "passId": "74",
        "signer": "0xC2B6BA5F0260a504eeb8cc5dDcff36584d07B0Fb"
      },
      {
        "passId": "75",
        "signer": "0x363a28dD5c10218538Cf8c19697D458DD1a4c3EC"
      },
      {
        "passId": "76",
        "signer": "0x46c59804b09d0aE55c144a89E780AcCF318FbdE3"
      },
      {
        "passId": "77",
        "signer": "0x4F81047D66F04fEF27779332ED92b3938ebb0D07"
      },
      {
        "passId": "78",
        "signer": "0xcc29A57d5310c1aa68a202D37F0D226920543e98"
      },
      {
        "passId": "79",
        "signer": "0x3ed689024925Ab19DBE65783E5C31b327E01E103"
      },
      {
        "passId": "80",
        "signer": "0xc61dcE7258Ac13406b6Ad5b4526314eF4a9f567b"
      },
      {
        "passId": "81",
        "signer": "0xEB33a8D151842A4B3a39633dF37deDB2df6b71AA"
      },
      {
        "passId": "82",
        "signer": "0x838a49c7583eD62594844EfAe196900D9eAE6300"
      },
      {
        "passId": "83",
        "signer": "0xE9A402b25b5eb45DfAD23654c69738Cbe352C3A0"
      },
      {
        "passId": "84",
        "signer": "0x65F0AdBE13c7ae634a02596c2192c51fAc45f10b"
      },
      {
        "passId": "85",
        "signer": "0x48ee523F78c0ff83ca38AE561F7Bc72D3488d518"
      },
      {
        "passId": "86",
        "signer": "0x21C69b5d90e062791FF7DAC2D699D325cF935aBC"
      },
      {
        "passId": "87",
        "signer": "0xF1520B142e9b2c450B3785cDD30fD2d0924B5990"
      },
      {
        "passId": "88",
        "signer": "0x2B76Bb2EB2E61452d6D2165c62aeB8F1f3F258E0"
      },
      {
        "passId": "89",
        "signer": "0xE7Aa2cfE214a9557953cED77943aD112D7ba2F73"
      },
      {
        "passId": "90",
        "signer": "0x58D0870913Fa39e0994bA995afb7a6D46A53B61F"
      },
      {
        "passId": "91",
        "signer": "0x6a2A2b588F2Eb98Efe1A4dB11c0974D45091bcB1"
      },
      {
        "passId": "92",
        "signer": "0x7c45876F0DbD60b6A7205aBB773FF9352601C263"
      },
      {
        "passId": "93",
        "signer": "0xe3CE8FbE5b9201d243C74848bb19D579A4c6274f"
      },
      {
        "passId": "94",
        "signer": "0x5e27f6326dc0afb9aA59280301D878fF9af9DD74"
      },
      {
        "passId": "95",
        "signer": "0xdf9d0ab455D6e56136c6C16E77994d4018638F01"
      },
      {
        "passId": "96",
        "signer": "0x265a4317B5C87335e10220D0335564Fe5bAAa2Af"
      },
      {
        "passId": "97",
        "signer": "0xFe8BaeC8922724625ac7daCaA4245C85BCf6F0A4"
      },
      {
        "passId": "98",
        "signer": "0xdacC715b1e92B82397aEf9e60e83544De42BD43e"
      },
      {
        "passId": "99",
        "signer": "0xe769631F8fd371176f9C9A988b0c9b0b29360a61"
      },
      {
        "passId": "100",
        "signer": "0xb9B7090d60Cc54F7c9A78C834E954F2023c13530"
      },
      {
        "passId": "101",
        "signer": "0x8c0c800147866CE2d0444C2197583172F9E6eD84"
      },
      {
        "passId": "102",
        "signer": "0xA28C39f2d6dF0040AF6e06c083733EE096b9Ec12"
      },
      {
        "passId": "103",
        "signer": "0xdd66484e70E0b7DDeF5b8567aFF94142C8f015c7"
      },
      {
        "passId": "104",
        "signer": "0x4823a9cc5b386D9D8C22598119cAFCCceCabAa0f"
      },
      {
        "passId": "105",
        "signer": "0xE867920D5bB38Ec777c915edEFA70a92b569Bba0"
      },
      {
        "passId": "106",
        "signer": "0xb44e49133636eE4fDADa487FB5BdC8a38bcf935A"
      },
      {
        "passId": "107",
        "signer": "0x052c323A7a9648B7bb4d7056eCD7339E343A5854"
      },
      {
        "passId": "108",
        "signer": "0xea657236000b20870A3D72Be69fa6ba4baFB5E37"
      },
      {
        "passId": "109",
        "signer": "0x4C3e835e2d243725045F175F5dD090C65e30977D"
      },
      {
        "passId": "110",
        "signer": "0xCF1C905bb234CCBf430C1c092E3A3B318839aa54"
      },
      {
        "passId": "111",
        "signer": "0x909EF65c53b472435A8769078D460ec5ff610091"
      },
      {
        "passId": "112",
        "signer": "0xff73472F2d0Bb80B43dEc15bdC5d91DF8e920414"
      },
      {
        "passId": "113",
        "signer": "0x885F9d7479732062E792CB79B95b749223a2d678"
      },
      {
        "passId": "114",
        "signer": "0x5BedF3cB898B36A4d4BB932697f0aD8f43d9AcB7"
      },
      {
        "passId": "115",
        "signer": "0xECA13D3dc4A99D7eE32DD7F165a5B81b64c29277"
      },
      {
        "passId": "116",
        "signer": "0x682C71cadb77CABeD2797BF0159e5E56f106506a"
      },
      {
        "passId": "117",
        "signer": "0xC4D4BD631141AC2F3De7D8e5AA35077577D255D0"
      },
      {
        "passId": "118",
        "signer": "0x04Bd5ac683cCA53e5599F9A17c2bbd229E6c4976"
      },
      {
        "passId": "119",
        "signer": "0x18C11e37055336Ae5e5C98faE118e04Ce1023D1a"
      },
      {
        "passId": "120",
        "signer": "0xD7F1584c69dA3d97828E1735f28b46321Cb51D7C"
      },
      {
        "passId": "121",
        "signer": "0x7d4De64Ec9db6f8913Ed384B4fB6150d5aeE01Ef"
      },
      {
        "passId": "122",
        "signer": "0x302Fee8373e909F575a98A2c13D865dBC1b2e4f4"
      },
      {
        "passId": "123",
        "signer": "0xBE2b5A7aAEdfF4E4876de2c3198C5497E6A4C0A3"
      },
      {
        "passId": "124",
        "signer": "0x62B53d3484892887820C4d558cbe0Cd308EFbb56"
      },
      {
        "passId": "125",
        "signer": "0xF55Ea192ec4E5eD436368F95a221Df8a3c3A2AbC"
      },
      {
        "passId": "126",
        "signer": "0x9c6E00f00E968c8F94512578f35FC5B3FE00840b"
      },
      {
        "passId": "127",
        "signer": "0xE23ebf43bd480637E04a30eFd90B1981b98ddDfa"
      },
      {
        "passId": "128",
        "signer": "0xcc92B4ec76d30894aBE5B34Ae8154962023e485d"
      },
      {
        "passId": "129",
        "signer": "0xdd36A0cC91a9a62Ea6FE798539b506EE9813Ab32"
      },
      {
        "passId": "130",
        "signer": "0x8687E4afBa5c25056e59241d90D0e1590b2e4fD4"
      },
      {
        "passId": "131",
        "signer": "0x9c146700c10b2cce6952F15Ac6683b48aeD2e2A5"
      },
      {
        "passId": "132",
        "signer": "0x4B3Fe28A7e722C0aAfB5Bb55A269C182f79D56EA"
      },
      {
        "passId": "133",
        "signer": "0x8424C02Df22bce3A980828751731521437b4eaC9"
      },
      {
        "passId": "134",
        "signer": "0x9661716D93944418e1128A3A44B8e49ab0dA9b12"
      },
      {
        "passId": "135",
        "signer": "0x910C4784699119e5Ad3b1deaf88494D2709cBA70"
      },
      {
        "passId": "136",
        "signer": "0x655ff492b7AAb9C655F20C93a28ff61d71eFE671"
      },
      {
        "passId": "137",
        "signer": "0xff37a3aC6264Fd9eA702A241873508b805ed9449"
      },
      {
        "passId": "138",
        "signer": "0x4BA4e94503EC594C9B9DA8f55ef0640A010a6A5c"
      },
      {
        "passId": "139",
        "signer": "0x5bf90d2f92F53f5C8C3c51B729593462D4C1eE28"
      },
      {
        "passId": "140",
        "signer": "0x1DC695Ae68Fd68FE1C3826381504936656A012Db"
      },
      {
        "passId": "141",
        "signer": "0x8083cbAa7E48b10bC97bE340389Bb6F52eA17790"
      },
      {
        "passId": "142",
        "signer": "0xF52154512d770ba27237B025159937178cc29825"
      },
      {
        "passId": "143",
        "signer": "0x1c646f03F9654a3B857FE4B6855c6950BE9766C1"
      },
      {
        "passId": "144",
        "signer": "0xE59d5563e2d70aD227562da3e9E0956b4559464C"
      },
      {
        "passId": "145",
        "signer": "0xe70d80C3ec95fFA94A3C1b3B22Ee974CaB138E5B"
      },
      {
        "passId": "146",
        "signer": "0x98CB2756D92b0f0872E21E1b421a136b0a6dd442"
      },
      {
        "passId": "147",
        "signer": "0xCf4007839eC28E571bf2D213Ce4D267A2c54716e"
      },
      {
        "passId": "148",
        "signer": "0x7a8AC2c968f8F662336e4a08d0d88A0BE2066a83"
      },
      {
        "passId": "149",
        "signer": "0xbbDa2b25C9960c91889F10750d00C911B6705a04"
      },
      {
        "passId": "150",
        "signer": "0x3870B7EdAC807e3C7C6493dFebe9B8065d9747ab"
      },
      {
        "passId": "151",
        "signer": "0x48655BCeE829B234dE33A1A313F1268dB64AD031"
      },
      {
        "passId": "152",
        "signer": "0x33fbb2715a2b9AAfb2839b8631FCA532D34c89a2"
      },
      {
        "passId": "153",
        "signer": "0x9528F60e76cf5a8d4e0557d8fB6F304Aa507c974"
      },
      {
        "passId": "154",
        "signer": "0x1b89958c634097F5f33Ba5bBC8B33A42210a54a8"
      },
      {
        "passId": "155",
        "signer": "0xac8E09B9c9DB60772D2Db3fbE801C2dfea40B321"
      },
      {
        "passId": "156",
        "signer": "0x374C5b2F82Ab82f1c172fd7D8c9f014c8C700290"
      },
      {
        "passId": "157",
        "signer": "0x0D73C6C23E7ce1BB729c96cBDD9958d7056b00a0"
      },
      {
        "passId": "158",
        "signer": "0xBe8440c3e7E00ae6405ca06F464b180D1EB4e50B"
      },
      {
        "passId": "159",
        "signer": "0x5eDeFaAcC8086A062430C4f670B3471735dd0A31"
      },
      {
        "passId": "160",
        "signer": "0x56cE526B77Ac6cFbCb6E1Fc0Affe2c9a26Fb4DE1"
      },
      {
        "passId": "161",
        "signer": "0x4EE87B7340CffF1656C1FA0b701672697CA115bd"
      },
      {
        "passId": "162",
        "signer": "0x10eD6e06e4349e8286031595e1d4999F520B7A10"
      },
      {
        "passId": "163",
        "signer": "0x90f4205E3Bff059D1CdcC5d7AEadcf26a5c8667F"
      },
      {
        "passId": "164",
        "signer": "0xF8271598066728B0eB5dbdc299678f6395bD818a"
      },
      {
        "passId": "165",
        "signer": "0x971F6108cDf033F0B8B09f541356331c7073CA6e"
      },
      {
        "passId": "166",
        "signer": "0x87A2FC9CC8e229e4AA781a09e80418018dcC012f"
      },
      {
        "passId": "167",
        "signer": "0xfB37D6D26AbC8a9cd384D8B2e3C6fD28Dac62402"
      },
      {
        "passId": "168",
        "signer": "0x38F47Fb0C20184d42E3842B274B08b7a95143b3d"
      },
      {
        "passId": "169",
        "signer": "0xB6f6Ae812dff90fdf7794DEb00c16B27A0b5D6c8"
      },
      {
        "passId": "170",
        "signer": "0x94116a9Eb8Bb95D4030342AF131310a672b5E709"
      },
      {
        "passId": "171",
        "signer": "0x1c0FD8F8f9f4842f93294849AcdCD43Ca4cB460b"
      },
      {
        "passId": "172",
        "signer": "0x3d25Cfcca6577837bfE4f3E3F2f920c8b116A6BF"
      },
      {
        "passId": "173",
        "signer": "0x8580B473496b291faCFB93847906B7d43d76A4a2"
      },
      {
        "passId": "174",
        "signer": "0xBc857745510EAaB69ecDfdb3BA2021856c039DdF"
      },
      {
        "passId": "175",
        "signer": "0xAD086E1efD75f9f4ba7E31711AbFc90B6476a93F"
      },
      {
        "passId": "176",
        "signer": "0x6c653e7faC7b8249655EaBfEA54E803662977Dbc"
      },
      {
        "passId": "177",
        "signer": "0x5E36d8c20f5E911D06aDA7D20A6d98BF9543beA1"
      },
      {
        "passId": "178",
        "signer": "0xa30FE75EAd818047699F602FFE56aC39580e6d87"
      },
      {
        "passId": "179",
        "signer": "0x6Cfb5232a9F79f10A7f92eDF2fC691fe6d7aafd4"
      },
      {
        "passId": "180",
        "signer": "0x42837cf61d064997d84771ea9B111f9b942f63F9"
      },
      {
        "passId": "181",
        "signer": "0x5677D5BB2f27fE19e4eF3bC59b4A718da6527cF2"
      },
      {
        "passId": "182",
        "signer": "0x1De84ac02D78b6dD3fCc568387dDa95d54b40f8f"
      },
      {
        "passId": "183",
        "signer": "0xA5ba35596a8bcd01109E4CE9D5ab13Dc5303D759"
      },
      {
        "passId": "184",
        "signer": "0x0fefD5052583Fc1C14A7Db0466E80B6155C79383"
      },
      {
        "passId": "185",
        "signer": "0x48960256aaF2Bfd91F8Ece4D3EC99EB1c87E5529"
      },
      {
        "passId": "186",
        "signer": "0xA4Bb72664d0a1337182c16009B56406286D6B565"
      },
      {
        "passId": "187",
        "signer": "0x4d848a2f053590493AD700A50959873E0b6F298D"
      },
      {
        "passId": "188",
        "signer": "0x62656daFD67DFd309a57DB4a4a8D02b5c433C3D4"
      },
      {
        "passId": "189",
        "signer": "0x1867A56dEa253570D3CA51F48417bc0e8FC5b0bb"
      },
      {
        "passId": "190",
        "signer": "0xC80331D49DdC538B6EAC030D2f21A2DA1EeA20C9"
      },
      {
        "passId": "191",
        "signer": "0x4D8E057bd50637232acaab068B115366ec484Dac"
      },
      {
        "passId": "192",
        "signer": "0xb6E431b04A8AfD00157BFc47BB264f6E5aD12330"
      },
      {
        "passId": "193",
        "signer": "0x8A39B475D46E6fEaf569F2FF425FfAF36087Ebd8"
      },
      {
        "passId": "194",
        "signer": "0xd572B1347E6F300EcE04a2eE315EbA357AA54fAB"
      },
      {
        "passId": "195",
        "signer": "0x00F0AEA7dcd7A84508881e7807779ab0D0167e5b"
      },
      {
        "passId": "196",
        "signer": "0x4C1762b81AcB0C4926EC3C8cF701D0F69cA0E555"
      },
      {
        "passId": "197",
        "signer": "0x5c403C311Cc29C79C7D2caaB4a46c024a55C7663"
      },
      {
        "passId": "198",
        "signer": "0xE9E808716fDd798dDf8D4C2c602E24836E917526"
      },
      {
        "passId": "199",
        "signer": "0xe5Bd6d644987fF9490aEC2bf6a699d7715FCA8dF"
      },
      {
        "passId": "200",
        "signer": "0x4784db1b6F719eAF1f4fD7221BD1112B3C5b6F32"
      },
      {
        "passId": "201",
        "signer": "0xd4A00C93D6EC5a6584922042c9dF39A607C07F4c"
      },
      {
        "passId": "202",
        "signer": "0x1f08e1d6288B924D0aBcFb2724c59622BBc938C1"
      },
      {
        "passId": "203",
        "signer": "0x08766250679638e09eD818B68C026B4cB0E592e8"
      },
      {
        "passId": "204",
        "signer": "0x7C2ae78676c5346bc7054CFE17B83277d40033A1"
      },
      {
        "passId": "205",
        "signer": "0xbc251e4Edf40d8f20aC7771E913aa72DaAF4778F"
      },
      {
        "passId": "206",
        "signer": "0xAB72C49C57C27a7af87fb969554236db2Ab607E1"
      },
      {
        "passId": "207",
        "signer": "0x8b4b43c5aa12E470B43B11b09f6E7fc92f9Fb887"
      },
      {
        "passId": "208",
        "signer": "0x43d7eff1CBB6F7E68A32B5EaD059cC35faA11984"
      },
      {
        "passId": "209",
        "signer": "0xdad1bF7e5F41EA2C1824a01954392Cd5B486DDc8"
      },
      {
        "passId": "210",
        "signer": "0x90C4384BE57d34F0b1e6C4615576139b5C3b6e07"
      },
      {
        "passId": "211",
        "signer": "0xaB02efFe298fF23EAe32a87B1264Ab3D15bc8A46"
      },
      {
        "passId": "212",
        "signer": "0x406f14B8c1c96C1D1C7e5689Ca375Ad7c9F90C70"
      },
      {
        "passId": "213",
        "signer": "0x7d8D69f97440782C1EF8F4adF6672576530220a1"
      },
      {
        "passId": "214",
        "signer": "0x209A7F53C77a33310fDa07D6bD43E5F817563Aa1"
      },
      {
        "passId": "215",
        "signer": "0x0d1D0d7e9359733c1349B5e4f6F89A06481be1e3"
      },
      {
        "passId": "216",
        "signer": "0x63164E906638e2f7B50fD8Ba1754e0AcCeCB2cc7"
      },
      {
        "passId": "217",
        "signer": "0xf3Fcc93bC6c286d7d27aF73bFbE3927480c9e862"
      },
      {
        "passId": "218",
        "signer": "0xfe6557F1af7b8c350beBF7257879C393b6e5F069"
      },
      {
        "passId": "219",
        "signer": "0x908dbFbB269eB5b949e5C40166b236281AdFC254"
      },
      {
        "passId": "220",
        "signer": "0x14C5a53f3240d85486e8A25d1bE4CC08b8429D2F"
      },
      {
        "passId": "221",
        "signer": "0x7A33Ca4aD18a3D2209f2fe1E85ABCdb69A65C126"
      },
      {
        "passId": "222",
        "signer": "0xdDa88Fb84635F8B25C8C7d7ACa6b60b541452183"
      },
      {
        "passId": "223",
        "signer": "0xBBE292593cF3b71DE39389D3E28a4e12621846B1"
      },
      {
        "passId": "224",
        "signer": "0xDD527168bE383E58A02D4191939f94d80C967914"
      },
      {
        "passId": "225",
        "signer": "0x3Db2E3e7ea3A8F7f00Bc0B07249e85F74B25F1de"
      },
      {
        "passId": "226",
        "signer": "0x54A985c6DE5247AfF4FBd2dB170Eb72B3f41F145"
      },
      {
        "passId": "227",
        "signer": "0x9DBA127B2bca580DCf84AD7A691bA5ec424Cb5d5"
      },
      {
        "passId": "228",
        "signer": "0x932EA4bB2C3f4904A7015D73FDd44CC689d7a3BC"
      },
      {
        "passId": "229",
        "signer": "0x2F228845AE0d59fE479E74aD67145dB992E9D70E"
      },
      {
        "passId": "230",
        "signer": "0x754bdeEC9F701Cddb27e5480590e0A623D55B801"
      },
      {
        "passId": "231",
        "signer": "0x409706596A6dcF9A8e381236976D4Fbc36CEee3e"
      },
      {
        "passId": "232",
        "signer": "0x2B3F085671d431AE29a79022739d71f320702d0E"
      },
      {
        "passId": "233",
        "signer": "0x54869dbD4E68ced49aA6faa6FCB57d769B46f44a"
      },
      {
        "passId": "234",
        "signer": "0x569147055A7ba9d1f182881f6c474E566A157203"
      },
      {
        "passId": "235",
        "signer": "0xF32159fc777Da284e9cc866254A0C3Ec0576d275"
      },
      {
        "passId": "236",
        "signer": "0x172Ee87b39C0223D11f38A697b14410243a171AD"
      },
      {
        "passId": "237",
        "signer": "0x0e40Ea0ed7a0608df4456881AB3369d894a3B198"
      },
      {
        "passId": "238",
        "signer": "0x3d469f1f4f3990E5870A7D6D462Cccb772Bc66c1"
      },
      {
        "passId": "239",
        "signer": "0xAb5BB7E923024f6808b26A55475e445c54Aaa186"
      },
      {
        "passId": "240",
        "signer": "0x0751Ae7ACf45DcD7C2983cE1159101c9Dc83a54b"
      },
      {
        "passId": "241",
        "signer": "0x8721dC21B9bbC892Ed853A5bb1F79C4d2AcDbbf6"
      },
      {
        "passId": "242",
        "signer": "0x1559C1eeD8A7828c4971670A5f0c17d0E178046f"
      },
      {
        "passId": "243",
        "signer": "0x9127763dcd5187b26C91298c0eFDA756b7D95DF5"
      },
      {
        "passId": "244",
        "signer": "0x6CD2Bc4B186854b521820828E46FD1cd933DB7F5"
      },
      {
        "passId": "245",
        "signer": "0x74890c2Af8689814C80016a0d394DB096DA1B3C3"
      },
      {
        "passId": "246",
        "signer": "0x9d9FcBEE335bB5Ed3fF78d10E7CBc93979dfF9ab"
      },
      {
        "passId": "247",
        "signer": "0xd45Df3A6E4D54dd92693c2D15a9fF9944C5c8506"
      },
      {
        "passId": "248",
        "signer": "0x33440141Ab89688442F62314aa2889f8B5Ce6001"
      },
      {
        "passId": "249",
        "signer": "0x3A14E96a1145B6F5eef50250D9Db18Eed5fA29a8"
      },
      {
        "passId": "250",
        "signer": "0x317d558E979265eBf09f688a920dF1327206B44B"
      },
      {
        "passId": "251",
        "signer": "0x319F18BDF8855Df4711B4607ec8D4589f18a3069"
      },
      {
        "passId": "252",
        "signer": "0x76220aa08Acc30b58d29B6984BF58e57e249F0e1"
      },
      {
        "passId": "253",
        "signer": "0x63E004B0E8F7C77A952039a2D3433128d42A354c"
      },
      {
        "passId": "254",
        "signer": "0xaF2d4512Ad67ee187e2F54892d7f97A5F3084311"
      },
      {
        "passId": "255",
        "signer": "0xA1080D37A7d66E44a9C50Cc8097E0D5ed15cEf9A"
      },
      {
        "passId": "256",
        "signer": "0x21ff2DAffDca88E0963D29008A79F70f22416744"
      },
      {
        "passId": "257",
        "signer": "0x7d5235487172e4B314C7b7d546610657B5945092"
      },
      {
        "passId": "258",
        "signer": "0x92E2b9e268C73F16a54E1B4d1F069bcf0A9CcA34"
      },
      {
        "passId": "259",
        "signer": "0x55BdB3C1161926cf89b0f5FC034eB69529F876E1"
      },
      {
        "passId": "260",
        "signer": "0x5A8A415f5D50Be09059Cc5C8a7Ff647BB4fc6CaD"
      },
      {
        "passId": "261",
        "signer": "0x97EA518c3A0C052B3547EDB358d68F3A35bE6E41"
      },
      {
        "passId": "262",
        "signer": "0xDe5B50136AA7cDf05089Cf2C3C4Dd604C99dA7bF"
      },
      {
        "passId": "263",
        "signer": "0xBa7833018C20790A10Af363B06E70DA5Bc07d048"
      },
      {
        "passId": "264",
        "signer": "0xC59FAAf1cffC1222e7A39f47870A7AB083AbE9e2"
      },
      {
        "passId": "265",
        "signer": "0xE43FfB59a0617E5680707539B79904E0d8E8057F"
      },
      {
        "passId": "266",
        "signer": "0x741fE943ca4225355DB24b11456200359e99d29a"
      },
      {
        "passId": "267",
        "signer": "0x5C292db0e200e984592DFc351c049665701c89D5"
      },
      {
        "passId": "268",
        "signer": "0xcC9ec81248d6c581Da1D1bf8dd4860aB00bfb128"
      },
      {
        "passId": "269",
        "signer": "0xF981564762714F66F29c9b23BDca397B33B1F279"
      },
      {
        "passId": "270",
        "signer": "0x13370aeA56704B2da76A2E2Ba20A7C324B34Fe7b"
      },
      {
        "passId": "271",
        "signer": "0xe48D372680EF9d56d6986C3D2A21cb66Dacc4893"
      },
      {
        "passId": "272",
        "signer": "0x0CF1E53A5E066F8E3c8b0ccA24972B75BdD7f58C"
      },
      {
        "passId": "273",
        "signer": "0x9B9E05b52A59313F8c0e93Cc029f5B09d88b0003"
      },
      {
        "passId": "274",
        "signer": "0x3976A1A231ED13598760878b009aB6084f547C29"
      },
      {
        "passId": "275",
        "signer": "0x03ce749027a993876F911df926F05ecF4b0Eb05f"
      },
      {
        "passId": "276",
        "signer": "0x49a6d04711BaC46e48B5D054933aa263cdf5A196"
      },
      {
        "passId": "277",
        "signer": "0xbb56e01c5b3c36299Cea7F433d62f234c858DBac"
      },
      {
        "passId": "278",
        "signer": "0xCcA5EA7430C14bD264B6552c24682C3A6bC65dc5"
      },
      {
        "passId": "279",
        "signer": "0xf0C3438b6993d8FA916C6EDe7DD7cCD9B60e0015"
      },
      {
        "passId": "280",
        "signer": "0x4497FeAa58AD9137662D2BAb4c25897bE4A46f1f"
      },
      {
        "passId": "281",
        "signer": "0xB4af4060BAB7b6Fec0bBABB1e75c063AC4c8C06F"
      },
      {
        "passId": "282",
        "signer": "0xD62dcd07f52A7C16CADBB559c8548a348a33221F"
      },
      {
        "passId": "283",
        "signer": "0x09448de460BEBE2299f1f34ceBa45046CBE1CfC2"
      },
      {
        "passId": "284",
        "signer": "0x541dBef7213af2FEf70CE3B0A029B158b6513231"
      },
      {
        "passId": "285",
        "signer": "0xB37562D1f5517B7Fc378EB7ED541A91Ac4802a2a"
      },
      {
        "passId": "286",
        "signer": "0x7e674c0f8F47FEa6Ea7270a4615ac1f4da9885eA"
      },
      {
        "passId": "287",
        "signer": "0xc331601c6Bdc9430141716aE9440c41f330f9191"
      },
      {
        "passId": "288",
        "signer": "0x3d8D8398c9fDeD87654Ff47c16F227ADbD56A8AA"
      },
      {
        "passId": "289",
        "signer": "0x54BF1bB28f647DD8E53a7815DE92C348EE6a262f"
      },
      {
        "passId": "290",
        "signer": "0x1ef9F942e91fD46482BFBE95D01B0bdAFa7A5492"
      },
      {
        "passId": "291",
        "signer": "0xD943AD8f652A9b3581E914De5B10B224Ea17c306"
      },
      {
        "passId": "292",
        "signer": "0x75e27714A441fFFE5D5f1bB81a5D5c2D41f01F1A"
      },
      {
        "passId": "293",
        "signer": "0x6a41bc83dEB5d6eAE266e9096273b210710C6e1e"
      },
      {
        "passId": "294",
        "signer": "0x95c03cf29DB3f6cB1555D1d6e26182F950ee3e80"
      },
      {
        "passId": "295",
        "signer": "0xAAABF24d4b0823a60FFa88772096294aB0b9FF76"
      },
      {
        "passId": "296",
        "signer": "0x506763b04C99A7e40d6eE99Db7E614c92973B55A"
      },
      {
        "passId": "297",
        "signer": "0xa9638A2A51F1Ed03E284dF0587FBfBeA742b0e46"
      },
      {
        "passId": "298",
        "signer": "0x12ACE6239a18d7FDE03ffF3d49B68A0E4a69b3D7"
      },
      {
        "passId": "299",
        "signer": "0x4342f651F5E9324Fc4598061967dbf00795e8114"
      },
      {
        "passId": "300",
        "signer": "0xA26fC0d76AE27352ea1077EE84Db18E971Ee5671"
      },
      {
        "passId": "301",
        "signer": "0x2E594C89CeF7E54568a2277ee0592C304EEa61FA"
      },
      {
        "passId": "302",
        "signer": "0x02F0ed8cEfd76982eA1aeD959990BE5Cb1e2E9c6"
      },
      {
        "passId": "303",
        "signer": "0x1106f1a81fD9105BD66fF3571A39964c1F1BA65C"
      },
      {
        "passId": "304",
        "signer": "0x879C625523c5f4A38Db83d16Aca70bFa4213A6B3"
      },
      {
        "passId": "305",
        "signer": "0x9cf079a681D4190022aF29d55F9795A16908bf27"
      },
      {
        "passId": "306",
        "signer": "0xC6A19F8EF30c7eaB10cAAfffCDF8176F392Bd4eF"
      },
      {
        "passId": "307",
        "signer": "0x0D645B7ED696880Ea579886e405928162f3Fc59c"
      },
      {
        "passId": "308",
        "signer": "0xF395D39876F8D5F58221e73bdcc473ff8CBE4C2d"
      },
      {
        "passId": "309",
        "signer": "0x74B4D4d120e0E9D7fd25d031d4304dE77Dd7D6Ca"
      },
      {
        "passId": "310",
        "signer": "0xb48410eE60636a59bebbB93a39D7E9c13100B63f"
      },
      {
        "passId": "311",
        "signer": "0xFc96d5A90e3ef50111AEf6C42C862aBa5750b864"
      },
      {
        "passId": "312",
        "signer": "0x38Ca2b714E729dA94EF0dFB6dc5b5405EBCFD462"
      },
      {
        "passId": "313",
        "signer": "0x2054446eFf63F135b4B65aDCC2Ac359E32f88216"
      },
      {
        "passId": "314",
        "signer": "0xaCFc40BE26717Af3048f4ef62F57d830fd8e4B99"
      },
      {
        "passId": "315",
        "signer": "0x40e99c100a42387427a18a0cd60A772a0D404C91"
      },
      {
        "passId": "316",
        "signer": "0x4BE52045dF6295130608d1D1393A8272D0Dff9cf"
      },
      {
        "passId": "317",
        "signer": "0xa1CBCAF24EF2EC189818BDF34154579Be11C1896"
      },
      {
        "passId": "318",
        "signer": "0x8edE5E2DBA8eE3Bc002FbE0c50631049eB4D56f2"
      },
      {
        "passId": "319",
        "signer": "0xd4F4aB15c0f05AcF83EF8019307FBCEda906498A"
      },
      {
        "passId": "320",
        "signer": "0x41fBBBb7B5f7ECd2fd14a5C8aFD368193DC06a55"
      },
      {
        "passId": "321",
        "signer": "0xA41D47A618d7A4ae0a97926194571836c690FFcF"
      },
      {
        "passId": "322",
        "signer": "0xb8d225f26E1504321549c5C6175D30d66BCB329e"
      },
      {
        "passId": "323",
        "signer": "0x0E5A9fF357822b4E10F3A90C3406240E83de0eCB"
      },
      {
        "passId": "324",
        "signer": "0xFD9310Ed3e0bA94AbA2f839f0C529A08E7590d64"
      },
      {
        "passId": "325",
        "signer": "0xF24c0e0BbC5159823EBaE92AAd2d0c0C75FbC6b1"
      },
      {
        "passId": "326",
        "signer": "0xFfB473D0223259111559FC2D12E64b3B7f999833"
      },
      {
        "passId": "327",
        "signer": "0xaC321b409844d7fB904b255aa79B1347b989A916"
      },
      {
        "passId": "328",
        "signer": "0x287e909c33999b4D5825eA2D9c72E9028E6e8295"
      },
      {
        "passId": "329",
        "signer": "0xeC65715F096c64EF5a61050F996A77c9556e4601"
      },
      {
        "passId": "330",
        "signer": "0xF3923c7cE63Cbc6892817a19aCDb45977B489c5B"
      },
      {
        "passId": "331",
        "signer": "0x1c344eC5670C49b3647037d23518c6c43De9bdc9"
      },
      {
        "passId": "332",
        "signer": "0xfc469bC2C4126d269928d24533521C0E00A0F5cc"
      },
      {
        "passId": "333",
        "signer": "0x7D641467d295C7CA5aCc8595511b92243Ab958e1"
      },
      {
        "passId": "334",
        "signer": "0x7Fc01587021C4eB9e5EE9727cC03451946e8417F"
      },
      {
        "passId": "335",
        "signer": "0x7A1D7F02A285667A178D4FF468A43d61D38dC0Cb"
      },
      {
        "passId": "336",
        "signer": "0x3241996b9bb28Ae5C9B1dFd7bBDa839600b4b9b3"
      },
      {
        "passId": "337",
        "signer": "0x9298F89375a0DD019b9f3d2Ab9F4fF04E18c94BC"
      },
      {
        "passId": "338",
        "signer": "0xAF26a919f6A20066e8e84f2e1A6D63c23C3dD4c7"
      },
      {
        "passId": "339",
        "signer": "0x7105DfDE5C996b761Bc1f3caff93F3c011679e9C"
      },
      {
        "passId": "340",
        "signer": "0x81e634a4103Fda9CAF9da571BDb111f0eA87490A"
      },
      {
        "passId": "341",
        "signer": "0x5FC4044AB7583DB1a53578aFC5a136d54124214f"
      },
      {
        "passId": "342",
        "signer": "0x7f2024aF9efbB21d1DF85c63C2d204AcFe2D5f6F"
      },
      {
        "passId": "343",
        "signer": "0xe5544ec3685ee4C9358f8Be83264771F7ADcC3B3"
      },
      {
        "passId": "344",
        "signer": "0x40fc1d29283AECF366B5Ac5566224727f14fc611"
      },
      {
        "passId": "345",
        "signer": "0x23E732974a80589B0Efde6c11A7A92097fd77F0A"
      },
      {
        "passId": "346",
        "signer": "0x4D443De0C56DC225486f5dBdcc5a00A712a23f92"
      },
      {
        "passId": "347",
        "signer": "0x92Aa2f911430cd880E7C162c4e98b5dfaB8de85E"
      },
      {
        "passId": "348",
        "signer": "0x4d176702c1d3E5B943fFdC80171a4caf95729f41"
      },
      {
        "passId": "349",
        "signer": "0x300712387ff78b8881f3cc235e1a65673269d9Dc"
      },
      {
        "passId": "350",
        "signer": "0x37e22c262c4d9904c391A0dc1f097Da728F459c1"
      },
      {
        "passId": "351",
        "signer": "0xf1E1544281090D1DAD51d2F38925c0A39252Fb4c"
      },
      {
        "passId": "352",
        "signer": "0xf42EE6628622CF955F6C7DeEde076DC19ad4F545"
      },
      {
        "passId": "353",
        "signer": "0xF4AF7F2af1603757F19f31eA495aEc3448E23c37"
      },
      {
        "passId": "354",
        "signer": "0x68D7259BcbF9D2831e2FB3B9B8D569dDE4D1E303"
      },
      {
        "passId": "355",
        "signer": "0x516792D60f22B388Ec48De5449A3590AA660aFF1"
      },
      {
        "passId": "356",
        "signer": "0x68d1ACf20F7d78034b26375B05c7e18c1D0eeC2F"
      },
      {
        "passId": "357",
        "signer": "0x5Ee36334ac4Bc1d66c39e062e85f6645ae9D3F24"
      },
      {
        "passId": "358",
        "signer": "0xA23059dcd4878ecA5c1ff8f1C490FD276e404E07"
      },
      {
        "passId": "359",
        "signer": "0x44fe408441AD0D5c2dBEe14bcaf4D93f8b4F5BD6"
      },
      {
        "passId": "360",
        "signer": "0xcd4C5982141d926213e5DbFE53c4754bd6128393"
      },
      {
        "passId": "361",
        "signer": "0xa3CD844a7350cF4e363B10a5b5674689dbF0179C"
      },
      {
        "passId": "362",
        "signer": "0x253D903AeCA2964F22Dc7D32F3B10b811C73d2Cc"
      },
      {
        "passId": "363",
        "signer": "0xE7bC42676b4F03f1C7AD3a879A6Da3Ad1990bb31"
      },
      {
        "passId": "364",
        "signer": "0xB1EaCCbC1fADcB69A72d8f7477F3C0a4015bEe85"
      },
      {
        "passId": "365",
        "signer": "0x6bce781FB257dc445c2427D0a50190EDfacB49b1"
      },
      {
        "passId": "366",
        "signer": "0x1206Db59295EA38b9EB2A3d225aC56C4772Fd004"
      },
      {
        "passId": "367",
        "signer": "0x3526591e8adB01bc421fae7e93ED41cd53DD5790"
      },
      {
        "passId": "368",
        "signer": "0x103B7866179d31bDb01f387A45cBE8F9D3DAA8Cb"
      },
      {
        "passId": "369",
        "signer": "0x8724DbbA500B4084d8C5206543474418Eb3B56fE"
      },
      {
        "passId": "370",
        "signer": "0xc66409CD2310f7d27ccd2cc6Ade82b8563339B91"
      },
      {
        "passId": "371",
        "signer": "0xcbFF110b9d57885170cAe5dEE127082D8058403C"
      },
      {
        "passId": "372",
        "signer": "0xB2D08E13282D06552119acd50ccE677dAE6d1f67"
      },
      {
        "passId": "373",
        "signer": "0x8c9A693B7c32e3cccAE14Bc4e7BB413D08406F8F"
      },
      {
        "passId": "374",
        "signer": "0x612aebB0d32738fD949fe2B139Bc34699EBF6276"
      },
      {
        "passId": "375",
        "signer": "0x22431eDD8c264d4b3D411151593C4a8e823e46A2"
      },
      {
        "passId": "376",
        "signer": "0x552346aF3C21F1Ee179B4A4EC56b682b74A3A7d0"
      },
      {
        "passId": "377",
        "signer": "0xE6a6779006F10Cab69cfB39F87226ea6fcBf8813"
      },
      {
        "passId": "378",
        "signer": "0x92734c44D6417049CA1F08f6aa6f25605567a9D3"
      },
      {
        "passId": "379",
        "signer": "0xbAeA2F4278458D809271A44401611E09A2d7D395"
      },
      {
        "passId": "380",
        "signer": "0x57Fe4E435beE7CE2Af96a48c2eb5fb309d921E0e"
      },
      {
        "passId": "381",
        "signer": "0xeba6E913AA0D57F3DE546cC15FD372ECc25bDD36"
      },
      {
        "passId": "382",
        "signer": "0x743674D617247ce84fEc7d34aA78Ce391ac294b9"
      },
      {
        "passId": "383",
        "signer": "0xE914785CeBA715d954d9d2dEf9feF4b695cb3e84"
      },
      {
        "passId": "384",
        "signer": "0x9E614e91ffE559742675e5C86940D6E0877354c5"
      },
      {
        "passId": "385",
        "signer": "0xF6B05e37829f603F69DF02EA5d501Cb70d9f05F5"
      },
      {
        "passId": "386",
        "signer": "0x766f09F2bA830953175c687981e67d635F16AC1B"
      },
      {
        "passId": "387",
        "signer": "0x85924A22891108Ce4048d841bc8183C509F0775a"
      },
      {
        "passId": "388",
        "signer": "0x43bB12230a1A954A024A963bb650B558aA3da0c0"
      },
      {
        "passId": "389",
        "signer": "0xe6Aa5DC6545BAF1F6B52E31F9B70eaa9624DEbE0"
      },
      {
        "passId": "390",
        "signer": "0x1CC383a2F724fc16f6d9a1cEa19fd68e542F9EFb"
      },
      {
        "passId": "391",
        "signer": "0x384b5D57daBB5DAb60CcbA0751362b0452acA977"
      },
      {
        "passId": "392",
        "signer": "0x33Be5Dd2db3AD75CD8e47CFC8e573eBA00fb7A53"
      },
      {
        "passId": "393",
        "signer": "0xF8fa4F2Bae0289a022e7E49A05656A94b2fd92Ce"
      },
      {
        "passId": "394",
        "signer": "0x364a0c83EeEEeDcA50729E317F4b3a8cE642729f"
      },
      {
        "passId": "395",
        "signer": "0xC58ffABdf2705f5ad82efdEC49221AD0Aa1F621f"
      },
      {
        "passId": "396",
        "signer": "0x94Dd789d156FfEfdB6f9a5A900CDb3f31D7D599A"
      },
      {
        "passId": "397",
        "signer": "0xC3bCe20CF04a11dA9C8b9F845BD56D756a36E33d"
      },
      {
        "passId": "398",
        "signer": "0xACA90B0E48e14e1271005A4B4b734FeC6014aEA6"
      },
      {
        "passId": "399",
        "signer": "0x881f74d5D2517C3b1aD880C86198b9BbC118927F"
      },
      {
        "passId": "400",
        "signer": "0xC7ED258aE73CE045061Dfd76eE751CC2F95968Ed"
      },
      {
        "passId": "401",
        "signer": "0x015d3433E51B40788b9058082b9bb44371b191Af"
      },
      {
        "passId": "402",
        "signer": "0xefCb855489a054211233D5938b896872caB9608A"
      },
      {
        "passId": "403",
        "signer": "0x6F78518D110f3373caA32116d9298DaF29242413"
      },
      {
        "passId": "404",
        "signer": "0xdcEC09E69Ba7D2C5F4B581A0b5BC71951873fcD6"
      },
      {
        "passId": "405",
        "signer": "0x7820Cd726FFE19d2d12aA5D9B9b838FB6cba77b9"
      },
      {
        "passId": "406",
        "signer": "0x6DF5fc415b14459f518B1f120536a4C41d631F69"
      },
      {
        "passId": "407",
        "signer": "0xC191565C693db4286Cb9df6103bC91f84bDf172f"
      },
      {
        "passId": "408",
        "signer": "0xEbC08bca9f640F05E2d6b9026b90779a8f4aad82"
      },
      {
        "passId": "409",
        "signer": "0xAc45638445F2984B1B16bd8114F3e8D15e787ccB"
      },
      {
        "passId": "410",
        "signer": "0x365CEFBEc65CF697C3A5E2A76b3335C3870FcD1B"
      },
      {
        "passId": "411",
        "signer": "0x8805222087d5d0E910d7cCCcBBddeaec9E519d5a"
      },
      {
        "passId": "412",
        "signer": "0x375f9D02c18f4fe6eB9769C7A06057a46BCECc87"
      },
      {
        "passId": "413",
        "signer": "0xC649b9271718F0027E6ec472f25C169544a41E44"
      },
      {
        "passId": "414",
        "signer": "0xc60Ac5d7BD8858fA7C5d314ddC2763313797C79A"
      },
      {
        "passId": "415",
        "signer": "0xbcDDDdb67410AE0aFd15818585A1BAA75f5B1Bd1"
      },
      {
        "passId": "416",
        "signer": "0x871d13D428919c5faFBB07EF1e56AED520DA684a"
      },
      {
        "passId": "417",
        "signer": "0x6f58DB965B932713879041A61071bF47042dfA2f"
      },
      {
        "passId": "418",
        "signer": "0x3abAbE655640DD1c9A91bBF79c8f934F3A435193"
      },
      {
        "passId": "419",
        "signer": "0x91cDE4a01E4Ad924C41986103C770dc85c297aA7"
      },
      {
        "passId": "420",
        "signer": "0x2ED9eAeBEdD1709c3cEBe90e385dA62B993fD6d4"
      },
      {
        "passId": "421",
        "signer": "0xda1fED51808eB80bf37b1Bcd6b898A13B4894064"
      },
      {
        "passId": "422",
        "signer": "0x9D617F76E7BB3ae7B98886BdaAA448fa700f3D97"
      },
      {
        "passId": "423",
        "signer": "0xa8C40F3253e0B3eF33bF99fB1876463bCBd677ac"
      },
      {
        "passId": "424",
        "signer": "0x54Cf18116FDb3b3EA168a22f206cAe4b43fb128a"
      },
      {
        "passId": "425",
        "signer": "0x5A33D17992C3D17b59fFf7047cd7110D55574e74"
      },
      {
        "passId": "426",
        "signer": "0x262db4d5Af2D555ED77f63d38d540C479e0a2F71"
      },
      {
        "passId": "427",
        "signer": "0xdfa7A1b4Ded0c556771ca9C75f35e6742c79f572"
      },
      {
        "passId": "428",
        "signer": "0x4b76a7e7931231CA98584727d84D777897E63Ec0"
      },
      {
        "passId": "429",
        "signer": "0xF2e32837db9011e23d04B6cE2f7481AEd56bC8CF"
      },
      {
        "passId": "430",
        "signer": "0xBB424eB7e6263Cd7E1F557B375CfD4934e166086"
      },
      {
        "passId": "431",
        "signer": "0x197f2aD9577B0071c41f2844A11692122541aF43"
      },
      {
        "passId": "432",
        "signer": "0x52F82557b28EdCBE73bb27a8f17FfEe868622830"
      },
      {
        "passId": "433",
        "signer": "0xC27b8534bD518f5c4d0Bb49dcB0F0D720F8af36B"
      },
      {
        "passId": "434",
        "signer": "0x08E134f5c43c144F2bD27aBF097A56A8536fDFdb"
      },
      {
        "passId": "435",
        "signer": "0x905A19352D454545DF6A292B627D0aEdbF0fa094"
      },
      {
        "passId": "436",
        "signer": "0xc5947d9981b22FbE01E7647fff7Bb2481a6E4FDa"
      },
      {
        "passId": "437",
        "signer": "0x26e778AA980addF223E686dd13ed674811c40eaC"
      },
      {
        "passId": "438",
        "signer": "0x3fa3E7c7a8B1A9dC0C480816B26E7C22C9454c00"
      },
      {
        "passId": "439",
        "signer": "0x577C85f28124acaaf838354a23665Eaf13E9d914"
      },
      {
        "passId": "440",
        "signer": "0x881803f4ca693607d5A32BA66B32Fcf5c1CbeB49"
      },
      {
        "passId": "441",
        "signer": "0x8d0BC940388352EEe973545A4E4cF2e1A97aF1E2"
      },
      {
        "passId": "442",
        "signer": "0xE85a1257839510260045138fFaf28996b7F07f64"
      },
      {
        "passId": "443",
        "signer": "0x9E70d061F2dE8f7469DDaD6f65f99246a5355dc2"
      },
      {
        "passId": "444",
        "signer": "0xC166193636b92b4b072e191fD5764Bd8b53Ce16D"
      },
      {
        "passId": "445",
        "signer": "0xfDECC3aB8a686a563E5acEa0b516BB0f07970386"
      },
      {
        "passId": "446",
        "signer": "0x34AbE6A22087895e2c2073CE78f32F48168C1C8d"
      },
      {
        "passId": "447",
        "signer": "0x8b3F90e536925A856fd348ce9C185C5a2533Fd03"
      },
      {
        "passId": "448",
        "signer": "0x922049473AE4FA0e69aCcF3A0c516e99f8140Fd2"
      },
      {
        "passId": "449",
        "signer": "0x6C820Ad84Edc0e5CE17c4E3D439519A2265E1F35"
      },
      {
        "passId": "450",
        "signer": "0xf5B7Cc677DFdD73eEBefB3b7ACE5deCBA02480C7"
      },
      {
        "passId": "451",
        "signer": "0x6e4F64AcdDd4B55B1D836E808cC8395314A1D57E"
      },
      {
        "passId": "452",
        "signer": "0x137debfbd8C4F0D2EA6dCA0ef364517A5Cdf4ACb"
      },
      {
        "passId": "453",
        "signer": "0x3D5E39Cb962B1BdcdC0FC0B8E8579f3b36DAE277"
      },
      {
        "passId": "454",
        "signer": "0x56aC5CBbe96679d4E357F3044B82B0b8828b0FB1"
      },
      {
        "passId": "455",
        "signer": "0x67BaefC2523bC497E3d1c6C0D0a7DBbf81C32C84"
      },
      {
        "passId": "456",
        "signer": "0xd40d6a71e432BadB6D4502b057b836d90b376A89"
      },
      {
        "passId": "457",
        "signer": "0x10CB4dAc6ADA12B867cD060a85155e7524bef266"
      },
      {
        "passId": "458",
        "signer": "0x6B311456d6908CBFA19fbFDacE04EAc6C66f8042"
      },
      {
        "passId": "459",
        "signer": "0x461D0DB35beD14567947Cb84e296EE5835c2ab13"
      },
      {
        "passId": "460",
        "signer": "0x6650b6158EC7eEfCC7D8D5F737aC97b0763AB390"
      },
      {
        "passId": "461",
        "signer": "0xEf258be13785c3acd87F3870e60f6D1383acd2b3"
      },
      {
        "passId": "462",
        "signer": "0xD144A87583848799D3D649DBDdABFAcAaC6d5626"
      },
      {
        "passId": "463",
        "signer": "0x47C4D1aD740c2FAE9377AFE58789d3A78F94563D"
      },
      {
        "passId": "464",
        "signer": "0x56f5938301D819E7C6851ab907ec1F94401fE496"
      },
      {
        "passId": "465",
        "signer": "0x46b467e0e0f46C5068C2fE10384FbB2Ad25635bC"
      },
      {
        "passId": "466",
        "signer": "0x69590bFdEE350c7D1F0EBF47Be54fb98dF305Ca4"
      },
      {
        "passId": "467",
        "signer": "0x3801F09dCba26FF5218653EEF159023BE39f50E7"
      },
      {
        "passId": "468",
        "signer": "0xb3a34c73E30e6048421Db864d6857f643aB0bF80"
      },
      {
        "passId": "469",
        "signer": "0xa7fb53a28152b03d1c062FC75398Ddec0908E40D"
      },
      {
        "passId": "470",
        "signer": "0x19D2ddC71a4C4C40bED17E4fCc81191C1ee1D4d6"
      },
      {
        "passId": "471",
        "signer": "0xb2B5A85a2b240fd6E5A4dB65B04E8634674594C7"
      },
      {
        "passId": "472",
        "signer": "0xa8ec0e732299c29e1e83630c9cddD63C51cAB746"
      },
      {
        "passId": "473",
        "signer": "0xb2ad08B992b8C21b62aEa7Fe047938025908c8B8"
      },
      {
        "passId": "474",
        "signer": "0x14D5BDC419f55C322B2994Aa408f55440A5BD7dE"
      },
      {
        "passId": "475",
        "signer": "0x688e7C106141E1Ca5c01598fD9189AeE2795b958"
      },
      {
        "passId": "476",
        "signer": "0xA2C4245CFA67e72DE7Bf5501E59d15da10FD3ae2"
      },
      {
        "passId": "477",
        "signer": "0x04CC38df73D02B820eaCa898E4d65446F6f81838"
      },
      {
        "passId": "478",
        "signer": "0x18594B86244183823a78C8a5B58CE3B4D7B916a5"
      },
      {
        "passId": "479",
        "signer": "0x8B258a1EDC7127A6952540470A36a718B465D8BC"
      },
      {
        "passId": "480",
        "signer": "0x5D027f51f8431195CC95ffF38676ba235a52F2D8"
      },
      {
        "passId": "481",
        "signer": "0x6936f040193D4D08EB29bDf66b779B8055ca8C88"
      },
      {
        "passId": "482",
        "signer": "0x47d904d512C52bC2C0ad0dfc860b9A2242Fcd974"
      },
      {
        "passId": "483",
        "signer": "0xdE04bA5C2c75f47F8d0b0F100E712Dca56c6408C"
      },
      {
        "passId": "484",
        "signer": "0x8adaa5c77EA2799C2C7BFF41704F3DD6Fb9c478d"
      },
      {
        "passId": "485",
        "signer": "0x63f728D37a43Cf18A8266272Ef2A6d4245e17387"
      },
      {
        "passId": "486",
        "signer": "0x1eC7899a4816992380566716cBD05C40C7b10cfB"
      },
      {
        "passId": "487",
        "signer": "0x59A466042457B553F6EE422acc5Ae21412701F7D"
      },
      {
        "passId": "488",
        "signer": "0x608FF086C7f39d65ED0d8d9689786b464E754874"
      },
      {
        "passId": "489",
        "signer": "0x5cC54848181E6236D0be4447F360201b01dDA265"
      },
      {
        "passId": "490",
        "signer": "0x2d04509C2323eae5919C22Dd65316C321D69BeD5"
      },
      {
        "passId": "491",
        "signer": "0x9301cCa37788a63Ac57b030191235eDC1EA1b728"
      },
      {
        "passId": "492",
        "signer": "0x0d92C388735b7cF79140DA9c2a35D9B5128dcdB9"
      },
      {
        "passId": "493",
        "signer": "0xf90893D3703f4E8083Fe6Bb50a913670Af2577a7"
      },
      {
        "passId": "494",
        "signer": "0x9D6cc71CAF16c70973799e51F5aE8745e4F96A88"
      },
      {
        "passId": "495",
        "signer": "0x5A04814B52afA8C2266eA85E38bB74048C4743c3"
      },
      {
        "passId": "496",
        "signer": "0x2aC061304EC7EE257aeAA34058a2399D31c8d940"
      },
      {
        "passId": "497",
        "signer": "0xD9e9aF0D1e5816f753f5fede5287Be5EBD54eDBC"
      },
      {
        "passId": "498",
        "signer": "0xEb7C1e6d77cb6ECCC339D5d788c74787CF48ECEb"
      },
      {
        "passId": "499",
        "signer": "0xfdD27E4740CA761A4CAc273504a2bD2EaA59CBca"
      },
      {
        "passId": "500",
        "signer": "0x1288244a275A0F45Ba0960c1c7aE36Bca400E0f5"
      },
      {
        "passId": "501",
        "signer": "0x302f05EFC4964F6b0071e3EC88A8F21Fa0780909"
      },
      {
        "passId": "502",
        "signer": "0x5A11A92D366acc424a555fEB557237ec78E1f3F2"
      },
      {
        "passId": "503",
        "signer": "0xdd4cFFC7cAB41b7999A7D66D546eCf8E16181dDf"
      },
      {
        "passId": "504",
        "signer": "0xecf83d21B783a37b3C5E68b6F769d3Afa10dB40d"
      },
      {
        "passId": "505",
        "signer": "0xFB5A36BFF9b33EbDCA2e1Fc7CD40Be7a617f4c42"
      },
      {
        "passId": "506",
        "signer": "0x7003F1b6E19c4213f5137bC0D50A860555Cd2d21"
      },
      {
        "passId": "507",
        "signer": "0x2333bB56d86afCfaFA281e8Ac03A48745dd7f14e"
      },
      {
        "passId": "508",
        "signer": "0x6970Fb60D72dfC9941A7077288c2DB8639e4Ccf9"
      },
      {
        "passId": "509",
        "signer": "0x113f57a19baF2e039456B0b550ebbe9952E1BaB1"
      },
      {
        "passId": "510",
        "signer": "0xe2a83B6Fcbdb09416F90BB3d25a7c9523652a799"
      },
      {
        "passId": "511",
        "signer": "0x0d17FCf64996C3C36a5578f761223CA01Fe0a77c"
      },
      {
        "passId": "512",
        "signer": "0xf665b3405210ffC84485B3f1E90146dEeF21F470"
      },
      {
        "passId": "513",
        "signer": "0x7cF84677C19f9BdE6EAC5ae2EcF41B8CedE1Fce5"
      },
      {
        "passId": "514",
        "signer": "0x7b350E6fF6266eB5F2F9437262A87E7303fD2B84"
      },
      {
        "passId": "515",
        "signer": "0x6aaf6C2ab7cCd055972477731D273E54dAB60E94"
      },
      {
        "passId": "516",
        "signer": "0xeE6Ea6772069072fd543D81accee5c6Ef03bBdFE"
      },
      {
        "passId": "517",
        "signer": "0x6Cf790d11703267860eb87C7EAF2FC8708eB31F9"
      },
      {
        "passId": "518",
        "signer": "0x20741e0468fF61C798ac17d5EEdcd83DF7C5BdCA"
      },
      {
        "passId": "519",
        "signer": "0x8B0816be06975A4D66D15c82474aE076f6BfdEdF"
      },
      {
        "passId": "520",
        "signer": "0x275661Ce9df5896276fc84615b09113764e9673b"
      },
      {
        "passId": "521",
        "signer": "0x52B568822BFFB3AE1D33Eab32e8ba4dF71F26f45"
      },
      {
        "passId": "522",
        "signer": "0xFAff06E758F03d374eE75f9819D79796776Bfa96"
      },
      {
        "passId": "523",
        "signer": "0x6f184a41e52DE8496Ab2540de2f6b3A2247Cee8c"
      },
      {
        "passId": "524",
        "signer": "0x022AB103e563E49A703494f162e510BC8e676187"
      },
      {
        "passId": "525",
        "signer": "0xcEc1d5dC79d3E65932259b8EF28541231e1D2AAb"
      },
      {
        "passId": "526",
        "signer": "0x1a192Cd07DDC30Ba038e0ff7c93c6DF73ed55B52"
      },
      {
        "passId": "527",
        "signer": "0x4f99529C9669C1957AB5938788cb691457569959"
      },
      {
        "passId": "528",
        "signer": "0xB2f536A8091689483839d67a52a2d7419081DfB8"
      },
      {
        "passId": "529",
        "signer": "0x1CF308de84d573CD81eC4210FB8367cfC8513EF6"
      },
      {
        "passId": "530",
        "signer": "0x0d5987F75b4702c04aaB5Ba415305Fb93ec47EeF"
      },
      {
        "passId": "531",
        "signer": "0xaDc3700737227dB566931fe32F45D1F699cbeeDe"
      },
      {
        "passId": "532",
        "signer": "0xE1d85695DcB5068012E327f0633a92d51b86D3E0"
      },
      {
        "passId": "533",
        "signer": "0x8f5A2c7Dd7AC8Fd7494717Cf0c74009b4F36F6c1"
      },
      {
        "passId": "534",
        "signer": "0xfd8ebd99dacBd13949F7F77B82e0B54596Cd309A"
      },
      {
        "passId": "535",
        "signer": "0x9E249E85022fd4097d335F9ecf39dd135594dBAE"
      },
      {
        "passId": "536",
        "signer": "0x1bff8389E19904345cFdCbf5937818ab06236b05"
      },
      {
        "passId": "537",
        "signer": "0x2d51b6D4de8aaDA11cC4A7c8b8c391C0c87CB1F1"
      },
      {
        "passId": "538",
        "signer": "0x8a60777F4D1385C368e73e8CA24C81f528483673"
      },
      {
        "passId": "539",
        "signer": "0x236753cb0cd2Fa8f25eF22f6D81553AEA4AAD421"
      },
      {
        "passId": "540",
        "signer": "0x9f579162c82d5FC3B64d73AC5B4ff0Bcb532eDE5"
      },
      {
        "passId": "541",
        "signer": "0xc673747Ed54a7e9AC58Ae5Bc45Dd71c2f87dA228"
      },
      {
        "passId": "542",
        "signer": "0xb6a2a69ccb3659D2c980099D91f1d734fF435855"
      },
      {
        "passId": "543",
        "signer": "0x69E35AB1C2BD240F6ddd7718a0AFd78A6E338068"
      },
      {
        "passId": "544",
        "signer": "0x98e577825e0E1B0666F86fBa1F81CE39c1820c8C"
      },
      {
        "passId": "545",
        "signer": "0x4887dDC55c6839547D2236d1702102Ba7820a8B2"
      },
      {
        "passId": "546",
        "signer": "0xdba64FC2AFDeF5F5Df2D6cC1F5DcEb03677d489D"
      },
      {
        "passId": "547",
        "signer": "0x7a8Ab7097660b3DcF35df71048CebfD4B295A2a1"
      },
      {
        "passId": "548",
        "signer": "0x2E2647adD1f1Dc96E32F0fb4C39C6Cb73712A0DB"
      },
      {
        "passId": "549",
        "signer": "0x60c050d0294c0740611C50Aa238F1efe664370d1"
      },
      {
        "passId": "550",
        "signer": "0x70A471f83Ff55A20134E125E1480f4106A321D03"
      },
      {
        "passId": "551",
        "signer": "0x2efE4aACEb8Fcc64D774cE9558beDd2e75BB0F3B"
      },
      {
        "passId": "552",
        "signer": "0xE467c20D557CeF8D72599da68E150B6b950568DA"
      },
      {
        "passId": "553",
        "signer": "0x04df5917C9414F2659046F82897E8555523FF323"
      },
      {
        "passId": "554",
        "signer": "0x85DC218A2c7d3E16a6E16904ca80e75e0b3Ddbf0"
      },
      {
        "passId": "555",
        "signer": "0x57C42e8903d2Cf7eFd713efc70A10E1EA945B872"
      },
      {
        "passId": "556",
        "signer": "0x4117B74304E8E5434BCFE75cEa5D7D7B3c8E1d1d"
      },
      {
        "passId": "557",
        "signer": "0xC57515B0710420bEB4F81772cE47f598cF2CE4DE"
      },
      {
        "passId": "558",
        "signer": "0x5c307E0bc1Da77a5067D98958Af7fb3a6CdFE0c1"
      },
      {
        "passId": "559",
        "signer": "0x17aDaADDe1a2Dd3c63BDe42be0ecc333A31a24B3"
      },
      {
        "passId": "560",
        "signer": "0x1AFeF1bc5f6060a5fE5873787Bc69f87360e95b7"
      },
      {
        "passId": "561",
        "signer": "0xC8D73d3B6b9C26642E7bAB10043C7851c85c316A"
      },
      {
        "passId": "562",
        "signer": "0x6e0914D190dc73934C507628c852F8b1CD206c89"
      },
      {
        "passId": "563",
        "signer": "0xfCA3A696D10b5E0d5e92E773C41943e00cC70864"
      },
      {
        "passId": "564",
        "signer": "0x9fbCB0a49F06c912bc51E87E39b6dD173e555d9D"
      },
      {
        "passId": "565",
        "signer": "0x4Ef4dd3dAD7DdC6Fbc1c0c977D38105b1FAd432b"
      },
      {
        "passId": "566",
        "signer": "0xd7BdE586253Fca9bB059d60A6f575c69B5A8d1Fd"
      },
      {
        "passId": "567",
        "signer": "0x2Fd76BF4D30Ee51aa8C214000a7079Eade3880d3"
      },
      {
        "passId": "568",
        "signer": "0xc598b6bD922F5AbE914DA74b71f42DB8d9d38105"
      },
      {
        "passId": "569",
        "signer": "0xFDcF755eC297ffA83CC5aA460aCFDf5C2F33F56E"
      },
      {
        "passId": "570",
        "signer": "0xa098a1c9f9BA4B3Dc326b79A6B424804924396C2"
      },
      {
        "passId": "571",
        "signer": "0xC0714A0104954ca09287Bd7ac4b68F018c6707f2"
      },
      {
        "passId": "572",
        "signer": "0xD4710Ac187713CDfc670BB2c06189A9C950dBff2"
      },
      {
        "passId": "573",
        "signer": "0xcceCD17a83814B820317a2E305D3Edf33f8dFb36"
      },
      {
        "passId": "574",
        "signer": "0x62D29a1111FD841aDc31c56b040Eba7d82f58b5B"
      },
      {
        "passId": "575",
        "signer": "0x7592dA461F81a2Fc21e32FdA69E40f1F49B96957"
      },
      {
        "passId": "576",
        "signer": "0x7009DbA8c9F7515d172Ac2750E0436641f59D9E9"
      },
      {
        "passId": "577",
        "signer": "0xfb7024EE5748EaD81E6D4E046Ce5fCffdF512f17"
      },
      {
        "passId": "578",
        "signer": "0xE7BD9A9Cce1ea7e3c3dfDf151859645Ccc9D8b14"
      },
      {
        "passId": "579",
        "signer": "0xD742578f234941E03Da4ed1ddc4D3812155624Ec"
      },
      {
        "passId": "580",
        "signer": "0x43b97C469a123DC44944091A34e0Ac2de58daC4b"
      },
      {
        "passId": "581",
        "signer": "0x1D410BCbC162CA9D720d1EED9E1C9E457F4997c5"
      },
      {
        "passId": "582",
        "signer": "0x1083147BeA71c52B0A21fF44b9e6b4FCaE48CCb4"
      },
      {
        "passId": "583",
        "signer": "0x8faeff5a9d41C95Fd7d1CF114b8eC5D5f31Ca358"
      },
      {
        "passId": "584",
        "signer": "0x2db2Df75573b1F7c60aE254Bccfb85b1628D5355"
      },
      {
        "passId": "585",
        "signer": "0x1caF28D6827C01536BD5552F876cB75e12cd0f40"
      },
      {
        "passId": "586",
        "signer": "0x51bb2e3e4F93736f38F29caa4637c7fade3FE63A"
      },
      {
        "passId": "587",
        "signer": "0x4b681daa6cF40FB640339B499B66bc45AA0ECB36"
      },
      {
        "passId": "588",
        "signer": "0x46b6eC1A29Bb2d0eaD98c7914Bb3A496935dC684"
      },
      {
        "passId": "589",
        "signer": "0xD07e3B90808dbd5A310cC1024207d0f24aa238b3"
      },
      {
        "passId": "590",
        "signer": "0xD4ad862CdF563A31988113B455089bdFBBCfA2De"
      },
      {
        "passId": "591",
        "signer": "0xEc6df13a6F59A7eF438E42A47B55769D8B20df51"
      },
      {
        "passId": "592",
        "signer": "0xFB5c150Cf948ED30836ED76e49c015e3614FFCC7"
      },
      {
        "passId": "593",
        "signer": "0xFA4747f2C531592aF499Be34A64024EC5e68b62A"
      },
      {
        "passId": "594",
        "signer": "0xeE12ec3E0C0A41aac88279E66a51b632c845C558"
      },
      {
        "passId": "595",
        "signer": "0xAFdD2cbfE58493a4b5A6F0b59A256051ae97E6fF"
      },
      {
        "passId": "596",
        "signer": "0x1B2002266FAb23aC5b6353c53f5e1893E87B5801"
      },
      {
        "passId": "597",
        "signer": "0xaA85191922225809951e6460b4De3E3b6AF9e755"
      },
      {
        "passId": "598",
        "signer": "0x1BAC6C65B8bf6048e6928753AF0BD3A260640156"
      },
      {
        "passId": "599",
        "signer": "0xa34c19322adcB4c8B40Bc429Fea11e74A2Ef2C00"
      },
      {
        "passId": "600",
        "signer": "0x3A68245635f1eA4210Ed7A3b89D4B9B92f6fCBA5"
      },
      {
        "passId": "601",
        "signer": "0x8cCEEC6CA92Feab3978D95F2a7DFAAF959Fc72F4"
      },
      {
        "passId": "602",
        "signer": "0xC721AfB9951c4109F47B22dDF46716d60c739e44"
      },
      {
        "passId": "603",
        "signer": "0x14B67E6dAe4f32FeaC80d667BE551e1eeeA6bF51"
      },
      {
        "passId": "604",
        "signer": "0x24AC41E9e096f04797f040B52cc92A1267f586dc"
      },
      {
        "passId": "605",
        "signer": "0x16940287f307eb429BF4CEEE6a7f97F5Fe158491"
      },
      {
        "passId": "606",
        "signer": "0x5f5998C217d97fBC30AC1439b85aC0580c01a6e2"
      },
      {
        "passId": "607",
        "signer": "0xC25b9A6CaEA6a5931735C1A1E79904367723179f"
      },
      {
        "passId": "608",
        "signer": "0x3866b1229DCa8266bDA8B4aE6E58404a430cC1a2"
      },
      {
        "passId": "609",
        "signer": "0x5ca3C0AE553b394DAc0B6F93A61E7e56AB559FbA"
      },
      {
        "passId": "610",
        "signer": "0x240762CC98DE9F86AE15431824eD18095B254696"
      },
      {
        "passId": "611",
        "signer": "0x3A4617EcAA28F8066405B621B6E3d7cb3B2590c0"
      },
      {
        "passId": "612",
        "signer": "0xD00ab0f4f856344f822Ba6a83118B749F1b502F4"
      },
      {
        "passId": "613",
        "signer": "0x6cC9F5186594291616E2A7d93Bb133DEf2E79201"
      },
      {
        "passId": "614",
        "signer": "0x52C2308eEEd294c5262AD442e8DA9e79357eb32E"
      },
      {
        "passId": "615",
        "signer": "0x03B0247B31F0EF28A5EeB80D4179145541880d60"
      },
      {
        "passId": "616",
        "signer": "0xb66779A0151eb9832E56323beA39d7A923918dF5"
      },
      {
        "passId": "617",
        "signer": "0xD1674a2b562CD5839D501223DFBb9fef71c0885b"
      },
      {
        "passId": "618",
        "signer": "0x3079F4222A3BC67e67Be19CE03A0fC3cB6cdC952"
      },
      {
        "passId": "619",
        "signer": "0xc731d383728138Bf11f870B7C157dAB53aafF611"
      },
      {
        "passId": "620",
        "signer": "0xC7da85D5D57e07039aA540713CEd7Bb73aFAC227"
      },
      {
        "passId": "621",
        "signer": "0x8D8F68aB7E0f4dC1D4a934e2040fA9230A782C87"
      },
      {
        "passId": "622",
        "signer": "0x94C6A4Dc8b61572D77996a9508024D3699033d63"
      },
      {
        "passId": "623",
        "signer": "0x5C1472568EecfE6250bc71C3169f10890A0eaF37"
      },
      {
        "passId": "624",
        "signer": "0x5033CB2D77e26662bF303e2C2e613EF23275D054"
      },
      {
        "passId": "625",
        "signer": "0xDebd2a8122B1450FaB3202a6d3174aF6ec8108e6"
      },
      {
        "passId": "626",
        "signer": "0xFC7634791d1f5C67db12DA42b276771E23cE4307"
      },
      {
        "passId": "627",
        "signer": "0xCB67aa189d138Bf637e364f0E83303Bf58E282a5"
      },
      {
        "passId": "628",
        "signer": "0xBc27D804d0225438b3d99F934cEaCBcb70F572CA"
      },
      {
        "passId": "629",
        "signer": "0x979378Df9345c8Fd282E2a2dAEa367a12dAe9f03"
      },
      {
        "passId": "630",
        "signer": "0x2923C4f06316b2feDf3514CA87C4E2c9F067b39f"
      },
      {
        "passId": "631",
        "signer": "0xA50373B041Fa4eA97a5c35Ae73218a89784FBF7E"
      },
      {
        "passId": "632",
        "signer": "0xa403cEE65F740A8086F83f16EE9bA786f09cAFEb"
      },
      {
        "passId": "633",
        "signer": "0xb5E7120f792eCB117ff90111353DdF1C4a6a8114"
      },
      {
        "passId": "634",
        "signer": "0x3A8BA3bec2b31f6fD3757fA1203B7143E27B523F"
      },
      {
        "passId": "635",
        "signer": "0x62606568754e367995864f22f92872370a4Ed1ec"
      },
      {
        "passId": "636",
        "signer": "0x7AE2b0CeB64e3d34B0101e8f66B6222c69ED3e25"
      },
      {
        "passId": "637",
        "signer": "0x1824E72B30743b5F19E369B46678974459BF4598"
      },
      {
        "passId": "638",
        "signer": "0xf23296bb019b6874fE8F7aca83c381c6F3aF23d5"
      },
      {
        "passId": "639",
        "signer": "0x77145Cd579230e5985A92E6e8664615b30E5DE7B"
      },
      {
        "passId": "640",
        "signer": "0x646a49304bd76D500C99D8Acb9a8F96C287a6f5F"
      },
      {
        "passId": "641",
        "signer": "0x01263c7547Ff28DFFa1ca11eD855D6c76ed229dD"
      },
      {
        "passId": "642",
        "signer": "0x2304af63C17158B7A3B4E87ba7163cDdF88685F5"
      },
      {
        "passId": "643",
        "signer": "0xFA72299D0e2dD40b73BA42C16CE088D222FbBFEB"
      },
      {
        "passId": "644",
        "signer": "0x6c00BE8Ecc5dDae0355e8DFc386343001AD626B2"
      },
      {
        "passId": "645",
        "signer": "0xdd0B1786e34331a1E50Ddae8C02bbBFDfd31fF67"
      },
      {
        "passId": "646",
        "signer": "0x65022723dBBf9d041B9B522EB38Ce0E06d123cF5"
      },
      {
        "passId": "647",
        "signer": "0xADE1EA2C58e73F8B657dFCb82d73848aa7388774"
      },
      {
        "passId": "648",
        "signer": "0xa03e37595C0A433A20906D8c1602427fE68A9e77"
      },
      {
        "passId": "649",
        "signer": "0x6fBf141c38e4B8672C569CC8c008F0BF9b0744Fe"
      },
      {
        "passId": "650",
        "signer": "0x6CaEC5853363ba1EC4968a4f64C428Bf06E1Ce81"
      },
      {
        "passId": "651",
        "signer": "0x80BBb4e93b6cA9fc2Bf77b27078da9D912f8E156"
      },
      {
        "passId": "652",
        "signer": "0xB2378CB9D77245B77574E8d9240D896ecf214216"
      },
      {
        "passId": "653",
        "signer": "0x8A680855E4895F7C3926Eb0E31329e6246b5E8E5"
      },
      {
        "passId": "654",
        "signer": "0x8dFBfD11d2E077a523B0672488f21Ea85F632a64"
      },
      {
        "passId": "655",
        "signer": "0x92B9559b7293EBCc0F8d756dfc8898B16E7eE1f0"
      },
      {
        "passId": "656",
        "signer": "0x9ed7215440Dc32FD4D79daA092c5E42F9aaD6609"
      },
      {
        "passId": "657",
        "signer": "0x16406ADF0dbb37329359aD3d1aE62B7d9e4c96ee"
      },
      {
        "passId": "658",
        "signer": "0x9790178b5b85c49e36A28474681D0d002Da07514"
      },
      {
        "passId": "659",
        "signer": "0x0A566166C72D5e0b76E2E2AF209Af2231474eaCA"
      },
      {
        "passId": "660",
        "signer": "0x8AC876D62cE3A7BaA1c611654d56ED3173172625"
      },
      {
        "passId": "661",
        "signer": "0x1b192527731c38870e30172bdEDc971D032b349f"
      },
      {
        "passId": "662",
        "signer": "0x1482A3416F409D153927a523390EA7DAA0AC04D1"
      },
      {
        "passId": "663",
        "signer": "0xa736C92d8877053bc930CF682D237A828c25433E"
      },
      {
        "passId": "664",
        "signer": "0xf862045AC2474E70d37b3385AFbf472204561FA7"
      },
      {
        "passId": "665",
        "signer": "0x5eBD066b0425aD75B87754b36918BAA09719F92A"
      },
      {
        "passId": "666",
        "signer": "0x0451972Df4EC19CD64FAF16ebc18616Dc340a373"
      },
      {
        "passId": "667",
        "signer": "0x50d406731C7799D1E7099f08e39f779dE88F8F4c"
      },
      {
        "passId": "668",
        "signer": "0x8B3D304301c26fBE2b7278Ce400ff09cbCc4805f"
      },
      {
        "passId": "669",
        "signer": "0x882DCE12972bC75D5F5126e27EE539Cd74EE8D6d"
      },
      {
        "passId": "670",
        "signer": "0x4E1696cC8Db62c4be1a5d50Ab9d8487C821be6C5"
      },
      {
        "passId": "671",
        "signer": "0xB9806701ce092CB641b7d7E8c6B315A377fd864E"
      },
      {
        "passId": "672",
        "signer": "0x17F4a68acaE4B09fDCe4E34D27a790bF4A852192"
      },
      {
        "passId": "673",
        "signer": "0x1BC25ff776D74F2254fD735FB449B287f82037DC"
      },
      {
        "passId": "674",
        "signer": "0x3B698e9BbF028e58F7eF90aF3AA3BcFd4dec2e22"
      },
      {
        "passId": "675",
        "signer": "0x654cbD54aa05c78a6f6D517C5d9233E916dA9527"
      },
      {
        "passId": "676",
        "signer": "0x1d1D3D21f31bD2ce3ff10F9BcC9B40C03ba2072b"
      },
      {
        "passId": "677",
        "signer": "0x39f90bc997F86b64de0DDdD4B1E36C7867b0beF3"
      },
      {
        "passId": "678",
        "signer": "0x5BD62F87a8347c8ebC28d6B144Cc6E4fA992d91B"
      },
      {
        "passId": "679",
        "signer": "0x50c66f2D62E8A9Eaa862F20585CEA45f5Ff29e1A"
      },
      {
        "passId": "680",
        "signer": "0x504c7e3C7928eD969821e3Bac546EA2079934eBf"
      },
      {
        "passId": "681",
        "signer": "0x019a14cC4A68eF862ca3Cf9275e17643efCeAF57"
      },
      {
        "passId": "682",
        "signer": "0x0ed147FAD11A08F1Fdc36fF8e571516968aF9AaD"
      },
      {
        "passId": "683",
        "signer": "0xc9C472C549785057028D0e21098a1a50A15744E4"
      },
      {
        "passId": "684",
        "signer": "0xe69aDED47dF964Eb002190EcE5311accd33213bF"
      },
      {
        "passId": "685",
        "signer": "0x621b2805B24540bCE3fCa4dCcd29f6F66195f53D"
      },
      {
        "passId": "686",
        "signer": "0x55036350D2906B60C0c8f42cB5D9dB7C2aA40ab2"
      },
      {
        "passId": "687",
        "signer": "0x5E1bCEA52dF6aA10Bbf8e1F077078AA2C910186c"
      },
      {
        "passId": "688",
        "signer": "0x90C6D430582994B65774A3E24bdA1ee4dfB8FA89"
      },
      {
        "passId": "689",
        "signer": "0x0434a59feBC81d53377C09f1F47c4a7040fD4F77"
      },
      {
        "passId": "690",
        "signer": "0x3a558B1C1FbEc87de40BC030423929337c64A29A"
      },
      {
        "passId": "691",
        "signer": "0xA973C79F70D2D2aa02f6C52F16d977ae893fd57f"
      },
      {
        "passId": "692",
        "signer": "0xb5435402949f3ed8746b8B29Bd17C70e8c6E563C"
      },
      {
        "passId": "693",
        "signer": "0x34c080eBb81e01cb2c7321591084D0cBbdAa52AC"
      },
      {
        "passId": "694",
        "signer": "0x8FE4735746f791333a1d6F5AC79Aeb96662e2a32"
      },
      {
        "passId": "695",
        "signer": "0x1C24f21a228AaB3681a56f951047C9F391192ba2"
      },
      {
        "passId": "696",
        "signer": "0x91fb1b2Dd5b9A6f7dFaAcf97323e1B2c6e39C6F7"
      },
      {
        "passId": "697",
        "signer": "0x4282a68Fd9801cC873931633A3D895a5c3E976c3"
      },
      {
        "passId": "698",
        "signer": "0xf91a131Cf949A149f251Af4cD99A925f8f5a5513"
      },
      {
        "passId": "699",
        "signer": "0x38CCaadb1191e5C70fe67cBF3e892C5Fd6c6605f"
      },
      {
        "passId": "700",
        "signer": "0x88fc350419D9ecf551aC1007584E169aBd15e091"
      },
      {
        "passId": "701",
        "signer": "0x70861974c668a8273496B30Fd1Eb627B11a7583A"
      },
      {
        "passId": "702",
        "signer": "0xEF32D27a88402bBC3629254d97aEc4eCc82F11b0"
      },
      {
        "passId": "703",
        "signer": "0x42C1F1640915728560D1Ff271E81F6409B331eE6"
      },
      {
        "passId": "704",
        "signer": "0x4c532A379bEbe54d7e932Bce29ac8abe32252470"
      },
      {
        "passId": "705",
        "signer": "0xC1DBc6fad0b9C01a5450cd877D05EFC0BE900e8b"
      },
      {
        "passId": "706",
        "signer": "0xF1B05698d35b671F5392C8fe97162CD38486488f"
      },
      {
        "passId": "707",
        "signer": "0xbd0571d39f37c3b956Df3E3757Cf09C9a39578Aa"
      },
      {
        "passId": "708",
        "signer": "0xF35C734F847f22a94c671dAD1F0e8008562bDFBb"
      },
      {
        "passId": "709",
        "signer": "0x3E0Af73D80096efb80AfFE369bc1B301EdF85D39"
      },
      {
        "passId": "710",
        "signer": "0x476dD70EFFe44d4b2A96477BdF9ccc82164bB20b"
      },
      {
        "passId": "711",
        "signer": "0x954233aCbC0431F7F04733356628fc783af27b18"
      },
      {
        "passId": "712",
        "signer": "0x8b8AD8f375dd187800f47Bbc241C8Dd65038b452"
      },
      {
        "passId": "713",
        "signer": "0xBa773FFBEeB3f7186e54A881A330734E1AB60355"
      },
      {
        "passId": "714",
        "signer": "0x24232ba497191FC1F941D9BF849738BBE8216369"
      },
      {
        "passId": "715",
        "signer": "0xE9FdE27f25E7F93A7F463D881f46a2bb3af25dAa"
      },
      {
        "passId": "716",
        "signer": "0x202e27Dbd912d8c472A5404D80EA5Eafd8c63E3f"
      },
      {
        "passId": "717",
        "signer": "0x51557d60AC541ff36751889fcc3c889EB958E86B"
      },
      {
        "passId": "718",
        "signer": "0xc2C948240E255c91a854A3312A01f901Df98bE6F"
      },
      {
        "passId": "719",
        "signer": "0x25fc6ABD367EcF6A985B30685656256568a0174A"
      },
      {
        "passId": "720",
        "signer": "0xc0c30a9eBe68aB987c02C06bfb442b4c5C67d004"
      },
      {
        "passId": "721",
        "signer": "0x29f75c8e4a747BaFB1160034dA431cE974d12357"
      },
      {
        "passId": "722",
        "signer": "0x99D6FAdE68E433Aeb1A8826a9bD8e18C59729954"
      },
      {
        "passId": "723",
        "signer": "0x4F5787C607230ee9760acC1765fa9bD5db2AAab6"
      },
      {
        "passId": "724",
        "signer": "0xe4cd34EA9659cAA31Eb66E00759cc659F3cef63a"
      },
      {
        "passId": "725",
        "signer": "0xd480950b188F918561c0F5E18DadB7c7a9f92B54"
      },
      {
        "passId": "726",
        "signer": "0x101B7FceA4AF816dc1Dde183cb228F523718eDB1"
      },
      {
        "passId": "727",
        "signer": "0xbFBA5909EAa23A1577903686Ab7ed999872DDB16"
      },
      {
        "passId": "728",
        "signer": "0x06073A7940fd6F4B4E054512b4564648A3C321a3"
      },
      {
        "passId": "729",
        "signer": "0x5319aBBde5f992A419d6D7A16E624139E2c42C1B"
      },
      {
        "passId": "730",
        "signer": "0xb8114280ec162b0cEe99a5e452816846cFb3b9cd"
      },
      {
        "passId": "731",
        "signer": "0xf4e47F75B2EB5761014ECd2564960C19BF96ebE6"
      },
      {
        "passId": "732",
        "signer": "0x6048abDefBFD7a0d99a79DA575629e88a0BAAE1E"
      },
      {
        "passId": "733",
        "signer": "0x5911b70C20a7F14c411f0701b4bB4284C99AcF0c"
      },
      {
        "passId": "734",
        "signer": "0xD26846a284BF6063bA074422f6d22155F6EC837f"
      },
      {
        "passId": "735",
        "signer": "0x89c31F6686284a55440EcA4340b427CB36cFb189"
      },
      {
        "passId": "736",
        "signer": "0x8BB07AafacEfd7257CFc2CF5B318dA599EC44168"
      },
      {
        "passId": "737",
        "signer": "0x14677939BB2966e63e404643BD27e6429e6f34b3"
      },
      {
        "passId": "738",
        "signer": "0xE6e0B5710e7E365e71210F41b1db6FD08Bf217d7"
      },
      {
        "passId": "739",
        "signer": "0x3c15EB30Ef7a0C3AdeE8279a7bb78B1f8A8c639b"
      },
      {
        "passId": "740",
        "signer": "0x5882ED49b164bb7538E19a4a8AA485b2c082D352"
      },
      {
        "passId": "741",
        "signer": "0x20333Fdd1E013b8B9CC1388F022bE1d867eb9aC8"
      },
      {
        "passId": "742",
        "signer": "0xa7C7887A9206C40A1E5723214306340d93094655"
      },
      {
        "passId": "743",
        "signer": "0x45456dC5173c530Ab1dFDa0aA2F42F741ea7d43C"
      },
      {
        "passId": "744",
        "signer": "0xE8C322aF6A354Bca71cb03465B55Bb4cCCb8178A"
      },
      {
        "passId": "745",
        "signer": "0x34DBB3DCb1D486eD90b76B649A93E208154BE401"
      },
      {
        "passId": "746",
        "signer": "0xDA81cFF19D465ad5fF2627f7C7c62C723dCa1F11"
      },
      {
        "passId": "747",
        "signer": "0x36390e072dDca2a712B7F14F249F4FE222F6bb6b"
      },
      {
        "passId": "748",
        "signer": "0x8e744A2EeF9bd7536ea55dBC07955ED3F6A5AceD"
      },
      {
        "passId": "749",
        "signer": "0xB2Eb875003c97cf093990c301BE218f189142243"
      },
      {
        "passId": "750",
        "signer": "0xAdcBA2412f1E11b588aF5F7372931a0b78Cc58F9"
      },
      {
        "passId": "751",
        "signer": "0xb61a054adA312984cB3C710eafa56068e1092c31"
      },
      {
        "passId": "752",
        "signer": "0x09226145cb6b6e8a69eCE75b6CD54F2804BE5A22"
      },
      {
        "passId": "753",
        "signer": "0x9b514b696B5B87c2c126c3bAB0782554A2adA6D1"
      },
      {
        "passId": "754",
        "signer": "0xb5e8B2B4b8C25b61bbAb27EE38BB52b3F780088B"
      },
      {
        "passId": "755",
        "signer": "0x5589Cb5e606ef4f89EA522509AE1C72D368385Df"
      },
      {
        "passId": "756",
        "signer": "0x05cBd829151F95ed28f2ab17A0B774AC0118Cb4d"
      },
      {
        "passId": "757",
        "signer": "0xC123604D069912E2B71C938358CE8f6189ac7B43"
      },
      {
        "passId": "758",
        "signer": "0xc72afeC0fCfA6d8e512D03ca967DFD404e207695"
      },
      {
        "passId": "759",
        "signer": "0x7401716C1c813Ddf310dFF9B4361F27F1b7B18aD"
      },
      {
        "passId": "760",
        "signer": "0xf7E3C6d7219444A971bb211ff9546eb091298b0A"
      },
      {
        "passId": "761",
        "signer": "0xb0D316F51F2d6dDA4E1D556B80bCF8C4B367fdb1"
      },
      {
        "passId": "762",
        "signer": "0xd794069EaEb4fF23ae77c2F73595a7D64763B77D"
      },
      {
        "passId": "763",
        "signer": "0x467Da2C8D04B70076239200D7e4FdE4f147AB69d"
      },
      {
        "passId": "764",
        "signer": "0x79312f972A71b6D7085Be1725A115341e9BFfDd6"
      },
      {
        "passId": "765",
        "signer": "0xcDdDfDE58440a5FB83Cdd6cd333691358e00E136"
      },
      {
        "passId": "766",
        "signer": "0x2F4799e1fDD953a9C99c7988850299c640C38A34"
      },
      {
        "passId": "767",
        "signer": "0x17871502De051f31d856E289b00DC6840F96bb2c"
      },
      {
        "passId": "768",
        "signer": "0xEd84683803fc6E0D2ddf70019A978e7FF3BE69bb"
      },
      {
        "passId": "769",
        "signer": "0x3Ae4B4Df1dB9612DC848720B4a41e5EfE359517a"
      },
      {
        "passId": "770",
        "signer": "0xD5a5aC0753F793a65DE95c020c656c9ebEA73D16"
      },
      {
        "passId": "771",
        "signer": "0x6d8e083bb7c4430057D34d73dBA0a3d37CC28b4b"
      },
      {
        "passId": "772",
        "signer": "0xA175f0C760Aa6b28489436b3f18De6dC2F5d9ee5"
      },
      {
        "passId": "773",
        "signer": "0x5502423dEB86caE83e14390250D2C8381B288e79"
      },
      {
        "passId": "774",
        "signer": "0x8C54607A7Fe6dB882c9372C6192eac45665fDbA2"
      },
      {
        "passId": "775",
        "signer": "0xF22c8a73497511fc1F9EA2D002182E0F29587e89"
      },
      {
        "passId": "776",
        "signer": "0x3fc2E74e78C7408d186A479695BD51919f6895E8"
      },
      {
        "passId": "777",
        "signer": "0x7088baa0081a7951f487E0293c44900C089964Eb"
      },
      {
        "passId": "778",
        "signer": "0x0aB61D63bcFAE052dace7d171F4B2fccd4667119"
      },
      {
        "passId": "779",
        "signer": "0x0d8B4B978CA3e2Cfc0219324549c11C097Af5DAa"
      },
      {
        "passId": "780",
        "signer": "0xBB3b635E13765d825CE8408A21E8A91D54c8ca60"
      },
      {
        "passId": "781",
        "signer": "0xDA057AEdeA902c4cdcE16c974748317Bf5784A2F"
      },
      {
        "passId": "782",
        "signer": "0xeEd94c44260a686D9D1B5461134326d9EA9C9379"
      },
      {
        "passId": "783",
        "signer": "0x47Fb2f1A1dB3a8354180B11d3826767a0D51Fdc5"
      },
      {
        "passId": "784",
        "signer": "0xe600c6F7E916A1d22020E13acEc7B915322A9733"
      },
      {
        "passId": "785",
        "signer": "0x13926E80F0DB179F5baF2DF23731Ae1CD22aDd90"
      },
      {
        "passId": "786",
        "signer": "0x6EA4718d18b2d0120B514757C287179858910f84"
      },
      {
        "passId": "787",
        "signer": "0x4caaFE0c3d76128D51756847FC318379Aa8b2c46"
      },
      {
        "passId": "788",
        "signer": "0x0C1D51c063BBEe023897e2614c8B9D9F9156085d"
      },
      {
        "passId": "789",
        "signer": "0x858b9c5455d2557EEc98c4253D5Cb3859a856608"
      },
      {
        "passId": "790",
        "signer": "0x20f9F3307FC8738c45913f77Bc4f370E87069158"
      },
      {
        "passId": "791",
        "signer": "0xf8FFE12F9600D50f8C0795C2366ba4cb4a71C227"
      },
      {
        "passId": "792",
        "signer": "0x0595f1b2db05445B7Cfb7a3B770EcbAe5D64FB3C"
      },
      {
        "passId": "793",
        "signer": "0xdfd827d468B4E1e62562FC8869bF2b65912e9b63"
      },
      {
        "passId": "794",
        "signer": "0xdcA2AaF6acb9a81f9bf4D301bFCc32CF7dcCE431"
      },
      {
        "passId": "795",
        "signer": "0x5D172aC7AC05d0Eb38A5b8d25fD3B6aDdAc98d8f"
      },
      {
        "passId": "796",
        "signer": "0xaf4C91850bF3CE65B7BDD2C04C153577a2079999"
      },
      {
        "passId": "797",
        "signer": "0xD7E7EEaC3e010A51C277F8A2D9eBF27Ff5f1b3f9"
      },
      {
        "passId": "798",
        "signer": "0x4A9F5d3D2218C9C3a9eC003BDa147cEaaA4F3e0d"
      },
      {
        "passId": "799",
        "signer": "0xb0918Ae70249a2dC3215F28A994633a5e193Ef37"
      },
      {
        "passId": "800",
        "signer": "0xAFc67e79f9C2E3B69Db766C5d900747Fb68e2f4b"
      },
      {
        "passId": "801",
        "signer": "0x72435fb81f0E4Ca3c6ccaEBBD8EE740B14f7D057"
      },
      {
        "passId": "802",
        "signer": "0xdBA694b5Eaa4c85172476a5317d740a84176F7af"
      },
      {
        "passId": "803",
        "signer": "0xf409d5b8f966CC83127C5E77D4E381e46b84853d"
      },
      {
        "passId": "804",
        "signer": "0x67BDC225328A374CFb5ebc3C85C08ff6e848De2a"
      },
      {
        "passId": "805",
        "signer": "0x4CEf52C0bE76D8163d6B19540fDc010EE0E1b8bE"
      },
      {
        "passId": "806",
        "signer": "0x0D9158AeC6921bfeCE0726172Cc231Cd2103DA21"
      },
      {
        "passId": "807",
        "signer": "0xc7312B7B1A47F4Cb00b504F5918b1a0C467354d0"
      },
      {
        "passId": "808",
        "signer": "0x8Dc99b5500972Daf657eA967A8c4a14b0A527555"
      },
      {
        "passId": "809",
        "signer": "0xE760421b588219542D51Bf874cdC95527c864ddB"
      },
      {
        "passId": "810",
        "signer": "0xf196ccdc5C241C90716be940cf9956eCf9766Fa0"
      },
      {
        "passId": "811",
        "signer": "0x72753B0Bc25A93C26b52656f7B86F454b4af93e0"
      },
      {
        "passId": "812",
        "signer": "0xbA4034DD1497F1d9Dd0f8a014EaD6a11A636E4A0"
      },
      {
        "passId": "813",
        "signer": "0xb0bAc45dD83b8f1db9cDeCE0c63F42CdFaA3e739"
      },
      {
        "passId": "814",
        "signer": "0x832E1fa91e6E9478770fdC6ee16944841bC1d109"
      },
      {
        "passId": "815",
        "signer": "0x3d86899bE4714da60432BD16f92877031F678f31"
      },
      {
        "passId": "816",
        "signer": "0x7433327e7daf27746e4AaFb44003Db72Dd23689f"
      },
      {
        "passId": "817",
        "signer": "0x000000000000000000000000000000000000dead"
      },
      {
        "passId": "818",
        "signer": "0x000001f568875f378bf6d170b790967fe429c81a"
      },
      {
        "passId": "819",
        "signer": "0x0078c86e12186e2de1ff6fef5f1ada2bffde4ea5"
      },
      {
        "passId": "820",
        "signer": "0x024f1f8b3789bfdf9edb47f58a0d7a3afeaea804"
      },
      {
        "passId": "821",
        "signer": "0x049808d5eaa90a2665b9703d2246dded34f1eb73"
      },
      {
        "passId": "822",
        "signer": "0x05e8074088797c1f9057febf374deee0bc38e894"
      },
      {
        "passId": "823",
        "signer": "0x05ea539365d91df315e8ddd736e90431696fe8c4"
      },
      {
        "passId": "824",
        "signer": "0x09280340849e66948149804cac539cc7227512be"
      },
      {
        "passId": "825",
        "signer": "0x0946bc5c2f9848665cc3811458de403d0a78ad8e"
      },
      {
        "passId": "826",
        "signer": "0x0985224a811e65c235dbf4a2c2117712aabe4e39"
      },
      {
        "passId": "827",
        "signer": "0x0d0aca99686fced8e6fb39134aaed96f09b5283c"
      },
      {
        "passId": "828",
        "signer": "0x0d94b6e4c2aa9383964986020b3534d34885f700"
      },
      {
        "passId": "829",
        "signer": "0x0dd544d0da95666d7c3d38460feb4b5f25eaa515"
      },
      {
        "passId": "830",
        "signer": "0x0ea59c05be4b7149aaed26be764b618ac0255643"
      },
      {
        "passId": "831",
        "signer": "0x10b28ee04853bdd30d1fd7b302fbe5691c144aa0"
      },
      {
        "passId": "832",
        "signer": "0x10f6c58b9dc9603cb24ee9a5220bb4a470781676"
      },
      {
        "passId": "833",
        "signer": "0x12579783fbe8c2645d7a634b238da748405975a2"
      },
      {
        "passId": "834",
        "signer": "0x136c65a3f31682fcf683906ddbf3c76db2633f99"
      },
      {
        "passId": "835",
        "signer": "0x139d9a36ff2b6bfb8558dfbc22486da48c77a396"
      },
      {
        "passId": "836",
        "signer": "0x13b3a50f3947476eda74fe191344524e2d2d28e5"
      },
      {
        "passId": "837",
        "signer": "0x13e46ccd194ca86212236543d2e7376b00bafa42"
      },
      {
        "passId": "838",
        "signer": "0x1423fcc74da82fa03d70fa1f7a122db1ba231783"
      },
      {
        "passId": "839",
        "signer": "0x1436dbffbdde71d16a2c4d23f9116c3158c4d984"
      },
      {
        "passId": "840",
        "signer": "0x1527fa3a0778d574adfe714b7e60c7b2a1bf7c29"
      },
      {
        "passId": "841",
        "signer": "0x1974341df4b113a4c16f3d3f106176dec0e4da67"
      },
      {
        "passId": "842",
        "signer": "0x19b2ba0892da19d09d59e300d11da9edf96654ae"
      },
      {
        "passId": "843",
        "signer": "0x1c062628943a930b805849b494719c7d23c77bd5"
      },
      {
        "passId": "844",
        "signer": "0x1ec9503bbdad721ef3ad485b4b14ce0671dc9925"
      },
      {
        "passId": "845",
        "signer": "0x21c5edc237e95049f92059af6a571fdb700f2b82"
      },
      {
        "passId": "846",
        "signer": "0x2224acd07fd9b269ab5200a9a3df8062624deefb"
      },
      {
        "passId": "847",
        "signer": "0x230eb64900d027dfe372786b3342bd6178ec37d1"
      },
      {
        "passId": "848",
        "signer": "0x273c25abd33eca095e228fde0f15e8f7ec4eb4d9"
      },
      {
        "passId": "849",
        "signer": "0x27d9b6692ec1fb802cc8ceef74270ca4b448076a"
      },
      {
        "passId": "850",
        "signer": "0x290420874bf65691b98b67d042c06bbc31f85f11"
      },
      {
        "passId": "851",
        "signer": "0x2993db31d165c33d848e44a1c26a805ba411d324"
      },
      {
        "passId": "852",
        "signer": "0x2d2c46d26c8fec693586e067c4fc2b2ddc2b4cb3"
      },
      {
        "passId": "853",
        "signer": "0x2d79097b9e4c4f41654b2c91c39fd2c97af00c76"
      },
      {
        "passId": "854",
        "signer": "0x2de2299db048a9e3b8d1934b8dae11b8041cc4fd"
      },
      {
        "passId": "855",
        "signer": "0x2e50783188e23742dd3168682e39381ff5fa9731"
      },
      {
        "passId": "856",
        "signer": "0x2e699391d1b3b8577557b4c0ef6a1d9e8a394f04"
      },
      {
        "passId": "857",
        "signer": "0x308bff328370fc4a9683ab9fcd79a21be6dc5ee4"
      },
      {
        "passId": "858",
        "signer": "0x342c6bfa287ce37b8b53eee0e5b6e6bcbea98c76"
      },
      {
        "passId": "859",
        "signer": "0x362f020fd4420c317e7a0722994ba8bc3380d0e8"
      },
      {
        "passId": "860",
        "signer": "0x3668a20653316a7dd85342f64a4c984d146cadfe"
      },
      {
        "passId": "861",
        "signer": "0x37b699d7eead58433d352d1c77b2db1391f11ce5"
      },
      {
        "passId": "862",
        "signer": "0x3ad353e2845b96fb1b58c1ca6cda46b870de8d6f"
      },
      {
        "passId": "863",
        "signer": "0x3d14410609731ec7924ea8b1f13de544bb46a9a6"
      },
      {
        "passId": "864",
        "signer": "0x4011d09a86d0aca8377a4a8bad691f1aceecd672"
      },
      {
        "passId": "865",
        "signer": "0x41a7276167b80da8815df5b0ddaba3be29984250"
      },
      {
        "passId": "866",
        "signer": "0x44dc2ec15b3483fc8590f6b396cea5f8f2fbf3bd"
      },
      {
        "passId": "867",
        "signer": "0x4530307f98208d3bd5b9631880bc7351770c8810"
      },
      {
        "passId": "868",
        "signer": "0x4a1d757699ab73dd4b48b15049b6f1479b2f3511"
      },
      {
        "passId": "869",
        "signer": "0x4b0bd713574e67a97b3ff8f647f329794a2cbb64"
      },
      {
        "passId": "870",
        "signer": "0x4d03a186b3c7d039ff9a212cd8e81dc34a670b35"
      },
      {
        "passId": "871",
        "signer": "0x4de4a829d42191007431d608775430f3ab072082"
      },
      {
        "passId": "872",
        "signer": "0x4e012d25472225f3385baa43ed64dfec5885c51d"
      },
      {
        "passId": "873",
        "signer": "0x4ffb72b66eba24521736924f87dfe10677d82286"
      },
      {
        "passId": "874",
        "signer": "0x50f27cdb650879a41fb07038bf2b818845c20e17"
      },
      {
        "passId": "875",
        "signer": "0x5285ac85a979b612f5c5320961311bba099670f0"
      },
      {
        "passId": "876",
        "signer": "0x530cf036ed4fa58f7301a9c788c9806624cefd19"
      },
      {
        "passId": "877",
        "signer": "0x5310a9b64847c1b927f823a4bc8836e93f09dc78"
      },
      {
        "passId": "878",
        "signer": "0x54463aae905082c678708bb6c25226eb8f38d5a6"
      },
      {
        "passId": "879",
        "signer": "0x562bf1b67dc40d9b7c3ddd49e45ae58e61e1b76e"
      },
      {
        "passId": "880",
        "signer": "0x568b491fb2b4b9440f6d05e7723df0060fdaef1c"
      },
      {
        "passId": "881",
        "signer": "0x5b158f897f5ace2afefaf7ace8ce0cdbbbc9168a"
      },
      {
        "passId": "882",
        "signer": "0x5ba02f4ff6af1d9d2af8774d10fd32eb57d4e2e6"
      },
      {
        "passId": "883",
        "signer": "0x5bd685375c21375165438ca7f3eae7ec4fade8c5"
      },
      {
        "passId": "884",
        "signer": "0x5d9e720a1c16b98ab897165803c4d96e8060b8e4"
      },
      {
        "passId": "885",
        "signer": "0x5e01d9928ea32d1d3ae2f3263b6ec6c165dc2d76"
      },
      {
        "passId": "886",
        "signer": "0x5ee42438d0d8fc399c94ef3543665e993e847b49"
      },
      {
        "passId": "887",
        "signer": "0x5f8e56d7f3642dd8783774460da2d3a7c54aacda"
      },
      {
        "passId": "888",
        "signer": "0x5fb8b9512684d451d4e585a1a0aabfb48a253c67"
      },
      {
        "passId": "889",
        "signer": "0x6186290b28d511bff971631c916244a9fc539cfe"
      },
      {
        "passId": "890",
        "signer": "0x62f099a34f01d57c67a100851184bea0d48b45f6"
      },
      {
        "passId": "891",
        "signer": "0x63244b5f1ebcb999ea012da652dffee6653bf8f5"
      },
      {
        "passId": "892",
        "signer": "0x64e00561fa9b1f2f2048b2d4f571279689dd9541"
      },
      {
        "passId": "893",
        "signer": "0x65565244e5700b85c90358468faf37c85db55099"
      },
      {
        "passId": "894",
        "signer": "0x6584b48ccebd9c3e4413a1dd4cdbc38b2500cdf3"
      },
      {
        "passId": "895",
        "signer": "0x65d88c64b01b9481352fa8a68b54ed1b3b687388"
      },
      {
        "passId": "896",
        "signer": "0x663d3947f03ef5b387992b880ac85940057c13e3"
      },
      {
        "passId": "897",
        "signer": "0x67c3097a968db89610825976ec9a5976a966c044"
      },
      {
        "passId": "898",
        "signer": "0x68016f094ebb7b55b04372af335455854b0e2eb6"
      },
      {
        "passId": "899",
        "signer": "0x6854dc5c9e3d3ce0b9dd7250d866908515465dc6"
      },
      {
        "passId": "900",
        "signer": "0x686e960ebd9aceb1771850444d4d3a7810a0dac9"
      },
      {
        "passId": "901",
        "signer": "0x6d7fd0438219c0f753a1ccf7c4885bb6cb260999"
      },
      {
        "passId": "902",
        "signer": "0x704c978d50590b21e4c2f43eb4da24fe61fcd707"
      },
      {
        "passId": "903",
        "signer": "0x73e60cd967e957bc6e074f93320ffa1d52697d5b"
      },
      {
        "passId": "904",
        "signer": "0x75331ebbe0b00b97cab532384f13c9b479f074ec"
      },
      {
        "passId": "905",
        "signer": "0x75ef2eff7b12f5f900ef5c787036deab18423d1a"
      },
      {
        "passId": "906",
        "signer": "0x78885686feec340ab544428f161e7d621f520e29"
      },
      {
        "passId": "907",
        "signer": "0x79bebfcb560141f22959c62bbd2930d5c7e35d30"
      },
      {
        "passId": "908",
        "signer": "0x79fd2f15e0ea8c27b5192259f9da63f4e562f021"
      },
      {
        "passId": "909",
        "signer": "0x7a824bea2bed9399a68cd0e340224809521c81d9"
      },
      {
        "passId": "910",
        "signer": "0x7d6a8ffcaf98cac58340329b3a91759888cb1363"
      },
      {
        "passId": "911",
        "signer": "0x7e7a55b11dd9a02b4da169620adfc36b930100fc"
      },
      {
        "passId": "912",
        "signer": "0x80d0d54050c15971b21e877d95441800f5aa9ee8"
      },
      {
        "passId": "913",
        "signer": "0x8177598e08ee8199c160a48c7a0af31ab54bb59f"
      },
      {
        "passId": "914",
        "signer": "0x82410609593d876761681580cf304c794bd58d09"
      },
      {
        "passId": "915",
        "signer": "0x826f63afd9517364cbebe91a859f10b102505a40"
      },
      {
        "passId": "916",
        "signer": "0x836ef81a58e5565b8d1d555ec8e9a5c2792511c6"
      },
      {
        "passId": "917",
        "signer": "0x83d3c179e7906e7f6755658c70e106f1ed3c5782"
      },
      {
        "passId": "918",
        "signer": "0x84eeb7db3f93feb5a8a98f56dabb970a6797c187"
      },
      {
        "passId": "919",
        "signer": "0x865c2f85c9fea1c6ac7f53de07554d68cb92ed88"
      },
      {
        "passId": "920",
        "signer": "0x8725be0bb6ea759d10fbb52fedecc7dcd6890072"
      },
      {
        "passId": "921",
        "signer": "0x87dfef3b445667292aac89078b51f0f75795805f"
      },
      {
        "passId": "922",
        "signer": "0x88906af7616f88f610d1e479325a5c5f93ba1e2c"
      },
      {
        "passId": "923",
        "signer": "0x8a53b8b59877df193c6dae7b8d1d38251af563cf"
      },
      {
        "passId": "924",
        "signer": "0x8b5e90aa714c967efc8c286f46ce0fc822e1cfb0"
      },
      {
        "passId": "925",
        "signer": "0x8c0c3c60118b24b31806eae82ab4186821bf23f1"
      },
      {
        "passId": "926",
        "signer": "0x8c2e67bd3d0f432ef75d9ae6623cd0dfbce66050"
      },
      {
        "passId": "927",
        "signer": "0x8dc9d43df20681cd62ca0acb24ae7ce2794f835d"
      },
      {
        "passId": "928",
        "signer": "0x8df55ecf2c261b44d079302dc95327fe32f74eed"
      },
      {
        "passId": "929",
        "signer": "0x8ebbf8f59b7b7849e359f7e1cc395df6741c24b9"
      },
      {
        "passId": "930",
        "signer": "0x92e7faa1c7b1cf703e3cda42183978f16fa15713"
      },
      {
        "passId": "931",
        "signer": "0x932a824a4d3d0680e0b352de150e6f212b8ac841"
      },
      {
        "passId": "932",
        "signer": "0x95a4350e1cb5e795d3ebe8bee63d9183de5449d1"
      },
      {
        "passId": "933",
        "signer": "0x96dc89dbe84970ee42a2f0b35fb50599e6745ff8"
      },
      {
        "passId": "934",
        "signer": "0x975ab68d4c15d6db02e101d5be03c5b49b9a3282"
      },
      {
        "passId": "935",
        "signer": "0x9de0b0402258a6a562331da7b3c13b29578789c4"
      },
      {
        "passId": "936",
        "signer": "0x9fc6d6c7326585fd3c2a743a1f505990d6e9df3f"
      },
      {
        "passId": "937",
        "signer": "0xa0863e36c30f4974a3a0e2cfc2802513cfaa22f1"
      },
      {
        "passId": "938",
        "signer": "0xa0a6dc36041fb386378458006fecbddd02555ddd"
      },
      {
        "passId": "939",
        "signer": "0xa0d71d516c6149c958c489ab24223c99f5df906f"
      },
      {
        "passId": "940",
        "signer": "0xa0f838d02983161ee469bff969964b7051ac1cd9"
      },
      {
        "passId": "941",
        "signer": "0xa596370bc21dee36872b98009dfbbf465dbfefa3"
      },
      {
        "passId": "942",
        "signer": "0xa5975974cac3fefd831e42bdd2fe84cb5ee3b3de"
      },
      {
        "passId": "943",
        "signer": "0xa6157b7bb7ec05e2b6feafd686797f9ea05411cc"
      },
      {
        "passId": "944",
        "signer": "0xa6f4fa9840aa6825446c820af6d5eccf9f78ba05"
      },
      {
        "passId": "945",
        "signer": "0xa77d9227eee861e01519548b6000acca8600eebe"
      },
      {
        "passId": "946",
        "signer": "0xa7d9f4fd84cdd4bee564adc1b18e3e8aa79d25f1"
      },
      {
        "passId": "947",
        "signer": "0xa88e4a192f3ff5e46dcc96efefb38dfec7bb250c"
      },
      {
        "passId": "948",
        "signer": "0xab2f02d8d409ee4f67fdda5aac5ca7a64a897271"
      },
      {
        "passId": "949",
        "signer": "0xac75cdc34283406b050cadf4ea5902a9310b138e"
      },
      {
        "passId": "950",
        "signer": "0xad9f9194c68bd83250a534a7da574687e1f102ff"
      },
      {
        "passId": "951",
        "signer": "0xae8ce6bb2b95684f57c097b407f4e9b55d9ca432"
      },
      {
        "passId": "952",
        "signer": "0xaee2f40fe0568bd859bc6a518c7ef3252fdc9bf0"
      },
      {
        "passId": "953",
        "signer": "0xaf5cb828389bd6413e7bcd00ed2dcf2bdc1a015a"
      },
      {
        "passId": "954",
        "signer": "0xaf8fbf59e221d27b55dc3adc2366f9230bcf5096"
      },
      {
        "passId": "955",
        "signer": "0xb29b1936c11b77cec6061a9daf765ee2666c8f77"
      },
      {
        "passId": "956",
        "signer": "0xb347b5b99c49ce6c555071a1f0498c81511ad977"
      },
      {
        "passId": "957",
        "signer": "0xb3522064694ac9870dbf00eebc2712762193bb64"
      },
      {
        "passId": "958",
        "signer": "0xb353268ce17d2c7f0f4f8aff152e548c43633df5"
      },
      {
        "passId": "959",
        "signer": "0xb66190f67ed8f0ca790ddfe541ee1bd0da53fe70"
      },
      {
        "passId": "960",
        "signer": "0xb7f9f538aa1b41ae2853eb63f1939187ffe70eb4"
      },
      {
        "passId": "961",
        "signer": "0xbb46c6e4d8a59520fbb11638c2d1228cc65f5a6c"
      },
      {
        "passId": "962",
        "signer": "0xbc10a3ae909b1b94f4c3e39607ad19d386dce32a"
      },
      {
        "passId": "963",
        "signer": "0xbd12aa424c207e90b66402c1f0aec357e8b1ded7"
      },
      {
        "passId": "964",
        "signer": "0xbe5be517537e53f09e88bcdf61da238477dca226"
      },
      {
        "passId": "965",
        "signer": "0xbeeef66749b64afe43bbc9475635eb510cfe4922"
      },
      {
        "passId": "966",
        "signer": "0xbf1ed1ea654ad49472daedc21a31c8d28e6bb790"
      },
      {
        "passId": "967",
        "signer": "0xbfdb50dc66c8df9fd9688d8fe5a0c34126427645"
      },
      {
        "passId": "968",
        "signer": "0xc09d3402515676b81a2f768c365146ea3faa5605"
      },
      {
        "passId": "969",
        "signer": "0xc0e5e14bdecd9ed6954a9e14c74e97cebd91bb94"
      },
      {
        "passId": "970",
        "signer": "0xc169699a825066f2f07e0b29c4082094b32a3f3e"
      },
      {
        "passId": "971",
        "signer": "0xc3a67c1437353bdc9c53060235a34018711de0cf"
      },
      {
        "passId": "972",
        "signer": "0xc42c694d0215b27bce1a871a4a2ad38cf0120a82"
      },
      {
        "passId": "973",
        "signer": "0xc555347d2b369b074be94fe6f7ae9ab43966b884"
      },
      {
        "passId": "974",
        "signer": "0xc665a60f22dda926b920deb8ffac0ef9d8a17460"
      },
      {
        "passId": "975",
        "signer": "0xc8286a9bf1f9bf8f3006fa014915c78b7e75111c"
      },
      {
        "passId": "976",
        "signer": "0xc8bace82793074fad3337424bdb84e306b2f8a44"
      },
      {
        "passId": "977",
        "signer": "0xc9a009bed9ed8a32499e18c20f7cd12132c8d6cb"
      },
      {
        "passId": "978",
        "signer": "0xca11d10ceb098f597a0cab28117fc3465991a63c"
      },
      {
        "passId": "979",
        "signer": "0xcbd2f544073eb35b59a8eb19194a222a5361cd74"
      },
      {
        "passId": "980",
        "signer": "0xcda685c8444f659ac3fe778f8d143aabdf1a21ab"
      },
      {
        "passId": "981",
        "signer": "0xcea78aaa93e917fb5e1802901db2b20aa4411b44"
      },
      {
        "passId": "982",
        "signer": "0xcef871b113d2bb5d3fa5dc96d2d288dd38082aae"
      },
      {
        "passId": "983",
        "signer": "0xcf680fb77c12e2aa2dec82f3ae0c0e527f549fe2"
      },
      {
        "passId": "984",
        "signer": "0xd1eddfcc4596cc8bd0bd7495beab9b979fc50336"
      },
      {
        "passId": "985",
        "signer": "0xd286064cc27514b914bab0f2fad2e1a89a91f314"
      },
      {
        "passId": "986",
        "signer": "0xd3e64b9dea13e4840a0da20965bd0ca37d05a12a"
      },
      {
        "passId": "987",
        "signer": "0xd651e2c626ee210fc38676124d5007ac822ad749"
      },
      {
        "passId": "988",
        "signer": "0xd657860fc512ec2250a7385a353f599e3276fddb"
      },
      {
        "passId": "989",
        "signer": "0xd6e02c13a6cc133c9d019495414667ea7bee05cc"
      },
      {
        "passId": "990",
        "signer": "0xdc190d7cea8e8bf0b381617062200c10cfff0a91"
      },
      {
        "passId": "991",
        "signer": "0xdd6c81d6d587e2d49eaadffb4ce380564046002a"
      },
      {
        "passId": "992",
        "signer": "0xddb92a96054132801cae3943b2f966fc2c308ac8"
      },
      {
        "passId": "993",
        "signer": "0xdde3ca351d85a4b4cc6aff8d42c0840959859053"
      },
      {
        "passId": "994",
        "signer": "0xe120ed22a0cd12d5de6122aa7d5b6d93ac218b49"
      },
      {
        "passId": "995",
        "signer": "0xe20adb03a470b5573bf572dd918e052d0d17866e"
      },
      {
        "passId": "996",
        "signer": "0xe363c2fba75cbd27487b17430e1efbdd2add374e"
      },
      {
        "passId": "997",
        "signer": "0xe5a3d77d7788a83f3549dd7f08fc2aced7e262d2"
      },
      {
        "passId": "998",
        "signer": "0xe66e1e9e37e4e148b21eb22001431818e980d060"
      },
      {
        "passId": "999",
        "signer": "0xe7bd51dc30d4bdc9fddd42ea7c0a283590c9d416"
      },
      {
        "passId": "1000",
        "signer": "0xeb42cd8a1fe1ff556960a9a03ca29aa13f8aa838"
      },
      {
        "passId": "1001",
        "signer": "0xed0f30677c760ea8f0bff70c76eafc79d5f7c3c8"
      },
      {
        "passId": "1002",
        "signer": "0xeddd55a234240042695d7430bf0a09b9038a26ad"
      },
      {
        "passId": "1003",
        "signer": "0xee4d308cc1cde3dd0adcb5a2c85edff22db64918"
      },
      {
        "passId": "1004",
        "signer": "0xee9439a12a7c2a9b6600ca8a498620580d2f116e"
      },
      {
        "passId": "1005",
        "signer": "0xeeaf61935c0c48f8f8cc28c381683d7fa2f75e1c"
      },
      {
        "passId": "1006",
        "signer": "0xef1271ae97bc1a1b356ab697e9ed0d1d4e05fcda"
      },
      {
        "passId": "1007",
        "signer": "0xf19bc58f747d6ea11959bf2a0fa81e53285546ac"
      },
      {
        "passId": "1008",
        "signer": "0xf1e1c701b49b1dc2405a9e8ef40f9f88802b80fa"
      },
      {
        "passId": "1009",
        "signer": "0xf2b15320db6992ba49a7563e50e888c20edcbe3c"
      },
      {
        "passId": "1010",
        "signer": "0xf341c3abb49feb96b4822e68227b54c6fb9f6318"
      },
      {
        "passId": "1011",
        "signer": "0xf3493f6812b1f22b40f8539db2510e13ac251f96"
      },
      {
        "passId": "1012",
        "signer": "0xf3b1b6e83be4d55695f1d30ac3d307d9d5ca98ff"
      },
      {
        "passId": "1013",
        "signer": "0xf464d1a37d8ef9449722f44a4eeb715c0e0acdb3"
      },
      {
        "passId": "1014",
        "signer": "0xf6910d47fbb1f5518d60c721d4189936ecd5a1b6"
      },
      {
        "passId": "1015",
        "signer": "0xf73c935815908ad9a056fc50269f95d8ba032e9d"
      },
      {
        "passId": "1016",
        "signer": "0xf78cd306b23031de9e739a5bcde61764e82ad5ef"
      },
      {
        "passId": "1017",
        "signer": "0xf942040710bedf7220beb24b220631c2255e87f1"
      },
      {
        "passId": "1018",
        "signer": "0xf943e1d2db38db468f66a79b08ec23f8c4375ce3"
      },
      {
        "passId": "1019",
        "signer": "0xfa46dedf812c5803b1e2cea10eef3f27dafeca56"
      },
      {
        "passId": "1020",
        "signer": "0xfa9f104f338846b38b083c9e567ff6bbe43ab5f7"
      },
      {
        "passId": "1021",
        "signer": "0xfd12799b9fb97dc61d9ad7ad4ffba5624004bc62"
      },
      {
        "passId": "1022",
        "signer": "0xfe1e7dc61721f34a25c9eb4dc1a1a8f352c923ef"
      },
      {
        "passId": "1023",
        "signer": "0xfffff6e70842330948ca47254f2be673b1cb0db7"
      }
    ]
  },
  "solcInputHash": "0e2e731014df5a08cb13ff366025c798",
  "bytecode": "0x6101c06040523480156200001257600080fd5b50604051620024823803806200248283398101604081905262000035916200009e565b6001600160a01b039b8c16608052958b1660a05260c09490945291891660e05260005590961661010052610120959095526101409390935261016091909152610180526101a05260015562000159565b6001600160a01b03811681146200009b57600080fd5b50565b6000806000806000806000806000806000806101808d8f031215620000c257600080fd5b8c51620000cf8162000085565b809c505060208d01519a5060408d0151995060608d0151985060808d0151975060a08d0151620000ff8162000085565b60c08e015160e08f01519198509650620001198162000085565b6101008e01516101208f01519196509450620001358162000085565b809350506101408d015191506101608d015190509295989b509295989b509295989b565b60805160a05160c05160e05161010051610120516101405161016051610180516101a0516122136200026f60003960008181610376015281816105b20152610fef0152600081816103530152818161041101528181610591015281816106110152818161071f015261116e01526000818161033001528181610570015261119601526000818161030d0152818161054f01526111bc015260008181610399015281816105d3015281816111e2015261121e01526000610ca20152600061184701526000818161175501526117830152600081816107cd015281816109fd01528181611679015281816116f201526117cf01526000818161023e0152818161098501528181610c0d015261135301526122136000f3fe6080604052600436106100b15760003560e01c8063990b0f6011610069578063ca9dca041161004e578063ca9dca04146101ce578063d93459b6146101ee578063e957a3811461020e57600080fd5b8063990b0f601461019b5780639c205513146101bb57600080fd5b80632558e9331161009a5780632558e933146101245780636d048d53146101395780637361a72e1461018857600080fd5b80630ccc797f146100b65780632228adcc146100f4575b600080fd5b3480156100c257600080fd5b506100d66100d1366004611a5c565b61022e565b6040516100eb99989796959493929190611ab8565b60405180910390f35b34801561010057600080fd5b5061011461010f366004611b54565b6103e5565b60405190151581526020016100eb565b610137610132366004611c91565b61040f565b005b34801561014557600080fd5b50610159610154366004611d93565b610544565b6040805196875260208701959095529385019290925260608401526080830152151560a082015260c0016100eb565b610137610196366004611db0565b61060f565b3480156101a757600080fd5b506101146101b6366004611b54565b6106d2565b6101376101c9366004611e1a565b61071d565b3480156101da57600080fd5b506101376101e9366004611e1a565b6107b5565b3480156101fa57600080fd5b50610137610209366004611e51565b6109e5565b34801561021a57600080fd5b50610114610229366004611b54565b610c7d565b60606000806000806000806000807f000000000000000000000000000000000000000000000000000000000000000073ffffffffffffffffffffffffffffffffffffffff1663a0554c268c8c6040518363ffffffff1660e01b8152600401610297929190611ea8565b60006040518083038186803b1580156102af57600080fd5b505afa1580156102c3573d6000803e3d6000fd5b505050506040513d6000823e601f3d9081017fffffffffffffffffffffffffffffffffffffffffffffffffffffffffffffffe01682016040526103099190810190611efd565b98507f000000000000000000000000000000000000000000000000000000000000000097507f000000000000000000000000000000000000000000000000000000000000000096507f000000000000000000000000000000000000000000000000000000000000000095507f000000000000000000000000000000000000000000000000000000000000000094507f000000000000000000000000000000000000000000000000000000000000000093506103c38d610c9b565b92506103ce8c6106d2565b915060015490509499509499509499509499909550565b6000806103f76010600685901c611fc6565b905080600714806104085750806008145b9392505050565b7f00000000000000000000000000000000000000000000000000000000000000004210156105335761044083610e04565b60006104ab83858760405160200161048792919091825260601b7fffffffffffffffffffffffffffffffffffffffff00000000000000000000000016602082015260340190565b60405160208183030381529060405280519060200120610ec290919063ffffffff16565b905060006104b98583610ee6565b90506104c58382610f47565b610530576040517f08c379a000000000000000000000000000000000000000000000000000000000815260206004820152600d60248201527f494e56414c49445f50524f4f460000000000000000000000000000000000000060448201526064015b60405180910390fd5b50505b61053d8585611014565b5050505050565b6000806000806000807f00000000000000000000000000000000000000000000000000000000000000007f00000000000000000000000000000000000000000000000000000000000000007f00000000000000000000000000000000000000000000000000000000000000007f00000000000000000000000000000000000000000000000000000000000000007f00000000000000000000000000000000000000000000000000000000000000006105fb8c610c9b565b949c939b5091995097509550909350915050565b7f00000000000000000000000000000000000000000000000000000000000000004210156106c25761064082610e04565b33600061064d8483610ee6565b90506106598382610f47565b6106bf576040517f08c379a000000000000000000000000000000000000000000000000000000000815260206004820152600d60248201527f494e56414c49445f50524f4f46000000000000000000000000000000000000006044820152606401610527565b50505b6106cc8484611014565b50505050565b6000806106e161010084612009565b905060006106f18261010061201d565b6106fb908561205a565b60009283526002602052604090922054600190921b9182169091149392505050565b7f00000000000000000000000000000000000000000000000000000000000000004210156107a7576040517f08c379a000000000000000000000000000000000000000000000000000000000815260206004820152601460248201527f524551554952455f504153535f4f525f574149540000000000000000000000006044820152606401610527565b6107b18282611014565b5050565b3373ffffffffffffffffffffffffffffffffffffffff7f00000000000000000000000000000000000000000000000000000000000000001614610854576040517f08c379a000000000000000000000000000000000000000000000000000000000815260206004820152600e60248201527f4e4f545f415554484f52495a45440000000000000000000000000000000000006044820152606401610527565b6102408261ffff16106108c3576040517f08c379a000000000000000000000000000000000000000000000000000000000815260206004820152600d60248201527f494e56414c49445f534f554e44000000000000000000000000000000000000006044820152606401610527565b6108d08261ffff166103e5565b610936576040517f08c379a000000000000000000000000000000000000000000000000000000000815260206004820152600c60248201527f4e4f545f524553455256454400000000000000000000000000000000000000006044820152606401610527565b6040517f9c20551300000000000000000000000000000000000000000000000000000000815261ffff8316600482015273ffffffffffffffffffffffffffffffffffffffff82811660248301527f00000000000000000000000000000000000000000000000000000000000000001690639c20551390604401600060405180830381600087803b1580156109c957600080fd5b505af11580156109dd573d6000803e3d6000fd5b505050505050565b3373ffffffffffffffffffffffffffffffffffffffff7f00000000000000000000000000000000000000000000000000000000000000001614610a84576040517f08c379a000000000000000000000000000000000000000000000000000000000815260206004820152600e60248201527f4e4f545f415554484f52495a45440000000000000000000000000000000000006044820152606401610527565b60005b82811015610bcf57610240848483818110610aa457610aa4612071565b9050602002016020810190610ab991906120a0565b61ffff1610610b24576040517f08c379a000000000000000000000000000000000000000000000000000000000815260206004820152600d60248201527f494e56414c49445f534f554e44000000000000000000000000000000000000006044820152606401610527565b610b57848483818110610b3957610b39612071565b9050602002016020810190610b4e91906120a0565b61ffff166103e5565b610bbd576040517f08c379a000000000000000000000000000000000000000000000000000000000815260206004820152600c60248201527f4e4f545f524553455256454400000000000000000000000000000000000000006044820152606401610527565b80610bc7816120bb565b915050610a87565b506040517fe2ea128800000000000000000000000000000000000000000000000000000000815273ffffffffffffffffffffffffffffffffffffffff7f0000000000000000000000000000000000000000000000000000000000000000169063e2ea128890610c46908690869086906004016120f4565b600060405180830381600087803b158015610c6057600080fd5b505af1158015610c74573d6000803e3d6000fd5b50505050505050565b600080610c8f6010600685901c611fc6565b60015410159392505050565b60008060007f000000000000000000000000000000000000000000000000000000000000000073ffffffffffffffffffffffffffffffffffffffff1684604051602401610d04919073ffffffffffffffffffffffffffffffffffffffff91909116815260200190565b604080517fffffffffffffffffffffffffffffffffffffffffffffffffffffffffffffffe08184030181529181526020820180517bffffffffffffffffffffffffffffffffffffffffffffffffffffffff167f70a082310000000000000000000000000000000000000000000000000000000017905251610d85919061215a565b600060405180830381855afa9150503d8060008114610dc0576040519150601f19603f3d011682016040523d82523d6000602084013e610dc5565b606091505b50915091506000828015610dda575060008251115b610de5576000610df9565b81806020019051810190610df99190612195565b151595945050505050565b6000610e1261010083612009565b90506000610e228261010061201d565b610e2c908461205a565b600083815260026020526040902054600190911b915080821615610eac576040517f08c379a000000000000000000000000000000000000000000000000000000000815260206004820152601160248201527f504153535f414c52454144595f555345440000000000000000000000000000006044820152606401610527565b6000928352600260205260409092209117905550565b6000806000610ed18585611382565b91509150610ede816113f2565b509392505050565b60008282604051602001610f2992919091825260601b7fffffffffffffffffffffffffffffffffffffffff00000000000000000000000016602082015260340190565b60405160208183030381529060405280519060200120905092915050565b6000805b8351811015610feb576000848281518110610f6857610f68612071565b6020026020010151905080841015610fab576040805160208101869052908101829052606001604051602081830303815290604052805190602001209350610fd8565b60408051602081018390529081018590526060016040516020818303038152906040528051906020012093505b5080610fe3816120bb565b915050610f4b565b50507f000000000000000000000000000000000000000000000000000000000000000014919050565b6102408261ffff1610611083576040517f08c379a000000000000000000000000000000000000000000000000000000000815260206004820152600d60248201527f494e56414c49445f534f554e44000000000000000000000000000000000000006044820152606401610527565b6110908261ffff16610c7d565b6110f6576040517f08c379a000000000000000000000000000000000000000000000000000000000815260206004820152601b60248201527f494e535455524d454e545f4e4f545f5945545f464f525f53414c4500000000006044820152606401610527565b6111038261ffff166103e5565b1561116a576040517f08c379a000000000000000000000000000000000000000000000000000000000815260206004820152600860248201527f52455345525645440000000000000000000000000000000000000000000000006044820152606401610527565b60007f00000000000000000000000000000000000000000000000000000000000000004210156111ba577f00000000000000000000000000000000000000000000000000000000000000006111dc565b7f00000000000000000000000000000000000000000000000000000000000000005b905060007f0000000000000000000000000000000000000000000000000000000000000000118015611212575061121233610c9b565b1561125a5760646112437f00000000000000000000000000000000000000000000000000000000000000008361201d565b61124d9190612009565b611257908261205a565b90505b803410156112c4576040517f08c379a000000000000000000000000000000000000000000000000000000000815260206004820152600a60248201527f4e4f545f454e4f554748000000000000000000000000000000000000000000006044820152606401610527565b336108fc6112d2833461205a565b6040518115909202916000818181858888f193505050501580156112fa573d6000803e3d6000fd5b506113048161164e565b6040517f9c20551300000000000000000000000000000000000000000000000000000000815261ffff8416600482015273ffffffffffffffffffffffffffffffffffffffff83811660248301527f00000000000000000000000000000000000000000000000000000000000000001690639c20551390604401610c46565b6000808251604114156113b95760208301516040840151606085015160001a6113ad87828585611895565b945094505050506113eb565b8251604014156113e357602083015160408401516113d88683836119ad565b9350935050506113eb565b506000905060025b9250929050565b6000816004811115611406576114066121ae565b141561140f5750565b6001816004811115611423576114236121ae565b141561148b576040517f08c379a000000000000000000000000000000000000000000000000000000000815260206004820152601860248201527f45434453413a20696e76616c6964207369676e617475726500000000000000006044820152606401610527565b600281600481111561149f5761149f6121ae565b1415611507576040517f08c379a000000000000000000000000000000000000000000000000000000000815260206004820152601f60248201527f45434453413a20696e76616c6964207369676e6174757265206c656e677468006044820152606401610527565b600381600481111561151b5761151b6121ae565b14156115a9576040517f08c379a000000000000000000000000000000000000000000000000000000000815260206004820152602260248201527f45434453413a20696e76616c6964207369676e6174757265202773272076616c60448201527f75650000000000000000000000000000000000000000000000000000000000006064820152608401610527565b60048160048111156115bd576115bd6121ae565b141561164b576040517f08c379a000000000000000000000000000000000000000000000000000000000815260206004820152602260248201527f45434453413a20696e76616c6964207369676e6174757265202776272076616c60448201527f75650000000000000000000000000000000000000000000000000000000000006064820152608401610527565b50565b600054801561174d57808211156116d85760405173ffffffffffffffffffffffffffffffffffffffff7f0000000000000000000000000000000000000000000000000000000000000000169082156108fc029083906000818181858888f193505050501580156116c2573d6000803e3d6000fd5b506116cd818361205a565b60008055915061174d565b60405173ffffffffffffffffffffffffffffffffffffffff7f0000000000000000000000000000000000000000000000000000000000000000169083156108fc029084906000818181858888f1935050505015801561173b573d6000803e3d6000fd5b50611746828261205a565b6000555050565b81156107b1577f0000000000000000000000000000000000000000000000000000000000000000156118275760006127106117a87f00000000000000000000000000000000000000000000000000000000000000008561201d565b6117b29190612009565b60405190915073ffffffffffffffffffffffffffffffffffffffff7f0000000000000000000000000000000000000000000000000000000000000000169082156108fc029083906000818181858888f19350505050158015611818573d6000803e3d6000fd5b50611823818461205a565b9250505b81156107b15760405173ffffffffffffffffffffffffffffffffffffffff7f0000000000000000000000000000000000000000000000000000000000000000169083156108fc029084906000818181858888f19350505050158015611890573d6000803e3d6000fd5b505050565b6000807f7fffffffffffffffffffffffffffffff5d576e7357a4501ddfe92f46681b20a08311156118cc57506000905060036119a4565b8460ff16601b141580156118e457508460ff16601c14155b156118f557506000905060046119a4565b6040805160008082526020820180845289905260ff881692820192909252606081018690526080810185905260019060a0016020604051602081039080840390855afa158015611949573d6000803e3d6000fd5b50506040517fffffffffffffffffffffffffffffffffffffffffffffffffffffffffffffffe0015191505073ffffffffffffffffffffffffffffffffffffffff811661199d576000600192509250506119a4565b9150600090505b94509492505050565b6000807f7fffffffffffffffffffffffffffffffffffffffffffffffffffffffffffffff831660ff84901c601b016119e787828885611895565b935093505050935093915050565b73ffffffffffffffffffffffffffffffffffffffff8116811461164b57600080fd5b60008083601f840112611a2957600080fd5b50813567ffffffffffffffff811115611a4157600080fd5b6020830191508360208260051b85010111156113eb57600080fd5b60008060008060608587031215611a7257600080fd5b8435611a7d816119f5565b935060208501359250604085013567ffffffffffffffff811115611aa057600080fd5b611aac87828801611a17565b95989497509550505050565b6101208082528a51908201819052600090610140830190602090818e01845b82811015611b0957815173ffffffffffffffffffffffffffffffffffffffff1685529383019390830190600101611ad7565b5050508192508b8185015250508860408301528760608301528660808301528560a0830152611b3c60c083018615159052565b92151560e08201526101000152979650505050505050565b600060208284031215611b6657600080fd5b5035919050565b803561ffff81168114611b7f57600080fd5b919050565b7f4e487b7100000000000000000000000000000000000000000000000000000000600052604160045260246000fd5b604051601f82017fffffffffffffffffffffffffffffffffffffffffffffffffffffffffffffffe016810167ffffffffffffffff81118282101715611bfa57611bfa611b84565b604052919050565b600067ffffffffffffffff821115611c1c57611c1c611b84565b5060051b60200190565b600082601f830112611c3757600080fd5b81356020611c4c611c4783611c02565b611bb3565b82815260059290921b84018101918181019086841115611c6b57600080fd5b8286015b84811015611c865780358352918301918301611c6f565b509695505050505050565b600080600080600060a08688031215611ca957600080fd5b611cb286611b6d565b9450602080870135611cc3816119f5565b945060408701359350606087013567ffffffffffffffff80821115611ce757600080fd5b818901915089601f830112611cfb57600080fd5b813581811115611d0d57611d0d611b84565b611d3d847fffffffffffffffffffffffffffffffffffffffffffffffffffffffffffffffe0601f84011601611bb3565b8181528b85838601011115611d5157600080fd5b818585018683013760009181019094015291935060808801359180831115611d7857600080fd5b5050611d8688828901611c26565b9150509295509295909350565b600060208284031215611da557600080fd5b8135610408816119f5565b60008060008060808587031215611dc657600080fd5b611dcf85611b6d565b93506020850135611ddf816119f5565b925060408501359150606085013567ffffffffffffffff811115611e0257600080fd5b611e0e87828801611c26565b91505092959194509250565b60008060408385031215611e2d57600080fd5b611e3683611b6d565b91506020830135611e46816119f5565b809150509250929050565b600080600060408486031215611e6657600080fd5b833567ffffffffffffffff811115611e7d57600080fd5b611e8986828701611a17565b9094509250506020840135611e9d816119f5565b809150509250925092565b6020815281602082015260007f07ffffffffffffffffffffffffffffffffffffffffffffffffffffffffffffff831115611ee157600080fd5b8260051b80856040850137600092016040019182525092915050565b60006020808385031215611f1057600080fd5b825167ffffffffffffffff811115611f2757600080fd5b8301601f81018513611f3857600080fd5b8051611f46611c4782611c02565b81815260059190911b82018301908381019087831115611f6557600080fd5b928401925b82841015611f8c578351611f7d816119f5565b82529284019290840190611f6a565b979650505050505050565b7f4e487b7100000000000000000000000000000000000000000000000000000000600052601260045260246000fd5b600082611fd557611fd5611f97565b500690565b7f4e487b7100000000000000000000000000000000000000000000000000000000600052601160045260246000fd5b60008261201857612018611f97565b500490565b6000817fffffffffffffffffffffffffffffffffffffffffffffffffffffffffffffffff048311821515161561205557612055611fda565b500290565b60008282101561206c5761206c611fda565b500390565b7f4e487b7100000000000000000000000000000000000000000000000000000000600052603260045260246000fd5b6000602082840312156120b257600080fd5b61040882611b6d565b60007fffffffffffffffffffffffffffffffffffffffffffffffffffffffffffffffff8214156120ed576120ed611fda565b5060010190565b6040808252810183905260008460608301825b868110156121305761ffff61211b84611b6d565b16825260209283019290910190600101612107565b50809250505073ffffffffffffffffffffffffffffffffffffffff83166020830152949350505050565b6000825160005b8181101561217b5760208186018101518583015201612161565b8181111561218a576000828501525b509190910192915050565b6000602082840312156121a757600080fd5b5051919050565b7f4e487b7100000000000000000000000000000000000000000000000000000000600052602160045260246000fdfea2646970667358221220b36da589c49b92217c02c0c023f4723beba2aee69bff52022dd724f738fbafa664736f6c63430008090033",
  "devdoc": {
    "kind": "dev",
    "methods": {},
    "version": 1
  },
  "userdoc": {
    "kind": "user",
    "methods": {},
    "version": 1
  },
  "storageLayout": {
    "storage": [
      {
        "astId": 12356,
        "contract": "src/bleeps/BleepsFixedPriceSale.sol:BleepsFixedPriceSale",
        "label": "_deploymentCostToPay",
        "offset": 0,
        "slot": "0",
        "type": "t_uint256"
      },
      {
        "astId": 10521,
        "contract": "src/bleeps/BleepsFixedPriceSale.sol:BleepsFixedPriceSale",
        "label": "_uptoInstr",
        "offset": 0,
        "slot": "1",
        "type": "t_uint256"
      },
      {
        "astId": 10525,
        "contract": "src/bleeps/BleepsFixedPriceSale.sol:BleepsFixedPriceSale",
        "label": "_passUsed",
        "offset": 0,
        "slot": "2",
        "type": "t_mapping(t_uint256,t_uint256)"
      }
    ],
    "types": {
      "t_mapping(t_uint256,t_uint256)": {
        "encoding": "mapping",
        "key": "t_uint256",
        "label": "mapping(uint256 => uint256)",
        "numberOfBytes": "32",
        "value": "t_uint256"
      },
      "t_uint256": {
        "encoding": "inplace",
        "label": "uint256",
        "numberOfBytes": "32"
      }
    }
  }
}