{
  "address": "0xB44e464dB17cB5f6973dD0919f52f3ee26033BCe",
  "abi": [
    {
      "inputs": [
        {
          "internalType": "contract Bleeps",
          "name": "bleeps",
          "type": "address"
        },
        {
          "internalType": "uint256",
          "name": "price",
          "type": "uint256"
        },
        {
          "internalType": "uint256",
          "name": "whitelistPrice",
          "type": "uint256"
        },
        {
          "internalType": "uint256",
          "name": "whitelistTimeLimit",
          "type": "uint256"
        },
        {
          "internalType": "bytes32",
          "name": "whitelistMerkleRoot",
          "type": "bytes32"
        },
        {
          "internalType": "address payable",
          "name": "projectCreator",
          "type": "address"
        },
        {
          "internalType": "uint256",
          "name": "creatorFeePer10000",
          "type": "uint256"
        },
        {
          "internalType": "address payable",
          "name": "saleRecipient",
          "type": "address"
        },
        {
          "internalType": "uint256",
          "name": "deploymentCostToPay",
          "type": "uint256"
        },
        {
          "internalType": "contract IERC721",
          "name": "mandalas",
          "type": "address"
        },
        {
          "internalType": "uint256",
          "name": "mandalasDiscountPercentage",
          "type": "uint256"
        },
        {
          "internalType": "uint256",
          "name": "uptoInstr",
          "type": "uint256"
        }
      ],
      "stateMutability": "nonpayable",
      "type": "constructor"
    },
    {
      "inputs": [
        {
          "internalType": "uint16",
          "name": "id",
          "type": "uint16"
        },
        {
          "internalType": "address",
          "name": "to",
          "type": "address"
        }
      ],
      "name": "creatorMint",
      "outputs": [],
      "stateMutability": "nonpayable",
      "type": "function"
    },
    {
      "inputs": [
        {
          "internalType": "uint16[]",
          "name": "ids",
          "type": "uint16[]"
        },
        {
          "internalType": "address",
          "name": "to",
          "type": "address"
        }
      ],
      "name": "creatorMultiMint",
      "outputs": [],
      "stateMutability": "nonpayable",
      "type": "function"
    },
    {
      "inputs": [
        {
          "internalType": "uint256",
          "name": "id",
          "type": "uint256"
        }
      ],
      "name": "isOpenForSale",
      "outputs": [
        {
          "internalType": "bool",
          "name": "",
          "type": "bool"
        }
      ],
      "stateMutability": "nonpayable",
      "type": "function"
    },
    {
      "inputs": [
        {
          "internalType": "uint256",
          "name": "passId",
          "type": "uint256"
        }
      ],
      "name": "isPassUsed",
      "outputs": [
        {
          "internalType": "bool",
          "name": "",
          "type": "bool"
        }
      ],
      "stateMutability": "view",
      "type": "function"
    },
    {
      "inputs": [
        {
          "internalType": "uint256",
          "name": "id",
          "type": "uint256"
        }
      ],
      "name": "isReserved",
      "outputs": [
        {
          "internalType": "bool",
          "name": "",
          "type": "bool"
        }
      ],
      "stateMutability": "nonpayable",
      "type": "function"
    },
    {
      "inputs": [
        {
          "internalType": "uint16",
          "name": "id",
          "type": "uint16"
        },
        {
          "internalType": "address",
          "name": "to",
          "type": "address"
        }
      ],
      "name": "mint",
      "outputs": [],
      "stateMutability": "payable",
      "type": "function"
    },
    {
      "inputs": [
        {
          "internalType": "uint16",
          "name": "id",
          "type": "uint16"
        },
        {
          "internalType": "address",
          "name": "to",
          "type": "address"
        },
        {
          "internalType": "uint256",
          "name": "passId",
          "type": "uint256"
        },
        {
          "internalType": "bytes32[]",
          "name": "proof",
          "type": "bytes32[]"
        }
      ],
      "name": "mintWithPassId",
      "outputs": [],
      "stateMutability": "payable",
      "type": "function"
    },
    {
      "inputs": [
        {
          "internalType": "uint16",
          "name": "id",
          "type": "uint16"
        },
        {
          "internalType": "address",
          "name": "to",
          "type": "address"
        },
        {
          "internalType": "uint256",
          "name": "passId",
          "type": "uint256"
        },
        {
          "internalType": "bytes",
          "name": "signature",
          "type": "bytes"
        },
        {
          "internalType": "bytes32[]",
          "name": "proof",
          "type": "bytes32[]"
        }
      ],
      "name": "mintWithSalePass",
      "outputs": [],
      "stateMutability": "payable",
      "type": "function"
    },
    {
      "inputs": [
        {
          "internalType": "address",
          "name": "purchaser",
          "type": "address"
        },
        {
          "internalType": "uint256",
          "name": "passId",
          "type": "uint256"
        },
        {
          "internalType": "uint256[]",
          "name": "ids",
          "type": "uint256[]"
        }
      ],
      "name": "ownersAndPriceInfo",
      "outputs": [
        {
          "internalType": "address[]",
          "name": "addresses",
          "type": "address[]"
        },
        {
          "internalType": "uint256",
          "name": "price",
          "type": "uint256"
        },
        {
          "internalType": "uint256",
          "name": "whitelistPrice",
          "type": "uint256"
        },
        {
          "internalType": "uint256",
          "name": "whitelistTimeLimit",
          "type": "uint256"
        },
        {
          "internalType": "bytes32",
          "name": "whitelistMerkleRoot",
          "type": "bytes32"
        },
        {
          "internalType": "uint256",
          "name": "mandalasDiscountPercentage",
          "type": "uint256"
        },
        {
          "internalType": "bool",
          "name": "hasMandalas",
          "type": "bool"
        },
        {
          "internalType": "bool",
          "name": "passUsed",
          "type": "bool"
        },
        {
          "internalType": "uint256",
          "name": "uptoInstr",
          "type": "uint256"
        }
      ],
      "stateMutability": "view",
      "type": "function"
    },
    {
      "inputs": [
        {
          "internalType": "address",
          "name": "purchaser",
          "type": "address"
        }
      ],
      "name": "priceInfo",
      "outputs": [
        {
          "internalType": "uint256",
          "name": "price",
          "type": "uint256"
        },
        {
          "internalType": "uint256",
          "name": "whitelistPrice",
          "type": "uint256"
        },
        {
          "internalType": "uint256",
          "name": "whitelistTimeLimit",
          "type": "uint256"
        },
        {
          "internalType": "bytes32",
          "name": "whitelistMerkleRoot",
          "type": "bytes32"
        },
        {
          "internalType": "uint256",
          "name": "mandalasDiscountPercentage",
          "type": "uint256"
        },
        {
          "internalType": "bool",
          "name": "hasMandalas",
          "type": "bool"
        }
      ],
      "stateMutability": "view",
      "type": "function"
    }
  ],
  "transactionHash": "0x6489bbf7edd7f33ec2581e98241e531d168294220fde11e5fea327c18762a9cb",
  "args": [
    "0x6492c32D0FEbad28d6Ed24B711C29bFCe8d24e45",
    "100000000000000000",
    "100000000000000000",
    1637348471,
    "0x292af3609b4d943e169bcabca3cbe42bf0c72227f0e41d7e50b0ad12d8d910ca",
    "0xE53cd71271AcAdbeb0f64d9c8C62bBdDc8cA9e66",
    2000,
    "0xf35d87D31D2aB69A4d1944f095A8744eEF93C2cf",
    "3500000000000000000",
    "0x4A219d8DE28C125edd354bBCc505cdc6eed771D7",
    0,
    2
  ],
  "linkedData": {
    "leaves": [
      {
        "passId": "0",
        "signer": "0x156707ed98E8a4525E7F408DCA5a9041BCE69c51"
      },
      {
        "passId": "1",
        "signer": "0x3903cBE39F4134731dF3c98281e65F93D8bfD1E7"
      },
      {
        "passId": "2",
        "signer": "0xbB9E85b2e9B12271973f81176C6017DeFD7195ED"
      },
      {
        "passId": "3",
        "signer": "0x2F76Ea1C3c5239180c98fd27A33E311B30797D28"
      },
      {
        "passId": "4",
        "signer": "0x4033f9158aBD0b1B134AE60276aD538ac1810D56"
      },
      {
        "passId": "5",
        "signer": "0xBE9299C1ad5553aB78AA646Db3C4ACF36c5c701C"
      },
      {
        "passId": "6",
        "signer": "0x15B9f7A6AFB13aBe3694f45cfab244e7c816A901"
      },
      {
        "passId": "7",
        "signer": "0x2bCFf84217D7040AFc0D328500518081102057BE"
      },
      {
        "passId": "8",
        "signer": "0xC019D0F72CB9976969a02deD0EAc81F69b21cf03"
      },
      {
        "passId": "9",
        "signer": "0x9b898CC589b3EB825d9e09C52AE4f1Dfe07322b5"
      },
      {
        "passId": "10",
        "signer": "0x23E1F466dA150BD9fD7621d402586A5db2b81447"
      },
      {
        "passId": "11",
        "signer": "0x9Fc74bf25069006A3832Ea812bEEc6b26f2c2d88"
      },
      {
        "passId": "12",
        "signer": "0xaBB219Ee48cC8b869d4f88E2ecbc187F13b1F626"
      },
      {
        "passId": "13",
        "signer": "0x94A5E7b24C3b26854A68DEaF643E1943fE168fA7"
      },
      {
        "passId": "14",
        "signer": "0x788D08a149c404C4658c0323125054EF8F988d37"
      },
      {
        "passId": "15",
        "signer": "0x9724AF1118fB4045eCfC492298EC3db775ADE289"
      },
      {
        "passId": "16",
        "signer": "0x2F1Fbb7Df92Ee3064e24b450f4B88Cc2c9e90472"
      },
      {
        "passId": "17",
        "signer": "0xD8aC530365fF4457e4568d7f9a52BB38e0066Fd7"
      },
      {
        "passId": "18",
        "signer": "0xe58Ba8d57dFfE05fc2FbD9338E316dcF9256261D"
      },
      {
        "passId": "19",
        "signer": "0x6F0f2E149DEd2F39530dAa62A74CF74099cF956f"
      },
      {
        "passId": "20",
        "signer": "0x31E5B3262b503904E4B34e3F926F32be0562d110"
      },
      {
        "passId": "21",
        "signer": "0x8b2e7B146d7e94a2F7167F03f9e3910F9E74896f"
      },
      {
        "passId": "22",
        "signer": "0xDdD530783adFcFe678d140529b5E06853F02B0AD"
      },
      {
        "passId": "23",
        "signer": "0x6F7AADEfe1718a8F94e5e7A8396d43425C66dedf"
      },
      {
        "passId": "24",
        "signer": "0xC4b34b23e15c2EF03526c26399DaAe3564938b8b"
      },
      {
        "passId": "25",
        "signer": "0xAb5c423443990E529da34f4106BD6a9232fA793f"
      },
      {
        "passId": "26",
        "signer": "0x1F1996F911aB2b7F7d403363f216108C0b4AB90d"
      },
      {
        "passId": "27",
        "signer": "0x843a19c34bF836f4fb37Ad9565f115F01342907d"
      },
      {
        "passId": "28",
        "signer": "0x34D513644e19F869599f4689FB93b87c374B6C19"
      },
      {
        "passId": "29",
        "signer": "0xb43F561565cA0fD2D38F4a10e435D68b91935111"
      },
      {
        "passId": "30",
        "signer": "0x5EA9d71619316Ee75652acC46833F8963926EfE5"
      },
      {
        "passId": "31",
        "signer": "0x36473fbCB8db734fC4e1D96cDA753093DF96ebac"
      },
      {
        "passId": "32",
        "signer": "0xe7aB4C0f170a0a6046F52eBBa349E6EC1fa0d3aF"
      },
      {
        "passId": "33",
        "signer": "0x659a68AA9aB1309bFD3ca48Bf68d42166Ff35238"
      },
      {
        "passId": "34",
        "signer": "0x16C8714D910CE71E540A3dB564B285fe93A0f1C5"
      },
      {
        "passId": "35",
        "signer": "0x4E98092eb86eae9d8A1f0FFadf2d2Ecd21F79d17"
      },
      {
        "passId": "36",
        "signer": "0xf2877cD7560AE4aCB42F650BfE8ad4f222741653"
      },
      {
        "passId": "37",
        "signer": "0x15C468c524FFCFC19F57778691922ea5f7Da2c80"
      },
      {
        "passId": "38",
        "signer": "0x9eFDB3faC4081d8163E1aA566EF5a9473d94bF0e"
      },
      {
        "passId": "39",
        "signer": "0x599D550486a491290051783A4A8D261E80A8C0F7"
      },
      {
        "passId": "40",
        "signer": "0x97417744d3aBb295085587207dE92B5e9CffF6E6"
      },
      {
        "passId": "41",
        "signer": "0x1fA6d72C9d7Cb8d8ab619029a39728006468ece4"
      },
      {
        "passId": "42",
        "signer": "0x0571D73b81E4860a2113A870aDf5aE9d8A56f7B1"
      },
      {
        "passId": "43",
        "signer": "0xf3FD899Ed38030eb06a7133176D679AE3c7dfd3F"
      },
      {
        "passId": "44",
        "signer": "0xB5169C6f0977d1040E81e314ab6b6f77e769c867"
      },
      {
        "passId": "45",
        "signer": "0x5a134C93262350cc02E2121C9Fc63798CF00Bf8d"
      },
      {
        "passId": "46",
        "signer": "0xd5C8b0d3B4c02e17193fED254Db48FfaFA9880E2"
      },
      {
        "passId": "47",
        "signer": "0x275A5AE1515A7FE167B101b0eD07aB34552c07cc"
      },
      {
        "passId": "48",
        "signer": "0x393DE1236bB0e9461760A3d21485AB64954C000e"
      },
      {
        "passId": "49",
        "signer": "0x4c4f172544F0050e97DcF5c11E196CD74A954082"
      },
      {
        "passId": "50",
        "signer": "0xc508A29334b97CDAba1A9b60F0fe99C5197Ba69f"
      },
      {
        "passId": "51",
        "signer": "0x7379193DE6dD4d6Cfc0FE3B9F7D8898c06c16e90"
      },
      {
        "passId": "52",
        "signer": "0x76C7F2448385BA70470667302FF737EBF094e7CB"
      },
      {
        "passId": "53",
        "signer": "0x9fEE9b3a0e76FE599045F59f35c8964FBB30d83e"
      },
      {
        "passId": "54",
        "signer": "0xE68642d818db30F2C4fB75e6641Eb10a844C487c"
      },
      {
        "passId": "55",
        "signer": "0x30120A6aA1c0362Eb843E1F26736100B87639458"
      },
      {
        "passId": "56",
        "signer": "0x634a8edc9d347c78b45C8058A43779d9aFd8E204"
      },
      {
        "passId": "57",
        "signer": "0x6af30E768d123eb46752c91231d2127E662F4F6a"
      },
      {
        "passId": "58",
        "signer": "0x210898Cd170035dA3Cf6d79D7e6650cb45be19c4"
      },
      {
        "passId": "59",
        "signer": "0xcDf7131Eb7b09a5090103eEFa4bE94F363531Fa0"
      },
      {
        "passId": "60",
        "signer": "0xe30E9A83514DE6f0416B8d503E2Bf5CFe52d3c58"
      },
      {
        "passId": "61",
        "signer": "0xBc0206D14126eEDde1a0b25520442eD71A6954C1"
      },
      {
        "passId": "62",
        "signer": "0xBCdC063DF182678d2955f1370C526c6D2F98A2ee"
      },
      {
        "passId": "63",
        "signer": "0x3125902521f949743955b8fA39426218dFADa95F"
      },
      {
        "passId": "64",
        "signer": "0x645aeB8086B9E710D7eC13E05E500533c062D936"
      },
      {
        "passId": "65",
        "signer": "0xb045139FB00070717274B51A9186bFF77dc7A0A7"
      },
      {
        "passId": "66",
        "signer": "0x00eB8228AfA6A78640A009B0fc214B52e709c07D"
      },
      {
        "passId": "67",
        "signer": "0x0D15406e95dD7C9272Fc344bC5cc85502BBdbe4B"
      },
      {
        "passId": "68",
        "signer": "0xa8fd5ED43C3006a1ec425b433648Ac147F9c1d1d"
      },
      {
        "passId": "69",
        "signer": "0x6F07FAE10041b9dF47D2CeF5a34Cd27FcC2C3334"
      },
      {
        "passId": "70",
        "signer": "0xFf3C4Db8b2178cDe9ad4C2c94Ea27C7b91dDde9f"
      },
      {
        "passId": "71",
        "signer": "0x170a6a5596Fa77D9196192436F3E064097364dA6"
      },
      {
        "passId": "72",
        "signer": "0x48A5eEC163df32a1762fbf26Ed2b410e6e4f2C37"
      },
      {
        "passId": "73",
        "signer": "0xAe410A94196F04b12dBeCA2729F36c0CD910Fae8"
      },
      {
        "passId": "74",
        "signer": "0x08dFFEfcD20eAEFD724A5228A5d918D0600E707a"
      },
      {
        "passId": "75",
        "signer": "0xd5E7A9ef80D463eaA012858B877d84790D88b761"
      },
      {
        "passId": "76",
        "signer": "0x938a7078Dc893aa65Ddf8872545f15952797AC12"
      },
      {
        "passId": "77",
        "signer": "0x40C130E964d83cf724BE7Ee4208f959572383590"
      },
      {
        "passId": "78",
        "signer": "0x3901Cc1Aa2d168C7225bBee517d8A8215432Bd4c"
      },
      {
        "passId": "79",
        "signer": "0xd95609704Ea0E26a0FA392D71eD4c25014B9c85e"
      },
      {
        "passId": "80",
        "signer": "0x19a7800401a209Ee5558AD8Cc756a85F6979F80d"
      },
      {
        "passId": "81",
        "signer": "0xC7b17d06898DA2D8E7686731a900240607C1149A"
      },
      {
        "passId": "82",
        "signer": "0x0AA44c79e8d821c6955Fe4b56A68652BFa74F1CE"
      },
      {
        "passId": "83",
        "signer": "0xF0953CCE5dd629F8d31E2013CA71319992018A78"
      },
      {
        "passId": "84",
        "signer": "0x9d1bcF561bFa85C9B25E174F76B0929F4eB3349b"
      },
      {
        "passId": "85",
        "signer": "0xaC77DC760d89b183E9326fa882f683A0e1F2111A"
      },
      {
        "passId": "86",
        "signer": "0x81658e349A6b555d16004502f0F46F733acF375a"
      },
      {
        "passId": "87",
        "signer": "0xBe87a3cCfe6De0fb5096e6F4a82B2a61A2E50A11"
      },
      {
        "passId": "88",
        "signer": "0xc543D124e3A30bcb2826eEd32093C2e62B2a8862"
      },
      {
        "passId": "89",
        "signer": "0x4e7537ccD89556D0F58499B02B0244f37Dd66e11"
      },
      {
        "passId": "90",
        "signer": "0xA9cd91e5F4e64e901F4EA7Ec4E2822334552c01D"
      },
      {
        "passId": "91",
        "signer": "0x3c5de69Da14Ff83c3d4265D60D1FbBC7D5bAe8ae"
      },
      {
        "passId": "92",
        "signer": "0xdE880C397D8D14f9aF080AEE023F8A7cab1eac3C"
      },
      {
        "passId": "93",
        "signer": "0xB786E1e34419F6EAa5E8a3948a985c9dB8E57696"
      },
      {
        "passId": "94",
        "signer": "0xf630744784A4E115B755Fd0c0bA71B069f9c1263"
      },
      {
        "passId": "95",
        "signer": "0xE4897450DB3e6f92e902Fbd628edeB7F150F0708"
      },
      {
        "passId": "96",
        "signer": "0x60b8eBAe99CF20a4eEA5C6c74a7Be5153d6eD583"
      },
      {
        "passId": "97",
        "signer": "0xbCfa5b4c10e3fD08eA1Eaeb004Dd78F4B8B84c04"
      },
      {
        "passId": "98",
        "signer": "0x1Ae212BA5b843Dcab181c7BdD70A972278b6784a"
      },
      {
        "passId": "99",
        "signer": "0xeEB518dcFB8Cea12016fe964840cf0a3032daD07"
      },
      {
        "passId": "100",
        "signer": "0x4a3DC43Fde7eA6ab0B98fC2b8A7168c29986962E"
      },
      {
        "passId": "101",
        "signer": "0x7d077269baA5e48fB9f12b315FE4fBB51eBe397B"
      },
      {
        "passId": "102",
        "signer": "0xA58EF352d7ce0fcb36070eC196365c93e805015d"
      },
      {
        "passId": "103",
        "signer": "0x5075eb173fEF3b66a147d493Da749D5cF8259dC5"
      },
      {
        "passId": "104",
        "signer": "0xB51Eb77A35fE8934f108149EbC5D552306C9BCC3"
      },
      {
        "passId": "105",
        "signer": "0xDFD2550E49CE9349d77dCD5436C041B70B3Dd135"
      },
      {
        "passId": "106",
        "signer": "0x944554Aa990D771f779Eed7abbBE4E3CD57394b2"
      },
      {
        "passId": "107",
        "signer": "0xd6d3DBAEb548C10B1EE02A8ee9F97BE22A051162"
      },
      {
        "passId": "108",
        "signer": "0xd0FeB302B71Dc29e04a7BF440399693b2B3c2199"
      },
      {
        "passId": "109",
        "signer": "0x6472D9e0fa8b5151688a8b6C5b310DF2CD25B9f2"
      },
      {
        "passId": "110",
        "signer": "0xE9a0634Dcfc3C0e0B584966b74631C6C8a0a88fb"
      },
      {
        "passId": "111",
        "signer": "0xc1aD7eeb8590ae17dc223069150FbEb7D31b74A1"
      },
      {
        "passId": "112",
        "signer": "0x5E386973685554973bF626e3F8858387fD0d80f4"
      },
      {
        "passId": "113",
        "signer": "0xEcaEe4FA25d627D130cd3eeaa6E5b575291CD3a5"
      },
      {
        "passId": "114",
        "signer": "0x1Fc9417325A76B18A608d34E53e934D5410AFB4C"
      },
      {
        "passId": "115",
        "signer": "0x546875Fee37629564222A33812e6d5Fd1baa3aef"
      },
      {
        "passId": "116",
        "signer": "0xcfE5CC467be9ceF341B56cE1c286BF174cffd933"
      },
      {
        "passId": "117",
        "signer": "0x3c8976aF2f5968Ee1F617d43Fb762f0bAaa7f3b2"
      },
      {
        "passId": "118",
        "signer": "0xbf2D19D3f1FBF9a4660f5c872306c628e398B89d"
      },
      {
        "passId": "119",
        "signer": "0x24F623Ff49494D3d3D7F42a6c104F347E32d9517"
      },
      {
        "passId": "120",
        "signer": "0xd67c6f036A23eb1859122A4bc37DD50bE57A8E59"
      },
      {
        "passId": "121",
        "signer": "0x9b96358bEc52Cde63fBFf1c3f519C0478b9472B3"
      },
      {
        "passId": "122",
        "signer": "0x891d9430937051c186B092fE4b6bD12D66fA122E"
      },
      {
        "passId": "123",
        "signer": "0xA6e1855B32B9d81215A70ff7130389b938d45613"
      },
      {
        "passId": "124",
        "signer": "0x43c09f1B393751866D881CcE55b85d006e6A4fd1"
      },
      {
        "passId": "125",
        "signer": "0xe276106da747e01dD409623bE924970AEe0380f7"
      },
      {
        "passId": "126",
        "signer": "0xB0fe3BdEC7229B8810cfa640989660d2634ed438"
      },
      {
        "passId": "127",
        "signer": "0xD1f0178A77eb1d99360A440035a7F7e569e30947"
      },
      {
        "passId": "128",
        "signer": "0xCb6F42b0e3DA53b8d141357e042825267E388f4E"
      },
      {
        "passId": "129",
        "signer": "0x72B57c5ac4805bC66aD6a832990E889C5F02f5f0"
      },
      {
        "passId": "130",
        "signer": "0xC1aF55c160d95c90B83678613ae45837e1725a25"
      },
      {
        "passId": "131",
        "signer": "0x76067d25CBCd73C39a94f5d2CbD3F28902BE4Ada"
      },
      {
        "passId": "132",
        "signer": "0xb960bf0e68A38D434F436A1A74c1dDBd0fb67C96"
      },
      {
        "passId": "133",
        "signer": "0xcf89080Af9253AE5b2BC6f95A9e415915ecf9355"
      },
      {
        "passId": "134",
        "signer": "0x59E6A2989215B77f98332F678d187521BE481F53"
      },
      {
        "passId": "135",
        "signer": "0x44ec9358ef583dDfE5D1B061127A271fba380C84"
      },
      {
        "passId": "136",
        "signer": "0xbdC12D91E28c53B57069F142b96228bB530d1A48"
      },
      {
        "passId": "137",
        "signer": "0x6F88696B15C5a841F465C4dF462fDf2D435d7dbF"
      },
      {
        "passId": "138",
        "signer": "0x3bA7e078f7BF53c2155d662e5698C43374746a83"
      },
      {
        "passId": "139",
        "signer": "0x0B11cAce1B5A46EC66A13946A009260102d4ECab"
      },
      {
        "passId": "140",
        "signer": "0x0F0cd885830b923Da5A315FC4358D6BDccB25CAC"
      },
      {
        "passId": "141",
        "signer": "0xac458c58E8580C7aEE4EC273D94DB05b27FC76C0"
      },
      {
        "passId": "142",
        "signer": "0x5fd5be5096fa87Ed1CEde7E452b4774452452721"
      },
      {
        "passId": "143",
        "signer": "0x0a6cbA31605769d25B1f203A394290CbE404344A"
      },
      {
        "passId": "144",
        "signer": "0xa784d0Bfd3cAB6d0dB9408C16228B379DB9DcE6b"
      },
      {
        "passId": "145",
        "signer": "0x467A9a20a0d89d60fe7c9018D34cE2CBE09AD32D"
      },
      {
        "passId": "146",
        "signer": "0x241b8FB5e148c12Fe25e5c448F29838804bEfD06"
      },
      {
        "passId": "147",
        "signer": "0x4B37aD06bdd892C827581AF0B2fb57529653dFc3"
      },
      {
        "passId": "148",
        "signer": "0x487C1BD1eAE728885B842819D7bD53aa6A6f5CE1"
      },
      {
        "passId": "149",
        "signer": "0x86c1c0b73e67fc8659dB0DA9eC79aFEe70D14d6d"
      },
      {
        "passId": "150",
        "signer": "0xd5C1053A827D70f99f97b2a6D301eD16f1161F70"
      },
      {
        "passId": "151",
        "signer": "0xb5B23692081700Ff3C88e6d4C8271407Fc7fc1Aa"
      },
      {
        "passId": "152",
        "signer": "0x18781ea04ce897C23C813A264Bff26C32c48f17b"
      },
      {
        "passId": "153",
        "signer": "0x6acbB9578B79f9b5E02ac26bE594Ecec7BddF934"
      },
      {
        "passId": "154",
        "signer": "0xeb528e121f8F621FFE3B82B0a8e6322164Ef0A2f"
      },
      {
        "passId": "155",
        "signer": "0xeF2f6A0393E831D076d69851CBFA7bc97cc72c10"
      },
      {
        "passId": "156",
        "signer": "0x48fE101204529285c02d97156aFaa7e011fb7159"
      },
      {
        "passId": "157",
        "signer": "0xb04948DbE3DBe6d7E8c20D2945aC6927249E4e22"
      },
      {
        "passId": "158",
        "signer": "0x3FA698c8Ba552B4bb9F2bEeA50CF848BB6F9a7C5"
      },
      {
        "passId": "159",
        "signer": "0xae2c73CF208Af300bd7D4bCbF288dB68f9eb2e96"
      },
      {
        "passId": "160",
        "signer": "0x6337266aA98fDe13Ae40A405e7b2D471Afee60f6"
      },
      {
        "passId": "161",
        "signer": "0xAF9e91C22fdA031586830D6e78553f99fB59B4f3"
      },
      {
        "passId": "162",
        "signer": "0x47A027D528f83DFFBF17C69b585BDB8f3BFA8286"
      },
      {
        "passId": "163",
        "signer": "0x831bfd56A75454B61F2C6d9cfDe09a61366413cD"
      },
      {
        "passId": "164",
        "signer": "0xc56b6CB7F042b42227EcA4163228fcf01A04F3a2"
      },
      {
        "passId": "165",
        "signer": "0xd3a8D83DE6E5d25e83f9e8Db534E89Dc310eE905"
      },
      {
        "passId": "166",
        "signer": "0xfB02e24804D68F5940b121552C4c62c6658E832B"
      },
      {
        "passId": "167",
        "signer": "0x8d1CB35D58880F87E2D1E1B80125eFD3e29A9752"
      },
      {
        "passId": "168",
        "signer": "0x382B00A5c87c1e232879EdB077383C7DeeE03F15"
      },
      {
        "passId": "169",
        "signer": "0xed71c2CEf57363DC111623E860056726200bC980"
      },
      {
        "passId": "170",
        "signer": "0xA127bB33a9f7693EdC38F63481F8bb8968910CAD"
      },
      {
        "passId": "171",
        "signer": "0x7593388Df26448Ba510E3B57C0F2519f66D2BE56"
      },
      {
        "passId": "172",
        "signer": "0x83afA78ADAAE9a2c8b0aFBC9F5DB22E8209B767F"
      },
      {
        "passId": "173",
        "signer": "0x538e772089606120E571b0fa869b869C3728B9c1"
      },
      {
        "passId": "174",
        "signer": "0x4D2D4462FaD14F0C1D32A8fA6A0Aa3012dBBcc09"
      },
      {
        "passId": "175",
        "signer": "0x23b643dB28Ff291dc0f99777382E1BEB26089D1b"
      },
      {
        "passId": "176",
        "signer": "0xA2491829a15BE35d52D587d01C3a02E976d439b5"
      },
      {
        "passId": "177",
        "signer": "0xDF9DA3B9b31812B87e5F1952F50c14FcbBCD7Df7"
      },
      {
        "passId": "178",
        "signer": "0xe932CFB135bb724FAd96a78E92bDb9B13e70E01F"
      },
      {
        "passId": "179",
        "signer": "0xacC3179E42EF181A1170E566400Bf0fe26B1c976"
      },
      {
        "passId": "180",
        "signer": "0x024f1f4FB2d0c3b30d8EC21ef5911A2D671d3a10"
      },
      {
        "passId": "181",
        "signer": "0x11a2EbE20DA5e5CE5DDCe64d502a091Ad61b8291"
      },
      {
        "passId": "182",
        "signer": "0x75fB302F962d43a7652F17253eB3ADa80275edA3"
      },
      {
        "passId": "183",
        "signer": "0x00cd4d440cF789dCA8278BF20ec10dED2A2bF435"
      },
      {
        "passId": "184",
        "signer": "0xA76a760AB51D8D9D47eE9e11C40952bC41B71c75"
      },
      {
        "passId": "185",
        "signer": "0xd61e129C3D1c7a452397011a719bBa8c0616649A"
      },
      {
        "passId": "186",
        "signer": "0x3ac8f079fd9Fe666D1fa765726bEB570C62dBC6B"
      },
      {
        "passId": "187",
        "signer": "0x503462af12d2FAB5e07026BEe52fcB3b205DcD80"
      },
      {
        "passId": "188",
        "signer": "0x782e948e2E5DAA3A3699CE20Ef44525b4f1e2afa"
      },
      {
        "passId": "189",
        "signer": "0x4d76Db6Eb38fd213a6c08d7a36EB198299286AeB"
      },
      {
        "passId": "190",
        "signer": "0xae250c23CA04d486BAA66BC2Aac598aF5aE8DD91"
      },
      {
        "passId": "191",
        "signer": "0xd4d24F4C66c639b27f0eB55f631269aE5fB6f356"
      },
      {
        "passId": "192",
        "signer": "0xdFb517b8f21cD169A7B4338Fb3475b24DF3E3C55"
      },
      {
        "passId": "193",
        "signer": "0x9098c877C8ee05b424564B1BDB56B659C22CeFEF"
      },
      {
        "passId": "194",
        "signer": "0xa9a281b3115f9f800dD3dd000b925878a8057605"
      },
      {
        "passId": "195",
        "signer": "0x7763Af3F7264d0512e1C3350fB0340562b0D823a"
      },
      {
        "passId": "196",
        "signer": "0x42C3b27e6003aBA3691f96B48a5BfEdC963DB7f4"
      },
      {
        "passId": "197",
        "signer": "0x5108E19BC20666940b6939189B6541425D328AC4"
      },
      {
        "passId": "198",
        "signer": "0xa52484ccC064afFcB4cfeDde44f58B68F8F4F285"
      },
      {
        "passId": "199",
        "signer": "0x68A7B18dC9DC5Cd2Be6bFeF43bB8B4F33cac613F"
      },
      {
        "passId": "200",
        "signer": "0x94b70c34750f0392f7253ff30B410713496489B4"
      },
      {
        "passId": "201",
        "signer": "0xf4E751fbF38709924ec0968d9CE9C25BA81859df"
      },
      {
        "passId": "202",
        "signer": "0x93b08036b9f217c6E51D97B16080bADbE5723C9d"
      },
      {
        "passId": "203",
        "signer": "0x2D56B79BaA1dF4Dca8991B42fD5F3C01b29d961a"
      },
      {
        "passId": "204",
        "signer": "0x33ffb999d831C85cdE6B978b9c783B438E767be0"
      },
      {
        "passId": "205",
        "signer": "0xA4794e7dAb6674a24E69cF8e1Ae9bBa7dE730714"
      },
      {
        "passId": "206",
        "signer": "0x1D412930E1A5b044daA295737BBf4E0CA1601a8C"
      },
      {
        "passId": "207",
        "signer": "0x15b921DEE0dD28B24a321be278a4F203A075eFAa"
      },
      {
        "passId": "208",
        "signer": "0xe28A2c7199b3AC654Dc8772096327A78E082b71C"
      },
      {
        "passId": "209",
        "signer": "0x5137de0ef8E2F4F5Bab375579dd350514cA58378"
      },
      {
        "passId": "210",
        "signer": "0x959caD3C1e2ba1A5760B58C8A24574E854Bf1954"
      },
      {
        "passId": "211",
        "signer": "0x1cC91F5F8e08E0A8821BF07e238dBf57a25304Af"
      },
      {
        "passId": "212",
        "signer": "0x58BF044Aa79df7F54E5D1BBbe12B6AD61E19061f"
      },
      {
        "passId": "213",
        "signer": "0x6FAc28B1aA70243cA6C5417f8Ac184Daa257A5E6"
      },
      {
        "passId": "214",
        "signer": "0x0E0e7d93335C36d418b986394b28510D3cb22c80"
      },
      {
        "passId": "215",
        "signer": "0xC19a2DAD98a4a90c5a4f7838927849Ed540414AD"
      },
      {
        "passId": "216",
        "signer": "0x58071D9A4524e3d6E6f0a04Ff6067AC50543d8D3"
      },
      {
        "passId": "217",
        "signer": "0x97333dfC4F979D4d34a79c385d5E17449936347F"
      },
      {
        "passId": "218",
        "signer": "0x2963C90c2EbDc86804Ada7333C92b033739522CA"
      },
      {
        "passId": "219",
        "signer": "0xcAAb59ee591565C116019D5d18072B8c4b8630f6"
      },
      {
        "passId": "220",
        "signer": "0x16ACA50bb6985d508d871c9851263e89462b1C26"
      },
      {
        "passId": "221",
        "signer": "0x55535a93f1a9CdFC520b7c31359d24d831Cde2EC"
      },
      {
        "passId": "222",
        "signer": "0x83434B26D6B3e1461883a1176F53669666414C81"
      },
      {
        "passId": "223",
        "signer": "0x13E13666AD6D7168E65aD835C697F68040ccD900"
      },
      {
        "passId": "224",
        "signer": "0x5aB724bBdf0E69Ac4A480016Cc07dB26F8785026"
      },
      {
        "passId": "225",
        "signer": "0x066a9EFaD0501Ba45955cE47629494dfdC1377c4"
      },
      {
        "passId": "226",
        "signer": "0x305B66cFf941fa456442DAa502f203DedD4DF56d"
      },
      {
        "passId": "227",
        "signer": "0x9caA22E74Ad5a697C44A72e0f14a00D98EDBf1b0"
      },
      {
        "passId": "228",
        "signer": "0xEE9D2F09fcB295917E24a75c6bE3E16eE850Fad1"
      },
      {
        "passId": "229",
        "signer": "0xF1107d5B8E54424140ea40Efaedd6Dc70403BeC7"
      },
      {
        "passId": "230",
        "signer": "0x127251Bc182F362c4660c3dBcbF343A930F58922"
      },
      {
        "passId": "231",
        "signer": "0x2152A573C7F8e7F4592e063f829BfbB773249b58"
      },
      {
        "passId": "232",
        "signer": "0x1C25dE1f620BfB851f88732D88D5AD45bda79eBc"
      },
      {
        "passId": "233",
        "signer": "0x87e082E44532f18cCcb78405e8486e85563c6b0f"
      },
      {
        "passId": "234",
        "signer": "0x085D6bE91B48Fe551c94EBc451D08e2748B4852A"
      },
      {
        "passId": "235",
        "signer": "0xd7e04e8Ecd76949F7EDAc0b0f567273D2F784BA4"
      },
      {
        "passId": "236",
        "signer": "0x6AE88245028787C6851A57569BDa6832734431a8"
      },
      {
        "passId": "237",
        "signer": "0xdE8F620b5C568CA226c251DC25f4C015006bCd1E"
      },
      {
        "passId": "238",
        "signer": "0x09C157A38bfBa1A298a776Dbc5343f060E69F422"
      },
      {
        "passId": "239",
        "signer": "0x9E89968601864c71C4F204524e650bd47BccaA5b"
      },
      {
        "passId": "240",
        "signer": "0xB1eF144e92c7F4aBe6E3DE42Afd507c4698ee285"
      },
      {
        "passId": "241",
        "signer": "0xd40ddc4c1dc0E2F12e2cc70cf1dd1Dd0ED0b5A19"
      },
      {
        "passId": "242",
        "signer": "0x241cBeC6198eb4c6056517aeB2fde0cc521c8687"
      },
      {
        "passId": "243",
        "signer": "0xB4FCd10541eA838B7049dCcE28cd4e1a95839747"
      },
      {
        "passId": "244",
        "signer": "0x1243DE3390AbCcbA67FA7184460C481B5153F874"
      },
      {
        "passId": "245",
        "signer": "0xA90E798C63D30CFEe3C6f3DAc2bb38f09C434683"
      },
      {
        "passId": "246",
        "signer": "0xf102A8dA655501DCd4C69780D9D74B042E316d48"
      },
      {
        "passId": "247",
        "signer": "0xDE2eF9c627d751608822C82a5d0333706C4297Eb"
      },
      {
        "passId": "248",
        "signer": "0x5C890f1f5301f5f21D9D555567510148D6aBa694"
      },
      {
        "passId": "249",
        "signer": "0x772d1e606352A1053EC5a329a263bf0E3db8C012"
      },
      {
        "passId": "250",
        "signer": "0x239a93667d362A2A3dD41AF2fEa4ff5eBe3BffD8"
      },
      {
        "passId": "251",
        "signer": "0xA3E07Ab97dfcB56A533f435Df2094A8b1b426d9F"
      },
      {
        "passId": "252",
        "signer": "0xfae358670476F44Fd3e772166e58e9516aB5538b"
      },
      {
        "passId": "253",
        "signer": "0x011803Fc7607f66c02790d935659d64DaeeD8d44"
      },
      {
        "passId": "254",
        "signer": "0x27D72051fA0c2C92f62152E0E2bAE46Ed7FBDd71"
      },
      {
        "passId": "255",
        "signer": "0x0CEA65DA434D300eEDF3d4F34A5795aAf3e95944"
      },
      {
        "passId": "256",
        "signer": "0x60f3586F3e1D712b79c904ABE060c257a32C721F"
      },
      {
        "passId": "257",
        "signer": "0x77e0ABB06516cDe7B9B354f66B413f468Fb92260"
      },
      {
        "passId": "258",
        "signer": "0xdE0aF96f4683d027C28c888F4ce6810442aa8325"
      },
      {
        "passId": "259",
        "signer": "0xe85fc7827BB82cD890f20E06fa3f45188c4bF543"
      },
      {
        "passId": "260",
        "signer": "0x46b2514047803FD4eC847ab3Dd2Cae9D0bbdCaeD"
      },
      {
        "passId": "261",
        "signer": "0x47884B4dA12037247669feE3e8dBBCFB7A5156b5"
      },
      {
        "passId": "262",
        "signer": "0xA380508Ab9945EF923fA01EA18867E84f2EEF74d"
      },
      {
        "passId": "263",
        "signer": "0x8E27DA71af2eEF8A1c31CB26348F6652B6B62b3e"
      },
      {
        "passId": "264",
        "signer": "0x6bFf70A4AE115A4d53D1b4df82dFd5c155dd8f2f"
      },
      {
        "passId": "265",
        "signer": "0x06f3D0070C6D9Fe6a2a5cf7e4903a307Bec6860F"
      },
      {
        "passId": "266",
        "signer": "0xEb230E173d630191ACB0f355bcB7D6d5AB831EC2"
      },
      {
        "passId": "267",
        "signer": "0xC2d72B840D6A729b8b190AE4051B64330094d25c"
      },
      {
        "passId": "268",
        "signer": "0xD90ad03FAEce73Dea9BA26714BC5684b4f6669D8"
      },
      {
        "passId": "269",
        "signer": "0xe2bBabb35B4FA5366273CCb23957c48860Cf3FFb"
      },
      {
        "passId": "270",
        "signer": "0x4aa716a6648a560Dfd2544b6B96bD074FE1Cf900"
      },
      {
        "passId": "271",
        "signer": "0x67736C17BBF5f8D580620f353c09272a59651882"
      },
      {
        "passId": "272",
        "signer": "0xf5cb82787f97f91bab89595aFAceD591623b7980"
      },
      {
        "passId": "273",
        "signer": "0x215d9b07f827d2BfeaA0bb012bCc8F97A681f7c6"
      },
      {
        "passId": "274",
        "signer": "0x53b9D02FA49Bf43e973b6f7eff62704e3c13AEe1"
      },
      {
        "passId": "275",
        "signer": "0x9AC9c331f8c6D22aDB5A4E41602B9C71136293f9"
      },
      {
        "passId": "276",
        "signer": "0xbA79B57B768A688C3D00F2d5FD78b8E07832Bf8f"
      },
      {
        "passId": "277",
        "signer": "0x2CEdFd9B67CD4D3f2E5D893318f9a45d34670D9E"
      },
      {
        "passId": "278",
        "signer": "0x79bbc7A56f9Bb8B4CFa35dE37B2794515dC5d689"
      },
      {
        "passId": "279",
        "signer": "0x31A7DBCFC25AB1472d6Cd12cdD01A43e20DD15DA"
      },
      {
        "passId": "280",
        "signer": "0xA3fD5AD25ab32fE2262ED15Fb5E2014BA1A03193"
      },
      {
        "passId": "281",
        "signer": "0x148E20492645dfee3519E0AD3ac32bb46932D6ce"
      },
      {
        "passId": "282",
        "signer": "0xc045812B822E19E70Bd3c0EAa4f8f703ff228195"
      },
      {
        "passId": "283",
        "signer": "0x1be7c50603338aAdC35D77c60f2264C095153A3E"
      },
      {
        "passId": "284",
        "signer": "0x293cDEf3B459a8ef6E8718a6c174Cd2Ad5fA917E"
      },
      {
        "passId": "285",
        "signer": "0x87bA90568cb8daBd8be1f7447a311892dEa5F9B2"
      },
      {
        "passId": "286",
        "signer": "0x302C39C6884AcBDfa0c8141b1863F11036f7C9b0"
      },
      {
        "passId": "287",
        "signer": "0x65F02148a5c688534580696E3E844922610A9953"
      },
      {
        "passId": "288",
        "signer": "0x18d87D099B22232962601C5d0Ab037643455f920"
      },
      {
        "passId": "289",
        "signer": "0xB21EB18306C6F9f01eAA4d95910f525d5a00B5E7"
      },
      {
        "passId": "290",
        "signer": "0xdBEa0Bc70e2BdB6E491Cec6Bb4F2b9824982Fe19"
      },
      {
        "passId": "291",
        "signer": "0xbF495c4307dB77d46616cEF2C40BF05DF73BF9e3"
      },
      {
        "passId": "292",
        "signer": "0xf022c2B8AD5b2e5bA5f2A01F7F4D1D0a231A466c"
      },
      {
        "passId": "293",
        "signer": "0x668Cbc99b1e2caBe2718D20f3E30FAbcdf231C83"
      },
      {
        "passId": "294",
        "signer": "0x5f59d5D2783E0242cF67bb51239B2377D5f20E76"
      },
      {
        "passId": "295",
        "signer": "0xD34F4F4926Ffad4bB76918d0CF542a60196cF49C"
      },
      {
        "passId": "296",
        "signer": "0x216163362b62C4613b27e7c10D188f039DD11385"
      },
      {
        "passId": "297",
        "signer": "0xfE8A5674fc1c9BBb292c0F0562428faCD35dF0EB"
      },
      {
        "passId": "298",
        "signer": "0xa03dA67656B51De10219aa1E238e701227f3F61b"
      },
      {
        "passId": "299",
        "signer": "0x04F2dF0579299e113C3D2a8F60885912670866D4"
      },
      {
        "passId": "300",
        "signer": "0x141Af7b0e482CF83b7AdCfe4b150319bC07Aa621"
      },
      {
        "passId": "301",
        "signer": "0xEA69C121BC9CB9c264CEc70Fe87CCe966AaCb2a9"
      },
      {
        "passId": "302",
        "signer": "0x4de174F0333BC42cc71d953B67318b4D05d127D4"
      },
      {
        "passId": "303",
        "signer": "0x04eE4798Ffe502e163AbB612C668f8AC29651273"
      },
      {
        "passId": "304",
        "signer": "0xFcfD94f43C922914e18B72AC3C43780d0cB926C5"
      },
      {
        "passId": "305",
        "signer": "0x4E39716F19e02942467B15f809Bd7Be8c88311A9"
      },
      {
        "passId": "306",
        "signer": "0x36193fB6E7C78Fb556fD77A27F4f312EaeDfCC72"
      },
      {
        "passId": "307",
        "signer": "0x0A684EAf645fa8154f13ca1A6b62dE27201788f9"
      },
      {
        "passId": "308",
        "signer": "0x1370105357386976ad6960eb5C9EeA003C219Fd9"
      },
      {
        "passId": "309",
        "signer": "0x308D9b3d3cfC312d75EC98608bf8D1D5BF16911d"
      },
      {
        "passId": "310",
        "signer": "0x20B88E9909B4A137DFCe954aDa730E0bd470263F"
      },
      {
        "passId": "311",
        "signer": "0x693d9CE5CA9d11F83D8996116a0395e18e96331f"
      },
      {
        "passId": "312",
        "signer": "0x55E64D610530958950eAF15F750DAaD1693C074e"
      },
      {
        "passId": "313",
        "signer": "0x78f3d6cB8321474a273Db05C4cE6abae40eAD3E8"
      },
      {
        "passId": "314",
        "signer": "0x90212E556774C134B49D6597C4445D1ba8bc3Cce"
      },
      {
        "passId": "315",
        "signer": "0x46f14603daa570d1CB2e65Ec355Be8Fe98044D5a"
      },
      {
        "passId": "316",
        "signer": "0xe39a28d6Df3eFB0A104Fb009537d9afEcd64c594"
      },
      {
        "passId": "317",
        "signer": "0x0c44Cd090a9d79FfEd33be440Dd4738A46ED8eC8"
      },
      {
        "passId": "318",
        "signer": "0x2d05D8E02503E2F31D5776d5FB68DdE3D38efc95"
      },
      {
        "passId": "319",
        "signer": "0xf8f76963298c0f09AbC7Ab4770C6e5807f267924"
      },
      {
        "passId": "320",
        "signer": "0x020987F85416CEee3256309e5A0D154B564F0b74"
      },
      {
        "passId": "321",
        "signer": "0xB175BC599d8BbB4426084168052312A29B87bc7D"
      },
      {
        "passId": "322",
        "signer": "0x157dd03525af180f0300665767442e20F66c79B9"
      },
      {
        "passId": "323",
        "signer": "0xf5C3C6e44Fa10Ea46188897D59e8D3B32904f8C7"
      },
      {
        "passId": "324",
        "signer": "0x7a3d8CEE60bb54f04B2234B474445dFB808B7A96"
      },
      {
        "passId": "325",
        "signer": "0x69001d9DEBCB79cD87A999EBA2EaB8517F672f8F"
      },
      {
        "passId": "326",
        "signer": "0x011CdE06d2AC09664B6063eE2d56cD7B98D923f8"
      },
      {
        "passId": "327",
        "signer": "0x7fe9594b851bD0ee8F57eB4a0C0801D8f2E457c5"
      },
      {
        "passId": "328",
        "signer": "0x66292660c01A8207EcC850C8a2Ad6b17A7f0510C"
      },
      {
        "passId": "329",
        "signer": "0x6C140E8D42eDe5b4bD88CE58B9C7A2805664cAB1"
      },
      {
        "passId": "330",
        "signer": "0xCC39C1EBFA65c91947001b80c7cbCf283d58Ed54"
      },
      {
        "passId": "331",
        "signer": "0x27F2695383A561d2Bbe87ABD0A9934A56d3A6Ed8"
      },
      {
        "passId": "332",
        "signer": "0x8EE8374B20f7cBf90DF66C5F984A7d64CA45a3E2"
      },
      {
        "passId": "333",
        "signer": "0x247B253A3A9797e44cad7C228941275c18e668e0"
      },
      {
        "passId": "334",
        "signer": "0x85b2f4FaCB8BF23ea6Bc3B211544968Ad38e482d"
      },
      {
        "passId": "335",
        "signer": "0xFF793c26CcE644D40f7Db7C54E19b86521d46bdf"
      },
      {
        "passId": "336",
        "signer": "0x9A3787592bAdc2bBA0D4C339B3c339eb0e7B3dd9"
      },
      {
        "passId": "337",
        "signer": "0x819BacFD15D8D7E39546F141e8AD95A958cc616c"
      },
      {
        "passId": "338",
        "signer": "0x0c5Bd843C5900f011E7cd659826bE3f813cD06eE"
      },
      {
        "passId": "339",
        "signer": "0xDd224363738f9f4909bC5c41b9e90497A50c2078"
      },
      {
        "passId": "340",
        "signer": "0x207d20e300a951798e610C48b9CBc23d8831F48c"
      },
      {
        "passId": "341",
        "signer": "0x6ae28a2f5428732FBe45D6725A288eD055bc6243"
      },
      {
        "passId": "342",
        "signer": "0x342b04B4DE1F9d558DC683F2D1525aC8c130A2fF"
      },
      {
        "passId": "343",
        "signer": "0x74a01ea0D0BB8046b09B665EA34d3ca38981E5Dc"
      },
      {
        "passId": "344",
        "signer": "0x9826DB1E7a019086f346019B2AE2B4C7c7C5A86f"
      },
      {
        "passId": "345",
        "signer": "0x8cc7f5aB9A935feE5652576db2bc35597647A1fD"
      },
      {
        "passId": "346",
        "signer": "0x13c63F35c0D90E688eCCB4ceFf0A5C4956596490"
      },
      {
        "passId": "347",
        "signer": "0x55AD73c03778473205015E44EDA7A424aB9b24a8"
      },
      {
        "passId": "348",
        "signer": "0xA06e8d0eF1f266BbD2b0D923d5b552587aA19479"
      },
      {
        "passId": "349",
        "signer": "0xcE619f4f742b5F90a271Fd9bB35d66DA44979EAc"
      },
      {
        "passId": "350",
        "signer": "0x0AfB8839649C26b4EF0bABAa32389894779117f8"
      },
      {
        "passId": "351",
        "signer": "0x3F5Ebd0Cad67A1a166A099b4F31D7C11a7f362A4"
      },
      {
        "passId": "352",
        "signer": "0xB2296b2a76065dcB4741845f81112483FC62FC4B"
      },
      {
        "passId": "353",
        "signer": "0x85B4C801E3701D569d6d332c42961CB30ad757c1"
      },
      {
        "passId": "354",
        "signer": "0x169B2b24C34E8c2103A0dc3A8e0e8ab6756486Cb"
      },
      {
        "passId": "355",
        "signer": "0xaf81e7e9069A3B054F63925725170EEFEed4798e"
      },
      {
        "passId": "356",
        "signer": "0x639f9B0c6C9932f00063d8b0D9d5b566271b9ec7"
      },
      {
        "passId": "357",
        "signer": "0x3334D9e881C93e93F6a7a128B6cBC09123b104d7"
      },
      {
        "passId": "358",
        "signer": "0x18df35bE251C378513789C5bB013B922797eD5C9"
      },
      {
        "passId": "359",
        "signer": "0x89eF76Eb3f0c013f29063c316d547ee166226a39"
      },
      {
        "passId": "360",
        "signer": "0x0C0c2341E889EA38E0cEf21a743a37EFa9e7E5dC"
      },
      {
        "passId": "361",
        "signer": "0x3A36978e7833DD0383c1a614E7886C9F393fda9B"
      },
      {
        "passId": "362",
        "signer": "0x84101AFa940FF55e24Af65e160C4c3Cc79D1aBFE"
      },
      {
        "passId": "363",
        "signer": "0x2a689a5410D07B875AF260A009dE90137688042e"
      },
      {
        "passId": "364",
        "signer": "0xD7f236c91220FC92111Db48DCcb67E027998DacC"
      },
      {
        "passId": "365",
        "signer": "0x78611AF4dD672826EDcb773A0914c77DB48e8c67"
      },
      {
        "passId": "366",
        "signer": "0xA389B703eBAFE01218302A5f6a4a530384523490"
      },
      {
        "passId": "367",
        "signer": "0x4E383116B09d9c7F109294246489d7C6f88Df42A"
      },
      {
        "passId": "368",
        "signer": "0x82a616151384aEdE91260fAF160f94E235Db59e4"
      },
      {
        "passId": "369",
        "signer": "0xEFA99aC7817eE13aBDc1160cDAF43cbc2D4000F3"
      },
      {
        "passId": "370",
        "signer": "0x4471EB133124603ca8961301F0e8CB324a5205AD"
      },
      {
        "passId": "371",
        "signer": "0xA027291047ecE7b19125b8fB4c5d2cdfDd72FD5f"
      },
      {
        "passId": "372",
        "signer": "0x27D6B2c8c7D61EEB642631600150F6df51aE108C"
      },
      {
        "passId": "373",
        "signer": "0x7e63AF2Af7be0600f39E2F6727804D3c32A6a711"
      },
      {
        "passId": "374",
        "signer": "0x0f64330D75ba82d276Db838132abF0cBe0F05156"
      },
      {
        "passId": "375",
        "signer": "0xc9bf536a506CAFAe9f3996A8146ac157257a026b"
      },
      {
        "passId": "376",
        "signer": "0x93cBD7E12546a793dc626601BD3C0B50D210926F"
      },
      {
        "passId": "377",
        "signer": "0x7bA7EED860A2ecdf84200e7FD31F31eb6124546B"
      },
      {
        "passId": "378",
        "signer": "0xA722F8c5EB5f75A5993202d1e6fC03ff6aAeAF9B"
      },
      {
        "passId": "379",
        "signer": "0xedEa0d0226C34Eb9A7cA69ec172f166C38e14eA8"
      },
      {
        "passId": "380",
        "signer": "0xF46A4F0D4F152572392cC4B8979E3C4FB06c823e"
      },
      {
        "passId": "381",
        "signer": "0x4fc0487EF5Aae8646FA7e891E5D9aa7E1891006b"
      },
      {
        "passId": "382",
        "signer": "0x5aBc92f4A9B13455eC752654AAaf9E73D62B29A0"
      },
      {
        "passId": "383",
        "signer": "0x508b016B49ED52fb9148cB78db71B21D6dbcF09B"
      },
      {
        "passId": "384",
        "signer": "0xA1fE62fA731646a16B2a5e45582e92009F8Fd466"
      },
      {
        "passId": "385",
        "signer": "0x2D70dfe35456d7054136cD5C434400A42Bd521E7"
      },
      {
        "passId": "386",
        "signer": "0xD5EfDF6c51feF5f161f34c5eD986cf3d04d6984b"
      },
      {
        "passId": "387",
        "signer": "0xe09992597DA31E55eF121435564D4f6Fc8584378"
      },
      {
        "passId": "388",
        "signer": "0x3DE27160Bb52C2fABd82caA9b4378bc161fD1bCb"
      },
      {
        "passId": "389",
        "signer": "0x21EA9d51d34F2CCfDc7d036e17B344d3b293B7BA"
      },
      {
        "passId": "390",
        "signer": "0x88fc049068bEFfa58151a048D3792B1208943916"
      },
      {
        "passId": "391",
        "signer": "0xE546e37a4EcA9A57dA4Cd8441b8B291EEED9FCD5"
      },
      {
        "passId": "392",
        "signer": "0x8ccc9C9f129B75d9043Eb1aC22b9822aDb5d8Aa6"
      },
      {
        "passId": "393",
        "signer": "0xdf04880a3cfe2f00C5C3103ba60f59D20c86DDCF"
      },
      {
        "passId": "394",
        "signer": "0x0B52Bc65eFB038F905fDa183dC39E915616C4B66"
      },
      {
        "passId": "395",
        "signer": "0x68641D475B3109B6C8D2e43FE4dBC4285d3AEe26"
      },
      {
        "passId": "396",
        "signer": "0x96fba9768d7165AF4e60f07Ef223D4066d80FDB8"
      },
      {
        "passId": "397",
        "signer": "0x541fA029cE8C85F30a4F0D3337ff7731a02143bD"
      },
      {
        "passId": "398",
        "signer": "0x396FEb711D1C7a84D6BF5AB836Fb6A360faC4cD3"
      },
      {
        "passId": "399",
        "signer": "0x0ba7eCc78cfdbc3f58E9af74BeE8098C65fc2bE5"
      },
      {
        "passId": "400",
        "signer": "0x6Ac3Fce5C47D9AEfB6786734C21D1c058Feeca32"
      },
      {
        "passId": "401",
        "signer": "0x46af0CfB6164BbE9C4b264466d003db0aE26364a"
      },
      {
        "passId": "402",
        "signer": "0xd4EaeF6053Aa4F917E9D47Cc3C596dA45Fb84581"
      },
      {
        "passId": "403",
        "signer": "0x8704A122825AB85CaC3B64dbd40078a7c749B6ad"
      },
      {
        "passId": "404",
        "signer": "0x62fE42F40316f4aDFAd8C1eb07Cc41e1F992EAFb"
      },
      {
        "passId": "405",
        "signer": "0x30a0F014c2Ce3970A6C0F3F1BF4CCA37f3904F7a"
      },
      {
        "passId": "406",
        "signer": "0x95Edb5F2377286724B668759b982ba07e381CC74"
      },
      {
        "passId": "407",
        "signer": "0xbfd336c1ea0BfE57303d8F3DD0de3AE26D44e0Fd"
      },
      {
        "passId": "408",
        "signer": "0x37Ec44e6A93Dde91c1aa4b807Dd73103dDfe36ca"
      },
      {
        "passId": "409",
        "signer": "0x6AF9b62219Aa6E5C7C01E75865b13D998CFf33Ac"
      },
      {
        "passId": "410",
        "signer": "0xB2Fda8e909aDDf1cc5C2c78cBd8Ab80F4C3cF291"
      },
      {
        "passId": "411",
        "signer": "0x24D3A12944B59ED624ace7C8913F2Bc9af876655"
      },
      {
        "passId": "412",
        "signer": "0x669f2739f7b0da7D6026c4875B0d10D568e0cfF6"
      },
      {
        "passId": "413",
        "signer": "0x4cBc20a2f3c39d6eB42754F9C1DaC594dffeAf07"
      },
      {
        "passId": "414",
        "signer": "0xcF955dd200E51C8e5a56992dd7b80b0d14c525C5"
      },
      {
        "passId": "415",
        "signer": "0x98298f8c5E10DDeCa27C1D2891b5BF1B5FFA0a90"
      },
      {
        "passId": "416",
        "signer": "0x585dBc3D07835fd226Dc3C8c68cD03463063e231"
      },
      {
        "passId": "417",
        "signer": "0xd7206b22560De275257Cd4Ac772d40E209B4D062"
      },
      {
        "passId": "418",
        "signer": "0x2d1eF2793163BAA77A63e8b6A786430C97740988"
      },
      {
        "passId": "419",
        "signer": "0x2153156441c6f0f16C92EB3fdCdb77C41CBE7711"
      },
      {
        "passId": "420",
        "signer": "0x2619e2bba793a7F80c63832127220De6DE9E7DCE"
      },
      {
        "passId": "421",
        "signer": "0x83B8563A739e06915e6b01847687e31f5eA9d4b1"
      },
      {
        "passId": "422",
        "signer": "0x6f083909B413929d04bBB47605BFb6D5754E0CFd"
      },
      {
        "passId": "423",
        "signer": "0xD944dc21b7DAfDFC53cf8C9CB3439564B9D4DD71"
      },
      {
        "passId": "424",
        "signer": "0x49Ea9F8f4D2A7477d89318f396eF3faAc20edDBC"
      },
      {
        "passId": "425",
        "signer": "0x00C099113Cf091F689FB2547C2FDd1edaFEf8724"
      },
      {
        "passId": "426",
        "signer": "0x8913F87c6f9D185d4e07CcC87b242050e4139e85"
      },
      {
        "passId": "427",
        "signer": "0xA23690F59394F5b576279E02c076DC2351DFF3b0"
      },
      {
        "passId": "428",
        "signer": "0x5d958E7DDbe1404457413d1d41a3B0162E8Ee3FB"
      },
      {
        "passId": "429",
        "signer": "0xe24FB106c33203d931A15F2CD6bdB63603C87193"
      },
      {
        "passId": "430",
        "signer": "0x7AAAcb0EB05A9705aD855d1a606F7D4CD6743D92"
      },
      {
        "passId": "431",
        "signer": "0xc392218E34b42E89c06E00b209A7819096A9e8EB"
      },
      {
        "passId": "432",
        "signer": "0x7697e50f0145497188C27abE18E36340FCe3ab69"
      },
      {
        "passId": "433",
        "signer": "0x00C711186DBA1eAd7792c91B64c46A1ec2720a4c"
      },
      {
        "passId": "434",
        "signer": "0xe58eb8cF3d9B73B1471297be4deC3C387337B70E"
      },
      {
        "passId": "435",
        "signer": "0x4E3A0BBe0d0C517f81C0AD083560AB9a351f6331"
      },
      {
        "passId": "436",
        "signer": "0x6dC658B44a68618C7c3a911D6406d14983e72e94"
      },
      {
        "passId": "437",
        "signer": "0x54E7A81FFDf7342720b08f29dB80F2E3AaDA999A"
      },
      {
        "passId": "438",
        "signer": "0x4D528B054d27781CD9262c684069b1890FEdfB36"
      },
      {
        "passId": "439",
        "signer": "0xb314E74fBBB04bAD743f47A0620Fd4421980a441"
      },
      {
        "passId": "440",
        "signer": "0xb04e520a5bAFcccF10183E58B23D137A06E3BEa9"
      },
      {
        "passId": "441",
        "signer": "0x2f2e4Db16C36B6e7366C838a1e36DE2460a3B6b8"
      },
      {
        "passId": "442",
        "signer": "0x443938D797c5DCe05e32Ac77ac1e0f39C2Ce0921"
      },
      {
        "passId": "443",
        "signer": "0x93675C6060180557D5c071F1da45984016fBE42E"
      },
      {
        "passId": "444",
        "signer": "0x9142403EC121f7bDE530Af1770FD3dD663c6FEcC"
      },
      {
        "passId": "445",
        "signer": "0xA59652d1DbfE1B27865413cCcd47Eb3023Ac0d12"
      },
      {
        "passId": "446",
        "signer": "0xf8003110201c6235d6dA494AC3DD695146B89Ef7"
      },
      {
        "passId": "447",
        "signer": "0x7b3ebcF3ec2ba85AF5dFfB0397A291c102a57064"
      },
      {
        "passId": "448",
        "signer": "0x958ebad16DC21E0e9EC7d5AFaa55656B6368A710"
      },
      {
        "passId": "449",
        "signer": "0x0250960059eAfF61E16F15cC6E5254358dEA7787"
      },
      {
        "passId": "450",
        "signer": "0xD0218FB46beD2Ff1D0c4C1dbEb1a172B89AA6005"
      },
      {
        "passId": "451",
        "signer": "0xfC5827700854E49324Fa92D6fA2A2AB5e6Dde9A7"
      },
      {
        "passId": "452",
        "signer": "0x2786b497a8C69cE3108dD6fF11688B7E23B53e40"
      },
      {
        "passId": "453",
        "signer": "0x4d616210C4bF1E9524CFbc05Ac577BD4Eb9Ac2F2"
      },
      {
        "passId": "454",
        "signer": "0xf3f6aA02A90Ccf0B47cB678b2A460738AE4997e9"
      },
      {
        "passId": "455",
        "signer": "0xB3a1100aA01dA695Bb0BbD13D8553F361ac4Cda3"
      },
      {
        "passId": "456",
        "signer": "0xdD156d9B0802254DE1780D3f19f0Bc62AA948fFe"
      },
      {
        "passId": "457",
        "signer": "0x0791d0CC17Be1f9607c1BD17Fb4d126e8EBFf249"
      },
      {
        "passId": "458",
        "signer": "0xA26c549B71ef9d6EeCf4eF7697f01108E54e4436"
      },
      {
        "passId": "459",
        "signer": "0xBAbb23357F0011D8f7623bB4215256e93Ff1734a"
      },
      {
        "passId": "460",
        "signer": "0x5DC1BAcC1E3cBaed0E00DEE1975199Af07EE354a"
      },
      {
        "passId": "461",
        "signer": "0xAB967A2A13130Da998fFEba4A3789Ad4E399Abd2"
      },
      {
        "passId": "462",
        "signer": "0x24Ece1CD0d836f4B5fde9587f7eA2641D645E700"
      },
      {
        "passId": "463",
        "signer": "0xFC34416Eb8510FE4F795a07CF46e74544C527842"
      },
      {
        "passId": "464",
        "signer": "0xfc4366657d0372364A48aD1f6042a549e938fBfE"
      },
      {
        "passId": "465",
        "signer": "0x6d9129a51Da3d8c0fb5fb24f69A17981042445b3"
      },
      {
        "passId": "466",
        "signer": "0xce41759493156269d15f1976D89AFb11074a0532"
      },
      {
        "passId": "467",
        "signer": "0x7A462A6C2DB355d564893E0de3f0c3a64eBb5bB9"
      },
      {
        "passId": "468",
        "signer": "0x877A7453ba46cf294FBc8d5D2886666bcD187Fb0"
      },
      {
        "passId": "469",
        "signer": "0x20F37bF50C801004399693dBB34211581F971316"
      },
      {
        "passId": "470",
        "signer": "0x6DB181Fbb74a53d81dBD300BdB1EE0dABfbd2D72"
      },
      {
        "passId": "471",
        "signer": "0xaa56d15F8f0DeA2B932329d2C85A2156c215e7eD"
      },
      {
        "passId": "472",
        "signer": "0x3588bAf3c2a1EF14a94dDAb0E4699aEf74259317"
      },
      {
        "passId": "473",
        "signer": "0xc062a9948062cA9bCBd508176Cf84286D5a7eC1f"
      },
      {
        "passId": "474",
        "signer": "0xdb68C0640BEAB2df1b3cFa3B4ca7a7148216c9b2"
      },
      {
        "passId": "475",
        "signer": "0x992C398327B6A7868243211f77624B46715b2865"
      },
      {
        "passId": "476",
        "signer": "0x391405c53495d9a8A94A908Fb11a0692792Dd236"
      },
      {
        "passId": "477",
        "signer": "0xB7CdEf4A79d80d19da598C0Ae93D455d7668C7C4"
      },
      {
        "passId": "478",
        "signer": "0x8a4581BeD9DEA27268E37830E88F4Ca587d3b4CC"
      },
      {
        "passId": "479",
        "signer": "0xf7a589D0FF807a14576518fc6af070EADDd40c1c"
      },
      {
        "passId": "480",
        "signer": "0xd5BAb0364aFdac742E163116840A134Dbe3e5764"
      },
      {
        "passId": "481",
        "signer": "0x03E0eb1F702f1283417dd0eC9A49d084120802a2"
      },
      {
        "passId": "482",
        "signer": "0xB1488D92cC36f47b59e009910D65b2f11700727D"
      },
      {
        "passId": "483",
        "signer": "0x246F2D381Cdc8Cc13702ccB5fB2A0910115E77F1"
      },
      {
        "passId": "484",
        "signer": "0xE0e1a8a6d43F3E9924f7b65a893a5f0007E645d7"
      },
      {
        "passId": "485",
        "signer": "0x4C035991255aeB69dB4584A8b130Fd279E75Fad2"
      },
      {
        "passId": "486",
        "signer": "0x86591f4B4C465d6B83e06a27438bB3DEaAbe4202"
      },
      {
        "passId": "487",
        "signer": "0x1384B6a160663F844ae367Ff857a86f891D068d5"
      },
      {
        "passId": "488",
        "signer": "0x55C57d2519798D45eAf77be05F16d1697Da8552d"
      },
      {
        "passId": "489",
        "signer": "0x5e0739c98fA1910C1Ac26DBB48a04B5E8d142d3A"
      },
      {
        "passId": "490",
        "signer": "0x86F5B6C5CCa4b60C84feca32980c52Db0e638B3B"
      },
      {
        "passId": "491",
        "signer": "0x221fc7ad5c5Ee31C740B69345bd2155D2376780E"
      },
      {
        "passId": "492",
        "signer": "0x82cc06AC5B6FaA8Eb19fcf3c4829499DdA8c5A02"
      },
      {
        "passId": "493",
        "signer": "0x9cd4e3Ce2DfA6a34eb9fBee1dd7477d70026a7eE"
      },
      {
        "passId": "494",
        "signer": "0x471aD3166dd1E4B7F21E1aea465AAE9E647E81a8"
      },
      {
        "passId": "495",
        "signer": "0x0f4246D89dc685f005c4570707590B16ba6f3E6F"
      },
      {
        "passId": "496",
        "signer": "0xa5580Bff264A00F386aC9b3C5A081cBdFD63a602"
      },
      {
        "passId": "497",
        "signer": "0x02D40a5474fEF172d02CA0553cA99430121C7594"
      },
      {
        "passId": "498",
        "signer": "0x305f8Aee27F6dDD7AC371Eed713bBE1E4068A23d"
      },
      {
        "passId": "499",
        "signer": "0x657e908ae315f7b9d3dE1BffE2D21B2e2e71FB00"
      },
      {
        "passId": "500",
        "signer": "0xb71bD7d3B9E006D9776009337792102361647c7E"
      },
      {
        "passId": "501",
        "signer": "0x8c4B62fd622c4398358B6288771Be765042d0eF0"
      },
      {
        "passId": "502",
        "signer": "0x99EE42FbC281D60727708556F9C65584E28f242E"
      },
      {
        "passId": "503",
        "signer": "0x5e288a184234F8b03E768a2Ac7001Ee58BCAA091"
      },
      {
        "passId": "504",
        "signer": "0xcD057060BfB80947d4ab5055151E3A876015fD04"
      },
      {
        "passId": "505",
        "signer": "0x50B00C6B74A6370FfFE0588DAeC39b8eb3668CAd"
      },
      {
        "passId": "506",
        "signer": "0xC4F8A8Adad0cE396585013e0D9a6e9C4D204F001"
      },
      {
        "passId": "507",
        "signer": "0x291cB4eD2B8507817F852d40ef6Ac2e5E3cc25c8"
      },
      {
        "passId": "508",
        "signer": "0x136A609d8C72dF7c132DE48b9ec2085B21027FF2"
      },
      {
        "passId": "509",
        "signer": "0xEa88cf55842f5A3d132844519cE231eCd39b8F7d"
      },
      {
        "passId": "510",
        "signer": "0x1f67F636406727d0303c6500a9b13e9d754F37bB"
      },
      {
        "passId": "511",
        "signer": "0x970E761C83533c6b491f3Fa66FBF30eaf70B5603"
      },
      {
        "passId": "512",
        "signer": "0xfB59799640aDCFa0E2B191876Ab60BacB67Aa07E"
      },
      {
        "passId": "513",
        "signer": "0x1dfEE0AD82203B0B6DAE7c513513Ab3E9ba855e1"
      },
      {
        "passId": "514",
        "signer": "0x97B4807e4D47d45f66e3326dc77a6B53715CCE2A"
      },
      {
        "passId": "515",
        "signer": "0x0D73ea82654BfD76f5D4f1660287aa971Fdef593"
      },
      {
        "passId": "516",
        "signer": "0xf0b5Ba4b459c2317517c0308F52E35f9168063Ac"
      },
      {
        "passId": "517",
        "signer": "0xB0c2aD2F56FCccbcDD6e5B3154739fbfe9AEEa2B"
      },
      {
        "passId": "518",
        "signer": "0x41F6E24ed90Ea31c468AE070A857B9c2526D37D2"
      },
      {
        "passId": "519",
        "signer": "0x5f44dE7B2C93Fbe5Df7D9B0301AC677feDe8A986"
      },
      {
        "passId": "520",
        "signer": "0x431C4684838d9101A783c8563AbC63B8E3aFD668"
      },
      {
        "passId": "521",
        "signer": "0x66E7643d2eaC1ae53B8c50fc09F5382F3C1c5C70"
      },
      {
        "passId": "522",
        "signer": "0x7746eCa8e7b751aCDcdbc7Bf9E3DdD56d956B6BA"
      },
      {
        "passId": "523",
        "signer": "0xa11C0C009D40f41747334B7E5ea9f7416A54Cca3"
      },
      {
        "passId": "524",
        "signer": "0x67e501445d24057f50CD67D0FE054B837Dc3e34E"
      },
      {
        "passId": "525",
        "signer": "0xfA2C2eAC6723031b0FB7403ec7d28540fBFA06DF"
      },
      {
        "passId": "526",
        "signer": "0x252DEF51A6B218beE64999F6526cBD357e30636C"
      },
      {
        "passId": "527",
        "signer": "0x209DeB91a2ddCcC401A717A1b6208df3293ad0F2"
      },
      {
        "passId": "528",
        "signer": "0x041607Fc5136e9aFFc7D6e4f9f6969DE334F96bB"
      },
      {
        "passId": "529",
        "signer": "0x7AD3c0eE9afA0a5035B9Dc6DBD98530f4DC984dd"
      },
      {
        "passId": "530",
        "signer": "0xB45cD39425998c1a6960CBEF9c1553467d25e354"
      },
      {
        "passId": "531",
        "signer": "0x5503Fc2383dDe4AE711A62Eaf994c8CBF52ADdef"
      },
      {
        "passId": "532",
        "signer": "0x0587849F470646D317b2A2f020f0E862783e89C6"
      },
      {
        "passId": "533",
        "signer": "0x8fFd5A08B2922d62d5195a8e5248E9f137fFE6A7"
      },
      {
        "passId": "534",
        "signer": "0x3cB957007325141094faCDA1793A84ECc63845F3"
      },
      {
        "passId": "535",
        "signer": "0x282D40d0C61DDC43f9E08F44cccF05e3f8f75565"
      },
      {
        "passId": "536",
        "signer": "0xa8d878ceC75604CCa60fA8dBf2F094f170cd6D02"
      },
      {
        "passId": "537",
        "signer": "0xd34eEB2aaE3113ad70BCb5A4f505dE192e6F5094"
      },
      {
        "passId": "538",
        "signer": "0x31A1Ef5803C871A0B43fa1fb629F2AC04b73F7dF"
      },
      {
        "passId": "539",
        "signer": "0xba954804F5e479eDC9147B526145C40d3B273e16"
      },
      {
        "passId": "540",
        "signer": "0xDFc4Ee8BcACD1011fE7C47C8f5081E91b9360B29"
      },
      {
        "passId": "541",
        "signer": "0xA0c1c97ea0c2ca6BDb06f803b45D95A7d0660FA1"
      },
      {
        "passId": "542",
        "signer": "0x4631DE80E4fC6EbF171bad50ad0d3de30F79CB43"
      },
      {
        "passId": "543",
        "signer": "0x4183187c6AEFaE49FE802605D8224a2A517A9F41"
      },
      {
        "passId": "544",
        "signer": "0x6214fF05FcdD41741C802114DA15FB533AEf1Fa9"
      },
      {
        "passId": "545",
        "signer": "0x40F73b6b66e7e3b01019F89f4DB1e214b21773D7"
      },
      {
        "passId": "546",
        "signer": "0x2f03d42b28163196D511d46154A60160FA288daB"
      },
      {
        "passId": "547",
        "signer": "0x812954f24E93b53893532a8c5c0A6161a11B09ed"
      },
      {
        "passId": "548",
        "signer": "0xF9CA601c90e22349eD338EE8C58814B2802d4f33"
      },
      {
        "passId": "549",
        "signer": "0x3aF1C221fC5bdBBeA266A1Eac89cfF43f8CcdE9C"
      },
      {
        "passId": "550",
        "signer": "0x4B12ABCa82f10DA8F2a52C4f987F55992eC535e0"
      },
      {
        "passId": "551",
        "signer": "0xf4060af38d3c0cF8e951A6DEa89ba91C58842D92"
      },
      {
        "passId": "552",
        "signer": "0xAF9D1a0010e86A9d9edd3196df5e8E987793D882"
      },
      {
        "passId": "553",
        "signer": "0xB41AeA68399a205965D24192859521CAeF9D88B5"
      },
      {
        "passId": "554",
        "signer": "0xcccbbF56b0723f9Ee578Bb821432b2535D847227"
      },
      {
        "passId": "555",
        "signer": "0x1a782AfB0AcC90247D22b5c120e7EE1E3Ebb55F5"
      },
      {
        "passId": "556",
        "signer": "0x403cA8230475182F999441E9E21486e8FE129df9"
      },
      {
        "passId": "557",
        "signer": "0x45D4b37ECf10645E005a89D8394c5BCEe8E835B7"
      },
      {
        "passId": "558",
        "signer": "0x6c3Ee9D9F3eDC1CAe832Ee267DFCe2112eA74427"
      },
      {
        "passId": "559",
        "signer": "0x4c190aBC81f146Aa78bF40B5e1237996Cc145143"
      },
      {
        "passId": "560",
        "signer": "0x1Cc7602ff4b16a4305733a92860332cB680Ea448"
      },
      {
        "passId": "561",
        "signer": "0x57F1b5a7FE170a63E53F4F549AbbeB6F4D00F022"
      },
      {
        "passId": "562",
        "signer": "0x008361085E8F5DC9cb587cC04dC1CAACBB6083dc"
      },
      {
        "passId": "563",
        "signer": "0x488Dc2fE9Ef8159D16664D972027bD1D5e23C33a"
      },
      {
        "passId": "564",
        "signer": "0x8Ee79FFA749c2A7A1f1B1825F14D29EcB788DFA9"
      },
      {
        "passId": "565",
        "signer": "0x6A1311AC46B93fd1D0D59a671cB860B1d487BC54"
      },
      {
        "passId": "566",
        "signer": "0x1a94b8bfddb1BBbbCE7387A0e3BbadA42d97A68D"
      },
      {
        "passId": "567",
        "signer": "0x485c852891182c3FfC0DaE9d95bf4c3d5C769c38"
      },
      {
        "passId": "568",
        "signer": "0xAB5Bc08C41Ce2C48e27643056EefEf46A286984B"
      },
      {
        "passId": "569",
        "signer": "0x3554a1214CD51BC8c7731F78cdeDCe2A3E120562"
      },
      {
        "passId": "570",
        "signer": "0xBB040DC53e7E4C81AE5B8293a43A991607835a60"
      },
      {
        "passId": "571",
        "signer": "0x8D108b5112c5C867AF1d85C9ea68e7c85738E35A"
      },
      {
        "passId": "572",
        "signer": "0x5e672C1c8620E25e6A005F5fa421A2534b160Cd6"
      },
      {
        "passId": "573",
        "signer": "0x4F61Ff528140a2E80BB0E6f60B81Fd7a22B41a2b"
      },
      {
        "passId": "574",
        "signer": "0xFbC8DBa0353a49BBa21905E9199d8c0EBc9a6d5b"
      },
      {
        "passId": "575",
        "signer": "0x1F6Bb02b275eBC923f6c2a622F4f1eA7f96676Cd"
      },
      {
        "passId": "576",
        "signer": "0xE26Fd717a0f0D1A9AFA917Cd98f355E1ad2485a7"
      },
      {
        "passId": "577",
        "signer": "0xC66f639c3f20FE45b61e859C3713FBb8e19A33F9"
      },
      {
        "passId": "578",
        "signer": "0xeBee183378d8Ef7356fd8669d7914ae1e434a463"
      },
      {
        "passId": "579",
        "signer": "0x79D39fD21A78468d5e536B63f80766f3ccD67999"
      },
      {
        "passId": "580",
        "signer": "0x4758644DD8614bEcdCF7844B5215087179093D06"
      },
      {
        "passId": "581",
        "signer": "0x671f0d69bCF505326a41d65521fa6c8194B9623b"
      },
      {
        "passId": "582",
        "signer": "0x8dac15A12D40623a3Beb92936D6A6119E47C17E7"
      },
      {
        "passId": "583",
        "signer": "0xF611791Dd74cF7477f73d9A8EdC2d772a3303F8F"
      },
      {
        "passId": "584",
        "signer": "0x87BB51D80EA00B3DB7a860eb89C12f706B58a561"
      },
      {
        "passId": "585",
        "signer": "0x3214ad12e756a0AD98e0Ec3FAbAA0ED700177632"
      },
      {
        "passId": "586",
        "signer": "0xa83d5EC40E914E05acD1BB3cEf82772Aa77Ea8b0"
      },
      {
        "passId": "587",
        "signer": "0x34c3Fa06A5D301f2D078Db3aa5072CE3de67DeA9"
      },
      {
        "passId": "588",
        "signer": "0x3cD910e46f43C2F3BFFE70b7D9E3B164440Bd4FE"
      },
      {
        "passId": "589",
        "signer": "0xeA358e9E2067D990A6Aa674899Bc7668F78E0a21"
      },
      {
        "passId": "590",
        "signer": "0x205a768bA6e4C179Ce707fe7493F48FA9537536A"
      },
      {
        "passId": "591",
        "signer": "0x2f4fa066E5789D9ac3b3De1Cc2Ff1Df55acF8409"
      },
      {
        "passId": "592",
        "signer": "0xD46B6061C55CDc1F0983eaA2c2D4a221cEC46E6F"
      },
      {
        "passId": "593",
        "signer": "0x5dc1742A3001864557B2346ef55a9e2421482E32"
      },
      {
        "passId": "594",
        "signer": "0x27ae88fB6A454f5b03fde10aF84Bc9c836CEc020"
      },
      {
        "passId": "595",
        "signer": "0x663E974f0269853d12bA0B2fca163739F5f86DBd"
      },
      {
        "passId": "596",
        "signer": "0xeDb1Fa340Ae0454DD4A6Dc63EFaA6faC2713CEd5"
      },
      {
        "passId": "597",
        "signer": "0xbd9694D22ce9A6E08B003bc195E0dAf18C719716"
      },
      {
        "passId": "598",
        "signer": "0x60616e785BD5BCF1Efc27422e7974eef62DbeccC"
      },
      {
        "passId": "599",
        "signer": "0xB5880A74b07F542440291AaFEE41B24e3c8d4040"
      },
      {
        "passId": "600",
        "signer": "0xB1AcF7C4383747964432ca1C688A5D35091f4297"
      },
      {
        "passId": "601",
        "signer": "0xBb9cEC5ceaAF115311434EBe3236314bEa3Bfeae"
      },
      {
        "passId": "602",
        "signer": "0xaa80c15D559DA4406E9A1747346BE346499A6a55"
      },
      {
        "passId": "603",
        "signer": "0xa05ef07fB8540891a015fE7bD9F3996532203205"
      },
      {
        "passId": "604",
        "signer": "0x697d301AFc50c975aA3E916e0F5b1217D25A082d"
      },
      {
        "passId": "605",
        "signer": "0x100D7836546B54c505327b2C3CA9FC1eCA6d9463"
      },
      {
        "passId": "606",
        "signer": "0x523EBeB779B5D8b623a5356617F187be396F00a1"
      },
      {
        "passId": "607",
        "signer": "0x8b0583C53e5e35152148ca3640D7f7c892634a28"
      },
      {
        "passId": "608",
        "signer": "0x55bFc2f931270EAC13fD227502abF7ADB6Ba3324"
      },
      {
        "passId": "609",
        "signer": "0x9eBCc4196C10C45705086F22828AfdF2c97697Eb"
      },
      {
        "passId": "610",
        "signer": "0x5424F314D93278A7835CF70441fc6b9d078B9c6d"
      },
      {
        "passId": "611",
        "signer": "0x3615D0E680915AB35d0fDeA9bBB682B457aaC45c"
      },
      {
        "passId": "612",
        "signer": "0x406c70DaD7C061b79298B3762c659aabfF8b7036"
      },
      {
        "passId": "613",
        "signer": "0xBB6A7103408bab5d2cBcab8398628521Bff4dB4E"
      },
      {
        "passId": "614",
        "signer": "0x92C336449280211299F15Eb022c786fC835510B1"
      },
      {
        "passId": "615",
        "signer": "0xFAD7F800F61928407A531034FbF815Bc6A0A5359"
      },
      {
        "passId": "616",
        "signer": "0x5A2467b9AEffcBbB48e477e0AB67e863EbB7842A"
      },
      {
        "passId": "617",
        "signer": "0x5848B04Da79D3065991247f4916e12D8F93Ad94D"
      },
      {
        "passId": "618",
        "signer": "0x2Df180fe94B9c71D7f7D5C08cDFCCC31dC33d50a"
      },
      {
        "passId": "619",
        "signer": "0xF55bA95eD8122Ea9AfCe9A5D25f61CB1dAB706e3"
      },
      {
        "passId": "620",
        "signer": "0xe38D404631Fb4c37D936661de803E0E1f14fE867"
      },
      {
        "passId": "621",
        "signer": "0x5C824E46de100e6eC49ddE578ad6709eF898cbdD"
      },
      {
        "passId": "622",
        "signer": "0x57F1664eCc68E76803d5489DA3dCD27AD26ebF2c"
      },
      {
        "passId": "623",
        "signer": "0xC9511F4d78481E6794676f511BEdAE5D52623B61"
      },
      {
        "passId": "624",
        "signer": "0xA706C8eA7b30bC121e4208223AE732eFB15A019D"
      },
      {
        "passId": "625",
        "signer": "0x95153b3Bdaf7f65318F5cb30ef262b1B595893Db"
      },
      {
        "passId": "626",
        "signer": "0xDfA965Be8B6e431afe8bC150EE116393351125F6"
      },
      {
        "passId": "627",
        "signer": "0x8C483A5311812b8423027A809b22F8B6c6F76753"
      },
      {
        "passId": "628",
        "signer": "0x1713FF2AA6Abae05129C3C56930d316427b68C4c"
      },
      {
        "passId": "629",
        "signer": "0x4645B15b3af8b3c55396F5c3cB951948584199bE"
      },
      {
        "passId": "630",
        "signer": "0x7D759362eB16320f994f05b36e29f02112BA9d76"
      },
      {
        "passId": "631",
        "signer": "0x25083B9DD706D5e013852c2669Bf7A5fF8Ed7f5C"
      },
      {
        "passId": "632",
        "signer": "0x4ED677adB7E65eE25adacb9cC580bfb238Ea4C92"
      },
      {
        "passId": "633",
        "signer": "0xBf591EEAF227Cb683955fDc1d617898798A54b37"
      },
      {
        "passId": "634",
        "signer": "0x4948fD45B203D7FEa06ddCfF86A22Cc57065759A"
      },
      {
        "passId": "635",
        "signer": "0xd951518DaE992a9717da77E5E1b8156093784bC5"
      },
      {
        "passId": "636",
        "signer": "0x57F4fA47973dbF608eB4Ee4034cA7e12b764B7a2"
      },
      {
        "passId": "637",
        "signer": "0x94b5F2921A2f2BDbEF5A4BD4b3aD8c6f07A05d36"
      },
      {
        "passId": "638",
        "signer": "0x2ecbd3A69956FD3Af1820CF104a70f414798f063"
      },
      {
        "passId": "639",
        "signer": "0xD3A55A601982758804078BAdB72dDc2F168f3edd"
      },
      {
        "passId": "640",
        "signer": "0xF8376e92011aBC8633b6DFA3eaB198260Cf3f8f9"
      },
      {
        "passId": "641",
        "signer": "0xf6EE2e7A20646e4E78f629Cce8164d259cCC2c87"
      },
      {
        "passId": "642",
        "signer": "0x2BF8fAb3D1Dc0827dea1dE499995117170323AE1"
      },
      {
        "passId": "643",
        "signer": "0x1be09fa3c375Fba730D19ea75A0A9BF129344A00"
      },
      {
        "passId": "644",
        "signer": "0x4a332fc42aE5C0ae04b37d91651CB7bd666A6Fbd"
      },
      {
        "passId": "645",
        "signer": "0x7394e6Fc02b69E92b6a5C05406C36BA2B0aF7073"
      },
      {
        "passId": "646",
        "signer": "0xACF804a0174A40edd90009262AcCbcF70192d0dA"
      },
      {
        "passId": "647",
        "signer": "0x9aD2363677AC6a9D211C75F400554a7e2fa4e957"
      },
      {
        "passId": "648",
        "signer": "0xabb8A7D4A8cbC15E897a53E2f27Fd8595d206ffB"
      },
      {
        "passId": "649",
        "signer": "0x55534b020bf10854Cafc71C32262b005DB417DF6"
      },
      {
        "passId": "650",
        "signer": "0x66d678F915a96668C65991fabe4144f3fD4295Ef"
      },
      {
        "passId": "651",
        "signer": "0x9EC3bF8935c38fcC064Ff80C82b612D8432384BD"
      },
      {
        "passId": "652",
        "signer": "0x78Eaf579EDee98da62c6611d212d09683154fcfB"
      },
      {
        "passId": "653",
        "signer": "0xA126d9551a0613f1B31da76B5d69aB2Fa4a43834"
      },
      {
        "passId": "654",
        "signer": "0xB40e0CcD96538eB9d110c5e3d4e14a66e757EB54"
      },
      {
        "passId": "655",
        "signer": "0x853609027D990cc48714697Da830c6a101421c50"
      },
      {
        "passId": "656",
        "signer": "0x4f5CDb38f954d783C710aFad6331169771Fb4938"
      },
      {
        "passId": "657",
        "signer": "0xDB1a89A755E92255a367395f8c39c231E7958CF6"
      },
      {
        "passId": "658",
        "signer": "0xba520cdeEFAA7Dc2C0c32bb32c8c0fFbAc184d4f"
      },
      {
        "passId": "659",
        "signer": "0x4a620895B7722a3e932b3300F8FF1366Ac87F5B0"
      },
      {
        "passId": "660",
        "signer": "0x52d9F5c5f7c15273D27d0aBf55d0C1EAf3299377"
      },
      {
        "passId": "661",
        "signer": "0xceaE4a742CcC5B7b0187B453425486a1bF2a5ac0"
      },
      {
        "passId": "662",
        "signer": "0x15a5A17E00db8fDc70eEa6341A737A2386674FCF"
      },
      {
        "passId": "663",
        "signer": "0xe5a67F211374db2670ee0B82FFCbDD3b473f89d1"
      },
      {
        "passId": "664",
        "signer": "0x3405a500864E4b938Fc6227943e7222B7e386511"
      },
      {
        "passId": "665",
        "signer": "0x3530d0ab3b359a7C735c9B2aC9Db7b14107c76d1"
      },
      {
        "passId": "666",
        "signer": "0x7de0fdAdC4a5ED923Cb5aEfF34eF784e7D502dd0"
      },
      {
        "passId": "667",
        "signer": "0xff310CBad687A75Cf50F3721C18FB641d77D3E3b"
      },
      {
        "passId": "668",
        "signer": "0x0190C86FcbD8790F8974e23471002D625362FebE"
      },
      {
        "passId": "669",
        "signer": "0xa86FB24A2a6b61728985f774E2d33f0BBD2648ff"
      },
      {
        "passId": "670",
        "signer": "0xe614b660470D3085921F6B2BD0dCb1405c9AfFa5"
      },
      {
        "passId": "671",
        "signer": "0x473a2e39Db116078650Ee7A47666C61CCB6A88b8"
      },
      {
        "passId": "672",
        "signer": "0xFeFd7bDdbB5623b7C259970797C1c46e4aAB7108"
      },
      {
        "passId": "673",
        "signer": "0xE9b0D224BCC8A1A4E3F5ba04375B0091125CD94C"
      },
      {
        "passId": "674",
        "signer": "0x0Bebd53f8E5C1C759b58B164Ed92b5ee1DBd2fd1"
      },
      {
        "passId": "675",
        "signer": "0x4DF0BDe09E9fcCbeCf3338C859839C4D7F7DC310"
      },
      {
        "passId": "676",
        "signer": "0xcEE714D1F95ab4fA1094A75a556f014e46896d09"
      },
      {
        "passId": "677",
        "signer": "0x3Aa99E106b0Dad686AD5327CebD67Fe4A161B9C2"
      },
      {
        "passId": "678",
        "signer": "0x75fe62cDc8a5Bbc72E62AB82DB0A7a89e8a079FA"
      },
      {
        "passId": "679",
        "signer": "0x6D47134D517521B6bC471AA75Ffb40b64119d88f"
      },
      {
        "passId": "680",
        "signer": "0xe40D5315c73BC51a48fdac1898a83215f8EbD62E"
      },
      {
        "passId": "681",
        "signer": "0x40c56199CeBE187F63a7878C8d0bCfbeb0980301"
      },
      {
        "passId": "682",
        "signer": "0x5DE2Ed6195f0B6c4962a7Bc0c31F03AB6d093A47"
      },
      {
        "passId": "683",
        "signer": "0x4AD55e4D110D0a2ffAf298E33883Ee9dF78c7008"
      },
      {
        "passId": "684",
        "signer": "0xb8D237A24697c5299C65d31f97cC862964a70cfD"
      },
      {
        "passId": "685",
        "signer": "0x53439aE64Bf379A4eAD57e19a26E053446BBEdaa"
      },
      {
        "passId": "686",
        "signer": "0xd11f0f976F173ad207c1220A693dCb8bf5dc1eF9"
      },
      {
        "passId": "687",
        "signer": "0xF1958F577982d95D42992E6C1C4c15A725CB779E"
      },
      {
        "passId": "688",
        "signer": "0x662d7bEF742D929018aA194fAAd2aBf2f4cD13AF"
      },
      {
        "passId": "689",
        "signer": "0x285D1eCe9ae71A0aa75855585A5C6FD456c21829"
      },
      {
        "passId": "690",
        "signer": "0xd74630CfFe515805E9771E3F0E907ad5De1462E1"
      },
      {
        "passId": "691",
        "signer": "0xDA01367f25CAeC7EeFD1199cc51285789A134C49"
      },
      {
        "passId": "692",
        "signer": "0xe79CA054C99577364488BEEF11698cfc0882F128"
      },
      {
        "passId": "693",
        "signer": "0xE5F60f1e2067eF24195E0A04C8B4f5E99fC05b10"
      },
      {
        "passId": "694",
        "signer": "0x1751a34Fe6f6F1A247a72E7e4A6c46A1f3f60462"
      },
      {
        "passId": "695",
        "signer": "0x109c3EAAc4bE3C09D58434ccF7A6eDb74781f52b"
      },
      {
        "passId": "696",
        "signer": "0xc971B9FDC8392fA8b0976a412dE71fDe271bb8E7"
      },
      {
        "passId": "697",
        "signer": "0x2F46F334B4Af7630A4B0b6A5b76Bae78De8CDc7c"
      },
      {
        "passId": "698",
        "signer": "0x9b67812bB980590474714d4c879bE8E181A129E0"
      },
      {
        "passId": "699",
        "signer": "0x9CcDa08657314997DDb2c054E2B532D881ff8ebD"
      },
      {
        "passId": "700",
        "signer": "0x4fFf22EC0C600f070370143f64A43e22091a1d37"
      },
      {
        "passId": "701",
        "signer": "0xdf6C1d7127a8DE4175e029b529B2Ff7d99cFa639"
      },
      {
        "passId": "702",
        "signer": "0x9fAcDf33B498DECfC07774b78DD6C33e89DD621A"
      },
      {
        "passId": "703",
        "signer": "0xdf299510Ec8Ee3C466F078430e64Eb1D4eC663a7"
      },
      {
        "passId": "704",
        "signer": "0x42CdbEFE8B07a7778D6D6e0EA8cAB66415859a6d"
      },
      {
        "passId": "705",
        "signer": "0x3DB222A20EE6f4486C0B930ac930b2CB00f1E406"
      },
      {
        "passId": "706",
        "signer": "0x07876659B65E793563510c8d83D7d365F640A8cB"
      },
      {
        "passId": "707",
        "signer": "0xCeA8ab30d162996f3a3E5e2fC17dC4427cAbDacE"
      },
      {
        "passId": "708",
        "signer": "0x6f4e5FFDb0a44958FD9dCC76D56706F24CCCde29"
      },
      {
        "passId": "709",
        "signer": "0x6916593C57d85DdDb85af5FC0375812049Dd956c"
      },
      {
        "passId": "710",
        "signer": "0xD9C7d38C186B62a6d8767C230891905cB0E60bA3"
      },
      {
        "passId": "711",
        "signer": "0x4e7D2Dac904575cD213dc3feB7Ad206888AF93B3"
      },
      {
        "passId": "712",
        "signer": "0x928725554A645d9bA69bf63a0E0BCE3fC9E25d3b"
      },
      {
        "passId": "713",
        "signer": "0x6e5312aDF1532468d7e60338afAa5d4F4e1292BC"
      },
      {
        "passId": "714",
        "signer": "0xfd197cbC21129365752c2dAd07c9F35045B3F04d"
      },
      {
        "passId": "715",
        "signer": "0x96a669c531f771C77Ed518794F697746Ca3C3b15"
      },
      {
        "passId": "716",
        "signer": "0x01C9aa7bFe73bF31413347d9A2F6224Df623A1A4"
      },
      {
        "passId": "717",
        "signer": "0x6365F0F59C5B7E77B173998FbED597CeB29FcEb1"
      },
      {
        "passId": "718",
        "signer": "0x36efED43EA476a08ab690c55A6f380caC445A360"
      },
      {
        "passId": "719",
        "signer": "0x0fe1142bA046a060cE68991AB246aF4c6a31e73b"
      },
      {
        "passId": "720",
        "signer": "0x29F3b5d25C47dEeE13Aaf48dC7F867C3c9eC8c48"
      },
      {
        "passId": "721",
        "signer": "0x4F8B2E65879afDF1b172942C3F1B193D46Fc3a30"
      },
      {
        "passId": "722",
        "signer": "0xDF9EcB34612cd474594d0EE8698b74Ed832334FD"
      },
      {
        "passId": "723",
        "signer": "0x031aE36B9ef22B013aCF1f376E8A10BBBdAc7636"
      },
      {
        "passId": "724",
        "signer": "0x7a9261a3437Cb524B792C6639e886069D8651d53"
      },
      {
        "passId": "725",
        "signer": "0xe555EB9F7b81c825132dA84Ab3dE0da754595194"
      },
      {
        "passId": "726",
        "signer": "0x258CD9ccEbc5fe93278Aa161c26B57b2a9De6708"
      },
      {
        "passId": "727",
        "signer": "0x7e18DCD68FE906485af77249FBdd52280201F046"
      },
      {
        "passId": "728",
        "signer": "0xD92Ae051ae817D1c0105c639890aa9b622557a59"
      },
      {
        "passId": "729",
        "signer": "0x419981Cfac77ADf65a3784e46D942AAd4Fe353ac"
      },
      {
        "passId": "730",
        "signer": "0x2734F97791884aC7B16c148c542E96C1BB13b8a8"
      },
      {
        "passId": "731",
        "signer": "0x73AFD345C8fCc64f69a1Db24357d52B3FE35BB05"
      },
      {
        "passId": "732",
        "signer": "0xF2Ff768BF34871f1641c2b845AF88E8e5f541Ea4"
      },
      {
        "passId": "733",
        "signer": "0xdC140AC66b6C1286fbC5E612d9FB0bB88399ba01"
      },
      {
        "passId": "734",
        "signer": "0xBa5306dF9D5cC90647346e7E5a4125511319502A"
      },
      {
        "passId": "735",
        "signer": "0x5153C80B5d8D1c5b651d4AFE25df9457f2fB2184"
      },
      {
        "passId": "736",
        "signer": "0x808b6c5CDf37777c2c089A5dC8D15403398B0921"
      },
      {
        "passId": "737",
        "signer": "0x37FB1D8DC7557fC1c0ECd50853a2E6255f6A744a"
      },
      {
        "passId": "738",
        "signer": "0xC296Aa0Eee166b4773C44017F65Ac91f33E6fa95"
      },
      {
        "passId": "739",
        "signer": "0xCf5C6808D17Bb7f0eAd91fAC903dba229F8E8AA5"
      },
      {
        "passId": "740",
        "signer": "0xB913228847C17472baF935e103F6f38Fc10C45b6"
      },
      {
        "passId": "741",
        "signer": "0x5F552F7a632534F1dCC564B3559F3f190031889B"
      },
      {
        "passId": "742",
        "signer": "0x6561052E67f216ec9Ab965a09b82c0d9341659d8"
      },
      {
        "passId": "743",
        "signer": "0x54D479fD774823A417ac433EA12cEad71D82b438"
      },
      {
        "passId": "744",
        "signer": "0x06e95009a70dB0553F9f4DE84D52affBF7095207"
      },
      {
        "passId": "745",
        "signer": "0xf6B5DACF075501db436a9f7beB1E8eb69caa88d1"
      },
      {
        "passId": "746",
        "signer": "0xAf3727C75FF34a07581D0405763280A1F9a96e65"
      },
      {
        "passId": "747",
        "signer": "0x146ABa357969406b4892ee41C34522EBE962f33C"
      },
      {
        "passId": "748",
        "signer": "0x8E161E5459EF1EEc430524069cBbcC00d942f6ba"
      },
      {
        "passId": "749",
        "signer": "0xFe0f0783C8D79cf9B5903fdBba64857A84C7955C"
      },
      {
        "passId": "750",
        "signer": "0xb4DCadbA549c08Aab055E14105Eb1336A60Dbb2d"
      },
      {
        "passId": "751",
        "signer": "0x3b1F19f488bCFb82cDaD7D8C27E717b45DADE4DC"
      },
      {
        "passId": "752",
        "signer": "0x2F59f5cB6BaD9F485CEa4C5b94322B8A9cDe5d46"
      },
      {
        "passId": "753",
        "signer": "0xCa5C8beEBC2076b550EAcDED102ABa3bE5D89B3c"
      },
      {
        "passId": "754",
        "signer": "0x08527DC253721e30E07B11aa55D753d71e256E40"
      },
      {
        "passId": "755",
        "signer": "0xdf6FB22cd9638b71F5ca3Bb98C45b1A9CAf0409e"
      },
      {
        "passId": "756",
        "signer": "0x139039E833433b0EA3B1c85358a4F0B4fDfAC685"
      },
      {
        "passId": "757",
        "signer": "0x0B3D24dB64002a9F771935A14906c5434EB50e75"
      },
      {
        "passId": "758",
        "signer": "0x342725b9f767027B81DFF512ce32A32FE14Cc857"
      },
      {
        "passId": "759",
        "signer": "0x6f7C04c3C0C9e0A89a4fDF16AAfD32225C90d12d"
      },
      {
        "passId": "760",
        "signer": "0xd69babFfc29b1cE01D1012Ea315E0823DD097bB6"
      },
      {
        "passId": "761",
        "signer": "0x728E3f4e5459143b6dDFE6EbE17580ee0113Baa4"
      },
      {
        "passId": "762",
        "signer": "0x345D18e4fD62da686d75b26E45cB76bFF7d67e50"
      },
      {
        "passId": "763",
        "signer": "0xDe588Dc3cc6C1C2A7543DF4c52B490244c84C3e0"
      },
      {
        "passId": "764",
        "signer": "0x066A6Cf0E04cc98B45ADE9f4fdbb368cc777fFc6"
      },
      {
        "passId": "765",
        "signer": "0xAAAEB8a4A442CD16dc5c728a143A44C2E258399B"
      },
      {
        "passId": "766",
        "signer": "0xB18576eC0198dAc07E1afdf131c4c14A5A88b1BF"
      },
      {
        "passId": "767",
        "signer": "0x9bc48B52BD6e776a994860C03e7188845F37DB9A"
      },
      {
        "passId": "768",
        "signer": "0xbF0DceB310876fF8e72A86433713e80311F24f19"
      },
      {
        "passId": "769",
        "signer": "0x02fdd75952B06a07d7e160953d80445a2D8CF933"
      },
      {
        "passId": "770",
        "signer": "0x987cC4691b9d0E72C844F6025a8390B97e23A84B"
      },
      {
        "passId": "771",
        "signer": "0x7A13aBcC3d4cD787abb0cA9cfd1D74a074197F86"
      },
      {
        "passId": "772",
        "signer": "0x6895aD25530fe15399f3eA96c4ccE39d0875f748"
      },
      {
        "passId": "773",
        "signer": "0xe389471791eD2abF948c2cb9863666E65c20d13B"
      },
      {
        "passId": "774",
        "signer": "0x7856Fa5971fa0820F64a74a44284f90118ea5d84"
      },
      {
        "passId": "775",
        "signer": "0x1D70397520df1f80b4eD70e11D517F912507c427"
      },
      {
        "passId": "776",
        "signer": "0x2a0BF305D83813fa4E0Ab16C7904149fCb456308"
      },
      {
        "passId": "777",
        "signer": "0xcCeC4bD81b2063AD8748684C73380A4e9a0e93e5"
      },
      {
        "passId": "778",
        "signer": "0x9b254cA5727B74A443d3E6aBCD0140e9a12482f1"
      },
      {
        "passId": "779",
        "signer": "0x427dBE0f739EC954fdF3B2d3A3851cBA9b05bDde"
      },
      {
        "passId": "780",
        "signer": "0x6c0b06A2D74984B65f9D8bEe76c55Fa26f87174A"
      },
      {
        "passId": "781",
        "signer": "0x1aBA3D636054966D63292933aFEd2b0E3083DC06"
      },
      {
        "passId": "782",
        "signer": "0x42C0a49734311440Cd34135efCc7Cd3641be6146"
      },
      {
        "passId": "783",
        "signer": "0x1E4cFFAFeD70A602Ddb260680e92249Ed5362224"
      },
      {
        "passId": "784",
        "signer": "0xCDEd9b102D294Bbf93bbeB8504b42303612F51d3"
      },
      {
        "passId": "785",
        "signer": "0xA68E366150CA0E50FDa4B1Cc83Be39413dD97487"
      },
      {
        "passId": "786",
        "signer": "0x490d187F44ba503319C414510BeB95E19FA053Ba"
      },
      {
        "passId": "787",
        "signer": "0xFCb1950dd879C993c6E437388A20396263010E09"
      },
      {
        "passId": "788",
        "signer": "0xCB83e56ba1990574Ca1dEAbAaD81B6591B0B4ED9"
      },
      {
        "passId": "789",
        "signer": "0xF163d6cE83d723eCAdeE7197aD0a5388FF37bE3A"
      },
      {
        "passId": "790",
        "signer": "0x26526eea44c6581BbE959C85FB1CFF340Be183Ba"
      },
      {
        "passId": "791",
        "signer": "0x5208064e38D5D4662912cE4998fd7cCDC5Fe0ddD"
      },
      {
        "passId": "792",
        "signer": "0x9559561FEe13559844A97e0e285006Bc4516FA36"
      },
      {
        "passId": "793",
        "signer": "0xC00620926841101C41E47bA263a91BC02D9C4cA6"
      },
      {
        "passId": "794",
        "signer": "0xf18C3189Ba7035579aea7c1A04dFe67130a7EFDB"
      },
      {
        "passId": "795",
        "signer": "0xFa548b69ed36dCD353f6280Fae591cAA8715231F"
      },
      {
        "passId": "796",
        "signer": "0xE009B8fE8Ed40f30843e9260fc93efDF35dE88FC"
      },
      {
        "passId": "797",
        "signer": "0xf68E50B882305aa20C70e34874B89F6cB763d30D"
      },
      {
        "passId": "798",
        "signer": "0x8970a5910D2F09E7C74d089fBBCfD5b09ed39202"
      },
      {
        "passId": "799",
        "signer": "0x41146516Da525099e42f651fA0B9e7317b8d7de7"
      },
      {
        "passId": "800",
        "signer": "0x14247b9858001330037c3ea0DDB2171eCE35c838"
      },
      {
        "passId": "801",
        "signer": "0x515cea8f56a8e65955027b0fC8e4D3ab494806FF"
      },
      {
        "passId": "802",
        "signer": "0x5B89835d750061038DcA149E81E9b2941b60E185"
      },
      {
        "passId": "803",
        "signer": "0x101cAe87445cb842DF74E329A72F1C707839b974"
      },
      {
        "passId": "804",
        "signer": "0x7FB21a330272D1C3F5485be744cf3eF0C45caF8B"
      },
      {
        "passId": "805",
        "signer": "0x5E35226C6Ab81Dfb163122957172E4AC2983ae2F"
      },
      {
        "passId": "806",
        "signer": "0x03F97599FCDa6acc3B5dbDE87Db3A4Acda8E4CD7"
      },
      {
        "passId": "807",
        "signer": "0x850706B8aa5b17F9CBA892009f41F028EF020C52"
      },
      {
        "passId": "808",
        "signer": "0x3754a8d167a7598Dbdb34afE05a3cee4dE8B11e2"
      },
      {
        "passId": "809",
        "signer": "0x110E1Ec4B356Fe8F9014522040825cCDAc1336b3"
      },
      {
        "passId": "810",
        "signer": "0xCABcD66718B1A1ed8eCEA2C46E4F611B0B7b7A28"
      },
      {
        "passId": "811",
        "signer": "0xdA40Ac6476DD4F56D6D744f6F8E9Bf55E2ac7B38"
      },
      {
        "passId": "812",
        "signer": "0xc5C5F914245477761Cf78bd48dA7A00Dcc923756"
      },
      {
        "passId": "813",
        "signer": "0xE24D3fF88Bf1f313342550789807Fbc012FeE875"
      },
      {
        "passId": "814",
        "signer": "0xf2b8cAA8E19e6Cc45b894e1cF3a87f2cDAa2c662"
      },
      {
        "passId": "815",
        "signer": "0x768ECD4A6bA2e4E7aD7Fc052733Af4698f71a1DC"
      },
      {
        "passId": "816",
        "signer": "0x5a43c26d72ef470810b668E6C9546F095cD6eE26"
      },
      {
        "passId": "817",
        "signer": "0x000000000000000000000000000000000000dead"
      },
      {
        "passId": "818",
        "signer": "0x000001f568875f378bf6d170b790967fe429c81a"
      },
      {
        "passId": "819",
        "signer": "0x0078c86e12186e2de1ff6fef5f1ada2bffde4ea5"
      },
      {
        "passId": "820",
        "signer": "0x024f1f8b3789bfdf9edb47f58a0d7a3afeaea804"
      },
      {
        "passId": "821",
        "signer": "0x049808d5eaa90a2665b9703d2246dded34f1eb73"
      },
      {
        "passId": "822",
        "signer": "0x05e8074088797c1f9057febf374deee0bc38e894"
      },
      {
        "passId": "823",
        "signer": "0x05ea539365d91df315e8ddd736e90431696fe8c4"
      },
      {
        "passId": "824",
        "signer": "0x09280340849e66948149804cac539cc7227512be"
      },
      {
        "passId": "825",
        "signer": "0x0946bc5c2f9848665cc3811458de403d0a78ad8e"
      },
      {
        "passId": "826",
        "signer": "0x0985224a811e65c235dbf4a2c2117712aabe4e39"
      },
      {
        "passId": "827",
        "signer": "0x0d0aca99686fced8e6fb39134aaed96f09b5283c"
      },
      {
        "passId": "828",
        "signer": "0x0d94b6e4c2aa9383964986020b3534d34885f700"
      },
      {
        "passId": "829",
        "signer": "0x0dd544d0da95666d7c3d38460feb4b5f25eaa515"
      },
      {
        "passId": "830",
        "signer": "0x0ea59c05be4b7149aaed26be764b618ac0255643"
      },
      {
        "passId": "831",
        "signer": "0x10b28ee04853bdd30d1fd7b302fbe5691c144aa0"
      },
      {
        "passId": "832",
        "signer": "0x10f6c58b9dc9603cb24ee9a5220bb4a470781676"
      },
      {
        "passId": "833",
        "signer": "0x12579783fbe8c2645d7a634b238da748405975a2"
      },
      {
        "passId": "834",
        "signer": "0x136c65a3f31682fcf683906ddbf3c76db2633f99"
      },
      {
        "passId": "835",
        "signer": "0x139d9a36ff2b6bfb8558dfbc22486da48c77a396"
      },
      {
        "passId": "836",
        "signer": "0x13b3a50f3947476eda74fe191344524e2d2d28e5"
      },
      {
        "passId": "837",
        "signer": "0x13e46ccd194ca86212236543d2e7376b00bafa42"
      },
      {
        "passId": "838",
        "signer": "0x1423fcc74da82fa03d70fa1f7a122db1ba231783"
      },
      {
        "passId": "839",
        "signer": "0x1436dbffbdde71d16a2c4d23f9116c3158c4d984"
      },
      {
        "passId": "840",
        "signer": "0x1527fa3a0778d574adfe714b7e60c7b2a1bf7c29"
      },
      {
        "passId": "841",
        "signer": "0x1974341df4b113a4c16f3d3f106176dec0e4da67"
      },
      {
        "passId": "842",
        "signer": "0x19b2ba0892da19d09d59e300d11da9edf96654ae"
      },
      {
        "passId": "843",
        "signer": "0x1c062628943a930b805849b494719c7d23c77bd5"
      },
      {
        "passId": "844",
        "signer": "0x1ec9503bbdad721ef3ad485b4b14ce0671dc9925"
      },
      {
        "passId": "845",
        "signer": "0x21c5edc237e95049f92059af6a571fdb700f2b82"
      },
      {
        "passId": "846",
        "signer": "0x2224acd07fd9b269ab5200a9a3df8062624deefb"
      },
      {
        "passId": "847",
        "signer": "0x230eb64900d027dfe372786b3342bd6178ec37d1"
      },
      {
        "passId": "848",
        "signer": "0x273c25abd33eca095e228fde0f15e8f7ec4eb4d9"
      },
      {
        "passId": "849",
        "signer": "0x27d9b6692ec1fb802cc8ceef74270ca4b448076a"
      },
      {
        "passId": "850",
        "signer": "0x290420874bf65691b98b67d042c06bbc31f85f11"
      },
      {
        "passId": "851",
        "signer": "0x2993db31d165c33d848e44a1c26a805ba411d324"
      },
      {
        "passId": "852",
        "signer": "0x2d2c46d26c8fec693586e067c4fc2b2ddc2b4cb3"
      },
      {
        "passId": "853",
        "signer": "0x2d79097b9e4c4f41654b2c91c39fd2c97af00c76"
      },
      {
        "passId": "854",
        "signer": "0x2de2299db048a9e3b8d1934b8dae11b8041cc4fd"
      },
      {
        "passId": "855",
        "signer": "0x2e50783188e23742dd3168682e39381ff5fa9731"
      },
      {
        "passId": "856",
        "signer": "0x2e699391d1b3b8577557b4c0ef6a1d9e8a394f04"
      },
      {
        "passId": "857",
        "signer": "0x308bff328370fc4a9683ab9fcd79a21be6dc5ee4"
      },
      {
        "passId": "858",
        "signer": "0x342c6bfa287ce37b8b53eee0e5b6e6bcbea98c76"
      },
      {
        "passId": "859",
        "signer": "0x362f020fd4420c317e7a0722994ba8bc3380d0e8"
      },
      {
        "passId": "860",
        "signer": "0x3668a20653316a7dd85342f64a4c984d146cadfe"
      },
      {
        "passId": "861",
        "signer": "0x37b699d7eead58433d352d1c77b2db1391f11ce5"
      },
      {
        "passId": "862",
        "signer": "0x3ad353e2845b96fb1b58c1ca6cda46b870de8d6f"
      },
      {
        "passId": "863",
        "signer": "0x3d14410609731ec7924ea8b1f13de544bb46a9a6"
      },
      {
        "passId": "864",
        "signer": "0x4011d09a86d0aca8377a4a8bad691f1aceecd672"
      },
      {
        "passId": "865",
        "signer": "0x41a7276167b80da8815df5b0ddaba3be29984250"
      },
      {
        "passId": "866",
        "signer": "0x44dc2ec15b3483fc8590f6b396cea5f8f2fbf3bd"
      },
      {
        "passId": "867",
        "signer": "0x4530307f98208d3bd5b9631880bc7351770c8810"
      },
      {
        "passId": "868",
        "signer": "0x4a1d757699ab73dd4b48b15049b6f1479b2f3511"
      },
      {
        "passId": "869",
        "signer": "0x4b0bd713574e67a97b3ff8f647f329794a2cbb64"
      },
      {
        "passId": "870",
        "signer": "0x4d03a186b3c7d039ff9a212cd8e81dc34a670b35"
      },
      {
        "passId": "871",
        "signer": "0x4de4a829d42191007431d608775430f3ab072082"
      },
      {
        "passId": "872",
        "signer": "0x4e012d25472225f3385baa43ed64dfec5885c51d"
      },
      {
        "passId": "873",
        "signer": "0x4ffb72b66eba24521736924f87dfe10677d82286"
      },
      {
        "passId": "874",
        "signer": "0x50f27cdb650879a41fb07038bf2b818845c20e17"
      },
      {
        "passId": "875",
        "signer": "0x5285ac85a979b612f5c5320961311bba099670f0"
      },
      {
        "passId": "876",
        "signer": "0x530cf036ed4fa58f7301a9c788c9806624cefd19"
      },
      {
        "passId": "877",
        "signer": "0x5310a9b64847c1b927f823a4bc8836e93f09dc78"
      },
      {
        "passId": "878",
        "signer": "0x54463aae905082c678708bb6c25226eb8f38d5a6"
      },
      {
        "passId": "879",
        "signer": "0x562bf1b67dc40d9b7c3ddd49e45ae58e61e1b76e"
      },
      {
        "passId": "880",
        "signer": "0x568b491fb2b4b9440f6d05e7723df0060fdaef1c"
      },
      {
        "passId": "881",
        "signer": "0x5b158f897f5ace2afefaf7ace8ce0cdbbbc9168a"
      },
      {
        "passId": "882",
        "signer": "0x5ba02f4ff6af1d9d2af8774d10fd32eb57d4e2e6"
      },
      {
        "passId": "883",
        "signer": "0x5bd685375c21375165438ca7f3eae7ec4fade8c5"
      },
      {
        "passId": "884",
        "signer": "0x5d9e720a1c16b98ab897165803c4d96e8060b8e4"
      },
      {
        "passId": "885",
        "signer": "0x5e01d9928ea32d1d3ae2f3263b6ec6c165dc2d76"
      },
      {
        "passId": "886",
        "signer": "0x5ee42438d0d8fc399c94ef3543665e993e847b49"
      },
      {
        "passId": "887",
        "signer": "0x5f8e56d7f3642dd8783774460da2d3a7c54aacda"
      },
      {
        "passId": "888",
        "signer": "0x5fb8b9512684d451d4e585a1a0aabfb48a253c67"
      },
      {
        "passId": "889",
        "signer": "0x6186290b28d511bff971631c916244a9fc539cfe"
      },
      {
        "passId": "890",
        "signer": "0x62f099a34f01d57c67a100851184bea0d48b45f6"
      },
      {
        "passId": "891",
        "signer": "0x63244b5f1ebcb999ea012da652dffee6653bf8f5"
      },
      {
        "passId": "892",
        "signer": "0x64e00561fa9b1f2f2048b2d4f571279689dd9541"
      },
      {
        "passId": "893",
        "signer": "0x65565244e5700b85c90358468faf37c85db55099"
      },
      {
        "passId": "894",
        "signer": "0x6584b48ccebd9c3e4413a1dd4cdbc38b2500cdf3"
      },
      {
        "passId": "895",
        "signer": "0x65d88c64b01b9481352fa8a68b54ed1b3b687388"
      },
      {
        "passId": "896",
        "signer": "0x663d3947f03ef5b387992b880ac85940057c13e3"
      },
      {
        "passId": "897",
        "signer": "0x67c3097a968db89610825976ec9a5976a966c044"
      },
      {
        "passId": "898",
        "signer": "0x68016f094ebb7b55b04372af335455854b0e2eb6"
      },
      {
        "passId": "899",
        "signer": "0x6854dc5c9e3d3ce0b9dd7250d866908515465dc6"
      },
      {
        "passId": "900",
        "signer": "0x686e960ebd9aceb1771850444d4d3a7810a0dac9"
      },
      {
        "passId": "901",
        "signer": "0x6d7fd0438219c0f753a1ccf7c4885bb6cb260999"
      },
      {
        "passId": "902",
        "signer": "0x704c978d50590b21e4c2f43eb4da24fe61fcd707"
      },
      {
        "passId": "903",
        "signer": "0x73e60cd967e957bc6e074f93320ffa1d52697d5b"
      },
      {
        "passId": "904",
        "signer": "0x75331ebbe0b00b97cab532384f13c9b479f074ec"
      },
      {
        "passId": "905",
        "signer": "0x75ef2eff7b12f5f900ef5c787036deab18423d1a"
      },
      {
        "passId": "906",
        "signer": "0x78885686feec340ab544428f161e7d621f520e29"
      },
      {
        "passId": "907",
        "signer": "0x79bebfcb560141f22959c62bbd2930d5c7e35d30"
      },
      {
        "passId": "908",
        "signer": "0x79fd2f15e0ea8c27b5192259f9da63f4e562f021"
      },
      {
        "passId": "909",
        "signer": "0x7a824bea2bed9399a68cd0e340224809521c81d9"
      },
      {
        "passId": "910",
        "signer": "0x7d6a8ffcaf98cac58340329b3a91759888cb1363"
      },
      {
        "passId": "911",
        "signer": "0x7e7a55b11dd9a02b4da169620adfc36b930100fc"
      },
      {
        "passId": "912",
        "signer": "0x80d0d54050c15971b21e877d95441800f5aa9ee8"
      },
      {
        "passId": "913",
        "signer": "0x8177598e08ee8199c160a48c7a0af31ab54bb59f"
      },
      {
        "passId": "914",
        "signer": "0x82410609593d876761681580cf304c794bd58d09"
      },
      {
        "passId": "915",
        "signer": "0x826f63afd9517364cbebe91a859f10b102505a40"
      },
      {
        "passId": "916",
        "signer": "0x836ef81a58e5565b8d1d555ec8e9a5c2792511c6"
      },
      {
        "passId": "917",
        "signer": "0x83d3c179e7906e7f6755658c70e106f1ed3c5782"
      },
      {
        "passId": "918",
        "signer": "0x84eeb7db3f93feb5a8a98f56dabb970a6797c187"
      },
      {
        "passId": "919",
        "signer": "0x865c2f85c9fea1c6ac7f53de07554d68cb92ed88"
      },
      {
        "passId": "920",
        "signer": "0x8725be0bb6ea759d10fbb52fedecc7dcd6890072"
      },
      {
        "passId": "921",
        "signer": "0x87dfef3b445667292aac89078b51f0f75795805f"
      },
      {
        "passId": "922",
        "signer": "0x88906af7616f88f610d1e479325a5c5f93ba1e2c"
      },
      {
        "passId": "923",
        "signer": "0x8a53b8b59877df193c6dae7b8d1d38251af563cf"
      },
      {
        "passId": "924",
        "signer": "0x8b5e90aa714c967efc8c286f46ce0fc822e1cfb0"
      },
      {
        "passId": "925",
        "signer": "0x8c0c3c60118b24b31806eae82ab4186821bf23f1"
      },
      {
        "passId": "926",
        "signer": "0x8c2e67bd3d0f432ef75d9ae6623cd0dfbce66050"
      },
      {
        "passId": "927",
        "signer": "0x8dc9d43df20681cd62ca0acb24ae7ce2794f835d"
      },
      {
        "passId": "928",
        "signer": "0x8df55ecf2c261b44d079302dc95327fe32f74eed"
      },
      {
        "passId": "929",
        "signer": "0x8ebbf8f59b7b7849e359f7e1cc395df6741c24b9"
      },
      {
        "passId": "930",
        "signer": "0x92e7faa1c7b1cf703e3cda42183978f16fa15713"
      },
      {
        "passId": "931",
        "signer": "0x932a824a4d3d0680e0b352de150e6f212b8ac841"
      },
      {
        "passId": "932",
        "signer": "0x95a4350e1cb5e795d3ebe8bee63d9183de5449d1"
      },
      {
        "passId": "933",
        "signer": "0x96dc89dbe84970ee42a2f0b35fb50599e6745ff8"
      },
      {
        "passId": "934",
        "signer": "0x975ab68d4c15d6db02e101d5be03c5b49b9a3282"
      },
      {
        "passId": "935",
        "signer": "0x9de0b0402258a6a562331da7b3c13b29578789c4"
      },
      {
        "passId": "936",
        "signer": "0x9fc6d6c7326585fd3c2a743a1f505990d6e9df3f"
      },
      {
        "passId": "937",
        "signer": "0xa0863e36c30f4974a3a0e2cfc2802513cfaa22f1"
      },
      {
        "passId": "938",
        "signer": "0xa0a6dc36041fb386378458006fecbddd02555ddd"
      },
      {
        "passId": "939",
        "signer": "0xa0d71d516c6149c958c489ab24223c99f5df906f"
      },
      {
        "passId": "940",
        "signer": "0xa0f838d02983161ee469bff969964b7051ac1cd9"
      },
      {
        "passId": "941",
        "signer": "0xa596370bc21dee36872b98009dfbbf465dbfefa3"
      },
      {
        "passId": "942",
        "signer": "0xa5975974cac3fefd831e42bdd2fe84cb5ee3b3de"
      },
      {
        "passId": "943",
        "signer": "0xa6157b7bb7ec05e2b6feafd686797f9ea05411cc"
      },
      {
        "passId": "944",
        "signer": "0xa6f4fa9840aa6825446c820af6d5eccf9f78ba05"
      },
      {
        "passId": "945",
        "signer": "0xa77d9227eee861e01519548b6000acca8600eebe"
      },
      {
        "passId": "946",
        "signer": "0xa7d9f4fd84cdd4bee564adc1b18e3e8aa79d25f1"
      },
      {
        "passId": "947",
        "signer": "0xa88e4a192f3ff5e46dcc96efefb38dfec7bb250c"
      },
      {
        "passId": "948",
        "signer": "0xab2f02d8d409ee4f67fdda5aac5ca7a64a897271"
      },
      {
        "passId": "949",
        "signer": "0xac75cdc34283406b050cadf4ea5902a9310b138e"
      },
      {
        "passId": "950",
        "signer": "0xad9f9194c68bd83250a534a7da574687e1f102ff"
      },
      {
        "passId": "951",
        "signer": "0xae8ce6bb2b95684f57c097b407f4e9b55d9ca432"
      },
      {
        "passId": "952",
        "signer": "0xaee2f40fe0568bd859bc6a518c7ef3252fdc9bf0"
      },
      {
        "passId": "953",
        "signer": "0xaf5cb828389bd6413e7bcd00ed2dcf2bdc1a015a"
      },
      {
        "passId": "954",
        "signer": "0xaf8fbf59e221d27b55dc3adc2366f9230bcf5096"
      },
      {
        "passId": "955",
        "signer": "0xb29b1936c11b77cec6061a9daf765ee2666c8f77"
      },
      {
        "passId": "956",
        "signer": "0xb347b5b99c49ce6c555071a1f0498c81511ad977"
      },
      {
        "passId": "957",
        "signer": "0xb3522064694ac9870dbf00eebc2712762193bb64"
      },
      {
        "passId": "958",
        "signer": "0xb353268ce17d2c7f0f4f8aff152e548c43633df5"
      },
      {
        "passId": "959",
        "signer": "0xb66190f67ed8f0ca790ddfe541ee1bd0da53fe70"
      },
      {
        "passId": "960",
        "signer": "0xb7f9f538aa1b41ae2853eb63f1939187ffe70eb4"
      },
      {
        "passId": "961",
        "signer": "0xbb46c6e4d8a59520fbb11638c2d1228cc65f5a6c"
      },
      {
        "passId": "962",
        "signer": "0xbc10a3ae909b1b94f4c3e39607ad19d386dce32a"
      },
      {
        "passId": "963",
        "signer": "0xbd12aa424c207e90b66402c1f0aec357e8b1ded7"
      },
      {
        "passId": "964",
        "signer": "0xbe5be517537e53f09e88bcdf61da238477dca226"
      },
      {
        "passId": "965",
        "signer": "0xbeeef66749b64afe43bbc9475635eb510cfe4922"
      },
      {
        "passId": "966",
        "signer": "0xbf1ed1ea654ad49472daedc21a31c8d28e6bb790"
      },
      {
        "passId": "967",
        "signer": "0xbfdb50dc66c8df9fd9688d8fe5a0c34126427645"
      },
      {
        "passId": "968",
        "signer": "0xc09d3402515676b81a2f768c365146ea3faa5605"
      },
      {
        "passId": "969",
        "signer": "0xc0e5e14bdecd9ed6954a9e14c74e97cebd91bb94"
      },
      {
        "passId": "970",
        "signer": "0xc169699a825066f2f07e0b29c4082094b32a3f3e"
      },
      {
        "passId": "971",
        "signer": "0xc3a67c1437353bdc9c53060235a34018711de0cf"
      },
      {
        "passId": "972",
        "signer": "0xc42c694d0215b27bce1a871a4a2ad38cf0120a82"
      },
      {
        "passId": "973",
        "signer": "0xc555347d2b369b074be94fe6f7ae9ab43966b884"
      },
      {
        "passId": "974",
        "signer": "0xc665a60f22dda926b920deb8ffac0ef9d8a17460"
      },
      {
        "passId": "975",
        "signer": "0xc8286a9bf1f9bf8f3006fa014915c78b7e75111c"
      },
      {
        "passId": "976",
        "signer": "0xc8bace82793074fad3337424bdb84e306b2f8a44"
      },
      {
        "passId": "977",
        "signer": "0xc9a009bed9ed8a32499e18c20f7cd12132c8d6cb"
      },
      {
        "passId": "978",
        "signer": "0xca11d10ceb098f597a0cab28117fc3465991a63c"
      },
      {
        "passId": "979",
        "signer": "0xcbd2f544073eb35b59a8eb19194a222a5361cd74"
      },
      {
        "passId": "980",
        "signer": "0xcda685c8444f659ac3fe778f8d143aabdf1a21ab"
      },
      {
        "passId": "981",
        "signer": "0xcea78aaa93e917fb5e1802901db2b20aa4411b44"
      },
      {
        "passId": "982",
        "signer": "0xcef871b113d2bb5d3fa5dc96d2d288dd38082aae"
      },
      {
        "passId": "983",
        "signer": "0xcf680fb77c12e2aa2dec82f3ae0c0e527f549fe2"
      },
      {
        "passId": "984",
        "signer": "0xd1eddfcc4596cc8bd0bd7495beab9b979fc50336"
      },
      {
        "passId": "985",
        "signer": "0xd286064cc27514b914bab0f2fad2e1a89a91f314"
      },
      {
        "passId": "986",
        "signer": "0xd3e64b9dea13e4840a0da20965bd0ca37d05a12a"
      },
      {
        "passId": "987",
        "signer": "0xd651e2c626ee210fc38676124d5007ac822ad749"
      },
      {
        "passId": "988",
        "signer": "0xd657860fc512ec2250a7385a353f599e3276fddb"
      },
      {
        "passId": "989",
        "signer": "0xd6e02c13a6cc133c9d019495414667ea7bee05cc"
      },
      {
        "passId": "990",
        "signer": "0xdc190d7cea8e8bf0b381617062200c10cfff0a91"
      },
      {
        "passId": "991",
        "signer": "0xdd6c81d6d587e2d49eaadffb4ce380564046002a"
      },
      {
        "passId": "992",
        "signer": "0xddb92a96054132801cae3943b2f966fc2c308ac8"
      },
      {
        "passId": "993",
        "signer": "0xdde3ca351d85a4b4cc6aff8d42c0840959859053"
      },
      {
        "passId": "994",
        "signer": "0xe120ed22a0cd12d5de6122aa7d5b6d93ac218b49"
      },
      {
        "passId": "995",
        "signer": "0xe20adb03a470b5573bf572dd918e052d0d17866e"
      },
      {
        "passId": "996",
        "signer": "0xe363c2fba75cbd27487b17430e1efbdd2add374e"
      },
      {
        "passId": "997",
        "signer": "0xe5a3d77d7788a83f3549dd7f08fc2aced7e262d2"
      },
      {
        "passId": "998",
        "signer": "0xe66e1e9e37e4e148b21eb22001431818e980d060"
      },
      {
        "passId": "999",
        "signer": "0xe7bd51dc30d4bdc9fddd42ea7c0a283590c9d416"
      },
      {
        "passId": "1000",
        "signer": "0xeb42cd8a1fe1ff556960a9a03ca29aa13f8aa838"
      },
      {
        "passId": "1001",
        "signer": "0xed0f30677c760ea8f0bff70c76eafc79d5f7c3c8"
      },
      {
        "passId": "1002",
        "signer": "0xeddd55a234240042695d7430bf0a09b9038a26ad"
      },
      {
        "passId": "1003",
        "signer": "0xee4d308cc1cde3dd0adcb5a2c85edff22db64918"
      },
      {
        "passId": "1004",
        "signer": "0xee9439a12a7c2a9b6600ca8a498620580d2f116e"
      },
      {
        "passId": "1005",
        "signer": "0xeeaf61935c0c48f8f8cc28c381683d7fa2f75e1c"
      },
      {
        "passId": "1006",
        "signer": "0xef1271ae97bc1a1b356ab697e9ed0d1d4e05fcda"
      },
      {
        "passId": "1007",
        "signer": "0xf19bc58f747d6ea11959bf2a0fa81e53285546ac"
      },
      {
        "passId": "1008",
        "signer": "0xf1e1c701b49b1dc2405a9e8ef40f9f88802b80fa"
      },
      {
        "passId": "1009",
        "signer": "0xf2b15320db6992ba49a7563e50e888c20edcbe3c"
      },
      {
        "passId": "1010",
        "signer": "0xf341c3abb49feb96b4822e68227b54c6fb9f6318"
      },
      {
        "passId": "1011",
        "signer": "0xf3493f6812b1f22b40f8539db2510e13ac251f96"
      },
      {
        "passId": "1012",
        "signer": "0xf3b1b6e83be4d55695f1d30ac3d307d9d5ca98ff"
      },
      {
        "passId": "1013",
        "signer": "0xf464d1a37d8ef9449722f44a4eeb715c0e0acdb3"
      },
      {
        "passId": "1014",
        "signer": "0xf6910d47fbb1f5518d60c721d4189936ecd5a1b6"
      },
      {
        "passId": "1015",
        "signer": "0xf73c935815908ad9a056fc50269f95d8ba032e9d"
      },
      {
        "passId": "1016",
        "signer": "0xf78cd306b23031de9e739a5bcde61764e82ad5ef"
      },
      {
        "passId": "1017",
        "signer": "0xf942040710bedf7220beb24b220631c2255e87f1"
      },
      {
        "passId": "1018",
        "signer": "0xf943e1d2db38db468f66a79b08ec23f8c4375ce3"
      },
      {
        "passId": "1019",
        "signer": "0xfa46dedf812c5803b1e2cea10eef3f27dafeca56"
      },
      {
        "passId": "1020",
        "signer": "0xfa9f104f338846b38b083c9e567ff6bbe43ab5f7"
      },
      {
        "passId": "1021",
        "signer": "0xfd12799b9fb97dc61d9ad7ad4ffba5624004bc62"
      },
      {
        "passId": "1022",
        "signer": "0xfe1e7dc61721f34a25c9eb4dc1a1a8f352c923ef"
      },
      {
        "passId": "1023",
        "signer": "0xfffff6e70842330948ca47254f2be673b1cb0db7"
      }
    ]
  },
  "solcInputHash": "91ec20bd84f402d22d504921fb4a04d0",
  "bytecode": "0x6101c06040523480156200001257600080fd5b50604051620024823803806200248283398101604081905262000035916200009e565b6001600160a01b039b8c16608052958b1660a05260c09490945291891660e05260005590961661010052610120959095526101409390935261016091909152610180526101a05260015562000159565b6001600160a01b03811681146200009b57600080fd5b50565b6000806000806000806000806000806000806101808d8f031215620000c257600080fd5b8c51620000cf8162000085565b809c505060208d01519a5060408d0151995060608d0151985060808d0151975060a08d0151620000ff8162000085565b60c08e015160e08f01519198509650620001198162000085565b6101008e01516101208f01519196509450620001358162000085565b809350506101408d015191506101608d015190509295989b509295989b509295989b565b60805160a05160c05160e05161010051610120516101405161016051610180516101a0516122136200026f60003960008181610376015281816105b20152610fef0152600081816103530152818161041101528181610591015281816106110152818161071f015261116e01526000818161033001528181610570015261119601526000818161030d0152818161054f01526111bc015260008181610399015281816105d3015281816111e2015261121e01526000610ca20152600061184701526000818161175501526117830152600081816107cd015281816109fd01528181611679015281816116f201526117cf01526000818161023e0152818161098501528181610c0d015261135301526122136000f3fe6080604052600436106100b15760003560e01c8063990b0f6011610069578063ca9dca041161004e578063ca9dca04146101ce578063d93459b6146101ee578063e957a3811461020e57600080fd5b8063990b0f601461019b5780639c205513146101bb57600080fd5b80632558e9331161009a5780632558e933146101245780636d048d53146101395780637361a72e1461018857600080fd5b80630ccc797f146100b65780632228adcc146100f4575b600080fd5b3480156100c257600080fd5b506100d66100d1366004611a5c565b61022e565b6040516100eb99989796959493929190611ab8565b60405180910390f35b34801561010057600080fd5b5061011461010f366004611b54565b6103e5565b60405190151581526020016100eb565b610137610132366004611c91565b61040f565b005b34801561014557600080fd5b50610159610154366004611d93565b610544565b6040805196875260208701959095529385019290925260608401526080830152151560a082015260c0016100eb565b610137610196366004611db0565b61060f565b3480156101a757600080fd5b506101146101b6366004611b54565b6106d2565b6101376101c9366004611e1a565b61071d565b3480156101da57600080fd5b506101376101e9366004611e1a565b6107b5565b3480156101fa57600080fd5b50610137610209366004611e51565b6109e5565b34801561021a57600080fd5b50610114610229366004611b54565b610c7d565b60606000806000806000806000807f000000000000000000000000000000000000000000000000000000000000000073ffffffffffffffffffffffffffffffffffffffff1663a0554c268c8c6040518363ffffffff1660e01b8152600401610297929190611ea8565b60006040518083038186803b1580156102af57600080fd5b505afa1580156102c3573d6000803e3d6000fd5b505050506040513d6000823e601f3d9081017fffffffffffffffffffffffffffffffffffffffffffffffffffffffffffffffe01682016040526103099190810190611efd565b98507f000000000000000000000000000000000000000000000000000000000000000097507f000000000000000000000000000000000000000000000000000000000000000096507f000000000000000000000000000000000000000000000000000000000000000095507f000000000000000000000000000000000000000000000000000000000000000094507f000000000000000000000000000000000000000000000000000000000000000093506103c38d610c9b565b92506103ce8c6106d2565b915060015490509499509499509499509499909550565b6000806103f76010600685901c611fc6565b905080600714806104085750806008145b9392505050565b7f00000000000000000000000000000000000000000000000000000000000000004210156105335761044083610e04565b60006104ab83858760405160200161048792919091825260601b7fffffffffffffffffffffffffffffffffffffffff00000000000000000000000016602082015260340190565b60405160208183030381529060405280519060200120610ec290919063ffffffff16565b905060006104b98583610ee6565b90506104c58382610f47565b610530576040517f08c379a000000000000000000000000000000000000000000000000000000000815260206004820152600d60248201527f494e56414c49445f50524f4f460000000000000000000000000000000000000060448201526064015b60405180910390fd5b50505b61053d8585611014565b5050505050565b6000806000806000807f00000000000000000000000000000000000000000000000000000000000000007f00000000000000000000000000000000000000000000000000000000000000007f00000000000000000000000000000000000000000000000000000000000000007f00000000000000000000000000000000000000000000000000000000000000007f00000000000000000000000000000000000000000000000000000000000000006105fb8c610c9b565b949c939b5091995097509550909350915050565b7f00000000000000000000000000000000000000000000000000000000000000004210156106c25761064082610e04565b33600061064d8483610ee6565b90506106598382610f47565b6106bf576040517f08c379a000000000000000000000000000000000000000000000000000000000815260206004820152600d60248201527f494e56414c49445f50524f4f46000000000000000000000000000000000000006044820152606401610527565b50505b6106cc8484611014565b50505050565b6000806106e161010084612009565b905060006106f18261010061201d565b6106fb908561205a565b60009283526002602052604090922054600190921b9182169091149392505050565b7f00000000000000000000000000000000000000000000000000000000000000004210156107a7576040517f08c379a000000000000000000000000000000000000000000000000000000000815260206004820152601460248201527f524551554952455f504153535f4f525f574149540000000000000000000000006044820152606401610527565b6107b18282611014565b5050565b3373ffffffffffffffffffffffffffffffffffffffff7f00000000000000000000000000000000000000000000000000000000000000001614610854576040517f08c379a000000000000000000000000000000000000000000000000000000000815260206004820152600e60248201527f4e4f545f415554484f52495a45440000000000000000000000000000000000006044820152606401610527565b6102408261ffff16106108c3576040517f08c379a000000000000000000000000000000000000000000000000000000000815260206004820152600d60248201527f494e56414c49445f534f554e44000000000000000000000000000000000000006044820152606401610527565b6108d08261ffff166103e5565b610936576040517f08c379a000000000000000000000000000000000000000000000000000000000815260206004820152600c60248201527f4e4f545f524553455256454400000000000000000000000000000000000000006044820152606401610527565b6040517f9c20551300000000000000000000000000000000000000000000000000000000815261ffff8316600482015273ffffffffffffffffffffffffffffffffffffffff82811660248301527f00000000000000000000000000000000000000000000000000000000000000001690639c20551390604401600060405180830381600087803b1580156109c957600080fd5b505af11580156109dd573d6000803e3d6000fd5b505050505050565b3373ffffffffffffffffffffffffffffffffffffffff7f00000000000000000000000000000000000000000000000000000000000000001614610a84576040517f08c379a000000000000000000000000000000000000000000000000000000000815260206004820152600e60248201527f4e4f545f415554484f52495a45440000000000000000000000000000000000006044820152606401610527565b60005b82811015610bcf57610240848483818110610aa457610aa4612071565b9050602002016020810190610ab991906120a0565b61ffff1610610b24576040517f08c379a000000000000000000000000000000000000000000000000000000000815260206004820152600d60248201527f494e56414c49445f534f554e44000000000000000000000000000000000000006044820152606401610527565b610b57848483818110610b3957610b39612071565b9050602002016020810190610b4e91906120a0565b61ffff166103e5565b610bbd576040517f08c379a000000000000000000000000000000000000000000000000000000000815260206004820152600c60248201527f4e4f545f524553455256454400000000000000000000000000000000000000006044820152606401610527565b80610bc7816120bb565b915050610a87565b506040517fe2ea128800000000000000000000000000000000000000000000000000000000815273ffffffffffffffffffffffffffffffffffffffff7f0000000000000000000000000000000000000000000000000000000000000000169063e2ea128890610c46908690869086906004016120f4565b600060405180830381600087803b158015610c6057600080fd5b505af1158015610c74573d6000803e3d6000fd5b50505050505050565b600080610c8f6010600685901c611fc6565b60015410159392505050565b60008060007f000000000000000000000000000000000000000000000000000000000000000073ffffffffffffffffffffffffffffffffffffffff1684604051602401610d04919073ffffffffffffffffffffffffffffffffffffffff91909116815260200190565b604080517fffffffffffffffffffffffffffffffffffffffffffffffffffffffffffffffe08184030181529181526020820180517bffffffffffffffffffffffffffffffffffffffffffffffffffffffff167f70a082310000000000000000000000000000000000000000000000000000000017905251610d85919061215a565b600060405180830381855afa9150503d8060008114610dc0576040519150601f19603f3d011682016040523d82523d6000602084013e610dc5565b606091505b50915091506000828015610dda575060008251115b610de5576000610df9565b81806020019051810190610df99190612195565b151595945050505050565b6000610e1261010083612009565b90506000610e228261010061201d565b610e2c908461205a565b600083815260026020526040902054600190911b915080821615610eac576040517f08c379a000000000000000000000000000000000000000000000000000000000815260206004820152601160248201527f504153535f414c52454144595f555345440000000000000000000000000000006044820152606401610527565b6000928352600260205260409092209117905550565b6000806000610ed18585611382565b91509150610ede816113f2565b509392505050565b60008282604051602001610f2992919091825260601b7fffffffffffffffffffffffffffffffffffffffff00000000000000000000000016602082015260340190565b60405160208183030381529060405280519060200120905092915050565b6000805b8351811015610feb576000848281518110610f6857610f68612071565b6020026020010151905080841015610fab576040805160208101869052908101829052606001604051602081830303815290604052805190602001209350610fd8565b60408051602081018390529081018590526060016040516020818303038152906040528051906020012093505b5080610fe3816120bb565b915050610f4b565b50507f000000000000000000000000000000000000000000000000000000000000000014919050565b6102408261ffff1610611083576040517f08c379a000000000000000000000000000000000000000000000000000000000815260206004820152600d60248201527f494e56414c49445f534f554e44000000000000000000000000000000000000006044820152606401610527565b6110908261ffff16610c7d565b6110f6576040517f08c379a000000000000000000000000000000000000000000000000000000000815260206004820152601b60248201527f494e535455524d454e545f4e4f545f5945545f464f525f53414c4500000000006044820152606401610527565b6111038261ffff166103e5565b1561116a576040517f08c379a000000000000000000000000000000000000000000000000000000000815260206004820152600860248201527f52455345525645440000000000000000000000000000000000000000000000006044820152606401610527565b60007f00000000000000000000000000000000000000000000000000000000000000004210156111ba577f00000000000000000000000000000000000000000000000000000000000000006111dc565b7f00000000000000000000000000000000000000000000000000000000000000005b905060007f0000000000000000000000000000000000000000000000000000000000000000118015611212575061121233610c9b565b1561125a5760646112437f00000000000000000000000000000000000000000000000000000000000000008361201d565b61124d9190612009565b611257908261205a565b90505b803410156112c4576040517f08c379a000000000000000000000000000000000000000000000000000000000815260206004820152600a60248201527f4e4f545f454e4f554748000000000000000000000000000000000000000000006044820152606401610527565b336108fc6112d2833461205a565b6040518115909202916000818181858888f193505050501580156112fa573d6000803e3d6000fd5b506113048161164e565b6040517f9c20551300000000000000000000000000000000000000000000000000000000815261ffff8416600482015273ffffffffffffffffffffffffffffffffffffffff83811660248301527f00000000000000000000000000000000000000000000000000000000000000001690639c20551390604401610c46565b6000808251604114156113b95760208301516040840151606085015160001a6113ad87828585611895565b945094505050506113eb565b8251604014156113e357602083015160408401516113d88683836119ad565b9350935050506113eb565b506000905060025b9250929050565b6000816004811115611406576114066121ae565b141561140f5750565b6001816004811115611423576114236121ae565b141561148b576040517f08c379a000000000000000000000000000000000000000000000000000000000815260206004820152601860248201527f45434453413a20696e76616c6964207369676e617475726500000000000000006044820152606401610527565b600281600481111561149f5761149f6121ae565b1415611507576040517f08c379a000000000000000000000000000000000000000000000000000000000815260206004820152601f60248201527f45434453413a20696e76616c6964207369676e6174757265206c656e677468006044820152606401610527565b600381600481111561151b5761151b6121ae565b14156115a9576040517f08c379a000000000000000000000000000000000000000000000000000000000815260206004820152602260248201527f45434453413a20696e76616c6964207369676e6174757265202773272076616c60448201527f75650000000000000000000000000000000000000000000000000000000000006064820152608401610527565b60048160048111156115bd576115bd6121ae565b141561164b576040517f08c379a000000000000000000000000000000000000000000000000000000000815260206004820152602260248201527f45434453413a20696e76616c6964207369676e6174757265202776272076616c60448201527f75650000000000000000000000000000000000000000000000000000000000006064820152608401610527565b50565b600054801561174d57808211156116d85760405173ffffffffffffffffffffffffffffffffffffffff7f0000000000000000000000000000000000000000000000000000000000000000169082156108fc029083906000818181858888f193505050501580156116c2573d6000803e3d6000fd5b506116cd818361205a565b60008055915061174d565b60405173ffffffffffffffffffffffffffffffffffffffff7f0000000000000000000000000000000000000000000000000000000000000000169083156108fc029084906000818181858888f1935050505015801561173b573d6000803e3d6000fd5b50611746828261205a565b6000555050565b81156107b1577f0000000000000000000000000000000000000000000000000000000000000000156118275760006127106117a87f00000000000000000000000000000000000000000000000000000000000000008561201d565b6117b29190612009565b60405190915073ffffffffffffffffffffffffffffffffffffffff7f0000000000000000000000000000000000000000000000000000000000000000169082156108fc029083906000818181858888f19350505050158015611818573d6000803e3d6000fd5b50611823818461205a565b9250505b81156107b15760405173ffffffffffffffffffffffffffffffffffffffff7f0000000000000000000000000000000000000000000000000000000000000000169083156108fc029084906000818181858888f19350505050158015611890573d6000803e3d6000fd5b505050565b6000807f7fffffffffffffffffffffffffffffff5d576e7357a4501ddfe92f46681b20a08311156118cc57506000905060036119a4565b8460ff16601b141580156118e457508460ff16601c14155b156118f557506000905060046119a4565b6040805160008082526020820180845289905260ff881692820192909252606081018690526080810185905260019060a0016020604051602081039080840390855afa158015611949573d6000803e3d6000fd5b50506040517fffffffffffffffffffffffffffffffffffffffffffffffffffffffffffffffe0015191505073ffffffffffffffffffffffffffffffffffffffff811661199d576000600192509250506119a4565b9150600090505b94509492505050565b6000807f7fffffffffffffffffffffffffffffffffffffffffffffffffffffffffffffff831660ff84901c601b016119e787828885611895565b935093505050935093915050565b73ffffffffffffffffffffffffffffffffffffffff8116811461164b57600080fd5b60008083601f840112611a2957600080fd5b50813567ffffffffffffffff811115611a4157600080fd5b6020830191508360208260051b85010111156113eb57600080fd5b60008060008060608587031215611a7257600080fd5b8435611a7d816119f5565b935060208501359250604085013567ffffffffffffffff811115611aa057600080fd5b611aac87828801611a17565b95989497509550505050565b6101208082528a51908201819052600090610140830190602090818e01845b82811015611b0957815173ffffffffffffffffffffffffffffffffffffffff1685529383019390830190600101611ad7565b5050508192508b8185015250508860408301528760608301528660808301528560a0830152611b3c60c083018615159052565b92151560e08201526101000152979650505050505050565b600060208284031215611b6657600080fd5b5035919050565b803561ffff81168114611b7f57600080fd5b919050565b7f4e487b7100000000000000000000000000000000000000000000000000000000600052604160045260246000fd5b604051601f82017fffffffffffffffffffffffffffffffffffffffffffffffffffffffffffffffe016810167ffffffffffffffff81118282101715611bfa57611bfa611b84565b604052919050565b600067ffffffffffffffff821115611c1c57611c1c611b84565b5060051b60200190565b600082601f830112611c3757600080fd5b81356020611c4c611c4783611c02565b611bb3565b82815260059290921b84018101918181019086841115611c6b57600080fd5b8286015b84811015611c865780358352918301918301611c6f565b509695505050505050565b600080600080600060a08688031215611ca957600080fd5b611cb286611b6d565b9450602080870135611cc3816119f5565b945060408701359350606087013567ffffffffffffffff80821115611ce757600080fd5b818901915089601f830112611cfb57600080fd5b813581811115611d0d57611d0d611b84565b611d3d847fffffffffffffffffffffffffffffffffffffffffffffffffffffffffffffffe0601f84011601611bb3565b8181528b85838601011115611d5157600080fd5b818585018683013760009181019094015291935060808801359180831115611d7857600080fd5b5050611d8688828901611c26565b9150509295509295909350565b600060208284031215611da557600080fd5b8135610408816119f5565b60008060008060808587031215611dc657600080fd5b611dcf85611b6d565b93506020850135611ddf816119f5565b925060408501359150606085013567ffffffffffffffff811115611e0257600080fd5b611e0e87828801611c26565b91505092959194509250565b60008060408385031215611e2d57600080fd5b611e3683611b6d565b91506020830135611e46816119f5565b809150509250929050565b600080600060408486031215611e6657600080fd5b833567ffffffffffffffff811115611e7d57600080fd5b611e8986828701611a17565b9094509250506020840135611e9d816119f5565b809150509250925092565b6020815281602082015260007f07ffffffffffffffffffffffffffffffffffffffffffffffffffffffffffffff831115611ee157600080fd5b8260051b80856040850137600092016040019182525092915050565b60006020808385031215611f1057600080fd5b825167ffffffffffffffff811115611f2757600080fd5b8301601f81018513611f3857600080fd5b8051611f46611c4782611c02565b81815260059190911b82018301908381019087831115611f6557600080fd5b928401925b82841015611f8c578351611f7d816119f5565b82529284019290840190611f6a565b979650505050505050565b7f4e487b7100000000000000000000000000000000000000000000000000000000600052601260045260246000fd5b600082611fd557611fd5611f97565b500690565b7f4e487b7100000000000000000000000000000000000000000000000000000000600052601160045260246000fd5b60008261201857612018611f97565b500490565b6000817fffffffffffffffffffffffffffffffffffffffffffffffffffffffffffffffff048311821515161561205557612055611fda565b500290565b60008282101561206c5761206c611fda565b500390565b7f4e487b7100000000000000000000000000000000000000000000000000000000600052603260045260246000fd5b6000602082840312156120b257600080fd5b61040882611b6d565b60007fffffffffffffffffffffffffffffffffffffffffffffffffffffffffffffffff8214156120ed576120ed611fda565b5060010190565b6040808252810183905260008460608301825b868110156121305761ffff61211b84611b6d565b16825260209283019290910190600101612107565b50809250505073ffffffffffffffffffffffffffffffffffffffff83166020830152949350505050565b6000825160005b8181101561217b5760208186018101518583015201612161565b8181111561218a576000828501525b509190910192915050565b6000602082840312156121a757600080fd5b5051919050565b7f4e487b7100000000000000000000000000000000000000000000000000000000600052602160045260246000fdfea2646970667358221220bf42ab3b54cc14a9dace4923fa26736dc3215847df52d5a5bc31ab1b5b82474b64736f6c63430008090033",
  "devdoc": {
    "kind": "dev",
    "methods": {},
    "version": 1
  },
  "userdoc": {
    "kind": "user",
    "methods": {},
    "version": 1
  },
  "storageLayout": {
    "storage": [
      {
        "astId": 12342,
        "contract": "src/bleeps/BleepsFixedPriceSale.sol:BleepsFixedPriceSale",
        "label": "_deploymentCostToPay",
        "offset": 0,
        "slot": "0",
        "type": "t_uint256"
      },
      {
        "astId": 10474,
        "contract": "src/bleeps/BleepsFixedPriceSale.sol:BleepsFixedPriceSale",
        "label": "_uptoInstr",
        "offset": 0,
        "slot": "1",
        "type": "t_uint256"
      },
      {
        "astId": 10478,
        "contract": "src/bleeps/BleepsFixedPriceSale.sol:BleepsFixedPriceSale",
        "label": "_passUsed",
        "offset": 0,
        "slot": "2",
        "type": "t_mapping(t_uint256,t_uint256)"
      }
    ],
    "types": {
      "t_mapping(t_uint256,t_uint256)": {
        "encoding": "mapping",
        "key": "t_uint256",
        "label": "mapping(uint256 => uint256)",
        "numberOfBytes": "32",
        "value": "t_uint256"
      },
      "t_uint256": {
        "encoding": "inplace",
        "label": "uint256",
        "numberOfBytes": "32"
      }
    }
  }
}