{
  "address": "0xD09e3B3B4D4224a0995A59397eCEA2EAeb0a51D0",
  "abi": [
    {
      "inputs": [
        {
          "internalType": "address",
          "name": "initialMaintainer",
          "type": "address"
        },
        {
          "internalType": "address",
          "name": "initialMinterAdmin",
          "type": "address"
        },
        {
          "internalType": "contract ITokenURI",
          "name": "initialTokenURIContract",
          "type": "address"
        }
      ],
      "stateMutability": "nonpayable",
      "type": "constructor"
    },
    {
      "anonymous": false,
      "inputs": [
        {
          "indexed": true,
          "internalType": "address",
          "name": "owner",
          "type": "address"
        },
        {
          "indexed": true,
          "internalType": "address",
          "name": "approved",
          "type": "address"
        },
        {
          "indexed": true,
          "internalType": "uint256",
          "name": "tokenId",
          "type": "uint256"
        }
      ],
      "name": "Approval",
      "type": "event"
    },
    {
      "anonymous": false,
      "inputs": [
        {
          "indexed": true,
          "internalType": "address",
          "name": "owner",
          "type": "address"
        },
        {
          "indexed": true,
          "internalType": "address",
          "name": "operator",
          "type": "address"
        },
        {
          "indexed": false,
          "internalType": "bool",
          "name": "approved",
          "type": "bool"
        }
      ],
      "name": "ApprovalForAll",
      "type": "event"
    },
    {
      "anonymous": false,
      "inputs": [
        {
          "indexed": false,
          "internalType": "address",
          "name": "newMaintainer",
          "type": "address"
        }
      ],
      "name": "MaintainerSet",
      "type": "event"
    },
    {
      "anonymous": false,
      "inputs": [
        {
          "indexed": false,
          "internalType": "address",
          "name": "newMinterAdmin",
          "type": "address"
        }
      ],
      "name": "MinterAdminSet",
      "type": "event"
    },
    {
      "anonymous": false,
      "inputs": [
        {
          "indexed": false,
          "internalType": "address",
          "name": "newMinter",
          "type": "address"
        }
      ],
      "name": "MinterSet",
      "type": "event"
    },
    {
      "anonymous": false,
      "inputs": [
        {
          "indexed": false,
          "internalType": "contract ITokenURI",
          "name": "newTokenURIContract",
          "type": "address"
        }
      ],
      "name": "TokenURIContractSet",
      "type": "event"
    },
    {
      "anonymous": false,
      "inputs": [
        {
          "indexed": true,
          "internalType": "address",
          "name": "from",
          "type": "address"
        },
        {
          "indexed": true,
          "internalType": "address",
          "name": "to",
          "type": "address"
        },
        {
          "indexed": true,
          "internalType": "uint256",
          "name": "tokenId",
          "type": "uint256"
        }
      ],
      "name": "Transfer",
      "type": "event"
    },
    {
      "inputs": [],
      "name": "DOMAIN_SEPARATOR",
      "outputs": [
        {
          "internalType": "bytes32",
          "name": "",
          "type": "bytes32"
        }
      ],
      "stateMutability": "view",
      "type": "function"
    },
    {
      "inputs": [],
      "name": "DOMAIN_TYPEHASH",
      "outputs": [
        {
          "internalType": "bytes32",
          "name": "",
          "type": "bytes32"
        }
      ],
      "stateMutability": "view",
      "type": "function"
    },
    {
      "inputs": [],
      "name": "PERMIT_FOR_ALL_TYPEHASH",
      "outputs": [
        {
          "internalType": "bytes32",
          "name": "",
          "type": "bytes32"
        }
      ],
      "stateMutability": "view",
      "type": "function"
    },
    {
      "inputs": [],
      "name": "PERMIT_TYPEHASH",
      "outputs": [
        {
          "internalType": "bytes32",
          "name": "",
          "type": "bytes32"
        }
      ],
      "stateMutability": "view",
      "type": "function"
    },
    {
      "inputs": [
        {
          "internalType": "address",
          "name": "operator",
          "type": "address"
        },
        {
          "internalType": "uint256",
          "name": "id",
          "type": "uint256"
        }
      ],
      "name": "approve",
      "outputs": [],
      "stateMutability": "nonpayable",
      "type": "function"
    },
    {
      "inputs": [
        {
          "internalType": "address",
          "name": "owner",
          "type": "address"
        }
      ],
      "name": "balanceOf",
      "outputs": [
        {
          "internalType": "uint256",
          "name": "balance",
          "type": "uint256"
        }
      ],
      "stateMutability": "view",
      "type": "function"
    },
    {
      "inputs": [],
      "name": "contractURI",
      "outputs": [
        {
          "internalType": "string",
          "name": "",
          "type": "string"
        }
      ],
      "stateMutability": "view",
      "type": "function"
    },
    {
      "inputs": [
        {
          "internalType": "uint256",
          "name": "id",
          "type": "uint256"
        }
      ],
      "name": "getApproved",
      "outputs": [
        {
          "internalType": "address",
          "name": "",
          "type": "address"
        }
      ],
      "stateMutability": "view",
      "type": "function"
    },
    {
      "inputs": [
        {
          "internalType": "address",
          "name": "owner",
          "type": "address"
        },
        {
          "internalType": "address",
          "name": "operator",
          "type": "address"
        }
      ],
      "name": "isApprovedForAll",
      "outputs": [
        {
          "internalType": "bool",
          "name": "isOperator",
          "type": "bool"
        }
      ],
      "stateMutability": "view",
      "type": "function"
    },
    {
      "inputs": [],
      "name": "maintainer",
      "outputs": [
        {
          "internalType": "address",
          "name": "",
          "type": "address"
        }
      ],
      "stateMutability": "view",
      "type": "function"
    },
    {
      "inputs": [
        {
          "internalType": "uint16",
          "name": "id",
          "type": "uint16"
        },
        {
          "internalType": "address",
          "name": "to",
          "type": "address"
        }
      ],
      "name": "mint",
      "outputs": [],
      "stateMutability": "payable",
      "type": "function"
    },
    {
      "inputs": [],
      "name": "minter",
      "outputs": [
        {
          "internalType": "address",
          "name": "",
          "type": "address"
        }
      ],
      "stateMutability": "view",
      "type": "function"
    },
    {
      "inputs": [],
      "name": "minterAdmin",
      "outputs": [
        {
          "internalType": "address",
          "name": "",
          "type": "address"
        }
      ],
      "stateMutability": "view",
      "type": "function"
    },
    {
      "inputs": [],
      "name": "name",
      "outputs": [
        {
          "internalType": "string",
          "name": "",
          "type": "string"
        }
      ],
      "stateMutability": "pure",
      "type": "function"
    },
    {
      "inputs": [
        {
          "internalType": "address",
          "name": "owner",
          "type": "address"
        },
        {
          "internalType": "uint128",
          "name": "batch",
          "type": "uint128"
        }
      ],
      "name": "nonces",
      "outputs": [
        {
          "internalType": "uint256",
          "name": "nonce",
          "type": "uint256"
        }
      ],
      "stateMutability": "view",
      "type": "function"
    },
    {
      "inputs": [
        {
          "internalType": "uint256[]",
          "name": "ids",
          "type": "uint256[]"
        }
      ],
      "name": "ownerAndLastTransferBlockNumberList",
      "outputs": [
        {
          "components": [
            {
              "internalType": "address",
              "name": "owner",
              "type": "address"
            },
            {
              "internalType": "uint256",
              "name": "lastTransferBlockNumber",
              "type": "uint256"
            }
          ],
          "internalType": "struct ERC721Base.OwnerData[]",
          "name": "ownersData",
          "type": "tuple[]"
        }
      ],
      "stateMutability": "view",
      "type": "function"
    },
    {
      "inputs": [
        {
          "internalType": "uint256",
          "name": "id",
          "type": "uint256"
        }
      ],
      "name": "ownerOf",
      "outputs": [
        {
          "internalType": "address",
          "name": "owner",
          "type": "address"
        }
      ],
      "stateMutability": "view",
      "type": "function"
    },
    {
      "inputs": [
        {
          "internalType": "uint256[]",
          "name": "ids",
          "type": "uint256[]"
        }
      ],
      "name": "owners",
      "outputs": [
        {
          "internalType": "address[]",
          "name": "addresses",
          "type": "address[]"
        }
      ],
      "stateMutability": "view",
      "type": "function"
    },
    {
      "inputs": [
        {
          "internalType": "address",
          "name": "signer",
          "type": "address"
        },
        {
          "internalType": "address",
          "name": "spender",
          "type": "address"
        },
        {
          "internalType": "uint256",
          "name": "id",
          "type": "uint256"
        },
        {
          "internalType": "uint256",
          "name": "deadline",
          "type": "uint256"
        },
        {
          "internalType": "uint256",
          "name": "nonce",
          "type": "uint256"
        },
        {
          "internalType": "bytes",
          "name": "signature",
          "type": "bytes"
        },
        {
          "internalType": "enum ERC721BaseWithPermit.SignatureType",
          "name": "signatureType",
          "type": "uint8"
        }
      ],
      "name": "permit",
      "outputs": [],
      "stateMutability": "nonpayable",
      "type": "function"
    },
    {
      "inputs": [
        {
          "internalType": "address",
          "name": "signer",
          "type": "address"
        },
        {
          "internalType": "address",
          "name": "spender",
          "type": "address"
        },
        {
          "internalType": "uint256",
          "name": "deadline",
          "type": "uint256"
        },
        {
          "internalType": "uint256",
          "name": "nonce",
          "type": "uint256"
        },
        {
          "internalType": "bytes",
          "name": "signature",
          "type": "bytes"
        },
        {
          "internalType": "enum ERC721BaseWithPermit.SignatureType",
          "name": "signatureType",
          "type": "uint8"
        }
      ],
      "name": "permitForAll",
      "outputs": [],
      "stateMutability": "nonpayable",
      "type": "function"
    },
    {
      "inputs": [
        {
          "internalType": "address",
          "name": "from",
          "type": "address"
        },
        {
          "internalType": "address",
          "name": "to",
          "type": "address"
        },
        {
          "internalType": "uint256",
          "name": "id",
          "type": "uint256"
        }
      ],
      "name": "safeTransferFrom",
      "outputs": [],
      "stateMutability": "nonpayable",
      "type": "function"
    },
    {
      "inputs": [
        {
          "internalType": "address",
          "name": "from",
          "type": "address"
        },
        {
          "internalType": "address",
          "name": "to",
          "type": "address"
        },
        {
          "internalType": "uint256",
          "name": "id",
          "type": "uint256"
        },
        {
          "internalType": "bytes",
          "name": "data",
          "type": "bytes"
        }
      ],
      "name": "safeTransferFrom",
      "outputs": [],
      "stateMutability": "nonpayable",
      "type": "function"
    },
    {
      "inputs": [
        {
          "internalType": "address",
          "name": "operator",
          "type": "address"
        },
        {
          "internalType": "bool",
          "name": "approved",
          "type": "bool"
        }
      ],
      "name": "setApprovalForAll",
      "outputs": [],
      "stateMutability": "nonpayable",
      "type": "function"
    },
    {
      "inputs": [
        {
          "internalType": "address",
          "name": "newMaintainer",
          "type": "address"
        }
      ],
      "name": "setMaintainer",
      "outputs": [],
      "stateMutability": "nonpayable",
      "type": "function"
    },
    {
      "inputs": [
        {
          "internalType": "address",
          "name": "newMinter",
          "type": "address"
        }
      ],
      "name": "setMinter",
      "outputs": [],
      "stateMutability": "nonpayable",
      "type": "function"
    },
    {
      "inputs": [
        {
          "internalType": "address",
          "name": "newMinterAdmin",
          "type": "address"
        }
      ],
      "name": "setMinterAdmin",
      "outputs": [],
      "stateMutability": "nonpayable",
      "type": "function"
    },
    {
      "inputs": [
        {
          "internalType": "contract ITokenURI",
          "name": "newTokenURIContract",
          "type": "address"
        }
      ],
      "name": "setTokenURIContract",
      "outputs": [],
      "stateMutability": "nonpayable",
      "type": "function"
    },
    {
      "inputs": [
        {
          "internalType": "uint256",
          "name": "id",
          "type": "uint256"
        }
      ],
      "name": "sound",
      "outputs": [
        {
          "internalType": "uint8",
          "name": "note",
          "type": "uint8"
        },
        {
          "internalType": "uint8",
          "name": "instrument",
          "type": "uint8"
        }
      ],
      "stateMutability": "pure",
      "type": "function"
    },
    {
      "inputs": [
        {
          "internalType": "bytes4",
          "name": "id",
          "type": "bytes4"
        }
      ],
      "name": "supportsInterface",
      "outputs": [
        {
          "internalType": "bool",
          "name": "",
          "type": "bool"
        }
      ],
      "stateMutability": "pure",
      "type": "function"
    },
    {
      "inputs": [],
      "name": "symbol",
      "outputs": [
        {
          "internalType": "string",
          "name": "",
          "type": "string"
        }
      ],
      "stateMutability": "pure",
      "type": "function"
    },
    {
      "inputs": [
        {
          "internalType": "uint256",
          "name": "id",
          "type": "uint256"
        }
      ],
      "name": "tokenURI",
      "outputs": [
        {
          "internalType": "string",
          "name": "",
          "type": "string"
        }
      ],
      "stateMutability": "view",
      "type": "function"
    },
    {
      "inputs": [],
      "name": "tokenURIContract",
      "outputs": [
        {
          "internalType": "contract ITokenURI",
          "name": "",
          "type": "address"
        }
      ],
      "stateMutability": "view",
      "type": "function"
    },
    {
      "inputs": [
        {
          "internalType": "address",
          "name": "from",
          "type": "address"
        },
        {
          "internalType": "address",
          "name": "to",
          "type": "address"
        },
        {
          "internalType": "uint256",
          "name": "id",
          "type": "uint256"
        }
      ],
      "name": "transferFrom",
      "outputs": [],
      "stateMutability": "nonpayable",
      "type": "function"
    }
  ],
  "transactionHash": "0x9add21e5caba24f953498a8a4154fa224365ca823a5b32120ed16d74e79345a4",
  "args": [
    "0xE53cd71271AcAdbeb0f64d9c8C62bBdDc8cA9e66",
    "0xE53cd71271AcAdbeb0f64d9c8C62bBdDc8cA9e66",
    "0x0a8AA90EB45695535910Edb803812901F9821B50"
  ],
  "solcInputHash": "453ac7c543cabb868498baff475e6c82",
  "bytecode": "0x60c06040523480156200001157600080fd5b5060405162003cf138038062003cf18339810160408190526200003491620001df565b466080819052620000458162000138565b60a05250600580546001600160a01b038581166001600160a01b031992831617909255600680548584169083161790556008805492841692909116821790556040519081527f6bf5b09f847c9c9e97addeaf1ea9d5fd44ff6ae2c9c4aaf55fb476eca421a45d9060200160405180910390a16040516001600160a01b03841681527f0f10c1d0da464c1238d07effa37ea79a31fff7393da1bf0a720107001f6700b89060200160405180910390a16040516001600160a01b03831681527fb8e0165b6664b7af8f9563c66e3d6b987c2d06fe192539d7123a0777b41a7c899060200160405180910390a150505062000233565b60007f8cad95687ba82c2ce50e74f7b754645e5117c3a5bec8151c0726d5857980a8666200017f604080518082019091526006815265426c6565707360d01b602082015290565b80516020918201206040805192830193909352918101919091526060810183905230608082015260a001604051602081830303815290604052805190602001209050919050565b6001600160a01b0381168114620001dc57600080fd5b50565b600080600060608486031215620001f557600080fd5b83516200020281620001c6565b60208501519093506200021581620001c6565b60408501519092506200022881620001c6565b809150509250925092565b60805160a051613a986200025960003960006124b10152600061247c0152613a986000f3fe6080604052600436106101fe5760003560e01c806370a082311161011d578063a22cb465116100b0578063e8a3d4851161007f578063f394528211610064578063f394528214610718578063fca3b5aa14610745578063fdb3b6e81461076557600080fd5b8063e8a3d485146106ad578063e985e9c5146106c257600080fd5b8063a22cb46514610620578063a754d48f14610640578063b88d4fde1461066d578063c87b56dd1461068d57600080fd5b80639850d32b116100ec5780639850d32b1461059357806399235f39146105c05780639c205513146105e0578063a0554c26146105f357600080fd5b806370a08231146104ed57806382fc31471461050d578063836381cb1461052d57806395d89b411461054d57600080fd5b806323b872dd1161019557806342842e0e1161016457806342842e0e1461044c578063585956d61461046c5780636352211e146104a0578063698f87be146104c057600080fd5b806323b872dd1461039d5780632954dbfa146103bd57806330adf81f146104035780633644e5151461043757600080fd5b8063095ea7b3116101d1578063095ea7b3146102f957806313ea5d291461031b57806313f663591461033b57806320606b701461036957600080fd5b806301ffc9a71461020357806306fdde03146102385780630754617214610287578063081812fc146102d9575b600080fd5b34801561020f57600080fd5b5061022361021e366004613155565b610785565b60405190151581526020015b60405180910390f35b34801561024457600080fd5b5060408051808201909152600681527f426c65657073000000000000000000000000000000000000000000000000000060208201525b60405161022f91906131e8565b34801561029357600080fd5b506007546102b49073ffffffffffffffffffffffffffffffffffffffff1681565b60405173ffffffffffffffffffffffffffffffffffffffff909116815260200161022f565b3480156102e557600080fd5b506102b46102f43660046131fb565b61086a565b34801561030557600080fd5b50610319610314366004613236565b61095b565b005b34801561032757600080fd5b50610319610336366004613262565b610ac5565b34801561034757600080fd5b5061035b61035636600461327f565b610bc0565b60405190815260200161022f565b34801561037557600080fd5b5061035b7f8cad95687ba82c2ce50e74f7b754645e5117c3a5bec8151c0726d5857980a86681565b3480156103a957600080fd5b506103196103b83660046132cd565b610c15565b3480156103c957600080fd5b506103e96103d83660046131fb565b603f81169160069190911c600f1690565b6040805160ff93841681529290911660208301520161022f565b34801561040f57600080fd5b5061035b7f49ecf333e5b8c95c40fdafc95c1ad136e8914a8fb55e9dc8bb01eaa83a2df9ad81565b34801561044357600080fd5b5061035b610f57565b34801561045857600080fd5b506103196104673660046132cd565b610f66565b34801561047857600080fd5b5061035b7f29795620f29ed5790c945e3f419a1b3e2381aa07751ccffe5b81231639d74cd581565b3480156104ac57600080fd5b506102b46104bb3660046131fb565b610f86565b3480156104cc57600080fd5b506008546102b49073ffffffffffffffffffffffffffffffffffffffff1681565b3480156104f957600080fd5b5061035b610508366004613262565b611017565b34801561051957600080fd5b50610319610528366004613262565b6110bf565b34801561053957600080fd5b5061031961054836600461335f565b6111b3565b34801561055957600080fd5b5060408051808201909152600581527f424c454550000000000000000000000000000000000000000000000000000000602082015261027a565b34801561059f57600080fd5b506005546102b49073ffffffffffffffffffffffffffffffffffffffff1681565b3480156105cc57600080fd5b506103196105db366004613262565b61150b565b6103196105ee3660046133f5565b6115ff565b3480156105ff57600080fd5b5061061361060e36600461342a565b61189e565b60405161022f919061349f565b34801561062c57600080fd5b5061031961063b3660046134f9565b611971565b34801561064c57600080fd5b506006546102b49073ffffffffffffffffffffffffffffffffffffffff1681565b34801561067957600080fd5b506103196106883660046135f0565b611980565b34801561069957600080fd5b5061027a6106a83660046131fb565b611cc5565b3480156106b957600080fd5b5061027a611d8a565b3480156106ce57600080fd5b506102236106dd36600461369f565b73ffffffffffffffffffffffffffffffffffffffff918216600090815260026020908152604080832093909416825291909152205460ff1690565b34801561072457600080fd5b5061073861073336600461342a565b611e4f565b60405161022f91906136bd565b34801561075157600080fd5b50610319610760366004613262565b611f82565b34801561077157600080fd5b50610319610780366004613722565b612076565b60007f01ffc9a7000000000000000000000000000000000000000000000000000000007fffffffff000000000000000000000000000000000000000000000000000000008316148061081857507f80ac58cd000000000000000000000000000000000000000000000000000000007fffffffff000000000000000000000000000000000000000000000000000000008316145b8061086457507f5b5e139f000000000000000000000000000000000000000000000000000000007fffffffff000000000000000000000000000000000000000000000000000000008316145b92915050565b6000818152602081905260408120547f80000000000000000000000000000000000000000000000000000000000000008082161473ffffffffffffffffffffffffffffffffffffffff8216610920576040517f08c379a000000000000000000000000000000000000000000000000000000000815260206004820152601160248201527f4e4f4e4558495354454e545f544f4b454e00000000000000000000000000000060448201526064015b60405180910390fd5b80156109515750505060009081526003602052604090205473ffffffffffffffffffffffffffffffffffffffff1690565b5060009392505050565b6000818152602081905260409020546affffffffffffffffffffff60a082901c1673ffffffffffffffffffffffffffffffffffffffff82166109f9576040517f08c379a000000000000000000000000000000000000000000000000000000000815260206004820152601160248201527f4e4f4e4558495354454e545f544f4b454e0000000000000000000000000000006044820152606401610917565b3373ffffffffffffffffffffffffffffffffffffffff83161480610a4d575073ffffffffffffffffffffffffffffffffffffffff8216600090815260026020908152604080832033845290915290205460ff165b610ab3576040517f08c379a000000000000000000000000000000000000000000000000000000000815260206004820152601560248201527f554e415554484f52495a45445f415050524f56414c00000000000000000000006044820152606401610917565b610abf8282868661225a565b50505050565b60055473ffffffffffffffffffffffffffffffffffffffff163314610b46576040517f08c379a000000000000000000000000000000000000000000000000000000000815260206004820152600e60248201527f4e4f545f415554484f52495a45440000000000000000000000000000000000006044820152606401610917565b600580547fffffffffffffffffffffffff00000000000000000000000000000000000000001673ffffffffffffffffffffffffffffffffffffffff83169081179091556040519081527f0f10c1d0da464c1238d07effa37ea79a31fff7393da1bf0a720107001f6700b8906020015b60405180910390a150565b73ffffffffffffffffffffffffffffffffffffffff821660009081526004602090815260408083206fffffffffffffffffffffffffffffffff80861685529252822054610c0e9116826137de565b9392505050565b6000818152602081905260409020547f80000000000000000000000000000000000000000000000000000000000000008082161473ffffffffffffffffffffffffffffffffffffffff8216610cc6576040517f08c379a000000000000000000000000000000000000000000000000000000000815260206004820152601160248201527f4e4f4e4558495354454e545f544f4b454e0000000000000000000000000000006044820152606401610917565b8473ffffffffffffffffffffffffffffffffffffffff168273ffffffffffffffffffffffffffffffffffffffff1614610d5b576040517f08c379a000000000000000000000000000000000000000000000000000000000815260206004820152600960248201527f4e4f545f4f574e455200000000000000000000000000000000000000000000006044820152606401610917565b73ffffffffffffffffffffffffffffffffffffffff8416610dd8576040517f08c379a000000000000000000000000000000000000000000000000000000000815260206004820152601260248201527f4e4f545f544f5f5a45524f4144445245535300000000000000000000000000006044820152606401610917565b73ffffffffffffffffffffffffffffffffffffffff8416301415610e58576040517f08c379a000000000000000000000000000000000000000000000000000000000815260206004820152600b60248201527f4e4f545f544f5f544849530000000000000000000000000000000000000000006044820152606401610917565b3373ffffffffffffffffffffffffffffffffffffffff861614610f455773ffffffffffffffffffffffffffffffffffffffff8516600090815260026020908152604080832033845290915290205460ff1680610edf5750808015610edf575060008381526003602052604090205473ffffffffffffffffffffffffffffffffffffffff1633145b610f45576040517f08c379a000000000000000000000000000000000000000000000000000000000815260206004820152601560248201527f554e415554484f52495a45445f5452414e5346455200000000000000000000006044820152606401610917565b610f50858585612393565b5050505050565b6000610f61612477565b905090565b610f8183838360405180602001604052806000815250611980565b505050565b60008181526020819052604090205473ffffffffffffffffffffffffffffffffffffffff8116611012576040517f08c379a000000000000000000000000000000000000000000000000000000000815260206004820152601160248201527f4e4f4e4558495354454e545f544f4b454e0000000000000000000000000000006044820152606401610917565b919050565b600073ffffffffffffffffffffffffffffffffffffffff8216611096576040517f08c379a000000000000000000000000000000000000000000000000000000000815260206004820152601260248201527f5a45524f5f414444524553535f4f574e455200000000000000000000000000006044820152606401610917565b5073ffffffffffffffffffffffffffffffffffffffff1660009081526001602052604090205490565b60055473ffffffffffffffffffffffffffffffffffffffff163314611140576040517f08c379a000000000000000000000000000000000000000000000000000000000815260206004820152600e60248201527f4e4f545f415554484f52495a45440000000000000000000000000000000000006044820152606401610917565b600880547fffffffffffffffffffffffff00000000000000000000000000000000000000001673ffffffffffffffffffffffffffffffffffffffff83169081179091556040519081527f6bf5b09f847c9c9e97addeaf1ea9d5fd44ff6ae2c9c4aaf55fb476eca421a45d90602001610bb5565b4285101561121d576040517f08c379a000000000000000000000000000000000000000000000000000000000815260206004820152601760248201527f5045524d49545f444541444c494e455f455850495245440000000000000000006044820152606401610917565b6000868152602081905260409020546affffffffffffffffffffff60a082901c1673ffffffffffffffffffffffffffffffffffffffff82166112bb576040517f08c379a000000000000000000000000000000000000000000000000000000000815260206004820152601160248201527f4e4f4e4558495354454e545f544f4b454e0000000000000000000000000000006044820152606401610917565b8173ffffffffffffffffffffffffffffffffffffffff168a73ffffffffffffffffffffffffffffffffffffffff161480611327575073ffffffffffffffffffffffffffffffffffffffff8083166000908152600260209081526040808320938e168352929052205460ff165b61138d576040517f08c379a000000000000000000000000000000000000000000000000000000000815260206004820152601360248201527f554e415554484f52495a45445f5349474e4552000000000000000000000000006044820152606401610917565b61139d8a8a8a8a8a8a8a8a6124d7565b608086901c60006113bf700100000000000000000000000000000000896137f6565b73ffffffffffffffffffffffffffffffffffffffff8d1660009081526004602090815260408083206fffffffffffffffffffffffffffffffff80881685529252909120549192509081169082168114611474576040517f08c379a000000000000000000000000000000000000000000000000000000000815260206004820152600d60248201527f494e56414c49445f4e4f4e4345000000000000000000000000000000000000006044820152606401610917565b61147f816001613831565b73ffffffffffffffffffffffffffffffffffffffff8e1660009081526004602090815260408083206fffffffffffffffffffffffffffffffff8881168552925290912080547fffffffffffffffffffffffffffffffff0000000000000000000000000000000016929091169190911790556114fc85858e8e61225a565b50505050505050505050505050565b60065473ffffffffffffffffffffffffffffffffffffffff16331461158c576040517f08c379a000000000000000000000000000000000000000000000000000000000815260206004820152600e60248201527f4e4f545f415554484f52495a45440000000000000000000000000000000000006044820152606401610917565b600680547fffffffffffffffffffffffff00000000000000000000000000000000000000001673ffffffffffffffffffffffffffffffffffffffff83169081179091556040519081527fb8e0165b6664b7af8f9563c66e3d6b987c2d06fe192539d7123a0777b41a7c8990602001610bb5565b60075473ffffffffffffffffffffffffffffffffffffffff163314611680576040517f08c379a000000000000000000000000000000000000000000000000000000000815260206004820152601360248201527f4f4e4c595f4d494e5445525f414c4c4f574544000000000000000000000000006044820152606401610917565b6104008261ffff16106116ef576040517f08c379a000000000000000000000000000000000000000000000000000000000815260206004820152600d60248201527f494e56414c49445f534f554e44000000000000000000000000000000000000006044820152606401610917565b73ffffffffffffffffffffffffffffffffffffffff811661176c576040517f08c379a000000000000000000000000000000000000000000000000000000000815260206004820152601260248201527f4e4f545f544f5f5a45524f4144445245535300000000000000000000000000006044820152606401610917565b73ffffffffffffffffffffffffffffffffffffffff81163014156117ec576040517f08c379a000000000000000000000000000000000000000000000000000000000815260206004820152600b60248201527f4e4f545f544f5f544849530000000000000000000000000000000000000000006044820152606401610917565b61ffff821660009081526020819052604090205473ffffffffffffffffffffffffffffffffffffffff81161561187e576040517f08c379a000000000000000000000000000000000000000000000000000000000815260206004820152600f60248201527f414c52454144595f4352454154454400000000000000000000000000000000006044820152606401610917565b610f816000838561ffff16604051806020016040528060008152506125c3565b60608167ffffffffffffffff8111156118b9576118b961352c565b6040519080825280602002602001820160405280156118e2578160200160208202803683370190505b50905060005b8281101561196a57600084848381811061190457611904613865565b9050602002013590506000808281526020019081526020016000205483838151811061193257611932613865565b73ffffffffffffffffffffffffffffffffffffffff90921660209283029190910190910152508061196281613894565b9150506118e8565b5092915050565b61197c33838361265e565b5050565b6000828152602081905260409020547f80000000000000000000000000000000000000000000000000000000000000008082161473ffffffffffffffffffffffffffffffffffffffff8216611a31576040517f08c379a000000000000000000000000000000000000000000000000000000000815260206004820152601160248201527f4e4f4e4558495354454e545f544f4b454e0000000000000000000000000000006044820152606401610917565b8573ffffffffffffffffffffffffffffffffffffffff168273ffffffffffffffffffffffffffffffffffffffff1614611ac6576040517f08c379a000000000000000000000000000000000000000000000000000000000815260206004820152600960248201527f4e4f545f4f574e455200000000000000000000000000000000000000000000006044820152606401610917565b73ffffffffffffffffffffffffffffffffffffffff8516611b43576040517f08c379a000000000000000000000000000000000000000000000000000000000815260206004820152601260248201527f4e4f545f544f5f5a45524f4144445245535300000000000000000000000000006044820152606401610917565b73ffffffffffffffffffffffffffffffffffffffff8516301415611bc3576040517f08c379a000000000000000000000000000000000000000000000000000000000815260206004820152600b60248201527f4e4f545f544f5f544849530000000000000000000000000000000000000000006044820152606401610917565b3373ffffffffffffffffffffffffffffffffffffffff871614611cb157808015611c10575060008481526003602052604090205473ffffffffffffffffffffffffffffffffffffffff1633145b80611c4b575073ffffffffffffffffffffffffffffffffffffffff8616600090815260026020908152604080832033845290915290205460ff165b611cb1576040517f08c379a000000000000000000000000000000000000000000000000000000000815260206004820152601560248201527f554e415554484f52495a45445f5452414e5346455200000000000000000000006044820152606401610917565b611cbd868686866125c3565b505050505050565b6008546040517fc87b56dd0000000000000000000000000000000000000000000000000000000081526004810183905260609173ffffffffffffffffffffffffffffffffffffffff169063c87b56dd9060240160006040518083038186803b158015611d3057600080fd5b505afa158015611d44573d6000803e3d6000fd5b505050506040513d6000823e601f3d9081017fffffffffffffffffffffffffffffffffffffffffffffffffffffffffffffffe016820160405261086491908101906138cd565b600854604080517fe8a3d485000000000000000000000000000000000000000000000000000000008152905160609273ffffffffffffffffffffffffffffffffffffffff169163e8a3d485916004808301926000929190829003018186803b158015611df557600080fd5b505afa158015611e09573d6000803e3d6000fd5b505050506040513d6000823e601f3d9081017fffffffffffffffffffffffffffffffffffffffffffffffffffffffffffffffe0168201604052610f6191908101906138cd565b60608167ffffffffffffffff811115611e6a57611e6a61352c565b604051908082528060200260200182016040528015611eaf57816020015b6040805180820190915260008082526020820152815260200190600190039081611e885790505b50905060005b8281101561196a576000806000868685818110611ed457611ed4613865565b90506020020135815260200190815260200160002054905080838381518110611eff57611eff613865565b60200260200101516000019073ffffffffffffffffffffffffffffffffffffffff16908173ffffffffffffffffffffffffffffffffffffffff168152505060a081901c6affffffffffffffffffffff16838381518110611f6157611f61613865565b60209081029190910181015101525080611f7a81613894565b915050611eb5565b60065473ffffffffffffffffffffffffffffffffffffffff163314612003576040517f08c379a000000000000000000000000000000000000000000000000000000000815260206004820152600e60248201527f4e4f545f415554484f52495a45440000000000000000000000000000000000006044820152606401610917565b600780547fffffffffffffffffffffffff00000000000000000000000000000000000000001673ffffffffffffffffffffffffffffffffffffffff83169081179091556040519081527f726b590ef91a8c76ad05bbe91a57ef84605276528f49cd47d787f558a4e755b690602001610bb5565b428510156120e0576040517f08c379a000000000000000000000000000000000000000000000000000000000815260206004820152601760248201527f5045524d49545f444541444c494e455f455850495245440000000000000000006044820152606401610917565b6120ef878787878787876126f6565b608084901c6000612111700100000000000000000000000000000000876137f6565b73ffffffffffffffffffffffffffffffffffffffff8a1660009081526004602090815260408083206fffffffffffffffffffffffffffffffff808816855292529091205491925090811690821681146121c6576040517f08c379a000000000000000000000000000000000000000000000000000000000815260206004820152600d60248201527f494e56414c49445f4e4f4e4345000000000000000000000000000000000000006044820152606401610917565b6121d1816001613831565b73ffffffffffffffffffffffffffffffffffffffff8b1660009081526004602090815260408083206fffffffffffffffffffffffffffffffff8881168552925290912080547fffffffffffffffffffffffffffffffff00000000000000000000000000000000169290911691909117905561224e8a8a600161265e565b50505050505050505050565b73ffffffffffffffffffffffffffffffffffffffff82166122a757600081815260208190526040902060a084901b73ffffffffffffffffffffffffffffffffffffffff8616179055612332565b6000818152602081815260408083207f800000000000000000000000000000000000000000000000000000000000000073ffffffffffffffffffffffffffffffffffffffff89811660a08a901b1791909117909155600390925290912080547fffffffffffffffffffffffff0000000000000000000000000000000000000000169184169190911790555b808273ffffffffffffffffffffffffffffffffffffffff168573ffffffffffffffffffffffffffffffffffffffff167f8c5be1e5ebec7d5bd14f71427d1e84f3dd0314c0f7b2291e5b200ac8c7c3b92560405160405180910390a450505050565b73ffffffffffffffffffffffffffffffffffffffff8083166000908152600160208190526040909120805490910190558316156124165773ffffffffffffffffffffffffffffffffffffffff8316600090815260016020526040902080547fffffffffffffffffffffffffffffffffffffffffffffffffffffffffffffffff0190555b6000818152602081905260408082204360a01b73ffffffffffffffffffffffffffffffffffffffff80871691821790925591518493918716917fddf252ad1be2c89b69c2b068fc378daa952ba7f163c4a11628f55a4df523b3ef91a4505050565b6000467f000000000000000000000000000000000000000000000000000000000000000081146124af576124aa816127cf565b6124d1565b7f00000000000000000000000000000000000000000000000000000000000000005b91505090565b60006124e1612477565b604080517f49ecf333e5b8c95c40fdafc95c1ad136e8914a8fb55e9dc8bb01eaa83a2df9ad602082015273ffffffffffffffffffffffffffffffffffffffff8b1691810191909152606081018990526080810187905260a0810188905260c001604051602081830303815290604052805190602001206040516020016125999291907f190100000000000000000000000000000000000000000000000000000000000081526002810192909252602282015260420190565b60405160208183030381529060405290506125b78982868686612873565b505b5050505050505050565b6125ce848484612393565b73ffffffffffffffffffffffffffffffffffffffff83163b15610abf576125f83385858585612bf3565b610abf576040517f08c379a000000000000000000000000000000000000000000000000000000000815260206004820152601860248201527f4552433732315f5452414e534645525f52454a454354454400000000000000006044820152606401610917565b73ffffffffffffffffffffffffffffffffffffffff83811660008181526002602090815260408083209487168084529482529182902080547fffffffffffffffffffffffffffffffffffffffffffffffffffffffffffffff001686151590811790915591519182527f17307eab39ab6107e8899845ad3d59bd9653f200f220920489ca2b5937696c31910160405180910390a3505050565b6000612700612477565b604080517f29795620f29ed5790c945e3f419a1b3e2381aa07751ccffe5b81231639d74cd5602082015273ffffffffffffffffffffffffffffffffffffffff8a1691810191909152606081018790526080810188905260a001604051602081830303815290604052805190602001206040516020016127b19291907f190100000000000000000000000000000000000000000000000000000000000081526002810192909252602282015260420190565b60405160208183030381529060405290506125b98882868686612873565b60007f8cad95687ba82c2ce50e74f7b754645e5117c3a5bec8151c0726d5857980a86661282c60408051808201909152600681527f426c656570730000000000000000000000000000000000000000000000000000602082015290565b80516020918201206040805192830193909352918101919091526060810183905230608082015260a001604051602081830303815290604052805190602001209050919050565b600281600281111561288757612887613944565b14156129c3576040517f20c13b0b000000000000000000000000000000000000000000000000000000008082529073ffffffffffffffffffffffffffffffffffffffff8716906320c13b0b906128e5908890889088906004016139bc565b60206040518083038186803b1580156128fd57600080fd5b505afa158015612911573d6000803e3d6000fd5b505050506040513d601f19601f8201168201806040525081019061293591906139ec565b7fffffffff0000000000000000000000000000000000000000000000000000000016146129be576040517f08c379a000000000000000000000000000000000000000000000000000000000815260206004820152601660248201527f5349474e41545552455f313237315f494e56414c4944000000000000000000006044820152606401610917565b610f50565b60018160028111156129d7576129d7613944565b1415612b1357835160208501206040517f1626ba7e000000000000000000000000000000000000000000000000000000008082529173ffffffffffffffffffffffffffffffffffffffff881691631626ba7e91612a3a9188908890600401613a09565b60206040518083038186803b158015612a5257600080fd5b505afa158015612a66573d6000803e3d6000fd5b505050506040513d601f19601f82011682018060405250810190612a8a91906139ec565b7fffffffff0000000000000000000000000000000000000000000000000000000016146129be576040517f08c379a000000000000000000000000000000000000000000000000000000000815260206004820152601660248201527f5349474e41545552455f313635345f494e56414c4944000000000000000000006044820152606401610917565b6000612b5c84848080601f01602080910402602001604051908101604052809392919081815260200183838082843760009201919091525050885160208a012092915050612cd7565b90508073ffffffffffffffffffffffffffffffffffffffff168673ffffffffffffffffffffffffffffffffffffffff1614611cbd576040517f08c379a000000000000000000000000000000000000000000000000000000000815260206004820152601660248201527f5349474e41545552455f57524f4e475f5349474e4552000000000000000000006044820152606401610917565b6000808473ffffffffffffffffffffffffffffffffffffffff1663150b7a02888887876040518563ffffffff1660e01b8152600401612c359493929190613a23565b602060405180830381600087803b158015612c4f57600080fd5b505af1158015612c63573d6000803e3d6000fd5b505050506040513d601f19601f82011682018060405250810190612c8791906139ec565b7fffffffff00000000000000000000000000000000000000000000000000000000167f150b7a02000000000000000000000000000000000000000000000000000000001491505095945050505050565b6000806000612ce68585612cfb565b91509150612cf381612d6b565b509392505050565b600080825160411415612d325760208301516040840151606085015160001a612d2687828585612fc7565b94509450505050612d64565b825160401415612d5c5760208301516040840151612d518683836130df565b935093505050612d64565b506000905060025b9250929050565b6000816004811115612d7f57612d7f613944565b1415612d885750565b6001816004811115612d9c57612d9c613944565b1415612e04576040517f08c379a000000000000000000000000000000000000000000000000000000000815260206004820152601860248201527f45434453413a20696e76616c6964207369676e617475726500000000000000006044820152606401610917565b6002816004811115612e1857612e18613944565b1415612e80576040517f08c379a000000000000000000000000000000000000000000000000000000000815260206004820152601f60248201527f45434453413a20696e76616c6964207369676e6174757265206c656e677468006044820152606401610917565b6003816004811115612e9457612e94613944565b1415612f22576040517f08c379a000000000000000000000000000000000000000000000000000000000815260206004820152602260248201527f45434453413a20696e76616c6964207369676e6174757265202773272076616c60448201527f75650000000000000000000000000000000000000000000000000000000000006064820152608401610917565b6004816004811115612f3657612f36613944565b1415612fc4576040517f08c379a000000000000000000000000000000000000000000000000000000000815260206004820152602260248201527f45434453413a20696e76616c6964207369676e6174757265202776272076616c60448201527f75650000000000000000000000000000000000000000000000000000000000006064820152608401610917565b50565b6000807f7fffffffffffffffffffffffffffffff5d576e7357a4501ddfe92f46681b20a0831115612ffe57506000905060036130d6565b8460ff16601b1415801561301657508460ff16601c14155b1561302757506000905060046130d6565b6040805160008082526020820180845289905260ff881692820192909252606081018690526080810185905260019060a0016020604051602081039080840390855afa15801561307b573d6000803e3d6000fd5b50506040517fffffffffffffffffffffffffffffffffffffffffffffffffffffffffffffffe0015191505073ffffffffffffffffffffffffffffffffffffffff81166130cf576000600192509250506130d6565b9150600090505b94509492505050565b6000807f7fffffffffffffffffffffffffffffffffffffffffffffffffffffffffffffff831660ff84901c601b0161311987828885612fc7565b935093505050935093915050565b7fffffffff0000000000000000000000000000000000000000000000000000000081168114612fc457600080fd5b60006020828403121561316757600080fd5b8135610c0e81613127565b60005b8381101561318d578181015183820152602001613175565b83811115610abf5750506000910152565b600081518084526131b6816020860160208601613172565b601f017fffffffffffffffffffffffffffffffffffffffffffffffffffffffffffffffe0169290920160200192915050565b602081526000610c0e602083018461319e565b60006020828403121561320d57600080fd5b5035919050565b73ffffffffffffffffffffffffffffffffffffffff81168114612fc457600080fd5b6000806040838503121561324957600080fd5b823561325481613214565b946020939093013593505050565b60006020828403121561327457600080fd5b8135610c0e81613214565b6000806040838503121561329257600080fd5b823561329d81613214565b915060208301356fffffffffffffffffffffffffffffffff811681146132c257600080fd5b809150509250929050565b6000806000606084860312156132e257600080fd5b83356132ed81613214565b925060208401356132fd81613214565b929592945050506040919091013590565b60008083601f84011261332057600080fd5b50813567ffffffffffffffff81111561333857600080fd5b602083019150836020828501011115612d6457600080fd5b80356003811061101257600080fd5b60008060008060008060008060e0898b03121561337b57600080fd5b883561338681613214565b9750602089013561339681613214565b965060408901359550606089013594506080890135935060a089013567ffffffffffffffff8111156133c757600080fd5b6133d38b828c0161330e565b90945092506133e6905060c08a01613350565b90509295985092959890939650565b6000806040838503121561340857600080fd5b823561ffff8116811461341a57600080fd5b915060208301356132c281613214565b6000806020838503121561343d57600080fd5b823567ffffffffffffffff8082111561345557600080fd5b818501915085601f83011261346957600080fd5b81358181111561347857600080fd5b8660208260051b850101111561348d57600080fd5b60209290920196919550909350505050565b6020808252825182820181905260009190848201906040850190845b818110156134ed57835173ffffffffffffffffffffffffffffffffffffffff16835292840192918401916001016134bb565b50909695505050505050565b6000806040838503121561350c57600080fd5b823561351781613214565b9150602083013580151581146132c257600080fd5b7f4e487b7100000000000000000000000000000000000000000000000000000000600052604160045260246000fd5b604051601f82017fffffffffffffffffffffffffffffffffffffffffffffffffffffffffffffffe016810167ffffffffffffffff811182821017156135a2576135a261352c565b604052919050565b600067ffffffffffffffff8211156135c4576135c461352c565b50601f017fffffffffffffffffffffffffffffffffffffffffffffffffffffffffffffffe01660200190565b6000806000806080858703121561360657600080fd5b843561361181613214565b9350602085013561362181613214565b925060408501359150606085013567ffffffffffffffff81111561364457600080fd5b8501601f8101871361365557600080fd5b8035613668613663826135aa565b61355b565b81815288602083850101111561367d57600080fd5b8160208401602083013760006020838301015280935050505092959194509250565b600080604083850312156136b257600080fd5b823561341a81613214565b602080825282518282018190526000919060409081850190868401855b82811015613715578151805173ffffffffffffffffffffffffffffffffffffffff1685528601518685015292840192908501906001016136da565b5091979650505050505050565b600080600080600080600060c0888a03121561373d57600080fd5b873561374881613214565b9650602088013561375881613214565b95506040880135945060608801359350608088013567ffffffffffffffff81111561378257600080fd5b61378e8a828b0161330e565b90945092506137a1905060a08901613350565b905092959891949750929550565b7f4e487b7100000000000000000000000000000000000000000000000000000000600052601160045260246000fd5b600082198211156137f1576137f16137af565b500190565b60008261382c577f4e487b7100000000000000000000000000000000000000000000000000000000600052601260045260246000fd5b500690565b60006fffffffffffffffffffffffffffffffff80831681851680830382111561385c5761385c6137af565b01949350505050565b7f4e487b7100000000000000000000000000000000000000000000000000000000600052603260045260246000fd5b60007fffffffffffffffffffffffffffffffffffffffffffffffffffffffffffffffff8214156138c6576138c66137af565b5060010190565b6000602082840312156138df57600080fd5b815167ffffffffffffffff8111156138f657600080fd5b8201601f8101841361390757600080fd5b8051613915613663826135aa565b81815285602083850101111561392a57600080fd5b61393b826020830160208601613172565b95945050505050565b7f4e487b7100000000000000000000000000000000000000000000000000000000600052602160045260246000fd5b8183528181602085013750600060208284010152600060207fffffffffffffffffffffffffffffffffffffffffffffffffffffffffffffffe0601f840116840101905092915050565b6040815260006139cf604083018661319e565b82810360208401526139e2818587613973565b9695505050505050565b6000602082840312156139fe57600080fd5b8151610c0e81613127565b83815260406020820152600061393b604083018486613973565b600073ffffffffffffffffffffffffffffffffffffffff8087168352808616602084015250836040830152608060608301526139e2608083018461319e56fea2646970667358221220154f0169f0dca1557b5951b0ad8b85a775a48000ff4b58ffc2a8a4c9c745f54664736f6c63430008090033",
  "devdoc": {
    "kind": "dev",
    "methods": {
      "DOMAIN_SEPARATOR()": {
        "details": "Return the DOMAIN_SEPARATOR."
      },
      "approve(address,uint256)": {
        "params": {
          "id": "The id of the token.",
          "operator": "The address receiving the approval."
        }
      },
      "balanceOf(address)": {
        "params": {
          "owner": "The address to look for."
        },
        "returns": {
          "balance": "The number of tokens owned by the address."
        }
      },
      "getApproved(uint256)": {
        "params": {
          "id": "The id of the token."
        },
        "returns": {
          "_0": "The address of the operator."
        }
      },
      "isApprovedForAll(address,address)": {
        "params": {
          "operator": "The address of the operator.",
          "owner": "The address of the owner."
        },
        "returns": {
          "isOperator": "The status of the approval."
        }
      },
      "ownerOf(uint256)": {
        "params": {
          "id": "The id of the token."
        },
        "returns": {
          "owner": "The address of the token owner."
        }
      },
      "safeTransferFrom(address,address,uint256)": {
        "params": {
          "from": "The send of the token.",
          "id": "The id of the token.",
          "to": "The recipient of the token."
        }
      },
      "safeTransferFrom(address,address,uint256,bytes)": {
        "params": {
          "data": "Additional data.",
          "from": "The sender of the token.",
          "id": "The id of the token.",
          "to": "The recipient of the token."
        }
      },
      "setApprovalForAll(address,bool)": {
        "params": {
          "approved": "The determination of the approval.",
          "operator": "The address receiving the approval."
        }
      },
      "supportsInterface(bytes4)": {
        "params": {
          "id": "The id of the interface."
        },
        "returns": {
          "_0": "Whether the interface is supported."
        }
      },
      "transferFrom(address,address,uint256)": {
        "params": {
          "from": "The sender of the token.",
          "id": "The id of the token.",
          "to": "The recipient of the token."
        }
      }
    },
    "version": 1
  },
  "userdoc": {
    "kind": "user",
    "methods": {
      "approve(address,uint256)": {
        "notice": "Approve an operator to spend tokens on the senders behalf."
      },
      "balanceOf(address)": {
        "notice": "Get the number of tokens owned by an address."
      },
      "getApproved(uint256)": {
        "notice": "Get the approved operator for a specific token."
      },
      "isApprovedForAll(address,address)": {
        "notice": "Check if the sender approved the operator."
      },
      "maintainer()": {
        "notice": "maintainer can update the tokenURI contract, this is intended to be relinquished once the tokenURI has been heavily tested in the wild and that no modification are needed."
      },
      "minter()": {
        "notice": "address allowed to mint, allow the sale contract to be separated from the token contract that can focus on the core logic Once all 1024 potential bleeps (there could be less, at minimum there are 576 bleeps) are minted, no minter can mint anymore"
      },
      "minterAdmin()": {
        "notice": "minterAdmin can update the minter. At the time being there is 576 Bleeps but there is space for extra instrument and the upper limit is 1024. could be given to the DAO later so instrument can be added, the sale of these instrument sound could benenfit the DAO too and add new members."
      },
      "name()": {
        "notice": "A descriptive name for a collection of NFTs in this contract."
      },
      "ownerOf(uint256)": {
        "notice": "Get the owner of a token."
      },
      "safeTransferFrom(address,address,uint256)": {
        "notice": "Transfer a token between 2 addresses letting the receiver know of the transfer."
      },
      "safeTransferFrom(address,address,uint256,bytes)": {
        "notice": "Transfer a token between 2 addresses letting the receiver knows of the transfer."
      },
      "setApprovalForAll(address,bool)": {
        "notice": "Set the approval for an operator to manage all the tokens of the sender."
      },
      "supportsInterface(bytes4)": {
        "notice": "Check if the contract supports an interface. 0x01ffc9a7 is ERC165. 0x80ac58cd is ERC721 0x5b5e139f is for ERC721 metadata"
      },
      "symbol()": {
        "notice": "An abbreviated name for NFTs in this contract."
      },
      "tokenURI(uint256)": {
        "notice": "Returns the Uniform Resource Identifier (URI) for token `id`."
      },
      "tokenURIContract()": {
        "notice": "the contract that actually generate the sound (and all metadata via the a data: uri as tokenURI)"
      },
      "transferFrom(address,address,uint256)": {
        "notice": "Transfer a token between 2 addresses."
      }
    },
    "version": 1
  },
  "storageLayout": {
    "storage": [
      {
        "astId": 9571,
        "contract": "src/Bleeps.sol:Bleeps",
        "label": "_owners",
        "offset": 0,
        "slot": "0",
        "type": "t_mapping(t_uint256,t_uint256)"
      },
      {
        "astId": 9575,
        "contract": "src/Bleeps.sol:Bleeps",
        "label": "_balances",
        "offset": 0,
        "slot": "1",
        "type": "t_mapping(t_address,t_uint256)"
      },
      {
        "astId": 9581,
        "contract": "src/Bleeps.sol:Bleeps",
        "label": "_operatorsForAll",
        "offset": 0,
        "slot": "2",
        "type": "t_mapping(t_address,t_mapping(t_address,t_bool))"
      },
      {
        "astId": 9585,
        "contract": "src/Bleeps.sol:Bleeps",
        "label": "_operators",
        "offset": 0,
        "slot": "3",
        "type": "t_mapping(t_uint256,t_address)"
      },
      {
        "astId": 10475,
        "contract": "src/Bleeps.sol:Bleeps",
        "label": "_nonces",
        "offset": 0,
        "slot": "4",
        "type": "t_mapping(t_address,t_mapping(t_uint128,t_uint128))"
      },
      {
        "astId": 7441,
        "contract": "src/Bleeps.sol:Bleeps",
        "label": "maintainer",
        "offset": 0,
        "slot": "5",
        "type": "t_address"
      },
      {
        "astId": 7444,
        "contract": "src/Bleeps.sol:Bleeps",
        "label": "minterAdmin",
        "offset": 0,
        "slot": "6",
        "type": "t_address"
      },
      {
        "astId": 7447,
        "contract": "src/Bleeps.sol:Bleeps",
        "label": "minter",
        "offset": 0,
        "slot": "7",
        "type": "t_address"
      },
      {
        "astId": 7451,
        "contract": "src/Bleeps.sol:Bleeps",
        "label": "tokenURIContract",
        "offset": 0,
        "slot": "8",
        "type": "t_contract(ITokenURI)11715"
      }
    ],
    "types": {
      "t_address": {
        "encoding": "inplace",
        "label": "address",
        "numberOfBytes": "20"
      },
      "t_bool": {
        "encoding": "inplace",
        "label": "bool",
        "numberOfBytes": "1"
      },
      "t_contract(ITokenURI)11715": {
        "encoding": "inplace",
        "label": "contract ITokenURI",
        "numberOfBytes": "20"
      },
      "t_mapping(t_address,t_bool)": {
        "encoding": "mapping",
        "key": "t_address",
        "label": "mapping(address => bool)",
        "numberOfBytes": "32",
        "value": "t_bool"
      },
      "t_mapping(t_address,t_mapping(t_address,t_bool))": {
        "encoding": "mapping",
        "key": "t_address",
        "label": "mapping(address => mapping(address => bool))",
        "numberOfBytes": "32",
        "value": "t_mapping(t_address,t_bool)"
      },
      "t_mapping(t_address,t_mapping(t_uint128,t_uint128))": {
        "encoding": "mapping",
        "key": "t_address",
        "label": "mapping(address => mapping(uint128 => uint128))",
        "numberOfBytes": "32",
        "value": "t_mapping(t_uint128,t_uint128)"
      },
      "t_mapping(t_address,t_uint256)": {
        "encoding": "mapping",
        "key": "t_address",
        "label": "mapping(address => uint256)",
        "numberOfBytes": "32",
        "value": "t_uint256"
      },
      "t_mapping(t_uint128,t_uint128)": {
        "encoding": "mapping",
        "key": "t_uint128",
        "label": "mapping(uint128 => uint128)",
        "numberOfBytes": "32",
        "value": "t_uint128"
      },
      "t_mapping(t_uint256,t_address)": {
        "encoding": "mapping",
        "key": "t_uint256",
        "label": "mapping(uint256 => address)",
        "numberOfBytes": "32",
        "value": "t_address"
      },
      "t_mapping(t_uint256,t_uint256)": {
        "encoding": "mapping",
        "key": "t_uint256",
        "label": "mapping(uint256 => uint256)",
        "numberOfBytes": "32",
        "value": "t_uint256"
      },
      "t_uint128": {
        "encoding": "inplace",
        "label": "uint128",
        "numberOfBytes": "16"
      },
      "t_uint256": {
        "encoding": "inplace",
        "label": "uint256",
        "numberOfBytes": "32"
      }
    }
  }
}