{
  "address": "0xd419dd1E662FFea4ff0C3194dA0Ab67Ad94e182C",
  "abi": [
    {
      "inputs": [
        {
          "internalType": "uint256",
          "name": "minDelay",
          "type": "uint256"
        },
        {
          "internalType": "address",
          "name": "guardian",
          "type": "address"
        }
      ],
      "stateMutability": "nonpayable",
      "type": "constructor"
    },
    {
      "anonymous": false,
      "inputs": [
        {
          "indexed": true,
          "internalType": "bytes32",
          "name": "id",
          "type": "bytes32"
        },
        {
          "indexed": true,
          "internalType": "uint256",
          "name": "index",
          "type": "uint256"
        },
        {
          "indexed": false,
          "internalType": "address",
          "name": "target",
          "type": "address"
        },
        {
          "indexed": false,
          "internalType": "uint256",
          "name": "value",
          "type": "uint256"
        },
        {
          "indexed": false,
          "internalType": "bytes",
          "name": "data",
          "type": "bytes"
        }
      ],
      "name": "CallExecuted",
      "type": "event"
    },
    {
      "anonymous": false,
      "inputs": [
        {
          "indexed": true,
          "internalType": "bytes32",
          "name": "id",
          "type": "bytes32"
        },
        {
          "indexed": true,
          "internalType": "uint256",
          "name": "index",
          "type": "uint256"
        },
        {
          "indexed": false,
          "internalType": "address",
          "name": "target",
          "type": "address"
        },
        {
          "indexed": false,
          "internalType": "uint256",
          "name": "value",
          "type": "uint256"
        },
        {
          "indexed": false,
          "internalType": "bytes",
          "name": "data",
          "type": "bytes"
        },
        {
          "indexed": false,
          "internalType": "bytes32",
          "name": "predecessor",
          "type": "bytes32"
        },
        {
          "indexed": false,
          "internalType": "uint256",
          "name": "delay",
          "type": "uint256"
        }
      ],
      "name": "CallScheduled",
      "type": "event"
    },
    {
      "anonymous": false,
      "inputs": [
        {
          "indexed": true,
          "internalType": "bytes32",
          "name": "id",
          "type": "bytes32"
        }
      ],
      "name": "Cancelled",
      "type": "event"
    },
    {
      "anonymous": false,
      "inputs": [
        {
          "indexed": false,
          "internalType": "uint256",
          "name": "oldDuration",
          "type": "uint256"
        },
        {
          "indexed": false,
          "internalType": "uint256",
          "name": "newDuration",
          "type": "uint256"
        }
      ],
      "name": "MinDelayChange",
      "type": "event"
    },
    {
      "anonymous": false,
      "inputs": [
        {
          "indexed": true,
          "internalType": "bytes32",
          "name": "role",
          "type": "bytes32"
        },
        {
          "indexed": true,
          "internalType": "bytes32",
          "name": "previousAdminRole",
          "type": "bytes32"
        },
        {
          "indexed": true,
          "internalType": "bytes32",
          "name": "newAdminRole",
          "type": "bytes32"
        }
      ],
      "name": "RoleAdminChanged",
      "type": "event"
    },
    {
      "anonymous": false,
      "inputs": [
        {
          "indexed": true,
          "internalType": "bytes32",
          "name": "role",
          "type": "bytes32"
        },
        {
          "indexed": true,
          "internalType": "address",
          "name": "account",
          "type": "address"
        },
        {
          "indexed": true,
          "internalType": "address",
          "name": "sender",
          "type": "address"
        }
      ],
      "name": "RoleGranted",
      "type": "event"
    },
    {
      "anonymous": false,
      "inputs": [
        {
          "indexed": true,
          "internalType": "bytes32",
          "name": "role",
          "type": "bytes32"
        },
        {
          "indexed": true,
          "internalType": "address",
          "name": "account",
          "type": "address"
        },
        {
          "indexed": true,
          "internalType": "address",
          "name": "sender",
          "type": "address"
        }
      ],
      "name": "RoleRevoked",
      "type": "event"
    },
    {
      "inputs": [],
      "name": "DEFAULT_ADMIN_ROLE",
      "outputs": [
        {
          "internalType": "bytes32",
          "name": "",
          "type": "bytes32"
        }
      ],
      "stateMutability": "view",
      "type": "function"
    },
    {
      "inputs": [],
      "name": "EXECUTOR_ROLE",
      "outputs": [
        {
          "internalType": "bytes32",
          "name": "",
          "type": "bytes32"
        }
      ],
      "stateMutability": "view",
      "type": "function"
    },
    {
      "inputs": [],
      "name": "GUARDIAN_ROLE",
      "outputs": [
        {
          "internalType": "bytes32",
          "name": "",
          "type": "bytes32"
        }
      ],
      "stateMutability": "view",
      "type": "function"
    },
    {
      "inputs": [],
      "name": "PROPOSER_ROLE",
      "outputs": [
        {
          "internalType": "bytes32",
          "name": "",
          "type": "bytes32"
        }
      ],
      "stateMutability": "view",
      "type": "function"
    },
    {
      "inputs": [],
      "name": "TIMELOCK_ADMIN_ROLE",
      "outputs": [
        {
          "internalType": "bytes32",
          "name": "",
          "type": "bytes32"
        }
      ],
      "stateMutability": "view",
      "type": "function"
    },
    {
      "inputs": [],
      "name": "VOID_ROLE",
      "outputs": [
        {
          "internalType": "bytes32",
          "name": "",
          "type": "bytes32"
        }
      ],
      "stateMutability": "view",
      "type": "function"
    },
    {
      "inputs": [
        {
          "internalType": "bytes32",
          "name": "id",
          "type": "bytes32"
        }
      ],
      "name": "cancel",
      "outputs": [],
      "stateMutability": "nonpayable",
      "type": "function"
    },
    {
      "inputs": [
        {
          "internalType": "address",
          "name": "target",
          "type": "address"
        },
        {
          "internalType": "uint256",
          "name": "value",
          "type": "uint256"
        },
        {
          "internalType": "bytes",
          "name": "data",
          "type": "bytes"
        },
        {
          "internalType": "bytes32",
          "name": "predecessor",
          "type": "bytes32"
        },
        {
          "internalType": "bytes32",
          "name": "salt",
          "type": "bytes32"
        }
      ],
      "name": "execute",
      "outputs": [],
      "stateMutability": "payable",
      "type": "function"
    },
    {
      "inputs": [
        {
          "internalType": "address[]",
          "name": "targets",
          "type": "address[]"
        },
        {
          "internalType": "uint256[]",
          "name": "values",
          "type": "uint256[]"
        },
        {
          "internalType": "bytes[]",
          "name": "datas",
          "type": "bytes[]"
        },
        {
          "internalType": "bytes32",
          "name": "predecessor",
          "type": "bytes32"
        },
        {
          "internalType": "bytes32",
          "name": "salt",
          "type": "bytes32"
        }
      ],
      "name": "executeBatch",
      "outputs": [],
      "stateMutability": "payable",
      "type": "function"
    },
    {
      "inputs": [],
      "name": "getMinDelay",
      "outputs": [
        {
          "internalType": "uint256",
          "name": "duration",
          "type": "uint256"
        }
      ],
      "stateMutability": "view",
      "type": "function"
    },
    {
      "inputs": [
        {
          "internalType": "bytes32",
          "name": "role",
          "type": "bytes32"
        }
      ],
      "name": "getRoleAdmin",
      "outputs": [
        {
          "internalType": "bytes32",
          "name": "",
          "type": "bytes32"
        }
      ],
      "stateMutability": "view",
      "type": "function"
    },
    {
      "inputs": [
        {
          "internalType": "bytes32",
          "name": "id",
          "type": "bytes32"
        }
      ],
      "name": "getTimestamp",
      "outputs": [
        {
          "internalType": "uint256",
          "name": "timestamp",
          "type": "uint256"
        }
      ],
      "stateMutability": "view",
      "type": "function"
    },
    {
      "inputs": [
        {
          "internalType": "bytes32",
          "name": "role",
          "type": "bytes32"
        },
        {
          "internalType": "address",
          "name": "account",
          "type": "address"
        }
      ],
      "name": "grantRole",
      "outputs": [],
      "stateMutability": "nonpayable",
      "type": "function"
    },
    {
      "inputs": [
        {
          "internalType": "bytes32",
          "name": "role",
          "type": "bytes32"
        },
        {
          "internalType": "address",
          "name": "account",
          "type": "address"
        }
      ],
      "name": "hasRole",
      "outputs": [
        {
          "internalType": "bool",
          "name": "",
          "type": "bool"
        }
      ],
      "stateMutability": "view",
      "type": "function"
    },
    {
      "inputs": [
        {
          "internalType": "address",
          "name": "target",
          "type": "address"
        },
        {
          "internalType": "uint256",
          "name": "value",
          "type": "uint256"
        },
        {
          "internalType": "bytes",
          "name": "data",
          "type": "bytes"
        },
        {
          "internalType": "bytes32",
          "name": "predecessor",
          "type": "bytes32"
        },
        {
          "internalType": "bytes32",
          "name": "salt",
          "type": "bytes32"
        }
      ],
      "name": "hashOperation",
      "outputs": [
        {
          "internalType": "bytes32",
          "name": "hash",
          "type": "bytes32"
        }
      ],
      "stateMutability": "pure",
      "type": "function"
    },
    {
      "inputs": [
        {
          "internalType": "address[]",
          "name": "targets",
          "type": "address[]"
        },
        {
          "internalType": "uint256[]",
          "name": "values",
          "type": "uint256[]"
        },
        {
          "internalType": "bytes[]",
          "name": "datas",
          "type": "bytes[]"
        },
        {
          "internalType": "bytes32",
          "name": "predecessor",
          "type": "bytes32"
        },
        {
          "internalType": "bytes32",
          "name": "salt",
          "type": "bytes32"
        }
      ],
      "name": "hashOperationBatch",
      "outputs": [
        {
          "internalType": "bytes32",
          "name": "hash",
          "type": "bytes32"
        }
      ],
      "stateMutability": "pure",
      "type": "function"
    },
    {
      "inputs": [],
      "name": "immortalizeGovernance",
      "outputs": [],
      "stateMutability": "nonpayable",
      "type": "function"
    },
    {
      "inputs": [],
      "name": "immortalized",
      "outputs": [
        {
          "internalType": "bool",
          "name": "",
          "type": "bool"
        }
      ],
      "stateMutability": "view",
      "type": "function"
    },
    {
      "inputs": [
        {
          "internalType": "bytes32",
          "name": "id",
          "type": "bytes32"
        }
      ],
      "name": "isOperation",
      "outputs": [
        {
          "internalType": "bool",
          "name": "pending",
          "type": "bool"
        }
      ],
      "stateMutability": "view",
      "type": "function"
    },
    {
      "inputs": [
        {
          "internalType": "bytes32",
          "name": "id",
          "type": "bytes32"
        }
      ],
      "name": "isOperationDone",
      "outputs": [
        {
          "internalType": "bool",
          "name": "done",
          "type": "bool"
        }
      ],
      "stateMutability": "view",
      "type": "function"
    },
    {
      "inputs": [
        {
          "internalType": "bytes32",
          "name": "id",
          "type": "bytes32"
        }
      ],
      "name": "isOperationPending",
      "outputs": [
        {
          "internalType": "bool",
          "name": "pending",
          "type": "bool"
        }
      ],
      "stateMutability": "view",
      "type": "function"
    },
    {
      "inputs": [
        {
          "internalType": "bytes32",
          "name": "id",
          "type": "bytes32"
        }
      ],
      "name": "isOperationReady",
      "outputs": [
        {
          "internalType": "bool",
          "name": "ready",
          "type": "bool"
        }
      ],
      "stateMutability": "view",
      "type": "function"
    },
    {
      "inputs": [
        {
          "internalType": "bytes32",
          "name": "role",
          "type": "bytes32"
        },
        {
          "internalType": "address",
          "name": "account",
          "type": "address"
        }
      ],
      "name": "renounceRole",
      "outputs": [],
      "stateMutability": "nonpayable",
      "type": "function"
    },
    {
      "inputs": [
        {
          "internalType": "bytes32",
          "name": "role",
          "type": "bytes32"
        },
        {
          "internalType": "address",
          "name": "account",
          "type": "address"
        }
      ],
      "name": "revokeRole",
      "outputs": [],
      "stateMutability": "nonpayable",
      "type": "function"
    },
    {
      "inputs": [
        {
          "internalType": "address",
          "name": "target",
          "type": "address"
        },
        {
          "internalType": "uint256",
          "name": "value",
          "type": "uint256"
        },
        {
          "internalType": "bytes",
          "name": "data",
          "type": "bytes"
        },
        {
          "internalType": "bytes32",
          "name": "predecessor",
          "type": "bytes32"
        },
        {
          "internalType": "bytes32",
          "name": "salt",
          "type": "bytes32"
        },
        {
          "internalType": "uint256",
          "name": "delay",
          "type": "uint256"
        }
      ],
      "name": "schedule",
      "outputs": [],
      "stateMutability": "nonpayable",
      "type": "function"
    },
    {
      "inputs": [
        {
          "internalType": "address[]",
          "name": "targets",
          "type": "address[]"
        },
        {
          "internalType": "uint256[]",
          "name": "values",
          "type": "uint256[]"
        },
        {
          "internalType": "bytes[]",
          "name": "datas",
          "type": "bytes[]"
        },
        {
          "internalType": "bytes32",
          "name": "predecessor",
          "type": "bytes32"
        },
        {
          "internalType": "bytes32",
          "name": "salt",
          "type": "bytes32"
        },
        {
          "internalType": "uint256",
          "name": "delay",
          "type": "uint256"
        }
      ],
      "name": "scheduleBatch",
      "outputs": [],
      "stateMutability": "nonpayable",
      "type": "function"
    },
    {
      "inputs": [
        {
          "internalType": "bytes4",
          "name": "interfaceId",
          "type": "bytes4"
        }
      ],
      "name": "supportsInterface",
      "outputs": [
        {
          "internalType": "bool",
          "name": "",
          "type": "bool"
        }
      ],
      "stateMutability": "view",
      "type": "function"
    },
    {
      "inputs": [
        {
          "internalType": "uint256",
          "name": "newDelay",
          "type": "uint256"
        }
      ],
      "name": "updateDelay",
      "outputs": [],
      "stateMutability": "nonpayable",
      "type": "function"
    },
    {
      "stateMutability": "payable",
      "type": "receive"
    }
  ],
  "transactionHash": "0xf5efa924bc3652b722fdf731cd92810b7e0aa950c9238cddb67bafc6adb17fc7",
  "args": [
    "172800",
    "0xE53cd71271AcAdbeb0f64d9c8C62bBdDc8cA9e66"
  ],
  "solcInputHash": "fe2d698dc766749c774f141be3fe643d",
  "bytecode": "0x60806040523480156200001157600080fd5b506040516200288a3803806200288a833981016040819052620000349162000362565b604080516000808252602082019081528183019092528391620000676000805160206200280a8339815191528062000267565b620000916000805160206200282a8339815191526000805160206200280a83398151915262000267565b620000bb6000805160206200284a8339815191526000805160206200280a83398151915262000267565b620000d66000805160206200280a83398151915233620002b2565b620000f16000805160206200280a83398151915230620002b2565b60005b82518110156200014e576200013b6000805160206200282a833981519152848381518110620001275762000127620003a1565b6020026020010151620002b260201b60201c565b6200014681620003b7565b9050620000f4565b5060005b81518110156200019857620001856000805160206200284a833981519152838381518110620001275762000127620003a1565b6200019081620003b7565b905062000152565b5060028390556040805160008152602081018590527f11c24f4ead16507c69ac467fbd5e4eed5fb5c699626d2cc6d66421df253886d5910160405180910390a1505050620001fd6000805160206200284a8339815191526000620002b260201b60201c565b620002297fb74efb1331f2ac159f6a86c8c3fad56a75c3c91bdefeba4af6441cd313e03d468062000267565b620002446000805160206200286a8339815191528062000267565b6200025f6000805160206200286a83398151915282620002b2565b5050620003e1565b600082815260208190526040808220600101805490849055905190918391839186917fbd79b86ffe0ab8e8776151514217cd7cacd52c909f66475c3af44e129f0b00ff9190a4505050565b620002be8282620002c2565b5050565b6000828152602081815260408083206001600160a01b038516845290915290205460ff16620002be576000828152602081815260408083206001600160a01b03851684529091529020805460ff191660011790556200031e3390565b6001600160a01b0316816001600160a01b0316837f2f8788117e7eff1d82e926ec794901d17c78024a50270940304540a733656f0d60405160405180910390a45050565b600080604083850312156200037657600080fd5b825160208401519092506001600160a01b03811681146200039657600080fd5b809150509250929050565b634e487b7160e01b600052603260045260246000fd5b6000600019821415620003da57634e487b7160e01b600052601160045260246000fd5b5060010190565b61241980620003f16000396000f3fe6080604052600436106101bb5760003560e01c8063584b153e116100ec578063a217fddf1161008a578063d45c443511610064578063d45c443514610579578063d547741f146105a6578063e38335e5146105c6578063f27a0c92146105d957600080fd5b8063a217fddf14610524578063b1c5f42714610539578063c4d252f51461055957600080fd5b8063875d1239116100c6578063875d12391461044b5780638f2a0bb01461047f5780638f61f4f51461049f57806391d14854146104d357600080fd5b8063584b153e146103eb57806364d623531461040b5780638065657f1461042b57600080fd5b8063248a9ca3116101595780632d446ac6116101335780632d446ac6146103715780632f2ff15d1461038b57806331d50750146103ab57806336568abe146103cb57600080fd5b8063248a9ca3146102dc57806324ea54f41461030c5780632ab0f5291461034057600080fd5b80630d3cf6fc116101955780630d3cf6fc14610260578063134008d31461029457806313bc9f20146102a757806314a709b9146102c757600080fd5b806301d5062a146101c757806301ffc9a7146101e957806307bd02651461021e57600080fd5b366101c257005b600080fd5b3480156101d357600080fd5b506101e76101e2366004611ba5565b6105ee565b005b3480156101f557600080fd5b50610209610204366004611c1a565b610684565b60405190151581526020015b60405180910390f35b34801561022a57600080fd5b506102527fd8aa0f3194971a2a116679f7c2090f6939c8d4e01a2a8d7e41d55e5351469e6381565b604051908152602001610215565b34801561026c57600080fd5b506102527f5f58e3a2316349923ce3780f8d587db2d72378aed66a8261c916544fa6846ca581565b6101e76102a2366004611c5c565b61071d565b3480156102b357600080fd5b506102096102c2366004611cc8565b6107d8565b3480156102d357600080fd5b506101e76107fe565b3480156102e857600080fd5b506102526102f7366004611cc8565b60009081526020819052604090206001015490565b34801561031857600080fd5b506102527f55435dd261a4b9b3364963f7738a7a662ad9c84396d64be3365284bb7f0a504181565b34801561034c57600080fd5b5061020961035b366004611cc8565b6000908152600160208190526040909120541490565b34801561037d57600080fd5b506003546102099060ff1681565b34801561039757600080fd5b506101e76103a6366004611ce1565b610935565b3480156103b757600080fd5b506102096103c6366004611cc8565b610960565b3480156103d757600080fd5b506101e76103e6366004611ce1565b610979565b3480156103f757600080fd5b50610209610406366004611cc8565b6109f9565b34801561041757600080fd5b506101e7610426366004611cc8565b610a0f565b34801561043757600080fd5b50610252610446366004611c5c565b610adf565b34801561045757600080fd5b506102527fb74efb1331f2ac159f6a86c8c3fad56a75c3c91bdefeba4af6441cd313e03d4681565b34801561048b57600080fd5b506101e761049a366004611d52565b610b1e565b3480156104ab57600080fd5b506102527fb09aa5aeb3702cfd50b6b62bc4532604938f21248a27a1d5ca736082b6819cc181565b3480156104df57600080fd5b506102096104ee366004611ce1565b60009182526020828152604080842073ffffffffffffffffffffffffffffffffffffffff93909316845291905290205460ff1690565b34801561053057600080fd5b50610252600081565b34801561054557600080fd5b50610252610554366004611e04565b610d51565b34801561056557600080fd5b506101e7610574366004611cc8565b610d96565b34801561058557600080fd5b50610252610594366004611cc8565b60009081526001602052604090205490565b3480156105b257600080fd5b506101e76105c1366004611ce1565b610e92565b6101e76105d4366004611e04565b610eb8565b3480156105e557600080fd5b50600254610252565b7fb09aa5aeb3702cfd50b6b62bc4532604938f21248a27a1d5ca736082b6819cc16106198133611110565b6000610629898989898989610adf565b905061063581846111e0565b6000817f4cf4410cc57040e44862ef0f45f3dd5a5e02db8eb8add648d4b0e236f1d07dca8b8b8b8b8b8a60405161067196959493929190611ef6565b60405180910390a3505050505050505050565b60007fffffffff0000000000000000000000000000000000000000000000000000000082167f7965db0b00000000000000000000000000000000000000000000000000000000148061071757507f01ffc9a7000000000000000000000000000000000000000000000000000000007fffffffff000000000000000000000000000000000000000000000000000000008316145b92915050565b600080527fdae2aa361dfd1ca020a396615627d436107c35eff9fe7738a3512819782d70696020527f5ba6852781629bcdcd4bdaa6de76d786f1c64b16acdac474e55bebc0ea157951547fd8aa0f3194971a2a116679f7c2090f6939c8d4e01a2a8d7e41d55e5351469e639060ff1661079a5761079a8133611110565b60006107aa888888888888610adf565b90506107b68185611328565b6107c58160008a8a8a8a611465565b6107ce816115aa565b5050505050505050565b6000818152600160205260408120546001811180156107f75750428111155b9392505050565b7f55435dd261a4b9b3364963f7738a7a662ad9c84396d64be3365284bb7f0a50416108298133611110565b6108737f5f58e3a2316349923ce3780f8d587db2d72378aed66a8261c916544fa6846ca57fb74efb1331f2ac159f6a86c8c3fad56a75c3c91bdefeba4af6441cd313e03d46611653565b6108bd7fb09aa5aeb3702cfd50b6b62bc4532604938f21248a27a1d5ca736082b6819cc17fb74efb1331f2ac159f6a86c8c3fad56a75c3c91bdefeba4af6441cd313e03d46611653565b6109077fd8aa0f3194971a2a116679f7c2090f6939c8d4e01a2a8d7e41d55e5351469e637fb74efb1331f2ac159f6a86c8c3fad56a75c3c91bdefeba4af6441cd313e03d46611653565b50600380547fffffffffffffffffffffffffffffffffffffffffffffffffffffffffffffff00166001179055565b6000828152602081905260409020600101546109518133611110565b61095b838361169e565b505050565b60008181526001602052604081205481905b1192915050565b60035460ff16156109eb576040517f08c379a000000000000000000000000000000000000000000000000000000000815260206004820152601a60248201527f476f7665726e616e636520697320696d6d6f7274616c697a656400000000000060448201526064015b60405180910390fd5b6109f5828261178e565b5050565b6000818152600160208190526040822054610972565b333014610a9e576040517f08c379a000000000000000000000000000000000000000000000000000000000815260206004820152602b60248201527f54696d656c6f636b436f6e74726f6c6c65723a2063616c6c6572206d7573742060448201527f62652074696d656c6f636b00000000000000000000000000000000000000000060648201526084016109e2565b60025460408051918252602082018390527f11c24f4ead16507c69ac467fbd5e4eed5fb5c699626d2cc6d66421df253886d5910160405180910390a1600255565b6000868686868686604051602001610afc96959493929190611ef6565b6040516020818303038152906040528051906020012090509695505050505050565b7fb09aa5aeb3702cfd50b6b62bc4532604938f21248a27a1d5ca736082b6819cc1610b498133611110565b888714610bd8576040517f08c379a000000000000000000000000000000000000000000000000000000000815260206004820152602360248201527f54696d656c6f636b436f6e74726f6c6c65723a206c656e677468206d69736d6160448201527f746368000000000000000000000000000000000000000000000000000000000060648201526084016109e2565b888514610c67576040517f08c379a000000000000000000000000000000000000000000000000000000000815260206004820152602360248201527f54696d656c6f636b436f6e74726f6c6c65723a206c656e677468206d69736d6160448201527f746368000000000000000000000000000000000000000000000000000000000060648201526084016109e2565b6000610c798b8b8b8b8b8b8b8b610d51565b9050610c8581846111e0565b60005b8a811015610d435780827f4cf4410cc57040e44862ef0f45f3dd5a5e02db8eb8add648d4b0e236f1d07dca8e8e85818110610cc557610cc5611f41565b9050602002016020810190610cda9190611f70565b8d8d86818110610cec57610cec611f41565b905060200201358c8c87818110610d0557610d05611f41565b9050602002810190610d179190611f8b565b8c8b604051610d2b96959493929190611ef6565b60405180910390a3610d3c8161201f565b9050610c88565b505050505050505050505050565b60008888888888888888604051602001610d72989796959493929190612107565b60405160208183030381529060405280519060200120905098975050505050505050565b7fb09aa5aeb3702cfd50b6b62bc4532604938f21248a27a1d5ca736082b6819cc1610dc18133611110565b610dca826109f9565b610e56576040517f08c379a000000000000000000000000000000000000000000000000000000000815260206004820152603160248201527f54696d656c6f636b436f6e74726f6c6c65723a206f7065726174696f6e20636160448201527f6e6e6f742062652063616e63656c6c656400000000000000000000000000000060648201526084016109e2565b6000828152600160205260408082208290555183917fbaa1eb22f2a492ba1a5fea61b8df4d27c6c8b5f3971e63bb58fa14ff72eedb7091a25050565b600082815260208190526040902060010154610eae8133611110565b61095b8383611839565b600080527fdae2aa361dfd1ca020a396615627d436107c35eff9fe7738a3512819782d70696020527f5ba6852781629bcdcd4bdaa6de76d786f1c64b16acdac474e55bebc0ea157951547fd8aa0f3194971a2a116679f7c2090f6939c8d4e01a2a8d7e41d55e5351469e639060ff16610f3557610f358133611110565b878614610fc4576040517f08c379a000000000000000000000000000000000000000000000000000000000815260206004820152602360248201527f54696d656c6f636b436f6e74726f6c6c65723a206c656e677468206d69736d6160448201527f746368000000000000000000000000000000000000000000000000000000000060648201526084016109e2565b878414611053576040517f08c379a000000000000000000000000000000000000000000000000000000000815260206004820152602360248201527f54696d656c6f636b436f6e74726f6c6c65723a206c656e677468206d69736d6160448201527f746368000000000000000000000000000000000000000000000000000000000060648201526084016109e2565b60006110658a8a8a8a8a8a8a8a610d51565b90506110718185611328565b60005b898110156110fa576110ea82828d8d8581811061109357611093611f41565b90506020020160208101906110a89190611f70565b8c8c868181106110ba576110ba611f41565b905060200201358b8b878181106110d3576110d3611f41565b90506020028101906110e59190611f8b565b611465565b6110f38161201f565b9050611074565b50611104816115aa565b50505050505050505050565b60008281526020818152604080832073ffffffffffffffffffffffffffffffffffffffff8516845290915290205460ff166109f5576111668173ffffffffffffffffffffffffffffffffffffffff1660146118f0565b6111718360206118f0565b604051602001611182929190612208565b604080517fffffffffffffffffffffffffffffffffffffffffffffffffffffffffffffffe0818403018152908290527f08c379a00000000000000000000000000000000000000000000000000000000082526109e291600401612289565b6111e982610960565b15611276576040517f08c379a000000000000000000000000000000000000000000000000000000000815260206004820152602f60248201527f54696d656c6f636b436f6e74726f6c6c65723a206f7065726174696f6e20616c60448201527f7265616479207363686564756c6564000000000000000000000000000000000060648201526084016109e2565b600254811015611308576040517f08c379a000000000000000000000000000000000000000000000000000000000815260206004820152602660248201527f54696d656c6f636b436f6e74726f6c6c65723a20696e73756666696369656e7460448201527f2064656c6179000000000000000000000000000000000000000000000000000060648201526084016109e2565b61131281426122da565b6000928352600160205260409092209190915550565b611331826107d8565b6113bd576040517f08c379a000000000000000000000000000000000000000000000000000000000815260206004820152602a60248201527f54696d656c6f636b436f6e74726f6c6c65723a206f7065726174696f6e20697360448201527f206e6f742072656164790000000000000000000000000000000000000000000060648201526084016109e2565b8015806113d95750600081815260016020819052604090912054145b6109f5576040517f08c379a000000000000000000000000000000000000000000000000000000000815260206004820152602660248201527f54696d656c6f636b436f6e74726f6c6c65723a206d697373696e67206465706560448201527f6e64656e6379000000000000000000000000000000000000000000000000000060648201526084016109e2565b60008473ffffffffffffffffffffffffffffffffffffffff1684848460405161148f9291906122f2565b60006040518083038185875af1925050503d80600081146114cc576040519150601f19603f3d011682016040523d82523d6000602084013e6114d1565b606091505b5050905080611562576040517f08c379a000000000000000000000000000000000000000000000000000000000815260206004820152603360248201527f54696d656c6f636b436f6e74726f6c6c65723a20756e6465726c79696e67207460448201527f72616e73616374696f6e2072657665727465640000000000000000000000000060648201526084016109e2565b85877fc2617efa69bab66782fa219543714338489c4e9e178271560a91b82c3f612b58878787876040516115999493929190612302565b60405180910390a350505050505050565b6115b3816107d8565b61163f576040517f08c379a000000000000000000000000000000000000000000000000000000000815260206004820152602a60248201527f54696d656c6f636b436f6e74726f6c6c65723a206f7065726174696f6e20697360448201527f206e6f742072656164790000000000000000000000000000000000000000000060648201526084016109e2565b600090815260016020819052604090912055565b600082815260208190526040808220600101805490849055905190918391839186917fbd79b86ffe0ab8e8776151514217cd7cacd52c909f66475c3af44e129f0b00ff9190a4505050565b60008281526020818152604080832073ffffffffffffffffffffffffffffffffffffffff8516845290915290205460ff166109f55760008281526020818152604080832073ffffffffffffffffffffffffffffffffffffffff85168452909152902080547fffffffffffffffffffffffffffffffffffffffffffffffffffffffffffffff001660011790556117303390565b73ffffffffffffffffffffffffffffffffffffffff168173ffffffffffffffffffffffffffffffffffffffff16837f2f8788117e7eff1d82e926ec794901d17c78024a50270940304540a733656f0d60405160405180910390a45050565b73ffffffffffffffffffffffffffffffffffffffff81163314611833576040517f08c379a000000000000000000000000000000000000000000000000000000000815260206004820152602f60248201527f416363657373436f6e74726f6c3a2063616e206f6e6c792072656e6f756e636560448201527f20726f6c657320666f722073656c66000000000000000000000000000000000060648201526084016109e2565b6109f582825b60008281526020818152604080832073ffffffffffffffffffffffffffffffffffffffff8516845290915290205460ff16156109f55760008281526020818152604080832073ffffffffffffffffffffffffffffffffffffffff8516808552925280832080547fffffffffffffffffffffffffffffffffffffffffffffffffffffffffffffff0016905551339285917ff6391f5c32d9c69d2a47ea670b442974b53935d1edc7fd64eb21e047a839171b9190a45050565b606060006118ff836002612342565b61190a9060026122da565b67ffffffffffffffff8111156119225761192261237f565b6040519080825280601f01601f19166020018201604052801561194c576020820181803683370190505b5090507f30000000000000000000000000000000000000000000000000000000000000008160008151811061198357611983611f41565b60200101907effffffffffffffffffffffffffffffffffffffffffffffffffffffffffffff1916908160001a9053507f7800000000000000000000000000000000000000000000000000000000000000816001815181106119e6576119e6611f41565b60200101907effffffffffffffffffffffffffffffffffffffffffffffffffffffffffffff1916908160001a9053506000611a22846002612342565b611a2d9060016122da565b90505b6001811115611aca577f303132333435363738396162636465660000000000000000000000000000000085600f1660108110611a6e57611a6e611f41565b1a60f81b828281518110611a8457611a84611f41565b60200101907effffffffffffffffffffffffffffffffffffffffffffffffffffffffffffff1916908160001a90535060049490941c93611ac3816123ae565b9050611a30565b5083156107f7576040517f08c379a000000000000000000000000000000000000000000000000000000000815260206004820181905260248201527f537472696e67733a20686578206c656e67746820696e73756666696369656e7460448201526064016109e2565b803573ffffffffffffffffffffffffffffffffffffffff81168114611b5757600080fd5b919050565b60008083601f840112611b6e57600080fd5b50813567ffffffffffffffff811115611b8657600080fd5b602083019150836020828501011115611b9e57600080fd5b9250929050565b600080600080600080600060c0888a031215611bc057600080fd5b611bc988611b33565b965060208801359550604088013567ffffffffffffffff811115611bec57600080fd5b611bf88a828b01611b5c565b989b979a50986060810135976080820135975060a09091013595509350505050565b600060208284031215611c2c57600080fd5b81357fffffffff00000000000000000000000000000000000000000000000000000000811681146107f757600080fd5b60008060008060008060a08789031215611c7557600080fd5b611c7e87611b33565b955060208701359450604087013567ffffffffffffffff811115611ca157600080fd5b611cad89828a01611b5c565b979a9699509760608101359660809091013595509350505050565b600060208284031215611cda57600080fd5b5035919050565b60008060408385031215611cf457600080fd5b82359150611d0460208401611b33565b90509250929050565b60008083601f840112611d1f57600080fd5b50813567ffffffffffffffff811115611d3757600080fd5b6020830191508360208260051b8501011115611b9e57600080fd5b600080600080600080600080600060c08a8c031215611d7057600080fd5b893567ffffffffffffffff80821115611d8857600080fd5b611d948d838e01611d0d565b909b50995060208c0135915080821115611dad57600080fd5b611db98d838e01611d0d565b909950975060408c0135915080821115611dd257600080fd5b50611ddf8c828d01611d0d565b9a9d999c50979a969997986060880135976080810135975060a0013595509350505050565b60008060008060008060008060a0898b031215611e2057600080fd5b883567ffffffffffffffff80821115611e3857600080fd5b611e448c838d01611d0d565b909a50985060208b0135915080821115611e5d57600080fd5b611e698c838d01611d0d565b909850965060408b0135915080821115611e8257600080fd5b50611e8f8b828c01611d0d565b999c989b509699959896976060870135966080013595509350505050565b8183528181602085013750600060208284010152600060207fffffffffffffffffffffffffffffffffffffffffffffffffffffffffffffffe0601f840116840101905092915050565b73ffffffffffffffffffffffffffffffffffffffff8716815285602082015260a060408201526000611f2c60a083018688611ead565b60608301949094525060800152949350505050565b7f4e487b7100000000000000000000000000000000000000000000000000000000600052603260045260246000fd5b600060208284031215611f8257600080fd5b6107f782611b33565b60008083357fffffffffffffffffffffffffffffffffffffffffffffffffffffffffffffffe1843603018112611fc057600080fd5b83018035915067ffffffffffffffff821115611fdb57600080fd5b602001915036819003821315611b9e57600080fd5b7f4e487b7100000000000000000000000000000000000000000000000000000000600052601160045260246000fd5b60007fffffffffffffffffffffffffffffffffffffffffffffffffffffffffffffffff82141561205157612051611ff0565b5060010190565b81835260006020808501808196508560051b810191508460005b878110156120fa57828403895281357fffffffffffffffffffffffffffffffffffffffffffffffffffffffffffffffe18836030181126120b157600080fd5b8701803567ffffffffffffffff8111156120ca57600080fd5b8036038913156120d957600080fd5b6120e68682898501611ead565b9a87019a9550505090840190600101612072565b5091979650505050505050565b60a0808252810188905260008960c08301825b8b8110156121555773ffffffffffffffffffffffffffffffffffffffff61214084611b33565b1682526020928301929091019060010161211a565b5083810360208501528881527f07ffffffffffffffffffffffffffffffffffffffffffffffffffffffffffffff89111561218e57600080fd5b8860051b9150818a6020830137818101915050602081016000815260208483030160408501526121bf81888a612058565b6060850196909652505050608001529695505050505050565b60005b838110156121f35781810151838201526020016121db565b83811115612202576000848401525b50505050565b7f416363657373436f6e74726f6c3a206163636f756e74200000000000000000008152600083516122408160178501602088016121d8565b7f206973206d697373696e6720726f6c6520000000000000000000000000000000601791840191820152835161227d8160288401602088016121d8565b01602801949350505050565b60208152600082518060208401526122a88160408501602087016121d8565b601f017fffffffffffffffffffffffffffffffffffffffffffffffffffffffffffffffe0169190910160400192915050565b600082198211156122ed576122ed611ff0565b500190565b8183823760009101908152919050565b73ffffffffffffffffffffffffffffffffffffffff85168152836020820152606060408201526000612338606083018486611ead565b9695505050505050565b6000817fffffffffffffffffffffffffffffffffffffffffffffffffffffffffffffffff048311821515161561237a5761237a611ff0565b500290565b7f4e487b7100000000000000000000000000000000000000000000000000000000600052604160045260246000fd5b6000816123bd576123bd611ff0565b507fffffffffffffffffffffffffffffffffffffffffffffffffffffffffffffffff019056fea2646970667358221220a8b681511189aa30cd806268d90a6b0a889204cfe8cefdefaa7a9c3b99fa737e64736f6c634300080900335f58e3a2316349923ce3780f8d587db2d72378aed66a8261c916544fa6846ca5b09aa5aeb3702cfd50b6b62bc4532604938f21248a27a1d5ca736082b6819cc1d8aa0f3194971a2a116679f7c2090f6939c8d4e01a2a8d7e41d55e5351469e6355435dd261a4b9b3364963f7738a7a662ad9c84396d64be3365284bb7f0a5041",
  "devdoc": {
    "kind": "dev",
    "methods": {
      "cancel(bytes32)": {
        "details": "Cancel an operation. Requirements: - the caller must have the 'proposer' role."
      },
      "execute(address,uint256,bytes,bytes32,bytes32)": {
        "details": "Execute an (ready) operation containing a single transaction. Emits a {CallExecuted} event. Requirements: - the caller must have the 'executor' role."
      },
      "executeBatch(address[],uint256[],bytes[],bytes32,bytes32)": {
        "details": "Execute an (ready) operation containing a batch of transactions. Emits one {CallExecuted} event per transaction in the batch. Requirements: - the caller must have the 'executor' role."
      },
      "getMinDelay()": {
        "details": "Returns the minimum delay for an operation to become valid. This value can be changed by executing an operation that calls `updateDelay`."
      },
      "getRoleAdmin(bytes32)": {
        "details": "Returns the admin role that controls `role`. See {grantRole} and {revokeRole}. To change a role's admin, use {_setRoleAdmin}."
      },
      "getTimestamp(bytes32)": {
        "details": "Returns the timestamp at with an operation becomes ready (0 for unset operations, 1 for done operations)."
      },
      "grantRole(bytes32,address)": {
        "details": "Grants `role` to `account`. If `account` had not been already granted `role`, emits a {RoleGranted} event. Requirements: - the caller must have ``role``'s admin role."
      },
      "hasRole(bytes32,address)": {
        "details": "Returns `true` if `account` has been granted `role`."
      },
      "hashOperation(address,uint256,bytes,bytes32,bytes32)": {
        "details": "Returns the identifier of an operation containing a single transaction."
      },
      "hashOperationBatch(address[],uint256[],bytes[],bytes32,bytes32)": {
        "details": "Returns the identifier of an operation containing a batch of transactions."
      },
      "isOperation(bytes32)": {
        "details": "Returns whether an id correspond to a registered operation. This includes both Pending, Ready and Done operations."
      },
      "isOperationDone(bytes32)": {
        "details": "Returns whether an operation is done or not."
      },
      "isOperationPending(bytes32)": {
        "details": "Returns whether an operation is pending or not."
      },
      "isOperationReady(bytes32)": {
        "details": "Returns whether an operation is ready or not."
      },
      "renounceRole(bytes32,address)": {
        "details": "Revokes `role` from the calling account. Roles are often managed via {grantRole} and {revokeRole}: this function's purpose is to provide a mechanism for accounts to lose their privileges if they are compromised (such as when a trusted device is misplaced). If the calling account had been granted `role`, emits a {RoleRevoked} event. Requirements: - the caller must be `account`."
      },
      "revokeRole(bytes32,address)": {
        "details": "Revokes `role` from `account`. If `account` had been granted `role`, emits a {RoleRevoked} event. Requirements: - the caller must have ``role``'s admin role."
      },
      "schedule(address,uint256,bytes,bytes32,bytes32,uint256)": {
        "details": "Schedule an operation containing a single transaction. Emits a {CallScheduled} event. Requirements: - the caller must have the 'proposer' role."
      },
      "scheduleBatch(address[],uint256[],bytes[],bytes32,bytes32,uint256)": {
        "details": "Schedule an operation containing a batch of transactions. Emits one {CallScheduled} event per transaction in the batch. Requirements: - the caller must have the 'proposer' role."
      },
      "supportsInterface(bytes4)": {
        "details": "See {IERC165-supportsInterface}."
      },
      "updateDelay(uint256)": {
        "details": "Changes the minimum timelock duration for future operations. Emits a {MinDelayChange} event. Requirements: - the caller must be the timelock itself. This can only be achieved by scheduling and later executing an operation where the timelock is the target and the data is the ABI-encoded call to this function."
      }
    },
    "version": 1
  },
  "userdoc": {
    "kind": "user",
    "methods": {
      "GUARDIAN_ROLE()": {
        "notice": "role that is able to immortalise the set of proposers and executors, cannot do anything else"
      },
      "VOID_ROLE()": {
        "notice": "role that belongs to no-one, used to prevent changes without the need to keep track of admins for other roles, just set all admin roles to VOID_ROLE"
      }
    },
    "version": 1
  },
  "storageLayout": {
    "storage": [
      {
        "astId": 24,
        "contract": "src/bleepsdao/BleepsDAOAccount.sol:BleepsDAOAccount",
        "label": "_roles",
        "offset": 0,
        "slot": "0",
        "type": "t_mapping(t_bytes32,t_struct(RoleData)19_storage)"
      },
      {
        "astId": 1428,
        "contract": "src/bleepsdao/BleepsDAOAccount.sol:BleepsDAOAccount",
        "label": "_timestamps",
        "offset": 0,
        "slot": "1",
        "type": "t_mapping(t_bytes32,t_uint256)"
      },
      {
        "astId": 1430,
        "contract": "src/bleepsdao/BleepsDAOAccount.sol:BleepsDAOAccount",
        "label": "_minDelay",
        "offset": 0,
        "slot": "2",
        "type": "t_uint256"
      },
      {
        "astId": 12768,
        "contract": "src/bleepsdao/BleepsDAOAccount.sol:BleepsDAOAccount",
        "label": "immortalized",
        "offset": 0,
        "slot": "3",
        "type": "t_bool"
      }
    ],
    "types": {
      "t_address": {
        "encoding": "inplace",
        "label": "address",
        "numberOfBytes": "20"
      },
      "t_bool": {
        "encoding": "inplace",
        "label": "bool",
        "numberOfBytes": "1"
      },
      "t_bytes32": {
        "encoding": "inplace",
        "label": "bytes32",
        "numberOfBytes": "32"
      },
      "t_mapping(t_address,t_bool)": {
        "encoding": "mapping",
        "key": "t_address",
        "label": "mapping(address => bool)",
        "numberOfBytes": "32",
        "value": "t_bool"
      },
      "t_mapping(t_bytes32,t_struct(RoleData)19_storage)": {
        "encoding": "mapping",
        "key": "t_bytes32",
        "label": "mapping(bytes32 => struct AccessControl.RoleData)",
        "numberOfBytes": "32",
        "value": "t_struct(RoleData)19_storage"
      },
      "t_mapping(t_bytes32,t_uint256)": {
        "encoding": "mapping",
        "key": "t_bytes32",
        "label": "mapping(bytes32 => uint256)",
        "numberOfBytes": "32",
        "value": "t_uint256"
      },
      "t_struct(RoleData)19_storage": {
        "encoding": "inplace",
        "label": "struct AccessControl.RoleData",
        "members": [
          {
            "astId": 16,
            "contract": "src/bleepsdao/BleepsDAOAccount.sol:BleepsDAOAccount",
            "label": "members",
            "offset": 0,
            "slot": "0",
            "type": "t_mapping(t_address,t_bool)"
          },
          {
            "astId": 18,
            "contract": "src/bleepsdao/BleepsDAOAccount.sol:BleepsDAOAccount",
            "label": "adminRole",
            "offset": 0,
            "slot": "1",
            "type": "t_bytes32"
          }
        ],
        "numberOfBytes": "64"
      },
      "t_uint256": {
        "encoding": "inplace",
        "label": "uint256",
        "numberOfBytes": "32"
      }
    }
  }
}