{
  "address": "0x43551c516E1dc0C86F55Aa7FBb1A348E170521Bd",
  "abi": [
    {
      "inputs": [
        {
          "internalType": "address",
          "name": "admin_",
          "type": "address"
        },
        {
          "internalType": "uint256",
          "name": "delay_",
          "type": "uint256"
        }
      ],
      "stateMutability": "nonpayable",
      "type": "constructor"
    },
    {
      "anonymous": false,
      "inputs": [
        {
          "indexed": true,
          "internalType": "bytes32",
          "name": "txHash",
          "type": "bytes32"
        },
        {
          "indexed": true,
          "internalType": "address",
          "name": "target",
          "type": "address"
        },
        {
          "indexed": false,
          "internalType": "uint256",
          "name": "value",
          "type": "uint256"
        },
        {
          "indexed": false,
          "internalType": "string",
          "name": "signature",
          "type": "string"
        },
        {
          "indexed": false,
          "internalType": "bytes",
          "name": "data",
          "type": "bytes"
        },
        {
          "indexed": false,
          "internalType": "uint256",
          "name": "eta",
          "type": "uint256"
        }
      ],
      "name": "CancelTransaction",
      "type": "event"
    },
    {
      "anonymous": false,
      "inputs": [
        {
          "indexed": true,
          "internalType": "bytes32",
          "name": "txHash",
          "type": "bytes32"
        },
        {
          "indexed": true,
          "internalType": "address",
          "name": "target",
          "type": "address"
        },
        {
          "indexed": false,
          "internalType": "uint256",
          "name": "value",
          "type": "uint256"
        },
        {
          "indexed": false,
          "internalType": "string",
          "name": "signature",
          "type": "string"
        },
        {
          "indexed": false,
          "internalType": "bytes",
          "name": "data",
          "type": "bytes"
        },
        {
          "indexed": false,
          "internalType": "uint256",
          "name": "eta",
          "type": "uint256"
        }
      ],
      "name": "ExecuteTransaction",
      "type": "event"
    },
    {
      "anonymous": false,
      "inputs": [
        {
          "indexed": true,
          "internalType": "address",
          "name": "newAdmin",
          "type": "address"
        }
      ],
      "name": "NewAdmin",
      "type": "event"
    },
    {
      "anonymous": false,
      "inputs": [
        {
          "indexed": true,
          "internalType": "uint256",
          "name": "newDelay",
          "type": "uint256"
        }
      ],
      "name": "NewDelay",
      "type": "event"
    },
    {
      "anonymous": false,
      "inputs": [
        {
          "indexed": true,
          "internalType": "address",
          "name": "newPendingAdmin",
          "type": "address"
        }
      ],
      "name": "NewPendingAdmin",
      "type": "event"
    },
    {
      "anonymous": false,
      "inputs": [
        {
          "indexed": true,
          "internalType": "bytes32",
          "name": "txHash",
          "type": "bytes32"
        },
        {
          "indexed": true,
          "internalType": "address",
          "name": "target",
          "type": "address"
        },
        {
          "indexed": false,
          "internalType": "uint256",
          "name": "value",
          "type": "uint256"
        },
        {
          "indexed": false,
          "internalType": "string",
          "name": "signature",
          "type": "string"
        },
        {
          "indexed": false,
          "internalType": "bytes",
          "name": "data",
          "type": "bytes"
        },
        {
          "indexed": false,
          "internalType": "uint256",
          "name": "eta",
          "type": "uint256"
        }
      ],
      "name": "QueueTransaction",
      "type": "event"
    },
    {
      "stateMutability": "payable",
      "type": "fallback"
    },
    {
      "inputs": [],
      "name": "GRACE_PERIOD",
      "outputs": [
        {
          "internalType": "uint256",
          "name": "",
          "type": "uint256"
        }
      ],
      "stateMutability": "view",
      "type": "function"
    },
    {
      "inputs": [],
      "name": "MAXIMUM_DELAY",
      "outputs": [
        {
          "internalType": "uint256",
          "name": "",
          "type": "uint256"
        }
      ],
      "stateMutability": "view",
      "type": "function"
    },
    {
      "inputs": [],
      "name": "MINIMUM_DELAY",
      "outputs": [
        {
          "internalType": "uint256",
          "name": "",
          "type": "uint256"
        }
      ],
      "stateMutability": "view",
      "type": "function"
    },
    {
      "inputs": [],
      "name": "acceptAdmin",
      "outputs": [],
      "stateMutability": "nonpayable",
      "type": "function"
    },
    {
      "inputs": [],
      "name": "admin",
      "outputs": [
        {
          "internalType": "address",
          "name": "",
          "type": "address"
        }
      ],
      "stateMutability": "view",
      "type": "function"
    },
    {
      "inputs": [
        {
          "internalType": "address",
          "name": "target",
          "type": "address"
        },
        {
          "internalType": "uint256",
          "name": "value",
          "type": "uint256"
        },
        {
          "internalType": "string",
          "name": "signature",
          "type": "string"
        },
        {
          "internalType": "bytes",
          "name": "data",
          "type": "bytes"
        },
        {
          "internalType": "uint256",
          "name": "eta",
          "type": "uint256"
        }
      ],
      "name": "cancelTransaction",
      "outputs": [],
      "stateMutability": "nonpayable",
      "type": "function"
    },
    {
      "inputs": [],
      "name": "delay",
      "outputs": [
        {
          "internalType": "uint256",
          "name": "",
          "type": "uint256"
        }
      ],
      "stateMutability": "view",
      "type": "function"
    },
    {
      "inputs": [
        {
          "internalType": "address",
          "name": "target",
          "type": "address"
        },
        {
          "internalType": "uint256",
          "name": "value",
          "type": "uint256"
        },
        {
          "internalType": "string",
          "name": "signature",
          "type": "string"
        },
        {
          "internalType": "bytes",
          "name": "data",
          "type": "bytes"
        },
        {
          "internalType": "uint256",
          "name": "eta",
          "type": "uint256"
        }
      ],
      "name": "executeTransaction",
      "outputs": [
        {
          "internalType": "bytes",
          "name": "",
          "type": "bytes"
        }
      ],
      "stateMutability": "nonpayable",
      "type": "function"
    },
    {
      "inputs": [],
      "name": "pendingAdmin",
      "outputs": [
        {
          "internalType": "address",
          "name": "",
          "type": "address"
        }
      ],
      "stateMutability": "view",
      "type": "function"
    },
    {
      "inputs": [
        {
          "internalType": "address",
          "name": "target",
          "type": "address"
        },
        {
          "internalType": "uint256",
          "name": "value",
          "type": "uint256"
        },
        {
          "internalType": "string",
          "name": "signature",
          "type": "string"
        },
        {
          "internalType": "bytes",
          "name": "data",
          "type": "bytes"
        },
        {
          "internalType": "uint256",
          "name": "eta",
          "type": "uint256"
        }
      ],
      "name": "queueTransaction",
      "outputs": [
        {
          "internalType": "bytes32",
          "name": "",
          "type": "bytes32"
        }
      ],
      "stateMutability": "nonpayable",
      "type": "function"
    },
    {
      "inputs": [
        {
          "internalType": "bytes32",
          "name": "",
          "type": "bytes32"
        }
      ],
      "name": "queuedTransactions",
      "outputs": [
        {
          "internalType": "bool",
          "name": "",
          "type": "bool"
        }
      ],
      "stateMutability": "view",
      "type": "function"
    },
    {
      "inputs": [
        {
          "internalType": "uint256",
          "name": "delay_",
          "type": "uint256"
        }
      ],
      "name": "setDelay",
      "outputs": [],
      "stateMutability": "nonpayable",
      "type": "function"
    },
    {
      "inputs": [
        {
          "internalType": "address",
          "name": "admin_",
          "type": "address"
        }
      ],
      "name": "setFirstAdmin",
      "outputs": [],
      "stateMutability": "nonpayable",
      "type": "function"
    },
    {
      "inputs": [
        {
          "internalType": "address",
          "name": "pendingAdmin_",
          "type": "address"
        }
      ],
      "name": "setPendingAdmin",
      "outputs": [],
      "stateMutability": "nonpayable",
      "type": "function"
    },
    {
      "stateMutability": "payable",
      "type": "receive"
    }
  ],
  "transactionHash": "0x15dd3844c76baa20b01ad24f8c623a34f1865060a295af513d84677daf0b95b9",
  "args": [
    "0x61c461EcC993aaDEB7e4b47E96d1B8cC37314B20",
    172800
  ],
  "solcInputHash": "9e517defdbb81df89f3b171c55f84a96",
  "bytecode": "0x608060405234801561001057600080fd5b5060405161170438038061170483398101604081905261002f91610165565b6202a3008110156100af576040805162461bcd60e51b81526020600482015260248101919091527f426c6565707344414f4578656375746f723a3a636f6e7374727563746f723a2060448201527f44656c6179206d75737420657863656564206d696e696d756d2064656c61792e60648201526084015b60405180910390fd5b62278d008111156101325760405162461bcd60e51b815260206004820152604160248201527f426c6565707344414f4578656375746f723a3a73657444656c61793a2044656c60448201527f6179206d757374206e6f7420657863656564206d6178696d756d2064656c61796064820152601760f91b608482015260a4016100a6565b600080546001600160a01b039093166001600160a01b03199384168117909155600180549093161790915560035561019f565b6000806040838503121561017857600080fd5b82516001600160a01b038116811461018f57600080fd5b6020939093015192949293505050565b611556806101ae6000396000f3fe6080604052600436106100d55760003560e01c806372f30ea011610079578063c1a287e211610056578063c1a287e21461024d578063e177246e14610264578063f2b0653714610284578063f851a440146102c457005b806372f30ea0146101ff5780637d645fab1461021f578063b1b43ae51461023657005b80633a66f901116100b25780633a66f9011461017b5780634dd18bf5146101a9578063591fcdfe146101c95780636a42b8f8146101e957005b80630825f38f146100de5780630e18b68114610114578063267822471461012957005b366100dc57005b005b3480156100ea57600080fd5b506100fe6100f936600461126d565b6102f1565b60405161010b9190611398565b60405180910390f35b34801561012057600080fd5b506100dc610823565b34801561013557600080fd5b506002546101569073ffffffffffffffffffffffffffffffffffffffff1681565b60405173ffffffffffffffffffffffffffffffffffffffff909116815260200161010b565b34801561018757600080fd5b5061019b61019636600461126d565b610952565b60405190815260200161010b565b3480156101b557600080fd5b506100dc6101c43660046113b2565b610ba6565b3480156101d557600080fd5b506100dc6101e436600461126d565b610cca565b3480156101f557600080fd5b5061019b60035481565b34801561020b57600080fd5b506100dc61021a3660046113b2565b610e56565b34801561022b57600080fd5b5061019b62278d0081565b34801561024257600080fd5b5061019b6202a30081565b34801561025957600080fd5b5061019b6212750081565b34801561027057600080fd5b506100dc61027f3660046113cd565b610f4d565b34801561029057600080fd5b506102b461029f3660046113cd565b60046020526000908152604090205460ff1681565b604051901515815260200161010b565b3480156102d057600080fd5b506001546101569073ffffffffffffffffffffffffffffffffffffffff1681565b60015460609073ffffffffffffffffffffffffffffffffffffffff1633146103c6576040517f08c379a000000000000000000000000000000000000000000000000000000000815260206004820152604160248201527f426c6565707344414f4578656375746f723a3a657865637574655472616e736160448201527f6374696f6e3a2043616c6c206d75737420636f6d652066726f6d2061646d696e60648201527f2e00000000000000000000000000000000000000000000000000000000000000608482015260a4015b60405180910390fd5b600086868686866040516020016103e19594939291906113e6565b604080517fffffffffffffffffffffffffffffffffffffffffffffffffffffffffffffffe081840301815291815281516020928301206000818152600490935291205490915060ff166104dc576040517f08c379a000000000000000000000000000000000000000000000000000000000815260206004820152604660248201527f426c6565707344414f4578656375746f723a3a657865637574655472616e736160448201527f6374696f6e3a205472616e73616374696f6e206861736e2774206265656e207160648201527f75657565642e0000000000000000000000000000000000000000000000000000608482015260a4016103bd565b82421015610592576040517f08c379a000000000000000000000000000000000000000000000000000000000815260206004820152604e60248201527f426c6565707344414f4578656375746f723a3a657865637574655472616e736160448201527f6374696f6e3a205472616e73616374696f6e206861736e27742073757270617360648201527f7365642074696d65206c6f636b2e000000000000000000000000000000000000608482015260a4016103bd565b61059f6212750084611440565b42111561062e576040517f08c379a000000000000000000000000000000000000000000000000000000000815260206004820152603c60248201527f426c6565707344414f4578656375746f723a3a657865637574655472616e736160448201527f6374696f6e3a205472616e73616374696f6e206973207374616c652e0000000060648201526084016103bd565b600081815260046020526040902080547fffffffffffffffffffffffffffffffffffffffffffffffffffffffffffffff00169055845160609061067257508361069e565b85805190602001208560405160200161068c92919061147f565b60405160208183030381529060405290505b6000808973ffffffffffffffffffffffffffffffffffffffff1689846040516106c791906114c7565b60006040518083038185875af1925050503d8060008114610704576040519150601f19603f3d011682016040523d82523d6000602084013e610709565b606091505b5091509150816107c1576040517f08c379a000000000000000000000000000000000000000000000000000000000815260206004820152604660248201527f426c6565707344414f4578656375746f723a3a657865637574655472616e736160448201527f6374696f6e3a205472616e73616374696f6e20657865637574696f6e2072657660648201527f65727465642e0000000000000000000000000000000000000000000000000000608482015260a4016103bd565b8973ffffffffffffffffffffffffffffffffffffffff16847fa560e3198060a2f10670c1ec5b403077ea6ae93ca8de1c32b451dc1a943cd6e78b8b8b8b60405161080e94939291906114e3565b60405180910390a39998505050505050505050565b60025473ffffffffffffffffffffffffffffffffffffffff1633146108f0576040517f08c379a000000000000000000000000000000000000000000000000000000000815260206004820152604160248201527f426c6565707344414f4578656375746f723a3a61636365707441646d696e3a2060448201527f43616c6c206d75737420636f6d652066726f6d2070656e64696e6741646d696e60648201527f2e00000000000000000000000000000000000000000000000000000000000000608482015260a4016103bd565b60018054337fffffffffffffffffffffffff000000000000000000000000000000000000000091821681179092556002805490911690556040517f71614071b88dee5e0b2ae578a9dd7b2ebbe9ae832ba419dc0242cd065a290b6c90600090a2565b60015460009073ffffffffffffffffffffffffffffffffffffffff1633146109fc576040517f08c379a000000000000000000000000000000000000000000000000000000000815260206004820152603f60248201527f426c6565707344414f4578656375746f723a3a71756575655472616e7361637460448201527f696f6e3a2043616c6c206d75737420636f6d652066726f6d2061646d696e2e0060648201526084016103bd565b600354610a099042611440565b821015610abe576040517f08c379a000000000000000000000000000000000000000000000000000000000815260206004820152605260248201527f426c6565707344414f4578656375746f723a3a71756575655472616e7361637460448201527f696f6e3a20457374696d6174656420657865637574696f6e20626c6f636b206d60648201527f75737420736174697366792064656c61792e0000000000000000000000000000608482015260a4016103bd565b60008686868686604051602001610ad99594939291906113e6565b604080517fffffffffffffffffffffffffffffffffffffffffffffffffffffffffffffffe081840301815282825280516020918201206000818152600490925291902080547fffffffffffffffffffffffffffffffffffffffffffffffffffffffffffffff00166001179055915073ffffffffffffffffffffffffffffffffffffffff88169082907f76e2796dc3a81d57b0e8504b647febcbeeb5f4af818e164f11eef8131a6a763f90610b94908a908a908a908a906114e3565b60405180910390a39695505050505050565b333014610c5b576040517f08c379a000000000000000000000000000000000000000000000000000000000815260206004820152604a60248201527f426c6565707344414f4578656375746f723a3a73657450656e64696e6741646d60448201527f696e3a2043616c6c206d75737420636f6d652066726f6d20426c65657073444160648201527f4f4578656375746f722e00000000000000000000000000000000000000000000608482015260a4016103bd565b600280547fffffffffffffffffffffffff00000000000000000000000000000000000000001673ffffffffffffffffffffffffffffffffffffffff83169081179091556040517f69d78e38a01985fbb1462961809b4b2d65531bc93b2b94037f3334b82ca4a75690600090a250565b60015473ffffffffffffffffffffffffffffffffffffffff163314610d7357604080517f08c379a00000000000000000000000000000000000000000000000000000000081526020600482015260248101919091527f426c6565707344414f4578656375746f723a3a63616e63656c5472616e73616360448201527f74696f6e3a2043616c6c206d75737420636f6d652066726f6d2061646d696e2e60648201526084016103bd565b60008585858585604051602001610d8e9594939291906113e6565b604080517fffffffffffffffffffffffffffffffffffffffffffffffffffffffffffffffe081840301815282825280516020918201206000818152600490925291902080547fffffffffffffffffffffffffffffffffffffffffffffffffffffffffffffff00169055915073ffffffffffffffffffffffffffffffffffffffff87169082907f2fffc091a501fd91bfbff27141450d3acb40fb8e6d8382b243ec7a812a3aaf8790610e469089908990899089906114e3565b60405180910390a3505050505050565b60005473ffffffffffffffffffffffffffffffffffffffff163314610ed7576040517f08c379a000000000000000000000000000000000000000000000000000000000815260206004820152601560248201527f46495253545f54494d455f41444d494e5f4f4e4c59000000000000000000000060448201526064016103bd565b600080547fffffffffffffffffffffffff000000000000000000000000000000000000000090811682556001805473ffffffffffffffffffffffffffffffffffffffff851692168217905560405190917f71614071b88dee5e0b2ae578a9dd7b2ebbe9ae832ba419dc0242cd065a290b6c91a250565b333014611002576040517f08c379a000000000000000000000000000000000000000000000000000000000815260206004820152604360248201527f426c6565707344414f4578656375746f723a3a73657444656c61793a2043616c60448201527f6c206d75737420636f6d652066726f6d20426c6565707344414f45786563757460648201527f6f722e0000000000000000000000000000000000000000000000000000000000608482015260a4016103bd565b6202a300811015611095576040517f08c379a000000000000000000000000000000000000000000000000000000000815260206004820152603d60248201527f426c6565707344414f4578656375746f723a3a73657444656c61793a2044656c60448201527f6179206d75737420657863656564206d696e696d756d2064656c61792e00000060648201526084016103bd565b62278d0081111561114e576040517f08c379a000000000000000000000000000000000000000000000000000000000815260206004820152604160248201527f426c6565707344414f4578656375746f723a3a73657444656c61793a2044656c60448201527f6179206d757374206e6f7420657863656564206d6178696d756d2064656c617960648201527f2e00000000000000000000000000000000000000000000000000000000000000608482015260a4016103bd565b600381905560405181907f948b1f6a42ee138b7e34058ba85a37f716d55ff25ff05a763f15bed6a04c8d2c90600090a250565b803573ffffffffffffffffffffffffffffffffffffffff811681146111a557600080fd5b919050565b7f4e487b7100000000000000000000000000000000000000000000000000000000600052604160045260246000fd5b600067ffffffffffffffff808411156111f4576111f46111aa565b604051601f85017fffffffffffffffffffffffffffffffffffffffffffffffffffffffffffffffe0908116603f0116810190828211818310171561123a5761123a6111aa565b8160405280935085815286868601111561125357600080fd5b858560208301376000602087830101525050509392505050565b600080600080600060a0868803121561128557600080fd5b61128e86611181565b945060208601359350604086013567ffffffffffffffff808211156112b257600080fd5b818801915088601f8301126112c657600080fd5b6112d5898335602085016111d9565b945060608801359150808211156112eb57600080fd5b508601601f810188136112fd57600080fd5b61130c888235602084016111d9565b95989497509295608001359392505050565b60005b83811015611339578181015183820152602001611321565b83811115611348576000848401525b50505050565b6000815180845261136681602086016020860161131e565b601f017fffffffffffffffffffffffffffffffffffffffffffffffffffffffffffffffe0169290920160200192915050565b6020815260006113ab602083018461134e565b9392505050565b6000602082840312156113c457600080fd5b6113ab82611181565b6000602082840312156113df57600080fd5b5035919050565b73ffffffffffffffffffffffffffffffffffffffff8616815284602082015260a06040820152600061141b60a083018661134e565b828103606084015261142d818661134e565b9150508260808301529695505050505050565b6000821982111561147a577f4e487b7100000000000000000000000000000000000000000000000000000000600052601160045260246000fd5b500190565b7fffffffff0000000000000000000000000000000000000000000000000000000083168152600082516114b981600485016020870161131e565b919091016004019392505050565b600082516114d981846020870161131e565b9190910192915050565b8481526080602082015260006114fc608083018661134e565b828103604084015261150e818661134e565b9150508260608301529594505050505056fea26469706673582212203a11eaa13cad96f9c647faab0b381cc31720156b88668bc74e157085333fe64064736f6c63430008090033",
  "devdoc": {
    "kind": "dev",
    "methods": {},
    "version": 1
  },
  "userdoc": {
    "kind": "user",
    "methods": {
      "setFirstAdmin(address)": {
        "notice": "allow to set admin first time to resolve cyclic dependencies between Governor and this TImeLock"
      }
    },
    "version": 1
  },
  "storageLayout": {
    "storage": [
      {
        "astId": 66,
        "contract": "src/bleepsdao/BleepsDAOExecutor.sol:BleepsDAOExecutor",
        "label": "firstAdmin",
        "offset": 0,
        "slot": "0",
        "type": "t_address"
      },
      {
        "astId": 68,
        "contract": "src/bleepsdao/BleepsDAOExecutor.sol:BleepsDAOExecutor",
        "label": "admin",
        "offset": 0,
        "slot": "1",
        "type": "t_address"
      },
      {
        "astId": 70,
        "contract": "src/bleepsdao/BleepsDAOExecutor.sol:BleepsDAOExecutor",
        "label": "pendingAdmin",
        "offset": 0,
        "slot": "2",
        "type": "t_address"
      },
      {
        "astId": 72,
        "contract": "src/bleepsdao/BleepsDAOExecutor.sol:BleepsDAOExecutor",
        "label": "delay",
        "offset": 0,
        "slot": "3",
        "type": "t_uint256"
      },
      {
        "astId": 76,
        "contract": "src/bleepsdao/BleepsDAOExecutor.sol:BleepsDAOExecutor",
        "label": "queuedTransactions",
        "offset": 0,
        "slot": "4",
        "type": "t_mapping(t_bytes32,t_bool)"
      }
    ],
    "types": {
      "t_address": {
        "encoding": "inplace",
        "label": "address",
        "numberOfBytes": "20"
      },
      "t_bool": {
        "encoding": "inplace",
        "label": "bool",
        "numberOfBytes": "1"
      },
      "t_bytes32": {
        "encoding": "inplace",
        "label": "bytes32",
        "numberOfBytes": "32"
      },
      "t_mapping(t_bytes32,t_bool)": {
        "encoding": "mapping",
        "key": "t_bytes32",
        "label": "mapping(bytes32 => bool)",
        "numberOfBytes": "32",
        "value": "t_bool"
      },
      "t_uint256": {
        "encoding": "inplace",
        "label": "uint256",
        "numberOfBytes": "32"
      }
    }
  }
}