{
  "address": "0x1A6dF6acE21E304860750a5723362C1e2A42f636",
  "abi": [
    {
      "inputs": [
        {
          "internalType": "contract Bleeps",
          "name": "bleeps",
          "type": "address"
        },
        {
          "internalType": "uint256",
          "name": "price",
          "type": "uint256"
        },
        {
          "internalType": "bytes32",
          "name": "whitelistMerkleRoot",
          "type": "bytes32"
        },
        {
          "internalType": "address payable",
          "name": "recipient",
          "type": "address"
        },
        {
          "internalType": "contract IERC721",
          "name": "mandalas",
          "type": "address"
        },
        {
          "internalType": "uint256",
          "name": "mandalasDiscountPercentage",
          "type": "uint256"
        }
      ],
      "stateMutability": "nonpayable",
      "type": "constructor"
    },
    {
      "inputs": [
        {
          "internalType": "uint256",
          "name": "passId",
          "type": "uint256"
        }
      ],
      "name": "isPassUsed",
      "outputs": [
        {
          "internalType": "bool",
          "name": "",
          "type": "bool"
        }
      ],
      "stateMutability": "nonpayable",
      "type": "function"
    },
    {
      "inputs": [
        {
          "internalType": "uint16",
          "name": "id",
          "type": "uint16"
        },
        {
          "internalType": "address",
          "name": "to",
          "type": "address"
        }
      ],
      "name": "mint",
      "outputs": [],
      "stateMutability": "payable",
      "type": "function"
    },
    {
      "inputs": [
        {
          "internalType": "uint16",
          "name": "id",
          "type": "uint16"
        },
        {
          "internalType": "address",
          "name": "to",
          "type": "address"
        },
        {
          "internalType": "uint256",
          "name": "passId",
          "type": "uint256"
        },
        {
          "internalType": "bytes",
          "name": "signature",
          "type": "bytes"
        },
        {
          "internalType": "bytes32[]",
          "name": "proof",
          "type": "bytes32[]"
        }
      ],
      "name": "mintWithSalePass",
      "outputs": [],
      "stateMutability": "payable",
      "type": "function"
    },
    {
      "inputs": [
        {
          "internalType": "address",
          "name": "purchaser",
          "type": "address"
        },
        {
          "internalType": "uint256[]",
          "name": "ids",
          "type": "uint256[]"
        }
      ],
      "name": "ownersAndPriceInfo",
      "outputs": [
        {
          "internalType": "address[]",
          "name": "addresses",
          "type": "address[]"
        },
        {
          "internalType": "uint256",
          "name": "price",
          "type": "uint256"
        },
        {
          "internalType": "bytes32",
          "name": "whitelistMerkleRoot",
          "type": "bytes32"
        },
        {
          "internalType": "uint256",
          "name": "mandalasDiscountPercentage",
          "type": "uint256"
        },
        {
          "internalType": "bool",
          "name": "hasMandalas",
          "type": "bool"
        }
      ],
      "stateMutability": "view",
      "type": "function"
    },
    {
      "inputs": [
        {
          "internalType": "address",
          "name": "purchaser",
          "type": "address"
        }
      ],
      "name": "priceInfo",
      "outputs": [
        {
          "internalType": "uint256",
          "name": "price",
          "type": "uint256"
        },
        {
          "internalType": "bytes32",
          "name": "whitelistMerkleRoot",
          "type": "bytes32"
        },
        {
          "internalType": "uint256",
          "name": "mandalasDiscountPercentage",
          "type": "uint256"
        },
        {
          "internalType": "bool",
          "name": "hasMandalas",
          "type": "bool"
        }
      ],
      "stateMutability": "view",
      "type": "function"
    }
  ],
  "transactionHash": "0x226f7cf01cca774f9a6df5362a8fc97c74e321e0ffbac168410948787b96e500",
  "args": [
    "0xE4388545184626042f1163Cf3c5F927B427eEf9b",
    "200000000000000000",
    "0x0000000000000000000000000000000000000000000000000000000000000000",
    "0xE53cd71271AcAdbeb0f64d9c8C62bBdDc8cA9e66",
    "0x4A219d8DE28C125edd354bBCc505cdc6eed771D7",
    20
  ],
  "solcInputHash": "1e84efe90c7cba450bc6635e5590356e",
  "bytecode": "0x6101406040523480156200001257600080fd5b506040516200183e3803806200183e83398101604081905262000035916200007c565b6001600160a01b0395861660805291851660a05290931660c05260e0929092526101005261012052620000ed565b6001600160a01b03811681146200007957600080fd5b50565b60008060008060008060c087890312156200009657600080fd5b8651620000a38162000063565b8096505060208701519450604087015193506060870151620000c58162000063565b6080880151909350620000d88162000063565b8092505060a087015190509295509295509295565b60805160a05160c05160e05161010051610120516116c962000175600039600081816103d701528181610585015261070c0152600081816103b60152818161056201526108710152600081816103f8015281816105a801526108a501526000610a960152600081816107e3015261099c0152600081816104930152610a3701526116c96000f3fe60806040526004361061005a5760003560e01c8063990b0f6011610043578063990b0f60146100bb5780639c205513146100eb578063d10bca8b146100fe57600080fd5b80632558e9331461005f5780636d048d5314610074575b600080fd5b61007261006d36600461116a565b61012f565b005b34801561008057600080fd5b5061009461008f36600461126c565b6103ae565b60408051948552602085019390935291830152151560608201526080015b60405180910390f35b3480156100c757600080fd5b506100db6100d6366004611290565b61042f565b60405190151581526020016100b2565b6100726100f93660046112a9565b61047b565b34801561010a57600080fd5b5061011e6101193660046112e0565b610489565b6040516100b2959493929190611368565b610200831061019f576040517f08c379a000000000000000000000000000000000000000000000000000000000815260206004820152600f60248201527f494e56414c49445f504153535f4944000000000000000000000000000000000060448201526064015b60405180910390fd5b60ff8311156102355760006101b66101008561140e565b60018054911b9150811615610227576040517f08c379a000000000000000000000000000000000000000000000000000000000815260206004820152601160248201527f504153535f414c52454144595f555345440000000000000000000000000000006044820152606401610196565b6001805490911790556102b0565b6000546001841b908116156102a6576040517f08c379a000000000000000000000000000000000000000000000000000000000815260206004820152601160248201527f504153535f414c52454144595f555345440000000000000000000000000000006044820152606401610196565b6000805490911790555b600061031b8385876040516020016102f792919091825260601b7fffffffffffffffffffffffffffffffffffffffff00000000000000000000000016602082015260340190565b604051602081830303815290604052805190602001206105df90919063ffffffff16565b905060006103298583610603565b90506103358382610664565b61039b576040517f08c379a000000000000000000000000000000000000000000000000000000000815260206004820152600d60248201527f494e56414c49445f50524f4f46000000000000000000000000000000000000006044820152606401610196565b6103a58787610731565b50505050505050565b6000806000807f00000000000000000000000000000000000000000000000000000000000000007f00000000000000000000000000000000000000000000000000000000000000007f000000000000000000000000000000000000000000000000000000000000000061042088610a8f565b93509350935093509193509193565b60006101ff82111561044357506000919050565b60ff82111561046b57600061045a6101008461140e565b60018054911b908116149392505050565b50600054600190911b9081161490565b6104858282610731565b5050565b60606000806000807f000000000000000000000000000000000000000000000000000000000000000073ffffffffffffffffffffffffffffffffffffffff1663a0554c2688886040518363ffffffff1660e01b81526004016104ec929190611425565b60006040518083038186803b15801561050457600080fd5b505afa158015610518573d6000803e3d6000fd5b505050506040513d6000823e601f3d9081017fffffffffffffffffffffffffffffffffffffffffffffffffffffffffffffffe016820160405261055e919081019061147a565b94507f000000000000000000000000000000000000000000000000000000000000000093507f000000000000000000000000000000000000000000000000000000000000000092507f000000000000000000000000000000000000000000000000000000000000000091506105d288610a8f565b9050939792965093509350565b60008060006105ee8585610bf8565b915091506105fb81610c68565b509392505050565b6000828260405160200161064692919091825260601b7fffffffffffffffffffffffffffffffffffffffff00000000000000000000000016602082015260340190565b60405160208183030381529060405280519060200120905092915050565b6000805b835181101561070857600084828151811061068557610685611514565b60200260200101519050808410156106c85760408051602081018690529081018290526060016040516020818303038152906040528051906020012093506106f5565b60408051602081018390529081018590526060016040516020818303038152906040528051906020012093505b508061070081611543565b915050610668565b50507f000000000000000000000000000000000000000000000000000000000000000014919050565b6102408261ffff16106107a0576040517f08c379a000000000000000000000000000000000000000000000000000000000815260206004820152600d60248201527f494e56414c49445f534f554e44000000000000000000000000000000000000006044820152606401610196565b60006107b560106103ff600686901c166115ab565b905080600614806107c65750806008145b1561086f573373ffffffffffffffffffffffffffffffffffffffff7f0000000000000000000000000000000000000000000000000000000000000000161461086a576040517f08c379a000000000000000000000000000000000000000000000000000000000815260206004820152601960248201527f546865736520626c6565707320617265207265736572766564000000000000006044820152606401610196565b6109e8565b7f000000000000000000000000000000000000000000000000000000000000000061089933610a8f565b156108e15760646108ca7f0000000000000000000000000000000000000000000000000000000000000000836115bf565b6108d491906115fc565b6108de908261140e565b90505b8034101561094b576040517f08c379a000000000000000000000000000000000000000000000000000000000815260206004820152600a60248201527f4e4f545f454e4f554748000000000000000000000000000000000000000000006044820152606401610196565b336108fc610959833461140e565b6040518115909202916000818181858888f19350505050158015610981573d6000803e3d6000fd5b5060405173ffffffffffffffffffffffffffffffffffffffff7f0000000000000000000000000000000000000000000000000000000000000000169082156108fc029083906000818181858888f193505050501580156109e5573d6000803e3d6000fd5b50505b6040517f9c20551300000000000000000000000000000000000000000000000000000000815261ffff8416600482015273ffffffffffffffffffffffffffffffffffffffff83811660248301527f00000000000000000000000000000000000000000000000000000000000000001690639c20551390604401600060405180830381600087803b158015610a7b57600080fd5b505af11580156103a5573d6000803e3d6000fd5b60008060007f000000000000000000000000000000000000000000000000000000000000000073ffffffffffffffffffffffffffffffffffffffff1684604051602401610af8919073ffffffffffffffffffffffffffffffffffffffff91909116815260200190565b604080517fffffffffffffffffffffffffffffffffffffffffffffffffffffffffffffffe08184030181529181526020820180517bffffffffffffffffffffffffffffffffffffffffffffffffffffffff167f70a082310000000000000000000000000000000000000000000000000000000017905251610b799190611610565b600060405180830381855afa9150503d8060008114610bb4576040519150601f19603f3d011682016040523d82523d6000602084013e610bb9565b606091505b50915091506000828015610bce575060008251115b610bd9576000610bed565b81806020019051810190610bed919061164b565b151595945050505050565b600080825160411415610c2f5760208301516040840151606085015160001a610c2387828585610ec4565b94509450505050610c61565b825160401415610c595760208301516040840151610c4e868383610fdc565b935093505050610c61565b506000905060025b9250929050565b6000816004811115610c7c57610c7c611664565b1415610c855750565b6001816004811115610c9957610c99611664565b1415610d01576040517f08c379a000000000000000000000000000000000000000000000000000000000815260206004820152601860248201527f45434453413a20696e76616c6964207369676e617475726500000000000000006044820152606401610196565b6002816004811115610d1557610d15611664565b1415610d7d576040517f08c379a000000000000000000000000000000000000000000000000000000000815260206004820152601f60248201527f45434453413a20696e76616c6964207369676e6174757265206c656e677468006044820152606401610196565b6003816004811115610d9157610d91611664565b1415610e1f576040517f08c379a000000000000000000000000000000000000000000000000000000000815260206004820152602260248201527f45434453413a20696e76616c6964207369676e6174757265202773272076616c60448201527f75650000000000000000000000000000000000000000000000000000000000006064820152608401610196565b6004816004811115610e3357610e33611664565b1415610ec1576040517f08c379a000000000000000000000000000000000000000000000000000000000815260206004820152602260248201527f45434453413a20696e76616c6964207369676e6174757265202776272076616c60448201527f75650000000000000000000000000000000000000000000000000000000000006064820152608401610196565b50565b6000807f7fffffffffffffffffffffffffffffff5d576e7357a4501ddfe92f46681b20a0831115610efb5750600090506003610fd3565b8460ff16601b14158015610f1357508460ff16601c14155b15610f245750600090506004610fd3565b6040805160008082526020820180845289905260ff881692820192909252606081018690526080810185905260019060a0016020604051602081039080840390855afa158015610f78573d6000803e3d6000fd5b50506040517fffffffffffffffffffffffffffffffffffffffffffffffffffffffffffffffe0015191505073ffffffffffffffffffffffffffffffffffffffff8116610fcc57600060019250925050610fd3565b9150600090505b94509492505050565b6000807f7fffffffffffffffffffffffffffffffffffffffffffffffffffffffffffffff831660ff84901c601b0161101687828885610ec4565b935093505050935093915050565b803561ffff8116811461103657600080fd5b919050565b73ffffffffffffffffffffffffffffffffffffffff81168114610ec157600080fd5b7f4e487b7100000000000000000000000000000000000000000000000000000000600052604160045260246000fd5b604051601f82017fffffffffffffffffffffffffffffffffffffffffffffffffffffffffffffffe016810167ffffffffffffffff811182821017156110d3576110d361105d565b604052919050565b600067ffffffffffffffff8211156110f5576110f561105d565b5060051b60200190565b600082601f83011261111057600080fd5b81356020611125611120836110db565b61108c565b82815260059290921b8401810191818101908684111561114457600080fd5b8286015b8481101561115f5780358352918301918301611148565b509695505050505050565b600080600080600060a0868803121561118257600080fd5b61118b86611024565b945060208087013561119c8161103b565b945060408701359350606087013567ffffffffffffffff808211156111c057600080fd5b818901915089601f8301126111d457600080fd5b8135818111156111e6576111e661105d565b611216847fffffffffffffffffffffffffffffffffffffffffffffffffffffffffffffffe0601f8401160161108c565b8181528b8583860101111561122a57600080fd5b81858501868301376000918101909401529193506080880135918083111561125157600080fd5b505061125f888289016110ff565b9150509295509295909350565b60006020828403121561127e57600080fd5b81356112898161103b565b9392505050565b6000602082840312156112a257600080fd5b5035919050565b600080604083850312156112bc57600080fd5b6112c583611024565b915060208301356112d58161103b565b809150509250929050565b6000806000604084860312156112f557600080fd5b83356113008161103b565b9250602084013567ffffffffffffffff8082111561131d57600080fd5b818601915086601f83011261133157600080fd5b81358181111561134057600080fd5b8760208260051b850101111561135557600080fd5b6020830194508093505050509250925092565b60a0808252865190820181905260009060209060c0840190828a01845b828110156113b757815173ffffffffffffffffffffffffffffffffffffffff1684529284019290840190600101611385565b5050509083019690965250604081019390935260608301919091521515608090910152919050565b7f4e487b7100000000000000000000000000000000000000000000000000000000600052601160045260246000fd5b600082821015611420576114206113df565b500390565b6020815281602082015260007f07ffffffffffffffffffffffffffffffffffffffffffffffffffffffffffffff83111561145e57600080fd5b8260051b80856040850137600092016040019182525092915050565b6000602080838503121561148d57600080fd5b825167ffffffffffffffff8111156114a457600080fd5b8301601f810185136114b557600080fd5b80516114c3611120826110db565b81815260059190911b820183019083810190878311156114e257600080fd5b928401925b828410156115095783516114fa8161103b565b825292840192908401906114e7565b979650505050505050565b7f4e487b7100000000000000000000000000000000000000000000000000000000600052603260045260246000fd5b60007fffffffffffffffffffffffffffffffffffffffffffffffffffffffffffffffff821415611575576115756113df565b5060010190565b7f4e487b7100000000000000000000000000000000000000000000000000000000600052601260045260246000fd5b6000826115ba576115ba61157c565b500690565b6000817fffffffffffffffffffffffffffffffffffffffffffffffffffffffffffffffff04831182151516156115f7576115f76113df565b500290565b60008261160b5761160b61157c565b500490565b6000825160005b818110156116315760208186018101518583015201611617565b81811115611640576000828501525b509190910192915050565b60006020828403121561165d57600080fd5b5051919050565b7f4e487b7100000000000000000000000000000000000000000000000000000000600052602160045260246000fdfea264697066735822122055c0cf8637dc9ddfe111f47b2f9073c3ff41963a70745cb979a9183a312f689064736f6c63430008090033",
  "devdoc": {
    "kind": "dev",
    "methods": {},
    "version": 1
  },
  "userdoc": {
    "kind": "user",
    "methods": {},
    "version": 1
  },
  "storageLayout": {
    "storage": [
      {
        "astId": 9124,
        "contract": "src/bleeps/BleepsFixedPriceSale.sol:BleepsFixedPriceSale",
        "label": "_passUsed_1",
        "offset": 0,
        "slot": "0",
        "type": "t_uint256"
      },
      {
        "astId": 9126,
        "contract": "src/bleeps/BleepsFixedPriceSale.sol:BleepsFixedPriceSale",
        "label": "_passUsed_2",
        "offset": 0,
        "slot": "1",
        "type": "t_uint256"
      }
    ],
    "types": {
      "t_uint256": {
        "encoding": "inplace",
        "label": "uint256",
        "numberOfBytes": "32"
      }
    }
  }
}