{
  "address": "0x6492c32D0FEbad28d6Ed24B711C29bFCe8d24e45",
  "abi": [
    {
      "inputs": [
        {
          "internalType": "address",
          "name": "openseaProxyRegistry",
          "type": "address"
        },
        {
          "internalType": "address",
          "name": "initialOwner",
          "type": "address"
        },
        {
          "internalType": "address",
          "name": "initialTokenURIAdmin",
          "type": "address"
        },
        {
          "internalType": "address",
          "name": "initialRoyaltyAdmin",
          "type": "address"
        },
        {
          "internalType": "address",
          "name": "initialMinterAdmin",
          "type": "address"
        },
        {
          "internalType": "address",
          "name": "initialGuardian",
          "type": "address"
        },
        {
          "internalType": "contract ITokenURI",
          "name": "initialTokenURIContract",
          "type": "address"
        },
        {
          "internalType": "address",
          "name": "initialCheckpointingDisabler",
          "type": "address"
        }
      ],
      "stateMutability": "nonpayable",
      "type": "constructor"
    },
    {
      "anonymous": false,
      "inputs": [
        {
          "indexed": true,
          "internalType": "address",
          "name": "owner",
          "type": "address"
        },
        {
          "indexed": true,
          "internalType": "address",
          "name": "approved",
          "type": "address"
        },
        {
          "indexed": true,
          "internalType": "uint256",
          "name": "tokenId",
          "type": "uint256"
        }
      ],
      "name": "Approval",
      "type": "event"
    },
    {
      "anonymous": false,
      "inputs": [
        {
          "indexed": true,
          "internalType": "address",
          "name": "owner",
          "type": "address"
        },
        {
          "indexed": true,
          "internalType": "address",
          "name": "operator",
          "type": "address"
        },
        {
          "indexed": false,
          "internalType": "bool",
          "name": "approved",
          "type": "bool"
        }
      ],
      "name": "ApprovalForAll",
      "type": "event"
    },
    {
      "anonymous": false,
      "inputs": [],
      "name": "CheckpointingDisabled",
      "type": "event"
    },
    {
      "anonymous": false,
      "inputs": [
        {
          "indexed": false,
          "internalType": "address",
          "name": "newCheckpointingDisabler",
          "type": "address"
        }
      ],
      "name": "CheckpointingDisablerSet",
      "type": "event"
    },
    {
      "anonymous": false,
      "inputs": [
        {
          "indexed": true,
          "internalType": "address",
          "name": "delegator",
          "type": "address"
        },
        {
          "indexed": true,
          "internalType": "address",
          "name": "fromDelegate",
          "type": "address"
        },
        {
          "indexed": true,
          "internalType": "address",
          "name": "toDelegate",
          "type": "address"
        }
      ],
      "name": "DelegateChanged",
      "type": "event"
    },
    {
      "anonymous": false,
      "inputs": [
        {
          "indexed": true,
          "internalType": "address",
          "name": "delegate",
          "type": "address"
        },
        {
          "indexed": false,
          "internalType": "uint256",
          "name": "previousBalance",
          "type": "uint256"
        },
        {
          "indexed": false,
          "internalType": "uint256",
          "name": "newBalance",
          "type": "uint256"
        }
      ],
      "name": "DelegateVotesChanged",
      "type": "event"
    },
    {
      "anonymous": false,
      "inputs": [
        {
          "indexed": false,
          "internalType": "address",
          "name": "newGuardian",
          "type": "address"
        }
      ],
      "name": "GuardianSet",
      "type": "event"
    },
    {
      "anonymous": false,
      "inputs": [
        {
          "indexed": false,
          "internalType": "address",
          "name": "newMinterAdmin",
          "type": "address"
        }
      ],
      "name": "MinterAdminSet",
      "type": "event"
    },
    {
      "anonymous": false,
      "inputs": [
        {
          "indexed": false,
          "internalType": "address",
          "name": "newMinter",
          "type": "address"
        }
      ],
      "name": "MinterSet",
      "type": "event"
    },
    {
      "anonymous": false,
      "inputs": [
        {
          "indexed": true,
          "internalType": "address",
          "name": "previousOwner",
          "type": "address"
        },
        {
          "indexed": true,
          "internalType": "address",
          "name": "newOwner",
          "type": "address"
        }
      ],
      "name": "OwnershipTransferred",
      "type": "event"
    },
    {
      "anonymous": false,
      "inputs": [
        {
          "indexed": false,
          "internalType": "address",
          "name": "newRoyaltyAdmin",
          "type": "address"
        }
      ],
      "name": "RoyaltyAdminSet",
      "type": "event"
    },
    {
      "anonymous": false,
      "inputs": [
        {
          "indexed": false,
          "internalType": "address",
          "name": "newTokenURIAdmin",
          "type": "address"
        }
      ],
      "name": "TokenURIAdminSet",
      "type": "event"
    },
    {
      "anonymous": false,
      "inputs": [
        {
          "indexed": false,
          "internalType": "contract ITokenURI",
          "name": "newTokenURIContract",
          "type": "address"
        }
      ],
      "name": "TokenURIContractSet",
      "type": "event"
    },
    {
      "anonymous": false,
      "inputs": [
        {
          "indexed": true,
          "internalType": "address",
          "name": "from",
          "type": "address"
        },
        {
          "indexed": true,
          "internalType": "address",
          "name": "to",
          "type": "address"
        },
        {
          "indexed": true,
          "internalType": "uint256",
          "name": "tokenId",
          "type": "uint256"
        }
      ],
      "name": "Transfer",
      "type": "event"
    },
    {
      "inputs": [],
      "name": "DELEGATION_TYPEHASH",
      "outputs": [
        {
          "internalType": "bytes32",
          "name": "",
          "type": "bytes32"
        }
      ],
      "stateMutability": "view",
      "type": "function"
    },
    {
      "inputs": [],
      "name": "DOMAIN_SEPARATOR",
      "outputs": [
        {
          "internalType": "bytes32",
          "name": "",
          "type": "bytes32"
        }
      ],
      "stateMutability": "view",
      "type": "function"
    },
    {
      "inputs": [],
      "name": "DOMAIN_TYPEHASH",
      "outputs": [
        {
          "internalType": "bytes32",
          "name": "",
          "type": "bytes32"
        }
      ],
      "stateMutability": "view",
      "type": "function"
    },
    {
      "inputs": [],
      "name": "PERMIT_FOR_ALL_TYPEHASH",
      "outputs": [
        {
          "internalType": "bytes32",
          "name": "",
          "type": "bytes32"
        }
      ],
      "stateMutability": "view",
      "type": "function"
    },
    {
      "inputs": [],
      "name": "PERMIT_TYPEHASH",
      "outputs": [
        {
          "internalType": "bytes32",
          "name": "",
          "type": "bytes32"
        }
      ],
      "stateMutability": "view",
      "type": "function"
    },
    {
      "inputs": [
        {
          "internalType": "address",
          "name": "operator",
          "type": "address"
        },
        {
          "internalType": "uint256",
          "name": "id",
          "type": "uint256"
        }
      ],
      "name": "approve",
      "outputs": [],
      "stateMutability": "nonpayable",
      "type": "function"
    },
    {
      "inputs": [
        {
          "internalType": "address",
          "name": "owner",
          "type": "address"
        }
      ],
      "name": "balanceOf",
      "outputs": [
        {
          "internalType": "uint256",
          "name": "balance",
          "type": "uint256"
        }
      ],
      "stateMutability": "view",
      "type": "function"
    },
    {
      "inputs": [],
      "name": "checkpointingDisabler",
      "outputs": [
        {
          "internalType": "address",
          "name": "",
          "type": "address"
        }
      ],
      "stateMutability": "view",
      "type": "function"
    },
    {
      "inputs": [
        {
          "internalType": "address",
          "name": "",
          "type": "address"
        },
        {
          "internalType": "uint32",
          "name": "",
          "type": "uint32"
        }
      ],
      "name": "checkpoints",
      "outputs": [
        {
          "internalType": "uint32",
          "name": "fromBlock",
          "type": "uint32"
        },
        {
          "internalType": "uint96",
          "name": "votes",
          "type": "uint96"
        }
      ],
      "stateMutability": "view",
      "type": "function"
    },
    {
      "inputs": [],
      "name": "contractURI",
      "outputs": [
        {
          "internalType": "string",
          "name": "",
          "type": "string"
        }
      ],
      "stateMutability": "view",
      "type": "function"
    },
    {
      "inputs": [],
      "name": "decimals",
      "outputs": [
        {
          "internalType": "uint8",
          "name": "",
          "type": "uint8"
        }
      ],
      "stateMutability": "view",
      "type": "function"
    },
    {
      "inputs": [
        {
          "internalType": "address",
          "name": "delegatee",
          "type": "address"
        }
      ],
      "name": "delegate",
      "outputs": [],
      "stateMutability": "nonpayable",
      "type": "function"
    },
    {
      "inputs": [
        {
          "internalType": "address",
          "name": "delegatee",
          "type": "address"
        },
        {
          "internalType": "uint256",
          "name": "nonce",
          "type": "uint256"
        },
        {
          "internalType": "uint256",
          "name": "expiry",
          "type": "uint256"
        },
        {
          "internalType": "uint8",
          "name": "v",
          "type": "uint8"
        },
        {
          "internalType": "bytes32",
          "name": "r",
          "type": "bytes32"
        },
        {
          "internalType": "bytes32",
          "name": "s",
          "type": "bytes32"
        }
      ],
      "name": "delegateBySig",
      "outputs": [],
      "stateMutability": "nonpayable",
      "type": "function"
    },
    {
      "inputs": [
        {
          "internalType": "address",
          "name": "delegator",
          "type": "address"
        }
      ],
      "name": "delegates",
      "outputs": [
        {
          "internalType": "address",
          "name": "",
          "type": "address"
        }
      ],
      "stateMutability": "view",
      "type": "function"
    },
    {
      "inputs": [],
      "name": "disableTheUseOfCheckpoints",
      "outputs": [],
      "stateMutability": "nonpayable",
      "type": "function"
    },
    {
      "inputs": [
        {
          "internalType": "address",
          "name": "target",
          "type": "address"
        },
        {
          "internalType": "bytes",
          "name": "data",
          "type": "bytes"
        },
        {
          "internalType": "uint256",
          "name": "value",
          "type": "uint256"
        }
      ],
      "name": "execute",
      "outputs": [],
      "stateMutability": "nonpayable",
      "type": "function"
    },
    {
      "inputs": [
        {
          "internalType": "uint256",
          "name": "id",
          "type": "uint256"
        }
      ],
      "name": "getApproved",
      "outputs": [
        {
          "internalType": "address",
          "name": "",
          "type": "address"
        }
      ],
      "stateMutability": "view",
      "type": "function"
    },
    {
      "inputs": [
        {
          "internalType": "address",
          "name": "account",
          "type": "address"
        }
      ],
      "name": "getCurrentVotes",
      "outputs": [
        {
          "internalType": "uint96",
          "name": "",
          "type": "uint96"
        }
      ],
      "stateMutability": "view",
      "type": "function"
    },
    {
      "inputs": [
        {
          "internalType": "address",
          "name": "account",
          "type": "address"
        },
        {
          "internalType": "uint256",
          "name": "blockNumber",
          "type": "uint256"
        }
      ],
      "name": "getPriorVotes",
      "outputs": [
        {
          "internalType": "uint96",
          "name": "",
          "type": "uint96"
        }
      ],
      "stateMutability": "view",
      "type": "function"
    },
    {
      "inputs": [],
      "name": "guardian",
      "outputs": [
        {
          "internalType": "address",
          "name": "",
          "type": "address"
        }
      ],
      "stateMutability": "view",
      "type": "function"
    },
    {
      "inputs": [
        {
          "internalType": "address",
          "name": "owner",
          "type": "address"
        },
        {
          "internalType": "address",
          "name": "operator",
          "type": "address"
        }
      ],
      "name": "isApprovedForAll",
      "outputs": [
        {
          "internalType": "bool",
          "name": "isOperator",
          "type": "bool"
        }
      ],
      "stateMutability": "view",
      "type": "function"
    },
    {
      "inputs": [
        {
          "internalType": "uint16",
          "name": "id",
          "type": "uint16"
        },
        {
          "internalType": "address",
          "name": "to",
          "type": "address"
        }
      ],
      "name": "mint",
      "outputs": [],
      "stateMutability": "nonpayable",
      "type": "function"
    },
    {
      "inputs": [],
      "name": "minter",
      "outputs": [
        {
          "internalType": "address",
          "name": "",
          "type": "address"
        }
      ],
      "stateMutability": "view",
      "type": "function"
    },
    {
      "inputs": [],
      "name": "minterAdmin",
      "outputs": [
        {
          "internalType": "address",
          "name": "",
          "type": "address"
        }
      ],
      "stateMutability": "view",
      "type": "function"
    },
    {
      "inputs": [
        {
          "internalType": "uint16[]",
          "name": "ids",
          "type": "uint16[]"
        },
        {
          "internalType": "address",
          "name": "to",
          "type": "address"
        }
      ],
      "name": "multiMint",
      "outputs": [],
      "stateMutability": "nonpayable",
      "type": "function"
    },
    {
      "inputs": [
        {
          "internalType": "bytes[]",
          "name": "data",
          "type": "bytes[]"
        }
      ],
      "name": "multicall",
      "outputs": [
        {
          "internalType": "bytes[]",
          "name": "results",
          "type": "bytes[]"
        }
      ],
      "stateMutability": "payable",
      "type": "function"
    },
    {
      "inputs": [],
      "name": "name",
      "outputs": [
        {
          "internalType": "string",
          "name": "",
          "type": "string"
        }
      ],
      "stateMutability": "pure",
      "type": "function"
    },
    {
      "inputs": [
        {
          "internalType": "address",
          "name": "owner",
          "type": "address"
        }
      ],
      "name": "nonces",
      "outputs": [
        {
          "internalType": "uint256",
          "name": "nonce",
          "type": "uint256"
        }
      ],
      "stateMutability": "view",
      "type": "function"
    },
    {
      "inputs": [
        {
          "internalType": "address",
          "name": "",
          "type": "address"
        }
      ],
      "name": "numCheckpoints",
      "outputs": [
        {
          "internalType": "uint32",
          "name": "",
          "type": "uint32"
        }
      ],
      "stateMutability": "view",
      "type": "function"
    },
    {
      "inputs": [],
      "name": "owner",
      "outputs": [
        {
          "internalType": "address",
          "name": "",
          "type": "address"
        }
      ],
      "stateMutability": "view",
      "type": "function"
    },
    {
      "inputs": [
        {
          "internalType": "uint256[]",
          "name": "ids",
          "type": "uint256[]"
        }
      ],
      "name": "ownerAndLastTransferBlockNumberList",
      "outputs": [
        {
          "components": [
            {
              "internalType": "address",
              "name": "owner",
              "type": "address"
            },
            {
              "internalType": "uint256",
              "name": "lastTransferBlockNumber",
              "type": "uint256"
            }
          ],
          "internalType": "struct ERC721Base.OwnerData[]",
          "name": "ownersData",
          "type": "tuple[]"
        }
      ],
      "stateMutability": "view",
      "type": "function"
    },
    {
      "inputs": [
        {
          "internalType": "uint256",
          "name": "id",
          "type": "uint256"
        }
      ],
      "name": "ownerOf",
      "outputs": [
        {
          "internalType": "address",
          "name": "owner",
          "type": "address"
        }
      ],
      "stateMutability": "view",
      "type": "function"
    },
    {
      "inputs": [
        {
          "internalType": "uint256[]",
          "name": "ids",
          "type": "uint256[]"
        }
      ],
      "name": "owners",
      "outputs": [
        {
          "internalType": "address[]",
          "name": "addresses",
          "type": "address[]"
        }
      ],
      "stateMutability": "view",
      "type": "function"
    },
    {
      "inputs": [
        {
          "internalType": "address",
          "name": "spender",
          "type": "address"
        },
        {
          "internalType": "uint256",
          "name": "id",
          "type": "uint256"
        },
        {
          "internalType": "uint256",
          "name": "deadline",
          "type": "uint256"
        },
        {
          "internalType": "uint8",
          "name": "v",
          "type": "uint8"
        },
        {
          "internalType": "bytes32",
          "name": "r",
          "type": "bytes32"
        },
        {
          "internalType": "bytes32",
          "name": "s",
          "type": "bytes32"
        }
      ],
      "name": "permit",
      "outputs": [],
      "stateMutability": "nonpayable",
      "type": "function"
    },
    {
      "inputs": [
        {
          "internalType": "address",
          "name": "signer",
          "type": "address"
        },
        {
          "internalType": "address",
          "name": "spender",
          "type": "address"
        },
        {
          "internalType": "uint256",
          "name": "deadline",
          "type": "uint256"
        },
        {
          "internalType": "uint8",
          "name": "v",
          "type": "uint8"
        },
        {
          "internalType": "bytes32",
          "name": "r",
          "type": "bytes32"
        },
        {
          "internalType": "bytes32",
          "name": "s",
          "type": "bytes32"
        }
      ],
      "name": "permitForAll",
      "outputs": [],
      "stateMutability": "nonpayable",
      "type": "function"
    },
    {
      "inputs": [],
      "name": "royaltyAdmin",
      "outputs": [
        {
          "internalType": "address",
          "name": "",
          "type": "address"
        }
      ],
      "stateMutability": "view",
      "type": "function"
    },
    {
      "inputs": [
        {
          "internalType": "uint256",
          "name": "id",
          "type": "uint256"
        },
        {
          "internalType": "uint256",
          "name": "salePrice",
          "type": "uint256"
        }
      ],
      "name": "royaltyInfo",
      "outputs": [
        {
          "internalType": "address",
          "name": "receiver",
          "type": "address"
        },
        {
          "internalType": "uint256",
          "name": "royaltyAmount",
          "type": "uint256"
        }
      ],
      "stateMutability": "view",
      "type": "function"
    },
    {
      "inputs": [
        {
          "internalType": "address",
          "name": "from",
          "type": "address"
        },
        {
          "internalType": "address",
          "name": "to",
          "type": "address"
        },
        {
          "internalType": "uint256",
          "name": "id",
          "type": "uint256"
        }
      ],
      "name": "safeTransferFrom",
      "outputs": [],
      "stateMutability": "nonpayable",
      "type": "function"
    },
    {
      "inputs": [
        {
          "internalType": "address",
          "name": "from",
          "type": "address"
        },
        {
          "internalType": "address",
          "name": "to",
          "type": "address"
        },
        {
          "internalType": "uint256",
          "name": "id",
          "type": "uint256"
        },
        {
          "internalType": "bytes",
          "name": "data",
          "type": "bytes"
        }
      ],
      "name": "safeTransferFrom",
      "outputs": [],
      "stateMutability": "nonpayable",
      "type": "function"
    },
    {
      "inputs": [
        {
          "internalType": "address",
          "name": "operator",
          "type": "address"
        },
        {
          "internalType": "bool",
          "name": "approved",
          "type": "bool"
        }
      ],
      "name": "setApprovalForAll",
      "outputs": [],
      "stateMutability": "nonpayable",
      "type": "function"
    },
    {
      "inputs": [
        {
          "internalType": "address",
          "name": "newCheckpointingDisabler",
          "type": "address"
        }
      ],
      "name": "setCheckpointingDisabler",
      "outputs": [],
      "stateMutability": "nonpayable",
      "type": "function"
    },
    {
      "inputs": [
        {
          "internalType": "address",
          "name": "newGuardian",
          "type": "address"
        }
      ],
      "name": "setGuardian",
      "outputs": [],
      "stateMutability": "nonpayable",
      "type": "function"
    },
    {
      "inputs": [
        {
          "internalType": "address",
          "name": "newMinter",
          "type": "address"
        }
      ],
      "name": "setMinter",
      "outputs": [],
      "stateMutability": "nonpayable",
      "type": "function"
    },
    {
      "inputs": [
        {
          "internalType": "address",
          "name": "newMinterAdmin",
          "type": "address"
        }
      ],
      "name": "setMinterAdmin",
      "outputs": [],
      "stateMutability": "nonpayable",
      "type": "function"
    },
    {
      "inputs": [
        {
          "internalType": "address",
          "name": "newRoyaltyAdmin",
          "type": "address"
        }
      ],
      "name": "setRoyaltyAdmin",
      "outputs": [],
      "stateMutability": "nonpayable",
      "type": "function"
    },
    {
      "inputs": [
        {
          "internalType": "address",
          "name": "newRecipient",
          "type": "address"
        },
        {
          "internalType": "uint256",
          "name": "royaltyPer10Thousands",
          "type": "uint256"
        }
      ],
      "name": "setRoyaltyParameters",
      "outputs": [],
      "stateMutability": "nonpayable",
      "type": "function"
    },
    {
      "inputs": [
        {
          "internalType": "address",
          "name": "newTokenURIAdmin",
          "type": "address"
        }
      ],
      "name": "setTokenURIAdmin",
      "outputs": [],
      "stateMutability": "nonpayable",
      "type": "function"
    },
    {
      "inputs": [
        {
          "internalType": "contract ITokenURI",
          "name": "newTokenURIContract",
          "type": "address"
        }
      ],
      "name": "setTokenURIContract",
      "outputs": [],
      "stateMutability": "nonpayable",
      "type": "function"
    },
    {
      "inputs": [
        {
          "internalType": "uint256",
          "name": "id",
          "type": "uint256"
        }
      ],
      "name": "sound",
      "outputs": [
        {
          "internalType": "uint8",
          "name": "note",
          "type": "uint8"
        },
        {
          "internalType": "uint8",
          "name": "instrument",
          "type": "uint8"
        }
      ],
      "stateMutability": "pure",
      "type": "function"
    },
    {
      "inputs": [
        {
          "internalType": "bytes4",
          "name": "id",
          "type": "bytes4"
        }
      ],
      "name": "supportsInterface",
      "outputs": [
        {
          "internalType": "bool",
          "name": "",
          "type": "bool"
        }
      ],
      "stateMutability": "pure",
      "type": "function"
    },
    {
      "inputs": [],
      "name": "symbol",
      "outputs": [
        {
          "internalType": "string",
          "name": "",
          "type": "string"
        }
      ],
      "stateMutability": "pure",
      "type": "function"
    },
    {
      "inputs": [
        {
          "internalType": "uint256",
          "name": "id",
          "type": "uint256"
        }
      ],
      "name": "tokenNonces",
      "outputs": [
        {
          "internalType": "uint256",
          "name": "nonce",
          "type": "uint256"
        }
      ],
      "stateMutability": "view",
      "type": "function"
    },
    {
      "inputs": [
        {
          "internalType": "uint256",
          "name": "id",
          "type": "uint256"
        }
      ],
      "name": "tokenURI",
      "outputs": [
        {
          "internalType": "string",
          "name": "",
          "type": "string"
        }
      ],
      "stateMutability": "view",
      "type": "function"
    },
    {
      "inputs": [],
      "name": "tokenURIAdmin",
      "outputs": [
        {
          "internalType": "address",
          "name": "",
          "type": "address"
        }
      ],
      "stateMutability": "view",
      "type": "function"
    },
    {
      "inputs": [],
      "name": "tokenURIContract",
      "outputs": [
        {
          "internalType": "contract ITokenURI",
          "name": "",
          "type": "address"
        }
      ],
      "stateMutability": "view",
      "type": "function"
    },
    {
      "inputs": [
        {
          "internalType": "address",
          "name": "from",
          "type": "address"
        },
        {
          "internalType": "address",
          "name": "to",
          "type": "address"
        },
        {
          "internalType": "uint256",
          "name": "id",
          "type": "uint256"
        }
      ],
      "name": "transferFrom",
      "outputs": [],
      "stateMutability": "nonpayable",
      "type": "function"
    },
    {
      "inputs": [
        {
          "internalType": "address",
          "name": "newOwner",
          "type": "address"
        }
      ],
      "name": "transferOwnership",
      "outputs": [],
      "stateMutability": "nonpayable",
      "type": "function"
    },
    {
      "inputs": [
        {
          "internalType": "address",
          "name": "delegator",
          "type": "address"
        }
      ],
      "name": "votesToDelegate",
      "outputs": [
        {
          "internalType": "uint96",
          "name": "",
          "type": "uint96"
        }
      ],
      "stateMutability": "view",
      "type": "function"
    }
  ],
  "transactionHash": "0xa009048275e6790cc87a8925aae30a7d86b8dbde2d0d28d61c64375efa9eab8f",
  "args": [
    "0xf57b2c51ded3a29e6891aba85459d600256cf317",
    "0x61c461EcC993aaDEB7e4b47E96d1B8cC37314B20",
    "0xE53cd71271AcAdbeb0f64d9c8C62bBdDc8cA9e66",
    "0xE53cd71271AcAdbeb0f64d9c8C62bBdDc8cA9e66",
    "0xE53cd71271AcAdbeb0f64d9c8C62bBdDc8cA9e66",
    "0xE53cd71271AcAdbeb0f64d9c8C62bBdDc8cA9e66",
    "0xb2Da450e09895581fbCc41EFb71479efB3B998ec",
    "0xE53cd71271AcAdbeb0f64d9c8C62bBdDc8cA9e66"
  ],
  "solcInputHash": "91ec20bd84f402d22d504921fb4a04d0",
  "bytecode": "0x60e06040526006805460ff191660011790553480156200001e57600080fd5b5060405162005c8438038062005c848339810160408190526200004191620002c8565b6001600160a01b0388166080524660a081905287908790879087908790620000698162000221565b60c05250600a80546001600160a01b038781166001600160a01b031992831617909255600b80548784169083168117909155600c8054868516908416179055600d8054938716939092169290921790556040519081527f89de65ceb8cdf195a0b50021ed65dd305b54d3b744a0e283bd98c6058e2edd789060200160405180910390a16040516001600160a01b03831681527fb17416b845258d996b82b66c3c9166088ec5edf592b35fcce47c62a73d61ef419060200160405180910390a16040516001600160a01b03841681527fb8e0165b6664b7af8f9563c66e3d6b987c2d06fe192539d7123a0777b41a7c899060200160405180910390a15050601080546001600160a01b0319166001600160a01b0387169081179091556040519081527f6bf5b09f847c9c9e97addeaf1ea9d5fd44ff6ae2c9c4aaf55fb476eca421a45d93506020019150620001ba9050565b60405180910390a1601380546001600160a01b0319166001600160a01b0383169081179091556040519081527f4b70ff24654603d6961acf6a0cf30db833fc126dac63891114f984fefcc2b0649060200160405180910390a1505050505050505062000389565b60007f8cad95687ba82c2ce50e74f7b754645e5117c3a5bec8151c0726d5857980a86662000268604080518082019091526006815265426c6565707360d01b602082015290565b80516020918201206040805192830193909352918101919091526060810183905230608082015260a001604051602081830303815290604052805190602001209050919050565b6001600160a01b0381168114620002c557600080fd5b50565b600080600080600080600080610100898b031215620002e657600080fd5b8851620002f381620002af565b60208a01519098506200030681620002af565b60408a01519097506200031981620002af565b60608a01519096506200032c81620002af565b60808a01519095506200033f81620002af565b60a08a01519094506200035281620002af565b60c08a01519093506200036581620002af565b60e08a01519092506200037881620002af565b809150509295985092959890939650565b60805160a05160c0516158c4620003c06000396000613ab901526000613a84015260008181613f0d0152613f9301526158c46000f3fe6080604052600436106103815760003560e01c8063894e851f116101d1578063b88d4fde11610102578063e8a3d485116100a0578063f1127ed81161006f578063f1127ed814610c57578063f2fde38b14610cd6578063f394528214610cf6578063fca3b5aa14610d2357600080fd5b8063e8a3d48514610be2578063e9580e9114610bf7578063e985e9c514610c17578063edd9803f14610c3757600080fd5b8063d6d2d847116100dc578063d6d2d84714610b59578063e2ea128814610b79578063e6b34e8614610b99578063e7a324dc14610bae57600080fd5b8063b88d4fde14610af9578063c3cda52014610b19578063c87b56dd14610b3957600080fd5b8063a04a09081161016f578063a754d48f11610149578063a754d48f14610a5f578063ac9650d814610a8c578063adc5fcc214610aac578063b4b5ea5714610ad957600080fd5b8063a04a0908146109f2578063a0554c2614610a12578063a22cb46514610a3f57600080fd5b80638da5cb5b116101ab5780638da5cb5b1461093f57806395d89b411461096c57806399235f39146109b25780639c205513146109d257600080fd5b8063894e851f146108c55780638a0dac4a146108f25780638cc660111461091257600080fd5b8063452a9320116102b6578063698f87be116102545780637ac2ff7b116102235780637ac2ff7b146108225780637ba9638b146108425780637ecebe001461086257806382fc3147146108a557600080fd5b8063698f87be146107505780636fcfff451461077d57806370a08231146107c5578063782d6fe1146107e557600080fd5b8063587cde1e11610290578063587cde1e146106d05780635c19a95c146106f05780636352211e14610710578063639147af1461073057600080fd5b8063452a93201461064f5780634d6878211461067c578063585956d61461069c57600080fd5b80632954dbfa11610323578063313ce567116102fd578063313ce567146105c657806334dd800d146105ed5780633644e5151461061a57806342842e0e1461062f57600080fd5b80632954dbfa146105005780632a55205a1461054657806330adf81f1461059257600080fd5b8063081812fc1161035f578063081812fc1461045c578063095ea7b31461047c57806320606b701461049e57806323b872dd146104e057600080fd5b806301ffc9a71461038657806306fdde03146103bb578063075461721461040a575b600080fd5b34801561039257600080fd5b506103a66103a1366004614cd0565b610d43565b60405190151581526020015b60405180910390f35b3480156103c757600080fd5b5060408051808201909152600681527f426c65657073000000000000000000000000000000000000000000000000000060208201525b6040516103b29190614d63565b34801561041657600080fd5b50600e546104379073ffffffffffffffffffffffffffffffffffffffff1681565b60405173ffffffffffffffffffffffffffffffffffffffff90911681526020016103b2565b34801561046857600080fd5b50610437610477366004614d76565b610da0565b34801561048857600080fd5b5061049c610497366004614db1565b610e91565b005b3480156104aa57600080fd5b506104d27f8cad95687ba82c2ce50e74f7b754645e5117c3a5bec8151c0726d5857980a86681565b6040519081526020016103b2565b3480156104ec57600080fd5b5061049c6104fb366004614ddd565b610ffb565b34801561050c57600080fd5b5061052c61051b366004614d76565b603f81169160069190911c600f1690565b6040805160ff9384168152929091166020830152016103b2565b34801561055257600080fd5b50610566610561366004614e1e565b61133d565b6040805173ffffffffffffffffffffffffffffffffffffffff90931683526020830191909152016103b2565b34801561059e57600080fd5b506104d27f49ecf333e5b8c95c40fdafc95c1ad136e8914a8fb55e9dc8bb01eaa83a2df9ad81565b3480156105d257600080fd5b506105db600081565b60405160ff90911681526020016103b2565b3480156105f957600080fd5b50600b546104379073ffffffffffffffffffffffffffffffffffffffff1681565b34801561062657600080fd5b506104d2611380565b34801561063b57600080fd5b5061049c61064a366004614ddd565b61138f565b34801561065b57600080fd5b50600f546104379073ffffffffffffffffffffffffffffffffffffffff1681565b34801561068857600080fd5b5061049c610697366004614e40565b6113af565b3480156106a857600080fd5b506104d27f29795620f29ed5790c945e3f419a1b3e2381aa07751ccffe5b81231639d74cd581565b3480156106dc57600080fd5b506104376106eb366004614e40565b6114aa565b3480156106fc57600080fd5b5061049c61070b366004614e40565b6114e9565b34801561071c57600080fd5b5061043761072b366004614d76565b611514565b34801561073c57600080fd5b5061049c61074b366004614e40565b6115a5565b34801561075c57600080fd5b506010546104379073ffffffffffffffffffffffffffffffffffffffff1681565b34801561078957600080fd5b506107b0610798366004614e40565b60096020526000908152604090205463ffffffff1681565b60405163ffffffff90911681526020016103b2565b3480156107d157600080fd5b506104d26107e0366004614e40565b6116da565b3480156107f157600080fd5b50610805610800366004614db1565b611782565b6040516bffffffffffffffffffffffff90911681526020016103b2565b34801561082e57600080fd5b5061049c61083d366004614e6e565b611a99565b34801561084e57600080fd5b5061049c61085d366004614e40565b611be9565b34801561086e57600080fd5b506104d261087d366004614e40565b73ffffffffffffffffffffffffffffffffffffffff1660009081526005602052604090205490565b3480156108b157600080fd5b5061049c6108c0366004614e40565b611d1e565b3480156108d157600080fd5b50600c546104379073ffffffffffffffffffffffffffffffffffffffff1681565b3480156108fe57600080fd5b5061049c61090d366004614e40565b611e12565b34801561091e57600080fd5b506013546104379073ffffffffffffffffffffffffffffffffffffffff1681565b34801561094b57600080fd5b50600a546104379073ffffffffffffffffffffffffffffffffffffffff1681565b34801561097857600080fd5b5060408051808201909152600581527f424c45455000000000000000000000000000000000000000000000000000000060208201526103fd565b3480156109be57600080fd5b5061049c6109cd366004614e40565b611f06565b3480156109de57600080fd5b5061049c6109ed366004614eda565b61203b565b3480156109fe57600080fd5b5061049c610a0d36600461502b565b6122da565b348015610a1e57600080fd5b50610a32610a2d3660046150d0565b61237c565b6040516103b29190615112565b348015610a4b57600080fd5b5061049c610a5a36600461516c565b61244f565b348015610a6b57600080fd5b50600d546104379073ffffffffffffffffffffffffffffffffffffffff1681565b610a9f610a9a3660046150d0565b61245e565b6040516103b2919061519f565b348015610ab857600080fd5b506104d2610ac7366004614d76565b60009081526004602052604090205490565b348015610ae557600080fd5b50610805610af4366004614e40565b6125c9565b348015610b0557600080fd5b5061049c610b1436600461521f565b612666565b348015610b2557600080fd5b5061049c610b34366004614e6e565b6129ab565b348015610b4557600080fd5b506103fd610b54366004614d76565b612d1a565b348015610b6557600080fd5b5061049c610b7436600461528b565b612ddf565b348015610b8557600080fd5b5061049c610b943660046152d4565b612e9e565b348015610ba557600080fd5b5061049c61317f565b348015610bba57600080fd5b506104d27fe48329057bfd03d55e49b547132e39cffd9c1820ad7b9d4c5307691425d15adf81565b348015610bee57600080fd5b506103fd6132af565b348015610c0357600080fd5b50610805610c12366004614e40565b613374565b348015610c2357600080fd5b506103a6610c3236600461532b565b6133a0565b348015610c4357600080fd5b5061049c610c52366004614db1565b6133e8565b348015610c6357600080fd5b50610cad610c72366004615349565b600860209081526000928352604080842090915290825290205463ffffffff81169064010000000090046bffffffffffffffffffffffff1682565b6040805163ffffffff90931683526bffffffffffffffffffffffff9091166020830152016103b2565b348015610ce257600080fd5b5061049c610cf1366004614e40565b6134b4565b348015610d0257600080fd5b50610d16610d113660046150d0565b61354f565b6040516103b29190615380565b348015610d2f57600080fd5b5061049c610d3e366004614e40565b613682565b6000610d4e82613776565b80610d9a57507f2a55205a000000000000000000000000000000000000000000000000000000007fffffffff000000000000000000000000000000000000000000000000000000008316145b92915050565b6000818152602081905260408120547f80000000000000000000000000000000000000000000000000000000000000008082161473ffffffffffffffffffffffffffffffffffffffff8216610e56576040517f08c379a000000000000000000000000000000000000000000000000000000000815260206004820152601160248201527f4e4f4e4558495354454e545f544f4b454e00000000000000000000000000000060448201526064015b60405180910390fd5b8015610e875750505060009081526003602052604090205473ffffffffffffffffffffffffffffffffffffffff1690565b5060009392505050565b6000818152602081905260409020546affffffffffffffffffffff60a082901c1673ffffffffffffffffffffffffffffffffffffffff8216610f2f576040517f08c379a000000000000000000000000000000000000000000000000000000000815260206004820152601160248201527f4e4f4e4558495354454e545f544f4b454e0000000000000000000000000000006044820152606401610e4d565b3373ffffffffffffffffffffffffffffffffffffffff83161480610f83575073ffffffffffffffffffffffffffffffffffffffff8216600090815260026020908152604080832033845290915290205460ff165b610fe9576040517f08c379a000000000000000000000000000000000000000000000000000000000815260206004820152601560248201527f554e415554484f52495a45445f415050524f56414c00000000000000000000006044820152606401610e4d565b610ff582828686613857565b50505050565b6000818152602081905260409020547f80000000000000000000000000000000000000000000000000000000000000008082161473ffffffffffffffffffffffffffffffffffffffff82166110ac576040517f08c379a000000000000000000000000000000000000000000000000000000000815260206004820152601160248201527f4e4f4e4558495354454e545f544f4b454e0000000000000000000000000000006044820152606401610e4d565b8473ffffffffffffffffffffffffffffffffffffffff168273ffffffffffffffffffffffffffffffffffffffff1614611141576040517f08c379a000000000000000000000000000000000000000000000000000000000815260206004820152600960248201527f4e4f545f4f574e455200000000000000000000000000000000000000000000006044820152606401610e4d565b73ffffffffffffffffffffffffffffffffffffffff84166111be576040517f08c379a000000000000000000000000000000000000000000000000000000000815260206004820152601260248201527f4e4f545f544f5f5a45524f4144445245535300000000000000000000000000006044820152606401610e4d565b73ffffffffffffffffffffffffffffffffffffffff841630141561123e576040517f08c379a000000000000000000000000000000000000000000000000000000000815260206004820152600b60248201527f4e4f545f544f5f544849530000000000000000000000000000000000000000006044820152606401610e4d565b3373ffffffffffffffffffffffffffffffffffffffff86161461132b5773ffffffffffffffffffffffffffffffffffffffff8516600090815260026020908152604080832033845290915290205460ff16806112c557508080156112c5575060008381526003602052604090205473ffffffffffffffffffffffffffffffffffffffff1633145b61132b576040517f08c379a000000000000000000000000000000000000000000000000000000000815260206004820152601560248201527f554e415554484f52495a45445f5452414e5346455200000000000000000000006044820152606401610e4d565b611336858585613990565b5050505050565b60115460125473ffffffffffffffffffffffffffffffffffffffff909116906000906127109061136d9085615414565b6113779190615480565b90509250929050565b600061138a613a7f565b905090565b6113aa83838360405180602001604052806000815250612666565b505050565b60135473ffffffffffffffffffffffffffffffffffffffff163314611430576040517f08c379a000000000000000000000000000000000000000000000000000000000815260206004820152600e60248201527f4e4f545f415554484f52495a45440000000000000000000000000000000000006044820152606401610e4d565b601380547fffffffffffffffffffffffff00000000000000000000000000000000000000001673ffffffffffffffffffffffffffffffffffffffff83169081179091556040519081527f4b70ff24654603d6961acf6a0cf30db833fc126dac63891114f984fefcc2b064906020015b60405180910390a150565b73ffffffffffffffffffffffffffffffffffffffff80821660009081526007602052604081205490911680156114e057806114e2565b825b9392505050565b73ffffffffffffffffffffffffffffffffffffffff81166115075750335b6115113382613adf565b50565b60008181526020819052604090205473ffffffffffffffffffffffffffffffffffffffff81166115a0576040517f08c379a000000000000000000000000000000000000000000000000000000000815260206004820152601160248201527f4e4f4e4558495354454e545f544f4b454e0000000000000000000000000000006044820152606401610e4d565b919050565b600b5473ffffffffffffffffffffffffffffffffffffffff163314806116015750600f5473ffffffffffffffffffffffffffffffffffffffff1633148015611601575073ffffffffffffffffffffffffffffffffffffffff8116155b611667576040517f08c379a000000000000000000000000000000000000000000000000000000000815260206004820152600e60248201527f4e4f545f415554484f52495a45440000000000000000000000000000000000006044820152606401610e4d565b600b80547fffffffffffffffffffffffff00000000000000000000000000000000000000001673ffffffffffffffffffffffffffffffffffffffff83169081179091556040519081527f89de65ceb8cdf195a0b50021ed65dd305b54d3b744a0e283bd98c6058e2edd789060200161149f565b600073ffffffffffffffffffffffffffffffffffffffff8216611759576040517f08c379a000000000000000000000000000000000000000000000000000000000815260206004820152601260248201527f5a45524f5f414444524553535f4f574e455200000000000000000000000000006044820152606401610e4d565b5073ffffffffffffffffffffffffffffffffffffffff1660009081526001602052604090205490565b6000438210611813576040517f08c379a000000000000000000000000000000000000000000000000000000000815260206004820152603760248201527f455243373231436865636b706f696e7461626c653a3a6765745072696f72566f60448201527f7465733a206e6f74207965742064657465726d696e65640000000000000000006064820152608401610e4d565b73ffffffffffffffffffffffffffffffffffffffff831660009081526009602052604090205463ffffffff168061184e576000915050610d9a565b73ffffffffffffffffffffffffffffffffffffffff841660009081526008602052604081208491611880600185615494565b63ffffffff908116825260208201929092526040016000205416116119065773ffffffffffffffffffffffffffffffffffffffff84166000908152600860205260408120906118d0600184615494565b63ffffffff16815260208101919091526040016000205464010000000090046bffffffffffffffffffffffff169150610d9a9050565b73ffffffffffffffffffffffffffffffffffffffff8416600090815260086020908152604080832083805290915290205463ffffffff1683101561194e576000915050610d9a565b60008061195c600184615494565b90505b8163ffffffff168163ffffffff161115611a4157600060026119818484615494565b61198b91906154b9565b6119959083615494565b73ffffffffffffffffffffffffffffffffffffffff8816600090815260086020908152604080832063ffffffff8581168552908352928190208151808301909252549283168082526401000000009093046bffffffffffffffffffffffff1691810191909152919250871415611a1557602001519450610d9a9350505050565b805163ffffffff16871115611a2c57819350611a3a565b611a37600183615494565b92505b505061195f565b5073ffffffffffffffffffffffffffffffffffffffff8516600090815260086020908152604080832063ffffffff909416835292905220546bffffffffffffffffffffffff6401000000009091041691505092915050565b42841015611b03576040517f08c379a000000000000000000000000000000000000000000000000000000000815260206004820152601760248201527f5045524d49545f444541444c494e455f455850495245440000000000000000006044820152606401610e4d565b6000858152602081905260409020546affffffffffffffffffffff60a082901c1673ffffffffffffffffffffffffffffffffffffffff8216611ba1576040517f08c379a000000000000000000000000000000000000000000000000000000000815260206004820152601160248201527f4e4f4e4558495354454e545f544f4b454e0000000000000000000000000000006044820152606401610e4d565b60008781526004602052604081208054611bd39285928c928c928c9290611bc7836154dc565b919050558a8a8a613b84565b611bdf82828a8a613857565b5050505050505050565b600c5473ffffffffffffffffffffffffffffffffffffffff16331480611c455750600f5473ffffffffffffffffffffffffffffffffffffffff1633148015611c45575073ffffffffffffffffffffffffffffffffffffffff8116155b611cab576040517f08c379a000000000000000000000000000000000000000000000000000000000815260206004820152600e60248201527f4e4f545f415554484f52495a45440000000000000000000000000000000000006044820152606401610e4d565b600c80547fffffffffffffffffffffffff00000000000000000000000000000000000000001673ffffffffffffffffffffffffffffffffffffffff83169081179091556040519081527fb17416b845258d996b82b66c3c9166088ec5edf592b35fcce47c62a73d61ef419060200161149f565b600b5473ffffffffffffffffffffffffffffffffffffffff163314611d9f576040517f08c379a000000000000000000000000000000000000000000000000000000000815260206004820152600e60248201527f4e4f545f415554484f52495a45440000000000000000000000000000000000006044820152606401610e4d565b601080547fffffffffffffffffffffffff00000000000000000000000000000000000000001673ffffffffffffffffffffffffffffffffffffffff83169081179091556040519081527f6bf5b09f847c9c9e97addeaf1ea9d5fd44ff6ae2c9c4aaf55fb476eca421a45d9060200161149f565b600f5473ffffffffffffffffffffffffffffffffffffffff163314611e93576040517f08c379a000000000000000000000000000000000000000000000000000000000815260206004820152600e60248201527f4e4f545f415554484f52495a45440000000000000000000000000000000000006044820152606401610e4d565b600f80547fffffffffffffffffffffffff00000000000000000000000000000000000000001673ffffffffffffffffffffffffffffffffffffffff83169081179091556040519081527fe6c09ffe4572dc9ceaa5ddde4ae41befa655d6fdfe8052077af0970f700e942e9060200161149f565b600d5473ffffffffffffffffffffffffffffffffffffffff16331480611f625750600f5473ffffffffffffffffffffffffffffffffffffffff1633148015611f62575073ffffffffffffffffffffffffffffffffffffffff8116155b611fc8576040517f08c379a000000000000000000000000000000000000000000000000000000000815260206004820152600e60248201527f4e4f545f415554484f52495a45440000000000000000000000000000000000006044820152606401610e4d565b600d80547fffffffffffffffffffffffff00000000000000000000000000000000000000001673ffffffffffffffffffffffffffffffffffffffff83169081179091556040519081527fb8e0165b6664b7af8f9563c66e3d6b987c2d06fe192539d7123a0777b41a7c899060200161149f565b600e5473ffffffffffffffffffffffffffffffffffffffff1633146120bc576040517f08c379a000000000000000000000000000000000000000000000000000000000815260206004820152601360248201527f4f4e4c595f4d494e5445525f414c4c4f574544000000000000000000000000006044820152606401610e4d565b6104008261ffff161061212b576040517f08c379a000000000000000000000000000000000000000000000000000000000815260206004820152600d60248201527f494e56414c49445f424c454550000000000000000000000000000000000000006044820152606401610e4d565b73ffffffffffffffffffffffffffffffffffffffff81166121a8576040517f08c379a000000000000000000000000000000000000000000000000000000000815260206004820152601260248201527f4e4f545f544f5f5a45524f4144445245535300000000000000000000000000006044820152606401610e4d565b73ffffffffffffffffffffffffffffffffffffffff8116301415612228576040517f08c379a000000000000000000000000000000000000000000000000000000000815260206004820152600b60248201527f4e4f545f544f5f544849530000000000000000000000000000000000000000006044820152606401610e4d565b61ffff821660009081526020819052604090205473ffffffffffffffffffffffffffffffffffffffff8116156122ba576040517f08c379a000000000000000000000000000000000000000000000000000000000815260206004820152600f60248201527f414c52454144595f4352454154454400000000000000000000000000000000006044820152606401610e4d565b6113aa6000838561ffff1660405180602001604052806000815250613c76565b600a5473ffffffffffffffffffffffffffffffffffffffff16331461235b576040517f08c379a000000000000000000000000000000000000000000000000000000000815260206004820152600e60248201527f4e4f545f415554484f52495a45440000000000000000000000000000000000006044820152606401610e4d565b610ff573ffffffffffffffffffffffffffffffffffffffff84168383613d11565b60608167ffffffffffffffff81111561239757612397614f11565b6040519080825280602002602001820160405280156123c0578160200160208202803683370190505b50905060005b828110156124485760008484838181106123e2576123e2615515565b9050602002013590506000808281526020019081526020016000205483838151811061241057612410615515565b73ffffffffffffffffffffffffffffffffffffffff909216602092830291909101909101525080612440816154dc565b9150506123c6565b5092915050565b61245a338383613d3f565b5050565b60608167ffffffffffffffff81111561247957612479614f11565b6040519080825280602002602001820160405280156124ac57816020015b60608152602001906001900390816124975790505b50905060005b8281101561244857600080308686858181106124d0576124d0615515565b90506020028101906124e29190615544565b6040516124f09291906155a9565b600060405180830381855af49150503d806000811461252b576040519150601f19603f3d011682016040523d82523d6000602084013e612530565b606091505b5091509150816125965760448151101561254957600080fd5b6004810190508080602001905181019061256391906155b9565b6040517f08c379a0000000000000000000000000000000000000000000000000000000008152600401610e4d9190614d63565b808484815181106125a9576125a9615515565b6020026020010181905250505080806125c1906154dc565b9150506124b2565b73ffffffffffffffffffffffffffffffffffffffff811660009081526009602052604081205463ffffffff16806126015760006114e2565b73ffffffffffffffffffffffffffffffffffffffff8316600090815260086020526040812090612632600184615494565b63ffffffff16815260208101919091526040016000205464010000000090046bffffffffffffffffffffffff169392505050565b6000828152602081905260409020547f80000000000000000000000000000000000000000000000000000000000000008082161473ffffffffffffffffffffffffffffffffffffffff8216612717576040517f08c379a000000000000000000000000000000000000000000000000000000000815260206004820152601160248201527f4e4f4e4558495354454e545f544f4b454e0000000000000000000000000000006044820152606401610e4d565b8573ffffffffffffffffffffffffffffffffffffffff168273ffffffffffffffffffffffffffffffffffffffff16146127ac576040517f08c379a000000000000000000000000000000000000000000000000000000000815260206004820152600960248201527f4e4f545f4f574e455200000000000000000000000000000000000000000000006044820152606401610e4d565b73ffffffffffffffffffffffffffffffffffffffff8516612829576040517f08c379a000000000000000000000000000000000000000000000000000000000815260206004820152601260248201527f4e4f545f544f5f5a45524f4144445245535300000000000000000000000000006044820152606401610e4d565b73ffffffffffffffffffffffffffffffffffffffff85163014156128a9576040517f08c379a000000000000000000000000000000000000000000000000000000000815260206004820152600b60248201527f4e4f545f544f5f544849530000000000000000000000000000000000000000006044820152606401610e4d565b3373ffffffffffffffffffffffffffffffffffffffff871614612997578080156128f6575060008481526003602052604090205473ffffffffffffffffffffffffffffffffffffffff1633145b80612931575073ffffffffffffffffffffffffffffffffffffffff8616600090815260026020908152604080832033845290915290205460ff165b612997576040517f08c379a000000000000000000000000000000000000000000000000000000000815260206004820152601560248201527f554e415554484f52495a45445f5452414e5346455200000000000000000000006044820152606401610e4d565b6129a386868686613c76565b505050505050565b60006129b5613a7f565b604080517fe48329057bfd03d55e49b547132e39cffd9c1820ad7b9d4c5307691425d15adf602082015273ffffffffffffffffffffffffffffffffffffffff8a1691810191909152606081018890526080810187905260a00160405160208183030381529060405280519060200120604051602001612a669291907f190100000000000000000000000000000000000000000000000000000000000081526002810192909252602282015260420190565b604080517fffffffffffffffffffffffffffffffffffffffffffffffffffffffffffffffe08184030181528282528051602091820120600080855291840180845281905260ff88169284019290925260608301869052608083018590529092509060019060a0016020604051602081039080840390855afa158015612aef573d6000803e3d6000fd5b50506040517fffffffffffffffffffffffffffffffffffffffffffffffffffffffffffffffe0015191505073ffffffffffffffffffffffffffffffffffffffff8116612bbd576040517f08c379a000000000000000000000000000000000000000000000000000000000815260206004820152603660248201527f455243373231436865636b706f696e7461626c653a3a64656c6567617465427960448201527f5369673a20696e76616c6964207369676e6174757265000000000000000000006064820152608401610e4d565b73ffffffffffffffffffffffffffffffffffffffff81166000908152600560205260408120805491612bee836154dc565b919050558714612c80576040517f08c379a000000000000000000000000000000000000000000000000000000000815260206004820152603260248201527f455243373231436865636b706f696e7461626c653a3a64656c6567617465427960448201527f5369673a20696e76616c6964206e6f6e636500000000000000000000000000006064820152608401610e4d565b85421115612d10576040517f08c379a000000000000000000000000000000000000000000000000000000000815260206004820152603660248201527f455243373231436865636b706f696e7461626c653a3a64656c6567617465427960448201527f5369673a207369676e61747572652065787069726564000000000000000000006064820152608401610e4d565b611bdf8189613adf565b6010546040517fc87b56dd0000000000000000000000000000000000000000000000000000000081526004810183905260609173ffffffffffffffffffffffffffffffffffffffff169063c87b56dd9060240160006040518083038186803b158015612d8557600080fd5b505afa158015612d99573d6000803e3d6000fd5b505050506040513d6000823e601f3d9081017fffffffffffffffffffffffffffffffffffffffffffffffffffffffffffffffe0168201604052610d9a91908101906155b9565b42841015612e49576040517f08c379a000000000000000000000000000000000000000000000000000000000815260206004820152601760248201527f5045524d49545f444541444c494e455f455850495245440000000000000000006044820152606401610e4d565b73ffffffffffffffffffffffffffffffffffffffff861660009081526005602052604081208054612e9292899289928992909190612e86836154dc565b91905055878787613dd7565b6129a386866001613d3f565b600e5473ffffffffffffffffffffffffffffffffffffffff163314612f1f576040517f08c379a000000000000000000000000000000000000000000000000000000000815260206004820152601360248201527f4f4e4c595f4d494e5445525f414c4c4f574544000000000000000000000000006044820152606401610e4d565b73ffffffffffffffffffffffffffffffffffffffff8116612f9c576040517f08c379a000000000000000000000000000000000000000000000000000000000815260206004820152601260248201527f4e4f545f544f5f5a45524f4144445245535300000000000000000000000000006044820152606401610e4d565b73ffffffffffffffffffffffffffffffffffffffff811630141561301c576040517f08c379a000000000000000000000000000000000000000000000000000000000815260206004820152600b60248201527f4e4f545f544f5f544849530000000000000000000000000000000000000000006044820152606401610e4d565b60005b82811015610ff557600084848381811061303b5761303b615515565b90506020020160208101906130509190615630565b61ffff16905061040081106130c1576040517f08c379a000000000000000000000000000000000000000000000000000000000815260206004820152600d60248201527f494e56414c49445f424c454550000000000000000000000000000000000000006044820152606401610e4d565b60008181526020819052604090205473ffffffffffffffffffffffffffffffffffffffff81161561314e576040517f08c379a000000000000000000000000000000000000000000000000000000000815260206004820152600f60248201527f414c52454144595f4352454154454400000000000000000000000000000000006044820152606401610e4d565b61316a6000858460405180602001604052806000815250613c76565b50508080613177906154dc565b91505061301f565b60135473ffffffffffffffffffffffffffffffffffffffff163314613200576040517f08c379a000000000000000000000000000000000000000000000000000000000815260206004820152600e60248201527f4e4f545f415554484f52495a45440000000000000000000000000000000000006044820152606401610e4d565b600680547fffffffffffffffffffffffffffffffffffffffffffffffffffffffffffffff00169055601380547fffffffffffffffffffffffff0000000000000000000000000000000000000000169055604051600081527f4b70ff24654603d6961acf6a0cf30db833fc126dac63891114f984fefcc2b0649060200160405180910390a16040517f3355f5c11ec5fbd9909c4fbd232bf8592a749dba18405f16df892fa6b40eddae90600090a1565b601054604080517fe8a3d485000000000000000000000000000000000000000000000000000000008152905160609273ffffffffffffffffffffffffffffffffffffffff169163e8a3d485916004808301926000929190829003018186803b15801561331a57600080fd5b505afa15801561332e573d6000803e3d6000fd5b505050506040513d6000823e601f3d9081017fffffffffffffffffffffffffffffffffffffffffffffffffffffffffffffffe016820160405261138a91908101906155b9565b6000610d9a613382836116da565b6040518060600160405280603d815260200161581b603d9139613eb7565b73ffffffffffffffffffffffffffffffffffffffff808316600090815260026020908152604080832093851683529290529081205460ff16806114e257506114e28383613f09565b600c5473ffffffffffffffffffffffffffffffffffffffff163314613469576040517f08c379a000000000000000000000000000000000000000000000000000000000815260206004820152600e60248201527f4e4f545f415554484f52495a45440000000000000000000000000000000000006044820152606401610e4d565b601180547fffffffffffffffffffffffff00000000000000000000000000000000000000001673ffffffffffffffffffffffffffffffffffffffff9390931692909217909155601255565b600a5473ffffffffffffffffffffffffffffffffffffffff163381146134d957600080fd5b600a80547fffffffffffffffffffffffff00000000000000000000000000000000000000001673ffffffffffffffffffffffffffffffffffffffff84811691821790925560405190918316907f8be0079c531659141344cd1fd0a4f28419497f9722a3daafe3b4186f6b6457e090600090a35050565b60608167ffffffffffffffff81111561356a5761356a614f11565b6040519080825280602002602001820160405280156135af57816020015b60408051808201909152600080825260208201528152602001906001900390816135885790505b50905060005b828110156124485760008060008686858181106135d4576135d4615515565b905060200201358152602001908152602001600020549050808383815181106135ff576135ff615515565b60200260200101516000019073ffffffffffffffffffffffffffffffffffffffff16908173ffffffffffffffffffffffffffffffffffffffff168152505060a081901c6affffffffffffffffffffff1683838151811061366157613661615515565b6020908102919091018101510152508061367a816154dc565b9150506135b5565b600d5473ffffffffffffffffffffffffffffffffffffffff163314613703576040517f08c379a000000000000000000000000000000000000000000000000000000000815260206004820152600e60248201527f4e4f545f415554484f52495a45440000000000000000000000000000000000006044820152606401610e4d565b600e80547fffffffffffffffffffffffff00000000000000000000000000000000000000001673ffffffffffffffffffffffffffffffffffffffff83169081179091556040519081527f726b590ef91a8c76ad05bbe91a57ef84605276528f49cd47d787f558a4e755b69060200161149f565b60007f01ffc9a7000000000000000000000000000000000000000000000000000000007fffffffff000000000000000000000000000000000000000000000000000000008316148061380957507f80ac58cd000000000000000000000000000000000000000000000000000000007fffffffff000000000000000000000000000000000000000000000000000000008316145b80610d9a5750507fffffffff00000000000000000000000000000000000000000000000000000000167f5b5e139f000000000000000000000000000000000000000000000000000000001490565b73ffffffffffffffffffffffffffffffffffffffff82166138a457600081815260208190526040902060a084901b73ffffffffffffffffffffffffffffffffffffffff861617905561392f565b6000818152602081815260408083207f800000000000000000000000000000000000000000000000000000000000000073ffffffffffffffffffffffffffffffffffffffff89811660a08a901b1791909117909155600390925290912080547fffffffffffffffffffffffff0000000000000000000000000000000000000000169184169190911790555b808273ffffffffffffffffffffffffffffffffffffffff168573ffffffffffffffffffffffffffffffffffffffff167f8c5be1e5ebec7d5bd14f71427d1e84f3dd0314c0f7b2291e5b200ac8c7c3b92560405160405180910390a450505050565b61399b838383614032565b73ffffffffffffffffffffffffffffffffffffffff808316600090815260016020819052604090912080549091019055831615613a1e5773ffffffffffffffffffffffffffffffffffffffff8316600090815260016020526040902080547fffffffffffffffffffffffffffffffffffffffffffffffffffffffffffffffff0190555b6000818152602081905260408082204360a01b73ffffffffffffffffffffffffffffffffffffffff80871691821790925591518493918716917fddf252ad1be2c89b69c2b068fc378daa952ba7f163c4a11628f55a4df523b3ef91a4505050565b6000467f00000000000000000000000000000000000000000000000000000000000000008114613ab757613ab281614059565b613ad9565b7f00000000000000000000000000000000000000000000000000000000000000005b91505090565b6000613aea836114aa565b73ffffffffffffffffffffffffffffffffffffffff84811660008181526007602052604080822080547fffffffffffffffffffffffff000000000000000000000000000000000000000016888616908117909155905194955093928516927f3134e8a2e6d97e929a7e54011ea5485d7d196dd5f0ba4d4ef95803e8e3fc257f9190a46000613b7784613374565b9050610ff58284836140fd565b6000613b8e613a7f565b604080517f49ecf333e5b8c95c40fdafc95c1ad136e8914a8fb55e9dc8bb01eaa83a2df9ad602082015273ffffffffffffffffffffffffffffffffffffffff8b1691810191909152606081018990526080810187905260a0810188905260c00160405160208183030381529060405280519060200120604051602001613c469291907f190100000000000000000000000000000000000000000000000000000000000081526002810192909252602282015260420190565b604051602081830303815290604052805190602001209050613c6b8982868686614322565b505050505050505050565b613c81848484613990565b73ffffffffffffffffffffffffffffffffffffffff83163b15610ff557613cab338585858561464f565b610ff5576040517f08c379a000000000000000000000000000000000000000000000000000000000815260206004820152601860248201527f4552433732315f5452414e534645525f52454a454354454400000000000000006044820152606401610e4d565b6060613d378484846040518060600160405280602981526020016157f260299139614733565b949350505050565b73ffffffffffffffffffffffffffffffffffffffff83811660008181526002602090815260408083209487168084529482529182902080547fffffffffffffffffffffffffffffffffffffffffffffffffffffffffffffff001686151590811790915591519182527f17307eab39ab6107e8899845ad3d59bd9653f200f220920489ca2b5937696c31910160405180910390a3505050565b6000613de1613a7f565b604080517f29795620f29ed5790c945e3f419a1b3e2381aa07751ccffe5b81231639d74cd5602082015273ffffffffffffffffffffffffffffffffffffffff8a1691810191909152606081018790526080810188905260a00160405160208183030381529060405280519060200120604051602001613e929291907f190100000000000000000000000000000000000000000000000000000000000081526002810192909252602282015260420190565b604051602081830303815290604052805190602001209050611bdf8882868686614322565b6000816c010000000000000000000000008410613f01576040517f08c379a0000000000000000000000000000000000000000000000000000000008152600401610e4d9190614d63565b509192915050565b60007f000000000000000000000000000000000000000000000000000000000000000073ffffffffffffffffffffffffffffffffffffffff16613f4e57506000610d9a565b6040517fc455279100000000000000000000000000000000000000000000000000000000815273ffffffffffffffffffffffffffffffffffffffff84811660048301527f0000000000000000000000000000000000000000000000000000000000000000918482169183169063c45527919060240160206040518083038186803b158015613fdb57600080fd5b505afa158015613fef573d6000803e3d6000fd5b505050506040513d601f19601f82011682018060405250810190614013919061564b565b73ffffffffffffffffffffffffffffffffffffffff1614949350505050565b60065460ff16156113aa576113aa614049846114aa565b614052846114aa565b60016140fd565b60007f8cad95687ba82c2ce50e74f7b754645e5117c3a5bec8151c0726d5857980a8666140b660408051808201909152600681527f426c656570730000000000000000000000000000000000000000000000000000602082015290565b80516020918201206040805192830193909352918101919091526060810183905230608082015260a001604051602081830303815290604052805190602001209050919050565b8173ffffffffffffffffffffffffffffffffffffffff168373ffffffffffffffffffffffffffffffffffffffff161415801561414757506000816bffffffffffffffffffffffff16115b156113aa5773ffffffffffffffffffffffffffffffffffffffff8316156142395773ffffffffffffffffffffffffffffffffffffffff831660009081526009602052604081205463ffffffff1690816141a1576000614200565b73ffffffffffffffffffffffffffffffffffffffff85166000908152600860205260408120906141d2600185615494565b63ffffffff16815260208101919091526040016000205464010000000090046bffffffffffffffffffffffff165b905060006142278285604051806060016040528060378152602001615858603791396148b3565b905061423586848484614919565b5050505b73ffffffffffffffffffffffffffffffffffffffff8216156113aa5773ffffffffffffffffffffffffffffffffffffffff821660009081526009602052604081205463ffffffff16908161428e5760006142ed565b73ffffffffffffffffffffffffffffffffffffffff84166000908152600860205260408120906142bf600185615494565b63ffffffff16815260208101919091526040016000205464010000000090046bffffffffffffffffffffffff165b90506000614314828560405180606001604052806036815260200161577860369139614b9c565b90506129a385848484614919565b73ffffffffffffffffffffffffffffffffffffffff85163b156144be57604080516020810184905280820183905260f885901b7fff000000000000000000000000000000000000000000000000000000000000001660608201528151604181830301815260618201928390527f1626ba7e000000000000000000000000000000000000000000000000000000009283905273ffffffffffffffffffffffffffffffffffffffff881691631626ba7e916143e091899190606501615668565b60206040518083038186803b1580156143f857600080fd5b505afa15801561440c573d6000803e3d6000fd5b505050506040513d601f19601f820116820180604052508101906144309190615681565b7fffffffff0000000000000000000000000000000000000000000000000000000016146144b9576040517f08c379a000000000000000000000000000000000000000000000000000000000815260206004820152601b60248201527f5349474e41545552455f313237315f4e4f545f4d41544348494e4700000000006044820152606401610e4d565b611336565b6040805160008082526020820180845287905260ff861692820192909252606081018490526080810183905260019060a0016020604051602081039080840390855afa158015614512573d6000803e3d6000fd5b50506040517fffffffffffffffffffffffffffffffffffffffffffffffffffffffffffffffe0015191505073ffffffffffffffffffffffffffffffffffffffff81166145ba576040517f08c379a000000000000000000000000000000000000000000000000000000000815260206004820152601160248201527f5349474e41545552455f494e56414c49440000000000000000000000000000006044820152606401610e4d565b8573ffffffffffffffffffffffffffffffffffffffff168173ffffffffffffffffffffffffffffffffffffffff16146129a3576040517f08c379a000000000000000000000000000000000000000000000000000000000815260206004820152601660248201527f5349474e41545552455f57524f4e475f5349474e4552000000000000000000006044820152606401610e4d565b6000808473ffffffffffffffffffffffffffffffffffffffff1663150b7a02888887876040518563ffffffff1660e01b8152600401614691949392919061569e565b602060405180830381600087803b1580156146ab57600080fd5b505af11580156146bf573d6000803e3d6000fd5b505050506040513d601f19601f820116820180604052508101906146e39190615681565b7fffffffff00000000000000000000000000000000000000000000000000000000167f150b7a02000000000000000000000000000000000000000000000000000000001491505095945050505050565b6060824710156147c5576040517f08c379a000000000000000000000000000000000000000000000000000000000815260206004820152602660248201527f416464726573733a20696e73756666696369656e742062616c616e636520666f60448201527f722063616c6c00000000000000000000000000000000000000000000000000006064820152608401610e4d565b843b61482d576040517f08c379a000000000000000000000000000000000000000000000000000000000815260206004820152601d60248201527f416464726573733a2063616c6c20746f206e6f6e2d636f6e74726163740000006044820152606401610e4d565b6000808673ffffffffffffffffffffffffffffffffffffffff16858760405161485691906156e7565b60006040518083038185875af1925050503d8060008114614893576040519150601f19603f3d011682016040523d82523d6000602084013e614898565b606091505b50915091506148a8828286614c0d565b979650505050505050565b6000836bffffffffffffffffffffffff16836bffffffffffffffffffffffff161115829061490e576040517f08c379a0000000000000000000000000000000000000000000000000000000008152600401610e4d9190614d63565b50613d378385615703565b600061493d436040518060800160405280604481526020016157ae60449139614c60565b905060008463ffffffff161180156149a4575073ffffffffffffffffffffffffffffffffffffffff8516600090815260086020526040812063ffffffff831691614988600188615494565b63ffffffff908116825260208201929092526040016000205416145b15614a3a5773ffffffffffffffffffffffffffffffffffffffff8516600090815260086020526040812083916149db600188615494565b63ffffffff168152602081019190915260400160002080546bffffffffffffffffffffffff92909216640100000000027fffffffffffffffffffffffffffffffff000000000000000000000000ffffffff909216919091179055614b35565b60408051808201825263ffffffff80841682526bffffffffffffffffffffffff808616602080850191825273ffffffffffffffffffffffffffffffffffffffff8b166000908152600882528681208b8616825290915294909420925183549451909116640100000000027fffffffffffffffffffffffffffffffff00000000000000000000000000000000909416911617919091179055614adc846001615728565b73ffffffffffffffffffffffffffffffffffffffff8616600090815260096020526040902080547fffffffffffffffffffffffffffffffffffffffffffffffffffffffff000000001663ffffffff929092169190911790555b604080516bffffffffffffffffffffffff80861682528416602082015273ffffffffffffffffffffffffffffffffffffffff8716917fdec2bacdd2f05b59de34da9b523dff8be42e5e38e818c82fdb0bae774387a724910160405180910390a25050505050565b600080614ba98486615750565b9050846bffffffffffffffffffffffff16816bffffffffffffffffffffffff1610158390614c04576040517f08c379a0000000000000000000000000000000000000000000000000000000008152600401610e4d9190614d63565b50949350505050565b60608315614c1c5750816114e2565b825115614c2c5782518084602001fd5b816040517f08c379a0000000000000000000000000000000000000000000000000000000008152600401610e4d9190614d63565b6000816401000000008410613f01576040517f08c379a0000000000000000000000000000000000000000000000000000000008152600401610e4d9190614d63565b7fffffffff000000000000000000000000000000000000000000000000000000008116811461151157600080fd5b600060208284031215614ce257600080fd5b81356114e281614ca2565b60005b83811015614d08578181015183820152602001614cf0565b83811115610ff55750506000910152565b60008151808452614d31816020860160208601614ced565b601f017fffffffffffffffffffffffffffffffffffffffffffffffffffffffffffffffe0169290920160200192915050565b6020815260006114e26020830184614d19565b600060208284031215614d8857600080fd5b5035919050565b73ffffffffffffffffffffffffffffffffffffffff8116811461151157600080fd5b60008060408385031215614dc457600080fd5b8235614dcf81614d8f565b946020939093013593505050565b600080600060608486031215614df257600080fd5b8335614dfd81614d8f565b92506020840135614e0d81614d8f565b929592945050506040919091013590565b60008060408385031215614e3157600080fd5b50508035926020909101359150565b600060208284031215614e5257600080fd5b81356114e281614d8f565b803560ff811681146115a057600080fd5b60008060008060008060c08789031215614e8757600080fd5b8635614e9281614d8f565b95506020870135945060408701359350614eae60608801614e5d565b92506080870135915060a087013590509295509295509295565b803561ffff811681146115a057600080fd5b60008060408385031215614eed57600080fd5b614ef683614ec8565b91506020830135614f0681614d8f565b809150509250929050565b7f4e487b7100000000000000000000000000000000000000000000000000000000600052604160045260246000fd5b604051601f82017fffffffffffffffffffffffffffffffffffffffffffffffffffffffffffffffe016810167ffffffffffffffff81118282101715614f8757614f87614f11565b604052919050565b600067ffffffffffffffff821115614fa957614fa9614f11565b50601f017fffffffffffffffffffffffffffffffffffffffffffffffffffffffffffffffe01660200190565b600082601f830112614fe657600080fd5b8135614ff9614ff482614f8f565b614f40565b81815284602083860101111561500e57600080fd5b816020850160208301376000918101602001919091529392505050565b60008060006060848603121561504057600080fd5b833561504b81614d8f565b9250602084013567ffffffffffffffff81111561506757600080fd5b61507386828701614fd5565b925050604084013590509250925092565b60008083601f84011261509657600080fd5b50813567ffffffffffffffff8111156150ae57600080fd5b6020830191508360208260051b85010111156150c957600080fd5b9250929050565b600080602083850312156150e357600080fd5b823567ffffffffffffffff8111156150fa57600080fd5b61510685828601615084565b90969095509350505050565b6020808252825182820181905260009190848201906040850190845b8181101561516057835173ffffffffffffffffffffffffffffffffffffffff168352928401929184019160010161512e565b50909695505050505050565b6000806040838503121561517f57600080fd5b823561518a81614d8f565b915060208301358015158114614f0657600080fd5b6000602080830181845280855180835260408601915060408160051b870101925083870160005b82811015615212577fffffffffffffffffffffffffffffffffffffffffffffffffffffffffffffffc0888603018452615200858351614d19565b945092850192908501906001016151c6565b5092979650505050505050565b6000806000806080858703121561523557600080fd5b843561524081614d8f565b9350602085013561525081614d8f565b925060408501359150606085013567ffffffffffffffff81111561527357600080fd5b61527f87828801614fd5565b91505092959194509250565b60008060008060008060c087890312156152a457600080fd5b86356152af81614d8f565b955060208701356152bf81614d8f565b945060408701359350614eae60608801614e5d565b6000806000604084860312156152e957600080fd5b833567ffffffffffffffff81111561530057600080fd5b61530c86828701615084565b909450925050602084013561532081614d8f565b809150509250925092565b6000806040838503121561533e57600080fd5b8235614ef681614d8f565b6000806040838503121561535c57600080fd5b823561536781614d8f565b9150602083013563ffffffff81168114614f0657600080fd5b602080825282518282018190526000919060409081850190868401855b828110156153d8578151805173ffffffffffffffffffffffffffffffffffffffff16855286015186850152928401929085019060010161539d565b5091979650505050505050565b7f4e487b7100000000000000000000000000000000000000000000000000000000600052601160045260246000fd5b6000817fffffffffffffffffffffffffffffffffffffffffffffffffffffffffffffffff048311821515161561544c5761544c6153e5565b500290565b7f4e487b7100000000000000000000000000000000000000000000000000000000600052601260045260246000fd5b60008261548f5761548f615451565b500490565b600063ffffffff838116908316818110156154b1576154b16153e5565b039392505050565b600063ffffffff808416806154d0576154d0615451565b92169190910492915050565b60007fffffffffffffffffffffffffffffffffffffffffffffffffffffffffffffffff82141561550e5761550e6153e5565b5060010190565b7f4e487b7100000000000000000000000000000000000000000000000000000000600052603260045260246000fd5b60008083357fffffffffffffffffffffffffffffffffffffffffffffffffffffffffffffffe184360301811261557957600080fd5b83018035915067ffffffffffffffff82111561559457600080fd5b6020019150368190038213156150c957600080fd5b8183823760009101908152919050565b6000602082840312156155cb57600080fd5b815167ffffffffffffffff8111156155e257600080fd5b8201601f810184136155f357600080fd5b8051615601614ff482614f8f565b81815285602083850101111561561657600080fd5b615627826020830160208601614ced565b95945050505050565b60006020828403121561564257600080fd5b6114e282614ec8565b60006020828403121561565d57600080fd5b81516114e281614d8f565b828152604060208201526000613d376040830184614d19565b60006020828403121561569357600080fd5b81516114e281614ca2565b600073ffffffffffffffffffffffffffffffffffffffff8087168352808616602084015250836040830152608060608301526156dd6080830184614d19565b9695505050505050565b600082516156f9818460208701614ced565b9190910192915050565b60006bffffffffffffffffffffffff838116908316818110156154b1576154b16153e5565b600063ffffffff808316818516808303821115615747576157476153e5565b01949350505050565b60006bffffffffffffffffffffffff808316818516808303821115615747576157476153e556fe455243373231436865636b706f696e7461626c653a3a5f6d6f766544656c6567617465733a20616d6f756e74206f766572666c6f7773455243373231436865636b706f696e7461626c653a3a5f7772697465436865636b706f696e743a20626c6f636b206e756d62657220657863656564732033322062697473416464726573733a206c6f772d6c6576656c2063616c6c20776974682076616c7565206661696c6564455243373231436865636b706f696e7461626c653a3a766f746573546f44656c65676174653a20616d6f756e7420657863656564732039362062697473455243373231436865636b706f696e7461626c653a3a5f6d6f766544656c6567617465733a20616d6f756e7420756e646572666c6f7773a26469706673582212206af4879c6eb6b3092427ae395f268514d300aaca526404506cb8016d28eb82d164736f6c63430008090033",
  "devdoc": {
    "kind": "dev",
    "methods": {
      "DOMAIN_SEPARATOR()": {
        "details": "Return the DOMAIN_SEPARATOR."
      },
      "approve(address,uint256)": {
        "params": {
          "id": "The id of the token.",
          "operator": "The address receiving the approval."
        }
      },
      "balanceOf(address)": {
        "params": {
          "owner": "The address to look for."
        },
        "returns": {
          "balance": "The number of tokens owned by the address."
        }
      },
      "constructor": {
        "details": "Create the Bleeps contract",
        "params": {
          "initialCheckpointingDisabler": "admin able to update the royalty recipient and rates.",
          "initialGuardian": "guardian able to immortalize rules",
          "initialMinterAdmin": "admin able to set the minter contract.",
          "initialOwner": "address that can execute on behalf of Bleeps (example: can claim ENS name).",
          "initialRoyaltyAdmin": "admin able to update the royalty recipient and rates.",
          "initialTokenURIAdmin": "admin able to update the tokenURI contract.",
          "initialTokenURIContract": "initial tokenURI contract that generate the metadata including the wav file.",
          "openseaProxyRegistry": "allow Bleeps to be sold on opensea without prior approval tx as long as the user have already an opensea proxy."
        }
      },
      "delegate(address)": {
        "params": {
          "delegatee": "The address to delegate votes to"
        }
      },
      "delegateBySig(address,uint256,uint256,uint8,bytes32,bytes32)": {
        "params": {
          "delegatee": "The address to delegate votes to",
          "expiry": "The time at which to expire the signature",
          "nonce": "The contract state required to match the signature",
          "r": "Half of the ECDSA signature pair",
          "s": "Half of the ECDSA signature pair",
          "v": "The recovery byte of the signature"
        }
      },
      "getApproved(uint256)": {
        "params": {
          "id": "The id of the token."
        },
        "returns": {
          "_0": "The address of the operator."
        }
      },
      "getCurrentVotes(address)": {
        "params": {
          "account": "The address to get votes balance"
        },
        "returns": {
          "_0": "The number of current votes for `account`"
        }
      },
      "getPriorVotes(address,uint256)": {
        "details": "Block number must be a finalized block or else this function will revert to prevent misinformation.",
        "params": {
          "account": "The address of the account to check",
          "blockNumber": "The block number to get the vote balance at"
        },
        "returns": {
          "_0": "The number of votes the account had as of the given block"
        }
      },
      "isApprovedForAll(address,address)": {
        "params": {
          "operator": "The address of the operator.",
          "owner": "The address of the owner."
        },
        "returns": {
          "isOperator": "The status of the approval."
        }
      },
      "mint(uint16,address)": {
        "params": {
          "id": "bleep id which represent a pair of (note, instrument).",
          "to": "address that will receive the Bleep."
        }
      },
      "multiMint(uint16[],address)": {
        "params": {
          "ids": "list of bleep id which represent each a pair of (note, instrument).",
          "to": "address that will receive the Bleeps."
        }
      },
      "multicall(bytes[])": {
        "details": "The `msg.value` should not be trusted for any method callable from multicall.",
        "params": {
          "data": "The encoded function data for each of the calls to make to this contract."
        },
        "returns": {
          "results": "The results from each of the calls passed in via data."
        }
      },
      "ownerAndLastTransferBlockNumberList(uint256[])": {
        "params": {
          "ids": "The list of token ids to check."
        },
        "returns": {
          "ownersData": "The list of (owner, lastTransferBlockNumber) for each ids given as input."
        }
      },
      "ownerOf(uint256)": {
        "params": {
          "id": "The id of the token."
        },
        "returns": {
          "owner": "The address of the token owner."
        }
      },
      "owners(uint256[])": {
        "params": {
          "ids": "The list if token ids to check."
        },
        "returns": {
          "addresses": "The list of addresses, corresponding to the list of ids."
        }
      },
      "royaltyInfo(uint256,uint256)": {
        "params": {
          "id": "- the token queried for royalty information.",
          "salePrice": "- the sale price of the token specified by id."
        },
        "returns": {
          "receiver": "- address of who should be sent the royalty payment.",
          "royaltyAmount": "- the royalty payment amount for salePrice."
        }
      },
      "safeTransferFrom(address,address,uint256)": {
        "params": {
          "from": "The send of the token.",
          "id": "The id of the token.",
          "to": "The recipient of the token."
        }
      },
      "safeTransferFrom(address,address,uint256,bytes)": {
        "params": {
          "data": "Additional data.",
          "from": "The sender of the token.",
          "id": "The id of the token.",
          "to": "The recipient of the token."
        }
      },
      "setApprovalForAll(address,bool)": {
        "params": {
          "approved": "The determination of the approval.",
          "operator": "The address receiving the approval."
        }
      },
      "setCheckpointingDisabler(address)": {
        "params": {
          "newCheckpointingDisabler": "new address that can disable the use of checkpointing. can be the zero address to remove the ability to change."
        }
      },
      "setRoyaltyParameters(address,uint256)": {
        "params": {
          "newRecipient": "the address that should receive the royalty proceeds.",
          "royaltyPer10Thousands": "the share of the salePrice (in 1/10000) given to the recipient."
        }
      },
      "setTokenURIContract(address)": {
        "params": {
          "newTokenURIContract": "The address of the new tokenURI contract."
        }
      },
      "sound(uint256)": {
        "params": {
          "id": "bleep id which represent a pair of (note, instrument)."
        },
        "returns": {
          "instrument": "the instrument index (0 to 16). At launch there is only 9 instrument but the DAO could add more (up to 16 in total).",
          "note": "the note index (0 to 63) starting from C2 to D#7"
        }
      },
      "supportsInterface(bytes4)": {
        "params": {
          "id": "The id of the interface."
        },
        "returns": {
          "_0": "Whether the interface is supported."
        }
      },
      "transferFrom(address,address,uint256)": {
        "params": {
          "from": "The sender of the token.",
          "id": "The id of the token.",
          "to": "The recipient of the token."
        }
      },
      "votesToDelegate(address)": {
        "details": "Used when calling `_delegate()`"
      }
    },
    "stateVariables": {
      "_royaltyPer10Thousands": {
        "details": "share of royalty, default to zero."
      },
      "_royaltyRecipient": {
        "details": "recipient of royalty, default to zero."
      },
      "checkpointingDisabler": {
        "details": "address that is able to switch off the use of checkpointing, this will make token transfers much cheaper in term of gas, but require the design of a new governance system."
      }
    },
    "version": 1
  },
  "userdoc": {
    "events": {
      "DelegateChanged(address,address,address)": {
        "notice": "An event thats emitted when an account changes its delegate"
      },
      "DelegateVotesChanged(address,uint256,uint256)": {
        "notice": "An event thats emitted when a delegate account's vote balance changes"
      }
    },
    "kind": "user",
    "methods": {
      "DELEGATION_TYPEHASH()": {
        "notice": "The EIP-712 typehash for the delegation struct used by the contract"
      },
      "approve(address,uint256)": {
        "notice": "Approve an operator to spend tokens on the senders behalf."
      },
      "balanceOf(address)": {
        "notice": "Get the number of tokens owned by an address."
      },
      "checkpoints(address,uint32)": {
        "notice": "A record of votes checkpoints for each account, by index"
      },
      "contractURI()": {
        "notice": "Returns the Uniform Resource Identifier (URI) for the token collection."
      },
      "decimals()": {
        "notice": "Defines decimals as per ERC-20 convention to make integrations with 3rd party governance platforms easier"
      },
      "delegate(address)": {
        "notice": "Delegate votes from `msg.sender` to `delegatee`"
      },
      "delegateBySig(address,uint256,uint256,uint8,bytes32,bytes32)": {
        "notice": "Delegates votes from signatory to `delegatee`"
      },
      "delegates(address)": {
        "notice": "Overrides the standard `Comp.sol` delegates mapping to return the delegator's own address if they haven't delegated. This avoids having to delegate to oneself."
      },
      "disableTheUseOfCheckpoints()": {
        "notice": "disable checkpointing overhead This can be used if the governance system can switch to use ownerAndLastTransferBlockNumberOf instead of checkpoints"
      },
      "getApproved(uint256)": {
        "notice": "Get the approved operator for a specific token."
      },
      "getCurrentVotes(address)": {
        "notice": "Gets the current votes balance for `account`"
      },
      "getPriorVotes(address,uint256)": {
        "notice": "Determine the prior number of votes for an account as of a block number"
      },
      "guardian()": {
        "notice": "guardian has some special vetoing power to guide the direction of the DAO. It can only remove rights from the DAO. It could be used to immortalize rules. For example: The DAO governance framework is by default changeable. This means the DAO could change it so Bleeps do not provide votes anymore. To prevent that from happening, the guardian can remove the ability of the DAO to changes its governance contract. (the reason the governance is changeable by default is so that better ideas an be tried out later)"
      },
      "isApprovedForAll(address,address)": {
        "notice": "Check if the sender approved the operator."
      },
      "mint(uint16,address)": {
        "notice": "mint one of bleep if not already minted. Can only be called by `minter`."
      },
      "minter()": {
        "notice": "address allowed to mint, allow the sale contract to be separated from the token contract that can focus on the core logic Once all 1024 potential bleeps (there could be less, at minimum there are 576 bleeps) are minted, no minter can mint anymore"
      },
      "minterAdmin()": {
        "notice": "minterAdmin can update the minter. At the time being there is 576 Bleeps but there is space for extra instrument and the upper limit is 1024. could be given to the DAO later so instrument can be added, the sale of these new bleeps could benenfit the DAO too and add new members."
      },
      "multiMint(uint16[],address)": {
        "notice": "mint multiple bleeps if not already minted. Can only be called by `minter`."
      },
      "multicall(bytes[])": {
        "notice": "Call multiple functions in the current contract and return the data from all of them if they all succeed."
      },
      "name()": {
        "notice": "A descriptive name for a collection of NFTs in this contract."
      },
      "numCheckpoints(address)": {
        "notice": "The number of checkpoints for each account"
      },
      "owner()": {
        "notice": "the address of the current owner, that is able to execute on behalf of this contract."
      },
      "ownerAndLastTransferBlockNumberList(uint256[])": {
        "notice": "Get the list of owner of a token and the blockNumber of its last transfer, useful to voting mechanism."
      },
      "ownerOf(uint256)": {
        "notice": "Get the owner of a token."
      },
      "owners(uint256[])": {
        "notice": "give the list of owners for the list of ids given."
      },
      "royaltyAdmin()": {
        "notice": "address allowed to set royalty parameters"
      },
      "royaltyInfo(uint256,uint256)": {
        "notice": "Called with the sale price to determine how much royalty is owed and to whom."
      },
      "safeTransferFrom(address,address,uint256)": {
        "notice": "Transfer a token between 2 addresses letting the receiver know of the transfer."
      },
      "safeTransferFrom(address,address,uint256,bytes)": {
        "notice": "Transfer a token between 2 addresses letting the receiver knows of the transfer."
      },
      "setApprovalForAll(address,bool)": {
        "notice": "Set the approval for an operator to manage all the tokens of the sender."
      },
      "setCheckpointingDisabler(address)": {
        "notice": "update the address that can disable the use of checkpinting, can be used to disable it entirely."
      },
      "setGuardian(address)": {
        "notice": "set the new guardian that can freeze the other admins (except owner). Can only be called by the current guardian."
      },
      "setMinter(address)": {
        "notice": "set the new minter that can mint Bleeps (up to 1024). Can only be called by the minter admin."
      },
      "setMinterAdmin(address)": {
        "notice": "set the new minterAdmin that can set the minter for Bleeps Can only be called by the current minter admin."
      },
      "setRoyaltyAdmin(address)": {
        "notice": "set the new royaltyAdmin that can change the royalties Can only be called by the current royalty admin."
      },
      "setRoyaltyParameters(address,uint256)": {
        "notice": "set a new royalty recipient and rate, Can only be set by the `royaltyAdmin`."
      },
      "setTokenURIAdmin(address)": {
        "notice": "set the new tokenURIAdmin that can change the tokenURI Can only be called by the current tokenURI admin."
      },
      "setTokenURIContract(address)": {
        "notice": "set a new tokenURI contract, that generate the metadata including the wav file, Can only be set by the `tokenURIAdmin`."
      },
      "sound(uint256)": {
        "notice": "gives the note and instrument for a particular Bleep id."
      },
      "supportsInterface(bytes4)": {
        "notice": "Check if the contract supports an interface."
      },
      "symbol()": {
        "notice": "An abbreviated name for NFTs in this contract."
      },
      "tokenURI(uint256)": {
        "notice": "Returns the Uniform Resource Identifier (URI) for token `id`."
      },
      "tokenURIAdmin()": {
        "notice": "maintainer can update the tokenURI contract, this is intended to be relinquished once the tokenURI has been heavily tested in the wild and that no modification are needed."
      },
      "tokenURIContract()": {
        "notice": "the contract that actually generate the sound (and all metadata via the a data: uri via tokenURI call)."
      },
      "transferFrom(address,address,uint256)": {
        "notice": "Transfer a token between 2 addresses."
      },
      "transferOwnership(address)": {
        "notice": "Transfers ownership of the contract to a new account (`newOwner`). Can only be called by the current owner."
      },
      "votesToDelegate(address)": {
        "notice": "The votes a delegator can delegate, which is the current balance of the delegator."
      }
    },
    "version": 1
  },
  "storageLayout": {
    "storage": [
      {
        "astId": 6602,
        "contract": "src/bleeps/Bleeps.sol:Bleeps",
        "label": "_owners",
        "offset": 0,
        "slot": "0",
        "type": "t_mapping(t_uint256,t_uint256)"
      },
      {
        "astId": 6606,
        "contract": "src/bleeps/Bleeps.sol:Bleeps",
        "label": "_balances",
        "offset": 0,
        "slot": "1",
        "type": "t_mapping(t_address,t_uint256)"
      },
      {
        "astId": 6612,
        "contract": "src/bleeps/Bleeps.sol:Bleeps",
        "label": "_operatorsForAll",
        "offset": 0,
        "slot": "2",
        "type": "t_mapping(t_address,t_mapping(t_address,t_bool))"
      },
      {
        "astId": 6616,
        "contract": "src/bleeps/Bleeps.sol:Bleeps",
        "label": "_operators",
        "offset": 0,
        "slot": "3",
        "type": "t_mapping(t_uint256,t_address)"
      },
      {
        "astId": 7560,
        "contract": "src/bleeps/Bleeps.sol:Bleeps",
        "label": "_tokenNonces",
        "offset": 0,
        "slot": "4",
        "type": "t_mapping(t_uint256,t_uint256)"
      },
      {
        "astId": 7564,
        "contract": "src/bleeps/Bleeps.sol:Bleeps",
        "label": "_userNonces",
        "offset": 0,
        "slot": "5",
        "type": "t_mapping(t_address,t_uint256)"
      },
      {
        "astId": 7938,
        "contract": "src/bleeps/Bleeps.sol:Bleeps",
        "label": "_useCheckpoints",
        "offset": 0,
        "slot": "6",
        "type": "t_bool"
      },
      {
        "astId": 7947,
        "contract": "src/bleeps/Bleeps.sol:Bleeps",
        "label": "_delegates",
        "offset": 0,
        "slot": "7",
        "type": "t_mapping(t_address,t_address)"
      },
      {
        "astId": 7960,
        "contract": "src/bleeps/Bleeps.sol:Bleeps",
        "label": "checkpoints",
        "offset": 0,
        "slot": "8",
        "type": "t_mapping(t_address,t_mapping(t_uint32,t_struct(Checkpoint)7952_storage))"
      },
      {
        "astId": 7965,
        "contract": "src/bleeps/Bleeps.sol:Bleeps",
        "label": "numCheckpoints",
        "offset": 0,
        "slot": "9",
        "type": "t_mapping(t_address,t_uint32)"
      },
      {
        "astId": 11199,
        "contract": "src/bleeps/Bleeps.sol:Bleeps",
        "label": "owner",
        "offset": 0,
        "slot": "10",
        "type": "t_address"
      },
      {
        "astId": 11202,
        "contract": "src/bleeps/Bleeps.sol:Bleeps",
        "label": "tokenURIAdmin",
        "offset": 0,
        "slot": "11",
        "type": "t_address"
      },
      {
        "astId": 11205,
        "contract": "src/bleeps/Bleeps.sol:Bleeps",
        "label": "royaltyAdmin",
        "offset": 0,
        "slot": "12",
        "type": "t_address"
      },
      {
        "astId": 11208,
        "contract": "src/bleeps/Bleeps.sol:Bleeps",
        "label": "minterAdmin",
        "offset": 0,
        "slot": "13",
        "type": "t_address"
      },
      {
        "astId": 11211,
        "contract": "src/bleeps/Bleeps.sol:Bleeps",
        "label": "minter",
        "offset": 0,
        "slot": "14",
        "type": "t_address"
      },
      {
        "astId": 11214,
        "contract": "src/bleeps/Bleeps.sol:Bleeps",
        "label": "guardian",
        "offset": 0,
        "slot": "15",
        "type": "t_address"
      },
      {
        "astId": 9606,
        "contract": "src/bleeps/Bleeps.sol:Bleeps",
        "label": "tokenURIContract",
        "offset": 0,
        "slot": "16",
        "type": "t_contract(ITokenURI)13061"
      },
      {
        "astId": 9609,
        "contract": "src/bleeps/Bleeps.sol:Bleeps",
        "label": "_royaltyRecipient",
        "offset": 0,
        "slot": "17",
        "type": "t_address"
      },
      {
        "astId": 9612,
        "contract": "src/bleeps/Bleeps.sol:Bleeps",
        "label": "_royaltyPer10Thousands",
        "offset": 0,
        "slot": "18",
        "type": "t_uint256"
      },
      {
        "astId": 9615,
        "contract": "src/bleeps/Bleeps.sol:Bleeps",
        "label": "checkpointingDisabler",
        "offset": 0,
        "slot": "19",
        "type": "t_address"
      }
    ],
    "types": {
      "t_address": {
        "encoding": "inplace",
        "label": "address",
        "numberOfBytes": "20"
      },
      "t_bool": {
        "encoding": "inplace",
        "label": "bool",
        "numberOfBytes": "1"
      },
      "t_contract(ITokenURI)13061": {
        "encoding": "inplace",
        "label": "contract ITokenURI",
        "numberOfBytes": "20"
      },
      "t_mapping(t_address,t_address)": {
        "encoding": "mapping",
        "key": "t_address",
        "label": "mapping(address => address)",
        "numberOfBytes": "32",
        "value": "t_address"
      },
      "t_mapping(t_address,t_bool)": {
        "encoding": "mapping",
        "key": "t_address",
        "label": "mapping(address => bool)",
        "numberOfBytes": "32",
        "value": "t_bool"
      },
      "t_mapping(t_address,t_mapping(t_address,t_bool))": {
        "encoding": "mapping",
        "key": "t_address",
        "label": "mapping(address => mapping(address => bool))",
        "numberOfBytes": "32",
        "value": "t_mapping(t_address,t_bool)"
      },
      "t_mapping(t_address,t_mapping(t_uint32,t_struct(Checkpoint)7952_storage))": {
        "encoding": "mapping",
        "key": "t_address",
        "label": "mapping(address => mapping(uint32 => struct ERC721Checkpointable.Checkpoint))",
        "numberOfBytes": "32",
        "value": "t_mapping(t_uint32,t_struct(Checkpoint)7952_storage)"
      },
      "t_mapping(t_address,t_uint256)": {
        "encoding": "mapping",
        "key": "t_address",
        "label": "mapping(address => uint256)",
        "numberOfBytes": "32",
        "value": "t_uint256"
      },
      "t_mapping(t_address,t_uint32)": {
        "encoding": "mapping",
        "key": "t_address",
        "label": "mapping(address => uint32)",
        "numberOfBytes": "32",
        "value": "t_uint32"
      },
      "t_mapping(t_uint256,t_address)": {
        "encoding": "mapping",
        "key": "t_uint256",
        "label": "mapping(uint256 => address)",
        "numberOfBytes": "32",
        "value": "t_address"
      },
      "t_mapping(t_uint256,t_uint256)": {
        "encoding": "mapping",
        "key": "t_uint256",
        "label": "mapping(uint256 => uint256)",
        "numberOfBytes": "32",
        "value": "t_uint256"
      },
      "t_mapping(t_uint32,t_struct(Checkpoint)7952_storage)": {
        "encoding": "mapping",
        "key": "t_uint32",
        "label": "mapping(uint32 => struct ERC721Checkpointable.Checkpoint)",
        "numberOfBytes": "32",
        "value": "t_struct(Checkpoint)7952_storage"
      },
      "t_struct(Checkpoint)7952_storage": {
        "encoding": "inplace",
        "label": "struct ERC721Checkpointable.Checkpoint",
        "members": [
          {
            "astId": 7949,
            "contract": "src/bleeps/Bleeps.sol:Bleeps",
            "label": "fromBlock",
            "offset": 0,
            "slot": "0",
            "type": "t_uint32"
          },
          {
            "astId": 7951,
            "contract": "src/bleeps/Bleeps.sol:Bleeps",
            "label": "votes",
            "offset": 4,
            "slot": "0",
            "type": "t_uint96"
          }
        ],
        "numberOfBytes": "32"
      },
      "t_uint256": {
        "encoding": "inplace",
        "label": "uint256",
        "numberOfBytes": "32"
      },
      "t_uint32": {
        "encoding": "inplace",
        "label": "uint32",
        "numberOfBytes": "4"
      },
      "t_uint96": {
        "encoding": "inplace",
        "label": "uint96",
        "numberOfBytes": "12"
      }
    }
  }
}