{
  "address": "0x4A219d8DE28C125edd354bBCc505cdc6eed771D7",
  "abi": [
    {
      "inputs": [
        {
          "internalType": "address payable",
          "name": "_creator",
          "type": "address"
        },
        {
          "internalType": "uint256",
          "name": "_initialPrice",
          "type": "uint256"
        },
        {
          "internalType": "uint256",
          "name": "_creatorCutPer10000th",
          "type": "uint256"
        },
        {
          "internalType": "uint256",
          "name": "_linearCoefficient",
          "type": "uint256"
        }
      ],
      "stateMutability": "nonpayable",
      "type": "constructor"
    },
    {
      "anonymous": false,
      "inputs": [
        {
          "indexed": true,
          "internalType": "address",
          "name": "owner",
          "type": "address"
        },
        {
          "indexed": true,
          "internalType": "address",
          "name": "approved",
          "type": "address"
        },
        {
          "indexed": true,
          "internalType": "uint256",
          "name": "tokenId",
          "type": "uint256"
        }
      ],
      "name": "Approval",
      "type": "event"
    },
    {
      "anonymous": false,
      "inputs": [
        {
          "indexed": true,
          "internalType": "address",
          "name": "owner",
          "type": "address"
        },
        {
          "indexed": true,
          "internalType": "address",
          "name": "operator",
          "type": "address"
        },
        {
          "indexed": false,
          "internalType": "bool",
          "name": "approved",
          "type": "bool"
        }
      ],
      "name": "ApprovalForAll",
      "type": "event"
    },
    {
      "anonymous": false,
      "inputs": [
        {
          "indexed": true,
          "internalType": "uint256",
          "name": "id",
          "type": "uint256"
        },
        {
          "indexed": true,
          "internalType": "uint256",
          "name": "priceReceived",
          "type": "uint256"
        }
      ],
      "name": "Burned",
      "type": "event"
    },
    {
      "anonymous": false,
      "inputs": [
        {
          "indexed": true,
          "internalType": "address",
          "name": "previousCreator",
          "type": "address"
        },
        {
          "indexed": true,
          "internalType": "address",
          "name": "newCreator",
          "type": "address"
        }
      ],
      "name": "CreatorshipTransferred",
      "type": "event"
    },
    {
      "anonymous": false,
      "inputs": [
        {
          "indexed": true,
          "internalType": "uint256",
          "name": "id",
          "type": "uint256"
        },
        {
          "indexed": true,
          "internalType": "uint256",
          "name": "pricePaid",
          "type": "uint256"
        }
      ],
      "name": "Minted",
      "type": "event"
    },
    {
      "anonymous": false,
      "inputs": [
        {
          "indexed": true,
          "internalType": "address",
          "name": "from",
          "type": "address"
        },
        {
          "indexed": true,
          "internalType": "address",
          "name": "to",
          "type": "address"
        },
        {
          "indexed": true,
          "internalType": "uint256",
          "name": "tokenId",
          "type": "uint256"
        }
      ],
      "name": "Transfer",
      "type": "event"
    },
    {
      "inputs": [
        {
          "internalType": "address",
          "name": "operator",
          "type": "address"
        },
        {
          "internalType": "uint256",
          "name": "id",
          "type": "uint256"
        }
      ],
      "name": "approve",
      "outputs": [],
      "stateMutability": "nonpayable",
      "type": "function"
    },
    {
      "inputs": [
        {
          "internalType": "address",
          "name": "owner",
          "type": "address"
        }
      ],
      "name": "balanceOf",
      "outputs": [
        {
          "internalType": "uint256",
          "name": "balance",
          "type": "uint256"
        }
      ],
      "stateMutability": "view",
      "type": "function"
    },
    {
      "inputs": [
        {
          "internalType": "uint256",
          "name": "id",
          "type": "uint256"
        }
      ],
      "name": "burn",
      "outputs": [],
      "stateMutability": "nonpayable",
      "type": "function"
    },
    {
      "inputs": [],
      "name": "creator",
      "outputs": [
        {
          "internalType": "address payable",
          "name": "",
          "type": "address"
        }
      ],
      "stateMutability": "view",
      "type": "function"
    },
    {
      "inputs": [],
      "name": "creatorCutPer10000th",
      "outputs": [
        {
          "internalType": "uint256",
          "name": "",
          "type": "uint256"
        }
      ],
      "stateMutability": "view",
      "type": "function"
    },
    {
      "inputs": [],
      "name": "currentPrice",
      "outputs": [
        {
          "internalType": "uint256",
          "name": "",
          "type": "uint256"
        }
      ],
      "stateMutability": "view",
      "type": "function"
    },
    {
      "inputs": [
        {
          "internalType": "uint256",
          "name": "id",
          "type": "uint256"
        }
      ],
      "name": "getApproved",
      "outputs": [
        {
          "internalType": "address",
          "name": "",
          "type": "address"
        }
      ],
      "stateMutability": "view",
      "type": "function"
    },
    {
      "inputs": [
        {
          "internalType": "address",
          "name": "owner",
          "type": "address"
        },
        {
          "internalType": "uint256",
          "name": "start",
          "type": "uint256"
        },
        {
          "internalType": "uint256",
          "name": "num",
          "type": "uint256"
        }
      ],
      "name": "getTokenDataOfOwner",
      "outputs": [
        {
          "components": [
            {
              "internalType": "uint256",
              "name": "id",
              "type": "uint256"
            },
            {
              "internalType": "string",
              "name": "tokenURI",
              "type": "string"
            }
          ],
          "internalType": "struct MandalaToken.TokenData[]",
          "name": "tokens",
          "type": "tuple[]"
        }
      ],
      "stateMutability": "view",
      "type": "function"
    },
    {
      "inputs": [],
      "name": "initialPrice",
      "outputs": [
        {
          "internalType": "uint256",
          "name": "",
          "type": "uint256"
        }
      ],
      "stateMutability": "view",
      "type": "function"
    },
    {
      "inputs": [
        {
          "internalType": "address",
          "name": "owner",
          "type": "address"
        },
        {
          "internalType": "address",
          "name": "operator",
          "type": "address"
        }
      ],
      "name": "isApprovedForAll",
      "outputs": [
        {
          "internalType": "bool",
          "name": "isOperator",
          "type": "bool"
        }
      ],
      "stateMutability": "view",
      "type": "function"
    },
    {
      "inputs": [],
      "name": "linearCoefficient",
      "outputs": [
        {
          "internalType": "uint256",
          "name": "",
          "type": "uint256"
        }
      ],
      "stateMutability": "view",
      "type": "function"
    },
    {
      "inputs": [
        {
          "internalType": "address",
          "name": "to",
          "type": "address"
        },
        {
          "internalType": "bytes",
          "name": "signature",
          "type": "bytes"
        }
      ],
      "name": "mint",
      "outputs": [
        {
          "internalType": "uint256",
          "name": "",
          "type": "uint256"
        }
      ],
      "stateMutability": "payable",
      "type": "function"
    },
    {
      "inputs": [],
      "name": "name",
      "outputs": [
        {
          "internalType": "string",
          "name": "",
          "type": "string"
        }
      ],
      "stateMutability": "pure",
      "type": "function"
    },
    {
      "inputs": [
        {
          "internalType": "uint256",
          "name": "id",
          "type": "uint256"
        }
      ],
      "name": "ownerOf",
      "outputs": [
        {
          "internalType": "address",
          "name": "owner",
          "type": "address"
        }
      ],
      "stateMutability": "view",
      "type": "function"
    },
    {
      "inputs": [
        {
          "internalType": "address payable",
          "name": "_creator",
          "type": "address"
        },
        {
          "internalType": "uint256",
          "name": "_initialPrice",
          "type": "uint256"
        },
        {
          "internalType": "uint256",
          "name": "_creatorCutPer10000th",
          "type": "uint256"
        },
        {
          "internalType": "uint256",
          "name": "_linearCoefficient",
          "type": "uint256"
        }
      ],
      "name": "postUpgrade",
      "outputs": [],
      "stateMutability": "nonpayable",
      "type": "function"
    },
    {
      "inputs": [
        {
          "internalType": "address",
          "name": "from",
          "type": "address"
        },
        {
          "internalType": "address",
          "name": "to",
          "type": "address"
        },
        {
          "internalType": "uint256",
          "name": "id",
          "type": "uint256"
        }
      ],
      "name": "safeTransferFrom",
      "outputs": [],
      "stateMutability": "nonpayable",
      "type": "function"
    },
    {
      "inputs": [
        {
          "internalType": "address",
          "name": "from",
          "type": "address"
        },
        {
          "internalType": "address",
          "name": "to",
          "type": "address"
        },
        {
          "internalType": "uint256",
          "name": "id",
          "type": "uint256"
        },
        {
          "internalType": "bytes",
          "name": "data",
          "type": "bytes"
        }
      ],
      "name": "safeTransferFrom",
      "outputs": [],
      "stateMutability": "nonpayable",
      "type": "function"
    },
    {
      "inputs": [
        {
          "internalType": "address",
          "name": "operator",
          "type": "address"
        },
        {
          "internalType": "bool",
          "name": "approved",
          "type": "bool"
        }
      ],
      "name": "setApprovalForAll",
      "outputs": [],
      "stateMutability": "nonpayable",
      "type": "function"
    },
    {
      "inputs": [
        {
          "internalType": "bytes4",
          "name": "id",
          "type": "bytes4"
        }
      ],
      "name": "supportsInterface",
      "outputs": [
        {
          "internalType": "bool",
          "name": "",
          "type": "bool"
        }
      ],
      "stateMutability": "pure",
      "type": "function"
    },
    {
      "inputs": [],
      "name": "symbol",
      "outputs": [
        {
          "internalType": "string",
          "name": "",
          "type": "string"
        }
      ],
      "stateMutability": "pure",
      "type": "function"
    },
    {
      "inputs": [
        {
          "internalType": "address",
          "name": "owner",
          "type": "address"
        },
        {
          "internalType": "uint256",
          "name": "index",
          "type": "uint256"
        }
      ],
      "name": "tokenOfOwnerByIndex",
      "outputs": [
        {
          "internalType": "uint256",
          "name": "",
          "type": "uint256"
        }
      ],
      "stateMutability": "view",
      "type": "function"
    },
    {
      "inputs": [
        {
          "internalType": "uint256",
          "name": "id",
          "type": "uint256"
        }
      ],
      "name": "tokenURI",
      "outputs": [
        {
          "internalType": "string",
          "name": "",
          "type": "string"
        }
      ],
      "stateMutability": "view",
      "type": "function"
    },
    {
      "inputs": [],
      "name": "totalSupply",
      "outputs": [
        {
          "internalType": "uint256",
          "name": "",
          "type": "uint256"
        }
      ],
      "stateMutability": "view",
      "type": "function"
    },
    {
      "inputs": [
        {
          "internalType": "address payable",
          "name": "newCreatorAddress",
          "type": "address"
        }
      ],
      "name": "transferCreatorship",
      "outputs": [],
      "stateMutability": "nonpayable",
      "type": "function"
    },
    {
      "inputs": [
        {
          "internalType": "address",
          "name": "from",
          "type": "address"
        },
        {
          "internalType": "address",
          "name": "to",
          "type": "address"
        },
        {
          "internalType": "uint256",
          "name": "id",
          "type": "uint256"
        }
      ],
      "name": "transferFrom",
      "outputs": [],
      "stateMutability": "nonpayable",
      "type": "function"
    }
  ],
  "transactionHash": "0xe873ca4d4b6cebf104752bf5ce9d57028e114b9b2840476d8920f1844cde3a70",
  "args": [
    "0x61c461EcC993aaDEB7e4b47E96d1B8cC37314B20",
    "1000000000000000",
    500,
    "500000000000000"
  ],
  "linkedData": {
    "initialPrice": "1000000000000000",
    "creatorCutPer10000th": 500,
    "linearCoefficient": "500000000000000"
  },
  "solcInputHash": "52d207dbdd9c8bd8c932e9e30b235ba0",
  "bytecode": "0x60e06040523480156200001157600080fd5b5060405162002f7238038062002f72833981016040819052620000349162000144565b6107d08210620000615760405162461bcd60e51b815260040162000058906200018f565b60405180910390fd5b60a083905260c082905260808190526200007e8484848462000088565b50505050620001c6565b60006200009462000130565b90506001600160a01b038116620000c4576001600160a01b0360008051602062002f5283398151915255620000da565b336001600160a01b03821614620000da57600080fd5b600580546001600160a01b0319166001600160a01b0387811691909117918290556040519116906000907ff25c6226b06a6bf4b2c2391bb66962bb4290c323cf8b5814efb185aba3f42d5f908290a35050505050565b60008051602062002f528339815191525490565b600080600080608085870312156200015a578384fd5b84516001600160a01b038116811462000171578485fd5b60208601516040870151606090970151919890975090945092505050565b60208082526015908201527f43524541544f525f4355545f524f4f5f48494748540000000000000000000000604082015260600190565b60805160a05160c051612d506200020260003980610a8a528061148a52508061065b528061146252508061079b52806114405250612d506000f3fe6080604052600436106101965760003560e01c806342966c68116100e15780639d1b464a1161008a578063b510391f11610064578063b510391f1461042f578063b88d4fde14610442578063c87b56dd14610462578063e985e9c51461048257610196565b80639d1b464a146103da5780639ec663d2146103ef578063a22cb4651461040f57610196565b806370a08231116100bb57806370a08231146103905780637e7e2d48146103b057806395d89b41146103c557610196565b806342966c68146103305780636352211e146103505780636d2e4b1b1461037057610196565b80631d0806ae116101435780632f745c591161011d5780632f745c59146102c35780633a5110db146102e357806342842e0e1461031057610196565b80631d0806ae1461027957806323b872dd1461028e5780632e22dc6b146102ae57610196565b8063081812fc11610174578063081812fc14610215578063095ea7b31461023557806318160ddd1461025757610196565b806301ffc9a71461019b57806302d05d3f146101d157806306fdde03146101f3575b600080fd5b3480156101a757600080fd5b506101bb6101b63660046121ec565b6104a2565b6040516101c891906123c5565b60405180910390f35b3480156101dd57600080fd5b506101e6610501565b6040516101c8919061230e565b3480156101ff57600080fd5b50610208610510565b6040516101c891906123ee565b34801561022157600080fd5b506101e6610230366004612224565b610547565b34801561024157600080fd5b5061025561025036600461218d565b6105ba565b005b34801561026357600080fd5b5061026c610653565b6040516101c891906128bf565b34801561028557600080fd5b5061026c610659565b34801561029a57600080fd5b506102556102a9366004612064565b61067d565b3480156102ba57600080fd5b5061026c610799565b3480156102cf57600080fd5b5061026c6102de36600461218d565b6107bd565b3480156102ef57600080fd5b506103036102fe3660046121b8565b6107e8565b6040516101c89190612354565b34801561031c57600080fd5b5061025561032b366004612064565b6108e6565b34801561033c57600080fd5b5061025561034b366004612224565b610901565b34801561035c57600080fd5b506101e661036b366004612224565b610983565b34801561037c57600080fd5b5061025561038b366004611fd6565b6109b6565b34801561039c57600080fd5b5061026c6103ab366004611fd6565b610a3f565b3480156103bc57600080fd5b5061026c610a88565b3480156103d157600080fd5b50610208610aac565b3480156103e657600080fd5b5061026c610ae3565b3480156103fb57600080fd5b5061025561040a366004611ff2565b610af5565b34801561041b57600080fd5b5061025561042a36600461210e565b610bb6565b61026c61043d36600461213f565b610bc5565b34801561044e57600080fd5b5061025561045d3660046120a4565b610d2b565b34801561046e57600080fd5b5061020861047d366004612224565b610e88565b34801561048e57600080fd5b506101bb61049d36600461202c565b610ecd565b60006104ad82610efb565b806104f957507f5b5e139f000000000000000000000000000000000000000000000000000000007fffffffff000000000000000000000000000000000000000000000000000000008316145b90505b919050565b6005546001600160a01b031681565b60408051808201909152600e81527f4d616e64616c6120546f6b656e73000000000000000000000000000000000000602082015290565b600080600061055584610fdc565b90925090506001600160a01b0382166105895760405162461bcd60e51b815260040161058090612605565b60405180910390fd5b80156105af575050506000818152600460205260409020546001600160a01b03166104fc565b6000925050506104fc565b60006105c582611014565b90506001600160a01b0381166105ed5760405162461bcd60e51b815260040161058090612605565b6001600160a01b03811633148061062757506001600160a01b038116600090815260036020908152604080832033845290915290205460ff165b6106435760405162461bcd60e51b8152600401610580906126d0565b61064e818484611049565b505050565b60005490565b7f000000000000000000000000000000000000000000000000000000000000000081565b60008061068983610fdc565b90925090506001600160a01b0382166106b45760405162461bcd60e51b815260040161058090612605565b846001600160a01b0316826001600160a01b0316146106e55760405162461bcd60e51b8152600401610580906127ac565b6001600160a01b03841661070b5760405162461bcd60e51b815260040161058090612707565b336001600160a01b03861614610787576001600160a01b038516600090815260036020908152604080832033845290915290205460ff168061076b575080801561076b57506000838152600460205260409020546001600160a01b031633145b6107875760405162461bcd60e51b8152600401610580906127e3565b610792858585611128565b5050505050565b7f000000000000000000000000000000000000000000000000000000000000000081565b6001600160a01b03821660009081526002602052604081206107df90836111bd565b90505b92915050565b6001600160a01b038316600090815260026020526040812060609161080c826111c9565b90508385018110156108305760405162461bcd60e51b815260040161058090612571565b8367ffffffffffffffff8111801561084757600080fd5b5060405190808252806020026020018201604052801561088157816020015b61086e611f3e565b8152602001906001900390816108665790505b50925060005b848110156108dc57600061089d848884016111bd565b905060405180604001604052808281526020016108b9836111d4565b8152508583815181106108c857fe5b602090810291909101015250600101610887565b5050509392505050565b61064e83838360405180602001604052806000815250610d2b565b600061091961091460016000540361143e565b611485565b9050610924826114b3565b604051339082156108fc029083906000818181858888f19350505050158015610951573d6000803e3d6000fd5b50604051819083907fcec1bae6e024d929f2929f3478ce70f55f9c636c8ef7b5073a61d7c3a432451b90600090a35050565b600061098e82611014565b90506001600160a01b0381166104fc5760405162461bcd60e51b815260040161058090612503565b6005546001600160a01b03163381146109e15760405162461bcd60e51b815260040161058090612851565b6005805473ffffffffffffffffffffffffffffffffffffffff19166001600160a01b0384811691821790925560405190918316907ff25c6226b06a6bf4b2c2391bb66962bb4290c323cf8b5814efb185aba3f42d5f90600090a35050565b60006001600160a01b038216610a675760405162461bcd60e51b815260040161058090612775565b6001600160a01b03821660009081526002602052604090206104f9906111c9565b7f000000000000000000000000000000000000000000000000000000000000000081565b60408051808201909152600781527f4d414e44414c4100000000000000000000000000000000000000000000000000602082015290565b6000610af060005461143e565b905090565b6000610aff6115d5565b90506001600160a01b038116610b3e576001600160a01b037fb53127684a568b3173ae13b9f8a6016e243e63b6e8ee1178d6a717850b5d610355610b53565b336001600160a01b03821614610b5357600080fd5b6005805473ffffffffffffffffffffffffffffffffffffffff19166001600160a01b0387811691909117918290556040519116906000907ff25c6226b06a6bf4b2c2391bb66962bb4290c323cf8b5814efb185aba3f42d5f908290a35050505050565b610bc13383836115fa565b5050565b600080610bd360005461143e565b905080341015610bf55760405162461bcd60e51b81526004016105809061253a565b600084604051602001610c0891906122b8565b6040516020818303038152906040528051906020012090506000610c3585610c2f84611689565b906116b9565b9050610c4a816001600160a01b031687611704565b6000610c5584611485565b8403905060018115610c8c576005546040516001600160a01b039091169083156108fc029084906000818181858888f19450505050505b801580610c9857508434115b15610ce157336108fc8215610cae576000610cb0565b835b873403019081150290604051600060405180830381858888f19350505050158015610cdf573d6000803e3d6000fd5b505b60405185906001600160a01b038516907f8a9dcf4e150b1153011b29fec302d5be0c13e84fa8f56ab78587f778a32a90dd90600090a350506001600160a01b031695945050505050565b600080610d3784610fdc565b90925090506001600160a01b038216610d625760405162461bcd60e51b815260040161058090612605565b856001600160a01b0316826001600160a01b031614610d935760405162461bcd60e51b8152600401610580906127ac565b6001600160a01b038516610db95760405162461bcd60e51b815260040161058090612707565b336001600160a01b03871614610e35576001600160a01b038616600090815260036020908152604080832033845290915290205460ff1680610e195750808015610e1957506000848152600460205260409020546001600160a01b031633145b610e355760405162461bcd60e51b8152600401610580906127e3565b610e40868686611128565b610e52856001600160a01b03166117ce565b15610e8057610e6433878787876117d4565b610e805760405162461bcd60e51b81526004016105809061263c565b505050505050565b60606000610e9583611014565b90506001600160a01b038116610ebd5760405162461bcd60e51b815260040161058090612888565b610ec6836111d4565b9392505050565b6001600160a01b03918216600090815260036020908152604080832093909416825291909152205460ff1690565b60007f01ffc9a7000000000000000000000000000000000000000000000000000000007fffffffff0000000000000000000000000000000000000000000000000000000083161480610f8e57507f80ac58cd000000000000000000000000000000000000000000000000000000007fffffffff000000000000000000000000000000000000000000000000000000008316145b806104f95750507fffffffff00000000000000000000000000000000000000000000000000000000167f780e9d63000000000000000000000000000000000000000000000000000000001490565b600090815260016020526040902054907f80000000000000000000000000000000000000000000000000000000000000008083161490565b6000818152600160205260409020546001600160a01b0381166104fc5760405162461bcd60e51b81526004016105809061273e565b6001600160a01b0382166110765760008181526001602052604090206001600160a01b03841690556110e2565b60008181526001602090815260408083206001600160a01b038781167f8000000000000000000000000000000000000000000000000000000000000000179091556004909252909120805473ffffffffffffffffffffffffffffffffffffffff19169184169190911790555b80826001600160a01b0316846001600160a01b03167f8c5be1e5ebec7d5bd14f71427d1e84f3dd0314c0f7b2291e5b200ac8c7c3b92560405160405180910390a4505050565b6001600160a01b038316600090815260026020526040902061114a90826118ab565b506001600160a01b038216600090815260026020526040902061116d90826118b7565b506000818152600160205260408082206001600160a01b03808616918290559151849391928716917fddf252ad1be2c89b69c2b068fc378daa952ba7f163c4a11628f55a4df523b3ef91a4505050565b60006107df83836118c3565b60006104f982611908565b60608060405180610440016040528061040c815260200161290f61040c9139905061120181604a8561190c565b60005b602881101561143757600060108260010160280360040286901c8161122557fe5b06905060ff8116611234575060105b60006112607f8934893467893456789456789567896789789899000000000000000000000000846119c7565b9050600061128d7e11112222223333333444444555556666777889000000000000000000000000856119c7565b90506112ad856102096004840460020285601386020101600101866119db565b80821461137f576112d2856102096004850460020284601387020101600101866119db565b600981146112f8576112f8856102096004850460020260138581039087020101866119db565b6009821461133157611331856102096004600186601303038161131757fe5b0460020284601360018860130303020101600101866119db565b60098214801590611343575060098114155b1561137f5761137f856102096004600186601303038161135f57fe5b0460020260018560130303601360018860130303020101600101866119db565b600982146113a5576113a5856102096004840460020260138681039086020101866119db565b600981146113de576113de85610209600460018560130303816113c457fe5b0460020285601360018760130303020101600101866119db565b600982148015906113f0575060098114155b1561142c5761142c856102096004600185601303038161140c57fe5b0460020260018660130303601360018760130303020101600101866119db565b505050600101611204565b5092915050565b7f0000000000000000000000000000000000000000000000000000000000000000027f00000000000000000000000000000000000000000000000000000000000000000190565b6127107f00000000000000000000000000000000000000000000000000000000000000008103919091020490565b600081815260016020526040902054806114df5760405162461bcd60e51b81526004016105809061273e565b7f400000000000000000000000000000000000000000000000000000000000000081161561151f5760405162461bcd60e51b815260040161058090612438565b80336001600160a01b038216146115485760405162461bcd60e51b8152600401610580906127ac565b6001600160a01b038116600090815260026020526040902061156a90846118ab565b506000838152600160205260408082207f4000000000000000000000000000000000000000000000000000000000000000905581546000190182555184919033907fddf252ad1be2c89b69c2b068fc378daa952ba7f163c4a11628f55a4df523b3ef908390a4505050565b7fb53127684a568b3173ae13b9f8a6016e243e63b6e8ee1178d6a717850b5d61035490565b6001600160a01b038381166000818152600360209081526040808320948716808452949091529081902080547fffffffffffffffffffffffffffffffffffffffffffffffffffffffffffffff0016851515179055517f17307eab39ab6107e8899845ad3d59bd9653f200f220920489ca2b5937696c319061167c9085906123c5565b60405180910390a3505050565b60008160405160200161169c9190612287565b604051602081830303815290604052805190602001209050919050565b600081516041146116dc5760405162461bcd60e51b8152600401610580906124cc565b60208201516040830151606084015160001a6116fa86828585611bda565b9695505050505050565b6001600160a01b03811661172a5760405162461bcd60e51b815260040161058090612707565b60008281526001602052604090205480156117575760405162461bcd60e51b81526004016105809061281a565b6001600160a01b038216600090815260026020526040902061177990846118b7565b5060008381526001602081905260408083206001600160a01b0386169081905583549092018355518592907fddf252ad1be2c89b69c2b068fc378daa952ba7f163c4a11628f55a4df523b3ef908290a4505050565b3b151590565b600080846001600160a01b031663150b7a02888887876040518563ffffffff1660e01b81526004016118099493929190612322565b602060405180830381600087803b15801561182357600080fd5b505af1158015611837573d6000803e3d6000fd5b505050506040513d601f19601f8201168201806040525081019061185b9190612208565b7fffffffff00000000000000000000000000000000000000000000000000000000167f150b7a02000000000000000000000000000000000000000000000000000000001491505095945050505050565b60006107df8383611cd0565b60006107df8383611d96565b815460009082106118e65760405162461bcd60e51b81526004016105809061246f565b8260000182815481106118f557fe5b9060005260206000200154905092915050565b5490565b801561064e576040805180820190915260108082527f3031323334353637383961626364656600000000000000000000000000000000602083015282068151811061195357fe5b016020015183516000198401937fff00000000000000000000000000000000000000000000000000000000000000909216918591811061198f57fe5b60200101907effffffffffffffffffffffffffffffffffffffffffffffffffffffffffffff1916908160001a9053506010900461190c565b600460019190910102610100031c600f1690565b6000600660088402048401905060006006600885020690506000611a30878481518110611a0457fe5b01602001517fff0000000000000000000000000000000000000000000000000000000000000016611de0565b905060ff8216611afd57611a4a603f600286901c16611e9c565b878481518110611a5657fe5b60200101907effffffffffffffffffffffffffffffffffffffffffffffffffffffffffffff1916908160001a9053506000611a99888560010181518110611a0457fe5b9050611ab9600f821660048060ff89165b0660ff16901b1760ff16611e9c565b888560010181518110611ac857fe5b60200101907effffffffffffffffffffffffffffffffffffffffffffffffffffffffffffff1916908160001a90535050611bd1565b8160ff1660021415611b8657611b218160301660048660ff16901c1760ff16611e9c565b878481518110611b2d57fe5b60200101907effffffffffffffffffffffffffffffffffffffffffffffffffffffffffffff1916908160001a9053506000611b70888560010181518110611a0457fe5b9050611ab9600382166002601060ff8916611aaa565b611b92603f8516611e9c565b878460010181518110611ba157fe5b60200101907effffffffffffffffffffffffffffffffffffffffffffffffffffffffffffff1916908160001a9053505b50505050505050565b60007f7fffffffffffffffffffffffffffffff5d576e7357a4501ddfe92f46681b20a0821115611c1c5760405162461bcd60e51b8152600401610580906125a8565b8360ff16601b1480611c3157508360ff16601c145b611c4d5760405162461bcd60e51b815260040161058090612673565b600060018686868660405160008152602001604052604051611c7294939291906123d0565b6020604051602081039080840390855afa158015611c94573d6000803e3d6000fd5b5050604051601f1901519150506001600160a01b038116611cc75760405162461bcd60e51b815260040161058090612401565b95945050505050565b60008181526001830160205260408120548015611d8c5783546000198083019190810190600090879083908110611d0357fe5b9060005260206000200154905080876000018481548110611d2057fe5b600091825260208083209091019290925582815260018981019092526040902090840190558654879080611d5057fe5b600190038181906000526020600020016000905590558660010160008781526020019081526020016000206000905560019450505050506107e2565b60009150506107e2565b6000611da28383611f26565b611dd8575081546001818101845560008481526020808220909301849055845484825282860190935260409020919091556107e2565b5060006107e2565b6000602b60f883901c1415611df75750603e6104fc565b602f60f883901c1415611e0c5750603f6104fc565b603060f883901c10801590611e265750603960f883901c11155b15611e395750600460f882901c016104fc565b604160f883901c10801590611e535750605a60f883901c11155b15611e665760418260f81c0390506104fc565b605a60f883901c10801590611e805750607a60f883901c11155b15611e945750603f1960f882901c016104fc565b506000919050565b600060208262ffffff1610611eeb577f6768696a6b6c6d6e6f707172737475767778797a303132333435363738392b2f62ffffff601f1984011660208110611ee057fe5b1a60f81b90506104fc565b7f4142434445464748494a4b4c4d4e4f505152535455565758595a61626364656662ffffff831660208110611f1c57fe5b1a60f81b92915050565b60009081526001919091016020526040902054151590565b604051806040016040528060008152602001606081525090565b600082601f830112611f68578081fd5b813567ffffffffffffffff80821115611f7f578283fd5b6040516020601f19601f8501168201018181108382111715611f9f578485fd5b604052828152925082848301602001861015611fba57600080fd5b8260208601602083013760006020848301015250505092915050565b600060208284031215611fe7578081fd5b8135610ec6816128c8565b60008060008060808587031215612007578283fd5b8435612012816128c8565b966020860135965060408601359560600135945092505050565b6000806040838503121561203e578182fd5b8235612049816128c8565b91506020830135612059816128c8565b809150509250929050565b600080600060608486031215612078578283fd5b8335612083816128c8565b92506020840135612093816128c8565b929592945050506040919091013590565b600080600080608085870312156120b9578384fd5b84356120c4816128c8565b935060208501356120d4816128c8565b925060408501359150606085013567ffffffffffffffff8111156120f6578182fd5b61210287828801611f58565b91505092959194509250565b60008060408385031215612120578182fd5b823561212b816128c8565b915060208301358015158114612059578182fd5b60008060408385031215612151578182fd5b823561215c816128c8565b9150602083013567ffffffffffffffff811115612177578182fd5b61218385828601611f58565b9150509250929050565b6000806040838503121561219f578182fd5b82356121aa816128c8565b946020939093013593505050565b6000806000606084860312156121cc578283fd5b83356121d7816128c8565b95602085013595506040909401359392505050565b6000602082840312156121fd578081fd5b8135610ec6816128e0565b600060208284031215612219578081fd5b8151610ec6816128e0565b600060208284031215612235578081fd5b5035919050565b60008151808452815b8181101561226157602081850181015186830182015201612245565b818111156122725782602083870101525b50601f01601f19169290920160200192915050565b7f19457468657265756d205369676e6564204d6573736167653a0a3332000000008152601c810191909152603c0190565b7f4d616e64616c6100000000000000000000000000000000000000000000000000815260609190911b7fffffffffffffffffffffffffffffffffffffffff000000000000000000000000166007820152601b0190565b6001600160a01b0391909116815260200190565b60006001600160a01b038087168352808616602084015250836040830152608060608301526116fa608083018461223c565b60208082528251828201819052600091906040908185019080840286018301878501865b838110156123b757888303603f190185528151805184528701518784018790526123a48785018261223c565b9588019593505090860190600101612378565b509098975050505050505050565b901515815260200190565b93845260ff9290921660208401526040830152606082015260800190565b6000602082526107df602083018461223c565b60208082526018908201527f45434453413a20696e76616c6964207369676e61747572650000000000000000604082015260600190565b6020808252600d908201527f414c52454144595f4255524e5400000000000000000000000000000000000000604082015260600190565b60208082526022908201527f456e756d657261626c655365743a20696e646578206f7574206f6620626f756e60408201527f6473000000000000000000000000000000000000000000000000000000000000606082015260800190565b6020808252601f908201527f45434453413a20696e76616c6964207369676e6174757265206c656e67746800604082015260600190565b60208082526011908201527f4e4f4e4558495354414e545f544f4b454e000000000000000000000000000000604082015260600190565b6020808252600e908201527f4e4f545f454e4f5547485f455448000000000000000000000000000000000000604082015260600190565b60208082526018908201527f544f4f5f4d414e595f544f4b454e5f5245515545535445440000000000000000604082015260600190565b60208082526022908201527f45434453413a20696e76616c6964207369676e6174757265202773272076616c60408201527f7565000000000000000000000000000000000000000000000000000000000000606082015260800190565b60208082526011908201527f4e4f4e4558495354454e545f544f4b454e000000000000000000000000000000604082015260600190565b60208082526018908201527f4552433732315f5452414e534645525f52454a45435445440000000000000000604082015260600190565b60208082526022908201527f45434453413a20696e76616c6964207369676e6174757265202776272076616c60408201527f7565000000000000000000000000000000000000000000000000000000000000606082015260800190565b60208082526015908201527f554e415554484f52495a45445f415050524f56414c0000000000000000000000604082015260600190565b60208082526012908201527f4e4f545f544f5f5a45524f414444524553530000000000000000000000000000604082015260600190565b60208082526009908201527f4e4f545f45584953540000000000000000000000000000000000000000000000604082015260600190565b60208082526012908201527f5a45524f5f414444524553535f4f574e45520000000000000000000000000000604082015260600190565b60208082526009908201527f4e4f545f4f574e45520000000000000000000000000000000000000000000000604082015260600190565b60208082526015908201527f554e415554484f52495a45445f5452414e534645520000000000000000000000604082015260600190565b6020808252600e908201527f414c52454144595f4d494e544544000000000000000000000000000000000000604082015260600190565b6020808252600e908201527f4e4f545f415554484f52495a4544000000000000000000000000000000000000604082015260600190565b6020808252600a908201527f4e4f545f45584953545300000000000000000000000000000000000000000000604082015260600190565b90815260200190565b6001600160a01b03811681146128dd57600080fd5b50565b7fffffffff00000000000000000000000000000000000000000000000000000000811681146128dd57600080fdfe646174613a746578742f706c61696e2c7b226e616d65223a224d616e64616c6120307830303030303030303030303030303030303030303030303030303030303030303030303030303030222c226465736372697074696f6e223a224120556e69717565204d616e64616c61222c22696d616765223a22646174613a696d6167652f7376672b786d6c2c3c73766720786d6c6e733d27687474703a2f2f7777772e77332e6f72672f323030302f737667272073686170652d72656e646572696e673d2763726973704564676573272077696474683d2735313227206865696768743d27353132273e3c67207472616e73666f726d3d277363616c6528363429273e3c696d6167652077696474683d273827206865696768743d273827207374796c653d27696d6167652d72656e646572696e673a20706978656c617465643b2720687265663d27646174613a696d6167652f6769663b6261736536342c52306c474f44646845774154414d5141414141414150622b592f37454a664e334e4e41525155554b4c4730624d73523153756a4b715737775177652f645142636d516545716a4452305567586f34413076726c713241414141414141414141414141414141414141414141414141414141414141414141414141414141414141414141414141414141414141414141414143483542416b4b414141414c4141414141415441424d414141644e674141414141414141414141414141414141414141414141414141414141414141414141414141414141414141414141414141414141414141414141414141414141414141414141414141414141414141414141414141414141414141414141414141414141424e674141414141414141414141414141414141414141414141414141414141414141414141414141414141414141414141414141414141414141414141414141414141414141414141414141414141414141414141414141414141414141414141414141414141424e674141414141414141414141414141414141414141414141414141414141414141414141414141414141414141414141414141414141414141414141414141414141414141414141414141414141414141414141414141414141414141414141414141414141424e674141414141414141414141414141414141414141414141414141414141414141414141414141414141414141414141414141414141414141414141414141414141414141414141414141414141414141414141414141414141414141414141414141414141413667414141414141414141414141414141414141414141414141414141414141414141414141414141414141414141414141414141414141414141414141414141414141414141414141414141414147424144733d272f3e3c2f673e3c2f7376673e227da26469706673582212202fa60eae24bead60c2ebb5e359a8976dc7b963c9927d430eae81dbd95b1b3db464736f6c63430007010033b53127684a568b3173ae13b9f8a6016e243e63b6e8ee1178d6a717850b5d6103",
  "devdoc": {
    "kind": "dev",
    "methods": {
      "approve(address,uint256)": {
        "params": {
          "id": "The id of the token.",
          "operator": "The address receiving the approval."
        }
      },
      "balanceOf(address)": {
        "params": {
          "owner": "The address to look for."
        },
        "returns": {
          "balance": "The number of tokens owned by the address."
        }
      },
      "getApproved(uint256)": {
        "params": {
          "id": "The id of the token."
        },
        "returns": {
          "_0": "The address of the operator."
        }
      },
      "isApprovedForAll(address,address)": {
        "params": {
          "operator": "The address of the operator.",
          "owner": "The address of the owner."
        },
        "returns": {
          "isOperator": "The status of the approval."
        }
      },
      "ownerOf(uint256)": {
        "params": {
          "id": "The id of the token."
        },
        "returns": {
          "owner": "The address of the token owner."
        }
      },
      "safeTransferFrom(address,address,uint256)": {
        "params": {
          "from": "The send of the token.",
          "id": "The id of the token.",
          "to": "The recipient of the token."
        }
      },
      "safeTransferFrom(address,address,uint256,bytes)": {
        "params": {
          "data": "Additional data.",
          "from": "The sender of the token.",
          "id": "The id of the token.",
          "to": "The recipient of the token."
        }
      },
      "setApprovalForAll(address,bool)": {
        "params": {
          "approved": "The determination of the approval.",
          "operator": "The address receiving the approval."
        }
      },
      "supportsInterface(bytes4)": {
        "params": {
          "id": "The id of the interface."
        },
        "returns": {
          "_0": "Whether the interface is supported."
        }
      },
      "transferFrom(address,address,uint256)": {
        "params": {
          "from": "The sender of the token.",
          "id": "The id of the token.",
          "to": "The recipient of the token."
        }
      }
    },
    "version": 1
  },
  "userdoc": {
    "kind": "user",
    "methods": {
      "approve(address,uint256)": {
        "notice": "Approve an operator to spend tokens on the senders behalf."
      },
      "balanceOf(address)": {
        "notice": "Get the number of tokens owned by an address."
      },
      "getApproved(uint256)": {
        "notice": "Get the approved operator for a specific token."
      },
      "isApprovedForAll(address,address)": {
        "notice": "Check if the sender approved the operator."
      },
      "name()": {
        "notice": "A descriptive name for a collection of NFTs in this contract"
      },
      "ownerOf(uint256)": {
        "notice": "Get the owner of a token."
      },
      "safeTransferFrom(address,address,uint256)": {
        "notice": "Transfer a token between 2 addresses letting the receiver know of the transfer."
      },
      "safeTransferFrom(address,address,uint256,bytes)": {
        "notice": "Transfer a token between 2 addresses letting the receiver knows of the transfer."
      },
      "setApprovalForAll(address,bool)": {
        "notice": "Set the approval for an operator to manage all the tokens of the sender."
      },
      "supportsInterface(bytes4)": {
        "notice": "Check if the contract supports an interface. 0x01ffc9a7 is ERC165. 0x80ac58cd is ERC721 0x5b5e139f is for ERC721 metadata 0x780e9d63 is for ERC721 enumerable"
      },
      "symbol()": {
        "notice": "An abbreviated name for NFTs in this contract"
      },
      "transferFrom(address,address,uint256)": {
        "notice": "Transfer a token between 2 addresses."
      }
    },
    "version": 1
  },
  "storageLayout": {
    "storage": [
      {
        "astId": 1163,
        "contract": "src/MandalaToken.sol:MandalaToken",
        "label": "_supply",
        "offset": 0,
        "slot": "0",
        "type": "t_uint256"
      },
      {
        "astId": 1167,
        "contract": "src/MandalaToken.sol:MandalaToken",
        "label": "_owners",
        "offset": 0,
        "slot": "1",
        "type": "t_mapping(t_uint256,t_uint256)"
      },
      {
        "astId": 1171,
        "contract": "src/MandalaToken.sol:MandalaToken",
        "label": "_holderTokens",
        "offset": 0,
        "slot": "2",
        "type": "t_mapping(t_address,t_struct(UintSet)981_storage)"
      },
      {
        "astId": 1177,
        "contract": "src/MandalaToken.sol:MandalaToken",
        "label": "_operatorsForAll",
        "offset": 0,
        "slot": "3",
        "type": "t_mapping(t_address,t_mapping(t_address,t_bool))"
      },
      {
        "astId": 1181,
        "contract": "src/MandalaToken.sol:MandalaToken",
        "label": "_operators",
        "offset": 0,
        "slot": "4",
        "type": "t_mapping(t_uint256,t_address)"
      },
      {
        "astId": 2010,
        "contract": "src/MandalaToken.sol:MandalaToken",
        "label": "creator",
        "offset": 0,
        "slot": "5",
        "type": "t_address_payable"
      }
    ],
    "types": {
      "t_address": {
        "encoding": "inplace",
        "label": "address",
        "numberOfBytes": "20"
      },
      "t_address_payable": {
        "encoding": "inplace",
        "label": "address payable",
        "numberOfBytes": "20"
      },
      "t_array(t_bytes32)dyn_storage": {
        "base": "t_bytes32",
        "encoding": "dynamic_array",
        "label": "bytes32[]",
        "numberOfBytes": "32"
      },
      "t_bool": {
        "encoding": "inplace",
        "label": "bool",
        "numberOfBytes": "1"
      },
      "t_bytes32": {
        "encoding": "inplace",
        "label": "bytes32",
        "numberOfBytes": "32"
      },
      "t_mapping(t_address,t_bool)": {
        "encoding": "mapping",
        "key": "t_address",
        "label": "mapping(address => bool)",
        "numberOfBytes": "32",
        "value": "t_bool"
      },
      "t_mapping(t_address,t_mapping(t_address,t_bool))": {
        "encoding": "mapping",
        "key": "t_address",
        "label": "mapping(address => mapping(address => bool))",
        "numberOfBytes": "32",
        "value": "t_mapping(t_address,t_bool)"
      },
      "t_mapping(t_address,t_struct(UintSet)981_storage)": {
        "encoding": "mapping",
        "key": "t_address",
        "label": "mapping(address => struct EnumerableSet.UintSet)",
        "numberOfBytes": "32",
        "value": "t_struct(UintSet)981_storage"
      },
      "t_mapping(t_bytes32,t_uint256)": {
        "encoding": "mapping",
        "key": "t_bytes32",
        "label": "mapping(bytes32 => uint256)",
        "numberOfBytes": "32",
        "value": "t_uint256"
      },
      "t_mapping(t_uint256,t_address)": {
        "encoding": "mapping",
        "key": "t_uint256",
        "label": "mapping(uint256 => address)",
        "numberOfBytes": "32",
        "value": "t_address"
      },
      "t_mapping(t_uint256,t_uint256)": {
        "encoding": "mapping",
        "key": "t_uint256",
        "label": "mapping(uint256 => uint256)",
        "numberOfBytes": "32",
        "value": "t_uint256"
      },
      "t_struct(Set)595_storage": {
        "encoding": "inplace",
        "label": "struct EnumerableSet.Set",
        "members": [
          {
            "astId": 590,
            "contract": "src/MandalaToken.sol:MandalaToken",
            "label": "_values",
            "offset": 0,
            "slot": "0",
            "type": "t_array(t_bytes32)dyn_storage"
          },
          {
            "astId": 594,
            "contract": "src/MandalaToken.sol:MandalaToken",
            "label": "_indexes",
            "offset": 0,
            "slot": "1",
            "type": "t_mapping(t_bytes32,t_uint256)"
          }
        ],
        "numberOfBytes": "64"
      },
      "t_struct(UintSet)981_storage": {
        "encoding": "inplace",
        "label": "struct EnumerableSet.UintSet",
        "members": [
          {
            "astId": 980,
            "contract": "src/MandalaToken.sol:MandalaToken",
            "label": "_inner",
            "offset": 0,
            "slot": "0",
            "type": "t_struct(Set)595_storage"
          }
        ],
        "numberOfBytes": "64"
      },
      "t_uint256": {
        "encoding": "inplace",
        "label": "uint256",
        "numberOfBytes": "32"
      }
    }
  }
}