{
  "address": "0x13d7D24448ad46500732f64ab5e34164F2fcD865",
  "abi": [
    {
      "inputs": [
        {
          "internalType": "bytes32",
          "name": "d1",
          "type": "bytes32"
        },
        {
          "internalType": "bytes32",
          "name": "d2",
          "type": "bytes32"
        }
      ],
      "name": "wav",
      "outputs": [
        {
          "internalType": "string",
          "name": "",
          "type": "string"
        }
      ],
      "stateMutability": "pure",
      "type": "function"
    }
  ],
  "transactionHash": "0x0f508b2998a2c24b737f147d8b8b59d3ac840f7c3a00798f9876ceaaa65a223a",
  "args": [],
  "solcInputHash": "0e2e731014df5a08cb13ff366025c798",
  "bytecode": "0x608060405234801561001057600080fd5b5061102e806100206000396000f3fe608060405234801561001057600080fd5b506004361061002b5760003560e01c8063d63fab2b14610030575b600080fd5b61004361003e36600461098a565b610059565b60405161005091906109ac565b60405180910390f35b6060610065838361006e565b90505b92915050565b604080516207a1208082526207a14082019092526060916000919060208201818036833701905050905060006100a38261069c565b90506000604051806060016040528060408152602001610fb96040913990506000806100d0846020610a4e565b90506001830191508085019050600060405180610120016040528060fc8152602001610ebd60fc9139905060006003611cb6610110612af86103d0610a66565b61011b906020610a66565b6101259190610aa3565b610130906001610a4e565b61013b906003610a66565b6101459190610aa3565b60408051600480825260a0820190925291925060009190602082016080803683370190505090506000805b8381101561067e57610190565b80600081121561018b576000035b919050565b6020840481048d600f8211156101d257507ffffffffffffffffffffffffffffffffffffffffffffffffffffffffffffffff0018c600f8211156101d257600f91505b6003603f601093840384029093019190911c91821602860160200151612af860e89190911c612710020490600a81901c6007166064029060061c600f166000805b60038110156106215760008715610608578361026a5761023f620f42406002620f42408b06020361017d565b60029081027ffffffffffffffffffffffffffffffffffffffffffffffffffffffffffff0bdc0010590505b60018414156102ec57620f42408807620d59f881121561028e576007601082020591505b620d59f88113156102a557601081620f4240030291505b620d59f88114156102bc57601081620f4240030291505b50620f42407ffffffffffffffffffffffffffffffffffffffffffffffffffffffffffff0bdc09091016207a12002055b60028414156103265750620f42407ffffffffffffffffffffffffffffffffffffffffffffffffffffffffffff85ee081890701620aae6002055b600384141561036f57507ffffffffffffffffffffffffffffffffffffffffffffffffffffffffffff0bdc0620f424088076207a12081101561036957620f424091505b50600490055b60048414156103b857507ffffffffffffffffffffffffffffffffffffffffffffffffffffffffffff0bdc0620f424088076204c4b48110156103b257620f424091505b50600490055b600584141561041757600488029050620f42406207a120620186a06207a12060026207a1206103fa620f4240621e8480620f42406207a1208b0205070361017d565b030561040f620f4240621e848088070361017d565b010303020590505b600684141561048557506002878102906203d090906207a1206104667ffffffffffffffffffffffffffffffffffffffffffffffffffffffffffff0bdc0621e8480608060fe8f0205070161017d565b0305036207a120610480620f4240621e848085070361017d565b030190505b600784141561058257602089015160408a015160608b015160808c01516380000000613039856341c64e6d020106935062027100623d0900848e03020482915080620f424001620f42406380000000621e848088020403828401020592508c93506305f5e1006064820260af0360036004868601020502059550507ffffffffffffffffffffffffffffffffffffffffffffffffffffffffffff0bdc085121561054c577ffffffffffffffffffffffffffffffffffffffffffffffffffffffffffff0bdc094505b620f424085131561055e57620f424094505b60208d019390935260408c019190915260608b015260808a0152600a600591909102055b60088414156105ef5750600760056002621e8480608060fe8c02058190077fffffffffffffffffffffffffffffffffffffffffffffffffffffffffffe91ca001829005918b0207017fffffffffffffffffffffffffffffffffffffffffffffffffffffffffffe54c100102055b6102bc8582020590506080621e84806101008302050190505b96850196600882026010031b9190910190600101610213565b50603f8160121c168b01518a5360018a019950603f81600c1c168b01518a5360018a019950603f8160061c168b01518a5360018a019950603f81168b01518a535050506001969096019550610677600382610a4e565b9050610170565b5061068c898688868c61075f565b50969a9950505050505050505050565b6000806040516020016106ae90610ade565b604080517fffffffffffffffffffffffffffffffffffffffffffffffffffffffffffffffe0818403018152919052805190915060208083019085015b602083106107225781518152610701602082610a4e565b905061070e602083610a4e565b915061071b602084610d79565b92506106ea565b60006001610731856020610d79565b61073d90610100610eb0565b6107479190610d79565b92518251841693191692909217905250505192915050565b60228453600184019350607d845360018401935060208585030385526000600860018461078c9190610d79565b610797906002610a66565b6107a290602c610a4e565b6107ac9190610d79565b90506000602c6107bd836008610a4e565b6107c79190610d79565b905060346107d6846020610a4e565b6107e09190610d79565b603f602084901b64ff0000000016601085811b63ff000000169190910162ff00008616019085901c61ff0016016546000000005701602a81901c919091168701519189019750908753600187019650603f8160241c168601518753600187019650603f81601e1c168601518753600187019650603f8160181c168601518753600187019650603f8160121c168601518753600187019650603f81600c1c168601518753600187019650603f8160061c168601518753600187019650603f811686015187535060046108b2846020610a4e565b6108bc9190610d79565b603f602083901b64ff0000000016601084811b63ff000000169190910162ff00008516019084901c61ff0016016561000000005701602a81901c919091168701519189019750908753600187019650603f8160241c168601518753600187019650603f81601e1c168601518753600187019650603f8160181c168601518753600187019650603f8160121c168601518753600187019650603f81600c1c168601518753600187019650603f8160061c168601518753600187019650603f811686015187535050505050505050565b6000806040838503121561099d57600080fd5b50508035926020909101359150565b600060208083528351808285015260005b818110156109d9578581018301518582016040015282016109bd565b818111156109eb576000604083870101525b50601f017fffffffffffffffffffffffffffffffffffffffffffffffffffffffffffffffe016929092016040019392505050565b7f4e487b7100000000000000000000000000000000000000000000000000000000600052601160045260246000fd5b60008219821115610a6157610a61610a1f565b500190565b6000817fffffffffffffffffffffffffffffffffffffffffffffffffffffffffffffffff0483118215151615610a9e57610a9e610a1f565b500290565b600082610ad9577f4e487b7100000000000000000000000000000000000000000000000000000000600052601260045260246000fd5b500490565b7f646174613a6170706c69636174696f6e2f6a736f6e2c7b226e616d65223a220081527f68656c6c6f000000000000000000000000000000000000000000000000000000601f8201527f222c226465736372697074696f6e223a22415f736f756e645f66756c6c795f6760248201527f656e6572617465645f6f6e636861696e222c2265787465726e616c5f75726c2260448201527f3a2200000000000000000000000000000000000000000000000000000000000060648201527f68747470733a2f2f68656c6c6f0000000000000000000000000000000000000060668201527f222c22696d616765223a22646174613a696d6167652f7376672b786d6c2c3c7360738201527f76672076696577426f783d2730203020333220313627203e3c7465787420783d60938201527f273530252720793d273530252720646f6d696e616e742d626173656c696e653d60b38201527f276d6964646c652720746578742d616e63686f723d276d6964646c652720737460d38201527f796c653d2766696c6c3a20726762283231392c2033392c20313139293b20666f60f38201527f6e742d73697a653a20313270783b273e00000000000000000000000000000000610113820152610cd161012382017f68656c6c6f0000000000000000000000000000000000000000000000000000009052565b7f3c2f746578743e3c2f7376673e222c22616e696d6174696f6e5f75726c223a226101288201527f646174613a617564696f2f7761763b6261736536342c556b6c475267414141416101488201527f425851565a465a6d31304942414141414142414145412b436f414150425641416101688201527f4142414167415a4746305951414100000000000000000000000000000000000061018882015260006101968201610068565b600082821015610d8b57610d8b610a1f565b500390565b600181815b80851115610de957817fffffffffffffffffffffffffffffffffffffffffffffffffffffffffffffffff04821115610dcf57610dcf610a1f565b80851615610ddc57918102915b93841c9390800290610d95565b509250929050565b600082610e0057506001610068565b81610e0d57506000610068565b8160018114610e235760028114610e2d57610e49565b6001915050610068565b60ff841115610e3e57610e3e610a1f565b50506001821b610068565b5060208310610133831016604e8410600b8410161715610e6c575081810a610068565b610e768383610d90565b807fffffffffffffffffffffffffffffffffffffffffffffffffffffffffffffffff04821115610ea857610ea8610a1f565b029392505050565b60006100658383610df156fe00198d001b12001cae001e6200203100221b00242200264800288f002af8002d8600303b00331900362300395b003cc4004061004435004844004c9000511d0055f0005b0c006076006633006c460072b60079890080c300886b00908700992000a23a00abe000b61800c0ec00cc6500d88d00e56d00f3110101850110d601210f01323f0144750157c0016c310181d90198ca01b11901cada01e62302030b0221ab02421e02647e0288ea02af8002d8620303b10331940362320395b403cc4604061604435704843c04c8fc0511d4055f0005b0c306076306632906c464072b6707988b080c2c0886ad0908770991f90a23a80abe000b61860c0ec54142434445464748494a4b4c4d4e4f505152535455565758595a6162636465666768696a6b6c6d6e6f707172737475767778797a303132333435363738392b2fa2646970667358221220aa5f3073b801743c37ef7dc6a812e2e28a81ecea5a53a52de5ff524fa4947ca564736f6c63430008090033",
  "devdoc": {
    "kind": "dev",
    "methods": {},
    "version": 1
  },
  "userdoc": {
    "kind": "user",
    "methods": {},
    "version": 1
  },
  "storageLayout": {
    "storage": [],
    "types": null
  }
}