{
  "address": "0x9Dd681023021bB939C26148c345B13275538f7de",
  "abi": [
    {
      "inputs": [
        {
          "internalType": "address",
          "name": "maintainer",
          "type": "address"
        },
        {
          "internalType": "contract MeloBleepsTokenURI",
          "name": "tokenURIContract",
          "type": "address"
        }
      ],
      "stateMutability": "nonpayable",
      "type": "constructor"
    },
    {
      "anonymous": false,
      "inputs": [
        {
          "indexed": true,
          "internalType": "address",
          "name": "owner",
          "type": "address"
        },
        {
          "indexed": true,
          "internalType": "address",
          "name": "approved",
          "type": "address"
        },
        {
          "indexed": true,
          "internalType": "uint256",
          "name": "tokenId",
          "type": "uint256"
        }
      ],
      "name": "Approval",
      "type": "event"
    },
    {
      "anonymous": false,
      "inputs": [
        {
          "indexed": true,
          "internalType": "address",
          "name": "owner",
          "type": "address"
        },
        {
          "indexed": true,
          "internalType": "address",
          "name": "operator",
          "type": "address"
        },
        {
          "indexed": false,
          "internalType": "bool",
          "name": "approved",
          "type": "bool"
        }
      ],
      "name": "ApprovalForAll",
      "type": "event"
    },
    {
      "anonymous": false,
      "inputs": [
        {
          "indexed": true,
          "internalType": "address",
          "name": "from",
          "type": "address"
        },
        {
          "indexed": true,
          "internalType": "address",
          "name": "to",
          "type": "address"
        },
        {
          "indexed": true,
          "internalType": "uint256",
          "name": "tokenId",
          "type": "uint256"
        }
      ],
      "name": "Transfer",
      "type": "event"
    },
    {
      "inputs": [
        {
          "internalType": "address",
          "name": "operator",
          "type": "address"
        },
        {
          "internalType": "uint256",
          "name": "id",
          "type": "uint256"
        }
      ],
      "name": "approve",
      "outputs": [],
      "stateMutability": "nonpayable",
      "type": "function"
    },
    {
      "inputs": [
        {
          "internalType": "address",
          "name": "owner",
          "type": "address"
        }
      ],
      "name": "balanceOf",
      "outputs": [
        {
          "internalType": "uint256",
          "name": "balance",
          "type": "uint256"
        }
      ],
      "stateMutability": "view",
      "type": "function"
    },
    {
      "inputs": [
        {
          "internalType": "uint256",
          "name": "id",
          "type": "uint256"
        }
      ],
      "name": "getApproved",
      "outputs": [
        {
          "internalType": "address",
          "name": "",
          "type": "address"
        }
      ],
      "stateMutability": "view",
      "type": "function"
    },
    {
      "inputs": [
        {
          "internalType": "address",
          "name": "owner",
          "type": "address"
        },
        {
          "internalType": "address",
          "name": "operator",
          "type": "address"
        }
      ],
      "name": "isApprovedForAll",
      "outputs": [
        {
          "internalType": "bool",
          "name": "isOperator",
          "type": "bool"
        }
      ],
      "stateMutability": "view",
      "type": "function"
    },
    {
      "inputs": [
        {
          "internalType": "bytes32",
          "name": "data1",
          "type": "bytes32"
        },
        {
          "internalType": "bytes32",
          "name": "data2",
          "type": "bytes32"
        },
        {
          "internalType": "address",
          "name": "to",
          "type": "address"
        }
      ],
      "name": "mint",
      "outputs": [],
      "stateMutability": "nonpayable",
      "type": "function"
    },
    {
      "inputs": [],
      "name": "name",
      "outputs": [
        {
          "internalType": "string",
          "name": "",
          "type": "string"
        }
      ],
      "stateMutability": "pure",
      "type": "function"
    },
    {
      "inputs": [
        {
          "internalType": "uint256[]",
          "name": "ids",
          "type": "uint256[]"
        }
      ],
      "name": "ownerAndLastTransferBlockNumberList",
      "outputs": [
        {
          "components": [
            {
              "internalType": "address",
              "name": "owner",
              "type": "address"
            },
            {
              "internalType": "uint256",
              "name": "lastTransferBlockNumber",
              "type": "uint256"
            }
          ],
          "internalType": "struct ERC721Base.OwnerData[]",
          "name": "ownersData",
          "type": "tuple[]"
        }
      ],
      "stateMutability": "view",
      "type": "function"
    },
    {
      "inputs": [
        {
          "internalType": "uint256",
          "name": "id",
          "type": "uint256"
        }
      ],
      "name": "ownerOf",
      "outputs": [
        {
          "internalType": "address",
          "name": "owner",
          "type": "address"
        }
      ],
      "stateMutability": "view",
      "type": "function"
    },
    {
      "inputs": [
        {
          "internalType": "address",
          "name": "from",
          "type": "address"
        },
        {
          "internalType": "address",
          "name": "to",
          "type": "address"
        },
        {
          "internalType": "uint256",
          "name": "id",
          "type": "uint256"
        }
      ],
      "name": "safeTransferFrom",
      "outputs": [],
      "stateMutability": "nonpayable",
      "type": "function"
    },
    {
      "inputs": [
        {
          "internalType": "address",
          "name": "from",
          "type": "address"
        },
        {
          "internalType": "address",
          "name": "to",
          "type": "address"
        },
        {
          "internalType": "uint256",
          "name": "id",
          "type": "uint256"
        },
        {
          "internalType": "bytes",
          "name": "data",
          "type": "bytes"
        }
      ],
      "name": "safeTransferFrom",
      "outputs": [],
      "stateMutability": "nonpayable",
      "type": "function"
    },
    {
      "inputs": [
        {
          "internalType": "address",
          "name": "operator",
          "type": "address"
        },
        {
          "internalType": "bool",
          "name": "approved",
          "type": "bool"
        }
      ],
      "name": "setApprovalForAll",
      "outputs": [],
      "stateMutability": "nonpayable",
      "type": "function"
    },
    {
      "inputs": [
        {
          "internalType": "address",
          "name": "newMaintainer",
          "type": "address"
        }
      ],
      "name": "setMaintainer",
      "outputs": [],
      "stateMutability": "nonpayable",
      "type": "function"
    },
    {
      "inputs": [
        {
          "internalType": "contract MeloBleepsTokenURI",
          "name": "newTokenURIContract",
          "type": "address"
        }
      ],
      "name": "setTokenURIContract",
      "outputs": [],
      "stateMutability": "nonpayable",
      "type": "function"
    },
    {
      "inputs": [
        {
          "internalType": "bytes4",
          "name": "id",
          "type": "bytes4"
        }
      ],
      "name": "supportsInterface",
      "outputs": [
        {
          "internalType": "bool",
          "name": "",
          "type": "bool"
        }
      ],
      "stateMutability": "pure",
      "type": "function"
    },
    {
      "inputs": [],
      "name": "symbol",
      "outputs": [
        {
          "internalType": "string",
          "name": "",
          "type": "string"
        }
      ],
      "stateMutability": "pure",
      "type": "function"
    },
    {
      "inputs": [
        {
          "internalType": "uint256",
          "name": "id",
          "type": "uint256"
        }
      ],
      "name": "tokenURI",
      "outputs": [
        {
          "internalType": "string",
          "name": "",
          "type": "string"
        }
      ],
      "stateMutability": "view",
      "type": "function"
    },
    {
      "inputs": [
        {
          "internalType": "address",
          "name": "from",
          "type": "address"
        },
        {
          "internalType": "address",
          "name": "to",
          "type": "address"
        },
        {
          "internalType": "uint256",
          "name": "id",
          "type": "uint256"
        }
      ],
      "name": "transferFrom",
      "outputs": [],
      "stateMutability": "nonpayable",
      "type": "function"
    }
  ],
  "transactionHash": "0xfa5bc9923064c07a729a81bcdd0e5421300efb8967052a0caf520b834ea4f4e0",
  "args": [
    "0xE53cd71271AcAdbeb0f64d9c8C62bBdDc8cA9e66",
    "0x2DbEeB64A77227201642ef678Afe5E5973961744"
  ],
  "solcInputHash": "453ac7c543cabb868498baff475e6c82",
  "bytecode": "0x60806040523480156200001157600080fd5b5060405162001f8238038062001f8283398101604081905262000034916200007f565b600480546001600160a01b039384166001600160a01b03199182161790915560058054929093169116179055620000be565b6001600160a01b03811681146200007c57600080fd5b50565b600080604083850312156200009357600080fd5b8251620000a08162000066565b6020840151909250620000b38162000066565b809150509250929050565b611eb480620000ce6000396000f3fe608060405234801561001057600080fd5b506004361061011b5760003560e01c806370a08231116100b2578063b88d4fde11610081578063d8f361ad11610066578063d8f361ad146102c9578063e985e9c5146102dc578063f39452821461032557600080fd5b8063b88d4fde146102a3578063c87b56dd146102b657600080fd5b806370a082311461022357806382fc31471461024457806395d89b4114610257578063a22cb4651461029057600080fd5b806313ea5d29116100ee57806313ea5d29146101d757806323b872dd146101ea57806342842e0e146101fd5780636352211e1461021057600080fd5b806301ffc9a71461012057806306fdde0314610148578063081812fc1461018a578063095ea7b3146101c2575b600080fd5b61013361012e3660046118ae565b610345565b60405190151581526020015b60405180910390f35b60408051808201909152601e81527f4d656c6f426c656570732c204d656c6f64696573206f6620426c65657073000060208201525b60405161013f9190611948565b61019d61019836600461195b565b61042a565b60405173ffffffffffffffffffffffffffffffffffffffff909116815260200161013f565b6101d56101d0366004611996565b61051b565b005b6101d56101e53660046119c2565b610685565b6101d56101f83660046119df565b61074d565b6101d561020b3660046119df565b610a8f565b61019d61021e36600461195b565b610aaf565b6102366102313660046119c2565b610b40565b60405190815260200161013f565b6101d56102523660046119c2565b610be8565b60408051808201909152600681527f4d424c4545500000000000000000000000000000000000000000000000000000602082015261017d565b6101d561029e366004611a20565b610cb0565b6101d56102b1366004611b22565b610cbf565b61017d6102c436600461195b565b611004565b6101d56102d7366004611bd1565b6110ef565b6101336102ea366004611c0a565b73ffffffffffffffffffffffffffffffffffffffff918216600090815260026020908152604080832093909416825291909152205460ff1690565b610338610333366004611c38565b61130f565b60405161013f9190611cad565b60007f01ffc9a7000000000000000000000000000000000000000000000000000000007fffffffff00000000000000000000000000000000000000000000000000000000831614806103d857507f80ac58cd000000000000000000000000000000000000000000000000000000007fffffffff000000000000000000000000000000000000000000000000000000008316145b8061042457507f5b5e139f000000000000000000000000000000000000000000000000000000007fffffffff000000000000000000000000000000000000000000000000000000008316145b92915050565b6000818152602081905260408120547f80000000000000000000000000000000000000000000000000000000000000008082161473ffffffffffffffffffffffffffffffffffffffff82166104e0576040517f08c379a000000000000000000000000000000000000000000000000000000000815260206004820152601160248201527f4e4f4e4558495354454e545f544f4b454e00000000000000000000000000000060448201526064015b60405180910390fd5b80156105115750505060009081526003602052604090205473ffffffffffffffffffffffffffffffffffffffff1690565b5060009392505050565b6000818152602081905260409020546affffffffffffffffffffff60a082901c1673ffffffffffffffffffffffffffffffffffffffff82166105b9576040517f08c379a000000000000000000000000000000000000000000000000000000000815260206004820152601160248201527f4e4f4e4558495354454e545f544f4b454e00000000000000000000000000000060448201526064016104d7565b3373ffffffffffffffffffffffffffffffffffffffff8316148061060d575073ffffffffffffffffffffffffffffffffffffffff8216600090815260026020908152604080832033845290915290205460ff165b610673576040517f08c379a000000000000000000000000000000000000000000000000000000000815260206004820152601560248201527f554e415554484f52495a45445f415050524f56414c000000000000000000000060448201526064016104d7565b61067f82828686611449565b50505050565b60045473ffffffffffffffffffffffffffffffffffffffff163314610706576040517f08c379a000000000000000000000000000000000000000000000000000000000815260206004820152600e60248201527f4e4f545f415554484f52495a454400000000000000000000000000000000000060448201526064016104d7565b600480547fffffffffffffffffffffffff00000000000000000000000000000000000000001673ffffffffffffffffffffffffffffffffffffffff92909216919091179055565b6000818152602081905260409020547f80000000000000000000000000000000000000000000000000000000000000008082161473ffffffffffffffffffffffffffffffffffffffff82166107fe576040517f08c379a000000000000000000000000000000000000000000000000000000000815260206004820152601160248201527f4e4f4e4558495354454e545f544f4b454e00000000000000000000000000000060448201526064016104d7565b8473ffffffffffffffffffffffffffffffffffffffff168273ffffffffffffffffffffffffffffffffffffffff1614610893576040517f08c379a000000000000000000000000000000000000000000000000000000000815260206004820152600960248201527f4e4f545f4f574e4552000000000000000000000000000000000000000000000060448201526064016104d7565b73ffffffffffffffffffffffffffffffffffffffff8416610910576040517f08c379a000000000000000000000000000000000000000000000000000000000815260206004820152601260248201527f4e4f545f544f5f5a45524f41444452455353000000000000000000000000000060448201526064016104d7565b73ffffffffffffffffffffffffffffffffffffffff8416301415610990576040517f08c379a000000000000000000000000000000000000000000000000000000000815260206004820152600b60248201527f4e4f545f544f5f5448495300000000000000000000000000000000000000000060448201526064016104d7565b3373ffffffffffffffffffffffffffffffffffffffff861614610a7d5773ffffffffffffffffffffffffffffffffffffffff8516600090815260026020908152604080832033845290915290205460ff1680610a175750808015610a17575060008381526003602052604090205473ffffffffffffffffffffffffffffffffffffffff1633145b610a7d576040517f08c379a000000000000000000000000000000000000000000000000000000000815260206004820152601560248201527f554e415554484f52495a45445f5452414e53464552000000000000000000000060448201526064016104d7565b610a88858585611582565b5050505050565b610aaa83838360405180602001604052806000815250610cbf565b505050565b60008181526020819052604090205473ffffffffffffffffffffffffffffffffffffffff8116610b3b576040517f08c379a000000000000000000000000000000000000000000000000000000000815260206004820152601160248201527f4e4f4e4558495354454e545f544f4b454e00000000000000000000000000000060448201526064016104d7565b919050565b600073ffffffffffffffffffffffffffffffffffffffff8216610bbf576040517f08c379a000000000000000000000000000000000000000000000000000000000815260206004820152601260248201527f5a45524f5f414444524553535f4f574e4552000000000000000000000000000060448201526064016104d7565b5073ffffffffffffffffffffffffffffffffffffffff1660009081526001602052604090205490565b60045473ffffffffffffffffffffffffffffffffffffffff163314610c69576040517f08c379a000000000000000000000000000000000000000000000000000000000815260206004820152600e60248201527f4e4f545f415554484f52495a454400000000000000000000000000000000000060448201526064016104d7565b600580547fffffffffffffffffffffffff00000000000000000000000000000000000000001673ffffffffffffffffffffffffffffffffffffffff92909216919091179055565b610cbb338383611666565b5050565b6000828152602081905260409020547f80000000000000000000000000000000000000000000000000000000000000008082161473ffffffffffffffffffffffffffffffffffffffff8216610d70576040517f08c379a000000000000000000000000000000000000000000000000000000000815260206004820152601160248201527f4e4f4e4558495354454e545f544f4b454e00000000000000000000000000000060448201526064016104d7565b8573ffffffffffffffffffffffffffffffffffffffff168273ffffffffffffffffffffffffffffffffffffffff1614610e05576040517f08c379a000000000000000000000000000000000000000000000000000000000815260206004820152600960248201527f4e4f545f4f574e4552000000000000000000000000000000000000000000000060448201526064016104d7565b73ffffffffffffffffffffffffffffffffffffffff8516610e82576040517f08c379a000000000000000000000000000000000000000000000000000000000815260206004820152601260248201527f4e4f545f544f5f5a45524f41444452455353000000000000000000000000000060448201526064016104d7565b73ffffffffffffffffffffffffffffffffffffffff8516301415610f02576040517f08c379a000000000000000000000000000000000000000000000000000000000815260206004820152600b60248201527f4e4f545f544f5f5448495300000000000000000000000000000000000000000060448201526064016104d7565b3373ffffffffffffffffffffffffffffffffffffffff871614610ff057808015610f4f575060008481526003602052604090205473ffffffffffffffffffffffffffffffffffffffff1633145b80610f8a575073ffffffffffffffffffffffffffffffffffffffff8616600090815260026020908152604080832033845290915290205460ff165b610ff0576040517f08c379a000000000000000000000000000000000000000000000000000000000815260206004820152601560248201527f554e415554484f52495a45445f5452414e53464552000000000000000000000060448201526064016104d7565b610ffc868686866116fe565b505050505050565b60008181526006602052604090819020805460019091015460055492517fd63fab2b000000000000000000000000000000000000000000000000000000008152600481018390526024810182905260609373ffffffffffffffffffffffffffffffffffffffff169063d63fab2b9060440160006040518083038186803b15801561108d57600080fd5b505afa1580156110a1573d6000803e3d6000fd5b505050506040513d6000823e601f3d9081017fffffffffffffffffffffffffffffffffffffffffffffffffffffffffffffffe01682016040526110e79190810190611d12565b949350505050565b6040805160208101859052908101839052600090606001604080517fffffffffffffffffffffffffffffffffffffffffffffffffffffffffffffffe0818403018152828252805160209182012083830183528784528382018781526000828152600690935292909120925183559051600190920191909155905073ffffffffffffffffffffffffffffffffffffffff82166111e6576040517f08c379a000000000000000000000000000000000000000000000000000000000815260206004820152601260248201527f4e4f545f544f5f5a45524f41444452455353000000000000000000000000000060448201526064016104d7565b73ffffffffffffffffffffffffffffffffffffffff8216301415611266576040517f08c379a000000000000000000000000000000000000000000000000000000000815260206004820152600b60248201527f4e4f545f544f5f5448495300000000000000000000000000000000000000000060448201526064016104d7565b60008181526020819052604090205473ffffffffffffffffffffffffffffffffffffffff8116156112f3576040517f08c379a000000000000000000000000000000000000000000000000000000000815260206004820152600f60248201527f414c52454144595f43524541544544000000000000000000000000000000000060448201526064016104d7565b610a8860008484604051806020016040528060008152506116fe565b60608167ffffffffffffffff81111561132a5761132a611a5e565b60405190808252806020026020018201604052801561136f57816020015b60408051808201909152600080825260208201528152602001906001900390816113485790505b50905060005b8281101561144257600080600086868581811061139457611394611d89565b905060200201358152602001908152602001600020549050808383815181106113bf576113bf611d89565b60200260200101516000019073ffffffffffffffffffffffffffffffffffffffff16908173ffffffffffffffffffffffffffffffffffffffff168152505060a081901c6affffffffffffffffffffff1683838151811061142157611421611d89565b6020908102919091018101510152508061143a81611db8565b915050611375565b5092915050565b73ffffffffffffffffffffffffffffffffffffffff821661149657600081815260208190526040902060a084901b73ffffffffffffffffffffffffffffffffffffffff8616179055611521565b6000818152602081815260408083207f800000000000000000000000000000000000000000000000000000000000000073ffffffffffffffffffffffffffffffffffffffff89811660a08a901b1791909117909155600390925290912080547fffffffffffffffffffffffff0000000000000000000000000000000000000000169184169190911790555b808273ffffffffffffffffffffffffffffffffffffffff168573ffffffffffffffffffffffffffffffffffffffff167f8c5be1e5ebec7d5bd14f71427d1e84f3dd0314c0f7b2291e5b200ac8c7c3b92560405160405180910390a450505050565b73ffffffffffffffffffffffffffffffffffffffff8083166000908152600160208190526040909120805490910190558316156116055773ffffffffffffffffffffffffffffffffffffffff8316600090815260016020526040902080547fffffffffffffffffffffffffffffffffffffffffffffffffffffffffffffffff0190555b6000818152602081905260408082204360a01b73ffffffffffffffffffffffffffffffffffffffff80871691821790925591518493918716917fddf252ad1be2c89b69c2b068fc378daa952ba7f163c4a11628f55a4df523b3ef91a4505050565b73ffffffffffffffffffffffffffffffffffffffff83811660008181526002602090815260408083209487168084529482529182902080547fffffffffffffffffffffffffffffffffffffffffffffffffffffffffffffff001686151590811790915591519182527f17307eab39ab6107e8899845ad3d59bd9653f200f220920489ca2b5937696c31910160405180910390a3505050565b611709848484611582565b73ffffffffffffffffffffffffffffffffffffffff83163b1561067f576117333385858585611799565b61067f576040517f08c379a000000000000000000000000000000000000000000000000000000000815260206004820152601860248201527f4552433732315f5452414e534645525f52454a4543544544000000000000000060448201526064016104d7565b6000808473ffffffffffffffffffffffffffffffffffffffff1663150b7a02888887876040518563ffffffff1660e01b81526004016117db9493929190611e18565b602060405180830381600087803b1580156117f557600080fd5b505af1158015611809573d6000803e3d6000fd5b505050506040513d601f19601f8201168201806040525081019061182d9190611e61565b7fffffffff00000000000000000000000000000000000000000000000000000000167f150b7a02000000000000000000000000000000000000000000000000000000001491505095945050505050565b7fffffffff00000000000000000000000000000000000000000000000000000000811681146118ab57600080fd5b50565b6000602082840312156118c057600080fd5b81356118cb8161187d565b9392505050565b60005b838110156118ed5781810151838201526020016118d5565b8381111561067f5750506000910152565b600081518084526119168160208601602086016118d2565b601f017fffffffffffffffffffffffffffffffffffffffffffffffffffffffffffffffe0169290920160200192915050565b6020815260006118cb60208301846118fe565b60006020828403121561196d57600080fd5b5035919050565b73ffffffffffffffffffffffffffffffffffffffff811681146118ab57600080fd5b600080604083850312156119a957600080fd5b82356119b481611974565b946020939093013593505050565b6000602082840312156119d457600080fd5b81356118cb81611974565b6000806000606084860312156119f457600080fd5b83356119ff81611974565b92506020840135611a0f81611974565b929592945050506040919091013590565b60008060408385031215611a3357600080fd5b8235611a3e81611974565b915060208301358015158114611a5357600080fd5b809150509250929050565b7f4e487b7100000000000000000000000000000000000000000000000000000000600052604160045260246000fd5b604051601f82017fffffffffffffffffffffffffffffffffffffffffffffffffffffffffffffffe016810167ffffffffffffffff81118282101715611ad457611ad4611a5e565b604052919050565b600067ffffffffffffffff821115611af657611af6611a5e565b50601f017fffffffffffffffffffffffffffffffffffffffffffffffffffffffffffffffe01660200190565b60008060008060808587031215611b3857600080fd5b8435611b4381611974565b93506020850135611b5381611974565b925060408501359150606085013567ffffffffffffffff811115611b7657600080fd5b8501601f81018713611b8757600080fd5b8035611b9a611b9582611adc565b611a8d565b818152886020838501011115611baf57600080fd5b8160208401602083013760006020838301015280935050505092959194509250565b600080600060608486031215611be657600080fd5b83359250602084013591506040840135611bff81611974565b809150509250925092565b60008060408385031215611c1d57600080fd5b8235611c2881611974565b91506020830135611a5381611974565b60008060208385031215611c4b57600080fd5b823567ffffffffffffffff80821115611c6357600080fd5b818501915085601f830112611c7757600080fd5b813581811115611c8657600080fd5b8660208260051b8501011115611c9b57600080fd5b60209290920196919550909350505050565b602080825282518282018190526000919060409081850190868401855b82811015611d05578151805173ffffffffffffffffffffffffffffffffffffffff168552860151868501529284019290850190600101611cca565b5091979650505050505050565b600060208284031215611d2457600080fd5b815167ffffffffffffffff811115611d3b57600080fd5b8201601f81018413611d4c57600080fd5b8051611d5a611b9582611adc565b818152856020838501011115611d6f57600080fd5b611d808260208301602086016118d2565b95945050505050565b7f4e487b7100000000000000000000000000000000000000000000000000000000600052603260045260246000fd5b60007fffffffffffffffffffffffffffffffffffffffffffffffffffffffffffffffff821415611e11577f4e487b7100000000000000000000000000000000000000000000000000000000600052601160045260246000fd5b5060010190565b600073ffffffffffffffffffffffffffffffffffffffff808716835280861660208401525083604083015260806060830152611e5760808301846118fe565b9695505050505050565b600060208284031215611e7357600080fd5b81516118cb8161187d56fea2646970667358221220435129f7595e7e3ee798a1e69cd6d7a2cdb3d47c13bef7833608ac7207b70a8164736f6c63430008090033",
  "devdoc": {
    "kind": "dev",
    "methods": {
      "approve(address,uint256)": {
        "params": {
          "id": "The id of the token.",
          "operator": "The address receiving the approval."
        }
      },
      "balanceOf(address)": {
        "params": {
          "owner": "The address to look for."
        },
        "returns": {
          "balance": "The number of tokens owned by the address."
        }
      },
      "getApproved(uint256)": {
        "params": {
          "id": "The id of the token."
        },
        "returns": {
          "_0": "The address of the operator."
        }
      },
      "isApprovedForAll(address,address)": {
        "params": {
          "operator": "The address of the operator.",
          "owner": "The address of the owner."
        },
        "returns": {
          "isOperator": "The status of the approval."
        }
      },
      "ownerOf(uint256)": {
        "params": {
          "id": "The id of the token."
        },
        "returns": {
          "owner": "The address of the token owner."
        }
      },
      "safeTransferFrom(address,address,uint256)": {
        "params": {
          "from": "The send of the token.",
          "id": "The id of the token.",
          "to": "The recipient of the token."
        }
      },
      "safeTransferFrom(address,address,uint256,bytes)": {
        "params": {
          "data": "Additional data.",
          "from": "The sender of the token.",
          "id": "The id of the token.",
          "to": "The recipient of the token."
        }
      },
      "setApprovalForAll(address,bool)": {
        "params": {
          "approved": "The determination of the approval.",
          "operator": "The address receiving the approval."
        }
      },
      "supportsInterface(bytes4)": {
        "params": {
          "id": "The id of the interface."
        },
        "returns": {
          "_0": "Whether the interface is supported."
        }
      },
      "transferFrom(address,address,uint256)": {
        "params": {
          "from": "The sender of the token.",
          "id": "The id of the token.",
          "to": "The recipient of the token."
        }
      }
    },
    "version": 1
  },
  "userdoc": {
    "kind": "user",
    "methods": {
      "approve(address,uint256)": {
        "notice": "Approve an operator to spend tokens on the senders behalf."
      },
      "balanceOf(address)": {
        "notice": "Get the number of tokens owned by an address."
      },
      "getApproved(uint256)": {
        "notice": "Get the approved operator for a specific token."
      },
      "isApprovedForAll(address,address)": {
        "notice": "Check if the sender approved the operator."
      },
      "name()": {
        "notice": "A descriptive name for a collection of NFTs in this contract"
      },
      "ownerOf(uint256)": {
        "notice": "Get the owner of a token."
      },
      "safeTransferFrom(address,address,uint256)": {
        "notice": "Transfer a token between 2 addresses letting the receiver know of the transfer."
      },
      "safeTransferFrom(address,address,uint256,bytes)": {
        "notice": "Transfer a token between 2 addresses letting the receiver knows of the transfer."
      },
      "setApprovalForAll(address,bool)": {
        "notice": "Set the approval for an operator to manage all the tokens of the sender."
      },
      "supportsInterface(bytes4)": {
        "notice": "Check if the contract supports an interface. 0x01ffc9a7 is ERC165. 0x80ac58cd is ERC721 0x5b5e139f is for ERC721 metadata"
      },
      "symbol()": {
        "notice": "An abbreviated name for NFTs in this contract"
      },
      "transferFrom(address,address,uint256)": {
        "notice": "Transfer a token between 2 addresses."
      }
    },
    "version": 1
  },
  "storageLayout": {
    "storage": [
      {
        "astId": 9571,
        "contract": "src/MeloBleeps.sol:MeloBleeps",
        "label": "_owners",
        "offset": 0,
        "slot": "0",
        "type": "t_mapping(t_uint256,t_uint256)"
      },
      {
        "astId": 9575,
        "contract": "src/MeloBleeps.sol:MeloBleeps",
        "label": "_balances",
        "offset": 0,
        "slot": "1",
        "type": "t_mapping(t_address,t_uint256)"
      },
      {
        "astId": 9581,
        "contract": "src/MeloBleeps.sol:MeloBleeps",
        "label": "_operatorsForAll",
        "offset": 0,
        "slot": "2",
        "type": "t_mapping(t_address,t_mapping(t_address,t_bool))"
      },
      {
        "astId": 9585,
        "contract": "src/MeloBleeps.sol:MeloBleeps",
        "label": "_operators",
        "offset": 0,
        "slot": "3",
        "type": "t_mapping(t_uint256,t_address)"
      },
      {
        "astId": 9043,
        "contract": "src/MeloBleeps.sol:MeloBleeps",
        "label": "_maintainer",
        "offset": 0,
        "slot": "4",
        "type": "t_address"
      },
      {
        "astId": 9046,
        "contract": "src/MeloBleeps.sol:MeloBleeps",
        "label": "_tokenURIContract",
        "offset": 0,
        "slot": "5",
        "type": "t_contract(MeloBleepsTokenURI)9542"
      },
      {
        "astId": 9056,
        "contract": "src/MeloBleeps.sol:MeloBleeps",
        "label": "_melodies",
        "offset": 0,
        "slot": "6",
        "type": "t_mapping(t_uint256,t_struct(Melody)9051_storage)"
      }
    ],
    "types": {
      "t_address": {
        "encoding": "inplace",
        "label": "address",
        "numberOfBytes": "20"
      },
      "t_bool": {
        "encoding": "inplace",
        "label": "bool",
        "numberOfBytes": "1"
      },
      "t_bytes32": {
        "encoding": "inplace",
        "label": "bytes32",
        "numberOfBytes": "32"
      },
      "t_contract(MeloBleepsTokenURI)9542": {
        "encoding": "inplace",
        "label": "contract MeloBleepsTokenURI",
        "numberOfBytes": "20"
      },
      "t_mapping(t_address,t_bool)": {
        "encoding": "mapping",
        "key": "t_address",
        "label": "mapping(address => bool)",
        "numberOfBytes": "32",
        "value": "t_bool"
      },
      "t_mapping(t_address,t_mapping(t_address,t_bool))": {
        "encoding": "mapping",
        "key": "t_address",
        "label": "mapping(address => mapping(address => bool))",
        "numberOfBytes": "32",
        "value": "t_mapping(t_address,t_bool)"
      },
      "t_mapping(t_address,t_uint256)": {
        "encoding": "mapping",
        "key": "t_address",
        "label": "mapping(address => uint256)",
        "numberOfBytes": "32",
        "value": "t_uint256"
      },
      "t_mapping(t_uint256,t_address)": {
        "encoding": "mapping",
        "key": "t_uint256",
        "label": "mapping(uint256 => address)",
        "numberOfBytes": "32",
        "value": "t_address"
      },
      "t_mapping(t_uint256,t_struct(Melody)9051_storage)": {
        "encoding": "mapping",
        "key": "t_uint256",
        "label": "mapping(uint256 => struct MeloBleeps.Melody)",
        "numberOfBytes": "32",
        "value": "t_struct(Melody)9051_storage"
      },
      "t_mapping(t_uint256,t_uint256)": {
        "encoding": "mapping",
        "key": "t_uint256",
        "label": "mapping(uint256 => uint256)",
        "numberOfBytes": "32",
        "value": "t_uint256"
      },
      "t_struct(Melody)9051_storage": {
        "encoding": "inplace",
        "label": "struct MeloBleeps.Melody",
        "members": [
          {
            "astId": 9048,
            "contract": "src/MeloBleeps.sol:MeloBleeps",
            "label": "data1",
            "offset": 0,
            "slot": "0",
            "type": "t_bytes32"
          },
          {
            "astId": 9050,
            "contract": "src/MeloBleeps.sol:MeloBleeps",
            "label": "data2",
            "offset": 0,
            "slot": "1",
            "type": "t_bytes32"
          }
        ],
        "numberOfBytes": "64"
      },
      "t_uint256": {
        "encoding": "inplace",
        "label": "uint256",
        "numberOfBytes": "32"
      }
    }
  }
}