{
  "address": "0x73C10dBafC2Fe7D1760C5cAD0ECD8A893273d8B2",
  "abi": [
    {
      "inputs": [
        {
          "internalType": "contract Bleeps",
          "name": "bleeps",
          "type": "address"
        },
        {
          "internalType": "uint256",
          "name": "price",
          "type": "uint256"
        },
        {
          "internalType": "uint256",
          "name": "whitelistPrice",
          "type": "uint256"
        },
        {
          "internalType": "uint256",
          "name": "whitelistTimeLimit",
          "type": "uint256"
        },
        {
          "internalType": "bytes32",
          "name": "whitelistMerkleRoot",
          "type": "bytes32"
        },
        {
          "internalType": "address payable",
          "name": "recipient",
          "type": "address"
        },
        {
          "internalType": "contract IERC721",
          "name": "mandalas",
          "type": "address"
        },
        {
          "internalType": "uint256",
          "name": "mandalasDiscountPercentage",
          "type": "uint256"
        }
      ],
      "stateMutability": "nonpayable",
      "type": "constructor"
    },
    {
      "inputs": [
        {
          "internalType": "uint256",
          "name": "passId",
          "type": "uint256"
        }
      ],
      "name": "isPassUsed",
      "outputs": [
        {
          "internalType": "bool",
          "name": "",
          "type": "bool"
        }
      ],
      "stateMutability": "nonpayable",
      "type": "function"
    },
    {
      "inputs": [
        {
          "internalType": "uint16",
          "name": "id",
          "type": "uint16"
        },
        {
          "internalType": "address",
          "name": "to",
          "type": "address"
        }
      ],
      "name": "mint",
      "outputs": [],
      "stateMutability": "payable",
      "type": "function"
    },
    {
      "inputs": [
        {
          "internalType": "uint16",
          "name": "id",
          "type": "uint16"
        },
        {
          "internalType": "address",
          "name": "to",
          "type": "address"
        },
        {
          "internalType": "uint256",
          "name": "passId",
          "type": "uint256"
        },
        {
          "internalType": "bytes32[]",
          "name": "proof",
          "type": "bytes32[]"
        }
      ],
      "name": "mintWithPassId",
      "outputs": [],
      "stateMutability": "payable",
      "type": "function"
    },
    {
      "inputs": [
        {
          "internalType": "uint16",
          "name": "id",
          "type": "uint16"
        },
        {
          "internalType": "address",
          "name": "to",
          "type": "address"
        },
        {
          "internalType": "uint256",
          "name": "passId",
          "type": "uint256"
        },
        {
          "internalType": "bytes",
          "name": "signature",
          "type": "bytes"
        },
        {
          "internalType": "bytes32[]",
          "name": "proof",
          "type": "bytes32[]"
        }
      ],
      "name": "mintWithSalePass",
      "outputs": [],
      "stateMutability": "payable",
      "type": "function"
    },
    {
      "inputs": [
        {
          "internalType": "address",
          "name": "purchaser",
          "type": "address"
        },
        {
          "internalType": "uint256[]",
          "name": "ids",
          "type": "uint256[]"
        }
      ],
      "name": "ownersAndPriceInfo",
      "outputs": [
        {
          "internalType": "address[]",
          "name": "addresses",
          "type": "address[]"
        },
        {
          "internalType": "uint256",
          "name": "price",
          "type": "uint256"
        },
        {
          "internalType": "uint256",
          "name": "whitelistPrice",
          "type": "uint256"
        },
        {
          "internalType": "uint256",
          "name": "whitelistTimeLimit",
          "type": "uint256"
        },
        {
          "internalType": "bytes32",
          "name": "whitelistMerkleRoot",
          "type": "bytes32"
        },
        {
          "internalType": "uint256",
          "name": "mandalasDiscountPercentage",
          "type": "uint256"
        },
        {
          "internalType": "bool",
          "name": "hasMandalas",
          "type": "bool"
        }
      ],
      "stateMutability": "view",
      "type": "function"
    },
    {
      "inputs": [
        {
          "internalType": "address",
          "name": "purchaser",
          "type": "address"
        }
      ],
      "name": "priceInfo",
      "outputs": [
        {
          "internalType": "uint256",
          "name": "price",
          "type": "uint256"
        },
        {
          "internalType": "uint256",
          "name": "whitelistPrice",
          "type": "uint256"
        },
        {
          "internalType": "uint256",
          "name": "whitelistTimeLimit",
          "type": "uint256"
        },
        {
          "internalType": "bytes32",
          "name": "whitelistMerkleRoot",
          "type": "bytes32"
        },
        {
          "internalType": "uint256",
          "name": "mandalasDiscountPercentage",
          "type": "uint256"
        },
        {
          "internalType": "bool",
          "name": "hasMandalas",
          "type": "bool"
        }
      ],
      "stateMutability": "view",
      "type": "function"
    },
    {
      "inputs": [
        {
          "internalType": "uint16",
          "name": "id",
          "type": "uint16"
        },
        {
          "internalType": "address",
          "name": "to",
          "type": "address"
        }
      ],
      "name": "recipientMint",
      "outputs": [],
      "stateMutability": "nonpayable",
      "type": "function"
    }
  ],
  "transactionHash": "0xdcc8e75d6c02196851c560d106e7471addd31f76dcd250ffcc9575351586c069",
  "args": [
    "0x9B5452669DDce553EE59ea77ED8328FCE83fa960",
    "200000000000000000",
    "180000000000000000",
    1636978517,
    "0x6d385c63ea2d5dd04ea44972c8befa15f7a55e2a9b51065ce3ed2f551c3d29e2",
    "0xE53cd71271AcAdbeb0f64d9c8C62bBdDc8cA9e66",
    "0x434BADEA3943c5B3D86366Fa03c77201B6770A75",
    0
  ],
  "linkedData": {
    "leaves": [
      {
        "passId": "0",
        "signer": "0x857dc9a450F332f1eaaE525f4622c10C942869cb"
      },
      {
        "passId": "1",
        "signer": "0x2CDaBD6F9Eab94E0D6077F4070D20478448AdE6a"
      },
      {
        "passId": "2",
        "signer": "0x8F70597DDc9b386DA69121473e950512f310F73C"
      },
      {
        "passId": "3",
        "signer": "0x7fB9f22a44186118a556cda68Fd370Ad177F523d"
      },
      {
        "passId": "4",
        "signer": "0x7Db480AD8D26d1092C039362C4147AdE40ae3fad"
      },
      {
        "passId": "5",
        "signer": "0x34c385b72865543f887f78164332f1BAEF746699"
      },
      {
        "passId": "6",
        "signer": "0x0B32f44627f3D6E00bCA098721A73Bc1f833cC7A"
      },
      {
        "passId": "7",
        "signer": "0xF1848ebc565f179172a29f7f2B0571fcCbc5532a"
      },
      {
        "passId": "8",
        "signer": "0xaC862812E65F07dD90ED1Add957E17fb2bDB497f"
      },
      {
        "passId": "9",
        "signer": "0xeA6059EbD3643642FBe2f6D2309861773503106E"
      },
      {
        "passId": "10",
        "signer": "0x26b608A99BC28F2A64f743fcDf7190B520C97BaF"
      },
      {
        "passId": "11",
        "signer": "0x52476a2Ba8cFD394A9A8f1E9Bc7B3bb9d1680418"
      },
      {
        "passId": "12",
        "signer": "0x51484031d78Ec18ed29Eb36385ce3A2A2e62d2C8"
      },
      {
        "passId": "13",
        "signer": "0xaf8D6913C8F58ed60f59d8F137A91624a66a026a"
      },
      {
        "passId": "14",
        "signer": "0xB10a7a80F2fe235f8cC9ACafc74614A8cd51f13D"
      },
      {
        "passId": "15",
        "signer": "0x136b5174D2617a01793B7c5662DCAc351200d7B0"
      },
      {
        "passId": "16",
        "signer": "0x41E104Ac188faca3EfEEa6bD7444fB7045e7C20C"
      },
      {
        "passId": "17",
        "signer": "0x0cd1FD65b7515f3FbaB41d146BA60F98183d4DC1"
      },
      {
        "passId": "18",
        "signer": "0x20E577A3aA1954cE85E9178e07A9566A94eC50B0"
      },
      {
        "passId": "19",
        "signer": "0xF29A9573C40D0DCB6Ce722b4CBB53c1426cb07f3"
      },
      {
        "passId": "20",
        "signer": "0xe7E7a73b65E0CD3e52Bb25058152621Ca5a0417F"
      },
      {
        "passId": "21",
        "signer": "0x239775E30f52b460f1eF4b9d91E7f372525fAE28"
      },
      {
        "passId": "22",
        "signer": "0x9Be36fa62CdFFbc983904C1AABb9a6a57BFC3d55"
      },
      {
        "passId": "23",
        "signer": "0x420d6ce77b5D8CFF8DEF1402B28fed2582761183"
      },
      {
        "passId": "24",
        "signer": "0x361a135E5cdF7ED65de4e93D2Bd23454eABB963B"
      },
      {
        "passId": "25",
        "signer": "0x5E3F492f32Cce4bC9828589d5b14a2F09c73716a"
      },
      {
        "passId": "26",
        "signer": "0xDe93866efa53bfF6006601cc07033f77ED34EAaB"
      },
      {
        "passId": "27",
        "signer": "0x4c576106CCAa06d46224f07Ae87b68f1cf0da600"
      },
      {
        "passId": "28",
        "signer": "0x2e722Eb519b13258755b23570643ff4cd8e2e71a"
      },
      {
        "passId": "29",
        "signer": "0x02ef1630c31572AaF81f96A1158c299fa53cb90B"
      },
      {
        "passId": "30",
        "signer": "0x2feBc5D32CbBb4B3dB9a99449C542E582632DBc5"
      },
      {
        "passId": "31",
        "signer": "0x85AB94113e07Ddd81D078E15556B95Bd243E51e8"
      },
      {
        "passId": "32",
        "signer": "0xDd7d026F85232e8d74629e3e3bc79D90A92d890B"
      },
      {
        "passId": "33",
        "signer": "0xa0FE6E29578c1d30795cB2c00588B27C8aF65B99"
      },
      {
        "passId": "34",
        "signer": "0x73Ca884e7285CfEE3941122398453D27fE8557C9"
      },
      {
        "passId": "35",
        "signer": "0x00Ce7Cb5419fFE6A3176f08253D9716Fb8BBf8de"
      },
      {
        "passId": "36",
        "signer": "0x8b6dcA8a3466089CbeCc6Cdab8529C1F5a55f67D"
      },
      {
        "passId": "37",
        "signer": "0x32dbf7DC3aD2174051D5dBeC518127453Dc1D537"
      },
      {
        "passId": "38",
        "signer": "0x9a4B731D45d293E45b1b9d2e851bD5fd5ba9810E"
      },
      {
        "passId": "39",
        "signer": "0xBd19C2831E7Ae301630f8c2aB401DeE08b10e82e"
      },
      {
        "passId": "40",
        "signer": "0x6e3659FBf6F8670aCdCC94115F7A1Bb27CD10016"
      },
      {
        "passId": "41",
        "signer": "0x8228D310c486F2Df85D693577C0Fd31B2Bd0EC0e"
      },
      {
        "passId": "42",
        "signer": "0xa071749ED2cbc477E858b54563304fe52FC16105"
      },
      {
        "passId": "43",
        "signer": "0x81e7F3c6C968b818B685268bd19b469b25d4807f"
      },
      {
        "passId": "44",
        "signer": "0xb52a978791EF7Ea649fB981f612Ada4e7C46b936"
      },
      {
        "passId": "45",
        "signer": "0xC2fC44783e1835577e82170E28a93B4314b8970E"
      },
      {
        "passId": "46",
        "signer": "0xCc279166Eaaef6dfa6a0e9aE3d8487b630192149"
      },
      {
        "passId": "47",
        "signer": "0xEBF627A564Cd4e2B21148558D2a6fce7eC9b5eA7"
      },
      {
        "passId": "48",
        "signer": "0x1f90945aE42bff39E804099A9341F8F977681937"
      },
      {
        "passId": "49",
        "signer": "0xE472C1aF663f387bF76787E90dE15cAF88EBf4d7"
      },
      {
        "passId": "50",
        "signer": "0x0F942bc39926564609E6721BCC2645a3EB141515"
      },
      {
        "passId": "51",
        "signer": "0xA560DFb758d4C30eD472111AcC73fdfF47c735dF"
      },
      {
        "passId": "52",
        "signer": "0xd006398372F78FDE65F38B8FA2E1E715A44c7d02"
      },
      {
        "passId": "53",
        "signer": "0x19a9a611330f09145E0EB7D2aeEEF8F14113297b"
      },
      {
        "passId": "54",
        "signer": "0xad8CB255E52887D88Ccf5Abba163cE34D0439E08"
      },
      {
        "passId": "55",
        "signer": "0x9509E188645CB64a5b15ce1c91F9006A8AC84342"
      },
      {
        "passId": "56",
        "signer": "0x7db8d0483D7aE1CB00828de4A67D7c5993Bd8a33"
      },
      {
        "passId": "57",
        "signer": "0x9DF645500Eea46e971A11a4EC21f73Af39467FF1"
      },
      {
        "passId": "58",
        "signer": "0x95BFC945F0Ccb416F1892e773909dA109368b275"
      },
      {
        "passId": "59",
        "signer": "0x6ef4CBB5A14f2757B3Cb44E166a4ABeFF7228f5B"
      },
      {
        "passId": "60",
        "signer": "0x070951Ae30Dde9ad60E35C10137F8a4FA748F91A"
      },
      {
        "passId": "61",
        "signer": "0x267C08D4386A97a7391e1e13c0871a31D018a23e"
      },
      {
        "passId": "62",
        "signer": "0x0D254358143f56288AD7AfE0Ff2252C3831E2656"
      },
      {
        "passId": "63",
        "signer": "0xaA2Fc92C14d91c5fd7bd3C1B21e495D703b4d1A2"
      },
      {
        "passId": "64",
        "signer": "0x5F718c32D0324735b3e2DA7fb6607ad368ee6221"
      },
      {
        "passId": "65",
        "signer": "0xf70f271431546044c93C31E65E2f23E94Fe4dcaD"
      },
      {
        "passId": "66",
        "signer": "0xCb4D3a956e2D1103e6647243aF166e7499dA4BCF"
      },
      {
        "passId": "67",
        "signer": "0x63c2f53128997fD014Da1F97730a37620975aEB6"
      },
      {
        "passId": "68",
        "signer": "0x6cC29F2dcE505629C546C7BF0F07c9F4A3d91532"
      },
      {
        "passId": "69",
        "signer": "0x01dFEbae833d721E4D6aBfa8837ba61A99b96579"
      },
      {
        "passId": "70",
        "signer": "0xBEf1392193C91186782746fEA17890C5f9b49504"
      },
      {
        "passId": "71",
        "signer": "0xf920a85477Adc62B5b51aae2376991847e40938D"
      },
      {
        "passId": "72",
        "signer": "0x9e4dFA8bD17881BE292b1E70e14ec142bEb2F59A"
      },
      {
        "passId": "73",
        "signer": "0x23cD4680b439003B58f5dAbef1B3fd52fa0A6e8E"
      },
      {
        "passId": "74",
        "signer": "0xC869b2cA329AB0c269e2fb3fbdC9A477a4e4a0E9"
      },
      {
        "passId": "75",
        "signer": "0xafDA8ff8E20CF2Aae9bde0e165Fd8952eaeAB145"
      },
      {
        "passId": "76",
        "signer": "0xbC9D7d369A3B17aB94f26855dc29771B577f8A6E"
      },
      {
        "passId": "77",
        "signer": "0x17013205453BFf396d4f1E4520335361Df62970A"
      },
      {
        "passId": "78",
        "signer": "0x78404De9350c82908F50F449C542a9fb4e982973"
      },
      {
        "passId": "79",
        "signer": "0x5F0BCE7ce65cbaF20eBF4EfBc65C753f380d9F71"
      },
      {
        "passId": "80",
        "signer": "0xD4A49AA47AA9ed47eEc83c816AE3c48BcD338392"
      },
      {
        "passId": "81",
        "signer": "0x7969407E232AE9aF4A3f958ff0aa92eDDa5dA242"
      },
      {
        "passId": "82",
        "signer": "0xb5Ba7c51818d870b4f0a50D3d97482a29776Efe1"
      },
      {
        "passId": "83",
        "signer": "0x3A68264EdC95A2f06080B36d9a1642978f6D068b"
      },
      {
        "passId": "84",
        "signer": "0xc0625c6E92b7191F463487066B0ECe3e58B0eA0f"
      },
      {
        "passId": "85",
        "signer": "0xE4429E549AFE6eb95A042eBAE2a42Acfa0e238Ca"
      },
      {
        "passId": "86",
        "signer": "0xDF1f2C0C95b054052B08b7Cc2B9F6C343617ca53"
      },
      {
        "passId": "87",
        "signer": "0x96A4AdFABaf3bCE399fa9b7ede12871D199B2509"
      },
      {
        "passId": "88",
        "signer": "0x6377e94fdA2122227c3CF78B8da09CC2f87C7B69"
      },
      {
        "passId": "89",
        "signer": "0x56ca5365375a5c1528EAbd8D27A5804c708d62D8"
      },
      {
        "passId": "90",
        "signer": "0x719F60b22BD35A65CD816d5b277a565AB1919E70"
      },
      {
        "passId": "91",
        "signer": "0xf2c83710bE0aB32F66e0aCa74f79fF9446462f99"
      },
      {
        "passId": "92",
        "signer": "0x68fcACd8Dd87433Da941A27E7fE44f2cA327D858"
      },
      {
        "passId": "93",
        "signer": "0xa4Ea24851118f99EFca5c7A7047a09Cf1679CC94"
      },
      {
        "passId": "94",
        "signer": "0xb9ff468C1a867ba52815ba2D8504D3BdAc23076b"
      },
      {
        "passId": "95",
        "signer": "0xAf6c89e0528EfE31F0562671CB60679b4ee34Fa8"
      },
      {
        "passId": "96",
        "signer": "0x957080268E206416C187ae6E0Ad24df544EC667E"
      },
      {
        "passId": "97",
        "signer": "0x2a8A9Ca4D3F8ae256C2516D21881a1Fdb3a89743"
      },
      {
        "passId": "98",
        "signer": "0x493056445883bEf7F7b3E08B33412A5E87E14Aa3"
      },
      {
        "passId": "99",
        "signer": "0x3AED7B5030c433674981486aac8d095A652D49ed"
      },
      {
        "passId": "100",
        "signer": "0x4df7556B9229Abd5a7611CEDF14Ead9282bcdD8f"
      },
      {
        "passId": "101",
        "signer": "0x3C7C299De99FEe49d61be2697F785Ed184Ed96fd"
      },
      {
        "passId": "102",
        "signer": "0xc92c37121a8E76db16aD1227973E4518ee865027"
      },
      {
        "passId": "103",
        "signer": "0x271fad162135BC4B5a009b08b977510d1B4a7BCA"
      },
      {
        "passId": "104",
        "signer": "0x78Ab4551e87cBdD26a865C6951B60377aC587dF6"
      },
      {
        "passId": "105",
        "signer": "0x0b5844c1e03DE970534bC6A6562d931CDccf3A8f"
      },
      {
        "passId": "106",
        "signer": "0xB457057bE0887e558AeE49F1E324BFC087bE38e6"
      },
      {
        "passId": "107",
        "signer": "0xC3434E2ef511c00b9f50293135b3b76fd241f53d"
      },
      {
        "passId": "108",
        "signer": "0x543FA7c589D9030027812b57149Cef223Ec454a3"
      },
      {
        "passId": "109",
        "signer": "0x618fF687Cf9b5F4C375FD4481f90a33a29e31Ce4"
      },
      {
        "passId": "110",
        "signer": "0x7FcDC8500cd26b33b2cE797F7E16d13D11D3652d"
      },
      {
        "passId": "111",
        "signer": "0x7F45b4EC4df67954C4cA536e086B5C670d51d6c3"
      },
      {
        "passId": "112",
        "signer": "0x909de7a17dBC2e765531089c179fdcA471BFf329"
      },
      {
        "passId": "113",
        "signer": "0x16Efb3c8B085830A1edB7AFfede5c1f098b14B51"
      },
      {
        "passId": "114",
        "signer": "0x13b3948f20F45e8F461Fa77269B144e8b04ef225"
      },
      {
        "passId": "115",
        "signer": "0xBDcA58C30d0D016849BA88D84a848C0698d3B0CB"
      },
      {
        "passId": "116",
        "signer": "0x23BF8F031C9002371BBe0A2F629e7A4e9EE62456"
      },
      {
        "passId": "117",
        "signer": "0xE3a0189f3489543CD0262A3395d971Df5924cd68"
      },
      {
        "passId": "118",
        "signer": "0xfD8de2587E003C8869b629f9DBcF0C0957302B8A"
      },
      {
        "passId": "119",
        "signer": "0x8A33AF97f356Ae4E62D9D22Ee726448aa2ebBdFc"
      },
      {
        "passId": "120",
        "signer": "0xDD28b21380E3a1B98D3913094dA68f472B2DfEFE"
      },
      {
        "passId": "121",
        "signer": "0x57bB447D279C01DaDa91D0A936560Fbbe6c9140f"
      },
      {
        "passId": "122",
        "signer": "0x61F95274213B623837F01BCccc0DC20BcB0cA59E"
      },
      {
        "passId": "123",
        "signer": "0xED14861F13E754A0Dbcfdb6d0F2630280E275701"
      },
      {
        "passId": "124",
        "signer": "0x7A11DA4CA1A7FF9E4b536118f916FD6d5E084374"
      },
      {
        "passId": "125",
        "signer": "0x4D375d53bE102BC1281b50A8470209f913229c7A"
      },
      {
        "passId": "126",
        "signer": "0xA49AEA1c1553Ba31Ce1bADE67788A77837dbe814"
      },
      {
        "passId": "127",
        "signer": "0x3E5f124aFc66847eBCe146117fd50847364D8a3b"
      },
      {
        "passId": "128",
        "signer": "0xB965830ABED1BCb3329ee720b2D571B03ad0840E"
      },
      {
        "passId": "129",
        "signer": "0x4C5AFF9b6fa2Adc45Fc9F1b367aCB70194DA7656"
      },
      {
        "passId": "130",
        "signer": "0x22B9EeFF82f94967BFD273B94f0744cEbE0fc01E"
      },
      {
        "passId": "131",
        "signer": "0xeAEbc882eed1E34C0B7cfe5cB1DAba9c6DBAd434"
      },
      {
        "passId": "132",
        "signer": "0x043e11403c9242681e6e990Ac63Bf13B4587E301"
      },
      {
        "passId": "133",
        "signer": "0x0e411f9B6170Df0526d4D99E1a73D2225903C06C"
      },
      {
        "passId": "134",
        "signer": "0xCBd2bcE95b7464373DbE6947d25A8A6d1C6A8831"
      },
      {
        "passId": "135",
        "signer": "0x3e3f368cBF22d3A95e4214BAB63154a894bBA9A9"
      },
      {
        "passId": "136",
        "signer": "0x41f2cc50804275B295ED0ED3CEfEA913c9FA948A"
      },
      {
        "passId": "137",
        "signer": "0x1DeD4945D70bE7F597ad9fe1A46bDEE192f85C04"
      },
      {
        "passId": "138",
        "signer": "0xe82445593BF7814bBB1E859f2EB3F29F91239598"
      },
      {
        "passId": "139",
        "signer": "0xe95Abe19716cE17BF08Fe046c0a92A165b9Da8C8"
      },
      {
        "passId": "140",
        "signer": "0x15634Ab6608a3Fa6098e1Ade0270439EEA1f05B0"
      },
      {
        "passId": "141",
        "signer": "0xE5CaA41CeB8659e8B65f8dcdAa8E3e838abDd162"
      },
      {
        "passId": "142",
        "signer": "0xc2A5454015Ba424A3e7F3Af8d6fa7A4d7df33176"
      },
      {
        "passId": "143",
        "signer": "0x0e6823704240918DAB14aF518fBc903C822E1Bf3"
      },
      {
        "passId": "144",
        "signer": "0xb105988B4A9b837CB9D13938238B5708d583ee18"
      },
      {
        "passId": "145",
        "signer": "0xf88fC9ce188B1f9d30F61F2E8114dF3C0f22C627"
      },
      {
        "passId": "146",
        "signer": "0x657456F0f4F8A9e25278b50eC078130FDC430CD8"
      },
      {
        "passId": "147",
        "signer": "0x0E18386f0025F66f9Ef4AaaD76B1e65Ac7512694"
      },
      {
        "passId": "148",
        "signer": "0x8B53329a50C854974Db205498Dd20844884ba878"
      },
      {
        "passId": "149",
        "signer": "0x190D7cbaA443AA0c2c22C249cC555f437DFBA6ea"
      },
      {
        "passId": "150",
        "signer": "0xe02D2dB8d1585EB5758517cab9016FEEfC56b168"
      },
      {
        "passId": "151",
        "signer": "0xC80A311419c1e9c3b04A0BfD695Af25C8E714f3a"
      },
      {
        "passId": "152",
        "signer": "0xECBe2a94dcE81D35AD29C99A87F5e82e8Cc2fFA5"
      },
      {
        "passId": "153",
        "signer": "0x1258a382DD1B121B282227deF5969a82a012A550"
      },
      {
        "passId": "154",
        "signer": "0xd91Dbb35757Db4954Ff960861221CE09Bfb7C0BF"
      },
      {
        "passId": "155",
        "signer": "0x7e5550f72F6CB7E426A14ba1db3E141f1Ac5A4f8"
      },
      {
        "passId": "156",
        "signer": "0xA275501B972d2881B66FB1a3aC4F620078c3E9A5"
      },
      {
        "passId": "157",
        "signer": "0x2013a89640624D171620388dfE05B611512AD1E3"
      },
      {
        "passId": "158",
        "signer": "0xA53A06870d879409ee1a4D7Aa18F74c6433F3705"
      },
      {
        "passId": "159",
        "signer": "0xd1A2EDFd5D06481aC86dB41D696029A73e119D0D"
      },
      {
        "passId": "160",
        "signer": "0xA2e35c6aafbaf621Ee71610142C17F7a1FB9E1C1"
      },
      {
        "passId": "161",
        "signer": "0xdCBA46090d0D44880815563c5C186fB84097684A"
      },
      {
        "passId": "162",
        "signer": "0x4371e1032A3D59F52eE3001697C7bbB8aC9d778e"
      },
      {
        "passId": "163",
        "signer": "0x2fF80D5bc9f735520174058DF48EF5D20102e58d"
      },
      {
        "passId": "164",
        "signer": "0x1aDEBA95F58005a9B6d69BCf7B37C32BA609322E"
      },
      {
        "passId": "165",
        "signer": "0x819aA8c53Bb6Ff70687c1e98978FcD6f6F2d650b"
      },
      {
        "passId": "166",
        "signer": "0x495f9FD90D41F5f96064F879aA0934945DB1e446"
      },
      {
        "passId": "167",
        "signer": "0xF22194A4e75FF7c827572f0B4b04856E161120aD"
      },
      {
        "passId": "168",
        "signer": "0x36649927cF4BAa9FfF0624508f820A947a179608"
      },
      {
        "passId": "169",
        "signer": "0x2c29330e316A31C51fC300e9134C3D72eb20E4a2"
      },
      {
        "passId": "170",
        "signer": "0x1C4985c7668Ac0ADCc4837976BB14dd8443388cE"
      },
      {
        "passId": "171",
        "signer": "0x5A69444Fdc9c1BB41Efcb5154f926FadEa95630E"
      },
      {
        "passId": "172",
        "signer": "0x8bd325Bc3D6cCB7971A4990Ec1ef1084a9C588cf"
      },
      {
        "passId": "173",
        "signer": "0x260992B06c2Cffe1765e86fA0071A774569c44eB"
      },
      {
        "passId": "174",
        "signer": "0x55695a93d99f04e91B564eb60a6d3AEb715d60bF"
      },
      {
        "passId": "175",
        "signer": "0xbC90b9A70Cd8d73bF185C29A5052AD38497F0A43"
      },
      {
        "passId": "176",
        "signer": "0xA6F985Fc67e5753Bb05b3D58C2f187393651308B"
      },
      {
        "passId": "177",
        "signer": "0x53834D63EC4386d2914E466b0C8291b4bA6d1B3e"
      },
      {
        "passId": "178",
        "signer": "0x8917bfAD0C0a3C92dd71913d27befAb7448Ef572"
      },
      {
        "passId": "179",
        "signer": "0xE357184ef1B3c0ba0d8DD7fdece91eF3006B5d51"
      },
      {
        "passId": "180",
        "signer": "0xC6487E390607EB3Be6643325dB647f51A398fc88"
      },
      {
        "passId": "181",
        "signer": "0x4814b5735824fe63749391779B49dc5fD535ddC7"
      },
      {
        "passId": "182",
        "signer": "0xafa21AcD15DFC980eA56B6d3ff0F8C0e7d8D7dbE"
      },
      {
        "passId": "183",
        "signer": "0x5786ba793a48463BF913B27F6489FE27C0113311"
      },
      {
        "passId": "184",
        "signer": "0xEC32b5EcB950aF786e514E6a4b6B49412E2bee1A"
      },
      {
        "passId": "185",
        "signer": "0xD95057Ce251400C4aE40Ff2D9718c4eF367207B8"
      },
      {
        "passId": "186",
        "signer": "0x83c97Fe08Cac23676Aba30E578b96A9c2A81B6A5"
      },
      {
        "passId": "187",
        "signer": "0x91a8f144e8bCdF584efD01daF9E46193653496e8"
      },
      {
        "passId": "188",
        "signer": "0x939ffc075f514971a55492D0b7868a29f7852DAf"
      },
      {
        "passId": "189",
        "signer": "0xcbA1499Bc1773293dFe1C54179A49f6331c90311"
      },
      {
        "passId": "190",
        "signer": "0x0B2C19f0805235b4b917eA906Acef8f7f22D1640"
      },
      {
        "passId": "191",
        "signer": "0x2f4728fd811F5C94006f0F78b10579c135f72Eb1"
      },
      {
        "passId": "192",
        "signer": "0xCF9C9935E12e734e82375c1C3e3403a8eAe73e7F"
      },
      {
        "passId": "193",
        "signer": "0x0828c97C08d334ACFfD0a8042b36D77D3d479D57"
      },
      {
        "passId": "194",
        "signer": "0x0c1f8867e526342aD87454c695f9d8C2913A884B"
      },
      {
        "passId": "195",
        "signer": "0xe1d648bAeFca82E31cEB7Ca1231c2d3BAb75938B"
      },
      {
        "passId": "196",
        "signer": "0x8b9F23fbE06eC10d6b40f3025cb5c4EE21880357"
      },
      {
        "passId": "197",
        "signer": "0x326E37496E53eCD70068D94A1b5Be4E962d67C17"
      },
      {
        "passId": "198",
        "signer": "0x67f39c9f97FB0DC3DEEf25E8762ed3958CbF411e"
      },
      {
        "passId": "199",
        "signer": "0x52B9032abD19c2c37d1EdfE574cF75f5C792e6F0"
      },
      {
        "passId": "200",
        "signer": "0xa69f172C3197580923De66ee6a942b82cEd09121"
      },
      {
        "passId": "201",
        "signer": "0xF7D3CD80d66752169d6D40b18F8DDAE8FDB29EC6"
      },
      {
        "passId": "202",
        "signer": "0xA371690D6c218D1eeE4Dc54fc7Ad8c3Dbd3E88e8"
      },
      {
        "passId": "203",
        "signer": "0x6242bCE9BBE959851baAbC62059BA29fefb5692c"
      },
      {
        "passId": "204",
        "signer": "0xaFBaddf9b8432dF43a34b4b87f2D22424fFF0Fd4"
      },
      {
        "passId": "205",
        "signer": "0x95ed373f2810a34BbF65B2cBd97bAea1f52B0E3f"
      },
      {
        "passId": "206",
        "signer": "0xB7DAB386e44D10D07d09585cC386219aa629c7CC"
      },
      {
        "passId": "207",
        "signer": "0xFbBe00C87a121B078FFEc449D3c0b5aFbD2809b8"
      },
      {
        "passId": "208",
        "signer": "0x2215309f6598F9Cd9bE83A03213424950F62FF32"
      },
      {
        "passId": "209",
        "signer": "0x888564788ce6870c1f23ce3c85380484f06436e0"
      },
      {
        "passId": "210",
        "signer": "0xD023Ffe7d18493A4575B09Fb60c270b04965E1F3"
      },
      {
        "passId": "211",
        "signer": "0xb7A52a9697D4374E580d7A0453593275220242eb"
      },
      {
        "passId": "212",
        "signer": "0x39B27d9bca4568514B0cB66e423b66771436eA7C"
      },
      {
        "passId": "213",
        "signer": "0x4b4642eD249E78b853c4818B226dCe307fA50b86"
      },
      {
        "passId": "214",
        "signer": "0xe6179a199de6c8Fe692A5A1BBAfEF21DE1B98681"
      },
      {
        "passId": "215",
        "signer": "0x18C4f317d93469Fb3cdBbc84e6f65123f28f3B67"
      },
      {
        "passId": "216",
        "signer": "0x10b4AA99aFc7d7728E2D431DB0652dE0f31dE0C9"
      },
      {
        "passId": "217",
        "signer": "0xc14C5563F8037AA0AA6F1D33A4b091A8b627040B"
      },
      {
        "passId": "218",
        "signer": "0x98Cb3a57580f791922e18f74aE5E6A644F72cA26"
      },
      {
        "passId": "219",
        "signer": "0x3601A510154eF12268F81F9b8eC6F9e69535Daf9"
      },
      {
        "passId": "220",
        "signer": "0xfC147dAC527032125e96B5D8638806c3CA2460E2"
      },
      {
        "passId": "221",
        "signer": "0x8BF33C4a8ddEDd3A35694faa89E6B0ef188Dd025"
      },
      {
        "passId": "222",
        "signer": "0xa509e723D5114BE2738e5715D5F5360C6F26840d"
      },
      {
        "passId": "223",
        "signer": "0x9Aaf17A2b065CcFBc49108a7E802BeA94836CD05"
      },
      {
        "passId": "224",
        "signer": "0x75BDEF4bA5057dce9630177D2A0bdC4833ecfa96"
      },
      {
        "passId": "225",
        "signer": "0xf4a3BD0133f7c51d606eA7A2929d445f6cf37927"
      },
      {
        "passId": "226",
        "signer": "0x71a73E3128F49879D514cA1CCff254cb5165fc76"
      },
      {
        "passId": "227",
        "signer": "0x119782d339D588A3F908fa78b362897FA1CCaD5b"
      },
      {
        "passId": "228",
        "signer": "0x1b7394dF69F1d916738a656003b3e1A5112f46EB"
      },
      {
        "passId": "229",
        "signer": "0xFb6EE827d6f6841E49fcE6f69013E93F6A0Fc6cd"
      },
      {
        "passId": "230",
        "signer": "0x21E9beb5f1170B1821039914a7da8DADcE8C8C64"
      },
      {
        "passId": "231",
        "signer": "0x5C5f7225D0eA5d6BE4E2fa266e1Dd4ce904e1d9E"
      },
      {
        "passId": "232",
        "signer": "0x345cE83d3aB9738e60D6E2D7C0c4E17BCAf90bCC"
      },
      {
        "passId": "233",
        "signer": "0x94Fb54Da36aE2EBd38268D8c0794a696677BC30C"
      },
      {
        "passId": "234",
        "signer": "0x6Ae2c3E4F5dA9E8BfABD28D24Fe5Ec5E948e1d8c"
      },
      {
        "passId": "235",
        "signer": "0xdf39F4d145A36a43009809058E6513c47362c41B"
      },
      {
        "passId": "236",
        "signer": "0x66B73655Ec15f93Bd48b6Be4E248A0A031184892"
      },
      {
        "passId": "237",
        "signer": "0x6e8421d552A10657fB90158FcfBa7E3C252CCb29"
      },
      {
        "passId": "238",
        "signer": "0x91fC2A6806ED8c0e0EBA1bEC96c6E61f712250Ba"
      },
      {
        "passId": "239",
        "signer": "0x18f4aA48885563975340264CE32b892a946D1597"
      },
      {
        "passId": "240",
        "signer": "0x1CDa4F0f27BD37e5C2D28fafC2784383C8E74F51"
      },
      {
        "passId": "241",
        "signer": "0x5D9DAfadCeE427d15f2D0402f7eA63da3039AAED"
      },
      {
        "passId": "242",
        "signer": "0x77631a146F1515445Dab1b551F6c2D26cB89d114"
      },
      {
        "passId": "243",
        "signer": "0x409A1A32678B16Ec971412C9185D8c1Ea53F3d55"
      },
      {
        "passId": "244",
        "signer": "0x90df8cCfe73F2dbFE58AB27656DD77eb08dd9172"
      },
      {
        "passId": "245",
        "signer": "0x949C1B639DBD3Be643B3CCd97d17B5a8dB1D624B"
      },
      {
        "passId": "246",
        "signer": "0xF589ab79e7D23E6050280ab4611baf2B98e45234"
      },
      {
        "passId": "247",
        "signer": "0xD4C2648Df37F5c5aF2831570ba5768A21AE0B51a"
      },
      {
        "passId": "248",
        "signer": "0x878CC9F37Fb4636a7b036767555f4852AEe7dE09"
      },
      {
        "passId": "249",
        "signer": "0x2bB94d14262176923f7Ae645dB522aA2CEc93152"
      },
      {
        "passId": "250",
        "signer": "0x8200eaFefbA3c3D628a95d84989f133e5D8eE662"
      },
      {
        "passId": "251",
        "signer": "0xd9D875564Bd47Dc04687c86B1C5af60974D5f83F"
      },
      {
        "passId": "252",
        "signer": "0x94A0ad8F74083654aDE87C37C5628ab1b75f8780"
      },
      {
        "passId": "253",
        "signer": "0xA4c873C0Ab61c3467516Ecbb10AA98e405A36e3c"
      },
      {
        "passId": "254",
        "signer": "0xC9BABB0FC45C513c07532D4998e6522e7aAaf816"
      },
      {
        "passId": "255",
        "signer": "0x3b667f2c9c4aeA7292FBBc106Ed3DBfF6f054798"
      },
      {
        "passId": "256",
        "signer": "0x6285A909e2C2c05b475FdF1b857fb2c399eDacAd"
      },
      {
        "passId": "257",
        "signer": "0x4b9DA6203A2fC17207F248F658AD85d1DD4115BC"
      },
      {
        "passId": "258",
        "signer": "0x40E687A367E0ee6caC0b6009b51428333924B40a"
      },
      {
        "passId": "259",
        "signer": "0x8495F186E0FeE6c17e2Ab90A1CAF2D31dEFdD45C"
      },
      {
        "passId": "260",
        "signer": "0x97Be54667276A8A637bC773C6f1B659611D1522C"
      },
      {
        "passId": "261",
        "signer": "0x121f70E438f9d9c3FA23407d4771Aaa98Ce583E1"
      },
      {
        "passId": "262",
        "signer": "0x390F8f64E8105d50Bc4CF3Ff6ebaF0e0bb61d5BB"
      },
      {
        "passId": "263",
        "signer": "0x26648876aca052e3eDEeD308261bFF52c5b67669"
      },
      {
        "passId": "264",
        "signer": "0x62F17C0dc0F6F1BE286cC872F5A35783aEb36D7c"
      },
      {
        "passId": "265",
        "signer": "0x8D73b1a43114eFfb94e033769e55c56c180b0FD2"
      },
      {
        "passId": "266",
        "signer": "0x00Bfba5273e639d0cEE363c718deED281340f77C"
      },
      {
        "passId": "267",
        "signer": "0xD6D169fE4bF64081dCCD98bAFfC8fa90384BbF44"
      },
      {
        "passId": "268",
        "signer": "0x4600A97eA282e1816739D0D496E1b093AE51fF10"
      },
      {
        "passId": "269",
        "signer": "0x9A9c6e88c2f08337bD3C5371Db58d5FFa3b48f14"
      },
      {
        "passId": "270",
        "signer": "0x8caDFb7378A894B4c4cCc045D387480121Ee224d"
      },
      {
        "passId": "271",
        "signer": "0x6EA56e4A8Fb4f61b4bf2c29b2E47Aab1c4499a5A"
      },
      {
        "passId": "272",
        "signer": "0x5CcA38dd8959d306EAefD9B6EDf1db1f5cE763Da"
      },
      {
        "passId": "273",
        "signer": "0x2b738Ae182d95e74D0A7aF4699d3B2c24912380d"
      },
      {
        "passId": "274",
        "signer": "0x5e36AB581F3edBb89D0E2fCd88aF0260ED4ff4A3"
      },
      {
        "passId": "275",
        "signer": "0x8ADA85Fe81d0299685212389E3E3EF4F0E09a4Ff"
      },
      {
        "passId": "276",
        "signer": "0x0368aa045E1502b07Be530559ccA211d6e153d7d"
      },
      {
        "passId": "277",
        "signer": "0x198AD6Ca17505266d4753B0a1968c2d8Bd3A80e5"
      },
      {
        "passId": "278",
        "signer": "0x1A20ca38090a0B8D4A101b53d023311266E0e19e"
      },
      {
        "passId": "279",
        "signer": "0x03beA341704165C3636f33551C14C44151eb0aC4"
      },
      {
        "passId": "280",
        "signer": "0x6914D8a5FF6Fe77DeB8019dFb1a70255Bb4Bb815"
      },
      {
        "passId": "281",
        "signer": "0xb00c563D4b9250Fb10f7ccB7FF3ecFF7a76e73e8"
      },
      {
        "passId": "282",
        "signer": "0xAC85EE5Ee18aD4F9f2A83CccFA7F994c11496199"
      },
      {
        "passId": "283",
        "signer": "0x75A49F3D8329Dc42E1337786111a8F4133863D27"
      },
      {
        "passId": "284",
        "signer": "0xBd865aDbd76fBC2D9886da70a9417A4Ef7ed2C54"
      },
      {
        "passId": "285",
        "signer": "0x702d14Fcd2D4AA5cE667Ec386C48dA7527fB5848"
      },
      {
        "passId": "286",
        "signer": "0xBe83B5E6d24c7DB85c7faeDA87681C8aD693f6E8"
      },
      {
        "passId": "287",
        "signer": "0x4eE1273465C073690B1cFa16edA4DAd96B0c1862"
      },
      {
        "passId": "288",
        "signer": "0xd06244407fA5445aAc8D73f1682d2d50cB37aCb7"
      },
      {
        "passId": "289",
        "signer": "0xfe0C81BE1985b646A10aE8c7A6562234A7Ff02c4"
      },
      {
        "passId": "290",
        "signer": "0x2679728dF4cf13e598cE59D6F7949cEF89C77937"
      },
      {
        "passId": "291",
        "signer": "0x4e6A293820DF43f83a0B306393643DceDeb6a8E0"
      },
      {
        "passId": "292",
        "signer": "0xD902C1aE9558A2186db624B01C255f2d8Ed0C76D"
      },
      {
        "passId": "293",
        "signer": "0x90C3E4A36eB319fc6D951262321e7AFb0Ca5857E"
      },
      {
        "passId": "294",
        "signer": "0x36B9553D8B77A7B415786Ca77e3ef189FcA53855"
      },
      {
        "passId": "295",
        "signer": "0xB35765B333BE38b9a25722907F5534Cd8f4120dc"
      },
      {
        "passId": "296",
        "signer": "0xD020504309136183A7A22503a02cE0DD0Ff54F7B"
      },
      {
        "passId": "297",
        "signer": "0x1EdF6d236fbF81B3614ff2B1c794176e68Ff3e2B"
      },
      {
        "passId": "298",
        "signer": "0xad6D95eA4266150759fC184aB5411F31b69Ba1ab"
      },
      {
        "passId": "299",
        "signer": "0x9e5C3b1e9098dbAf170838B5CDA516853D8cefE6"
      },
      {
        "passId": "300",
        "signer": "0xc492180af84593440b35690688816f82db1A6B84"
      },
      {
        "passId": "301",
        "signer": "0xF4Db9eDcF0241280F0c4B2bfe2C9b261d95FEc96"
      },
      {
        "passId": "302",
        "signer": "0x8CfF43306bA11BFEd41c4DA562F5F2E5519960E9"
      },
      {
        "passId": "303",
        "signer": "0x3a214D1e4df4A867a9ac85e3abd178f9bFFA03aa"
      },
      {
        "passId": "304",
        "signer": "0x0da7C46F7c9F4087a2e1261Bbd5D18f0a8dAbbaB"
      },
      {
        "passId": "305",
        "signer": "0x000000000000000000000000000000000000dead"
      },
      {
        "passId": "306",
        "signer": "0x000001f568875f378bf6d170b790967fe429c81a"
      },
      {
        "passId": "307",
        "signer": "0x0078c86e12186e2de1ff6fef5f1ada2bffde4ea5"
      },
      {
        "passId": "308",
        "signer": "0x024f1f8b3789bfdf9edb47f58a0d7a3afeaea804"
      },
      {
        "passId": "309",
        "signer": "0x049808d5eaa90a2665b9703d2246dded34f1eb73"
      },
      {
        "passId": "310",
        "signer": "0x05e8074088797c1f9057febf374deee0bc38e894"
      },
      {
        "passId": "311",
        "signer": "0x05ea539365d91df315e8ddd736e90431696fe8c4"
      },
      {
        "passId": "312",
        "signer": "0x09280340849e66948149804cac539cc7227512be"
      },
      {
        "passId": "313",
        "signer": "0x0946bc5c2f9848665cc3811458de403d0a78ad8e"
      },
      {
        "passId": "314",
        "signer": "0x0985224a811e65c235dbf4a2c2117712aabe4e39"
      },
      {
        "passId": "315",
        "signer": "0x0d0aca99686fced8e6fb39134aaed96f09b5283c"
      },
      {
        "passId": "316",
        "signer": "0x0d94b6e4c2aa9383964986020b3534d34885f700"
      },
      {
        "passId": "317",
        "signer": "0x0dd544d0da95666d7c3d38460feb4b5f25eaa515"
      },
      {
        "passId": "318",
        "signer": "0x0ea59c05be4b7149aaed26be764b618ac0255643"
      },
      {
        "passId": "319",
        "signer": "0x10b28ee04853bdd30d1fd7b302fbe5691c144aa0"
      },
      {
        "passId": "320",
        "signer": "0x10f6c58b9dc9603cb24ee9a5220bb4a470781676"
      },
      {
        "passId": "321",
        "signer": "0x12579783fbe8c2645d7a634b238da748405975a2"
      },
      {
        "passId": "322",
        "signer": "0x136c65a3f31682fcf683906ddbf3c76db2633f99"
      },
      {
        "passId": "323",
        "signer": "0x139d9a36ff2b6bfb8558dfbc22486da48c77a396"
      },
      {
        "passId": "324",
        "signer": "0x13b3a50f3947476eda74fe191344524e2d2d28e5"
      },
      {
        "passId": "325",
        "signer": "0x13e46ccd194ca86212236543d2e7376b00bafa42"
      },
      {
        "passId": "326",
        "signer": "0x1423fcc74da82fa03d70fa1f7a122db1ba231783"
      },
      {
        "passId": "327",
        "signer": "0x1436dbffbdde71d16a2c4d23f9116c3158c4d984"
      },
      {
        "passId": "328",
        "signer": "0x1527fa3a0778d574adfe714b7e60c7b2a1bf7c29"
      },
      {
        "passId": "329",
        "signer": "0x1974341df4b113a4c16f3d3f106176dec0e4da67"
      },
      {
        "passId": "330",
        "signer": "0x19b2ba0892da19d09d59e300d11da9edf96654ae"
      },
      {
        "passId": "331",
        "signer": "0x1c062628943a930b805849b494719c7d23c77bd5"
      },
      {
        "passId": "332",
        "signer": "0x1ec9503bbdad721ef3ad485b4b14ce0671dc9925"
      },
      {
        "passId": "333",
        "signer": "0x21c5edc237e95049f92059af6a571fdb700f2b82"
      },
      {
        "passId": "334",
        "signer": "0x2224acd07fd9b269ab5200a9a3df8062624deefb"
      },
      {
        "passId": "335",
        "signer": "0x230eb64900d027dfe372786b3342bd6178ec37d1"
      },
      {
        "passId": "336",
        "signer": "0x273c25abd33eca095e228fde0f15e8f7ec4eb4d9"
      },
      {
        "passId": "337",
        "signer": "0x27d9b6692ec1fb802cc8ceef74270ca4b448076a"
      },
      {
        "passId": "338",
        "signer": "0x290420874bf65691b98b67d042c06bbc31f85f11"
      },
      {
        "passId": "339",
        "signer": "0x2993db31d165c33d848e44a1c26a805ba411d324"
      },
      {
        "passId": "340",
        "signer": "0x2d2c46d26c8fec693586e067c4fc2b2ddc2b4cb3"
      },
      {
        "passId": "341",
        "signer": "0x2d79097b9e4c4f41654b2c91c39fd2c97af00c76"
      },
      {
        "passId": "342",
        "signer": "0x2de2299db048a9e3b8d1934b8dae11b8041cc4fd"
      },
      {
        "passId": "343",
        "signer": "0x2e50783188e23742dd3168682e39381ff5fa9731"
      },
      {
        "passId": "344",
        "signer": "0x2e699391d1b3b8577557b4c0ef6a1d9e8a394f04"
      },
      {
        "passId": "345",
        "signer": "0x308bff328370fc4a9683ab9fcd79a21be6dc5ee4"
      },
      {
        "passId": "346",
        "signer": "0x342c6bfa287ce37b8b53eee0e5b6e6bcbea98c76"
      },
      {
        "passId": "347",
        "signer": "0x362f020fd4420c317e7a0722994ba8bc3380d0e8"
      },
      {
        "passId": "348",
        "signer": "0x3668a20653316a7dd85342f64a4c984d146cadfe"
      },
      {
        "passId": "349",
        "signer": "0x37b699d7eead58433d352d1c77b2db1391f11ce5"
      },
      {
        "passId": "350",
        "signer": "0x3ad353e2845b96fb1b58c1ca6cda46b870de8d6f"
      },
      {
        "passId": "351",
        "signer": "0x3d14410609731ec7924ea8b1f13de544bb46a9a6"
      },
      {
        "passId": "352",
        "signer": "0x4011d09a86d0aca8377a4a8bad691f1aceecd672"
      },
      {
        "passId": "353",
        "signer": "0x41a7276167b80da8815df5b0ddaba3be29984250"
      },
      {
        "passId": "354",
        "signer": "0x44dc2ec15b3483fc8590f6b396cea5f8f2fbf3bd"
      },
      {
        "passId": "355",
        "signer": "0x4530307f98208d3bd5b9631880bc7351770c8810"
      },
      {
        "passId": "356",
        "signer": "0x4a1d757699ab73dd4b48b15049b6f1479b2f3511"
      },
      {
        "passId": "357",
        "signer": "0x4b0bd713574e67a97b3ff8f647f329794a2cbb64"
      },
      {
        "passId": "358",
        "signer": "0x4d03a186b3c7d039ff9a212cd8e81dc34a670b35"
      },
      {
        "passId": "359",
        "signer": "0x4de4a829d42191007431d608775430f3ab072082"
      },
      {
        "passId": "360",
        "signer": "0x4e012d25472225f3385baa43ed64dfec5885c51d"
      },
      {
        "passId": "361",
        "signer": "0x4ffb72b66eba24521736924f87dfe10677d82286"
      },
      {
        "passId": "362",
        "signer": "0x50f27cdb650879a41fb07038bf2b818845c20e17"
      },
      {
        "passId": "363",
        "signer": "0x5285ac85a979b612f5c5320961311bba099670f0"
      },
      {
        "passId": "364",
        "signer": "0x530cf036ed4fa58f7301a9c788c9806624cefd19"
      },
      {
        "passId": "365",
        "signer": "0x5310a9b64847c1b927f823a4bc8836e93f09dc78"
      },
      {
        "passId": "366",
        "signer": "0x54463aae905082c678708bb6c25226eb8f38d5a6"
      },
      {
        "passId": "367",
        "signer": "0x562bf1b67dc40d9b7c3ddd49e45ae58e61e1b76e"
      },
      {
        "passId": "368",
        "signer": "0x568b491fb2b4b9440f6d05e7723df0060fdaef1c"
      },
      {
        "passId": "369",
        "signer": "0x5b158f897f5ace2afefaf7ace8ce0cdbbbc9168a"
      },
      {
        "passId": "370",
        "signer": "0x5ba02f4ff6af1d9d2af8774d10fd32eb57d4e2e6"
      },
      {
        "passId": "371",
        "signer": "0x5bd685375c21375165438ca7f3eae7ec4fade8c5"
      },
      {
        "passId": "372",
        "signer": "0x5d9e720a1c16b98ab897165803c4d96e8060b8e4"
      },
      {
        "passId": "373",
        "signer": "0x5e01d9928ea32d1d3ae2f3263b6ec6c165dc2d76"
      },
      {
        "passId": "374",
        "signer": "0x5ee42438d0d8fc399c94ef3543665e993e847b49"
      },
      {
        "passId": "375",
        "signer": "0x5f8e56d7f3642dd8783774460da2d3a7c54aacda"
      },
      {
        "passId": "376",
        "signer": "0x5fb8b9512684d451d4e585a1a0aabfb48a253c67"
      },
      {
        "passId": "377",
        "signer": "0x6186290b28d511bff971631c916244a9fc539cfe"
      },
      {
        "passId": "378",
        "signer": "0x62f099a34f01d57c67a100851184bea0d48b45f6"
      },
      {
        "passId": "379",
        "signer": "0x63244b5f1ebcb999ea012da652dffee6653bf8f5"
      },
      {
        "passId": "380",
        "signer": "0x64e00561fa9b1f2f2048b2d4f571279689dd9541"
      },
      {
        "passId": "381",
        "signer": "0x65565244e5700b85c90358468faf37c85db55099"
      },
      {
        "passId": "382",
        "signer": "0x6584b48ccebd9c3e4413a1dd4cdbc38b2500cdf3"
      },
      {
        "passId": "383",
        "signer": "0x65d88c64b01b9481352fa8a68b54ed1b3b687388"
      },
      {
        "passId": "384",
        "signer": "0x663d3947f03ef5b387992b880ac85940057c13e3"
      },
      {
        "passId": "385",
        "signer": "0x67c3097a968db89610825976ec9a5976a966c044"
      },
      {
        "passId": "386",
        "signer": "0x68016f094ebb7b55b04372af335455854b0e2eb6"
      },
      {
        "passId": "387",
        "signer": "0x6854dc5c9e3d3ce0b9dd7250d866908515465dc6"
      },
      {
        "passId": "388",
        "signer": "0x686e960ebd9aceb1771850444d4d3a7810a0dac9"
      },
      {
        "passId": "389",
        "signer": "0x6d7fd0438219c0f753a1ccf7c4885bb6cb260999"
      },
      {
        "passId": "390",
        "signer": "0x704c978d50590b21e4c2f43eb4da24fe61fcd707"
      },
      {
        "passId": "391",
        "signer": "0x73e60cd967e957bc6e074f93320ffa1d52697d5b"
      },
      {
        "passId": "392",
        "signer": "0x75331ebbe0b00b97cab532384f13c9b479f074ec"
      },
      {
        "passId": "393",
        "signer": "0x75ef2eff7b12f5f900ef5c787036deab18423d1a"
      },
      {
        "passId": "394",
        "signer": "0x78885686feec340ab544428f161e7d621f520e29"
      },
      {
        "passId": "395",
        "signer": "0x79bebfcb560141f22959c62bbd2930d5c7e35d30"
      },
      {
        "passId": "396",
        "signer": "0x79fd2f15e0ea8c27b5192259f9da63f4e562f021"
      },
      {
        "passId": "397",
        "signer": "0x7a824bea2bed9399a68cd0e340224809521c81d9"
      },
      {
        "passId": "398",
        "signer": "0x7d6a8ffcaf98cac58340329b3a91759888cb1363"
      },
      {
        "passId": "399",
        "signer": "0x7e7a55b11dd9a02b4da169620adfc36b930100fc"
      },
      {
        "passId": "400",
        "signer": "0x80d0d54050c15971b21e877d95441800f5aa9ee8"
      },
      {
        "passId": "401",
        "signer": "0x8177598e08ee8199c160a48c7a0af31ab54bb59f"
      },
      {
        "passId": "402",
        "signer": "0x82410609593d876761681580cf304c794bd58d09"
      },
      {
        "passId": "403",
        "signer": "0x826f63afd9517364cbebe91a859f10b102505a40"
      },
      {
        "passId": "404",
        "signer": "0x836ef81a58e5565b8d1d555ec8e9a5c2792511c6"
      },
      {
        "passId": "405",
        "signer": "0x83d3c179e7906e7f6755658c70e106f1ed3c5782"
      },
      {
        "passId": "406",
        "signer": "0x84eeb7db3f93feb5a8a98f56dabb970a6797c187"
      },
      {
        "passId": "407",
        "signer": "0x865c2f85c9fea1c6ac7f53de07554d68cb92ed88"
      },
      {
        "passId": "408",
        "signer": "0x8725be0bb6ea759d10fbb52fedecc7dcd6890072"
      },
      {
        "passId": "409",
        "signer": "0x87dfef3b445667292aac89078b51f0f75795805f"
      },
      {
        "passId": "410",
        "signer": "0x88906af7616f88f610d1e479325a5c5f93ba1e2c"
      },
      {
        "passId": "411",
        "signer": "0x8a53b8b59877df193c6dae7b8d1d38251af563cf"
      },
      {
        "passId": "412",
        "signer": "0x8b5e90aa714c967efc8c286f46ce0fc822e1cfb0"
      },
      {
        "passId": "413",
        "signer": "0x8c0c3c60118b24b31806eae82ab4186821bf23f1"
      },
      {
        "passId": "414",
        "signer": "0x8c2e67bd3d0f432ef75d9ae6623cd0dfbce66050"
      },
      {
        "passId": "415",
        "signer": "0x8dc9d43df20681cd62ca0acb24ae7ce2794f835d"
      },
      {
        "passId": "416",
        "signer": "0x8df55ecf2c261b44d079302dc95327fe32f74eed"
      },
      {
        "passId": "417",
        "signer": "0x8ebbf8f59b7b7849e359f7e1cc395df6741c24b9"
      },
      {
        "passId": "418",
        "signer": "0x92e7faa1c7b1cf703e3cda42183978f16fa15713"
      },
      {
        "passId": "419",
        "signer": "0x932a824a4d3d0680e0b352de150e6f212b8ac841"
      },
      {
        "passId": "420",
        "signer": "0x95a4350e1cb5e795d3ebe8bee63d9183de5449d1"
      },
      {
        "passId": "421",
        "signer": "0x96dc89dbe84970ee42a2f0b35fb50599e6745ff8"
      },
      {
        "passId": "422",
        "signer": "0x975ab68d4c15d6db02e101d5be03c5b49b9a3282"
      },
      {
        "passId": "423",
        "signer": "0x9de0b0402258a6a562331da7b3c13b29578789c4"
      },
      {
        "passId": "424",
        "signer": "0x9fc6d6c7326585fd3c2a743a1f505990d6e9df3f"
      },
      {
        "passId": "425",
        "signer": "0xa0863e36c30f4974a3a0e2cfc2802513cfaa22f1"
      },
      {
        "passId": "426",
        "signer": "0xa0a6dc36041fb386378458006fecbddd02555ddd"
      },
      {
        "passId": "427",
        "signer": "0xa0d71d516c6149c958c489ab24223c99f5df906f"
      },
      {
        "passId": "428",
        "signer": "0xa0f838d02983161ee469bff969964b7051ac1cd9"
      },
      {
        "passId": "429",
        "signer": "0xa596370bc21dee36872b98009dfbbf465dbfefa3"
      },
      {
        "passId": "430",
        "signer": "0xa5975974cac3fefd831e42bdd2fe84cb5ee3b3de"
      },
      {
        "passId": "431",
        "signer": "0xa6157b7bb7ec05e2b6feafd686797f9ea05411cc"
      },
      {
        "passId": "432",
        "signer": "0xa6f4fa9840aa6825446c820af6d5eccf9f78ba05"
      },
      {
        "passId": "433",
        "signer": "0xa77d9227eee861e01519548b6000acca8600eebe"
      },
      {
        "passId": "434",
        "signer": "0xa7d9f4fd84cdd4bee564adc1b18e3e8aa79d25f1"
      },
      {
        "passId": "435",
        "signer": "0xa88e4a192f3ff5e46dcc96efefb38dfec7bb250c"
      },
      {
        "passId": "436",
        "signer": "0xab2f02d8d409ee4f67fdda5aac5ca7a64a897271"
      },
      {
        "passId": "437",
        "signer": "0xac75cdc34283406b050cadf4ea5902a9310b138e"
      },
      {
        "passId": "438",
        "signer": "0xad9f9194c68bd83250a534a7da574687e1f102ff"
      },
      {
        "passId": "439",
        "signer": "0xae8ce6bb2b95684f57c097b407f4e9b55d9ca432"
      },
      {
        "passId": "440",
        "signer": "0xaee2f40fe0568bd859bc6a518c7ef3252fdc9bf0"
      },
      {
        "passId": "441",
        "signer": "0xaf5cb828389bd6413e7bcd00ed2dcf2bdc1a015a"
      },
      {
        "passId": "442",
        "signer": "0xaf8fbf59e221d27b55dc3adc2366f9230bcf5096"
      },
      {
        "passId": "443",
        "signer": "0xb29b1936c11b77cec6061a9daf765ee2666c8f77"
      },
      {
        "passId": "444",
        "signer": "0xb347b5b99c49ce6c555071a1f0498c81511ad977"
      },
      {
        "passId": "445",
        "signer": "0xb3522064694ac9870dbf00eebc2712762193bb64"
      },
      {
        "passId": "446",
        "signer": "0xb353268ce17d2c7f0f4f8aff152e548c43633df5"
      },
      {
        "passId": "447",
        "signer": "0xb66190f67ed8f0ca790ddfe541ee1bd0da53fe70"
      },
      {
        "passId": "448",
        "signer": "0xb7f9f538aa1b41ae2853eb63f1939187ffe70eb4"
      },
      {
        "passId": "449",
        "signer": "0xbb46c6e4d8a59520fbb11638c2d1228cc65f5a6c"
      },
      {
        "passId": "450",
        "signer": "0xbc10a3ae909b1b94f4c3e39607ad19d386dce32a"
      },
      {
        "passId": "451",
        "signer": "0xbd12aa424c207e90b66402c1f0aec357e8b1ded7"
      },
      {
        "passId": "452",
        "signer": "0xbe5be517537e53f09e88bcdf61da238477dca226"
      },
      {
        "passId": "453",
        "signer": "0xbeeef66749b64afe43bbc9475635eb510cfe4922"
      },
      {
        "passId": "454",
        "signer": "0xbf1ed1ea654ad49472daedc21a31c8d28e6bb790"
      },
      {
        "passId": "455",
        "signer": "0xbfdb50dc66c8df9fd9688d8fe5a0c34126427645"
      },
      {
        "passId": "456",
        "signer": "0xc09d3402515676b81a2f768c365146ea3faa5605"
      },
      {
        "passId": "457",
        "signer": "0xc0e5e14bdecd9ed6954a9e14c74e97cebd91bb94"
      },
      {
        "passId": "458",
        "signer": "0xc169699a825066f2f07e0b29c4082094b32a3f3e"
      },
      {
        "passId": "459",
        "signer": "0xc3a67c1437353bdc9c53060235a34018711de0cf"
      },
      {
        "passId": "460",
        "signer": "0xc42c694d0215b27bce1a871a4a2ad38cf0120a82"
      },
      {
        "passId": "461",
        "signer": "0xc555347d2b369b074be94fe6f7ae9ab43966b884"
      },
      {
        "passId": "462",
        "signer": "0xc665a60f22dda926b920deb8ffac0ef9d8a17460"
      },
      {
        "passId": "463",
        "signer": "0xc8286a9bf1f9bf8f3006fa014915c78b7e75111c"
      },
      {
        "passId": "464",
        "signer": "0xc8bace82793074fad3337424bdb84e306b2f8a44"
      },
      {
        "passId": "465",
        "signer": "0xc9a009bed9ed8a32499e18c20f7cd12132c8d6cb"
      },
      {
        "passId": "466",
        "signer": "0xca11d10ceb098f597a0cab28117fc3465991a63c"
      },
      {
        "passId": "467",
        "signer": "0xcbd2f544073eb35b59a8eb19194a222a5361cd74"
      },
      {
        "passId": "468",
        "signer": "0xcda685c8444f659ac3fe778f8d143aabdf1a21ab"
      },
      {
        "passId": "469",
        "signer": "0xcea78aaa93e917fb5e1802901db2b20aa4411b44"
      },
      {
        "passId": "470",
        "signer": "0xcef871b113d2bb5d3fa5dc96d2d288dd38082aae"
      },
      {
        "passId": "471",
        "signer": "0xcf680fb77c12e2aa2dec82f3ae0c0e527f549fe2"
      },
      {
        "passId": "472",
        "signer": "0xd1eddfcc4596cc8bd0bd7495beab9b979fc50336"
      },
      {
        "passId": "473",
        "signer": "0xd286064cc27514b914bab0f2fad2e1a89a91f314"
      },
      {
        "passId": "474",
        "signer": "0xd3e64b9dea13e4840a0da20965bd0ca37d05a12a"
      },
      {
        "passId": "475",
        "signer": "0xd651e2c626ee210fc38676124d5007ac822ad749"
      },
      {
        "passId": "476",
        "signer": "0xd657860fc512ec2250a7385a353f599e3276fddb"
      },
      {
        "passId": "477",
        "signer": "0xd6e02c13a6cc133c9d019495414667ea7bee05cc"
      },
      {
        "passId": "478",
        "signer": "0xdc190d7cea8e8bf0b381617062200c10cfff0a91"
      },
      {
        "passId": "479",
        "signer": "0xdd6c81d6d587e2d49eaadffb4ce380564046002a"
      },
      {
        "passId": "480",
        "signer": "0xddb92a96054132801cae3943b2f966fc2c308ac8"
      },
      {
        "passId": "481",
        "signer": "0xdde3ca351d85a4b4cc6aff8d42c0840959859053"
      },
      {
        "passId": "482",
        "signer": "0xe120ed22a0cd12d5de6122aa7d5b6d93ac218b49"
      },
      {
        "passId": "483",
        "signer": "0xe20adb03a470b5573bf572dd918e052d0d17866e"
      },
      {
        "passId": "484",
        "signer": "0xe363c2fba75cbd27487b17430e1efbdd2add374e"
      },
      {
        "passId": "485",
        "signer": "0xe5a3d77d7788a83f3549dd7f08fc2aced7e262d2"
      },
      {
        "passId": "486",
        "signer": "0xe66e1e9e37e4e148b21eb22001431818e980d060"
      },
      {
        "passId": "487",
        "signer": "0xe7bd51dc30d4bdc9fddd42ea7c0a283590c9d416"
      },
      {
        "passId": "488",
        "signer": "0xeb42cd8a1fe1ff556960a9a03ca29aa13f8aa838"
      },
      {
        "passId": "489",
        "signer": "0xed0f30677c760ea8f0bff70c76eafc79d5f7c3c8"
      },
      {
        "passId": "490",
        "signer": "0xeddd55a234240042695d7430bf0a09b9038a26ad"
      },
      {
        "passId": "491",
        "signer": "0xee4d308cc1cde3dd0adcb5a2c85edff22db64918"
      },
      {
        "passId": "492",
        "signer": "0xee9439a12a7c2a9b6600ca8a498620580d2f116e"
      },
      {
        "passId": "493",
        "signer": "0xeeaf61935c0c48f8f8cc28c381683d7fa2f75e1c"
      },
      {
        "passId": "494",
        "signer": "0xef1271ae97bc1a1b356ab697e9ed0d1d4e05fcda"
      },
      {
        "passId": "495",
        "signer": "0xf19bc58f747d6ea11959bf2a0fa81e53285546ac"
      },
      {
        "passId": "496",
        "signer": "0xf1e1c701b49b1dc2405a9e8ef40f9f88802b80fa"
      },
      {
        "passId": "497",
        "signer": "0xf2b15320db6992ba49a7563e50e888c20edcbe3c"
      },
      {
        "passId": "498",
        "signer": "0xf341c3abb49feb96b4822e68227b54c6fb9f6318"
      },
      {
        "passId": "499",
        "signer": "0xf3493f6812b1f22b40f8539db2510e13ac251f96"
      },
      {
        "passId": "500",
        "signer": "0xf3b1b6e83be4d55695f1d30ac3d307d9d5ca98ff"
      },
      {
        "passId": "501",
        "signer": "0xf464d1a37d8ef9449722f44a4eeb715c0e0acdb3"
      },
      {
        "passId": "502",
        "signer": "0xf6910d47fbb1f5518d60c721d4189936ecd5a1b6"
      },
      {
        "passId": "503",
        "signer": "0xf73c935815908ad9a056fc50269f95d8ba032e9d"
      },
      {
        "passId": "504",
        "signer": "0xf78cd306b23031de9e739a5bcde61764e82ad5ef"
      },
      {
        "passId": "505",
        "signer": "0xf942040710bedf7220beb24b220631c2255e87f1"
      },
      {
        "passId": "506",
        "signer": "0xf943e1d2db38db468f66a79b08ec23f8c4375ce3"
      },
      {
        "passId": "507",
        "signer": "0xfa46dedf812c5803b1e2cea10eef3f27dafeca56"
      },
      {
        "passId": "508",
        "signer": "0xfa9f104f338846b38b083c9e567ff6bbe43ab5f7"
      },
      {
        "passId": "509",
        "signer": "0xfd12799b9fb97dc61d9ad7ad4ffba5624004bc62"
      },
      {
        "passId": "510",
        "signer": "0xfe1e7dc61721f34a25c9eb4dc1a1a8f352c923ef"
      },
      {
        "passId": "511",
        "signer": "0xfffff6e70842330948ca47254f2be673b1cb0db7"
      }
    ]
  },
  "solcInputHash": "5a48e5b1f0f3a25ed0bc54ca83d3b3de",
  "bytecode": "0x6101806040523480156200001257600080fd5b5060405162001f9138038062001f91833981016040819052620000359162000087565b6001600160a01b0397881660805291871660a05290951660c05260e094909452610100929092526101205261014052610160526200010d565b6001600160a01b03811681146200008457600080fd5b50565b600080600080600080600080610100898b031215620000a557600080fd5b8851620000b2816200006e565b809850506020890151965060408901519550606089015194506080890151935060a0890151620000e2816200006e565b60c08a0151909350620000f5816200006e565b8092505060e089015190509295985092959890939650565b60805160a05160c05160e05161010051610120516101405161016051611da7620001ea6000396000818161049d015281816109590152610d2c0152600081816101890152818161047c015281816104fc0152818161077e015281816109360152610e5301526000818161045b015281816109130152610e7b01526000818161043a015281816108f00152610ea10152600081816104be0152818161097c01528181610ec70152610f03015260006110fc0152600081816109cd0152610ffa01526000818161082101528181610b9e01526110930152611da76000f3fe6080604052600436106100705760003560e01c8063990b0f601161004e578063990b0f60146100f15780639c20551314610121578063d10bca8b14610134578063e31b3a681461016757600080fd5b80632558e933146100755780636d048d531461008a5780637361a72e146100de575b600080fd5b6100886100833660046117d0565b610187565b005b34801561009657600080fd5b506100aa6100a53660046118d2565b61042f565b6040805196875260208701959095529385019290925260608401526080830152151560a082015260c0015b60405180910390f35b6100886100ec3660046118f6565b6104fa565b3480156100fd57600080fd5b5061011161010c366004611960565b610730565b60405190151581526020016100d5565b61008861012f366004611979565b61077c565b34801561014057600080fd5b5061015461014f3660046119b0565b610814565b6040516100d59796959493929190611a38565b34801561017357600080fd5b50610088610182366004611979565b6109b5565b7f000000000000000000000000000000000000000000000000000000000000000042101561041e57610200831061021f576040517f08c379a000000000000000000000000000000000000000000000000000000000815260206004820152600f60248201527f494e56414c49445f504153535f4944000000000000000000000000000000000060448201526064015b60405180910390fd5b60ff8311156102b557600061023661010085611aec565b60018054911b91508116156102a7576040517f08c379a000000000000000000000000000000000000000000000000000000000815260206004820152601160248201527f504153535f414c52454144595f555345440000000000000000000000000000006044820152606401610216565b600180549091179055610330565b6000546001841b90811615610326576040517f08c379a000000000000000000000000000000000000000000000000000000000815260206004820152601160248201527f504153535f414c52454144595f555345440000000000000000000000000000006044820152606401610216565b6000805490911790555b600061039b83858760405160200161037792919091825260601b7fffffffffffffffffffffffffffffffffffffffff00000000000000000000000016602082015260340190565b60405160208183030381529060405280519060200120610bff90919063ffffffff16565b905060006103a98583610c23565b90506103b58382610c84565b61041b576040517f08c379a000000000000000000000000000000000000000000000000000000000815260206004820152600d60248201527f494e56414c49445f50524f4f46000000000000000000000000000000000000006044820152606401610216565b50505b6104288585610d51565b5050505050565b6000806000806000807f00000000000000000000000000000000000000000000000000000000000000007f00000000000000000000000000000000000000000000000000000000000000007f00000000000000000000000000000000000000000000000000000000000000007f00000000000000000000000000000000000000000000000000000000000000007f00000000000000000000000000000000000000000000000000000000000000006104e68c6110f5565b949c939b5091995097509550909350915050565b7f000000000000000000000000000000000000000000000000000000000000000042101561072057610200821061058d576040517f08c379a000000000000000000000000000000000000000000000000000000000815260206004820152600f60248201527f494e56414c49445f504153535f494400000000000000000000000000000000006044820152606401610216565b60ff8211156106235760006105a461010084611aec565b60018054911b9150811615610615576040517f08c379a000000000000000000000000000000000000000000000000000000000815260206004820152601160248201527f504153535f414c52454144595f555345440000000000000000000000000000006044820152606401610216565b60018054909117905561069e565b6000546001831b90811615610694576040517f08c379a000000000000000000000000000000000000000000000000000000000815260206004820152601160248201527f504153535f414c52454144595f555345440000000000000000000000000000006044820152606401610216565b6000805490911790555b3360006106ab8483610c23565b90506106b78382610c84565b61071d576040517f08c379a000000000000000000000000000000000000000000000000000000000815260206004820152600d60248201527f494e56414c49445f50524f4f46000000000000000000000000000000000000006044820152606401610216565b50505b61072a8484610d51565b50505050565b60006101ff82111561074457506000919050565b60ff82111561076c57600061075b61010084611aec565b60018054911b908116149392505050565b50600054600190911b9081161490565b7f0000000000000000000000000000000000000000000000000000000000000000421015610806576040517f08c379a000000000000000000000000000000000000000000000000000000000815260206004820152601460248201527f524551554952455f504153535f4f525f574149540000000000000000000000006044820152606401610216565b6108108282610d51565b5050565b60606000806000806000807f000000000000000000000000000000000000000000000000000000000000000073ffffffffffffffffffffffffffffffffffffffff1663a0554c268a8a6040518363ffffffff1660e01b815260040161087a929190611b03565b60006040518083038186803b15801561089257600080fd5b505afa1580156108a6573d6000803e3d6000fd5b505050506040513d6000823e601f3d9081017fffffffffffffffffffffffffffffffffffffffffffffffffffffffffffffffe01682016040526108ec9190810190611b58565b96507f000000000000000000000000000000000000000000000000000000000000000095507f000000000000000000000000000000000000000000000000000000000000000094507f000000000000000000000000000000000000000000000000000000000000000093507f000000000000000000000000000000000000000000000000000000000000000092507f000000000000000000000000000000000000000000000000000000000000000091506109a68a6110f5565b90509397509397509397909450565b3373ffffffffffffffffffffffffffffffffffffffff7f00000000000000000000000000000000000000000000000000000000000000001614610a54576040517f08c379a000000000000000000000000000000000000000000000000000000000815260206004820152600e60248201527f4e4f545f415554484f52495a45440000000000000000000000000000000000006044820152606401610216565b6102408261ffff1610610ac3576040517f08c379a000000000000000000000000000000000000000000000000000000000815260206004820152600d60248201527f494e56414c49445f534f554e44000000000000000000000000000000000000006044820152606401610216565b6000610ad860106103ff600686901c16611c21565b90508060061480610ae95750806008145b610b4f576040517f08c379a000000000000000000000000000000000000000000000000000000000815260206004820152600860248201527f666f722073616c650000000000000000000000000000000000000000000000006044820152606401610216565b6040517f9c20551300000000000000000000000000000000000000000000000000000000815261ffff8416600482015273ffffffffffffffffffffffffffffffffffffffff83811660248301527f00000000000000000000000000000000000000000000000000000000000000001690639c20551390604401600060405180830381600087803b158015610be257600080fd5b505af1158015610bf6573d6000803e3d6000fd5b50505050505050565b6000806000610c0e858561125e565b91509150610c1b816112ce565b509392505050565b60008282604051602001610c6692919091825260601b7fffffffffffffffffffffffffffffffffffffffff00000000000000000000000016602082015260340190565b60405160208183030381529060405280519060200120905092915050565b6000805b8351811015610d28576000848281518110610ca557610ca5611c35565b6020026020010151905080841015610ce8576040805160208101869052908101829052606001604051602081830303815290604052805190602001209350610d15565b60408051602081018390529081018590526060016040516020818303038152906040528051906020012093505b5080610d2081611c64565b915050610c88565b50507f000000000000000000000000000000000000000000000000000000000000000014919050565b6102408261ffff1610610dc0576040517f08c379a000000000000000000000000000000000000000000000000000000000815260206004820152600d60248201527f494e56414c49445f534f554e44000000000000000000000000000000000000006044820152606401610216565b6000610dd560106103ff600686901c16611c21565b905080600614158015610de9575080600814155b610e4f576040517f08c379a000000000000000000000000000000000000000000000000000000000815260206004820152601960248201527f546865736520626c6565707320617265207265736572766564000000000000006044820152606401610216565b60007f0000000000000000000000000000000000000000000000000000000000000000421015610e9f577f0000000000000000000000000000000000000000000000000000000000000000610ec1565b7f00000000000000000000000000000000000000000000000000000000000000005b905060007f0000000000000000000000000000000000000000000000000000000000000000118015610ef75750610ef7336110f5565b15610f3f576064610f287f000000000000000000000000000000000000000000000000000000000000000083611c9d565b610f329190611cda565b610f3c9082611aec565b90505b80341015610fa9576040517f08c379a000000000000000000000000000000000000000000000000000000000815260206004820152600a60248201527f4e4f545f454e4f554748000000000000000000000000000000000000000000006044820152606401610216565b336108fc610fb78334611aec565b6040518115909202916000818181858888f19350505050158015610fdf573d6000803e3d6000fd5b5060405173ffffffffffffffffffffffffffffffffffffffff7f0000000000000000000000000000000000000000000000000000000000000000169082156108fc029083906000818181858888f19350505050158015611043573d6000803e3d6000fd5b506040517f9c20551300000000000000000000000000000000000000000000000000000000815261ffff8516600482015273ffffffffffffffffffffffffffffffffffffffff84811660248301527f00000000000000000000000000000000000000000000000000000000000000001690639c20551390604401600060405180830381600087803b1580156110d757600080fd5b505af11580156110eb573d6000803e3d6000fd5b5050505050505050565b60008060007f000000000000000000000000000000000000000000000000000000000000000073ffffffffffffffffffffffffffffffffffffffff168460405160240161115e919073ffffffffffffffffffffffffffffffffffffffff91909116815260200190565b604080517fffffffffffffffffffffffffffffffffffffffffffffffffffffffffffffffe08184030181529181526020820180517bffffffffffffffffffffffffffffffffffffffffffffffffffffffff167f70a0823100000000000000000000000000000000000000000000000000000000179052516111df9190611cee565b600060405180830381855afa9150503d806000811461121a576040519150601f19603f3d011682016040523d82523d6000602084013e61121f565b606091505b50915091506000828015611234575060008251115b61123f576000611253565b818060200190518101906112539190611d29565b151595945050505050565b6000808251604114156112955760208301516040840151606085015160001a6112898782858561152a565b945094505050506112c7565b8251604014156112bf57602083015160408401516112b4868383611642565b9350935050506112c7565b506000905060025b9250929050565b60008160048111156112e2576112e2611d42565b14156112eb5750565b60018160048111156112ff576112ff611d42565b1415611367576040517f08c379a000000000000000000000000000000000000000000000000000000000815260206004820152601860248201527f45434453413a20696e76616c6964207369676e617475726500000000000000006044820152606401610216565b600281600481111561137b5761137b611d42565b14156113e3576040517f08c379a000000000000000000000000000000000000000000000000000000000815260206004820152601f60248201527f45434453413a20696e76616c6964207369676e6174757265206c656e677468006044820152606401610216565b60038160048111156113f7576113f7611d42565b1415611485576040517f08c379a000000000000000000000000000000000000000000000000000000000815260206004820152602260248201527f45434453413a20696e76616c6964207369676e6174757265202773272076616c60448201527f75650000000000000000000000000000000000000000000000000000000000006064820152608401610216565b600481600481111561149957611499611d42565b1415611527576040517f08c379a000000000000000000000000000000000000000000000000000000000815260206004820152602260248201527f45434453413a20696e76616c6964207369676e6174757265202776272076616c60448201527f75650000000000000000000000000000000000000000000000000000000000006064820152608401610216565b50565b6000807f7fffffffffffffffffffffffffffffff5d576e7357a4501ddfe92f46681b20a08311156115615750600090506003611639565b8460ff16601b1415801561157957508460ff16601c14155b1561158a5750600090506004611639565b6040805160008082526020820180845289905260ff881692820192909252606081018690526080810185905260019060a0016020604051602081039080840390855afa1580156115de573d6000803e3d6000fd5b50506040517fffffffffffffffffffffffffffffffffffffffffffffffffffffffffffffffe0015191505073ffffffffffffffffffffffffffffffffffffffff811661163257600060019250925050611639565b9150600090505b94509492505050565b6000807f7fffffffffffffffffffffffffffffffffffffffffffffffffffffffffffffff831660ff84901c601b0161167c8782888561152a565b935093505050935093915050565b803561ffff8116811461169c57600080fd5b919050565b73ffffffffffffffffffffffffffffffffffffffff8116811461152757600080fd5b7f4e487b7100000000000000000000000000000000000000000000000000000000600052604160045260246000fd5b604051601f82017fffffffffffffffffffffffffffffffffffffffffffffffffffffffffffffffe016810167ffffffffffffffff81118282101715611739576117396116c3565b604052919050565b600067ffffffffffffffff82111561175b5761175b6116c3565b5060051b60200190565b600082601f83011261177657600080fd5b8135602061178b61178683611741565b6116f2565b82815260059290921b840181019181810190868411156117aa57600080fd5b8286015b848110156117c557803583529183019183016117ae565b509695505050505050565b600080600080600060a086880312156117e857600080fd5b6117f18661168a565b9450602080870135611802816116a1565b945060408701359350606087013567ffffffffffffffff8082111561182657600080fd5b818901915089601f83011261183a57600080fd5b81358181111561184c5761184c6116c3565b61187c847fffffffffffffffffffffffffffffffffffffffffffffffffffffffffffffffe0601f840116016116f2565b8181528b8583860101111561189057600080fd5b8185850186830137600091810190940152919350608088013591808311156118b757600080fd5b50506118c588828901611765565b9150509295509295909350565b6000602082840312156118e457600080fd5b81356118ef816116a1565b9392505050565b6000806000806080858703121561190c57600080fd5b6119158561168a565b93506020850135611925816116a1565b925060408501359150606085013567ffffffffffffffff81111561194857600080fd5b61195487828801611765565b91505092959194509250565b60006020828403121561197257600080fd5b5035919050565b6000806040838503121561198c57600080fd5b6119958361168a565b915060208301356119a5816116a1565b809150509250929050565b6000806000604084860312156119c557600080fd5b83356119d0816116a1565b9250602084013567ffffffffffffffff808211156119ed57600080fd5b818601915086601f830112611a0157600080fd5b813581811115611a1057600080fd5b8760208260051b8501011115611a2557600080fd5b6020830194508093505050509250925092565b60e08082528851908201819052600090602090610100840190828c01845b82811015611a8857815173ffffffffffffffffffffffffffffffffffffffff1684529284019290840190600101611a56565b505050908301989098525060408101959095526060850193909352608084019190915260a0830152151560c090910152919050565b7f4e487b7100000000000000000000000000000000000000000000000000000000600052601160045260246000fd5b600082821015611afe57611afe611abd565b500390565b6020815281602082015260007f07ffffffffffffffffffffffffffffffffffffffffffffffffffffffffffffff831115611b3c57600080fd5b8260051b80856040850137600092016040019182525092915050565b60006020808385031215611b6b57600080fd5b825167ffffffffffffffff811115611b8257600080fd5b8301601f81018513611b9357600080fd5b8051611ba161178682611741565b81815260059190911b82018301908381019087831115611bc057600080fd5b928401925b82841015611be7578351611bd8816116a1565b82529284019290840190611bc5565b979650505050505050565b7f4e487b7100000000000000000000000000000000000000000000000000000000600052601260045260246000fd5b600082611c3057611c30611bf2565b500690565b7f4e487b7100000000000000000000000000000000000000000000000000000000600052603260045260246000fd5b60007fffffffffffffffffffffffffffffffffffffffffffffffffffffffffffffffff821415611c9657611c96611abd565b5060010190565b6000817fffffffffffffffffffffffffffffffffffffffffffffffffffffffffffffffff0483118215151615611cd557611cd5611abd565b500290565b600082611ce957611ce9611bf2565b500490565b6000825160005b81811015611d0f5760208186018101518583015201611cf5565b81811115611d1e576000828501525b509190910192915050565b600060208284031215611d3b57600080fd5b5051919050565b7f4e487b7100000000000000000000000000000000000000000000000000000000600052602160045260246000fdfea264697066735822122066f7d18752475c84b45d7d77a9d44bbf9eff9978603e7534260e3dc9f89fe19f64736f6c63430008090033",
  "devdoc": {
    "kind": "dev",
    "methods": {},
    "version": 1
  },
  "userdoc": {
    "kind": "user",
    "methods": {},
    "version": 1
  },
  "storageLayout": {
    "storage": [
      {
        "astId": 9128,
        "contract": "src/bleeps/BleepsFixedPriceSale.sol:BleepsFixedPriceSale",
        "label": "_passUsed_1",
        "offset": 0,
        "slot": "0",
        "type": "t_uint256"
      },
      {
        "astId": 9130,
        "contract": "src/bleeps/BleepsFixedPriceSale.sol:BleepsFixedPriceSale",
        "label": "_passUsed_2",
        "offset": 0,
        "slot": "1",
        "type": "t_uint256"
      }
    ],
    "types": {
      "t_uint256": {
        "encoding": "inplace",
        "label": "uint256",
        "numberOfBytes": "32"
      }
    }
  }
}