{
  "address": "0x9b07F72E5F68FD9cfF03F3E0ed34Aaf4Ff8d7e4C",
  "abi": [
    {
      "inputs": [
        {
          "internalType": "contract Bleeps",
          "name": "bleeps",
          "type": "address"
        },
        {
          "internalType": "uint256",
          "name": "price",
          "type": "uint256"
        },
        {
          "internalType": "uint256",
          "name": "whitelistPrice",
          "type": "uint256"
        },
        {
          "internalType": "uint256",
          "name": "whitelistTimeLimit",
          "type": "uint256"
        },
        {
          "internalType": "bytes32",
          "name": "whitelistMerkleRoot",
          "type": "bytes32"
        },
        {
          "internalType": "address payable",
          "name": "recipient",
          "type": "address"
        },
        {
          "internalType": "contract IERC721",
          "name": "mandalas",
          "type": "address"
        },
        {
          "internalType": "uint256",
          "name": "mandalasDiscountPercentage",
          "type": "uint256"
        },
        {
          "internalType": "uint256",
          "name": "uptoInstr",
          "type": "uint256"
        }
      ],
      "stateMutability": "nonpayable",
      "type": "constructor"
    },
    {
      "inputs": [
        {
          "internalType": "uint256",
          "name": "id",
          "type": "uint256"
        }
      ],
      "name": "isOpenForSale",
      "outputs": [
        {
          "internalType": "bool",
          "name": "",
          "type": "bool"
        }
      ],
      "stateMutability": "nonpayable",
      "type": "function"
    },
    {
      "inputs": [
        {
          "internalType": "uint256",
          "name": "passId",
          "type": "uint256"
        }
      ],
      "name": "isPassUsed",
      "outputs": [
        {
          "internalType": "bool",
          "name": "",
          "type": "bool"
        }
      ],
      "stateMutability": "view",
      "type": "function"
    },
    {
      "inputs": [
        {
          "internalType": "uint256",
          "name": "id",
          "type": "uint256"
        }
      ],
      "name": "isReserved",
      "outputs": [
        {
          "internalType": "bool",
          "name": "",
          "type": "bool"
        }
      ],
      "stateMutability": "nonpayable",
      "type": "function"
    },
    {
      "inputs": [
        {
          "internalType": "uint16",
          "name": "id",
          "type": "uint16"
        },
        {
          "internalType": "address",
          "name": "to",
          "type": "address"
        }
      ],
      "name": "mint",
      "outputs": [],
      "stateMutability": "payable",
      "type": "function"
    },
    {
      "inputs": [
        {
          "internalType": "uint16",
          "name": "id",
          "type": "uint16"
        },
        {
          "internalType": "address",
          "name": "to",
          "type": "address"
        },
        {
          "internalType": "uint256",
          "name": "passId",
          "type": "uint256"
        },
        {
          "internalType": "bytes32[]",
          "name": "proof",
          "type": "bytes32[]"
        }
      ],
      "name": "mintWithPassId",
      "outputs": [],
      "stateMutability": "payable",
      "type": "function"
    },
    {
      "inputs": [
        {
          "internalType": "uint16",
          "name": "id",
          "type": "uint16"
        },
        {
          "internalType": "address",
          "name": "to",
          "type": "address"
        },
        {
          "internalType": "uint256",
          "name": "passId",
          "type": "uint256"
        },
        {
          "internalType": "bytes",
          "name": "signature",
          "type": "bytes"
        },
        {
          "internalType": "bytes32[]",
          "name": "proof",
          "type": "bytes32[]"
        }
      ],
      "name": "mintWithSalePass",
      "outputs": [],
      "stateMutability": "payable",
      "type": "function"
    },
    {
      "inputs": [
        {
          "internalType": "address",
          "name": "purchaser",
          "type": "address"
        },
        {
          "internalType": "uint256",
          "name": "passId",
          "type": "uint256"
        },
        {
          "internalType": "uint256[]",
          "name": "ids",
          "type": "uint256[]"
        }
      ],
      "name": "ownersAndPriceInfo",
      "outputs": [
        {
          "internalType": "address[]",
          "name": "addresses",
          "type": "address[]"
        },
        {
          "internalType": "uint256",
          "name": "price",
          "type": "uint256"
        },
        {
          "internalType": "uint256",
          "name": "whitelistPrice",
          "type": "uint256"
        },
        {
          "internalType": "uint256",
          "name": "whitelistTimeLimit",
          "type": "uint256"
        },
        {
          "internalType": "bytes32",
          "name": "whitelistMerkleRoot",
          "type": "bytes32"
        },
        {
          "internalType": "uint256",
          "name": "mandalasDiscountPercentage",
          "type": "uint256"
        },
        {
          "internalType": "bool",
          "name": "hasMandalas",
          "type": "bool"
        },
        {
          "internalType": "bool",
          "name": "passUsed",
          "type": "bool"
        },
        {
          "internalType": "uint256",
          "name": "uptoInstr",
          "type": "uint256"
        }
      ],
      "stateMutability": "view",
      "type": "function"
    },
    {
      "inputs": [
        {
          "internalType": "address",
          "name": "purchaser",
          "type": "address"
        }
      ],
      "name": "priceInfo",
      "outputs": [
        {
          "internalType": "uint256",
          "name": "price",
          "type": "uint256"
        },
        {
          "internalType": "uint256",
          "name": "whitelistPrice",
          "type": "uint256"
        },
        {
          "internalType": "uint256",
          "name": "whitelistTimeLimit",
          "type": "uint256"
        },
        {
          "internalType": "bytes32",
          "name": "whitelistMerkleRoot",
          "type": "bytes32"
        },
        {
          "internalType": "uint256",
          "name": "mandalasDiscountPercentage",
          "type": "uint256"
        },
        {
          "internalType": "bool",
          "name": "hasMandalas",
          "type": "bool"
        }
      ],
      "stateMutability": "view",
      "type": "function"
    },
    {
      "inputs": [
        {
          "internalType": "uint16",
          "name": "id",
          "type": "uint16"
        },
        {
          "internalType": "address",
          "name": "to",
          "type": "address"
        }
      ],
      "name": "recipientMint",
      "outputs": [],
      "stateMutability": "nonpayable",
      "type": "function"
    }
  ],
  "transactionHash": "0x85bc7e1d82677a0413879b56e22d866236a5c7b395d8d3530205d3143eb5475b",
  "args": [
    "0x9B5452669DDce553EE59ea77ED8328FCE83fa960",
    "100000000000000000",
    "100000000000000000",
    1637092431,
    "0x6dfde616f01980ebd4848b3ceb28e51f5f2332f44a7558621b007045abe10e58",
    "0xE53cd71271AcAdbeb0f64d9c8C62bBdDc8cA9e66",
    "0x434BADEA3943c5B3D86366Fa03c77201B6770A75",
    0,
    2
  ],
  "linkedData": {
    "leaves": [
      {
        "passId": "0",
        "signer": "0x974296674D428AdCFAf6726Dc5C834F0f16eaCc4"
      },
      {
        "passId": "1",
        "signer": "0x9d87E38798f8951523D98bBb9dc03d1D21DCF078"
      },
      {
        "passId": "2",
        "signer": "0x0BA7D41C2147CBA38691Abb523419880aBE67bd3"
      },
      {
        "passId": "3",
        "signer": "0xe2f25EB17e91F3F2D9B177356D28d227eAAD9290"
      },
      {
        "passId": "4",
        "signer": "0xC9E3a841795009dbFc1c5a3cF1F2A2ec4e971EFd"
      },
      {
        "passId": "5",
        "signer": "0x82d72eF5A2687A508DD91d9638B7Da87C98CFC08"
      },
      {
        "passId": "6",
        "signer": "0xb1fe22E6271f129F0D9F1006B2Ec126516dd9f90"
      },
      {
        "passId": "7",
        "signer": "0xA2D683F766f1C7129657C8e772294D90a4F2eC62"
      },
      {
        "passId": "8",
        "signer": "0x8ec042f2Ec2a05a4ade2acD82995Bf4EB2B6bD84"
      },
      {
        "passId": "9",
        "signer": "0x36cD22FbcbAc7998b1fe3C4059f303041736FA8C"
      },
      {
        "passId": "10",
        "signer": "0xE1805F6D8C2F0A028866125746727A5d49403f36"
      },
      {
        "passId": "11",
        "signer": "0x672d3Beee95e4238Da647635B0F658dDAD0e426c"
      },
      {
        "passId": "12",
        "signer": "0xdbE5Dc5fCC5cD453761EF9357283c442c6A5e9dE"
      },
      {
        "passId": "13",
        "signer": "0xfb8C3B1c0fEfcD5accb825E0da1B0a59d4112f4e"
      },
      {
        "passId": "14",
        "signer": "0xe4Dd52AE3E77C181266C383a08C6BbFFA10b0De5"
      },
      {
        "passId": "15",
        "signer": "0x6059Ca03CaF8E8f01fe46408227Ca6EA32d9c3BE"
      },
      {
        "passId": "16",
        "signer": "0x5Deb36c1b735164a0ADd628918603f7Fd10fBee7"
      },
      {
        "passId": "17",
        "signer": "0xfa8C6137AFDA8bb9548d5Ba4481fAd88Ab55b3BC"
      },
      {
        "passId": "18",
        "signer": "0x65028B617CA8584e91f73Dc00d4ade1B96b4620d"
      },
      {
        "passId": "19",
        "signer": "0xD44e0955cEA1e49fb968C078419aa1494f3E8D72"
      },
      {
        "passId": "20",
        "signer": "0xEEAfc510b0f19cAA09c9EF4f194DA4bF0faA633c"
      },
      {
        "passId": "21",
        "signer": "0xf39f08751F37F2ac792Bb4F6AB52F3e73289cB46"
      },
      {
        "passId": "22",
        "signer": "0xdAb2bad1b59Cbd25e556a48E2102e428Ad45d9E5"
      },
      {
        "passId": "23",
        "signer": "0x4583f88642D82CB7D7684Fbf9a408497A399B670"
      },
      {
        "passId": "24",
        "signer": "0x20173dE2c6c80Dc8F187a7D7c5c377c54e0b88FC"
      },
      {
        "passId": "25",
        "signer": "0x84FD14f615ae6753e78c5d530a6858Ed82587D42"
      },
      {
        "passId": "26",
        "signer": "0x78C558f79EE45E083a607c5c40b56aF0EDC7d816"
      },
      {
        "passId": "27",
        "signer": "0x4576802eC29A08FD423D0163e698Db90303cdF6b"
      },
      {
        "passId": "28",
        "signer": "0x6F8EA053d15D58299eA131Fe6475fE2E9e16C6F1"
      },
      {
        "passId": "29",
        "signer": "0x535bdB2FBbF2C3033a680A3E80D0ef414cEb6B27"
      },
      {
        "passId": "30",
        "signer": "0x54982a1426caE0FA4BefB27406a3D2C52E2Ef72b"
      },
      {
        "passId": "31",
        "signer": "0x213B64212a73a973D989A25cE64Bd2013316C959"
      },
      {
        "passId": "32",
        "signer": "0x30427076CF5Ae61fe34AeacE969d7f64F484dc7B"
      },
      {
        "passId": "33",
        "signer": "0x2190154E93560e972cAbf586074Cf2629750042D"
      },
      {
        "passId": "34",
        "signer": "0xc40923F3147e43D8b9562EC921dd14D2c351Dd2a"
      },
      {
        "passId": "35",
        "signer": "0x448450fD67E849df0d84017062352B0A1336ff7a"
      },
      {
        "passId": "36",
        "signer": "0x0B5F212de7c38081754B718C26A78766137004A8"
      },
      {
        "passId": "37",
        "signer": "0x510a0aC0c92f75Ac2bb17c00827fd1389A312B3A"
      },
      {
        "passId": "38",
        "signer": "0xA9C549270214D12e4026F83F320e188BdE443E36"
      },
      {
        "passId": "39",
        "signer": "0xdc58B9B037d358BA0e33F74c9BBc81288D2355F9"
      },
      {
        "passId": "40",
        "signer": "0x29e0CDbB3bd1E2Ac84b8aF8197b0bc61772E0e76"
      },
      {
        "passId": "41",
        "signer": "0xc491F5dc00a01AA0DD441e1D678C532A739629ED"
      },
      {
        "passId": "42",
        "signer": "0xfa1d8652D598474B9632713bA1AB548fc4485b41"
      },
      {
        "passId": "43",
        "signer": "0x7F2Ad0703F8A9093085e57fd3e5FB69692e49181"
      },
      {
        "passId": "44",
        "signer": "0x8A681f03e9d301BcBaC0A5a5df92cb569Da27659"
      },
      {
        "passId": "45",
        "signer": "0xCB6b46137a393C9E1496C731e93b9C47C31c9640"
      },
      {
        "passId": "46",
        "signer": "0xbdEE840B88A6AcbB709De72b3509ED14bf9B8a97"
      },
      {
        "passId": "47",
        "signer": "0xcE34e5544Ae4f19B51751c50f60814c94f22a00D"
      },
      {
        "passId": "48",
        "signer": "0x0B5536d7e2e3b590f4931F3aC9AD002A804EF516"
      },
      {
        "passId": "49",
        "signer": "0x7167a17a223B5B2652fEF2e509A08a7f44c8Ab31"
      },
      {
        "passId": "50",
        "signer": "0xDe66F241868c57AaCE3fBe283ca7d2c2B347f30F"
      },
      {
        "passId": "51",
        "signer": "0xbe3F94682B035e809a17712121248A71fB86C9ab"
      },
      {
        "passId": "52",
        "signer": "0x5471bf22cE97b4061A85d22715dD48b1A1577Cb6"
      },
      {
        "passId": "53",
        "signer": "0x91839D959389c5cfF74b616703cdB782FB9b7Ecb"
      },
      {
        "passId": "54",
        "signer": "0x35D64360F2dc8D703bbFF99cBCcBEdc6ab93ECee"
      },
      {
        "passId": "55",
        "signer": "0xd41Bf8D6edD731aB0450E16bA1567708156d59A9"
      },
      {
        "passId": "56",
        "signer": "0x93253b24c14D6e8edb738207EFE0B51fD91983E9"
      },
      {
        "passId": "57",
        "signer": "0x6D87E79Fc4750a9a91eFA6401eBDB200f98d1b7d"
      },
      {
        "passId": "58",
        "signer": "0x1AcD65343047D1fCa46F5457986e96cC27daFB93"
      },
      {
        "passId": "59",
        "signer": "0xFdB115B69A1aa6c89Eb5bd194A5f137178A94118"
      },
      {
        "passId": "60",
        "signer": "0xB7D0156dbea405518e256Be191d17F60ddd478D9"
      },
      {
        "passId": "61",
        "signer": "0xc08B3c74F2b1588c5a7E78Ba136f36d5b66A4F44"
      },
      {
        "passId": "62",
        "signer": "0x1D8F26b31aFa90573A667dF7B4bAcBF10f0dC2DD"
      },
      {
        "passId": "63",
        "signer": "0x67872c3A34a1DB563cbd40a867909157836ffd52"
      },
      {
        "passId": "64",
        "signer": "0x4abDf09f0cAE98f46E0f8aA373366Fc7576a936D"
      },
      {
        "passId": "65",
        "signer": "0xDc80Fd36290C62Baa78997B43eeD42566B7d121E"
      },
      {
        "passId": "66",
        "signer": "0xB9E49dFb55D0C5A3394A571EFE8fA91Eaadb6fdb"
      },
      {
        "passId": "67",
        "signer": "0x9741e8d6b1C1d9508Fb53Ffb935A4E251E8d4f8A"
      },
      {
        "passId": "68",
        "signer": "0xb5f03221b3df845a8E78FFA194DA19e15d4da467"
      },
      {
        "passId": "69",
        "signer": "0xAf10D5869a2991Dc442b2E91BbC52181a6768AE3"
      },
      {
        "passId": "70",
        "signer": "0x4c3160eEBFDc51BaEB059C58DC7AA8261Ee0601F"
      },
      {
        "passId": "71",
        "signer": "0xc53fB7d29F1d7f2d0a4d6bdD2cc5E6cbe06C0587"
      },
      {
        "passId": "72",
        "signer": "0x4B77bA04Fc7E67BEFFAb70D05063B41086305256"
      },
      {
        "passId": "73",
        "signer": "0x111d6227454C94BEA74D472dfC70BAaa8a20C900"
      },
      {
        "passId": "74",
        "signer": "0xefbC4F272C3fe445C87FA733929A0ab58e187123"
      },
      {
        "passId": "75",
        "signer": "0x3F3c814Fb2C4b65428A55050aa864F588a10d058"
      },
      {
        "passId": "76",
        "signer": "0x2912f4ba9a2F295ebEd9cDC1A5F788040eb3C270"
      },
      {
        "passId": "77",
        "signer": "0xD05B39dE2774e16CF01EbF777d30D8bF02787DAC"
      },
      {
        "passId": "78",
        "signer": "0x919110Bb01aB7B6ccaEA67FFdd961c6EF26FD8a6"
      },
      {
        "passId": "79",
        "signer": "0x068eeA41e36c02c29BB95C16f8B4B5744a7785b4"
      },
      {
        "passId": "80",
        "signer": "0xCdf9FD0fD8b43F2845884667FCB70E238E56806F"
      },
      {
        "passId": "81",
        "signer": "0x9F0dB806F07fAE86e4b599A1b57C9941b7f2404a"
      },
      {
        "passId": "82",
        "signer": "0xD7A38b30325988F53e8A414DB406bEd41aAebc9A"
      },
      {
        "passId": "83",
        "signer": "0xDcDd1D7D558F196cb8e38Fec1B00914F1b12bB42"
      },
      {
        "passId": "84",
        "signer": "0x403F202C80c564f83065Eb8926E59FE0D0B12399"
      },
      {
        "passId": "85",
        "signer": "0xF086B40c2b3856ebD3cb0395EF198dc4C7c5697F"
      },
      {
        "passId": "86",
        "signer": "0x3EB5d0fF745fCf44657D12Afc6E132D0932cc3c5"
      },
      {
        "passId": "87",
        "signer": "0xfb1299f8FAaa2D8A018d2308EB3Cd85C0aaA1176"
      },
      {
        "passId": "88",
        "signer": "0x9D1218E8e44015014B4233ddc5538075947D0940"
      },
      {
        "passId": "89",
        "signer": "0xF67FAfE7EDf57e578fa6dcF97DEC2d3B57120180"
      },
      {
        "passId": "90",
        "signer": "0x97BC377910A73fC0b95eD1Cf13C99C43118C89A6"
      },
      {
        "passId": "91",
        "signer": "0x6720754a758A971C349F1b8d41E9161Da32ad9ec"
      },
      {
        "passId": "92",
        "signer": "0x10964e53B1fCC6d7fD245501fbaC61b35c92837B"
      },
      {
        "passId": "93",
        "signer": "0x8FfC79264f1570DDF898F5dB5a36b72d3B89fc27"
      },
      {
        "passId": "94",
        "signer": "0x3Ff0071e443C77A1a129f4199a207FC662369D90"
      },
      {
        "passId": "95",
        "signer": "0xB24A10757229a0F60193Fa2224967Dee27121fe0"
      },
      {
        "passId": "96",
        "signer": "0x6458370dDa360FCbd0a58eB3208e073e083e9f3f"
      },
      {
        "passId": "97",
        "signer": "0x89B4ce80Ba476Cd6298a7200f83C5D4D8E9D650C"
      },
      {
        "passId": "98",
        "signer": "0x0C61b2A5027F9EA85ad3AaF9D2725C40B4F73409"
      },
      {
        "passId": "99",
        "signer": "0x4e1ceAF3dbeB3e3f262E7BD73F1EC0C27A88f02F"
      },
      {
        "passId": "100",
        "signer": "0x2d79524f4A5EE22379FebaF8B7D48052c08594C1"
      },
      {
        "passId": "101",
        "signer": "0x016D9eBF78B153678eA3656E06e147d90E65E78B"
      },
      {
        "passId": "102",
        "signer": "0x44AFd045e232230a72f2Bb90441EE8Ab10b45c33"
      },
      {
        "passId": "103",
        "signer": "0xAaA6cEAF076791a35a9eBB082701c19fd34d0e72"
      },
      {
        "passId": "104",
        "signer": "0xAEDF697C363dd77fF38F8093a79CEBCd05D1c324"
      },
      {
        "passId": "105",
        "signer": "0x0CC11d64C0438D028F6146C4af55539ca38A6221"
      },
      {
        "passId": "106",
        "signer": "0x370346fE996bf2b257eBe88cB24B30039B22e376"
      },
      {
        "passId": "107",
        "signer": "0x9B1a9fbEC0cecaa4212936e7cEFd994A2F2DF81f"
      },
      {
        "passId": "108",
        "signer": "0x1A0AE63F6C761Dc1a3265283842eB08214Ee3235"
      },
      {
        "passId": "109",
        "signer": "0xf16E2C0B333D042933D504740EF71d0f1b857bc7"
      },
      {
        "passId": "110",
        "signer": "0x33c0e2D8785D7c9ec08857601c9421ac531D6F9C"
      },
      {
        "passId": "111",
        "signer": "0x1C2A95f6abcA9dD52Ff32A34FE4629a536bd1AB4"
      },
      {
        "passId": "112",
        "signer": "0x999541bEf895645cFB4C2938eb35F98f99262fF9"
      },
      {
        "passId": "113",
        "signer": "0x83FABA8742F4E11d8b5f11fc9F549893A46728b9"
      },
      {
        "passId": "114",
        "signer": "0x0bbDDd734E36e886A1BD79D14c451085454F59B6"
      },
      {
        "passId": "115",
        "signer": "0x86DEc05e3f5AE169b6042ecc92D586241875c3E7"
      },
      {
        "passId": "116",
        "signer": "0x01EeB9A3A6e05E33D7c9213b99EF817f483136Fb"
      },
      {
        "passId": "117",
        "signer": "0xB5Db2F368bF4fAfb64f6cee091FdE9Ac6dC97E4F"
      },
      {
        "passId": "118",
        "signer": "0xfe188e29Fa8513667936666D3BF1f9b0FDa319d9"
      },
      {
        "passId": "119",
        "signer": "0x39E876a71Ac76ae8e47750b592aEA0F7c9236b8D"
      },
      {
        "passId": "120",
        "signer": "0xf0F60f713f6456A3d91f6e8BE7CD678Fb1fCeBD8"
      },
      {
        "passId": "121",
        "signer": "0x61F989135A8eD254436Fc377A0b8B9ee76Cf9379"
      },
      {
        "passId": "122",
        "signer": "0x32eC363Cb9fb507F1b57631034C35E1Fe9058868"
      },
      {
        "passId": "123",
        "signer": "0xac7C27202144DA97a007f2645087bdC74AB935f2"
      },
      {
        "passId": "124",
        "signer": "0xb95E41353888DF5804E28D1B411d90A4786248C8"
      },
      {
        "passId": "125",
        "signer": "0x4C13dC9fFF97f0229f89DAa107035D3f99415Cce"
      },
      {
        "passId": "126",
        "signer": "0x83BDdAFB45E750e37BE2C9C247Bf3b15aEF98e85"
      },
      {
        "passId": "127",
        "signer": "0x75830b3CA8E8F61E5FD246bD0772acd95F9d4D39"
      },
      {
        "passId": "128",
        "signer": "0xA451bDc6a08d5CBC81996162C655eFae7F9bab7f"
      },
      {
        "passId": "129",
        "signer": "0x693298d8481Cf6C5446217822AB9E519ba9f71E5"
      },
      {
        "passId": "130",
        "signer": "0x1Acce05ad6B49cDb82219F7be2945a8e7861FC09"
      },
      {
        "passId": "131",
        "signer": "0x168BD6060E84047EB9d96685649a382D24FfD238"
      },
      {
        "passId": "132",
        "signer": "0x0433F692a3ec00421c253E3995AAB49a9FC8e2c2"
      },
      {
        "passId": "133",
        "signer": "0xcC352Cee1EA9EB756d2843A6281DCf75cfE678f4"
      },
      {
        "passId": "134",
        "signer": "0x092756ac6E50d19042c2382a904daAC5510A972F"
      },
      {
        "passId": "135",
        "signer": "0x3cF3ee2172E06F7592983739978b9D59099D5341"
      },
      {
        "passId": "136",
        "signer": "0x58b844ac6e142d8115f94a32826b9ef5C4DDF311"
      },
      {
        "passId": "137",
        "signer": "0x2Cf5d0448Ed3a802ae5978Ce4D18ed30ac67B3A7"
      },
      {
        "passId": "138",
        "signer": "0x4c6ceC952A0ee7249250DA60Dd86Bf0FF3f07537"
      },
      {
        "passId": "139",
        "signer": "0x0e5Adb160473979fe262155cf0CA7c09e51357D3"
      },
      {
        "passId": "140",
        "signer": "0x526121974f6d895b33a26BCEf0A0a16163BF49f1"
      },
      {
        "passId": "141",
        "signer": "0x978A353f982BC98B1FfD95486Eb8285330306423"
      },
      {
        "passId": "142",
        "signer": "0xC7Eea84AB05786036c4eB1e74B5B7526Deb47595"
      },
      {
        "passId": "143",
        "signer": "0x154716259958e08f6711E9e838E19D5e2877977A"
      },
      {
        "passId": "144",
        "signer": "0x4749D6DB52983148cC4fe1ECc3Fb8f80e542daeB"
      },
      {
        "passId": "145",
        "signer": "0xef361fa9f856bad6EC15b88da4fba58099D7C521"
      },
      {
        "passId": "146",
        "signer": "0xCBc49f85570422FE889369E0D4ffa890f51F42cB"
      },
      {
        "passId": "147",
        "signer": "0x3A3f42042716D258e6d2670C61333c4b169Afc5B"
      },
      {
        "passId": "148",
        "signer": "0x67497Ae79e4514cA9E7B03D14628B1734097aa12"
      },
      {
        "passId": "149",
        "signer": "0x5d0e80381708bF6687A3e49f09bBaF6f1a69a69d"
      },
      {
        "passId": "150",
        "signer": "0xCa12acafcc1CDdb23A6CfccE60654c93e1151127"
      },
      {
        "passId": "151",
        "signer": "0xA72f1c766c07BE0553528792E3d0034b03F49d37"
      },
      {
        "passId": "152",
        "signer": "0xD3e9a701bE2DC4E1730FfA687b2a164911094eC2"
      },
      {
        "passId": "153",
        "signer": "0x73bA8e1A50Cb4eB37A6317cE85CC31034Cfa16F7"
      },
      {
        "passId": "154",
        "signer": "0x078adE0b3E037306E5a9879847908b6553D86Fe0"
      },
      {
        "passId": "155",
        "signer": "0xb39b67fD2844B4197B9FDe35Db24baB302b6B686"
      },
      {
        "passId": "156",
        "signer": "0x87f755D240CF774396153151EA696acf06683C3B"
      },
      {
        "passId": "157",
        "signer": "0x79b6E4D4323F24E07896B6d12e60ACd5296bD1b4"
      },
      {
        "passId": "158",
        "signer": "0xfCaCE8907fD73A8a038654d248C56EeADE6Eb4b2"
      },
      {
        "passId": "159",
        "signer": "0x7D84E3bA09DC89857FB0245C8b3130708A90a644"
      },
      {
        "passId": "160",
        "signer": "0x5Ca195601A2871eea1A76dE94F62523dA983904f"
      },
      {
        "passId": "161",
        "signer": "0xDcdC32b4eCbb7a142212372FCDAC43Eb63851054"
      },
      {
        "passId": "162",
        "signer": "0x55C92fE68236C782C8a8BF10c04208219848Fc95"
      },
      {
        "passId": "163",
        "signer": "0xB7C36624E404147B7eC24fd097e2c5a1615a2Beb"
      },
      {
        "passId": "164",
        "signer": "0xF9cfBe89A6F3b84E2a4Ea9a04b5Eb0Bf03a2f35e"
      },
      {
        "passId": "165",
        "signer": "0xcA9b610A476f9455Ce3a6b4A1938695BFcC35183"
      },
      {
        "passId": "166",
        "signer": "0x69B59dC12004b37f41a24A2B9857F03e14d55BaB"
      },
      {
        "passId": "167",
        "signer": "0xAc139d30DD34dcCc0F3CC2Bcd624d3B518f02457"
      },
      {
        "passId": "168",
        "signer": "0x948c69C51d7C854336ff7c645dc427E90eC18F45"
      },
      {
        "passId": "169",
        "signer": "0x0693781F54B9b0282dFa4109a4Ecb2706022FdF5"
      },
      {
        "passId": "170",
        "signer": "0x5e014B80BD3029CDade596A0c8e18d0eA57EbE0E"
      },
      {
        "passId": "171",
        "signer": "0xd61f2c49a331Cc343136C76717605588292Dbf65"
      },
      {
        "passId": "172",
        "signer": "0x045ed0a941a8e61a83D599C71eaBeE9e6Fa65475"
      },
      {
        "passId": "173",
        "signer": "0x6274D7c100c1A912c79C97987dF2a43ECcEdBD77"
      },
      {
        "passId": "174",
        "signer": "0x1d831422e6f214318bCe9D7D6F0456C2d4fE88ba"
      },
      {
        "passId": "175",
        "signer": "0x5a13c82c158A2459FcFFD5fc99f2AA709434275A"
      },
      {
        "passId": "176",
        "signer": "0x038Ff644FBD73e243cd1AbcdFae9E4cB6e88974c"
      },
      {
        "passId": "177",
        "signer": "0x4d79761E64eF3Cd0f2331b6D0EAe73128A036E37"
      },
      {
        "passId": "178",
        "signer": "0x6D11a5981e79F3294aaDC9956D19B605aa646007"
      },
      {
        "passId": "179",
        "signer": "0x12dC48AcdEf88a57F958Ae6045D92aeD24372a92"
      },
      {
        "passId": "180",
        "signer": "0x7dA8Aee7782bCFEC7d848d66F899F8e14933A15F"
      },
      {
        "passId": "181",
        "signer": "0xFAeE67703c86241f73681DcD91e5632AedCe4771"
      },
      {
        "passId": "182",
        "signer": "0xC29b094eA5E10B3426150EB93b718Ca48A02E955"
      },
      {
        "passId": "183",
        "signer": "0xf0bC5756399E3f3DB5fFb3a7d8CcEA124DCA1108"
      },
      {
        "passId": "184",
        "signer": "0x9A8eC4D5D6cF843653055433236d7220d13a180d"
      },
      {
        "passId": "185",
        "signer": "0xe215FfFD725e3FDA1B52e5B84200574eE8539a29"
      },
      {
        "passId": "186",
        "signer": "0xfeBBB0Efc237CECc89EDA564Df93504dF1a8a591"
      },
      {
        "passId": "187",
        "signer": "0xFB7d778e6c4fA7367125400d784e7920E0449090"
      },
      {
        "passId": "188",
        "signer": "0xF77344128b1b38856C1851211897dD3711FE8B5d"
      },
      {
        "passId": "189",
        "signer": "0x462Cb864D7edaAdB626A73D8966023dE05C7E679"
      },
      {
        "passId": "190",
        "signer": "0x115cB1A2A0Fb66A64F3a0a402219Ce20f7ec8dE5"
      },
      {
        "passId": "191",
        "signer": "0x0925c09E71d2452fE81D44Fe48B7326d55b5dD24"
      },
      {
        "passId": "192",
        "signer": "0x40E887D2a661aBb290A8c3BFf9ACDE0AC79277Bd"
      },
      {
        "passId": "193",
        "signer": "0x347B6daf026Ad1B120E921928F23987937b7Bd49"
      },
      {
        "passId": "194",
        "signer": "0xDBACC41F8F5aEca37E5447AacE8FEd3CF1a0B115"
      },
      {
        "passId": "195",
        "signer": "0x5feB2434c45d1157F991e79AA70464bdb33A5082"
      },
      {
        "passId": "196",
        "signer": "0x49621f5EC7b7EaB77a9Ef68AcC501eB65a174A16"
      },
      {
        "passId": "197",
        "signer": "0x9a491d7e88b75c95DcB901e931e28FBb8b409055"
      },
      {
        "passId": "198",
        "signer": "0xB771aaa0004504628aa0165AE50c5648475F1310"
      },
      {
        "passId": "199",
        "signer": "0x94AFFc807048c610FE53c4F0d1d23b1C5e1C9AB2"
      },
      {
        "passId": "200",
        "signer": "0x2fd089f8B5c91c3330FB160c4237452848A0917C"
      },
      {
        "passId": "201",
        "signer": "0xC657E94B622b6CC677910Db208ae68c1B21B61c4"
      },
      {
        "passId": "202",
        "signer": "0xEEC146280d625FF610889011e5BFBd6aaB9E360a"
      },
      {
        "passId": "203",
        "signer": "0x38b7248C7abc41989FFED84b27e64Bc4002Ab371"
      },
      {
        "passId": "204",
        "signer": "0x0ac65C74EafB86CE564B9a4de92faDFf085E4B96"
      },
      {
        "passId": "205",
        "signer": "0x2dae19F708a691d3eadC3Bb3244c7657292186b1"
      },
      {
        "passId": "206",
        "signer": "0xf6F0fE04215a9386B68d10907d7A00711b165e82"
      },
      {
        "passId": "207",
        "signer": "0x37842DCa0ca1B4D56927C1D9BED8C110808100Ba"
      },
      {
        "passId": "208",
        "signer": "0x08D88ea5a6Aa83182F2E6dbF9B1f3cc33560b666"
      },
      {
        "passId": "209",
        "signer": "0x4aaBd4c2dB553a7055fF0DD492cbff21360fCe5C"
      },
      {
        "passId": "210",
        "signer": "0x84B028134ea961742C470385AC876C62FaA55682"
      },
      {
        "passId": "211",
        "signer": "0xB101AD7f9ddCFd2F39B597fB5cCF6381580b9295"
      },
      {
        "passId": "212",
        "signer": "0xC0003EB896464bc3a8845599E375b30ED3b41731"
      },
      {
        "passId": "213",
        "signer": "0xD7aCcE78c94F4EC386Cc65675122610eEd329daD"
      },
      {
        "passId": "214",
        "signer": "0x71b448b022EAD210a519938e9F654d4B0de76396"
      },
      {
        "passId": "215",
        "signer": "0x51764d1C0D3217CE708919E4CfD48744427b4E7d"
      },
      {
        "passId": "216",
        "signer": "0x2A426BF8890bfC21fEf3A476E403E00BEf39DA70"
      },
      {
        "passId": "217",
        "signer": "0x1f1D271d3C908549fB7cf3FF0540C7AB0fCF2550"
      },
      {
        "passId": "218",
        "signer": "0x9ab3Ba3D8b12BE32d3b2df2a36030Af457EE5CD9"
      },
      {
        "passId": "219",
        "signer": "0x183C4727c5c2Cb3ce1c43096e2126a56ea5669B2"
      },
      {
        "passId": "220",
        "signer": "0x340fc081B697B636Efd881E04deBA25D2Ca6DB4d"
      },
      {
        "passId": "221",
        "signer": "0x87df636490DDfb9F5c0161dE6B6BAa37a812f5A6"
      },
      {
        "passId": "222",
        "signer": "0x707164abEcdd2e65Fb70E25E94b1f8C955abD35a"
      },
      {
        "passId": "223",
        "signer": "0x965D879a99d429EF0577ae01c2769D3B7AFC9fBb"
      },
      {
        "passId": "224",
        "signer": "0xF4b087bAD480E435bE34019e496e7586B8E2436c"
      },
      {
        "passId": "225",
        "signer": "0x5C89Ba91D8C6c03cBdFB48e43642B2607efda1c5"
      },
      {
        "passId": "226",
        "signer": "0x2a2819DdfEd6E44Ba44310c937A71492e6c1f5c0"
      },
      {
        "passId": "227",
        "signer": "0x008c94674936BDdb49bfd00087eebdDe380462Df"
      },
      {
        "passId": "228",
        "signer": "0xd3C3B6E49840bF14d27BBd4e2Cb5E16fbBb8D6fc"
      },
      {
        "passId": "229",
        "signer": "0xaDec8fDA49d6E81f04238B3e8Ae307FDa5d183d4"
      },
      {
        "passId": "230",
        "signer": "0xE01b5d3085bA1467bedAccdeD2728fCF95A17B95"
      },
      {
        "passId": "231",
        "signer": "0x2dDF8818711Ff0B241c7258a126Ee98f6af43E55"
      },
      {
        "passId": "232",
        "signer": "0x70b45D5A03B3938Aa61c733C69Ae25422db18881"
      },
      {
        "passId": "233",
        "signer": "0x2D76853CB403afc42dBAb30848AF90925806F589"
      },
      {
        "passId": "234",
        "signer": "0x485bF357561b5cE8E246C4623179D76F50A98B0F"
      },
      {
        "passId": "235",
        "signer": "0xF6eA1161e915332Cbe933282E15DC06B7868cDF5"
      },
      {
        "passId": "236",
        "signer": "0x8363EC05d907D6df151705c77257F7525b10f230"
      },
      {
        "passId": "237",
        "signer": "0x577f2a695D12E2A3929E3F6619E90360d8287495"
      },
      {
        "passId": "238",
        "signer": "0x1f7435040E76303aAf7864ECEbdBB36F8d9f4729"
      },
      {
        "passId": "239",
        "signer": "0xDa1Be059dCD68eB984ae1CEc1B40705C6E6A9236"
      },
      {
        "passId": "240",
        "signer": "0x268A693d0794B49B1fA5e1A9d2922F57A45fe550"
      },
      {
        "passId": "241",
        "signer": "0x7645261fb348567434ace7c459d1C4A4233171ef"
      },
      {
        "passId": "242",
        "signer": "0x5E8720d089D85684daB72258ceaA27E378447B76"
      },
      {
        "passId": "243",
        "signer": "0xbdE73A5858C9BD686B5534c9d096936aB7a4fDb8"
      },
      {
        "passId": "244",
        "signer": "0xfE299D7df991577D555126a3CF0B06D80bd11458"
      },
      {
        "passId": "245",
        "signer": "0xC4f6672efAE67Bc3b0b8cf8A8E022843730139bC"
      },
      {
        "passId": "246",
        "signer": "0xCa7C0f2ba625BAd13310657AFF92812d7Aa14490"
      },
      {
        "passId": "247",
        "signer": "0xc9fFC42B0E5ec9D4CaBaa35A0E0868dd66Be3613"
      },
      {
        "passId": "248",
        "signer": "0x0f5e86aEdc18667499112377F53caD8e1e3708C9"
      },
      {
        "passId": "249",
        "signer": "0x3d1018809a8BB230bE99d47545b24eA8b5ACD36a"
      },
      {
        "passId": "250",
        "signer": "0x84594be5AA80F8031fC00A357f12755be537296d"
      },
      {
        "passId": "251",
        "signer": "0x4E67D119b85460D1651fca3F0Fe2d98a9e47C451"
      },
      {
        "passId": "252",
        "signer": "0x25c7e2e84475a045438f60fe8B1C283E71279537"
      },
      {
        "passId": "253",
        "signer": "0x4A7D359B2CcdFac4EE795772eAB14Df1744cd2a3"
      },
      {
        "passId": "254",
        "signer": "0x88008B955ac045e853DE99D30362fd385F71c52c"
      },
      {
        "passId": "255",
        "signer": "0xD3304c66c0d534383a78fc236981D777E6fB2440"
      },
      {
        "passId": "256",
        "signer": "0x486c822AB350bB6164345031e59d30e421C91c22"
      },
      {
        "passId": "257",
        "signer": "0x992ce2171DcbCE7EE25F9fDA41b6B7Af863ed8Be"
      },
      {
        "passId": "258",
        "signer": "0xa6983F0Cbe74CED7D7252C9D562c6e872e0D8026"
      },
      {
        "passId": "259",
        "signer": "0xAAb1E06AAAd18A7d11bA904A26a4df4762F0fCfb"
      },
      {
        "passId": "260",
        "signer": "0x65158a182B9E346A0C9d8fF2C7562E36919f7bb3"
      },
      {
        "passId": "261",
        "signer": "0xBf192BfB10838639c78610f19c3d33aF770d5a8c"
      },
      {
        "passId": "262",
        "signer": "0x8F5199500c81B94C982004B92309b961722c5dA6"
      },
      {
        "passId": "263",
        "signer": "0x1C78073E9fF6b35326354CF3550d9284D3D42a81"
      },
      {
        "passId": "264",
        "signer": "0xE88C7D95b279FF8073Fa515bB9103569f4c2d470"
      },
      {
        "passId": "265",
        "signer": "0x5c512Ea136d991642594284dB6cb9eF0780c0C65"
      },
      {
        "passId": "266",
        "signer": "0x403Ddb97Ce34A0Ec169A0d706435DE8d46Ed7D0b"
      },
      {
        "passId": "267",
        "signer": "0x6F314a05C0bd4c816eDc40274bdB07cCAA56bC19"
      },
      {
        "passId": "268",
        "signer": "0xC35D76667C0B3b5bE6a06Ae59D212193252A759E"
      },
      {
        "passId": "269",
        "signer": "0xd7654B5B72e8973F35C7CD428D420CfCAB158Ae8"
      },
      {
        "passId": "270",
        "signer": "0xC31EC0052C3f33C665538Dd289dc9A12D7413b94"
      },
      {
        "passId": "271",
        "signer": "0xCff2Dbd0F8f9E517818b8a64C649C2efF8f2Ff30"
      },
      {
        "passId": "272",
        "signer": "0x639EEAB4C62Bde120c22abF1Fdac2a451C737D7C"
      },
      {
        "passId": "273",
        "signer": "0xdC15b8B54F6c4AC99c54C47f9a98Fdd7fED73618"
      },
      {
        "passId": "274",
        "signer": "0x03Cd9D3db7C39991E02eB0b63e5558831F79827F"
      },
      {
        "passId": "275",
        "signer": "0xB4e85bB99c85AB3850c2616D4C9836e04A21559a"
      },
      {
        "passId": "276",
        "signer": "0xc7c28316eaEba4cAf94fdb87C2308f9eAACA152e"
      },
      {
        "passId": "277",
        "signer": "0x4B9b46BeA53EEC6E43b71Ee03B2D5cF61d6795EC"
      },
      {
        "passId": "278",
        "signer": "0xd0345Dac94Dda3dF69Ec1E94a534a776ED3Fe55E"
      },
      {
        "passId": "279",
        "signer": "0xBE54829536f07F317DAC63bf0172CCd8c8Bb5a78"
      },
      {
        "passId": "280",
        "signer": "0x88A115Bd1E6D2f3D0357673A7B66559FbC5A0399"
      },
      {
        "passId": "281",
        "signer": "0x0fd8a4f52DfC3042901294B38E2339AaBd699DAb"
      },
      {
        "passId": "282",
        "signer": "0xfEAa344dD35c7369B9f0BafEc8C3b16bd3030CCd"
      },
      {
        "passId": "283",
        "signer": "0x8719eB0cf1078184b754475645Fd05973Dedae23"
      },
      {
        "passId": "284",
        "signer": "0x061b91415d9f6d6E0d0210d5Dc59630B12Ca1278"
      },
      {
        "passId": "285",
        "signer": "0x00cef749983893282Ef7E8840AE5bf111F82ba12"
      },
      {
        "passId": "286",
        "signer": "0x237b4c4497f4b4E19f6eA1D3d26f82C6fBDFb8bA"
      },
      {
        "passId": "287",
        "signer": "0x7534F088DF2a26c105c043117D8153Aa3f246E52"
      },
      {
        "passId": "288",
        "signer": "0x3F9B37c19D42DD246Bc3381F8161060F7D3e4150"
      },
      {
        "passId": "289",
        "signer": "0x714374DAFd195D556201E905A613e53Ea292688a"
      },
      {
        "passId": "290",
        "signer": "0x07F7B1cA902d5505b0C1d2B1D66AdF19A264279e"
      },
      {
        "passId": "291",
        "signer": "0x35b6C92c6CD386Cd8B267B36207439B877fa28be"
      },
      {
        "passId": "292",
        "signer": "0x11BD8379A9664567517fedebD5bf8EEb035FE127"
      },
      {
        "passId": "293",
        "signer": "0x45F9b5BA01f2e7Fa71CD9f18c22755eB34f44Fa8"
      },
      {
        "passId": "294",
        "signer": "0x6833c8f2aa9ad95574F1f56f8e3E68c386A617Ab"
      },
      {
        "passId": "295",
        "signer": "0xbB304C8f1883147694Ee3Ec720D9D5d1044b15c8"
      },
      {
        "passId": "296",
        "signer": "0xB739Bc745daC90e454ED8AD54FE7b1E47d56C10d"
      },
      {
        "passId": "297",
        "signer": "0x81766d8c7373D87E1Ab2e90bd122853307C2d6EB"
      },
      {
        "passId": "298",
        "signer": "0xEAe33E94cB74B768Ff3396b68ea8BAa648839552"
      },
      {
        "passId": "299",
        "signer": "0x3aAeFC818aD8Bd92A3A88e06a4f5D5A3e29ad9a8"
      },
      {
        "passId": "300",
        "signer": "0xA758c6008043f504D22B7d6860bE310be841C5d9"
      },
      {
        "passId": "301",
        "signer": "0xd01d02692f4F84AD224518aFd6e1c68e24Dc0bf9"
      },
      {
        "passId": "302",
        "signer": "0x6cC8158Cb2072c7Fc23B11c3B41B6ACC5EB532A5"
      },
      {
        "passId": "303",
        "signer": "0x65B7Db3B1DA92772275183754a56D7b120FEa960"
      },
      {
        "passId": "304",
        "signer": "0x91FD66Ec75490B5D2e61fBAFDdC32a286F893684"
      },
      {
        "passId": "305",
        "signer": "0x000000000000000000000000000000000000dead"
      },
      {
        "passId": "306",
        "signer": "0x000001f568875f378bf6d170b790967fe429c81a"
      },
      {
        "passId": "307",
        "signer": "0x0078c86e12186e2de1ff6fef5f1ada2bffde4ea5"
      },
      {
        "passId": "308",
        "signer": "0x024f1f8b3789bfdf9edb47f58a0d7a3afeaea804"
      },
      {
        "passId": "309",
        "signer": "0x049808d5eaa90a2665b9703d2246dded34f1eb73"
      },
      {
        "passId": "310",
        "signer": "0x05e8074088797c1f9057febf374deee0bc38e894"
      },
      {
        "passId": "311",
        "signer": "0x05ea539365d91df315e8ddd736e90431696fe8c4"
      },
      {
        "passId": "312",
        "signer": "0x09280340849e66948149804cac539cc7227512be"
      },
      {
        "passId": "313",
        "signer": "0x0946bc5c2f9848665cc3811458de403d0a78ad8e"
      },
      {
        "passId": "314",
        "signer": "0x0985224a811e65c235dbf4a2c2117712aabe4e39"
      },
      {
        "passId": "315",
        "signer": "0x0d0aca99686fced8e6fb39134aaed96f09b5283c"
      },
      {
        "passId": "316",
        "signer": "0x0d94b6e4c2aa9383964986020b3534d34885f700"
      },
      {
        "passId": "317",
        "signer": "0x0dd544d0da95666d7c3d38460feb4b5f25eaa515"
      },
      {
        "passId": "318",
        "signer": "0x0ea59c05be4b7149aaed26be764b618ac0255643"
      },
      {
        "passId": "319",
        "signer": "0x10b28ee04853bdd30d1fd7b302fbe5691c144aa0"
      },
      {
        "passId": "320",
        "signer": "0x10f6c58b9dc9603cb24ee9a5220bb4a470781676"
      },
      {
        "passId": "321",
        "signer": "0x12579783fbe8c2645d7a634b238da748405975a2"
      },
      {
        "passId": "322",
        "signer": "0x136c65a3f31682fcf683906ddbf3c76db2633f99"
      },
      {
        "passId": "323",
        "signer": "0x139d9a36ff2b6bfb8558dfbc22486da48c77a396"
      },
      {
        "passId": "324",
        "signer": "0x13b3a50f3947476eda74fe191344524e2d2d28e5"
      },
      {
        "passId": "325",
        "signer": "0x13e46ccd194ca86212236543d2e7376b00bafa42"
      },
      {
        "passId": "326",
        "signer": "0x1423fcc74da82fa03d70fa1f7a122db1ba231783"
      },
      {
        "passId": "327",
        "signer": "0x1436dbffbdde71d16a2c4d23f9116c3158c4d984"
      },
      {
        "passId": "328",
        "signer": "0x1527fa3a0778d574adfe714b7e60c7b2a1bf7c29"
      },
      {
        "passId": "329",
        "signer": "0x1974341df4b113a4c16f3d3f106176dec0e4da67"
      },
      {
        "passId": "330",
        "signer": "0x19b2ba0892da19d09d59e300d11da9edf96654ae"
      },
      {
        "passId": "331",
        "signer": "0x1c062628943a930b805849b494719c7d23c77bd5"
      },
      {
        "passId": "332",
        "signer": "0x1ec9503bbdad721ef3ad485b4b14ce0671dc9925"
      },
      {
        "passId": "333",
        "signer": "0x21c5edc237e95049f92059af6a571fdb700f2b82"
      },
      {
        "passId": "334",
        "signer": "0x2224acd07fd9b269ab5200a9a3df8062624deefb"
      },
      {
        "passId": "335",
        "signer": "0x230eb64900d027dfe372786b3342bd6178ec37d1"
      },
      {
        "passId": "336",
        "signer": "0x273c25abd33eca095e228fde0f15e8f7ec4eb4d9"
      },
      {
        "passId": "337",
        "signer": "0x27d9b6692ec1fb802cc8ceef74270ca4b448076a"
      },
      {
        "passId": "338",
        "signer": "0x290420874bf65691b98b67d042c06bbc31f85f11"
      },
      {
        "passId": "339",
        "signer": "0x2993db31d165c33d848e44a1c26a805ba411d324"
      },
      {
        "passId": "340",
        "signer": "0x2d2c46d26c8fec693586e067c4fc2b2ddc2b4cb3"
      },
      {
        "passId": "341",
        "signer": "0x2d79097b9e4c4f41654b2c91c39fd2c97af00c76"
      },
      {
        "passId": "342",
        "signer": "0x2de2299db048a9e3b8d1934b8dae11b8041cc4fd"
      },
      {
        "passId": "343",
        "signer": "0x2e50783188e23742dd3168682e39381ff5fa9731"
      },
      {
        "passId": "344",
        "signer": "0x2e699391d1b3b8577557b4c0ef6a1d9e8a394f04"
      },
      {
        "passId": "345",
        "signer": "0x308bff328370fc4a9683ab9fcd79a21be6dc5ee4"
      },
      {
        "passId": "346",
        "signer": "0x342c6bfa287ce37b8b53eee0e5b6e6bcbea98c76"
      },
      {
        "passId": "347",
        "signer": "0x362f020fd4420c317e7a0722994ba8bc3380d0e8"
      },
      {
        "passId": "348",
        "signer": "0x3668a20653316a7dd85342f64a4c984d146cadfe"
      },
      {
        "passId": "349",
        "signer": "0x37b699d7eead58433d352d1c77b2db1391f11ce5"
      },
      {
        "passId": "350",
        "signer": "0x3ad353e2845b96fb1b58c1ca6cda46b870de8d6f"
      },
      {
        "passId": "351",
        "signer": "0x3d14410609731ec7924ea8b1f13de544bb46a9a6"
      },
      {
        "passId": "352",
        "signer": "0x4011d09a86d0aca8377a4a8bad691f1aceecd672"
      },
      {
        "passId": "353",
        "signer": "0x41a7276167b80da8815df5b0ddaba3be29984250"
      },
      {
        "passId": "354",
        "signer": "0x44dc2ec15b3483fc8590f6b396cea5f8f2fbf3bd"
      },
      {
        "passId": "355",
        "signer": "0x4530307f98208d3bd5b9631880bc7351770c8810"
      },
      {
        "passId": "356",
        "signer": "0x4a1d757699ab73dd4b48b15049b6f1479b2f3511"
      },
      {
        "passId": "357",
        "signer": "0x4b0bd713574e67a97b3ff8f647f329794a2cbb64"
      },
      {
        "passId": "358",
        "signer": "0x4d03a186b3c7d039ff9a212cd8e81dc34a670b35"
      },
      {
        "passId": "359",
        "signer": "0x4de4a829d42191007431d608775430f3ab072082"
      },
      {
        "passId": "360",
        "signer": "0x4e012d25472225f3385baa43ed64dfec5885c51d"
      },
      {
        "passId": "361",
        "signer": "0x4ffb72b66eba24521736924f87dfe10677d82286"
      },
      {
        "passId": "362",
        "signer": "0x50f27cdb650879a41fb07038bf2b818845c20e17"
      },
      {
        "passId": "363",
        "signer": "0x5285ac85a979b612f5c5320961311bba099670f0"
      },
      {
        "passId": "364",
        "signer": "0x530cf036ed4fa58f7301a9c788c9806624cefd19"
      },
      {
        "passId": "365",
        "signer": "0x5310a9b64847c1b927f823a4bc8836e93f09dc78"
      },
      {
        "passId": "366",
        "signer": "0x54463aae905082c678708bb6c25226eb8f38d5a6"
      },
      {
        "passId": "367",
        "signer": "0x562bf1b67dc40d9b7c3ddd49e45ae58e61e1b76e"
      },
      {
        "passId": "368",
        "signer": "0x568b491fb2b4b9440f6d05e7723df0060fdaef1c"
      },
      {
        "passId": "369",
        "signer": "0x5b158f897f5ace2afefaf7ace8ce0cdbbbc9168a"
      },
      {
        "passId": "370",
        "signer": "0x5ba02f4ff6af1d9d2af8774d10fd32eb57d4e2e6"
      },
      {
        "passId": "371",
        "signer": "0x5bd685375c21375165438ca7f3eae7ec4fade8c5"
      },
      {
        "passId": "372",
        "signer": "0x5d9e720a1c16b98ab897165803c4d96e8060b8e4"
      },
      {
        "passId": "373",
        "signer": "0x5e01d9928ea32d1d3ae2f3263b6ec6c165dc2d76"
      },
      {
        "passId": "374",
        "signer": "0x5ee42438d0d8fc399c94ef3543665e993e847b49"
      },
      {
        "passId": "375",
        "signer": "0x5f8e56d7f3642dd8783774460da2d3a7c54aacda"
      },
      {
        "passId": "376",
        "signer": "0x5fb8b9512684d451d4e585a1a0aabfb48a253c67"
      },
      {
        "passId": "377",
        "signer": "0x6186290b28d511bff971631c916244a9fc539cfe"
      },
      {
        "passId": "378",
        "signer": "0x62f099a34f01d57c67a100851184bea0d48b45f6"
      },
      {
        "passId": "379",
        "signer": "0x63244b5f1ebcb999ea012da652dffee6653bf8f5"
      },
      {
        "passId": "380",
        "signer": "0x64e00561fa9b1f2f2048b2d4f571279689dd9541"
      },
      {
        "passId": "381",
        "signer": "0x65565244e5700b85c90358468faf37c85db55099"
      },
      {
        "passId": "382",
        "signer": "0x6584b48ccebd9c3e4413a1dd4cdbc38b2500cdf3"
      },
      {
        "passId": "383",
        "signer": "0x65d88c64b01b9481352fa8a68b54ed1b3b687388"
      },
      {
        "passId": "384",
        "signer": "0x663d3947f03ef5b387992b880ac85940057c13e3"
      },
      {
        "passId": "385",
        "signer": "0x67c3097a968db89610825976ec9a5976a966c044"
      },
      {
        "passId": "386",
        "signer": "0x68016f094ebb7b55b04372af335455854b0e2eb6"
      },
      {
        "passId": "387",
        "signer": "0x6854dc5c9e3d3ce0b9dd7250d866908515465dc6"
      },
      {
        "passId": "388",
        "signer": "0x686e960ebd9aceb1771850444d4d3a7810a0dac9"
      },
      {
        "passId": "389",
        "signer": "0x6d7fd0438219c0f753a1ccf7c4885bb6cb260999"
      },
      {
        "passId": "390",
        "signer": "0x704c978d50590b21e4c2f43eb4da24fe61fcd707"
      },
      {
        "passId": "391",
        "signer": "0x73e60cd967e957bc6e074f93320ffa1d52697d5b"
      },
      {
        "passId": "392",
        "signer": "0x75331ebbe0b00b97cab532384f13c9b479f074ec"
      },
      {
        "passId": "393",
        "signer": "0x75ef2eff7b12f5f900ef5c787036deab18423d1a"
      },
      {
        "passId": "394",
        "signer": "0x78885686feec340ab544428f161e7d621f520e29"
      },
      {
        "passId": "395",
        "signer": "0x79bebfcb560141f22959c62bbd2930d5c7e35d30"
      },
      {
        "passId": "396",
        "signer": "0x79fd2f15e0ea8c27b5192259f9da63f4e562f021"
      },
      {
        "passId": "397",
        "signer": "0x7a824bea2bed9399a68cd0e340224809521c81d9"
      },
      {
        "passId": "398",
        "signer": "0x7d6a8ffcaf98cac58340329b3a91759888cb1363"
      },
      {
        "passId": "399",
        "signer": "0x7e7a55b11dd9a02b4da169620adfc36b930100fc"
      },
      {
        "passId": "400",
        "signer": "0x80d0d54050c15971b21e877d95441800f5aa9ee8"
      },
      {
        "passId": "401",
        "signer": "0x8177598e08ee8199c160a48c7a0af31ab54bb59f"
      },
      {
        "passId": "402",
        "signer": "0x82410609593d876761681580cf304c794bd58d09"
      },
      {
        "passId": "403",
        "signer": "0x826f63afd9517364cbebe91a859f10b102505a40"
      },
      {
        "passId": "404",
        "signer": "0x836ef81a58e5565b8d1d555ec8e9a5c2792511c6"
      },
      {
        "passId": "405",
        "signer": "0x83d3c179e7906e7f6755658c70e106f1ed3c5782"
      },
      {
        "passId": "406",
        "signer": "0x84eeb7db3f93feb5a8a98f56dabb970a6797c187"
      },
      {
        "passId": "407",
        "signer": "0x865c2f85c9fea1c6ac7f53de07554d68cb92ed88"
      },
      {
        "passId": "408",
        "signer": "0x8725be0bb6ea759d10fbb52fedecc7dcd6890072"
      },
      {
        "passId": "409",
        "signer": "0x87dfef3b445667292aac89078b51f0f75795805f"
      },
      {
        "passId": "410",
        "signer": "0x88906af7616f88f610d1e479325a5c5f93ba1e2c"
      },
      {
        "passId": "411",
        "signer": "0x8a53b8b59877df193c6dae7b8d1d38251af563cf"
      },
      {
        "passId": "412",
        "signer": "0x8b5e90aa714c967efc8c286f46ce0fc822e1cfb0"
      },
      {
        "passId": "413",
        "signer": "0x8c0c3c60118b24b31806eae82ab4186821bf23f1"
      },
      {
        "passId": "414",
        "signer": "0x8c2e67bd3d0f432ef75d9ae6623cd0dfbce66050"
      },
      {
        "passId": "415",
        "signer": "0x8dc9d43df20681cd62ca0acb24ae7ce2794f835d"
      },
      {
        "passId": "416",
        "signer": "0x8df55ecf2c261b44d079302dc95327fe32f74eed"
      },
      {
        "passId": "417",
        "signer": "0x8ebbf8f59b7b7849e359f7e1cc395df6741c24b9"
      },
      {
        "passId": "418",
        "signer": "0x92e7faa1c7b1cf703e3cda42183978f16fa15713"
      },
      {
        "passId": "419",
        "signer": "0x932a824a4d3d0680e0b352de150e6f212b8ac841"
      },
      {
        "passId": "420",
        "signer": "0x95a4350e1cb5e795d3ebe8bee63d9183de5449d1"
      },
      {
        "passId": "421",
        "signer": "0x96dc89dbe84970ee42a2f0b35fb50599e6745ff8"
      },
      {
        "passId": "422",
        "signer": "0x975ab68d4c15d6db02e101d5be03c5b49b9a3282"
      },
      {
        "passId": "423",
        "signer": "0x9de0b0402258a6a562331da7b3c13b29578789c4"
      },
      {
        "passId": "424",
        "signer": "0x9fc6d6c7326585fd3c2a743a1f505990d6e9df3f"
      },
      {
        "passId": "425",
        "signer": "0xa0863e36c30f4974a3a0e2cfc2802513cfaa22f1"
      },
      {
        "passId": "426",
        "signer": "0xa0a6dc36041fb386378458006fecbddd02555ddd"
      },
      {
        "passId": "427",
        "signer": "0xa0d71d516c6149c958c489ab24223c99f5df906f"
      },
      {
        "passId": "428",
        "signer": "0xa0f838d02983161ee469bff969964b7051ac1cd9"
      },
      {
        "passId": "429",
        "signer": "0xa596370bc21dee36872b98009dfbbf465dbfefa3"
      },
      {
        "passId": "430",
        "signer": "0xa5975974cac3fefd831e42bdd2fe84cb5ee3b3de"
      },
      {
        "passId": "431",
        "signer": "0xa6157b7bb7ec05e2b6feafd686797f9ea05411cc"
      },
      {
        "passId": "432",
        "signer": "0xa6f4fa9840aa6825446c820af6d5eccf9f78ba05"
      },
      {
        "passId": "433",
        "signer": "0xa77d9227eee861e01519548b6000acca8600eebe"
      },
      {
        "passId": "434",
        "signer": "0xa7d9f4fd84cdd4bee564adc1b18e3e8aa79d25f1"
      },
      {
        "passId": "435",
        "signer": "0xa88e4a192f3ff5e46dcc96efefb38dfec7bb250c"
      },
      {
        "passId": "436",
        "signer": "0xab2f02d8d409ee4f67fdda5aac5ca7a64a897271"
      },
      {
        "passId": "437",
        "signer": "0xac75cdc34283406b050cadf4ea5902a9310b138e"
      },
      {
        "passId": "438",
        "signer": "0xad9f9194c68bd83250a534a7da574687e1f102ff"
      },
      {
        "passId": "439",
        "signer": "0xae8ce6bb2b95684f57c097b407f4e9b55d9ca432"
      },
      {
        "passId": "440",
        "signer": "0xaee2f40fe0568bd859bc6a518c7ef3252fdc9bf0"
      },
      {
        "passId": "441",
        "signer": "0xaf5cb828389bd6413e7bcd00ed2dcf2bdc1a015a"
      },
      {
        "passId": "442",
        "signer": "0xaf8fbf59e221d27b55dc3adc2366f9230bcf5096"
      },
      {
        "passId": "443",
        "signer": "0xb29b1936c11b77cec6061a9daf765ee2666c8f77"
      },
      {
        "passId": "444",
        "signer": "0xb347b5b99c49ce6c555071a1f0498c81511ad977"
      },
      {
        "passId": "445",
        "signer": "0xb3522064694ac9870dbf00eebc2712762193bb64"
      },
      {
        "passId": "446",
        "signer": "0xb353268ce17d2c7f0f4f8aff152e548c43633df5"
      },
      {
        "passId": "447",
        "signer": "0xb66190f67ed8f0ca790ddfe541ee1bd0da53fe70"
      },
      {
        "passId": "448",
        "signer": "0xb7f9f538aa1b41ae2853eb63f1939187ffe70eb4"
      },
      {
        "passId": "449",
        "signer": "0xbb46c6e4d8a59520fbb11638c2d1228cc65f5a6c"
      },
      {
        "passId": "450",
        "signer": "0xbc10a3ae909b1b94f4c3e39607ad19d386dce32a"
      },
      {
        "passId": "451",
        "signer": "0xbd12aa424c207e90b66402c1f0aec357e8b1ded7"
      },
      {
        "passId": "452",
        "signer": "0xbe5be517537e53f09e88bcdf61da238477dca226"
      },
      {
        "passId": "453",
        "signer": "0xbeeef66749b64afe43bbc9475635eb510cfe4922"
      },
      {
        "passId": "454",
        "signer": "0xbf1ed1ea654ad49472daedc21a31c8d28e6bb790"
      },
      {
        "passId": "455",
        "signer": "0xbfdb50dc66c8df9fd9688d8fe5a0c34126427645"
      },
      {
        "passId": "456",
        "signer": "0xc09d3402515676b81a2f768c365146ea3faa5605"
      },
      {
        "passId": "457",
        "signer": "0xc0e5e14bdecd9ed6954a9e14c74e97cebd91bb94"
      },
      {
        "passId": "458",
        "signer": "0xc169699a825066f2f07e0b29c4082094b32a3f3e"
      },
      {
        "passId": "459",
        "signer": "0xc3a67c1437353bdc9c53060235a34018711de0cf"
      },
      {
        "passId": "460",
        "signer": "0xc42c694d0215b27bce1a871a4a2ad38cf0120a82"
      },
      {
        "passId": "461",
        "signer": "0xc555347d2b369b074be94fe6f7ae9ab43966b884"
      },
      {
        "passId": "462",
        "signer": "0xc665a60f22dda926b920deb8ffac0ef9d8a17460"
      },
      {
        "passId": "463",
        "signer": "0xc8286a9bf1f9bf8f3006fa014915c78b7e75111c"
      },
      {
        "passId": "464",
        "signer": "0xc8bace82793074fad3337424bdb84e306b2f8a44"
      },
      {
        "passId": "465",
        "signer": "0xc9a009bed9ed8a32499e18c20f7cd12132c8d6cb"
      },
      {
        "passId": "466",
        "signer": "0xca11d10ceb098f597a0cab28117fc3465991a63c"
      },
      {
        "passId": "467",
        "signer": "0xcbd2f544073eb35b59a8eb19194a222a5361cd74"
      },
      {
        "passId": "468",
        "signer": "0xcda685c8444f659ac3fe778f8d143aabdf1a21ab"
      },
      {
        "passId": "469",
        "signer": "0xcea78aaa93e917fb5e1802901db2b20aa4411b44"
      },
      {
        "passId": "470",
        "signer": "0xcef871b113d2bb5d3fa5dc96d2d288dd38082aae"
      },
      {
        "passId": "471",
        "signer": "0xcf680fb77c12e2aa2dec82f3ae0c0e527f549fe2"
      },
      {
        "passId": "472",
        "signer": "0xd1eddfcc4596cc8bd0bd7495beab9b979fc50336"
      },
      {
        "passId": "473",
        "signer": "0xd286064cc27514b914bab0f2fad2e1a89a91f314"
      },
      {
        "passId": "474",
        "signer": "0xd3e64b9dea13e4840a0da20965bd0ca37d05a12a"
      },
      {
        "passId": "475",
        "signer": "0xd651e2c626ee210fc38676124d5007ac822ad749"
      },
      {
        "passId": "476",
        "signer": "0xd657860fc512ec2250a7385a353f599e3276fddb"
      },
      {
        "passId": "477",
        "signer": "0xd6e02c13a6cc133c9d019495414667ea7bee05cc"
      },
      {
        "passId": "478",
        "signer": "0xdc190d7cea8e8bf0b381617062200c10cfff0a91"
      },
      {
        "passId": "479",
        "signer": "0xdd6c81d6d587e2d49eaadffb4ce380564046002a"
      },
      {
        "passId": "480",
        "signer": "0xddb92a96054132801cae3943b2f966fc2c308ac8"
      },
      {
        "passId": "481",
        "signer": "0xdde3ca351d85a4b4cc6aff8d42c0840959859053"
      },
      {
        "passId": "482",
        "signer": "0xe120ed22a0cd12d5de6122aa7d5b6d93ac218b49"
      },
      {
        "passId": "483",
        "signer": "0xe20adb03a470b5573bf572dd918e052d0d17866e"
      },
      {
        "passId": "484",
        "signer": "0xe363c2fba75cbd27487b17430e1efbdd2add374e"
      },
      {
        "passId": "485",
        "signer": "0xe5a3d77d7788a83f3549dd7f08fc2aced7e262d2"
      },
      {
        "passId": "486",
        "signer": "0xe66e1e9e37e4e148b21eb22001431818e980d060"
      },
      {
        "passId": "487",
        "signer": "0xe7bd51dc30d4bdc9fddd42ea7c0a283590c9d416"
      },
      {
        "passId": "488",
        "signer": "0xeb42cd8a1fe1ff556960a9a03ca29aa13f8aa838"
      },
      {
        "passId": "489",
        "signer": "0xed0f30677c760ea8f0bff70c76eafc79d5f7c3c8"
      },
      {
        "passId": "490",
        "signer": "0xeddd55a234240042695d7430bf0a09b9038a26ad"
      },
      {
        "passId": "491",
        "signer": "0xee4d308cc1cde3dd0adcb5a2c85edff22db64918"
      },
      {
        "passId": "492",
        "signer": "0xee9439a12a7c2a9b6600ca8a498620580d2f116e"
      },
      {
        "passId": "493",
        "signer": "0xeeaf61935c0c48f8f8cc28c381683d7fa2f75e1c"
      },
      {
        "passId": "494",
        "signer": "0xef1271ae97bc1a1b356ab697e9ed0d1d4e05fcda"
      },
      {
        "passId": "495",
        "signer": "0xf19bc58f747d6ea11959bf2a0fa81e53285546ac"
      },
      {
        "passId": "496",
        "signer": "0xf1e1c701b49b1dc2405a9e8ef40f9f88802b80fa"
      },
      {
        "passId": "497",
        "signer": "0xf2b15320db6992ba49a7563e50e888c20edcbe3c"
      },
      {
        "passId": "498",
        "signer": "0xf341c3abb49feb96b4822e68227b54c6fb9f6318"
      },
      {
        "passId": "499",
        "signer": "0xf3493f6812b1f22b40f8539db2510e13ac251f96"
      },
      {
        "passId": "500",
        "signer": "0xf3b1b6e83be4d55695f1d30ac3d307d9d5ca98ff"
      },
      {
        "passId": "501",
        "signer": "0xf464d1a37d8ef9449722f44a4eeb715c0e0acdb3"
      },
      {
        "passId": "502",
        "signer": "0xf6910d47fbb1f5518d60c721d4189936ecd5a1b6"
      },
      {
        "passId": "503",
        "signer": "0xf73c935815908ad9a056fc50269f95d8ba032e9d"
      },
      {
        "passId": "504",
        "signer": "0xf78cd306b23031de9e739a5bcde61764e82ad5ef"
      },
      {
        "passId": "505",
        "signer": "0xf942040710bedf7220beb24b220631c2255e87f1"
      },
      {
        "passId": "506",
        "signer": "0xf943e1d2db38db468f66a79b08ec23f8c4375ce3"
      },
      {
        "passId": "507",
        "signer": "0xfa46dedf812c5803b1e2cea10eef3f27dafeca56"
      },
      {
        "passId": "508",
        "signer": "0xfa9f104f338846b38b083c9e567ff6bbe43ab5f7"
      },
      {
        "passId": "509",
        "signer": "0xfd12799b9fb97dc61d9ad7ad4ffba5624004bc62"
      },
      {
        "passId": "510",
        "signer": "0xfe1e7dc61721f34a25c9eb4dc1a1a8f352c923ef"
      },
      {
        "passId": "511",
        "signer": "0xfffff6e70842330948ca47254f2be673b1cb0db7"
      }
    ]
  },
  "solcInputHash": "5aba7a965fc74dae62d894a6b316a35c",
  "bytecode": "0x6101806040523480156200001257600080fd5b5060405162001e9238038062001e9283398101604081905262000035916200008c565b6001600160a01b0398891660805292881660a052961660c05260e095909552610100939093526101209190915261014052610160526000556200011c565b6001600160a01b03811681146200008957600080fd5b50565b60008060008060008060008060006101208a8c031215620000ac57600080fd5b8951620000b98162000073565b8099505060208a0151975060408a0151965060608a0151955060808a0151945060a08a0151620000e98162000073565b60c08b0151909450620000fc8162000073565b8093505060e08a015191506101008a015190509295985092959850929598565b60805160a05160c05160e05161010051610120516101405161016051611c99620001f96000396000818161033b015281816105770152610d1c015260008181610318015281816103d601528181610556015281816105d6015281816106e40152610e9b0152600081816102f5015281816105350152610ec30152600081816102d2015281816105140152610ee901526000818161035e0152818161059801528181610f0f0152610f4b015260006109cf01526000818161079201526110420152600081816102030152818161094a01526110db0152611c996000f3fe6080604052600436106100965760003560e01c80637361a72e116100695780639c2055131161004e5780639c205513146101a0578063e31b3a68146101b3578063e957a381146101d357600080fd5b80637361a72e1461016d578063990b0f601461018057600080fd5b80630ccc797f1461009b5780632228adcc146100d95780632558e933146101095780636d048d531461011e575b600080fd5b3480156100a757600080fd5b506100bb6100b636600461158a565b6101f3565b6040516100d099989796959493929190611616565b60405180910390f35b3480156100e557600080fd5b506100f96100f43660046116b2565b6103aa565b60405190151581526020016100d0565b61011c6101173660046117ef565b6103d4565b005b34801561012a57600080fd5b5061013e6101393660046118f1565b610509565b6040805196875260208701959095529385019290925260608401526080830152151560a082015260c0016100d0565b61011c61017b36600461190e565b6105d4565b34801561018c57600080fd5b506100f961019b3660046116b2565b610697565b61011c6101ae366004611978565b6106e2565b3480156101bf57600080fd5b5061011c6101ce366004611978565b61077a565b3480156101df57600080fd5b506100f96101ee3660046116b2565b6109aa565b60606000806000806000806000807f000000000000000000000000000000000000000000000000000000000000000073ffffffffffffffffffffffffffffffffffffffff1663a0554c268c8c6040518363ffffffff1660e01b815260040161025c9291906119af565b60006040518083038186803b15801561027457600080fd5b505afa158015610288573d6000803e3d6000fd5b505050506040513d6000823e601f3d9081017fffffffffffffffffffffffffffffffffffffffffffffffffffffffffffffffe01682016040526102ce9190810190611a04565b98507f000000000000000000000000000000000000000000000000000000000000000097507f000000000000000000000000000000000000000000000000000000000000000096507f000000000000000000000000000000000000000000000000000000000000000095507f000000000000000000000000000000000000000000000000000000000000000094507f000000000000000000000000000000000000000000000000000000000000000093506103888d6109c8565b92506103938c610697565b915060005490509499509499509499509499909550565b6000806103bc6010600685901c611acd565b905080600614806103cd5750806008145b9392505050565b7f00000000000000000000000000000000000000000000000000000000000000004210156104f85761040583610b31565b600061047083858760405160200161044c92919091825260601b7fffffffffffffffffffffffffffffffffffffffff00000000000000000000000016602082015260340190565b60405160208183030381529060405280519060200120610bef90919063ffffffff16565b9050600061047e8583610c13565b905061048a8382610c74565b6104f5576040517f08c379a000000000000000000000000000000000000000000000000000000000815260206004820152600d60248201527f494e56414c49445f50524f4f460000000000000000000000000000000000000060448201526064015b60405180910390fd5b50505b6105028585610d41565b5050505050565b6000806000806000807f00000000000000000000000000000000000000000000000000000000000000007f00000000000000000000000000000000000000000000000000000000000000007f00000000000000000000000000000000000000000000000000000000000000007f00000000000000000000000000000000000000000000000000000000000000007f00000000000000000000000000000000000000000000000000000000000000006105c08c6109c8565b949c939b5091995097509550909350915050565b7f00000000000000000000000000000000000000000000000000000000000000004210156106875761060582610b31565b3360006106128483610c13565b905061061e8382610c74565b610684576040517f08c379a000000000000000000000000000000000000000000000000000000000815260206004820152600d60248201527f494e56414c49445f50524f4f460000000000000000000000000000000000000060448201526064016104ec565b50505b6106918484610d41565b50505050565b6000806106a661010084611b10565b905060006106b682610100611b24565b6106c09085611b61565b60009283526001602081905260409093205492901b9182169091149392505050565b7f000000000000000000000000000000000000000000000000000000000000000042101561076c576040517f08c379a000000000000000000000000000000000000000000000000000000000815260206004820152601460248201527f524551554952455f504153535f4f525f5741495400000000000000000000000060448201526064016104ec565b6107768282610d41565b5050565b3373ffffffffffffffffffffffffffffffffffffffff7f00000000000000000000000000000000000000000000000000000000000000001614610819576040517f08c379a000000000000000000000000000000000000000000000000000000000815260206004820152600e60248201527f4e4f545f415554484f52495a454400000000000000000000000000000000000060448201526064016104ec565b6102408261ffff1610610888576040517f08c379a000000000000000000000000000000000000000000000000000000000815260206004820152600d60248201527f494e56414c49445f534f554e440000000000000000000000000000000000000060448201526064016104ec565b6108958261ffff166103aa565b6108fb576040517f08c379a000000000000000000000000000000000000000000000000000000000815260206004820152600c60248201527f4e4f545f5245534552564544000000000000000000000000000000000000000060448201526064016104ec565b6040517f9c20551300000000000000000000000000000000000000000000000000000000815261ffff8316600482015273ffffffffffffffffffffffffffffffffffffffff82811660248301527f00000000000000000000000000000000000000000000000000000000000000001690639c20551390604401600060405180830381600087803b15801561098e57600080fd5b505af11580156109a2573d6000803e3d6000fd5b505050505050565b6000806109bc6010600685901c611acd565b60005410159392505050565b60008060007f000000000000000000000000000000000000000000000000000000000000000073ffffffffffffffffffffffffffffffffffffffff1684604051602401610a31919073ffffffffffffffffffffffffffffffffffffffff91909116815260200190565b604080517fffffffffffffffffffffffffffffffffffffffffffffffffffffffffffffffe08184030181529181526020820180517bffffffffffffffffffffffffffffffffffffffffffffffffffffffff167f70a082310000000000000000000000000000000000000000000000000000000017905251610ab29190611b78565b600060405180830381855afa9150503d8060008114610aed576040519150601f19603f3d011682016040523d82523d6000602084013e610af2565b606091505b50915091506000828015610b07575060008251115b610b12576000610b26565b81806020019051810190610b269190611bb3565b151595945050505050565b6000610b3f61010083611b10565b90506000610b4f82610100611b24565b610b599084611b61565b600083815260016020819052604090912054911b915080821615610bd9576040517f08c379a000000000000000000000000000000000000000000000000000000000815260206004820152601160248201527f504153535f414c52454144595f5553454400000000000000000000000000000060448201526064016104ec565b6000928352600160205260409092209117905550565b6000806000610bfe858561113c565b91509150610c0b816111ac565b509392505050565b60008282604051602001610c5692919091825260601b7fffffffffffffffffffffffffffffffffffffffff00000000000000000000000016602082015260340190565b60405160208183030381529060405280519060200120905092915050565b6000805b8351811015610d18576000848281518110610c9557610c95611bcc565b6020026020010151905080841015610cd8576040805160208101869052908101829052606001604051602081830303815290604052805190602001209350610d05565b60408051602081018390529081018590526060016040516020818303038152906040528051906020012093505b5080610d1081611bfb565b915050610c78565b50507f000000000000000000000000000000000000000000000000000000000000000014919050565b6102408261ffff1610610db0576040517f08c379a000000000000000000000000000000000000000000000000000000000815260206004820152600d60248201527f494e56414c49445f534f554e440000000000000000000000000000000000000060448201526064016104ec565b610dbd8261ffff166109aa565b610e23576040517f08c379a000000000000000000000000000000000000000000000000000000000815260206004820152601b60248201527f494e535455524d454e545f4e4f545f5945545f464f525f53414c45000000000060448201526064016104ec565b610e308261ffff166103aa565b15610e97576040517f08c379a000000000000000000000000000000000000000000000000000000000815260206004820152600860248201527f524553455256454400000000000000000000000000000000000000000000000060448201526064016104ec565b60007f0000000000000000000000000000000000000000000000000000000000000000421015610ee7577f0000000000000000000000000000000000000000000000000000000000000000610f09565b7f00000000000000000000000000000000000000000000000000000000000000005b905060007f0000000000000000000000000000000000000000000000000000000000000000118015610f3f5750610f3f336109c8565b15610f87576064610f707f000000000000000000000000000000000000000000000000000000000000000083611b24565b610f7a9190611b10565b610f849082611b61565b90505b80341015610ff1576040517f08c379a000000000000000000000000000000000000000000000000000000000815260206004820152600a60248201527f4e4f545f454e4f5547480000000000000000000000000000000000000000000060448201526064016104ec565b336108fc610fff8334611b61565b6040518115909202916000818181858888f19350505050158015611027573d6000803e3d6000fd5b5060405173ffffffffffffffffffffffffffffffffffffffff7f0000000000000000000000000000000000000000000000000000000000000000169082156108fc029083906000818181858888f1935050505015801561108b573d6000803e3d6000fd5b506040517f9c20551300000000000000000000000000000000000000000000000000000000815261ffff8416600482015273ffffffffffffffffffffffffffffffffffffffff83811660248301527f00000000000000000000000000000000000000000000000000000000000000001690639c20551390604401600060405180830381600087803b15801561111f57600080fd5b505af1158015611133573d6000803e3d6000fd5b50505050505050565b6000808251604114156111735760208301516040840151606085015160001a61116787828585611408565b945094505050506111a5565b82516040141561119d5760208301516040840151611192868383611520565b9350935050506111a5565b506000905060025b9250929050565b60008160048111156111c0576111c0611c34565b14156111c95750565b60018160048111156111dd576111dd611c34565b1415611245576040517f08c379a000000000000000000000000000000000000000000000000000000000815260206004820152601860248201527f45434453413a20696e76616c6964207369676e6174757265000000000000000060448201526064016104ec565b600281600481111561125957611259611c34565b14156112c1576040517f08c379a000000000000000000000000000000000000000000000000000000000815260206004820152601f60248201527f45434453413a20696e76616c6964207369676e6174757265206c656e6774680060448201526064016104ec565b60038160048111156112d5576112d5611c34565b1415611363576040517f08c379a000000000000000000000000000000000000000000000000000000000815260206004820152602260248201527f45434453413a20696e76616c6964207369676e6174757265202773272076616c60448201527f756500000000000000000000000000000000000000000000000000000000000060648201526084016104ec565b600481600481111561137757611377611c34565b1415611405576040517f08c379a000000000000000000000000000000000000000000000000000000000815260206004820152602260248201527f45434453413a20696e76616c6964207369676e6174757265202776272076616c60448201527f756500000000000000000000000000000000000000000000000000000000000060648201526084016104ec565b50565b6000807f7fffffffffffffffffffffffffffffff5d576e7357a4501ddfe92f46681b20a083111561143f5750600090506003611517565b8460ff16601b1415801561145757508460ff16601c14155b156114685750600090506004611517565b6040805160008082526020820180845289905260ff881692820192909252606081018690526080810185905260019060a0016020604051602081039080840390855afa1580156114bc573d6000803e3d6000fd5b50506040517fffffffffffffffffffffffffffffffffffffffffffffffffffffffffffffffe0015191505073ffffffffffffffffffffffffffffffffffffffff811661151057600060019250925050611517565b9150600090505b94509492505050565b6000807f7fffffffffffffffffffffffffffffffffffffffffffffffffffffffffffffff831660ff84901c601b0161155a87828885611408565b935093505050935093915050565b73ffffffffffffffffffffffffffffffffffffffff8116811461140557600080fd5b600080600080606085870312156115a057600080fd5b84356115ab81611568565b935060208501359250604085013567ffffffffffffffff808211156115cf57600080fd5b818701915087601f8301126115e357600080fd5b8135818111156115f257600080fd5b8860208260051b850101111561160757600080fd5b95989497505060200194505050565b6101208082528a51908201819052600090610140830190602090818e01845b8281101561166757815173ffffffffffffffffffffffffffffffffffffffff1685529383019390830190600101611635565b5050508192508b8185015250508860408301528760608301528660808301528560a083015261169a60c083018615159052565b92151560e08201526101000152979650505050505050565b6000602082840312156116c457600080fd5b5035919050565b803561ffff811681146116dd57600080fd5b919050565b7f4e487b7100000000000000000000000000000000000000000000000000000000600052604160045260246000fd5b604051601f82017fffffffffffffffffffffffffffffffffffffffffffffffffffffffffffffffe016810167ffffffffffffffff81118282101715611758576117586116e2565b604052919050565b600067ffffffffffffffff82111561177a5761177a6116e2565b5060051b60200190565b600082601f83011261179557600080fd5b813560206117aa6117a583611760565b611711565b82815260059290921b840181019181810190868411156117c957600080fd5b8286015b848110156117e457803583529183019183016117cd565b509695505050505050565b600080600080600060a0868803121561180757600080fd5b611810866116cb565b945060208087013561182181611568565b945060408701359350606087013567ffffffffffffffff8082111561184557600080fd5b818901915089601f83011261185957600080fd5b81358181111561186b5761186b6116e2565b61189b847fffffffffffffffffffffffffffffffffffffffffffffffffffffffffffffffe0601f84011601611711565b8181528b858386010111156118af57600080fd5b8185850186830137600091810190940152919350608088013591808311156118d657600080fd5b50506118e488828901611784565b9150509295509295909350565b60006020828403121561190357600080fd5b81356103cd81611568565b6000806000806080858703121561192457600080fd5b61192d856116cb565b9350602085013561193d81611568565b925060408501359150606085013567ffffffffffffffff81111561196057600080fd5b61196c87828801611784565b91505092959194509250565b6000806040838503121561198b57600080fd5b611994836116cb565b915060208301356119a481611568565b809150509250929050565b6020815281602082015260007f07ffffffffffffffffffffffffffffffffffffffffffffffffffffffffffffff8311156119e857600080fd5b8260051b80856040850137600092016040019182525092915050565b60006020808385031215611a1757600080fd5b825167ffffffffffffffff811115611a2e57600080fd5b8301601f81018513611a3f57600080fd5b8051611a4d6117a582611760565b81815260059190911b82018301908381019087831115611a6c57600080fd5b928401925b82841015611a93578351611a8481611568565b82529284019290840190611a71565b979650505050505050565b7f4e487b7100000000000000000000000000000000000000000000000000000000600052601260045260246000fd5b600082611adc57611adc611a9e565b500690565b7f4e487b7100000000000000000000000000000000000000000000000000000000600052601160045260246000fd5b600082611b1f57611b1f611a9e565b500490565b6000817fffffffffffffffffffffffffffffffffffffffffffffffffffffffffffffffff0483118215151615611b5c57611b5c611ae1565b500290565b600082821015611b7357611b73611ae1565b500390565b6000825160005b81811015611b995760208186018101518583015201611b7f565b81811115611ba8576000828501525b509190910192915050565b600060208284031215611bc557600080fd5b5051919050565b7f4e487b7100000000000000000000000000000000000000000000000000000000600052603260045260246000fd5b60007fffffffffffffffffffffffffffffffffffffffffffffffffffffffffffffffff821415611c2d57611c2d611ae1565b5060010190565b7f4e487b7100000000000000000000000000000000000000000000000000000000600052602160045260246000fdfea2646970667358221220d7e297a04c3bf4e170abf1c3ee672ce9d2b03dcf4320fb523ef8fab8df5b297a64736f6c63430008090033",
  "devdoc": {
    "kind": "dev",
    "methods": {},
    "version": 1
  },
  "userdoc": {
    "kind": "user",
    "methods": {},
    "version": 1
  },
  "storageLayout": {
    "storage": [
      {
        "astId": 9128,
        "contract": "src/bleeps/BleepsFixedPriceSale.sol:BleepsFixedPriceSale",
        "label": "_uptoInstr",
        "offset": 0,
        "slot": "0",
        "type": "t_uint256"
      },
      {
        "astId": 9132,
        "contract": "src/bleeps/BleepsFixedPriceSale.sol:BleepsFixedPriceSale",
        "label": "_passUsed",
        "offset": 0,
        "slot": "1",
        "type": "t_mapping(t_uint256,t_uint256)"
      }
    ],
    "types": {
      "t_mapping(t_uint256,t_uint256)": {
        "encoding": "mapping",
        "key": "t_uint256",
        "label": "mapping(uint256 => uint256)",
        "numberOfBytes": "32",
        "value": "t_uint256"
      },
      "t_uint256": {
        "encoding": "inplace",
        "label": "uint256",
        "numberOfBytes": "32"
      }
    }
  }
}