{
  "address": "0x7E9d034Da340eAeF2484C77a70fB7A75cFc8587e",
  "abi": [
    {
      "inputs": [
        {
          "internalType": "contract Bleeps",
          "name": "bleeps",
          "type": "address"
        },
        {
          "internalType": "uint256",
          "name": "price",
          "type": "uint256"
        },
        {
          "internalType": "uint256",
          "name": "whitelistPrice",
          "type": "uint256"
        },
        {
          "internalType": "uint256",
          "name": "whitelistTimeLimit",
          "type": "uint256"
        },
        {
          "internalType": "bytes32",
          "name": "whitelistMerkleRoot",
          "type": "bytes32"
        },
        {
          "internalType": "address payable",
          "name": "projectCreator",
          "type": "address"
        },
        {
          "internalType": "uint256",
          "name": "creatorFeePer10000",
          "type": "uint256"
        },
        {
          "internalType": "address payable",
          "name": "saleRecipient",
          "type": "address"
        },
        {
          "internalType": "uint256",
          "name": "deploymentCostToPay",
          "type": "uint256"
        },
        {
          "internalType": "contract IERC721",
          "name": "mandalas",
          "type": "address"
        },
        {
          "internalType": "uint256",
          "name": "mandalasDiscountPercentage",
          "type": "uint256"
        },
        {
          "internalType": "uint256",
          "name": "uptoInstr",
          "type": "uint256"
        }
      ],
      "stateMutability": "nonpayable",
      "type": "constructor"
    },
    {
      "inputs": [
        {
          "internalType": "uint16",
          "name": "id",
          "type": "uint16"
        },
        {
          "internalType": "address",
          "name": "to",
          "type": "address"
        }
      ],
      "name": "creatorMint",
      "outputs": [],
      "stateMutability": "nonpayable",
      "type": "function"
    },
    {
      "inputs": [
        {
          "internalType": "uint16[]",
          "name": "ids",
          "type": "uint16[]"
        },
        {
          "internalType": "address",
          "name": "to",
          "type": "address"
        }
      ],
      "name": "creatorMultiMint",
      "outputs": [],
      "stateMutability": "nonpayable",
      "type": "function"
    },
    {
      "inputs": [
        {
          "internalType": "uint256",
          "name": "id",
          "type": "uint256"
        }
      ],
      "name": "isOpenForSale",
      "outputs": [
        {
          "internalType": "bool",
          "name": "",
          "type": "bool"
        }
      ],
      "stateMutability": "view",
      "type": "function"
    },
    {
      "inputs": [
        {
          "internalType": "uint256",
          "name": "passId",
          "type": "uint256"
        }
      ],
      "name": "isPassUsed",
      "outputs": [
        {
          "internalType": "bool",
          "name": "",
          "type": "bool"
        }
      ],
      "stateMutability": "view",
      "type": "function"
    },
    {
      "inputs": [
        {
          "internalType": "uint256",
          "name": "id",
          "type": "uint256"
        }
      ],
      "name": "isReserved",
      "outputs": [
        {
          "internalType": "bool",
          "name": "",
          "type": "bool"
        }
      ],
      "stateMutability": "pure",
      "type": "function"
    },
    {
      "inputs": [
        {
          "internalType": "uint16",
          "name": "id",
          "type": "uint16"
        },
        {
          "internalType": "address",
          "name": "to",
          "type": "address"
        }
      ],
      "name": "mint",
      "outputs": [],
      "stateMutability": "payable",
      "type": "function"
    },
    {
      "inputs": [
        {
          "internalType": "uint16",
          "name": "id",
          "type": "uint16"
        },
        {
          "internalType": "address",
          "name": "to",
          "type": "address"
        },
        {
          "internalType": "uint256",
          "name": "passId",
          "type": "uint256"
        },
        {
          "internalType": "bytes32[]",
          "name": "proof",
          "type": "bytes32[]"
        }
      ],
      "name": "mintWithPassId",
      "outputs": [],
      "stateMutability": "payable",
      "type": "function"
    },
    {
      "inputs": [
        {
          "internalType": "uint16",
          "name": "id",
          "type": "uint16"
        },
        {
          "internalType": "address",
          "name": "to",
          "type": "address"
        },
        {
          "internalType": "uint256",
          "name": "passId",
          "type": "uint256"
        },
        {
          "internalType": "bytes",
          "name": "signature",
          "type": "bytes"
        },
        {
          "internalType": "bytes32[]",
          "name": "proof",
          "type": "bytes32[]"
        }
      ],
      "name": "mintWithSalePass",
      "outputs": [],
      "stateMutability": "payable",
      "type": "function"
    },
    {
      "inputs": [
        {
          "internalType": "address",
          "name": "purchaser",
          "type": "address"
        },
        {
          "internalType": "uint256",
          "name": "passId",
          "type": "uint256"
        },
        {
          "internalType": "uint256[]",
          "name": "ids",
          "type": "uint256[]"
        }
      ],
      "name": "ownersAndPriceInfo",
      "outputs": [
        {
          "internalType": "address[]",
          "name": "addresses",
          "type": "address[]"
        },
        {
          "internalType": "uint256",
          "name": "price",
          "type": "uint256"
        },
        {
          "internalType": "uint256",
          "name": "whitelistPrice",
          "type": "uint256"
        },
        {
          "internalType": "uint256",
          "name": "whitelistTimeLimit",
          "type": "uint256"
        },
        {
          "internalType": "bytes32",
          "name": "whitelistMerkleRoot",
          "type": "bytes32"
        },
        {
          "internalType": "uint256",
          "name": "mandalasDiscountPercentage",
          "type": "uint256"
        },
        {
          "internalType": "bool",
          "name": "hasMandalas",
          "type": "bool"
        },
        {
          "internalType": "bool",
          "name": "passUsed",
          "type": "bool"
        },
        {
          "internalType": "uint256",
          "name": "uptoInstr",
          "type": "uint256"
        }
      ],
      "stateMutability": "view",
      "type": "function"
    },
    {
      "inputs": [
        {
          "internalType": "address",
          "name": "purchaser",
          "type": "address"
        }
      ],
      "name": "priceInfo",
      "outputs": [
        {
          "internalType": "uint256",
          "name": "price",
          "type": "uint256"
        },
        {
          "internalType": "uint256",
          "name": "whitelistPrice",
          "type": "uint256"
        },
        {
          "internalType": "uint256",
          "name": "whitelistTimeLimit",
          "type": "uint256"
        },
        {
          "internalType": "bytes32",
          "name": "whitelistMerkleRoot",
          "type": "bytes32"
        },
        {
          "internalType": "uint256",
          "name": "mandalasDiscountPercentage",
          "type": "uint256"
        },
        {
          "internalType": "bool",
          "name": "hasMandalas",
          "type": "bool"
        }
      ],
      "stateMutability": "view",
      "type": "function"
    }
  ],
  "transactionHash": "0xd4a9ea3601017629982360a4ef74315fba2fe75bb754420cb9910843027b1fc7",
  "args": [
    "0x52AF1C006aD4A55aa448004f72923d7435827B7E",
    "100000000000000000",
    "100000000000000000",
    1637786026,
    "0xcf7822f4219192a59e103869d868e57fe47dfbddd3423a190582b672302a5533",
    "0xE53cd71271AcAdbeb0f64d9c8C62bBdDc8cA9e66",
    2000,
    "0x30A6DE1B27E83ea524284AB9A3fC74d77e9CDbeA",
    "3500000000000000000",
    "0x434BADEA3943c5B3D86366Fa03c77201B6770A75",
    0,
    2
  ],
  "linkedData": {
    "numPrivatePasses": 817,
    "leaves": [
      {
        "passId": "0",
        "signer": "0x947029A2eb209f2Fe5Edef26E559B859709e1fB5"
      },
      {
        "passId": "1",
        "signer": "0x32acaC19ff112fD56a60d2Cc549AaB7Db95590d9"
      },
      {
        "passId": "2",
        "signer": "0x81b0587045E56A4266117C54b8451fBF82ac9e25"
      },
      {
        "passId": "3",
        "signer": "0x3b6E6904bbC6E59300F21050Ef201b6C70a841d3"
      },
      {
        "passId": "4",
        "signer": "0x031E700701Db0E50bA4202f0EfE8d3Eae948B9e2"
      },
      {
        "passId": "5",
        "signer": "0xCAd0206EC8ADBAF33E6cA1dCdea10F46Fea4234E"
      },
      {
        "passId": "6",
        "signer": "0x514F874923aaC094d95CB1FD44043819e186A91f"
      },
      {
        "passId": "7",
        "signer": "0x224a004fa25e13F07D2b4Af4e04558125E29E669"
      },
      {
        "passId": "8",
        "signer": "0xaa5C5BC81930bC447CCD39E753b5845eE473b9D2"
      },
      {
        "passId": "9",
        "signer": "0x1a842C82355924848Bc74fE616a573C18Ecd5C32"
      },
      {
        "passId": "10",
        "signer": "0xCc959f3eA49E241336f598044e443d12c2e3bb34"
      },
      {
        "passId": "11",
        "signer": "0x055Be06D1413EeCfA6aDCB4BEfd687cd5FF2de68"
      },
      {
        "passId": "12",
        "signer": "0x6D560fb057B83ae829A9d2A6d0528140B99687dE"
      },
      {
        "passId": "13",
        "signer": "0x8F223A317220Cd8968965533CfD1F616b8DdDDD9"
      },
      {
        "passId": "14",
        "signer": "0x08BBb8078f73a5A019aECEc431744aFc0aCECE91"
      },
      {
        "passId": "15",
        "signer": "0xB5a1581e207Bc26329aa05d90F141553c7Fd2C39"
      },
      {
        "passId": "16",
        "signer": "0x89D0D035767B1056d48EA95e7098fe0093FA27C5"
      },
      {
        "passId": "17",
        "signer": "0xb8Cc6C7846EEa02f84E1302374C99906EaA1B26e"
      },
      {
        "passId": "18",
        "signer": "0x7c24Bc24D3516F780c9926A0e093b0B90Aa50845"
      },
      {
        "passId": "19",
        "signer": "0xae72356Fe1d59E79c9c0E4A0C3dD090F496179bf"
      },
      {
        "passId": "20",
        "signer": "0xe55e774e5794aC2E5D255557B5F5b413E7aBA1d3"
      },
      {
        "passId": "21",
        "signer": "0xdf1d54062e1546e9fa0ec46F281e2CeC65E0B861"
      },
      {
        "passId": "22",
        "signer": "0x0848d59e980DB7c016437ccD2086c561A518383b"
      },
      {
        "passId": "23",
        "signer": "0x6113e322d2b9f4A57152467ecA609C8BDa8C4E6E"
      },
      {
        "passId": "24",
        "signer": "0x02089553d21Ff49507D63402B9aa95f9A03781Bb"
      },
      {
        "passId": "25",
        "signer": "0x2001fb3365F1975069Ac1b7EFA2c036f9c0d50D9"
      },
      {
        "passId": "26",
        "signer": "0x84768f4cea28aE03FE94a6D9FcC5aAa4B5FA6A40"
      },
      {
        "passId": "27",
        "signer": "0x0fE983325756A826215c9799ed24bB3B03B25595"
      },
      {
        "passId": "28",
        "signer": "0x717FfB239675582940Ce28EB829D2D31CC604a33"
      },
      {
        "passId": "29",
        "signer": "0x6726Fb2c756f42F81d32a6125D204ebb8f6A25BC"
      },
      {
        "passId": "30",
        "signer": "0x0Db96AE681c6Ba4054aF54BAC98Bf9BaBB36358F"
      },
      {
        "passId": "31",
        "signer": "0x8428E43b218C109FB52023A18d04b1Afc9242f52"
      },
      {
        "passId": "32",
        "signer": "0xd7854209A8CBc203e9BD144e6E81A8Dee6fb805c"
      },
      {
        "passId": "33",
        "signer": "0x0A66F7373EE42Da40c85AB79f34F5D4b757cA1A1"
      },
      {
        "passId": "34",
        "signer": "0x125aa18Ba32F34496C600ECf7Aa37bC767e463d1"
      },
      {
        "passId": "35",
        "signer": "0xBCB14233325246fe9E93D43323586eA05F855E48"
      },
      {
        "passId": "36",
        "signer": "0x4C46acb42e8D70d06c6b8666446156F669D33ce3"
      },
      {
        "passId": "37",
        "signer": "0x900C5acd19830D923b0329287311f97D2a504986"
      },
      {
        "passId": "38",
        "signer": "0xA5800fc4082f99AC04892F4Df57b3DCC10740a58"
      },
      {
        "passId": "39",
        "signer": "0x88AC42C46743e86Ee9ec559BB1E4B1778a9dCbC2"
      },
      {
        "passId": "40",
        "signer": "0x29Fe924BcBF91616F5336D5deA3aE40a7425e434"
      },
      {
        "passId": "41",
        "signer": "0xD8CC94A3Ee80C5Cf1c64687dF3e68DB587BF3e54"
      },
      {
        "passId": "42",
        "signer": "0x55efFaAE32D671448755db16f48f5B3fB9038082"
      },
      {
        "passId": "43",
        "signer": "0x05954Cf86De0634e39B6e9690B6bC6B85980D9c9"
      },
      {
        "passId": "44",
        "signer": "0x79F8268e2d34433780Ea66fEfa2DB52fE88C484D"
      },
      {
        "passId": "45",
        "signer": "0x2aE913B44A199e4e72FF23c5F12b00d56Ac6FbB4"
      },
      {
        "passId": "46",
        "signer": "0x564EaFA41dc1CFc8F9617A27e0E1bd5f727cAc94"
      },
      {
        "passId": "47",
        "signer": "0xDf1987D16c16Ba01C746Ac34E7409A6b9461F2AB"
      },
      {
        "passId": "48",
        "signer": "0x34F97138E810B927838a73FA6C1381D723593d4f"
      },
      {
        "passId": "49",
        "signer": "0x5a6f7B2B969e0300971f4b05023c06E684563E33"
      },
      {
        "passId": "50",
        "signer": "0xb526BD2c5cE48933B27A6C11d6d46bdf27679c55"
      },
      {
        "passId": "51",
        "signer": "0xa443e3a277430fc51B283926E52d6d2474460B0c"
      },
      {
        "passId": "52",
        "signer": "0x8e64881f70dC3a0c1A3aE1B02732bA6664310D0F"
      },
      {
        "passId": "53",
        "signer": "0xAebdE8484E7BE493d45e45737779995b920441D6"
      },
      {
        "passId": "54",
        "signer": "0xf814629e446A2463C9e4DA4Fc2e8e1a08BC3CE0C"
      },
      {
        "passId": "55",
        "signer": "0xE1008f2f9aA4CFB5091DeF5eD84532E0e48C7b31"
      },
      {
        "passId": "56",
        "signer": "0x1366aF46Aeb03C1673Ff7b1752e6748C56B5270c"
      },
      {
        "passId": "57",
        "signer": "0xA2592bCB08CD366acfe5C0fc1CD491C96d41c478"
      },
      {
        "passId": "58",
        "signer": "0xBdb531c66BD596147761b5742EEf56c67aec76Eb"
      },
      {
        "passId": "59",
        "signer": "0x29C174897a330F20D0a42e4F6B17C06f706a2EbF"
      },
      {
        "passId": "60",
        "signer": "0xFb4d01BA9BF08a0802b18003Cd42B5B914023937"
      },
      {
        "passId": "61",
        "signer": "0x3276577b7810C21a0ceDC49B6AB358F6cEdc6103"
      },
      {
        "passId": "62",
        "signer": "0xfAC9f8e2EF6A9F85b59864f418b6bF7834Aea663"
      },
      {
        "passId": "63",
        "signer": "0x1D8afBae5e53F71bd7b7029D87CAa0550DD2b5C4"
      },
      {
        "passId": "64",
        "signer": "0xa7A7bE5d3B8f08CebaFBe5d8712a8ef72362B61a"
      },
      {
        "passId": "65",
        "signer": "0x34DdadDcB2C23abD8ee573025E840781b47F30a3"
      },
      {
        "passId": "66",
        "signer": "0x16e5269ea92ED023225c21E84c8235b9bC381717"
      },
      {
        "passId": "67",
        "signer": "0xd3d30963e92B7Ff86ed277B41F1429b291Be412E"
      },
      {
        "passId": "68",
        "signer": "0x4E82Fd9f53e9EF86cD8513A48Cf6325C962f2d34"
      },
      {
        "passId": "69",
        "signer": "0x2810970D5B045bbcd8e16742D981CFc7389b2Ca8"
      },
      {
        "passId": "70",
        "signer": "0x742Fdf74d52DB713bC35005f5F6ecE9a40597Ae7"
      },
      {
        "passId": "71",
        "signer": "0xA00D65B1847cDd245E6d3459106e0282B9B2e175"
      },
      {
        "passId": "72",
        "signer": "0xaE30B5E0ca4EfD0a3c3f8f47cF93dDeDB729e4B6"
      },
      {
        "passId": "73",
        "signer": "0xeF681B7601Ea9563d94ad75dCe8f16C348e12Ff1"
      },
      {
        "passId": "74",
        "signer": "0x84c735968c011c0a225bf983059aBd19Bc62779c"
      },
      {
        "passId": "75",
        "signer": "0x1a86DD5A85A945344625da0243f831E6C4867A63"
      },
      {
        "passId": "76",
        "signer": "0x21aA96d4B515a0880885bC233445539787C65B38"
      },
      {
        "passId": "77",
        "signer": "0x30Da93bb3265a9bd5C4152A7505365703a1Ff404"
      },
      {
        "passId": "78",
        "signer": "0xd0De9b9EFB635bc650fFE71373d2282A0EC0b433"
      },
      {
        "passId": "79",
        "signer": "0x4798e3C79EA1734E5919ae00a09a98ea62A71A13"
      },
      {
        "passId": "80",
        "signer": "0x7C4FDBF3A0fE18fd7cEEDB0f6E0Cb628896FF1E8"
      },
      {
        "passId": "81",
        "signer": "0x3240074D9C127761F705254524d1D840598Efb91"
      },
      {
        "passId": "82",
        "signer": "0xeFb004EE66F32C1087f52f2d11B1795C459FAFd3"
      },
      {
        "passId": "83",
        "signer": "0xc37B6Cd9B9642B4B53dACF50Ed186e9119aD33Ac"
      },
      {
        "passId": "84",
        "signer": "0x8ecb7a39c4203EaccFF4f9643982A3756052dbaF"
      },
      {
        "passId": "85",
        "signer": "0x3671e9121EAAFA10147610ec6FE60acecC8Da45D"
      },
      {
        "passId": "86",
        "signer": "0xa1E772817DB5bD6CDf4Ce4c1F9464b6F825263AD"
      },
      {
        "passId": "87",
        "signer": "0x6d0002584656bE470617755ba87bE3dA8B1E242a"
      },
      {
        "passId": "88",
        "signer": "0xAD6d40aC44F1E3D8c26C1539D2f197faD5FE23e4"
      },
      {
        "passId": "89",
        "signer": "0x2244E9159db0149Fb1B98E1d2b74cC97C8cD9f99"
      },
      {
        "passId": "90",
        "signer": "0x90A445e604c6E116Ad9015CE1Ca656Aa6539A9Cc"
      },
      {
        "passId": "91",
        "signer": "0xcD079055bd71785Ce89435FA82d2d02B6F7D5b2b"
      },
      {
        "passId": "92",
        "signer": "0x2983Ef9741c1C1110ED0a48349637d95f08d1504"
      },
      {
        "passId": "93",
        "signer": "0x39e024bb52AbA778b0a2B9d59b4f7CB74B3f5B2D"
      },
      {
        "passId": "94",
        "signer": "0xFE929e860AE067202b25A0510b9b8AFCf508199C"
      },
      {
        "passId": "95",
        "signer": "0xB6c429E557888184d187Cad591c1b6560124ae78"
      },
      {
        "passId": "96",
        "signer": "0x40688578CA27358Ed9CF1130330a072a88b64dCC"
      },
      {
        "passId": "97",
        "signer": "0x258869E53b2a64e6BB8CAe803dB3FdADF535035F"
      },
      {
        "passId": "98",
        "signer": "0x1012a8c9814C88033ddDE00dbaa53DB20cD1B650"
      },
      {
        "passId": "99",
        "signer": "0xd9FB7ba9A1461754807A01703336b87fa798c414"
      },
      {
        "passId": "100",
        "signer": "0x2e0FC8b4Eb4243995284129892FdFf173766320a"
      },
      {
        "passId": "101",
        "signer": "0x416Fa9cF796670c053B9d1227Ee38E097F5B2795"
      },
      {
        "passId": "102",
        "signer": "0xe8Fd16a0731F766BA6Fbd0080a6db156b63bD6df"
      },
      {
        "passId": "103",
        "signer": "0x225Dde1bf8C333842496aB8433cfC26D84c1487c"
      },
      {
        "passId": "104",
        "signer": "0xb381688C2d97d77475aD9DfD007495f84cEA6E73"
      },
      {
        "passId": "105",
        "signer": "0x8525e40A3906C56aeC9cFd68fe63A5978Df6aaFA"
      },
      {
        "passId": "106",
        "signer": "0xD20488241005ac084d5AFeF585E51372907642dC"
      },
      {
        "passId": "107",
        "signer": "0x714Bc814d6974549C9503d599727adfdDff1b4D0"
      },
      {
        "passId": "108",
        "signer": "0x3956bE8305975A8cD7F6eF305973Bb3bC6b445db"
      },
      {
        "passId": "109",
        "signer": "0x2b2229e21aD5459fE54E865E7520B0e6E1CbccF0"
      },
      {
        "passId": "110",
        "signer": "0xA82BCd2e126200deC9E06B3978e8b03d4f4Dd7E1"
      },
      {
        "passId": "111",
        "signer": "0x96BDD88E32C9738c18baB8bf1136107AcddC3B89"
      },
      {
        "passId": "112",
        "signer": "0xda44374D811147427f76397564b96c0513AD94E9"
      },
      {
        "passId": "113",
        "signer": "0xC5A87faA7Fc00b2358CB34F8E2eb27e7AE93ba70"
      },
      {
        "passId": "114",
        "signer": "0xEB3cc5a1F20350Cb2b18165dDE8722321185ecc3"
      },
      {
        "passId": "115",
        "signer": "0xBE06142098c02d06ed92D35F674c83E3B2BFAB83"
      },
      {
        "passId": "116",
        "signer": "0xbF9Cd3b7a37DfDC7560F113cf57b2E78d4Fa919E"
      },
      {
        "passId": "117",
        "signer": "0x1Ebb443Aea0d1DFF5fb226cfCf1eB2add227f165"
      },
      {
        "passId": "118",
        "signer": "0x99A961eC48EDEC08363b3Eef294Fa9fa79E21A1D"
      },
      {
        "passId": "119",
        "signer": "0x8fa14f83490ca7FD5abf5F252444F0E9213c1C2c"
      },
      {
        "passId": "120",
        "signer": "0x5aD4993d905d037E96Bf7aAB0F8C009982777C52"
      },
      {
        "passId": "121",
        "signer": "0xFD2e3033930adEfDf77B0b7cE6cAcd6877706E4F"
      },
      {
        "passId": "122",
        "signer": "0x59C10481F012DF7a579870518c53b571eBED67d7"
      },
      {
        "passId": "123",
        "signer": "0x2b73Cb0fc77388e731F5f956c6EBB68813f30B43"
      },
      {
        "passId": "124",
        "signer": "0xb395f823F6AB2185Fd43703c2571EbaFDfe924F0"
      },
      {
        "passId": "125",
        "signer": "0x919c2cb787099571714A7cCbCC140f6533d8030C"
      },
      {
        "passId": "126",
        "signer": "0x0b9E8D299c30604c2956151166ed69746359CD3D"
      },
      {
        "passId": "127",
        "signer": "0x388e0269b90BE63B8BB64e1c2f7185495a642Ba0"
      },
      {
        "passId": "128",
        "signer": "0x7Aa74416E347982F843aad937eBDa5476B341707"
      },
      {
        "passId": "129",
        "signer": "0xF1F139bC89916F19DaBB00FdF25A617d7E7e0aF6"
      },
      {
        "passId": "130",
        "signer": "0x8Ce2A77Fe9CA6E645f7840C9873db3a83f9c4F28"
      },
      {
        "passId": "131",
        "signer": "0xDD764186d827Bd55Bb30344d745b287b309F753a"
      },
      {
        "passId": "132",
        "signer": "0x590006D7A0Bf9cD6Fd08cF72763153412Dd0c018"
      },
      {
        "passId": "133",
        "signer": "0x051C04bD75f4EB644eE6C277B791A64b0D07E723"
      },
      {
        "passId": "134",
        "signer": "0xD3853BE8496F11B26d945DDA442a30F0170893FD"
      },
      {
        "passId": "135",
        "signer": "0x9DB76BbD281680eeB7f187B4fE30b1933151Ef78"
      },
      {
        "passId": "136",
        "signer": "0x3e1AF9a56F2eA17969d5694B6501De5257804Ce8"
      },
      {
        "passId": "137",
        "signer": "0x83177b8E8DF57bd1cBfe2afEEd14c066B8a9441a"
      },
      {
        "passId": "138",
        "signer": "0x0ab1E1c1b228165Cc2A6AD8C235073c1d5BeF001"
      },
      {
        "passId": "139",
        "signer": "0x32272A6409bfd7de52444Bf2126FBAEB191B12b9"
      },
      {
        "passId": "140",
        "signer": "0x7bc158b760281fe028F241e6063B26252220D4b1"
      },
      {
        "passId": "141",
        "signer": "0x5C9EE92B93dD1218A091ca6f4DC0a4924C603126"
      },
      {
        "passId": "142",
        "signer": "0x523Cf83870f611cC2243C0B158085819F5C8e3D1"
      },
      {
        "passId": "143",
        "signer": "0x851F0f7dB3b04C90b09808ed16F1CE70bF9b0caf"
      },
      {
        "passId": "144",
        "signer": "0x255Aa3310b59A4C4B7be67dB1A4e0118Ff58Ec84"
      },
      {
        "passId": "145",
        "signer": "0x5898C574a29d83f47d983Ac84B9042b9c48dd863"
      },
      {
        "passId": "146",
        "signer": "0x826F7aB40A32389798590300924e3476c8b4e30A"
      },
      {
        "passId": "147",
        "signer": "0x1C1E55D697DF9269354Ea527ba23b84C6E2F7645"
      },
      {
        "passId": "148",
        "signer": "0xea4cbFF5E63107Bbd85d9E8B5a50643346c32705"
      },
      {
        "passId": "149",
        "signer": "0xa11436552667302F3494a9Bfb5716529BEa97070"
      },
      {
        "passId": "150",
        "signer": "0x206338472ebF7Df282DF18B8B5C6542880298fF8"
      },
      {
        "passId": "151",
        "signer": "0xD9494047b1150f55f03D11123F3b0805F08Ff1d4"
      },
      {
        "passId": "152",
        "signer": "0x5C1278919F9b21F13D778aB48056Ada58313C024"
      },
      {
        "passId": "153",
        "signer": "0xAA495Df612dea6da3F05b9E1f88D6Bc87f0503Eb"
      },
      {
        "passId": "154",
        "signer": "0xEA380d42cCC3F438B59F654F7B7b04df896fE8CD"
      },
      {
        "passId": "155",
        "signer": "0x43B0D6f1Ffaae8015c2642fF452567C353bFDb4e"
      },
      {
        "passId": "156",
        "signer": "0xD1548B7F8f78D7fEDc84fBE74391B063C3faa856"
      },
      {
        "passId": "157",
        "signer": "0x01B46E401d481dd67aBaa033cEAE3f5576274924"
      },
      {
        "passId": "158",
        "signer": "0xE718A1e3576E7fCc9429925CB4F46B3b3c694b66"
      },
      {
        "passId": "159",
        "signer": "0x3dBc36E98b706F6705df7039CE2e895452e9Eb68"
      },
      {
        "passId": "160",
        "signer": "0x8BCF37dCDE5d58dA5F22Ac9f1603105aa9E2312F"
      },
      {
        "passId": "161",
        "signer": "0x4365C43aE9B77845902F0E6b5FaC20bb4BdCd44c"
      },
      {
        "passId": "162",
        "signer": "0xe299cfCDdb7dee4EaE3085E5e188CDd063f9EfE8"
      },
      {
        "passId": "163",
        "signer": "0x98A991ca526dD64Ef4076c01c039710656C64Ccf"
      },
      {
        "passId": "164",
        "signer": "0x82282a629cDe6BE98BA6D21c083303C766480760"
      },
      {
        "passId": "165",
        "signer": "0xB880115871FB776EBc035059Dee9f978F19da8c3"
      },
      {
        "passId": "166",
        "signer": "0x78c73ED2D62d760e264280240Cf4E01D0537d36C"
      },
      {
        "passId": "167",
        "signer": "0x7df3aFB6eb369c12952422122CcFa4b711B78906"
      },
      {
        "passId": "168",
        "signer": "0x7C045a09a8882f300E4bCd4c80C41da55C0fA041"
      },
      {
        "passId": "169",
        "signer": "0x317BdDa9e5Ea21C7113A61bB94e7278169E1Da47"
      },
      {
        "passId": "170",
        "signer": "0xfD0932A5A57d13dF9d82CE8c374b40724EddD165"
      },
      {
        "passId": "171",
        "signer": "0x46f657e050A32902427318AA640894240ee427e8"
      },
      {
        "passId": "172",
        "signer": "0xF6DFfB93Eed08868c2067b73239d7320A9CD8024"
      },
      {
        "passId": "173",
        "signer": "0x1bC54a5Dd533eCD21332bAa576734A4049819281"
      },
      {
        "passId": "174",
        "signer": "0x431e0de54257CEa5352E54C82CC960f0C244D1fd"
      },
      {
        "passId": "175",
        "signer": "0x9112729Bd1979bde4F24E5Ae797C5e4d217E9a39"
      },
      {
        "passId": "176",
        "signer": "0xbC5f35c8187C8cea1704130564dCAcaBCFAcce66"
      },
      {
        "passId": "177",
        "signer": "0xB66747d3c9b53F2f67dC2fcA3AFEFB28964DD363"
      },
      {
        "passId": "178",
        "signer": "0x7DA078Ee60F4B0DB7577cb2Fb9f966be0886015B"
      },
      {
        "passId": "179",
        "signer": "0x363f44fF3696b76aDA5dc6C4562A4287211a0cA7"
      },
      {
        "passId": "180",
        "signer": "0x4f3514AF345467e4739cC1aB742C8bE17b0f6805"
      },
      {
        "passId": "181",
        "signer": "0x24e3EccB15408f2Cc3AD793869409583C41D8738"
      },
      {
        "passId": "182",
        "signer": "0xd79EB74f81Dd2625bE1bEbDC6CbC8a8F9136a882"
      },
      {
        "passId": "183",
        "signer": "0x671A9f65d4Fcc610113f4579EE8116B3dB53aA55"
      },
      {
        "passId": "184",
        "signer": "0x905E0DB0cB32eD488B782752b977d4f321c79310"
      },
      {
        "passId": "185",
        "signer": "0x94B92BFE6e1399684159d0D39cC3BB3f3C5F5C8c"
      },
      {
        "passId": "186",
        "signer": "0x7116745a8207c34BF454CCC9A323657c4003f4b3"
      },
      {
        "passId": "187",
        "signer": "0x17bd1e03E7dB5f2544Eec3d788F6989a9E8264F8"
      },
      {
        "passId": "188",
        "signer": "0xBd0aFd5Ac5605E62c3be2e708Db9e8f9b1931f91"
      },
      {
        "passId": "189",
        "signer": "0x3EeA10029f9f93E4D2EA25E08166D4e2eD21746E"
      },
      {
        "passId": "190",
        "signer": "0x8a88Fb6A81c9bB26D19dE683D4D0E3fB930ce3b2"
      },
      {
        "passId": "191",
        "signer": "0xc5De36dCF114d044F90e874420e8cb65F105caEb"
      },
      {
        "passId": "192",
        "signer": "0xF1be2c2200A76C9fC8E6c00886Fe605a6d8A7b4d"
      },
      {
        "passId": "193",
        "signer": "0x8423c048E2b87443e4024cFf173B7e851af35B89"
      },
      {
        "passId": "194",
        "signer": "0xd289B5023490e8855aBcEbD1262c348168745d80"
      },
      {
        "passId": "195",
        "signer": "0x755ea3dca9622Fa6ba753D0692FF68a8A3c01a48"
      },
      {
        "passId": "196",
        "signer": "0xcc791dbbE3e7cC8CedcB79A3605aD26Eb93391b6"
      },
      {
        "passId": "197",
        "signer": "0xF3F870cB937072468C303496E02842dDA54A8D59"
      },
      {
        "passId": "198",
        "signer": "0x7B13b5fF445a15D10CBE86C6d5eD0725d195D989"
      },
      {
        "passId": "199",
        "signer": "0xC1c5C302Ca9aaefd4C0E628e81dF60BE868C12eC"
      },
      {
        "passId": "200",
        "signer": "0xB4d7eAcf6e67Ee47c1Fa790Bfa84a4D8d20d4C81"
      },
      {
        "passId": "201",
        "signer": "0xB742744F86d3F8Ce42539Fa573F8a37cBA5Edc3d"
      },
      {
        "passId": "202",
        "signer": "0x06b127b0396DC93bC1d80E6949bf7ac1A13dD773"
      },
      {
        "passId": "203",
        "signer": "0x48013B15A349C8B1ec35377a426A0662df283490"
      },
      {
        "passId": "204",
        "signer": "0xd9D9C5d527c6be5dC5fCb54e17AaD72DDcEbf930"
      },
      {
        "passId": "205",
        "signer": "0xa85AAcda9b26f2D7DCdef9F59a5B62C7b65ff900"
      },
      {
        "passId": "206",
        "signer": "0x6a9efE8B0f41f1628846b5A50b7e9739D3B83A17"
      },
      {
        "passId": "207",
        "signer": "0xB5e3d22405c9f71c114F5E49778dCa3693c9Aa33"
      },
      {
        "passId": "208",
        "signer": "0xf4bF63A8ccf915e420cc736fC7bc7D74B965c6Af"
      },
      {
        "passId": "209",
        "signer": "0x68D1b97Ba8366624Da71378b893561fB4c599c1A"
      },
      {
        "passId": "210",
        "signer": "0x23620ED5C39Fa2A79BeF4Da3b3dF3b57ed82914D"
      },
      {
        "passId": "211",
        "signer": "0xbf65177eE7a0EDc9A81Be92fe54e729F4Dc7f037"
      },
      {
        "passId": "212",
        "signer": "0xAf1c4b428eAA614de1aaef5285536D5665484d15"
      },
      {
        "passId": "213",
        "signer": "0x1Af3b2753b9D24D3F00867e402f07cEC68315DFD"
      },
      {
        "passId": "214",
        "signer": "0xb6fd89DC79FF8080A4fa98a6d45a3cCbC88D595d"
      },
      {
        "passId": "215",
        "signer": "0xDB46ba88db09acF6fF199D7d08C0346C9F0Ed5a6"
      },
      {
        "passId": "216",
        "signer": "0x40A7D393A41DE56754E98651bb54D1BA5601Ca40"
      },
      {
        "passId": "217",
        "signer": "0x00781B9beEBb8CB3ef1695f0ac9C4049c7f15cb5"
      },
      {
        "passId": "218",
        "signer": "0x556CcED781CE7B98B52aa03566ba194F332bC187"
      },
      {
        "passId": "219",
        "signer": "0xBb30fBDBD3E696e733bEa04b041Dc1D20Ce7969e"
      },
      {
        "passId": "220",
        "signer": "0xEcADA1098C50A9353CD6Ce952eB979343B8B6D82"
      },
      {
        "passId": "221",
        "signer": "0x00FaDeAD98c88097707b84E6b7dEb4716579b45b"
      },
      {
        "passId": "222",
        "signer": "0x5409D3a3Bb3F93AE027e43d17F312Af2c2cCDfE7"
      },
      {
        "passId": "223",
        "signer": "0xDAa366d52ad63a0B0E263E39cb10Eb06cf8A53AF"
      },
      {
        "passId": "224",
        "signer": "0x3a36b1C6B01cBbf0BA6F5ee33Fa4F2Fb600a042F"
      },
      {
        "passId": "225",
        "signer": "0x66eb93EA5536D53957414F51C0c8215c3F6550C1"
      },
      {
        "passId": "226",
        "signer": "0xfDaA6a2664A40BCa2d3D4af9252Ba84a572681F3"
      },
      {
        "passId": "227",
        "signer": "0x072bFBE7d67A7EdAC21C55fB575820563d8D2111"
      },
      {
        "passId": "228",
        "signer": "0xaCbde9d3be0156723d3459B7114C2324Bb219F7b"
      },
      {
        "passId": "229",
        "signer": "0x7CE0E9328eE8005FdB2622e7C940F767a8006270"
      },
      {
        "passId": "230",
        "signer": "0x9C0798cdF2D549a7cA9BcFe42c4759687cF7db3d"
      },
      {
        "passId": "231",
        "signer": "0x8dDebbC92336A98B2D5aC867463d203E4cB67512"
      },
      {
        "passId": "232",
        "signer": "0xDFE900b65D30831b3739F2B29d78Be9083bc7d54"
      },
      {
        "passId": "233",
        "signer": "0xf6B226538c50D37AB20aA7A34179994500017176"
      },
      {
        "passId": "234",
        "signer": "0x43fcA7301881f67295bb3E73e5882cb112155EeB"
      },
      {
        "passId": "235",
        "signer": "0x0A725Ae7f7C16E2fF9B68F2C5aE008471A0868a4"
      },
      {
        "passId": "236",
        "signer": "0xaF0D897a3CBc60fd406b9A6c7C3E82C8fd6423C2"
      },
      {
        "passId": "237",
        "signer": "0xee84D9b96F0773f6C09f694D89b65C31Ad936483"
      },
      {
        "passId": "238",
        "signer": "0xc8130C40e2e05005BAe35eE0bAD164Cf7522b0C4"
      },
      {
        "passId": "239",
        "signer": "0xeBc049E087aD6E2B0989324F29e20dfB92eaFB34"
      },
      {
        "passId": "240",
        "signer": "0xC32eB7b0560E6740DfAe844074F0Cea1Cf18198d"
      },
      {
        "passId": "241",
        "signer": "0xA4379beE4D0F4Ac1459aDD004ed2E9b4C5A5e2a7"
      },
      {
        "passId": "242",
        "signer": "0xd458c5aaBdae361C559c88b5C7EB4F0556E36A4B"
      },
      {
        "passId": "243",
        "signer": "0x1B53F128F4817006C9776826F66472fDE242EB91"
      },
      {
        "passId": "244",
        "signer": "0x545B28950530a3832277DdD9691A9B8e39d1D473"
      },
      {
        "passId": "245",
        "signer": "0x3A95b3e78F0395d83E51CEca6B05662226F056A1"
      },
      {
        "passId": "246",
        "signer": "0x08807e676FB1d1dA2eee5D2928473304a8727a8F"
      },
      {
        "passId": "247",
        "signer": "0x088108A5aD66055D8F322d853b03934d4916A1B5"
      },
      {
        "passId": "248",
        "signer": "0x4f6c4409e5bA20B613a5A0074287f95E11FD9fBc"
      },
      {
        "passId": "249",
        "signer": "0xEB27defCfdAFB35CCc479828cFc6614A2b501Ae2"
      },
      {
        "passId": "250",
        "signer": "0x9D0028F674D254B4e80B8d52C53812b1d699289a"
      },
      {
        "passId": "251",
        "signer": "0x42e7A0D0e2749c5e04aC7B9Ca76edcAA0fFe5384"
      },
      {
        "passId": "252",
        "signer": "0x7C68556CB710224C3d335e66648Fb2558bd22857"
      },
      {
        "passId": "253",
        "signer": "0x152d30a00Deb45F4339C4e79B9DC345Cdfd7fe2D"
      },
      {
        "passId": "254",
        "signer": "0xC13E5b5EAdFef4f2d5d98FB4D535cA17ed46205a"
      },
      {
        "passId": "255",
        "signer": "0x48B1E63F9DeFD5e66480dE364a0c1EbF5BEbd89F"
      },
      {
        "passId": "256",
        "signer": "0x913f06B7D5c0f8777A7e5219F60DC7C8c85d5FAb"
      },
      {
        "passId": "257",
        "signer": "0x4F4d16a12333cae84ECFb38A7689fd613aF149F8"
      },
      {
        "passId": "258",
        "signer": "0x7B780146EC64aB23bC9d3630EEa685d69Dd71668"
      },
      {
        "passId": "259",
        "signer": "0xbdeFfF0B9E6e22E83B885661CA20F6eC60DC1e97"
      },
      {
        "passId": "260",
        "signer": "0x09C750422e88063bADdE5fF6e18a71E08A1f9d21"
      },
      {
        "passId": "261",
        "signer": "0x2eB56c334eF600A57558f8c37B4724d2472f033a"
      },
      {
        "passId": "262",
        "signer": "0x550DBbA19d05dcbf2c5aB46C9285f41d32CC5947"
      },
      {
        "passId": "263",
        "signer": "0xFAd06a6A89E970443657dbFf810c8C9E2DF92fEc"
      },
      {
        "passId": "264",
        "signer": "0xBeA9D58a0E3A3F7216414c40BF77da219DD4818D"
      },
      {
        "passId": "265",
        "signer": "0x09b44E8f603BF3a29b47C28b990Ee106a62277Be"
      },
      {
        "passId": "266",
        "signer": "0xa507Fb821dDDa77a6Afe558Cf3361bd36Da0566A"
      },
      {
        "passId": "267",
        "signer": "0x1dCf084070C397B3CFBe315e12904614c960705e"
      },
      {
        "passId": "268",
        "signer": "0x51E1b7ef7FDddBaFdb9662f3dCe4Fa73BC94A568"
      },
      {
        "passId": "269",
        "signer": "0x338ab8E4f40eB591B6b1301ea1fedAf07037Dcbb"
      },
      {
        "passId": "270",
        "signer": "0xBaB5A5D258b55430EbD4cdAfA62aaddbc4d6D650"
      },
      {
        "passId": "271",
        "signer": "0x951454c3f72aD3e76E843805815b5869A6ad9Bdd"
      },
      {
        "passId": "272",
        "signer": "0x16478332aB3e58E2f425542B9636C5184C0836CF"
      },
      {
        "passId": "273",
        "signer": "0xEa7D7E1e0C693D064DeCDFb477558aeD3f284016"
      },
      {
        "passId": "274",
        "signer": "0x7c90ebe5F3Cf0842E795a545Eb3548293B2DB2a1"
      },
      {
        "passId": "275",
        "signer": "0xeFbF3608B9d1BB7A4b6B878E59A6E375edaac30c"
      },
      {
        "passId": "276",
        "signer": "0x263Ea43a668f10f94D884fAebC93312eF7a31cE1"
      },
      {
        "passId": "277",
        "signer": "0xffaDE6225D4CD0189160094c2Dd68D85172B9F31"
      },
      {
        "passId": "278",
        "signer": "0x188b3684F8E754369630a8f1Cb38127CB38aaB88"
      },
      {
        "passId": "279",
        "signer": "0x781C26C7815771Fe6da8C65E047a2b418a9a2e30"
      },
      {
        "passId": "280",
        "signer": "0xa350bAf11EF3C1f6e99A677d46940B6cDaf25e13"
      },
      {
        "passId": "281",
        "signer": "0x31873B3fB5516bF243a0211cE3F501AFA6dC4EE8"
      },
      {
        "passId": "282",
        "signer": "0x57cbdB8a814Ebc2B85A6C1333fd1D1047055FB9C"
      },
      {
        "passId": "283",
        "signer": "0x7eD7938ED71a31f090c1733d57D433f5378e1ec0"
      },
      {
        "passId": "284",
        "signer": "0xda0f305023ae298c022bc55f1daE06BF9610DC20"
      },
      {
        "passId": "285",
        "signer": "0x05A8157861D2051FeF554C1035D0D190f8593eC6"
      },
      {
        "passId": "286",
        "signer": "0x53C131037d6D7D126055ED0dfE3EE59D39aa20A6"
      },
      {
        "passId": "287",
        "signer": "0x90FEbc79c4D0F2D278D7b981B3e1F083fFAe6E59"
      },
      {
        "passId": "288",
        "signer": "0x0ff137137d7ef4fcA41B9635376AfBe42A56fae8"
      },
      {
        "passId": "289",
        "signer": "0x7195F6F63e5F99dB181330ECdE29bc45f12b962A"
      },
      {
        "passId": "290",
        "signer": "0x3BBdDc28Ca39e1a48fCe91Dd438c8A890c11146a"
      },
      {
        "passId": "291",
        "signer": "0x668E85a6e618A4E352d5f941FcD78CC3Fe63d7f1"
      },
      {
        "passId": "292",
        "signer": "0x99dEfA79C7c6a787Ce74FFE2121cd6Fb18972E06"
      },
      {
        "passId": "293",
        "signer": "0x8d2E359035d679f05bf9e9E8870B26972C0360b9"
      },
      {
        "passId": "294",
        "signer": "0x0d1aC7Cc4f92C5cd346B8ad1BD8F302fa5cbB571"
      },
      {
        "passId": "295",
        "signer": "0x0FB1Be60cfB2E376A4a4C79ac4690dCFb7F2a510"
      },
      {
        "passId": "296",
        "signer": "0x936a818EFA990ac68Bd2425c2f8E3B00f4c74421"
      },
      {
        "passId": "297",
        "signer": "0xB35a5D5fFec28F16D53875EfD79d4e5360056a21"
      },
      {
        "passId": "298",
        "signer": "0x55a656d261424B90360D2aE418E7Ea86e2bA4240"
      },
      {
        "passId": "299",
        "signer": "0x03C0586720657FC015CcEa70d5B5DcFda3eeA5cF"
      },
      {
        "passId": "300",
        "signer": "0xf0e6F4D327cBF17F32Aa08EA8Baa1B5fa240b41A"
      },
      {
        "passId": "301",
        "signer": "0x6E5Ed5fb08fff06d695fC89cDd425da049CefD29"
      },
      {
        "passId": "302",
        "signer": "0xDC69CDE0f9e9B2D2118A95cc413Aa3C5f017Cb40"
      },
      {
        "passId": "303",
        "signer": "0xfbe081d3010A61bE1074d292a7E1E590B3198886"
      },
      {
        "passId": "304",
        "signer": "0xd71eD26c95eCB5Cf0352B82cF1800829b6794Bef"
      },
      {
        "passId": "305",
        "signer": "0xC670884504FfD6C40074d52d52d71c3fb5fCE797"
      },
      {
        "passId": "306",
        "signer": "0xAf04579f12422321D4893802d3bFeda9fBDC59ae"
      },
      {
        "passId": "307",
        "signer": "0x6741BD2B02425cE12350bd61B69577dba3802A2d"
      },
      {
        "passId": "308",
        "signer": "0x49f0b1BcE9b12C5F55100977228Ef0C1041176fa"
      },
      {
        "passId": "309",
        "signer": "0x842Fc5152a0A0f027928221cB11f5F174D65AF55"
      },
      {
        "passId": "310",
        "signer": "0x95A02E35134A19DEebEb9A9ca2f653503360A5d7"
      },
      {
        "passId": "311",
        "signer": "0x22C3Cce7b8544BC6ff3Fe7EC09Db522dcD944762"
      },
      {
        "passId": "312",
        "signer": "0x9F94Da1aEcc857d2096b7Db4FAd503F42273DB84"
      },
      {
        "passId": "313",
        "signer": "0x54d05604AA136EeC7108e95c0CD7C84CbfcAFFFB"
      },
      {
        "passId": "314",
        "signer": "0xBB7726Cb395E06921Ba9A3eeBF6b382Ce9aBFB8B"
      },
      {
        "passId": "315",
        "signer": "0x6b1baa8303Ca48EC7b053D5d0A48F2B3326b27D3"
      },
      {
        "passId": "316",
        "signer": "0x039e7FdBECc474e7a47B598C0FF8B56c2a20D85A"
      },
      {
        "passId": "317",
        "signer": "0xf2e3B245Dd37De76b4AdCe206B04dA80560f175b"
      },
      {
        "passId": "318",
        "signer": "0xc4d3C68B8B4c3440e2cEb8855915Cb9831268E18"
      },
      {
        "passId": "319",
        "signer": "0x7ca7326BcD501c3958c812A1A72faC11eB5Cb0Bd"
      },
      {
        "passId": "320",
        "signer": "0x1aa6C8c6f6913456fAD4f483Aa65272D55a73055"
      },
      {
        "passId": "321",
        "signer": "0xa9786d150362E627E45ea2beef88a15D80bEd711"
      },
      {
        "passId": "322",
        "signer": "0xa1885652ADb17Fc41bf68C1C5345FEC706Fd379f"
      },
      {
        "passId": "323",
        "signer": "0xc0Ef0F68cEb1848113357c8BA83c9A0e3B17aDdA"
      },
      {
        "passId": "324",
        "signer": "0xb8AE6b6A4212F8d97674C10Eea3467d5CA04Cb83"
      },
      {
        "passId": "325",
        "signer": "0x1a5dB4E31dA44277Ed53B901e99FD2933e0A2906"
      },
      {
        "passId": "326",
        "signer": "0x2663bDa47B17ae44Bb7F508c80C385F83737E048"
      },
      {
        "passId": "327",
        "signer": "0xdc27d9571A2795B93599aFA787cd56A50Cebf2A0"
      },
      {
        "passId": "328",
        "signer": "0x7c75B4062e5717D5687AB45d5481Bfe2dA2D9F77"
      },
      {
        "passId": "329",
        "signer": "0x719f05f6fc132a83DDBE744092a399A6795875C2"
      },
      {
        "passId": "330",
        "signer": "0x077A74b134e546daA41647A5b36462d7F5e8C41c"
      },
      {
        "passId": "331",
        "signer": "0x087971C5De0b862deb02AEED2dBDE4F938BA6614"
      },
      {
        "passId": "332",
        "signer": "0x98dBf3bD1A41A02cd403D38809344Bb3CE7376de"
      },
      {
        "passId": "333",
        "signer": "0xefb4E86765200F861D458C4c3a8F906568607f26"
      },
      {
        "passId": "334",
        "signer": "0x75532F04Bc0a0e187F7e2D5dc49A651CC7470cDA"
      },
      {
        "passId": "335",
        "signer": "0xEB9ad3bC5a7735075689613Ecf90917921De0dF8"
      },
      {
        "passId": "336",
        "signer": "0xb49f3089DaA43caDBdD359857dB299a565aC3E77"
      },
      {
        "passId": "337",
        "signer": "0xd2a7A82C003D0656869FF3691a6A785C7a7Ab842"
      },
      {
        "passId": "338",
        "signer": "0x7Ac78584a2FAe2e9365Aa532D544C521c21456E1"
      },
      {
        "passId": "339",
        "signer": "0xb6118ACA124dC8307720d44789a9Dedf8F892c88"
      },
      {
        "passId": "340",
        "signer": "0x63A27c5a1DE5FE7bdE3F01d2B687b2DC59AC4A6a"
      },
      {
        "passId": "341",
        "signer": "0xd9cD2d825e39159F9085e60c376ccDDE81f01153"
      },
      {
        "passId": "342",
        "signer": "0x6622E29f86d647d618dfb75e93b264ce59949C09"
      },
      {
        "passId": "343",
        "signer": "0x229Af43B2e427c4d32123bfF531aB3A63d2fA1A4"
      },
      {
        "passId": "344",
        "signer": "0xa5c1e65F8a5aCDb6d3528CC1F62557EFDc4E4C82"
      },
      {
        "passId": "345",
        "signer": "0x30E20C5C47B51EEB440E8c975bFB6ca9364B4C4e"
      },
      {
        "passId": "346",
        "signer": "0xC3053939B62203185F387b32638276d4631dD6ae"
      },
      {
        "passId": "347",
        "signer": "0xb4A38079E717DC26c987aFb0fFaC970012f5283F"
      },
      {
        "passId": "348",
        "signer": "0x903bD4497a1D38041308eD126FC79019fDD9A438"
      },
      {
        "passId": "349",
        "signer": "0x8c58a38cf60836BBB261A0807785aBef25070897"
      },
      {
        "passId": "350",
        "signer": "0x70445d7b2ae5c4d685Cb44745d4801eEeA7F48e8"
      },
      {
        "passId": "351",
        "signer": "0xe6bB465B47EC42E0aEE828c158a7347c57ecc68D"
      },
      {
        "passId": "352",
        "signer": "0xB1fF5d7Ac8F0a0c6cEE9d43241AAB2d315381EFF"
      },
      {
        "passId": "353",
        "signer": "0xf4c47B1d79c06Eb3b2AF2d7d2F0599d9d1B76222"
      },
      {
        "passId": "354",
        "signer": "0xc991b8537F35bf80A5a31fd6C744Be01409d901B"
      },
      {
        "passId": "355",
        "signer": "0x34d9404bee582a35a2FCf214AeF820a63dE26b56"
      },
      {
        "passId": "356",
        "signer": "0x52209f77B25E91fAb1d21A6Be06416c2feb7D03E"
      },
      {
        "passId": "357",
        "signer": "0x96629109dC97e11A9B658D68BCdf110a5498d858"
      },
      {
        "passId": "358",
        "signer": "0x9c442B37AfAFAdDDdDd24d5b571835C3Dc5ec6A3"
      },
      {
        "passId": "359",
        "signer": "0xE24Da831535ADE2660bD0FAa7a34c96188EfC005"
      },
      {
        "passId": "360",
        "signer": "0x344701723cf189930c5bB3bDCc7E06b2e7d9D0bE"
      },
      {
        "passId": "361",
        "signer": "0xb2Df6b2CD80c335C349cB1d62c8496de446d6eF1"
      },
      {
        "passId": "362",
        "signer": "0xD9003c427f6d526B66d21cfEDe171e0C38847aCA"
      },
      {
        "passId": "363",
        "signer": "0xc864710C757eFA4581d48A02287e4F91735d8679"
      },
      {
        "passId": "364",
        "signer": "0x849DEf9E27b554fa42f0901376F58f9129BAaDB5"
      },
      {
        "passId": "365",
        "signer": "0xCE7b68BE9776325A1F02Df59362F1048F71c6d01"
      },
      {
        "passId": "366",
        "signer": "0xF86F0570f58Ce5C5f4779D812d8Ee8c4752E76aA"
      },
      {
        "passId": "367",
        "signer": "0x34dF26bE2Ca08B3051aDEF826D145354a27EC01D"
      },
      {
        "passId": "368",
        "signer": "0x1C5Eb023F95DD59A3F1906E7C8c32F3D93da7462"
      },
      {
        "passId": "369",
        "signer": "0xBbC81Bc4E462aB5E032a0b9021D26264bD86516a"
      },
      {
        "passId": "370",
        "signer": "0x808dC2D8B38AC5aBa77bcc4b31303A48F92dd688"
      },
      {
        "passId": "371",
        "signer": "0xd8c13eDd9E61EB3D1999A0E5647f5557D385F0EB"
      },
      {
        "passId": "372",
        "signer": "0x7b5066BAbC26FD30a9344D2812f576f78018e8D2"
      },
      {
        "passId": "373",
        "signer": "0xC11A825f58c25C15c8A827A48924C904Cf7B1004"
      },
      {
        "passId": "374",
        "signer": "0x3148a44A80d690d1eaa377792142527Cb8C1939a"
      },
      {
        "passId": "375",
        "signer": "0x75F75a71FABf016ecD7F781f52C70e32305d8829"
      },
      {
        "passId": "376",
        "signer": "0xA227338e521108fb8683379FdC0F6A0c9E1caCa0"
      },
      {
        "passId": "377",
        "signer": "0x527a00f64c9BCCa42F979346BB8020e75e9C385a"
      },
      {
        "passId": "378",
        "signer": "0xEE9D8B7adf276440590ceC47B3bA70e4EB95c348"
      },
      {
        "passId": "379",
        "signer": "0x52FaC7Eda7D0A5422e95f14778Ed899D0Dd0b560"
      },
      {
        "passId": "380",
        "signer": "0x0f07D791A73D8cb5Ec1B7342fB85f03B521CEECb"
      },
      {
        "passId": "381",
        "signer": "0x8CF3EACd0dba6Ff97c505EDF89ca3fBB46B97399"
      },
      {
        "passId": "382",
        "signer": "0x66B40024d5A50890927DcC0339ca7f1647A91296"
      },
      {
        "passId": "383",
        "signer": "0x01147e9C59277bB6BB941Cd7594065f139B23390"
      },
      {
        "passId": "384",
        "signer": "0x157DF2e6744B2273912Dd1b2BF55CA8733ff1c7b"
      },
      {
        "passId": "385",
        "signer": "0xeeD02C8b5f64F718dfcaCcC129780Ac4DaA97610"
      },
      {
        "passId": "386",
        "signer": "0xa472f0F76BD1513bFbf89D41fb9ea22a46C1b953"
      },
      {
        "passId": "387",
        "signer": "0x7978b3Fd4464E70fBEf1979276B7Ab81630EE2a6"
      },
      {
        "passId": "388",
        "signer": "0x544E41Ce84c1011A7d879315765978032c6b1870"
      },
      {
        "passId": "389",
        "signer": "0x8a2C7e282Aa1287EC08987225245C758c52793D0"
      },
      {
        "passId": "390",
        "signer": "0xF44B67F6E320e8086C38672D4D0B83A05367Ec48"
      },
      {
        "passId": "391",
        "signer": "0x0C555a5d654Dd535a4ab48b14cDabC4F699E0aD0"
      },
      {
        "passId": "392",
        "signer": "0x793d1db70E740F56f87bA18d38F46A2FE1976370"
      },
      {
        "passId": "393",
        "signer": "0xbbA4D7dEE9a41c39E9CB0E16C4819d1431Bd0562"
      },
      {
        "passId": "394",
        "signer": "0xCf8bac96a74E36C8eec26a911C72fA0346d92AaB"
      },
      {
        "passId": "395",
        "signer": "0x0f25D5fcFCd43ea207fda3b993F53c4212988b23"
      },
      {
        "passId": "396",
        "signer": "0x455EdDc95293ED61BF0f8412f3c6C5b48Ea116a6"
      },
      {
        "passId": "397",
        "signer": "0x9D40E3EaaB962a860032e1963F90004490b0a80d"
      },
      {
        "passId": "398",
        "signer": "0x30bB9FB345b774a98FD0f61F3277E8Adfbf1bE88"
      },
      {
        "passId": "399",
        "signer": "0x9b64ef018c3Fc292F5C558762f78d9c3C992370C"
      },
      {
        "passId": "400",
        "signer": "0xEadF0473b75866575B7d5CF081E8FD9f416FE106"
      },
      {
        "passId": "401",
        "signer": "0x4e6b07b9bFD485B41b844380280A19be41178Fc1"
      },
      {
        "passId": "402",
        "signer": "0x8c705c10d4Aa9F5E05A43C4a4D61fB0CBcC7DeC4"
      },
      {
        "passId": "403",
        "signer": "0xe832AD19f229A713BB001aC72a2F48B6c7255643"
      },
      {
        "passId": "404",
        "signer": "0xC7BA587e35a26641DdD897Dbc6e0d3d8f3a02569"
      },
      {
        "passId": "405",
        "signer": "0xfc1613e2C76F37Ec0f40F9053975c7c7b5329830"
      },
      {
        "passId": "406",
        "signer": "0x50d2D9F00dC7D85e5b3d0DBbEDD174fBC6dEd763"
      },
      {
        "passId": "407",
        "signer": "0x93eF1E6756527B03002F94Bc78a9e36a43164D39"
      },
      {
        "passId": "408",
        "signer": "0x31F23697cCf132Eb867FD6c32EAB694Ae7f6dC6c"
      },
      {
        "passId": "409",
        "signer": "0x43E308F199C70f846d7eDF39D3d2737a81C386e6"
      },
      {
        "passId": "410",
        "signer": "0x7F61dAD3B3b404393F08E6078E9Dff104124e9D8"
      },
      {
        "passId": "411",
        "signer": "0x59e0116e284b5BD8BAd83177BeD843A440071886"
      },
      {
        "passId": "412",
        "signer": "0xaE55207EbA019298A5139e32B22CFc3ad0Bcfa2a"
      },
      {
        "passId": "413",
        "signer": "0x0702B4045Fe117DbF6968BB5A14943f92Af93e21"
      },
      {
        "passId": "414",
        "signer": "0xA012f4F64995e8Ff9272E2Fec278F2d7a10140A5"
      },
      {
        "passId": "415",
        "signer": "0xa239F03D667c6C7c2f2fb9D53439C5e94Ce48c60"
      },
      {
        "passId": "416",
        "signer": "0xA7a3b7f74F4e6fEce06c1109430C6E08AdFd5586"
      },
      {
        "passId": "417",
        "signer": "0x2fD46fBaB2c3d5bAdDf3f14bdBEdEb6307485DDC"
      },
      {
        "passId": "418",
        "signer": "0x5Cb75b26d3C9f76c8b154718f9CC0754a48A4847"
      },
      {
        "passId": "419",
        "signer": "0x6a328F91e95C8eb2441009fa7119EE5b9542295d"
      },
      {
        "passId": "420",
        "signer": "0x6C1021297FF4C041E876351D7a51712509179A5b"
      },
      {
        "passId": "421",
        "signer": "0xAe888824139452B4c03F2fd2aC780ede88584105"
      },
      {
        "passId": "422",
        "signer": "0xb3C5B6FBaBDC393cd377d7472c4Ec88eaE65086C"
      },
      {
        "passId": "423",
        "signer": "0x33Fe863c701EeEEC27aaD7Ef5a3736D3fC55809C"
      },
      {
        "passId": "424",
        "signer": "0xE3bc5fD9b94B574Ed653c90780456ab9b8afC733"
      },
      {
        "passId": "425",
        "signer": "0x9C7e3C4C5283FEbd401F81e1B5bFC9348062A177"
      },
      {
        "passId": "426",
        "signer": "0xceFa11277ad63A99ad54e42F80D7b385Ed8BC32b"
      },
      {
        "passId": "427",
        "signer": "0xf0580b2cE2D163041b463EbE89F6E61842b8131E"
      },
      {
        "passId": "428",
        "signer": "0xe6f81CBD329fe25564F05dF4Ab494390BC67D285"
      },
      {
        "passId": "429",
        "signer": "0x8910DDcEBB047AC460DA4fF7881E223a212f8511"
      },
      {
        "passId": "430",
        "signer": "0x5629Ea2A53F5791f3fD7e55E8C16d9BD21C8A484"
      },
      {
        "passId": "431",
        "signer": "0x0809e45238dF6DC67a9C9365c1F09A1D262da2BC"
      },
      {
        "passId": "432",
        "signer": "0x06de45D94047905A83725c0bf783865d74E615A7"
      },
      {
        "passId": "433",
        "signer": "0x397bCAb4Da4f8E8050C51941d864bcEa1f4D09b1"
      },
      {
        "passId": "434",
        "signer": "0x262dcead3baCDB5E837117436C72063Efa2A88fA"
      },
      {
        "passId": "435",
        "signer": "0xd478d7A040cAFF215D96A92B5022fC85b985624e"
      },
      {
        "passId": "436",
        "signer": "0x5F25F02adDC4FCB4d66e6C71D8910847b359B8d1"
      },
      {
        "passId": "437",
        "signer": "0xAD607059712c765a7FaE6c4b44dFd33B013acd6A"
      },
      {
        "passId": "438",
        "signer": "0x185f5728829A21468919C2010786b092952951E2"
      },
      {
        "passId": "439",
        "signer": "0x2f9d6e315AFc44dA33cfA4Dc8D32D70E2ED7398B"
      },
      {
        "passId": "440",
        "signer": "0x2c8A959b0FdcBC004F4F55A4dE0ca6E1c0bC1D85"
      },
      {
        "passId": "441",
        "signer": "0x2905b26693C8C142c698Cc2690Cb90f31BfbA650"
      },
      {
        "passId": "442",
        "signer": "0xF7ccbdb064fA9F1C68B4Df55cFadDfC57c1d85E1"
      },
      {
        "passId": "443",
        "signer": "0x30EcA9cdDe2eb097B8ba9Bae2FBf318361dF21AF"
      },
      {
        "passId": "444",
        "signer": "0x2733dEBBbB8257b6ADEDB6C7f2C48D2B49Ac1935"
      },
      {
        "passId": "445",
        "signer": "0x56CF9385cc5343cFcD38685e311Ce3C0073fc24b"
      },
      {
        "passId": "446",
        "signer": "0xF782812Dc21126e26F1022263E962106aFEF8c44"
      },
      {
        "passId": "447",
        "signer": "0x8CD5Ac9D87594D60Dd7C193d44cd5f3dc887874F"
      },
      {
        "passId": "448",
        "signer": "0xC3552a14a377Ef80795B359745a85eECBe0b67Ae"
      },
      {
        "passId": "449",
        "signer": "0xA5E7aa3a04C8e7A1C5436fBFd153f708Ef31a408"
      },
      {
        "passId": "450",
        "signer": "0xF18C20567C4434C5bF0Bc03b66e6c58c09093354"
      },
      {
        "passId": "451",
        "signer": "0x79C5Da3Ce339fA7874b05bDC5EF9072F14986A3d"
      },
      {
        "passId": "452",
        "signer": "0xe1899ac90DB53770D3699D0f342eDdE4e5bC175E"
      },
      {
        "passId": "453",
        "signer": "0x9e21F484411a613164f6872380de36A36e4d4A9F"
      },
      {
        "passId": "454",
        "signer": "0x25c3723AdF9Fd560c2F9B4f8B4411719e5786253"
      },
      {
        "passId": "455",
        "signer": "0xe636a60F78b8f3887854b509d1E70F16f6d515d5"
      },
      {
        "passId": "456",
        "signer": "0x9E9CE929F4A756Da9a11E68a1ff865cB7e06FDf3"
      },
      {
        "passId": "457",
        "signer": "0xE6B31B9e043EfDd520abDeDfBbb1b62B0C017285"
      },
      {
        "passId": "458",
        "signer": "0x396CF0c38239487ce4f6e628a8e16fb9b4Af299d"
      },
      {
        "passId": "459",
        "signer": "0x1cba5E9eE50A2B68C4Aa0A0D37ead2b49540c147"
      },
      {
        "passId": "460",
        "signer": "0x274079E7DcDf54C351d4bFDB8c91cBDBf46E3403"
      },
      {
        "passId": "461",
        "signer": "0xf9529d0131A8E2461e4976e9D6104831523Ac725"
      },
      {
        "passId": "462",
        "signer": "0x2920399e2bD5c484F39d8Efee02821D4fc062002"
      },
      {
        "passId": "463",
        "signer": "0xF06C09640CD81Bf77cF8737FC63063f18f4Ce228"
      },
      {
        "passId": "464",
        "signer": "0xB16422Edfff8edCcaC128edaC2ffD51eFCEA52B7"
      },
      {
        "passId": "465",
        "signer": "0x47E4C055d448a3047278d0a2304d01997F43c7c5"
      },
      {
        "passId": "466",
        "signer": "0x15BF80025705aF6C6f5E40bB5DC4cEAfA00536Bc"
      },
      {
        "passId": "467",
        "signer": "0x870EC67D3449EE9603d12E6D18AC0d47a99C6a45"
      },
      {
        "passId": "468",
        "signer": "0x19e5a8Fd32Ede3e45B2567c2ad0BAf4688F1d4B3"
      },
      {
        "passId": "469",
        "signer": "0x538Bd8D54a548c40456173b94F6d91De0B0521b6"
      },
      {
        "passId": "470",
        "signer": "0x8325b5d5C5378B09E10849654c725185C587D1aD"
      },
      {
        "passId": "471",
        "signer": "0x01FFCb0F4D28C531c47214Df05f3F3ac732E1496"
      },
      {
        "passId": "472",
        "signer": "0x685d020aa10E7Ad830b473d3e2340491c75fe836"
      },
      {
        "passId": "473",
        "signer": "0xB0e27D9c3A6BE73c77690Aa6429758498229EC24"
      },
      {
        "passId": "474",
        "signer": "0x8C41c4eaD97F344827e574ff51e735e772486bD0"
      },
      {
        "passId": "475",
        "signer": "0x6F1b5CF273b234596b325277D1Ad1Ef4E3d89129"
      },
      {
        "passId": "476",
        "signer": "0x739a878518905eFB47bE513B6e2D794F7aA720bf"
      },
      {
        "passId": "477",
        "signer": "0x8c01A51ca502C0354eEA2588A0c30c819Fd3A703"
      },
      {
        "passId": "478",
        "signer": "0xd45Eb8c29D0e3Ef5d4167f71B23b6b67BFfB68EF"
      },
      {
        "passId": "479",
        "signer": "0x0639C35E7B01D295a53a80EB48421B6518B8CE16"
      },
      {
        "passId": "480",
        "signer": "0x93876bd70A7446877C893DbcA05aa51Ee4eB61C4"
      },
      {
        "passId": "481",
        "signer": "0x15C10D9e2bDae2478F88D8cad741b60eD84F77d3"
      },
      {
        "passId": "482",
        "signer": "0xB517A54c7D40525da1c54Ec4cDEdB0447B76Cebd"
      },
      {
        "passId": "483",
        "signer": "0xBD68D288c5D5Fd99D99A9ebAA95Da989160Dbd84"
      },
      {
        "passId": "484",
        "signer": "0xf80ab95decB44363CB48ec97C5b72cb760c650a1"
      },
      {
        "passId": "485",
        "signer": "0x8859247b5428c4243C279d2e38Ac10aFA3E625f0"
      },
      {
        "passId": "486",
        "signer": "0xd24dCba796d12E51EFAE56Ed6f44113973971D6E"
      },
      {
        "passId": "487",
        "signer": "0xf8e08E586541EF53Fa5Ab808A8EC02360D4971F2"
      },
      {
        "passId": "488",
        "signer": "0x29420BE375D51198F4BC947488101E3539FbCa23"
      },
      {
        "passId": "489",
        "signer": "0x82B964c0ba6EBD8ADdA4039184f2A879819C4E12"
      },
      {
        "passId": "490",
        "signer": "0xeD2e710b77CD95792d6b3bD6E10732e13712CB96"
      },
      {
        "passId": "491",
        "signer": "0xC3a4e72854D04B42Bf4e03AE3c7bd1E511B5d016"
      },
      {
        "passId": "492",
        "signer": "0xE5ECE0f9816279A69f54361E1DfA772866D54903"
      },
      {
        "passId": "493",
        "signer": "0x0479c90125fc742dFe281630721883e26B68E21E"
      },
      {
        "passId": "494",
        "signer": "0x8b996B638a6f18daF74724716712c775F4F8E2c7"
      },
      {
        "passId": "495",
        "signer": "0x9Ad4E5A3Dc6E7A5c84B8Ee42bB3Cbb2be373500d"
      },
      {
        "passId": "496",
        "signer": "0x362DCb791Da8C899a8Be6e6750FA51971557b4aB"
      },
      {
        "passId": "497",
        "signer": "0xA641aA62052438c884cd499c9f31303b2a25CBb6"
      },
      {
        "passId": "498",
        "signer": "0xECd992afC3803eC3b1D19214fB22AC744b8e2D5a"
      },
      {
        "passId": "499",
        "signer": "0x404ABD5155c6E60cAFF024c7F040b5EE7CB488bB"
      },
      {
        "passId": "500",
        "signer": "0xE8553DD2E9624ca64a714B033724FC8f2e326b03"
      },
      {
        "passId": "501",
        "signer": "0x1c8A895F47889fEaD217c8172D38F2F8F2a2bA4c"
      },
      {
        "passId": "502",
        "signer": "0xfb1f49532B32E22263C9c5510Ab9FF9B73Fa0b16"
      },
      {
        "passId": "503",
        "signer": "0xbBdc8230E78f29D939492F98ee863D8B2C7facC3"
      },
      {
        "passId": "504",
        "signer": "0xE8409c69173638971A088336061a6a82a47EdDc6"
      },
      {
        "passId": "505",
        "signer": "0x29a3466FbA05f409Da139E4b9f74C468e28dFA2c"
      },
      {
        "passId": "506",
        "signer": "0xd35Cf4082Ac5281F0aeF7beb3b8527B2392AB9b3"
      },
      {
        "passId": "507",
        "signer": "0xE56dD3eef449D96aBeB8c56084287D31509d5b50"
      },
      {
        "passId": "508",
        "signer": "0x1433A11E104BD4475aDB3e69A103812223e05Ac4"
      },
      {
        "passId": "509",
        "signer": "0xdC3F0a7d30e50a85e9Ea9d51D541627c862d3248"
      },
      {
        "passId": "510",
        "signer": "0xb216EEaFa143E418C8B63d422E020bDE4C57beFA"
      },
      {
        "passId": "511",
        "signer": "0xf704A66730F7E918B1318eEA81Bc266932725804"
      },
      {
        "passId": "512",
        "signer": "0xAb9ec4712b94b2760EBAE156F20F9D4403695476"
      },
      {
        "passId": "513",
        "signer": "0xaa13AdA7a06aC5a9b65981bBcfa52a7A4c89Ea3c"
      },
      {
        "passId": "514",
        "signer": "0xc5dB267dDB5543be6B0eCffc5D0B535A1c7EfD00"
      },
      {
        "passId": "515",
        "signer": "0xB7901a6Ae0010B4148BB7b3e68b07DEb536ac586"
      },
      {
        "passId": "516",
        "signer": "0x9C9755837459a50846D8D790f6f0B3f3171c9101"
      },
      {
        "passId": "517",
        "signer": "0xAAB895cD53CaeE893B2394054694F3cAE511EA88"
      },
      {
        "passId": "518",
        "signer": "0xE40A8E4dd531ddDdDfe8b66530f9B8848ECDe7b1"
      },
      {
        "passId": "519",
        "signer": "0x54fb664DCDc19B2f7bA8E91CB5Fc99168d148BcD"
      },
      {
        "passId": "520",
        "signer": "0xFbF7cF543FE2E60d7e78A368498c5005010da504"
      },
      {
        "passId": "521",
        "signer": "0xe05B2cF0b32752E64e3d32E4EeB87358FbEE33Dd"
      },
      {
        "passId": "522",
        "signer": "0x6f557f3c2a48Ad06eD5bFc1B9f0ba3dAbd7d04D5"
      },
      {
        "passId": "523",
        "signer": "0x4F59902FBda2E1d8134E15118b32474CCEDf3276"
      },
      {
        "passId": "524",
        "signer": "0xc8c5914F4c510fD04Fce59cA1BE621F19cb92714"
      },
      {
        "passId": "525",
        "signer": "0xCc3C1E32FA1f197DcC840927C44785B8Ed506de8"
      },
      {
        "passId": "526",
        "signer": "0xC517653615c4e036511Df4A0D5D134a44FDbe6F9"
      },
      {
        "passId": "527",
        "signer": "0x61607e72a980734102864eaDcb3f03884221640b"
      },
      {
        "passId": "528",
        "signer": "0xe1376300FE11c2E0d1174D1b3BAF4eA68fc13da1"
      },
      {
        "passId": "529",
        "signer": "0xCE9C8047f50c4Ea53b16234Ea804D3aB5A63aCbD"
      },
      {
        "passId": "530",
        "signer": "0x52aF475ab7D4116f215Ba0Aa89590a9872253Fb2"
      },
      {
        "passId": "531",
        "signer": "0x2F593Be16ebc83628fD90f31dCb3a133D06d1ab9"
      },
      {
        "passId": "532",
        "signer": "0x40Bf2B955e34Ae145cB4B575B0F8b43cF309F16B"
      },
      {
        "passId": "533",
        "signer": "0x2F45D2D4Bd4c16D7E37c9aDD8a744e62B4f30CC7"
      },
      {
        "passId": "534",
        "signer": "0xC2555D56Ce9605281a7a940c4901967997821a7D"
      },
      {
        "passId": "535",
        "signer": "0x5Aa254A07fDd817e6E0d3102ce276AFc813Dc48e"
      },
      {
        "passId": "536",
        "signer": "0x195E259EBFA63c2dbace01CeA1C1da6a050b4496"
      },
      {
        "passId": "537",
        "signer": "0x65D6b9f1bB4903c6C03f804516e768544CE382f9"
      },
      {
        "passId": "538",
        "signer": "0xe5f3B9E803777FA6367AB6AA23E6Db5442ab2D8A"
      },
      {
        "passId": "539",
        "signer": "0x5E489CbfAC0034d80E49a9333237b2D513d1760C"
      },
      {
        "passId": "540",
        "signer": "0x8915Ad230564BDF2F8B48608A23990f6aDc1B0dd"
      },
      {
        "passId": "541",
        "signer": "0xc58702d065513990CD64453f13866AA40198Fc50"
      },
      {
        "passId": "542",
        "signer": "0x6b24c35600ab26BdAfC4dF7C09Ea5063Faf704eD"
      },
      {
        "passId": "543",
        "signer": "0x300Ae8721ce5E173C681D801AbAD0C788F5E25B2"
      },
      {
        "passId": "544",
        "signer": "0x365D6a046709D87B9fA3c576B1840341537EC140"
      },
      {
        "passId": "545",
        "signer": "0x8b090468a1Bd855969dd731Ac50E27EE42922a1f"
      },
      {
        "passId": "546",
        "signer": "0x6278e63F6a26E1c63d156E09C77e97E502F4bBe5"
      },
      {
        "passId": "547",
        "signer": "0xE489890e426243648180AE1D7A41668763415Ac3"
      },
      {
        "passId": "548",
        "signer": "0xAD6F88Fa9FD8B379a4E0FA13e6F896aA0414B3fd"
      },
      {
        "passId": "549",
        "signer": "0x8Ed3313c6EE4C5Bf78B1a294BA971D6a3189fe84"
      },
      {
        "passId": "550",
        "signer": "0x254bb190F483A1738Ab80E10439Cba1206c9fDec"
      },
      {
        "passId": "551",
        "signer": "0xF57ae420336F1E5f1B6Af325911bCFb077504b1a"
      },
      {
        "passId": "552",
        "signer": "0x1e55E50bbCB1F4daFa68Fb124BafD941075a74c2"
      },
      {
        "passId": "553",
        "signer": "0x043fbD040c9E362fd8D3f2fe2D66d55450b85497"
      },
      {
        "passId": "554",
        "signer": "0x95f659809F2B35C3bfEC61823a5bD2D0F7BFa29a"
      },
      {
        "passId": "555",
        "signer": "0x475f78B5C9494e00A97DcC0419d952a8851F2905"
      },
      {
        "passId": "556",
        "signer": "0x6e2Cf66fd7c196Fc62b152F7ab3aF898aDa16fCb"
      },
      {
        "passId": "557",
        "signer": "0x5AfB6F324B70dCFa79DA18314477DCFaa0F3583F"
      },
      {
        "passId": "558",
        "signer": "0x16A1472Dd168dc0Df45Ce4Daf320953588C88397"
      },
      {
        "passId": "559",
        "signer": "0x1CB95af66F6769e747caeeab646cACA47c48105E"
      },
      {
        "passId": "560",
        "signer": "0xFEBB2d3de789e9f59a3eAEBBfDbE3aB101403Fa1"
      },
      {
        "passId": "561",
        "signer": "0x2dFFe65ccd3390f6272b39Bb68758dfFa7381D28"
      },
      {
        "passId": "562",
        "signer": "0xC3F5bA5e0D4a75c052f80E0ba211c83c8371c9A3"
      },
      {
        "passId": "563",
        "signer": "0x7F5f8496561044176fE38A6e71Dc5dfEC427fa98"
      },
      {
        "passId": "564",
        "signer": "0x46978bD9Fd82AEBc3bCac6d9EF1B058fA5ADef43"
      },
      {
        "passId": "565",
        "signer": "0xFcE87AED7d78aFdB61486E820c93E58A8a917BcC"
      },
      {
        "passId": "566",
        "signer": "0x11dF68Ea98b0fBFA9A97001b86396a463d28DF5b"
      },
      {
        "passId": "567",
        "signer": "0x851ebED88e761DEc026b492C904e0e5136E1F4DF"
      },
      {
        "passId": "568",
        "signer": "0x7B93094439CEcF0FBd27Da3Fe7935E59264943B4"
      },
      {
        "passId": "569",
        "signer": "0xF48039a131914855338256ED13E369Fa39f48353"
      },
      {
        "passId": "570",
        "signer": "0xF86967AF675c79948b013A0233C73d0C7Ebe0f7e"
      },
      {
        "passId": "571",
        "signer": "0xD834763629A84a1b8e263f4da94eD79835A5aEd6"
      },
      {
        "passId": "572",
        "signer": "0x97DD2a75fdE1d8a3A42A12402A7Cd069677659fD"
      },
      {
        "passId": "573",
        "signer": "0x0e1B0cD9234f38324db3211DC6222a45BE51E593"
      },
      {
        "passId": "574",
        "signer": "0xFd2D5e0a71652b2604519a164DeDF75B4C404D7d"
      },
      {
        "passId": "575",
        "signer": "0x9E91ee5aE7fbAC6fd6c18601498F6f4b842982F9"
      },
      {
        "passId": "576",
        "signer": "0x43D79b577f98A8Cd5A4ebD420E7187063Bc5A8C2"
      },
      {
        "passId": "577",
        "signer": "0xc2d44846CAe97D5cA2558882d6DFe693ABB099b2"
      },
      {
        "passId": "578",
        "signer": "0xC8E5DbBf75945149F8741BA07510dfBD9Aa250bB"
      },
      {
        "passId": "579",
        "signer": "0x22C08908B38B482e2292E21325941BCe96648D30"
      },
      {
        "passId": "580",
        "signer": "0x1bD752574CA49F86F19CcD961C8d93CE2E51771a"
      },
      {
        "passId": "581",
        "signer": "0xBF0b1d85665c2180a52927232Db61501BDE6e2Df"
      },
      {
        "passId": "582",
        "signer": "0xe1068004F2b3Bc1ECDf8E190acD95826a7323415"
      },
      {
        "passId": "583",
        "signer": "0xBf5570F9d1C6A222DCc2aBA10b4AEdD61064a268"
      },
      {
        "passId": "584",
        "signer": "0x6BF559D2584f8eB5CF01e9E1E575157725970b73"
      },
      {
        "passId": "585",
        "signer": "0x4ed008db83AF077D0A949cb49Ae7Cce0F324CD08"
      },
      {
        "passId": "586",
        "signer": "0xcE3FD3aF1EC41d8CF3Ceb1AD0e8BD12EAd436217"
      },
      {
        "passId": "587",
        "signer": "0x3938217F3B03820Abb6da0E232e3EfB5182063a1"
      },
      {
        "passId": "588",
        "signer": "0x7072F7072627D3e0C0B2580Ead1c0b6379f51521"
      },
      {
        "passId": "589",
        "signer": "0x1690dbDac65db3dC161D552dE2A53f1C1895E774"
      },
      {
        "passId": "590",
        "signer": "0x9B37B9C397E190263C18e434b52DA4298eF4e7b6"
      },
      {
        "passId": "591",
        "signer": "0xD5642f8F959db7fC3ce5F89426102D2dCc8c8428"
      },
      {
        "passId": "592",
        "signer": "0xCEae8Aa2993e4cab60401b643D977b4d1eeadf86"
      },
      {
        "passId": "593",
        "signer": "0x79Eb3f3B327a0AF48E765752e2190EA558Edf8BC"
      },
      {
        "passId": "594",
        "signer": "0x780Bc7014CA3b99dE1A08dF30E9310A512CDadC0"
      },
      {
        "passId": "595",
        "signer": "0xECA737bF221d3B5A19975E068C3EEFA516A5a7cC"
      },
      {
        "passId": "596",
        "signer": "0x0Fdc7D00d2A084E6dcF3c548B81E6be06DC190eB"
      },
      {
        "passId": "597",
        "signer": "0x4e668C9A6CB55635a138CfEe678cC7134035E945"
      },
      {
        "passId": "598",
        "signer": "0xd702C0DA0833974FDC7bF977A072A71DdC25056A"
      },
      {
        "passId": "599",
        "signer": "0xD84eCD3AbAEe86b86fdE51a6a784Aa2Ddd08d493"
      },
      {
        "passId": "600",
        "signer": "0x2Fb25d9041b81575F479b93aCa5E75973fAE192F"
      },
      {
        "passId": "601",
        "signer": "0x3f2fDdce6FD92A371271A592A34E026b1F3ddB92"
      },
      {
        "passId": "602",
        "signer": "0x9d3BC0379798a28047815a65d0FD3097896118fB"
      },
      {
        "passId": "603",
        "signer": "0xb190a4eD9651a0c80EbB90cd48311a80b8ce2408"
      },
      {
        "passId": "604",
        "signer": "0xabbFe68456D81C55332C6C7946bF705133dd36a7"
      },
      {
        "passId": "605",
        "signer": "0xe7916170A582d3979cD23494264431bF4Cc6E54D"
      },
      {
        "passId": "606",
        "signer": "0xC5feBc38DB7Ee5379D4b092624C85bE4C1E19E10"
      },
      {
        "passId": "607",
        "signer": "0xe6193892A56bd4dfD977B43C60e8A1DfAc153579"
      },
      {
        "passId": "608",
        "signer": "0x65913310ED36b34082113EF8DBB31F56C8a00Ff1"
      },
      {
        "passId": "609",
        "signer": "0x7cB2Fe4A1D87444F3f11dC5002Cf1482710F706b"
      },
      {
        "passId": "610",
        "signer": "0xd93Eb305F747Ef8de2b813ED2b44ba9BeBbfb8ee"
      },
      {
        "passId": "611",
        "signer": "0x37389144Ebc51856a944b0526c5aACDD15B8aEcc"
      },
      {
        "passId": "612",
        "signer": "0x8189C6d4F6798005c6983c81Fc473EfA9c353811"
      },
      {
        "passId": "613",
        "signer": "0xfa964EEDF4606E965E6A138fF008a681A1d45b79"
      },
      {
        "passId": "614",
        "signer": "0x249dE23238E6f1d4542F5FCDBE0B0dD1F98f9b99"
      },
      {
        "passId": "615",
        "signer": "0x417DBa11F5746f18Ad09B3098ED3bFe595F08928"
      },
      {
        "passId": "616",
        "signer": "0xc6EfD33368f75FC4BF4eE74ea0C1072b2CD52C30"
      },
      {
        "passId": "617",
        "signer": "0x43E1A09e389C4a0B65D1E46b8b35866E82331C97"
      },
      {
        "passId": "618",
        "signer": "0x8e715A286d24d121E3543c33939bEa14a9FDD565"
      },
      {
        "passId": "619",
        "signer": "0xDe1b08e7788CD9f4d6d15F05Fc510FFDa116D077"
      },
      {
        "passId": "620",
        "signer": "0x2E1478D2624E008ABe5aAc5cFd3005bFB4D55993"
      },
      {
        "passId": "621",
        "signer": "0x41258DCdC820b821b7449bD8E0f6aD44eC17C25A"
      },
      {
        "passId": "622",
        "signer": "0xb81103A741983F09e5A63D9b5Dd89cD468c27238"
      },
      {
        "passId": "623",
        "signer": "0xF1e027094Fe47996CD02509F4e719bc273Ea6ce8"
      },
      {
        "passId": "624",
        "signer": "0xDE69617A1cbD795d9C1905BC0788a62dF837900E"
      },
      {
        "passId": "625",
        "signer": "0x9f03a16f3BEd8b5DD25D7a868e068f13Ad93a204"
      },
      {
        "passId": "626",
        "signer": "0x7E0fe0f7E285aA22D9Db2616575Bf3bAEB1Fc092"
      },
      {
        "passId": "627",
        "signer": "0xD78bf18Fc631C626C309c33Bed6C5F0e7C3a9853"
      },
      {
        "passId": "628",
        "signer": "0xCC1a00AfA5B9F729074EEB114E79DC6c91E054cb"
      },
      {
        "passId": "629",
        "signer": "0xc98C162073333e7229D26D017d544c4aB48e331B"
      },
      {
        "passId": "630",
        "signer": "0x74199ce40bCAdf41C4c53776ACcD8a8c7A0040B8"
      },
      {
        "passId": "631",
        "signer": "0xCB4f686f8C4CD93B314e2638E86068F93AB8080D"
      },
      {
        "passId": "632",
        "signer": "0x0796b8989628EBfd00B3871743215cDba6A71583"
      },
      {
        "passId": "633",
        "signer": "0x2b60f572C31700aEC19f9B4687d3E226ff26316C"
      },
      {
        "passId": "634",
        "signer": "0x0a1707d99B6371F02D5454D88967039B86eB948C"
      },
      {
        "passId": "635",
        "signer": "0xeF0aEDf4FA1cAAA42A59767aE0abda58e2442647"
      },
      {
        "passId": "636",
        "signer": "0xaB80D934A391Def3E720855c42aA1F261A33c35A"
      },
      {
        "passId": "637",
        "signer": "0x18B305Bc706e8c76Eb1d1Fb6fCd201033cDA3d3d"
      },
      {
        "passId": "638",
        "signer": "0x82902bd6AcF7090209A672b98a411601B4d5A8e3"
      },
      {
        "passId": "639",
        "signer": "0x018B3781191a63d54C576400e97e818F39d55BbA"
      },
      {
        "passId": "640",
        "signer": "0xd795446DE8a1D9227242c5C21F3e7123F50c6760"
      },
      {
        "passId": "641",
        "signer": "0xc2Bc17157E20f23F4d9d68c727F1C5B8C4c8B56d"
      },
      {
        "passId": "642",
        "signer": "0xeBA3486BA68E88b04761d524cAB897802a3fcC43"
      },
      {
        "passId": "643",
        "signer": "0x612074624D08a8B16Fc01ADa841E99311cb13725"
      },
      {
        "passId": "644",
        "signer": "0x0B2A218A7D81685579Fd134B606724bD67Cd1559"
      },
      {
        "passId": "645",
        "signer": "0x7e998Bf0cC9C8E489EBaA7b8722d0De60Bf0142d"
      },
      {
        "passId": "646",
        "signer": "0x6e087D256F3147d98b1D60366A1c6659B9EC45D8"
      },
      {
        "passId": "647",
        "signer": "0x17F872786490e007C083124394c0B279fD4C4f7F"
      },
      {
        "passId": "648",
        "signer": "0x4AfD72bE9e9166f60C45e1e4b84a8BD6A8b00ea0"
      },
      {
        "passId": "649",
        "signer": "0x7601e390EC77A187fbE6DeCfad0EA3DCE985d20e"
      },
      {
        "passId": "650",
        "signer": "0xD18899792D38539E48EcE9b00Ef0E29a003e4829"
      },
      {
        "passId": "651",
        "signer": "0x3EaAFCA5BA0e8FE5F54d8D8155Eb2eb004316139"
      },
      {
        "passId": "652",
        "signer": "0x3d0398F99fc86EdeA5Ab4a9C3285fD24B883f778"
      },
      {
        "passId": "653",
        "signer": "0x6E2903f3d4FAcEDdB4163d43B70A04124946649e"
      },
      {
        "passId": "654",
        "signer": "0x1104b1f3793Ca36D6020261BdCd9aE0cc855F2A5"
      },
      {
        "passId": "655",
        "signer": "0xAaa45784a94b8896acaf6a5568314Efe40e1045c"
      },
      {
        "passId": "656",
        "signer": "0xb712Bfd6889F2a15d579c9CbA514e75483FAeab9"
      },
      {
        "passId": "657",
        "signer": "0x26460cf822cb281cbec7150a23DAA58379D8d846"
      },
      {
        "passId": "658",
        "signer": "0x627779e9Db13bbbF6f833BD3Cb9C09888b23C303"
      },
      {
        "passId": "659",
        "signer": "0xD42dA46eB49f2F7E0841f2F601b3Bd2f676E0884"
      },
      {
        "passId": "660",
        "signer": "0x6cAB8842d811FE9e9160BE62Ab5CFC0cb6343D1B"
      },
      {
        "passId": "661",
        "signer": "0x864D6667CB2540131D0f3E3FbAfafc821fa4295a"
      },
      {
        "passId": "662",
        "signer": "0x7adb7dE1B38FAdcffD99152a2921E98609D3bD16"
      },
      {
        "passId": "663",
        "signer": "0x7D3164D2E81Bb8931CeE57E033f3C7df163170c3"
      },
      {
        "passId": "664",
        "signer": "0xf47203dDBae0e35DF9f61F0853b6b46E2a536a2d"
      },
      {
        "passId": "665",
        "signer": "0x5f3B5c779F87e56C12c247Bd61e54eeF994a8938"
      },
      {
        "passId": "666",
        "signer": "0x4dC4ABD74BDAaF442261a5B53C1232B0fbe2edad"
      },
      {
        "passId": "667",
        "signer": "0xa17942D1Aa4E2eFF1633730E2c29d0Bc89daDB23"
      },
      {
        "passId": "668",
        "signer": "0x92AE6fAc77E534DF9C67Ce6A61a63fD2D4d4BC50"
      },
      {
        "passId": "669",
        "signer": "0x94512d6fE6E2cA54F1c83451630Ef0f300bdB74b"
      },
      {
        "passId": "670",
        "signer": "0xbdCBB49DB1D38DB276d30685213A5494D0494449"
      },
      {
        "passId": "671",
        "signer": "0x62d69578b3C22E2AFc3E082BE94458725dA3e00C"
      },
      {
        "passId": "672",
        "signer": "0x319245A0cB041acCD1F59C69BB6eB5B3066Cb9EC"
      },
      {
        "passId": "673",
        "signer": "0xd9F22Ed20DbAAF8B0046AA81EdA490D358F13043"
      },
      {
        "passId": "674",
        "signer": "0x9eD236b96De7E10f41Eda80Cb5185bfe186ed919"
      },
      {
        "passId": "675",
        "signer": "0xe71Ac90905Ebab1273B9024B90f3D607898DDBdb"
      },
      {
        "passId": "676",
        "signer": "0x595aE10bD0BBAeB25793DB7B4667dcADdB6ee635"
      },
      {
        "passId": "677",
        "signer": "0x971a329f05dc9581D9937102E43a0DE8AB682502"
      },
      {
        "passId": "678",
        "signer": "0xa1d40cf4676FA448E0b431144B4fdBC6b004a2F7"
      },
      {
        "passId": "679",
        "signer": "0xa97D551fcF82cCC8fa1d4873e091dF614B1e723f"
      },
      {
        "passId": "680",
        "signer": "0x1D96588153019a54C78a79d967bE7CcE4B0A8891"
      },
      {
        "passId": "681",
        "signer": "0xA70Ad28AF02c0df1fA33B663a0BDd1ab3E9A7463"
      },
      {
        "passId": "682",
        "signer": "0x56e23A546F9CfF51d4233FBDc6BEb7897A74de80"
      },
      {
        "passId": "683",
        "signer": "0x9eEfc44Bb53A9014D0F6955B018fBB04E8543705"
      },
      {
        "passId": "684",
        "signer": "0x043ADD0e5ce3D9737989d92Efb8c74A153E059c8"
      },
      {
        "passId": "685",
        "signer": "0xEA53e9aE4336A44d757aCD903B5Bf1A84b7E822b"
      },
      {
        "passId": "686",
        "signer": "0x66FFbAAB58FE31B15735216267b8a454c869e901"
      },
      {
        "passId": "687",
        "signer": "0x6947CA4Fe598FbaD0124054A89787699041C88a7"
      },
      {
        "passId": "688",
        "signer": "0xE4a036710608D88fB649309C2E4e4Dd8Bc0D48f9"
      },
      {
        "passId": "689",
        "signer": "0x0EeF6BBE21AE42D9DEfE73e67E4dEd7BF5dd519E"
      },
      {
        "passId": "690",
        "signer": "0x99044A340BA7a4D13996a3423EE7A562e78c93C4"
      },
      {
        "passId": "691",
        "signer": "0xDB877a7fE5036693d8623D8fC5F804c9FA2f2dea"
      },
      {
        "passId": "692",
        "signer": "0x8F05Ab3666b6180Bc49f7ece2ACcC7DD2bAe1609"
      },
      {
        "passId": "693",
        "signer": "0x53Aa1947bEF038B1780281ABC4Ed932Dd4C123e2"
      },
      {
        "passId": "694",
        "signer": "0x2675531c37c5537b40586ceCA8dDE7D69f0227Ef"
      },
      {
        "passId": "695",
        "signer": "0x6C519dF373B45E5e05CC4fB3ef8956d20f255a2a"
      },
      {
        "passId": "696",
        "signer": "0x84af781a570De0F582524878860C94042bD8cAD0"
      },
      {
        "passId": "697",
        "signer": "0xc64721265993Bf9A5C62b2C8737C9031f6cEA2B5"
      },
      {
        "passId": "698",
        "signer": "0xA863c7788f8A54d0b0D25a540463881F4D3745FE"
      },
      {
        "passId": "699",
        "signer": "0x2885B465ba18EB0C697401322941888Bf5C49b56"
      },
      {
        "passId": "700",
        "signer": "0x428Dd86A16825019eE677c506e00D1CeA785E304"
      },
      {
        "passId": "701",
        "signer": "0xa1B63480723FF1e52B1dF183bd4adC76e351DD44"
      },
      {
        "passId": "702",
        "signer": "0x68373e5CcEf65285444700C255A75548A0C56492"
      },
      {
        "passId": "703",
        "signer": "0x0c4EC87cdCbe7D9D2C7976E906324c9bDf17b85C"
      },
      {
        "passId": "704",
        "signer": "0x4F54337e33c7A275C434BD0E07e44F0A6e8DD8b1"
      },
      {
        "passId": "705",
        "signer": "0xB48Cf6Cc3e7ADC9F9A30B8605F7E092494AF1348"
      },
      {
        "passId": "706",
        "signer": "0x05de2889186aE2B94850765760484BF29062AB0D"
      },
      {
        "passId": "707",
        "signer": "0x3B0043e3885c69EC4Ddb8FFeB1b20675f006070d"
      },
      {
        "passId": "708",
        "signer": "0x02C835659FdC289117e7dAe100C5eeDFf1b93E38"
      },
      {
        "passId": "709",
        "signer": "0x699d31851101d8c217d5c4B6105b88FA79446f5d"
      },
      {
        "passId": "710",
        "signer": "0xe479D21054529257E40106aa852C5FC851f842BB"
      },
      {
        "passId": "711",
        "signer": "0x87bECEC7bB8f0939B80947600C11D12A4DF1Ed58"
      },
      {
        "passId": "712",
        "signer": "0xBDdCD79111661B1acef787529cfc16AA8F7DACa5"
      },
      {
        "passId": "713",
        "signer": "0x48d7CEb9739f16Fa60500AeB8B332e96e3391528"
      },
      {
        "passId": "714",
        "signer": "0x37d286e1825C448C3Bf32b650f8a1b4771DDD1f5"
      },
      {
        "passId": "715",
        "signer": "0xc1aE8CBF2350Bf383D9AbEA4db4F25235bddd6C7"
      },
      {
        "passId": "716",
        "signer": "0x1786b6027219957cBB08B858A358D4449b0F9F96"
      },
      {
        "passId": "717",
        "signer": "0x9CDCb800FcDF602A5D5535e94088660685EFC92b"
      },
      {
        "passId": "718",
        "signer": "0x43F70b2B1E3BfA5a6974ae44386bAE399881B540"
      },
      {
        "passId": "719",
        "signer": "0xbD28Ae47812F74F5b5EBa886b6E5617a62f29dF7"
      },
      {
        "passId": "720",
        "signer": "0xcd369DBc0bD8Ef23d246B58bC5EbADd9c583CA81"
      },
      {
        "passId": "721",
        "signer": "0x0679230000554954285F9949ACA66fB8BB6f025F"
      },
      {
        "passId": "722",
        "signer": "0xEAEd3f057f44c5Ee76444c49363256e21c2d622a"
      },
      {
        "passId": "723",
        "signer": "0x986767631bAf70860Ac36D9Dd5ED56f56c64E517"
      },
      {
        "passId": "724",
        "signer": "0xbbbA440D3FEacDa2b245B3623A8743b414313595"
      },
      {
        "passId": "725",
        "signer": "0x3622eD6D13B472E22a745fa1556DaD623C6Fd869"
      },
      {
        "passId": "726",
        "signer": "0x1c6456567c27C2a7bDb9092E6c8bAb08227b964f"
      },
      {
        "passId": "727",
        "signer": "0x038cf5Da207CE4b79Ede50D502AB97d660D5019B"
      },
      {
        "passId": "728",
        "signer": "0x5ADdE2a7AE5c4433d80E06a7fafdD41de3605a55"
      },
      {
        "passId": "729",
        "signer": "0xB567C59BdF7465495E7042c5345596Ab34682B3b"
      },
      {
        "passId": "730",
        "signer": "0x685cC00CEDa9e08C84EA3A448bbc3Cc399FE2F97"
      },
      {
        "passId": "731",
        "signer": "0xfF1c196e1DB405C7e7D6AB2f533B19bbc1e9433d"
      },
      {
        "passId": "732",
        "signer": "0x8d5492fBF1123b04aEEd05AB21a3D946155d0F5c"
      },
      {
        "passId": "733",
        "signer": "0x768d7eF990c4b90063B437fE9cE796A3c706Aab1"
      },
      {
        "passId": "734",
        "signer": "0x7e7A76AA709586625150cf8FCDfB5Daf5F2994c5"
      },
      {
        "passId": "735",
        "signer": "0x7899967a3B8a7898f1C0362F50f6a46eB776A858"
      },
      {
        "passId": "736",
        "signer": "0x729a5e76E6fEA494B4EE7B4Af2076859F94050e7"
      },
      {
        "passId": "737",
        "signer": "0xCdc8641fA017aA25095d5788299BE4f886079DF8"
      },
      {
        "passId": "738",
        "signer": "0x443BeCd9624713340A6014C607DC2d255f28C0a6"
      },
      {
        "passId": "739",
        "signer": "0xC87e20Eae1ae8322da1737E3FE8BEA9aEe3e83aF"
      },
      {
        "passId": "740",
        "signer": "0xa299Eb504268f3b3cFa4677C27Fb68e497caA923"
      },
      {
        "passId": "741",
        "signer": "0x7fB93E9c95D5d1fB69875e2d6E33fc8aC38F9028"
      },
      {
        "passId": "742",
        "signer": "0x0242Ac4B4CD61F12397501e768f8799f73627192"
      },
      {
        "passId": "743",
        "signer": "0xC60Ed31301BDCE8AD82a4cf887844DcA55C4E644"
      },
      {
        "passId": "744",
        "signer": "0xc33bE71fA925558b20750DFac6fD552118A73d51"
      },
      {
        "passId": "745",
        "signer": "0x9De0b17e7008f4231F6b2aC66260BbC7b7E3Dc89"
      },
      {
        "passId": "746",
        "signer": "0xBD6cC0e4Cfc9592F9C77c48D66b6a356770839e5"
      },
      {
        "passId": "747",
        "signer": "0xdbA69BCf0E0b4ab1eCE839aB8B5b0B9Dd0568ed6"
      },
      {
        "passId": "748",
        "signer": "0x8F62bc8Db4C77ac90e8CD233F0b3f26C167b454E"
      },
      {
        "passId": "749",
        "signer": "0xe977906DCB765659ABc38c2b2737727920AB981f"
      },
      {
        "passId": "750",
        "signer": "0x7F90285A92732B8AdCfb58135Da3B3D325095910"
      },
      {
        "passId": "751",
        "signer": "0xef5a20d3449690Fa9f8ac35c2095a0c466a75Ad2"
      },
      {
        "passId": "752",
        "signer": "0x8bABAca40d38903B9e515D34587f0C75aF76323d"
      },
      {
        "passId": "753",
        "signer": "0x2B2227e20Ae892ff34d404Fe31E8d5542944fd9f"
      },
      {
        "passId": "754",
        "signer": "0xBA298222797F3285774B0b0A261Ba22C046cB3DB"
      },
      {
        "passId": "755",
        "signer": "0x060abFF9B6156455a6E18a7A7Df351Ddcc76C7B2"
      },
      {
        "passId": "756",
        "signer": "0x0652D6ABAd0D521F88A9467DD529579E5dB80D9E"
      },
      {
        "passId": "757",
        "signer": "0x39F3D8f52AA0cD224c7C3f7A705f321291e7Fc28"
      },
      {
        "passId": "758",
        "signer": "0x7D7c19Ef81BEC2955dCA8f1349fA93BD0439BFED"
      },
      {
        "passId": "759",
        "signer": "0x86f3F026c4877895eD9F1ad6646b532cF773CF16"
      },
      {
        "passId": "760",
        "signer": "0x00f41649542ECdDf2699F6B0bf4b468c40F919Cb"
      },
      {
        "passId": "761",
        "signer": "0x94aC0e9aEF3d2eF28B4397Ac114eD4fBC4CC7De6"
      },
      {
        "passId": "762",
        "signer": "0x718C1BE1434bD91C2dd4FC5652D00C2CcF20F8d5"
      },
      {
        "passId": "763",
        "signer": "0x1B6070D6FAcAf967B78C3164cDE7bE02b0351754"
      },
      {
        "passId": "764",
        "signer": "0xa0e71aA97369f3Ae4E677B54D93C9C7D726b770E"
      },
      {
        "passId": "765",
        "signer": "0x4d8F1623A65645a7DfB353C7D3C46953E30Dec06"
      },
      {
        "passId": "766",
        "signer": "0xd09e2Ff5f81eDff7aac64e8a03E48DC9CE3de797"
      },
      {
        "passId": "767",
        "signer": "0x5851e635d3B386f7339bDF0Df627c9Ee8C5b64C6"
      },
      {
        "passId": "768",
        "signer": "0xC8b8F8c27878c3D764F4D1B25914FfcBB2B194C7"
      },
      {
        "passId": "769",
        "signer": "0xf54654B14f3F4c5B56a75307c5Ae7e935f14fE7A"
      },
      {
        "passId": "770",
        "signer": "0x20fE62FeC376672fc9c9E31D99b2ca266280899F"
      },
      {
        "passId": "771",
        "signer": "0x6827bFe1bc085A68B34278520d4a13f945bFC1FC"
      },
      {
        "passId": "772",
        "signer": "0x6e05246144379ca19b1412dabEE2034d59D1401c"
      },
      {
        "passId": "773",
        "signer": "0xcBc8F4Bd9679B3f5985214B981166D0d2a3DC4b9"
      },
      {
        "passId": "774",
        "signer": "0x2F7F13B5F026599389BcfefD23b7377E1e0Eec76"
      },
      {
        "passId": "775",
        "signer": "0x068cd768234bbe3Ed91243BcC091597927F8Cf1d"
      },
      {
        "passId": "776",
        "signer": "0x5D6D5f7f1315581E5dAA93BF7faa6fBE906EF5B4"
      },
      {
        "passId": "777",
        "signer": "0x0A8e5Fd994107c735cD70DfFA2720DCa4b4032B3"
      },
      {
        "passId": "778",
        "signer": "0x0a859ef712a30b869ED9DB0067aa8ec51E209108"
      },
      {
        "passId": "779",
        "signer": "0x2360777E4C775545ab563e8E87Aba2aBd603C5EE"
      },
      {
        "passId": "780",
        "signer": "0x360DFBA3f09837B99C2F4B93BE66245CD0C765E1"
      },
      {
        "passId": "781",
        "signer": "0xa01670412aD01E9bfcefbE5FC4c6FA439Ef60d59"
      },
      {
        "passId": "782",
        "signer": "0x25410BC42988e06a8967C61c85f97457F5520699"
      },
      {
        "passId": "783",
        "signer": "0x71357081c68051C85bfE842F76fdA965A12d1A11"
      },
      {
        "passId": "784",
        "signer": "0x5dFcf35975367E59B5aBcB7bB17A9a8ec9242D64"
      },
      {
        "passId": "785",
        "signer": "0x9b41E72d27854E455bEEB7F05dC2eF06e36ED686"
      },
      {
        "passId": "786",
        "signer": "0xC0010E7972207b5A76D116D962BA875425841111"
      },
      {
        "passId": "787",
        "signer": "0xa4070562F589ba8Cb27BB559CF56C3796460e566"
      },
      {
        "passId": "788",
        "signer": "0xA991Cf9af484Fd03a69a25c74D7252511D4466F1"
      },
      {
        "passId": "789",
        "signer": "0xC7E33CC122894EB6b41d1A2B91c81C4C6788836a"
      },
      {
        "passId": "790",
        "signer": "0x163D843E053cCBfFB4acAcfa4de6B684f0bd3AE9"
      },
      {
        "passId": "791",
        "signer": "0xda42af31995F7C7402fB410032bAbBcB4EF82121"
      },
      {
        "passId": "792",
        "signer": "0xCd621d2b031f565131558df3Cb96a430B9ac7525"
      },
      {
        "passId": "793",
        "signer": "0x2B8BaFc48381aC91ce0768786379fbaf42162B29"
      },
      {
        "passId": "794",
        "signer": "0x08cB33561b9baDbBC6AE8fd1f976eaaC7F3FB1E8"
      },
      {
        "passId": "795",
        "signer": "0x919Ca92351815719C37C5f6361D1F3797EcADb92"
      },
      {
        "passId": "796",
        "signer": "0x94902fEeE23146664EFD1aebc01065019DFdc553"
      },
      {
        "passId": "797",
        "signer": "0x7d0A3d459eE1cd2d11cD3280Eb1E27824A88C195"
      },
      {
        "passId": "798",
        "signer": "0x8282ebEb9c0acfa016B99E87A04e91522395582D"
      },
      {
        "passId": "799",
        "signer": "0x6C9108943d5B970De8eE17DDBC535b2a3f5d5D14"
      },
      {
        "passId": "800",
        "signer": "0x9B2a9f8728A6Eb319d2ad75AF2C3Ed5bDfBf8BA0"
      },
      {
        "passId": "801",
        "signer": "0xC1c2D108068aBbCe39BaFF34Ca6D35B02b95f634"
      },
      {
        "passId": "802",
        "signer": "0x94CC49c0e4DC820b811E7eD1c260878845d21B34"
      },
      {
        "passId": "803",
        "signer": "0x20F88Ea533A5964f419d07B5eC952cD8Ca9C35d5"
      },
      {
        "passId": "804",
        "signer": "0x52A35C26E6af6bEcF25BFF0e72f7f6fe901FFC10"
      },
      {
        "passId": "805",
        "signer": "0x44Efe45D603CC7D5007c2B7fE89DAF9825dD4A07"
      },
      {
        "passId": "806",
        "signer": "0x44BB4667376130eE539fE0e48Fb2c1ECC3f3878f"
      },
      {
        "passId": "807",
        "signer": "0xd8092482a175d6659C94D93eEf8755927A4F5C62"
      },
      {
        "passId": "808",
        "signer": "0x954aF5D24d8a2D0b6242f1Da54e464D68231C0B0"
      },
      {
        "passId": "809",
        "signer": "0xD94B39a8d26c1a66e520126c8Bd5D2c253440F85"
      },
      {
        "passId": "810",
        "signer": "0x16b8611c9a1693F7A5Cf5CE894ebF37B6e7F0fb7"
      },
      {
        "passId": "811",
        "signer": "0xD1A623A46B204B250a01b639f4C6dE0869317b8F"
      },
      {
        "passId": "812",
        "signer": "0x0C97f1Ca670F93927f607153F2b79218460d24E9"
      },
      {
        "passId": "813",
        "signer": "0xcCadf57B47C694319a1cAb3D588C81A5d7b9C79A"
      },
      {
        "passId": "814",
        "signer": "0xDeFDb373b936fe72A76114E73fb3Bc2A84Bd3895"
      },
      {
        "passId": "815",
        "signer": "0x81014b279635f40045637937336D6709cA14Cc02"
      },
      {
        "passId": "816",
        "signer": "0xa3c25609bd3cbcd0F26A5FeF3492F03622deD95f"
      },
      {
        "passId": "817",
        "signer": "0x000000000000000000000000000000000000dead"
      },
      {
        "passId": "818",
        "signer": "0x000001f568875f378bf6d170b790967fe429c81a"
      },
      {
        "passId": "819",
        "signer": "0x0078c86e12186e2de1ff6fef5f1ada2bffde4ea5"
      },
      {
        "passId": "820",
        "signer": "0x024f1f8b3789bfdf9edb47f58a0d7a3afeaea804"
      },
      {
        "passId": "821",
        "signer": "0x049808d5eaa90a2665b9703d2246dded34f1eb73"
      },
      {
        "passId": "822",
        "signer": "0x05e8074088797c1f9057febf374deee0bc38e894"
      },
      {
        "passId": "823",
        "signer": "0x05ea539365d91df315e8ddd736e90431696fe8c4"
      },
      {
        "passId": "824",
        "signer": "0x09280340849e66948149804cac539cc7227512be"
      },
      {
        "passId": "825",
        "signer": "0x0946bc5c2f9848665cc3811458de403d0a78ad8e"
      },
      {
        "passId": "826",
        "signer": "0x0985224a811e65c235dbf4a2c2117712aabe4e39"
      },
      {
        "passId": "827",
        "signer": "0x0d0aca99686fced8e6fb39134aaed96f09b5283c"
      },
      {
        "passId": "828",
        "signer": "0x0d94b6e4c2aa9383964986020b3534d34885f700"
      },
      {
        "passId": "829",
        "signer": "0x0dd544d0da95666d7c3d38460feb4b5f25eaa515"
      },
      {
        "passId": "830",
        "signer": "0x0ea59c05be4b7149aaed26be764b618ac0255643"
      },
      {
        "passId": "831",
        "signer": "0x10b28ee04853bdd30d1fd7b302fbe5691c144aa0"
      },
      {
        "passId": "832",
        "signer": "0x10f6c58b9dc9603cb24ee9a5220bb4a470781676"
      },
      {
        "passId": "833",
        "signer": "0x12579783fbe8c2645d7a634b238da748405975a2"
      },
      {
        "passId": "834",
        "signer": "0x136c65a3f31682fcf683906ddbf3c76db2633f99"
      },
      {
        "passId": "835",
        "signer": "0x139d9a36ff2b6bfb8558dfbc22486da48c77a396"
      },
      {
        "passId": "836",
        "signer": "0x13b3a50f3947476eda74fe191344524e2d2d28e5"
      },
      {
        "passId": "837",
        "signer": "0x13e46ccd194ca86212236543d2e7376b00bafa42"
      },
      {
        "passId": "838",
        "signer": "0x1423fcc74da82fa03d70fa1f7a122db1ba231783"
      },
      {
        "passId": "839",
        "signer": "0x1436dbffbdde71d16a2c4d23f9116c3158c4d984"
      },
      {
        "passId": "840",
        "signer": "0x1527fa3a0778d574adfe714b7e60c7b2a1bf7c29"
      },
      {
        "passId": "841",
        "signer": "0x1974341df4b113a4c16f3d3f106176dec0e4da67"
      },
      {
        "passId": "842",
        "signer": "0x19b2ba0892da19d09d59e300d11da9edf96654ae"
      },
      {
        "passId": "843",
        "signer": "0x1c062628943a930b805849b494719c7d23c77bd5"
      },
      {
        "passId": "844",
        "signer": "0x1ec9503bbdad721ef3ad485b4b14ce0671dc9925"
      },
      {
        "passId": "845",
        "signer": "0x21c5edc237e95049f92059af6a571fdb700f2b82"
      },
      {
        "passId": "846",
        "signer": "0x2224acd07fd9b269ab5200a9a3df8062624deefb"
      },
      {
        "passId": "847",
        "signer": "0x230eb64900d027dfe372786b3342bd6178ec37d1"
      },
      {
        "passId": "848",
        "signer": "0x273c25abd33eca095e228fde0f15e8f7ec4eb4d9"
      },
      {
        "passId": "849",
        "signer": "0x27d9b6692ec1fb802cc8ceef74270ca4b448076a"
      },
      {
        "passId": "850",
        "signer": "0x290420874bf65691b98b67d042c06bbc31f85f11"
      },
      {
        "passId": "851",
        "signer": "0x2993db31d165c33d848e44a1c26a805ba411d324"
      },
      {
        "passId": "852",
        "signer": "0x2d2c46d26c8fec693586e067c4fc2b2ddc2b4cb3"
      },
      {
        "passId": "853",
        "signer": "0x2d79097b9e4c4f41654b2c91c39fd2c97af00c76"
      },
      {
        "passId": "854",
        "signer": "0x2de2299db048a9e3b8d1934b8dae11b8041cc4fd"
      },
      {
        "passId": "855",
        "signer": "0x2e50783188e23742dd3168682e39381ff5fa9731"
      },
      {
        "passId": "856",
        "signer": "0x2e699391d1b3b8577557b4c0ef6a1d9e8a394f04"
      },
      {
        "passId": "857",
        "signer": "0x308bff328370fc4a9683ab9fcd79a21be6dc5ee4"
      },
      {
        "passId": "858",
        "signer": "0x342c6bfa287ce37b8b53eee0e5b6e6bcbea98c76"
      },
      {
        "passId": "859",
        "signer": "0x362f020fd4420c317e7a0722994ba8bc3380d0e8"
      },
      {
        "passId": "860",
        "signer": "0x3668a20653316a7dd85342f64a4c984d146cadfe"
      },
      {
        "passId": "861",
        "signer": "0x37b699d7eead58433d352d1c77b2db1391f11ce5"
      },
      {
        "passId": "862",
        "signer": "0x3ad353e2845b96fb1b58c1ca6cda46b870de8d6f"
      },
      {
        "passId": "863",
        "signer": "0x3d14410609731ec7924ea8b1f13de544bb46a9a6"
      },
      {
        "passId": "864",
        "signer": "0x4011d09a86d0aca8377a4a8bad691f1aceecd672"
      },
      {
        "passId": "865",
        "signer": "0x41a7276167b80da8815df5b0ddaba3be29984250"
      },
      {
        "passId": "866",
        "signer": "0x44dc2ec15b3483fc8590f6b396cea5f8f2fbf3bd"
      },
      {
        "passId": "867",
        "signer": "0x4530307f98208d3bd5b9631880bc7351770c8810"
      },
      {
        "passId": "868",
        "signer": "0x4a1d757699ab73dd4b48b15049b6f1479b2f3511"
      },
      {
        "passId": "869",
        "signer": "0x4b0bd713574e67a97b3ff8f647f329794a2cbb64"
      },
      {
        "passId": "870",
        "signer": "0x4d03a186b3c7d039ff9a212cd8e81dc34a670b35"
      },
      {
        "passId": "871",
        "signer": "0x4de4a829d42191007431d608775430f3ab072082"
      },
      {
        "passId": "872",
        "signer": "0x4e012d25472225f3385baa43ed64dfec5885c51d"
      },
      {
        "passId": "873",
        "signer": "0x4ffb72b66eba24521736924f87dfe10677d82286"
      },
      {
        "passId": "874",
        "signer": "0x50f27cdb650879a41fb07038bf2b818845c20e17"
      },
      {
        "passId": "875",
        "signer": "0x5285ac85a979b612f5c5320961311bba099670f0"
      },
      {
        "passId": "876",
        "signer": "0x530cf036ed4fa58f7301a9c788c9806624cefd19"
      },
      {
        "passId": "877",
        "signer": "0x5310a9b64847c1b927f823a4bc8836e93f09dc78"
      },
      {
        "passId": "878",
        "signer": "0x54463aae905082c678708bb6c25226eb8f38d5a6"
      },
      {
        "passId": "879",
        "signer": "0x562bf1b67dc40d9b7c3ddd49e45ae58e61e1b76e"
      },
      {
        "passId": "880",
        "signer": "0x568b491fb2b4b9440f6d05e7723df0060fdaef1c"
      },
      {
        "passId": "881",
        "signer": "0x5b158f897f5ace2afefaf7ace8ce0cdbbbc9168a"
      },
      {
        "passId": "882",
        "signer": "0x5ba02f4ff6af1d9d2af8774d10fd32eb57d4e2e6"
      },
      {
        "passId": "883",
        "signer": "0x5bd685375c21375165438ca7f3eae7ec4fade8c5"
      },
      {
        "passId": "884",
        "signer": "0x5d9e720a1c16b98ab897165803c4d96e8060b8e4"
      },
      {
        "passId": "885",
        "signer": "0x5e01d9928ea32d1d3ae2f3263b6ec6c165dc2d76"
      },
      {
        "passId": "886",
        "signer": "0x5ee42438d0d8fc399c94ef3543665e993e847b49"
      },
      {
        "passId": "887",
        "signer": "0x5f8e56d7f3642dd8783774460da2d3a7c54aacda"
      },
      {
        "passId": "888",
        "signer": "0x5fb8b9512684d451d4e585a1a0aabfb48a253c67"
      },
      {
        "passId": "889",
        "signer": "0x6186290b28d511bff971631c916244a9fc539cfe"
      },
      {
        "passId": "890",
        "signer": "0x62f099a34f01d57c67a100851184bea0d48b45f6"
      },
      {
        "passId": "891",
        "signer": "0x63244b5f1ebcb999ea012da652dffee6653bf8f5"
      },
      {
        "passId": "892",
        "signer": "0x64e00561fa9b1f2f2048b2d4f571279689dd9541"
      },
      {
        "passId": "893",
        "signer": "0x65565244e5700b85c90358468faf37c85db55099"
      },
      {
        "passId": "894",
        "signer": "0x6584b48ccebd9c3e4413a1dd4cdbc38b2500cdf3"
      },
      {
        "passId": "895",
        "signer": "0x65d88c64b01b9481352fa8a68b54ed1b3b687388"
      },
      {
        "passId": "896",
        "signer": "0x663d3947f03ef5b387992b880ac85940057c13e3"
      },
      {
        "passId": "897",
        "signer": "0x67c3097a968db89610825976ec9a5976a966c044"
      },
      {
        "passId": "898",
        "signer": "0x68016f094ebb7b55b04372af335455854b0e2eb6"
      },
      {
        "passId": "899",
        "signer": "0x6854dc5c9e3d3ce0b9dd7250d866908515465dc6"
      },
      {
        "passId": "900",
        "signer": "0x686e960ebd9aceb1771850444d4d3a7810a0dac9"
      },
      {
        "passId": "901",
        "signer": "0x6d7fd0438219c0f753a1ccf7c4885bb6cb260999"
      },
      {
        "passId": "902",
        "signer": "0x704c978d50590b21e4c2f43eb4da24fe61fcd707"
      },
      {
        "passId": "903",
        "signer": "0x73e60cd967e957bc6e074f93320ffa1d52697d5b"
      },
      {
        "passId": "904",
        "signer": "0x75331ebbe0b00b97cab532384f13c9b479f074ec"
      },
      {
        "passId": "905",
        "signer": "0x75ef2eff7b12f5f900ef5c787036deab18423d1a"
      },
      {
        "passId": "906",
        "signer": "0x78885686feec340ab544428f161e7d621f520e29"
      },
      {
        "passId": "907",
        "signer": "0x79bebfcb560141f22959c62bbd2930d5c7e35d30"
      },
      {
        "passId": "908",
        "signer": "0x79fd2f15e0ea8c27b5192259f9da63f4e562f021"
      },
      {
        "passId": "909",
        "signer": "0x7a824bea2bed9399a68cd0e340224809521c81d9"
      },
      {
        "passId": "910",
        "signer": "0x7d6a8ffcaf98cac58340329b3a91759888cb1363"
      },
      {
        "passId": "911",
        "signer": "0x7e7a55b11dd9a02b4da169620adfc36b930100fc"
      },
      {
        "passId": "912",
        "signer": "0x80d0d54050c15971b21e877d95441800f5aa9ee8"
      },
      {
        "passId": "913",
        "signer": "0x8177598e08ee8199c160a48c7a0af31ab54bb59f"
      },
      {
        "passId": "914",
        "signer": "0x82410609593d876761681580cf304c794bd58d09"
      },
      {
        "passId": "915",
        "signer": "0x826f63afd9517364cbebe91a859f10b102505a40"
      },
      {
        "passId": "916",
        "signer": "0x836ef81a58e5565b8d1d555ec8e9a5c2792511c6"
      },
      {
        "passId": "917",
        "signer": "0x83d3c179e7906e7f6755658c70e106f1ed3c5782"
      },
      {
        "passId": "918",
        "signer": "0x84eeb7db3f93feb5a8a98f56dabb970a6797c187"
      },
      {
        "passId": "919",
        "signer": "0x865c2f85c9fea1c6ac7f53de07554d68cb92ed88"
      },
      {
        "passId": "920",
        "signer": "0x8725be0bb6ea759d10fbb52fedecc7dcd6890072"
      },
      {
        "passId": "921",
        "signer": "0x87dfef3b445667292aac89078b51f0f75795805f"
      },
      {
        "passId": "922",
        "signer": "0x88906af7616f88f610d1e479325a5c5f93ba1e2c"
      },
      {
        "passId": "923",
        "signer": "0x8a53b8b59877df193c6dae7b8d1d38251af563cf"
      },
      {
        "passId": "924",
        "signer": "0x8b5e90aa714c967efc8c286f46ce0fc822e1cfb0"
      },
      {
        "passId": "925",
        "signer": "0x8c0c3c60118b24b31806eae82ab4186821bf23f1"
      },
      {
        "passId": "926",
        "signer": "0x8c2e67bd3d0f432ef75d9ae6623cd0dfbce66050"
      },
      {
        "passId": "927",
        "signer": "0x8dc9d43df20681cd62ca0acb24ae7ce2794f835d"
      },
      {
        "passId": "928",
        "signer": "0x8df55ecf2c261b44d079302dc95327fe32f74eed"
      },
      {
        "passId": "929",
        "signer": "0x8ebbf8f59b7b7849e359f7e1cc395df6741c24b9"
      },
      {
        "passId": "930",
        "signer": "0x92e7faa1c7b1cf703e3cda42183978f16fa15713"
      },
      {
        "passId": "931",
        "signer": "0x932a824a4d3d0680e0b352de150e6f212b8ac841"
      },
      {
        "passId": "932",
        "signer": "0x95a4350e1cb5e795d3ebe8bee63d9183de5449d1"
      },
      {
        "passId": "933",
        "signer": "0x96dc89dbe84970ee42a2f0b35fb50599e6745ff8"
      },
      {
        "passId": "934",
        "signer": "0x975ab68d4c15d6db02e101d5be03c5b49b9a3282"
      },
      {
        "passId": "935",
        "signer": "0x9de0b0402258a6a562331da7b3c13b29578789c4"
      },
      {
        "passId": "936",
        "signer": "0x9fc6d6c7326585fd3c2a743a1f505990d6e9df3f"
      },
      {
        "passId": "937",
        "signer": "0xa0863e36c30f4974a3a0e2cfc2802513cfaa22f1"
      },
      {
        "passId": "938",
        "signer": "0xa0a6dc36041fb386378458006fecbddd02555ddd"
      },
      {
        "passId": "939",
        "signer": "0xa0d71d516c6149c958c489ab24223c99f5df906f"
      },
      {
        "passId": "940",
        "signer": "0xa0f838d02983161ee469bff969964b7051ac1cd9"
      },
      {
        "passId": "941",
        "signer": "0xa596370bc21dee36872b98009dfbbf465dbfefa3"
      },
      {
        "passId": "942",
        "signer": "0xa5975974cac3fefd831e42bdd2fe84cb5ee3b3de"
      },
      {
        "passId": "943",
        "signer": "0xa6157b7bb7ec05e2b6feafd686797f9ea05411cc"
      },
      {
        "passId": "944",
        "signer": "0xa6f4fa9840aa6825446c820af6d5eccf9f78ba05"
      },
      {
        "passId": "945",
        "signer": "0xa77d9227eee861e01519548b6000acca8600eebe"
      },
      {
        "passId": "946",
        "signer": "0xa7d9f4fd84cdd4bee564adc1b18e3e8aa79d25f1"
      },
      {
        "passId": "947",
        "signer": "0xa88e4a192f3ff5e46dcc96efefb38dfec7bb250c"
      },
      {
        "passId": "948",
        "signer": "0xab2f02d8d409ee4f67fdda5aac5ca7a64a897271"
      },
      {
        "passId": "949",
        "signer": "0xac75cdc34283406b050cadf4ea5902a9310b138e"
      },
      {
        "passId": "950",
        "signer": "0xad9f9194c68bd83250a534a7da574687e1f102ff"
      },
      {
        "passId": "951",
        "signer": "0xae8ce6bb2b95684f57c097b407f4e9b55d9ca432"
      },
      {
        "passId": "952",
        "signer": "0xaee2f40fe0568bd859bc6a518c7ef3252fdc9bf0"
      },
      {
        "passId": "953",
        "signer": "0xaf5cb828389bd6413e7bcd00ed2dcf2bdc1a015a"
      },
      {
        "passId": "954",
        "signer": "0xaf8fbf59e221d27b55dc3adc2366f9230bcf5096"
      },
      {
        "passId": "955",
        "signer": "0xb29b1936c11b77cec6061a9daf765ee2666c8f77"
      },
      {
        "passId": "956",
        "signer": "0xb347b5b99c49ce6c555071a1f0498c81511ad977"
      },
      {
        "passId": "957",
        "signer": "0xb3522064694ac9870dbf00eebc2712762193bb64"
      },
      {
        "passId": "958",
        "signer": "0xb353268ce17d2c7f0f4f8aff152e548c43633df5"
      },
      {
        "passId": "959",
        "signer": "0xb66190f67ed8f0ca790ddfe541ee1bd0da53fe70"
      },
      {
        "passId": "960",
        "signer": "0xb7f9f538aa1b41ae2853eb63f1939187ffe70eb4"
      },
      {
        "passId": "961",
        "signer": "0xbb46c6e4d8a59520fbb11638c2d1228cc65f5a6c"
      },
      {
        "passId": "962",
        "signer": "0xbc10a3ae909b1b94f4c3e39607ad19d386dce32a"
      },
      {
        "passId": "963",
        "signer": "0xbd12aa424c207e90b66402c1f0aec357e8b1ded7"
      },
      {
        "passId": "964",
        "signer": "0xbe5be517537e53f09e88bcdf61da238477dca226"
      },
      {
        "passId": "965",
        "signer": "0xbeeef66749b64afe43bbc9475635eb510cfe4922"
      },
      {
        "passId": "966",
        "signer": "0xbf1ed1ea654ad49472daedc21a31c8d28e6bb790"
      },
      {
        "passId": "967",
        "signer": "0xbfdb50dc66c8df9fd9688d8fe5a0c34126427645"
      },
      {
        "passId": "968",
        "signer": "0xc09d3402515676b81a2f768c365146ea3faa5605"
      },
      {
        "passId": "969",
        "signer": "0xc0e5e14bdecd9ed6954a9e14c74e97cebd91bb94"
      },
      {
        "passId": "970",
        "signer": "0xc169699a825066f2f07e0b29c4082094b32a3f3e"
      },
      {
        "passId": "971",
        "signer": "0xc3a67c1437353bdc9c53060235a34018711de0cf"
      },
      {
        "passId": "972",
        "signer": "0xc42c694d0215b27bce1a871a4a2ad38cf0120a82"
      },
      {
        "passId": "973",
        "signer": "0xc555347d2b369b074be94fe6f7ae9ab43966b884"
      },
      {
        "passId": "974",
        "signer": "0xc665a60f22dda926b920deb8ffac0ef9d8a17460"
      },
      {
        "passId": "975",
        "signer": "0xc8286a9bf1f9bf8f3006fa014915c78b7e75111c"
      },
      {
        "passId": "976",
        "signer": "0xc8bace82793074fad3337424bdb84e306b2f8a44"
      },
      {
        "passId": "977",
        "signer": "0xc9a009bed9ed8a32499e18c20f7cd12132c8d6cb"
      },
      {
        "passId": "978",
        "signer": "0xca11d10ceb098f597a0cab28117fc3465991a63c"
      },
      {
        "passId": "979",
        "signer": "0xcbd2f544073eb35b59a8eb19194a222a5361cd74"
      },
      {
        "passId": "980",
        "signer": "0xcda685c8444f659ac3fe778f8d143aabdf1a21ab"
      },
      {
        "passId": "981",
        "signer": "0xcea78aaa93e917fb5e1802901db2b20aa4411b44"
      },
      {
        "passId": "982",
        "signer": "0xcef871b113d2bb5d3fa5dc96d2d288dd38082aae"
      },
      {
        "passId": "983",
        "signer": "0xcf680fb77c12e2aa2dec82f3ae0c0e527f549fe2"
      },
      {
        "passId": "984",
        "signer": "0xd1eddfcc4596cc8bd0bd7495beab9b979fc50336"
      },
      {
        "passId": "985",
        "signer": "0xd286064cc27514b914bab0f2fad2e1a89a91f314"
      },
      {
        "passId": "986",
        "signer": "0xd3e64b9dea13e4840a0da20965bd0ca37d05a12a"
      },
      {
        "passId": "987",
        "signer": "0xd651e2c626ee210fc38676124d5007ac822ad749"
      },
      {
        "passId": "988",
        "signer": "0xd657860fc512ec2250a7385a353f599e3276fddb"
      },
      {
        "passId": "989",
        "signer": "0xd6e02c13a6cc133c9d019495414667ea7bee05cc"
      },
      {
        "passId": "990",
        "signer": "0xdc190d7cea8e8bf0b381617062200c10cfff0a91"
      },
      {
        "passId": "991",
        "signer": "0xdd6c81d6d587e2d49eaadffb4ce380564046002a"
      },
      {
        "passId": "992",
        "signer": "0xddb92a96054132801cae3943b2f966fc2c308ac8"
      },
      {
        "passId": "993",
        "signer": "0xdde3ca351d85a4b4cc6aff8d42c0840959859053"
      },
      {
        "passId": "994",
        "signer": "0xe120ed22a0cd12d5de6122aa7d5b6d93ac218b49"
      },
      {
        "passId": "995",
        "signer": "0xe20adb03a470b5573bf572dd918e052d0d17866e"
      },
      {
        "passId": "996",
        "signer": "0xe363c2fba75cbd27487b17430e1efbdd2add374e"
      },
      {
        "passId": "997",
        "signer": "0xe5a3d77d7788a83f3549dd7f08fc2aced7e262d2"
      },
      {
        "passId": "998",
        "signer": "0xe66e1e9e37e4e148b21eb22001431818e980d060"
      },
      {
        "passId": "999",
        "signer": "0xe7bd51dc30d4bdc9fddd42ea7c0a283590c9d416"
      },
      {
        "passId": "1000",
        "signer": "0xeb42cd8a1fe1ff556960a9a03ca29aa13f8aa838"
      },
      {
        "passId": "1001",
        "signer": "0xed0f30677c760ea8f0bff70c76eafc79d5f7c3c8"
      },
      {
        "passId": "1002",
        "signer": "0xeddd55a234240042695d7430bf0a09b9038a26ad"
      },
      {
        "passId": "1003",
        "signer": "0xee4d308cc1cde3dd0adcb5a2c85edff22db64918"
      },
      {
        "passId": "1004",
        "signer": "0xee9439a12a7c2a9b6600ca8a498620580d2f116e"
      },
      {
        "passId": "1005",
        "signer": "0xeeaf61935c0c48f8f8cc28c381683d7fa2f75e1c"
      },
      {
        "passId": "1006",
        "signer": "0xef1271ae97bc1a1b356ab697e9ed0d1d4e05fcda"
      },
      {
        "passId": "1007",
        "signer": "0xf19bc58f747d6ea11959bf2a0fa81e53285546ac"
      },
      {
        "passId": "1008",
        "signer": "0xf1e1c701b49b1dc2405a9e8ef40f9f88802b80fa"
      },
      {
        "passId": "1009",
        "signer": "0xf2b15320db6992ba49a7563e50e888c20edcbe3c"
      },
      {
        "passId": "1010",
        "signer": "0xf341c3abb49feb96b4822e68227b54c6fb9f6318"
      },
      {
        "passId": "1011",
        "signer": "0xf3493f6812b1f22b40f8539db2510e13ac251f96"
      },
      {
        "passId": "1012",
        "signer": "0xf3b1b6e83be4d55695f1d30ac3d307d9d5ca98ff"
      },
      {
        "passId": "1013",
        "signer": "0xf464d1a37d8ef9449722f44a4eeb715c0e0acdb3"
      },
      {
        "passId": "1014",
        "signer": "0xf6910d47fbb1f5518d60c721d4189936ecd5a1b6"
      },
      {
        "passId": "1015",
        "signer": "0xf73c935815908ad9a056fc50269f95d8ba032e9d"
      },
      {
        "passId": "1016",
        "signer": "0xf78cd306b23031de9e739a5bcde61764e82ad5ef"
      },
      {
        "passId": "1017",
        "signer": "0xf942040710bedf7220beb24b220631c2255e87f1"
      },
      {
        "passId": "1018",
        "signer": "0xf943e1d2db38db468f66a79b08ec23f8c4375ce3"
      },
      {
        "passId": "1019",
        "signer": "0xfa46dedf812c5803b1e2cea10eef3f27dafeca56"
      },
      {
        "passId": "1020",
        "signer": "0xfa9f104f338846b38b083c9e567ff6bbe43ab5f7"
      },
      {
        "passId": "1021",
        "signer": "0xfd12799b9fb97dc61d9ad7ad4ffba5624004bc62"
      },
      {
        "passId": "1022",
        "signer": "0xfe1e7dc61721f34a25c9eb4dc1a1a8f352c923ef"
      },
      {
        "passId": "1023",
        "signer": "0xfffff6e70842330948ca47254f2be673b1cb0db7"
      }
    ],
    "publicSaleTimestamp": 1637786026,
    "deploymentCost": "3500000000000000000"
  },
  "solcInputHash": "57b0c679cfa11deaf51e4a5214cf9fc4",
  "bytecode": "0x6101c06040523480156200001257600080fd5b50604051620024823803806200248283398101604081905262000035916200009e565b6001600160a01b039b8c16608052958b1660a05260c09490945291891660e05260005590961661010052610120959095526101409390935261016091909152610180526101a05260015562000159565b6001600160a01b03811681146200009b57600080fd5b50565b6000806000806000806000806000806000806101808d8f031215620000c257600080fd5b8c51620000cf8162000085565b809c505060208d01519a5060408d0151995060608d0151985060808d0151975060a08d0151620000ff8162000085565b60c08e015160e08f01519198509650620001198162000085565b6101008e01516101208f01519196509450620001358162000085565b809350506101408d015191506101608d015190509295989b509295989b509295989b565b60805160a05160c05160e05161010051610120516101405161016051610180516101a0516122136200026f60003960008181610376015281816105b20152610fef0152600081816103530152818161041101528181610591015281816106110152818161071f015261116e01526000818161033001528181610570015261119601526000818161030d0152818161054f01526111bc015260008181610399015281816105d3015281816111e2015261121e01526000610ca20152600061184701526000818161175501526117830152600081816107cd015281816109fd01528181611679015281816116f201526117cf01526000818161023e0152818161098501528181610c0d015261135301526122136000f3fe6080604052600436106100b15760003560e01c8063990b0f6011610069578063ca9dca041161004e578063ca9dca04146101ce578063d93459b6146101ee578063e957a3811461020e57600080fd5b8063990b0f601461019b5780639c205513146101bb57600080fd5b80632558e9331161009a5780632558e933146101245780636d048d53146101395780637361a72e1461018857600080fd5b80630ccc797f146100b65780632228adcc146100f4575b600080fd5b3480156100c257600080fd5b506100d66100d1366004611a5c565b61022e565b6040516100eb99989796959493929190611ab8565b60405180910390f35b34801561010057600080fd5b5061011461010f366004611b54565b6103e5565b60405190151581526020016100eb565b610137610132366004611c91565b61040f565b005b34801561014557600080fd5b50610159610154366004611d93565b610544565b6040805196875260208701959095529385019290925260608401526080830152151560a082015260c0016100eb565b610137610196366004611db0565b61060f565b3480156101a757600080fd5b506101146101b6366004611b54565b6106d2565b6101376101c9366004611e1a565b61071d565b3480156101da57600080fd5b506101376101e9366004611e1a565b6107b5565b3480156101fa57600080fd5b50610137610209366004611e51565b6109e5565b34801561021a57600080fd5b50610114610229366004611b54565b610c7d565b60606000806000806000806000807f000000000000000000000000000000000000000000000000000000000000000073ffffffffffffffffffffffffffffffffffffffff1663a0554c268c8c6040518363ffffffff1660e01b8152600401610297929190611ea8565b60006040518083038186803b1580156102af57600080fd5b505afa1580156102c3573d6000803e3d6000fd5b505050506040513d6000823e601f3d9081017fffffffffffffffffffffffffffffffffffffffffffffffffffffffffffffffe01682016040526103099190810190611efd565b98507f000000000000000000000000000000000000000000000000000000000000000097507f000000000000000000000000000000000000000000000000000000000000000096507f000000000000000000000000000000000000000000000000000000000000000095507f000000000000000000000000000000000000000000000000000000000000000094507f000000000000000000000000000000000000000000000000000000000000000093506103c38d610c9b565b92506103ce8c6106d2565b915060015490509499509499509499509499909550565b6000806103f76010600685901c611fc6565b905080600714806104085750806008145b9392505050565b7f00000000000000000000000000000000000000000000000000000000000000004210156105335761044083610e04565b60006104ab83858760405160200161048792919091825260601b7fffffffffffffffffffffffffffffffffffffffff00000000000000000000000016602082015260340190565b60405160208183030381529060405280519060200120610ec290919063ffffffff16565b905060006104b98583610ee6565b90506104c58382610f47565b610530576040517f08c379a000000000000000000000000000000000000000000000000000000000815260206004820152600d60248201527f494e56414c49445f50524f4f460000000000000000000000000000000000000060448201526064015b60405180910390fd5b50505b61053d8585611014565b5050505050565b6000806000806000807f00000000000000000000000000000000000000000000000000000000000000007f00000000000000000000000000000000000000000000000000000000000000007f00000000000000000000000000000000000000000000000000000000000000007f00000000000000000000000000000000000000000000000000000000000000007f00000000000000000000000000000000000000000000000000000000000000006105fb8c610c9b565b949c939b5091995097509550909350915050565b7f00000000000000000000000000000000000000000000000000000000000000004210156106c25761064082610e04565b33600061064d8483610ee6565b90506106598382610f47565b6106bf576040517f08c379a000000000000000000000000000000000000000000000000000000000815260206004820152600d60248201527f494e56414c49445f50524f4f46000000000000000000000000000000000000006044820152606401610527565b50505b6106cc8484611014565b50505050565b6000806106e161010084612009565b905060006106f18261010061201d565b6106fb908561205a565b60009283526002602052604090922054600190921b9182169091149392505050565b7f00000000000000000000000000000000000000000000000000000000000000004210156107a7576040517f08c379a000000000000000000000000000000000000000000000000000000000815260206004820152601460248201527f524551554952455f504153535f4f525f574149540000000000000000000000006044820152606401610527565b6107b18282611014565b5050565b3373ffffffffffffffffffffffffffffffffffffffff7f00000000000000000000000000000000000000000000000000000000000000001614610854576040517f08c379a000000000000000000000000000000000000000000000000000000000815260206004820152600e60248201527f4e4f545f415554484f52495a45440000000000000000000000000000000000006044820152606401610527565b6102408261ffff16106108c3576040517f08c379a000000000000000000000000000000000000000000000000000000000815260206004820152600d60248201527f494e56414c49445f534f554e44000000000000000000000000000000000000006044820152606401610527565b6108d08261ffff166103e5565b610936576040517f08c379a000000000000000000000000000000000000000000000000000000000815260206004820152600c60248201527f4e4f545f524553455256454400000000000000000000000000000000000000006044820152606401610527565b6040517f9c20551300000000000000000000000000000000000000000000000000000000815261ffff8316600482015273ffffffffffffffffffffffffffffffffffffffff82811660248301527f00000000000000000000000000000000000000000000000000000000000000001690639c20551390604401600060405180830381600087803b1580156109c957600080fd5b505af11580156109dd573d6000803e3d6000fd5b505050505050565b3373ffffffffffffffffffffffffffffffffffffffff7f00000000000000000000000000000000000000000000000000000000000000001614610a84576040517f08c379a000000000000000000000000000000000000000000000000000000000815260206004820152600e60248201527f4e4f545f415554484f52495a45440000000000000000000000000000000000006044820152606401610527565b60005b82811015610bcf57610240848483818110610aa457610aa4612071565b9050602002016020810190610ab991906120a0565b61ffff1610610b24576040517f08c379a000000000000000000000000000000000000000000000000000000000815260206004820152600d60248201527f494e56414c49445f534f554e44000000000000000000000000000000000000006044820152606401610527565b610b57848483818110610b3957610b39612071565b9050602002016020810190610b4e91906120a0565b61ffff166103e5565b610bbd576040517f08c379a000000000000000000000000000000000000000000000000000000000815260206004820152600c60248201527f4e4f545f524553455256454400000000000000000000000000000000000000006044820152606401610527565b80610bc7816120bb565b915050610a87565b506040517fe2ea128800000000000000000000000000000000000000000000000000000000815273ffffffffffffffffffffffffffffffffffffffff7f0000000000000000000000000000000000000000000000000000000000000000169063e2ea128890610c46908690869086906004016120f4565b600060405180830381600087803b158015610c6057600080fd5b505af1158015610c74573d6000803e3d6000fd5b50505050505050565b600080610c8f6010600685901c611fc6565b60015410159392505050565b60008060007f000000000000000000000000000000000000000000000000000000000000000073ffffffffffffffffffffffffffffffffffffffff1684604051602401610d04919073ffffffffffffffffffffffffffffffffffffffff91909116815260200190565b604080517fffffffffffffffffffffffffffffffffffffffffffffffffffffffffffffffe08184030181529181526020820180517bffffffffffffffffffffffffffffffffffffffffffffffffffffffff167f70a082310000000000000000000000000000000000000000000000000000000017905251610d85919061215a565b600060405180830381855afa9150503d8060008114610dc0576040519150601f19603f3d011682016040523d82523d6000602084013e610dc5565b606091505b50915091506000828015610dda575060008251115b610de5576000610df9565b81806020019051810190610df99190612195565b151595945050505050565b6000610e1261010083612009565b90506000610e228261010061201d565b610e2c908461205a565b600083815260026020526040902054600190911b915080821615610eac576040517f08c379a000000000000000000000000000000000000000000000000000000000815260206004820152601160248201527f504153535f414c52454144595f555345440000000000000000000000000000006044820152606401610527565b6000928352600260205260409092209117905550565b6000806000610ed18585611382565b91509150610ede816113f2565b509392505050565b60008282604051602001610f2992919091825260601b7fffffffffffffffffffffffffffffffffffffffff00000000000000000000000016602082015260340190565b60405160208183030381529060405280519060200120905092915050565b6000805b8351811015610feb576000848281518110610f6857610f68612071565b6020026020010151905080841015610fab576040805160208101869052908101829052606001604051602081830303815290604052805190602001209350610fd8565b60408051602081018390529081018590526060016040516020818303038152906040528051906020012093505b5080610fe3816120bb565b915050610f4b565b50507f000000000000000000000000000000000000000000000000000000000000000014919050565b6102408261ffff1610611083576040517f08c379a000000000000000000000000000000000000000000000000000000000815260206004820152600d60248201527f494e56414c49445f534f554e44000000000000000000000000000000000000006044820152606401610527565b6110908261ffff16610c7d565b6110f6576040517f08c379a000000000000000000000000000000000000000000000000000000000815260206004820152601b60248201527f494e535455524d454e545f4e4f545f5945545f464f525f53414c4500000000006044820152606401610527565b6111038261ffff166103e5565b1561116a576040517f08c379a000000000000000000000000000000000000000000000000000000000815260206004820152600860248201527f52455345525645440000000000000000000000000000000000000000000000006044820152606401610527565b60007f00000000000000000000000000000000000000000000000000000000000000004210156111ba577f00000000000000000000000000000000000000000000000000000000000000006111dc565b7f00000000000000000000000000000000000000000000000000000000000000005b905060007f0000000000000000000000000000000000000000000000000000000000000000118015611212575061121233610c9b565b1561125a5760646112437f00000000000000000000000000000000000000000000000000000000000000008361201d565b61124d9190612009565b611257908261205a565b90505b803410156112c4576040517f08c379a000000000000000000000000000000000000000000000000000000000815260206004820152600a60248201527f4e4f545f454e4f554748000000000000000000000000000000000000000000006044820152606401610527565b336108fc6112d2833461205a565b6040518115909202916000818181858888f193505050501580156112fa573d6000803e3d6000fd5b506113048161164e565b6040517f9c20551300000000000000000000000000000000000000000000000000000000815261ffff8416600482015273ffffffffffffffffffffffffffffffffffffffff83811660248301527f00000000000000000000000000000000000000000000000000000000000000001690639c20551390604401610c46565b6000808251604114156113b95760208301516040840151606085015160001a6113ad87828585611895565b945094505050506113eb565b8251604014156113e357602083015160408401516113d88683836119ad565b9350935050506113eb565b506000905060025b9250929050565b6000816004811115611406576114066121ae565b141561140f5750565b6001816004811115611423576114236121ae565b141561148b576040517f08c379a000000000000000000000000000000000000000000000000000000000815260206004820152601860248201527f45434453413a20696e76616c6964207369676e617475726500000000000000006044820152606401610527565b600281600481111561149f5761149f6121ae565b1415611507576040517f08c379a000000000000000000000000000000000000000000000000000000000815260206004820152601f60248201527f45434453413a20696e76616c6964207369676e6174757265206c656e677468006044820152606401610527565b600381600481111561151b5761151b6121ae565b14156115a9576040517f08c379a000000000000000000000000000000000000000000000000000000000815260206004820152602260248201527f45434453413a20696e76616c6964207369676e6174757265202773272076616c60448201527f75650000000000000000000000000000000000000000000000000000000000006064820152608401610527565b60048160048111156115bd576115bd6121ae565b141561164b576040517f08c379a000000000000000000000000000000000000000000000000000000000815260206004820152602260248201527f45434453413a20696e76616c6964207369676e6174757265202776272076616c60448201527f75650000000000000000000000000000000000000000000000000000000000006064820152608401610527565b50565b600054801561174d57808211156116d85760405173ffffffffffffffffffffffffffffffffffffffff7f0000000000000000000000000000000000000000000000000000000000000000169082156108fc029083906000818181858888f193505050501580156116c2573d6000803e3d6000fd5b506116cd818361205a565b60008055915061174d565b60405173ffffffffffffffffffffffffffffffffffffffff7f0000000000000000000000000000000000000000000000000000000000000000169083156108fc029084906000818181858888f1935050505015801561173b573d6000803e3d6000fd5b50611746828261205a565b6000555050565b81156107b1577f0000000000000000000000000000000000000000000000000000000000000000156118275760006127106117a87f00000000000000000000000000000000000000000000000000000000000000008561201d565b6117b29190612009565b60405190915073ffffffffffffffffffffffffffffffffffffffff7f0000000000000000000000000000000000000000000000000000000000000000169082156108fc029083906000818181858888f19350505050158015611818573d6000803e3d6000fd5b50611823818461205a565b9250505b81156107b15760405173ffffffffffffffffffffffffffffffffffffffff7f0000000000000000000000000000000000000000000000000000000000000000169083156108fc029084906000818181858888f19350505050158015611890573d6000803e3d6000fd5b505050565b6000807f7fffffffffffffffffffffffffffffff5d576e7357a4501ddfe92f46681b20a08311156118cc57506000905060036119a4565b8460ff16601b141580156118e457508460ff16601c14155b156118f557506000905060046119a4565b6040805160008082526020820180845289905260ff881692820192909252606081018690526080810185905260019060a0016020604051602081039080840390855afa158015611949573d6000803e3d6000fd5b50506040517fffffffffffffffffffffffffffffffffffffffffffffffffffffffffffffffe0015191505073ffffffffffffffffffffffffffffffffffffffff811661199d576000600192509250506119a4565b9150600090505b94509492505050565b6000807f7fffffffffffffffffffffffffffffffffffffffffffffffffffffffffffffff831660ff84901c601b016119e787828885611895565b935093505050935093915050565b73ffffffffffffffffffffffffffffffffffffffff8116811461164b57600080fd5b60008083601f840112611a2957600080fd5b50813567ffffffffffffffff811115611a4157600080fd5b6020830191508360208260051b85010111156113eb57600080fd5b60008060008060608587031215611a7257600080fd5b8435611a7d816119f5565b935060208501359250604085013567ffffffffffffffff811115611aa057600080fd5b611aac87828801611a17565b95989497509550505050565b6101208082528a51908201819052600090610140830190602090818e01845b82811015611b0957815173ffffffffffffffffffffffffffffffffffffffff1685529383019390830190600101611ad7565b5050508192508b8185015250508860408301528760608301528660808301528560a0830152611b3c60c083018615159052565b92151560e08201526101000152979650505050505050565b600060208284031215611b6657600080fd5b5035919050565b803561ffff81168114611b7f57600080fd5b919050565b7f4e487b7100000000000000000000000000000000000000000000000000000000600052604160045260246000fd5b604051601f82017fffffffffffffffffffffffffffffffffffffffffffffffffffffffffffffffe016810167ffffffffffffffff81118282101715611bfa57611bfa611b84565b604052919050565b600067ffffffffffffffff821115611c1c57611c1c611b84565b5060051b60200190565b600082601f830112611c3757600080fd5b81356020611c4c611c4783611c02565b611bb3565b82815260059290921b84018101918181019086841115611c6b57600080fd5b8286015b84811015611c865780358352918301918301611c6f565b509695505050505050565b600080600080600060a08688031215611ca957600080fd5b611cb286611b6d565b9450602080870135611cc3816119f5565b945060408701359350606087013567ffffffffffffffff80821115611ce757600080fd5b818901915089601f830112611cfb57600080fd5b813581811115611d0d57611d0d611b84565b611d3d847fffffffffffffffffffffffffffffffffffffffffffffffffffffffffffffffe0601f84011601611bb3565b8181528b85838601011115611d5157600080fd5b818585018683013760009181019094015291935060808801359180831115611d7857600080fd5b5050611d8688828901611c26565b9150509295509295909350565b600060208284031215611da557600080fd5b8135610408816119f5565b60008060008060808587031215611dc657600080fd5b611dcf85611b6d565b93506020850135611ddf816119f5565b925060408501359150606085013567ffffffffffffffff811115611e0257600080fd5b611e0e87828801611c26565b91505092959194509250565b60008060408385031215611e2d57600080fd5b611e3683611b6d565b91506020830135611e46816119f5565b809150509250929050565b600080600060408486031215611e6657600080fd5b833567ffffffffffffffff811115611e7d57600080fd5b611e8986828701611a17565b9094509250506020840135611e9d816119f5565b809150509250925092565b6020815281602082015260007f07ffffffffffffffffffffffffffffffffffffffffffffffffffffffffffffff831115611ee157600080fd5b8260051b80856040850137600092016040019182525092915050565b60006020808385031215611f1057600080fd5b825167ffffffffffffffff811115611f2757600080fd5b8301601f81018513611f3857600080fd5b8051611f46611c4782611c02565b81815260059190911b82018301908381019087831115611f6557600080fd5b928401925b82841015611f8c578351611f7d816119f5565b82529284019290840190611f6a565b979650505050505050565b7f4e487b7100000000000000000000000000000000000000000000000000000000600052601260045260246000fd5b600082611fd557611fd5611f97565b500690565b7f4e487b7100000000000000000000000000000000000000000000000000000000600052601160045260246000fd5b60008261201857612018611f97565b500490565b6000817fffffffffffffffffffffffffffffffffffffffffffffffffffffffffffffffff048311821515161561205557612055611fda565b500290565b60008282101561206c5761206c611fda565b500390565b7f4e487b7100000000000000000000000000000000000000000000000000000000600052603260045260246000fd5b6000602082840312156120b257600080fd5b61040882611b6d565b60007fffffffffffffffffffffffffffffffffffffffffffffffffffffffffffffffff8214156120ed576120ed611fda565b5060010190565b6040808252810183905260008460608301825b868110156121305761ffff61211b84611b6d565b16825260209283019290910190600101612107565b50809250505073ffffffffffffffffffffffffffffffffffffffff83166020830152949350505050565b6000825160005b8181101561217b5760208186018101518583015201612161565b8181111561218a576000828501525b509190910192915050565b6000602082840312156121a757600080fd5b5051919050565b7f4e487b7100000000000000000000000000000000000000000000000000000000600052602160045260246000fdfea2646970667358221220b36da589c49b92217c02c0c023f4723beba2aee69bff52022dd724f738fbafa664736f6c63430008090033",
  "devdoc": {
    "kind": "dev",
    "methods": {},
    "version": 1
  },
  "userdoc": {
    "kind": "user",
    "methods": {},
    "version": 1
  },
  "storageLayout": {
    "storage": [
      {
        "astId": 12356,
        "contract": "src/bleeps/BleepsFixedPriceSale.sol:BleepsFixedPriceSale",
        "label": "_deploymentCostToPay",
        "offset": 0,
        "slot": "0",
        "type": "t_uint256"
      },
      {
        "astId": 10521,
        "contract": "src/bleeps/BleepsFixedPriceSale.sol:BleepsFixedPriceSale",
        "label": "_uptoInstr",
        "offset": 0,
        "slot": "1",
        "type": "t_uint256"
      },
      {
        "astId": 10525,
        "contract": "src/bleeps/BleepsFixedPriceSale.sol:BleepsFixedPriceSale",
        "label": "_passUsed",
        "offset": 0,
        "slot": "2",
        "type": "t_mapping(t_uint256,t_uint256)"
      }
    ],
    "types": {
      "t_mapping(t_uint256,t_uint256)": {
        "encoding": "mapping",
        "key": "t_uint256",
        "label": "mapping(uint256 => uint256)",
        "numberOfBytes": "32",
        "value": "t_uint256"
      },
      "t_uint256": {
        "encoding": "inplace",
        "label": "uint256",
        "numberOfBytes": "32"
      }
    }
  }
}