{
  "address": "0x116ed382B1033BE34f31105DEA4Af8a4C9943C21",
  "abi": [
    {
      "inputs": [
        {
          "internalType": "contract Bleeps",
          "name": "bleeps",
          "type": "address"
        },
        {
          "internalType": "uint256",
          "name": "price",
          "type": "uint256"
        },
        {
          "internalType": "uint256",
          "name": "whitelistPrice",
          "type": "uint256"
        },
        {
          "internalType": "uint256",
          "name": "whitelistTimeLimit",
          "type": "uint256"
        },
        {
          "internalType": "bytes32",
          "name": "whitelistMerkleRoot",
          "type": "bytes32"
        },
        {
          "internalType": "address payable",
          "name": "projectCreator",
          "type": "address"
        },
        {
          "internalType": "uint256",
          "name": "creatorFeePer10000",
          "type": "uint256"
        },
        {
          "internalType": "address payable",
          "name": "saleRecipient",
          "type": "address"
        },
        {
          "internalType": "uint256",
          "name": "uptoInstr",
          "type": "uint256"
        }
      ],
      "stateMutability": "nonpayable",
      "type": "constructor"
    },
    {
      "inputs": [
        {
          "internalType": "uint16",
          "name": "id",
          "type": "uint16"
        },
        {
          "internalType": "address",
          "name": "to",
          "type": "address"
        }
      ],
      "name": "creatorMint",
      "outputs": [],
      "stateMutability": "nonpayable",
      "type": "function"
    },
    {
      "inputs": [
        {
          "internalType": "uint16[]",
          "name": "ids",
          "type": "uint16[]"
        },
        {
          "internalType": "address",
          "name": "to",
          "type": "address"
        }
      ],
      "name": "creatorMultiMint",
      "outputs": [],
      "stateMutability": "nonpayable",
      "type": "function"
    },
    {
      "inputs": [
        {
          "internalType": "uint256",
          "name": "id",
          "type": "uint256"
        }
      ],
      "name": "isOpenForSale",
      "outputs": [
        {
          "internalType": "bool",
          "name": "",
          "type": "bool"
        }
      ],
      "stateMutability": "view",
      "type": "function"
    },
    {
      "inputs": [
        {
          "internalType": "uint256",
          "name": "passId",
          "type": "uint256"
        }
      ],
      "name": "isPassUsed",
      "outputs": [
        {
          "internalType": "bool",
          "name": "",
          "type": "bool"
        }
      ],
      "stateMutability": "view",
      "type": "function"
    },
    {
      "inputs": [
        {
          "internalType": "uint256",
          "name": "id",
          "type": "uint256"
        }
      ],
      "name": "isReserved",
      "outputs": [
        {
          "internalType": "bool",
          "name": "",
          "type": "bool"
        }
      ],
      "stateMutability": "pure",
      "type": "function"
    },
    {
      "inputs": [
        {
          "internalType": "uint16",
          "name": "id",
          "type": "uint16"
        },
        {
          "internalType": "address",
          "name": "to",
          "type": "address"
        }
      ],
      "name": "mint",
      "outputs": [],
      "stateMutability": "payable",
      "type": "function"
    },
    {
      "inputs": [
        {
          "internalType": "uint16",
          "name": "id",
          "type": "uint16"
        },
        {
          "internalType": "address",
          "name": "to",
          "type": "address"
        },
        {
          "internalType": "uint256",
          "name": "passId",
          "type": "uint256"
        },
        {
          "internalType": "bytes32[]",
          "name": "proof",
          "type": "bytes32[]"
        }
      ],
      "name": "mintWithPassId",
      "outputs": [],
      "stateMutability": "payable",
      "type": "function"
    },
    {
      "inputs": [
        {
          "internalType": "uint16",
          "name": "id",
          "type": "uint16"
        },
        {
          "internalType": "address",
          "name": "to",
          "type": "address"
        },
        {
          "internalType": "uint256",
          "name": "passId",
          "type": "uint256"
        },
        {
          "internalType": "bytes",
          "name": "signature",
          "type": "bytes"
        },
        {
          "internalType": "bytes32[]",
          "name": "proof",
          "type": "bytes32[]"
        }
      ],
      "name": "mintWithSalePass",
      "outputs": [],
      "stateMutability": "payable",
      "type": "function"
    },
    {
      "inputs": [
        {
          "internalType": "address",
          "name": "purchaser",
          "type": "address"
        },
        {
          "internalType": "uint256",
          "name": "passId",
          "type": "uint256"
        },
        {
          "internalType": "uint256[]",
          "name": "ids",
          "type": "uint256[]"
        }
      ],
      "name": "ownersAndPriceInfo",
      "outputs": [
        {
          "internalType": "address[]",
          "name": "addresses",
          "type": "address[]"
        },
        {
          "internalType": "uint256",
          "name": "price",
          "type": "uint256"
        },
        {
          "internalType": "uint256",
          "name": "whitelistPrice",
          "type": "uint256"
        },
        {
          "internalType": "uint256",
          "name": "whitelistTimeLimit",
          "type": "uint256"
        },
        {
          "internalType": "bytes32",
          "name": "whitelistMerkleRoot",
          "type": "bytes32"
        },
        {
          "internalType": "bool",
          "name": "passUsed",
          "type": "bool"
        },
        {
          "internalType": "uint256",
          "name": "uptoInstr",
          "type": "uint256"
        }
      ],
      "stateMutability": "view",
      "type": "function"
    },
    {
      "inputs": [
        {
          "internalType": "address",
          "name": "purchaser",
          "type": "address"
        }
      ],
      "name": "priceInfo",
      "outputs": [
        {
          "internalType": "uint256",
          "name": "price",
          "type": "uint256"
        },
        {
          "internalType": "uint256",
          "name": "whitelistPrice",
          "type": "uint256"
        },
        {
          "internalType": "uint256",
          "name": "whitelistTimeLimit",
          "type": "uint256"
        },
        {
          "internalType": "bytes32",
          "name": "whitelistMerkleRoot",
          "type": "bytes32"
        }
      ],
      "stateMutability": "view",
      "type": "function"
    }
  ],
  "transactionHash": "0x257ccf09d01d057035bb93cd6be52339c2dd78b6b0ab1ccf16c3f55d2a2702f3",
  "args": [
    "0x1ac89a5fE108854f9D8BFBFB0CB97D90A7F8D1A6",
    "100000000000000000",
    "100000000000000000",
    1638024619,
    "0x5636e9b1b0b88ab838fc3247df986a6b4e5f5b91502ef0e63a3e66e565b3cecf",
    "0xE53cd71271AcAdbeb0f64d9c8C62bBdDc8cA9e66",
    2446,
    "0xF0326FaD3779961fdE237071973c66F86742c742",
    2
  ],
  "linkedData": {
    "numPrivatePasses": 815,
    "leaves": [
      {
        "passId": "0",
        "signer": "0xD83130E3a5085a840D34671f38AE051ADe28f240"
      },
      {
        "passId": "1",
        "signer": "0x695acA753A202FbBfF925bd4F7aF678CaAb40eDB"
      },
      {
        "passId": "2",
        "signer": "0xd9cFDdfb848B90b334b785077329ED4f4dCB4181"
      },
      {
        "passId": "3",
        "signer": "0xb7CA32dCB5f006b87dE27868ab6CDd2588267DfB"
      },
      {
        "passId": "4",
        "signer": "0x208f4aB2D5ab6e70fF2D1c639363D1Ce3C565970"
      },
      {
        "passId": "5",
        "signer": "0x6eC2104b8A0B3ff17eaff99eb819966A61b169A2"
      },
      {
        "passId": "6",
        "signer": "0xe8F8E60976f4b895aFF75c4e773A0dea4B3bDa7b"
      },
      {
        "passId": "7",
        "signer": "0xb6A2B98Ed1f3e8Df82cB16FF866b6935482ad17c"
      },
      {
        "passId": "8",
        "signer": "0xdF829622C245E38b0665bbbfaDAeCA4CD9dC2c0A"
      },
      {
        "passId": "9",
        "signer": "0x6eb2B933267C3F856Eaa99B5949DE4CDF12E97c1"
      },
      {
        "passId": "10",
        "signer": "0x07BC06B496bfC77A8f9f68FB2dc545bB80852bce"
      },
      {
        "passId": "11",
        "signer": "0x7123Daeb02F554bF5625f19aFF5813174c26654A"
      },
      {
        "passId": "12",
        "signer": "0xF7C894A1c4a16Ab21356034902a1e4D48f84b525"
      },
      {
        "passId": "13",
        "signer": "0x70C52D91ef0Bbfa4c67f67262AedB5Ce450C8fB8"
      },
      {
        "passId": "14",
        "signer": "0xA0f3b82E1468af0C3BD8d2163F41938B00cCA067"
      },
      {
        "passId": "15",
        "signer": "0x42ba2237dEbA418cD3d5dB05BE68F82778bF7588"
      },
      {
        "passId": "16",
        "signer": "0x53a6aB2922577901f571F3281285B9922b7442Ec"
      },
      {
        "passId": "17",
        "signer": "0xba990524526c01E7736EB905Fa7BD792e0F9426f"
      },
      {
        "passId": "18",
        "signer": "0xB9e3EEe22cE8cdCF318435bF58F9799796b7caD1"
      },
      {
        "passId": "19",
        "signer": "0x65968Bd59e957E24501b86b4375F9Ccd8CD20299"
      },
      {
        "passId": "20",
        "signer": "0xe3628Ca5985648aDa01DfbAC12db20D31469ce24"
      },
      {
        "passId": "21",
        "signer": "0xbBBED3653106Bffb0139AD69ac2Aacf276B37eA1"
      },
      {
        "passId": "22",
        "signer": "0x6c59fEB2AE6583D65D7719a100FB48Ba7f04A1d2"
      },
      {
        "passId": "23",
        "signer": "0x73F315b871Fb9deCB4b7D96e078109792de29190"
      },
      {
        "passId": "24",
        "signer": "0x7F5848944D052A0418961f1632d286EDa2059f52"
      },
      {
        "passId": "25",
        "signer": "0x6e9F2bD20944A9eF20e58a8dD8DA982Ab211B04b"
      },
      {
        "passId": "26",
        "signer": "0x59A1874b05C73CD5f6f0C0dFF79B071Bd5290ac2"
      },
      {
        "passId": "27",
        "signer": "0x6e5704B260C08a8db31365519D2B2b4D569af127"
      },
      {
        "passId": "28",
        "signer": "0xFa360ca3B0CE50179E81AcC3c0fDC68B207Abe15"
      },
      {
        "passId": "29",
        "signer": "0x4D0587e3EAFBCb350763cF764A67038C238a09f0"
      },
      {
        "passId": "30",
        "signer": "0xe0ef7909865afA6c768d634D1EC58cc98034C276"
      },
      {
        "passId": "31",
        "signer": "0xB355bb0587EA1B2680Ca6B7e87c19033A918621e"
      },
      {
        "passId": "32",
        "signer": "0x7AdeB2Ad1797d2cc6CfA01Fa131866630B5c51ae"
      },
      {
        "passId": "33",
        "signer": "0xfAB9fDBc9B051de1eA7E63fEc5D7B9F5c744bf95"
      },
      {
        "passId": "34",
        "signer": "0x6Dc1918576541091bAe33eBd38116417583F8f65"
      },
      {
        "passId": "35",
        "signer": "0x8C9A5ddDc1E6f622f64Be74c1e4486F880Aab523"
      },
      {
        "passId": "36",
        "signer": "0xa90855b965208789A6078337C0677F7dd9104249"
      },
      {
        "passId": "37",
        "signer": "0xBc005a6429ec0408384b6729e310e704957b511e"
      },
      {
        "passId": "38",
        "signer": "0xb43aFf089c9aba976b42E623E57d2d9E8277fdBF"
      },
      {
        "passId": "39",
        "signer": "0x2C57E4087305d1252B15868825d75c0f928448f1"
      },
      {
        "passId": "40",
        "signer": "0xE61ed584d735A024a3390bb490DE1040cF562a25"
      },
      {
        "passId": "41",
        "signer": "0xB2b3A6Ff0a542CEAd107e94056de802D5AAabDb6"
      },
      {
        "passId": "42",
        "signer": "0x8A23064c78B1485324f7e002B324dB2D08510158"
      },
      {
        "passId": "43",
        "signer": "0x5A8E15aB3782CC6dfdaa3828F2C1b85070db1d79"
      },
      {
        "passId": "44",
        "signer": "0x756fA589ed55Ce7eEaA7758AD0b53fC761a0FD2E"
      },
      {
        "passId": "45",
        "signer": "0xe3C922C46B526275f78e6AE7D09448886A9EF0fa"
      },
      {
        "passId": "46",
        "signer": "0x9A606480c43c3ad76c56D878E2fa94A1693B33AF"
      },
      {
        "passId": "47",
        "signer": "0x58766944A52Ca7628edaD0188f2861a9f175f859"
      },
      {
        "passId": "48",
        "signer": "0x0cffb1B5994Fd2a8F378e7bEF237d15098f2EAbc"
      },
      {
        "passId": "49",
        "signer": "0x903DAbEA3EADdd063c43d1aB637085628eDe49fe"
      },
      {
        "passId": "50",
        "signer": "0xD0a7018029719B5d18aD88A6CA5a9d6793365874"
      },
      {
        "passId": "51",
        "signer": "0xDe10eDA92251fd343ABD5495569e891B465e79a7"
      },
      {
        "passId": "52",
        "signer": "0xF3ce256598cCCC89AD53FA2a69549022bEd0ABAe"
      },
      {
        "passId": "53",
        "signer": "0x5dFe11d61b95f4FeD00aED97ce72e1d06656a265"
      },
      {
        "passId": "54",
        "signer": "0x0010Fb3E9dc7AC99765674daae729A107046266C"
      },
      {
        "passId": "55",
        "signer": "0x25Bf330f14F7173b2B94461533E8BD04Ad1D3009"
      },
      {
        "passId": "56",
        "signer": "0xC05FC625c4E9C77f1EF37fB7EC10Ef3b7e6696c2"
      },
      {
        "passId": "57",
        "signer": "0xf320c138a2917170BC3667C9bFcEeEfe54F1e28B"
      },
      {
        "passId": "58",
        "signer": "0xcb7F3aB4b36aC04fCB4E3d3AF8b6e528B3D71DCe"
      },
      {
        "passId": "59",
        "signer": "0x15D29fbADFea5BbdBeC22BB9727005b99e560d91"
      },
      {
        "passId": "60",
        "signer": "0x92fA3363B08484b488b2B0bd07B69A2b0089fe50"
      },
      {
        "passId": "61",
        "signer": "0x258eE916BA33e4480bFCedd9d186C7f2A4830534"
      },
      {
        "passId": "62",
        "signer": "0x541fa3Dfa071F2859FBC25CC92e4f4336F584CB2"
      },
      {
        "passId": "63",
        "signer": "0x0f246A5Dc1b830f6C2Cfa4fad2016A91a9e1DDFe"
      },
      {
        "passId": "64",
        "signer": "0x57BBDc1872537f8264b88ddB0a606C584919F0EA"
      },
      {
        "passId": "65",
        "signer": "0x66688618499C7608528867e4d4360cA350e24b80"
      },
      {
        "passId": "66",
        "signer": "0x0D0628A99f6b98F25B54607D4Ef014Afb708c08b"
      },
      {
        "passId": "67",
        "signer": "0x27F836d0CDe113C9812C0f3E6A724db56A1E24A6"
      },
      {
        "passId": "68",
        "signer": "0x0645b3DBBcD7AAdba2462824C19e8fF579267Fc7"
      },
      {
        "passId": "69",
        "signer": "0xa1bb60FF6198C977C5572db809d05AB06d22fE3E"
      },
      {
        "passId": "70",
        "signer": "0x1054499B0d8cD8819f3D50885876c74eB5094e42"
      },
      {
        "passId": "71",
        "signer": "0x30dBbBEC723702fCC404Adf06096222022E402ae"
      },
      {
        "passId": "72",
        "signer": "0xd19f516E3D430AD0a86354B5f82A5E8Ec950bBE2"
      },
      {
        "passId": "73",
        "signer": "0x5672db8F65de9D32485FaF85c44019d8f6368b4c"
      },
      {
        "passId": "74",
        "signer": "0x73Df2C04C760a6ED92e162c060B1Afb81696bfd8"
      },
      {
        "passId": "75",
        "signer": "0x8C3049B5a5cCf2379C499f2Bd18fE5f15ca21A33"
      },
      {
        "passId": "76",
        "signer": "0x36f7168bB324319F69a172715D06DEA6c0e0aD40"
      },
      {
        "passId": "77",
        "signer": "0x6665CEF15dD5B1Bd6456B87BA5196f12A30832a1"
      },
      {
        "passId": "78",
        "signer": "0x489161cF036364422eA9a660d9Cca434B4F85d86"
      },
      {
        "passId": "79",
        "signer": "0xcBB3620d1CcFa641d96dBf6C303D1D0222Ac96b8"
      },
      {
        "passId": "80",
        "signer": "0x31Ef6756C5ee6f7D44BE8289d83eD57633b3f5D2"
      },
      {
        "passId": "81",
        "signer": "0x69a07feE9b5c3821903F37E029CEd50574Af2626"
      },
      {
        "passId": "82",
        "signer": "0xAfDC8d349ac68E95D483686F25A2E748217f9B2a"
      },
      {
        "passId": "83",
        "signer": "0x73cf939E8094A6081acCD75c24b50253a866460C"
      },
      {
        "passId": "84",
        "signer": "0x6cd238F762B1592Df0f976553025b9931A3CF0BD"
      },
      {
        "passId": "85",
        "signer": "0x7cd4e0800a57A1E29Ad3d52393A1d0BF7e0Bfc40"
      },
      {
        "passId": "86",
        "signer": "0xb224881BbFb11b771c751684E89aa2Bee57b4ed6"
      },
      {
        "passId": "87",
        "signer": "0x650cE17cd71b0B3AB70a3D6cdBEbd46893Ff03dA"
      },
      {
        "passId": "88",
        "signer": "0x174b28a27d36d3533E9b927EE831d832297a9027"
      },
      {
        "passId": "89",
        "signer": "0x0322A9ECdcEB9f532C78b33e92AD405F70eCaec5"
      },
      {
        "passId": "90",
        "signer": "0xa47be6238C883fF75b7B3F3CDc40780563B19A93"
      },
      {
        "passId": "91",
        "signer": "0x8A7E6D704509bD7c9D302f8F8405eD4dAD00BD0D"
      },
      {
        "passId": "92",
        "signer": "0x565F19799b6de3634CAfE36d4A5dAdC4Fce7bE6E"
      },
      {
        "passId": "93",
        "signer": "0xEf25C3BD9E3b745477BBe5B6E5Ee3160465c3Eba"
      },
      {
        "passId": "94",
        "signer": "0x7264EdA8846A7F62b5Da89783f98BF6Bd209411C"
      },
      {
        "passId": "95",
        "signer": "0xB598bD0226e94EBd7bA7a5A29f875601565d4d8B"
      },
      {
        "passId": "96",
        "signer": "0x9C5b9a3206504bBed9B93C64280fFa3EC666330B"
      },
      {
        "passId": "97",
        "signer": "0xA58cA6B1dfc3b6fc3dA1C804F235AbeF613791ED"
      },
      {
        "passId": "98",
        "signer": "0xE26D97E0a9C430ccA2C769626b01B08Ac97183Fd"
      },
      {
        "passId": "99",
        "signer": "0xfa75f8b07B7D778Df0AC6BDd742f0e667390dCB8"
      },
      {
        "passId": "100",
        "signer": "0xD46327ff13826EF2B20Ac0fe703DB64F0fE1AE91"
      },
      {
        "passId": "101",
        "signer": "0x3F6F2539c8171faA7Ba6033d5b59Ef003BB09434"
      },
      {
        "passId": "102",
        "signer": "0x7D75f2D2189f8327c3e592263040BAA69817a280"
      },
      {
        "passId": "103",
        "signer": "0xF966bb11c1E795146AdC726CD7e3fd39768dE9b1"
      },
      {
        "passId": "104",
        "signer": "0xE571c332De5585c76ef2fce1a1AA813Fb888F3cd"
      },
      {
        "passId": "105",
        "signer": "0x37c71f320fF663198521e25d84913D565a74beB2"
      },
      {
        "passId": "106",
        "signer": "0x445e640454FFcBac1Fa407ED73f3a42B1A3b5CA5"
      },
      {
        "passId": "107",
        "signer": "0xCF504FCae0e10d71413B0653739F0B3571936928"
      },
      {
        "passId": "108",
        "signer": "0xCC592119Bb6ecB1536AF497261C123F2f5D6dEf7"
      },
      {
        "passId": "109",
        "signer": "0x97366836f574A2f1Bbe36078D92c89E71f674DF3"
      },
      {
        "passId": "110",
        "signer": "0x70aC0c8FB79444297102f0327F04dE9300bba000"
      },
      {
        "passId": "111",
        "signer": "0xCe4b89A4717A0FA52A3690182196B2CbC3E6AB3B"
      },
      {
        "passId": "112",
        "signer": "0x83E7c3D80625453834C2F1EB9a4F3Bb17dD49d4d"
      },
      {
        "passId": "113",
        "signer": "0x80de217cbe13eAf25a28FAd60875F6282e9315E8"
      },
      {
        "passId": "114",
        "signer": "0xB03C48115D7Ce1027B8277d062745D5BDdae8F3f"
      },
      {
        "passId": "115",
        "signer": "0xc4952113560A93F278C41110e75Ba16bDa8196Bf"
      },
      {
        "passId": "116",
        "signer": "0x140e9aaa9208DE7C0c7c17f5e2437036120Ba07C"
      },
      {
        "passId": "117",
        "signer": "0x9c794e105c00BD2c8A61B893D7647C2cDd980775"
      },
      {
        "passId": "118",
        "signer": "0x479E2B116164C40a5F5b3e9e64c5BE40a2aCDa4b"
      },
      {
        "passId": "119",
        "signer": "0xB5330Dd9C7568b5bAF45a4F8879Fa32b64A37c9a"
      },
      {
        "passId": "120",
        "signer": "0xEf3fB9301Ba2DCc3B48eaA2b163A55148A99a203"
      },
      {
        "passId": "121",
        "signer": "0xb8Ff62483Cb54A6621E905Ce51F76D6351ccaa51"
      },
      {
        "passId": "122",
        "signer": "0xeF279fF66c73C1D14ec53B527a280ac73Cd2c4B5"
      },
      {
        "passId": "123",
        "signer": "0x9cE2473C8Bd1AC54e0e300Ea98D5b18e2014e1cF"
      },
      {
        "passId": "124",
        "signer": "0x73Ac0b1720230a4626E8F98112810dBd0f8A5118"
      },
      {
        "passId": "125",
        "signer": "0x6946b737941Bc98eF73E17B1d64A5b99B133de5a"
      },
      {
        "passId": "126",
        "signer": "0x0EB1e2374FDd516AC66A6220241ea904aE7cd1d5"
      },
      {
        "passId": "127",
        "signer": "0x6B0A30E1E690Ceda1De6Edfe98Bf8EF0adecdDbe"
      },
      {
        "passId": "128",
        "signer": "0xb64Cd7546c7CBd0ff051594B56Ea6fb3f6462f79"
      },
      {
        "passId": "129",
        "signer": "0x8CD30B4a31e3d520f9C6bf611487c0F0EaE6a316"
      },
      {
        "passId": "130",
        "signer": "0x50728f8E4f580413d9F6A3e1e8Fe3F6a0288E42b"
      },
      {
        "passId": "131",
        "signer": "0x3E4482F33106B030E6fF6575828C03951482eAD7"
      },
      {
        "passId": "132",
        "signer": "0x328d764Ad76c6e18d48C35C16A51dD9273c6D630"
      },
      {
        "passId": "133",
        "signer": "0xdD80C4Ad08cdbaD212CA19F2239FC60188Ee6efd"
      },
      {
        "passId": "134",
        "signer": "0x756067528beF231d4e28Ea799a46043392deA7c7"
      },
      {
        "passId": "135",
        "signer": "0x2448c0920F1e5AD510De3950A32A39eE08bE964A"
      },
      {
        "passId": "136",
        "signer": "0x568859Cad61A0376d7d0E16f72D4050A328d6a29"
      },
      {
        "passId": "137",
        "signer": "0xF823A81D292B5d52bEF81EdCE6392e23bDc21BDe"
      },
      {
        "passId": "138",
        "signer": "0x6203a7A2c86B971837fD58C610fa087646fd5aCB"
      },
      {
        "passId": "139",
        "signer": "0x05A2F5a2fCDF5a54F37DBd0f1f87124DF17Fcf57"
      },
      {
        "passId": "140",
        "signer": "0x1B6B2C411C7Ea14402EcEdE36aA76b683cb8ED8b"
      },
      {
        "passId": "141",
        "signer": "0xe670C56aCb8EAB638106Eb3CB2a7Fda7ec9835b3"
      },
      {
        "passId": "142",
        "signer": "0x3a56d37e952baea4bdB6ADcDF69F5a6741D27DDE"
      },
      {
        "passId": "143",
        "signer": "0xfE872Ea38ec8C3B9C9e25801C9bB205F22eb08F8"
      },
      {
        "passId": "144",
        "signer": "0xb91De17b3F18D3aCC21136a73D799120d0ee6154"
      },
      {
        "passId": "145",
        "signer": "0x6501536357D8210803fA03199240f2B40Fb7Edba"
      },
      {
        "passId": "146",
        "signer": "0x5Dbe9C53b8f54DC02539e84c55498f658E06f3E3"
      },
      {
        "passId": "147",
        "signer": "0x292c454C89D12FdBb65AE8Fc5c881d1782f220f6"
      },
      {
        "passId": "148",
        "signer": "0x42F615CBdA03C8719aA31bC687D9F5Df568a2170"
      },
      {
        "passId": "149",
        "signer": "0xC53053B1e3F4f288DEeA00B5132901Facd997A90"
      },
      {
        "passId": "150",
        "signer": "0xAFEefce15A076227154A266Bf5783f49E46475BF"
      },
      {
        "passId": "151",
        "signer": "0x8f363D948536f02cB6F367378558c266f03c2248"
      },
      {
        "passId": "152",
        "signer": "0xC7FcdD636B72415C09901dC3e0A8448c53D23c81"
      },
      {
        "passId": "153",
        "signer": "0x789Df5B8C859F0eBB4346b76f7cFBF71436f1971"
      },
      {
        "passId": "154",
        "signer": "0x572ebceB985e73046e6593F9AD443823d2722ceA"
      },
      {
        "passId": "155",
        "signer": "0xcA9b83197529FbCd343cCc08a50c857c73b260fe"
      },
      {
        "passId": "156",
        "signer": "0x06D56fCa56F8DF2CD84fD1aE5C7D4DB83733e36e"
      },
      {
        "passId": "157",
        "signer": "0x7807ac423466e3905429192f5E169f21fbaDBC16"
      },
      {
        "passId": "158",
        "signer": "0x0A89eb6698DD9DE53F81c1347A529532c173c639"
      },
      {
        "passId": "159",
        "signer": "0x318be763958b8022f0245dB8f233e409B6cc180c"
      },
      {
        "passId": "160",
        "signer": "0xC47B8dF379D7aD5E5f2e9C030421EA77125569a1"
      },
      {
        "passId": "161",
        "signer": "0x5fD67f2F0da4224075a5D5Fb2f3D48D1793139e1"
      },
      {
        "passId": "162",
        "signer": "0x2b46f922E23987538F92963d364E2B358439c69c"
      },
      {
        "passId": "163",
        "signer": "0x7BD22dfB6d7af5A32a074d41EaE297FAf234b386"
      },
      {
        "passId": "164",
        "signer": "0x5299BE41dc2a41b325cC550DDE34064529D05Bb6"
      },
      {
        "passId": "165",
        "signer": "0x14B7BCfF3d42D2e9889d35c44f0c9A16143Ed1D7"
      },
      {
        "passId": "166",
        "signer": "0x10aF2eB7342A2472F4dE580b1bd05E9016b3C280"
      },
      {
        "passId": "167",
        "signer": "0xB3C1648E62868c6aaB921Ed01ea2e30745bbB89E"
      },
      {
        "passId": "168",
        "signer": "0x8843120b7c22461844aC73B60Ee338D4DD897bef"
      },
      {
        "passId": "169",
        "signer": "0xB30511C63d37C4fA178B12f296F74c0791201f3E"
      },
      {
        "passId": "170",
        "signer": "0x339AaeaF0EDf8770A8271Ea3239B35d072a422B1"
      },
      {
        "passId": "171",
        "signer": "0x1B09C9C2103d76dc27Bb8170787cC296518119B3"
      },
      {
        "passId": "172",
        "signer": "0x9c65B86eeEaB660CF0D61df1d4679b5694115048"
      },
      {
        "passId": "173",
        "signer": "0x0d457F5d6c8A1edACBe0F61F09e6407e6355AF08"
      },
      {
        "passId": "174",
        "signer": "0x4f69e38Ab6e416905133949d9459Cda871eF4928"
      },
      {
        "passId": "175",
        "signer": "0x66Ef8f56F430e887Bb11f84354b3Ec0ebE71baF6"
      },
      {
        "passId": "176",
        "signer": "0x3F874Dffc3C76E35e32aAe62B85885Ecf9712308"
      },
      {
        "passId": "177",
        "signer": "0x6B08928C89E2c71652BfB5aA25B65984a028230A"
      },
      {
        "passId": "178",
        "signer": "0x5b249701e61011aeBB8d60AE94Ec0648029BE9af"
      },
      {
        "passId": "179",
        "signer": "0x53d89cd8A8e9908A9423d77bFA509388C846f808"
      },
      {
        "passId": "180",
        "signer": "0x5Df52D1BE270B32f795e69A9Bde0dD4bA6B20Efa"
      },
      {
        "passId": "181",
        "signer": "0x5cBa75A310C556E36B3919AC9cEFbFF74b4aF844"
      },
      {
        "passId": "182",
        "signer": "0x9C194E0EBcFaF46c1aa59232E2016E12d1244e13"
      },
      {
        "passId": "183",
        "signer": "0x704AA789d28959BC149b72fc6038BacF3Bd1f8f1"
      },
      {
        "passId": "184",
        "signer": "0x1f2e198f03EB78F4AB6f7aCFd8e81Ec426ded9A6"
      },
      {
        "passId": "185",
        "signer": "0x69A153329212Ac707b55166eF9D8d02F567b74A8"
      },
      {
        "passId": "186",
        "signer": "0xbb3f14C2eA945e40E99cc39e8C613A842d731FaE"
      },
      {
        "passId": "187",
        "signer": "0x902EB546657B4e79B0E011057fb21C86A58bf284"
      },
      {
        "passId": "188",
        "signer": "0x48A9e4D5526b96c17e7Dc09EDf72A9e6627335ce"
      },
      {
        "passId": "189",
        "signer": "0xd9B12DE045eCE4E5F3085814bb2592068a65e0C7"
      },
      {
        "passId": "190",
        "signer": "0x296AF66Ee6852aa2cCe2062576A4921306B93F5C"
      },
      {
        "passId": "191",
        "signer": "0x1bD5513761d38c9c509493d4D7EE0910eb146D3d"
      },
      {
        "passId": "192",
        "signer": "0x24167B106529408630edcF6BFBD4AeA74E29E037"
      },
      {
        "passId": "193",
        "signer": "0xF94AdEAF1679FE9391159D3E569E5E7FC068Cadf"
      },
      {
        "passId": "194",
        "signer": "0xC7bB9cb94Fc67Fd34D428B98a378970bFe3bD899"
      },
      {
        "passId": "195",
        "signer": "0x0B6c161510447Ea81888458d65745e4C7824A938"
      },
      {
        "passId": "196",
        "signer": "0x287b5159Dedc06DD6Fb2e2De7113B3a5575a58bD"
      },
      {
        "passId": "197",
        "signer": "0x65B7ADFfeF4e8D19A884A1549CAeD149bA2ae636"
      },
      {
        "passId": "198",
        "signer": "0x8Be32F20Fe71FC2dbC52421C18E4fdb1BFE2386E"
      },
      {
        "passId": "199",
        "signer": "0x76bd37ecB7D10677f43FAb2eD566CF538C9A2D8f"
      },
      {
        "passId": "200",
        "signer": "0xD255cb5B3D17766DfFED84c54975Df7f1333bB53"
      },
      {
        "passId": "201",
        "signer": "0x1C7e482BB80c1A1E588AcFdee16D5C69DA9235E6"
      },
      {
        "passId": "202",
        "signer": "0x4551E71C65eC8C265488AD0c92fEFD5b95a1e06d"
      },
      {
        "passId": "203",
        "signer": "0x79a19aed5A0ea4F4C17c5117495cFbFEbB04E3d8"
      },
      {
        "passId": "204",
        "signer": "0x429B0cBb20aB6dfc7d407ED54Fb8373f5a98d909"
      },
      {
        "passId": "205",
        "signer": "0xc6575BCC2BaB718636A60e1524a3d7be8E58e475"
      },
      {
        "passId": "206",
        "signer": "0x56eaCB0aFF8a7b46C5B2181896841FdE9d192AD0"
      },
      {
        "passId": "207",
        "signer": "0x0f240DbBEFabA0f9aF2745602e740001f74A53a1"
      },
      {
        "passId": "208",
        "signer": "0xEC94Ef59DcC8a5C40d982D53602840Eb5c1E3897"
      },
      {
        "passId": "209",
        "signer": "0xdFFCa56dC29c1489E2322dB638904b8fDb70b207"
      },
      {
        "passId": "210",
        "signer": "0x50f424625Bdd9003aA9454BA6C317c6522E8945D"
      },
      {
        "passId": "211",
        "signer": "0x89D1629771CE9a4F5739DbFF3E49100831d0cd50"
      },
      {
        "passId": "212",
        "signer": "0xF30A65800972c3E3E8491BE642c9f6233C98C7d4"
      },
      {
        "passId": "213",
        "signer": "0xA58Ce4bf92251F0029c3AE5d1ec54A8176EA5dF6"
      },
      {
        "passId": "214",
        "signer": "0x91ad9790EB68bF92D84b8b1547D176c5aeBa56f5"
      },
      {
        "passId": "215",
        "signer": "0xa06B73D6c355E5c82923Ca17366FDc1DFED105Dc"
      },
      {
        "passId": "216",
        "signer": "0xA0C99FBb68E31B813A82033D90CE9E0584c99319"
      },
      {
        "passId": "217",
        "signer": "0x27768ad66aF128635550309bF0eb44100c888A7E"
      },
      {
        "passId": "218",
        "signer": "0x1611EDe6A3eEc5BF618A28408a3F828Eb5CbD7d5"
      },
      {
        "passId": "219",
        "signer": "0x2b29e7757885b3638d7D6373EEd652596368F787"
      },
      {
        "passId": "220",
        "signer": "0xfC87D597eFa5953cB90b35a7341d997ff2a2DD6b"
      },
      {
        "passId": "221",
        "signer": "0xB08000c3489911cD238E59420555fcd3FD020736"
      },
      {
        "passId": "222",
        "signer": "0xCb5f357188A3B0C41756823fbD1413ee2e395F54"
      },
      {
        "passId": "223",
        "signer": "0xd07c1Aa398816426a77010eeeE0cd932280bd3B2"
      },
      {
        "passId": "224",
        "signer": "0xbcc3331Fb23b3D69a2e8d2250C66e8D122FD8769"
      },
      {
        "passId": "225",
        "signer": "0xFeBA677d7F2EFD8255c482CE432c196Fb186bcc8"
      },
      {
        "passId": "226",
        "signer": "0x4ea5f5ACa0144E2bCA739d5A14c93E22d0279A3d"
      },
      {
        "passId": "227",
        "signer": "0x53f5aF37eE76a7ae00dED6f7443B7Dcae48f9011"
      },
      {
        "passId": "228",
        "signer": "0x7c2512789b37D7B58f0b3A82b8E9eEc9A637906c"
      },
      {
        "passId": "229",
        "signer": "0xAdfA23Af91a62590a2fDC125081C5830A3aB951b"
      },
      {
        "passId": "230",
        "signer": "0x8a6C712Ab5895Fe4aE30AeBc3eEae1AFa39C6713"
      },
      {
        "passId": "231",
        "signer": "0x21e6722fb9Dc1fb636EEB8825521306d8eCcA056"
      },
      {
        "passId": "232",
        "signer": "0xC1BBb94EfA5B2A68091754b5D6656F3A0ee9B3eB"
      },
      {
        "passId": "233",
        "signer": "0xbCADf22B4dfBAea81412CB1D07849D7c5F0984E3"
      },
      {
        "passId": "234",
        "signer": "0xC58A69B725a718Df0657BF4C6A8D145929Eeb8b4"
      },
      {
        "passId": "235",
        "signer": "0x6EEeCdab582F67FE1B654c5F9efF179720E51F80"
      },
      {
        "passId": "236",
        "signer": "0xEb32cDCC505bC20Eb365eabc72F01d493643b46c"
      },
      {
        "passId": "237",
        "signer": "0x6686cfF692b13cff7c9cAF5bC950536F29310e40"
      },
      {
        "passId": "238",
        "signer": "0x7d7D82153D82b832c0247581A8001d2aB5fF9214"
      },
      {
        "passId": "239",
        "signer": "0x5ac5865c73B319908c7bd94d4191e38a7BF0C0b1"
      },
      {
        "passId": "240",
        "signer": "0xcD49482fE5f16a6eea0E1cC982aA0844575b6c04"
      },
      {
        "passId": "241",
        "signer": "0x95b43bFc3CeC32B17C4D62aC48FcE6641eBe6d7e"
      },
      {
        "passId": "242",
        "signer": "0x832bee07817C64c3F0834Bc5aa70D4431182318e"
      },
      {
        "passId": "243",
        "signer": "0x9906E7a6bC0F3b3259c9430A3dFF63D20a7dcFE3"
      },
      {
        "passId": "244",
        "signer": "0x0Db8b8435638A08fb1Ae97B1e8C5F6D01CCD7dAD"
      },
      {
        "passId": "245",
        "signer": "0x268392F55c3c4f2A21A2e2b2a0457520D32E6c17"
      },
      {
        "passId": "246",
        "signer": "0xE6f96fCc998B39e5e8b479ad7aAE4c66aE43Dded"
      },
      {
        "passId": "247",
        "signer": "0xA3b5F7877De5a9b597d6ba13b41fD06f203145D6"
      },
      {
        "passId": "248",
        "signer": "0xAE31643fb260F07EbaF29f2406e1ABf8c9185eef"
      },
      {
        "passId": "249",
        "signer": "0x6E54Bd3152CdFa5db5F7B8F3AFA9CEB5f90bbAea"
      },
      {
        "passId": "250",
        "signer": "0xe3B505416ECf163D4D71411b08eBeb13b203D8cf"
      },
      {
        "passId": "251",
        "signer": "0xcadc22Faf224583DcEFD24014624CbDD40bD0b7E"
      },
      {
        "passId": "252",
        "signer": "0x7bA14B07ae0aa780a2CFaF794764972060Ce2aB0"
      },
      {
        "passId": "253",
        "signer": "0x2928fA60FAab5ae107Df648fD4bae6B24a1bc2E5"
      },
      {
        "passId": "254",
        "signer": "0x9576C947b5c3ADAF9ED4FD04Dba2ed6105956Fe4"
      },
      {
        "passId": "255",
        "signer": "0xcEF9000299b0A27A1FDE07D10cdc8F8E93F6D35b"
      },
      {
        "passId": "256",
        "signer": "0xD6D19dAFfCf2C85ebE1Bd6A9346B6EC08b1C4267"
      },
      {
        "passId": "257",
        "signer": "0xfd702BC83925542D8e2f7455180E1B9F61Ad00dE"
      },
      {
        "passId": "258",
        "signer": "0xf93288afd488e59b0d80eA4f0D6012c32E6E6e9b"
      },
      {
        "passId": "259",
        "signer": "0x92d025fbb25726461E93cAC5aaA872d0B757f390"
      },
      {
        "passId": "260",
        "signer": "0x8580463c34190E767219f13aED1B1301E39A2474"
      },
      {
        "passId": "261",
        "signer": "0x944B3F657b8ab222773F5C041C382c6A501b841d"
      },
      {
        "passId": "262",
        "signer": "0x7299c0CB70227e283c83f121fdBfBF8D84d0d373"
      },
      {
        "passId": "263",
        "signer": "0x2313Ba8FaEEEbC66cD01981FDE3479Afb817f9c7"
      },
      {
        "passId": "264",
        "signer": "0xB3dEfA98ab2A973e0184Ea59e4d045a4ef59bFF6"
      },
      {
        "passId": "265",
        "signer": "0x8dF228575dBc02f7f28a2247f030cC9397228b25"
      },
      {
        "passId": "266",
        "signer": "0x36865267AEfdc91e520F3102497C83C982bF23f4"
      },
      {
        "passId": "267",
        "signer": "0x1ab7DcAAC86D179939A9840D3326E60C5fa6778C"
      },
      {
        "passId": "268",
        "signer": "0xCB41A7A9E1317ce7AF1E424C617b577F1c4294F4"
      },
      {
        "passId": "269",
        "signer": "0xDBD514c0d5Fc26C16fAa8f21C4Dbd4a90608E9F6"
      },
      {
        "passId": "270",
        "signer": "0xa095D020eCd641c7E1fd1bDE997e18bc8636ddE9"
      },
      {
        "passId": "271",
        "signer": "0xb800329BE7aDd588dBAf652253DB9632dDD02034"
      },
      {
        "passId": "272",
        "signer": "0x654220Ddfa3F2b80046C35eD9a18462F5957B190"
      },
      {
        "passId": "273",
        "signer": "0x6254339541EB53C783622fb2068b70C97200a043"
      },
      {
        "passId": "274",
        "signer": "0x36690b28EbBa26a86d2497EEec4FD24d71f309Fb"
      },
      {
        "passId": "275",
        "signer": "0x5D1c70d052EaD5973E16C32a1C99aC6CA31ECbDf"
      },
      {
        "passId": "276",
        "signer": "0xc586c866f32EAc44375A26cd276cfaC68548586a"
      },
      {
        "passId": "277",
        "signer": "0x655C355fac41ec4E2dba98372887e93302602bE4"
      },
      {
        "passId": "278",
        "signer": "0x70c25E1C9F393EE938bBa9D8d8E3626b0A1fDbb0"
      },
      {
        "passId": "279",
        "signer": "0xB23C5B1A2F64E4f873D37EF3E9ff0e8bab41E026"
      },
      {
        "passId": "280",
        "signer": "0x3dcB2cC9F2e700edcCeC0207b2e4058dBA336ae4"
      },
      {
        "passId": "281",
        "signer": "0xB0F5567232f5de5FfD3fc1Bfd70C7F917Df7cA3e"
      },
      {
        "passId": "282",
        "signer": "0x80Ef641f19573fBD269ea6B3e4ba8685172808df"
      },
      {
        "passId": "283",
        "signer": "0xC309F0748d9E4CaB6E8B458Aa0afc2Bde9A5E74E"
      },
      {
        "passId": "284",
        "signer": "0x3dcc0644f99F522C26254D65a2dae49a9028578c"
      },
      {
        "passId": "285",
        "signer": "0x36dcf26901b925C8E6869A1B5c35b1E7Ba3FF195"
      },
      {
        "passId": "286",
        "signer": "0x8AC40e032c579d894bB3C65fBd4f52F60AF9B0D5"
      },
      {
        "passId": "287",
        "signer": "0xd4eF7f3aE05B4441C695C3cD3d13167D0A9D716B"
      },
      {
        "passId": "288",
        "signer": "0x871F3e774cECA773338f9097cF12ACb29e8516a4"
      },
      {
        "passId": "289",
        "signer": "0x3Bb568e4b54A4252fD96C68D09Bb4adf8FED9E9e"
      },
      {
        "passId": "290",
        "signer": "0x96f0e5253eD33D6a3B8DFcbE0196E2fD4D425C6A"
      },
      {
        "passId": "291",
        "signer": "0x76009222Cdf95d9E6b379D459aA5f57Ee5164c83"
      },
      {
        "passId": "292",
        "signer": "0xB1305b5c89b425b5ffc513D8c5321D97465cCceC"
      },
      {
        "passId": "293",
        "signer": "0xCE0778585b6f0C9595BA9a2E51996de14c0e94a9"
      },
      {
        "passId": "294",
        "signer": "0xf579983c48A08B3faA0212Af64859e92eDF2b1A8"
      },
      {
        "passId": "295",
        "signer": "0x608EA110df2Bac7B4a15e7A6ab46138438B3FA9e"
      },
      {
        "passId": "296",
        "signer": "0x555f26B4cFE518e7e74Fc6Ba7CD794e70DB57d17"
      },
      {
        "passId": "297",
        "signer": "0x372767BA1dead1130b2E338401cc5C5c6a90083b"
      },
      {
        "passId": "298",
        "signer": "0x4E98a44baB7577d48Ffa2444D903Ddb790Ea00E7"
      },
      {
        "passId": "299",
        "signer": "0xd3e57a9478095332F70bCE9CEd974556BE7D8Ef8"
      },
      {
        "passId": "300",
        "signer": "0x711D245542DE0BeEef022520D3Ed7e608Ee1B848"
      },
      {
        "passId": "301",
        "signer": "0x15bAadEc07f8054C571d91F79f775928c5C57407"
      },
      {
        "passId": "302",
        "signer": "0xCAa06127A777c0BD97D6418fe52eA2e5BeDfA3A2"
      },
      {
        "passId": "303",
        "signer": "0x41eA5b6F2a9A6B63a4E919802c79094AE8e2275d"
      },
      {
        "passId": "304",
        "signer": "0xc6335B278723e1C6d36d6DA2B1E282Bb7F258366"
      },
      {
        "passId": "305",
        "signer": "0x0062DE683e9ea40A93717736Ea60d032bC33bd7d"
      },
      {
        "passId": "306",
        "signer": "0x176B4A5406519E3432df8E1a9B7e22a77E484b8b"
      },
      {
        "passId": "307",
        "signer": "0x6B374e0AC2aD3F7227f047d4256A9628708b1033"
      },
      {
        "passId": "308",
        "signer": "0xD794515995b972d9cE345F133F8a81CA76edE8d0"
      },
      {
        "passId": "309",
        "signer": "0x17A97Fbf79b7bc46F7b0511605BBC96995A1D879"
      },
      {
        "passId": "310",
        "signer": "0xb28FDA805a8dD49a60550DdC875c1037F798F6b1"
      },
      {
        "passId": "311",
        "signer": "0x68473640e43409Ed6c1948b615b93d3Bae07d173"
      },
      {
        "passId": "312",
        "signer": "0xD31554Edb36A11580af2D8C0f308f354D466f6f2"
      },
      {
        "passId": "313",
        "signer": "0xadE770f00fB81CAD56E66A8aC197C4c4302F65f0"
      },
      {
        "passId": "314",
        "signer": "0x0b1C94DD05b43D250121C6525DCd76d2e1A11d7D"
      },
      {
        "passId": "315",
        "signer": "0xa7CedF8377716CF309be6197ad6d8555F616cdc1"
      },
      {
        "passId": "316",
        "signer": "0xc493E9f7Cc1812E7307A51bFDf7b8070031906fb"
      },
      {
        "passId": "317",
        "signer": "0x845B272e73831d845FC8EcfD878732C116d31659"
      },
      {
        "passId": "318",
        "signer": "0xF47537276bf70dB008573A0F288db1301644459e"
      },
      {
        "passId": "319",
        "signer": "0xeE3b8535A4e6776bA4fa5792C6eBb472E919Aafc"
      },
      {
        "passId": "320",
        "signer": "0xDa68783Ff251C6253429cF08554a8A3E81B47B8E"
      },
      {
        "passId": "321",
        "signer": "0x11bf36B01298cada1E64db050EdD6147aCDc98Ff"
      },
      {
        "passId": "322",
        "signer": "0xaa70205b81D8355bF15915747C605A3eb4F51b94"
      },
      {
        "passId": "323",
        "signer": "0x032907109baF9b16b389dc54E11750C61611C6b5"
      },
      {
        "passId": "324",
        "signer": "0x6F2AE5E15fCC622428a585150AA5CA1F0Fb4f332"
      },
      {
        "passId": "325",
        "signer": "0xA641e334D2317796F8E36818231D69542933F354"
      },
      {
        "passId": "326",
        "signer": "0xE64faccD32b3fDE754900fCE9B391517C955d6dF"
      },
      {
        "passId": "327",
        "signer": "0x8fD06Cd01982b0aab94c8E159f414992ad65FBb5"
      },
      {
        "passId": "328",
        "signer": "0x88B4d41c99DeCa51de884d15f5A8516bA53Df2C8"
      },
      {
        "passId": "329",
        "signer": "0x63a2Ad93a1f55DFc3595E97CeC7747726b864dE1"
      },
      {
        "passId": "330",
        "signer": "0x46847D0ac986242c977e650D65C49a562Ba1d357"
      },
      {
        "passId": "331",
        "signer": "0xeBD10874d2087B5a855945C3f784d3a534D38894"
      },
      {
        "passId": "332",
        "signer": "0x7Ef783Ddf64e7439da90E4b33568d5045B52304E"
      },
      {
        "passId": "333",
        "signer": "0xf906Ca4bd474642E68862316326e693c247f7D57"
      },
      {
        "passId": "334",
        "signer": "0x0a454debe3258C76B30B88cF4bd4492D1eB212EC"
      },
      {
        "passId": "335",
        "signer": "0xB831B22d50b991596E5a383d0f10137CF5aCE637"
      },
      {
        "passId": "336",
        "signer": "0xC9B5335AB452848955ea7cf89FA94b358eFB699b"
      },
      {
        "passId": "337",
        "signer": "0x23d3e48B0AC9bB80a3D71d8c778159B1391623bb"
      },
      {
        "passId": "338",
        "signer": "0x2010Bd8acaaB05D0F4E7aB81F3c8f0B18c1983E0"
      },
      {
        "passId": "339",
        "signer": "0xa38dDC6194947c8d87Ec0C5f36dC38940Bc151c4"
      },
      {
        "passId": "340",
        "signer": "0x6d211B0D05F838a0934504931C243356D85F2315"
      },
      {
        "passId": "341",
        "signer": "0xE9388e7e9378CB2C47E230fab2B9157d3EfB571A"
      },
      {
        "passId": "342",
        "signer": "0xC2Ac0787DBb58f6684A0c00e1E9E0c546B209C71"
      },
      {
        "passId": "343",
        "signer": "0x9aA505e7Bd08311a40CC6c2a7162f1dbE3A94574"
      },
      {
        "passId": "344",
        "signer": "0xAaFDf2FC63EaEb798627Cb444ACab38494f70FdF"
      },
      {
        "passId": "345",
        "signer": "0xfAF4feA5714a25B6ebAF30746b6CdEF3337E53b2"
      },
      {
        "passId": "346",
        "signer": "0x862503894C026F7d80a95Fc527B5a3A4ff9Ba8A3"
      },
      {
        "passId": "347",
        "signer": "0x2e6CDf1B81f05F762101A00fA6cD7A57a8a6A279"
      },
      {
        "passId": "348",
        "signer": "0xa7b47E87bEb9e5a7dd8023a64Ce38fB34C2df7D8"
      },
      {
        "passId": "349",
        "signer": "0xC474852776Ba930785108f8b790A0D08D02A322A"
      },
      {
        "passId": "350",
        "signer": "0x4C12e21184dA5Ca7b9B9f137107aE330431Fd214"
      },
      {
        "passId": "351",
        "signer": "0x883B31A9cbAa49A53B6311127364d9B5523F043D"
      },
      {
        "passId": "352",
        "signer": "0x04097d1325628fc3a9d1Ce0558fE4C58031557bF"
      },
      {
        "passId": "353",
        "signer": "0x97A8E7b6A1e18528C93463653eF8F394E7f41300"
      },
      {
        "passId": "354",
        "signer": "0xC2ea8669Bb2AfB45B4E248F8730957BDBb949612"
      },
      {
        "passId": "355",
        "signer": "0xf46C15cdd495E0b7eeba7eA709617396008F016C"
      },
      {
        "passId": "356",
        "signer": "0x573C30f10e1534fDcab8B71c5Aa0ab6020B2E12E"
      },
      {
        "passId": "357",
        "signer": "0xE54CCD187d22f3eca47b32669a2BDB114c7FFB9D"
      },
      {
        "passId": "358",
        "signer": "0x26D6C309890Cb1e6604ccCE8b7E720bd356b4a3a"
      },
      {
        "passId": "359",
        "signer": "0xDac6F8017b64E727CeC3F6177ffcE020E532bE8a"
      },
      {
        "passId": "360",
        "signer": "0x5106930a3969eAe6Dcd50c3A8938f9E8741ac849"
      },
      {
        "passId": "361",
        "signer": "0xf31e12fDeD209E9E464ba77d9CBec3aC741aa35E"
      },
      {
        "passId": "362",
        "signer": "0xFf8bB8e48c747A3bf01649ae857159eccdEE4581"
      },
      {
        "passId": "363",
        "signer": "0xB193194B255811736079a47E44Ad2f96eE8D2f95"
      },
      {
        "passId": "364",
        "signer": "0x15358DEa5528bA6B9AE8afbD0405ab17a34EFD2D"
      },
      {
        "passId": "365",
        "signer": "0x0860a32c260758dC090f5699F6F95e90c939905B"
      },
      {
        "passId": "366",
        "signer": "0x2581BDEE63CaeD3A40e565F1D401e340C6d05043"
      },
      {
        "passId": "367",
        "signer": "0x9C5d0F4bdAD39126a407bDe97f1e3b47Cc271F83"
      },
      {
        "passId": "368",
        "signer": "0x756fF506469EFF66d5B19fe70dD0e0bbB1A0A456"
      },
      {
        "passId": "369",
        "signer": "0x25144097c2F88dc033Ba73C3A0cc05053e51fbBa"
      },
      {
        "passId": "370",
        "signer": "0x2ED6C023E8f044C4F1Ee3e9B878f3eb3a8156900"
      },
      {
        "passId": "371",
        "signer": "0x5FC91e4db40c8cCf8F72d0989c27c044B4213311"
      },
      {
        "passId": "372",
        "signer": "0x794440358eBbDa6061e660DeFd37C8b9fEaeb7FE"
      },
      {
        "passId": "373",
        "signer": "0x97c797017Aaa4B5aAe00aC87d1B89CB63D263A9D"
      },
      {
        "passId": "374",
        "signer": "0x265f3E3cFE870c9b409E6229B97583D7d10450bc"
      },
      {
        "passId": "375",
        "signer": "0xaEf2300D14B34AceeA3A8CF2b94016c86Cf5ec56"
      },
      {
        "passId": "376",
        "signer": "0x34924D109433F229624349766e0a0Eb3f085344F"
      },
      {
        "passId": "377",
        "signer": "0xaED60de6436Cde1823D2FC4069854F674A414A9A"
      },
      {
        "passId": "378",
        "signer": "0xB8143A98D53Fb0CCfD6E3Eb6C3F14551d50c5CA7"
      },
      {
        "passId": "379",
        "signer": "0x640a7bd73a378aaC0DbC78f8aAa2cf2019863B1f"
      },
      {
        "passId": "380",
        "signer": "0x8A8b8961195B1F85cDdDce4F70885e08E485648d"
      },
      {
        "passId": "381",
        "signer": "0x9f675952c02640959f9290bd33Cd6b87A9CC3021"
      },
      {
        "passId": "382",
        "signer": "0x12bD90B1138CbA013468996250A1E5Ba253797c4"
      },
      {
        "passId": "383",
        "signer": "0xEf83abFEFC0e21Cb6197bB8D10466F6CD82D659e"
      },
      {
        "passId": "384",
        "signer": "0xf3CC29728ea9fF58CcB405EBa303E182cF97A181"
      },
      {
        "passId": "385",
        "signer": "0x6DEbB9594cc5452F28864CB24dB12805952edAbd"
      },
      {
        "passId": "386",
        "signer": "0xc94b681edeaB0Be79d46ac00e09964c82e3bf3D3"
      },
      {
        "passId": "387",
        "signer": "0x53f5067445c50fcE0A6fC47b602d33b1AbC4D622"
      },
      {
        "passId": "388",
        "signer": "0xf4DC05d438B538feF9fCAf2273210822445Bc75f"
      },
      {
        "passId": "389",
        "signer": "0x72AdA5511d0A2Db23Caa76a9B42B77f953071763"
      },
      {
        "passId": "390",
        "signer": "0x34202C6A803c086C221A5D33ee96738154aC4E38"
      },
      {
        "passId": "391",
        "signer": "0x19cc9cA2277f3F93111AB0A70c73a00f619A5F48"
      },
      {
        "passId": "392",
        "signer": "0x8F82060Fbd365eA5D82860A23fe0190547190129"
      },
      {
        "passId": "393",
        "signer": "0xBa4262d6F1929F80A847B15B558F046B32eA857f"
      },
      {
        "passId": "394",
        "signer": "0x2cBB1cdCb9347BffF0BFdDC0A16F2Abba5B21cEE"
      },
      {
        "passId": "395",
        "signer": "0xE13A5F5f1ef289c29c73504B78B6FAcea1daD4a2"
      },
      {
        "passId": "396",
        "signer": "0x217C245e8B65310AB24Fb9E646de823Dd3158C50"
      },
      {
        "passId": "397",
        "signer": "0xA8Df1e45c0FAF22Ca08ab36bE3CE0F511b06aF87"
      },
      {
        "passId": "398",
        "signer": "0x9Ad7Db4b0B403603Ae8570F8BC981FB90bD2DA2F"
      },
      {
        "passId": "399",
        "signer": "0xD761B499a6e6074eA5299d4D15F0f04A06601092"
      },
      {
        "passId": "400",
        "signer": "0x3D1841027f373A5370C00d2DC8bf3f6c1a5f2d37"
      },
      {
        "passId": "401",
        "signer": "0x0Ef47f5c75B2B517B781627C2dA9CE1Ce8210fD2"
      },
      {
        "passId": "402",
        "signer": "0x2E22d3F5A1EE1df623afcDe3AB33ea33595e9Fa4"
      },
      {
        "passId": "403",
        "signer": "0xa9E57661fa8B41C6e851577EEd3eb8078cEd7330"
      },
      {
        "passId": "404",
        "signer": "0x1387DC115E6835C4F01bc76F997C2245F6348CB6"
      },
      {
        "passId": "405",
        "signer": "0x4a67B116C7C3A61aA6af8C78e48858E604Ee3843"
      },
      {
        "passId": "406",
        "signer": "0x3Ad0D95d69468A9E6D4c53A2e45cEB7Cc9ea9a78"
      },
      {
        "passId": "407",
        "signer": "0x726A7b0ca9aB6aBd9DB642FbD60A189b1f94470f"
      },
      {
        "passId": "408",
        "signer": "0x18b3FC768d48469A99a19621902C7634188ebEC5"
      },
      {
        "passId": "409",
        "signer": "0xA3F0e405113D46dF72e26Fd5A6193bc00287a3F3"
      },
      {
        "passId": "410",
        "signer": "0xc9d1d745F97Fb97e1eC455EE55B12382785f5b15"
      },
      {
        "passId": "411",
        "signer": "0x3eD374817BA9D1B298838D67Bd4c97d0AC5e7507"
      },
      {
        "passId": "412",
        "signer": "0x93fE5804D6E73Da3A4ce0337e2003b12cA50EA2C"
      },
      {
        "passId": "413",
        "signer": "0xe152283490d6d7B85e609a88FAf1f11e86A8E966"
      },
      {
        "passId": "414",
        "signer": "0x0368F0956F630BeF0bb6A8311FF99Cfb382a876B"
      },
      {
        "passId": "415",
        "signer": "0x855ce3155c74dF87698a74ca417507Fbf723c853"
      },
      {
        "passId": "416",
        "signer": "0xea8839441eeF4c0F257A9FF906Ff89F7540824cD"
      },
      {
        "passId": "417",
        "signer": "0x7f831643c07e7584550e2aEDa706399509478781"
      },
      {
        "passId": "418",
        "signer": "0xB63d2cd531aA615Bd547463AAEd01dF17706A521"
      },
      {
        "passId": "419",
        "signer": "0x9dBE5AAa6D0B60E7a2FEDFfc3BC6c152719ffcc4"
      },
      {
        "passId": "420",
        "signer": "0x5B9AB5E916dE6E4E6825fc32Db7976e3AC516d32"
      },
      {
        "passId": "421",
        "signer": "0x4ecfc78F8D9d6fe050Aa8D3EB236BdfD61E59640"
      },
      {
        "passId": "422",
        "signer": "0x0adA554b9D518ebf3bF2a47C3020221a7868AB81"
      },
      {
        "passId": "423",
        "signer": "0x2362c44da2b374faa924FA43cd5C8B94566CeCE5"
      },
      {
        "passId": "424",
        "signer": "0xe9713aA9dF6D6e51634a4d47b2cefa8C3F945a7A"
      },
      {
        "passId": "425",
        "signer": "0x8a35652E628859d35088e9A441476152f6e5DEBB"
      },
      {
        "passId": "426",
        "signer": "0x1D3E2E6e1d0Bf30fAb61F7F1545D0048a18eA911"
      },
      {
        "passId": "427",
        "signer": "0xAa3A45876FE4Df737a6C0347456f3E3321FEa11a"
      },
      {
        "passId": "428",
        "signer": "0x6B6CEAEc7f3298f9Cc7fbDdE78fc1394f7c7F47E"
      },
      {
        "passId": "429",
        "signer": "0xcC05543F17e8dE79bA4CB12d38D4C590eeddAa91"
      },
      {
        "passId": "430",
        "signer": "0xf9c5C740c9EfB77C5330e0C8eBf729E35615ef9f"
      },
      {
        "passId": "431",
        "signer": "0x87961d2F219304e8bdC292eE3888AE441743eF56"
      },
      {
        "passId": "432",
        "signer": "0x50cf0F8CcE8A33166A76fba5f84834C1929316C1"
      },
      {
        "passId": "433",
        "signer": "0xbB0450e57F101E9911c5A4f77220509435ef51F8"
      },
      {
        "passId": "434",
        "signer": "0xCABEC3fFA83bc19E82750300F51466FACfF09BF4"
      },
      {
        "passId": "435",
        "signer": "0xB62cB58E66beBeE6e10CEB1d2f070D046ce52F90"
      },
      {
        "passId": "436",
        "signer": "0x0179De19FCEe5c0a20aB2e82831C8722E3FF7608"
      },
      {
        "passId": "437",
        "signer": "0xF49D78c21820B8fc6ca037b822Ad3ea3E825a32D"
      },
      {
        "passId": "438",
        "signer": "0xD2bDddC4Be15DAb057857CDb60d3Eda6611F6fb8"
      },
      {
        "passId": "439",
        "signer": "0x06749cd3b93595046040E4dc56B8936209C9987b"
      },
      {
        "passId": "440",
        "signer": "0xcDC5Fb158e9C3137CA25c7E71ccDF03400124533"
      },
      {
        "passId": "441",
        "signer": "0xE345853619BE877C264ebbF6E2972DF1C0F1b950"
      },
      {
        "passId": "442",
        "signer": "0x9ACa94fD1Af5F51304d298Fdd46a15386eE9151A"
      },
      {
        "passId": "443",
        "signer": "0xAE0D5DC3CFb7E2FC84dbe0EE1a1f4fb86667F8E6"
      },
      {
        "passId": "444",
        "signer": "0xD492A9765c3740De86532dA1F22cD54139B21dA1"
      },
      {
        "passId": "445",
        "signer": "0x1fa02048d57A6aE3E49A8323921A23470a485237"
      },
      {
        "passId": "446",
        "signer": "0x0773517ad56Beb1F5435B747a07061ad9b90a755"
      },
      {
        "passId": "447",
        "signer": "0xF7DC53DBed199373233e7a831b7a37a18051e44d"
      },
      {
        "passId": "448",
        "signer": "0x331E7957aFfB210e9142d2494f276Db238717140"
      },
      {
        "passId": "449",
        "signer": "0xCe5c3d1968841c59A0438B64ad11365327d70463"
      },
      {
        "passId": "450",
        "signer": "0x55eCA8dC0e7805a26427191a68ec7e7690729A5a"
      },
      {
        "passId": "451",
        "signer": "0x65b51BA4288731198a5C5F5c3e015DD78c059275"
      },
      {
        "passId": "452",
        "signer": "0x4E882A38C6Ae238BC0bBCa87B5bD6Dc1AD71e6Bd"
      },
      {
        "passId": "453",
        "signer": "0x304843980353BE49583fFCb8f6e56CCF8e43DdB1"
      },
      {
        "passId": "454",
        "signer": "0x67812D332119692e84614226ea5c70d17BA4a43b"
      },
      {
        "passId": "455",
        "signer": "0x5DB7bED7c2b2e4e96B6eae40D98973A1D7D79d07"
      },
      {
        "passId": "456",
        "signer": "0xF533c7658F89db0a97912375Eb67E334874d3aAC"
      },
      {
        "passId": "457",
        "signer": "0x6647dC2523bd6D4D9a7EbfA7A6adC7ba3966a6Bd"
      },
      {
        "passId": "458",
        "signer": "0xda070cdf4C4820Bc6F446C655fe7885Bb579E10f"
      },
      {
        "passId": "459",
        "signer": "0xB5e3466419D7A8f1f7159145330aE7e65d4F8d0B"
      },
      {
        "passId": "460",
        "signer": "0xc759BBEDe28f07Be43C59e7E1c243A904C5155F3"
      },
      {
        "passId": "461",
        "signer": "0x38CD0773ffBc856B204D32D154ef376707572B10"
      },
      {
        "passId": "462",
        "signer": "0x60960e44c8C2EB4bA562260dcADAB409562381fF"
      },
      {
        "passId": "463",
        "signer": "0xaa0eC5D3495df662f8902C8793395f73BE0b5D3c"
      },
      {
        "passId": "464",
        "signer": "0x1679389b4c41832cD702d33095Ed50E2d6b96845"
      },
      {
        "passId": "465",
        "signer": "0x36b3B64C981b03CD729E59C2af14DCaA2cEbb4eE"
      },
      {
        "passId": "466",
        "signer": "0x3218873C5E9791ECd85279B58436018347aE9eF0"
      },
      {
        "passId": "467",
        "signer": "0x022205C688674474e96bEfAdE41E959578de565C"
      },
      {
        "passId": "468",
        "signer": "0xff5277A86ABc6cC89eB58Ae5a8d2aDA4C0072a70"
      },
      {
        "passId": "469",
        "signer": "0x2b1563bf5dabad953e2a2eC2365e186348CE19CE"
      },
      {
        "passId": "470",
        "signer": "0xd9f2AD04d6DB9a1F7F40214d90F10ECbA7c4CcDe"
      },
      {
        "passId": "471",
        "signer": "0x820D3f20ad72f47b33eb8BEF80b6e8a04663F14b"
      },
      {
        "passId": "472",
        "signer": "0x8D55dE2A3a84c2d35d3eE3bde7a6C1C0DFA951E2"
      },
      {
        "passId": "473",
        "signer": "0x5013ee8D7245D3c6e530439250C43BcEc41C92bD"
      },
      {
        "passId": "474",
        "signer": "0x65Aee441d026AeF4aAcb6DDDed57d12a08D95a17"
      },
      {
        "passId": "475",
        "signer": "0x4d7A3Bb24a5eDa9C65171Cf843e3B434c0263102"
      },
      {
        "passId": "476",
        "signer": "0xB96E0A8424e4557C88C2Aa3E8fECa4aa554Fc1E4"
      },
      {
        "passId": "477",
        "signer": "0xA00d8DC3974643E0B322dAC7aE49E3Ffd4cf3e92"
      },
      {
        "passId": "478",
        "signer": "0xD377CfcBE4543879128b610d08F64f47d3F3e76D"
      },
      {
        "passId": "479",
        "signer": "0xFb6bA838dcF0ec91Cc76083115444e0be7eAF412"
      },
      {
        "passId": "480",
        "signer": "0xdA9a1fffE0A3079e1aEaf2fdFd8a312B7E4f0816"
      },
      {
        "passId": "481",
        "signer": "0x859eA3fd5892284230b54005b6a657c72e8A11cC"
      },
      {
        "passId": "482",
        "signer": "0x74C72D68AB495A641Ec3863B910dA5015d0880Af"
      },
      {
        "passId": "483",
        "signer": "0xf594b0020fFC8DAE09d49fD046cCc5757f5D6B05"
      },
      {
        "passId": "484",
        "signer": "0x22CA53A6aa971Ef23212523100Eb5224Bf2d20C9"
      },
      {
        "passId": "485",
        "signer": "0x40d8F5033753D0a4046B3503f3Bb44d0f7E5D0Ef"
      },
      {
        "passId": "486",
        "signer": "0x14b766A2B16eEBA3e2E0503Bc09A80eE22611d96"
      },
      {
        "passId": "487",
        "signer": "0x4bf93751Bd388cC7f324214C3eAabE9A8952e082"
      },
      {
        "passId": "488",
        "signer": "0x887297d4D94d52A89b61eb903f000dDf1878D4F6"
      },
      {
        "passId": "489",
        "signer": "0xEF20625b1d5002AaFCD22437721F13cD1e3C30eB"
      },
      {
        "passId": "490",
        "signer": "0x96DfAbF33a846F826CdfdCbefad0E844f18Ffa96"
      },
      {
        "passId": "491",
        "signer": "0x369b3bA97bF2A2e9547658010b3dac614E736B60"
      },
      {
        "passId": "492",
        "signer": "0x3fc2a38DA3730665d59676CE4765f80Ff59716e5"
      },
      {
        "passId": "493",
        "signer": "0xf80c87960a50e09e79B3417117589dc03B409029"
      },
      {
        "passId": "494",
        "signer": "0x876e44f17730ACaBE136C9746a19D4a23862c5E5"
      },
      {
        "passId": "495",
        "signer": "0xC99f0acC1a8346225526d4eB140469e386db7b1A"
      },
      {
        "passId": "496",
        "signer": "0xb09A39038FF599Eb51D99F00B1c91954099E7a74"
      },
      {
        "passId": "497",
        "signer": "0xbB6993e68ab94ECa3e7738D1Cab2B11904F9e999"
      },
      {
        "passId": "498",
        "signer": "0x7F5f579f6F1D9b18dead3167851896DB9ddbd828"
      },
      {
        "passId": "499",
        "signer": "0xC447Fc4a7458c54070542CDdA22e2cAbA49e1AcC"
      },
      {
        "passId": "500",
        "signer": "0x366a78B1fA346892CFf9173826a8D5C30742acB2"
      },
      {
        "passId": "501",
        "signer": "0xc1a67AEA6bfb0a04F19652762901CD04433B4902"
      },
      {
        "passId": "502",
        "signer": "0x9e81e5109328414B7f8Bea17C525DA4f6bca36d6"
      },
      {
        "passId": "503",
        "signer": "0xa7E5114C81DA985b9445CFb93511dc8F8947a19E"
      },
      {
        "passId": "504",
        "signer": "0x3B6A22569d54ef9A1F5bEAe066117F9Bffda7F1c"
      },
      {
        "passId": "505",
        "signer": "0x7c88e6Be4371Dde96Bb662fdF26F1EF9527Dc4FA"
      },
      {
        "passId": "506",
        "signer": "0xB502D266236eB3b1825349085a1c26C27f2A7ea4"
      },
      {
        "passId": "507",
        "signer": "0x11040b76cb7E059352123C79a8fAc5E4deC970B1"
      },
      {
        "passId": "508",
        "signer": "0x6AD3F6B54fF005BCfe96BFe3621EaAA37d23970e"
      },
      {
        "passId": "509",
        "signer": "0xBEF66D2Ab7F733653cADd9db97302B080C6Ca468"
      },
      {
        "passId": "510",
        "signer": "0x59B018B867510C0Edc23237d41cdB06347C1B1D2"
      },
      {
        "passId": "511",
        "signer": "0x0E36bEcE8436eEE71A2111fbe185A496235B13E2"
      },
      {
        "passId": "512",
        "signer": "0x1e360Ae1296Df12731aB1b79bB50C4e83c245A10"
      },
      {
        "passId": "513",
        "signer": "0x739f6e94d1c9c3967d2a62b1805f592Aa8C23C36"
      },
      {
        "passId": "514",
        "signer": "0xd00b7fd70f0a78eF545E95CA857b542b1b7FB23B"
      },
      {
        "passId": "515",
        "signer": "0x369aDE2db09b97e0ac5F41d282EC544A112Bf1ca"
      },
      {
        "passId": "516",
        "signer": "0xcB9E0D2E18f38074C640528FC888aF932B709599"
      },
      {
        "passId": "517",
        "signer": "0x01e9382D919fE802F52E97eFE06805e7d7d928ed"
      },
      {
        "passId": "518",
        "signer": "0x9A4499cfa2A151f690E5A58321C52c8b4EFE91cA"
      },
      {
        "passId": "519",
        "signer": "0x09CFd9E78637BD2D162109A40a4E5001Be2683d3"
      },
      {
        "passId": "520",
        "signer": "0x87ee2C53560b73AD95848F78d186A2FE6aDf3926"
      },
      {
        "passId": "521",
        "signer": "0xa4bCb37893349b2C298498c10D7AdF8a2a11893D"
      },
      {
        "passId": "522",
        "signer": "0xBc43f73B174EE1eA207411732Aa89bBc562B89da"
      },
      {
        "passId": "523",
        "signer": "0xfb37C7a9447e0BeD462a017086dF5E95c0AA995d"
      },
      {
        "passId": "524",
        "signer": "0xB2887568c8C1f7179810AbaEecd475D478b7D34A"
      },
      {
        "passId": "525",
        "signer": "0xAc591F8DD8d6CAf3E1bD4c80f2ee525822f660DB"
      },
      {
        "passId": "526",
        "signer": "0x8F396a721783F050950e741267E2801Bf6A6d558"
      },
      {
        "passId": "527",
        "signer": "0xf0A12E8dE2D97F5aeCeaec4439319dbC71fC10b2"
      },
      {
        "passId": "528",
        "signer": "0xA33290DB8CABc0b5CF3099f85edE223c2E36651b"
      },
      {
        "passId": "529",
        "signer": "0x4dcBb9BcB8714aE628F1FEB725831140338baB43"
      },
      {
        "passId": "530",
        "signer": "0x2A6afdD9dE88F99f337e89Fe81373f441CD8f28D"
      },
      {
        "passId": "531",
        "signer": "0xbD92E09239E4A7b3B578ACD1DE4cFDFabdAeA215"
      },
      {
        "passId": "532",
        "signer": "0x065677315473a36485c98Dc7dc43dAfd32CBc280"
      },
      {
        "passId": "533",
        "signer": "0x1c6FeaBFEf0fcDCcC15D172017929D194501e33B"
      },
      {
        "passId": "534",
        "signer": "0x1C86eF48f81a120ee282F836A95fcA4CDCe1b0f6"
      },
      {
        "passId": "535",
        "signer": "0x0CE9274e9Bc1009C78DB992c6c69932f11096857"
      },
      {
        "passId": "536",
        "signer": "0x14b64f45f075bb7fFE1f2B90C049c08a0C1Bca36"
      },
      {
        "passId": "537",
        "signer": "0xB1CEb6b85B5549426b0FcADf083047D729026258"
      },
      {
        "passId": "538",
        "signer": "0x068F6850750e60ABf7Cf30b6e1DE463f01297C98"
      },
      {
        "passId": "539",
        "signer": "0x72526Ef6D59F472E7A5Be0dd864B174C7a60eB86"
      },
      {
        "passId": "540",
        "signer": "0xA1BB223Cf6fa744f409719CdE74dE6a5Ab954535"
      },
      {
        "passId": "541",
        "signer": "0xA63D1541328F273B6Fe02FdF16f7Aa4f68926647"
      },
      {
        "passId": "542",
        "signer": "0x676D0e20557AA898C4087Db4C4EB5f978c21bc34"
      },
      {
        "passId": "543",
        "signer": "0xD0eA4Eb1B466Be6Ad66DC0A529Ce5290Ab26afF7"
      },
      {
        "passId": "544",
        "signer": "0xACB6f4819583AB7608028b021942D5c3d788cF95"
      },
      {
        "passId": "545",
        "signer": "0x16f8Fc2b9D598a50a572Ca2ABE8eE8e9b51d7F13"
      },
      {
        "passId": "546",
        "signer": "0x410dd7B18CC9D8F35bD58B71BD7a584908Ac3665"
      },
      {
        "passId": "547",
        "signer": "0x8e6498F2Cf5C8A4A042d7e9bf611f4932Ff0AA3D"
      },
      {
        "passId": "548",
        "signer": "0x1E97E2d44c11aFD4843E7317F7a9c8Fc0DE2F000"
      },
      {
        "passId": "549",
        "signer": "0x982Bc5a61ad19BD87FB3CEA41DF84f30497686cA"
      },
      {
        "passId": "550",
        "signer": "0xE8B6f38F5e183E8132cbF4713aB89D746805c6cD"
      },
      {
        "passId": "551",
        "signer": "0xc55b27B09024AA1B4f056E07108c755b419E3F07"
      },
      {
        "passId": "552",
        "signer": "0xC4C52e204151a7773De56F01646EB63a46af346c"
      },
      {
        "passId": "553",
        "signer": "0xEc07080235E7e78E6Fb5878f4a97A999cad826A7"
      },
      {
        "passId": "554",
        "signer": "0xe97518493E0f2047183a80835137EE15e6e64C9f"
      },
      {
        "passId": "555",
        "signer": "0x12181287Bc27814b6108d2493D8c750410Fe95b3"
      },
      {
        "passId": "556",
        "signer": "0x6983c6E75634330D7E30fFe2cbbb34b52A76c197"
      },
      {
        "passId": "557",
        "signer": "0x5C18fC885a8BaF2e5529D3825bB29A3BFbCa29f4"
      },
      {
        "passId": "558",
        "signer": "0xC042A883197e56311560ed202B9daCd6571Ba5f7"
      },
      {
        "passId": "559",
        "signer": "0x51113599A152420016dF30a54aD740fBa4EdA60c"
      },
      {
        "passId": "560",
        "signer": "0x9868211ADF75B6d275610717fF64Ce97188e3846"
      },
      {
        "passId": "561",
        "signer": "0xf0248B62ABd0a692F7C53709E97109962F6C73Dd"
      },
      {
        "passId": "562",
        "signer": "0x5231F1ed8d3e7dF2BD188dDc9992B0EC6a08F6f1"
      },
      {
        "passId": "563",
        "signer": "0xdD1D3A588D89491C9fb64aFFbaf861db3Da76629"
      },
      {
        "passId": "564",
        "signer": "0xaCEAEe172a6Ec7ca036Bb5630718c7e4f05897E9"
      },
      {
        "passId": "565",
        "signer": "0x541F373baD1C89275D5697Fcd2083DB27Fe863C6"
      },
      {
        "passId": "566",
        "signer": "0x9BdBC97188a516Ab8503771073C36EBBb9Db6D43"
      },
      {
        "passId": "567",
        "signer": "0x2A3D408061F0A555630B3986b376030abc10EDf5"
      },
      {
        "passId": "568",
        "signer": "0xEDE69d5711EAED50790332BF6b465f0B9Aa93f1d"
      },
      {
        "passId": "569",
        "signer": "0x407cc2c11F07eec368298C1D2E6d6512F433254E"
      },
      {
        "passId": "570",
        "signer": "0x46Cb07B987282f16f6b28d35bA9Ba49d47988604"
      },
      {
        "passId": "571",
        "signer": "0x2E3E176b60f42ec7f197D41E835abE57dFE30250"
      },
      {
        "passId": "572",
        "signer": "0x8599Ede22Ee3d3319fDB49B4f69B5c68dFE36ae0"
      },
      {
        "passId": "573",
        "signer": "0x5e17fd95c3606B5F7B0e00120DbBde78c0BA18c7"
      },
      {
        "passId": "574",
        "signer": "0x1fE819aC9CFc8AF33f12bcd44E767760dE109b18"
      },
      {
        "passId": "575",
        "signer": "0x652Dfe6B0Fe832F37B58a55411B405BB82fE32Ff"
      },
      {
        "passId": "576",
        "signer": "0xD5208BC653349f65B8597BF13fcC0048752c0455"
      },
      {
        "passId": "577",
        "signer": "0x104D539b1B1683f47529d86D880335D834C0db03"
      },
      {
        "passId": "578",
        "signer": "0x5FfaE46485cd7CC478bB8e2E001Db536A6d73324"
      },
      {
        "passId": "579",
        "signer": "0xe7aD5dc4635F86CC477aaffFc74Aa4a9BC346006"
      },
      {
        "passId": "580",
        "signer": "0x8087E984B2759E442d71846fa63dab7c8CC858d8"
      },
      {
        "passId": "581",
        "signer": "0x0dF95580b0F2585F54EB392667137A794C36cdB0"
      },
      {
        "passId": "582",
        "signer": "0xB49F85a86F5dd36A192A8F6b405B9315099E7F8c"
      },
      {
        "passId": "583",
        "signer": "0x33b59D7Ff74d43a7E394F56f8dE15615cb985c87"
      },
      {
        "passId": "584",
        "signer": "0xC74440e3D0952f56fDFf60e1Fb3089859578670F"
      },
      {
        "passId": "585",
        "signer": "0x275b7120C664f28C256AcEE2670831d82Aa419C9"
      },
      {
        "passId": "586",
        "signer": "0xC6dC0B65a57Daf8039D0111Ed3F8c4A11c5CC17a"
      },
      {
        "passId": "587",
        "signer": "0x782C6b730012031080B4D901BF2a2B1EbCB88526"
      },
      {
        "passId": "588",
        "signer": "0xA6ebcAd785Fe6dE618f284E066a3C258dD648269"
      },
      {
        "passId": "589",
        "signer": "0x82D7E33fa7FA0D92802717985B371Ed2ec64DDF4"
      },
      {
        "passId": "590",
        "signer": "0xDfc10a1Cea53352f2Ee94645a1904Ee032560bbe"
      },
      {
        "passId": "591",
        "signer": "0x34A3128B7991bd9c3be254662611125aC636083B"
      },
      {
        "passId": "592",
        "signer": "0xA5ea0E55F09054b12C1C749cBa32EDAa94B6613A"
      },
      {
        "passId": "593",
        "signer": "0x63381F936677A3302F0e84F88608EB939bCC44E0"
      },
      {
        "passId": "594",
        "signer": "0x9CF45bD484244919F6dfb666a6c56a0cDE90369c"
      },
      {
        "passId": "595",
        "signer": "0x04717f73BE3Fb2A11970C160EBF8B49402DF47Db"
      },
      {
        "passId": "596",
        "signer": "0x3270eD2b8558ecdd36F0E429b4181B9D9d125F7d"
      },
      {
        "passId": "597",
        "signer": "0x27Ba89c2caBABB8FFa02DcBe9F5ebE6AF9D6a904"
      },
      {
        "passId": "598",
        "signer": "0xDB0B8785Dd19101b8596514e1cDED95591CadD8a"
      },
      {
        "passId": "599",
        "signer": "0x21201BbeF2991Ee0177855eed15ea9b1155f0FB6"
      },
      {
        "passId": "600",
        "signer": "0x3047d16796aABBcE3ca5D8E87a3CB78464f2216b"
      },
      {
        "passId": "601",
        "signer": "0x2e902e261bee1AbC1ec0D025803E834789e38406"
      },
      {
        "passId": "602",
        "signer": "0x8Cc7C9F7171be618B236CA85ACCEE631B13dcdd4"
      },
      {
        "passId": "603",
        "signer": "0xC26388FFBD432C1dCC097fd3fD4e6728295858f2"
      },
      {
        "passId": "604",
        "signer": "0x6862073F9CE52A3F7FF7B3091b27d48B9539A777"
      },
      {
        "passId": "605",
        "signer": "0x04cFbBbc75300c26006eB7DcB2318a9B843696d1"
      },
      {
        "passId": "606",
        "signer": "0x7b331360eCF482364318F7f29b79207b4D0A6b86"
      },
      {
        "passId": "607",
        "signer": "0x62e3B9Ca486f0Ee69F9e5405eDe88405334E77cd"
      },
      {
        "passId": "608",
        "signer": "0x755FE61aE3fe7DeB3934C0Fd9C27844a0765AB24"
      },
      {
        "passId": "609",
        "signer": "0xf59E28004E52015CbAEE5E814606F292081bE4Fa"
      },
      {
        "passId": "610",
        "signer": "0xDc8007BaD3c344B84a3911692C23BEE1a04B7BaC"
      },
      {
        "passId": "611",
        "signer": "0x90472Ab36Cdf03888b2f4d7cb59746751fD67f19"
      },
      {
        "passId": "612",
        "signer": "0x5acc7710715CCa073A0E8D65Bb379ddD8c65fDC6"
      },
      {
        "passId": "613",
        "signer": "0xE140Db50883Bf5e336F04307e8F9E28953476323"
      },
      {
        "passId": "614",
        "signer": "0x811d5570821930dBE714C094fF0AC1F88260ba02"
      },
      {
        "passId": "615",
        "signer": "0xE10278dc95d499307FFdFE52314B6b3cEb460072"
      },
      {
        "passId": "616",
        "signer": "0x7e846CCCB159f0a73eea7E16F49901F3a8Dd3eF0"
      },
      {
        "passId": "617",
        "signer": "0x347005Bbc2D808014F4Ed507099C328bE1f9a344"
      },
      {
        "passId": "618",
        "signer": "0xcD85a988F93EA954fa8589e5a05f1b1d0FAD2201"
      },
      {
        "passId": "619",
        "signer": "0xb667f303f339ebf8f713cE1Fc9ECcC58Ed009699"
      },
      {
        "passId": "620",
        "signer": "0xc0E3A19182a76C659E8cF4cD2FD854883E874b57"
      },
      {
        "passId": "621",
        "signer": "0xB7950cf13c734F2E75DE5541f8b48DD8A45C4E84"
      },
      {
        "passId": "622",
        "signer": "0xA5665702db8bda4D8c62067958e2D4A0b0D326c2"
      },
      {
        "passId": "623",
        "signer": "0x3644D487147568642776C93ff5547a1CCbb3B601"
      },
      {
        "passId": "624",
        "signer": "0x668B8CD4356614b1B90536C57eBcB1C0543D7792"
      },
      {
        "passId": "625",
        "signer": "0xC2EFb5d8ca1A97f708D9cc19A86641284a9d6Ae8"
      },
      {
        "passId": "626",
        "signer": "0xD7D30A2c3076C83E68782f632fFa0e5F9E663A49"
      },
      {
        "passId": "627",
        "signer": "0xcaF3BF87eE00C1dD6b2B5C890a8c3660F403e521"
      },
      {
        "passId": "628",
        "signer": "0x6D9d88bc56F968d6E83F4a66d7494E6f37a4A247"
      },
      {
        "passId": "629",
        "signer": "0x7710275cA0BFFcA3Cda0DABE9772E9a38982a779"
      },
      {
        "passId": "630",
        "signer": "0xE7bF778be2174605b45a8C328fF819D0147E53cC"
      },
      {
        "passId": "631",
        "signer": "0x0DD1B6A0fa3a58f35F8Fc9e461C0A0D14Adc3B5f"
      },
      {
        "passId": "632",
        "signer": "0x8B89Ad3aF31856C7F1Ee168D75f90143772567d5"
      },
      {
        "passId": "633",
        "signer": "0xDd29ca318ADbBEd8acaa08504caE9A1d25254996"
      },
      {
        "passId": "634",
        "signer": "0x7AABeDDbB7f4AD2AAe1fe8b285ba1984833818da"
      },
      {
        "passId": "635",
        "signer": "0xaBA422e7453f662349F0C1436fDcD5bB7c12E4F0"
      },
      {
        "passId": "636",
        "signer": "0xD8760C076A93884789629B3038061bB178C51bc0"
      },
      {
        "passId": "637",
        "signer": "0x4D60a0b80E2ec86591C849D3de39ABF38c33D3eF"
      },
      {
        "passId": "638",
        "signer": "0xD6D5b5D567d9e26Fb624aE20a1AD3Eb9E3c60948"
      },
      {
        "passId": "639",
        "signer": "0x951e75e05C6335DdE77336E08BF254db5619165C"
      },
      {
        "passId": "640",
        "signer": "0x25437cfa56bDfEf4b8cac84E95b2D6d7f5361b0E"
      },
      {
        "passId": "641",
        "signer": "0xC6bCaCaeBFB6B29F25D79D048091420FE5D91878"
      },
      {
        "passId": "642",
        "signer": "0xe041fb010A75990573aaDBF4fb8353EAc2334516"
      },
      {
        "passId": "643",
        "signer": "0xAe11a534DcF0Bfe12b75A3061415ed6aa1B7036b"
      },
      {
        "passId": "644",
        "signer": "0x56e76235BF7fC6A6349b0cfe186ea87D85d5190D"
      },
      {
        "passId": "645",
        "signer": "0xe9dB713D2D99642629e1dDeb6bCB4B79cA06a537"
      },
      {
        "passId": "646",
        "signer": "0x19Ba906Ec49F440f6dD0bE28A5be647148B2ABf9"
      },
      {
        "passId": "647",
        "signer": "0x6c717214EA4522880020aFB97bbF0Ed7cB014708"
      },
      {
        "passId": "648",
        "signer": "0x4730697D8Ecb62C7C6211A3D7f10f6736c2423fa"
      },
      {
        "passId": "649",
        "signer": "0x71e44FCB47449E04127F5379958e7282811C9a11"
      },
      {
        "passId": "650",
        "signer": "0xB7384BD73073349Fc9EDA8647866f17198C0D56C"
      },
      {
        "passId": "651",
        "signer": "0x4f66C460942228aB3e9E779DFb80C02f4b963b59"
      },
      {
        "passId": "652",
        "signer": "0xaC5a2a9e643161CEA8dDD4AD0cB83eB5D12089e9"
      },
      {
        "passId": "653",
        "signer": "0x1B69bb95bC254eC1AC06816F9040a3806328cCD8"
      },
      {
        "passId": "654",
        "signer": "0xc3e44650DCCb2E5a85940e25A3b8195Ac0c285B3"
      },
      {
        "passId": "655",
        "signer": "0x90F6045D63C95509DCcAb8A678dc263ee4b8aE6A"
      },
      {
        "passId": "656",
        "signer": "0xEB23b595B580B3AB726CfE97fb10235989785e9D"
      },
      {
        "passId": "657",
        "signer": "0x55D8ea45e24D6Bb4849ea82e109a6aD4655653f8"
      },
      {
        "passId": "658",
        "signer": "0xF983d8D4f9681D1dddc98f2e0dA174C4454D03c5"
      },
      {
        "passId": "659",
        "signer": "0xEa63C35f0F49F5c1efCb52c40AD9200c0625bcF1"
      },
      {
        "passId": "660",
        "signer": "0x9E985E060Fc701064271F2dd0FDBAd8Ed7C93616"
      },
      {
        "passId": "661",
        "signer": "0xAE6b5f15EB7571253eDdD90D03386d1910b743a0"
      },
      {
        "passId": "662",
        "signer": "0xC9Fbd7F414Df5E4f2724bcCC81b1E8EC3F545f74"
      },
      {
        "passId": "663",
        "signer": "0x19Bd6e4d13DAc5f286599e42bBc2213Cd7AaeC4C"
      },
      {
        "passId": "664",
        "signer": "0x7Ca079d568C45EB44Fa255f2d77134552ED319e3"
      },
      {
        "passId": "665",
        "signer": "0x62131026c55ef7d0226624E284f1eF557FD22d88"
      },
      {
        "passId": "666",
        "signer": "0x89c8A4C20574E5838013A32DAB54460b2D8EDC29"
      },
      {
        "passId": "667",
        "signer": "0xB04Ed3E1E1016f26075DC1313A06F221CdCE4898"
      },
      {
        "passId": "668",
        "signer": "0x408C08cDd3852E13B2A4ebfbe0104347F3ffF5AC"
      },
      {
        "passId": "669",
        "signer": "0x3584E719A09aAc4C5B67cDF69844B30510A87D75"
      },
      {
        "passId": "670",
        "signer": "0x53ea058D50f37E20520C539e90DCF00222f7F538"
      },
      {
        "passId": "671",
        "signer": "0x5d652298771D3c177B1e4F8c343C694DD57b5482"
      },
      {
        "passId": "672",
        "signer": "0x199BCCf693c1aEA0c333B36C72796249A4ebB501"
      },
      {
        "passId": "673",
        "signer": "0x26eCe19078A9C86435458c85eC9D9F99e7bD883e"
      },
      {
        "passId": "674",
        "signer": "0xC61Cf9Ad33A611531526CcDD27A33583f0AbA971"
      },
      {
        "passId": "675",
        "signer": "0x658f3EB5BC0DeB5AD3BB035d148EdDE97E318120"
      },
      {
        "passId": "676",
        "signer": "0xFDeD0423e1ceF66E63e4ae6426F7429E6126cEE7"
      },
      {
        "passId": "677",
        "signer": "0x75B92358Bdfcc62F323aa385655436dbD75B2B2F"
      },
      {
        "passId": "678",
        "signer": "0xD4c543d6C909C498B5C0F2e607bb0900C98f1553"
      },
      {
        "passId": "679",
        "signer": "0xEf4F6Ac6BF803713f1163C9073475BA81577be6A"
      },
      {
        "passId": "680",
        "signer": "0x898c40691C415280F89977ca116ad73A8ACd3Cb4"
      },
      {
        "passId": "681",
        "signer": "0x2721029294D3438908be765350d309CD0C0Ef0E9"
      },
      {
        "passId": "682",
        "signer": "0xe0dA019BbD55a06Bc0bFF5F31082D454Dce94411"
      },
      {
        "passId": "683",
        "signer": "0x634cC15cC263C7D12836E72d3027f584DC3A4EF5"
      },
      {
        "passId": "684",
        "signer": "0x70F0F5690E32fAE6583589a3535E80A7a1E299Cd"
      },
      {
        "passId": "685",
        "signer": "0x4282a42C9F600E19EfAA4ffc64e57cF874586328"
      },
      {
        "passId": "686",
        "signer": "0xa78e6d9d4d511B6338cA263b03c114F0FE3735Ad"
      },
      {
        "passId": "687",
        "signer": "0xD965Bf254cA0D8BBb3758B7C7D8D71F0641d4a90"
      },
      {
        "passId": "688",
        "signer": "0xD30d9132b3021c8765400d8E842d0Fc45B596FEA"
      },
      {
        "passId": "689",
        "signer": "0x63DeF228Db8dF171f115B143c7BC18cf8b8944d3"
      },
      {
        "passId": "690",
        "signer": "0x38eBAFe5554D7D37671ED8a62a536d29b126E4DB"
      },
      {
        "passId": "691",
        "signer": "0x3c346f17a4039Cb37e767fB363F605274e2f2350"
      },
      {
        "passId": "692",
        "signer": "0x0f4ee40183bC01091Af039C63043f91691886549"
      },
      {
        "passId": "693",
        "signer": "0x271c8026c6A545e474ac0B26CbF2DB1CC5D885Ef"
      },
      {
        "passId": "694",
        "signer": "0x5364049482B843A46DcEC913a092F7306AcEe3b7"
      },
      {
        "passId": "695",
        "signer": "0xC78DB51EbA60b5BfBc5aD935b0EDD92E538D57D4"
      },
      {
        "passId": "696",
        "signer": "0x75Fa2A0248A067e3dca96e1f421e272cF79b729a"
      },
      {
        "passId": "697",
        "signer": "0xB5d3179018F2c459640d4009cdB5608BF3b1C37d"
      },
      {
        "passId": "698",
        "signer": "0xd90cE2f57450Ca4650bcB8aF37Dc4205B4054e63"
      },
      {
        "passId": "699",
        "signer": "0xe443125D790f8f9c25211822baEE5D86619bcA87"
      },
      {
        "passId": "700",
        "signer": "0xC5EF55863aC518cb43FBC5ea19F7D2d988d7fEF2"
      },
      {
        "passId": "701",
        "signer": "0x6eccF0AB92536e102FC83d837700582C76239c35"
      },
      {
        "passId": "702",
        "signer": "0x88B9141272053472fCC01d8f26864c721CbeF894"
      },
      {
        "passId": "703",
        "signer": "0xF659501795Da0388E575d243203485D2Fa31F46E"
      },
      {
        "passId": "704",
        "signer": "0x8116994559A8077366f7d8F08B9e6B5b4997A435"
      },
      {
        "passId": "705",
        "signer": "0xb43c779A7979463ca76d98fb2003E05Ca78d40cc"
      },
      {
        "passId": "706",
        "signer": "0x97f01dbF67395932034fbF42757443EE506c532C"
      },
      {
        "passId": "707",
        "signer": "0x6F9368cFCa8ef3b1dae357ff3b7f4d5A6cD50242"
      },
      {
        "passId": "708",
        "signer": "0xC1d0e50576dBF16cA37D2ED3CAB4e8B6E9DfA5ae"
      },
      {
        "passId": "709",
        "signer": "0x809540b9a5F688184A0d0247df495E85Ae16E865"
      },
      {
        "passId": "710",
        "signer": "0x8E10A0315D09B7381dE1D013F1E491606AE1c0FD"
      },
      {
        "passId": "711",
        "signer": "0xe9d53cE177F934DEE4116d6aEf4cde92b9E434Df"
      },
      {
        "passId": "712",
        "signer": "0x64d8DAdc37C5272EFc2E5dE05f544237Ee146C30"
      },
      {
        "passId": "713",
        "signer": "0x154a7a296320e3d17d42273531Db719f30F79C5B"
      },
      {
        "passId": "714",
        "signer": "0x30e2f92bFFe391FA5D8D610a1CdA40Afeda23D1B"
      },
      {
        "passId": "715",
        "signer": "0x34181Bd726Fd826E1d5453da48b60f7C7f2b504E"
      },
      {
        "passId": "716",
        "signer": "0xBdE1f4E07f1b9795ff0a6D114aE1F7c3E15083C3"
      },
      {
        "passId": "717",
        "signer": "0x2a6F1deED55cAf6A0d624F8d88e64ee6F93BA3c3"
      },
      {
        "passId": "718",
        "signer": "0x45AbFEC2080F7A987F816d2d5cF39Ec3b014fd35"
      },
      {
        "passId": "719",
        "signer": "0x343c91874bd586a24af9d9dbDF9a114444b863C7"
      },
      {
        "passId": "720",
        "signer": "0x51F21989969E8a786eC1462aCaa33EeD6C78966f"
      },
      {
        "passId": "721",
        "signer": "0xED7615026e91F1d443FeEb49DBfD3E03af1bc74F"
      },
      {
        "passId": "722",
        "signer": "0x981664a155d682aDe05F28Dd1a5a53ed349C11E2"
      },
      {
        "passId": "723",
        "signer": "0xA6EFEfe0Bff7669c1334Ae4CfE799194200e61C0"
      },
      {
        "passId": "724",
        "signer": "0x0345bB3668fEf03ffbE9AC9852B368C293Afc37f"
      },
      {
        "passId": "725",
        "signer": "0x9b53aa2e28d4AF6e0fE6e4f539Abed50DF6720B0"
      },
      {
        "passId": "726",
        "signer": "0x14D4ee2A2E6BEC7088De63f9270bcC13420E9A1b"
      },
      {
        "passId": "727",
        "signer": "0x2D8E67ca8C6b0A8CFE1f44252b7989Bd9509c40D"
      },
      {
        "passId": "728",
        "signer": "0x5293A3C763D37B7137b9e91269B7F9552003B89C"
      },
      {
        "passId": "729",
        "signer": "0x3326EB0e086Ec2f2746Baa3c4F68D19b2b1BfCcC"
      },
      {
        "passId": "730",
        "signer": "0xB269a3DBb04Bee744aD863FcABD847428108dCFc"
      },
      {
        "passId": "731",
        "signer": "0x78C84fe3557f773660F71416759d5530F27AF6a5"
      },
      {
        "passId": "732",
        "signer": "0xC55F1a026682BB435974d61dC08234779eE80BAf"
      },
      {
        "passId": "733",
        "signer": "0x49C442c49198ce70CA71fa2d588eC616a690980c"
      },
      {
        "passId": "734",
        "signer": "0x94AbABD939950d54b6D69bBE948DeB54dFdF4F56"
      },
      {
        "passId": "735",
        "signer": "0x83817751530EDA7ab813d02e4199045fDA9A08bc"
      },
      {
        "passId": "736",
        "signer": "0xac69E315F5e6600eE4b83CCB33A810eCDB73Ca66"
      },
      {
        "passId": "737",
        "signer": "0x436B69dd1cD7C8ee261ebD411c5650D455766408"
      },
      {
        "passId": "738",
        "signer": "0x3FCB3Efb8c4668D978a7eaE68A9430b4513fd9eA"
      },
      {
        "passId": "739",
        "signer": "0x1a1F32C9Db5aAaAc1D45f4FBd7a5A763E47c3169"
      },
      {
        "passId": "740",
        "signer": "0x72ba6c51f72e9B2dE10C4f67245Ba07C927d84D6"
      },
      {
        "passId": "741",
        "signer": "0xc42E28A1fCa945233D06b742C22e7819d4915d4a"
      },
      {
        "passId": "742",
        "signer": "0xA338a5b580660350bBa8AFbD3A0c8129b4e01fc0"
      },
      {
        "passId": "743",
        "signer": "0x1b94347f175A5A7e3E6745203ED5aa7544183BF8"
      },
      {
        "passId": "744",
        "signer": "0xBb5B9c67d3FB6C5c1507441b00fb73D28625d3a9"
      },
      {
        "passId": "745",
        "signer": "0x4AA32046715096e1efF808cbd608f748e6f78B73"
      },
      {
        "passId": "746",
        "signer": "0xf6383Af9E167E717bec7B3Fa75bfBcCA2C5ad783"
      },
      {
        "passId": "747",
        "signer": "0xE1a54Bd9bdD51010497E1682846c556920e0e26E"
      },
      {
        "passId": "748",
        "signer": "0x99cf120AEb34Fa752dCCc14fD021bD0B5C698fA1"
      },
      {
        "passId": "749",
        "signer": "0xbD4f6adA650f74a53Fa3B7B3B3aba4f8A11a16e8"
      },
      {
        "passId": "750",
        "signer": "0x7cA0C64345726694c16c011617B2780091cce082"
      },
      {
        "passId": "751",
        "signer": "0x0247cbc0b1c7e1017BA5fe1BA63fEA788765b12B"
      },
      {
        "passId": "752",
        "signer": "0x3B6462D35D2290E57B527E38352C60B361F7c5E1"
      },
      {
        "passId": "753",
        "signer": "0xFABA315dE34Dc8F5d5fB951FA95b62Ed44D1Fb9A"
      },
      {
        "passId": "754",
        "signer": "0x279D4Ab9087dF15A65d4EC3be1890365C4D2D147"
      },
      {
        "passId": "755",
        "signer": "0x0d8cc5D49C4D744d492BDE8D1544e8bB8838EF8a"
      },
      {
        "passId": "756",
        "signer": "0xEd73B9325442AA71F1471bfe7bD8970f8233F44B"
      },
      {
        "passId": "757",
        "signer": "0xe2e13292D0639EA5150c9F3CA77cffCd031C9A3B"
      },
      {
        "passId": "758",
        "signer": "0x991cbDECB534542cEfB3D4942238648985D3Be39"
      },
      {
        "passId": "759",
        "signer": "0x68760c8B643E7A1b9BeF4f72577d7E4c1c3A56E6"
      },
      {
        "passId": "760",
        "signer": "0x67E63b03c49b641c2Cd8B15275f841EB4e7E66c4"
      },
      {
        "passId": "761",
        "signer": "0x4711632D5b9799d5CA7b023D2Ff97cc1fdA9901c"
      },
      {
        "passId": "762",
        "signer": "0xd1A676CB5F236e2738f3382A65d018C369621CE1"
      },
      {
        "passId": "763",
        "signer": "0x7396c7B65289A64a0Ed25290208e4d2966af1790"
      },
      {
        "passId": "764",
        "signer": "0x5da7AAf442D51E6D2e3995748115E503e034C82E"
      },
      {
        "passId": "765",
        "signer": "0x12d7ca031042c291326528Ff03F0e4B798306748"
      },
      {
        "passId": "766",
        "signer": "0x6325eD9aD23D36f63086e6E98C96104deE802A75"
      },
      {
        "passId": "767",
        "signer": "0x3d32B33759863234a67F054167ecbe242d90e47d"
      },
      {
        "passId": "768",
        "signer": "0xe424E658ca44841090a04462BC23C5E84889aDFB"
      },
      {
        "passId": "769",
        "signer": "0x28DC8986C6eb6043CE089f5f8E22dE2CA8A3FF52"
      },
      {
        "passId": "770",
        "signer": "0xbb5bF7014AF58D79074dc4086AB700a35a2C97e3"
      },
      {
        "passId": "771",
        "signer": "0x822236DE22A4Bc08A216AeFEb0D6Bd1Be555E4b3"
      },
      {
        "passId": "772",
        "signer": "0x6C7E068C79C3ad77345616e6E43ee3A81d55E22A"
      },
      {
        "passId": "773",
        "signer": "0xE834D1D9C4c6Db7dba1ca7947d13101f7f6642ab"
      },
      {
        "passId": "774",
        "signer": "0x14D7b049279B6b795C28e6c022Aa1f70642e2AfC"
      },
      {
        "passId": "775",
        "signer": "0x37f5Be5D47B256D3b793Cfb6849e986cB5a43044"
      },
      {
        "passId": "776",
        "signer": "0x88682c73235f3b9ad5e29E51De6458ED7F7bF55F"
      },
      {
        "passId": "777",
        "signer": "0x66B4B836b8823A041B9b61d015f33396553bE016"
      },
      {
        "passId": "778",
        "signer": "0x1E59dEDD206B345a830e716da5BB85FBb1180579"
      },
      {
        "passId": "779",
        "signer": "0x225eCec67Eb804786BDF3ae4358Ee89503d18ab8"
      },
      {
        "passId": "780",
        "signer": "0x7e6e38264414b85E584Bd2AD220884f023dc81fF"
      },
      {
        "passId": "781",
        "signer": "0x836D8A638D55CF1E7fcF5369dc7B222309BaA75B"
      },
      {
        "passId": "782",
        "signer": "0x798991b46e41fc7c52a87BeA160C1C76ABC01654"
      },
      {
        "passId": "783",
        "signer": "0x74875713Fb89C763568c8B465eACee8851828c91"
      },
      {
        "passId": "784",
        "signer": "0x6C0000353f7Bef5445D03eB309c6d99466C8F22e"
      },
      {
        "passId": "785",
        "signer": "0x5019A57F0bcF0aAD06a791fBdd3ff376fd13e73A"
      },
      {
        "passId": "786",
        "signer": "0x3f5294FCE0616A51B3E9721a5639e394Df934Adc"
      },
      {
        "passId": "787",
        "signer": "0x99B3032743a20e16458e7ed9Fa1Faa0e5b024CB4"
      },
      {
        "passId": "788",
        "signer": "0x2F15C13A045b5A81A27029E555376fbacE5DB5fD"
      },
      {
        "passId": "789",
        "signer": "0xEb7229d66e3e73C3eF46f93FD26EB04B77f00Eb7"
      },
      {
        "passId": "790",
        "signer": "0x46E4131f9C7F167E9140D817ae7AF032D1edFE72"
      },
      {
        "passId": "791",
        "signer": "0xf055681a6853086d7c37ee94B4D47C8416BBAfc8"
      },
      {
        "passId": "792",
        "signer": "0x3a816E7Bce2502DfCbB87875a921784898e81572"
      },
      {
        "passId": "793",
        "signer": "0x4Ca30c5ee640556cd7efFbafc2550ADc1A8B6F38"
      },
      {
        "passId": "794",
        "signer": "0x9381c1fc30b0696B71aD3c1aB1432BbB9C2B9F75"
      },
      {
        "passId": "795",
        "signer": "0xDb803A682b225b0A4325358263FDA64174EF96F7"
      },
      {
        "passId": "796",
        "signer": "0x4eF572aDA2da6a4bac964ee9bedc9815C6b2c071"
      },
      {
        "passId": "797",
        "signer": "0x3621695771a4A984530bF03a5e3482baE1570594"
      },
      {
        "passId": "798",
        "signer": "0x169D5a82A6022A658cd28042DC18B18a46D3d97A"
      },
      {
        "passId": "799",
        "signer": "0x73A7Ad71AaA7C7C5939354dDf45BA55C77d38E44"
      },
      {
        "passId": "800",
        "signer": "0xf8A29CCbDF51389546c2191a34811eb0ef21e90D"
      },
      {
        "passId": "801",
        "signer": "0x68a346D74001a26ea56090F46c772C9CCCBcf25d"
      },
      {
        "passId": "802",
        "signer": "0x2D496a8E0d91881f720277ACE59369137B558A4f"
      },
      {
        "passId": "803",
        "signer": "0x0c17AA508FDaD90DE2AD9C022526833FCe37cB69"
      },
      {
        "passId": "804",
        "signer": "0xA20546925aEE21e4B03220105065c24dA99773bf"
      },
      {
        "passId": "805",
        "signer": "0x6161389F734d848cB16Ab599Fa321075b7d10cbF"
      },
      {
        "passId": "806",
        "signer": "0xF4D38a708BEc42582BE0E5C2Df1f6A53ef71993e"
      },
      {
        "passId": "807",
        "signer": "0x62B7D68cd9DfA2cCFFe1126CC23Aa242cA9F2547"
      },
      {
        "passId": "808",
        "signer": "0x112EB6b5Cf0D143374701Ba9f78D32ea1dF6b267"
      },
      {
        "passId": "809",
        "signer": "0x2F2d109fbF5a43ABc313B1601a8666Cb1B234D3B"
      },
      {
        "passId": "810",
        "signer": "0x18957B53Df9965eeC95C56ca610d7B68B8a509a1"
      },
      {
        "passId": "811",
        "signer": "0xEB3132DA8CF2Aa0f314e431CC624531ddBF95ab7"
      },
      {
        "passId": "812",
        "signer": "0xC31331eF361501986b0B9570ad811B8Dd894c6D8"
      },
      {
        "passId": "813",
        "signer": "0x49919c7eA010C9C0d6d18Cf9798a232A683405ec"
      },
      {
        "passId": "814",
        "signer": "0x6d499AF3dc3Db0A86ef91fC1D68A9C97Ff5f25BC"
      },
      {
        "passId": "815",
        "signer": "0x000000000000000000000000000000000000dead"
      },
      {
        "passId": "816",
        "signer": "0x000001f568875f378bf6d170b790967fe429c81a"
      },
      {
        "passId": "817",
        "signer": "0x0078c86e12186e2de1ff6fef5f1ada2bffde4ea5"
      },
      {
        "passId": "818",
        "signer": "0x024f1f8b3789bfdf9edb47f58a0d7a3afeaea804"
      },
      {
        "passId": "819",
        "signer": "0x049808d5eaa90a2665b9703d2246dded34f1eb73"
      },
      {
        "passId": "820",
        "signer": "0x05e8074088797c1f9057febf374deee0bc38e894"
      },
      {
        "passId": "821",
        "signer": "0x05ea539365d91df315e8ddd736e90431696fe8c4"
      },
      {
        "passId": "822",
        "signer": "0x09280340849e66948149804cac539cc7227512be"
      },
      {
        "passId": "823",
        "signer": "0x0946bc5c2f9848665cc3811458de403d0a78ad8e"
      },
      {
        "passId": "824",
        "signer": "0x0985224a811e65c235dbf4a2c2117712aabe4e39"
      },
      {
        "passId": "825",
        "signer": "0x0d0aca99686fced8e6fb39134aaed96f09b5283c"
      },
      {
        "passId": "826",
        "signer": "0x0d94b6e4c2aa9383964986020b3534d34885f700"
      },
      {
        "passId": "827",
        "signer": "0x0dd544d0da95666d7c3d38460feb4b5f25eaa515"
      },
      {
        "passId": "828",
        "signer": "0x0ea59c05be4b7149aaed26be764b618ac0255643"
      },
      {
        "passId": "829",
        "signer": "0x10b28ee04853bdd30d1fd7b302fbe5691c144aa0"
      },
      {
        "passId": "830",
        "signer": "0x10f6c58b9dc9603cb24ee9a5220bb4a470781676"
      },
      {
        "passId": "831",
        "signer": "0x12579783fbe8c2645d7a634b238da748405975a2"
      },
      {
        "passId": "832",
        "signer": "0x136c65a3f31682fcf683906ddbf3c76db2633f99"
      },
      {
        "passId": "833",
        "signer": "0x139d9a36ff2b6bfb8558dfbc22486da48c77a396"
      },
      {
        "passId": "834",
        "signer": "0x13b3a50f3947476eda74fe191344524e2d2d28e5"
      },
      {
        "passId": "835",
        "signer": "0x13e46ccd194ca86212236543d2e7376b00bafa42"
      },
      {
        "passId": "836",
        "signer": "0x1423fcc74da82fa03d70fa1f7a122db1ba231783"
      },
      {
        "passId": "837",
        "signer": "0x1436dbffbdde71d16a2c4d23f9116c3158c4d984"
      },
      {
        "passId": "838",
        "signer": "0x1527fa3a0778d574adfe714b7e60c7b2a1bf7c29"
      },
      {
        "passId": "839",
        "signer": "0x1974341df4b113a4c16f3d3f106176dec0e4da67"
      },
      {
        "passId": "840",
        "signer": "0x1c062628943a930b805849b494719c7d23c77bd5"
      },
      {
        "passId": "841",
        "signer": "0x1ec9503bbdad721ef3ad485b4b14ce0671dc9925"
      },
      {
        "passId": "842",
        "signer": "0x21c5edc237e95049f92059af6a571fdb700f2b82"
      },
      {
        "passId": "843",
        "signer": "0x2224acd07fd9b269ab5200a9a3df8062624deefb"
      },
      {
        "passId": "844",
        "signer": "0x230eb64900d027dfe372786b3342bd6178ec37d1"
      },
      {
        "passId": "845",
        "signer": "0x273c25abd33eca095e228fde0f15e8f7ec4eb4d9"
      },
      {
        "passId": "846",
        "signer": "0x27d9b6692ec1fb802cc8ceef74270ca4b448076a"
      },
      {
        "passId": "847",
        "signer": "0x290420874bf65691b98b67d042c06bbc31f85f11"
      },
      {
        "passId": "848",
        "signer": "0x2993db31d165c33d848e44a1c26a805ba411d324"
      },
      {
        "passId": "849",
        "signer": "0x2d2c46d26c8fec693586e067c4fc2b2ddc2b4cb3"
      },
      {
        "passId": "850",
        "signer": "0x2d79097b9e4c4f41654b2c91c39fd2c97af00c76"
      },
      {
        "passId": "851",
        "signer": "0x2de2299db048a9e3b8d1934b8dae11b8041cc4fd"
      },
      {
        "passId": "852",
        "signer": "0x2e50783188e23742dd3168682e39381ff5fa9731"
      },
      {
        "passId": "853",
        "signer": "0x2e699391d1b3b8577557b4c0ef6a1d9e8a394f04"
      },
      {
        "passId": "854",
        "signer": "0x308bff328370fc4a9683ab9fcd79a21be6dc5ee4"
      },
      {
        "passId": "855",
        "signer": "0x342c6bfa287ce37b8b53eee0e5b6e6bcbea98c76"
      },
      {
        "passId": "856",
        "signer": "0x362f020fd4420c317e7a0722994ba8bc3380d0e8"
      },
      {
        "passId": "857",
        "signer": "0x3668a20653316a7dd85342f64a4c984d146cadfe"
      },
      {
        "passId": "858",
        "signer": "0x37b699d7eead58433d352d1c77b2db1391f11ce5"
      },
      {
        "passId": "859",
        "signer": "0x3ad353e2845b96fb1b58c1ca6cda46b870de8d6f"
      },
      {
        "passId": "860",
        "signer": "0x3d14410609731ec7924ea8b1f13de544bb46a9a6"
      },
      {
        "passId": "861",
        "signer": "0x4011d09a86d0aca8377a4a8bad691f1aceecd672"
      },
      {
        "passId": "862",
        "signer": "0x41a7276167b80da8815df5b0ddaba3be29984250"
      },
      {
        "passId": "863",
        "signer": "0x44dc2ec15b3483fc8590f6b396cea5f8f2fbf3bd"
      },
      {
        "passId": "864",
        "signer": "0x4530307f98208d3bd5b9631880bc7351770c8810"
      },
      {
        "passId": "865",
        "signer": "0x4a1d757699ab73dd4b48b15049b6f1479b2f3511"
      },
      {
        "passId": "866",
        "signer": "0x4b0bd713574e67a97b3ff8f647f329794a2cbb64"
      },
      {
        "passId": "867",
        "signer": "0x4d03a186b3c7d039ff9a212cd8e81dc34a670b35"
      },
      {
        "passId": "868",
        "signer": "0x4de4a829d42191007431d608775430f3ab072082"
      },
      {
        "passId": "869",
        "signer": "0x4e012d25472225f3385baa43ed64dfec5885c51d"
      },
      {
        "passId": "870",
        "signer": "0x4ffb72b66eba24521736924f87dfe10677d82286"
      },
      {
        "passId": "871",
        "signer": "0x50f27cdb650879a41fb07038bf2b818845c20e17"
      },
      {
        "passId": "872",
        "signer": "0x5285ac85a979b612f5c5320961311bba099670f0"
      },
      {
        "passId": "873",
        "signer": "0x530cf036ed4fa58f7301a9c788c9806624cefd19"
      },
      {
        "passId": "874",
        "signer": "0x5310a9b64847c1b927f823a4bc8836e93f09dc78"
      },
      {
        "passId": "875",
        "signer": "0x54463aae905082c678708bb6c25226eb8f38d5a6"
      },
      {
        "passId": "876",
        "signer": "0x562bf1b67dc40d9b7c3ddd49e45ae58e61e1b76e"
      },
      {
        "passId": "877",
        "signer": "0x568b491fb2b4b9440f6d05e7723df0060fdaef1c"
      },
      {
        "passId": "878",
        "signer": "0x5a016b206d0314c7ec641c3a6fd89dac7fea010e"
      },
      {
        "passId": "879",
        "signer": "0x5b158f897f5ace2afefaf7ace8ce0cdbbbc9168a"
      },
      {
        "passId": "880",
        "signer": "0x5ba02f4ff6af1d9d2af8774d10fd32eb57d4e2e6"
      },
      {
        "passId": "881",
        "signer": "0x5bd685375c21375165438ca7f3eae7ec4fade8c5"
      },
      {
        "passId": "882",
        "signer": "0x5d9e720a1c16b98ab897165803c4d96e8060b8e4"
      },
      {
        "passId": "883",
        "signer": "0x5e01d9928ea32d1d3ae2f3263b6ec6c165dc2d76"
      },
      {
        "passId": "884",
        "signer": "0x5ee42438d0d8fc399c94ef3543665e993e847b49"
      },
      {
        "passId": "885",
        "signer": "0x5f8e56d7f3642dd8783774460da2d3a7c54aacda"
      },
      {
        "passId": "886",
        "signer": "0x5fb8b9512684d451d4e585a1a0aabfb48a253c67"
      },
      {
        "passId": "887",
        "signer": "0x6186290b28d511bff971631c916244a9fc539cfe"
      },
      {
        "passId": "888",
        "signer": "0x62f099a34f01d57c67a100851184bea0d48b45f6"
      },
      {
        "passId": "889",
        "signer": "0x63244b5f1ebcb999ea012da652dffee6653bf8f5"
      },
      {
        "passId": "890",
        "signer": "0x64e00561fa9b1f2f2048b2d4f571279689dd9541"
      },
      {
        "passId": "891",
        "signer": "0x65565244e5700b85c90358468faf37c85db55099"
      },
      {
        "passId": "892",
        "signer": "0x6584b48ccebd9c3e4413a1dd4cdbc38b2500cdf3"
      },
      {
        "passId": "893",
        "signer": "0x65d88c64b01b9481352fa8a68b54ed1b3b687388"
      },
      {
        "passId": "894",
        "signer": "0x663d3947f03ef5b387992b880ac85940057c13e3"
      },
      {
        "passId": "895",
        "signer": "0x67c3097a968db89610825976ec9a5976a966c044"
      },
      {
        "passId": "896",
        "signer": "0x68016f094ebb7b55b04372af335455854b0e2eb6"
      },
      {
        "passId": "897",
        "signer": "0x6854dc5c9e3d3ce0b9dd7250d866908515465dc6"
      },
      {
        "passId": "898",
        "signer": "0x686e960ebd9aceb1771850444d4d3a7810a0dac9"
      },
      {
        "passId": "899",
        "signer": "0x6d7fd0438219c0f753a1ccf7c4885bb6cb260999"
      },
      {
        "passId": "900",
        "signer": "0x704c978d50590b21e4c2f43eb4da24fe61fcd707"
      },
      {
        "passId": "901",
        "signer": "0x73e60cd967e957bc6e074f93320ffa1d52697d5b"
      },
      {
        "passId": "902",
        "signer": "0x75331ebbe0b00b97cab532384f13c9b479f074ec"
      },
      {
        "passId": "903",
        "signer": "0x75ef2eff7b12f5f900ef5c787036deab18423d1a"
      },
      {
        "passId": "904",
        "signer": "0x78885686feec340ab544428f161e7d621f520e29"
      },
      {
        "passId": "905",
        "signer": "0x79bebfcb560141f22959c62bbd2930d5c7e35d30"
      },
      {
        "passId": "906",
        "signer": "0x79fd2f15e0ea8c27b5192259f9da63f4e562f021"
      },
      {
        "passId": "907",
        "signer": "0x7a824bea2bed9399a68cd0e340224809521c81d9"
      },
      {
        "passId": "908",
        "signer": "0x7d6a8ffcaf98cac58340329b3a91759888cb1363"
      },
      {
        "passId": "909",
        "signer": "0x7e7a55b11dd9a02b4da169620adfc36b930100fc"
      },
      {
        "passId": "910",
        "signer": "0x80d0d54050c15971b21e877d95441800f5aa9ee8"
      },
      {
        "passId": "911",
        "signer": "0x8177598e08ee8199c160a48c7a0af31ab54bb59f"
      },
      {
        "passId": "912",
        "signer": "0x82410609593d876761681580cf304c794bd58d09"
      },
      {
        "passId": "913",
        "signer": "0x826f63afd9517364cbebe91a859f10b102505a40"
      },
      {
        "passId": "914",
        "signer": "0x836ef81a58e5565b8d1d555ec8e9a5c2792511c6"
      },
      {
        "passId": "915",
        "signer": "0x83d3c179e7906e7f6755658c70e106f1ed3c5782"
      },
      {
        "passId": "916",
        "signer": "0x84eeb7db3f93feb5a8a98f56dabb970a6797c187"
      },
      {
        "passId": "917",
        "signer": "0x865c2f85c9fea1c6ac7f53de07554d68cb92ed88"
      },
      {
        "passId": "918",
        "signer": "0x8725be0bb6ea759d10fbb52fedecc7dcd6890072"
      },
      {
        "passId": "919",
        "signer": "0x87dfef3b445667292aac89078b51f0f75795805f"
      },
      {
        "passId": "920",
        "signer": "0x88906af7616f88f610d1e479325a5c5f93ba1e2c"
      },
      {
        "passId": "921",
        "signer": "0x8a53b8b59877df193c6dae7b8d1d38251af563cf"
      },
      {
        "passId": "922",
        "signer": "0x8b5e90aa714c967efc8c286f46ce0fc822e1cfb0"
      },
      {
        "passId": "923",
        "signer": "0x8c0c3c60118b24b31806eae82ab4186821bf23f1"
      },
      {
        "passId": "924",
        "signer": "0x8c2e67bd3d0f432ef75d9ae6623cd0dfbce66050"
      },
      {
        "passId": "925",
        "signer": "0x8dc9d43df20681cd62ca0acb24ae7ce2794f835d"
      },
      {
        "passId": "926",
        "signer": "0x8df55ecf2c261b44d079302dc95327fe32f74eed"
      },
      {
        "passId": "927",
        "signer": "0x8ebbf8f59b7b7849e359f7e1cc395df6741c24b9"
      },
      {
        "passId": "928",
        "signer": "0x92e7faa1c7b1cf703e3cda42183978f16fa15713"
      },
      {
        "passId": "929",
        "signer": "0x932a824a4d3d0680e0b352de150e6f212b8ac841"
      },
      {
        "passId": "930",
        "signer": "0x95a4350e1cb5e795d3ebe8bee63d9183de5449d1"
      },
      {
        "passId": "931",
        "signer": "0x96dc89dbe84970ee42a2f0b35fb50599e6745ff8"
      },
      {
        "passId": "932",
        "signer": "0x975ab68d4c15d6db02e101d5be03c5b49b9a3282"
      },
      {
        "passId": "933",
        "signer": "0x9de0b0402258a6a562331da7b3c13b29578789c4"
      },
      {
        "passId": "934",
        "signer": "0x9fc6d6c7326585fd3c2a743a1f505990d6e9df3f"
      },
      {
        "passId": "935",
        "signer": "0xa0863e36c30f4974a3a0e2cfc2802513cfaa22f1"
      },
      {
        "passId": "936",
        "signer": "0xa0a6dc36041fb386378458006fecbddd02555ddd"
      },
      {
        "passId": "937",
        "signer": "0xa0d71d516c6149c958c489ab24223c99f5df906f"
      },
      {
        "passId": "938",
        "signer": "0xa0f838d02983161ee469bff969964b7051ac1cd9"
      },
      {
        "passId": "939",
        "signer": "0xa596370bc21dee36872b98009dfbbf465dbfefa3"
      },
      {
        "passId": "940",
        "signer": "0xa5975974cac3fefd831e42bdd2fe84cb5ee3b3de"
      },
      {
        "passId": "941",
        "signer": "0xa6157b7bb7ec05e2b6feafd686797f9ea05411cc"
      },
      {
        "passId": "942",
        "signer": "0xa6f4fa9840aa6825446c820af6d5eccf9f78ba05"
      },
      {
        "passId": "943",
        "signer": "0xa77d9227eee861e01519548b6000acca8600eebe"
      },
      {
        "passId": "944",
        "signer": "0xa7d9f4fd84cdd4bee564adc1b18e3e8aa79d25f1"
      },
      {
        "passId": "945",
        "signer": "0xa88e4a192f3ff5e46dcc96efefb38dfec7bb250c"
      },
      {
        "passId": "946",
        "signer": "0xab2f02d8d409ee4f67fdda5aac5ca7a64a897271"
      },
      {
        "passId": "947",
        "signer": "0xac75cdc34283406b050cadf4ea5902a9310b138e"
      },
      {
        "passId": "948",
        "signer": "0xad9f9194c68bd83250a534a7da574687e1f102ff"
      },
      {
        "passId": "949",
        "signer": "0xae8ce6bb2b95684f57c097b407f4e9b55d9ca432"
      },
      {
        "passId": "950",
        "signer": "0xaee2f40fe0568bd859bc6a518c7ef3252fdc9bf0"
      },
      {
        "passId": "951",
        "signer": "0xaf5cb828389bd6413e7bcd00ed2dcf2bdc1a015a"
      },
      {
        "passId": "952",
        "signer": "0xaf8fbf59e221d27b55dc3adc2366f9230bcf5096"
      },
      {
        "passId": "953",
        "signer": "0xb29b1936c11b77cec6061a9daf765ee2666c8f77"
      },
      {
        "passId": "954",
        "signer": "0xb347b5b99c49ce6c555071a1f0498c81511ad977"
      },
      {
        "passId": "955",
        "signer": "0xb3522064694ac9870dbf00eebc2712762193bb64"
      },
      {
        "passId": "956",
        "signer": "0xb353268ce17d2c7f0f4f8aff152e548c43633df5"
      },
      {
        "passId": "957",
        "signer": "0xb66190f67ed8f0ca790ddfe541ee1bd0da53fe70"
      },
      {
        "passId": "958",
        "signer": "0xb74e4d1592dad73f3745f57605580108ebaedad5"
      },
      {
        "passId": "959",
        "signer": "0xb7f9f538aa1b41ae2853eb63f1939187ffe70eb4"
      },
      {
        "passId": "960",
        "signer": "0xbb46c6e4d8a59520fbb11638c2d1228cc65f5a6c"
      },
      {
        "passId": "961",
        "signer": "0xbc10a3ae909b1b94f4c3e39607ad19d386dce32a"
      },
      {
        "passId": "962",
        "signer": "0xbd12aa424c207e90b66402c1f0aec357e8b1ded7"
      },
      {
        "passId": "963",
        "signer": "0xbe5be517537e53f09e88bcdf61da238477dca226"
      },
      {
        "passId": "964",
        "signer": "0xbeeef66749b64afe43bbc9475635eb510cfe4922"
      },
      {
        "passId": "965",
        "signer": "0xbf1ed1ea654ad49472daedc21a31c8d28e6bb790"
      },
      {
        "passId": "966",
        "signer": "0xbf27384febdc054bbd7e388761919e7d98f7da0c"
      },
      {
        "passId": "967",
        "signer": "0xbfdb50dc66c8df9fd9688d8fe5a0c34126427645"
      },
      {
        "passId": "968",
        "signer": "0xc09d3402515676b81a2f768c365146ea3faa5605"
      },
      {
        "passId": "969",
        "signer": "0xc0e5e14bdecd9ed6954a9e14c74e97cebd91bb94"
      },
      {
        "passId": "970",
        "signer": "0xc169699a825066f2f07e0b29c4082094b32a3f3e"
      },
      {
        "passId": "971",
        "signer": "0xc3a67c1437353bdc9c53060235a34018711de0cf"
      },
      {
        "passId": "972",
        "signer": "0xc42c694d0215b27bce1a871a4a2ad38cf0120a82"
      },
      {
        "passId": "973",
        "signer": "0xc555347d2b369b074be94fe6f7ae9ab43966b884"
      },
      {
        "passId": "974",
        "signer": "0xc665a60f22dda926b920deb8ffac0ef9d8a17460"
      },
      {
        "passId": "975",
        "signer": "0xc8286a9bf1f9bf8f3006fa014915c78b7e75111c"
      },
      {
        "passId": "976",
        "signer": "0xc8bace82793074fad3337424bdb84e306b2f8a44"
      },
      {
        "passId": "977",
        "signer": "0xc9a009bed9ed8a32499e18c20f7cd12132c8d6cb"
      },
      {
        "passId": "978",
        "signer": "0xca11d10ceb098f597a0cab28117fc3465991a63c"
      },
      {
        "passId": "979",
        "signer": "0xcbd2f544073eb35b59a8eb19194a222a5361cd74"
      },
      {
        "passId": "980",
        "signer": "0xcda685c8444f659ac3fe778f8d143aabdf1a21ab"
      },
      {
        "passId": "981",
        "signer": "0xcea78aaa93e917fb5e1802901db2b20aa4411b44"
      },
      {
        "passId": "982",
        "signer": "0xcef871b113d2bb5d3fa5dc96d2d288dd38082aae"
      },
      {
        "passId": "983",
        "signer": "0xcf680fb77c12e2aa2dec82f3ae0c0e527f549fe2"
      },
      {
        "passId": "984",
        "signer": "0xd1eddfcc4596cc8bd0bd7495beab9b979fc50336"
      },
      {
        "passId": "985",
        "signer": "0xd3e64b9dea13e4840a0da20965bd0ca37d05a12a"
      },
      {
        "passId": "986",
        "signer": "0xd651e2c626ee210fc38676124d5007ac822ad749"
      },
      {
        "passId": "987",
        "signer": "0xd657860fc512ec2250a7385a353f599e3276fddb"
      },
      {
        "passId": "988",
        "signer": "0xd6e02c13a6cc133c9d019495414667ea7bee05cc"
      },
      {
        "passId": "989",
        "signer": "0xdc190d7cea8e8bf0b381617062200c10cfff0a91"
      },
      {
        "passId": "990",
        "signer": "0xdd6c81d6d587e2d49eaadffb4ce380564046002a"
      },
      {
        "passId": "991",
        "signer": "0xddb92a96054132801cae3943b2f966fc2c308ac8"
      },
      {
        "passId": "992",
        "signer": "0xdde3ca351d85a4b4cc6aff8d42c0840959859053"
      },
      {
        "passId": "993",
        "signer": "0xe00a3ab72b29eb4ac2695221f62cdf872cb5d483"
      },
      {
        "passId": "994",
        "signer": "0xe120ed22a0cd12d5de6122aa7d5b6d93ac218b49"
      },
      {
        "passId": "995",
        "signer": "0xe20adb03a470b5573bf572dd918e052d0d17866e"
      },
      {
        "passId": "996",
        "signer": "0xe363c2fba75cbd27487b17430e1efbdd2add374e"
      },
      {
        "passId": "997",
        "signer": "0xe5a3d77d7788a83f3549dd7f08fc2aced7e262d2"
      },
      {
        "passId": "998",
        "signer": "0xe66e1e9e37e4e148b21eb22001431818e980d060"
      },
      {
        "passId": "999",
        "signer": "0xe7bd51dc30d4bdc9fddd42ea7c0a283590c9d416"
      },
      {
        "passId": "1000",
        "signer": "0xeb42cd8a1fe1ff556960a9a03ca29aa13f8aa838"
      },
      {
        "passId": "1001",
        "signer": "0xed0f30677c760ea8f0bff70c76eafc79d5f7c3c8"
      },
      {
        "passId": "1002",
        "signer": "0xeddd55a234240042695d7430bf0a09b9038a26ad"
      },
      {
        "passId": "1003",
        "signer": "0xee4d308cc1cde3dd0adcb5a2c85edff22db64918"
      },
      {
        "passId": "1004",
        "signer": "0xee9439a12a7c2a9b6600ca8a498620580d2f116e"
      },
      {
        "passId": "1005",
        "signer": "0xeeaf61935c0c48f8f8cc28c381683d7fa2f75e1c"
      },
      {
        "passId": "1006",
        "signer": "0xef1271ae97bc1a1b356ab697e9ed0d1d4e05fcda"
      },
      {
        "passId": "1007",
        "signer": "0xf19bc58f747d6ea11959bf2a0fa81e53285546ac"
      },
      {
        "passId": "1008",
        "signer": "0xf1e1c701b49b1dc2405a9e8ef40f9f88802b80fa"
      },
      {
        "passId": "1009",
        "signer": "0xf2b15320db6992ba49a7563e50e888c20edcbe3c"
      },
      {
        "passId": "1010",
        "signer": "0xf341c3abb49feb96b4822e68227b54c6fb9f6318"
      },
      {
        "passId": "1011",
        "signer": "0xf3493f6812b1f22b40f8539db2510e13ac251f96"
      },
      {
        "passId": "1012",
        "signer": "0xf3b1b6e83be4d55695f1d30ac3d307d9d5ca98ff"
      },
      {
        "passId": "1013",
        "signer": "0xf464d1a37d8ef9449722f44a4eeb715c0e0acdb3"
      },
      {
        "passId": "1014",
        "signer": "0xf6910d47fbb1f5518d60c721d4189936ecd5a1b6"
      },
      {
        "passId": "1015",
        "signer": "0xf73c935815908ad9a056fc50269f95d8ba032e9d"
      },
      {
        "passId": "1016",
        "signer": "0xf78cd306b23031de9e739a5bcde61764e82ad5ef"
      },
      {
        "passId": "1017",
        "signer": "0xf942040710bedf7220beb24b220631c2255e87f1"
      },
      {
        "passId": "1018",
        "signer": "0xf943e1d2db38db468f66a79b08ec23f8c4375ce3"
      },
      {
        "passId": "1019",
        "signer": "0xfa46dedf812c5803b1e2cea10eef3f27dafeca56"
      },
      {
        "passId": "1020",
        "signer": "0xfa9f104f338846b38b083c9e567ff6bbe43ab5f7"
      },
      {
        "passId": "1021",
        "signer": "0xfd12799b9fb97dc61d9ad7ad4ffba5624004bc62"
      },
      {
        "passId": "1022",
        "signer": "0xfe1e7dc61721f34a25c9eb4dc1a1a8f352c923ef"
      },
      {
        "passId": "1023",
        "signer": "0xfffff6e70842330948ca47254f2be673b1cb0db7"
      }
    ],
    "publicSaleTimestamp": 1638024619,
    "deploymentCost": 0,
    "percentageForCreator": 2446,
    "price": "100000000000000000"
  },
  "solcInputHash": "c2d8f5d5aa701e4398409589817095a9",
  "bytecode": "0x6101806040523480156200001257600080fd5b50604051620020303803806200203083398101604081905262000035916200008d565b6001600160a01b0398891660805292881660a05260c09190915290951660e052610100939093526101209190915261014052610160526000556200011d565b6001600160a01b03811681146200008a57600080fd5b50565b60008060008060008060008060006101208a8c031215620000ad57600080fd5b8951620000ba8162000074565b8099505060208a0151975060408a0151965060608a0151955060808a0151945060a08a0151620000ea8162000074565b60c08b015160e08c01519195509350620001048162000074565b809250506101008a015190509295985092959850929598565b60805160a05160c05160e05161010051610120516101405161016051611e36620001fa600039600081816101b7015281816103e80152610dfd015260008181610196015281816103c50152818161045301528181610588015281816106960152610f7c015260008181610175015281816103a20152610fa40152600081816101540152818161037f0152610fca015260006114da0152600081816113e801526114160152600081816107440152818161097401526114620152600081816102b0015281816108fc01528181610b8401526110e50152611e366000f3fe6080604052600436106100b15760003560e01c8063990b0f6011610069578063ca9dca041161004e578063ca9dca0414610243578063d93459b614610263578063e957a3811461028357600080fd5b8063990b0f60146102105780639c2055131461023057600080fd5b80632558e9331161009a5780632558e933146101225780636d048d53146101375780637361a72e146101fd57600080fd5b80630ccc797f146100b65780632228adcc146100f2575b600080fd5b3480156100c257600080fd5b506100d66100d13660046116ea565b6102a3565b6040516100e99796959493929190611746565b60405180910390f35b3480156100fe57600080fd5b5061011261010d3660046117cb565b610427565b60405190151581526020016100e9565b610135610130366004611908565b610451565b005b34801561014357600080fd5b506101dd610152366004611a0a565b7f00000000000000000000000000000000000000000000000000000000000000007f00000000000000000000000000000000000000000000000000000000000000007f00000000000000000000000000000000000000000000000000000000000000007f00000000000000000000000000000000000000000000000000000000000000009193509193565b6040805194855260208501939093529183015260608201526080016100e9565b61013561020b366004611a27565b610586565b34801561021c57600080fd5b5061011261022b3660046117cb565b610649565b61013561023e366004611a91565b610694565b34801561024f57600080fd5b5061013561025e366004611a91565b61072c565b34801561026f57600080fd5b5061013561027e366004611ac8565b61095c565b34801561028f57600080fd5b5061011261029e3660046117cb565b610bf4565b60606000806000806000807f000000000000000000000000000000000000000000000000000000000000000073ffffffffffffffffffffffffffffffffffffffff1663a0554c268a8a6040518363ffffffff1660e01b8152600401610309929190611b1f565b60006040518083038186803b15801561032157600080fd5b505afa158015610335573d6000803e3d6000fd5b505050506040513d6000823e601f3d9081017fffffffffffffffffffffffffffffffffffffffffffffffffffffffffffffffe016820160405261037b9190810190611b74565b96507f000000000000000000000000000000000000000000000000000000000000000095507f000000000000000000000000000000000000000000000000000000000000000094507f000000000000000000000000000000000000000000000000000000000000000093507f000000000000000000000000000000000000000000000000000000000000000092506104128a610649565b91506000549050949950949992975094509450565b6000806104396010600685901c611c3d565b9050806007148061044a5750806008145b9392505050565b7f00000000000000000000000000000000000000000000000000000000000000004210156105755761048283610c12565b60006104ed8385876040516020016104c992919091825260601b7fffffffffffffffffffffffffffffffffffffffff00000000000000000000000016602082015260340190565b60405160208183030381529060405280519060200120610cd090919063ffffffff16565b905060006104fb8583610cf4565b90506105078382610d55565b610572576040517f08c379a000000000000000000000000000000000000000000000000000000000815260206004820152600d60248201527f494e56414c49445f50524f4f460000000000000000000000000000000000000060448201526064015b60405180910390fd5b50505b61057f8585610e22565b5050505050565b7f0000000000000000000000000000000000000000000000000000000000000000421015610639576105b782610c12565b3360006105c48483610cf4565b90506105d08382610d55565b610636576040517f08c379a000000000000000000000000000000000000000000000000000000000815260206004820152600d60248201527f494e56414c49445f50524f4f46000000000000000000000000000000000000006044820152606401610569565b50505b6106438484610e22565b50505050565b60008061065861010084611c80565b9050600061066882610100611c94565b6106729085611cd1565b60009283526001602081905260409093205492901b9182169091149392505050565b7f000000000000000000000000000000000000000000000000000000000000000042101561071e576040517f08c379a000000000000000000000000000000000000000000000000000000000815260206004820152601460248201527f524551554952455f504153535f4f525f574149540000000000000000000000006044820152606401610569565b6107288282610e22565b5050565b3373ffffffffffffffffffffffffffffffffffffffff7f000000000000000000000000000000000000000000000000000000000000000016146107cb576040517f08c379a000000000000000000000000000000000000000000000000000000000815260206004820152600e60248201527f4e4f545f415554484f52495a45440000000000000000000000000000000000006044820152606401610569565b6102408261ffff161061083a576040517f08c379a000000000000000000000000000000000000000000000000000000000815260206004820152600d60248201527f494e56414c49445f534f554e44000000000000000000000000000000000000006044820152606401610569565b6108478261ffff16610427565b6108ad576040517f08c379a000000000000000000000000000000000000000000000000000000000815260206004820152600c60248201527f4e4f545f524553455256454400000000000000000000000000000000000000006044820152606401610569565b6040517f9c20551300000000000000000000000000000000000000000000000000000000815261ffff8316600482015273ffffffffffffffffffffffffffffffffffffffff82811660248301527f00000000000000000000000000000000000000000000000000000000000000001690639c20551390604401600060405180830381600087803b15801561094057600080fd5b505af1158015610954573d6000803e3d6000fd5b505050505050565b3373ffffffffffffffffffffffffffffffffffffffff7f000000000000000000000000000000000000000000000000000000000000000016146109fb576040517f08c379a000000000000000000000000000000000000000000000000000000000815260206004820152600e60248201527f4e4f545f415554484f52495a45440000000000000000000000000000000000006044820152606401610569565b60005b82811015610b4657610240848483818110610a1b57610a1b611ce8565b9050602002016020810190610a309190611d17565b61ffff1610610a9b576040517f08c379a000000000000000000000000000000000000000000000000000000000815260206004820152600d60248201527f494e56414c49445f534f554e44000000000000000000000000000000000000006044820152606401610569565b610ace848483818110610ab057610ab0611ce8565b9050602002016020810190610ac59190611d17565b61ffff16610427565b610b34576040517f08c379a000000000000000000000000000000000000000000000000000000000815260206004820152600c60248201527f4e4f545f524553455256454400000000000000000000000000000000000000006044820152606401610569565b80610b3e81611d32565b9150506109fe565b506040517fe2ea128800000000000000000000000000000000000000000000000000000000815273ffffffffffffffffffffffffffffffffffffffff7f0000000000000000000000000000000000000000000000000000000000000000169063e2ea128890610bbd90869086908690600401611d6b565b600060405180830381600087803b158015610bd757600080fd5b505af1158015610beb573d6000803e3d6000fd5b50505050505050565b600080610c066010600685901c611c3d565b60005410159392505050565b6000610c2061010083611c80565b90506000610c3082610100611c94565b610c3a9084611cd1565b600083815260016020819052604090912054911b915080821615610cba576040517f08c379a000000000000000000000000000000000000000000000000000000000815260206004820152601160248201527f504153535f414c52454144595f555345440000000000000000000000000000006044820152606401610569565b6000928352600160205260409092209117905550565b6000806000610cdf8585611114565b91509150610cec81611184565b509392505050565b60008282604051602001610d3792919091825260601b7fffffffffffffffffffffffffffffffffffffffff00000000000000000000000016602082015260340190565b60405160208183030381529060405280519060200120905092915050565b6000805b8351811015610df9576000848281518110610d7657610d76611ce8565b6020026020010151905080841015610db9576040805160208101869052908101829052606001604051602081830303815290604052805190602001209350610de6565b60408051602081018390529081018590526060016040516020818303038152906040528051906020012093505b5080610df181611d32565b915050610d59565b50507f000000000000000000000000000000000000000000000000000000000000000014919050565b6102408261ffff1610610e91576040517f08c379a000000000000000000000000000000000000000000000000000000000815260206004820152600d60248201527f494e56414c49445f534f554e44000000000000000000000000000000000000006044820152606401610569565b610e9e8261ffff16610bf4565b610f04576040517f08c379a000000000000000000000000000000000000000000000000000000000815260206004820152601b60248201527f494e535455524d454e545f4e4f545f5945545f464f525f53414c4500000000006044820152606401610569565b610f118261ffff16610427565b15610f78576040517f08c379a000000000000000000000000000000000000000000000000000000000815260206004820152600860248201527f52455345525645440000000000000000000000000000000000000000000000006044820152606401610569565b60007f0000000000000000000000000000000000000000000000000000000000000000421015610fc8577f0000000000000000000000000000000000000000000000000000000000000000610fea565b7f00000000000000000000000000000000000000000000000000000000000000005b905080341015611056576040517f08c379a000000000000000000000000000000000000000000000000000000000815260206004820152600a60248201527f4e4f545f454e4f554748000000000000000000000000000000000000000000006044820152606401610569565b336108fc6110648334611cd1565b6040518115909202916000818181858888f1935050505015801561108c573d6000803e3d6000fd5b50611096816113e0565b6040517f9c20551300000000000000000000000000000000000000000000000000000000815261ffff8416600482015273ffffffffffffffffffffffffffffffffffffffff83811660248301527f00000000000000000000000000000000000000000000000000000000000000001690639c20551390604401610bbd565b60008082516041141561114b5760208301516040840151606085015160001a61113f87828585611523565b9450945050505061117d565b825160401415611175576020830151604084015161116a86838361163b565b93509350505061117d565b506000905060025b9250929050565b600081600481111561119857611198611dd1565b14156111a15750565b60018160048111156111b5576111b5611dd1565b141561121d576040517f08c379a000000000000000000000000000000000000000000000000000000000815260206004820152601860248201527f45434453413a20696e76616c6964207369676e617475726500000000000000006044820152606401610569565b600281600481111561123157611231611dd1565b1415611299576040517f08c379a000000000000000000000000000000000000000000000000000000000815260206004820152601f60248201527f45434453413a20696e76616c6964207369676e6174757265206c656e677468006044820152606401610569565b60038160048111156112ad576112ad611dd1565b141561133b576040517f08c379a000000000000000000000000000000000000000000000000000000000815260206004820152602260248201527f45434453413a20696e76616c6964207369676e6174757265202773272076616c60448201527f75650000000000000000000000000000000000000000000000000000000000006064820152608401610569565b600481600481111561134f5761134f611dd1565b14156113dd576040517f08c379a000000000000000000000000000000000000000000000000000000000815260206004820152602260248201527f45434453413a20696e76616c6964207369676e6174757265202776272076616c60448201527f75650000000000000000000000000000000000000000000000000000000000006064820152608401610569565b50565b80156113dd577f0000000000000000000000000000000000000000000000000000000000000000156114ba57600061271061143b7f000000000000000000000000000000000000000000000000000000000000000084611c94565b6114459190611c80565b60405190915073ffffffffffffffffffffffffffffffffffffffff7f0000000000000000000000000000000000000000000000000000000000000000169082156108fc029083906000818181858888f193505050501580156114ab573d6000803e3d6000fd5b506114b68183611cd1565b9150505b80156113dd5760405173ffffffffffffffffffffffffffffffffffffffff7f0000000000000000000000000000000000000000000000000000000000000000169082156108fc029083906000818181858888f19350505050158015610728573d6000803e3d6000fd5b6000807f7fffffffffffffffffffffffffffffff5d576e7357a4501ddfe92f46681b20a083111561155a5750600090506003611632565b8460ff16601b1415801561157257508460ff16601c14155b156115835750600090506004611632565b6040805160008082526020820180845289905260ff881692820192909252606081018690526080810185905260019060a0016020604051602081039080840390855afa1580156115d7573d6000803e3d6000fd5b50506040517fffffffffffffffffffffffffffffffffffffffffffffffffffffffffffffffe0015191505073ffffffffffffffffffffffffffffffffffffffff811661162b57600060019250925050611632565b9150600090505b94509492505050565b6000807f7fffffffffffffffffffffffffffffffffffffffffffffffffffffffffffffff831660ff84901c601b0161167587828885611523565b935093505050935093915050565b73ffffffffffffffffffffffffffffffffffffffff811681146113dd57600080fd5b60008083601f8401126116b757600080fd5b50813567ffffffffffffffff8111156116cf57600080fd5b6020830191508360208260051b850101111561117d57600080fd5b6000806000806060858703121561170057600080fd5b843561170b81611683565b935060208501359250604085013567ffffffffffffffff81111561172e57600080fd5b61173a878288016116a5565b95989497509550505050565b60e08082528851908201819052600090602090610100840190828c01845b8281101561179657815173ffffffffffffffffffffffffffffffffffffffff1684529284019290840190600101611764565b5050509083019890985250604081019590955260608501939093526080840191909152151560a083015260c090910152919050565b6000602082840312156117dd57600080fd5b5035919050565b803561ffff811681146117f657600080fd5b919050565b7f4e487b7100000000000000000000000000000000000000000000000000000000600052604160045260246000fd5b604051601f82017fffffffffffffffffffffffffffffffffffffffffffffffffffffffffffffffe016810167ffffffffffffffff81118282101715611871576118716117fb565b604052919050565b600067ffffffffffffffff821115611893576118936117fb565b5060051b60200190565b600082601f8301126118ae57600080fd5b813560206118c36118be83611879565b61182a565b82815260059290921b840181019181810190868411156118e257600080fd5b8286015b848110156118fd57803583529183019183016118e6565b509695505050505050565b600080600080600060a0868803121561192057600080fd5b611929866117e4565b945060208087013561193a81611683565b945060408701359350606087013567ffffffffffffffff8082111561195e57600080fd5b818901915089601f83011261197257600080fd5b813581811115611984576119846117fb565b6119b4847fffffffffffffffffffffffffffffffffffffffffffffffffffffffffffffffe0601f8401160161182a565b8181528b858386010111156119c857600080fd5b8185850186830137600091810190940152919350608088013591808311156119ef57600080fd5b50506119fd8882890161189d565b9150509295509295909350565b600060208284031215611a1c57600080fd5b813561044a81611683565b60008060008060808587031215611a3d57600080fd5b611a46856117e4565b93506020850135611a5681611683565b925060408501359150606085013567ffffffffffffffff811115611a7957600080fd5b611a858782880161189d565b91505092959194509250565b60008060408385031215611aa457600080fd5b611aad836117e4565b91506020830135611abd81611683565b809150509250929050565b600080600060408486031215611add57600080fd5b833567ffffffffffffffff811115611af457600080fd5b611b00868287016116a5565b9094509250506020840135611b1481611683565b809150509250925092565b6020815281602082015260007f07ffffffffffffffffffffffffffffffffffffffffffffffffffffffffffffff831115611b5857600080fd5b8260051b80856040850137600092016040019182525092915050565b60006020808385031215611b8757600080fd5b825167ffffffffffffffff811115611b9e57600080fd5b8301601f81018513611baf57600080fd5b8051611bbd6118be82611879565b81815260059190911b82018301908381019087831115611bdc57600080fd5b928401925b82841015611c03578351611bf481611683565b82529284019290840190611be1565b979650505050505050565b7f4e487b7100000000000000000000000000000000000000000000000000000000600052601260045260246000fd5b600082611c4c57611c4c611c0e565b500690565b7f4e487b7100000000000000000000000000000000000000000000000000000000600052601160045260246000fd5b600082611c8f57611c8f611c0e565b500490565b6000817fffffffffffffffffffffffffffffffffffffffffffffffffffffffffffffffff0483118215151615611ccc57611ccc611c51565b500290565b600082821015611ce357611ce3611c51565b500390565b7f4e487b7100000000000000000000000000000000000000000000000000000000600052603260045260246000fd5b600060208284031215611d2957600080fd5b61044a826117e4565b60007fffffffffffffffffffffffffffffffffffffffffffffffffffffffffffffffff821415611d6457611d64611c51565b5060010190565b6040808252810183905260008460608301825b86811015611da75761ffff611d92846117e4565b16825260209283019290910190600101611d7e565b50809250505073ffffffffffffffffffffffffffffffffffffffff83166020830152949350505050565b7f4e487b7100000000000000000000000000000000000000000000000000000000600052602160045260246000fdfea264697066735822122047332d7899b3c5748739a07f75fb6f2503aabc4953c4ac388f1201a68e847d2664736f6c63430008090033",
  "devdoc": {
    "kind": "dev",
    "methods": {},
    "version": 1
  },
  "userdoc": {
    "kind": "user",
    "methods": {},
    "version": 1
  },
  "storageLayout": {
    "storage": [
      {
        "astId": 10446,
        "contract": "src/bleeps/BleepsFixedPriceSale.sol:BleepsFixedPriceSale",
        "label": "_uptoInstr",
        "offset": 0,
        "slot": "0",
        "type": "t_uint256"
      },
      {
        "astId": 10450,
        "contract": "src/bleeps/BleepsFixedPriceSale.sol:BleepsFixedPriceSale",
        "label": "_passUsed",
        "offset": 0,
        "slot": "1",
        "type": "t_mapping(t_uint256,t_uint256)"
      }
    ],
    "types": {
      "t_mapping(t_uint256,t_uint256)": {
        "encoding": "mapping",
        "key": "t_uint256",
        "label": "mapping(uint256 => uint256)",
        "numberOfBytes": "32",
        "value": "t_uint256"
      },
      "t_uint256": {
        "encoding": "inplace",
        "label": "uint256",
        "numberOfBytes": "32"
      }
    }
  }
}