{
  "address": "0x0eB2a866f7B873d17588aF1960c4a9BAdce93B1D",
  "abi": [
    {
      "inputs": [
        {
          "internalType": "uint256",
          "name": "initPrice",
          "type": "uint256"
        },
        {
          "internalType": "uint256",
          "name": "delay",
          "type": "uint256"
        },
        {
          "internalType": "uint256",
          "name": "lastPrice",
          "type": "uint256"
        },
        {
          "internalType": "uint256",
          "name": "startTime",
          "type": "uint256"
        },
        {
          "internalType": "contract IERC721",
          "name": "mandalas",
          "type": "address"
        },
        {
          "internalType": "address",
          "name": "maintainer",
          "type": "address"
        },
        {
          "internalType": "address payable",
          "name": "recipient",
          "type": "address"
        },
        {
          "internalType": "contract BleepsTokenURI",
          "name": "tokenURIContract",
          "type": "address"
        }
      ],
      "stateMutability": "nonpayable",
      "type": "constructor"
    },
    {
      "anonymous": false,
      "inputs": [
        {
          "indexed": true,
          "internalType": "address",
          "name": "owner",
          "type": "address"
        },
        {
          "indexed": true,
          "internalType": "address",
          "name": "approved",
          "type": "address"
        },
        {
          "indexed": true,
          "internalType": "uint256",
          "name": "tokenId",
          "type": "uint256"
        }
      ],
      "name": "Approval",
      "type": "event"
    },
    {
      "anonymous": false,
      "inputs": [
        {
          "indexed": true,
          "internalType": "address",
          "name": "owner",
          "type": "address"
        },
        {
          "indexed": true,
          "internalType": "address",
          "name": "operator",
          "type": "address"
        },
        {
          "indexed": false,
          "internalType": "bool",
          "name": "approved",
          "type": "bool"
        }
      ],
      "name": "ApprovalForAll",
      "type": "event"
    },
    {
      "anonymous": false,
      "inputs": [
        {
          "indexed": true,
          "internalType": "address",
          "name": "delegator",
          "type": "address"
        },
        {
          "indexed": true,
          "internalType": "address",
          "name": "fromDelegate",
          "type": "address"
        },
        {
          "indexed": true,
          "internalType": "address",
          "name": "toDelegate",
          "type": "address"
        }
      ],
      "name": "DelegateChanged",
      "type": "event"
    },
    {
      "anonymous": false,
      "inputs": [
        {
          "indexed": true,
          "internalType": "address",
          "name": "delegate",
          "type": "address"
        },
        {
          "indexed": false,
          "internalType": "uint256",
          "name": "previousBalance",
          "type": "uint256"
        },
        {
          "indexed": false,
          "internalType": "uint256",
          "name": "newBalance",
          "type": "uint256"
        }
      ],
      "name": "DelegateVotesChanged",
      "type": "event"
    },
    {
      "anonymous": false,
      "inputs": [
        {
          "indexed": true,
          "internalType": "address",
          "name": "from",
          "type": "address"
        },
        {
          "indexed": true,
          "internalType": "address",
          "name": "to",
          "type": "address"
        },
        {
          "indexed": true,
          "internalType": "uint256",
          "name": "tokenId",
          "type": "uint256"
        }
      ],
      "name": "Transfer",
      "type": "event"
    },
    {
      "inputs": [],
      "name": "DELEGATION_TYPEHASH",
      "outputs": [
        {
          "internalType": "bytes32",
          "name": "",
          "type": "bytes32"
        }
      ],
      "stateMutability": "view",
      "type": "function"
    },
    {
      "inputs": [],
      "name": "DOMAIN_TYPEHASH",
      "outputs": [
        {
          "internalType": "bytes32",
          "name": "",
          "type": "bytes32"
        }
      ],
      "stateMutability": "view",
      "type": "function"
    },
    {
      "inputs": [
        {
          "internalType": "address",
          "name": "to",
          "type": "address"
        },
        {
          "internalType": "uint256",
          "name": "tokenId",
          "type": "uint256"
        }
      ],
      "name": "approve",
      "outputs": [],
      "stateMutability": "nonpayable",
      "type": "function"
    },
    {
      "inputs": [
        {
          "internalType": "address",
          "name": "owner",
          "type": "address"
        }
      ],
      "name": "balanceOf",
      "outputs": [
        {
          "internalType": "uint256",
          "name": "",
          "type": "uint256"
        }
      ],
      "stateMutability": "view",
      "type": "function"
    },
    {
      "inputs": [
        {
          "internalType": "address",
          "name": "",
          "type": "address"
        },
        {
          "internalType": "uint32",
          "name": "",
          "type": "uint32"
        }
      ],
      "name": "checkpoints",
      "outputs": [
        {
          "internalType": "uint32",
          "name": "fromBlock",
          "type": "uint32"
        },
        {
          "internalType": "uint96",
          "name": "votes",
          "type": "uint96"
        }
      ],
      "stateMutability": "view",
      "type": "function"
    },
    {
      "inputs": [],
      "name": "decimals",
      "outputs": [
        {
          "internalType": "uint8",
          "name": "",
          "type": "uint8"
        }
      ],
      "stateMutability": "view",
      "type": "function"
    },
    {
      "inputs": [
        {
          "internalType": "address",
          "name": "delegatee",
          "type": "address"
        }
      ],
      "name": "delegate",
      "outputs": [],
      "stateMutability": "nonpayable",
      "type": "function"
    },
    {
      "inputs": [
        {
          "internalType": "address",
          "name": "delegatee",
          "type": "address"
        },
        {
          "internalType": "uint256",
          "name": "nonce",
          "type": "uint256"
        },
        {
          "internalType": "uint256",
          "name": "expiry",
          "type": "uint256"
        },
        {
          "internalType": "uint8",
          "name": "v",
          "type": "uint8"
        },
        {
          "internalType": "bytes32",
          "name": "r",
          "type": "bytes32"
        },
        {
          "internalType": "bytes32",
          "name": "s",
          "type": "bytes32"
        }
      ],
      "name": "delegateBySig",
      "outputs": [],
      "stateMutability": "nonpayable",
      "type": "function"
    },
    {
      "inputs": [
        {
          "internalType": "address",
          "name": "delegator",
          "type": "address"
        }
      ],
      "name": "delegates",
      "outputs": [
        {
          "internalType": "address",
          "name": "",
          "type": "address"
        }
      ],
      "stateMutability": "view",
      "type": "function"
    },
    {
      "inputs": [
        {
          "internalType": "uint256",
          "name": "tokenId",
          "type": "uint256"
        }
      ],
      "name": "getApproved",
      "outputs": [
        {
          "internalType": "address",
          "name": "",
          "type": "address"
        }
      ],
      "stateMutability": "view",
      "type": "function"
    },
    {
      "inputs": [
        {
          "internalType": "address",
          "name": "account",
          "type": "address"
        }
      ],
      "name": "getCurrentVotes",
      "outputs": [
        {
          "internalType": "uint96",
          "name": "",
          "type": "uint96"
        }
      ],
      "stateMutability": "view",
      "type": "function"
    },
    {
      "inputs": [
        {
          "internalType": "address",
          "name": "account",
          "type": "address"
        },
        {
          "internalType": "uint256",
          "name": "blockNumber",
          "type": "uint256"
        }
      ],
      "name": "getPriorVotes",
      "outputs": [
        {
          "internalType": "uint96",
          "name": "",
          "type": "uint96"
        }
      ],
      "stateMutability": "view",
      "type": "function"
    },
    {
      "inputs": [
        {
          "internalType": "address",
          "name": "owner",
          "type": "address"
        },
        {
          "internalType": "address",
          "name": "operator",
          "type": "address"
        }
      ],
      "name": "isApprovedForAll",
      "outputs": [
        {
          "internalType": "bool",
          "name": "",
          "type": "bool"
        }
      ],
      "stateMutability": "view",
      "type": "function"
    },
    {
      "inputs": [
        {
          "internalType": "uint16",
          "name": "id",
          "type": "uint16"
        },
        {
          "internalType": "address",
          "name": "to",
          "type": "address"
        }
      ],
      "name": "mint",
      "outputs": [],
      "stateMutability": "payable",
      "type": "function"
    },
    {
      "inputs": [],
      "name": "name",
      "outputs": [
        {
          "internalType": "string",
          "name": "",
          "type": "string"
        }
      ],
      "stateMutability": "view",
      "type": "function"
    },
    {
      "inputs": [
        {
          "internalType": "address",
          "name": "",
          "type": "address"
        }
      ],
      "name": "nonces",
      "outputs": [
        {
          "internalType": "uint256",
          "name": "",
          "type": "uint256"
        }
      ],
      "stateMutability": "view",
      "type": "function"
    },
    {
      "inputs": [
        {
          "internalType": "address",
          "name": "",
          "type": "address"
        }
      ],
      "name": "numCheckpoints",
      "outputs": [
        {
          "internalType": "uint32",
          "name": "",
          "type": "uint32"
        }
      ],
      "stateMutability": "view",
      "type": "function"
    },
    {
      "inputs": [
        {
          "internalType": "uint256",
          "name": "tokenId",
          "type": "uint256"
        }
      ],
      "name": "ownerOf",
      "outputs": [
        {
          "internalType": "address",
          "name": "",
          "type": "address"
        }
      ],
      "stateMutability": "view",
      "type": "function"
    },
    {
      "inputs": [
        {
          "internalType": "uint256[]",
          "name": "ids",
          "type": "uint256[]"
        }
      ],
      "name": "ownersAndPriceInfo",
      "outputs": [
        {
          "internalType": "address[]",
          "name": "addresses",
          "type": "address[]"
        },
        {
          "internalType": "uint256",
          "name": "startTime",
          "type": "uint256"
        },
        {
          "internalType": "uint256",
          "name": "initPrice",
          "type": "uint256"
        },
        {
          "internalType": "uint256",
          "name": "delay",
          "type": "uint256"
        },
        {
          "internalType": "uint256",
          "name": "lastPrice",
          "type": "uint256"
        }
      ],
      "stateMutability": "view",
      "type": "function"
    },
    {
      "inputs": [],
      "name": "priceInfo",
      "outputs": [
        {
          "internalType": "uint256",
          "name": "startTime",
          "type": "uint256"
        },
        {
          "internalType": "uint256",
          "name": "initPrice",
          "type": "uint256"
        },
        {
          "internalType": "uint256",
          "name": "delay",
          "type": "uint256"
        },
        {
          "internalType": "uint256",
          "name": "lastPrice",
          "type": "uint256"
        }
      ],
      "stateMutability": "view",
      "type": "function"
    },
    {
      "inputs": [
        {
          "internalType": "address",
          "name": "from",
          "type": "address"
        },
        {
          "internalType": "address",
          "name": "to",
          "type": "address"
        },
        {
          "internalType": "uint256",
          "name": "tokenId",
          "type": "uint256"
        }
      ],
      "name": "safeTransferFrom",
      "outputs": [],
      "stateMutability": "nonpayable",
      "type": "function"
    },
    {
      "inputs": [
        {
          "internalType": "address",
          "name": "from",
          "type": "address"
        },
        {
          "internalType": "address",
          "name": "to",
          "type": "address"
        },
        {
          "internalType": "uint256",
          "name": "tokenId",
          "type": "uint256"
        },
        {
          "internalType": "bytes",
          "name": "_data",
          "type": "bytes"
        }
      ],
      "name": "safeTransferFrom",
      "outputs": [],
      "stateMutability": "nonpayable",
      "type": "function"
    },
    {
      "inputs": [
        {
          "internalType": "address",
          "name": "operator",
          "type": "address"
        },
        {
          "internalType": "bool",
          "name": "approved",
          "type": "bool"
        }
      ],
      "name": "setApprovalForAll",
      "outputs": [],
      "stateMutability": "nonpayable",
      "type": "function"
    },
    {
      "inputs": [
        {
          "internalType": "address",
          "name": "newMaintainer",
          "type": "address"
        }
      ],
      "name": "setMaintainer",
      "outputs": [],
      "stateMutability": "nonpayable",
      "type": "function"
    },
    {
      "inputs": [
        {
          "internalType": "address payable",
          "name": "newRecipient",
          "type": "address"
        }
      ],
      "name": "setRecipient",
      "outputs": [],
      "stateMutability": "nonpayable",
      "type": "function"
    },
    {
      "inputs": [
        {
          "internalType": "contract BleepsTokenURI",
          "name": "newTokenURIContract",
          "type": "address"
        }
      ],
      "name": "setTokenURIContract",
      "outputs": [],
      "stateMutability": "nonpayable",
      "type": "function"
    },
    {
      "inputs": [
        {
          "internalType": "bytes4",
          "name": "interfaceId",
          "type": "bytes4"
        }
      ],
      "name": "supportsInterface",
      "outputs": [
        {
          "internalType": "bool",
          "name": "",
          "type": "bool"
        }
      ],
      "stateMutability": "view",
      "type": "function"
    },
    {
      "inputs": [],
      "name": "symbol",
      "outputs": [
        {
          "internalType": "string",
          "name": "",
          "type": "string"
        }
      ],
      "stateMutability": "view",
      "type": "function"
    },
    {
      "inputs": [
        {
          "internalType": "uint256",
          "name": "index",
          "type": "uint256"
        }
      ],
      "name": "tokenByIndex",
      "outputs": [
        {
          "internalType": "uint256",
          "name": "",
          "type": "uint256"
        }
      ],
      "stateMutability": "view",
      "type": "function"
    },
    {
      "inputs": [
        {
          "internalType": "address",
          "name": "owner",
          "type": "address"
        },
        {
          "internalType": "uint256",
          "name": "index",
          "type": "uint256"
        }
      ],
      "name": "tokenOfOwnerByIndex",
      "outputs": [
        {
          "internalType": "uint256",
          "name": "",
          "type": "uint256"
        }
      ],
      "stateMutability": "view",
      "type": "function"
    },
    {
      "inputs": [
        {
          "internalType": "uint256",
          "name": "id",
          "type": "uint256"
        }
      ],
      "name": "tokenURI",
      "outputs": [
        {
          "internalType": "string",
          "name": "",
          "type": "string"
        }
      ],
      "stateMutability": "view",
      "type": "function"
    },
    {
      "inputs": [],
      "name": "totalSupply",
      "outputs": [
        {
          "internalType": "uint256",
          "name": "",
          "type": "uint256"
        }
      ],
      "stateMutability": "view",
      "type": "function"
    },
    {
      "inputs": [
        {
          "internalType": "address",
          "name": "from",
          "type": "address"
        },
        {
          "internalType": "address",
          "name": "to",
          "type": "address"
        },
        {
          "internalType": "uint256",
          "name": "tokenId",
          "type": "uint256"
        }
      ],
      "name": "transferFrom",
      "outputs": [],
      "stateMutability": "nonpayable",
      "type": "function"
    },
    {
      "inputs": [
        {
          "internalType": "address",
          "name": "delegator",
          "type": "address"
        }
      ],
      "name": "votesToDelegate",
      "outputs": [
        {
          "internalType": "uint96",
          "name": "",
          "type": "uint96"
        }
      ],
      "stateMutability": "view",
      "type": "function"
    }
  ],
  "transactionHash": "0x9c8dfb2d6e4b88a8f41917bf057e9bb911d00f6caa74b40166820192f85d1d6f",
  "args": [
    "2000000000000000000",
    172800,
    "50000000000000000",
    1635056663,
    "0xDaCa87395f3b1Bbc46F3FA187e996E03a5dCc985",
    "0xE53cd71271AcAdbeb0f64d9c8C62bBdDc8cA9e66",
    "0xE53cd71271AcAdbeb0f64d9c8C62bBdDc8cA9e66",
    "0x0A77c7544b7e1f81f522f833b984E3e951294226"
  ],
  "solcInputHash": "596d2ac5c800e142c3a4be152947f99a",
  "bytecode": "0x6101206040523480156200001257600080fd5b50604051620044ba380380620044ba8339810160408190526200003591620001bc565b6040805180820182526006815265426c6565707360d01b6020808301918252835180850190945260058452640424c4545560dc1b9084015281519192916200008091600091620000fd565b50805162000096906001906020840190620000fd565b50505060a09790975260c09590955260e0939093526080919091526001600160a01b0390811661010052600e80549282166001600160a01b0319938416179055600f805493821693831693909317909255601080549390921692169190911790556200028a565b8280546200010b906200024d565b90600052602060002090601f0160209004810192826200012f57600085556200017a565b82601f106200014a57805160ff19168380011785556200017a565b828001600101855582156200017a579182015b828111156200017a5782518255916020019190600101906200015d565b50620001889291506200018c565b5090565b5b808211156200018857600081556001016200018d565b6001600160a01b0381168114620001b957600080fd5b50565b600080600080600080600080610100898b031215620001da57600080fd5b8851975060208901519650604089015195506060890151945060808901516200020381620001a3565b60a08a01519094506200021681620001a3565b60c08a01519093506200022981620001a3565b60e08a01519092506200023c81620001a3565b809150509295985092959890939650565b600181811c908216806200026257607f821691505b602082108114156200028457634e487b7160e01b600052602260045260246000fd5b50919050565b60805160a05160c05160e051610100516141976200032360003960006119080152600081816105fd01528181610e6b015281816117d50152818161184501526118b00152600081816105d501528181610e480152818161181e015261186d0152600081816105af01528181610e250152818161178101526117f601526000818161058c01528181610e0201526117a701526141976000f3fe6080604052600436106102195760003560e01c80636fcfff451161011d578063a22cb465116100b0578063c87b56dd1161007f578063e9580e9111610064578063e9580e9114610745578063e985e9c514610765578063f1127ed8146107bb57600080fd5b8063c87b56dd146106f1578063e7a324dc1461071157600080fd5b8063a22cb46514610671578063b4b5ea5714610691578063b88d4fde146106b1578063c3cda520146106d157600080fd5b806381059f78116100ec57806381059f781461057957806382fc31471461062957806395d89b41146106495780639c2055131461065e57600080fd5b80636fcfff45146104a757806370a08231146104ef578063782d6fe11461050f5780637ecebe001461054c57600080fd5b80632a2c67ff116101b057806342842e0e1161017f578063587cde1e11610164578063587cde1e146104475780635c19a95c146104675780636352211e1461048757600080fd5b806342842e0e146104075780634f6ccce71461042757600080fd5b80632a2c67ff1461036f5780632f745c59146103a0578063313ce567146103c05780633bbed4a0146103e757600080fd5b806313ea5d29116101ec57806313ea5d29146102dc57806318160ddd146102fc57806320606b701461031b57806323b872dd1461034f57600080fd5b806301ffc9a71461021e57806306fdde0314610253578063081812fc14610275578063095ea7b3146102ba575b600080fd5b34801561022a57600080fd5b5061023e6102393660046137f2565b61083a565b60405190151581526020015b60405180910390f35b34801561025f57600080fd5b50610268610896565b60405161024a9190613885565b34801561028157600080fd5b50610295610290366004613898565b610928565b60405173ffffffffffffffffffffffffffffffffffffffff909116815260200161024a565b3480156102c657600080fd5b506102da6102d53660046138d3565b610a07565b005b3480156102e857600080fd5b506102da6102f73660046138ff565b610b94565b34801561030857600080fd5b506008545b60405190815260200161024a565b34801561032757600080fd5b5061030d7f8cad95687ba82c2ce50e74f7b754645e5117c3a5bec8151c0726d5857980a86681565b34801561035b57600080fd5b506102da61036a36600461391c565b610c5c565b34801561037b57600080fd5b5061038f61038a36600461395d565b610cfd565b60405161024a9594939291906139d2565b3480156103ac57600080fd5b5061030d6103bb3660046138d3565b610e91565b3480156103cc57600080fd5b506103d5600081565b60405160ff909116815260200161024a565b3480156103f357600080fd5b506102da6104023660046138ff565b610f60565b34801561041357600080fd5b506102da61042236600461391c565b611028565b34801561043357600080fd5b5061030d610442366004613898565b611043565b34801561045357600080fd5b506102956104623660046138ff565b611101565b34801561047357600080fd5b506102da6104823660046138ff565b611140565b34801561049357600080fd5b506102956104a2366004613898565b61116b565b3480156104b357600080fd5b506104da6104c23660046138ff565b600c6020526000908152604090205463ffffffff1681565b60405163ffffffff909116815260200161024a565b3480156104fb57600080fd5b5061030d61050a3660046138ff565b61121d565b34801561051b57600080fd5b5061052f61052a3660046138d3565b6112eb565b6040516bffffffffffffffffffffffff909116815260200161024a565b34801561055857600080fd5b5061030d6105673660046138ff565b600d6020526000908152604090205481565b34801561058557600080fd5b50604080517f000000000000000000000000000000000000000000000000000000000000000081527f000000000000000000000000000000000000000000000000000000000000000060208201527f0000000000000000000000000000000000000000000000000000000000000000918101919091527f0000000000000000000000000000000000000000000000000000000000000000606082015260800161024a565b34801561063557600080fd5b506102da6106443660046138ff565b611602565b34801561065557600080fd5b506102686116ca565b6102da61066c366004613a47565b6116d9565b34801561067d57600080fd5b506102da61068c366004613a87565b611c63565b34801561069d57600080fd5b5061052f6106ac3660046138ff565b611d7a565b3480156106bd57600080fd5b506102da6106cc366004613b7e565b611e17565b3480156106dd57600080fd5b506102da6106ec366004613c2d565b611ebf565b3480156106fd57600080fd5b5061026861070c366004613898565b6122a2565b34801561071d57600080fd5b5061030d7fe48329057bfd03d55e49b547132e39cffd9c1820ad7b9d4c5307691425d15adf81565b34801561075157600080fd5b5061052f6107603660046138ff565b61236a565b34801561077157600080fd5b5061023e610780366004613c8f565b73ffffffffffffffffffffffffffffffffffffffff918216600090815260056020908152604080832093909416825291909152205460ff1690565b3480156107c757600080fd5b506108116107d6366004613cad565b600b60209081526000928352604080842090915290825290205463ffffffff81169064010000000090046bffffffffffffffffffffffff1682565b6040805163ffffffff90931683526bffffffffffffffffffffffff90911660208301520161024a565b60007fffffffff0000000000000000000000000000000000000000000000000000000082167f780e9d63000000000000000000000000000000000000000000000000000000001480610890575061089082612396565b92915050565b6060600080546108a590613ce4565b80601f01602080910402602001604051908101604052809291908181526020018280546108d190613ce4565b801561091e5780601f106108f35761010080835404028352916020019161091e565b820191906000526020600020905b81548152906001019060200180831161090157829003601f168201915b5050505050905090565b60008181526002602052604081205473ffffffffffffffffffffffffffffffffffffffff166109de576040517f08c379a000000000000000000000000000000000000000000000000000000000815260206004820152602c60248201527f4552433732313a20617070726f76656420717565727920666f72206e6f6e657860448201527f697374656e7420746f6b656e000000000000000000000000000000000000000060648201526084015b60405180910390fd5b5060009081526004602052604090205473ffffffffffffffffffffffffffffffffffffffff1690565b6000610a128261116b565b90508073ffffffffffffffffffffffffffffffffffffffff168373ffffffffffffffffffffffffffffffffffffffff161415610ad0576040517f08c379a000000000000000000000000000000000000000000000000000000000815260206004820152602160248201527f4552433732313a20617070726f76616c20746f2063757272656e74206f776e6560448201527f720000000000000000000000000000000000000000000000000000000000000060648201526084016109d5565b3373ffffffffffffffffffffffffffffffffffffffff82161480610af95750610af98133610780565b610b85576040517f08c379a000000000000000000000000000000000000000000000000000000000815260206004820152603860248201527f4552433732313a20617070726f76652063616c6c6572206973206e6f74206f7760448201527f6e6572206e6f7220617070726f76656420666f7220616c6c000000000000000060648201526084016109d5565b610b8f8383612479565b505050565b600e5473ffffffffffffffffffffffffffffffffffffffff163314610c15576040517f08c379a000000000000000000000000000000000000000000000000000000000815260206004820152600e60248201527f4e4f545f415554484f52495a454400000000000000000000000000000000000060448201526064016109d5565b600e80547fffffffffffffffffffffffff00000000000000000000000000000000000000001673ffffffffffffffffffffffffffffffffffffffff92909216919091179055565b610c663382612519565b610cf2576040517f08c379a000000000000000000000000000000000000000000000000000000000815260206004820152603160248201527f4552433732313a207472616e736665722063616c6c6572206973206e6f74206f60448201527f776e6572206e6f7220617070726f76656400000000000000000000000000000060648201526084016109d5565b610b8f838383612689565b606060008080808567ffffffffffffffff811115610d1d57610d1d613aba565b604051908082528060200260200182016040528015610d46578160200160208202803683370190505b50945060005b86811015610dfd576000888883818110610d6857610d68613d38565b905060200201359050610d9f8160009081526002602052604090205473ffffffffffffffffffffffffffffffffffffffff16151590565b610daa576000610db3565b610db38161116b565b878381518110610dc557610dc5613d38565b73ffffffffffffffffffffffffffffffffffffffff909216602092830291909101909101525080610df581613d96565b915050610d4c565b5093967f000000000000000000000000000000000000000000000000000000000000000096507f000000000000000000000000000000000000000000000000000000000000000095507f000000000000000000000000000000000000000000000000000000000000000094507f00000000000000000000000000000000000000000000000000000000000000009350915050565b6000610e9c8361121d565b8210610f2a576040517f08c379a000000000000000000000000000000000000000000000000000000000815260206004820152602b60248201527f455243373231456e756d657261626c653a206f776e657220696e646578206f7560448201527f74206f6620626f756e647300000000000000000000000000000000000000000060648201526084016109d5565b5073ffffffffffffffffffffffffffffffffffffffff919091166000908152600660209081526040808320938352929052205490565b600e5473ffffffffffffffffffffffffffffffffffffffff163314610fe1576040517f08c379a000000000000000000000000000000000000000000000000000000000815260206004820152600e60248201527f4e4f545f415554484f52495a454400000000000000000000000000000000000060448201526064016109d5565b600f80547fffffffffffffffffffffffff00000000000000000000000000000000000000001673ffffffffffffffffffffffffffffffffffffffff92909216919091179055565b610b8f83838360405180602001604052806000815250611e17565b600061104e60085490565b82106110dc576040517f08c379a000000000000000000000000000000000000000000000000000000000815260206004820152602c60248201527f455243373231456e756d657261626c653a20676c6f62616c20696e646578206f60448201527f7574206f6620626f756e6473000000000000000000000000000000000000000060648201526084016109d5565b600882815481106110ef576110ef613d38565b90600052602060002001549050919050565b73ffffffffffffffffffffffffffffffffffffffff8082166000908152600a602052604081205490911680156111375780611139565b825b9392505050565b73ffffffffffffffffffffffffffffffffffffffff811661115e5750335b61116833826128fb565b50565b60008181526002602052604081205473ffffffffffffffffffffffffffffffffffffffff1680610890576040517f08c379a000000000000000000000000000000000000000000000000000000000815260206004820152602960248201527f4552433732313a206f776e657220717565727920666f72206e6f6e657869737460448201527f656e7420746f6b656e000000000000000000000000000000000000000000000060648201526084016109d5565b600073ffffffffffffffffffffffffffffffffffffffff82166112c2576040517f08c379a000000000000000000000000000000000000000000000000000000000815260206004820152602a60248201527f4552433732313a2062616c616e636520717565727920666f7220746865207a6560448201527f726f20616464726573730000000000000000000000000000000000000000000060648201526084016109d5565b5073ffffffffffffffffffffffffffffffffffffffff1660009081526003602052604090205490565b600043821061137c576040517f08c379a000000000000000000000000000000000000000000000000000000000815260206004820152603760248201527f455243373231436865636b706f696e7461626c653a3a6765745072696f72566f60448201527f7465733a206e6f74207965742064657465726d696e656400000000000000000060648201526084016109d5565b73ffffffffffffffffffffffffffffffffffffffff83166000908152600c602052604090205463ffffffff16806113b7576000915050610890565b73ffffffffffffffffffffffffffffffffffffffff84166000908152600b6020526040812084916113e9600185613dcf565b63ffffffff9081168252602082019290925260400160002054161161146f5773ffffffffffffffffffffffffffffffffffffffff84166000908152600b6020526040812090611439600184613dcf565b63ffffffff16815260208101919091526040016000205464010000000090046bffffffffffffffffffffffff1691506108909050565b73ffffffffffffffffffffffffffffffffffffffff84166000908152600b6020908152604080832083805290915290205463ffffffff168310156114b7576000915050610890565b6000806114c5600184613dcf565b90505b8163ffffffff168163ffffffff1611156115aa57600060026114ea8484613dcf565b6114f49190613e23565b6114fe9083613dcf565b73ffffffffffffffffffffffffffffffffffffffff88166000908152600b6020908152604080832063ffffffff8581168552908352928190208151808301909252549283168082526401000000009093046bffffffffffffffffffffffff169181019190915291925087141561157e576020015194506108909350505050565b805163ffffffff16871115611595578193506115a3565b6115a0600183613dcf565b92505b50506114c8565b5073ffffffffffffffffffffffffffffffffffffffff85166000908152600b6020908152604080832063ffffffff909416835292905220546bffffffffffffffffffffffff6401000000009091041691505092915050565b600e5473ffffffffffffffffffffffffffffffffffffffff163314611683576040517f08c379a000000000000000000000000000000000000000000000000000000000815260206004820152600e60248201527f4e4f545f415554484f52495a454400000000000000000000000000000000000060448201526064016109d5565b601080547fffffffffffffffffffffffff00000000000000000000000000000000000000001673ffffffffffffffffffffffffffffffffffffffff92909216919091179055565b6060600180546108a590613ce4565b60006116ee60406103ff600686901c16613e46565b9050806006141561177f57600f5473ffffffffffffffffffffffffffffffffffffffff16331461177a576040517f08c379a000000000000000000000000000000000000000000000000000000000815260206004820152601b60248201527f4e6f697365277320626c6565707320617265207265736572766564000000000060448201526064016109d5565b611ac7565b7f000000000000000000000000000000000000000000000000000000000000000060006117cc7f000000000000000000000000000000000000000000000000000000000000000042613e5a565b9050600061181a7f00000000000000000000000000000000000000000000000000000000000000007f0000000000000000000000000000000000000000000000000000000000000000613e5a565b90507f0000000000000000000000000000000000000000000000000000000000000000821061186b577f000000000000000000000000000000000000000000000000000000000000000092506118d7565b7f00000000000000000000000000000000000000000000000000000000000000006118968382613e5a565b6118a09083613e71565b6118aa9190613eae565b6118d4907f0000000000000000000000000000000000000000000000000000000000000000613ec2565b92505b6040517f70a082310000000000000000000000000000000000000000000000000000000081523360048201526000907f000000000000000000000000000000000000000000000000000000000000000073ffffffffffffffffffffffffffffffffffffffff16906370a082319060240160206040518083038186803b15801561195f57600080fd5b505afa9250505080156119ad575060408051601f3d9081017fffffffffffffffffffffffffffffffffffffffffffffffffffffffffffffffe01682019092526119aa91810190613eda565b60015b6119b6576119b9565b90505b80156119d957600a6119cc856002613e71565b6119d69190613eae565b93505b83341015611a43576040517f08c379a000000000000000000000000000000000000000000000000000000000815260206004820152600a60248201527f4e4f545f454e4f5547480000000000000000000000000000000000000000000060448201526064016109d5565b336108fc611a518634613e5a565b6040518115909202916000818181858888f19350505050158015611a79573d6000803e3d6000fd5b50600f5460405173ffffffffffffffffffffffffffffffffffffffff9091169085156108fc029086906000818181858888f19350505050158015611ac1573d6000803e3d6000fd5b50505050505b73ffffffffffffffffffffffffffffffffffffffff8216611b44576040517f08c379a000000000000000000000000000000000000000000000000000000000815260206004820152601260248201527f4e4f545f544f5f5a45524f41444452455353000000000000000000000000000060448201526064016109d5565b73ffffffffffffffffffffffffffffffffffffffff8216301415611bc4576040517f08c379a000000000000000000000000000000000000000000000000000000000815260206004820152600b60248201527f4e4f545f544f5f5448495300000000000000000000000000000000000000000060448201526064016109d5565b61ffff831660009081526002602052604090205473ffffffffffffffffffffffffffffffffffffffff1615611c55576040517f08c379a000000000000000000000000000000000000000000000000000000000815260206004820152600f60248201527f414c52454144595f43524541544544000000000000000000000000000000000060448201526064016109d5565b610b8f828461ffff166129a0565b73ffffffffffffffffffffffffffffffffffffffff8216331415611ce3576040517f08c379a000000000000000000000000000000000000000000000000000000000815260206004820152601960248201527f4552433732313a20617070726f766520746f2063616c6c65720000000000000060448201526064016109d5565b33600081815260056020908152604080832073ffffffffffffffffffffffffffffffffffffffff87168085529083529281902080547fffffffffffffffffffffffffffffffffffffffffffffffffffffffffffffff001686151590811790915590519081529192917f17307eab39ab6107e8899845ad3d59bd9653f200f220920489ca2b5937696c31910160405180910390a35050565b73ffffffffffffffffffffffffffffffffffffffff81166000908152600c602052604081205463ffffffff1680611db2576000611139565b73ffffffffffffffffffffffffffffffffffffffff83166000908152600b6020526040812090611de3600184613dcf565b63ffffffff16815260208101919091526040016000205464010000000090046bffffffffffffffffffffffff169392505050565b611e213383612519565b611ead576040517f08c379a000000000000000000000000000000000000000000000000000000000815260206004820152603160248201527f4552433732313a207472616e736665722063616c6c6572206973206e6f74206f60448201527f776e6572206e6f7220617070726f76656400000000000000000000000000000060648201526084016109d5565b611eb9848484846129be565b50505050565b60007f8cad95687ba82c2ce50e74f7b754645e5117c3a5bec8151c0726d5857980a866611eea610896565b80519060200120611ef84690565b60408051602080820195909552808201939093526060830191909152306080808401919091528151808403909101815260a0830182528051908401207fe48329057bfd03d55e49b547132e39cffd9c1820ad7b9d4c5307691425d15adf60c084015273ffffffffffffffffffffffffffffffffffffffff8b1660e084015261010083018a90526101208084018a9052825180850390910181526101408401909252815191909301207f1901000000000000000000000000000000000000000000000000000000000000610160830152610162820183905261018282018190529192506000906101a201604080517fffffffffffffffffffffffffffffffffffffffffffffffffffffffffffffffe08184030181528282528051602091820120600080855291840180845281905260ff8a169284019290925260608301889052608083018790529092509060019060a0016020604051602081039080840390855afa15801561206a573d6000803e3d6000fd5b50506040517fffffffffffffffffffffffffffffffffffffffffffffffffffffffffffffffe0015191505073ffffffffffffffffffffffffffffffffffffffff8116612138576040517f08c379a000000000000000000000000000000000000000000000000000000000815260206004820152603660248201527f455243373231436865636b706f696e7461626c653a3a64656c6567617465427960448201527f5369673a20696e76616c6964207369676e61747572650000000000000000000060648201526084016109d5565b73ffffffffffffffffffffffffffffffffffffffff81166000908152600d6020526040812080549161216983613d96565b9190505589146121fb576040517f08c379a000000000000000000000000000000000000000000000000000000000815260206004820152603260248201527f455243373231436865636b706f696e7461626c653a3a64656c6567617465427960448201527f5369673a20696e76616c6964206e6f6e6365000000000000000000000000000060648201526084016109d5565b8742111561228b576040517f08c379a000000000000000000000000000000000000000000000000000000000815260206004820152603660248201527f455243373231436865636b706f696e7461626c653a3a64656c6567617465427960448201527f5369673a207369676e617475726520657870697265640000000000000000000060648201526084016109d5565b612295818b6128fb565b505050505b505050505050565b6010546040517fc4df382600000000000000000000000000000000000000000000000000000000815261ffff8316600482015260609173ffffffffffffffffffffffffffffffffffffffff169063c4df38269060240160006040518083038186803b15801561231057600080fd5b505afa158015612324573d6000803e3d6000fd5b505050506040513d6000823e601f3d9081017fffffffffffffffffffffffffffffffffffffffffffffffffffffffffffffffe01682016040526108909190810190613ef3565b60006108906123788361121d565b6040518060600160405280603d81526020016140ee603d9139612a61565b60007fffffffff0000000000000000000000000000000000000000000000000000000082167f80ac58cd00000000000000000000000000000000000000000000000000000000148061242957507fffffffff0000000000000000000000000000000000000000000000000000000082167f5b5e139f00000000000000000000000000000000000000000000000000000000145b8061089057507f01ffc9a7000000000000000000000000000000000000000000000000000000007fffffffff00000000000000000000000000000000000000000000000000000000831614610890565b600081815260046020526040902080547fffffffffffffffffffffffff00000000000000000000000000000000000000001673ffffffffffffffffffffffffffffffffffffffff841690811790915581906124d38261116b565b73ffffffffffffffffffffffffffffffffffffffff167f8c5be1e5ebec7d5bd14f71427d1e84f3dd0314c0f7b2291e5b200ac8c7c3b92560405160405180910390a45050565b60008181526002602052604081205473ffffffffffffffffffffffffffffffffffffffff166125ca576040517f08c379a000000000000000000000000000000000000000000000000000000000815260206004820152602c60248201527f4552433732313a206f70657261746f7220717565727920666f72206e6f6e657860448201527f697374656e7420746f6b656e000000000000000000000000000000000000000060648201526084016109d5565b60006125d58361116b565b90508073ffffffffffffffffffffffffffffffffffffffff168473ffffffffffffffffffffffffffffffffffffffff16148061264457508373ffffffffffffffffffffffffffffffffffffffff1661262c84610928565b73ffffffffffffffffffffffffffffffffffffffff16145b80612681575073ffffffffffffffffffffffffffffffffffffffff80821660009081526005602090815260408083209388168352929052205460ff165b949350505050565b8273ffffffffffffffffffffffffffffffffffffffff166126a98261116b565b73ffffffffffffffffffffffffffffffffffffffff161461274c576040517f08c379a000000000000000000000000000000000000000000000000000000000815260206004820152602960248201527f4552433732313a207472616e73666572206f6620746f6b656e2074686174206960448201527f73206e6f74206f776e000000000000000000000000000000000000000000000060648201526084016109d5565b73ffffffffffffffffffffffffffffffffffffffff82166127ee576040517f08c379a0000000000000000000000000000000000000000000000000000000008152602060048201526024808201527f4552433732313a207472616e7366657220746f20746865207a65726f2061646460448201527f726573730000000000000000000000000000000000000000000000000000000060648201526084016109d5565b6127f9838383612ab3565b612804600082612479565b73ffffffffffffffffffffffffffffffffffffffff8316600090815260036020526040812080546001929061283a908490613e5a565b909155505073ffffffffffffffffffffffffffffffffffffffff82166000908152600360205260408120805460019290612875908490613ec2565b909155505060008181526002602052604080822080547fffffffffffffffffffffffff00000000000000000000000000000000000000001673ffffffffffffffffffffffffffffffffffffffff86811691821790925591518493918716917fddf252ad1be2c89b69c2b068fc378daa952ba7f163c4a11628f55a4df523b3ef91a4505050565b600061290683611101565b73ffffffffffffffffffffffffffffffffffffffff8481166000818152600a602052604080822080547fffffffffffffffffffffffff000000000000000000000000000000000000000016888616908117909155905194955093928516927f3134e8a2e6d97e929a7e54011ea5485d7d196dd5f0ba4d4ef95803e8e3fc257f9190a460006129938461236a565b9050611eb9828483612ad6565b6129ba828260405180602001604052806000815250612cfb565b5050565b6129c9848484612689565b6129d584848484612d9e565b611eb9576040517f08c379a000000000000000000000000000000000000000000000000000000000815260206004820152603260248201527f4552433732313a207472616e7366657220746f206e6f6e20455243373231526560448201527f63656976657220696d706c656d656e746572000000000000000000000000000060648201526084016109d5565b6000816c010000000000000000000000008410612aab576040517f08c379a00000000000000000000000000000000000000000000000000000000081526004016109d59190613885565b509192915050565b612abe838383612f9d565b610b8f612aca84611101565b612ad384611101565b60015b8173ffffffffffffffffffffffffffffffffffffffff168373ffffffffffffffffffffffffffffffffffffffff1614158015612b2057506000816bffffffffffffffffffffffff16115b15610b8f5773ffffffffffffffffffffffffffffffffffffffff831615612c125773ffffffffffffffffffffffffffffffffffffffff83166000908152600c602052604081205463ffffffff169081612b7a576000612bd9565b73ffffffffffffffffffffffffffffffffffffffff85166000908152600b6020526040812090612bab600185613dcf565b63ffffffff16815260208101919091526040016000205464010000000090046bffffffffffffffffffffffff165b90506000612c00828560405180606001604052806037815260200161412b603791396130a3565b9050612c0e86848484613109565b5050505b73ffffffffffffffffffffffffffffffffffffffff821615610b8f5773ffffffffffffffffffffffffffffffffffffffff82166000908152600c602052604081205463ffffffff169081612c67576000612cc6565b73ffffffffffffffffffffffffffffffffffffffff84166000908152600b6020526040812090612c98600185613dcf565b63ffffffff16815260208101919091526040016000205464010000000090046bffffffffffffffffffffffff165b90506000612ced82856040518060600160405280603681526020016140746036913961338c565b905061229a85848484613109565b612d0583836133fd565b612d126000848484612d9e565b610b8f576040517f08c379a000000000000000000000000000000000000000000000000000000000815260206004820152603260248201527f4552433732313a207472616e7366657220746f206e6f6e20455243373231526560448201527f63656976657220696d706c656d656e746572000000000000000000000000000060648201526084016109d5565b600073ffffffffffffffffffffffffffffffffffffffff84163b15612f92576040517f150b7a0200000000000000000000000000000000000000000000000000000000815273ffffffffffffffffffffffffffffffffffffffff85169063150b7a0290612e15903390899088908890600401613f6a565b602060405180830381600087803b158015612e2f57600080fd5b505af1925050508015612e7d575060408051601f3d9081017fffffffffffffffffffffffffffffffffffffffffffffffffffffffffffffffe0168201909252612e7a91810190613fb3565b60015b612f47573d808015612eab576040519150601f19603f3d011682016040523d82523d6000602084013e612eb0565b606091505b508051612f3f576040517f08c379a000000000000000000000000000000000000000000000000000000000815260206004820152603260248201527f4552433732313a207472616e7366657220746f206e6f6e20455243373231526560448201527f63656976657220696d706c656d656e746572000000000000000000000000000060648201526084016109d5565b805181602001fd5b7fffffffff00000000000000000000000000000000000000000000000000000000167f150b7a0200000000000000000000000000000000000000000000000000000000149050612681565b506001949350505050565b73ffffffffffffffffffffffffffffffffffffffff83166130055761300081600880546000838152600960205260408120829055600182018355919091527ff3f7a9fe364faab93b216da50a3214154f22a0a2b415b23a84c8169e8b636ee30155565b613042565b8173ffffffffffffffffffffffffffffffffffffffff168373ffffffffffffffffffffffffffffffffffffffff16146130425761304283826135cb565b73ffffffffffffffffffffffffffffffffffffffff821661306657610b8f81613682565b8273ffffffffffffffffffffffffffffffffffffffff168273ffffffffffffffffffffffffffffffffffffffff1614610b8f57610b8f8282613731565b6000836bffffffffffffffffffffffff16836bffffffffffffffffffffffff16111582906130fe576040517f08c379a00000000000000000000000000000000000000000000000000000000081526004016109d59190613885565b506126818385613fd0565b600061312d436040518060800160405280604481526020016140aa60449139613782565b905060008463ffffffff16118015613194575073ffffffffffffffffffffffffffffffffffffffff85166000908152600b6020526040812063ffffffff831691613178600188613dcf565b63ffffffff908116825260208201929092526040016000205416145b1561322a5773ffffffffffffffffffffffffffffffffffffffff85166000908152600b6020526040812083916131cb600188613dcf565b63ffffffff168152602081019190915260400160002080546bffffffffffffffffffffffff92909216640100000000027fffffffffffffffffffffffffffffffff000000000000000000000000ffffffff909216919091179055613325565b60408051808201825263ffffffff80841682526bffffffffffffffffffffffff808616602080850191825273ffffffffffffffffffffffffffffffffffffffff8b166000908152600b82528681208b8616825290915294909420925183549451909116640100000000027fffffffffffffffffffffffffffffffff000000000000000000000000000000009094169116179190911790556132cc846001613ff5565b73ffffffffffffffffffffffffffffffffffffffff86166000908152600c6020526040902080547fffffffffffffffffffffffffffffffffffffffffffffffffffffffff000000001663ffffffff929092169190911790555b604080516bffffffffffffffffffffffff80861682528416602082015273ffffffffffffffffffffffffffffffffffffffff8716917fdec2bacdd2f05b59de34da9b523dff8be42e5e38e818c82fdb0bae774387a724910160405180910390a25050505050565b600080613399848661401d565b9050846bffffffffffffffffffffffff16816bffffffffffffffffffffffff16101583906133f4576040517f08c379a00000000000000000000000000000000000000000000000000000000081526004016109d59190613885565b50949350505050565b73ffffffffffffffffffffffffffffffffffffffff821661347a576040517f08c379a000000000000000000000000000000000000000000000000000000000815260206004820181905260248201527f4552433732313a206d696e7420746f20746865207a65726f206164647265737360448201526064016109d5565b60008181526002602052604090205473ffffffffffffffffffffffffffffffffffffffff1615613506576040517f08c379a000000000000000000000000000000000000000000000000000000000815260206004820152601c60248201527f4552433732313a20746f6b656e20616c7265616479206d696e7465640000000060448201526064016109d5565b61351260008383612ab3565b73ffffffffffffffffffffffffffffffffffffffff82166000908152600360205260408120805460019290613548908490613ec2565b909155505060008181526002602052604080822080547fffffffffffffffffffffffff00000000000000000000000000000000000000001673ffffffffffffffffffffffffffffffffffffffff861690811790915590518392907fddf252ad1be2c89b69c2b068fc378daa952ba7f163c4a11628f55a4df523b3ef908290a45050565b600060016135d88461121d565b6135e29190613e5a565b6000838152600760205260409020549091508082146136425773ffffffffffffffffffffffffffffffffffffffff841660009081526006602090815260408083208584528252808320548484528184208190558352600790915290208190555b50600091825260076020908152604080842084905573ffffffffffffffffffffffffffffffffffffffff9094168352600681528383209183525290812055565b60085460009061369490600190613e5a565b600083815260096020526040812054600880549394509092849081106136bc576136bc613d38565b9060005260206000200154905080600883815481106136dd576136dd613d38565b600091825260208083209091019290925582815260099091526040808220849055858252812055600880548061371557613715614044565b6001900381819060005260206000200160009055905550505050565b600061373c8361121d565b73ffffffffffffffffffffffffffffffffffffffff9093166000908152600660209081526040808320868452825280832085905593825260079052919091209190915550565b6000816401000000008410612aab576040517f08c379a00000000000000000000000000000000000000000000000000000000081526004016109d59190613885565b7fffffffff000000000000000000000000000000000000000000000000000000008116811461116857600080fd5b60006020828403121561380457600080fd5b8135611139816137c4565b60005b8381101561382a578181015183820152602001613812565b83811115611eb95750506000910152565b6000815180845261385381602086016020860161380f565b601f017fffffffffffffffffffffffffffffffffffffffffffffffffffffffffffffffe0169290920160200192915050565b602081526000611139602083018461383b565b6000602082840312156138aa57600080fd5b5035919050565b73ffffffffffffffffffffffffffffffffffffffff8116811461116857600080fd5b600080604083850312156138e657600080fd5b82356138f1816138b1565b946020939093013593505050565b60006020828403121561391157600080fd5b8135611139816138b1565b60008060006060848603121561393157600080fd5b833561393c816138b1565b9250602084013561394c816138b1565b929592945050506040919091013590565b6000806020838503121561397057600080fd5b823567ffffffffffffffff8082111561398857600080fd5b818501915085601f83011261399c57600080fd5b8135818111156139ab57600080fd5b8660208260051b85010111156139c057600080fd5b60209290920196919550909350505050565b60a0808252865190820181905260009060209060c0840190828a01845b82811015613a2157815173ffffffffffffffffffffffffffffffffffffffff16845292840192908401906001016139ef565b505050908301969096525060408101939093526060830191909152608090910152919050565b60008060408385031215613a5a57600080fd5b823561ffff81168114613a6c57600080fd5b91506020830135613a7c816138b1565b809150509250929050565b60008060408385031215613a9a57600080fd5b8235613aa5816138b1565b915060208301358015158114613a7c57600080fd5b7f4e487b7100000000000000000000000000000000000000000000000000000000600052604160045260246000fd5b604051601f82017fffffffffffffffffffffffffffffffffffffffffffffffffffffffffffffffe016810167ffffffffffffffff81118282101715613b3057613b30613aba565b604052919050565b600067ffffffffffffffff821115613b5257613b52613aba565b50601f017fffffffffffffffffffffffffffffffffffffffffffffffffffffffffffffffe01660200190565b60008060008060808587031215613b9457600080fd5b8435613b9f816138b1565b93506020850135613baf816138b1565b925060408501359150606085013567ffffffffffffffff811115613bd257600080fd5b8501601f81018713613be357600080fd5b8035613bf6613bf182613b38565b613ae9565b818152886020838501011115613c0b57600080fd5b8160208401602083013760006020838301015280935050505092959194509250565b60008060008060008060c08789031215613c4657600080fd5b8635613c51816138b1565b95506020870135945060408701359350606087013560ff81168114613c7557600080fd5b9598949750929560808101359460a0909101359350915050565b60008060408385031215613ca257600080fd5b8235613a6c816138b1565b60008060408385031215613cc057600080fd5b8235613ccb816138b1565b9150602083013563ffffffff81168114613a7c57600080fd5b600181811c90821680613cf857607f821691505b60208210811415613d32577f4e487b7100000000000000000000000000000000000000000000000000000000600052602260045260246000fd5b50919050565b7f4e487b7100000000000000000000000000000000000000000000000000000000600052603260045260246000fd5b7f4e487b7100000000000000000000000000000000000000000000000000000000600052601160045260246000fd5b60007fffffffffffffffffffffffffffffffffffffffffffffffffffffffffffffffff821415613dc857613dc8613d67565b5060010190565b600063ffffffff83811690831681811015613dec57613dec613d67565b039392505050565b7f4e487b7100000000000000000000000000000000000000000000000000000000600052601260045260246000fd5b600063ffffffff80841680613e3a57613e3a613df4565b92169190910492915050565b600082613e5557613e55613df4565b500690565b600082821015613e6c57613e6c613d67565b500390565b6000817fffffffffffffffffffffffffffffffffffffffffffffffffffffffffffffffff0483118215151615613ea957613ea9613d67565b500290565b600082613ebd57613ebd613df4565b500490565b60008219821115613ed557613ed5613d67565b500190565b600060208284031215613eec57600080fd5b5051919050565b600060208284031215613f0557600080fd5b815167ffffffffffffffff811115613f1c57600080fd5b8201601f81018413613f2d57600080fd5b8051613f3b613bf182613b38565b818152856020838501011115613f5057600080fd5b613f6182602083016020860161380f565b95945050505050565b600073ffffffffffffffffffffffffffffffffffffffff808716835280861660208401525083604083015260806060830152613fa9608083018461383b565b9695505050505050565b600060208284031215613fc557600080fd5b8151611139816137c4565b60006bffffffffffffffffffffffff83811690831681811015613dec57613dec613d67565b600063ffffffff80831681851680830382111561401457614014613d67565b01949350505050565b60006bffffffffffffffffffffffff80831681851680830382111561401457614014613d67565b7f4e487b7100000000000000000000000000000000000000000000000000000000600052603160045260246000fdfe455243373231436865636b706f696e7461626c653a3a5f6d6f766544656c6567617465733a20616d6f756e74206f766572666c6f7773455243373231436865636b706f696e7461626c653a3a5f7772697465436865636b706f696e743a20626c6f636b206e756d62657220657863656564732033322062697473455243373231436865636b706f696e7461626c653a3a766f746573546f44656c65676174653a20616d6f756e7420657863656564732039362062697473455243373231436865636b706f696e7461626c653a3a5f6d6f766544656c6567617465733a20616d6f756e7420756e646572666c6f7773a2646970667358221220812686a354747c7cad00fb7aef2b5da76d2a037855f23aee543152785665a95e64736f6c63430008090033",
  "devdoc": {
    "kind": "dev",
    "methods": {
      "approve(address,uint256)": {
        "details": "See {IERC721-approve}."
      },
      "balanceOf(address)": {
        "details": "See {IERC721-balanceOf}."
      },
      "delegate(address)": {
        "params": {
          "delegatee": "The address to delegate votes to"
        }
      },
      "delegateBySig(address,uint256,uint256,uint8,bytes32,bytes32)": {
        "params": {
          "delegatee": "The address to delegate votes to",
          "expiry": "The time at which to expire the signature",
          "nonce": "The contract state required to match the signature",
          "r": "Half of the ECDSA signature pair",
          "s": "Half of the ECDSA signature pair",
          "v": "The recovery byte of the signature"
        }
      },
      "getApproved(uint256)": {
        "details": "See {IERC721-getApproved}."
      },
      "getCurrentVotes(address)": {
        "params": {
          "account": "The address to get votes balance"
        },
        "returns": {
          "_0": "The number of current votes for `account`"
        }
      },
      "getPriorVotes(address,uint256)": {
        "details": "Block number must be a finalized block or else this function will revert to prevent misinformation.",
        "params": {
          "account": "The address of the account to check",
          "blockNumber": "The block number to get the vote balance at"
        },
        "returns": {
          "_0": "The number of votes the account had as of the given block"
        }
      },
      "isApprovedForAll(address,address)": {
        "details": "See {IERC721-isApprovedForAll}."
      },
      "name()": {
        "details": "See {IERC721Metadata-name}."
      },
      "ownerOf(uint256)": {
        "details": "See {IERC721-ownerOf}."
      },
      "safeTransferFrom(address,address,uint256)": {
        "details": "See {IERC721-safeTransferFrom}."
      },
      "safeTransferFrom(address,address,uint256,bytes)": {
        "details": "See {IERC721-safeTransferFrom}."
      },
      "setApprovalForAll(address,bool)": {
        "details": "See {IERC721-setApprovalForAll}."
      },
      "supportsInterface(bytes4)": {
        "details": "See {IERC165-supportsInterface}."
      },
      "symbol()": {
        "details": "See {IERC721Metadata-symbol}."
      },
      "tokenByIndex(uint256)": {
        "details": "See {IERC721Enumerable-tokenByIndex}."
      },
      "tokenOfOwnerByIndex(address,uint256)": {
        "details": "See {IERC721Enumerable-tokenOfOwnerByIndex}."
      },
      "totalSupply()": {
        "details": "See {IERC721Enumerable-totalSupply}."
      },
      "transferFrom(address,address,uint256)": {
        "details": "See {IERC721-transferFrom}."
      },
      "votesToDelegate(address)": {
        "details": "Used when calling `_delegate()`"
      }
    },
    "version": 1
  },
  "userdoc": {
    "events": {
      "DelegateChanged(address,address,address)": {
        "notice": "An event thats emitted when an account changes its delegate"
      },
      "DelegateVotesChanged(address,uint256,uint256)": {
        "notice": "An event thats emitted when a delegate account's vote balance changes"
      }
    },
    "kind": "user",
    "methods": {
      "DELEGATION_TYPEHASH()": {
        "notice": "The EIP-712 typehash for the delegation struct used by the contract"
      },
      "DOMAIN_TYPEHASH()": {
        "notice": "The EIP-712 typehash for the contract's domain"
      },
      "checkpoints(address,uint32)": {
        "notice": "A record of votes checkpoints for each account, by index"
      },
      "decimals()": {
        "notice": "Defines decimals as per ERC-20 convention to make integrations with 3rd party governance platforms easier"
      },
      "delegate(address)": {
        "notice": "Delegate votes from `msg.sender` to `delegatee`"
      },
      "delegateBySig(address,uint256,uint256,uint8,bytes32,bytes32)": {
        "notice": "Delegates votes from signatory to `delegatee`"
      },
      "delegates(address)": {
        "notice": "Overrides the standard `Comp.sol` delegates mapping to return the delegator's own address if they haven't delegated. This avoids having to delegate to oneself."
      },
      "getCurrentVotes(address)": {
        "notice": "Gets the current votes balance for `account`"
      },
      "getPriorVotes(address,uint256)": {
        "notice": "Determine the prior number of votes for an account as of a block number"
      },
      "nonces(address)": {
        "notice": "A record of states for signing / validating signatures"
      },
      "numCheckpoints(address)": {
        "notice": "The number of checkpoints for each account"
      },
      "votesToDelegate(address)": {
        "notice": "The votes a delegator can delegate, which is the current balance of the delegator."
      }
    },
    "version": 1
  },
  "storageLayout": {
    "storage": [
      {
        "astId": 28,
        "contract": "src/Bleeps.sol:Bleeps",
        "label": "_name",
        "offset": 0,
        "slot": "0",
        "type": "t_string_storage"
      },
      {
        "astId": 30,
        "contract": "src/Bleeps.sol:Bleeps",
        "label": "_symbol",
        "offset": 0,
        "slot": "1",
        "type": "t_string_storage"
      },
      {
        "astId": 34,
        "contract": "src/Bleeps.sol:Bleeps",
        "label": "_owners",
        "offset": 0,
        "slot": "2",
        "type": "t_mapping(t_uint256,t_address)"
      },
      {
        "astId": 38,
        "contract": "src/Bleeps.sol:Bleeps",
        "label": "_balances",
        "offset": 0,
        "slot": "3",
        "type": "t_mapping(t_address,t_uint256)"
      },
      {
        "astId": 42,
        "contract": "src/Bleeps.sol:Bleeps",
        "label": "_tokenApprovals",
        "offset": 0,
        "slot": "4",
        "type": "t_mapping(t_uint256,t_address)"
      },
      {
        "astId": 48,
        "contract": "src/Bleeps.sol:Bleeps",
        "label": "_operatorApprovals",
        "offset": 0,
        "slot": "5",
        "type": "t_mapping(t_address,t_mapping(t_address,t_bool))"
      },
      {
        "astId": 967,
        "contract": "src/Bleeps.sol:Bleeps",
        "label": "_ownedTokens",
        "offset": 0,
        "slot": "6",
        "type": "t_mapping(t_address,t_mapping(t_uint256,t_uint256))"
      },
      {
        "astId": 971,
        "contract": "src/Bleeps.sol:Bleeps",
        "label": "_ownedTokensIndex",
        "offset": 0,
        "slot": "7",
        "type": "t_mapping(t_uint256,t_uint256)"
      },
      {
        "astId": 974,
        "contract": "src/Bleeps.sol:Bleeps",
        "label": "_allTokens",
        "offset": 0,
        "slot": "8",
        "type": "t_array(t_uint256)dyn_storage"
      },
      {
        "astId": 978,
        "contract": "src/Bleeps.sol:Bleeps",
        "label": "_allTokensIndex",
        "offset": 0,
        "slot": "9",
        "type": "t_mapping(t_uint256,t_uint256)"
      },
      {
        "astId": 5690,
        "contract": "src/Bleeps.sol:Bleeps",
        "label": "_delegates",
        "offset": 0,
        "slot": "10",
        "type": "t_mapping(t_address,t_address)"
      },
      {
        "astId": 5703,
        "contract": "src/Bleeps.sol:Bleeps",
        "label": "checkpoints",
        "offset": 0,
        "slot": "11",
        "type": "t_mapping(t_address,t_mapping(t_uint32,t_struct(Checkpoint)5695_storage))"
      },
      {
        "astId": 5708,
        "contract": "src/Bleeps.sol:Bleeps",
        "label": "numCheckpoints",
        "offset": 0,
        "slot": "12",
        "type": "t_mapping(t_address,t_uint32)"
      },
      {
        "astId": 5725,
        "contract": "src/Bleeps.sol:Bleeps",
        "label": "nonces",
        "offset": 0,
        "slot": "13",
        "type": "t_mapping(t_address,t_uint256)"
      },
      {
        "astId": 2515,
        "contract": "src/Bleeps.sol:Bleeps",
        "label": "_maintainer",
        "offset": 0,
        "slot": "14",
        "type": "t_address"
      },
      {
        "astId": 2517,
        "contract": "src/Bleeps.sol:Bleeps",
        "label": "_recipient",
        "offset": 0,
        "slot": "15",
        "type": "t_address_payable"
      },
      {
        "astId": 2520,
        "contract": "src/Bleeps.sol:Bleeps",
        "label": "_tokenURIContract",
        "offset": 0,
        "slot": "16",
        "type": "t_contract(BleepsTokenURI)3603"
      }
    ],
    "types": {
      "t_address": {
        "encoding": "inplace",
        "label": "address",
        "numberOfBytes": "20"
      },
      "t_address_payable": {
        "encoding": "inplace",
        "label": "address payable",
        "numberOfBytes": "20"
      },
      "t_array(t_uint256)dyn_storage": {
        "base": "t_uint256",
        "encoding": "dynamic_array",
        "label": "uint256[]",
        "numberOfBytes": "32"
      },
      "t_bool": {
        "encoding": "inplace",
        "label": "bool",
        "numberOfBytes": "1"
      },
      "t_contract(BleepsTokenURI)3603": {
        "encoding": "inplace",
        "label": "contract BleepsTokenURI",
        "numberOfBytes": "20"
      },
      "t_mapping(t_address,t_address)": {
        "encoding": "mapping",
        "key": "t_address",
        "label": "mapping(address => address)",
        "numberOfBytes": "32",
        "value": "t_address"
      },
      "t_mapping(t_address,t_bool)": {
        "encoding": "mapping",
        "key": "t_address",
        "label": "mapping(address => bool)",
        "numberOfBytes": "32",
        "value": "t_bool"
      },
      "t_mapping(t_address,t_mapping(t_address,t_bool))": {
        "encoding": "mapping",
        "key": "t_address",
        "label": "mapping(address => mapping(address => bool))",
        "numberOfBytes": "32",
        "value": "t_mapping(t_address,t_bool)"
      },
      "t_mapping(t_address,t_mapping(t_uint256,t_uint256))": {
        "encoding": "mapping",
        "key": "t_address",
        "label": "mapping(address => mapping(uint256 => uint256))",
        "numberOfBytes": "32",
        "value": "t_mapping(t_uint256,t_uint256)"
      },
      "t_mapping(t_address,t_mapping(t_uint32,t_struct(Checkpoint)5695_storage))": {
        "encoding": "mapping",
        "key": "t_address",
        "label": "mapping(address => mapping(uint32 => struct ERC721Checkpointable.Checkpoint))",
        "numberOfBytes": "32",
        "value": "t_mapping(t_uint32,t_struct(Checkpoint)5695_storage)"
      },
      "t_mapping(t_address,t_uint256)": {
        "encoding": "mapping",
        "key": "t_address",
        "label": "mapping(address => uint256)",
        "numberOfBytes": "32",
        "value": "t_uint256"
      },
      "t_mapping(t_address,t_uint32)": {
        "encoding": "mapping",
        "key": "t_address",
        "label": "mapping(address => uint32)",
        "numberOfBytes": "32",
        "value": "t_uint32"
      },
      "t_mapping(t_uint256,t_address)": {
        "encoding": "mapping",
        "key": "t_uint256",
        "label": "mapping(uint256 => address)",
        "numberOfBytes": "32",
        "value": "t_address"
      },
      "t_mapping(t_uint256,t_uint256)": {
        "encoding": "mapping",
        "key": "t_uint256",
        "label": "mapping(uint256 => uint256)",
        "numberOfBytes": "32",
        "value": "t_uint256"
      },
      "t_mapping(t_uint32,t_struct(Checkpoint)5695_storage)": {
        "encoding": "mapping",
        "key": "t_uint32",
        "label": "mapping(uint32 => struct ERC721Checkpointable.Checkpoint)",
        "numberOfBytes": "32",
        "value": "t_struct(Checkpoint)5695_storage"
      },
      "t_string_storage": {
        "encoding": "bytes",
        "label": "string",
        "numberOfBytes": "32"
      },
      "t_struct(Checkpoint)5695_storage": {
        "encoding": "inplace",
        "label": "struct ERC721Checkpointable.Checkpoint",
        "members": [
          {
            "astId": 5692,
            "contract": "src/Bleeps.sol:Bleeps",
            "label": "fromBlock",
            "offset": 0,
            "slot": "0",
            "type": "t_uint32"
          },
          {
            "astId": 5694,
            "contract": "src/Bleeps.sol:Bleeps",
            "label": "votes",
            "offset": 4,
            "slot": "0",
            "type": "t_uint96"
          }
        ],
        "numberOfBytes": "32"
      },
      "t_uint256": {
        "encoding": "inplace",
        "label": "uint256",
        "numberOfBytes": "32"
      },
      "t_uint32": {
        "encoding": "inplace",
        "label": "uint32",
        "numberOfBytes": "4"
      },
      "t_uint96": {
        "encoding": "inplace",
        "label": "uint96",
        "numberOfBytes": "12"
      }
    }
  }
}