{
  "address": "0x54A0aF9211940BFe6b995aC171F05A4F2b5EC7a6",
  "abi": [
    {
      "inputs": [
        {
          "internalType": "contract Bleeps",
          "name": "bleeps",
          "type": "address"
        },
        {
          "internalType": "uint256",
          "name": "price",
          "type": "uint256"
        },
        {
          "internalType": "uint256",
          "name": "whitelistPrice",
          "type": "uint256"
        },
        {
          "internalType": "uint256",
          "name": "whitelistTimeLimit",
          "type": "uint256"
        },
        {
          "internalType": "bytes32",
          "name": "whitelistMerkleRoot",
          "type": "bytes32"
        },
        {
          "internalType": "address payable",
          "name": "recipient",
          "type": "address"
        },
        {
          "internalType": "contract IERC721",
          "name": "mandalas",
          "type": "address"
        },
        {
          "internalType": "uint256",
          "name": "mandalasDiscountPercentage",
          "type": "uint256"
        }
      ],
      "stateMutability": "nonpayable",
      "type": "constructor"
    },
    {
      "inputs": [
        {
          "internalType": "uint256",
          "name": "passId",
          "type": "uint256"
        }
      ],
      "name": "isPassUsed",
      "outputs": [
        {
          "internalType": "bool",
          "name": "",
          "type": "bool"
        }
      ],
      "stateMutability": "nonpayable",
      "type": "function"
    },
    {
      "inputs": [
        {
          "internalType": "uint16",
          "name": "id",
          "type": "uint16"
        },
        {
          "internalType": "address",
          "name": "to",
          "type": "address"
        }
      ],
      "name": "mint",
      "outputs": [],
      "stateMutability": "payable",
      "type": "function"
    },
    {
      "inputs": [
        {
          "internalType": "uint16",
          "name": "id",
          "type": "uint16"
        },
        {
          "internalType": "address",
          "name": "to",
          "type": "address"
        },
        {
          "internalType": "uint256",
          "name": "passId",
          "type": "uint256"
        },
        {
          "internalType": "bytes32[]",
          "name": "proof",
          "type": "bytes32[]"
        }
      ],
      "name": "mintWithPassId",
      "outputs": [],
      "stateMutability": "payable",
      "type": "function"
    },
    {
      "inputs": [
        {
          "internalType": "uint16",
          "name": "id",
          "type": "uint16"
        },
        {
          "internalType": "address",
          "name": "to",
          "type": "address"
        },
        {
          "internalType": "uint256",
          "name": "passId",
          "type": "uint256"
        },
        {
          "internalType": "bytes",
          "name": "signature",
          "type": "bytes"
        },
        {
          "internalType": "bytes32[]",
          "name": "proof",
          "type": "bytes32[]"
        }
      ],
      "name": "mintWithSalePass",
      "outputs": [],
      "stateMutability": "payable",
      "type": "function"
    },
    {
      "inputs": [
        {
          "internalType": "address",
          "name": "purchaser",
          "type": "address"
        },
        {
          "internalType": "uint256[]",
          "name": "ids",
          "type": "uint256[]"
        }
      ],
      "name": "ownersAndPriceInfo",
      "outputs": [
        {
          "internalType": "address[]",
          "name": "addresses",
          "type": "address[]"
        },
        {
          "internalType": "uint256",
          "name": "price",
          "type": "uint256"
        },
        {
          "internalType": "uint256",
          "name": "whitelistPrice",
          "type": "uint256"
        },
        {
          "internalType": "uint256",
          "name": "whitelistTimeLimit",
          "type": "uint256"
        },
        {
          "internalType": "bytes32",
          "name": "whitelistMerkleRoot",
          "type": "bytes32"
        },
        {
          "internalType": "uint256",
          "name": "mandalasDiscountPercentage",
          "type": "uint256"
        },
        {
          "internalType": "bool",
          "name": "hasMandalas",
          "type": "bool"
        }
      ],
      "stateMutability": "view",
      "type": "function"
    },
    {
      "inputs": [
        {
          "internalType": "address",
          "name": "purchaser",
          "type": "address"
        }
      ],
      "name": "priceInfo",
      "outputs": [
        {
          "internalType": "uint256",
          "name": "price",
          "type": "uint256"
        },
        {
          "internalType": "uint256",
          "name": "whitelistPrice",
          "type": "uint256"
        },
        {
          "internalType": "uint256",
          "name": "whitelistTimeLimit",
          "type": "uint256"
        },
        {
          "internalType": "bytes32",
          "name": "whitelistMerkleRoot",
          "type": "bytes32"
        },
        {
          "internalType": "uint256",
          "name": "mandalasDiscountPercentage",
          "type": "uint256"
        },
        {
          "internalType": "bool",
          "name": "hasMandalas",
          "type": "bool"
        }
      ],
      "stateMutability": "view",
      "type": "function"
    },
    {
      "inputs": [
        {
          "internalType": "uint16",
          "name": "id",
          "type": "uint16"
        },
        {
          "internalType": "address",
          "name": "to",
          "type": "address"
        }
      ],
      "name": "recipientMint",
      "outputs": [],
      "stateMutability": "nonpayable",
      "type": "function"
    }
  ],
  "transactionHash": "0xdb68a6992a39562b9a930f635907ee3779800c68c1ee2abcb5bfd9571574d3c1",
  "args": [
    "0x9B5452669DDce553EE59ea77ED8328FCE83fa960",
    "200000000000000000",
    "180000000000000000",
    1636972130,
    "0x7a3a9e28c5d9b6b3cad8e9d8d9b0871236621c74be4b2336dd142c03f2557e62",
    "0xE53cd71271AcAdbeb0f64d9c8C62bBdDc8cA9e66",
    "0x434BADEA3943c5B3D86366Fa03c77201B6770A75",
    20
  ],
  "linkedData": {
    "leaves": [
      {
        "passId": "0",
        "signer": "0x60a438b547d4567E20d477ae57d882Eb2B1e82F1"
      },
      {
        "passId": "1",
        "signer": "0x50488AC4c42360fe421F44CA1340ccf380340AB7"
      },
      {
        "passId": "2",
        "signer": "0x327Dc0EFA73fc0D9fEE27A86eAc71483cc93e0a6"
      },
      {
        "passId": "3",
        "signer": "0x492e44d54bE6Df1E9496DDEFd4C9110E9e468038"
      },
      {
        "passId": "4",
        "signer": "0x6BA2201a2C6865Ed39194C37ca64cA8bDE578712"
      },
      {
        "passId": "5",
        "signer": "0xa84D5182b85fCaa30A50115b250C802A01a3A3fb"
      },
      {
        "passId": "6",
        "signer": "0x13CeA92b90E4a9cB6e7b52199285383bBa7B1Cac"
      },
      {
        "passId": "7",
        "signer": "0xeC2FCAf09fB610C8E7B84b1a58a9971F250d817E"
      },
      {
        "passId": "8",
        "signer": "0x4AF2eede9DC68483CD3C9B305664C87005B9BC15"
      },
      {
        "passId": "9",
        "signer": "0x5B5aeC96972aba8e9ad3910Dae633683A04cb713"
      },
      {
        "passId": "10",
        "signer": "0x424AfD76a9cC137564BB60a4Fe36f8C046a9f08C"
      },
      {
        "passId": "11",
        "signer": "0x2E108B1213a7debcC37c8939d7D6d8dE05C6625E"
      },
      {
        "passId": "12",
        "signer": "0x0d94e0eFe6B751C569C408B5Dd67d3b7B4AB2D68"
      },
      {
        "passId": "13",
        "signer": "0x6ceD586b0BA2Ee7890c3851263cb91d4d9e0CAd2"
      },
      {
        "passId": "14",
        "signer": "0x70De921b60C459AB7232F098223a2Fea6b2A3c26"
      },
      {
        "passId": "15",
        "signer": "0xE71D96f7ec951494584B142D3028C030E1B7C5e3"
      },
      {
        "passId": "16",
        "signer": "0x1327bEEa36CA3Ea11bFD6B6Ed136a99F807aa390"
      },
      {
        "passId": "17",
        "signer": "0xd455A7794Bf6cA638e726C141632DA3392f3aC5b"
      },
      {
        "passId": "18",
        "signer": "0x85Bf49a420a5728676977b943E68182D7194E216"
      },
      {
        "passId": "19",
        "signer": "0xdc95a998D07058768c3802d66009fa8da7541B1c"
      },
      {
        "passId": "20",
        "signer": "0x090f50806e944c1BEE555C4612C12585cc28007E"
      },
      {
        "passId": "21",
        "signer": "0x130C4d84847f1714A08Dd137D1Cba6687883Cbb7"
      },
      {
        "passId": "22",
        "signer": "0x20893868F744D99D34451Ef6e379A926D4490932"
      },
      {
        "passId": "23",
        "signer": "0xBc9F3b943af49cf0480dd7dbc7dAbfA08459fd26"
      },
      {
        "passId": "24",
        "signer": "0xf81E22674D98F7E953841A5AA4648a01E0e9bfC8"
      },
      {
        "passId": "25",
        "signer": "0x3cDD5C2480d302002A6dbe305E3d6086B7202000"
      },
      {
        "passId": "26",
        "signer": "0x7C8C58C035378d8b62CE16945959D2611c69D680"
      },
      {
        "passId": "27",
        "signer": "0x1D91eeB28c6e449763e753C77184D9a97Baa22f5"
      },
      {
        "passId": "28",
        "signer": "0xF1Ec18D0DA7EF2C95D18774eFbA3869fb7CF4158"
      },
      {
        "passId": "29",
        "signer": "0x619a0665ADcD2A87209f8ba2b107e16921eE1B1a"
      },
      {
        "passId": "30",
        "signer": "0xA6220b8170308C48f26D01635b9d62b46017C470"
      },
      {
        "passId": "31",
        "signer": "0x1e69Fedc83159A368Dcf05627853250c8F1b0a08"
      },
      {
        "passId": "32",
        "signer": "0xDE8d255D8d6daD042eC0307A2531b13afe8ec5b4"
      },
      {
        "passId": "33",
        "signer": "0x34278d3961aF8Cdd7d2d1E36225484416D051136"
      },
      {
        "passId": "34",
        "signer": "0x8828f5070e42A55Ee658841CE116cf6a8807C683"
      },
      {
        "passId": "35",
        "signer": "0xaDc437E216cB070499716AA9B83ACd44d6387BF6"
      },
      {
        "passId": "36",
        "signer": "0x09Bd6b1bbC14584d9FFb93a3fB8981c0bd62F567"
      },
      {
        "passId": "37",
        "signer": "0xE4618A67Fc298ba3748008D0b35b666f6cE23381"
      },
      {
        "passId": "38",
        "signer": "0x768d75aC2df505ba380BB2186a370Fd37aD0cAEc"
      },
      {
        "passId": "39",
        "signer": "0x5E958FCCfB01FE7F0B5FbadCC16fFBc72b85ce05"
      },
      {
        "passId": "40",
        "signer": "0x5118a99f0BDd803ED5d398280D5fbD3deB694C88"
      },
      {
        "passId": "41",
        "signer": "0xc7995C119B14392AE1582000C4a40D1739Ec4E82"
      },
      {
        "passId": "42",
        "signer": "0x8Ef30915cbDeBd588675fE4Eba58ea16f377a944"
      },
      {
        "passId": "43",
        "signer": "0x953A25dfD047bE09CAe8b0Ce87EF3D5f275b3a09"
      },
      {
        "passId": "44",
        "signer": "0x96909FD11F0C6748A1085442781Ed93AC7034298"
      },
      {
        "passId": "45",
        "signer": "0x3829370f256955853A65e6CfAa28406f747889fC"
      },
      {
        "passId": "46",
        "signer": "0xeB725d070C9A36D257DF3b4f413A29ECC031DCbd"
      },
      {
        "passId": "47",
        "signer": "0x16AC3faEE25d29A1A181dc5Dca8F01433FE42DA7"
      },
      {
        "passId": "48",
        "signer": "0xD92B685efaAe68193E1EF31d483a8BDca05Ea7C1"
      },
      {
        "passId": "49",
        "signer": "0x81E8b522d23dE819d645521f892A74475f33Ba34"
      },
      {
        "passId": "50",
        "signer": "0x6dBeff73C66F0F3065C5b090585320eC7d58B980"
      },
      {
        "passId": "51",
        "signer": "0xB0C09Ef47Fa618F509Aaf85F17f49E578cE79D1E"
      },
      {
        "passId": "52",
        "signer": "0x8d45E5ba5c209469e8Aa98672b62196beb8df565"
      },
      {
        "passId": "53",
        "signer": "0x87036BD203e2845b096E5bF447af5C68571629e8"
      },
      {
        "passId": "54",
        "signer": "0xc7Baa9edBDDaf2c9dE204D8EBA38cf926085Fadb"
      },
      {
        "passId": "55",
        "signer": "0x21CA7288a276B28B88aC18f4A8fd69d451a236C3"
      },
      {
        "passId": "56",
        "signer": "0xc11a9fd8B7182c02feFD44aaCE307ff9eeE16B7c"
      },
      {
        "passId": "57",
        "signer": "0x44c6E13CF2F7c9401486BcE42CdDd547CE91a33e"
      },
      {
        "passId": "58",
        "signer": "0xFe3B3A1eA00bE78DedfEe194a1081Ce8fC160Aed"
      },
      {
        "passId": "59",
        "signer": "0x0900e748eE4fCce6f34Ff3ccd8988eCF0C2651Cc"
      },
      {
        "passId": "60",
        "signer": "0x4383A449671C2f015De6fa6bF93129Aabb84ba78"
      },
      {
        "passId": "61",
        "signer": "0x7C05dfa6dD61e7055694397dAC9082f185322fEf"
      },
      {
        "passId": "62",
        "signer": "0x96dCFa623df85310caBD14DF59FDD91af2C98b24"
      },
      {
        "passId": "63",
        "signer": "0x328768944EC781D6Fe13D110A8c7C7C788Fc4602"
      },
      {
        "passId": "64",
        "signer": "0xB4548EFf95bdd7c4CFD1F31B57bD78CE7597C1c3"
      },
      {
        "passId": "65",
        "signer": "0xBE89dED2A80F2b69421EB0aa3c54ce38a9551baD"
      },
      {
        "passId": "66",
        "signer": "0x8901f78bCE8f23EEF43dD736B3F650a215359108"
      },
      {
        "passId": "67",
        "signer": "0x0771CA6ee7BFAcF255d6d7B2B840da2251eAa4A3"
      },
      {
        "passId": "68",
        "signer": "0x44Aa1707b8FbCe12630b283e071F6F8048b7AeCd"
      },
      {
        "passId": "69",
        "signer": "0x5cBA29d627f44a46BdB553CD0a0B01B6617082Fc"
      },
      {
        "passId": "70",
        "signer": "0x942A7857697dF297765e78c1ed582Ac54df0BFEb"
      },
      {
        "passId": "71",
        "signer": "0x39a6799ade79B9f91bFE76A8Fe43713f4e880B8E"
      },
      {
        "passId": "72",
        "signer": "0x81a68248eB3d15E067bcC0389e737F41dC2d37f8"
      },
      {
        "passId": "73",
        "signer": "0xA277527A698Cd057319bFA6d33c0d43f0c9734ab"
      },
      {
        "passId": "74",
        "signer": "0xfa04a7fE5Bcf26F38ecef743F24E325e190AA96E"
      },
      {
        "passId": "75",
        "signer": "0x71FAa118B6dC6188B5c9Dd281e27Bc5266a75EB7"
      },
      {
        "passId": "76",
        "signer": "0x0c04cbF259102628001cFe1F250A1b3C355EaA03"
      },
      {
        "passId": "77",
        "signer": "0xc0D8a648b1B53B976D0119368339D0DB5c2D05Db"
      },
      {
        "passId": "78",
        "signer": "0x3333CCaEACbf3E3454271564EA0EB4340Cb17AEE"
      },
      {
        "passId": "79",
        "signer": "0xE393F685f29c4bce60687e0D80CBBCbB8382f850"
      },
      {
        "passId": "80",
        "signer": "0x3C9A660c20223bde35c16B5d41b1a6Cb25b9825C"
      },
      {
        "passId": "81",
        "signer": "0x0657d93695eF45c82EDaF75C2E8220436892Fa49"
      },
      {
        "passId": "82",
        "signer": "0xc4d7B98f5DDbF6591d0fd80B81339c9eaD2Aa1a6"
      },
      {
        "passId": "83",
        "signer": "0xCCA57d1eB290762C5CA826f18865B93A6e1485fB"
      },
      {
        "passId": "84",
        "signer": "0xE630E592f5631212DDE5FD6Ae119FA0636dd4415"
      },
      {
        "passId": "85",
        "signer": "0x95403000999F584a9dC66ee0662c473ba476252C"
      },
      {
        "passId": "86",
        "signer": "0x245539a396c73dc0B40655885A944688c3978D2D"
      },
      {
        "passId": "87",
        "signer": "0xc93d126b0da023AA4F8e59e15aC9021935e65CFC"
      },
      {
        "passId": "88",
        "signer": "0xFeDa4e693e221c412C5A2A04878e699e3D4aF057"
      },
      {
        "passId": "89",
        "signer": "0x910e4B31C0f402A14089eF487bf8365a265243a2"
      },
      {
        "passId": "90",
        "signer": "0x67E7DFf6f87ac8D26d2395c3040cE52cA11eEbCd"
      },
      {
        "passId": "91",
        "signer": "0x8616c0CE1C0aAd742249627Ac55CCfD76B6141E4"
      },
      {
        "passId": "92",
        "signer": "0xE5274f9A36F5d719a0c9B6605e1128dfdD52b5Cf"
      },
      {
        "passId": "93",
        "signer": "0xa3285326dAD973bE420BF330A5eb17f225bA9586"
      },
      {
        "passId": "94",
        "signer": "0x835D0fAEc706F8D82364d4992822e1519f9bDE12"
      },
      {
        "passId": "95",
        "signer": "0xf49a248e448B241444cF3cDdF149e46A4cbaB34c"
      },
      {
        "passId": "96",
        "signer": "0x8d2F79347ea2B096dB1dac555894479f3B40C025"
      },
      {
        "passId": "97",
        "signer": "0x2148AC35EDC46d716A9a54BfA43D29A6aFeDD7F5"
      },
      {
        "passId": "98",
        "signer": "0x78F1c85c956b6921E48611cd37bc460E39A237D9"
      },
      {
        "passId": "99",
        "signer": "0x6dE393744Af9116dcFD26804BD83638bAFb21285"
      },
      {
        "passId": "100",
        "signer": "0x907bbA579ee3bB418d8912B3c9365D13344566E8"
      },
      {
        "passId": "101",
        "signer": "0xc9aBEF884696C3336CcbBfD0E443bA39524A5365"
      },
      {
        "passId": "102",
        "signer": "0x57A69a3791FAF426a1128E30C40A88A20E593D24"
      },
      {
        "passId": "103",
        "signer": "0xC5cEEFa70F2c069BC277C74fAEF4530CB8C10990"
      },
      {
        "passId": "104",
        "signer": "0x6fA0D113f1433323Abe211FF29Ce679fca3fAd1C"
      },
      {
        "passId": "105",
        "signer": "0xaE2bFfa043b866873cD06f9A3d4042344Bcb2A60"
      },
      {
        "passId": "106",
        "signer": "0xF2E8b2d904158F9CB575Be69e804989d4194b8FA"
      },
      {
        "passId": "107",
        "signer": "0xdAf2dEbEc24CC6a3F584dfEC102640f67426e58E"
      },
      {
        "passId": "108",
        "signer": "0x73528c852a03D98EB8a1d7252CFF0C0B4EF9F76F"
      },
      {
        "passId": "109",
        "signer": "0xf9b47EFC60607C40173E75C7C8B6BE785CA2A1a0"
      },
      {
        "passId": "110",
        "signer": "0xc377E9A7cB056991D20a7CD202941a306D06701a"
      },
      {
        "passId": "111",
        "signer": "0x4f1353640bF5d11fdCe3270B2084bc45bED94651"
      },
      {
        "passId": "112",
        "signer": "0xAEacEAb2E6cF8f6d8221584070C3234996438Ec3"
      },
      {
        "passId": "113",
        "signer": "0xf5D34E910f49Ab9e60Fc968D1F55b4DB91Bc3546"
      },
      {
        "passId": "114",
        "signer": "0xa65b8f3602F20A37d7AEBfa2bbbCfa13AAd2CC46"
      },
      {
        "passId": "115",
        "signer": "0x3f197dF7ffFB06a28cf5675e225875B158A2E354"
      },
      {
        "passId": "116",
        "signer": "0xf6f133Ec060fD03F6FCA76397a632733CA497df6"
      },
      {
        "passId": "117",
        "signer": "0x91d10368ff0cDa99e9356A3f1F2571fB26AD1534"
      },
      {
        "passId": "118",
        "signer": "0x7E9c17FE226B6F4fb7434Da915a3C89c8f7f9e98"
      },
      {
        "passId": "119",
        "signer": "0x47A6972BfA95628f06090fC7fC7E507f25e9C87E"
      },
      {
        "passId": "120",
        "signer": "0x7aa1C977Eb8cF5e65056d61eCbcc9eAD9048a6E2"
      },
      {
        "passId": "121",
        "signer": "0x8004AC70E5116c65b1Df5f91DB894CF59BF74509"
      },
      {
        "passId": "122",
        "signer": "0x466168D49D944340D72d5bDF4cF9F09217721b46"
      },
      {
        "passId": "123",
        "signer": "0xbf254718A36C3af0303A3F61e7191876C7573074"
      },
      {
        "passId": "124",
        "signer": "0x7dEf46F481AACCd02D50D8cb2f47592a97A446d6"
      },
      {
        "passId": "125",
        "signer": "0x50b2b9a11e8C2835750A3B62992dC8c6571f8ddf"
      },
      {
        "passId": "126",
        "signer": "0x27214dB2d3E8Ee22a1979f15ECc55B2aF1299aa7"
      },
      {
        "passId": "127",
        "signer": "0x2B7A28ED0c390771C9A9Dd2356E71bFA1a9dbad7"
      },
      {
        "passId": "128",
        "signer": "0xAd973a6AF9f7a2Ce6b496e1001C7d42ad88ce3bd"
      },
      {
        "passId": "129",
        "signer": "0x3Ae75663673c1706DcFB57C9C4A7a4ddE31d32d1"
      },
      {
        "passId": "130",
        "signer": "0x68e4537C30Cf6e530FD69929bA208CeeF1ca161f"
      },
      {
        "passId": "131",
        "signer": "0xe95754A2037C15d24f493df1D537Ee717746E060"
      },
      {
        "passId": "132",
        "signer": "0xD0EE4Ef2538fdEc4150a61972fc7502BD4d935cC"
      },
      {
        "passId": "133",
        "signer": "0x9CA8735C405b4DE6388575F0492C820551A47583"
      },
      {
        "passId": "134",
        "signer": "0xE38Adf8a9f6015D5AD81606FEaf029146D75B98A"
      },
      {
        "passId": "135",
        "signer": "0xd1c7f08ABCf47b00752495a50632436872CA2fC8"
      },
      {
        "passId": "136",
        "signer": "0xa17B0b211B43a7d967FD970adB7D6cd8b7ae8Ef1"
      },
      {
        "passId": "137",
        "signer": "0x95677ea98Ea532231aA4f39f8c946Bd0F6C454D2"
      },
      {
        "passId": "138",
        "signer": "0x3D227aDD34e0f94e22636533846E84926F228D80"
      },
      {
        "passId": "139",
        "signer": "0x012b59b9eD56481109b0854f11a44FA1bF2A8685"
      },
      {
        "passId": "140",
        "signer": "0xb2533D415ae16e92DCEfc57329b2023fd452710E"
      },
      {
        "passId": "141",
        "signer": "0x9148d1468E8C6f0dF3b84c5Fa44eCF3295d08a11"
      },
      {
        "passId": "142",
        "signer": "0x4D6bBd6b3284018BD0EdD513Caeb5Ec5CDe095b6"
      },
      {
        "passId": "143",
        "signer": "0xa1b3986F857D523a2f270533cA1E5e6f9dF3251f"
      },
      {
        "passId": "144",
        "signer": "0x4dC38f4176cb0CfAa12Fd124215994B1fe57ddeC"
      },
      {
        "passId": "145",
        "signer": "0x16e03828f058Ecf8b54B5Bcfa17ac9180727Cbc3"
      },
      {
        "passId": "146",
        "signer": "0x83e299e89425C3f56201E4F41A71Abb27f205C97"
      },
      {
        "passId": "147",
        "signer": "0x09811b3CbB674dd65E7fd38cd58E91606bB244e5"
      },
      {
        "passId": "148",
        "signer": "0x458D1c263465D01Fd2705b7EADA1633F58086348"
      },
      {
        "passId": "149",
        "signer": "0xfB2fd7E43FF8cc13f911e69D3a02ceE2D675b92c"
      },
      {
        "passId": "150",
        "signer": "0x8049dED7B7Eaed35a8F07f931574Ac61c32A8107"
      },
      {
        "passId": "151",
        "signer": "0xb23e55B87019FE3F144528192858C107A264f8e6"
      },
      {
        "passId": "152",
        "signer": "0xf21260075aE7114cAC583962c842638c309ABC14"
      },
      {
        "passId": "153",
        "signer": "0x6f12CBAE265931917439E00f9A5667aCA32b4b32"
      },
      {
        "passId": "154",
        "signer": "0x8B9b4b10bF415662211FCA0ea7319027fCF66ce7"
      },
      {
        "passId": "155",
        "signer": "0xf4aA92A662BC17D78d18E94447AaD6880A475203"
      },
      {
        "passId": "156",
        "signer": "0xa67E9C2a80a6E108CF7d4750870f2ECb7caF4e0a"
      },
      {
        "passId": "157",
        "signer": "0x07e72080b68ecfA535572163924BA0E1C9F5a99D"
      },
      {
        "passId": "158",
        "signer": "0xe28EF9Bc59f92dc87a478A8b3A5830c5cAcFDe3E"
      },
      {
        "passId": "159",
        "signer": "0x4364911217463d9dA42d7B5E672B8C0Ef83936fE"
      },
      {
        "passId": "160",
        "signer": "0x1AaC1B400dc98180fB1cf89717C8022792295c81"
      },
      {
        "passId": "161",
        "signer": "0x0DdAd4d105B6A7cB4714B4fba2Ee25d0a55eA57f"
      },
      {
        "passId": "162",
        "signer": "0x4E7F976150F125a684a01B142Be0E4Ff3991FBA6"
      },
      {
        "passId": "163",
        "signer": "0x4974F4D45fd9D7820bBbBAE4c61d6b2faC374651"
      },
      {
        "passId": "164",
        "signer": "0xD3458F8e0c1677BA6F49b3caba5A274FDb59Cee7"
      },
      {
        "passId": "165",
        "signer": "0x3b01Ce7599c51a699Ae541EE2AA98bcde2664fac"
      },
      {
        "passId": "166",
        "signer": "0x1C9Cb4E3B76798bf3d78775992EABE12620245d7"
      },
      {
        "passId": "167",
        "signer": "0x0924f46b953102BEaA6F2990a04b9AB2C0155F30"
      },
      {
        "passId": "168",
        "signer": "0xB5D3aFC2b7e54FBa2ad14EfF43A01F54fF23283E"
      },
      {
        "passId": "169",
        "signer": "0x72Eae808202eae81C08a740eA8782B66E132c774"
      },
      {
        "passId": "170",
        "signer": "0xDF6c06bFB8ACA2730DACa1D9792C03ac46B1EA40"
      },
      {
        "passId": "171",
        "signer": "0xA3aa6cA5E3Ab5b75f83159A96F60B11754A8B0E0"
      },
      {
        "passId": "172",
        "signer": "0xDA3B0c44011654F33f679Aac8f44b942aDCA641D"
      },
      {
        "passId": "173",
        "signer": "0xce8e1Ac99fBd1aF5EdFC98cb7F8b936A1647E40c"
      },
      {
        "passId": "174",
        "signer": "0x9Bc0927F66415004Cc4981a282eaBF80D0993d02"
      },
      {
        "passId": "175",
        "signer": "0x7b679EE0f4F874b5AaD2be9C95d833cbd35273FD"
      },
      {
        "passId": "176",
        "signer": "0x6149d642f223F91b8506c0F07143b481DA8189dC"
      },
      {
        "passId": "177",
        "signer": "0x584178Dd560342a61E357309245E59928749d17D"
      },
      {
        "passId": "178",
        "signer": "0x3A70D485fa1a190c32E528D6107006d55158B492"
      },
      {
        "passId": "179",
        "signer": "0x4fe975327491F8f83E619d056dd1D38a89A9DAbc"
      },
      {
        "passId": "180",
        "signer": "0x859B5c1280b1DF95086B8dB51D45E5a4E4980F70"
      },
      {
        "passId": "181",
        "signer": "0xd7edeE4D9c4f54e9f03Cb24263Af2258af0fC5EA"
      },
      {
        "passId": "182",
        "signer": "0x097CD4b4fB2E5115Bb4852Be0748bCBAB5608ec9"
      },
      {
        "passId": "183",
        "signer": "0x7350c363b0349b1e40bF71423CD5476223147D4b"
      },
      {
        "passId": "184",
        "signer": "0xc77870DFD235A588Df58938dDCdf7151cf908457"
      },
      {
        "passId": "185",
        "signer": "0x5F1FA87f48128954233310Fb8dD0BC45028Ef3e9"
      },
      {
        "passId": "186",
        "signer": "0xD95124Fd0180D890c831A0040D5F7E56c232Ad93"
      },
      {
        "passId": "187",
        "signer": "0x8B9785754ffD6093976b091F20505dD0E49D94e0"
      },
      {
        "passId": "188",
        "signer": "0x719641BcF55ccaB0CD7d71a8fab9b3E0B79F0C20"
      },
      {
        "passId": "189",
        "signer": "0xe82DD84A425e42F77fa978D7344ad0861b612BA6"
      },
      {
        "passId": "190",
        "signer": "0xEC6AA065DAc8795400FB187f60526D88A4af2833"
      },
      {
        "passId": "191",
        "signer": "0xc93E2C2580B4c628579dCf788419948543ccfcB6"
      },
      {
        "passId": "192",
        "signer": "0xc6e82a5e6625BeC6a2C6B349766278Adec45176A"
      },
      {
        "passId": "193",
        "signer": "0x10d23160fbDE7aBb1E99668A8702761eE7BaC15a"
      },
      {
        "passId": "194",
        "signer": "0x9bb5787180a5778800Edea8D50Df13d53B4317a1"
      },
      {
        "passId": "195",
        "signer": "0x6961830084F7f9Ad2d609Aa58545Fc9437C01dD2"
      },
      {
        "passId": "196",
        "signer": "0x4D19c01587e10d6321fb3601C81F2e3Ea86333b4"
      },
      {
        "passId": "197",
        "signer": "0x3b4EDB02115F68b10d8F9e3a861422AfD95EBdbf"
      },
      {
        "passId": "198",
        "signer": "0x64E848526848c557DF85803ce0d96C31d4827dCA"
      },
      {
        "passId": "199",
        "signer": "0x5B714bb3686Bf7bc46b61a7d376f6D753C3cd961"
      },
      {
        "passId": "200",
        "signer": "0x1EBFBFD5E4c9E68497619836e9520b977c6d0343"
      },
      {
        "passId": "201",
        "signer": "0xB4DE8dfF496A7736AdCf5f4F268190252512FF0B"
      },
      {
        "passId": "202",
        "signer": "0xbB718904b4dd25D6AdF1d92566FE04eC6d5fA77a"
      },
      {
        "passId": "203",
        "signer": "0x849Dce356E7c46063e51BFcBdE9049b3950d29e2"
      },
      {
        "passId": "204",
        "signer": "0xF399353941D789c55D9F9ecB5f158A054Dece50E"
      },
      {
        "passId": "205",
        "signer": "0x3E81e7D37708E758c68D6195f8fdC7d50dECAB2d"
      },
      {
        "passId": "206",
        "signer": "0x6ace220b941E3a3D49D871E3727d0d2d8C8bD655"
      },
      {
        "passId": "207",
        "signer": "0x4F3743b548292f8524FD7A8498a55b603D0Ea136"
      },
      {
        "passId": "208",
        "signer": "0xB6e115C41736458a4D5562E96B932a431804a06B"
      },
      {
        "passId": "209",
        "signer": "0x5Db8AeF41b3400cEaa8e2a62065E1C15706f1A46"
      },
      {
        "passId": "210",
        "signer": "0x32eaBcc062291B11fa399698A98FfF78848A477d"
      },
      {
        "passId": "211",
        "signer": "0x5fB24b7b1719d1Dc7D568423fc6032621F4716BE"
      },
      {
        "passId": "212",
        "signer": "0x3DE7c840671f60Fc2D4bf89F556ECe2F975B8cc3"
      },
      {
        "passId": "213",
        "signer": "0x7194871BdC489574Aec369A5006f6e39403c7541"
      },
      {
        "passId": "214",
        "signer": "0xed37428eC02D80d79128a0A0E988F21b03290d83"
      },
      {
        "passId": "215",
        "signer": "0xCeFC1f01b4140255acBc7FED212BBe0aA5794700"
      },
      {
        "passId": "216",
        "signer": "0x530d0A62Ad89EE1b491B5E85bC90dcd5596c4a63"
      },
      {
        "passId": "217",
        "signer": "0xe14A66517dB0B732F439cD9a030f4B766514b7E1"
      },
      {
        "passId": "218",
        "signer": "0x67E5A0cfC04D22A289492775Faf85F2890A56EF7"
      },
      {
        "passId": "219",
        "signer": "0x014110108234257F111739242BF85055f2544bdf"
      },
      {
        "passId": "220",
        "signer": "0x70c20CEe15aa02866b73BeB3038AEC89fBc9a866"
      },
      {
        "passId": "221",
        "signer": "0xCC40A1Ee5d8becfd95574FCD436CEE1fA3340E60"
      },
      {
        "passId": "222",
        "signer": "0x480D30eCF387C3a735aC1E048d75F319f65E005f"
      },
      {
        "passId": "223",
        "signer": "0xA7ac47f3D05598f4C8b3421B6da91bf02dE6F909"
      },
      {
        "passId": "224",
        "signer": "0x6a3f57A89FbE90dc4329C172D3FF3bD1c025142b"
      },
      {
        "passId": "225",
        "signer": "0x587C8Bf12a314D2bFfe636F4a73D3f9713569B17"
      },
      {
        "passId": "226",
        "signer": "0xEFD764a6E8809863b7930B31224095499B32226a"
      },
      {
        "passId": "227",
        "signer": "0xED38b8aE85aecb1d683E6a8dBC21003B5a7B6D92"
      },
      {
        "passId": "228",
        "signer": "0x916e36442073cb88dD87e6A575D802e13F068812"
      },
      {
        "passId": "229",
        "signer": "0xe65c566D8b33Dc927c256a3b826e0E8EB1F9E972"
      },
      {
        "passId": "230",
        "signer": "0x94eA3fD4c38062f70C0b5aD899F66A1c81FD3186"
      },
      {
        "passId": "231",
        "signer": "0x4a96A936cDff40dd1527Bf0D2259263a70386bf2"
      },
      {
        "passId": "232",
        "signer": "0x5b3C04522030539e0747d59b75B7bD8Eb7c1528C"
      },
      {
        "passId": "233",
        "signer": "0x7ec75E502ce203fC7d51d2E6ef34a374a9037740"
      },
      {
        "passId": "234",
        "signer": "0x5741102fd052917691b7B87C6451994f52488d4B"
      },
      {
        "passId": "235",
        "signer": "0x857309E3C27E6879f3EaaFcF98fB124fdC73c97e"
      },
      {
        "passId": "236",
        "signer": "0x82405725D659F792085a02b08a61834BD9b12C39"
      },
      {
        "passId": "237",
        "signer": "0x3F02424Eea0b5858841FAE94635c83b523f6F6B8"
      },
      {
        "passId": "238",
        "signer": "0x1207341B76480a1ad5FEE403e351A737771269b7"
      },
      {
        "passId": "239",
        "signer": "0xe9351Add6603aC0E4e9bE966C702981E64b4965D"
      },
      {
        "passId": "240",
        "signer": "0x0DD0C6633836f20D0B3009F5B6B2eB480C811D7b"
      },
      {
        "passId": "241",
        "signer": "0xba0dBF227154330056D3251dE55AEd2db18d8369"
      },
      {
        "passId": "242",
        "signer": "0xFb3b3172396f2c9A1e84B092E3A9778428d84329"
      },
      {
        "passId": "243",
        "signer": "0x2B16BB07B0d37bdeb5c1889a7DDcBa35A7229Ba5"
      },
      {
        "passId": "244",
        "signer": "0x0873362c9168a611652c69c51f2a162fa3D1e925"
      },
      {
        "passId": "245",
        "signer": "0x3f78Be27d01cE98D9595FC2c317bbbBE99cA0087"
      },
      {
        "passId": "246",
        "signer": "0xF627c0E10b87d4bF6aaDc4aB0b37e14eaeA151c5"
      },
      {
        "passId": "247",
        "signer": "0xc92bF7f41F4aDC8A1aE3Ef4ee308A7E74449E266"
      },
      {
        "passId": "248",
        "signer": "0x7C408a1ee0e08D6fb4415c86C7FE1f0298FA3D19"
      },
      {
        "passId": "249",
        "signer": "0x6ff64B440d38f5d62CD190bDEF4ee3a7c6B54C13"
      },
      {
        "passId": "250",
        "signer": "0x535120238f0ed77eB87F5C2F065CA46aC95Ad6F0"
      },
      {
        "passId": "251",
        "signer": "0x0862269fC210075a7aC80aeCc622495900b84e11"
      },
      {
        "passId": "252",
        "signer": "0xB5ADf1F37bD8F57E6A689e8496C99F7dA7FB03A0"
      },
      {
        "passId": "253",
        "signer": "0x936071991712c8514c721f4ED2f0562C6444798F"
      },
      {
        "passId": "254",
        "signer": "0x274cF357CfFa289b91421795C7775F785eDc22A1"
      },
      {
        "passId": "255",
        "signer": "0xefBBc39955B429Ea0d924C3dAE65bCf332ea49F2"
      },
      {
        "passId": "256",
        "signer": "0x85A84F88dB2409ce7C51385Ad4366e2577c35eCA"
      },
      {
        "passId": "257",
        "signer": "0x5a9d1851c33AdDfEb78C08d4BB4f35c9C2415C57"
      },
      {
        "passId": "258",
        "signer": "0xC5F152c16B45b9AB29d46715b70551df3AC0Ee84"
      },
      {
        "passId": "259",
        "signer": "0x34547DC83fe0A2E4A130516f3a7AD74Ea4161445"
      },
      {
        "passId": "260",
        "signer": "0x186fC3A557D0D5aFd0f3539FdF52292440161527"
      },
      {
        "passId": "261",
        "signer": "0x8454a804a145beB7dffa3f733252C45DE03D5844"
      },
      {
        "passId": "262",
        "signer": "0xDEED85df34A1Fcf69De14ae4A78baA3919B890A2"
      },
      {
        "passId": "263",
        "signer": "0xEc1e7daD9Fe59DE2Ef109126faA64d635652aD1a"
      },
      {
        "passId": "264",
        "signer": "0x157fb455b487169cD12deA20e8EfE8c8380C6b30"
      },
      {
        "passId": "265",
        "signer": "0x125Cf0D453331072ea472a591401a4CB2c3F00FD"
      },
      {
        "passId": "266",
        "signer": "0xA2C372AD3F575081D81D24153c4609D1B380984c"
      },
      {
        "passId": "267",
        "signer": "0x26cEb74eee13576E59873D013170057B836e213d"
      },
      {
        "passId": "268",
        "signer": "0x2188e12E7D1aC3c4483210e2F1d33519CD9Cd617"
      },
      {
        "passId": "269",
        "signer": "0x0063A0E9CE0b894dAe0A7921057422654B74E521"
      },
      {
        "passId": "270",
        "signer": "0x11cbBfeB3F955C060B8B61f7732FACa6Ded337f2"
      },
      {
        "passId": "271",
        "signer": "0x46c9A1FBb42A831A11f7332F418DB5c6e7Cb3fC2"
      },
      {
        "passId": "272",
        "signer": "0x9AFcc2AB678A265Cc923b9d6414dcE7AffdF661A"
      },
      {
        "passId": "273",
        "signer": "0xbECf9B3528EE8f9013f96c561011236aCbda31A9"
      },
      {
        "passId": "274",
        "signer": "0x846dBA3913B0826B61aC5aeB9cBB4F137582cC11"
      },
      {
        "passId": "275",
        "signer": "0x80e8612925264Bb0438314ecc97A170Af82D3897"
      },
      {
        "passId": "276",
        "signer": "0xDCe258FE580D7699175c880617F51f65ECe58916"
      },
      {
        "passId": "277",
        "signer": "0xc1f891b71662B081565Cb454cB2eEe907afb5162"
      },
      {
        "passId": "278",
        "signer": "0x1d3A7Af2B70eDD279514d6270675E27679f8ddA9"
      },
      {
        "passId": "279",
        "signer": "0x87284Cb680b821ace9d93981187A391A58892688"
      },
      {
        "passId": "280",
        "signer": "0x0e52DE9Cc2603242e1d8A831454728735a7cFAef"
      },
      {
        "passId": "281",
        "signer": "0x29f090Eb5e59f9587261441261e52109D20C3149"
      },
      {
        "passId": "282",
        "signer": "0x31114a57398B378771D486feab0F4Eaa1Df866Cc"
      },
      {
        "passId": "283",
        "signer": "0xedE3E350f6649DE010D6adBF02a9CD3c816183BF"
      },
      {
        "passId": "284",
        "signer": "0xB05bAA2544Dc0367e95415f9317741680C02054d"
      },
      {
        "passId": "285",
        "signer": "0x0ccB21087039FBF0B13dFa56c0f6Ddee36A2b0f9"
      },
      {
        "passId": "286",
        "signer": "0xd0d5E9899C9c62dFdfb6E4aa28f147193ddbA8Bc"
      },
      {
        "passId": "287",
        "signer": "0xF4Ba3Ff6c006C1a3a0373012D509d4cC340F7Ccd"
      },
      {
        "passId": "288",
        "signer": "0x8d7cE3f505025B7F64cF6Db1930501746aE6b78d"
      },
      {
        "passId": "289",
        "signer": "0x54490DE0af9b5dAa7DF6737900750652F113ea4f"
      },
      {
        "passId": "290",
        "signer": "0xf811891b50C523563eEC9fD9BbDde323975908FE"
      },
      {
        "passId": "291",
        "signer": "0x654760C2897E5bb31f5b12e7C457B72FFb312522"
      },
      {
        "passId": "292",
        "signer": "0x3c9e103C39dA8414c4bCD608BA8FA3fcDE79D244"
      },
      {
        "passId": "293",
        "signer": "0x76210eAD4A524Ab8Ea0db314F96ca704895185E7"
      },
      {
        "passId": "294",
        "signer": "0x0D5E25D025f6ea3D88d62bdED1FbDF6df0C9E8d2"
      },
      {
        "passId": "295",
        "signer": "0x45F2296d50804c570f932c59797d830deeF89B79"
      },
      {
        "passId": "296",
        "signer": "0x051308a7872b792d8E3d30890669C5620231582b"
      },
      {
        "passId": "297",
        "signer": "0xFd3d9F33cC6c5b5F25C20A60Af527771Ae795FCc"
      },
      {
        "passId": "298",
        "signer": "0x6eCAc3b1E966b28E110074c497a623E63CC4d141"
      },
      {
        "passId": "299",
        "signer": "0xBBEd25352E906aA8AF27c4724d58163f69b64080"
      },
      {
        "passId": "300",
        "signer": "0x1cfDC8f2B15089ea59D171053F920FaB99D44c56"
      },
      {
        "passId": "301",
        "signer": "0x72ca0bB0A327AFD78E16182b5018d0B99542290F"
      },
      {
        "passId": "302",
        "signer": "0x945dc2C863410aB694Ef6D69645Eed0a3fa377bE"
      },
      {
        "passId": "303",
        "signer": "0xE23347E3678AA58D247609718313838719d18C49"
      },
      {
        "passId": "304",
        "signer": "0xD510F252D6BB01B5fc11c7cba66AAF4630f14c92"
      },
      {
        "passId": "305",
        "signer": "0x8eb4048C4E376445D5bA4CfFB914eFcC07D36Fc8"
      },
      {
        "passId": "306",
        "signer": "0x4619Ef2D2156Ef1127905a28215902bdC1F74DbC"
      },
      {
        "passId": "307",
        "signer": "0x350b2ebAf42E7b06045a1f0378B7A292E066f92E"
      },
      {
        "passId": "308",
        "signer": "0xfe0359DDD56d2ec202FC7729B5c34FFff2b9C43b"
      },
      {
        "passId": "309",
        "signer": "0xd247b9418b76C1c8Ea7DF6491f8c5014C5327720"
      },
      {
        "passId": "310",
        "signer": "0xc1a7139eC5e4Bed4bA145BE7D840cEd18E61255D"
      },
      {
        "passId": "311",
        "signer": "0xcdeC1C1a8E7b604f1c270B2f22f7A4f7353D60Ee"
      },
      {
        "passId": "312",
        "signer": "0x64B89B5477755684580094ea7c7b9f072b92BfF2"
      },
      {
        "passId": "313",
        "signer": "0xee7e296cF5518e91271d683b341833a8d59e9e97"
      },
      {
        "passId": "314",
        "signer": "0xf7c0b2F149d0aa11EBA0450C4055bb8603E3900d"
      },
      {
        "passId": "315",
        "signer": "0xA047641EDD326c496eB08a39a0040535FdC41A57"
      },
      {
        "passId": "316",
        "signer": "0x85De560e52B19A7b4adE275503152cb14a17fcBF"
      },
      {
        "passId": "317",
        "signer": "0x1eCB9dffBe87ea03BD3cfF3cC9017BaDC8186a45"
      },
      {
        "passId": "318",
        "signer": "0xf88C7cC3c7DcF0137ce84D33dAC8307DADd1805d"
      },
      {
        "passId": "319",
        "signer": "0x1cb968a64bD3e611b1D3B5E9742D5645F76cE5cB"
      },
      {
        "passId": "320",
        "signer": "0x1E8EC07EAF3934E2Fa9D4979E3BBc5F4d07A1155"
      },
      {
        "passId": "321",
        "signer": "0x0414d6e1958A24aa6f3EFbd7Ad9441fF75f81eB1"
      },
      {
        "passId": "322",
        "signer": "0x3125edbCe19B2C6ff4f512Ee5Ef2FB2b3E3AeB24"
      },
      {
        "passId": "323",
        "signer": "0xB6aD0c17C4D008a673fdFC354ea3C4f69965a54E"
      },
      {
        "passId": "324",
        "signer": "0x156D78591E4f8D179C5e00b554C6A5C88f9929E7"
      },
      {
        "passId": "325",
        "signer": "0x4e789bdD372fEE15BDd5557d2a244f36e7849694"
      },
      {
        "passId": "326",
        "signer": "0x7B575c58898Ad0Ea98446fe3B31A89d430ce49C9"
      },
      {
        "passId": "327",
        "signer": "0x6c5EABf4a64DD83FeEd978d373B72700A1F8CA70"
      },
      {
        "passId": "328",
        "signer": "0xD8F370dcD5C862fdA6107dA34A7f91559AD2AB00"
      },
      {
        "passId": "329",
        "signer": "0x6C9EfC049D9Ed30bd4680757dD1e01EBAC72A815"
      },
      {
        "passId": "330",
        "signer": "0xf9B4e2695345e1F85626b538980cE5dFEb6A061E"
      },
      {
        "passId": "331",
        "signer": "0x1d2b59d66D5F1AEd611C4147e3A8B84167C0ef8A"
      },
      {
        "passId": "332",
        "signer": "0x74071B21819e0Ec5434DD17206fc61d380aA6d8e"
      },
      {
        "passId": "333",
        "signer": "0xbCB646aD700a883F8eF0c3e600705b0C097A1D80"
      },
      {
        "passId": "334",
        "signer": "0x1ACf0ED730E0D589c16854eF89A1f44Bee1Ac4b6"
      },
      {
        "passId": "335",
        "signer": "0x67CFF46B0E0263387c41829C7e8FF39D107C5BA3"
      },
      {
        "passId": "336",
        "signer": "0xA1257a60885a6D58dC93E193ab4549127C4d1593"
      },
      {
        "passId": "337",
        "signer": "0x81F8590E566Dc650c6069dD4E18EF6c7eA2764Ea"
      },
      {
        "passId": "338",
        "signer": "0xFa960aE8E7E26B5a6917D88cC2FeE548247Cf3F9"
      },
      {
        "passId": "339",
        "signer": "0x1CacA7e40492e400313fFbe83C24F6b41Db8224F"
      },
      {
        "passId": "340",
        "signer": "0x1A32555a1a503f4C5574eBb0C07bCFdCD7385d38"
      },
      {
        "passId": "341",
        "signer": "0x811262C7597d520D953eA797319efBDF0AfBB146"
      },
      {
        "passId": "342",
        "signer": "0xD56481Cff5A25F2B35a8C92b1F549F9eeB41f6C2"
      },
      {
        "passId": "343",
        "signer": "0xf96FAA945430db8Ef33aA40eD5cdBC2c53aA281F"
      },
      {
        "passId": "344",
        "signer": "0x18AEAB68f75aA06FB84C5CE0BD0546D5ce8B8Afc"
      },
      {
        "passId": "345",
        "signer": "0x43a0a45990aBC32cA3045c7Ad8959a80f9f763b0"
      },
      {
        "passId": "346",
        "signer": "0x1C9A7c9e4B7F3597F4C9a8dB5De64EcdF828526A"
      },
      {
        "passId": "347",
        "signer": "0x4699AE14e61211d5AE5634bd0F12E4cA2A2Bd833"
      },
      {
        "passId": "348",
        "signer": "0x9a74946eF5292aAc8E0D545F749966D1BC23483A"
      },
      {
        "passId": "349",
        "signer": "0xe3f3e701138F09010d4cC65a6b0794843923C89a"
      },
      {
        "passId": "350",
        "signer": "0xa0fA57962bAED94eeDF9E36904eE432979bd40ff"
      },
      {
        "passId": "351",
        "signer": "0x329D6F9180B88436e8cE28Fa20D697F3918dfA70"
      },
      {
        "passId": "352",
        "signer": "0xCace2F0B259197903fB7C839B7D31ae3e5Ce8F37"
      },
      {
        "passId": "353",
        "signer": "0x42d907d5E264d5cB5c81979dBbc8eCcFd40D0f14"
      },
      {
        "passId": "354",
        "signer": "0xe920f8b0F30B56816Fe8d0783324eDBeD984Aff4"
      },
      {
        "passId": "355",
        "signer": "0xde10a1cf0fc18850D732aFBC655D641671104638"
      },
      {
        "passId": "356",
        "signer": "0x92521D3b109B461baebCcAAE3C2A3f8A1656D173"
      },
      {
        "passId": "357",
        "signer": "0x75C691F9eb3c34e28284bDB7d9b9CFB69EF0d7C6"
      },
      {
        "passId": "358",
        "signer": "0xfB622dAC2acEA725599144E34E9588fff4BCc98f"
      },
      {
        "passId": "359",
        "signer": "0x8C887e3556eaC127A54F763f7C5bFc6fbfd15018"
      },
      {
        "passId": "360",
        "signer": "0x430d0C05DD11a0386382c4Ec9e7Df104098024aA"
      },
      {
        "passId": "361",
        "signer": "0x11DF8922de9CeC55Ce083517bec45Dd09CD0fd6d"
      },
      {
        "passId": "362",
        "signer": "0xe80951813444fC6B8E45F6816a76162A4A3a3263"
      },
      {
        "passId": "363",
        "signer": "0xe24b3Ea6FeD7aEB4eE4de1a321CfCF47073Af19E"
      },
      {
        "passId": "364",
        "signer": "0x060dcD03805aE62af0C3F34e4F69cC5d88e61778"
      },
      {
        "passId": "365",
        "signer": "0x904E3a7450310e2f33f04186Ba42Ed196eb1ce7b"
      },
      {
        "passId": "366",
        "signer": "0x60c10CE5c3C5707b15f02c608b0AaF4c643A6e50"
      },
      {
        "passId": "367",
        "signer": "0x3E6Af38385bbD7BC922Dc0853dc9B0b2e6F1cC72"
      },
      {
        "passId": "368",
        "signer": "0x856DCd7e940F67c3705E0019E4675Cf56E86cb6c"
      },
      {
        "passId": "369",
        "signer": "0x5e23D375bfbBC4dAafa17CdeCd08473d378914cb"
      },
      {
        "passId": "370",
        "signer": "0xB500e8E1ab45C18deD2Fd815AFC1866FED620648"
      },
      {
        "passId": "371",
        "signer": "0x09676E57abaA41d60bB67F19ba2313030Ba26E8e"
      },
      {
        "passId": "372",
        "signer": "0xAaD3a6Df20e37B9141A2D1Abf482dcf5701B085e"
      },
      {
        "passId": "373",
        "signer": "0xFf184e1d8BE31443Da5dee8E2ef62E8168a04c10"
      },
      {
        "passId": "374",
        "signer": "0x43fea90d773bb40997858446A39B2b33189E20e3"
      },
      {
        "passId": "375",
        "signer": "0x96CF604F0B33caeB93E517aCBDeCA7d5B4299241"
      },
      {
        "passId": "376",
        "signer": "0xd26459D86bEb43EfF5F792d70F400320Cf75663D"
      },
      {
        "passId": "377",
        "signer": "0x489a240bd88A6634D7439cB42Aa540F4B981306D"
      },
      {
        "passId": "378",
        "signer": "0x62358FfD423621aC51EFd55A51A0Ec37094e6b8e"
      },
      {
        "passId": "379",
        "signer": "0x326D610d88D34BEcF0E7214017cb1c15ADfbDBa4"
      },
      {
        "passId": "380",
        "signer": "0x2fBc07A6E1Db449910A6C6d9f9d77A2a406D6a8F"
      },
      {
        "passId": "381",
        "signer": "0x01b99d466Ac60014a54674891048b0c099Fc53C4"
      },
      {
        "passId": "382",
        "signer": "0x6Ca3B602a600B8c79D00bd81f63bE08De4D9a57B"
      },
      {
        "passId": "383",
        "signer": "0xe37BeABED388D6F8606bf3cA15f9cC5623c67d13"
      },
      {
        "passId": "384",
        "signer": "0xfA9ebf63f72717Fe9D834732f29eb0bCC3f6A87E"
      },
      {
        "passId": "385",
        "signer": "0x34cd4f32E8323FCD8f0D1629977AE8237ddDDBF2"
      },
      {
        "passId": "386",
        "signer": "0xA972dbA76e25770BaBb647a6eab005B8B157917e"
      },
      {
        "passId": "387",
        "signer": "0xb94bF8B37b4D874bAB1251DB84843d879Ec1C6d3"
      },
      {
        "passId": "388",
        "signer": "0xf541aF2d1C1750585970119501aB341C2482208A"
      },
      {
        "passId": "389",
        "signer": "0x8C20Ca89186A022A46bE311Fa545A71E278D855A"
      },
      {
        "passId": "390",
        "signer": "0x13BDE76Ee9d5a9fe043f65574Cad03c33e08EbA4"
      },
      {
        "passId": "391",
        "signer": "0xF314D3D8698F1C717Bdd8983d1Fc081b446E3629"
      },
      {
        "passId": "392",
        "signer": "0x8b036c10fa2278c3F79585C34e93591aC507eB62"
      },
      {
        "passId": "393",
        "signer": "0x931fE83854facD2C5C2A1c0887b7669040EfFC9b"
      },
      {
        "passId": "394",
        "signer": "0xFFfFFf00a05e22B4EC4297e4279bb81Dab6757f7"
      },
      {
        "passId": "395",
        "signer": "0x9c965EEAE85CDb26BAad388338940Bf11EAc2150"
      },
      {
        "passId": "396",
        "signer": "0xa41eA4F34ce9d10dAb60C54ac3a34bf55200D545"
      },
      {
        "passId": "397",
        "signer": "0xF91f92ed9bd7Ee02867697d9c537f336e84CB36F"
      },
      {
        "passId": "398",
        "signer": "0xf60eeE77fdF31768F639fE8cAffCd61eBe53918b"
      },
      {
        "passId": "399",
        "signer": "0xf65041f447F8FD6F038386Ffd4A043210D09c848"
      },
      {
        "passId": "400",
        "signer": "0xca9753b8Dd9fC97De9f934B34dfFb5228e8eD860"
      },
      {
        "passId": "401",
        "signer": "0x0b432678FaC5F7131aB0fb1B3Db5976C45108b1f"
      },
      {
        "passId": "402",
        "signer": "0x2FEB6FC4Ea79469eD3eA6dA8F5e9ed77730199a3"
      },
      {
        "passId": "403",
        "signer": "0x083341b14A9517F2A99BE645C8409Dcf5068E740"
      },
      {
        "passId": "404",
        "signer": "0xc8EA0F351A39fDe7c55a82C380B34A21404df621"
      },
      {
        "passId": "405",
        "signer": "0x1F09f2d3Fb68cB06730fA265BAC58C7A974eE926"
      },
      {
        "passId": "406",
        "signer": "0x0eeD3E8c41BcC7E6b85d6ecE3bb5091Bc19bDf1d"
      },
      {
        "passId": "407",
        "signer": "0x22f39AaA8F6398A0f08dC22f4743E95cF0198d5d"
      },
      {
        "passId": "408",
        "signer": "0xE56a8CF7e167c9CbC06815b56F52401Fc51750F7"
      },
      {
        "passId": "409",
        "signer": "0xF080c6e700d170CFaF80A67eF4BC4eD6e95878E7"
      },
      {
        "passId": "410",
        "signer": "0xFc9445031714fa095DDF213372C35A3DB815B08B"
      },
      {
        "passId": "411",
        "signer": "0x47922d5CAcD878CD27eb8fC591a70952481Ee89f"
      },
      {
        "passId": "412",
        "signer": "0x3dA9d2A4dfD246bFB2aA02821F86a6F613E9F313"
      },
      {
        "passId": "413",
        "signer": "0x9244a9De716105D1Fbf22D43388BAFf4A36A24FF"
      },
      {
        "passId": "414",
        "signer": "0x5944Ee45bE101ae56c0d0b141db03AE4212d9e38"
      },
      {
        "passId": "415",
        "signer": "0x292C77706EbD5D9df4fFb69e68057E4Bc4B07eaf"
      },
      {
        "passId": "416",
        "signer": "0x6Adcc59759Bda095B88a1f3ddFE26DA683497C37"
      },
      {
        "passId": "417",
        "signer": "0x1c3Fc29158747CB55dD46beDA542dF84C2223110"
      },
      {
        "passId": "418",
        "signer": "0xD8ecA9E737d3502615904A6D5A1cd108a26F3E6f"
      },
      {
        "passId": "419",
        "signer": "0x47857c6723cdb865334679cCEFb94b36DA0A9290"
      },
      {
        "passId": "420",
        "signer": "0xB1ECC83be28526Ff33BE68d48b0Cdc6ddADBD9D6"
      },
      {
        "passId": "421",
        "signer": "0xE2b4167268cDCa75b68E8aE035A85eB7B58FEE22"
      },
      {
        "passId": "422",
        "signer": "0x1AD28A6e109E5f07F80d739B809A0f4030eB245c"
      },
      {
        "passId": "423",
        "signer": "0x911f7B06009aC12c600Bc3b0857b15ea012D2A0F"
      },
      {
        "passId": "424",
        "signer": "0x6a5bFA44758F9A47EFC95858184669044ADB20d3"
      },
      {
        "passId": "425",
        "signer": "0x283BdC3c2Cf2176fA96447537a982fb84E5AD8FA"
      },
      {
        "passId": "426",
        "signer": "0x7Ff142CE291E63b3Bf01134019AdD653863c129d"
      },
      {
        "passId": "427",
        "signer": "0x65cE8291b19e247082d0D7eca3D745F1Db734072"
      },
      {
        "passId": "428",
        "signer": "0x637a1E215D5FB8f723fE74Fc9a565ef995B86c4c"
      },
      {
        "passId": "429",
        "signer": "0x0484E1b9A13368a953b981ae9b1E38332beaf0Bd"
      },
      {
        "passId": "430",
        "signer": "0x8b2364D319b44545AE8518b45feF5A0D0A678A75"
      },
      {
        "passId": "431",
        "signer": "0x2e04fdBA60FDbd86bc3FDeC853b6F9bac51B7e19"
      },
      {
        "passId": "432",
        "signer": "0x1CcF1cd8D2656bd6791e61186C0fe6A65c27c580"
      },
      {
        "passId": "433",
        "signer": "0xa19D6a46689b0Fd89270644F9484DF6ff079836d"
      },
      {
        "passId": "434",
        "signer": "0x2D840574f033AfF6C474E9d621Fa2F1535f83bD2"
      },
      {
        "passId": "435",
        "signer": "0x3562f5551d51F685da1a83c2dCAEdE4762011BE8"
      },
      {
        "passId": "436",
        "signer": "0x82529293291beD8862a1Cb34DA613f1c5a49DE5a"
      },
      {
        "passId": "437",
        "signer": "0xA83312D149AB3FFce9AD08062a2EA2F34a5D1055"
      },
      {
        "passId": "438",
        "signer": "0x2e1Bb03e423dDe866E562dFC823e788E8973eca8"
      },
      {
        "passId": "439",
        "signer": "0x105B41FDdADA51BE2af059CaCDaA82A68475E0c5"
      },
      {
        "passId": "440",
        "signer": "0x8AD65E35bB82A492226A293a5D8fB2540fE6d446"
      },
      {
        "passId": "441",
        "signer": "0xCf84700F79ce6FeC711A6FdEeDD519815De1BeF8"
      },
      {
        "passId": "442",
        "signer": "0x406C6C9B65fDbE6350b5dFb1cE86133510d078cE"
      },
      {
        "passId": "443",
        "signer": "0x9009dBD27b69a395a3ba768aC92993cF3b804345"
      },
      {
        "passId": "444",
        "signer": "0x683EC5C50A9C9DA350bFFeaCD005b2BaF3e17D1d"
      },
      {
        "passId": "445",
        "signer": "0x108bB69Cfe913e28d6AF3bBb0fAD2f74BfC7E033"
      },
      {
        "passId": "446",
        "signer": "0x713D669Ff4369c316b20Ecf9A329EC77400DCf24"
      },
      {
        "passId": "447",
        "signer": "0x23550F57B6071d63144d0dA38d0A9AFaFf20ACAD"
      },
      {
        "passId": "448",
        "signer": "0x50B6ED3a5873a248515D59c2d0A213D865DAF485"
      },
      {
        "passId": "449",
        "signer": "0x6D5e5844Cf4c87Bc4d89C7DEC93cBD20C4Fa2f70"
      },
      {
        "passId": "450",
        "signer": "0x2143b53F1bc688CCa184c0c7D642Fd17a78515C5"
      },
      {
        "passId": "451",
        "signer": "0xfd4E572ae20a03CcbEFB4d611D97F73bD9828D43"
      },
      {
        "passId": "452",
        "signer": "0x09efe4E3abF6d03dc6Ff6387F380AAc6E6eE64C2"
      },
      {
        "passId": "453",
        "signer": "0x38794b66DcD70E8A0d90585D412dccE637867108"
      },
      {
        "passId": "454",
        "signer": "0x29D8D57ce7080374907514C523ECB0E84EC0521E"
      },
      {
        "passId": "455",
        "signer": "0x90441D3364a92Bb0D4c7dA065A9af056f98eb717"
      },
      {
        "passId": "456",
        "signer": "0xc74942E75160E72a865420e0c46f07Adcd86f2DC"
      },
      {
        "passId": "457",
        "signer": "0xa7c41a1FB71aA6E5Cff53707846814aD2CeE90BF"
      },
      {
        "passId": "458",
        "signer": "0xaa1CEfa7907169a77Fc821decA659EbD8de552F2"
      },
      {
        "passId": "459",
        "signer": "0x320646AE1EFCe1399F7e760C9f99ae0dd7B57fe2"
      },
      {
        "passId": "460",
        "signer": "0x09Fd2eb90C5282e1aF3b6906A549538E7111C82d"
      },
      {
        "passId": "461",
        "signer": "0x5e54784883537d1897c8AF385Cd30Affb6815575"
      },
      {
        "passId": "462",
        "signer": "0x8411895e0201b4A918A8886Ec7fE53637c1ADe83"
      },
      {
        "passId": "463",
        "signer": "0xd362a0b3AD849527DaF521d73B3b7d2B87F1fe40"
      },
      {
        "passId": "464",
        "signer": "0x7Dd0553d2C727b908AAF88c0bb4a738708FBFf12"
      },
      {
        "passId": "465",
        "signer": "0xd603f3477792D0f4F24bCEe6A0d6bBCE282f4Eb3"
      },
      {
        "passId": "466",
        "signer": "0xeeF01f775f8c36861704755139e36C89913cFA46"
      },
      {
        "passId": "467",
        "signer": "0x6edABd964451a27f44bb811F8a9183F0EF5A31f8"
      },
      {
        "passId": "468",
        "signer": "0x5A0DB3843B5ec10678B057DEa0e2577D1face0DB"
      },
      {
        "passId": "469",
        "signer": "0xdB435CD7f8E224f6e4Bc478f3ddb66C0df2DDE17"
      },
      {
        "passId": "470",
        "signer": "0x3926993A1F43470B6375b53D9413c24A9E1f0C2A"
      },
      {
        "passId": "471",
        "signer": "0xeC1784E60738642c5952531be3A8Cd0F5E09dCe4"
      },
      {
        "passId": "472",
        "signer": "0xDE5C9af5C635E585fD881696cb181DD08A5555fD"
      },
      {
        "passId": "473",
        "signer": "0x2A2482BbBc99187eD8806Adb1AF4Dae341804DB4"
      },
      {
        "passId": "474",
        "signer": "0xd21725870f93dBF47C72dB32C275CdA66E8a7013"
      },
      {
        "passId": "475",
        "signer": "0x6CCBFE0ae95E1Db0af730C44bc59d6A3B9C38c63"
      },
      {
        "passId": "476",
        "signer": "0xE9e254c7Cc76b7f686DFf9050D86258d34E0EFfC"
      },
      {
        "passId": "477",
        "signer": "0x8A6B8372280f68dAB133261A47FE133e42150925"
      },
      {
        "passId": "478",
        "signer": "0xfF005BEF602aDc07Aa45b6730CB356d441146142"
      },
      {
        "passId": "479",
        "signer": "0xCAA39a1Bf0237d338D8E6789E8E88D355fbC0DCC"
      },
      {
        "passId": "480",
        "signer": "0x4f765D6FA4Fb880e8bc3b5602061fB7AF1eA790b"
      },
      {
        "passId": "481",
        "signer": "0x75ef913CF8cd01Dac0eCdD53ED20B757591Eaf5E"
      },
      {
        "passId": "482",
        "signer": "0x554d74385d0F8e393Aa18e923D63F4b7F2a15CED"
      },
      {
        "passId": "483",
        "signer": "0xEFB306ddCd44cEf1D04443c7454Ec672aDf6E2cD"
      },
      {
        "passId": "484",
        "signer": "0x3F41809e43B09d2956396E5f5D3aEaA1D7C8Cf84"
      },
      {
        "passId": "485",
        "signer": "0xc22B3759eC5322500F3B2791B654697A81D91E0F"
      },
      {
        "passId": "486",
        "signer": "0x7062255B80f2E51A465B75F4F7063c1B3912FD95"
      },
      {
        "passId": "487",
        "signer": "0xD50b05D04EBb633F1d6065d2ac4e9aF450F98038"
      },
      {
        "passId": "488",
        "signer": "0xa0b294E4C17c8A6d3e3b98F297e1bF0efb98cE4e"
      },
      {
        "passId": "489",
        "signer": "0xB08753fb361825F9742a4BC406C2a79Dd7526170"
      },
      {
        "passId": "490",
        "signer": "0x20fBA50effbd12FE23F1CABBdAFbCd9ab835C41B"
      },
      {
        "passId": "491",
        "signer": "0xB2493E77447a7F6614b0D566124eAEBa5776AFd0"
      },
      {
        "passId": "492",
        "signer": "0x54C83b31Fd1A59AA2ef8b8C9cB3D91335B658f55"
      },
      {
        "passId": "493",
        "signer": "0x56ABFbD8Dbaed8B3acbc31A77f374047e54DE02d"
      },
      {
        "passId": "494",
        "signer": "0x484C4FEdbE61DE7E0384E25105486A260b848Ba3"
      },
      {
        "passId": "495",
        "signer": "0x92d6CB17d07dE99f927039EB37e80b2EecA2eca0"
      },
      {
        "passId": "496",
        "signer": "0x752E97fFB08DfbDB9aCD869Bf0c1ad15DF2d57ae"
      },
      {
        "passId": "497",
        "signer": "0xF3053112601b7df1686DC01981D04f5A25aE60db"
      },
      {
        "passId": "498",
        "signer": "0xd21f6Cbd70ECF7F969a24D66809AeBC1eBb15A70"
      },
      {
        "passId": "499",
        "signer": "0xBdCe8E08EB286FaD751B89a14214D0Cc125319D6"
      },
      {
        "passId": "500",
        "signer": "0x807C796Ca722acF1CF81b6F748d09DE72cF6a1c4"
      },
      {
        "passId": "501",
        "signer": "0xcee6108B86c1512F6e6DBA7D62A69B7f3326ceB0"
      },
      {
        "passId": "502",
        "signer": "0x23eeF0D136e42e0c42DE3bB4a661Be64a7b710A4"
      },
      {
        "passId": "503",
        "signer": "0xb7c7eB8125623b84d29A7B44155474422256dC29"
      },
      {
        "passId": "504",
        "signer": "0xa6b68CA12BFd3c3C2dB311d1CdB3B8ae6983064E"
      },
      {
        "passId": "505",
        "signer": "0xD4903Dd5719b6D8b9DF99F030e6fe70F96Cf6D8C"
      },
      {
        "passId": "506",
        "signer": "0x44A52f08A9ab837B9af1833dd2c2ADa53b35Df92"
      },
      {
        "passId": "507",
        "signer": "0x5f8DB22759241375B7061a8b3D2820C6B11Ba678"
      },
      {
        "passId": "508",
        "signer": "0x7E1289E77C9c4c654D1C087B4571e9a58243514F"
      },
      {
        "passId": "509",
        "signer": "0x4797c2B62d7453251B6990C756d2102a5e463627"
      },
      {
        "passId": "510",
        "signer": "0x22FA510E421DF2bb9baAf48f550566B40FDd2a94"
      },
      {
        "passId": "511",
        "signer": "0xD0E47E8F124E0A73fBE8B46d908e37E585efc117"
      }
    ]
  },
  "solcInputHash": "5a48e5b1f0f3a25ed0bc54ca83d3b3de",
  "bytecode": "0x6101806040523480156200001257600080fd5b5060405162001f9138038062001f91833981016040819052620000359162000087565b6001600160a01b0397881660805291871660a05290951660c05260e094909452610100929092526101205261014052610160526200010d565b6001600160a01b03811681146200008457600080fd5b50565b600080600080600080600080610100898b031215620000a557600080fd5b8851620000b2816200006e565b809850506020890151965060408901519550606089015194506080890151935060a0890151620000e2816200006e565b60c08a0151909350620000f5816200006e565b8092505060e089015190509295985092959890939650565b60805160a05160c05160e05161010051610120516101405161016051611da7620001ea6000396000818161049d015281816109590152610d2c0152600081816101890152818161047c015281816104fc0152818161077e015281816109360152610e5301526000818161045b015281816109130152610e7b01526000818161043a015281816108f00152610ea10152600081816104be0152818161097c01528181610ec70152610f03015260006110fc0152600081816109cd0152610ffa01526000818161082101528181610b9e01526110930152611da76000f3fe6080604052600436106100705760003560e01c8063990b0f601161004e578063990b0f60146100f15780639c20551314610121578063d10bca8b14610134578063e31b3a681461016757600080fd5b80632558e933146100755780636d048d531461008a5780637361a72e146100de575b600080fd5b6100886100833660046117d0565b610187565b005b34801561009657600080fd5b506100aa6100a53660046118d2565b61042f565b6040805196875260208701959095529385019290925260608401526080830152151560a082015260c0015b60405180910390f35b6100886100ec3660046118f6565b6104fa565b3480156100fd57600080fd5b5061011161010c366004611960565b610730565b60405190151581526020016100d5565b61008861012f366004611979565b61077c565b34801561014057600080fd5b5061015461014f3660046119b0565b610814565b6040516100d59796959493929190611a38565b34801561017357600080fd5b50610088610182366004611979565b6109b5565b7f000000000000000000000000000000000000000000000000000000000000000042101561041e57610200831061021f576040517f08c379a000000000000000000000000000000000000000000000000000000000815260206004820152600f60248201527f494e56414c49445f504153535f4944000000000000000000000000000000000060448201526064015b60405180910390fd5b60ff8311156102b557600061023661010085611aec565b60018054911b91508116156102a7576040517f08c379a000000000000000000000000000000000000000000000000000000000815260206004820152601160248201527f504153535f414c52454144595f555345440000000000000000000000000000006044820152606401610216565b600180549091179055610330565b6000546001841b90811615610326576040517f08c379a000000000000000000000000000000000000000000000000000000000815260206004820152601160248201527f504153535f414c52454144595f555345440000000000000000000000000000006044820152606401610216565b6000805490911790555b600061039b83858760405160200161037792919091825260601b7fffffffffffffffffffffffffffffffffffffffff00000000000000000000000016602082015260340190565b60405160208183030381529060405280519060200120610bff90919063ffffffff16565b905060006103a98583610c23565b90506103b58382610c84565b61041b576040517f08c379a000000000000000000000000000000000000000000000000000000000815260206004820152600d60248201527f494e56414c49445f50524f4f46000000000000000000000000000000000000006044820152606401610216565b50505b6104288585610d51565b5050505050565b6000806000806000807f00000000000000000000000000000000000000000000000000000000000000007f00000000000000000000000000000000000000000000000000000000000000007f00000000000000000000000000000000000000000000000000000000000000007f00000000000000000000000000000000000000000000000000000000000000007f00000000000000000000000000000000000000000000000000000000000000006104e68c6110f5565b949c939b5091995097509550909350915050565b7f000000000000000000000000000000000000000000000000000000000000000042101561072057610200821061058d576040517f08c379a000000000000000000000000000000000000000000000000000000000815260206004820152600f60248201527f494e56414c49445f504153535f494400000000000000000000000000000000006044820152606401610216565b60ff8211156106235760006105a461010084611aec565b60018054911b9150811615610615576040517f08c379a000000000000000000000000000000000000000000000000000000000815260206004820152601160248201527f504153535f414c52454144595f555345440000000000000000000000000000006044820152606401610216565b60018054909117905561069e565b6000546001831b90811615610694576040517f08c379a000000000000000000000000000000000000000000000000000000000815260206004820152601160248201527f504153535f414c52454144595f555345440000000000000000000000000000006044820152606401610216565b6000805490911790555b3360006106ab8483610c23565b90506106b78382610c84565b61071d576040517f08c379a000000000000000000000000000000000000000000000000000000000815260206004820152600d60248201527f494e56414c49445f50524f4f46000000000000000000000000000000000000006044820152606401610216565b50505b61072a8484610d51565b50505050565b60006101ff82111561074457506000919050565b60ff82111561076c57600061075b61010084611aec565b60018054911b908116149392505050565b50600054600190911b9081161490565b7f0000000000000000000000000000000000000000000000000000000000000000421015610806576040517f08c379a000000000000000000000000000000000000000000000000000000000815260206004820152601460248201527f524551554952455f504153535f4f525f574149540000000000000000000000006044820152606401610216565b6108108282610d51565b5050565b60606000806000806000807f000000000000000000000000000000000000000000000000000000000000000073ffffffffffffffffffffffffffffffffffffffff1663a0554c268a8a6040518363ffffffff1660e01b815260040161087a929190611b03565b60006040518083038186803b15801561089257600080fd5b505afa1580156108a6573d6000803e3d6000fd5b505050506040513d6000823e601f3d9081017fffffffffffffffffffffffffffffffffffffffffffffffffffffffffffffffe01682016040526108ec9190810190611b58565b96507f000000000000000000000000000000000000000000000000000000000000000095507f000000000000000000000000000000000000000000000000000000000000000094507f000000000000000000000000000000000000000000000000000000000000000093507f000000000000000000000000000000000000000000000000000000000000000092507f000000000000000000000000000000000000000000000000000000000000000091506109a68a6110f5565b90509397509397509397909450565b3373ffffffffffffffffffffffffffffffffffffffff7f00000000000000000000000000000000000000000000000000000000000000001614610a54576040517f08c379a000000000000000000000000000000000000000000000000000000000815260206004820152600e60248201527f4e4f545f415554484f52495a45440000000000000000000000000000000000006044820152606401610216565b6102408261ffff1610610ac3576040517f08c379a000000000000000000000000000000000000000000000000000000000815260206004820152600d60248201527f494e56414c49445f534f554e44000000000000000000000000000000000000006044820152606401610216565b6000610ad860106103ff600686901c16611c21565b90508060061480610ae95750806008145b610b4f576040517f08c379a000000000000000000000000000000000000000000000000000000000815260206004820152600860248201527f666f722073616c650000000000000000000000000000000000000000000000006044820152606401610216565b6040517f9c20551300000000000000000000000000000000000000000000000000000000815261ffff8416600482015273ffffffffffffffffffffffffffffffffffffffff83811660248301527f00000000000000000000000000000000000000000000000000000000000000001690639c20551390604401600060405180830381600087803b158015610be257600080fd5b505af1158015610bf6573d6000803e3d6000fd5b50505050505050565b6000806000610c0e858561125e565b91509150610c1b816112ce565b509392505050565b60008282604051602001610c6692919091825260601b7fffffffffffffffffffffffffffffffffffffffff00000000000000000000000016602082015260340190565b60405160208183030381529060405280519060200120905092915050565b6000805b8351811015610d28576000848281518110610ca557610ca5611c35565b6020026020010151905080841015610ce8576040805160208101869052908101829052606001604051602081830303815290604052805190602001209350610d15565b60408051602081018390529081018590526060016040516020818303038152906040528051906020012093505b5080610d2081611c64565b915050610c88565b50507f000000000000000000000000000000000000000000000000000000000000000014919050565b6102408261ffff1610610dc0576040517f08c379a000000000000000000000000000000000000000000000000000000000815260206004820152600d60248201527f494e56414c49445f534f554e44000000000000000000000000000000000000006044820152606401610216565b6000610dd560106103ff600686901c16611c21565b905080600614158015610de9575080600814155b610e4f576040517f08c379a000000000000000000000000000000000000000000000000000000000815260206004820152601960248201527f546865736520626c6565707320617265207265736572766564000000000000006044820152606401610216565b60007f0000000000000000000000000000000000000000000000000000000000000000421015610e9f577f0000000000000000000000000000000000000000000000000000000000000000610ec1565b7f00000000000000000000000000000000000000000000000000000000000000005b905060007f0000000000000000000000000000000000000000000000000000000000000000118015610ef75750610ef7336110f5565b15610f3f576064610f287f000000000000000000000000000000000000000000000000000000000000000083611c9d565b610f329190611cda565b610f3c9082611aec565b90505b80341015610fa9576040517f08c379a000000000000000000000000000000000000000000000000000000000815260206004820152600a60248201527f4e4f545f454e4f554748000000000000000000000000000000000000000000006044820152606401610216565b336108fc610fb78334611aec565b6040518115909202916000818181858888f19350505050158015610fdf573d6000803e3d6000fd5b5060405173ffffffffffffffffffffffffffffffffffffffff7f0000000000000000000000000000000000000000000000000000000000000000169082156108fc029083906000818181858888f19350505050158015611043573d6000803e3d6000fd5b506040517f9c20551300000000000000000000000000000000000000000000000000000000815261ffff8516600482015273ffffffffffffffffffffffffffffffffffffffff84811660248301527f00000000000000000000000000000000000000000000000000000000000000001690639c20551390604401600060405180830381600087803b1580156110d757600080fd5b505af11580156110eb573d6000803e3d6000fd5b5050505050505050565b60008060007f000000000000000000000000000000000000000000000000000000000000000073ffffffffffffffffffffffffffffffffffffffff168460405160240161115e919073ffffffffffffffffffffffffffffffffffffffff91909116815260200190565b604080517fffffffffffffffffffffffffffffffffffffffffffffffffffffffffffffffe08184030181529181526020820180517bffffffffffffffffffffffffffffffffffffffffffffffffffffffff167f70a0823100000000000000000000000000000000000000000000000000000000179052516111df9190611cee565b600060405180830381855afa9150503d806000811461121a576040519150601f19603f3d011682016040523d82523d6000602084013e61121f565b606091505b50915091506000828015611234575060008251115b61123f576000611253565b818060200190518101906112539190611d29565b151595945050505050565b6000808251604114156112955760208301516040840151606085015160001a6112898782858561152a565b945094505050506112c7565b8251604014156112bf57602083015160408401516112b4868383611642565b9350935050506112c7565b506000905060025b9250929050565b60008160048111156112e2576112e2611d42565b14156112eb5750565b60018160048111156112ff576112ff611d42565b1415611367576040517f08c379a000000000000000000000000000000000000000000000000000000000815260206004820152601860248201527f45434453413a20696e76616c6964207369676e617475726500000000000000006044820152606401610216565b600281600481111561137b5761137b611d42565b14156113e3576040517f08c379a000000000000000000000000000000000000000000000000000000000815260206004820152601f60248201527f45434453413a20696e76616c6964207369676e6174757265206c656e677468006044820152606401610216565b60038160048111156113f7576113f7611d42565b1415611485576040517f08c379a000000000000000000000000000000000000000000000000000000000815260206004820152602260248201527f45434453413a20696e76616c6964207369676e6174757265202773272076616c60448201527f75650000000000000000000000000000000000000000000000000000000000006064820152608401610216565b600481600481111561149957611499611d42565b1415611527576040517f08c379a000000000000000000000000000000000000000000000000000000000815260206004820152602260248201527f45434453413a20696e76616c6964207369676e6174757265202776272076616c60448201527f75650000000000000000000000000000000000000000000000000000000000006064820152608401610216565b50565b6000807f7fffffffffffffffffffffffffffffff5d576e7357a4501ddfe92f46681b20a08311156115615750600090506003611639565b8460ff16601b1415801561157957508460ff16601c14155b1561158a5750600090506004611639565b6040805160008082526020820180845289905260ff881692820192909252606081018690526080810185905260019060a0016020604051602081039080840390855afa1580156115de573d6000803e3d6000fd5b50506040517fffffffffffffffffffffffffffffffffffffffffffffffffffffffffffffffe0015191505073ffffffffffffffffffffffffffffffffffffffff811661163257600060019250925050611639565b9150600090505b94509492505050565b6000807f7fffffffffffffffffffffffffffffffffffffffffffffffffffffffffffffff831660ff84901c601b0161167c8782888561152a565b935093505050935093915050565b803561ffff8116811461169c57600080fd5b919050565b73ffffffffffffffffffffffffffffffffffffffff8116811461152757600080fd5b7f4e487b7100000000000000000000000000000000000000000000000000000000600052604160045260246000fd5b604051601f82017fffffffffffffffffffffffffffffffffffffffffffffffffffffffffffffffe016810167ffffffffffffffff81118282101715611739576117396116c3565b604052919050565b600067ffffffffffffffff82111561175b5761175b6116c3565b5060051b60200190565b600082601f83011261177657600080fd5b8135602061178b61178683611741565b6116f2565b82815260059290921b840181019181810190868411156117aa57600080fd5b8286015b848110156117c557803583529183019183016117ae565b509695505050505050565b600080600080600060a086880312156117e857600080fd5b6117f18661168a565b9450602080870135611802816116a1565b945060408701359350606087013567ffffffffffffffff8082111561182657600080fd5b818901915089601f83011261183a57600080fd5b81358181111561184c5761184c6116c3565b61187c847fffffffffffffffffffffffffffffffffffffffffffffffffffffffffffffffe0601f840116016116f2565b8181528b8583860101111561189057600080fd5b8185850186830137600091810190940152919350608088013591808311156118b757600080fd5b50506118c588828901611765565b9150509295509295909350565b6000602082840312156118e457600080fd5b81356118ef816116a1565b9392505050565b6000806000806080858703121561190c57600080fd5b6119158561168a565b93506020850135611925816116a1565b925060408501359150606085013567ffffffffffffffff81111561194857600080fd5b61195487828801611765565b91505092959194509250565b60006020828403121561197257600080fd5b5035919050565b6000806040838503121561198c57600080fd5b6119958361168a565b915060208301356119a5816116a1565b809150509250929050565b6000806000604084860312156119c557600080fd5b83356119d0816116a1565b9250602084013567ffffffffffffffff808211156119ed57600080fd5b818601915086601f830112611a0157600080fd5b813581811115611a1057600080fd5b8760208260051b8501011115611a2557600080fd5b6020830194508093505050509250925092565b60e08082528851908201819052600090602090610100840190828c01845b82811015611a8857815173ffffffffffffffffffffffffffffffffffffffff1684529284019290840190600101611a56565b505050908301989098525060408101959095526060850193909352608084019190915260a0830152151560c090910152919050565b7f4e487b7100000000000000000000000000000000000000000000000000000000600052601160045260246000fd5b600082821015611afe57611afe611abd565b500390565b6020815281602082015260007f07ffffffffffffffffffffffffffffffffffffffffffffffffffffffffffffff831115611b3c57600080fd5b8260051b80856040850137600092016040019182525092915050565b60006020808385031215611b6b57600080fd5b825167ffffffffffffffff811115611b8257600080fd5b8301601f81018513611b9357600080fd5b8051611ba161178682611741565b81815260059190911b82018301908381019087831115611bc057600080fd5b928401925b82841015611be7578351611bd8816116a1565b82529284019290840190611bc5565b979650505050505050565b7f4e487b7100000000000000000000000000000000000000000000000000000000600052601260045260246000fd5b600082611c3057611c30611bf2565b500690565b7f4e487b7100000000000000000000000000000000000000000000000000000000600052603260045260246000fd5b60007fffffffffffffffffffffffffffffffffffffffffffffffffffffffffffffffff821415611c9657611c96611abd565b5060010190565b6000817fffffffffffffffffffffffffffffffffffffffffffffffffffffffffffffffff0483118215151615611cd557611cd5611abd565b500290565b600082611ce957611ce9611bf2565b500490565b6000825160005b81811015611d0f5760208186018101518583015201611cf5565b81811115611d1e576000828501525b509190910192915050565b600060208284031215611d3b57600080fd5b5051919050565b7f4e487b7100000000000000000000000000000000000000000000000000000000600052602160045260246000fdfea264697066735822122066f7d18752475c84b45d7d77a9d44bbf9eff9978603e7534260e3dc9f89fe19f64736f6c63430008090033",
  "devdoc": {
    "kind": "dev",
    "methods": {},
    "version": 1
  },
  "userdoc": {
    "kind": "user",
    "methods": {},
    "version": 1
  },
  "storageLayout": {
    "storage": [
      {
        "astId": 9128,
        "contract": "src/bleeps/BleepsFixedPriceSale.sol:BleepsFixedPriceSale",
        "label": "_passUsed_1",
        "offset": 0,
        "slot": "0",
        "type": "t_uint256"
      },
      {
        "astId": 9130,
        "contract": "src/bleeps/BleepsFixedPriceSale.sol:BleepsFixedPriceSale",
        "label": "_passUsed_2",
        "offset": 0,
        "slot": "1",
        "type": "t_uint256"
      }
    ],
    "types": {
      "t_uint256": {
        "encoding": "inplace",
        "label": "uint256",
        "numberOfBytes": "32"
      }
    }
  }
}