{
  "address": "0x18Af67a16610E161d00D1e0D96E0B13059a8Bd74",
  "abi": [
    {
      "inputs": [
        {
          "internalType": "contract Bleeps",
          "name": "bleeps",
          "type": "address"
        },
        {
          "internalType": "uint256",
          "name": "price",
          "type": "uint256"
        },
        {
          "internalType": "uint256",
          "name": "whitelistPrice",
          "type": "uint256"
        },
        {
          "internalType": "uint256",
          "name": "whitelistTimeLimit",
          "type": "uint256"
        },
        {
          "internalType": "bytes32",
          "name": "whitelistMerkleRoot",
          "type": "bytes32"
        },
        {
          "internalType": "address payable",
          "name": "recipient",
          "type": "address"
        },
        {
          "internalType": "contract IERC721",
          "name": "mandalas",
          "type": "address"
        },
        {
          "internalType": "uint256",
          "name": "mandalasDiscountPercentage",
          "type": "uint256"
        }
      ],
      "stateMutability": "nonpayable",
      "type": "constructor"
    },
    {
      "inputs": [
        {
          "internalType": "uint256",
          "name": "passId",
          "type": "uint256"
        }
      ],
      "name": "isPassUsed",
      "outputs": [
        {
          "internalType": "bool",
          "name": "",
          "type": "bool"
        }
      ],
      "stateMutability": "nonpayable",
      "type": "function"
    },
    {
      "inputs": [
        {
          "internalType": "uint256",
          "name": "id",
          "type": "uint256"
        }
      ],
      "name": "isReserved",
      "outputs": [
        {
          "internalType": "bool",
          "name": "",
          "type": "bool"
        }
      ],
      "stateMutability": "nonpayable",
      "type": "function"
    },
    {
      "inputs": [
        {
          "internalType": "uint16",
          "name": "id",
          "type": "uint16"
        },
        {
          "internalType": "address",
          "name": "to",
          "type": "address"
        }
      ],
      "name": "mint",
      "outputs": [],
      "stateMutability": "payable",
      "type": "function"
    },
    {
      "inputs": [
        {
          "internalType": "uint16",
          "name": "id",
          "type": "uint16"
        },
        {
          "internalType": "address",
          "name": "to",
          "type": "address"
        },
        {
          "internalType": "uint256",
          "name": "passId",
          "type": "uint256"
        },
        {
          "internalType": "bytes32[]",
          "name": "proof",
          "type": "bytes32[]"
        }
      ],
      "name": "mintWithPassId",
      "outputs": [],
      "stateMutability": "payable",
      "type": "function"
    },
    {
      "inputs": [
        {
          "internalType": "uint16",
          "name": "id",
          "type": "uint16"
        },
        {
          "internalType": "address",
          "name": "to",
          "type": "address"
        },
        {
          "internalType": "uint256",
          "name": "passId",
          "type": "uint256"
        },
        {
          "internalType": "bytes",
          "name": "signature",
          "type": "bytes"
        },
        {
          "internalType": "bytes32[]",
          "name": "proof",
          "type": "bytes32[]"
        }
      ],
      "name": "mintWithSalePass",
      "outputs": [],
      "stateMutability": "payable",
      "type": "function"
    },
    {
      "inputs": [
        {
          "internalType": "address",
          "name": "purchaser",
          "type": "address"
        },
        {
          "internalType": "uint256[]",
          "name": "ids",
          "type": "uint256[]"
        }
      ],
      "name": "ownersAndPriceInfo",
      "outputs": [
        {
          "internalType": "address[]",
          "name": "addresses",
          "type": "address[]"
        },
        {
          "internalType": "uint256",
          "name": "price",
          "type": "uint256"
        },
        {
          "internalType": "uint256",
          "name": "whitelistPrice",
          "type": "uint256"
        },
        {
          "internalType": "uint256",
          "name": "whitelistTimeLimit",
          "type": "uint256"
        },
        {
          "internalType": "bytes32",
          "name": "whitelistMerkleRoot",
          "type": "bytes32"
        },
        {
          "internalType": "uint256",
          "name": "mandalasDiscountPercentage",
          "type": "uint256"
        },
        {
          "internalType": "bool",
          "name": "hasMandalas",
          "type": "bool"
        }
      ],
      "stateMutability": "view",
      "type": "function"
    },
    {
      "inputs": [
        {
          "internalType": "address",
          "name": "purchaser",
          "type": "address"
        }
      ],
      "name": "priceInfo",
      "outputs": [
        {
          "internalType": "uint256",
          "name": "price",
          "type": "uint256"
        },
        {
          "internalType": "uint256",
          "name": "whitelistPrice",
          "type": "uint256"
        },
        {
          "internalType": "uint256",
          "name": "whitelistTimeLimit",
          "type": "uint256"
        },
        {
          "internalType": "bytes32",
          "name": "whitelistMerkleRoot",
          "type": "bytes32"
        },
        {
          "internalType": "uint256",
          "name": "mandalasDiscountPercentage",
          "type": "uint256"
        },
        {
          "internalType": "bool",
          "name": "hasMandalas",
          "type": "bool"
        }
      ],
      "stateMutability": "view",
      "type": "function"
    },
    {
      "inputs": [
        {
          "internalType": "uint16",
          "name": "id",
          "type": "uint16"
        },
        {
          "internalType": "address",
          "name": "to",
          "type": "address"
        }
      ],
      "name": "recipientMint",
      "outputs": [],
      "stateMutability": "nonpayable",
      "type": "function"
    }
  ],
  "transactionHash": "0xd744d3766cbef97dc93ab19d0bc1edb257f5f6825bc6285caa8b854f9a97f3d0",
  "args": [
    "0x9B5452669DDce553EE59ea77ED8328FCE83fa960",
    "100000000000000000",
    "100000000000000000",
    1637069657,
    "0xf7f547457d4e364e6b6e43225b6f71c3b1abfc459d6cb9d06682bba34181ab82",
    "0xE53cd71271AcAdbeb0f64d9c8C62bBdDc8cA9e66",
    "0x434BADEA3943c5B3D86366Fa03c77201B6770A75",
    0
  ],
  "linkedData": {
    "leaves": [
      {
        "passId": "0",
        "signer": "0x2dEd5ce39E3006e73888F1E553f442B53398F6B3"
      },
      {
        "passId": "1",
        "signer": "0x676915d9B7685b8f92B071695b7507eb2011fA1a"
      },
      {
        "passId": "2",
        "signer": "0xB9946F02acE698044f384bdbC70b964799E9A7d1"
      },
      {
        "passId": "3",
        "signer": "0xfE57f02ae0E2810Ece9E797F3da429Bb3f6E5fd2"
      },
      {
        "passId": "4",
        "signer": "0x96a274fd8603F2C405D2d859600E405138507BA0"
      },
      {
        "passId": "5",
        "signer": "0xd0409Dfa1B57c5B8dd3967c3914C4cfA7d0A2542"
      },
      {
        "passId": "6",
        "signer": "0xCa4787284c4285Ef2cc6fD73d0Cf2318e6722EfA"
      },
      {
        "passId": "7",
        "signer": "0xb2ca016AD5dfaBb462d104B8Dee9584b72caA9B3"
      },
      {
        "passId": "8",
        "signer": "0xa1155d6d5767b811CF090640192b014B67839871"
      },
      {
        "passId": "9",
        "signer": "0x668CDF3Ba883a6b403D7440AF60b5aB6C5cEE231"
      },
      {
        "passId": "10",
        "signer": "0x3238ff336eb55789707ED3f604062bE802F331dF"
      },
      {
        "passId": "11",
        "signer": "0xA8a965a2D38d777207Db4BFDc56520d364E38EE2"
      },
      {
        "passId": "12",
        "signer": "0x16DD7e764A8cE8d5e722fA267Fd810769dB8094b"
      },
      {
        "passId": "13",
        "signer": "0x11Ba611017B69c5A53bC0B01EF928415175D7Cef"
      },
      {
        "passId": "14",
        "signer": "0xd878893Dcc7e7A0845A8b25bCAa07e6a612Ce19E"
      },
      {
        "passId": "15",
        "signer": "0x27956CF93A411dc697d576EaB0809cD003b26089"
      },
      {
        "passId": "16",
        "signer": "0xca9d72b386bA67561a51CA229F29515772F49b3b"
      },
      {
        "passId": "17",
        "signer": "0x30e20179E1e8deBEe488482cAa58707db1a7cD3C"
      },
      {
        "passId": "18",
        "signer": "0x39F437b2CF9136005De09C3aFC777037b599E891"
      },
      {
        "passId": "19",
        "signer": "0x58358D5d2D28Fedff56C50dab816f7701aa4efF4"
      },
      {
        "passId": "20",
        "signer": "0x5Fec64Ccd0aF65d195c87C81943c4201a8072274"
      },
      {
        "passId": "21",
        "signer": "0xfBc6341c71db5FCb22DF6a8fACEE8E4751878db0"
      },
      {
        "passId": "22",
        "signer": "0x085B1445468C91a88c5D762ea472744A6CB988b2"
      },
      {
        "passId": "23",
        "signer": "0x0074Dc3A69751DD138871C27FCa9c4f0C342f8F4"
      },
      {
        "passId": "24",
        "signer": "0x3C64b18026588d7c7B54430232F90FFB32c2DcDB"
      },
      {
        "passId": "25",
        "signer": "0x66290bA3A6837Ee115BeE576AF237cf0Cd095011"
      },
      {
        "passId": "26",
        "signer": "0x69b66576283Db7aB14f91512f5ce38F92c0F1252"
      },
      {
        "passId": "27",
        "signer": "0x423DB7A4889EF443f44E410b7720881412fadFF7"
      },
      {
        "passId": "28",
        "signer": "0xB60E2B97e95A782550239a35be265C89A9541E9c"
      },
      {
        "passId": "29",
        "signer": "0x8567581d8Ec6cC848d702Da0b72087939741103c"
      },
      {
        "passId": "30",
        "signer": "0xF9Dd5AFccF0b696F7e2A6Df6609B1fB273F3BCF4"
      },
      {
        "passId": "31",
        "signer": "0xFc605CA4816A3cb254f61B636295D1aDdA397aCB"
      },
      {
        "passId": "32",
        "signer": "0x1b4Bd4bd87e8a597Fd95A3472fA369f90c2d8aB8"
      },
      {
        "passId": "33",
        "signer": "0xBF205eF133A6Bd3609DCD1b5431914512cF009d0"
      },
      {
        "passId": "34",
        "signer": "0xab741322a48dc1CF30D0ba8c2A0bA715ab073C86"
      },
      {
        "passId": "35",
        "signer": "0x59a515B3c22e2C702612A0619Ab1894E659EC260"
      },
      {
        "passId": "36",
        "signer": "0x43775dD4b545fa1cA7E106d11607feCA778C31A9"
      },
      {
        "passId": "37",
        "signer": "0x3b6A9CF3f12b7380d69387B341AeED8D295ca70c"
      },
      {
        "passId": "38",
        "signer": "0x11265caCE3bAcC76C2E2ADD0C51Cfe03F4062850"
      },
      {
        "passId": "39",
        "signer": "0x7369005A18bd8E16DB4dF0A521Ed1194150b7b55"
      },
      {
        "passId": "40",
        "signer": "0xd37581c2b9DEEA87d6632c48559F9a7288cBFf07"
      },
      {
        "passId": "41",
        "signer": "0x6fC1e2D3bC00848f8E995c9924217a4168DB2D55"
      },
      {
        "passId": "42",
        "signer": "0x2Fc1d062496b6533DA8eD1258ca04455F08916A0"
      },
      {
        "passId": "43",
        "signer": "0xCE658aEaE6F8bDc1eBa915C52186AB20328625c3"
      },
      {
        "passId": "44",
        "signer": "0x985a8B30B40e6dBEdd49B1836CfdEC63B3776893"
      },
      {
        "passId": "45",
        "signer": "0x9ee5bDfE0502397911Aa46865Ca573F5eeC5d7F5"
      },
      {
        "passId": "46",
        "signer": "0xbf0F71aFb77cac3d3a977B4593fC26A0Ab0d9B4B"
      },
      {
        "passId": "47",
        "signer": "0x121227fFf8fdBFd65a1E16306F32A559E3768C6c"
      },
      {
        "passId": "48",
        "signer": "0x916396Dc0571b829CFc4a8C383DCD8BC764B08a2"
      },
      {
        "passId": "49",
        "signer": "0x20595644E1Fae672444fBcAdf07CC22DAE6F0Dff"
      },
      {
        "passId": "50",
        "signer": "0x9107d1B9785c5a878e596a88E2B13273ac3ea059"
      },
      {
        "passId": "51",
        "signer": "0x4Dd4995F750eA26369C60B2f05B27B9e06E56c72"
      },
      {
        "passId": "52",
        "signer": "0xCC53D41534F0Ec9132bD1cE52f4Fd56B5Fd2b97E"
      },
      {
        "passId": "53",
        "signer": "0xF51681a852606D8fd8166df149BF971CCA92Fb46"
      },
      {
        "passId": "54",
        "signer": "0x77590a788f57adeC490F00B2941808e1F4587bf3"
      },
      {
        "passId": "55",
        "signer": "0x2EB9776f94bbe4D619d6Ee1Ec6Ac2F2d5eEB80B7"
      },
      {
        "passId": "56",
        "signer": "0xAb5f292B99ba7F8421d734c77ace7c7e18B6A4E1"
      },
      {
        "passId": "57",
        "signer": "0xA211fA5b7EcCc2f386Deb9D8132A1775691e06C8"
      },
      {
        "passId": "58",
        "signer": "0xCEeFa448144CF854126d9744efA243e851D6836B"
      },
      {
        "passId": "59",
        "signer": "0xC2bdD515334a13aC4e3f4F02111aCb7dAa18bb56"
      },
      {
        "passId": "60",
        "signer": "0x5f32ac42Efeb8468e4c8151d7961bfb79C7b049C"
      },
      {
        "passId": "61",
        "signer": "0x8cA49C78258932Fe6AacD754149877Ff222E4480"
      },
      {
        "passId": "62",
        "signer": "0x14948db0ceAc277325a7C97A8CD2a1A58ED5ab30"
      },
      {
        "passId": "63",
        "signer": "0x9c2777Fb660036BD7e6b755fBCE82Ca5D63f1079"
      },
      {
        "passId": "64",
        "signer": "0xe1034aaB1DF97F39b0e7A5A9BA0D21984C9cDFE4"
      },
      {
        "passId": "65",
        "signer": "0x75EA2ac2b59dac5800b75f9fEcF63429A577087a"
      },
      {
        "passId": "66",
        "signer": "0xC35e23d7773EFa18B3539E71C2EC39206be47bF8"
      },
      {
        "passId": "67",
        "signer": "0x06c7cE5Da4fEBb205a16090650b7D2B753d3c5E6"
      },
      {
        "passId": "68",
        "signer": "0x48B1023d034346a895cAC9445c41550dC6820764"
      },
      {
        "passId": "69",
        "signer": "0xAc420E12866eB832773c0d1111F1b7837443Bdeb"
      },
      {
        "passId": "70",
        "signer": "0xf6a1Cb9D3e8E0B85F323c845Ec17099a901e8397"
      },
      {
        "passId": "71",
        "signer": "0xd6dCb4B2CEF88cDAF9BA83c2ca0DFB1Aa0B88acb"
      },
      {
        "passId": "72",
        "signer": "0xec070F0e7e3A9660597DCC03b23262f3DF41FB4c"
      },
      {
        "passId": "73",
        "signer": "0x92178Cea4eDDa9213c5e755E0b194aB57B14E875"
      },
      {
        "passId": "74",
        "signer": "0x7F07bC3Bd1A1DDbF39dE56D1e19394CFd3b96D17"
      },
      {
        "passId": "75",
        "signer": "0x529E6C5cDF22923282af040422748ea43DC0ED82"
      },
      {
        "passId": "76",
        "signer": "0x32cDc81EA00Ca5eeF1ED2CcB15077a6d51e2a149"
      },
      {
        "passId": "77",
        "signer": "0x933eecE68ceF23AC83Ce12c86b9b6D0F268E6369"
      },
      {
        "passId": "78",
        "signer": "0x6f1e825ff4226b4607efF98Db4D814054ae521Db"
      },
      {
        "passId": "79",
        "signer": "0xde45a52CD4410E3cE32B332Bc4bB00bF6F9e508e"
      },
      {
        "passId": "80",
        "signer": "0x70E88A3BDFe448ABA2B4FcBDd3EFd3a9e8175c38"
      },
      {
        "passId": "81",
        "signer": "0xf7d71f5605c7891cad18eEB670bc1A69E927C825"
      },
      {
        "passId": "82",
        "signer": "0x8f5633049AB637c9d4398311ad07438fE7e7daFD"
      },
      {
        "passId": "83",
        "signer": "0xD1A42064211592418D8d6BC1cBB6A78664C2A2c1"
      },
      {
        "passId": "84",
        "signer": "0x050A6307ee044e8116CCE648d273afaF0e39034F"
      },
      {
        "passId": "85",
        "signer": "0x9138eeA19a58d6A2F82771A85556709BC9313859"
      },
      {
        "passId": "86",
        "signer": "0x861Cc4be4b5368E3E09F989E2c9aD1f90bADd544"
      },
      {
        "passId": "87",
        "signer": "0xBa62068A7ab238b175b269CaB73C541dbcb04d32"
      },
      {
        "passId": "88",
        "signer": "0x2bA87B240150163d0Ccd686eA5ebA693623CEb7B"
      },
      {
        "passId": "89",
        "signer": "0xA42f936FEF445171049aAC394e62dE501beF0e24"
      },
      {
        "passId": "90",
        "signer": "0x422753B98bfF40684f9eECBf54D068De673767E5"
      },
      {
        "passId": "91",
        "signer": "0x22e3C91c920DAFCB764457548D60ed70e256e75e"
      },
      {
        "passId": "92",
        "signer": "0x7A0e0072faCd44f1C412254a25Ab661415BFA992"
      },
      {
        "passId": "93",
        "signer": "0x93505076028b19C7768f6855eC5e76B511ECe635"
      },
      {
        "passId": "94",
        "signer": "0x6b75aAD112CD736e142dCc8771633d5111B20c5D"
      },
      {
        "passId": "95",
        "signer": "0x6B9E61421F94C1e00b0EDEBD7894E07876f5E0e9"
      },
      {
        "passId": "96",
        "signer": "0x0c3AC1a2aeacEc0F26a74Be84F2DB4d510470Ec9"
      },
      {
        "passId": "97",
        "signer": "0x6AF874Bf028a980E8cb0D0a6258cF40F75C7d176"
      },
      {
        "passId": "98",
        "signer": "0x3e36dE11090905a7A6c73cdEEA1Bd7b5ef190Bd2"
      },
      {
        "passId": "99",
        "signer": "0xdd98bDcAc580Ef870213a122f4B1a2865cEC7ec4"
      },
      {
        "passId": "100",
        "signer": "0x60691aB28f7eFEC58339ec9cff20b5D8e8e4d6b1"
      },
      {
        "passId": "101",
        "signer": "0x753BFb75A0ED28bDc8AD3Da9b914C3C9B5b019cf"
      },
      {
        "passId": "102",
        "signer": "0x999D6d19b17437265eBcb71EDF1E71930b86E95B"
      },
      {
        "passId": "103",
        "signer": "0xa7569036293137Ce595272a9A5fDdbcd855F3b64"
      },
      {
        "passId": "104",
        "signer": "0x663E820fA257d5845032eCE565eD6329612dDbE4"
      },
      {
        "passId": "105",
        "signer": "0xE2aD61FDD3358c0418D012F41C41b5a3Ae5039F4"
      },
      {
        "passId": "106",
        "signer": "0xfe3B4C80e01F88D114ac55bb3EB09e722454923e"
      },
      {
        "passId": "107",
        "signer": "0x42dA48F9f0E143C12EFd6a3EbAf610e6ac257471"
      },
      {
        "passId": "108",
        "signer": "0x96EA7D76D9d3D7f58ca4E8e29Cd80FA9D013ea14"
      },
      {
        "passId": "109",
        "signer": "0xB1D2a2f592D7ACdc0B539B237CeF44774DEE6804"
      },
      {
        "passId": "110",
        "signer": "0x9D8C54494b5f4Cec86a1338464a47f4997a24FBf"
      },
      {
        "passId": "111",
        "signer": "0xDabA79Ad9248b4592522fa07261Fcddb5A5a7Acc"
      },
      {
        "passId": "112",
        "signer": "0x45191aE608b8a11f1FD32a5201cA351BEaE33ea1"
      },
      {
        "passId": "113",
        "signer": "0x4D74902546eFE7E3e474ED62DF8924f64A9ab773"
      },
      {
        "passId": "114",
        "signer": "0xB779676cBF02258293515F7D266087538a1df780"
      },
      {
        "passId": "115",
        "signer": "0xE8870E71759C5c40d37F17723680006ADe20065e"
      },
      {
        "passId": "116",
        "signer": "0x33e2bD01F111f71c4943d3a9EDE1B1D4551bbf04"
      },
      {
        "passId": "117",
        "signer": "0xa32C55b35f7710BC4C109B2f613C9E943598bD45"
      },
      {
        "passId": "118",
        "signer": "0xE94a2cC4aF04Fb9F3e643492d95196F47D35920D"
      },
      {
        "passId": "119",
        "signer": "0x2eb906fd397658E7b241797E495Fb173422400B3"
      },
      {
        "passId": "120",
        "signer": "0xe7A24B5F876De9c0F8e910DFD543A669B904EdFA"
      },
      {
        "passId": "121",
        "signer": "0xa489619CFBDf2e92DC1206ed3F5C692c074BBF2C"
      },
      {
        "passId": "122",
        "signer": "0x0b2fa576425412b4130c0D99225e3954065Df74C"
      },
      {
        "passId": "123",
        "signer": "0x002CADD10Ea60FaF9D3575cF2046A27143c155a4"
      },
      {
        "passId": "124",
        "signer": "0xA9d6236150971E257C8C0BC8aff1d8B6795e264F"
      },
      {
        "passId": "125",
        "signer": "0x4E35B3B6dDFb9CF91D2963ad08d9195deC480caA"
      },
      {
        "passId": "126",
        "signer": "0x469f3E0b5dE9D1d0CC9FF5F90e51317086a244cA"
      },
      {
        "passId": "127",
        "signer": "0xD006DFC296e33314c6d2C91f2247c2f3ac2Aa0E2"
      },
      {
        "passId": "128",
        "signer": "0x70Adf40FbA8828D01Fb5aeb72e72FD9B19f51D24"
      },
      {
        "passId": "129",
        "signer": "0xC53304d97bf8f22A133f574AE9e9dC6CEE8F7252"
      },
      {
        "passId": "130",
        "signer": "0xe2A9422749B89E2e2df4e5af1010351270D684dd"
      },
      {
        "passId": "131",
        "signer": "0xDd3badab5b570eF9a0EDC37Ec7E2013c5c879Cf5"
      },
      {
        "passId": "132",
        "signer": "0xa741185b6723fB8AC5A681fAA843837cbe814565"
      },
      {
        "passId": "133",
        "signer": "0x5847E44F6DBBC0ED65E81431d7349CFf57025b76"
      },
      {
        "passId": "134",
        "signer": "0xD12739f0A64a6b787798bD3dc93667747CBB8579"
      },
      {
        "passId": "135",
        "signer": "0x5a1E1a0D9c4BB64aF05bFf0a174819F8A8833491"
      },
      {
        "passId": "136",
        "signer": "0xC4cb4567E401cd29f629BdC88010e43762188A36"
      },
      {
        "passId": "137",
        "signer": "0xA3E99DB2134d04A6213C8C0d5503c59EbEB29f0B"
      },
      {
        "passId": "138",
        "signer": "0x703c86556e88ff153bd96586d5d6d793f4A0C19B"
      },
      {
        "passId": "139",
        "signer": "0x4415448b6f6A1581B9D6aE8A7e2ce0E9C026AAf3"
      },
      {
        "passId": "140",
        "signer": "0xce85F517fa0Ab49A101ce47a007cD956CbAbdA54"
      },
      {
        "passId": "141",
        "signer": "0x7FEcB00576cb634605f556B3DFbC63D22EbcCB69"
      },
      {
        "passId": "142",
        "signer": "0x82955D49ED1999C805af9bF3D2da5151032A99e6"
      },
      {
        "passId": "143",
        "signer": "0xae447C7d3B7999B8B34425159AB9C865653fAee4"
      },
      {
        "passId": "144",
        "signer": "0x74d63F2bE0A52c48ccCF883f9Ee2048D07564Daa"
      },
      {
        "passId": "145",
        "signer": "0xD28911266fEE9E7121417f8d91FD8834eb90EB37"
      },
      {
        "passId": "146",
        "signer": "0xc62157686137287058F5F3Fb96EA4374B2Ca95E9"
      },
      {
        "passId": "147",
        "signer": "0x2d40b346ED5E2d6519cf2c83eD1ABD5bccc439B4"
      },
      {
        "passId": "148",
        "signer": "0xE7C3728E549AE455678D42c08b0e78A67aF02c74"
      },
      {
        "passId": "149",
        "signer": "0x836b2642aE45DE00A2081331aaEB23F84878FB87"
      },
      {
        "passId": "150",
        "signer": "0x12b6B001D6B22a36e632f29c89c170BAa21B6eFb"
      },
      {
        "passId": "151",
        "signer": "0xfB8d0E01174F9cd253bEcFCE0298C7412AA2ad5C"
      },
      {
        "passId": "152",
        "signer": "0xc942b9B5341C0a25C9De64B51e1Ba00526F5B7fE"
      },
      {
        "passId": "153",
        "signer": "0x57A462f302Ea4251BfB468544Dd17Eb681b361B2"
      },
      {
        "passId": "154",
        "signer": "0x7D4f4D9A4936ec5A3c11362672AbA1253B837fd7"
      },
      {
        "passId": "155",
        "signer": "0x3301edf00847E0a6583fD7E8A7E8C90B877De078"
      },
      {
        "passId": "156",
        "signer": "0xF5281f2F7038355F237246E94Cf233E19D1Ec8d9"
      },
      {
        "passId": "157",
        "signer": "0xD386abC07BbfFBABe7b5776A26E68D58260Af412"
      },
      {
        "passId": "158",
        "signer": "0x41461a86858c27F2612131E75ACE56F133785845"
      },
      {
        "passId": "159",
        "signer": "0x6F2fbd3090982Ca1C42bEe53dc962aDF5d07A3c6"
      },
      {
        "passId": "160",
        "signer": "0xAaD97021b8Cf9AC59F2c28048c2615Ab7d2B48C2"
      },
      {
        "passId": "161",
        "signer": "0x6896a0D52Dba69a713Bd591CF28598Eb017A6DAE"
      },
      {
        "passId": "162",
        "signer": "0x074DA2c50fE6a80E9DA8E2ff73E6919A92007c76"
      },
      {
        "passId": "163",
        "signer": "0x8f1e5853878d83db449F11f12F7E1E31e497Af80"
      },
      {
        "passId": "164",
        "signer": "0x01bEec5f0a4efa137E4F44191cf18A62DA50A3ac"
      },
      {
        "passId": "165",
        "signer": "0x0E3F85812D8be41839e7d79695aD929A8282C014"
      },
      {
        "passId": "166",
        "signer": "0x0af3Bc5A076083d3bf1F9292bf4940d433806750"
      },
      {
        "passId": "167",
        "signer": "0x5Faf275b3EEe089791d20338237ace50937b4805"
      },
      {
        "passId": "168",
        "signer": "0x909b23Ee965b0C43FF9aD735C8D3d693284C2939"
      },
      {
        "passId": "169",
        "signer": "0x5fc5E726E9deaa6f20E3543147b5200D99B2A38C"
      },
      {
        "passId": "170",
        "signer": "0x3d72Db74caaADc69a5820f7a2ebBb0E1FBEA21E4"
      },
      {
        "passId": "171",
        "signer": "0xD8e527CA9F4c05DE2A347B7070275d5D2592CF66"
      },
      {
        "passId": "172",
        "signer": "0xa69983ec9cbA90d895345772A541bcFFaC868695"
      },
      {
        "passId": "173",
        "signer": "0x82B8994fF1497ed9C45B7672d18a4C49f79633dA"
      },
      {
        "passId": "174",
        "signer": "0x6173cC3791259c0B02C2E1889bE65f38ddf77eA4"
      },
      {
        "passId": "175",
        "signer": "0x9c22419afD36880decbd79ED304bc3a110647DC2"
      },
      {
        "passId": "176",
        "signer": "0x5c1209B447331532f547597113c686aCfdCF7dDE"
      },
      {
        "passId": "177",
        "signer": "0xA8FA795CC36A8Fc0b10EF2eAE80aaf89B57215Cb"
      },
      {
        "passId": "178",
        "signer": "0x2DD8665622527b13B04C823e02001f9E65C288d6"
      },
      {
        "passId": "179",
        "signer": "0x74f3bE41155112cbC4223fEeb60bA93D7E179a2c"
      },
      {
        "passId": "180",
        "signer": "0xb53f7bB48596A401005B1475AA2Cd93B0990cBd7"
      },
      {
        "passId": "181",
        "signer": "0xcCada1fF0649261c5dc8883E7413A8cf4981f128"
      },
      {
        "passId": "182",
        "signer": "0xf7693Ef134Ab99A84dC81296e10296DD56f16D80"
      },
      {
        "passId": "183",
        "signer": "0xF72eb78c369B9d332132479F000B2114581008e6"
      },
      {
        "passId": "184",
        "signer": "0xa41C49f1e4f5bb378931E4440a4dA854288Aa06e"
      },
      {
        "passId": "185",
        "signer": "0x7FD8399a5a7822af4Da07a47d266c54b132c15EF"
      },
      {
        "passId": "186",
        "signer": "0xB80E09044295f365b56335685337b5Ef338D7867"
      },
      {
        "passId": "187",
        "signer": "0xA1e7A44909439Fe85586F2B84627287468DAcDf0"
      },
      {
        "passId": "188",
        "signer": "0xC9d69e2703d41B22c920Ba307de86a7cF05fbb29"
      },
      {
        "passId": "189",
        "signer": "0x978ed196fd5A30338bff4072F90B2aB1784Dd0f9"
      },
      {
        "passId": "190",
        "signer": "0xd176e8006A7c3c1dF0EbCB213922cE539B1B32B8"
      },
      {
        "passId": "191",
        "signer": "0x45372Fa65d4B79AbB73428f288382616a48b5c0D"
      },
      {
        "passId": "192",
        "signer": "0x260538A20CC2a6B8FE7eC8898d00Db84F8bEAc1d"
      },
      {
        "passId": "193",
        "signer": "0x0218F503C6e5C10728E8014d27872Fb32A0B390b"
      },
      {
        "passId": "194",
        "signer": "0x784914f8e49B1aF9aE41cE1E557db2Cd90735d7a"
      },
      {
        "passId": "195",
        "signer": "0xf2428e1De9304783E0B91Cc6e3Eb175190DCAD3d"
      },
      {
        "passId": "196",
        "signer": "0x4071a29E1b65186f77dE321e9ddA657cd7132216"
      },
      {
        "passId": "197",
        "signer": "0x86337A59af47200F211deBE48cA88EDf8D0b1f94"
      },
      {
        "passId": "198",
        "signer": "0xD81e3BEcced2dFC29650a7cfb8858C2bc1e093b7"
      },
      {
        "passId": "199",
        "signer": "0x3B041C7991Afc39f914550591f137e4Ee55687de"
      },
      {
        "passId": "200",
        "signer": "0x50aE60Bc1cEae8dFa8967B06134b934876263fD0"
      },
      {
        "passId": "201",
        "signer": "0x5266ce9D606B353B9be2D9E16dd70c5F47e9B43a"
      },
      {
        "passId": "202",
        "signer": "0xa5fa4dE389aa6b75A188868dF3DcaF9ea9cdF823"
      },
      {
        "passId": "203",
        "signer": "0x1Dd8856af624bB361cB0Ee26f5249642A3dFAfCF"
      },
      {
        "passId": "204",
        "signer": "0x3c239a1D16115A15362AD17d1E08b479516748E8"
      },
      {
        "passId": "205",
        "signer": "0x22E50622a4d19e01357E83c0798a7c0A59007b20"
      },
      {
        "passId": "206",
        "signer": "0x253b1aBeD2624335b71A4Ba049dEfbD7C6BD76B7"
      },
      {
        "passId": "207",
        "signer": "0x688b5E57c667A2e6A278f5eCb3E221C4bfdc0918"
      },
      {
        "passId": "208",
        "signer": "0xCd37bDF9356AF1144F51BB1b0A2B49673C9F5CB5"
      },
      {
        "passId": "209",
        "signer": "0x3ED84b90d1F0381fF4Ff59EEdb9785ad15E3805c"
      },
      {
        "passId": "210",
        "signer": "0xE76e60AdfcBDf928497e8bA642E45c0786c42516"
      },
      {
        "passId": "211",
        "signer": "0x1fe19C97e1705C622AD39bB24DBF90BBB3dfcbf7"
      },
      {
        "passId": "212",
        "signer": "0xf80A585E781049E74fEAC341155504890F71b554"
      },
      {
        "passId": "213",
        "signer": "0x260Fcff54704F482B7dBe785C32066b4De330cfa"
      },
      {
        "passId": "214",
        "signer": "0x8D9C67ea49AA0Be724591B5C27b3aFd370B06b2A"
      },
      {
        "passId": "215",
        "signer": "0x0952AC28Cd34B45B2a4e20730FaD613d718044f1"
      },
      {
        "passId": "216",
        "signer": "0x5A81411eF07021d147EA2838632291ee381336Ed"
      },
      {
        "passId": "217",
        "signer": "0x463218d1e2dd59103d7e28CDF95b975458269439"
      },
      {
        "passId": "218",
        "signer": "0x814d4EE1dBA244FA8c29EAFA5a4c9eD518AAD1f9"
      },
      {
        "passId": "219",
        "signer": "0xdF911Ea6ae9d5B90b018B5e76030994Ba655AC0C"
      },
      {
        "passId": "220",
        "signer": "0x89f2018Dd41F4269d8Eb3b4ee0def4e7bC7Ec5e5"
      },
      {
        "passId": "221",
        "signer": "0x62787c29eeea5a1239eE5683e6d065681f58c276"
      },
      {
        "passId": "222",
        "signer": "0x056CB7d6738f9798cD270653887768c590Eb95E7"
      },
      {
        "passId": "223",
        "signer": "0xD6207A4614375AF9b1D65e69cc2961baf32b5eb3"
      },
      {
        "passId": "224",
        "signer": "0x572C30b2fd545C71697eB25f5E106865646dffe8"
      },
      {
        "passId": "225",
        "signer": "0xfd32a6Dd91a9f46876D7245c8A284A4e730a0D3F"
      },
      {
        "passId": "226",
        "signer": "0x0B2fB79fC7AFaDf2964A6FF65232F5A3Ac414e31"
      },
      {
        "passId": "227",
        "signer": "0x71499d2d68B13D4A14bC2089572a4fb0cc1EFf9D"
      },
      {
        "passId": "228",
        "signer": "0xaD907A580ef9008ED27fFfC8360Ee2f2f2b8A935"
      },
      {
        "passId": "229",
        "signer": "0xdc695F6e82B396F1A256c53a93c34D5898659A31"
      },
      {
        "passId": "230",
        "signer": "0xE510ba3e40F8D85323a0E269b25034d89fDf44b0"
      },
      {
        "passId": "231",
        "signer": "0x805902666A227bdC7AF833a3a7225ceC4F61527A"
      },
      {
        "passId": "232",
        "signer": "0xb95e6F9EF3Fe3633cf16135b6239F0a0A79BB3fb"
      },
      {
        "passId": "233",
        "signer": "0x421C7c71CC90449778632bf81F7E61CC6Abfdf2e"
      },
      {
        "passId": "234",
        "signer": "0xA520c4465C9Bc8631dEeF4643046A31f2E4d8892"
      },
      {
        "passId": "235",
        "signer": "0x0446B30DEA15967d80c2570c119A6eC5C234B5A8"
      },
      {
        "passId": "236",
        "signer": "0xAb59DF18d130eEF1300be93FeBB11bD5711949EA"
      },
      {
        "passId": "237",
        "signer": "0x0D91a5261eE62714dd880FB08CC44567E65A3De9"
      },
      {
        "passId": "238",
        "signer": "0xC0426F2Bf734Ca37CF73caCd0f6f43fC64c9BEF7"
      },
      {
        "passId": "239",
        "signer": "0x95993D8b2b916bc30902f0B174b90B97a38406dA"
      },
      {
        "passId": "240",
        "signer": "0xE82F4957A54Ed5f9B30ce785a4814A6b5a6a1D48"
      },
      {
        "passId": "241",
        "signer": "0xed0c8F4D77239791D8Ac5040fDB6d1eB919174A7"
      },
      {
        "passId": "242",
        "signer": "0xcbA766b72422D6723E230843CE51D9B6D7A5b8a4"
      },
      {
        "passId": "243",
        "signer": "0xCfA0b6FF4c3EA2a76B7701F0dFfa45C8Acb6B0C3"
      },
      {
        "passId": "244",
        "signer": "0x0e49E06037f2F028c144d7a3d05E67Fe8BcD2Bc6"
      },
      {
        "passId": "245",
        "signer": "0x91b1Ef6271f0dA75da9b51a614C0E681326ca40f"
      },
      {
        "passId": "246",
        "signer": "0x4E9F17A881126D42090A38ec4E05E797B7DC9cEB"
      },
      {
        "passId": "247",
        "signer": "0x2e3691C08726C5E31e6c09BcD8A751cd082D9ab3"
      },
      {
        "passId": "248",
        "signer": "0x7CbE6497a953B5660faefa37104f16F928d01af4"
      },
      {
        "passId": "249",
        "signer": "0x1234A1e187222fa5E1d2197BB5dE24e72Cf5e8c2"
      },
      {
        "passId": "250",
        "signer": "0x39984700C8378CbBb8091415e7A469A6F9Ceb17b"
      },
      {
        "passId": "251",
        "signer": "0x86dDe3e736962CA1E2767fE2608916cC78Aa9CB6"
      },
      {
        "passId": "252",
        "signer": "0x2f4310Bd12adD2Ba759a446aCd00fED951FAdA89"
      },
      {
        "passId": "253",
        "signer": "0x379D81dC43575f890bCbF9537AddAA753AA19643"
      },
      {
        "passId": "254",
        "signer": "0xfF7A423ACE1C74885a2091a61A30130d6a1B1CF3"
      },
      {
        "passId": "255",
        "signer": "0xC93B631A921fB9cAf545C10C9D0a3B5A2Ea9dA46"
      },
      {
        "passId": "256",
        "signer": "0x9d2F2dB479adf918B4808Dd9C59262f682141A4b"
      },
      {
        "passId": "257",
        "signer": "0x5299F0F5A86B64B5433B85997f6710583Fc9c871"
      },
      {
        "passId": "258",
        "signer": "0x3659B4Db5E2DD2975cC22f533f0f044D3B89cbB0"
      },
      {
        "passId": "259",
        "signer": "0xBbf98ec075A7b035B98487064a4C3574ecFE0d6c"
      },
      {
        "passId": "260",
        "signer": "0x339D833123129C488efC621f67af98B020c208C3"
      },
      {
        "passId": "261",
        "signer": "0xE56617444a1250cB141C32be94bcC3E1287eCf0E"
      },
      {
        "passId": "262",
        "signer": "0x24FE27395ac97b63D7D6c12Dd42dB025D61da010"
      },
      {
        "passId": "263",
        "signer": "0x5eB1cec7eF401A4940D896e036ecC69CbBFeb6f0"
      },
      {
        "passId": "264",
        "signer": "0x3bD12B6e71FFfb9286938E569F3926D526Ca22e8"
      },
      {
        "passId": "265",
        "signer": "0x5bB6C97b2605801f50fDBB6f9908E9909a0d9B7c"
      },
      {
        "passId": "266",
        "signer": "0xd2880dfdaD9b7B0Eb5516Cf80e527d181336076A"
      },
      {
        "passId": "267",
        "signer": "0x2d28010497C71020B950DC513e952507a4C11265"
      },
      {
        "passId": "268",
        "signer": "0x51E2F4B028dc7786e281779398FBbFf9Cc918BC7"
      },
      {
        "passId": "269",
        "signer": "0x6AA0264cd7A11D983458cfB8bb1E2620056c909E"
      },
      {
        "passId": "270",
        "signer": "0xE11C2cC7d874C98c40cDFBfbF7c1a429e3dBE74a"
      },
      {
        "passId": "271",
        "signer": "0x892c6a12D2cA30cF4e45f44D32ed7630462B120B"
      },
      {
        "passId": "272",
        "signer": "0x513Bf74269c99cD802C9EfC41F06ab00feA73d57"
      },
      {
        "passId": "273",
        "signer": "0xD01072470866f86C2F6182170D0C46735b0aCe61"
      },
      {
        "passId": "274",
        "signer": "0x218D86947F3e5fBBd0A30550013cD75C53C5a3Cc"
      },
      {
        "passId": "275",
        "signer": "0xce401630f53fa311bAF5Cf18Ce6A1097919dE8d8"
      },
      {
        "passId": "276",
        "signer": "0x84448D4cf604Ec37850ac2Ac26F5F3FaaFe1C497"
      },
      {
        "passId": "277",
        "signer": "0x8d0044ED47795459f18dfdCe9738a9272c266293"
      },
      {
        "passId": "278",
        "signer": "0x535688Bba347b8E2cC19FAbdAE46ff67a3A3e52C"
      },
      {
        "passId": "279",
        "signer": "0x8E7c32C57b373185fA71317407C2DD15Ee4c1797"
      },
      {
        "passId": "280",
        "signer": "0x0309b4bc94d219d073ad8a421b4048f8bC07c9B1"
      },
      {
        "passId": "281",
        "signer": "0xAA8A14Cc2172d7574758dcc0BD68e797a7a4C68D"
      },
      {
        "passId": "282",
        "signer": "0xa6548F9E2641243C6eF07BcB4bB8a8eD4EF77c94"
      },
      {
        "passId": "283",
        "signer": "0x783f557a1A604200c0134C1b1f96591822E1fe53"
      },
      {
        "passId": "284",
        "signer": "0x392efCBb6A697E9701fcAA5D858F2F50266F2aCe"
      },
      {
        "passId": "285",
        "signer": "0xA75E226509FD5c8DA349C701bdB1041Df4C97f00"
      },
      {
        "passId": "286",
        "signer": "0xB78E24D684816B948DEE4eD030178a9E7FD6e15a"
      },
      {
        "passId": "287",
        "signer": "0xd81f15F235aC35d1Ca0737b43c92eb32c8B88BD7"
      },
      {
        "passId": "288",
        "signer": "0x424277cA9Fc40F1515edF9532Cc08A9574A1795a"
      },
      {
        "passId": "289",
        "signer": "0x7082fBc201f2912A22FA98a1820749888dDD5fe5"
      },
      {
        "passId": "290",
        "signer": "0x99ab09c7BbD3C969a85Db0c5C23720f50AcbE58B"
      },
      {
        "passId": "291",
        "signer": "0x78Fc1B4D73F1F4d70F9895E34aEB85D7954b36a5"
      },
      {
        "passId": "292",
        "signer": "0x6820ee134794e0A6e5924aaF77EFe4a2AF115fF9"
      },
      {
        "passId": "293",
        "signer": "0x156a9eBbB5b8bc509082F39E6986711790E0aFDD"
      },
      {
        "passId": "294",
        "signer": "0xc32f31f24A5888844ED96e79F4E6B6464C4E6801"
      },
      {
        "passId": "295",
        "signer": "0x09331099cbfB8c5a3ec5f3A5623212d527380e65"
      },
      {
        "passId": "296",
        "signer": "0xE3BB01a7b752e37B4bf968898611f07965521Eb7"
      },
      {
        "passId": "297",
        "signer": "0xd119dC17F3390f6E41f6F3C9bC668175e061Bf86"
      },
      {
        "passId": "298",
        "signer": "0x2117A16483cEFc41549C9E13bF517A0c2AE5187F"
      },
      {
        "passId": "299",
        "signer": "0x08B7797833153e2b561D53b43fdDF79A8621E378"
      },
      {
        "passId": "300",
        "signer": "0xF6C77C37154B22C27B3A62b494e6bb899Ac80925"
      },
      {
        "passId": "301",
        "signer": "0xFd3ead62A12d78aa074B55d7481a01ED917fE374"
      },
      {
        "passId": "302",
        "signer": "0xA1D6d232cd23CE8FD4AC58992b62f86716f4C993"
      },
      {
        "passId": "303",
        "signer": "0x27D683bD5C984804eaE89032C0d3C7C41e85a903"
      },
      {
        "passId": "304",
        "signer": "0x43195E7266b68bd90159ee18CfB78E291BEcED95"
      },
      {
        "passId": "305",
        "signer": "0x000000000000000000000000000000000000dead"
      },
      {
        "passId": "306",
        "signer": "0x000001f568875f378bf6d170b790967fe429c81a"
      },
      {
        "passId": "307",
        "signer": "0x0078c86e12186e2de1ff6fef5f1ada2bffde4ea5"
      },
      {
        "passId": "308",
        "signer": "0x024f1f8b3789bfdf9edb47f58a0d7a3afeaea804"
      },
      {
        "passId": "309",
        "signer": "0x049808d5eaa90a2665b9703d2246dded34f1eb73"
      },
      {
        "passId": "310",
        "signer": "0x05e8074088797c1f9057febf374deee0bc38e894"
      },
      {
        "passId": "311",
        "signer": "0x05ea539365d91df315e8ddd736e90431696fe8c4"
      },
      {
        "passId": "312",
        "signer": "0x09280340849e66948149804cac539cc7227512be"
      },
      {
        "passId": "313",
        "signer": "0x0946bc5c2f9848665cc3811458de403d0a78ad8e"
      },
      {
        "passId": "314",
        "signer": "0x0985224a811e65c235dbf4a2c2117712aabe4e39"
      },
      {
        "passId": "315",
        "signer": "0x0d0aca99686fced8e6fb39134aaed96f09b5283c"
      },
      {
        "passId": "316",
        "signer": "0x0d94b6e4c2aa9383964986020b3534d34885f700"
      },
      {
        "passId": "317",
        "signer": "0x0dd544d0da95666d7c3d38460feb4b5f25eaa515"
      },
      {
        "passId": "318",
        "signer": "0x0ea59c05be4b7149aaed26be764b618ac0255643"
      },
      {
        "passId": "319",
        "signer": "0x10b28ee04853bdd30d1fd7b302fbe5691c144aa0"
      },
      {
        "passId": "320",
        "signer": "0x10f6c58b9dc9603cb24ee9a5220bb4a470781676"
      },
      {
        "passId": "321",
        "signer": "0x12579783fbe8c2645d7a634b238da748405975a2"
      },
      {
        "passId": "322",
        "signer": "0x136c65a3f31682fcf683906ddbf3c76db2633f99"
      },
      {
        "passId": "323",
        "signer": "0x139d9a36ff2b6bfb8558dfbc22486da48c77a396"
      },
      {
        "passId": "324",
        "signer": "0x13b3a50f3947476eda74fe191344524e2d2d28e5"
      },
      {
        "passId": "325",
        "signer": "0x13e46ccd194ca86212236543d2e7376b00bafa42"
      },
      {
        "passId": "326",
        "signer": "0x1423fcc74da82fa03d70fa1f7a122db1ba231783"
      },
      {
        "passId": "327",
        "signer": "0x1436dbffbdde71d16a2c4d23f9116c3158c4d984"
      },
      {
        "passId": "328",
        "signer": "0x1527fa3a0778d574adfe714b7e60c7b2a1bf7c29"
      },
      {
        "passId": "329",
        "signer": "0x1974341df4b113a4c16f3d3f106176dec0e4da67"
      },
      {
        "passId": "330",
        "signer": "0x19b2ba0892da19d09d59e300d11da9edf96654ae"
      },
      {
        "passId": "331",
        "signer": "0x1c062628943a930b805849b494719c7d23c77bd5"
      },
      {
        "passId": "332",
        "signer": "0x1ec9503bbdad721ef3ad485b4b14ce0671dc9925"
      },
      {
        "passId": "333",
        "signer": "0x21c5edc237e95049f92059af6a571fdb700f2b82"
      },
      {
        "passId": "334",
        "signer": "0x2224acd07fd9b269ab5200a9a3df8062624deefb"
      },
      {
        "passId": "335",
        "signer": "0x230eb64900d027dfe372786b3342bd6178ec37d1"
      },
      {
        "passId": "336",
        "signer": "0x273c25abd33eca095e228fde0f15e8f7ec4eb4d9"
      },
      {
        "passId": "337",
        "signer": "0x27d9b6692ec1fb802cc8ceef74270ca4b448076a"
      },
      {
        "passId": "338",
        "signer": "0x290420874bf65691b98b67d042c06bbc31f85f11"
      },
      {
        "passId": "339",
        "signer": "0x2993db31d165c33d848e44a1c26a805ba411d324"
      },
      {
        "passId": "340",
        "signer": "0x2d2c46d26c8fec693586e067c4fc2b2ddc2b4cb3"
      },
      {
        "passId": "341",
        "signer": "0x2d79097b9e4c4f41654b2c91c39fd2c97af00c76"
      },
      {
        "passId": "342",
        "signer": "0x2de2299db048a9e3b8d1934b8dae11b8041cc4fd"
      },
      {
        "passId": "343",
        "signer": "0x2e50783188e23742dd3168682e39381ff5fa9731"
      },
      {
        "passId": "344",
        "signer": "0x2e699391d1b3b8577557b4c0ef6a1d9e8a394f04"
      },
      {
        "passId": "345",
        "signer": "0x308bff328370fc4a9683ab9fcd79a21be6dc5ee4"
      },
      {
        "passId": "346",
        "signer": "0x342c6bfa287ce37b8b53eee0e5b6e6bcbea98c76"
      },
      {
        "passId": "347",
        "signer": "0x362f020fd4420c317e7a0722994ba8bc3380d0e8"
      },
      {
        "passId": "348",
        "signer": "0x3668a20653316a7dd85342f64a4c984d146cadfe"
      },
      {
        "passId": "349",
        "signer": "0x37b699d7eead58433d352d1c77b2db1391f11ce5"
      },
      {
        "passId": "350",
        "signer": "0x3ad353e2845b96fb1b58c1ca6cda46b870de8d6f"
      },
      {
        "passId": "351",
        "signer": "0x3d14410609731ec7924ea8b1f13de544bb46a9a6"
      },
      {
        "passId": "352",
        "signer": "0x4011d09a86d0aca8377a4a8bad691f1aceecd672"
      },
      {
        "passId": "353",
        "signer": "0x41a7276167b80da8815df5b0ddaba3be29984250"
      },
      {
        "passId": "354",
        "signer": "0x44dc2ec15b3483fc8590f6b396cea5f8f2fbf3bd"
      },
      {
        "passId": "355",
        "signer": "0x4530307f98208d3bd5b9631880bc7351770c8810"
      },
      {
        "passId": "356",
        "signer": "0x4a1d757699ab73dd4b48b15049b6f1479b2f3511"
      },
      {
        "passId": "357",
        "signer": "0x4b0bd713574e67a97b3ff8f647f329794a2cbb64"
      },
      {
        "passId": "358",
        "signer": "0x4d03a186b3c7d039ff9a212cd8e81dc34a670b35"
      },
      {
        "passId": "359",
        "signer": "0x4de4a829d42191007431d608775430f3ab072082"
      },
      {
        "passId": "360",
        "signer": "0x4e012d25472225f3385baa43ed64dfec5885c51d"
      },
      {
        "passId": "361",
        "signer": "0x4ffb72b66eba24521736924f87dfe10677d82286"
      },
      {
        "passId": "362",
        "signer": "0x50f27cdb650879a41fb07038bf2b818845c20e17"
      },
      {
        "passId": "363",
        "signer": "0x5285ac85a979b612f5c5320961311bba099670f0"
      },
      {
        "passId": "364",
        "signer": "0x530cf036ed4fa58f7301a9c788c9806624cefd19"
      },
      {
        "passId": "365",
        "signer": "0x5310a9b64847c1b927f823a4bc8836e93f09dc78"
      },
      {
        "passId": "366",
        "signer": "0x54463aae905082c678708bb6c25226eb8f38d5a6"
      },
      {
        "passId": "367",
        "signer": "0x562bf1b67dc40d9b7c3ddd49e45ae58e61e1b76e"
      },
      {
        "passId": "368",
        "signer": "0x568b491fb2b4b9440f6d05e7723df0060fdaef1c"
      },
      {
        "passId": "369",
        "signer": "0x5b158f897f5ace2afefaf7ace8ce0cdbbbc9168a"
      },
      {
        "passId": "370",
        "signer": "0x5ba02f4ff6af1d9d2af8774d10fd32eb57d4e2e6"
      },
      {
        "passId": "371",
        "signer": "0x5bd685375c21375165438ca7f3eae7ec4fade8c5"
      },
      {
        "passId": "372",
        "signer": "0x5d9e720a1c16b98ab897165803c4d96e8060b8e4"
      },
      {
        "passId": "373",
        "signer": "0x5e01d9928ea32d1d3ae2f3263b6ec6c165dc2d76"
      },
      {
        "passId": "374",
        "signer": "0x5ee42438d0d8fc399c94ef3543665e993e847b49"
      },
      {
        "passId": "375",
        "signer": "0x5f8e56d7f3642dd8783774460da2d3a7c54aacda"
      },
      {
        "passId": "376",
        "signer": "0x5fb8b9512684d451d4e585a1a0aabfb48a253c67"
      },
      {
        "passId": "377",
        "signer": "0x6186290b28d511bff971631c916244a9fc539cfe"
      },
      {
        "passId": "378",
        "signer": "0x62f099a34f01d57c67a100851184bea0d48b45f6"
      },
      {
        "passId": "379",
        "signer": "0x63244b5f1ebcb999ea012da652dffee6653bf8f5"
      },
      {
        "passId": "380",
        "signer": "0x64e00561fa9b1f2f2048b2d4f571279689dd9541"
      },
      {
        "passId": "381",
        "signer": "0x65565244e5700b85c90358468faf37c85db55099"
      },
      {
        "passId": "382",
        "signer": "0x6584b48ccebd9c3e4413a1dd4cdbc38b2500cdf3"
      },
      {
        "passId": "383",
        "signer": "0x65d88c64b01b9481352fa8a68b54ed1b3b687388"
      },
      {
        "passId": "384",
        "signer": "0x663d3947f03ef5b387992b880ac85940057c13e3"
      },
      {
        "passId": "385",
        "signer": "0x67c3097a968db89610825976ec9a5976a966c044"
      },
      {
        "passId": "386",
        "signer": "0x68016f094ebb7b55b04372af335455854b0e2eb6"
      },
      {
        "passId": "387",
        "signer": "0x6854dc5c9e3d3ce0b9dd7250d866908515465dc6"
      },
      {
        "passId": "388",
        "signer": "0x686e960ebd9aceb1771850444d4d3a7810a0dac9"
      },
      {
        "passId": "389",
        "signer": "0x6d7fd0438219c0f753a1ccf7c4885bb6cb260999"
      },
      {
        "passId": "390",
        "signer": "0x704c978d50590b21e4c2f43eb4da24fe61fcd707"
      },
      {
        "passId": "391",
        "signer": "0x73e60cd967e957bc6e074f93320ffa1d52697d5b"
      },
      {
        "passId": "392",
        "signer": "0x75331ebbe0b00b97cab532384f13c9b479f074ec"
      },
      {
        "passId": "393",
        "signer": "0x75ef2eff7b12f5f900ef5c787036deab18423d1a"
      },
      {
        "passId": "394",
        "signer": "0x78885686feec340ab544428f161e7d621f520e29"
      },
      {
        "passId": "395",
        "signer": "0x79bebfcb560141f22959c62bbd2930d5c7e35d30"
      },
      {
        "passId": "396",
        "signer": "0x79fd2f15e0ea8c27b5192259f9da63f4e562f021"
      },
      {
        "passId": "397",
        "signer": "0x7a824bea2bed9399a68cd0e340224809521c81d9"
      },
      {
        "passId": "398",
        "signer": "0x7d6a8ffcaf98cac58340329b3a91759888cb1363"
      },
      {
        "passId": "399",
        "signer": "0x7e7a55b11dd9a02b4da169620adfc36b930100fc"
      },
      {
        "passId": "400",
        "signer": "0x80d0d54050c15971b21e877d95441800f5aa9ee8"
      },
      {
        "passId": "401",
        "signer": "0x8177598e08ee8199c160a48c7a0af31ab54bb59f"
      },
      {
        "passId": "402",
        "signer": "0x82410609593d876761681580cf304c794bd58d09"
      },
      {
        "passId": "403",
        "signer": "0x826f63afd9517364cbebe91a859f10b102505a40"
      },
      {
        "passId": "404",
        "signer": "0x836ef81a58e5565b8d1d555ec8e9a5c2792511c6"
      },
      {
        "passId": "405",
        "signer": "0x83d3c179e7906e7f6755658c70e106f1ed3c5782"
      },
      {
        "passId": "406",
        "signer": "0x84eeb7db3f93feb5a8a98f56dabb970a6797c187"
      },
      {
        "passId": "407",
        "signer": "0x865c2f85c9fea1c6ac7f53de07554d68cb92ed88"
      },
      {
        "passId": "408",
        "signer": "0x8725be0bb6ea759d10fbb52fedecc7dcd6890072"
      },
      {
        "passId": "409",
        "signer": "0x87dfef3b445667292aac89078b51f0f75795805f"
      },
      {
        "passId": "410",
        "signer": "0x88906af7616f88f610d1e479325a5c5f93ba1e2c"
      },
      {
        "passId": "411",
        "signer": "0x8a53b8b59877df193c6dae7b8d1d38251af563cf"
      },
      {
        "passId": "412",
        "signer": "0x8b5e90aa714c967efc8c286f46ce0fc822e1cfb0"
      },
      {
        "passId": "413",
        "signer": "0x8c0c3c60118b24b31806eae82ab4186821bf23f1"
      },
      {
        "passId": "414",
        "signer": "0x8c2e67bd3d0f432ef75d9ae6623cd0dfbce66050"
      },
      {
        "passId": "415",
        "signer": "0x8dc9d43df20681cd62ca0acb24ae7ce2794f835d"
      },
      {
        "passId": "416",
        "signer": "0x8df55ecf2c261b44d079302dc95327fe32f74eed"
      },
      {
        "passId": "417",
        "signer": "0x8ebbf8f59b7b7849e359f7e1cc395df6741c24b9"
      },
      {
        "passId": "418",
        "signer": "0x92e7faa1c7b1cf703e3cda42183978f16fa15713"
      },
      {
        "passId": "419",
        "signer": "0x932a824a4d3d0680e0b352de150e6f212b8ac841"
      },
      {
        "passId": "420",
        "signer": "0x95a4350e1cb5e795d3ebe8bee63d9183de5449d1"
      },
      {
        "passId": "421",
        "signer": "0x96dc89dbe84970ee42a2f0b35fb50599e6745ff8"
      },
      {
        "passId": "422",
        "signer": "0x975ab68d4c15d6db02e101d5be03c5b49b9a3282"
      },
      {
        "passId": "423",
        "signer": "0x9de0b0402258a6a562331da7b3c13b29578789c4"
      },
      {
        "passId": "424",
        "signer": "0x9fc6d6c7326585fd3c2a743a1f505990d6e9df3f"
      },
      {
        "passId": "425",
        "signer": "0xa0863e36c30f4974a3a0e2cfc2802513cfaa22f1"
      },
      {
        "passId": "426",
        "signer": "0xa0a6dc36041fb386378458006fecbddd02555ddd"
      },
      {
        "passId": "427",
        "signer": "0xa0d71d516c6149c958c489ab24223c99f5df906f"
      },
      {
        "passId": "428",
        "signer": "0xa0f838d02983161ee469bff969964b7051ac1cd9"
      },
      {
        "passId": "429",
        "signer": "0xa596370bc21dee36872b98009dfbbf465dbfefa3"
      },
      {
        "passId": "430",
        "signer": "0xa5975974cac3fefd831e42bdd2fe84cb5ee3b3de"
      },
      {
        "passId": "431",
        "signer": "0xa6157b7bb7ec05e2b6feafd686797f9ea05411cc"
      },
      {
        "passId": "432",
        "signer": "0xa6f4fa9840aa6825446c820af6d5eccf9f78ba05"
      },
      {
        "passId": "433",
        "signer": "0xa77d9227eee861e01519548b6000acca8600eebe"
      },
      {
        "passId": "434",
        "signer": "0xa7d9f4fd84cdd4bee564adc1b18e3e8aa79d25f1"
      },
      {
        "passId": "435",
        "signer": "0xa88e4a192f3ff5e46dcc96efefb38dfec7bb250c"
      },
      {
        "passId": "436",
        "signer": "0xab2f02d8d409ee4f67fdda5aac5ca7a64a897271"
      },
      {
        "passId": "437",
        "signer": "0xac75cdc34283406b050cadf4ea5902a9310b138e"
      },
      {
        "passId": "438",
        "signer": "0xad9f9194c68bd83250a534a7da574687e1f102ff"
      },
      {
        "passId": "439",
        "signer": "0xae8ce6bb2b95684f57c097b407f4e9b55d9ca432"
      },
      {
        "passId": "440",
        "signer": "0xaee2f40fe0568bd859bc6a518c7ef3252fdc9bf0"
      },
      {
        "passId": "441",
        "signer": "0xaf5cb828389bd6413e7bcd00ed2dcf2bdc1a015a"
      },
      {
        "passId": "442",
        "signer": "0xaf8fbf59e221d27b55dc3adc2366f9230bcf5096"
      },
      {
        "passId": "443",
        "signer": "0xb29b1936c11b77cec6061a9daf765ee2666c8f77"
      },
      {
        "passId": "444",
        "signer": "0xb347b5b99c49ce6c555071a1f0498c81511ad977"
      },
      {
        "passId": "445",
        "signer": "0xb3522064694ac9870dbf00eebc2712762193bb64"
      },
      {
        "passId": "446",
        "signer": "0xb353268ce17d2c7f0f4f8aff152e548c43633df5"
      },
      {
        "passId": "447",
        "signer": "0xb66190f67ed8f0ca790ddfe541ee1bd0da53fe70"
      },
      {
        "passId": "448",
        "signer": "0xb7f9f538aa1b41ae2853eb63f1939187ffe70eb4"
      },
      {
        "passId": "449",
        "signer": "0xbb46c6e4d8a59520fbb11638c2d1228cc65f5a6c"
      },
      {
        "passId": "450",
        "signer": "0xbc10a3ae909b1b94f4c3e39607ad19d386dce32a"
      },
      {
        "passId": "451",
        "signer": "0xbd12aa424c207e90b66402c1f0aec357e8b1ded7"
      },
      {
        "passId": "452",
        "signer": "0xbe5be517537e53f09e88bcdf61da238477dca226"
      },
      {
        "passId": "453",
        "signer": "0xbeeef66749b64afe43bbc9475635eb510cfe4922"
      },
      {
        "passId": "454",
        "signer": "0xbf1ed1ea654ad49472daedc21a31c8d28e6bb790"
      },
      {
        "passId": "455",
        "signer": "0xbfdb50dc66c8df9fd9688d8fe5a0c34126427645"
      },
      {
        "passId": "456",
        "signer": "0xc09d3402515676b81a2f768c365146ea3faa5605"
      },
      {
        "passId": "457",
        "signer": "0xc0e5e14bdecd9ed6954a9e14c74e97cebd91bb94"
      },
      {
        "passId": "458",
        "signer": "0xc169699a825066f2f07e0b29c4082094b32a3f3e"
      },
      {
        "passId": "459",
        "signer": "0xc3a67c1437353bdc9c53060235a34018711de0cf"
      },
      {
        "passId": "460",
        "signer": "0xc42c694d0215b27bce1a871a4a2ad38cf0120a82"
      },
      {
        "passId": "461",
        "signer": "0xc555347d2b369b074be94fe6f7ae9ab43966b884"
      },
      {
        "passId": "462",
        "signer": "0xc665a60f22dda926b920deb8ffac0ef9d8a17460"
      },
      {
        "passId": "463",
        "signer": "0xc8286a9bf1f9bf8f3006fa014915c78b7e75111c"
      },
      {
        "passId": "464",
        "signer": "0xc8bace82793074fad3337424bdb84e306b2f8a44"
      },
      {
        "passId": "465",
        "signer": "0xc9a009bed9ed8a32499e18c20f7cd12132c8d6cb"
      },
      {
        "passId": "466",
        "signer": "0xca11d10ceb098f597a0cab28117fc3465991a63c"
      },
      {
        "passId": "467",
        "signer": "0xcbd2f544073eb35b59a8eb19194a222a5361cd74"
      },
      {
        "passId": "468",
        "signer": "0xcda685c8444f659ac3fe778f8d143aabdf1a21ab"
      },
      {
        "passId": "469",
        "signer": "0xcea78aaa93e917fb5e1802901db2b20aa4411b44"
      },
      {
        "passId": "470",
        "signer": "0xcef871b113d2bb5d3fa5dc96d2d288dd38082aae"
      },
      {
        "passId": "471",
        "signer": "0xcf680fb77c12e2aa2dec82f3ae0c0e527f549fe2"
      },
      {
        "passId": "472",
        "signer": "0xd1eddfcc4596cc8bd0bd7495beab9b979fc50336"
      },
      {
        "passId": "473",
        "signer": "0xd286064cc27514b914bab0f2fad2e1a89a91f314"
      },
      {
        "passId": "474",
        "signer": "0xd3e64b9dea13e4840a0da20965bd0ca37d05a12a"
      },
      {
        "passId": "475",
        "signer": "0xd651e2c626ee210fc38676124d5007ac822ad749"
      },
      {
        "passId": "476",
        "signer": "0xd657860fc512ec2250a7385a353f599e3276fddb"
      },
      {
        "passId": "477",
        "signer": "0xd6e02c13a6cc133c9d019495414667ea7bee05cc"
      },
      {
        "passId": "478",
        "signer": "0xdc190d7cea8e8bf0b381617062200c10cfff0a91"
      },
      {
        "passId": "479",
        "signer": "0xdd6c81d6d587e2d49eaadffb4ce380564046002a"
      },
      {
        "passId": "480",
        "signer": "0xddb92a96054132801cae3943b2f966fc2c308ac8"
      },
      {
        "passId": "481",
        "signer": "0xdde3ca351d85a4b4cc6aff8d42c0840959859053"
      },
      {
        "passId": "482",
        "signer": "0xe120ed22a0cd12d5de6122aa7d5b6d93ac218b49"
      },
      {
        "passId": "483",
        "signer": "0xe20adb03a470b5573bf572dd918e052d0d17866e"
      },
      {
        "passId": "484",
        "signer": "0xe363c2fba75cbd27487b17430e1efbdd2add374e"
      },
      {
        "passId": "485",
        "signer": "0xe5a3d77d7788a83f3549dd7f08fc2aced7e262d2"
      },
      {
        "passId": "486",
        "signer": "0xe66e1e9e37e4e148b21eb22001431818e980d060"
      },
      {
        "passId": "487",
        "signer": "0xe7bd51dc30d4bdc9fddd42ea7c0a283590c9d416"
      },
      {
        "passId": "488",
        "signer": "0xeb42cd8a1fe1ff556960a9a03ca29aa13f8aa838"
      },
      {
        "passId": "489",
        "signer": "0xed0f30677c760ea8f0bff70c76eafc79d5f7c3c8"
      },
      {
        "passId": "490",
        "signer": "0xeddd55a234240042695d7430bf0a09b9038a26ad"
      },
      {
        "passId": "491",
        "signer": "0xee4d308cc1cde3dd0adcb5a2c85edff22db64918"
      },
      {
        "passId": "492",
        "signer": "0xee9439a12a7c2a9b6600ca8a498620580d2f116e"
      },
      {
        "passId": "493",
        "signer": "0xeeaf61935c0c48f8f8cc28c381683d7fa2f75e1c"
      },
      {
        "passId": "494",
        "signer": "0xef1271ae97bc1a1b356ab697e9ed0d1d4e05fcda"
      },
      {
        "passId": "495",
        "signer": "0xf19bc58f747d6ea11959bf2a0fa81e53285546ac"
      },
      {
        "passId": "496",
        "signer": "0xf1e1c701b49b1dc2405a9e8ef40f9f88802b80fa"
      },
      {
        "passId": "497",
        "signer": "0xf2b15320db6992ba49a7563e50e888c20edcbe3c"
      },
      {
        "passId": "498",
        "signer": "0xf341c3abb49feb96b4822e68227b54c6fb9f6318"
      },
      {
        "passId": "499",
        "signer": "0xf3493f6812b1f22b40f8539db2510e13ac251f96"
      },
      {
        "passId": "500",
        "signer": "0xf3b1b6e83be4d55695f1d30ac3d307d9d5ca98ff"
      },
      {
        "passId": "501",
        "signer": "0xf464d1a37d8ef9449722f44a4eeb715c0e0acdb3"
      },
      {
        "passId": "502",
        "signer": "0xf6910d47fbb1f5518d60c721d4189936ecd5a1b6"
      },
      {
        "passId": "503",
        "signer": "0xf73c935815908ad9a056fc50269f95d8ba032e9d"
      },
      {
        "passId": "504",
        "signer": "0xf78cd306b23031de9e739a5bcde61764e82ad5ef"
      },
      {
        "passId": "505",
        "signer": "0xf942040710bedf7220beb24b220631c2255e87f1"
      },
      {
        "passId": "506",
        "signer": "0xf943e1d2db38db468f66a79b08ec23f8c4375ce3"
      },
      {
        "passId": "507",
        "signer": "0xfa46dedf812c5803b1e2cea10eef3f27dafeca56"
      },
      {
        "passId": "508",
        "signer": "0xfa9f104f338846b38b083c9e567ff6bbe43ab5f7"
      },
      {
        "passId": "509",
        "signer": "0xfd12799b9fb97dc61d9ad7ad4ffba5624004bc62"
      },
      {
        "passId": "510",
        "signer": "0xfe1e7dc61721f34a25c9eb4dc1a1a8f352c923ef"
      },
      {
        "passId": "511",
        "signer": "0xfffff6e70842330948ca47254f2be673b1cb0db7"
      }
    ]
  },
  "solcInputHash": "573964663211bb239cea77da08631662",
  "bytecode": "0x6101806040523480156200001257600080fd5b5060405162001d9038038062001d90833981016040819052620000359162000087565b6001600160a01b0397881660805291871660a05290951660c05260e094909452610100929092526101205261014052610160526200010d565b6001600160a01b03811681146200008457600080fd5b50565b600080600080600080600080610100898b031215620000a557600080fd5b8851620000b2816200006e565b809850506020890151965060408901519550606089015194506080890151935060a0890151620000e2816200006e565b60c08a0151909350620000f5816200006e565b8092505060e089015190509295985092959890939650565b60805160a05160c05160e05161010051610120516101405161016051611ba6620001ea600039600081816103e6015281816107950152610b4e0152600081816101de015281816103c501528181610445015281816105ba015281816107720152610c5a0152600081816103a40152818161074f0152610c820152600081816103830152818161072c0152610ca8015260008181610407015281816107b801528181610cce0152610d0a01526000610f020152600081816108090152610e0101526000818161065d015281816109c10152610e9a0152611ba66000f3fe60806040526004361061007b5760003560e01c8063990b0f601161004e578063990b0f601461012c5780639c2055131461014c578063d10bca8b1461015f578063e31b3a681461019257600080fd5b80632228adcc146100805780632558e933146100b55780636d048d53146100ca5780637361a72e14610119575b600080fd5b34801561008c57600080fd5b506100a061009b366004611490565b6101b2565b60405190151581526020015b60405180910390f35b6100c86100c33660046115ef565b6101dc565b005b3480156100d657600080fd5b506100ea6100e53660046116f1565b610378565b6040805196875260208701959095529385019290925260608401526080830152151560a082015260c0016100ac565b6100c861012736600461170e565b610443565b34801561013857600080fd5b506100a0610147366004611490565b61056d565b6100c861015a366004611778565b6105b8565b34801561016b57600080fd5b5061017f61017a3660046117af565b610650565b6040516100ac9796959493929190611837565b34801561019e57600080fd5b506100c86101ad366004611778565b6107f1565b6000806101c46010600685901c6118eb565b905080600614806101d55750806008145b9392505050565b7f00000000000000000000000000000000000000000000000000000000000000004210156103675761020d8361056d565b15610279576040517f08c379a000000000000000000000000000000000000000000000000000000000815260206004820152601160248201527f504153535f414c52454144595f5553454400000000000000000000000000000060448201526064015b60405180910390fd5b60006102e48385876040516020016102c092919091825260601b7fffffffffffffffffffffffffffffffffffffffff00000000000000000000000016602082015260340190565b60405160208183030381529060405280519060200120610a2190919063ffffffff16565b905060006102f28583610a45565b90506102fe8382610aa6565b610364576040517f08c379a000000000000000000000000000000000000000000000000000000000815260206004820152600d60248201527f494e56414c49445f50524f4f46000000000000000000000000000000000000006044820152606401610270565b50505b6103718585610b73565b5050505050565b6000806000806000807f00000000000000000000000000000000000000000000000000000000000000007f00000000000000000000000000000000000000000000000000000000000000007f00000000000000000000000000000000000000000000000000000000000000007f00000000000000000000000000000000000000000000000000000000000000007f000000000000000000000000000000000000000000000000000000000000000061042f8c610efb565b949c939b5091995097509550909350915050565b7f000000000000000000000000000000000000000000000000000000000000000042101561055d576104748261056d565b156104db576040517f08c379a000000000000000000000000000000000000000000000000000000000815260206004820152601160248201527f504153535f414c52454144595f555345440000000000000000000000000000006044820152606401610270565b3360006104e88483610a45565b90506104f48382610aa6565b61055a576040517f08c379a000000000000000000000000000000000000000000000000000000000815260206004820152600d60248201527f494e56414c49445f50524f4f46000000000000000000000000000000000000006044820152606401610270565b50505b6105678484610b73565b50505050565b60008061057c6101008461192e565b9050600061058c82610100611942565b610596908561197f565b60009283526020839052604090922054600190921b9182169091149392505050565b7f0000000000000000000000000000000000000000000000000000000000000000421015610642576040517f08c379a000000000000000000000000000000000000000000000000000000000815260206004820152601460248201527f524551554952455f504153535f4f525f574149540000000000000000000000006044820152606401610270565b61064c8282610b73565b5050565b60606000806000806000807f000000000000000000000000000000000000000000000000000000000000000073ffffffffffffffffffffffffffffffffffffffff1663a0554c268a8a6040518363ffffffff1660e01b81526004016106b6929190611996565b60006040518083038186803b1580156106ce57600080fd5b505afa1580156106e2573d6000803e3d6000fd5b505050506040513d6000823e601f3d9081017fffffffffffffffffffffffffffffffffffffffffffffffffffffffffffffffe016820160405261072891908101906119eb565b96507f000000000000000000000000000000000000000000000000000000000000000095507f000000000000000000000000000000000000000000000000000000000000000094507f000000000000000000000000000000000000000000000000000000000000000093507f000000000000000000000000000000000000000000000000000000000000000092507f000000000000000000000000000000000000000000000000000000000000000091506107e28a610efb565b90509397509397509397909450565b3373ffffffffffffffffffffffffffffffffffffffff7f00000000000000000000000000000000000000000000000000000000000000001614610890576040517f08c379a000000000000000000000000000000000000000000000000000000000815260206004820152600e60248201527f4e4f545f415554484f52495a45440000000000000000000000000000000000006044820152606401610270565b6102408261ffff16106108ff576040517f08c379a000000000000000000000000000000000000000000000000000000000815260206004820152600d60248201527f494e56414c49445f534f554e44000000000000000000000000000000000000006044820152606401610270565b61090c8261ffff166101b2565b610972576040517f08c379a000000000000000000000000000000000000000000000000000000000815260206004820152600c60248201527f4e4f545f524553455256454400000000000000000000000000000000000000006044820152606401610270565b6040517f9c20551300000000000000000000000000000000000000000000000000000000815261ffff8316600482015273ffffffffffffffffffffffffffffffffffffffff82811660248301527f00000000000000000000000000000000000000000000000000000000000000001690639c20551390604401600060405180830381600087803b158015610a0557600080fd5b505af1158015610a19573d6000803e3d6000fd5b505050505050565b6000806000610a308585611064565b91509150610a3d816110d4565b509392505050565b60008282604051602001610a8892919091825260601b7fffffffffffffffffffffffffffffffffffffffff00000000000000000000000016602082015260340190565b60405160208183030381529060405280519060200120905092915050565b6000805b8351811015610b4a576000848281518110610ac757610ac7611a85565b6020026020010151905080841015610b0a576040805160208101869052908101829052606001604051602081830303815290604052805190602001209350610b37565b60408051602081018390529081018590526060016040516020818303038152906040528051906020012093505b5080610b4281611ab4565b915050610aaa565b50507f000000000000000000000000000000000000000000000000000000000000000014919050565b6102408261ffff1610610be2576040517f08c379a000000000000000000000000000000000000000000000000000000000815260206004820152600d60248201527f494e56414c49445f534f554e44000000000000000000000000000000000000006044820152606401610270565b610bef8261ffff166101b2565b15610c56576040517f08c379a000000000000000000000000000000000000000000000000000000000815260206004820152600860248201527f52455345525645440000000000000000000000000000000000000000000000006044820152606401610270565b60007f0000000000000000000000000000000000000000000000000000000000000000421015610ca6577f0000000000000000000000000000000000000000000000000000000000000000610cc8565b7f00000000000000000000000000000000000000000000000000000000000000005b905060007f0000000000000000000000000000000000000000000000000000000000000000118015610cfe5750610cfe33610efb565b15610d46576064610d2f7f000000000000000000000000000000000000000000000000000000000000000083611942565b610d39919061192e565b610d43908261197f565b90505b80341015610db0576040517f08c379a000000000000000000000000000000000000000000000000000000000815260206004820152600a60248201527f4e4f545f454e4f554748000000000000000000000000000000000000000000006044820152606401610270565b336108fc610dbe833461197f565b6040518115909202916000818181858888f19350505050158015610de6573d6000803e3d6000fd5b5060405173ffffffffffffffffffffffffffffffffffffffff7f0000000000000000000000000000000000000000000000000000000000000000169082156108fc029083906000818181858888f19350505050158015610e4a573d6000803e3d6000fd5b506040517f9c20551300000000000000000000000000000000000000000000000000000000815261ffff8416600482015273ffffffffffffffffffffffffffffffffffffffff83811660248301527f00000000000000000000000000000000000000000000000000000000000000001690639c20551390604401600060405180830381600087803b158015610ede57600080fd5b505af1158015610ef2573d6000803e3d6000fd5b50505050505050565b60008060007f000000000000000000000000000000000000000000000000000000000000000073ffffffffffffffffffffffffffffffffffffffff1684604051602401610f64919073ffffffffffffffffffffffffffffffffffffffff91909116815260200190565b604080517fffffffffffffffffffffffffffffffffffffffffffffffffffffffffffffffe08184030181529181526020820180517bffffffffffffffffffffffffffffffffffffffffffffffffffffffff167f70a082310000000000000000000000000000000000000000000000000000000017905251610fe59190611aed565b600060405180830381855afa9150503d8060008114611020576040519150601f19603f3d011682016040523d82523d6000602084013e611025565b606091505b5091509150600082801561103a575060008251115b611045576000611059565b818060200190518101906110599190611b28565b151595945050505050565b60008082516041141561109b5760208301516040840151606085015160001a61108f87828585611330565b945094505050506110cd565b8251604014156110c557602083015160408401516110ba868383611448565b9350935050506110cd565b506000905060025b9250929050565b60008160048111156110e8576110e8611b41565b14156110f15750565b600181600481111561110557611105611b41565b141561116d576040517f08c379a000000000000000000000000000000000000000000000000000000000815260206004820152601860248201527f45434453413a20696e76616c6964207369676e617475726500000000000000006044820152606401610270565b600281600481111561118157611181611b41565b14156111e9576040517f08c379a000000000000000000000000000000000000000000000000000000000815260206004820152601f60248201527f45434453413a20696e76616c6964207369676e6174757265206c656e677468006044820152606401610270565b60038160048111156111fd576111fd611b41565b141561128b576040517f08c379a000000000000000000000000000000000000000000000000000000000815260206004820152602260248201527f45434453413a20696e76616c6964207369676e6174757265202773272076616c60448201527f75650000000000000000000000000000000000000000000000000000000000006064820152608401610270565b600481600481111561129f5761129f611b41565b141561132d576040517f08c379a000000000000000000000000000000000000000000000000000000000815260206004820152602260248201527f45434453413a20696e76616c6964207369676e6174757265202776272076616c60448201527f75650000000000000000000000000000000000000000000000000000000000006064820152608401610270565b50565b6000807f7fffffffffffffffffffffffffffffff5d576e7357a4501ddfe92f46681b20a0831115611367575060009050600361143f565b8460ff16601b1415801561137f57508460ff16601c14155b15611390575060009050600461143f565b6040805160008082526020820180845289905260ff881692820192909252606081018690526080810185905260019060a0016020604051602081039080840390855afa1580156113e4573d6000803e3d6000fd5b50506040517fffffffffffffffffffffffffffffffffffffffffffffffffffffffffffffffe0015191505073ffffffffffffffffffffffffffffffffffffffff81166114385760006001925092505061143f565b9150600090505b94509492505050565b6000807f7fffffffffffffffffffffffffffffffffffffffffffffffffffffffffffffff831660ff84901c601b0161148287828885611330565b935093505050935093915050565b6000602082840312156114a257600080fd5b5035919050565b803561ffff811681146114bb57600080fd5b919050565b73ffffffffffffffffffffffffffffffffffffffff8116811461132d57600080fd5b7f4e487b7100000000000000000000000000000000000000000000000000000000600052604160045260246000fd5b604051601f82017fffffffffffffffffffffffffffffffffffffffffffffffffffffffffffffffe016810167ffffffffffffffff81118282101715611558576115586114e2565b604052919050565b600067ffffffffffffffff82111561157a5761157a6114e2565b5060051b60200190565b600082601f83011261159557600080fd5b813560206115aa6115a583611560565b611511565b82815260059290921b840181019181810190868411156115c957600080fd5b8286015b848110156115e457803583529183019183016115cd565b509695505050505050565b600080600080600060a0868803121561160757600080fd5b611610866114a9565b9450602080870135611621816114c0565b945060408701359350606087013567ffffffffffffffff8082111561164557600080fd5b818901915089601f83011261165957600080fd5b81358181111561166b5761166b6114e2565b61169b847fffffffffffffffffffffffffffffffffffffffffffffffffffffffffffffffe0601f84011601611511565b8181528b858386010111156116af57600080fd5b8185850186830137600091810190940152919350608088013591808311156116d657600080fd5b50506116e488828901611584565b9150509295509295909350565b60006020828403121561170357600080fd5b81356101d5816114c0565b6000806000806080858703121561172457600080fd5b61172d856114a9565b9350602085013561173d816114c0565b925060408501359150606085013567ffffffffffffffff81111561176057600080fd5b61176c87828801611584565b91505092959194509250565b6000806040838503121561178b57600080fd5b611794836114a9565b915060208301356117a4816114c0565b809150509250929050565b6000806000604084860312156117c457600080fd5b83356117cf816114c0565b9250602084013567ffffffffffffffff808211156117ec57600080fd5b818601915086601f83011261180057600080fd5b81358181111561180f57600080fd5b8760208260051b850101111561182457600080fd5b6020830194508093505050509250925092565b60e08082528851908201819052600090602090610100840190828c01845b8281101561188757815173ffffffffffffffffffffffffffffffffffffffff1684529284019290840190600101611855565b505050908301989098525060408101959095526060850193909352608084019190915260a0830152151560c090910152919050565b7f4e487b7100000000000000000000000000000000000000000000000000000000600052601260045260246000fd5b6000826118fa576118fa6118bc565b500690565b7f4e487b7100000000000000000000000000000000000000000000000000000000600052601160045260246000fd5b60008261193d5761193d6118bc565b500490565b6000817fffffffffffffffffffffffffffffffffffffffffffffffffffffffffffffffff048311821515161561197a5761197a6118ff565b500290565b600082821015611991576119916118ff565b500390565b6020815281602082015260007f07ffffffffffffffffffffffffffffffffffffffffffffffffffffffffffffff8311156119cf57600080fd5b8260051b80856040850137600092016040019182525092915050565b600060208083850312156119fe57600080fd5b825167ffffffffffffffff811115611a1557600080fd5b8301601f81018513611a2657600080fd5b8051611a346115a582611560565b81815260059190911b82018301908381019087831115611a5357600080fd5b928401925b82841015611a7a578351611a6b816114c0565b82529284019290840190611a58565b979650505050505050565b7f4e487b7100000000000000000000000000000000000000000000000000000000600052603260045260246000fd5b60007fffffffffffffffffffffffffffffffffffffffffffffffffffffffffffffffff821415611ae657611ae66118ff565b5060010190565b6000825160005b81811015611b0e5760208186018101518583015201611af4565b81811115611b1d576000828501525b509190910192915050565b600060208284031215611b3a57600080fd5b5051919050565b7f4e487b7100000000000000000000000000000000000000000000000000000000600052602160045260246000fdfea264697066735822122046f64ce3a75aff1b76425c30eb4667b8d2696890a976c8e982ceafbcf77f624d64736f6c63430008090033",
  "devdoc": {
    "kind": "dev",
    "methods": {},
    "version": 1
  },
  "userdoc": {
    "kind": "user",
    "methods": {},
    "version": 1
  },
  "storageLayout": {
    "storage": [
      {
        "astId": 9130,
        "contract": "src/bleeps/BleepsFixedPriceSale.sol:BleepsFixedPriceSale",
        "label": "_passUsed",
        "offset": 0,
        "slot": "0",
        "type": "t_mapping(t_uint256,t_uint256)"
      }
    ],
    "types": {
      "t_mapping(t_uint256,t_uint256)": {
        "encoding": "mapping",
        "key": "t_uint256",
        "label": "mapping(uint256 => uint256)",
        "numberOfBytes": "32",
        "value": "t_uint256"
      },
      "t_uint256": {
        "encoding": "inplace",
        "label": "uint256",
        "numberOfBytes": "32"
      }
    }
  }
}