{
  "address": "0x6B071f95D6caaE342EBC70b8a96BEBF163003485",
  "abi": [
    {
      "inputs": [
        {
          "internalType": "address",
          "name": "openseaProxyRegistry",
          "type": "address"
        },
        {
          "internalType": "address",
          "name": "initialTokenURIAdmin",
          "type": "address"
        },
        {
          "internalType": "address",
          "name": "initialRoyaltyAdmin",
          "type": "address"
        },
        {
          "internalType": "address",
          "name": "initialMinterAdmin",
          "type": "address"
        },
        {
          "internalType": "contract ITokenURI",
          "name": "initialTokenURIContract",
          "type": "address"
        },
        {
          "internalType": "address",
          "name": "checkpointingDisabler",
          "type": "address"
        }
      ],
      "stateMutability": "nonpayable",
      "type": "constructor"
    },
    {
      "anonymous": false,
      "inputs": [
        {
          "indexed": true,
          "internalType": "address",
          "name": "owner",
          "type": "address"
        },
        {
          "indexed": true,
          "internalType": "address",
          "name": "approved",
          "type": "address"
        },
        {
          "indexed": true,
          "internalType": "uint256",
          "name": "tokenId",
          "type": "uint256"
        }
      ],
      "name": "Approval",
      "type": "event"
    },
    {
      "anonymous": false,
      "inputs": [
        {
          "indexed": true,
          "internalType": "address",
          "name": "owner",
          "type": "address"
        },
        {
          "indexed": true,
          "internalType": "address",
          "name": "operator",
          "type": "address"
        },
        {
          "indexed": false,
          "internalType": "bool",
          "name": "approved",
          "type": "bool"
        }
      ],
      "name": "ApprovalForAll",
      "type": "event"
    },
    {
      "anonymous": false,
      "inputs": [
        {
          "indexed": true,
          "internalType": "address",
          "name": "delegator",
          "type": "address"
        },
        {
          "indexed": true,
          "internalType": "address",
          "name": "fromDelegate",
          "type": "address"
        },
        {
          "indexed": true,
          "internalType": "address",
          "name": "toDelegate",
          "type": "address"
        }
      ],
      "name": "DelegateChanged",
      "type": "event"
    },
    {
      "anonymous": false,
      "inputs": [
        {
          "indexed": true,
          "internalType": "address",
          "name": "delegate",
          "type": "address"
        },
        {
          "indexed": false,
          "internalType": "uint256",
          "name": "previousBalance",
          "type": "uint256"
        },
        {
          "indexed": false,
          "internalType": "uint256",
          "name": "newBalance",
          "type": "uint256"
        }
      ],
      "name": "DelegateVotesChanged",
      "type": "event"
    },
    {
      "anonymous": false,
      "inputs": [
        {
          "indexed": false,
          "internalType": "address",
          "name": "newMinterAdmin",
          "type": "address"
        }
      ],
      "name": "MinterAdminSet",
      "type": "event"
    },
    {
      "anonymous": false,
      "inputs": [
        {
          "indexed": false,
          "internalType": "address",
          "name": "newMinter",
          "type": "address"
        }
      ],
      "name": "MinterSet",
      "type": "event"
    },
    {
      "anonymous": false,
      "inputs": [
        {
          "indexed": false,
          "internalType": "address",
          "name": "newRoyaltyAdmin",
          "type": "address"
        }
      ],
      "name": "RoyaltyAdminSet",
      "type": "event"
    },
    {
      "anonymous": false,
      "inputs": [
        {
          "indexed": false,
          "internalType": "address",
          "name": "newTokenURIAdmin",
          "type": "address"
        }
      ],
      "name": "TokenURIAdminSet",
      "type": "event"
    },
    {
      "anonymous": false,
      "inputs": [
        {
          "indexed": false,
          "internalType": "contract ITokenURI",
          "name": "newTokenURIContract",
          "type": "address"
        }
      ],
      "name": "TokenURIContractSet",
      "type": "event"
    },
    {
      "anonymous": false,
      "inputs": [
        {
          "indexed": true,
          "internalType": "address",
          "name": "from",
          "type": "address"
        },
        {
          "indexed": true,
          "internalType": "address",
          "name": "to",
          "type": "address"
        },
        {
          "indexed": true,
          "internalType": "uint256",
          "name": "tokenId",
          "type": "uint256"
        }
      ],
      "name": "Transfer",
      "type": "event"
    },
    {
      "inputs": [],
      "name": "DELEGATION_TYPEHASH",
      "outputs": [
        {
          "internalType": "bytes32",
          "name": "",
          "type": "bytes32"
        }
      ],
      "stateMutability": "view",
      "type": "function"
    },
    {
      "inputs": [],
      "name": "DOMAIN_SEPARATOR",
      "outputs": [
        {
          "internalType": "bytes32",
          "name": "",
          "type": "bytes32"
        }
      ],
      "stateMutability": "view",
      "type": "function"
    },
    {
      "inputs": [],
      "name": "DOMAIN_TYPEHASH",
      "outputs": [
        {
          "internalType": "bytes32",
          "name": "",
          "type": "bytes32"
        }
      ],
      "stateMutability": "view",
      "type": "function"
    },
    {
      "inputs": [],
      "name": "PERMIT_FOR_ALL_TYPEHASH",
      "outputs": [
        {
          "internalType": "bytes32",
          "name": "",
          "type": "bytes32"
        }
      ],
      "stateMutability": "view",
      "type": "function"
    },
    {
      "inputs": [],
      "name": "PERMIT_TYPEHASH",
      "outputs": [
        {
          "internalType": "bytes32",
          "name": "",
          "type": "bytes32"
        }
      ],
      "stateMutability": "view",
      "type": "function"
    },
    {
      "inputs": [
        {
          "internalType": "address",
          "name": "operator",
          "type": "address"
        },
        {
          "internalType": "uint256",
          "name": "id",
          "type": "uint256"
        }
      ],
      "name": "approve",
      "outputs": [],
      "stateMutability": "nonpayable",
      "type": "function"
    },
    {
      "inputs": [
        {
          "internalType": "address",
          "name": "owner",
          "type": "address"
        }
      ],
      "name": "balanceOf",
      "outputs": [
        {
          "internalType": "uint256",
          "name": "balance",
          "type": "uint256"
        }
      ],
      "stateMutability": "view",
      "type": "function"
    },
    {
      "inputs": [
        {
          "internalType": "address",
          "name": "",
          "type": "address"
        },
        {
          "internalType": "uint32",
          "name": "",
          "type": "uint32"
        }
      ],
      "name": "checkpoints",
      "outputs": [
        {
          "internalType": "uint32",
          "name": "fromBlock",
          "type": "uint32"
        },
        {
          "internalType": "uint96",
          "name": "votes",
          "type": "uint96"
        }
      ],
      "stateMutability": "view",
      "type": "function"
    },
    {
      "inputs": [],
      "name": "contractURI",
      "outputs": [
        {
          "internalType": "string",
          "name": "",
          "type": "string"
        }
      ],
      "stateMutability": "view",
      "type": "function"
    },
    {
      "inputs": [],
      "name": "decimals",
      "outputs": [
        {
          "internalType": "uint8",
          "name": "",
          "type": "uint8"
        }
      ],
      "stateMutability": "view",
      "type": "function"
    },
    {
      "inputs": [
        {
          "internalType": "address",
          "name": "delegatee",
          "type": "address"
        }
      ],
      "name": "delegate",
      "outputs": [],
      "stateMutability": "nonpayable",
      "type": "function"
    },
    {
      "inputs": [
        {
          "internalType": "address",
          "name": "delegatee",
          "type": "address"
        },
        {
          "internalType": "uint256",
          "name": "nonce",
          "type": "uint256"
        },
        {
          "internalType": "uint256",
          "name": "expiry",
          "type": "uint256"
        },
        {
          "internalType": "uint8",
          "name": "v",
          "type": "uint8"
        },
        {
          "internalType": "bytes32",
          "name": "r",
          "type": "bytes32"
        },
        {
          "internalType": "bytes32",
          "name": "s",
          "type": "bytes32"
        }
      ],
      "name": "delegateBySig",
      "outputs": [],
      "stateMutability": "nonpayable",
      "type": "function"
    },
    {
      "inputs": [
        {
          "internalType": "address",
          "name": "delegator",
          "type": "address"
        }
      ],
      "name": "delegates",
      "outputs": [
        {
          "internalType": "address",
          "name": "",
          "type": "address"
        }
      ],
      "stateMutability": "view",
      "type": "function"
    },
    {
      "inputs": [],
      "name": "disableTheUseOfCheckpoints",
      "outputs": [],
      "stateMutability": "nonpayable",
      "type": "function"
    },
    {
      "inputs": [
        {
          "internalType": "uint256",
          "name": "id",
          "type": "uint256"
        }
      ],
      "name": "getApproved",
      "outputs": [
        {
          "internalType": "address",
          "name": "",
          "type": "address"
        }
      ],
      "stateMutability": "view",
      "type": "function"
    },
    {
      "inputs": [
        {
          "internalType": "address",
          "name": "account",
          "type": "address"
        }
      ],
      "name": "getCurrentVotes",
      "outputs": [
        {
          "internalType": "uint96",
          "name": "",
          "type": "uint96"
        }
      ],
      "stateMutability": "view",
      "type": "function"
    },
    {
      "inputs": [
        {
          "internalType": "address",
          "name": "account",
          "type": "address"
        },
        {
          "internalType": "uint256",
          "name": "blockNumber",
          "type": "uint256"
        }
      ],
      "name": "getPriorVotes",
      "outputs": [
        {
          "internalType": "uint96",
          "name": "",
          "type": "uint96"
        }
      ],
      "stateMutability": "view",
      "type": "function"
    },
    {
      "inputs": [
        {
          "internalType": "address",
          "name": "owner",
          "type": "address"
        },
        {
          "internalType": "address",
          "name": "operator",
          "type": "address"
        }
      ],
      "name": "isApprovedForAll",
      "outputs": [
        {
          "internalType": "bool",
          "name": "isOperator",
          "type": "bool"
        }
      ],
      "stateMutability": "view",
      "type": "function"
    },
    {
      "inputs": [
        {
          "internalType": "uint16",
          "name": "id",
          "type": "uint16"
        },
        {
          "internalType": "address",
          "name": "to",
          "type": "address"
        }
      ],
      "name": "mint",
      "outputs": [],
      "stateMutability": "payable",
      "type": "function"
    },
    {
      "inputs": [],
      "name": "minter",
      "outputs": [
        {
          "internalType": "address",
          "name": "",
          "type": "address"
        }
      ],
      "stateMutability": "view",
      "type": "function"
    },
    {
      "inputs": [],
      "name": "minterAdmin",
      "outputs": [
        {
          "internalType": "address",
          "name": "",
          "type": "address"
        }
      ],
      "stateMutability": "view",
      "type": "function"
    },
    {
      "inputs": [],
      "name": "name",
      "outputs": [
        {
          "internalType": "string",
          "name": "",
          "type": "string"
        }
      ],
      "stateMutability": "pure",
      "type": "function"
    },
    {
      "inputs": [
        {
          "internalType": "address",
          "name": "owner",
          "type": "address"
        },
        {
          "internalType": "uint128",
          "name": "batch",
          "type": "uint128"
        }
      ],
      "name": "nonces",
      "outputs": [
        {
          "internalType": "uint256",
          "name": "nonce",
          "type": "uint256"
        }
      ],
      "stateMutability": "view",
      "type": "function"
    },
    {
      "inputs": [
        {
          "internalType": "address",
          "name": "",
          "type": "address"
        }
      ],
      "name": "nonces",
      "outputs": [
        {
          "internalType": "uint256",
          "name": "",
          "type": "uint256"
        }
      ],
      "stateMutability": "view",
      "type": "function"
    },
    {
      "inputs": [
        {
          "internalType": "address",
          "name": "",
          "type": "address"
        }
      ],
      "name": "numCheckpoints",
      "outputs": [
        {
          "internalType": "uint32",
          "name": "",
          "type": "uint32"
        }
      ],
      "stateMutability": "view",
      "type": "function"
    },
    {
      "inputs": [
        {
          "internalType": "uint256[]",
          "name": "ids",
          "type": "uint256[]"
        }
      ],
      "name": "ownerAndLastTransferBlockNumberList",
      "outputs": [
        {
          "components": [
            {
              "internalType": "address",
              "name": "owner",
              "type": "address"
            },
            {
              "internalType": "uint256",
              "name": "lastTransferBlockNumber",
              "type": "uint256"
            }
          ],
          "internalType": "struct ERC721Base.OwnerData[]",
          "name": "ownersData",
          "type": "tuple[]"
        }
      ],
      "stateMutability": "view",
      "type": "function"
    },
    {
      "inputs": [
        {
          "internalType": "uint256",
          "name": "id",
          "type": "uint256"
        }
      ],
      "name": "ownerOf",
      "outputs": [
        {
          "internalType": "address",
          "name": "owner",
          "type": "address"
        }
      ],
      "stateMutability": "view",
      "type": "function"
    },
    {
      "inputs": [
        {
          "internalType": "uint256[]",
          "name": "ids",
          "type": "uint256[]"
        }
      ],
      "name": "owners",
      "outputs": [
        {
          "internalType": "address[]",
          "name": "addresses",
          "type": "address[]"
        }
      ],
      "stateMutability": "view",
      "type": "function"
    },
    {
      "inputs": [
        {
          "internalType": "address",
          "name": "signer",
          "type": "address"
        },
        {
          "internalType": "address",
          "name": "spender",
          "type": "address"
        },
        {
          "internalType": "uint256",
          "name": "id",
          "type": "uint256"
        },
        {
          "internalType": "uint256",
          "name": "deadline",
          "type": "uint256"
        },
        {
          "internalType": "uint256",
          "name": "nonce",
          "type": "uint256"
        },
        {
          "internalType": "bytes",
          "name": "signature",
          "type": "bytes"
        },
        {
          "internalType": "enum ERC721BaseWithPermit.SignatureType",
          "name": "signatureType",
          "type": "uint8"
        }
      ],
      "name": "permit",
      "outputs": [],
      "stateMutability": "nonpayable",
      "type": "function"
    },
    {
      "inputs": [
        {
          "internalType": "address",
          "name": "signer",
          "type": "address"
        },
        {
          "internalType": "address",
          "name": "spender",
          "type": "address"
        },
        {
          "internalType": "uint256",
          "name": "deadline",
          "type": "uint256"
        },
        {
          "internalType": "uint256",
          "name": "nonce",
          "type": "uint256"
        },
        {
          "internalType": "bytes",
          "name": "signature",
          "type": "bytes"
        },
        {
          "internalType": "enum ERC721BaseWithPermit.SignatureType",
          "name": "signatureType",
          "type": "uint8"
        }
      ],
      "name": "permitForAll",
      "outputs": [],
      "stateMutability": "nonpayable",
      "type": "function"
    },
    {
      "inputs": [],
      "name": "royaltyAdmin",
      "outputs": [
        {
          "internalType": "address",
          "name": "",
          "type": "address"
        }
      ],
      "stateMutability": "view",
      "type": "function"
    },
    {
      "inputs": [
        {
          "internalType": "uint256",
          "name": "id",
          "type": "uint256"
        },
        {
          "internalType": "uint256",
          "name": "salePrice",
          "type": "uint256"
        }
      ],
      "name": "royaltyInfo",
      "outputs": [
        {
          "internalType": "address",
          "name": "receiver",
          "type": "address"
        },
        {
          "internalType": "uint256",
          "name": "royaltyAmount",
          "type": "uint256"
        }
      ],
      "stateMutability": "view",
      "type": "function"
    },
    {
      "inputs": [
        {
          "internalType": "address",
          "name": "from",
          "type": "address"
        },
        {
          "internalType": "address",
          "name": "to",
          "type": "address"
        },
        {
          "internalType": "uint256",
          "name": "id",
          "type": "uint256"
        }
      ],
      "name": "safeTransferFrom",
      "outputs": [],
      "stateMutability": "nonpayable",
      "type": "function"
    },
    {
      "inputs": [
        {
          "internalType": "address",
          "name": "from",
          "type": "address"
        },
        {
          "internalType": "address",
          "name": "to",
          "type": "address"
        },
        {
          "internalType": "uint256",
          "name": "id",
          "type": "uint256"
        },
        {
          "internalType": "bytes",
          "name": "data",
          "type": "bytes"
        }
      ],
      "name": "safeTransferFrom",
      "outputs": [],
      "stateMutability": "nonpayable",
      "type": "function"
    },
    {
      "inputs": [
        {
          "internalType": "address",
          "name": "operator",
          "type": "address"
        },
        {
          "internalType": "bool",
          "name": "approved",
          "type": "bool"
        }
      ],
      "name": "setApprovalForAll",
      "outputs": [],
      "stateMutability": "nonpayable",
      "type": "function"
    },
    {
      "inputs": [
        {
          "internalType": "address",
          "name": "newMinter",
          "type": "address"
        }
      ],
      "name": "setMinter",
      "outputs": [],
      "stateMutability": "nonpayable",
      "type": "function"
    },
    {
      "inputs": [
        {
          "internalType": "address",
          "name": "newMinterAdmin",
          "type": "address"
        }
      ],
      "name": "setMinterAdmin",
      "outputs": [],
      "stateMutability": "nonpayable",
      "type": "function"
    },
    {
      "inputs": [
        {
          "internalType": "address",
          "name": "newRoyaltyAdmin",
          "type": "address"
        }
      ],
      "name": "setRoyaltyAdmin",
      "outputs": [],
      "stateMutability": "nonpayable",
      "type": "function"
    },
    {
      "inputs": [
        {
          "internalType": "address",
          "name": "newRecipient",
          "type": "address"
        },
        {
          "internalType": "uint256",
          "name": "royaltyPer10Thousands",
          "type": "uint256"
        }
      ],
      "name": "setRoyaltyParameters",
      "outputs": [],
      "stateMutability": "nonpayable",
      "type": "function"
    },
    {
      "inputs": [
        {
          "internalType": "address",
          "name": "newTokenURIAdmin",
          "type": "address"
        }
      ],
      "name": "setTokenURIAdmin",
      "outputs": [],
      "stateMutability": "nonpayable",
      "type": "function"
    },
    {
      "inputs": [
        {
          "internalType": "contract ITokenURI",
          "name": "newTokenURIContract",
          "type": "address"
        }
      ],
      "name": "setTokenURIContract",
      "outputs": [],
      "stateMutability": "nonpayable",
      "type": "function"
    },
    {
      "inputs": [
        {
          "internalType": "uint256",
          "name": "id",
          "type": "uint256"
        }
      ],
      "name": "sound",
      "outputs": [
        {
          "internalType": "uint8",
          "name": "note",
          "type": "uint8"
        },
        {
          "internalType": "uint8",
          "name": "instrument",
          "type": "uint8"
        }
      ],
      "stateMutability": "pure",
      "type": "function"
    },
    {
      "inputs": [
        {
          "internalType": "bytes4",
          "name": "id",
          "type": "bytes4"
        }
      ],
      "name": "supportsInterface",
      "outputs": [
        {
          "internalType": "bool",
          "name": "",
          "type": "bool"
        }
      ],
      "stateMutability": "pure",
      "type": "function"
    },
    {
      "inputs": [],
      "name": "symbol",
      "outputs": [
        {
          "internalType": "string",
          "name": "",
          "type": "string"
        }
      ],
      "stateMutability": "pure",
      "type": "function"
    },
    {
      "inputs": [
        {
          "internalType": "uint256",
          "name": "id",
          "type": "uint256"
        }
      ],
      "name": "tokenURI",
      "outputs": [
        {
          "internalType": "string",
          "name": "",
          "type": "string"
        }
      ],
      "stateMutability": "view",
      "type": "function"
    },
    {
      "inputs": [],
      "name": "tokenURIAdmin",
      "outputs": [
        {
          "internalType": "address",
          "name": "",
          "type": "address"
        }
      ],
      "stateMutability": "view",
      "type": "function"
    },
    {
      "inputs": [],
      "name": "tokenURIContract",
      "outputs": [
        {
          "internalType": "contract ITokenURI",
          "name": "",
          "type": "address"
        }
      ],
      "stateMutability": "view",
      "type": "function"
    },
    {
      "inputs": [
        {
          "internalType": "address",
          "name": "from",
          "type": "address"
        },
        {
          "internalType": "address",
          "name": "to",
          "type": "address"
        },
        {
          "internalType": "uint256",
          "name": "id",
          "type": "uint256"
        }
      ],
      "name": "transferFrom",
      "outputs": [],
      "stateMutability": "nonpayable",
      "type": "function"
    },
    {
      "inputs": [
        {
          "internalType": "address",
          "name": "delegator",
          "type": "address"
        }
      ],
      "name": "votesToDelegate",
      "outputs": [
        {
          "internalType": "uint96",
          "name": "",
          "type": "uint96"
        }
      ],
      "stateMutability": "view",
      "type": "function"
    }
  ],
  "transactionHash": "0xa2aea3973a7405e51696da6b12bf22cafd174268ff568d307976a2bc4e68b7cc",
  "args": [
    "0x0000000000000000000000000000000000000000",
    "0xE53cd71271AcAdbeb0f64d9c8C62bBdDc8cA9e66",
    "0xE53cd71271AcAdbeb0f64d9c8C62bBdDc8cA9e66",
    "0xE53cd71271AcAdbeb0f64d9c8C62bBdDc8cA9e66",
    "0x79b68200002e5d7963D1133da47A94Ed98C11856",
    "0xE53cd71271AcAdbeb0f64d9c8C62bBdDc8cA9e66"
  ],
  "solcInputHash": "91d95a219095e1b55f09f978b2865399",
  "bytecode": "0x60e06040526005805460ff191660011790553480156200001e57600080fd5b506040516200584638038062005846833981016040819052620000419162000276565b6001600160a01b0386166080524660a08190528590859085906200006581620001cf565b60c05250600a80546001600160a01b038581166001600160a01b03199283168117909355600b8054858316908416179055600c8054918616919092161790556040519081527f89de65ceb8cdf195a0b50021ed65dd305b54d3b744a0e283bd98c6058e2edd789060200160405180910390a16040516001600160a01b03821681527fb17416b845258d996b82b66c3c9166088ec5edf592b35fcce47c62a73d61ef419060200160405180910390a16040516001600160a01b03831681527fb8e0165b6664b7af8f9563c66e3d6b987c2d06fe192539d7123a0777b41a7c899060200160405180910390a15050600e80546001600160a01b0319166001600160a01b0385169081179091556040519081527f6bf5b09f847c9c9e97addeaf1ea9d5fd44ff6ae2c9c4aaf55fb476eca421a45d915060200160405180910390a1601180546001600160a01b0319166001600160a01b0392909216919091179055506200030a9350505050565b60007f8cad95687ba82c2ce50e74f7b754645e5117c3a5bec8151c0726d5857980a86662000216604080518082019091526006815265426c6565707360d01b602082015290565b80516020918201206040805192830193909352918101919091526060810183905230608082015260a001604051602081830303815290604052805190602001209050919050565b6001600160a01b03811681146200027357600080fd5b50565b60008060008060008060c087890312156200029057600080fd5b86516200029d816200025d565b6020880151909650620002b0816200025d565b6040880151909550620002c3816200025d565b6060880151909450620002d6816200025d565b6080880151909350620002e9816200025d565b60a0880151909250620002fc816200025d565b809150509295509295509295565b60805160a05160c05161550562000341600039600061343f0152600061340a01526000818161377f015261380501526155056000f3fe60806040526004361061031e5760003560e01c80637ba9638b116101a5578063b88d4fde116100ec578063e9580e9111610095578063f1127ed81161006f578063f1127ed814610a7d578063f394528214610afc578063fca3b5aa14610b29578063fdb3b6e814610b4957600080fd5b8063e9580e9114610a1d578063e985e9c514610a3d578063edd9803f14610a5d57600080fd5b8063e6b34e86116100c6578063e6b34e86146109bf578063e7a324dc146109d4578063e8a3d48514610a0857600080fd5b8063b88d4fde1461095f578063c3cda5201461097f578063c87b56dd1461099f57600080fd5b806399235f391161014e578063a22cb46511610128578063a22cb465146108f2578063a754d48f14610912578063b4b5ea571461093f57600080fd5b806399235f39146108925780639c205513146108b2578063a0554c26146108c557600080fd5b8063836381cb1161017f578063836381cb146107ff578063894e851f1461081f57806395d89b411461084c57600080fd5b80637ba9638b146107925780637ecebe00146107b257806382fc3147146107df57600080fd5b806334dd800d116102695780636352211e116102125780636fcfff45116101ec5780636fcfff45146106ed57806370a0823114610735578063782d6fe11461075557600080fd5b80636352211e14610680578063639147af146106a0578063698f87be146106c057600080fd5b8063585956d611610243578063585956d61461060c578063587cde1e146106405780635c19a95c1461066057600080fd5b806334dd800d146105aa5780633644e515146105d757806342842e0e146105ec57600080fd5b806320606b70116102cb5780632a55205a116102a55780632a55205a1461050357806330adf81f1461054f578063313ce5671461058357600080fd5b806320606b701461046957806323b872dd1461049d5780632954dbfa146104bd57600080fd5b8063081812fc116102fc578063081812fc146103f9578063095ea7b31461041957806313f663591461043b57600080fd5b806301ffc9a71461032357806306fdde031461035857806307546172146103a7575b600080fd5b34801561032f57600080fd5b5061034361033e3660046148f0565b610b69565b60405190151581526020015b60405180910390f35b34801561036457600080fd5b5060408051808201909152600681527f426c65657073000000000000000000000000000000000000000000000000000060208201525b60405161034f9190614983565b3480156103b357600080fd5b50600d546103d49073ffffffffffffffffffffffffffffffffffffffff1681565b60405173ffffffffffffffffffffffffffffffffffffffff909116815260200161034f565b34801561040557600080fd5b506103d4610414366004614996565b610bc6565b34801561042557600080fd5b506104396104343660046149d1565b610cb7565b005b34801561044757600080fd5b5061045b6104563660046149fd565b610e21565b60405190815260200161034f565b34801561047557600080fd5b5061045b7f8cad95687ba82c2ce50e74f7b754645e5117c3a5bec8151c0726d5857980a86681565b3480156104a957600080fd5b506104396104b8366004614a4b565b610e76565b3480156104c957600080fd5b506104e96104d8366004614996565b603f81169160069190911c600f1690565b6040805160ff93841681529290911660208301520161034f565b34801561050f57600080fd5b5061052361051e366004614a8c565b6111b8565b6040805173ffffffffffffffffffffffffffffffffffffffff909316835260208301919091520161034f565b34801561055b57600080fd5b5061045b7f49ecf333e5b8c95c40fdafc95c1ad136e8914a8fb55e9dc8bb01eaa83a2df9ad81565b34801561058f57600080fd5b50610598600081565b60405160ff909116815260200161034f565b3480156105b657600080fd5b50600a546103d49073ffffffffffffffffffffffffffffffffffffffff1681565b3480156105e357600080fd5b5061045b6111fb565b3480156105f857600080fd5b50610439610607366004614a4b565b61120a565b34801561061857600080fd5b5061045b7f29795620f29ed5790c945e3f419a1b3e2381aa07751ccffe5b81231639d74cd581565b34801561064c57600080fd5b506103d461065b366004614aae565b61122a565b34801561066c57600080fd5b5061043961067b366004614aae565b611267565b34801561068c57600080fd5b506103d461069b366004614996565b611292565b3480156106ac57600080fd5b506104396106bb366004614aae565b611323565b3480156106cc57600080fd5b50600e546103d49073ffffffffffffffffffffffffffffffffffffffff1681565b3480156106f957600080fd5b50610720610708366004614aae565b60086020526000908152604090205463ffffffff1681565b60405163ffffffff909116815260200161034f565b34801561074157600080fd5b5061045b610750366004614aae565b61141e565b34801561076157600080fd5b506107756107703660046149d1565b6114c6565b6040516bffffffffffffffffffffffff909116815260200161034f565b34801561079e57600080fd5b506104396107ad366004614aae565b6117dd565b3480156107be57600080fd5b5061045b6107cd366004614aae565b60096020526000908152604090205481565b3480156107eb57600080fd5b506104396107fa366004614aae565b6118d1565b34801561080b57600080fd5b5061043961081a366004614b1c565b6119c5565b34801561082b57600080fd5b50600b546103d49073ffffffffffffffffffffffffffffffffffffffff1681565b34801561085857600080fd5b5060408051808201909152600581527f424c454550000000000000000000000000000000000000000000000000000000602082015261039a565b34801561089e57600080fd5b506104396108ad366004614aae565b611d1d565b6104396108c0366004614bb2565b611e11565b3480156108d157600080fd5b506108e56108e0366004614be7565b6120b0565b60405161034f9190614c5c565b3480156108fe57600080fd5b5061043961090d366004614cb6565b612183565b34801561091e57600080fd5b50600c546103d49073ffffffffffffffffffffffffffffffffffffffff1681565b34801561094b57600080fd5b5061077561095a366004614aae565b612192565b34801561096b57600080fd5b5061043961097a366004614dad565b61222f565b34801561098b57600080fd5b5061043961099a366004614e5c565b612574565b3480156109ab57600080fd5b5061039a6109ba366004614996565b612988565b3480156109cb57600080fd5b50610439612a4d565b3480156109e057600080fd5b5061045b7fe48329057bfd03d55e49b547132e39cffd9c1820ad7b9d4c5307691425d15adf81565b348015610a1457600080fd5b5061039a612af8565b348015610a2957600080fd5b50610775610a38366004614aae565b612bbd565b348015610a4957600080fd5b50610343610a58366004614ebe565b612be9565b348015610a6957600080fd5b50610439610a783660046149d1565b612c31565b348015610a8957600080fd5b50610ad3610a98366004614edc565b600760209081526000928352604080842090915290825290205463ffffffff81169064010000000090046bffffffffffffffffffffffff1682565b6040805163ffffffff90931683526bffffffffffffffffffffffff90911660208301520161034f565b348015610b0857600080fd5b50610b1c610b17366004614be7565b612cfd565b60405161034f9190614f13565b348015610b3557600080fd5b50610439610b44366004614aae565b612e30565b348015610b5557600080fd5b50610439610b64366004614f78565b612f24565b6000610b74826130fc565b80610bc057507f2a55205a000000000000000000000000000000000000000000000000000000007fffffffff000000000000000000000000000000000000000000000000000000008316145b92915050565b6000818152602081905260408120547f80000000000000000000000000000000000000000000000000000000000000008082161473ffffffffffffffffffffffffffffffffffffffff8216610c7c576040517f08c379a000000000000000000000000000000000000000000000000000000000815260206004820152601160248201527f4e4f4e4558495354454e545f544f4b454e00000000000000000000000000000060448201526064015b60405180910390fd5b8015610cad5750505060009081526003602052604090205473ffffffffffffffffffffffffffffffffffffffff1690565b5060009392505050565b6000818152602081905260409020546affffffffffffffffffffff60a082901c1673ffffffffffffffffffffffffffffffffffffffff8216610d55576040517f08c379a000000000000000000000000000000000000000000000000000000000815260206004820152601160248201527f4e4f4e4558495354454e545f544f4b454e0000000000000000000000000000006044820152606401610c73565b3373ffffffffffffffffffffffffffffffffffffffff83161480610da9575073ffffffffffffffffffffffffffffffffffffffff8216600090815260026020908152604080832033845290915290205460ff165b610e0f576040517f08c379a000000000000000000000000000000000000000000000000000000000815260206004820152601560248201527f554e415554484f52495a45445f415050524f56414c00000000000000000000006044820152606401610c73565b610e1b828286866131dd565b50505050565b73ffffffffffffffffffffffffffffffffffffffff821660009081526004602090815260408083206fffffffffffffffffffffffffffffffff80861685529252822054610e6f911682615034565b9392505050565b6000818152602081905260409020547f80000000000000000000000000000000000000000000000000000000000000008082161473ffffffffffffffffffffffffffffffffffffffff8216610f27576040517f08c379a000000000000000000000000000000000000000000000000000000000815260206004820152601160248201527f4e4f4e4558495354454e545f544f4b454e0000000000000000000000000000006044820152606401610c73565b8473ffffffffffffffffffffffffffffffffffffffff168273ffffffffffffffffffffffffffffffffffffffff1614610fbc576040517f08c379a000000000000000000000000000000000000000000000000000000000815260206004820152600960248201527f4e4f545f4f574e455200000000000000000000000000000000000000000000006044820152606401610c73565b73ffffffffffffffffffffffffffffffffffffffff8416611039576040517f08c379a000000000000000000000000000000000000000000000000000000000815260206004820152601260248201527f4e4f545f544f5f5a45524f4144445245535300000000000000000000000000006044820152606401610c73565b73ffffffffffffffffffffffffffffffffffffffff84163014156110b9576040517f08c379a000000000000000000000000000000000000000000000000000000000815260206004820152600b60248201527f4e4f545f544f5f544849530000000000000000000000000000000000000000006044820152606401610c73565b3373ffffffffffffffffffffffffffffffffffffffff8616146111a65773ffffffffffffffffffffffffffffffffffffffff8516600090815260026020908152604080832033845290915290205460ff16806111405750808015611140575060008381526003602052604090205473ffffffffffffffffffffffffffffffffffffffff1633145b6111a6576040517f08c379a000000000000000000000000000000000000000000000000000000000815260206004820152601560248201527f554e415554484f52495a45445f5452414e5346455200000000000000000000006044820152606401610c73565b6111b1858585613316565b5050505050565b600f5460105473ffffffffffffffffffffffffffffffffffffffff90911690600090612710906111e8908561504c565b6111f291906150b8565b90509250929050565b6000611205613405565b905090565b6112258383836040518060200160405280600081525061222f565b505050565b73ffffffffffffffffffffffffffffffffffffffff80821660009081526006602052604081205490911680156112605780610e6f565b5090919050565b73ffffffffffffffffffffffffffffffffffffffff81166112855750335b61128f3382613465565b50565b60008181526020819052604090205473ffffffffffffffffffffffffffffffffffffffff811661131e576040517f08c379a000000000000000000000000000000000000000000000000000000000815260206004820152601160248201527f4e4f4e4558495354454e545f544f4b454e0000000000000000000000000000006044820152606401610c73565b919050565b600a5473ffffffffffffffffffffffffffffffffffffffff1633146113a4576040517f08c379a000000000000000000000000000000000000000000000000000000000815260206004820152600e60248201527f4e4f545f415554484f52495a45440000000000000000000000000000000000006044820152606401610c73565b600a80547fffffffffffffffffffffffff00000000000000000000000000000000000000001673ffffffffffffffffffffffffffffffffffffffff83169081179091556040519081527f89de65ceb8cdf195a0b50021ed65dd305b54d3b744a0e283bd98c6058e2edd78906020015b60405180910390a150565b600073ffffffffffffffffffffffffffffffffffffffff821661149d576040517f08c379a000000000000000000000000000000000000000000000000000000000815260206004820152601260248201527f5a45524f5f414444524553535f4f574e455200000000000000000000000000006044820152606401610c73565b5073ffffffffffffffffffffffffffffffffffffffff1660009081526001602052604090205490565b6000438210611557576040517f08c379a000000000000000000000000000000000000000000000000000000000815260206004820152603760248201527f455243373231436865636b706f696e7461626c653a3a6765745072696f72566f60448201527f7465733a206e6f74207965742064657465726d696e65640000000000000000006064820152608401610c73565b73ffffffffffffffffffffffffffffffffffffffff831660009081526008602052604090205463ffffffff1680611592576000915050610bc0565b73ffffffffffffffffffffffffffffffffffffffff8416600090815260076020526040812084916115c46001856150cc565b63ffffffff9081168252602082019290925260400160002054161161164a5773ffffffffffffffffffffffffffffffffffffffff84166000908152600760205260408120906116146001846150cc565b63ffffffff16815260208101919091526040016000205464010000000090046bffffffffffffffffffffffff169150610bc09050565b73ffffffffffffffffffffffffffffffffffffffff8416600090815260076020908152604080832083805290915290205463ffffffff16831015611692576000915050610bc0565b6000806116a06001846150cc565b90505b8163ffffffff168163ffffffff16111561178557600060026116c584846150cc565b6116cf91906150f1565b6116d990836150cc565b73ffffffffffffffffffffffffffffffffffffffff8816600090815260076020908152604080832063ffffffff8581168552908352928190208151808301909252549283168082526401000000009093046bffffffffffffffffffffffff169181019190915291925087141561175957602001519450610bc09350505050565b805163ffffffff168711156117705781935061177e565b61177b6001836150cc565b92505b50506116a3565b5073ffffffffffffffffffffffffffffffffffffffff8516600090815260076020908152604080832063ffffffff909416835292905220546bffffffffffffffffffffffff6401000000009091041691505092915050565b600b5473ffffffffffffffffffffffffffffffffffffffff16331461185e576040517f08c379a000000000000000000000000000000000000000000000000000000000815260206004820152600e60248201527f4e4f545f415554484f52495a45440000000000000000000000000000000000006044820152606401610c73565b600b80547fffffffffffffffffffffffff00000000000000000000000000000000000000001673ffffffffffffffffffffffffffffffffffffffff83169081179091556040519081527fb17416b845258d996b82b66c3c9166088ec5edf592b35fcce47c62a73d61ef4190602001611413565b600a5473ffffffffffffffffffffffffffffffffffffffff163314611952576040517f08c379a000000000000000000000000000000000000000000000000000000000815260206004820152600e60248201527f4e4f545f415554484f52495a45440000000000000000000000000000000000006044820152606401610c73565b600e80547fffffffffffffffffffffffff00000000000000000000000000000000000000001673ffffffffffffffffffffffffffffffffffffffff83169081179091556040519081527f6bf5b09f847c9c9e97addeaf1ea9d5fd44ff6ae2c9c4aaf55fb476eca421a45d90602001611413565b42851015611a2f576040517f08c379a000000000000000000000000000000000000000000000000000000000815260206004820152601760248201527f5045524d49545f444541444c494e455f455850495245440000000000000000006044820152606401610c73565b6000868152602081905260409020546affffffffffffffffffffff60a082901c1673ffffffffffffffffffffffffffffffffffffffff8216611acd576040517f08c379a000000000000000000000000000000000000000000000000000000000815260206004820152601160248201527f4e4f4e4558495354454e545f544f4b454e0000000000000000000000000000006044820152606401610c73565b8173ffffffffffffffffffffffffffffffffffffffff168a73ffffffffffffffffffffffffffffffffffffffff161480611b39575073ffffffffffffffffffffffffffffffffffffffff8083166000908152600260209081526040808320938e168352929052205460ff165b611b9f576040517f08c379a000000000000000000000000000000000000000000000000000000000815260206004820152601360248201527f554e415554484f52495a45445f5349474e4552000000000000000000000000006044820152606401610c73565b611baf8a8a8a8a8a8a8a8a61350a565b608086901c6000611bd170010000000000000000000000000000000089615114565b73ffffffffffffffffffffffffffffffffffffffff8d1660009081526004602090815260408083206fffffffffffffffffffffffffffffffff80881685529252909120549192509081169082168114611c86576040517f08c379a000000000000000000000000000000000000000000000000000000000815260206004820152600d60248201527f494e56414c49445f4e4f4e4345000000000000000000000000000000000000006044820152606401610c73565b611c91816001615128565b73ffffffffffffffffffffffffffffffffffffffff8e1660009081526004602090815260408083206fffffffffffffffffffffffffffffffff8881168552925290912080547fffffffffffffffffffffffffffffffff000000000000000000000000000000001692909116919091179055611d0e85858e8e6131dd565b50505050505050505050505050565b600c5473ffffffffffffffffffffffffffffffffffffffff163314611d9e576040517f08c379a000000000000000000000000000000000000000000000000000000000815260206004820152600e60248201527f4e4f545f415554484f52495a45440000000000000000000000000000000000006044820152606401610c73565b600c80547fffffffffffffffffffffffff00000000000000000000000000000000000000001673ffffffffffffffffffffffffffffffffffffffff83169081179091556040519081527fb8e0165b6664b7af8f9563c66e3d6b987c2d06fe192539d7123a0777b41a7c8990602001611413565b600d5473ffffffffffffffffffffffffffffffffffffffff163314611e92576040517f08c379a000000000000000000000000000000000000000000000000000000000815260206004820152601360248201527f4f4e4c595f4d494e5445525f414c4c4f574544000000000000000000000000006044820152606401610c73565b6104008261ffff1610611f01576040517f08c379a000000000000000000000000000000000000000000000000000000000815260206004820152600d60248201527f494e56414c49445f534f554e44000000000000000000000000000000000000006044820152606401610c73565b73ffffffffffffffffffffffffffffffffffffffff8116611f7e576040517f08c379a000000000000000000000000000000000000000000000000000000000815260206004820152601260248201527f4e4f545f544f5f5a45524f4144445245535300000000000000000000000000006044820152606401610c73565b73ffffffffffffffffffffffffffffffffffffffff8116301415611ffe576040517f08c379a000000000000000000000000000000000000000000000000000000000815260206004820152600b60248201527f4e4f545f544f5f544849530000000000000000000000000000000000000000006044820152606401610c73565b61ffff821660009081526020819052604090205473ffffffffffffffffffffffffffffffffffffffff811615612090576040517f08c379a000000000000000000000000000000000000000000000000000000000815260206004820152600f60248201527f414c52454144595f4352454154454400000000000000000000000000000000006044820152606401610c73565b6112256000838561ffff16604051806020016040528060008152506135f6565b60608167ffffffffffffffff8111156120cb576120cb614ce9565b6040519080825280602002602001820160405280156120f4578160200160208202803683370190505b50905060005b8281101561217c5760008484838181106121165761211661515c565b905060200201359050600080828152602001908152602001600020548383815181106121445761214461515c565b73ffffffffffffffffffffffffffffffffffffffff9092166020928302919091019091015250806121748161518b565b9150506120fa565b5092915050565b61218e338383613691565b5050565b73ffffffffffffffffffffffffffffffffffffffff811660009081526008602052604081205463ffffffff16806121ca576000610e6f565b73ffffffffffffffffffffffffffffffffffffffff83166000908152600760205260408120906121fb6001846150cc565b63ffffffff16815260208101919091526040016000205464010000000090046bffffffffffffffffffffffff169392505050565b6000828152602081905260409020547f80000000000000000000000000000000000000000000000000000000000000008082161473ffffffffffffffffffffffffffffffffffffffff82166122e0576040517f08c379a000000000000000000000000000000000000000000000000000000000815260206004820152601160248201527f4e4f4e4558495354454e545f544f4b454e0000000000000000000000000000006044820152606401610c73565b8573ffffffffffffffffffffffffffffffffffffffff168273ffffffffffffffffffffffffffffffffffffffff1614612375576040517f08c379a000000000000000000000000000000000000000000000000000000000815260206004820152600960248201527f4e4f545f4f574e455200000000000000000000000000000000000000000000006044820152606401610c73565b73ffffffffffffffffffffffffffffffffffffffff85166123f2576040517f08c379a000000000000000000000000000000000000000000000000000000000815260206004820152601260248201527f4e4f545f544f5f5a45524f4144445245535300000000000000000000000000006044820152606401610c73565b73ffffffffffffffffffffffffffffffffffffffff8516301415612472576040517f08c379a000000000000000000000000000000000000000000000000000000000815260206004820152600b60248201527f4e4f545f544f5f544849530000000000000000000000000000000000000000006044820152606401610c73565b3373ffffffffffffffffffffffffffffffffffffffff871614612560578080156124bf575060008481526003602052604090205473ffffffffffffffffffffffffffffffffffffffff1633145b806124fa575073ffffffffffffffffffffffffffffffffffffffff8616600090815260026020908152604080832033845290915290205460ff165b612560576040517f08c379a000000000000000000000000000000000000000000000000000000000815260206004820152601560248201527f554e415554484f52495a45445f5452414e5346455200000000000000000000006044820152606401610c73565b61256c868686866135f6565b505050505050565b60007f8cad95687ba82c2ce50e74f7b754645e5117c3a5bec8151c0726d5857980a8666125d160408051808201909152600681527f426c656570730000000000000000000000000000000000000000000000000000602082015290565b805190602001206125df4690565b60408051602080820195909552808201939093526060830191909152306080808401919091528151808403909101815260a0830182528051908401207fe48329057bfd03d55e49b547132e39cffd9c1820ad7b9d4c5307691425d15adf60c084015273ffffffffffffffffffffffffffffffffffffffff8b1660e084015261010083018a90526101208084018a9052825180850390910181526101408401909252815191909301207f1901000000000000000000000000000000000000000000000000000000000000610160830152610162820183905261018282018190529192506000906101a201604080517fffffffffffffffffffffffffffffffffffffffffffffffffffffffffffffffe08184030181528282528051602091820120600080855291840180845281905260ff8a169284019290925260608301889052608083018790529092509060019060a0016020604051602081039080840390855afa158015612751573d6000803e3d6000fd5b50506040517fffffffffffffffffffffffffffffffffffffffffffffffffffffffffffffffe0015191505073ffffffffffffffffffffffffffffffffffffffff811661281f576040517f08c379a000000000000000000000000000000000000000000000000000000000815260206004820152603660248201527f455243373231436865636b706f696e7461626c653a3a64656c6567617465427960448201527f5369673a20696e76616c6964207369676e6174757265000000000000000000006064820152608401610c73565b73ffffffffffffffffffffffffffffffffffffffff811660009081526009602052604081208054916128508361518b565b9190505589146128e2576040517f08c379a000000000000000000000000000000000000000000000000000000000815260206004820152603260248201527f455243373231436865636b706f696e7461626c653a3a64656c6567617465427960448201527f5369673a20696e76616c6964206e6f6e636500000000000000000000000000006064820152608401610c73565b87421115612972576040517f08c379a000000000000000000000000000000000000000000000000000000000815260206004820152603660248201527f455243373231436865636b706f696e7461626c653a3a64656c6567617465427960448201527f5369673a207369676e61747572652065787069726564000000000000000000006064820152608401610c73565b61297c818b613465565b50505050505050505050565b600e546040517fc87b56dd0000000000000000000000000000000000000000000000000000000081526004810183905260609173ffffffffffffffffffffffffffffffffffffffff169063c87b56dd9060240160006040518083038186803b1580156129f357600080fd5b505afa158015612a07573d6000803e3d6000fd5b505050506040513d6000823e601f3d9081017fffffffffffffffffffffffffffffffffffffffffffffffffffffffffffffffe0168201604052610bc091908101906151c4565b60115473ffffffffffffffffffffffffffffffffffffffff163314612ace576040517f08c379a000000000000000000000000000000000000000000000000000000000815260206004820152600e60248201527f4e4f545f415554484f52495a45440000000000000000000000000000000000006044820152606401610c73565b600580547fffffffffffffffffffffffffffffffffffffffffffffffffffffffffffffff00169055565b600e54604080517fe8a3d485000000000000000000000000000000000000000000000000000000008152905160609273ffffffffffffffffffffffffffffffffffffffff169163e8a3d485916004808301926000929190829003018186803b158015612b6357600080fd5b505afa158015612b77573d6000803e3d6000fd5b505050506040513d6000823e601f3d9081017fffffffffffffffffffffffffffffffffffffffffffffffffffffffffffffffe016820160405261120591908101906151c4565b6000610bc0612bcb8361141e565b6040518060600160405280603d815260200161545c603d9139613729565b73ffffffffffffffffffffffffffffffffffffffff808316600090815260026020908152604080832093851683529290529081205460ff1680610e6f5750610e6f838361377b565b600b5473ffffffffffffffffffffffffffffffffffffffff163314612cb2576040517f08c379a000000000000000000000000000000000000000000000000000000000815260206004820152600e60248201527f4e4f545f415554484f52495a45440000000000000000000000000000000000006044820152606401610c73565b600f80547fffffffffffffffffffffffff00000000000000000000000000000000000000001673ffffffffffffffffffffffffffffffffffffffff9390931692909217909155601055565b60608167ffffffffffffffff811115612d1857612d18614ce9565b604051908082528060200260200182016040528015612d5d57816020015b6040805180820190915260008082526020820152815260200190600190039081612d365790505b50905060005b8281101561217c576000806000868685818110612d8257612d8261515c565b90506020020135815260200190815260200160002054905080838381518110612dad57612dad61515c565b60200260200101516000019073ffffffffffffffffffffffffffffffffffffffff16908173ffffffffffffffffffffffffffffffffffffffff168152505060a081901c6affffffffffffffffffffff16838381518110612e0f57612e0f61515c565b60209081029190910181015101525080612e288161518b565b915050612d63565b600c5473ffffffffffffffffffffffffffffffffffffffff163314612eb1576040517f08c379a000000000000000000000000000000000000000000000000000000000815260206004820152600e60248201527f4e4f545f415554484f52495a45440000000000000000000000000000000000006044820152606401610c73565b600d80547fffffffffffffffffffffffff00000000000000000000000000000000000000001673ffffffffffffffffffffffffffffffffffffffff83169081179091556040519081527f726b590ef91a8c76ad05bbe91a57ef84605276528f49cd47d787f558a4e755b690602001611413565b42851015612f8e576040517f08c379a000000000000000000000000000000000000000000000000000000000815260206004820152601760248201527f5045524d49545f444541444c494e455f455850495245440000000000000000006044820152606401610c73565b612f9d878787878787876138a4565b608084901c6000612fbf70010000000000000000000000000000000087615114565b73ffffffffffffffffffffffffffffffffffffffff8a1660009081526004602090815260408083206fffffffffffffffffffffffffffffffff80881685529252909120549192509081169082168114613074576040517f08c379a000000000000000000000000000000000000000000000000000000000815260206004820152600d60248201527f494e56414c49445f4e4f4e4345000000000000000000000000000000000000006044820152606401610c73565b61307f816001615128565b73ffffffffffffffffffffffffffffffffffffffff8b1660009081526004602090815260408083206fffffffffffffffffffffffffffffffff8881168552925290912080547fffffffffffffffffffffffffffffffff00000000000000000000000000000000169290911691909117905561297c8a8a6001613691565b60007f01ffc9a7000000000000000000000000000000000000000000000000000000007fffffffff000000000000000000000000000000000000000000000000000000008316148061318f57507f80ac58cd000000000000000000000000000000000000000000000000000000007fffffffff000000000000000000000000000000000000000000000000000000008316145b80610bc05750507fffffffff00000000000000000000000000000000000000000000000000000000167f5b5e139f000000000000000000000000000000000000000000000000000000001490565b73ffffffffffffffffffffffffffffffffffffffff821661322a57600081815260208190526040902060a084901b73ffffffffffffffffffffffffffffffffffffffff86161790556132b5565b6000818152602081815260408083207f800000000000000000000000000000000000000000000000000000000000000073ffffffffffffffffffffffffffffffffffffffff89811660a08a901b1791909117909155600390925290912080547fffffffffffffffffffffffff0000000000000000000000000000000000000000169184169190911790555b808273ffffffffffffffffffffffffffffffffffffffff168573ffffffffffffffffffffffffffffffffffffffff167f8c5be1e5ebec7d5bd14f71427d1e84f3dd0314c0f7b2291e5b200ac8c7c3b92560405160405180910390a450505050565b61332183838361397d565b73ffffffffffffffffffffffffffffffffffffffff8083166000908152600160208190526040909120805490910190558316156133a45773ffffffffffffffffffffffffffffffffffffffff8316600090815260016020526040902080547fffffffffffffffffffffffffffffffffffffffffffffffffffffffffffffffff0190555b6000818152602081905260408082204360a01b73ffffffffffffffffffffffffffffffffffffffff80871691821790925591518493918716917fddf252ad1be2c89b69c2b068fc378daa952ba7f163c4a11628f55a4df523b3ef91a4505050565b6000467f0000000000000000000000000000000000000000000000000000000000000000811461343d57613438816139a4565b61345f565b7f00000000000000000000000000000000000000000000000000000000000000005b91505090565b60006134708361122a565b73ffffffffffffffffffffffffffffffffffffffff84811660008181526006602052604080822080547fffffffffffffffffffffffff000000000000000000000000000000000000000016888616908117909155905194955093928516927f3134e8a2e6d97e929a7e54011ea5485d7d196dd5f0ba4d4ef95803e8e3fc257f9190a460006134fd84612bbd565b9050610e1b828483613a48565b6000613514613405565b604080517f49ecf333e5b8c95c40fdafc95c1ad136e8914a8fb55e9dc8bb01eaa83a2df9ad602082015273ffffffffffffffffffffffffffffffffffffffff8b1691810191909152606081018990526080810187905260a0810188905260c001604051602081830303815290604052805190602001206040516020016135cc9291907f190100000000000000000000000000000000000000000000000000000000000081526002810192909252602282015260420190565b60405160208183030381529060405290506135ea8982868686613c6d565b505b5050505050505050565b613601848484613316565b73ffffffffffffffffffffffffffffffffffffffff83163b15610e1b5761362b3385858585613fed565b610e1b576040517f08c379a000000000000000000000000000000000000000000000000000000000815260206004820152601860248201527f4552433732315f5452414e534645525f52454a454354454400000000000000006044820152606401610c73565b73ffffffffffffffffffffffffffffffffffffffff83811660008181526002602090815260408083209487168084529482529182902080547fffffffffffffffffffffffffffffffffffffffffffffffffffffffffffffff001686151590811790915591519182527f17307eab39ab6107e8899845ad3d59bd9653f200f220920489ca2b5937696c31910160405180910390a3505050565b6000816c010000000000000000000000008410613773576040517f08c379a0000000000000000000000000000000000000000000000000000000008152600401610c739190614983565b509192915050565b60007f000000000000000000000000000000000000000000000000000000000000000073ffffffffffffffffffffffffffffffffffffffff166137c057506000610bc0565b6040517fc455279100000000000000000000000000000000000000000000000000000000815273ffffffffffffffffffffffffffffffffffffffff84811660048301527f0000000000000000000000000000000000000000000000000000000000000000918482169183169063c45527919060240160206040518083038186803b15801561384d57600080fd5b505afa158015613861573d6000803e3d6000fd5b505050506040513d601f19601f82011682018060405250810190613885919061523b565b73ffffffffffffffffffffffffffffffffffffffff1614949350505050565b60006138ae613405565b604080517f29795620f29ed5790c945e3f419a1b3e2381aa07751ccffe5b81231639d74cd5602082015273ffffffffffffffffffffffffffffffffffffffff8a1691810191909152606081018790526080810188905260a0016040516020818303038152906040528051906020012060405160200161395f9291907f190100000000000000000000000000000000000000000000000000000000000081526002810192909252602282015260420190565b60405160208183030381529060405290506135ec8882868686613c6d565b60055460ff1615611225576112256139948461122a565b61399d8461122a565b6001613a48565b60007f8cad95687ba82c2ce50e74f7b754645e5117c3a5bec8151c0726d5857980a866613a0160408051808201909152600681527f426c656570730000000000000000000000000000000000000000000000000000602082015290565b80516020918201206040805192830193909352918101919091526060810183905230608082015260a001604051602081830303815290604052805190602001209050919050565b8173ffffffffffffffffffffffffffffffffffffffff168373ffffffffffffffffffffffffffffffffffffffff1614158015613a9257506000816bffffffffffffffffffffffff16115b156112255773ffffffffffffffffffffffffffffffffffffffff831615613b845773ffffffffffffffffffffffffffffffffffffffff831660009081526008602052604081205463ffffffff169081613aec576000613b4b565b73ffffffffffffffffffffffffffffffffffffffff8516600090815260076020526040812090613b1d6001856150cc565b63ffffffff16815260208101919091526040016000205464010000000090046bffffffffffffffffffffffff165b90506000613b728285604051806060016040528060378152602001615499603791396140d1565b9050613b808684848461413f565b5050505b73ffffffffffffffffffffffffffffffffffffffff8216156112255773ffffffffffffffffffffffffffffffffffffffff821660009081526008602052604081205463ffffffff169081613bd9576000613c38565b73ffffffffffffffffffffffffffffffffffffffff8416600090815260076020526040812090613c0a6001856150cc565b63ffffffff16815260208101919091526040016000205464010000000090046bffffffffffffffffffffffff165b90506000613c5f82856040518060600160405280603681526020016153e2603691396143c2565b905061256c8584848461413f565b6002816002811115613c8157613c81615258565b1415613dbd576040517f20c13b0b000000000000000000000000000000000000000000000000000000008082529073ffffffffffffffffffffffffffffffffffffffff8716906320c13b0b90613cdf908890889088906004016152d0565b60206040518083038186803b158015613cf757600080fd5b505afa158015613d0b573d6000803e3d6000fd5b505050506040513d601f19601f82011682018060405250810190613d2f9190615300565b7fffffffff000000000000000000000000000000000000000000000000000000001614613db8576040517f08c379a000000000000000000000000000000000000000000000000000000000815260206004820152601660248201527f5349474e41545552455f313237315f494e56414c4944000000000000000000006044820152606401610c73565b6111b1565b6001816002811115613dd157613dd1615258565b1415613f0d57835160208501206040517f1626ba7e000000000000000000000000000000000000000000000000000000008082529173ffffffffffffffffffffffffffffffffffffffff881691631626ba7e91613e34918890889060040161531d565b60206040518083038186803b158015613e4c57600080fd5b505afa158015613e60573d6000803e3d6000fd5b505050506040513d601f19601f82011682018060405250810190613e849190615300565b7fffffffff000000000000000000000000000000000000000000000000000000001614613db8576040517f08c379a000000000000000000000000000000000000000000000000000000000815260206004820152601660248201527f5349474e41545552455f313635345f494e56414c4944000000000000000000006044820152606401610c73565b6000613f5684848080601f01602080910402602001604051908101604052809392919081815260200183838082843760009201919091525050885160208a012092915050614433565b90508073ffffffffffffffffffffffffffffffffffffffff168673ffffffffffffffffffffffffffffffffffffffff161461256c576040517f08c379a000000000000000000000000000000000000000000000000000000000815260206004820152601660248201527f5349474e41545552455f57524f4e475f5349474e4552000000000000000000006044820152606401610c73565b6000808473ffffffffffffffffffffffffffffffffffffffff1663150b7a02888887876040518563ffffffff1660e01b815260040161402f9493929190615337565b602060405180830381600087803b15801561404957600080fd5b505af115801561405d573d6000803e3d6000fd5b505050506040513d601f19601f820116820180604052508101906140819190615300565b7fffffffff00000000000000000000000000000000000000000000000000000000167f150b7a02000000000000000000000000000000000000000000000000000000001491505095945050505050565b6000836bffffffffffffffffffffffff16836bffffffffffffffffffffffff161115829061412c576040517f08c379a0000000000000000000000000000000000000000000000000000000008152600401610c739190614983565b506141378385615376565b949350505050565b60006141634360405180608001604052806044815260200161541860449139614457565b905060008463ffffffff161180156141ca575073ffffffffffffffffffffffffffffffffffffffff8516600090815260076020526040812063ffffffff8316916141ae6001886150cc565b63ffffffff908116825260208201929092526040016000205416145b156142605773ffffffffffffffffffffffffffffffffffffffff8516600090815260076020526040812083916142016001886150cc565b63ffffffff168152602081019190915260400160002080546bffffffffffffffffffffffff92909216640100000000027fffffffffffffffffffffffffffffffff000000000000000000000000ffffffff90921691909117905561435b565b60408051808201825263ffffffff80841682526bffffffffffffffffffffffff808616602080850191825273ffffffffffffffffffffffffffffffffffffffff8b166000908152600782528681208b8616825290915294909420925183549451909116640100000000027fffffffffffffffffffffffffffffffff0000000000000000000000000000000090941691161791909117905561430284600161539b565b73ffffffffffffffffffffffffffffffffffffffff8616600090815260086020526040902080547fffffffffffffffffffffffffffffffffffffffffffffffffffffffff000000001663ffffffff929092169190911790555b604080516bffffffffffffffffffffffff80861682528416602082015273ffffffffffffffffffffffffffffffffffffffff8716917fdec2bacdd2f05b59de34da9b523dff8be42e5e38e818c82fdb0bae774387a724910160405180910390a25050505050565b6000806143cf84866153ba565b9050846bffffffffffffffffffffffff16816bffffffffffffffffffffffff161015839061442a576040517f08c379a0000000000000000000000000000000000000000000000000000000008152600401610c739190614983565b50949350505050565b60008060006144428585614499565b9150915061444f81614509565b509392505050565b6000816401000000008410613773576040517f08c379a0000000000000000000000000000000000000000000000000000000008152600401610c739190614983565b6000808251604114156144d05760208301516040840151606085015160001a6144c487828585614762565b94509450505050614502565b8251604014156144fa57602083015160408401516144ef86838361487a565b935093505050614502565b506000905060025b9250929050565b600081600481111561451d5761451d615258565b14156145265750565b600181600481111561453a5761453a615258565b14156145a2576040517f08c379a000000000000000000000000000000000000000000000000000000000815260206004820152601860248201527f45434453413a20696e76616c6964207369676e617475726500000000000000006044820152606401610c73565b60028160048111156145b6576145b6615258565b141561461e576040517f08c379a000000000000000000000000000000000000000000000000000000000815260206004820152601f60248201527f45434453413a20696e76616c6964207369676e6174757265206c656e677468006044820152606401610c73565b600381600481111561463257614632615258565b14156146c0576040517f08c379a000000000000000000000000000000000000000000000000000000000815260206004820152602260248201527f45434453413a20696e76616c6964207369676e6174757265202773272076616c60448201527f75650000000000000000000000000000000000000000000000000000000000006064820152608401610c73565b60048160048111156146d4576146d4615258565b141561128f576040517f08c379a000000000000000000000000000000000000000000000000000000000815260206004820152602260248201527f45434453413a20696e76616c6964207369676e6174757265202776272076616c60448201527f75650000000000000000000000000000000000000000000000000000000000006064820152608401610c73565b6000807f7fffffffffffffffffffffffffffffff5d576e7357a4501ddfe92f46681b20a08311156147995750600090506003614871565b8460ff16601b141580156147b157508460ff16601c14155b156147c25750600090506004614871565b6040805160008082526020820180845289905260ff881692820192909252606081018690526080810185905260019060a0016020604051602081039080840390855afa158015614816573d6000803e3d6000fd5b50506040517fffffffffffffffffffffffffffffffffffffffffffffffffffffffffffffffe0015191505073ffffffffffffffffffffffffffffffffffffffff811661486a57600060019250925050614871565b9150600090505b94509492505050565b6000807f7fffffffffffffffffffffffffffffffffffffffffffffffffffffffffffffff831660ff84901c601b016148b487828885614762565b935093505050935093915050565b7fffffffff000000000000000000000000000000000000000000000000000000008116811461128f57600080fd5b60006020828403121561490257600080fd5b8135610e6f816148c2565b60005b83811015614928578181015183820152602001614910565b83811115610e1b5750506000910152565b6000815180845261495181602086016020860161490d565b601f017fffffffffffffffffffffffffffffffffffffffffffffffffffffffffffffffe0169290920160200192915050565b602081526000610e6f6020830184614939565b6000602082840312156149a857600080fd5b5035919050565b73ffffffffffffffffffffffffffffffffffffffff8116811461128f57600080fd5b600080604083850312156149e457600080fd5b82356149ef816149af565b946020939093013593505050565b60008060408385031215614a1057600080fd5b8235614a1b816149af565b915060208301356fffffffffffffffffffffffffffffffff81168114614a4057600080fd5b809150509250929050565b600080600060608486031215614a6057600080fd5b8335614a6b816149af565b92506020840135614a7b816149af565b929592945050506040919091013590565b60008060408385031215614a9f57600080fd5b50508035926020909101359150565b600060208284031215614ac057600080fd5b8135610e6f816149af565b60008083601f840112614add57600080fd5b50813567ffffffffffffffff811115614af557600080fd5b60208301915083602082850101111561450257600080fd5b80356003811061131e57600080fd5b60008060008060008060008060e0898b031215614b3857600080fd5b8835614b43816149af565b97506020890135614b53816149af565b965060408901359550606089013594506080890135935060a089013567ffffffffffffffff811115614b8457600080fd5b614b908b828c01614acb565b9094509250614ba3905060c08a01614b0d565b90509295985092959890939650565b60008060408385031215614bc557600080fd5b823561ffff81168114614bd757600080fd5b91506020830135614a40816149af565b60008060208385031215614bfa57600080fd5b823567ffffffffffffffff80821115614c1257600080fd5b818501915085601f830112614c2657600080fd5b813581811115614c3557600080fd5b8660208260051b8501011115614c4a57600080fd5b60209290920196919550909350505050565b6020808252825182820181905260009190848201906040850190845b81811015614caa57835173ffffffffffffffffffffffffffffffffffffffff1683529284019291840191600101614c78565b50909695505050505050565b60008060408385031215614cc957600080fd5b8235614cd4816149af565b915060208301358015158114614a4057600080fd5b7f4e487b7100000000000000000000000000000000000000000000000000000000600052604160045260246000fd5b604051601f82017fffffffffffffffffffffffffffffffffffffffffffffffffffffffffffffffe016810167ffffffffffffffff81118282101715614d5f57614d5f614ce9565b604052919050565b600067ffffffffffffffff821115614d8157614d81614ce9565b50601f017fffffffffffffffffffffffffffffffffffffffffffffffffffffffffffffffe01660200190565b60008060008060808587031215614dc357600080fd5b8435614dce816149af565b93506020850135614dde816149af565b925060408501359150606085013567ffffffffffffffff811115614e0157600080fd5b8501601f81018713614e1257600080fd5b8035614e25614e2082614d67565b614d18565b818152886020838501011115614e3a57600080fd5b8160208401602083013760006020838301015280935050505092959194509250565b60008060008060008060c08789031215614e7557600080fd5b8635614e80816149af565b95506020870135945060408701359350606087013560ff81168114614ea457600080fd5b9598949750929560808101359460a0909101359350915050565b60008060408385031215614ed157600080fd5b8235614bd7816149af565b60008060408385031215614eef57600080fd5b8235614efa816149af565b9150602083013563ffffffff81168114614a4057600080fd5b602080825282518282018190526000919060409081850190868401855b82811015614f6b578151805173ffffffffffffffffffffffffffffffffffffffff168552860151868501529284019290850190600101614f30565b5091979650505050505050565b600080600080600080600060c0888a031215614f9357600080fd5b8735614f9e816149af565b96506020880135614fae816149af565b95506040880135945060608801359350608088013567ffffffffffffffff811115614fd857600080fd5b614fe48a828b01614acb565b9094509250614ff7905060a08901614b0d565b905092959891949750929550565b7f4e487b7100000000000000000000000000000000000000000000000000000000600052601160045260246000fd5b6000821982111561504757615047615005565b500190565b6000817fffffffffffffffffffffffffffffffffffffffffffffffffffffffffffffffff048311821515161561508457615084615005565b500290565b7f4e487b7100000000000000000000000000000000000000000000000000000000600052601260045260246000fd5b6000826150c7576150c7615089565b500490565b600063ffffffff838116908316818110156150e9576150e9615005565b039392505050565b600063ffffffff8084168061510857615108615089565b92169190910492915050565b60008261512357615123615089565b500690565b60006fffffffffffffffffffffffffffffffff80831681851680830382111561515357615153615005565b01949350505050565b7f4e487b7100000000000000000000000000000000000000000000000000000000600052603260045260246000fd5b60007fffffffffffffffffffffffffffffffffffffffffffffffffffffffffffffffff8214156151bd576151bd615005565b5060010190565b6000602082840312156151d657600080fd5b815167ffffffffffffffff8111156151ed57600080fd5b8201601f810184136151fe57600080fd5b805161520c614e2082614d67565b81815285602083850101111561522157600080fd5b61523282602083016020860161490d565b95945050505050565b60006020828403121561524d57600080fd5b8151610e6f816149af565b7f4e487b7100000000000000000000000000000000000000000000000000000000600052602160045260246000fd5b8183528181602085013750600060208284010152600060207fffffffffffffffffffffffffffffffffffffffffffffffffffffffffffffffe0601f840116840101905092915050565b6040815260006152e36040830186614939565b82810360208401526152f6818587615287565b9695505050505050565b60006020828403121561531257600080fd5b8151610e6f816148c2565b838152604060208201526000615232604083018486615287565b600073ffffffffffffffffffffffffffffffffffffffff8087168352808616602084015250836040830152608060608301526152f66080830184614939565b60006bffffffffffffffffffffffff838116908316818110156150e9576150e9615005565b600063ffffffff80831681851680830382111561515357615153615005565b60006bffffffffffffffffffffffff8083168185168083038211156151535761515361500556fe455243373231436865636b706f696e7461626c653a3a5f6d6f766544656c6567617465733a20616d6f756e74206f766572666c6f7773455243373231436865636b706f696e7461626c653a3a5f7772697465436865636b706f696e743a20626c6f636b206e756d62657220657863656564732033322062697473455243373231436865636b706f696e7461626c653a3a766f746573546f44656c65676174653a20616d6f756e7420657863656564732039362062697473455243373231436865636b706f696e7461626c653a3a5f6d6f766544656c6567617465733a20616d6f756e7420756e646572666c6f7773a2646970667358221220068676165bae6c19af44ba0fe8ca37c451a7f1f5bf9e7cd01fb375b725fcddf664736f6c63430008090033",
  "devdoc": {
    "kind": "dev",
    "methods": {
      "DOMAIN_SEPARATOR()": {
        "details": "Return the DOMAIN_SEPARATOR."
      },
      "approve(address,uint256)": {
        "params": {
          "id": "The id of the token.",
          "operator": "The address receiving the approval."
        }
      },
      "balanceOf(address)": {
        "params": {
          "owner": "The address to look for."
        },
        "returns": {
          "balance": "The number of tokens owned by the address."
        }
      },
      "delegate(address)": {
        "params": {
          "delegatee": "The address to delegate votes to"
        }
      },
      "delegateBySig(address,uint256,uint256,uint8,bytes32,bytes32)": {
        "params": {
          "delegatee": "The address to delegate votes to",
          "expiry": "The time at which to expire the signature",
          "nonce": "The contract state required to match the signature",
          "r": "Half of the ECDSA signature pair",
          "s": "Half of the ECDSA signature pair",
          "v": "The recovery byte of the signature"
        }
      },
      "getApproved(uint256)": {
        "params": {
          "id": "The id of the token."
        },
        "returns": {
          "_0": "The address of the operator."
        }
      },
      "getCurrentVotes(address)": {
        "params": {
          "account": "The address to get votes balance"
        },
        "returns": {
          "_0": "The number of current votes for `account`"
        }
      },
      "getPriorVotes(address,uint256)": {
        "details": "Block number must be a finalized block or else this function will revert to prevent misinformation.",
        "params": {
          "account": "The address of the account to check",
          "blockNumber": "The block number to get the vote balance at"
        },
        "returns": {
          "_0": "The number of votes the account had as of the given block"
        }
      },
      "isApprovedForAll(address,address)": {
        "params": {
          "operator": "The address of the operator.",
          "owner": "The address of the owner."
        },
        "returns": {
          "isOperator": "The status of the approval."
        }
      },
      "ownerOf(uint256)": {
        "params": {
          "id": "The id of the token."
        },
        "returns": {
          "owner": "The address of the token owner."
        }
      },
      "royaltyInfo(uint256,uint256)": {
        "params": {
          "id": "- the token queried for royalty information",
          "salePrice": "- the sale price of the token specified by id"
        },
        "returns": {
          "receiver": "- address of who should be sent the royalty payment",
          "royaltyAmount": "- the royalty payment amount for salePrice"
        }
      },
      "safeTransferFrom(address,address,uint256)": {
        "params": {
          "from": "The send of the token.",
          "id": "The id of the token.",
          "to": "The recipient of the token."
        }
      },
      "safeTransferFrom(address,address,uint256,bytes)": {
        "params": {
          "data": "Additional data.",
          "from": "The sender of the token.",
          "id": "The id of the token.",
          "to": "The recipient of the token."
        }
      },
      "setApprovalForAll(address,bool)": {
        "params": {
          "approved": "The determination of the approval.",
          "operator": "The address receiving the approval."
        }
      },
      "supportsInterface(bytes4)": {
        "params": {
          "id": "The id of the interface."
        },
        "returns": {
          "_0": "Whether the interface is supported."
        }
      },
      "transferFrom(address,address,uint256)": {
        "params": {
          "from": "The sender of the token.",
          "id": "The id of the token.",
          "to": "The recipient of the token."
        }
      },
      "votesToDelegate(address)": {
        "details": "Used when calling `_delegate()`"
      }
    },
    "version": 1
  },
  "userdoc": {
    "events": {
      "DelegateChanged(address,address,address)": {
        "notice": "An event thats emitted when an account changes its delegate"
      },
      "DelegateVotesChanged(address,uint256,uint256)": {
        "notice": "An event thats emitted when a delegate account's vote balance changes"
      }
    },
    "kind": "user",
    "methods": {
      "DELEGATION_TYPEHASH()": {
        "notice": "The EIP-712 typehash for the delegation struct used by the contract"
      },
      "approve(address,uint256)": {
        "notice": "Approve an operator to spend tokens on the senders behalf."
      },
      "balanceOf(address)": {
        "notice": "Get the number of tokens owned by an address."
      },
      "checkpoints(address,uint32)": {
        "notice": "A record of votes checkpoints for each account, by index"
      },
      "decimals()": {
        "notice": "Defines decimals as per ERC-20 convention to make integrations with 3rd party governance platforms easier"
      },
      "delegate(address)": {
        "notice": "Delegate votes from `msg.sender` to `delegatee`"
      },
      "delegateBySig(address,uint256,uint256,uint8,bytes32,bytes32)": {
        "notice": "Delegates votes from signatory to `delegatee`"
      },
      "delegates(address)": {
        "notice": "Overrides the standard `Comp.sol` delegates mapping to return the delegator's own address if they haven't delegated. This avoids having to delegate to oneself."
      },
      "disableTheUseOfCheckpoints()": {
        "notice": "disable checkpointing overhead This can be used if the governance system can switch to use ownerAndLastTransferBlockNumberOf instead of checkpoints"
      },
      "getApproved(uint256)": {
        "notice": "Get the approved operator for a specific token."
      },
      "getCurrentVotes(address)": {
        "notice": "Gets the current votes balance for `account`"
      },
      "getPriorVotes(address,uint256)": {
        "notice": "Determine the prior number of votes for an account as of a block number"
      },
      "isApprovedForAll(address,address)": {
        "notice": "Check if the sender approved the operator."
      },
      "minter()": {
        "notice": "address allowed to mint, allow the sale contract to be separated from the token contract that can focus on the core logic Once all 1024 potential bleeps (there could be less, at minimum there are 576 bleeps) are minted, no minter can mint anymore"
      },
      "minterAdmin()": {
        "notice": "minterAdmin can update the minter. At the time being there is 576 Bleeps but there is space for extra instrument and the upper limit is 1024. could be given to the DAO later so instrument can be added, the sale of these instrument sound could benenfit the DAO too and add new members."
      },
      "name()": {
        "notice": "A descriptive name for a collection of NFTs in this contract."
      },
      "nonces(address)": {
        "notice": "A record of states for signing / validating signatures"
      },
      "numCheckpoints(address)": {
        "notice": "The number of checkpoints for each account"
      },
      "ownerOf(uint256)": {
        "notice": "Get the owner of a token."
      },
      "royaltyAdmin()": {
        "notice": "address allowed to set royalty parameters"
      },
      "safeTransferFrom(address,address,uint256)": {
        "notice": "Transfer a token between 2 addresses letting the receiver know of the transfer."
      },
      "safeTransferFrom(address,address,uint256,bytes)": {
        "notice": "Transfer a token between 2 addresses letting the receiver knows of the transfer."
      },
      "setApprovalForAll(address,bool)": {
        "notice": "Set the approval for an operator to manage all the tokens of the sender."
      },
      "supportsInterface(bytes4)": {
        "notice": "Check if the contract supports an interface."
      },
      "symbol()": {
        "notice": "An abbreviated name for NFTs in this contract."
      },
      "tokenURI(uint256)": {
        "notice": "Returns the Uniform Resource Identifier (URI) for token `id`."
      },
      "tokenURIAdmin()": {
        "notice": "maintainer can update the tokenURI contract, this is intended to be relinquished once the tokenURI has been heavily tested in the wild and that no modification are needed."
      },
      "tokenURIContract()": {
        "notice": "the contract that actually generate the sound (and all metadata via the a data: uri as tokenURI)"
      },
      "transferFrom(address,address,uint256)": {
        "notice": "Transfer a token between 2 addresses."
      },
      "votesToDelegate(address)": {
        "notice": "The votes a delegator can delegate, which is the current balance of the delegator."
      }
    },
    "version": 1
  },
  "storageLayout": {
    "storage": [
      {
        "astId": 6026,
        "contract": "src/bleeps/Bleeps.sol:Bleeps",
        "label": "_owners",
        "offset": 0,
        "slot": "0",
        "type": "t_mapping(t_uint256,t_uint256)"
      },
      {
        "astId": 6030,
        "contract": "src/bleeps/Bleeps.sol:Bleeps",
        "label": "_balances",
        "offset": 0,
        "slot": "1",
        "type": "t_mapping(t_address,t_uint256)"
      },
      {
        "astId": 6036,
        "contract": "src/bleeps/Bleeps.sol:Bleeps",
        "label": "_operatorsForAll",
        "offset": 0,
        "slot": "2",
        "type": "t_mapping(t_address,t_mapping(t_address,t_bool))"
      },
      {
        "astId": 6040,
        "contract": "src/bleeps/Bleeps.sol:Bleeps",
        "label": "_operators",
        "offset": 0,
        "slot": "3",
        "type": "t_mapping(t_uint256,t_address)"
      },
      {
        "astId": 6930,
        "contract": "src/bleeps/Bleeps.sol:Bleeps",
        "label": "_nonces",
        "offset": 0,
        "slot": "4",
        "type": "t_mapping(t_address,t_mapping(t_uint128,t_uint128))"
      },
      {
        "astId": 7402,
        "contract": "src/bleeps/Bleeps.sol:Bleeps",
        "label": "_useCheckpoints",
        "offset": 0,
        "slot": "5",
        "type": "t_bool"
      },
      {
        "astId": 7411,
        "contract": "src/bleeps/Bleeps.sol:Bleeps",
        "label": "_delegates",
        "offset": 0,
        "slot": "6",
        "type": "t_mapping(t_address,t_address)"
      },
      {
        "astId": 7424,
        "contract": "src/bleeps/Bleeps.sol:Bleeps",
        "label": "checkpoints",
        "offset": 0,
        "slot": "7",
        "type": "t_mapping(t_address,t_mapping(t_uint32,t_struct(Checkpoint)7416_storage))"
      },
      {
        "astId": 7429,
        "contract": "src/bleeps/Bleeps.sol:Bleeps",
        "label": "numCheckpoints",
        "offset": 0,
        "slot": "8",
        "type": "t_mapping(t_address,t_uint32)"
      },
      {
        "astId": 7440,
        "contract": "src/bleeps/Bleeps.sol:Bleeps",
        "label": "nonces",
        "offset": 0,
        "slot": "9",
        "type": "t_mapping(t_address,t_uint256)"
      },
      {
        "astId": 8176,
        "contract": "src/bleeps/Bleeps.sol:Bleeps",
        "label": "tokenURIAdmin",
        "offset": 0,
        "slot": "10",
        "type": "t_address"
      },
      {
        "astId": 8179,
        "contract": "src/bleeps/Bleeps.sol:Bleeps",
        "label": "royaltyAdmin",
        "offset": 0,
        "slot": "11",
        "type": "t_address"
      },
      {
        "astId": 8182,
        "contract": "src/bleeps/Bleeps.sol:Bleeps",
        "label": "minterAdmin",
        "offset": 0,
        "slot": "12",
        "type": "t_address"
      },
      {
        "astId": 8185,
        "contract": "src/bleeps/Bleeps.sol:Bleeps",
        "label": "minter",
        "offset": 0,
        "slot": "13",
        "type": "t_address"
      },
      {
        "astId": 8391,
        "contract": "src/bleeps/Bleeps.sol:Bleeps",
        "label": "tokenURIContract",
        "offset": 0,
        "slot": "14",
        "type": "t_contract(ITokenURI)9867"
      },
      {
        "astId": 8393,
        "contract": "src/bleeps/Bleeps.sol:Bleeps",
        "label": "_royaltyRecipient",
        "offset": 0,
        "slot": "15",
        "type": "t_address"
      },
      {
        "astId": 8395,
        "contract": "src/bleeps/Bleeps.sol:Bleeps",
        "label": "_royaltyPer10Thousands",
        "offset": 0,
        "slot": "16",
        "type": "t_uint256"
      },
      {
        "astId": 8397,
        "contract": "src/bleeps/Bleeps.sol:Bleeps",
        "label": "_checkpointingDisabler",
        "offset": 0,
        "slot": "17",
        "type": "t_address"
      }
    ],
    "types": {
      "t_address": {
        "encoding": "inplace",
        "label": "address",
        "numberOfBytes": "20"
      },
      "t_bool": {
        "encoding": "inplace",
        "label": "bool",
        "numberOfBytes": "1"
      },
      "t_contract(ITokenURI)9867": {
        "encoding": "inplace",
        "label": "contract ITokenURI",
        "numberOfBytes": "20"
      },
      "t_mapping(t_address,t_address)": {
        "encoding": "mapping",
        "key": "t_address",
        "label": "mapping(address => address)",
        "numberOfBytes": "32",
        "value": "t_address"
      },
      "t_mapping(t_address,t_bool)": {
        "encoding": "mapping",
        "key": "t_address",
        "label": "mapping(address => bool)",
        "numberOfBytes": "32",
        "value": "t_bool"
      },
      "t_mapping(t_address,t_mapping(t_address,t_bool))": {
        "encoding": "mapping",
        "key": "t_address",
        "label": "mapping(address => mapping(address => bool))",
        "numberOfBytes": "32",
        "value": "t_mapping(t_address,t_bool)"
      },
      "t_mapping(t_address,t_mapping(t_uint128,t_uint128))": {
        "encoding": "mapping",
        "key": "t_address",
        "label": "mapping(address => mapping(uint128 => uint128))",
        "numberOfBytes": "32",
        "value": "t_mapping(t_uint128,t_uint128)"
      },
      "t_mapping(t_address,t_mapping(t_uint32,t_struct(Checkpoint)7416_storage))": {
        "encoding": "mapping",
        "key": "t_address",
        "label": "mapping(address => mapping(uint32 => struct ERC721Checkpointable.Checkpoint))",
        "numberOfBytes": "32",
        "value": "t_mapping(t_uint32,t_struct(Checkpoint)7416_storage)"
      },
      "t_mapping(t_address,t_uint256)": {
        "encoding": "mapping",
        "key": "t_address",
        "label": "mapping(address => uint256)",
        "numberOfBytes": "32",
        "value": "t_uint256"
      },
      "t_mapping(t_address,t_uint32)": {
        "encoding": "mapping",
        "key": "t_address",
        "label": "mapping(address => uint32)",
        "numberOfBytes": "32",
        "value": "t_uint32"
      },
      "t_mapping(t_uint128,t_uint128)": {
        "encoding": "mapping",
        "key": "t_uint128",
        "label": "mapping(uint128 => uint128)",
        "numberOfBytes": "32",
        "value": "t_uint128"
      },
      "t_mapping(t_uint256,t_address)": {
        "encoding": "mapping",
        "key": "t_uint256",
        "label": "mapping(uint256 => address)",
        "numberOfBytes": "32",
        "value": "t_address"
      },
      "t_mapping(t_uint256,t_uint256)": {
        "encoding": "mapping",
        "key": "t_uint256",
        "label": "mapping(uint256 => uint256)",
        "numberOfBytes": "32",
        "value": "t_uint256"
      },
      "t_mapping(t_uint32,t_struct(Checkpoint)7416_storage)": {
        "encoding": "mapping",
        "key": "t_uint32",
        "label": "mapping(uint32 => struct ERC721Checkpointable.Checkpoint)",
        "numberOfBytes": "32",
        "value": "t_struct(Checkpoint)7416_storage"
      },
      "t_struct(Checkpoint)7416_storage": {
        "encoding": "inplace",
        "label": "struct ERC721Checkpointable.Checkpoint",
        "members": [
          {
            "astId": 7413,
            "contract": "src/bleeps/Bleeps.sol:Bleeps",
            "label": "fromBlock",
            "offset": 0,
            "slot": "0",
            "type": "t_uint32"
          },
          {
            "astId": 7415,
            "contract": "src/bleeps/Bleeps.sol:Bleeps",
            "label": "votes",
            "offset": 4,
            "slot": "0",
            "type": "t_uint96"
          }
        ],
        "numberOfBytes": "32"
      },
      "t_uint128": {
        "encoding": "inplace",
        "label": "uint128",
        "numberOfBytes": "16"
      },
      "t_uint256": {
        "encoding": "inplace",
        "label": "uint256",
        "numberOfBytes": "32"
      },
      "t_uint32": {
        "encoding": "inplace",
        "label": "uint32",
        "numberOfBytes": "4"
      },
      "t_uint96": {
        "encoding": "inplace",
        "label": "uint96",
        "numberOfBytes": "12"
      }
    }
  }
}