{
  "address": "0x0da4E64a7c5B956ceb84cA5A6Af6CaC399EFbF21",
  "abi": [
    {
      "inputs": [
        {
          "internalType": "address",
          "name": "ens",
          "type": "address"
        },
        {
          "internalType": "address",
          "name": "initialOwner",
          "type": "address"
        },
        {
          "internalType": "address",
          "name": "initialTokenURIAdmin",
          "type": "address"
        },
        {
          "internalType": "address",
          "name": "initialMinterAdmin",
          "type": "address"
        },
        {
          "internalType": "address",
          "name": "initialRoyaltyAdmin",
          "type": "address"
        },
        {
          "internalType": "address",
          "name": "initialGuardian",
          "type": "address"
        },
        {
          "internalType": "address",
          "name": "openseaProxyRegistry",
          "type": "address"
        },
        {
          "internalType": "address",
          "name": "initialRoyaltyReceiver",
          "type": "address"
        },
        {
          "internalType": "uint96",
          "name": "imitialRoyaltyPer10Thousands",
          "type": "uint96"
        },
        {
          "internalType": "contract ITokenURI",
          "name": "initialTokenURIContract",
          "type": "address"
        },
        {
          "internalType": "address",
          "name": "initialCheckpointingDisabler",
          "type": "address"
        }
      ],
      "stateMutability": "nonpayable",
      "type": "constructor"
    },
    {
      "anonymous": false,
      "inputs": [
        {
          "indexed": true,
          "internalType": "address",
          "name": "owner",
          "type": "address"
        },
        {
          "indexed": true,
          "internalType": "address",
          "name": "approved",
          "type": "address"
        },
        {
          "indexed": true,
          "internalType": "uint256",
          "name": "tokenId",
          "type": "uint256"
        }
      ],
      "name": "Approval",
      "type": "event"
    },
    {
      "anonymous": false,
      "inputs": [
        {
          "indexed": true,
          "internalType": "address",
          "name": "owner",
          "type": "address"
        },
        {
          "indexed": true,
          "internalType": "address",
          "name": "operator",
          "type": "address"
        },
        {
          "indexed": false,
          "internalType": "bool",
          "name": "approved",
          "type": "bool"
        }
      ],
      "name": "ApprovalForAll",
      "type": "event"
    },
    {
      "anonymous": false,
      "inputs": [],
      "name": "CheckpointingDisabled",
      "type": "event"
    },
    {
      "anonymous": false,
      "inputs": [
        {
          "indexed": false,
          "internalType": "address",
          "name": "newCheckpointingDisabler",
          "type": "address"
        }
      ],
      "name": "CheckpointingDisablerSet",
      "type": "event"
    },
    {
      "anonymous": false,
      "inputs": [
        {
          "indexed": true,
          "internalType": "address",
          "name": "delegator",
          "type": "address"
        },
        {
          "indexed": true,
          "internalType": "address",
          "name": "fromDelegate",
          "type": "address"
        },
        {
          "indexed": true,
          "internalType": "address",
          "name": "toDelegate",
          "type": "address"
        }
      ],
      "name": "DelegateChanged",
      "type": "event"
    },
    {
      "anonymous": false,
      "inputs": [
        {
          "indexed": true,
          "internalType": "address",
          "name": "delegate",
          "type": "address"
        },
        {
          "indexed": false,
          "internalType": "uint256",
          "name": "previousBalance",
          "type": "uint256"
        },
        {
          "indexed": false,
          "internalType": "uint256",
          "name": "newBalance",
          "type": "uint256"
        }
      ],
      "name": "DelegateVotesChanged",
      "type": "event"
    },
    {
      "anonymous": false,
      "inputs": [
        {
          "indexed": false,
          "internalType": "address",
          "name": "newGuardian",
          "type": "address"
        }
      ],
      "name": "GuardianSet",
      "type": "event"
    },
    {
      "anonymous": false,
      "inputs": [
        {
          "indexed": false,
          "internalType": "address",
          "name": "newMinterAdmin",
          "type": "address"
        }
      ],
      "name": "MinterAdminSet",
      "type": "event"
    },
    {
      "anonymous": false,
      "inputs": [
        {
          "indexed": false,
          "internalType": "address",
          "name": "newMinter",
          "type": "address"
        }
      ],
      "name": "MinterSet",
      "type": "event"
    },
    {
      "anonymous": false,
      "inputs": [
        {
          "indexed": true,
          "internalType": "address",
          "name": "previousOwner",
          "type": "address"
        },
        {
          "indexed": true,
          "internalType": "address",
          "name": "newOwner",
          "type": "address"
        }
      ],
      "name": "OwnershipTransferred",
      "type": "event"
    },
    {
      "anonymous": false,
      "inputs": [
        {
          "indexed": false,
          "internalType": "address",
          "name": "newRoyaltyAdmin",
          "type": "address"
        }
      ],
      "name": "RoyaltyAdminSet",
      "type": "event"
    },
    {
      "anonymous": false,
      "inputs": [
        {
          "indexed": false,
          "internalType": "address",
          "name": "receiver",
          "type": "address"
        },
        {
          "indexed": false,
          "internalType": "uint256",
          "name": "royaltyPer10Thousands",
          "type": "uint256"
        }
      ],
      "name": "RoyaltySet",
      "type": "event"
    },
    {
      "anonymous": false,
      "inputs": [
        {
          "indexed": false,
          "internalType": "address",
          "name": "newTokenURIAdmin",
          "type": "address"
        }
      ],
      "name": "TokenURIAdminSet",
      "type": "event"
    },
    {
      "anonymous": false,
      "inputs": [
        {
          "indexed": false,
          "internalType": "contract ITokenURI",
          "name": "newTokenURIContract",
          "type": "address"
        }
      ],
      "name": "TokenURIContractSet",
      "type": "event"
    },
    {
      "anonymous": false,
      "inputs": [
        {
          "indexed": true,
          "internalType": "address",
          "name": "from",
          "type": "address"
        },
        {
          "indexed": true,
          "internalType": "address",
          "name": "to",
          "type": "address"
        },
        {
          "indexed": true,
          "internalType": "uint256",
          "name": "tokenId",
          "type": "uint256"
        }
      ],
      "name": "Transfer",
      "type": "event"
    },
    {
      "inputs": [],
      "name": "DELEGATION_TYPEHASH",
      "outputs": [
        {
          "internalType": "bytes32",
          "name": "",
          "type": "bytes32"
        }
      ],
      "stateMutability": "view",
      "type": "function"
    },
    {
      "inputs": [],
      "name": "DOMAIN_SEPARATOR",
      "outputs": [
        {
          "internalType": "bytes32",
          "name": "",
          "type": "bytes32"
        }
      ],
      "stateMutability": "view",
      "type": "function"
    },
    {
      "inputs": [],
      "name": "DOMAIN_TYPEHASH",
      "outputs": [
        {
          "internalType": "bytes32",
          "name": "",
          "type": "bytes32"
        }
      ],
      "stateMutability": "view",
      "type": "function"
    },
    {
      "inputs": [],
      "name": "PERMIT_FOR_ALL_TYPEHASH",
      "outputs": [
        {
          "internalType": "bytes32",
          "name": "",
          "type": "bytes32"
        }
      ],
      "stateMutability": "view",
      "type": "function"
    },
    {
      "inputs": [],
      "name": "PERMIT_TYPEHASH",
      "outputs": [
        {
          "internalType": "bytes32",
          "name": "",
          "type": "bytes32"
        }
      ],
      "stateMutability": "view",
      "type": "function"
    },
    {
      "inputs": [
        {
          "internalType": "address",
          "name": "owner",
          "type": "address"
        }
      ],
      "name": "accountNonces",
      "outputs": [
        {
          "internalType": "uint256",
          "name": "nonce",
          "type": "uint256"
        }
      ],
      "stateMutability": "view",
      "type": "function"
    },
    {
      "inputs": [
        {
          "internalType": "address",
          "name": "operator",
          "type": "address"
        },
        {
          "internalType": "uint256",
          "name": "id",
          "type": "uint256"
        }
      ],
      "name": "approve",
      "outputs": [],
      "stateMutability": "nonpayable",
      "type": "function"
    },
    {
      "inputs": [
        {
          "internalType": "address",
          "name": "owner",
          "type": "address"
        }
      ],
      "name": "balanceOf",
      "outputs": [
        {
          "internalType": "uint256",
          "name": "balance",
          "type": "uint256"
        }
      ],
      "stateMutability": "view",
      "type": "function"
    },
    {
      "inputs": [],
      "name": "checkpointingDisabler",
      "outputs": [
        {
          "internalType": "address",
          "name": "",
          "type": "address"
        }
      ],
      "stateMutability": "view",
      "type": "function"
    },
    {
      "inputs": [
        {
          "internalType": "address",
          "name": "",
          "type": "address"
        },
        {
          "internalType": "uint32",
          "name": "",
          "type": "uint32"
        }
      ],
      "name": "checkpoints",
      "outputs": [
        {
          "internalType": "uint32",
          "name": "fromBlock",
          "type": "uint32"
        },
        {
          "internalType": "uint96",
          "name": "votes",
          "type": "uint96"
        }
      ],
      "stateMutability": "view",
      "type": "function"
    },
    {
      "inputs": [],
      "name": "contractURI",
      "outputs": [
        {
          "internalType": "string",
          "name": "",
          "type": "string"
        }
      ],
      "stateMutability": "view",
      "type": "function"
    },
    {
      "inputs": [],
      "name": "decimals",
      "outputs": [
        {
          "internalType": "uint8",
          "name": "",
          "type": "uint8"
        }
      ],
      "stateMutability": "view",
      "type": "function"
    },
    {
      "inputs": [
        {
          "internalType": "address",
          "name": "delegatee",
          "type": "address"
        }
      ],
      "name": "delegate",
      "outputs": [],
      "stateMutability": "nonpayable",
      "type": "function"
    },
    {
      "inputs": [
        {
          "internalType": "address",
          "name": "delegatee",
          "type": "address"
        },
        {
          "internalType": "uint256",
          "name": "nonce",
          "type": "uint256"
        },
        {
          "internalType": "uint256",
          "name": "expiry",
          "type": "uint256"
        },
        {
          "internalType": "uint8",
          "name": "v",
          "type": "uint8"
        },
        {
          "internalType": "bytes32",
          "name": "r",
          "type": "bytes32"
        },
        {
          "internalType": "bytes32",
          "name": "s",
          "type": "bytes32"
        }
      ],
      "name": "delegateBySig",
      "outputs": [],
      "stateMutability": "nonpayable",
      "type": "function"
    },
    {
      "inputs": [
        {
          "internalType": "address",
          "name": "delegator",
          "type": "address"
        }
      ],
      "name": "delegates",
      "outputs": [
        {
          "internalType": "address",
          "name": "",
          "type": "address"
        }
      ],
      "stateMutability": "view",
      "type": "function"
    },
    {
      "inputs": [],
      "name": "disableTheUseOfCheckpoints",
      "outputs": [],
      "stateMutability": "nonpayable",
      "type": "function"
    },
    {
      "inputs": [
        {
          "internalType": "uint256",
          "name": "id",
          "type": "uint256"
        }
      ],
      "name": "getApproved",
      "outputs": [
        {
          "internalType": "address",
          "name": "",
          "type": "address"
        }
      ],
      "stateMutability": "view",
      "type": "function"
    },
    {
      "inputs": [
        {
          "internalType": "address",
          "name": "account",
          "type": "address"
        }
      ],
      "name": "getCurrentVotes",
      "outputs": [
        {
          "internalType": "uint96",
          "name": "",
          "type": "uint96"
        }
      ],
      "stateMutability": "view",
      "type": "function"
    },
    {
      "inputs": [
        {
          "internalType": "address",
          "name": "account",
          "type": "address"
        },
        {
          "internalType": "uint256",
          "name": "blockNumber",
          "type": "uint256"
        }
      ],
      "name": "getPriorVotes",
      "outputs": [
        {
          "internalType": "uint96",
          "name": "",
          "type": "uint96"
        }
      ],
      "stateMutability": "view",
      "type": "function"
    },
    {
      "inputs": [],
      "name": "guardian",
      "outputs": [
        {
          "internalType": "address",
          "name": "",
          "type": "address"
        }
      ],
      "stateMutability": "view",
      "type": "function"
    },
    {
      "inputs": [
        {
          "internalType": "address",
          "name": "owner",
          "type": "address"
        },
        {
          "internalType": "address",
          "name": "operator",
          "type": "address"
        }
      ],
      "name": "isApprovedForAll",
      "outputs": [
        {
          "internalType": "bool",
          "name": "isOperator",
          "type": "bool"
        }
      ],
      "stateMutability": "view",
      "type": "function"
    },
    {
      "inputs": [
        {
          "internalType": "uint16",
          "name": "id",
          "type": "uint16"
        },
        {
          "internalType": "address",
          "name": "to",
          "type": "address"
        }
      ],
      "name": "mint",
      "outputs": [],
      "stateMutability": "nonpayable",
      "type": "function"
    },
    {
      "inputs": [],
      "name": "minter",
      "outputs": [
        {
          "internalType": "address",
          "name": "",
          "type": "address"
        }
      ],
      "stateMutability": "view",
      "type": "function"
    },
    {
      "inputs": [],
      "name": "minterAdmin",
      "outputs": [
        {
          "internalType": "address",
          "name": "",
          "type": "address"
        }
      ],
      "stateMutability": "view",
      "type": "function"
    },
    {
      "inputs": [
        {
          "internalType": "uint16[]",
          "name": "ids",
          "type": "uint16[]"
        },
        {
          "internalType": "address",
          "name": "to",
          "type": "address"
        }
      ],
      "name": "multiMint",
      "outputs": [],
      "stateMutability": "nonpayable",
      "type": "function"
    },
    {
      "inputs": [
        {
          "internalType": "bytes[]",
          "name": "data",
          "type": "bytes[]"
        }
      ],
      "name": "multicall",
      "outputs": [
        {
          "internalType": "bytes[]",
          "name": "results",
          "type": "bytes[]"
        }
      ],
      "stateMutability": "payable",
      "type": "function"
    },
    {
      "inputs": [],
      "name": "name",
      "outputs": [
        {
          "internalType": "string",
          "name": "",
          "type": "string"
        }
      ],
      "stateMutability": "pure",
      "type": "function"
    },
    {
      "inputs": [
        {
          "internalType": "uint256",
          "name": "id",
          "type": "uint256"
        }
      ],
      "name": "nonces",
      "outputs": [
        {
          "internalType": "uint256",
          "name": "nonce",
          "type": "uint256"
        }
      ],
      "stateMutability": "view",
      "type": "function"
    },
    {
      "inputs": [
        {
          "internalType": "address",
          "name": "account",
          "type": "address"
        }
      ],
      "name": "nonces",
      "outputs": [
        {
          "internalType": "uint256",
          "name": "nonce",
          "type": "uint256"
        }
      ],
      "stateMutability": "view",
      "type": "function"
    },
    {
      "inputs": [
        {
          "internalType": "address",
          "name": "",
          "type": "address"
        }
      ],
      "name": "numCheckpoints",
      "outputs": [
        {
          "internalType": "uint32",
          "name": "",
          "type": "uint32"
        }
      ],
      "stateMutability": "view",
      "type": "function"
    },
    {
      "inputs": [],
      "name": "owner",
      "outputs": [
        {
          "internalType": "address",
          "name": "",
          "type": "address"
        }
      ],
      "stateMutability": "view",
      "type": "function"
    },
    {
      "inputs": [
        {
          "internalType": "uint256[]",
          "name": "ids",
          "type": "uint256[]"
        }
      ],
      "name": "ownerAndLastTransferBlockNumberList",
      "outputs": [
        {
          "components": [
            {
              "internalType": "address",
              "name": "owner",
              "type": "address"
            },
            {
              "internalType": "uint256",
              "name": "lastTransferBlockNumber",
              "type": "uint256"
            }
          ],
          "internalType": "struct ERC721Base.OwnerData[]",
          "name": "ownersData",
          "type": "tuple[]"
        }
      ],
      "stateMutability": "view",
      "type": "function"
    },
    {
      "inputs": [
        {
          "internalType": "uint256",
          "name": "id",
          "type": "uint256"
        }
      ],
      "name": "ownerOf",
      "outputs": [
        {
          "internalType": "address",
          "name": "owner",
          "type": "address"
        }
      ],
      "stateMutability": "view",
      "type": "function"
    },
    {
      "inputs": [
        {
          "internalType": "uint256[]",
          "name": "ids",
          "type": "uint256[]"
        }
      ],
      "name": "owners",
      "outputs": [
        {
          "internalType": "address[]",
          "name": "addresses",
          "type": "address[]"
        }
      ],
      "stateMutability": "view",
      "type": "function"
    },
    {
      "inputs": [
        {
          "internalType": "address",
          "name": "spender",
          "type": "address"
        },
        {
          "internalType": "uint256",
          "name": "tokenId",
          "type": "uint256"
        },
        {
          "internalType": "uint256",
          "name": "deadline",
          "type": "uint256"
        },
        {
          "internalType": "bytes",
          "name": "sig",
          "type": "bytes"
        }
      ],
      "name": "permit",
      "outputs": [],
      "stateMutability": "nonpayable",
      "type": "function"
    },
    {
      "inputs": [
        {
          "internalType": "address",
          "name": "signer",
          "type": "address"
        },
        {
          "internalType": "address",
          "name": "spender",
          "type": "address"
        },
        {
          "internalType": "uint256",
          "name": "deadline",
          "type": "uint256"
        },
        {
          "internalType": "bytes",
          "name": "sig",
          "type": "bytes"
        }
      ],
      "name": "permitForAll",
      "outputs": [],
      "stateMutability": "nonpayable",
      "type": "function"
    },
    {
      "inputs": [],
      "name": "royaltyAdmin",
      "outputs": [
        {
          "internalType": "address",
          "name": "",
          "type": "address"
        }
      ],
      "stateMutability": "view",
      "type": "function"
    },
    {
      "inputs": [
        {
          "internalType": "uint256",
          "name": "id",
          "type": "uint256"
        },
        {
          "internalType": "uint256",
          "name": "salePrice",
          "type": "uint256"
        }
      ],
      "name": "royaltyInfo",
      "outputs": [
        {
          "internalType": "address",
          "name": "receiver",
          "type": "address"
        },
        {
          "internalType": "uint256",
          "name": "royaltyAmount",
          "type": "uint256"
        }
      ],
      "stateMutability": "view",
      "type": "function"
    },
    {
      "inputs": [
        {
          "internalType": "address",
          "name": "from",
          "type": "address"
        },
        {
          "internalType": "address",
          "name": "to",
          "type": "address"
        },
        {
          "internalType": "uint256",
          "name": "id",
          "type": "uint256"
        }
      ],
      "name": "safeTransferFrom",
      "outputs": [],
      "stateMutability": "nonpayable",
      "type": "function"
    },
    {
      "inputs": [
        {
          "internalType": "address",
          "name": "from",
          "type": "address"
        },
        {
          "internalType": "address",
          "name": "to",
          "type": "address"
        },
        {
          "internalType": "uint256",
          "name": "id",
          "type": "uint256"
        },
        {
          "internalType": "bytes",
          "name": "data",
          "type": "bytes"
        }
      ],
      "name": "safeTransferFrom",
      "outputs": [],
      "stateMutability": "nonpayable",
      "type": "function"
    },
    {
      "inputs": [
        {
          "internalType": "address",
          "name": "operator",
          "type": "address"
        },
        {
          "internalType": "bool",
          "name": "approved",
          "type": "bool"
        }
      ],
      "name": "setApprovalForAll",
      "outputs": [],
      "stateMutability": "nonpayable",
      "type": "function"
    },
    {
      "inputs": [
        {
          "internalType": "address",
          "name": "newCheckpointingDisabler",
          "type": "address"
        }
      ],
      "name": "setCheckpointingDisabler",
      "outputs": [],
      "stateMutability": "nonpayable",
      "type": "function"
    },
    {
      "inputs": [
        {
          "internalType": "string",
          "name": "name",
          "type": "string"
        }
      ],
      "name": "setENSName",
      "outputs": [],
      "stateMutability": "nonpayable",
      "type": "function"
    },
    {
      "inputs": [
        {
          "internalType": "address",
          "name": "newGuardian",
          "type": "address"
        }
      ],
      "name": "setGuardian",
      "outputs": [],
      "stateMutability": "nonpayable",
      "type": "function"
    },
    {
      "inputs": [
        {
          "internalType": "address",
          "name": "newMinter",
          "type": "address"
        }
      ],
      "name": "setMinter",
      "outputs": [],
      "stateMutability": "nonpayable",
      "type": "function"
    },
    {
      "inputs": [
        {
          "internalType": "address",
          "name": "newMinterAdmin",
          "type": "address"
        }
      ],
      "name": "setMinterAdmin",
      "outputs": [],
      "stateMutability": "nonpayable",
      "type": "function"
    },
    {
      "inputs": [
        {
          "internalType": "address",
          "name": "newRoyaltyAdmin",
          "type": "address"
        }
      ],
      "name": "setRoyaltyAdmin",
      "outputs": [],
      "stateMutability": "nonpayable",
      "type": "function"
    },
    {
      "inputs": [
        {
          "internalType": "address",
          "name": "newReceiver",
          "type": "address"
        },
        {
          "internalType": "uint96",
          "name": "royaltyPer10Thousands",
          "type": "uint96"
        }
      ],
      "name": "setRoyaltyParameters",
      "outputs": [],
      "stateMutability": "nonpayable",
      "type": "function"
    },
    {
      "inputs": [
        {
          "internalType": "address",
          "name": "newTokenURIAdmin",
          "type": "address"
        }
      ],
      "name": "setTokenURIAdmin",
      "outputs": [],
      "stateMutability": "nonpayable",
      "type": "function"
    },
    {
      "inputs": [
        {
          "internalType": "contract ITokenURI",
          "name": "newTokenURIContract",
          "type": "address"
        }
      ],
      "name": "setTokenURIContract",
      "outputs": [],
      "stateMutability": "nonpayable",
      "type": "function"
    },
    {
      "inputs": [
        {
          "internalType": "uint256",
          "name": "id",
          "type": "uint256"
        }
      ],
      "name": "sound",
      "outputs": [
        {
          "internalType": "uint8",
          "name": "note",
          "type": "uint8"
        },
        {
          "internalType": "uint8",
          "name": "instrument",
          "type": "uint8"
        }
      ],
      "stateMutability": "pure",
      "type": "function"
    },
    {
      "inputs": [
        {
          "internalType": "bytes4",
          "name": "id",
          "type": "bytes4"
        }
      ],
      "name": "supportsInterface",
      "outputs": [
        {
          "internalType": "bool",
          "name": "",
          "type": "bool"
        }
      ],
      "stateMutability": "pure",
      "type": "function"
    },
    {
      "inputs": [],
      "name": "symbol",
      "outputs": [
        {
          "internalType": "string",
          "name": "",
          "type": "string"
        }
      ],
      "stateMutability": "pure",
      "type": "function"
    },
    {
      "inputs": [
        {
          "internalType": "uint256",
          "name": "id",
          "type": "uint256"
        }
      ],
      "name": "tokenNonces",
      "outputs": [
        {
          "internalType": "uint256",
          "name": "nonce",
          "type": "uint256"
        }
      ],
      "stateMutability": "view",
      "type": "function"
    },
    {
      "inputs": [
        {
          "internalType": "uint256",
          "name": "id",
          "type": "uint256"
        }
      ],
      "name": "tokenURI",
      "outputs": [
        {
          "internalType": "string",
          "name": "",
          "type": "string"
        }
      ],
      "stateMutability": "view",
      "type": "function"
    },
    {
      "inputs": [],
      "name": "tokenURIAdmin",
      "outputs": [
        {
          "internalType": "address",
          "name": "",
          "type": "address"
        }
      ],
      "stateMutability": "view",
      "type": "function"
    },
    {
      "inputs": [],
      "name": "tokenURIContract",
      "outputs": [
        {
          "internalType": "contract ITokenURI",
          "name": "",
          "type": "address"
        }
      ],
      "stateMutability": "view",
      "type": "function"
    },
    {
      "inputs": [
        {
          "internalType": "address",
          "name": "from",
          "type": "address"
        },
        {
          "internalType": "address",
          "name": "to",
          "type": "address"
        },
        {
          "internalType": "uint256",
          "name": "id",
          "type": "uint256"
        }
      ],
      "name": "transferFrom",
      "outputs": [],
      "stateMutability": "nonpayable",
      "type": "function"
    },
    {
      "inputs": [
        {
          "internalType": "address",
          "name": "newOwner",
          "type": "address"
        }
      ],
      "name": "transferOwnership",
      "outputs": [],
      "stateMutability": "nonpayable",
      "type": "function"
    },
    {
      "inputs": [
        {
          "internalType": "address",
          "name": "delegator",
          "type": "address"
        }
      ],
      "name": "votesToDelegate",
      "outputs": [
        {
          "internalType": "uint96",
          "name": "",
          "type": "uint96"
        }
      ],
      "stateMutability": "view",
      "type": "function"
    },
    {
      "inputs": [
        {
          "internalType": "contract IERC20",
          "name": "token",
          "type": "address"
        },
        {
          "internalType": "address",
          "name": "to",
          "type": "address"
        }
      ],
      "name": "withdrawERC20",
      "outputs": [],
      "stateMutability": "nonpayable",
      "type": "function"
    }
  ],
  "transactionHash": "0x98e2d6f939b19878c81fddbd5877678b2948c50ae719579d5141b5357cc23400",
  "args": [
    "0x00000000000C2E074eC69A0dFb2997BA6C7d2e1e",
    "0xE53cd71271AcAdbeb0f64d9c8C62bBdDc8cA9e66",
    "0xE53cd71271AcAdbeb0f64d9c8C62bBdDc8cA9e66",
    "0xE53cd71271AcAdbeb0f64d9c8C62bBdDc8cA9e66",
    "0xE53cd71271AcAdbeb0f64d9c8C62bBdDc8cA9e66",
    "0xE53cd71271AcAdbeb0f64d9c8C62bBdDc8cA9e66",
    "0x0000000000000000000000000000000000000000",
    "0xE53cd71271AcAdbeb0f64d9c8C62bBdDc8cA9e66",
    500,
    "0xDF03a0033D5841D7c3d4B94EcF0a726A1d69aCF1",
    "0xE53cd71271AcAdbeb0f64d9c8C62bBdDc8cA9e66"
  ],
  "solcInputHash": "0363728b5105f5263336248fdb23ca90",
  "bytecode": "0x6101006040526005805460ff191660011790553480156200001f57600080fd5b50604051620062ea380380620062ea833981016040819052620000429162000388565b6001600160a01b0385166080524660a08190528b908b908b908b908b908b906200006c81620002cf565b60c052506001600160a01b0386811660e052600980546001600160a01b031990811688841617909155600a80548216878416908117909155600b80548316868516179055600c80548316878516179055600e80549092169284169290921790556040519081527f89de65ceb8cdf195a0b50021ed65dd305b54d3b744a0e283bd98c6058e2edd789060200160405180910390a16040516001600160a01b03831681527fb17416b845258d996b82b66c3c9166088ec5edf592b35fcce47c62a73d61ef419060200160405180910390a16040516001600160a01b03841681527fb8e0165b6664b7af8f9563c66e3d6b987c2d06fe192539d7123a0777b41a7c899060200160405180910390a16040516001600160a01b03821681527fe6c09ffe4572dc9ceaa5ddde4ae41befa655d6fdfe8052077af0970f700e942e9060200160405180910390a15050600f80546001600160a01b0319166001600160a01b0388169081179091556040519081527f6bf5b09f847c9c9e97addeaf1ea9d5fd44ff6ae2c9c4aaf55fb476eca421a45d945060200192506200020a915050565b60405180910390a1601180546001600160a01b0319166001600160a01b0383169081179091556040519081527f4b70ff24654603d6961acf6a0cf30db833fc126dac63891114f984fefcc2b0649060200160405180910390a16001600160a01b038416600160a01b6001600160601b03851690810282176010556040805192835260208301919091527fb744dc8fdcd17f69ad99fdabe0fe0ed8fea41193727ed2123d997550eaae918f910160405180910390a1505050505050505050505062000490565b60007f8cad95687ba82c2ce50e74f7b754645e5117c3a5bec8151c0726d5857980a86662000316604080518082019091526006815265426c6565707360d01b602082015290565b80516020918201206040805192830193909352918101919091526060810183905230608082015260a001604051602081830303815290604052805190602001209050919050565b6001600160a01b03811681146200037357600080fd5b50565b805162000383816200035d565b919050565b60008060008060008060008060008060006101608c8e031215620003ab57600080fd5b8b51620003b8816200035d565b60208d0151909b50620003cb816200035d565b60408d0151909a50620003de816200035d565b60608d0151909950620003f1816200035d565b60808d015190985062000404816200035d565b60a08d015190975062000417816200035d565b60c08d01519096506200042a816200035d565b60e08d01519095506200043d816200035d565b6101008d01519094506001600160601b03811681146200045c57600080fd5b92506200046d6101208d0162000376565b91506200047e6101408d0162000376565b90509295989b509295989b9093969950565b60805160a05160c05160e051615e19620004d16000396000611b2301526000613f6001526000613f2b01526000818161444c01526144d20152615e196000f3fe6080604052600436106103a25760003560e01c80637ba9638b116101e7578063ac9650d81161010d578063e7a324dc116100a0578063f1127ed81161006f578063f1127ed814610ccb578063f2fde38b14610d4a578063f394528214610d6a578063fca3b5aa14610d9757600080fd5b8063e7a324dc14610c42578063e8a3d48514610c76578063e9580e9114610c8b578063e985e9c514610cab57600080fd5b8063c3cda520116100dc578063c3cda52014610bcd578063c87b56dd14610bed578063e2ea128814610c0d578063e6b34e8614610c2d57600080fd5b8063ac9650d814610b4d578063adc5fcc214610b6d578063b4b5ea5714610b8d578063b88d4fde14610bad57600080fd5b80639456fbcc11610185578063a0554c2611610154578063a0554c2614610ab3578063a22cb46514610ae0578063a754d48f14610b00578063ab84ee6f14610b2d57600080fd5b80639456fbcc14610a0d57806395d89b4114610a2d57806399235f3914610a735780639c20551314610a9357600080fd5b8063894e851f116101c1578063894e851f146109665780638a0dac4a146109935780638cc66011146109b35780638da5cb5b146109e057600080fd5b80637ba9638b146109065780637ecebe001461092657806382fc31471461094657600080fd5b806342842e0e116102cc5780636352211e1161026a57806370a082311161023957806370a0823114610869578063745a41bc1461088957806377dd4ac3146108a9578063782d6fe1146108c957600080fd5b80636352211e146107b4578063639147af146107d4578063698f87be146107f45780636fcfff451461082157600080fd5b8063580f6da2116102a6578063580f6da2146106fd578063585956d614610740578063587cde1e146107745780635c19a95c1461079457600080fd5b806342842e0e14610690578063452a9320146106b05780634d687821146106dd57600080fd5b806323b872dd1161034457806330adf81f1161031357806330adf81f146105f3578063313ce5671461062757806334dd800d1461064e5780633644e5151461067b57600080fd5b806323b872dd1461052157806324d42fe7146105415780632954dbfa146105615780632a55205a146105a757600080fd5b8063081812fc11610380578063081812fc1461047d578063095ea7b31461049d578063141a468c146104bf57806320606b70146104ed57600080fd5b806301ffc9a7146103a757806306fdde03146103dc578063075461721461042b575b600080fd5b3480156103b357600080fd5b506103c76103c23660046151b7565b610db7565b60405190151581526020015b60405180910390f35b3480156103e857600080fd5b5060408051808201909152600681527f426c65657073000000000000000000000000000000000000000000000000000060208201525b6040516103d3919061524a565b34801561043757600080fd5b50600d546104589073ffffffffffffffffffffffffffffffffffffffff1681565b60405173ffffffffffffffffffffffffffffffffffffffff90911681526020016103d3565b34801561048957600080fd5b5061045861049836600461525d565b610e14565b3480156104a957600080fd5b506104bd6104b8366004615298565b610f05565b005b3480156104cb57600080fd5b506104df6104da36600461525d565b61106f565b6040519081526020016103d3565b3480156104f957600080fd5b506104df7f8cad95687ba82c2ce50e74f7b754645e5117c3a5bec8151c0726d5857980a86681565b34801561052d57600080fd5b506104bd61053c3660046152c4565b61107a565b34801561054d57600080fd5b506104bd61055c366004615305565b6113bd565b34801561056d57600080fd5b5061058d61057c36600461525d565b603f81169160069190911c600f1690565b6040805160ff9384168152929091166020830152016103d3565b3480156105b357600080fd5b506105c76105c236600461534f565b6114c0565b6040805173ffffffffffffffffffffffffffffffffffffffff90931683526020830191909152016103d3565b3480156105ff57600080fd5b506104df7f49ecf333e5b8c95c40fdafc95c1ad136e8914a8fb55e9dc8bb01eaa83a2df9ad81565b34801561063357600080fd5b5061063c600081565b60405160ff90911681526020016103d3565b34801561065a57600080fd5b50600a546104589073ffffffffffffffffffffffffffffffffffffffff1681565b34801561068757600080fd5b506104df611525565b34801561069c57600080fd5b506104bd6106ab3660046152c4565b611534565b3480156106bc57600080fd5b50600e546104589073ffffffffffffffffffffffffffffffffffffffff1681565b3480156106e957600080fd5b506104bd6106f8366004615371565b611554565b34801561070957600080fd5b506104df610718366004615371565b73ffffffffffffffffffffffffffffffffffffffff1660009081526004602052604090205490565b34801561074c57600080fd5b506104df7f29795620f29ed5790c945e3f419a1b3e2381aa07751ccffe5b81231639d74cd581565b34801561078057600080fd5b5061045861078f366004615371565b61164f565b3480156107a057600080fd5b506104bd6107af366004615371565b61168e565b3480156107c057600080fd5b506104586107cf36600461525d565b6116b9565b3480156107e057600080fd5b506104bd6107ef366004615371565b61174a565b34801561080057600080fd5b50600f546104589073ffffffffffffffffffffffffffffffffffffffff1681565b34801561082d57600080fd5b5061085461083c366004615371565b60086020526000908152604090205463ffffffff1681565b60405163ffffffff90911681526020016103d3565b34801561087557600080fd5b506104df610884366004615371565b61187f565b34801561089557600080fd5b506104bd6108a43660046154b0565b611927565b3480156108b557600080fd5b506104bd6108c4366004615513565b611a51565b3480156108d557600080fd5b506108e96108e4366004615298565b611c59565b6040516bffffffffffffffffffffffff90911681526020016103d3565b34801561091257600080fd5b506104bd610921366004615371565b611f70565b34801561093257600080fd5b506104df610941366004615371565b6120a5565b34801561095257600080fd5b506104bd610961366004615371565b6120d0565b34801561097257600080fd5b50600b546104589073ffffffffffffffffffffffffffffffffffffffff1681565b34801561099f57600080fd5b506104bd6109ae366004615371565b6121c4565b3480156109bf57600080fd5b506011546104589073ffffffffffffffffffffffffffffffffffffffff1681565b3480156109ec57600080fd5b506009546104589073ffffffffffffffffffffffffffffffffffffffff1681565b348015610a1957600080fd5b506104bd610a2836600461555c565b6122b8565b348015610a3957600080fd5b5060408051808201909152600581527f424c454550000000000000000000000000000000000000000000000000000000602082015261041e565b348015610a7f57600080fd5b506104bd610a8e366004615371565b612483565b348015610a9f57600080fd5b506104bd610aae36600461559c565b6125b8565b348015610abf57600080fd5b50610ad3610ace3660046155fd565b612857565b6040516103d3919061563f565b348015610aec57600080fd5b506104bd610afb3660046156a7565b61292a565b348015610b0c57600080fd5b50600c546104589073ffffffffffffffffffffffffffffffffffffffff1681565b348015610b3957600080fd5b506104bd610b483660046156d5565b612939565b610b60610b5b3660046155fd565b6129f6565b6040516103d39190615729565b348015610b7957600080fd5b506104df610b8836600461525d565b612b61565b348015610b9957600080fd5b506108e9610ba8366004615371565b612bff565b348015610bb957600080fd5b506104bd610bc83660046156d5565b612c9c565b348015610bd957600080fd5b506104bd610be83660046157a9565b612fd9565b348015610bf957600080fd5b5061041e610c0836600461525d565b613352565b348015610c1957600080fd5b506104bd610c2836600461580b565b613417565b348015610c3957600080fd5b506104bd6136f8565b348015610c4e57600080fd5b506104df7fe48329057bfd03d55e49b547132e39cffd9c1820ad7b9d4c5307691425d15adf81565b348015610c8257600080fd5b5061041e613828565b348015610c9757600080fd5b506108e9610ca6366004615371565b613920565b348015610cb757600080fd5b506103c7610cc636600461555c565b61394c565b348015610cd757600080fd5b50610d21610ce6366004615862565b600760209081526000928352604080842090915290825290205463ffffffff81169064010000000090046bffffffffffffffffffffffff1682565b6040805163ffffffff90931683526bffffffffffffffffffffffff9091166020830152016103d3565b348015610d5657600080fd5b506104bd610d65366004615371565b613994565b348015610d7657600080fd5b50610d8a610d853660046155fd565b613a2f565b6040516103d39190615899565b348015610da357600080fd5b506104bd610db2366004615371565b613b62565b6000610dc282613c56565b80610e0e57507f2a55205a000000000000000000000000000000000000000000000000000000007fffffffff000000000000000000000000000000000000000000000000000000008316145b92915050565b6000818152602081905260408120547f80000000000000000000000000000000000000000000000000000000000000008082161473ffffffffffffffffffffffffffffffffffffffff8216610eca576040517f08c379a000000000000000000000000000000000000000000000000000000000815260206004820152601160248201527f4e4f4e4558495354454e545f544f4b454e00000000000000000000000000000060448201526064015b60405180910390fd5b8015610efb5750505060009081526003602052604090205473ffffffffffffffffffffffffffffffffffffffff1690565b5060009392505050565b6000818152602081905260409020546affffffffffffffffffffff60a082901c1673ffffffffffffffffffffffffffffffffffffffff8216610fa3576040517f08c379a000000000000000000000000000000000000000000000000000000000815260206004820152601160248201527f4e4f4e4558495354454e545f544f4b454e0000000000000000000000000000006044820152606401610ec1565b3373ffffffffffffffffffffffffffffffffffffffff83161480610ff7575073ffffffffffffffffffffffffffffffffffffffff8216600090815260026020908152604080832033845290915290205460ff165b61105d576040517f08c379a000000000000000000000000000000000000000000000000000000000815260206004820152601560248201527f554e415554484f52495a45445f415050524f56414c00000000000000000000006044820152606401610ec1565b61106982828686613cfe565b50505050565b6000610e0e82612b61565b6000818152602081905260409020547f80000000000000000000000000000000000000000000000000000000000000008082161473ffffffffffffffffffffffffffffffffffffffff821661112b576040517f08c379a000000000000000000000000000000000000000000000000000000000815260206004820152601160248201527f4e4f4e4558495354454e545f544f4b454e0000000000000000000000000000006044820152606401610ec1565b8473ffffffffffffffffffffffffffffffffffffffff168273ffffffffffffffffffffffffffffffffffffffff16146111c0576040517f08c379a000000000000000000000000000000000000000000000000000000000815260206004820152600960248201527f4e4f545f4f574e455200000000000000000000000000000000000000000000006044820152606401610ec1565b73ffffffffffffffffffffffffffffffffffffffff841661123d576040517f08c379a000000000000000000000000000000000000000000000000000000000815260206004820152601260248201527f4e4f545f544f5f5a45524f4144445245535300000000000000000000000000006044820152606401610ec1565b73ffffffffffffffffffffffffffffffffffffffff84163014156112bd576040517f08c379a000000000000000000000000000000000000000000000000000000000815260206004820152600b60248201527f4e4f545f544f5f544849530000000000000000000000000000000000000000006044820152606401610ec1565b3373ffffffffffffffffffffffffffffffffffffffff8616146113ab5780801561130a575060008381526003602052604090205473ffffffffffffffffffffffffffffffffffffffff1633145b80611345575073ffffffffffffffffffffffffffffffffffffffff8516600090815260026020908152604080832033845290915290205460ff165b6113ab576040517f08c379a000000000000000000000000000000000000000000000000000000000815260206004820152601560248201527f554e415554484f52495a45445f5452414e5346455200000000000000000000006044820152606401610ec1565b6113b6858585613e37565b5050505050565b600b5473ffffffffffffffffffffffffffffffffffffffff16331461143e576040517f08c379a000000000000000000000000000000000000000000000000000000000815260206004820152600e60248201527f4e4f545f415554484f52495a45440000000000000000000000000000000000006044820152606401610ec1565b73ffffffffffffffffffffffffffffffffffffffff8216740100000000000000000000000000000000000000006bffffffffffffffffffffffff831690810282176010556040805192835260208301919091527fb744dc8fdcd17f69ad99fdabe0fe0ed8fea41193727ed2123d997550eaae918f910160405180910390a15050565b60105473ffffffffffffffffffffffffffffffffffffffff81169060009061271090611512907401000000000000000000000000000000000000000090046bffffffffffffffffffffffff168561592d565b61151c9190615999565b90509250929050565b600061152f613f26565b905090565b61154f83838360405180602001604052806000815250612c9c565b505050565b60115473ffffffffffffffffffffffffffffffffffffffff1633146115d5576040517f08c379a000000000000000000000000000000000000000000000000000000000815260206004820152600e60248201527f4e4f545f415554484f52495a45440000000000000000000000000000000000006044820152606401610ec1565b601180547fffffffffffffffffffffffff00000000000000000000000000000000000000001673ffffffffffffffffffffffffffffffffffffffff83169081179091556040519081527f4b70ff24654603d6961acf6a0cf30db833fc126dac63891114f984fefcc2b064906020015b60405180910390a150565b73ffffffffffffffffffffffffffffffffffffffff80821660009081526006602052604081205490911680156116855780611687565b825b9392505050565b73ffffffffffffffffffffffffffffffffffffffff81166116ac5750335b6116b63382613f86565b50565b60008181526020819052604090205473ffffffffffffffffffffffffffffffffffffffff8116611745576040517f08c379a000000000000000000000000000000000000000000000000000000000815260206004820152601160248201527f4e4f4e4558495354454e545f544f4b454e0000000000000000000000000000006044820152606401610ec1565b919050565b600a5473ffffffffffffffffffffffffffffffffffffffff163314806117a65750600e5473ffffffffffffffffffffffffffffffffffffffff16331480156117a6575073ffffffffffffffffffffffffffffffffffffffff8116155b61180c576040517f08c379a000000000000000000000000000000000000000000000000000000000815260206004820152600e60248201527f4e4f545f415554484f52495a45440000000000000000000000000000000000006044820152606401610ec1565b600a80547fffffffffffffffffffffffff00000000000000000000000000000000000000001673ffffffffffffffffffffffffffffffffffffffff83169081179091556040519081527f89de65ceb8cdf195a0b50021ed65dd305b54d3b744a0e283bd98c6058e2edd7890602001611644565b600073ffffffffffffffffffffffffffffffffffffffff82166118fe576040517f08c379a000000000000000000000000000000000000000000000000000000000815260206004820152601260248201527f5a45524f5f414444524553535f4f574e455200000000000000000000000000006044820152606401610ec1565b5073ffffffffffffffffffffffffffffffffffffffff1660009081526001602052604090205490565b42821015611991576040517f08c379a000000000000000000000000000000000000000000000000000000000815260206004820152601760248201527f5045524d49545f444541444c494e455f455850495245440000000000000000006044820152606401610ec1565b6000838152602081905260409020546affffffffffffffffffffff60a082901c1673ffffffffffffffffffffffffffffffffffffffff8216611a2f576040517f08c379a000000000000000000000000000000000000000000000000000000000815260206004820152601160248201527f4e4f4e4558495354454e545f544f4b454e0000000000000000000000000000006044820152606401610ec1565b611a3d82878787858861402b565b611a4982828888613cfe565b505050505050565b60095473ffffffffffffffffffffffffffffffffffffffff163314611ad2576040517f08c379a000000000000000000000000000000000000000000000000000000000815260206004820152600e60248201527f4e4f545f415554484f52495a45440000000000000000000000000000000000006044820152606401610ec1565b6040517f02571be30000000000000000000000000000000000000000000000000000000081527f91d1777781884d03a6757a803996e38de2a42967fb37eeaca72729271025a9e260048201526000907f000000000000000000000000000000000000000000000000000000000000000073ffffffffffffffffffffffffffffffffffffffff16906302571be39060240160206040518083038186803b158015611b7a57600080fd5b505afa158015611b8e573d6000803e3d6000fd5b505050506040513d601f19601f82011682018060405250810190611bb291906159ad565b6040517fc47f002700000000000000000000000000000000000000000000000000000000815290915073ffffffffffffffffffffffffffffffffffffffff82169063c47f002790611c0790859060040161524a565b602060405180830381600087803b158015611c2157600080fd5b505af1158015611c35573d6000803e3d6000fd5b505050506040513d601f19601f8201168201806040525081019061154f91906159ca565b6000438210611cea576040517f08c379a000000000000000000000000000000000000000000000000000000000815260206004820152603760248201527f455243373231436865636b706f696e7461626c653a3a6765745072696f72566f60448201527f7465733a206e6f74207965742064657465726d696e65640000000000000000006064820152608401610ec1565b73ffffffffffffffffffffffffffffffffffffffff831660009081526008602052604090205463ffffffff1680611d25576000915050610e0e565b73ffffffffffffffffffffffffffffffffffffffff841660009081526007602052604081208491611d576001856159e3565b63ffffffff90811682526020820192909252604001600020541611611ddd5773ffffffffffffffffffffffffffffffffffffffff8416600090815260076020526040812090611da76001846159e3565b63ffffffff16815260208101919091526040016000205464010000000090046bffffffffffffffffffffffff169150610e0e9050565b73ffffffffffffffffffffffffffffffffffffffff8416600090815260076020908152604080832083805290915290205463ffffffff16831015611e25576000915050610e0e565b600080611e336001846159e3565b90505b8163ffffffff168163ffffffff161115611f185760006002611e5884846159e3565b611e629190615a08565b611e6c90836159e3565b73ffffffffffffffffffffffffffffffffffffffff8816600090815260076020908152604080832063ffffffff8581168552908352928190208151808301909252549283168082526401000000009093046bffffffffffffffffffffffff1691810191909152919250871415611eec57602001519450610e0e9350505050565b805163ffffffff16871115611f0357819350611f11565b611f0e6001836159e3565b92505b5050611e36565b5073ffffffffffffffffffffffffffffffffffffffff8516600090815260076020908152604080832063ffffffff909416835292905220546bffffffffffffffffffffffff6401000000009091041691505092915050565b600b5473ffffffffffffffffffffffffffffffffffffffff16331480611fcc5750600e5473ffffffffffffffffffffffffffffffffffffffff1633148015611fcc575073ffffffffffffffffffffffffffffffffffffffff8116155b612032576040517f08c379a000000000000000000000000000000000000000000000000000000000815260206004820152600e60248201527f4e4f545f415554484f52495a45440000000000000000000000000000000000006044820152606401610ec1565b600b80547fffffffffffffffffffffffff00000000000000000000000000000000000000001673ffffffffffffffffffffffffffffffffffffffff83169081179091556040519081527fb17416b845258d996b82b66c3c9166088ec5edf592b35fcce47c62a73d61ef4190602001611644565b73ffffffffffffffffffffffffffffffffffffffff8116600090815260046020526040812054610e0e565b600a5473ffffffffffffffffffffffffffffffffffffffff163314612151576040517f08c379a000000000000000000000000000000000000000000000000000000000815260206004820152600e60248201527f4e4f545f415554484f52495a45440000000000000000000000000000000000006044820152606401610ec1565b600f80547fffffffffffffffffffffffff00000000000000000000000000000000000000001673ffffffffffffffffffffffffffffffffffffffff83169081179091556040519081527f6bf5b09f847c9c9e97addeaf1ea9d5fd44ff6ae2c9c4aaf55fb476eca421a45d90602001611644565b600e5473ffffffffffffffffffffffffffffffffffffffff163314612245576040517f08c379a000000000000000000000000000000000000000000000000000000000815260206004820152600e60248201527f4e4f545f415554484f52495a45440000000000000000000000000000000000006044820152606401610ec1565b600e80547fffffffffffffffffffffffff00000000000000000000000000000000000000001673ffffffffffffffffffffffffffffffffffffffff83169081179091556040519081527fe6c09ffe4572dc9ceaa5ddde4ae41befa655d6fdfe8052077af0970f700e942e90602001611644565b60095473ffffffffffffffffffffffffffffffffffffffff163314612339576040517f08c379a000000000000000000000000000000000000000000000000000000000815260206004820152600e60248201527f4e4f545f415554484f52495a45440000000000000000000000000000000000006044820152606401610ec1565b6040517f70a0823100000000000000000000000000000000000000000000000000000000815230600482015273ffffffffffffffffffffffffffffffffffffffff83169063a9059cbb90839083906370a082319060240160206040518083038186803b1580156123a857600080fd5b505afa1580156123bc573d6000803e3d6000fd5b505050506040513d601f19601f820116820180604052508101906123e091906159ca565b6040517fffffffff0000000000000000000000000000000000000000000000000000000060e085901b16815273ffffffffffffffffffffffffffffffffffffffff90921660048301526024820152604401602060405180830381600087803b15801561244b57600080fd5b505af115801561245f573d6000803e3d6000fd5b505050506040513d601f19601f8201168201806040525081019061154f9190615a2b565b600c5473ffffffffffffffffffffffffffffffffffffffff163314806124df5750600e5473ffffffffffffffffffffffffffffffffffffffff16331480156124df575073ffffffffffffffffffffffffffffffffffffffff8116155b612545576040517f08c379a000000000000000000000000000000000000000000000000000000000815260206004820152600e60248201527f4e4f545f415554484f52495a45440000000000000000000000000000000000006044820152606401610ec1565b600c80547fffffffffffffffffffffffff00000000000000000000000000000000000000001673ffffffffffffffffffffffffffffffffffffffff83169081179091556040519081527fb8e0165b6664b7af8f9563c66e3d6b987c2d06fe192539d7123a0777b41a7c8990602001611644565b600d5473ffffffffffffffffffffffffffffffffffffffff163314612639576040517f08c379a000000000000000000000000000000000000000000000000000000000815260206004820152601360248201527f4f4e4c595f4d494e5445525f414c4c4f574544000000000000000000000000006044820152606401610ec1565b6104008261ffff16106126a8576040517f08c379a000000000000000000000000000000000000000000000000000000000815260206004820152600d60248201527f494e56414c49445f424c454550000000000000000000000000000000000000006044820152606401610ec1565b73ffffffffffffffffffffffffffffffffffffffff8116612725576040517f08c379a000000000000000000000000000000000000000000000000000000000815260206004820152601260248201527f4e4f545f544f5f5a45524f4144445245535300000000000000000000000000006044820152606401610ec1565b73ffffffffffffffffffffffffffffffffffffffff81163014156127a5576040517f08c379a000000000000000000000000000000000000000000000000000000000815260206004820152600b60248201527f4e4f545f544f5f544849530000000000000000000000000000000000000000006044820152606401610ec1565b61ffff821660009081526020819052604090205473ffffffffffffffffffffffffffffffffffffffff811615612837576040517f08c379a000000000000000000000000000000000000000000000000000000000815260206004820152600f60248201527f414c52454144595f4352454154454400000000000000000000000000000000006044820152606401610ec1565b61154f6000838561ffff166040518060200160405280600081525061417f565b60608167ffffffffffffffff8111156128725761287261538e565b60405190808252806020026020018201604052801561289b578160200160208202803683370190505b50905060005b828110156129235760008484838181106128bd576128bd615a48565b905060200201359050600080828152602001908152602001600020548383815181106128eb576128eb615a48565b73ffffffffffffffffffffffffffffffffffffffff90921660209283029190910190910152508061291b81615a77565b9150506128a1565b5092915050565b61293533838361421a565b5050565b428210156129a3576040517f08c379a000000000000000000000000000000000000000000000000000000000815260206004820152601760248201527f5045524d49545f444541444c494e455f455850495245440000000000000000006044820152606401610ec1565b73ffffffffffffffffffffffffffffffffffffffff8416600090815260046020526040812080546129ea928792879287929091906129e083615a77565b91905055856142b2565b6110698484600161421a565b60608167ffffffffffffffff811115612a1157612a1161538e565b604051908082528060200260200182016040528015612a4457816020015b6060815260200190600190039081612a2f5790505b50905060005b828110156129235760008030868685818110612a6857612a68615a48565b9050602002810190612a7a9190615ab0565b604051612a88929190615b15565b600060405180830381855af49150503d8060008114612ac3576040519150601f19603f3d011682016040523d82523d6000602084013e612ac8565b606091505b509150915081612b2e57604481511015612ae157600080fd5b60048101905080806020019051810190612afb9190615b25565b6040517f08c379a0000000000000000000000000000000000000000000000000000000008152600401610ec1919061524a565b80848481518110612b4157612b41615a48565b602002602001018190525050508080612b5990615a77565b915050612a4a565b6000818152602081905260408120546affffffffffffffffffffff60a082901c1673ffffffffffffffffffffffffffffffffffffffff8216611687576040517f08c379a000000000000000000000000000000000000000000000000000000000815260206004820152601160248201527f4e4f4e4558495354454e545f544f4b454e0000000000000000000000000000006044820152606401610ec1565b73ffffffffffffffffffffffffffffffffffffffff811660009081526008602052604081205463ffffffff1680612c37576000611687565b73ffffffffffffffffffffffffffffffffffffffff8316600090815260076020526040812090612c686001846159e3565b63ffffffff16815260208101919091526040016000205464010000000090046bffffffffffffffffffffffff169392505050565b6000828152602081905260409020547f80000000000000000000000000000000000000000000000000000000000000008082161473ffffffffffffffffffffffffffffffffffffffff8216612d4d576040517f08c379a000000000000000000000000000000000000000000000000000000000815260206004820152601160248201527f4e4f4e4558495354454e545f544f4b454e0000000000000000000000000000006044820152606401610ec1565b8573ffffffffffffffffffffffffffffffffffffffff168273ffffffffffffffffffffffffffffffffffffffff1614612de2576040517f08c379a000000000000000000000000000000000000000000000000000000000815260206004820152600960248201527f4e4f545f4f574e455200000000000000000000000000000000000000000000006044820152606401610ec1565b73ffffffffffffffffffffffffffffffffffffffff8516612e5f576040517f08c379a000000000000000000000000000000000000000000000000000000000815260206004820152601260248201527f4e4f545f544f5f5a45524f4144445245535300000000000000000000000000006044820152606401610ec1565b73ffffffffffffffffffffffffffffffffffffffff8516301415612edf576040517f08c379a000000000000000000000000000000000000000000000000000000000815260206004820152600b60248201527f4e4f545f544f5f544849530000000000000000000000000000000000000000006044820152606401610ec1565b3373ffffffffffffffffffffffffffffffffffffffff871614612fcd57808015612f2c575060008481526003602052604090205473ffffffffffffffffffffffffffffffffffffffff1633145b80612f67575073ffffffffffffffffffffffffffffffffffffffff8616600090815260026020908152604080832033845290915290205460ff165b612fcd576040517f08c379a000000000000000000000000000000000000000000000000000000000815260206004820152601560248201527f554e415554484f52495a45445f5452414e5346455200000000000000000000006044820152606401610ec1565b611a498686868661417f565b6000612fe3613f26565b604080517fe48329057bfd03d55e49b547132e39cffd9c1820ad7b9d4c5307691425d15adf602082015273ffffffffffffffffffffffffffffffffffffffff8a1691810191909152606081018890526080810187905260a001604051602081830303815290604052805190602001206040516020016130949291907f190100000000000000000000000000000000000000000000000000000000000081526002810192909252602282015260420190565b604080517fffffffffffffffffffffffffffffffffffffffffffffffffffffffffffffffe08184030181528282528051602091820120600080855291840180845281905260ff88169284019290925260608301869052608083018590529092509060019060a0016020604051602081039080840390855afa15801561311d573d6000803e3d6000fd5b50506040517fffffffffffffffffffffffffffffffffffffffffffffffffffffffffffffffe0015191505073ffffffffffffffffffffffffffffffffffffffff81166131eb576040517f08c379a000000000000000000000000000000000000000000000000000000000815260206004820152603660248201527f455243373231436865636b706f696e7461626c653a3a64656c6567617465427960448201527f5369673a20696e76616c6964207369676e6174757265000000000000000000006064820152608401610ec1565b73ffffffffffffffffffffffffffffffffffffffff8116600090815260046020526040812080549161321c83615a77565b9190505587146132ae576040517f08c379a000000000000000000000000000000000000000000000000000000000815260206004820152603260248201527f455243373231436865636b706f696e7461626c653a3a64656c6567617465427960448201527f5369673a20696e76616c6964206e6f6e636500000000000000000000000000006064820152608401610ec1565b8542111561333e576040517f08c379a000000000000000000000000000000000000000000000000000000000815260206004820152603660248201527f455243373231436865636b706f696e7461626c653a3a64656c6567617465427960448201527f5369673a207369676e61747572652065787069726564000000000000000000006064820152608401610ec1565b6133488189613f86565b5050505050505050565b600f546040517fc87b56dd0000000000000000000000000000000000000000000000000000000081526004810183905260609173ffffffffffffffffffffffffffffffffffffffff169063c87b56dd9060240160006040518083038186803b1580156133bd57600080fd5b505afa1580156133d1573d6000803e3d6000fd5b505050506040513d6000823e601f3d9081017fffffffffffffffffffffffffffffffffffffffffffffffffffffffffffffffe0168201604052610e0e9190810190615b25565b600d5473ffffffffffffffffffffffffffffffffffffffff163314613498576040517f08c379a000000000000000000000000000000000000000000000000000000000815260206004820152601360248201527f4f4e4c595f4d494e5445525f414c4c4f574544000000000000000000000000006044820152606401610ec1565b73ffffffffffffffffffffffffffffffffffffffff8116613515576040517f08c379a000000000000000000000000000000000000000000000000000000000815260206004820152601260248201527f4e4f545f544f5f5a45524f4144445245535300000000000000000000000000006044820152606401610ec1565b73ffffffffffffffffffffffffffffffffffffffff8116301415613595576040517f08c379a000000000000000000000000000000000000000000000000000000000815260206004820152600b60248201527f4e4f545f544f5f544849530000000000000000000000000000000000000000006044820152606401610ec1565b60005b828110156110695760008484838181106135b4576135b4615a48565b90506020020160208101906135c99190615b9c565b61ffff169050610400811061363a576040517f08c379a000000000000000000000000000000000000000000000000000000000815260206004820152600d60248201527f494e56414c49445f424c454550000000000000000000000000000000000000006044820152606401610ec1565b60008181526020819052604090205473ffffffffffffffffffffffffffffffffffffffff8116156136c7576040517f08c379a000000000000000000000000000000000000000000000000000000000815260206004820152600f60248201527f414c52454144595f4352454154454400000000000000000000000000000000006044820152606401610ec1565b6136e3600085846040518060200160405280600081525061417f565b505080806136f090615a77565b915050613598565b60115473ffffffffffffffffffffffffffffffffffffffff163314613779576040517f08c379a000000000000000000000000000000000000000000000000000000000815260206004820152600e60248201527f4e4f545f415554484f52495a45440000000000000000000000000000000000006044820152606401610ec1565b600580547fffffffffffffffffffffffffffffffffffffffffffffffffffffffffffffff00169055601180547fffffffffffffffffffffffff0000000000000000000000000000000000000000169055604051600081527f4b70ff24654603d6961acf6a0cf30db833fc126dac63891114f984fefcc2b0649060200160405180910390a16040517f3355f5c11ec5fbd9909c4fbd232bf8592a749dba18405f16df892fa6b40eddae90600090a1565b600f546010546040517fcc4c332400000000000000000000000000000000000000000000000000000000815273ffffffffffffffffffffffffffffffffffffffff8083166004830152740100000000000000000000000000000000000000009092046bffffffffffffffffffffffff166024820152606092919091169063cc4c33249060440160006040518083038186803b1580156138c657600080fd5b505afa1580156138da573d6000803e3d6000fd5b505050506040513d6000823e601f3d9081017fffffffffffffffffffffffffffffffffffffffffffffffffffffffffffffffe016820160405261152f9190810190615b25565b6000610e0e61392e8361187f565b6040518060600160405280603d8152602001615d70603d91396143f6565b73ffffffffffffffffffffffffffffffffffffffff808316600090815260026020908152604080832093851683529290529081205460ff168061168757506116878383614448565b60095473ffffffffffffffffffffffffffffffffffffffff163381146139b957600080fd5b600980547fffffffffffffffffffffffff00000000000000000000000000000000000000001673ffffffffffffffffffffffffffffffffffffffff84811691821790925560405190918316907f8be0079c531659141344cd1fd0a4f28419497f9722a3daafe3b4186f6b6457e090600090a35050565b60608167ffffffffffffffff811115613a4a57613a4a61538e565b604051908082528060200260200182016040528015613a8f57816020015b6040805180820190915260008082526020820152815260200190600190039081613a685790505b50905060005b82811015612923576000806000868685818110613ab457613ab4615a48565b90506020020135815260200190815260200160002054905080838381518110613adf57613adf615a48565b60200260200101516000019073ffffffffffffffffffffffffffffffffffffffff16908173ffffffffffffffffffffffffffffffffffffffff168152505060a081901c6affffffffffffffffffffff16838381518110613b4157613b41615a48565b60209081029190910181015101525080613b5a81615a77565b915050613a95565b600c5473ffffffffffffffffffffffffffffffffffffffff163314613be3576040517f08c379a000000000000000000000000000000000000000000000000000000000815260206004820152600e60248201527f4e4f545f415554484f52495a45440000000000000000000000000000000000006044820152606401610ec1565b600d80547fffffffffffffffffffffffff00000000000000000000000000000000000000001673ffffffffffffffffffffffffffffffffffffffff83169081179091556040519081527f726b590ef91a8c76ad05bbe91a57ef84605276528f49cd47d787f558a4e755b690602001611644565b6000613c6182614571565b80613cad57507fffffffff0000000000000000000000000000000000000000000000000000000082167f5604e22500000000000000000000000000000000000000000000000000000000145b80610e0e57507fffffffff0000000000000000000000000000000000000000000000000000000082167fefdb586b000000000000000000000000000000000000000000000000000000001492915050565b73ffffffffffffffffffffffffffffffffffffffff8216613d4b57600081815260208190526040902060a084901b73ffffffffffffffffffffffffffffffffffffffff8616179055613dd6565b6000818152602081815260408083207f800000000000000000000000000000000000000000000000000000000000000073ffffffffffffffffffffffffffffffffffffffff89811660a08a901b1791909117909155600390925290912080547fffffffffffffffffffffffff0000000000000000000000000000000000000000169184169190911790555b808273ffffffffffffffffffffffffffffffffffffffff168573ffffffffffffffffffffffffffffffffffffffff167f8c5be1e5ebec7d5bd14f71427d1e84f3dd0314c0f7b2291e5b200ac8c7c3b92560405160405180910390a450505050565b613e42838383614652565b73ffffffffffffffffffffffffffffffffffffffff808316600090815260016020819052604090912080549091019055831615613ec55773ffffffffffffffffffffffffffffffffffffffff8316600090815260016020526040902080547fffffffffffffffffffffffffffffffffffffffffffffffffffffffffffffffff0190555b6000818152602081905260408082204360a01b73ffffffffffffffffffffffffffffffffffffffff80871691821790925591518493918716917fddf252ad1be2c89b69c2b068fc378daa952ba7f163c4a11628f55a4df523b3ef91a4505050565b6000467f00000000000000000000000000000000000000000000000000000000000000008114613f5e57613f5981614679565b613f80565b7f00000000000000000000000000000000000000000000000000000000000000005b91505090565b6000613f918361164f565b73ffffffffffffffffffffffffffffffffffffffff84811660008181526006602052604080822080547fffffffffffffffffffffffff000000000000000000000000000000000000000016888616908117909155905194955093928516927f3134e8a2e6d97e929a7e54011ea5485d7d196dd5f0ba4d4ef95803e8e3fc257f9190a4600061401e84613920565b905061106982848361471d565b6000614035613f26565b604080517f49ecf333e5b8c95c40fdafc95c1ad136e8914a8fb55e9dc8bb01eaa83a2df9ad602082015273ffffffffffffffffffffffffffffffffffffffff891691810191909152606081018790526080810185905260a0810186905260c001604051602081830303815290604052805190602001206040516020016140ed9291907f190100000000000000000000000000000000000000000000000000000000000081526002810192909252602282015260420190565b604051602081830303815290604052805190602001209050614110878284614942565b614176576040517f08c379a000000000000000000000000000000000000000000000000000000000815260206004820152601160248201527f494e56414c49445f5349474e41545552450000000000000000000000000000006044820152606401610ec1565b50505050505050565b61418a848484613e37565b73ffffffffffffffffffffffffffffffffffffffff83163b15611069576141b43385858585614b31565b611069576040517f08c379a000000000000000000000000000000000000000000000000000000000815260206004820152601860248201527f4552433732315f5452414e534645525f52454a454354454400000000000000006044820152606401610ec1565b73ffffffffffffffffffffffffffffffffffffffff83811660008181526002602090815260408083209487168084529482529182902080547fffffffffffffffffffffffffffffffffffffffffffffffffffffffffffffff001686151590811790915591519182527f17307eab39ab6107e8899845ad3d59bd9653f200f220920489ca2b5937696c31910160405180910390a3505050565b60006142bc613f26565b604080517f29795620f29ed5790c945e3f419a1b3e2381aa07751ccffe5b81231639d74cd5602082015273ffffffffffffffffffffffffffffffffffffffff881691810191909152606081018590526080810186905260a0016040516020818303038152906040528051906020012060405160200161436d9291907f190100000000000000000000000000000000000000000000000000000000000081526002810192909252602282015260420190565b604051602081830303815290604052805190602001209050614390868284614942565b611a49576040517f08c379a000000000000000000000000000000000000000000000000000000000815260206004820152601160248201527f494e56414c49445f5349474e41545552450000000000000000000000000000006044820152606401610ec1565b6000816c010000000000000000000000008410614440576040517f08c379a0000000000000000000000000000000000000000000000000000000008152600401610ec1919061524a565b509192915050565b60007f000000000000000000000000000000000000000000000000000000000000000073ffffffffffffffffffffffffffffffffffffffff1661448d57506000610e0e565b6040517fc455279100000000000000000000000000000000000000000000000000000000815273ffffffffffffffffffffffffffffffffffffffff84811660048301527f0000000000000000000000000000000000000000000000000000000000000000918482169183169063c45527919060240160206040518083038186803b15801561451a57600080fd5b505afa15801561452e573d6000803e3d6000fd5b505050506040513d601f19601f8201168201806040525081019061455291906159ad565b73ffffffffffffffffffffffffffffffffffffffff1614949350505050565b60007f01ffc9a7000000000000000000000000000000000000000000000000000000007fffffffff000000000000000000000000000000000000000000000000000000008316148061460457507f80ac58cd000000000000000000000000000000000000000000000000000000007fffffffff000000000000000000000000000000000000000000000000000000008316145b80610e0e5750507fffffffff00000000000000000000000000000000000000000000000000000000167f5b5e139f000000000000000000000000000000000000000000000000000000001490565b60055460ff161561154f5761154f6146698461164f565b6146728461164f565b600161471d565b60007f8cad95687ba82c2ce50e74f7b754645e5117c3a5bec8151c0726d5857980a8666146d660408051808201909152600681527f426c656570730000000000000000000000000000000000000000000000000000602082015290565b80516020918201206040805192830193909352918101919091526060810183905230608082015260a001604051602081830303815290604052805190602001209050919050565b8173ffffffffffffffffffffffffffffffffffffffff168373ffffffffffffffffffffffffffffffffffffffff161415801561476757506000816bffffffffffffffffffffffff16115b1561154f5773ffffffffffffffffffffffffffffffffffffffff8316156148595773ffffffffffffffffffffffffffffffffffffffff831660009081526008602052604081205463ffffffff1690816147c1576000614820565b73ffffffffffffffffffffffffffffffffffffffff85166000908152600760205260408120906147f26001856159e3565b63ffffffff16815260208101919091526040016000205464010000000090046bffffffffffffffffffffffff165b905060006148478285604051806060016040528060378152602001615dad60379139614c15565b905061485586848484614c83565b5050505b73ffffffffffffffffffffffffffffffffffffffff82161561154f5773ffffffffffffffffffffffffffffffffffffffff821660009081526008602052604081205463ffffffff1690816148ae57600061490d565b73ffffffffffffffffffffffffffffffffffffffff84166000908152600760205260408120906148df6001856159e3565b63ffffffff16815260208101919091526040016000205464010000000090046bffffffffffffffffffffffff165b905060006149348285604051806060016040528060368152602001615cf660369139614f06565b9050611a4985848484614c83565b60008060006149518585614f77565b9092509050600081600481111561496a5761496a615bb7565b1480156149a257508573ffffffffffffffffffffffffffffffffffffffff168273ffffffffffffffffffffffffffffffffffffffff16145b156149b257600192505050611687565b6000808773ffffffffffffffffffffffffffffffffffffffff16631626ba7e60e01b88886040516024016149e7929190615be6565b604080517fffffffffffffffffffffffffffffffffffffffffffffffffffffffffffffffe08184030181529181526020820180517bffffffffffffffffffffffffffffffffffffffffffffffffffffffff167fffffffff00000000000000000000000000000000000000000000000000000000909416939093179092529051614a709190615bff565b600060405180830381855afa9150503d8060008114614aab576040519150601f19603f3d011682016040523d82523d6000602084013e614ab0565b606091505b5091509150818015614ac3575080516020145b8015614b25575080517f1626ba7e0000000000000000000000000000000000000000000000000000000090614b019083016020908101908401615c1b565b7fffffffff0000000000000000000000000000000000000000000000000000000016145b98975050505050505050565b6000808473ffffffffffffffffffffffffffffffffffffffff1663150b7a02888887876040518563ffffffff1660e01b8152600401614b739493929190615c38565b602060405180830381600087803b158015614b8d57600080fd5b505af1158015614ba1573d6000803e3d6000fd5b505050506040513d601f19601f82011682018060405250810190614bc59190615c1b565b7fffffffff00000000000000000000000000000000000000000000000000000000167f150b7a02000000000000000000000000000000000000000000000000000000001491505095945050505050565b6000836bffffffffffffffffffffffff16836bffffffffffffffffffffffff1611158290614c70576040517f08c379a0000000000000000000000000000000000000000000000000000000008152600401610ec1919061524a565b50614c7b8385615c81565b949350505050565b6000614ca743604051806080016040528060448152602001615d2c60449139614fe7565b905060008463ffffffff16118015614d0e575073ffffffffffffffffffffffffffffffffffffffff8516600090815260076020526040812063ffffffff831691614cf26001886159e3565b63ffffffff908116825260208201929092526040016000205416145b15614da45773ffffffffffffffffffffffffffffffffffffffff851660009081526007602052604081208391614d456001886159e3565b63ffffffff168152602081019190915260400160002080546bffffffffffffffffffffffff92909216640100000000027fffffffffffffffffffffffffffffffff000000000000000000000000ffffffff909216919091179055614e9f565b60408051808201825263ffffffff80841682526bffffffffffffffffffffffff808616602080850191825273ffffffffffffffffffffffffffffffffffffffff8b166000908152600782528681208b8616825290915294909420925183549451909116640100000000027fffffffffffffffffffffffffffffffff00000000000000000000000000000000909416911617919091179055614e46846001615ca6565b73ffffffffffffffffffffffffffffffffffffffff8616600090815260086020526040902080547fffffffffffffffffffffffffffffffffffffffffffffffffffffffff000000001663ffffffff929092169190911790555b604080516bffffffffffffffffffffffff80861682528416602082015273ffffffffffffffffffffffffffffffffffffffff8716917fdec2bacdd2f05b59de34da9b523dff8be42e5e38e818c82fdb0bae774387a724910160405180910390a25050505050565b600080614f138486615cce565b9050846bffffffffffffffffffffffff16816bffffffffffffffffffffffff1610158390614f6e576040517f08c379a0000000000000000000000000000000000000000000000000000000008152600401610ec1919061524a565b50949350505050565b600080825160411415614fae5760208301516040840151606085015160001a614fa287828585615029565b94509450505050614fe0565b825160401415614fd85760208301516040840151614fcd868383615141565b935093505050614fe0565b506000905060025b9250929050565b6000816401000000008410614440576040517f08c379a0000000000000000000000000000000000000000000000000000000008152600401610ec1919061524a565b6000807f7fffffffffffffffffffffffffffffff5d576e7357a4501ddfe92f46681b20a08311156150605750600090506003615138565b8460ff16601b1415801561507857508460ff16601c14155b156150895750600090506004615138565b6040805160008082526020820180845289905260ff881692820192909252606081018690526080810185905260019060a0016020604051602081039080840390855afa1580156150dd573d6000803e3d6000fd5b50506040517fffffffffffffffffffffffffffffffffffffffffffffffffffffffffffffffe0015191505073ffffffffffffffffffffffffffffffffffffffff811661513157600060019250925050615138565b9150600090505b94509492505050565b6000807f7fffffffffffffffffffffffffffffffffffffffffffffffffffffffffffffff831660ff84901c601b0161517b87828885615029565b935093505050935093915050565b7fffffffff00000000000000000000000000000000000000000000000000000000811681146116b657600080fd5b6000602082840312156151c957600080fd5b813561168781615189565b60005b838110156151ef5781810151838201526020016151d7565b838111156110695750506000910152565b600081518084526152188160208601602086016151d4565b601f017fffffffffffffffffffffffffffffffffffffffffffffffffffffffffffffffe0169290920160200192915050565b6020815260006116876020830184615200565b60006020828403121561526f57600080fd5b5035919050565b73ffffffffffffffffffffffffffffffffffffffff811681146116b657600080fd5b600080604083850312156152ab57600080fd5b82356152b681615276565b946020939093013593505050565b6000806000606084860312156152d957600080fd5b83356152e481615276565b925060208401356152f481615276565b929592945050506040919091013590565b6000806040838503121561531857600080fd5b823561532381615276565b915060208301356bffffffffffffffffffffffff8116811461534457600080fd5b809150509250929050565b6000806040838503121561536257600080fd5b50508035926020909101359150565b60006020828403121561538357600080fd5b813561168781615276565b7f4e487b7100000000000000000000000000000000000000000000000000000000600052604160045260246000fd5b604051601f82017fffffffffffffffffffffffffffffffffffffffffffffffffffffffffffffffe016810167ffffffffffffffff811182821017156154045761540461538e565b604052919050565b600067ffffffffffffffff8211156154265761542661538e565b50601f017fffffffffffffffffffffffffffffffffffffffffffffffffffffffffffffffe01660200190565b60006154656154608461540c565b6153bd565b905082815283838301111561547957600080fd5b828260208301376000602084830101529392505050565b600082601f8301126154a157600080fd5b61168783833560208501615452565b600080600080608085870312156154c657600080fd5b84356154d181615276565b93506020850135925060408501359150606085013567ffffffffffffffff8111156154fb57600080fd5b61550787828801615490565b91505092959194509250565b60006020828403121561552557600080fd5b813567ffffffffffffffff81111561553c57600080fd5b8201601f8101841361554d57600080fd5b614c7b84823560208401615452565b6000806040838503121561556f57600080fd5b823561557a81615276565b9150602083013561534481615276565b803561ffff8116811461174557600080fd5b600080604083850312156155af57600080fd5b61557a8361558a565b60008083601f8401126155ca57600080fd5b50813567ffffffffffffffff8111156155e257600080fd5b6020830191508360208260051b8501011115614fe057600080fd5b6000806020838503121561561057600080fd5b823567ffffffffffffffff81111561562757600080fd5b615633858286016155b8565b90969095509350505050565b6020808252825182820181905260009190848201906040850190845b8181101561568d57835173ffffffffffffffffffffffffffffffffffffffff168352928401929184019160010161565b565b50909695505050505050565b80151581146116b657600080fd5b600080604083850312156156ba57600080fd5b82356156c581615276565b9150602083013561534481615699565b600080600080608085870312156156eb57600080fd5b84356156f681615276565b9350602085013561570681615276565b925060408501359150606085013567ffffffffffffffff8111156154fb57600080fd5b6000602080830181845280855180835260408601915060408160051b870101925083870160005b8281101561579c577fffffffffffffffffffffffffffffffffffffffffffffffffffffffffffffffc088860301845261578a858351615200565b94509285019290850190600101615750565b5092979650505050505050565b60008060008060008060c087890312156157c257600080fd5b86356157cd81615276565b95506020870135945060408701359350606087013560ff811681146157f157600080fd5b9598949750929560808101359460a0909101359350915050565b60008060006040848603121561582057600080fd5b833567ffffffffffffffff81111561583757600080fd5b615843868287016155b8565b909450925050602084013561585781615276565b809150509250925092565b6000806040838503121561587557600080fd5b823561588081615276565b9150602083013563ffffffff8116811461534457600080fd5b602080825282518282018190526000919060409081850190868401855b828110156158f1578151805173ffffffffffffffffffffffffffffffffffffffff1685528601518685015292840192908501906001016158b6565b5091979650505050505050565b7f4e487b7100000000000000000000000000000000000000000000000000000000600052601160045260246000fd5b6000817fffffffffffffffffffffffffffffffffffffffffffffffffffffffffffffffff0483118215151615615965576159656158fe565b500290565b7f4e487b7100000000000000000000000000000000000000000000000000000000600052601260045260246000fd5b6000826159a8576159a861596a565b500490565b6000602082840312156159bf57600080fd5b815161168781615276565b6000602082840312156159dc57600080fd5b5051919050565b600063ffffffff83811690831681811015615a0057615a006158fe565b039392505050565b600063ffffffff80841680615a1f57615a1f61596a565b92169190910492915050565b600060208284031215615a3d57600080fd5b815161168781615699565b7f4e487b7100000000000000000000000000000000000000000000000000000000600052603260045260246000fd5b60007fffffffffffffffffffffffffffffffffffffffffffffffffffffffffffffffff821415615aa957615aa96158fe565b5060010190565b60008083357fffffffffffffffffffffffffffffffffffffffffffffffffffffffffffffffe1843603018112615ae557600080fd5b83018035915067ffffffffffffffff821115615b0057600080fd5b602001915036819003821315614fe057600080fd5b8183823760009101908152919050565b600060208284031215615b3757600080fd5b815167ffffffffffffffff811115615b4e57600080fd5b8201601f81018413615b5f57600080fd5b8051615b6d6154608261540c565b818152856020838501011115615b8257600080fd5b615b938260208301602086016151d4565b95945050505050565b600060208284031215615bae57600080fd5b6116878261558a565b7f4e487b7100000000000000000000000000000000000000000000000000000000600052602160045260246000fd5b828152604060208201526000614c7b6040830184615200565b60008251615c118184602087016151d4565b9190910192915050565b600060208284031215615c2d57600080fd5b815161168781615189565b600073ffffffffffffffffffffffffffffffffffffffff808716835280861660208401525083604083015260806060830152615c776080830184615200565b9695505050505050565b60006bffffffffffffffffffffffff83811690831681811015615a0057615a006158fe565b600063ffffffff808316818516808303821115615cc557615cc56158fe565b01949350505050565b60006bffffffffffffffffffffffff808316818516808303821115615cc557615cc56158fe56fe455243373231436865636b706f696e7461626c653a3a5f6d6f766544656c6567617465733a20616d6f756e74206f766572666c6f7773455243373231436865636b706f696e7461626c653a3a5f7772697465436865636b706f696e743a20626c6f636b206e756d62657220657863656564732033322062697473455243373231436865636b706f696e7461626c653a3a766f746573546f44656c65676174653a20616d6f756e7420657863656564732039362062697473455243373231436865636b706f696e7461626c653a3a5f6d6f766544656c6567617465733a20616d6f756e7420756e646572666c6f7773a2646970667358221220537c03009380c96a351ce6af575606ba9fc68ec438c1b22b32fc5bb847c560a864736f6c63430008090033",
  "devdoc": {
    "kind": "dev",
    "methods": {
      "DOMAIN_SEPARATOR()": {
        "details": "Return the DOMAIN_SEPARATOR."
      },
      "approve(address,uint256)": {
        "params": {
          "id": "The id of the token.",
          "operator": "The address receiving the approval."
        }
      },
      "balanceOf(address)": {
        "params": {
          "owner": "The address to look for."
        },
        "returns": {
          "balance": "The number of tokens owned by the address."
        }
      },
      "constructor": {
        "details": "Create the Bleeps contract",
        "params": {
          "ens": "ENS address for the network the contract is deployed to",
          "imitialRoyaltyPer10Thousands": "amount of royalty in 10,000 basis point",
          "initialCheckpointingDisabler": "admin able to cancel checkpointing",
          "initialGuardian": "guardian able to immortalize rules",
          "initialMinterAdmin": "admin able to set the minter contract.",
          "initialOwner": "address that can execute on behalf of Bleeps (example: can claim ENS name).",
          "initialRoyaltyAdmin": "admin able to update the royalty receiver and rates.",
          "initialRoyaltyReceiver": "receiver of royalties",
          "initialTokenURIAdmin": "admin able to update the tokenURI contract.",
          "initialTokenURIContract": "initial tokenURI contract that generate the metadata including the wav file.",
          "openseaProxyRegistry": "allow Bleeps to be sold on opensea without prior approval tx as long as the user have already an opensea proxy."
        }
      },
      "delegate(address)": {
        "params": {
          "delegatee": "The address to delegate votes to"
        }
      },
      "delegateBySig(address,uint256,uint256,uint8,bytes32,bytes32)": {
        "params": {
          "delegatee": "The address to delegate votes to",
          "expiry": "The time at which to expire the signature",
          "nonce": "The contract state required to match the signature",
          "r": "Half of the ECDSA signature pair",
          "s": "Half of the ECDSA signature pair",
          "v": "The recovery byte of the signature"
        }
      },
      "getApproved(uint256)": {
        "params": {
          "id": "The id of the token."
        },
        "returns": {
          "_0": "The address of the operator."
        }
      },
      "getCurrentVotes(address)": {
        "params": {
          "account": "The address to get votes balance"
        },
        "returns": {
          "_0": "The number of current votes for `account`"
        }
      },
      "getPriorVotes(address,uint256)": {
        "details": "Block number must be a finalized block or else this function will revert to prevent misinformation.",
        "params": {
          "account": "The address of the account to check",
          "blockNumber": "The block number to get the vote balance at"
        },
        "returns": {
          "_0": "The number of votes the account had as of the given block"
        }
      },
      "isApprovedForAll(address,address)": {
        "params": {
          "operator": "The address of the operator.",
          "owner": "The address of the owner."
        },
        "returns": {
          "isOperator": "The status of the approval."
        }
      },
      "mint(uint16,address)": {
        "params": {
          "id": "bleep id which represent a pair of (note, instrument).",
          "to": "address that will receive the Bleep."
        }
      },
      "multiMint(uint16[],address)": {
        "params": {
          "ids": "list of bleep id which represent each a pair of (note, instrument).",
          "to": "address that will receive the Bleeps."
        }
      },
      "multicall(bytes[])": {
        "details": "The `msg.value` should not be trusted for any method callable from multicall.",
        "params": {
          "data": "The encoded function data for each of the calls to make to this contract."
        },
        "returns": {
          "results": "The results from each of the calls passed in via data."
        }
      },
      "ownerAndLastTransferBlockNumberList(uint256[])": {
        "params": {
          "ids": "The list of token ids to check."
        },
        "returns": {
          "ownersData": "The list of (owner, lastTransferBlockNumber) for each ids given as input."
        }
      },
      "ownerOf(uint256)": {
        "params": {
          "id": "The id of the token."
        },
        "returns": {
          "owner": "The address of the token owner."
        }
      },
      "owners(uint256[])": {
        "params": {
          "ids": "The list if token ids to check."
        },
        "returns": {
          "addresses": "The list of addresses, corresponding to the list of ids."
        }
      },
      "royaltyInfo(uint256,uint256)": {
        "params": {
          "id": "- the token queried for royalty information.",
          "salePrice": "- the sale price of the token specified by id."
        },
        "returns": {
          "receiver": "- address of who should be sent the royalty payment.",
          "royaltyAmount": "- the royalty payment amount for salePrice."
        }
      },
      "safeTransferFrom(address,address,uint256)": {
        "params": {
          "from": "The send of the token.",
          "id": "The id of the token.",
          "to": "The recipient of the token."
        }
      },
      "safeTransferFrom(address,address,uint256,bytes)": {
        "params": {
          "data": "Additional data.",
          "from": "The sender of the token.",
          "id": "The id of the token.",
          "to": "The recipient of the token."
        }
      },
      "setApprovalForAll(address,bool)": {
        "params": {
          "approved": "The determination of the approval.",
          "operator": "The address receiving the approval."
        }
      },
      "setCheckpointingDisabler(address)": {
        "params": {
          "newCheckpointingDisabler": "new address that can disable the use of checkpointing. can be the zero address to remove the ability to change."
        }
      },
      "setRoyaltyParameters(address,uint96)": {
        "params": {
          "newReceiver": "the address that should receive the royalty proceeds.",
          "royaltyPer10Thousands": "the share of the salePrice (in 1/10000) given to the receiver."
        }
      },
      "setTokenURIContract(address)": {
        "params": {
          "newTokenURIContract": "The address of the new tokenURI contract."
        }
      },
      "sound(uint256)": {
        "params": {
          "id": "bleep id which represent a pair of (note, instrument)."
        },
        "returns": {
          "instrument": "the instrument index (0 to 16). At launch there is only 9 instrument but the DAO could add more (up to 16 in total).",
          "note": "the note index (0 to 63) starting from C2 to D#7"
        }
      },
      "supportsInterface(bytes4)": {
        "params": {
          "id": "The id of the interface."
        },
        "returns": {
          "_0": "Whether the interface is supported."
        }
      },
      "transferFrom(address,address,uint256)": {
        "params": {
          "from": "The sender of the token.",
          "id": "The id of the token.",
          "to": "The recipient of the token."
        }
      },
      "votesToDelegate(address)": {
        "details": "Used when calling `_delegate()`"
      }
    },
    "stateVariables": {
      "checkpointingDisabler": {
        "details": "address that is able to switch off the use of checkpointing, this will make token transfers much cheaper in term of gas, but require the design of a new governance system."
      }
    },
    "version": 1
  },
  "userdoc": {
    "events": {
      "DelegateChanged(address,address,address)": {
        "notice": "An event thats emitted when an account changes its delegate"
      },
      "DelegateVotesChanged(address,uint256,uint256)": {
        "notice": "An event thats emitted when a delegate account's vote balance changes"
      }
    },
    "kind": "user",
    "methods": {
      "DELEGATION_TYPEHASH()": {
        "notice": "The EIP-712 typehash for the delegation struct used by the contract"
      },
      "approve(address,uint256)": {
        "notice": "Approve an operator to transfer a specific token on the senders behalf."
      },
      "balanceOf(address)": {
        "notice": "Get the number of tokens owned by an address."
      },
      "checkpoints(address,uint32)": {
        "notice": "A record of votes checkpoints for each account, by index"
      },
      "contractURI()": {
        "notice": "Returns the Uniform Resource Identifier (URI) for the token collection."
      },
      "decimals()": {
        "notice": "Defines decimals as per ERC-20 convention to make integrations with 3rd party governance platforms easier"
      },
      "delegate(address)": {
        "notice": "Delegate votes from `msg.sender` to `delegatee`"
      },
      "delegateBySig(address,uint256,uint256,uint8,bytes32,bytes32)": {
        "notice": "Delegates votes from signatory to `delegatee`"
      },
      "delegates(address)": {
        "notice": "Overrides the standard `Comp.sol` delegates mapping to return the delegator's own address if they haven't delegated. This avoids having to delegate to oneself."
      },
      "disableTheUseOfCheckpoints()": {
        "notice": "disable checkpointing overhead This can be used if the governance system can switch to use ownerAndLastTransferBlockNumberOf instead of checkpoints"
      },
      "getApproved(uint256)": {
        "notice": "Get the approved operator for a specific token."
      },
      "getCurrentVotes(address)": {
        "notice": "Gets the current votes balance for `account`"
      },
      "getPriorVotes(address,uint256)": {
        "notice": "Determine the prior number of votes for an account as of a block number"
      },
      "guardian()": {
        "notice": "guardian has some special vetoing power to guide the direction of the DAO. It can only remove rights from the DAO. It could be used to immortalize rules. For example: the royalty setup could be frozen."
      },
      "isApprovedForAll(address,address)": {
        "notice": "Check if the sender approved the operator."
      },
      "mint(uint16,address)": {
        "notice": "mint one of bleep if not already minted. Can only be called by `minter`."
      },
      "minter()": {
        "notice": "address allowed to mint, allow the sale contract to be separated from the token contract that can focus on the core logic Once all 1024 potential bleeps (there could be less, at minimum there are 576 bleeps) are minted, no minter can mint anymore"
      },
      "minterAdmin()": {
        "notice": "minterAdmin can update the minter. At the time being there is 576 Bleeps but there is space for extra instrument and the upper limit is 1024. could be given to the DAO later so instrument can be added, the sale of these new bleeps could benenfit the DAO too and add new members."
      },
      "multiMint(uint16[],address)": {
        "notice": "mint multiple bleeps if not already minted. Can only be called by `minter`."
      },
      "multicall(bytes[])": {
        "notice": "Call multiple functions in the current contract and return the data from all of them if they all succeed."
      },
      "name()": {
        "notice": "A descriptive name for a collection of NFTs in this contract."
      },
      "numCheckpoints(address)": {
        "notice": "The number of checkpoints for each account"
      },
      "owner()": {
        "notice": "the address of the current owner, that is able to set ENS names and withdraw ERC20 owned by the contract."
      },
      "ownerAndLastTransferBlockNumberList(uint256[])": {
        "notice": "Get the list of owner of a token and the blockNumber of its last transfer, useful to voting mechanism."
      },
      "ownerOf(uint256)": {
        "notice": "Get the owner of a token."
      },
      "owners(uint256[])": {
        "notice": "give the list of owners for the list of ids given."
      },
      "royaltyAdmin()": {
        "notice": "address allowed to set royalty parameters"
      },
      "royaltyInfo(uint256,uint256)": {
        "notice": "Called with the sale price to determine how much royalty is owed and to whom."
      },
      "safeTransferFrom(address,address,uint256)": {
        "notice": "Transfer a token between 2 addresses letting the receiver know of the transfer."
      },
      "safeTransferFrom(address,address,uint256,bytes)": {
        "notice": "Transfer a token between 2 addresses letting the receiver knows of the transfer."
      },
      "setApprovalForAll(address,bool)": {
        "notice": "Set the approval for an operator to manage all the tokens of the sender."
      },
      "setCheckpointingDisabler(address)": {
        "notice": "update the address that can disable the use of checkpinting, can be used to disable it entirely."
      },
      "setGuardian(address)": {
        "notice": "set the new guardian that can freeze the other admins (except owner). Can only be called by the current guardian."
      },
      "setMinter(address)": {
        "notice": "set the new minter that can mint Bleeps (up to 1024). Can only be called by the minter admin."
      },
      "setMinterAdmin(address)": {
        "notice": "set the new minterAdmin that can set the minter for Bleeps Can only be called by the current minter admin."
      },
      "setRoyaltyAdmin(address)": {
        "notice": "set the new royaltyAdmin that can change the royalties Can only be called by the current royalty admin."
      },
      "setRoyaltyParameters(address,uint96)": {
        "notice": "set a new royalty receiver and rate, Can only be set by the `royaltyAdmin`."
      },
      "setTokenURIAdmin(address)": {
        "notice": "set the new tokenURIAdmin that can change the tokenURI Can only be called by the current tokenURI admin."
      },
      "setTokenURIContract(address)": {
        "notice": "set a new tokenURI contract, that generate the metadata including the wav file, Can only be set by the `tokenURIAdmin`."
      },
      "sound(uint256)": {
        "notice": "gives the note and instrument for a particular Bleep id."
      },
      "supportsInterface(bytes4)": {
        "notice": "Check if the contract supports an interface."
      },
      "symbol()": {
        "notice": "An abbreviated name for NFTs in this contract."
      },
      "tokenURI(uint256)": {
        "notice": "Returns the Uniform Resource Identifier (URI) for token `id`."
      },
      "tokenURIAdmin()": {
        "notice": "tokenURIAdmin can update the tokenURI contract, this is intended to be relinquished once the tokenURI has been heavily tested in the wild and that no modification are needed."
      },
      "tokenURIContract()": {
        "notice": "the contract that actually generate the sound (and all metadata via the a data: uri via tokenURI call)."
      },
      "transferFrom(address,address,uint256)": {
        "notice": "Transfer a token between 2 addresses."
      },
      "transferOwnership(address)": {
        "notice": "Transfers ownership of the contract to a new account (`newOwner`). Can only be called by the current owner."
      },
      "votesToDelegate(address)": {
        "notice": "The votes a delegator can delegate, which is the current balance of the delegator."
      }
    },
    "version": 1
  },
  "storageLayout": {
    "storage": [
      {
        "astId": 6695,
        "contract": "src/bleeps/Bleeps.sol:Bleeps",
        "label": "_owners",
        "offset": 0,
        "slot": "0",
        "type": "t_mapping(t_uint256,t_uint256)"
      },
      {
        "astId": 6699,
        "contract": "src/bleeps/Bleeps.sol:Bleeps",
        "label": "_balances",
        "offset": 0,
        "slot": "1",
        "type": "t_mapping(t_address,t_uint256)"
      },
      {
        "astId": 6705,
        "contract": "src/bleeps/Bleeps.sol:Bleeps",
        "label": "_operatorsForAll",
        "offset": 0,
        "slot": "2",
        "type": "t_mapping(t_address,t_mapping(t_address,t_bool))"
      },
      {
        "astId": 6709,
        "contract": "src/bleeps/Bleeps.sol:Bleeps",
        "label": "_operators",
        "offset": 0,
        "slot": "3",
        "type": "t_mapping(t_uint256,t_address)"
      },
      {
        "astId": 7642,
        "contract": "src/bleeps/Bleeps.sol:Bleeps",
        "label": "_userNonces",
        "offset": 0,
        "slot": "4",
        "type": "t_mapping(t_address,t_uint256)"
      },
      {
        "astId": 8355,
        "contract": "src/bleeps/Bleeps.sol:Bleeps",
        "label": "_useCheckpoints",
        "offset": 0,
        "slot": "5",
        "type": "t_bool"
      },
      {
        "astId": 8364,
        "contract": "src/bleeps/Bleeps.sol:Bleeps",
        "label": "_delegates",
        "offset": 0,
        "slot": "6",
        "type": "t_mapping(t_address,t_address)"
      },
      {
        "astId": 8377,
        "contract": "src/bleeps/Bleeps.sol:Bleeps",
        "label": "checkpoints",
        "offset": 0,
        "slot": "7",
        "type": "t_mapping(t_address,t_mapping(t_uint32,t_struct(Checkpoint)8369_storage))"
      },
      {
        "astId": 8382,
        "contract": "src/bleeps/Bleeps.sol:Bleeps",
        "label": "numCheckpoints",
        "offset": 0,
        "slot": "8",
        "type": "t_mapping(t_address,t_uint32)"
      },
      {
        "astId": 11629,
        "contract": "src/bleeps/Bleeps.sol:Bleeps",
        "label": "owner",
        "offset": 0,
        "slot": "9",
        "type": "t_address"
      },
      {
        "astId": 11632,
        "contract": "src/bleeps/Bleeps.sol:Bleeps",
        "label": "tokenURIAdmin",
        "offset": 0,
        "slot": "10",
        "type": "t_address"
      },
      {
        "astId": 11635,
        "contract": "src/bleeps/Bleeps.sol:Bleeps",
        "label": "royaltyAdmin",
        "offset": 0,
        "slot": "11",
        "type": "t_address"
      },
      {
        "astId": 11638,
        "contract": "src/bleeps/Bleeps.sol:Bleeps",
        "label": "minterAdmin",
        "offset": 0,
        "slot": "12",
        "type": "t_address"
      },
      {
        "astId": 11641,
        "contract": "src/bleeps/Bleeps.sol:Bleeps",
        "label": "minter",
        "offset": 0,
        "slot": "13",
        "type": "t_address"
      },
      {
        "astId": 11644,
        "contract": "src/bleeps/Bleeps.sol:Bleeps",
        "label": "guardian",
        "offset": 0,
        "slot": "14",
        "type": "t_address"
      },
      {
        "astId": 10079,
        "contract": "src/bleeps/Bleeps.sol:Bleeps",
        "label": "tokenURIContract",
        "offset": 0,
        "slot": "15",
        "type": "t_contract(ITokenURI)13414"
      },
      {
        "astId": 10087,
        "contract": "src/bleeps/Bleeps.sol:Bleeps",
        "label": "_royalty",
        "offset": 0,
        "slot": "16",
        "type": "t_struct(Royalty)10084_storage"
      },
      {
        "astId": 10090,
        "contract": "src/bleeps/Bleeps.sol:Bleeps",
        "label": "checkpointingDisabler",
        "offset": 0,
        "slot": "17",
        "type": "t_address"
      }
    ],
    "types": {
      "t_address": {
        "encoding": "inplace",
        "label": "address",
        "numberOfBytes": "20"
      },
      "t_bool": {
        "encoding": "inplace",
        "label": "bool",
        "numberOfBytes": "1"
      },
      "t_contract(ITokenURI)13414": {
        "encoding": "inplace",
        "label": "contract ITokenURI",
        "numberOfBytes": "20"
      },
      "t_mapping(t_address,t_address)": {
        "encoding": "mapping",
        "key": "t_address",
        "label": "mapping(address => address)",
        "numberOfBytes": "32",
        "value": "t_address"
      },
      "t_mapping(t_address,t_bool)": {
        "encoding": "mapping",
        "key": "t_address",
        "label": "mapping(address => bool)",
        "numberOfBytes": "32",
        "value": "t_bool"
      },
      "t_mapping(t_address,t_mapping(t_address,t_bool))": {
        "encoding": "mapping",
        "key": "t_address",
        "label": "mapping(address => mapping(address => bool))",
        "numberOfBytes": "32",
        "value": "t_mapping(t_address,t_bool)"
      },
      "t_mapping(t_address,t_mapping(t_uint32,t_struct(Checkpoint)8369_storage))": {
        "encoding": "mapping",
        "key": "t_address",
        "label": "mapping(address => mapping(uint32 => struct ERC721Checkpointable.Checkpoint))",
        "numberOfBytes": "32",
        "value": "t_mapping(t_uint32,t_struct(Checkpoint)8369_storage)"
      },
      "t_mapping(t_address,t_uint256)": {
        "encoding": "mapping",
        "key": "t_address",
        "label": "mapping(address => uint256)",
        "numberOfBytes": "32",
        "value": "t_uint256"
      },
      "t_mapping(t_address,t_uint32)": {
        "encoding": "mapping",
        "key": "t_address",
        "label": "mapping(address => uint32)",
        "numberOfBytes": "32",
        "value": "t_uint32"
      },
      "t_mapping(t_uint256,t_address)": {
        "encoding": "mapping",
        "key": "t_uint256",
        "label": "mapping(uint256 => address)",
        "numberOfBytes": "32",
        "value": "t_address"
      },
      "t_mapping(t_uint256,t_uint256)": {
        "encoding": "mapping",
        "key": "t_uint256",
        "label": "mapping(uint256 => uint256)",
        "numberOfBytes": "32",
        "value": "t_uint256"
      },
      "t_mapping(t_uint32,t_struct(Checkpoint)8369_storage)": {
        "encoding": "mapping",
        "key": "t_uint32",
        "label": "mapping(uint32 => struct ERC721Checkpointable.Checkpoint)",
        "numberOfBytes": "32",
        "value": "t_struct(Checkpoint)8369_storage"
      },
      "t_struct(Checkpoint)8369_storage": {
        "encoding": "inplace",
        "label": "struct ERC721Checkpointable.Checkpoint",
        "members": [
          {
            "astId": 8366,
            "contract": "src/bleeps/Bleeps.sol:Bleeps",
            "label": "fromBlock",
            "offset": 0,
            "slot": "0",
            "type": "t_uint32"
          },
          {
            "astId": 8368,
            "contract": "src/bleeps/Bleeps.sol:Bleeps",
            "label": "votes",
            "offset": 4,
            "slot": "0",
            "type": "t_uint96"
          }
        ],
        "numberOfBytes": "32"
      },
      "t_struct(Royalty)10084_storage": {
        "encoding": "inplace",
        "label": "struct Bleeps.Royalty",
        "members": [
          {
            "astId": 10081,
            "contract": "src/bleeps/Bleeps.sol:Bleeps",
            "label": "receiver",
            "offset": 0,
            "slot": "0",
            "type": "t_address"
          },
          {
            "astId": 10083,
            "contract": "src/bleeps/Bleeps.sol:Bleeps",
            "label": "per10Thousands",
            "offset": 20,
            "slot": "0",
            "type": "t_uint96"
          }
        ],
        "numberOfBytes": "32"
      },
      "t_uint256": {
        "encoding": "inplace",
        "label": "uint256",
        "numberOfBytes": "32"
      },
      "t_uint32": {
        "encoding": "inplace",
        "label": "uint32",
        "numberOfBytes": "4"
      },
      "t_uint96": {
        "encoding": "inplace",
        "label": "uint96",
        "numberOfBytes": "12"
      }
    }
  }
}