{
  "address": "0xdb434d3FeC613f1cDB14e2E46812b735211B85a0",
  "abi": [
    {
      "inputs": [
        {
          "internalType": "uint256",
          "name": "initPrice",
          "type": "uint256"
        },
        {
          "internalType": "uint256",
          "name": "delay",
          "type": "uint256"
        },
        {
          "internalType": "uint256",
          "name": "lastPrice",
          "type": "uint256"
        },
        {
          "internalType": "uint256",
          "name": "startTime",
          "type": "uint256"
        },
        {
          "internalType": "contract IERC721",
          "name": "mandalas",
          "type": "address"
        },
        {
          "internalType": "address",
          "name": "maintainer",
          "type": "address"
        },
        {
          "internalType": "address payable",
          "name": "recipient",
          "type": "address"
        },
        {
          "internalType": "contract BleepsTokenURI",
          "name": "initialTokenURIContract",
          "type": "address"
        }
      ],
      "stateMutability": "nonpayable",
      "type": "constructor"
    },
    {
      "anonymous": false,
      "inputs": [
        {
          "indexed": true,
          "internalType": "address",
          "name": "owner",
          "type": "address"
        },
        {
          "indexed": true,
          "internalType": "address",
          "name": "approved",
          "type": "address"
        },
        {
          "indexed": true,
          "internalType": "uint256",
          "name": "tokenId",
          "type": "uint256"
        }
      ],
      "name": "Approval",
      "type": "event"
    },
    {
      "anonymous": false,
      "inputs": [
        {
          "indexed": true,
          "internalType": "address",
          "name": "owner",
          "type": "address"
        },
        {
          "indexed": true,
          "internalType": "address",
          "name": "operator",
          "type": "address"
        },
        {
          "indexed": false,
          "internalType": "bool",
          "name": "approved",
          "type": "bool"
        }
      ],
      "name": "ApprovalForAll",
      "type": "event"
    },
    {
      "anonymous": false,
      "inputs": [
        {
          "indexed": true,
          "internalType": "address",
          "name": "delegator",
          "type": "address"
        },
        {
          "indexed": true,
          "internalType": "address",
          "name": "fromDelegate",
          "type": "address"
        },
        {
          "indexed": true,
          "internalType": "address",
          "name": "toDelegate",
          "type": "address"
        }
      ],
      "name": "DelegateChanged",
      "type": "event"
    },
    {
      "anonymous": false,
      "inputs": [
        {
          "indexed": true,
          "internalType": "address",
          "name": "delegate",
          "type": "address"
        },
        {
          "indexed": false,
          "internalType": "uint256",
          "name": "previousBalance",
          "type": "uint256"
        },
        {
          "indexed": false,
          "internalType": "uint256",
          "name": "newBalance",
          "type": "uint256"
        }
      ],
      "name": "DelegateVotesChanged",
      "type": "event"
    },
    {
      "anonymous": false,
      "inputs": [
        {
          "indexed": true,
          "internalType": "address",
          "name": "from",
          "type": "address"
        },
        {
          "indexed": true,
          "internalType": "address",
          "name": "to",
          "type": "address"
        },
        {
          "indexed": true,
          "internalType": "uint256",
          "name": "tokenId",
          "type": "uint256"
        }
      ],
      "name": "Transfer",
      "type": "event"
    },
    {
      "inputs": [],
      "name": "DELEGATION_TYPEHASH",
      "outputs": [
        {
          "internalType": "bytes32",
          "name": "",
          "type": "bytes32"
        }
      ],
      "stateMutability": "view",
      "type": "function"
    },
    {
      "inputs": [],
      "name": "DOMAIN_TYPEHASH",
      "outputs": [
        {
          "internalType": "bytes32",
          "name": "",
          "type": "bytes32"
        }
      ],
      "stateMutability": "view",
      "type": "function"
    },
    {
      "inputs": [
        {
          "internalType": "address",
          "name": "to",
          "type": "address"
        },
        {
          "internalType": "uint256",
          "name": "tokenId",
          "type": "uint256"
        }
      ],
      "name": "approve",
      "outputs": [],
      "stateMutability": "nonpayable",
      "type": "function"
    },
    {
      "inputs": [
        {
          "internalType": "address",
          "name": "owner",
          "type": "address"
        }
      ],
      "name": "balanceOf",
      "outputs": [
        {
          "internalType": "uint256",
          "name": "",
          "type": "uint256"
        }
      ],
      "stateMutability": "view",
      "type": "function"
    },
    {
      "inputs": [
        {
          "internalType": "address",
          "name": "",
          "type": "address"
        },
        {
          "internalType": "uint32",
          "name": "",
          "type": "uint32"
        }
      ],
      "name": "checkpoints",
      "outputs": [
        {
          "internalType": "uint32",
          "name": "fromBlock",
          "type": "uint32"
        },
        {
          "internalType": "uint96",
          "name": "votes",
          "type": "uint96"
        }
      ],
      "stateMutability": "view",
      "type": "function"
    },
    {
      "inputs": [],
      "name": "decimals",
      "outputs": [
        {
          "internalType": "uint8",
          "name": "",
          "type": "uint8"
        }
      ],
      "stateMutability": "view",
      "type": "function"
    },
    {
      "inputs": [
        {
          "internalType": "address",
          "name": "delegatee",
          "type": "address"
        }
      ],
      "name": "delegate",
      "outputs": [],
      "stateMutability": "nonpayable",
      "type": "function"
    },
    {
      "inputs": [
        {
          "internalType": "address",
          "name": "delegatee",
          "type": "address"
        },
        {
          "internalType": "uint256",
          "name": "nonce",
          "type": "uint256"
        },
        {
          "internalType": "uint256",
          "name": "expiry",
          "type": "uint256"
        },
        {
          "internalType": "uint8",
          "name": "v",
          "type": "uint8"
        },
        {
          "internalType": "bytes32",
          "name": "r",
          "type": "bytes32"
        },
        {
          "internalType": "bytes32",
          "name": "s",
          "type": "bytes32"
        }
      ],
      "name": "delegateBySig",
      "outputs": [],
      "stateMutability": "nonpayable",
      "type": "function"
    },
    {
      "inputs": [
        {
          "internalType": "address",
          "name": "delegator",
          "type": "address"
        }
      ],
      "name": "delegates",
      "outputs": [
        {
          "internalType": "address",
          "name": "",
          "type": "address"
        }
      ],
      "stateMutability": "view",
      "type": "function"
    },
    {
      "inputs": [
        {
          "internalType": "uint256",
          "name": "tokenId",
          "type": "uint256"
        }
      ],
      "name": "getApproved",
      "outputs": [
        {
          "internalType": "address",
          "name": "",
          "type": "address"
        }
      ],
      "stateMutability": "view",
      "type": "function"
    },
    {
      "inputs": [
        {
          "internalType": "address",
          "name": "account",
          "type": "address"
        }
      ],
      "name": "getCurrentVotes",
      "outputs": [
        {
          "internalType": "uint96",
          "name": "",
          "type": "uint96"
        }
      ],
      "stateMutability": "view",
      "type": "function"
    },
    {
      "inputs": [
        {
          "internalType": "address",
          "name": "account",
          "type": "address"
        },
        {
          "internalType": "uint256",
          "name": "blockNumber",
          "type": "uint256"
        }
      ],
      "name": "getPriorVotes",
      "outputs": [
        {
          "internalType": "uint96",
          "name": "",
          "type": "uint96"
        }
      ],
      "stateMutability": "view",
      "type": "function"
    },
    {
      "inputs": [
        {
          "internalType": "address",
          "name": "owner",
          "type": "address"
        },
        {
          "internalType": "address",
          "name": "operator",
          "type": "address"
        }
      ],
      "name": "isApprovedForAll",
      "outputs": [
        {
          "internalType": "bool",
          "name": "",
          "type": "bool"
        }
      ],
      "stateMutability": "view",
      "type": "function"
    },
    {
      "inputs": [
        {
          "internalType": "uint16",
          "name": "id",
          "type": "uint16"
        },
        {
          "internalType": "address",
          "name": "to",
          "type": "address"
        }
      ],
      "name": "mint",
      "outputs": [],
      "stateMutability": "payable",
      "type": "function"
    },
    {
      "inputs": [],
      "name": "name",
      "outputs": [
        {
          "internalType": "string",
          "name": "",
          "type": "string"
        }
      ],
      "stateMutability": "view",
      "type": "function"
    },
    {
      "inputs": [
        {
          "internalType": "address",
          "name": "",
          "type": "address"
        }
      ],
      "name": "nonces",
      "outputs": [
        {
          "internalType": "uint256",
          "name": "",
          "type": "uint256"
        }
      ],
      "stateMutability": "view",
      "type": "function"
    },
    {
      "inputs": [
        {
          "internalType": "address",
          "name": "",
          "type": "address"
        }
      ],
      "name": "numCheckpoints",
      "outputs": [
        {
          "internalType": "uint32",
          "name": "",
          "type": "uint32"
        }
      ],
      "stateMutability": "view",
      "type": "function"
    },
    {
      "inputs": [
        {
          "internalType": "uint256",
          "name": "tokenId",
          "type": "uint256"
        }
      ],
      "name": "ownerOf",
      "outputs": [
        {
          "internalType": "address",
          "name": "",
          "type": "address"
        }
      ],
      "stateMutability": "view",
      "type": "function"
    },
    {
      "inputs": [
        {
          "internalType": "uint256[]",
          "name": "ids",
          "type": "uint256[]"
        }
      ],
      "name": "ownersAndPriceInfo",
      "outputs": [
        {
          "internalType": "address[]",
          "name": "addresses",
          "type": "address[]"
        },
        {
          "internalType": "uint256",
          "name": "startTime",
          "type": "uint256"
        },
        {
          "internalType": "uint256",
          "name": "initPrice",
          "type": "uint256"
        },
        {
          "internalType": "uint256",
          "name": "delay",
          "type": "uint256"
        },
        {
          "internalType": "uint256",
          "name": "lastPrice",
          "type": "uint256"
        }
      ],
      "stateMutability": "view",
      "type": "function"
    },
    {
      "inputs": [],
      "name": "priceInfo",
      "outputs": [
        {
          "internalType": "uint256",
          "name": "startTime",
          "type": "uint256"
        },
        {
          "internalType": "uint256",
          "name": "initPrice",
          "type": "uint256"
        },
        {
          "internalType": "uint256",
          "name": "delay",
          "type": "uint256"
        },
        {
          "internalType": "uint256",
          "name": "lastPrice",
          "type": "uint256"
        }
      ],
      "stateMutability": "view",
      "type": "function"
    },
    {
      "inputs": [
        {
          "internalType": "address",
          "name": "from",
          "type": "address"
        },
        {
          "internalType": "address",
          "name": "to",
          "type": "address"
        },
        {
          "internalType": "uint256",
          "name": "tokenId",
          "type": "uint256"
        }
      ],
      "name": "safeTransferFrom",
      "outputs": [],
      "stateMutability": "nonpayable",
      "type": "function"
    },
    {
      "inputs": [
        {
          "internalType": "address",
          "name": "from",
          "type": "address"
        },
        {
          "internalType": "address",
          "name": "to",
          "type": "address"
        },
        {
          "internalType": "uint256",
          "name": "tokenId",
          "type": "uint256"
        },
        {
          "internalType": "bytes",
          "name": "_data",
          "type": "bytes"
        }
      ],
      "name": "safeTransferFrom",
      "outputs": [],
      "stateMutability": "nonpayable",
      "type": "function"
    },
    {
      "inputs": [
        {
          "internalType": "address",
          "name": "operator",
          "type": "address"
        },
        {
          "internalType": "bool",
          "name": "approved",
          "type": "bool"
        }
      ],
      "name": "setApprovalForAll",
      "outputs": [],
      "stateMutability": "nonpayable",
      "type": "function"
    },
    {
      "inputs": [
        {
          "internalType": "address",
          "name": "newMaintainer",
          "type": "address"
        }
      ],
      "name": "setMaintainer",
      "outputs": [],
      "stateMutability": "nonpayable",
      "type": "function"
    },
    {
      "inputs": [
        {
          "internalType": "address payable",
          "name": "newRecipient",
          "type": "address"
        }
      ],
      "name": "setRecipient",
      "outputs": [],
      "stateMutability": "nonpayable",
      "type": "function"
    },
    {
      "inputs": [
        {
          "internalType": "contract BleepsTokenURI",
          "name": "newTokenURIContract",
          "type": "address"
        }
      ],
      "name": "setTokenURIContract",
      "outputs": [],
      "stateMutability": "nonpayable",
      "type": "function"
    },
    {
      "inputs": [
        {
          "internalType": "bytes4",
          "name": "interfaceId",
          "type": "bytes4"
        }
      ],
      "name": "supportsInterface",
      "outputs": [
        {
          "internalType": "bool",
          "name": "",
          "type": "bool"
        }
      ],
      "stateMutability": "view",
      "type": "function"
    },
    {
      "inputs": [],
      "name": "symbol",
      "outputs": [
        {
          "internalType": "string",
          "name": "",
          "type": "string"
        }
      ],
      "stateMutability": "view",
      "type": "function"
    },
    {
      "inputs": [
        {
          "internalType": "uint256",
          "name": "index",
          "type": "uint256"
        }
      ],
      "name": "tokenByIndex",
      "outputs": [
        {
          "internalType": "uint256",
          "name": "",
          "type": "uint256"
        }
      ],
      "stateMutability": "view",
      "type": "function"
    },
    {
      "inputs": [
        {
          "internalType": "address",
          "name": "owner",
          "type": "address"
        },
        {
          "internalType": "uint256",
          "name": "index",
          "type": "uint256"
        }
      ],
      "name": "tokenOfOwnerByIndex",
      "outputs": [
        {
          "internalType": "uint256",
          "name": "",
          "type": "uint256"
        }
      ],
      "stateMutability": "view",
      "type": "function"
    },
    {
      "inputs": [
        {
          "internalType": "uint256",
          "name": "id",
          "type": "uint256"
        }
      ],
      "name": "tokenURI",
      "outputs": [
        {
          "internalType": "string",
          "name": "",
          "type": "string"
        }
      ],
      "stateMutability": "view",
      "type": "function"
    },
    {
      "inputs": [],
      "name": "tokenURIContract",
      "outputs": [
        {
          "internalType": "contract BleepsTokenURI",
          "name": "",
          "type": "address"
        }
      ],
      "stateMutability": "view",
      "type": "function"
    },
    {
      "inputs": [],
      "name": "totalSupply",
      "outputs": [
        {
          "internalType": "uint256",
          "name": "",
          "type": "uint256"
        }
      ],
      "stateMutability": "view",
      "type": "function"
    },
    {
      "inputs": [
        {
          "internalType": "address",
          "name": "from",
          "type": "address"
        },
        {
          "internalType": "address",
          "name": "to",
          "type": "address"
        },
        {
          "internalType": "uint256",
          "name": "tokenId",
          "type": "uint256"
        }
      ],
      "name": "transferFrom",
      "outputs": [],
      "stateMutability": "nonpayable",
      "type": "function"
    },
    {
      "inputs": [
        {
          "internalType": "address",
          "name": "delegator",
          "type": "address"
        }
      ],
      "name": "votesToDelegate",
      "outputs": [
        {
          "internalType": "uint96",
          "name": "",
          "type": "uint96"
        }
      ],
      "stateMutability": "view",
      "type": "function"
    }
  ],
  "transactionHash": "0xb26c8aa6b48fbbe056f5f8359122f1dc1e0e9542234d5532a47ea4a9c4a4492f",
  "args": [
    "2000000000000000000",
    172800,
    "50000000000000000",
    1635065955,
    "0xDaCa87395f3b1Bbc46F3FA187e996E03a5dCc985",
    "0xE53cd71271AcAdbeb0f64d9c8C62bBdDc8cA9e66",
    "0xE53cd71271AcAdbeb0f64d9c8C62bBdDc8cA9e66",
    "0x07C6C4FB0a6fCADFc2f44b1655B442030C641b89"
  ],
  "solcInputHash": "1fe95427c7d0e20d4317a1fdb3cda5cd",
  "bytecode": "0x6101206040523480156200001257600080fd5b50604051620043e3380380620043e38339810160408190526200003591620001bc565b6040805180820182526006815265426c6565707360d01b6020808301918252835180850190945260058452640424c4545560dc1b9084015281519192916200008091600091620000fd565b50805162000096906001906020840190620000fd565b50505060a09790975260c09590955260e0939093526080919091526001600160a01b0390811661010052600e80549282166001600160a01b0319938416179055600f805493821693831693909317909255601080549390921692169190911790556200028a565b8280546200010b906200024d565b90600052602060002090601f0160209004810192826200012f57600085556200017a565b82601f106200014a57805160ff19168380011785556200017a565b828001600101855582156200017a579182015b828111156200017a5782518255916020019190600101906200015d565b50620001889291506200018c565b5090565b5b808211156200018857600081556001016200018d565b6001600160a01b0381168114620001b957600080fd5b50565b600080600080600080600080610100898b031215620001da57600080fd5b8851975060208901519650604089015195506060890151945060808901516200020381620001a3565b60a08a01519094506200021681620001a3565b60c08a01519093506200022981620001a3565b60e08a01519092506200023c81620001a3565b809150509295985092959890939650565b600181811c908216806200026257607f821691505b602082108114156200028457634e487b7160e01b600052602260045260246000fd5b50919050565b60805160a05160c05160e051610100516140c362000320600039600050506000818161064501528181610eb30152818161181d0152818161188d01526118f801526000818161061d01528181610e900152818161186601526118b50152600081816105f701528181610e6d015281816117c9015261183e0152600081816105d401528181610e4a01526117ef01526140c36000f3fe6080604052600436106102345760003560e01c8063698f87be11610138578063a22cb465116100b0578063c87b56dd1161007f578063e9580e9111610064578063e9580e911461078d578063e985e9c5146107ad578063f1127ed81461080357600080fd5b8063c87b56dd14610739578063e7a324dc1461075957600080fd5b8063a22cb465146106b9578063b4b5ea57146106d9578063b88d4fde146106f9578063c3cda5201461071957600080fd5b80637ecebe001161010757806382fc3147116100ec57806382fc31471461067157806395d89b41146106915780639c205513146106a657600080fd5b80637ecebe001461059457806381059f78146105c157600080fd5b8063698f87be146104c25780636fcfff45146104ef57806370a0823114610537578063782d6fe11461055757600080fd5b80632a2c67ff116101cb57806342842e0e1161019a578063587cde1e1161017f578063587cde1e146104625780635c19a95c146104825780636352211e146104a257600080fd5b806342842e0e146104225780634f6ccce71461044257600080fd5b80632a2c67ff1461038a5780632f745c59146103bb578063313ce567146103db5780633bbed4a01461040257600080fd5b806313ea5d291161020757806313ea5d29146102f757806318160ddd1461031757806320606b701461033657806323b872dd1461036a57600080fd5b806301ffc9a71461023957806306fdde031461026e578063081812fc14610290578063095ea7b3146102d5575b600080fd5b34801561024557600080fd5b50610259610254366004613737565b610882565b60405190151581526020015b60405180910390f35b34801561027a57600080fd5b506102836108de565b60405161026591906137ca565b34801561029c57600080fd5b506102b06102ab3660046137dd565b610970565b60405173ffffffffffffffffffffffffffffffffffffffff9091168152602001610265565b3480156102e157600080fd5b506102f56102f0366004613818565b610a4f565b005b34801561030357600080fd5b506102f5610312366004613844565b610bdc565b34801561032357600080fd5b506008545b604051908152602001610265565b34801561034257600080fd5b506103287f8cad95687ba82c2ce50e74f7b754645e5117c3a5bec8151c0726d5857980a86681565b34801561037657600080fd5b506102f5610385366004613861565b610ca4565b34801561039657600080fd5b506103aa6103a53660046138a2565b610d45565b604051610265959493929190613917565b3480156103c757600080fd5b506103286103d6366004613818565b610ed9565b3480156103e757600080fd5b506103f0600081565b60405160ff9091168152602001610265565b34801561040e57600080fd5b506102f561041d366004613844565b610fa8565b34801561042e57600080fd5b506102f561043d366004613861565b611070565b34801561044e57600080fd5b5061032861045d3660046137dd565b61108b565b34801561046e57600080fd5b506102b061047d366004613844565b611149565b34801561048e57600080fd5b506102f561049d366004613844565b611188565b3480156104ae57600080fd5b506102b06104bd3660046137dd565b6111b3565b3480156104ce57600080fd5b506010546102b09073ffffffffffffffffffffffffffffffffffffffff1681565b3480156104fb57600080fd5b5061052261050a366004613844565b600c6020526000908152604090205463ffffffff1681565b60405163ffffffff9091168152602001610265565b34801561054357600080fd5b50610328610552366004613844565b611265565b34801561056357600080fd5b50610577610572366004613818565b611333565b6040516bffffffffffffffffffffffff9091168152602001610265565b3480156105a057600080fd5b506103286105af366004613844565b600d6020526000908152604090205481565b3480156105cd57600080fd5b50604080517f000000000000000000000000000000000000000000000000000000000000000081527f000000000000000000000000000000000000000000000000000000000000000060208201527f0000000000000000000000000000000000000000000000000000000000000000918101919091527f00000000000000000000000000000000000000000000000000000000000000006060820152608001610265565b34801561067d57600080fd5b506102f561068c366004613844565b61164a565b34801561069d57600080fd5b50610283611712565b6102f56106b436600461398c565b611721565b3480156106c557600080fd5b506102f56106d43660046139cc565b611ba8565b3480156106e557600080fd5b506105776106f4366004613844565b611cbf565b34801561070557600080fd5b506102f5610714366004613ac3565b611d5c565b34801561072557600080fd5b506102f5610734366004613b72565b611e04565b34801561074557600080fd5b506102836107543660046137dd565b6121e7565b34801561076557600080fd5b506103287fe48329057bfd03d55e49b547132e39cffd9c1820ad7b9d4c5307691425d15adf81565b34801561079957600080fd5b506105776107a8366004613844565b6122af565b3480156107b957600080fd5b506102596107c8366004613bd4565b73ffffffffffffffffffffffffffffffffffffffff918216600090815260056020908152604080832093909416825291909152205460ff1690565b34801561080f57600080fd5b5061085961081e366004613bf2565b600b60209081526000928352604080842090915290825290205463ffffffff81169064010000000090046bffffffffffffffffffffffff1682565b6040805163ffffffff90931683526bffffffffffffffffffffffff909116602083015201610265565b60007fffffffff0000000000000000000000000000000000000000000000000000000082167f780e9d630000000000000000000000000000000000000000000000000000000014806108d857506108d8826122db565b92915050565b6060600080546108ed90613c29565b80601f016020809104026020016040519081016040528092919081815260200182805461091990613c29565b80156109665780601f1061093b57610100808354040283529160200191610966565b820191906000526020600020905b81548152906001019060200180831161094957829003601f168201915b5050505050905090565b60008181526002602052604081205473ffffffffffffffffffffffffffffffffffffffff16610a26576040517f08c379a000000000000000000000000000000000000000000000000000000000815260206004820152602c60248201527f4552433732313a20617070726f76656420717565727920666f72206e6f6e657860448201527f697374656e7420746f6b656e000000000000000000000000000000000000000060648201526084015b60405180910390fd5b5060009081526004602052604090205473ffffffffffffffffffffffffffffffffffffffff1690565b6000610a5a826111b3565b90508073ffffffffffffffffffffffffffffffffffffffff168373ffffffffffffffffffffffffffffffffffffffff161415610b18576040517f08c379a000000000000000000000000000000000000000000000000000000000815260206004820152602160248201527f4552433732313a20617070726f76616c20746f2063757272656e74206f776e6560448201527f72000000000000000000000000000000000000000000000000000000000000006064820152608401610a1d565b3373ffffffffffffffffffffffffffffffffffffffff82161480610b415750610b4181336107c8565b610bcd576040517f08c379a000000000000000000000000000000000000000000000000000000000815260206004820152603860248201527f4552433732313a20617070726f76652063616c6c6572206973206e6f74206f7760448201527f6e6572206e6f7220617070726f76656420666f7220616c6c00000000000000006064820152608401610a1d565b610bd783836123be565b505050565b600e5473ffffffffffffffffffffffffffffffffffffffff163314610c5d576040517f08c379a000000000000000000000000000000000000000000000000000000000815260206004820152600e60248201527f4e4f545f415554484f52495a45440000000000000000000000000000000000006044820152606401610a1d565b600e80547fffffffffffffffffffffffff00000000000000000000000000000000000000001673ffffffffffffffffffffffffffffffffffffffff92909216919091179055565b610cae338261245e565b610d3a576040517f08c379a000000000000000000000000000000000000000000000000000000000815260206004820152603160248201527f4552433732313a207472616e736665722063616c6c6572206973206e6f74206f60448201527f776e6572206e6f7220617070726f7665640000000000000000000000000000006064820152608401610a1d565b610bd78383836125ce565b606060008080808567ffffffffffffffff811115610d6557610d656139ff565b604051908082528060200260200182016040528015610d8e578160200160208202803683370190505b50945060005b86811015610e45576000888883818110610db057610db0613c7d565b905060200201359050610de78160009081526002602052604090205473ffffffffffffffffffffffffffffffffffffffff16151590565b610df2576000610dfb565b610dfb816111b3565b878381518110610e0d57610e0d613c7d565b73ffffffffffffffffffffffffffffffffffffffff909216602092830291909101909101525080610e3d81613cdb565b915050610d94565b5093967f000000000000000000000000000000000000000000000000000000000000000096507f000000000000000000000000000000000000000000000000000000000000000095507f000000000000000000000000000000000000000000000000000000000000000094507f00000000000000000000000000000000000000000000000000000000000000009350915050565b6000610ee483611265565b8210610f72576040517f08c379a000000000000000000000000000000000000000000000000000000000815260206004820152602b60248201527f455243373231456e756d657261626c653a206f776e657220696e646578206f7560448201527f74206f6620626f756e64730000000000000000000000000000000000000000006064820152608401610a1d565b5073ffffffffffffffffffffffffffffffffffffffff919091166000908152600660209081526040808320938352929052205490565b600e5473ffffffffffffffffffffffffffffffffffffffff163314611029576040517f08c379a000000000000000000000000000000000000000000000000000000000815260206004820152600e60248201527f4e4f545f415554484f52495a45440000000000000000000000000000000000006044820152606401610a1d565b600f80547fffffffffffffffffffffffff00000000000000000000000000000000000000001673ffffffffffffffffffffffffffffffffffffffff92909216919091179055565b610bd783838360405180602001604052806000815250611d5c565b600061109660085490565b8210611124576040517f08c379a000000000000000000000000000000000000000000000000000000000815260206004820152602c60248201527f455243373231456e756d657261626c653a20676c6f62616c20696e646578206f60448201527f7574206f6620626f756e647300000000000000000000000000000000000000006064820152608401610a1d565b6008828154811061113757611137613c7d565b90600052602060002001549050919050565b73ffffffffffffffffffffffffffffffffffffffff8082166000908152600a6020526040812054909116801561117f5780611181565b825b9392505050565b73ffffffffffffffffffffffffffffffffffffffff81166111a65750335b6111b03382612840565b50565b60008181526002602052604081205473ffffffffffffffffffffffffffffffffffffffff16806108d8576040517f08c379a000000000000000000000000000000000000000000000000000000000815260206004820152602960248201527f4552433732313a206f776e657220717565727920666f72206e6f6e657869737460448201527f656e7420746f6b656e00000000000000000000000000000000000000000000006064820152608401610a1d565b600073ffffffffffffffffffffffffffffffffffffffff821661130a576040517f08c379a000000000000000000000000000000000000000000000000000000000815260206004820152602a60248201527f4552433732313a2062616c616e636520717565727920666f7220746865207a6560448201527f726f2061646472657373000000000000000000000000000000000000000000006064820152608401610a1d565b5073ffffffffffffffffffffffffffffffffffffffff1660009081526003602052604090205490565b60004382106113c4576040517f08c379a000000000000000000000000000000000000000000000000000000000815260206004820152603760248201527f455243373231436865636b706f696e7461626c653a3a6765745072696f72566f60448201527f7465733a206e6f74207965742064657465726d696e65640000000000000000006064820152608401610a1d565b73ffffffffffffffffffffffffffffffffffffffff83166000908152600c602052604090205463ffffffff16806113ff5760009150506108d8565b73ffffffffffffffffffffffffffffffffffffffff84166000908152600b602052604081208491611431600185613d14565b63ffffffff908116825260208201929092526040016000205416116114b75773ffffffffffffffffffffffffffffffffffffffff84166000908152600b6020526040812090611481600184613d14565b63ffffffff16815260208101919091526040016000205464010000000090046bffffffffffffffffffffffff1691506108d89050565b73ffffffffffffffffffffffffffffffffffffffff84166000908152600b6020908152604080832083805290915290205463ffffffff168310156114ff5760009150506108d8565b60008061150d600184613d14565b90505b8163ffffffff168163ffffffff1611156115f257600060026115328484613d14565b61153c9190613d68565b6115469083613d14565b73ffffffffffffffffffffffffffffffffffffffff88166000908152600b6020908152604080832063ffffffff8581168552908352928190208151808301909252549283168082526401000000009093046bffffffffffffffffffffffff16918101919091529192508714156115c6576020015194506108d89350505050565b805163ffffffff168711156115dd578193506115eb565b6115e8600183613d14565b92505b5050611510565b5073ffffffffffffffffffffffffffffffffffffffff85166000908152600b6020908152604080832063ffffffff909416835292905220546bffffffffffffffffffffffff6401000000009091041691505092915050565b600e5473ffffffffffffffffffffffffffffffffffffffff1633146116cb576040517f08c379a000000000000000000000000000000000000000000000000000000000815260206004820152600e60248201527f4e4f545f415554484f52495a45440000000000000000000000000000000000006044820152606401610a1d565b601080547fffffffffffffffffffffffff00000000000000000000000000000000000000001673ffffffffffffffffffffffffffffffffffffffff92909216919091179055565b6060600180546108ed90613c29565b600061173660406103ff600686901c16613d8b565b905080600614156117c757600f5473ffffffffffffffffffffffffffffffffffffffff1633146117c2576040517f08c379a000000000000000000000000000000000000000000000000000000000815260206004820152601b60248201527f4e6f697365277320626c656570732061726520726573657276656400000000006044820152606401610a1d565b611a0c565b7f000000000000000000000000000000000000000000000000000000000000000060006118147f000000000000000000000000000000000000000000000000000000000000000042613d9f565b905060006118627f00000000000000000000000000000000000000000000000000000000000000007f0000000000000000000000000000000000000000000000000000000000000000613d9f565b90507f000000000000000000000000000000000000000000000000000000000000000082106118b3577f0000000000000000000000000000000000000000000000000000000000000000925061191f565b7f00000000000000000000000000000000000000000000000000000000000000006118de8382613d9f565b6118e89083613db6565b6118f29190613df3565b61191c907f0000000000000000000000000000000000000000000000000000000000000000613e07565b92505b82341015611989576040517f08c379a000000000000000000000000000000000000000000000000000000000815260206004820152600a60248201527f4e4f545f454e4f554748000000000000000000000000000000000000000000006044820152606401610a1d565b336108fc6119978534613d9f565b6040518115909202916000818181858888f193505050501580156119bf573d6000803e3d6000fd5b50600f5460405173ffffffffffffffffffffffffffffffffffffffff9091169084156108fc029085906000818181858888f19350505050158015611a07573d6000803e3d6000fd5b505050505b73ffffffffffffffffffffffffffffffffffffffff8216611a89576040517f08c379a000000000000000000000000000000000000000000000000000000000815260206004820152601260248201527f4e4f545f544f5f5a45524f4144445245535300000000000000000000000000006044820152606401610a1d565b73ffffffffffffffffffffffffffffffffffffffff8216301415611b09576040517f08c379a000000000000000000000000000000000000000000000000000000000815260206004820152600b60248201527f4e4f545f544f5f544849530000000000000000000000000000000000000000006044820152606401610a1d565b61ffff831660009081526002602052604090205473ffffffffffffffffffffffffffffffffffffffff1615611b9a576040517f08c379a000000000000000000000000000000000000000000000000000000000815260206004820152600f60248201527f414c52454144595f4352454154454400000000000000000000000000000000006044820152606401610a1d565b610bd7828461ffff166128e5565b73ffffffffffffffffffffffffffffffffffffffff8216331415611c28576040517f08c379a000000000000000000000000000000000000000000000000000000000815260206004820152601960248201527f4552433732313a20617070726f766520746f2063616c6c6572000000000000006044820152606401610a1d565b33600081815260056020908152604080832073ffffffffffffffffffffffffffffffffffffffff87168085529083529281902080547fffffffffffffffffffffffffffffffffffffffffffffffffffffffffffffff001686151590811790915590519081529192917f17307eab39ab6107e8899845ad3d59bd9653f200f220920489ca2b5937696c31910160405180910390a35050565b73ffffffffffffffffffffffffffffffffffffffff81166000908152600c602052604081205463ffffffff1680611cf7576000611181565b73ffffffffffffffffffffffffffffffffffffffff83166000908152600b6020526040812090611d28600184613d14565b63ffffffff16815260208101919091526040016000205464010000000090046bffffffffffffffffffffffff169392505050565b611d66338361245e565b611df2576040517f08c379a000000000000000000000000000000000000000000000000000000000815260206004820152603160248201527f4552433732313a207472616e736665722063616c6c6572206973206e6f74206f60448201527f776e6572206e6f7220617070726f7665640000000000000000000000000000006064820152608401610a1d565b611dfe84848484612903565b50505050565b60007f8cad95687ba82c2ce50e74f7b754645e5117c3a5bec8151c0726d5857980a866611e2f6108de565b80519060200120611e3d4690565b60408051602080820195909552808201939093526060830191909152306080808401919091528151808403909101815260a0830182528051908401207fe48329057bfd03d55e49b547132e39cffd9c1820ad7b9d4c5307691425d15adf60c084015273ffffffffffffffffffffffffffffffffffffffff8b1660e084015261010083018a90526101208084018a9052825180850390910181526101408401909252815191909301207f1901000000000000000000000000000000000000000000000000000000000000610160830152610162820183905261018282018190529192506000906101a201604080517fffffffffffffffffffffffffffffffffffffffffffffffffffffffffffffffe08184030181528282528051602091820120600080855291840180845281905260ff8a169284019290925260608301889052608083018790529092509060019060a0016020604051602081039080840390855afa158015611faf573d6000803e3d6000fd5b50506040517fffffffffffffffffffffffffffffffffffffffffffffffffffffffffffffffe0015191505073ffffffffffffffffffffffffffffffffffffffff811661207d576040517f08c379a000000000000000000000000000000000000000000000000000000000815260206004820152603660248201527f455243373231436865636b706f696e7461626c653a3a64656c6567617465427960448201527f5369673a20696e76616c6964207369676e6174757265000000000000000000006064820152608401610a1d565b73ffffffffffffffffffffffffffffffffffffffff81166000908152600d602052604081208054916120ae83613cdb565b919050558914612140576040517f08c379a000000000000000000000000000000000000000000000000000000000815260206004820152603260248201527f455243373231436865636b706f696e7461626c653a3a64656c6567617465427960448201527f5369673a20696e76616c6964206e6f6e636500000000000000000000000000006064820152608401610a1d565b874211156121d0576040517f08c379a000000000000000000000000000000000000000000000000000000000815260206004820152603660248201527f455243373231436865636b706f696e7461626c653a3a64656c6567617465427960448201527f5369673a207369676e61747572652065787069726564000000000000000000006064820152608401610a1d565b6121da818b612840565b505050505b505050505050565b6010546040517fc4df382600000000000000000000000000000000000000000000000000000000815261ffff8316600482015260609173ffffffffffffffffffffffffffffffffffffffff169063c4df38269060240160006040518083038186803b15801561225557600080fd5b505afa158015612269573d6000803e3d6000fd5b505050506040513d6000823e601f3d9081017fffffffffffffffffffffffffffffffffffffffffffffffffffffffffffffffe01682016040526108d89190810190613e1f565b60006108d86122bd83611265565b6040518060600160405280603d815260200161401a603d91396129a6565b60007fffffffff0000000000000000000000000000000000000000000000000000000082167f80ac58cd00000000000000000000000000000000000000000000000000000000148061236e57507fffffffff0000000000000000000000000000000000000000000000000000000082167f5b5e139f00000000000000000000000000000000000000000000000000000000145b806108d857507f01ffc9a7000000000000000000000000000000000000000000000000000000007fffffffff000000000000000000000000000000000000000000000000000000008316146108d8565b600081815260046020526040902080547fffffffffffffffffffffffff00000000000000000000000000000000000000001673ffffffffffffffffffffffffffffffffffffffff84169081179091558190612418826111b3565b73ffffffffffffffffffffffffffffffffffffffff167f8c5be1e5ebec7d5bd14f71427d1e84f3dd0314c0f7b2291e5b200ac8c7c3b92560405160405180910390a45050565b60008181526002602052604081205473ffffffffffffffffffffffffffffffffffffffff1661250f576040517f08c379a000000000000000000000000000000000000000000000000000000000815260206004820152602c60248201527f4552433732313a206f70657261746f7220717565727920666f72206e6f6e657860448201527f697374656e7420746f6b656e00000000000000000000000000000000000000006064820152608401610a1d565b600061251a836111b3565b90508073ffffffffffffffffffffffffffffffffffffffff168473ffffffffffffffffffffffffffffffffffffffff16148061258957508373ffffffffffffffffffffffffffffffffffffffff1661257184610970565b73ffffffffffffffffffffffffffffffffffffffff16145b806125c6575073ffffffffffffffffffffffffffffffffffffffff80821660009081526005602090815260408083209388168352929052205460ff165b949350505050565b8273ffffffffffffffffffffffffffffffffffffffff166125ee826111b3565b73ffffffffffffffffffffffffffffffffffffffff1614612691576040517f08c379a000000000000000000000000000000000000000000000000000000000815260206004820152602960248201527f4552433732313a207472616e73666572206f6620746f6b656e2074686174206960448201527f73206e6f74206f776e00000000000000000000000000000000000000000000006064820152608401610a1d565b73ffffffffffffffffffffffffffffffffffffffff8216612733576040517f08c379a0000000000000000000000000000000000000000000000000000000008152602060048201526024808201527f4552433732313a207472616e7366657220746f20746865207a65726f2061646460448201527f72657373000000000000000000000000000000000000000000000000000000006064820152608401610a1d565b61273e8383836129f8565b6127496000826123be565b73ffffffffffffffffffffffffffffffffffffffff8316600090815260036020526040812080546001929061277f908490613d9f565b909155505073ffffffffffffffffffffffffffffffffffffffff821660009081526003602052604081208054600192906127ba908490613e07565b909155505060008181526002602052604080822080547fffffffffffffffffffffffff00000000000000000000000000000000000000001673ffffffffffffffffffffffffffffffffffffffff86811691821790925591518493918716917fddf252ad1be2c89b69c2b068fc378daa952ba7f163c4a11628f55a4df523b3ef91a4505050565b600061284b83611149565b73ffffffffffffffffffffffffffffffffffffffff8481166000818152600a602052604080822080547fffffffffffffffffffffffff000000000000000000000000000000000000000016888616908117909155905194955093928516927f3134e8a2e6d97e929a7e54011ea5485d7d196dd5f0ba4d4ef95803e8e3fc257f9190a460006128d8846122af565b9050611dfe828483612a1b565b6128ff828260405180602001604052806000815250612c40565b5050565b61290e8484846125ce565b61291a84848484612ce3565b611dfe576040517f08c379a000000000000000000000000000000000000000000000000000000000815260206004820152603260248201527f4552433732313a207472616e7366657220746f206e6f6e20455243373231526560448201527f63656976657220696d706c656d656e74657200000000000000000000000000006064820152608401610a1d565b6000816c0100000000000000000000000084106129f0576040517f08c379a0000000000000000000000000000000000000000000000000000000008152600401610a1d91906137ca565b509192915050565b612a03838383612ee2565b610bd7612a0f84611149565b612a1884611149565b60015b8173ffffffffffffffffffffffffffffffffffffffff168373ffffffffffffffffffffffffffffffffffffffff1614158015612a6557506000816bffffffffffffffffffffffff16115b15610bd75773ffffffffffffffffffffffffffffffffffffffff831615612b575773ffffffffffffffffffffffffffffffffffffffff83166000908152600c602052604081205463ffffffff169081612abf576000612b1e565b73ffffffffffffffffffffffffffffffffffffffff85166000908152600b6020526040812090612af0600185613d14565b63ffffffff16815260208101919091526040016000205464010000000090046bffffffffffffffffffffffff165b90506000612b45828560405180606001604052806037815260200161405760379139612fe8565b9050612b538684848461304e565b5050505b73ffffffffffffffffffffffffffffffffffffffff821615610bd75773ffffffffffffffffffffffffffffffffffffffff82166000908152600c602052604081205463ffffffff169081612bac576000612c0b565b73ffffffffffffffffffffffffffffffffffffffff84166000908152600b6020526040812090612bdd600185613d14565b63ffffffff16815260208101919091526040016000205464010000000090046bffffffffffffffffffffffff165b90506000612c328285604051806060016040528060368152602001613fa0603691396132d1565b90506121df8584848461304e565b612c4a8383613342565b612c576000848484612ce3565b610bd7576040517f08c379a000000000000000000000000000000000000000000000000000000000815260206004820152603260248201527f4552433732313a207472616e7366657220746f206e6f6e20455243373231526560448201527f63656976657220696d706c656d656e74657200000000000000000000000000006064820152608401610a1d565b600073ffffffffffffffffffffffffffffffffffffffff84163b15612ed7576040517f150b7a0200000000000000000000000000000000000000000000000000000000815273ffffffffffffffffffffffffffffffffffffffff85169063150b7a0290612d5a903390899088908890600401613e96565b602060405180830381600087803b158015612d7457600080fd5b505af1925050508015612dc2575060408051601f3d9081017fffffffffffffffffffffffffffffffffffffffffffffffffffffffffffffffe0168201909252612dbf91810190613edf565b60015b612e8c573d808015612df0576040519150601f19603f3d011682016040523d82523d6000602084013e612df5565b606091505b508051612e84576040517f08c379a000000000000000000000000000000000000000000000000000000000815260206004820152603260248201527f4552433732313a207472616e7366657220746f206e6f6e20455243373231526560448201527f63656976657220696d706c656d656e74657200000000000000000000000000006064820152608401610a1d565b805181602001fd5b7fffffffff00000000000000000000000000000000000000000000000000000000167f150b7a02000000000000000000000000000000000000000000000000000000001490506125c6565b506001949350505050565b73ffffffffffffffffffffffffffffffffffffffff8316612f4a57612f4581600880546000838152600960205260408120829055600182018355919091527ff3f7a9fe364faab93b216da50a3214154f22a0a2b415b23a84c8169e8b636ee30155565b612f87565b8173ffffffffffffffffffffffffffffffffffffffff168373ffffffffffffffffffffffffffffffffffffffff1614612f8757612f878382613510565b73ffffffffffffffffffffffffffffffffffffffff8216612fab57610bd7816135c7565b8273ffffffffffffffffffffffffffffffffffffffff168273ffffffffffffffffffffffffffffffffffffffff1614610bd757610bd78282613676565b6000836bffffffffffffffffffffffff16836bffffffffffffffffffffffff1611158290613043576040517f08c379a0000000000000000000000000000000000000000000000000000000008152600401610a1d91906137ca565b506125c68385613efc565b600061307243604051806080016040528060448152602001613fd6604491396136c7565b905060008463ffffffff161180156130d9575073ffffffffffffffffffffffffffffffffffffffff85166000908152600b6020526040812063ffffffff8316916130bd600188613d14565b63ffffffff908116825260208201929092526040016000205416145b1561316f5773ffffffffffffffffffffffffffffffffffffffff85166000908152600b602052604081208391613110600188613d14565b63ffffffff168152602081019190915260400160002080546bffffffffffffffffffffffff92909216640100000000027fffffffffffffffffffffffffffffffff000000000000000000000000ffffffff90921691909117905561326a565b60408051808201825263ffffffff80841682526bffffffffffffffffffffffff808616602080850191825273ffffffffffffffffffffffffffffffffffffffff8b166000908152600b82528681208b8616825290915294909420925183549451909116640100000000027fffffffffffffffffffffffffffffffff00000000000000000000000000000000909416911617919091179055613211846001613f21565b73ffffffffffffffffffffffffffffffffffffffff86166000908152600c6020526040902080547fffffffffffffffffffffffffffffffffffffffffffffffffffffffff000000001663ffffffff929092169190911790555b604080516bffffffffffffffffffffffff80861682528416602082015273ffffffffffffffffffffffffffffffffffffffff8716917fdec2bacdd2f05b59de34da9b523dff8be42e5e38e818c82fdb0bae774387a724910160405180910390a25050505050565b6000806132de8486613f49565b9050846bffffffffffffffffffffffff16816bffffffffffffffffffffffff1610158390613339576040517f08c379a0000000000000000000000000000000000000000000000000000000008152600401610a1d91906137ca565b50949350505050565b73ffffffffffffffffffffffffffffffffffffffff82166133bf576040517f08c379a000000000000000000000000000000000000000000000000000000000815260206004820181905260248201527f4552433732313a206d696e7420746f20746865207a65726f20616464726573736044820152606401610a1d565b60008181526002602052604090205473ffffffffffffffffffffffffffffffffffffffff161561344b576040517f08c379a000000000000000000000000000000000000000000000000000000000815260206004820152601c60248201527f4552433732313a20746f6b656e20616c7265616479206d696e746564000000006044820152606401610a1d565b613457600083836129f8565b73ffffffffffffffffffffffffffffffffffffffff8216600090815260036020526040812080546001929061348d908490613e07565b909155505060008181526002602052604080822080547fffffffffffffffffffffffff00000000000000000000000000000000000000001673ffffffffffffffffffffffffffffffffffffffff861690811790915590518392907fddf252ad1be2c89b69c2b068fc378daa952ba7f163c4a11628f55a4df523b3ef908290a45050565b6000600161351d84611265565b6135279190613d9f565b6000838152600760205260409020549091508082146135875773ffffffffffffffffffffffffffffffffffffffff841660009081526006602090815260408083208584528252808320548484528184208190558352600790915290208190555b50600091825260076020908152604080842084905573ffffffffffffffffffffffffffffffffffffffff9094168352600681528383209183525290812055565b6008546000906135d990600190613d9f565b6000838152600960205260408120546008805493945090928490811061360157613601613c7d565b90600052602060002001549050806008838154811061362257613622613c7d565b600091825260208083209091019290925582815260099091526040808220849055858252812055600880548061365a5761365a613f70565b6001900381819060005260206000200160009055905550505050565b600061368183611265565b73ffffffffffffffffffffffffffffffffffffffff9093166000908152600660209081526040808320868452825280832085905593825260079052919091209190915550565b60008164010000000084106129f0576040517f08c379a0000000000000000000000000000000000000000000000000000000008152600401610a1d91906137ca565b7fffffffff00000000000000000000000000000000000000000000000000000000811681146111b057600080fd5b60006020828403121561374957600080fd5b813561118181613709565b60005b8381101561376f578181015183820152602001613757565b83811115611dfe5750506000910152565b60008151808452613798816020860160208601613754565b601f017fffffffffffffffffffffffffffffffffffffffffffffffffffffffffffffffe0169290920160200192915050565b6020815260006111816020830184613780565b6000602082840312156137ef57600080fd5b5035919050565b73ffffffffffffffffffffffffffffffffffffffff811681146111b057600080fd5b6000806040838503121561382b57600080fd5b8235613836816137f6565b946020939093013593505050565b60006020828403121561385657600080fd5b8135611181816137f6565b60008060006060848603121561387657600080fd5b8335613881816137f6565b92506020840135613891816137f6565b929592945050506040919091013590565b600080602083850312156138b557600080fd5b823567ffffffffffffffff808211156138cd57600080fd5b818501915085601f8301126138e157600080fd5b8135818111156138f057600080fd5b8660208260051b850101111561390557600080fd5b60209290920196919550909350505050565b60a0808252865190820181905260009060209060c0840190828a01845b8281101561396657815173ffffffffffffffffffffffffffffffffffffffff1684529284019290840190600101613934565b505050908301969096525060408101939093526060830191909152608090910152919050565b6000806040838503121561399f57600080fd5b823561ffff811681146139b157600080fd5b915060208301356139c1816137f6565b809150509250929050565b600080604083850312156139df57600080fd5b82356139ea816137f6565b9150602083013580151581146139c157600080fd5b7f4e487b7100000000000000000000000000000000000000000000000000000000600052604160045260246000fd5b604051601f82017fffffffffffffffffffffffffffffffffffffffffffffffffffffffffffffffe016810167ffffffffffffffff81118282101715613a7557613a756139ff565b604052919050565b600067ffffffffffffffff821115613a9757613a976139ff565b50601f017fffffffffffffffffffffffffffffffffffffffffffffffffffffffffffffffe01660200190565b60008060008060808587031215613ad957600080fd5b8435613ae4816137f6565b93506020850135613af4816137f6565b925060408501359150606085013567ffffffffffffffff811115613b1757600080fd5b8501601f81018713613b2857600080fd5b8035613b3b613b3682613a7d565b613a2e565b818152886020838501011115613b5057600080fd5b8160208401602083013760006020838301015280935050505092959194509250565b60008060008060008060c08789031215613b8b57600080fd5b8635613b96816137f6565b95506020870135945060408701359350606087013560ff81168114613bba57600080fd5b9598949750929560808101359460a0909101359350915050565b60008060408385031215613be757600080fd5b82356139b1816137f6565b60008060408385031215613c0557600080fd5b8235613c10816137f6565b9150602083013563ffffffff811681146139c157600080fd5b600181811c90821680613c3d57607f821691505b60208210811415613c77577f4e487b7100000000000000000000000000000000000000000000000000000000600052602260045260246000fd5b50919050565b7f4e487b7100000000000000000000000000000000000000000000000000000000600052603260045260246000fd5b7f4e487b7100000000000000000000000000000000000000000000000000000000600052601160045260246000fd5b60007fffffffffffffffffffffffffffffffffffffffffffffffffffffffffffffffff821415613d0d57613d0d613cac565b5060010190565b600063ffffffff83811690831681811015613d3157613d31613cac565b039392505050565b7f4e487b7100000000000000000000000000000000000000000000000000000000600052601260045260246000fd5b600063ffffffff80841680613d7f57613d7f613d39565b92169190910492915050565b600082613d9a57613d9a613d39565b500690565b600082821015613db157613db1613cac565b500390565b6000817fffffffffffffffffffffffffffffffffffffffffffffffffffffffffffffffff0483118215151615613dee57613dee613cac565b500290565b600082613e0257613e02613d39565b500490565b60008219821115613e1a57613e1a613cac565b500190565b600060208284031215613e3157600080fd5b815167ffffffffffffffff811115613e4857600080fd5b8201601f81018413613e5957600080fd5b8051613e67613b3682613a7d565b818152856020838501011115613e7c57600080fd5b613e8d826020830160208601613754565b95945050505050565b600073ffffffffffffffffffffffffffffffffffffffff808716835280861660208401525083604083015260806060830152613ed56080830184613780565b9695505050505050565b600060208284031215613ef157600080fd5b815161118181613709565b60006bffffffffffffffffffffffff83811690831681811015613d3157613d31613cac565b600063ffffffff808316818516808303821115613f4057613f40613cac565b01949350505050565b60006bffffffffffffffffffffffff808316818516808303821115613f4057613f40613cac565b7f4e487b7100000000000000000000000000000000000000000000000000000000600052603160045260246000fdfe455243373231436865636b706f696e7461626c653a3a5f6d6f766544656c6567617465733a20616d6f756e74206f766572666c6f7773455243373231436865636b706f696e7461626c653a3a5f7772697465436865636b706f696e743a20626c6f636b206e756d62657220657863656564732033322062697473455243373231436865636b706f696e7461626c653a3a766f746573546f44656c65676174653a20616d6f756e7420657863656564732039362062697473455243373231436865636b706f696e7461626c653a3a5f6d6f766544656c6567617465733a20616d6f756e7420756e646572666c6f7773a264697066735822122062f1122791d1035c862123935b09c991fb54957cf64625db8209844ca588f87264736f6c63430008090033",
  "devdoc": {
    "kind": "dev",
    "methods": {
      "approve(address,uint256)": {
        "details": "See {IERC721-approve}."
      },
      "balanceOf(address)": {
        "details": "See {IERC721-balanceOf}."
      },
      "delegate(address)": {
        "params": {
          "delegatee": "The address to delegate votes to"
        }
      },
      "delegateBySig(address,uint256,uint256,uint8,bytes32,bytes32)": {
        "params": {
          "delegatee": "The address to delegate votes to",
          "expiry": "The time at which to expire the signature",
          "nonce": "The contract state required to match the signature",
          "r": "Half of the ECDSA signature pair",
          "s": "Half of the ECDSA signature pair",
          "v": "The recovery byte of the signature"
        }
      },
      "getApproved(uint256)": {
        "details": "See {IERC721-getApproved}."
      },
      "getCurrentVotes(address)": {
        "params": {
          "account": "The address to get votes balance"
        },
        "returns": {
          "_0": "The number of current votes for `account`"
        }
      },
      "getPriorVotes(address,uint256)": {
        "details": "Block number must be a finalized block or else this function will revert to prevent misinformation.",
        "params": {
          "account": "The address of the account to check",
          "blockNumber": "The block number to get the vote balance at"
        },
        "returns": {
          "_0": "The number of votes the account had as of the given block"
        }
      },
      "isApprovedForAll(address,address)": {
        "details": "See {IERC721-isApprovedForAll}."
      },
      "name()": {
        "details": "See {IERC721Metadata-name}."
      },
      "ownerOf(uint256)": {
        "details": "See {IERC721-ownerOf}."
      },
      "safeTransferFrom(address,address,uint256)": {
        "details": "See {IERC721-safeTransferFrom}."
      },
      "safeTransferFrom(address,address,uint256,bytes)": {
        "details": "See {IERC721-safeTransferFrom}."
      },
      "setApprovalForAll(address,bool)": {
        "details": "See {IERC721-setApprovalForAll}."
      },
      "supportsInterface(bytes4)": {
        "details": "See {IERC165-supportsInterface}."
      },
      "symbol()": {
        "details": "See {IERC721Metadata-symbol}."
      },
      "tokenByIndex(uint256)": {
        "details": "See {IERC721Enumerable-tokenByIndex}."
      },
      "tokenOfOwnerByIndex(address,uint256)": {
        "details": "See {IERC721Enumerable-tokenOfOwnerByIndex}."
      },
      "totalSupply()": {
        "details": "See {IERC721Enumerable-totalSupply}."
      },
      "transferFrom(address,address,uint256)": {
        "details": "See {IERC721-transferFrom}."
      },
      "votesToDelegate(address)": {
        "details": "Used when calling `_delegate()`"
      }
    },
    "version": 1
  },
  "userdoc": {
    "events": {
      "DelegateChanged(address,address,address)": {
        "notice": "An event thats emitted when an account changes its delegate"
      },
      "DelegateVotesChanged(address,uint256,uint256)": {
        "notice": "An event thats emitted when a delegate account's vote balance changes"
      }
    },
    "kind": "user",
    "methods": {
      "DELEGATION_TYPEHASH()": {
        "notice": "The EIP-712 typehash for the delegation struct used by the contract"
      },
      "DOMAIN_TYPEHASH()": {
        "notice": "The EIP-712 typehash for the contract's domain"
      },
      "checkpoints(address,uint32)": {
        "notice": "A record of votes checkpoints for each account, by index"
      },
      "decimals()": {
        "notice": "Defines decimals as per ERC-20 convention to make integrations with 3rd party governance platforms easier"
      },
      "delegate(address)": {
        "notice": "Delegate votes from `msg.sender` to `delegatee`"
      },
      "delegateBySig(address,uint256,uint256,uint8,bytes32,bytes32)": {
        "notice": "Delegates votes from signatory to `delegatee`"
      },
      "delegates(address)": {
        "notice": "Overrides the standard `Comp.sol` delegates mapping to return the delegator's own address if they haven't delegated. This avoids having to delegate to oneself."
      },
      "getCurrentVotes(address)": {
        "notice": "Gets the current votes balance for `account`"
      },
      "getPriorVotes(address,uint256)": {
        "notice": "Determine the prior number of votes for an account as of a block number"
      },
      "nonces(address)": {
        "notice": "A record of states for signing / validating signatures"
      },
      "numCheckpoints(address)": {
        "notice": "The number of checkpoints for each account"
      },
      "votesToDelegate(address)": {
        "notice": "The votes a delegator can delegate, which is the current balance of the delegator."
      }
    },
    "version": 1
  },
  "storageLayout": {
    "storage": [
      {
        "astId": 4260,
        "contract": "src/Bleeps.sol:Bleeps",
        "label": "_name",
        "offset": 0,
        "slot": "0",
        "type": "t_string_storage"
      },
      {
        "astId": 4262,
        "contract": "src/Bleeps.sol:Bleeps",
        "label": "_symbol",
        "offset": 0,
        "slot": "1",
        "type": "t_string_storage"
      },
      {
        "astId": 4266,
        "contract": "src/Bleeps.sol:Bleeps",
        "label": "_owners",
        "offset": 0,
        "slot": "2",
        "type": "t_mapping(t_uint256,t_address)"
      },
      {
        "astId": 4270,
        "contract": "src/Bleeps.sol:Bleeps",
        "label": "_balances",
        "offset": 0,
        "slot": "3",
        "type": "t_mapping(t_address,t_uint256)"
      },
      {
        "astId": 4274,
        "contract": "src/Bleeps.sol:Bleeps",
        "label": "_tokenApprovals",
        "offset": 0,
        "slot": "4",
        "type": "t_mapping(t_uint256,t_address)"
      },
      {
        "astId": 4280,
        "contract": "src/Bleeps.sol:Bleeps",
        "label": "_operatorApprovals",
        "offset": 0,
        "slot": "5",
        "type": "t_mapping(t_address,t_mapping(t_address,t_bool))"
      },
      {
        "astId": 5199,
        "contract": "src/Bleeps.sol:Bleeps",
        "label": "_ownedTokens",
        "offset": 0,
        "slot": "6",
        "type": "t_mapping(t_address,t_mapping(t_uint256,t_uint256))"
      },
      {
        "astId": 5203,
        "contract": "src/Bleeps.sol:Bleeps",
        "label": "_ownedTokensIndex",
        "offset": 0,
        "slot": "7",
        "type": "t_mapping(t_uint256,t_uint256)"
      },
      {
        "astId": 5206,
        "contract": "src/Bleeps.sol:Bleeps",
        "label": "_allTokens",
        "offset": 0,
        "slot": "8",
        "type": "t_array(t_uint256)dyn_storage"
      },
      {
        "astId": 5210,
        "contract": "src/Bleeps.sol:Bleeps",
        "label": "_allTokensIndex",
        "offset": 0,
        "slot": "9",
        "type": "t_mapping(t_uint256,t_uint256)"
      },
      {
        "astId": 11382,
        "contract": "src/Bleeps.sol:Bleeps",
        "label": "_delegates",
        "offset": 0,
        "slot": "10",
        "type": "t_mapping(t_address,t_address)"
      },
      {
        "astId": 11395,
        "contract": "src/Bleeps.sol:Bleeps",
        "label": "checkpoints",
        "offset": 0,
        "slot": "11",
        "type": "t_mapping(t_address,t_mapping(t_uint32,t_struct(Checkpoint)11387_storage))"
      },
      {
        "astId": 11400,
        "contract": "src/Bleeps.sol:Bleeps",
        "label": "numCheckpoints",
        "offset": 0,
        "slot": "12",
        "type": "t_mapping(t_address,t_uint32)"
      },
      {
        "astId": 11417,
        "contract": "src/Bleeps.sol:Bleeps",
        "label": "nonces",
        "offset": 0,
        "slot": "13",
        "type": "t_mapping(t_address,t_uint256)"
      },
      {
        "astId": 8021,
        "contract": "src/Bleeps.sol:Bleeps",
        "label": "_maintainer",
        "offset": 0,
        "slot": "14",
        "type": "t_address"
      },
      {
        "astId": 8023,
        "contract": "src/Bleeps.sol:Bleeps",
        "label": "_recipient",
        "offset": 0,
        "slot": "15",
        "type": "t_address_payable"
      },
      {
        "astId": 8026,
        "contract": "src/Bleeps.sol:Bleeps",
        "label": "tokenURIContract",
        "offset": 0,
        "slot": "16",
        "type": "t_contract(BleepsTokenURI)9295"
      }
    ],
    "types": {
      "t_address": {
        "encoding": "inplace",
        "label": "address",
        "numberOfBytes": "20"
      },
      "t_address_payable": {
        "encoding": "inplace",
        "label": "address payable",
        "numberOfBytes": "20"
      },
      "t_array(t_uint256)dyn_storage": {
        "base": "t_uint256",
        "encoding": "dynamic_array",
        "label": "uint256[]",
        "numberOfBytes": "32"
      },
      "t_bool": {
        "encoding": "inplace",
        "label": "bool",
        "numberOfBytes": "1"
      },
      "t_contract(BleepsTokenURI)9295": {
        "encoding": "inplace",
        "label": "contract BleepsTokenURI",
        "numberOfBytes": "20"
      },
      "t_mapping(t_address,t_address)": {
        "encoding": "mapping",
        "key": "t_address",
        "label": "mapping(address => address)",
        "numberOfBytes": "32",
        "value": "t_address"
      },
      "t_mapping(t_address,t_bool)": {
        "encoding": "mapping",
        "key": "t_address",
        "label": "mapping(address => bool)",
        "numberOfBytes": "32",
        "value": "t_bool"
      },
      "t_mapping(t_address,t_mapping(t_address,t_bool))": {
        "encoding": "mapping",
        "key": "t_address",
        "label": "mapping(address => mapping(address => bool))",
        "numberOfBytes": "32",
        "value": "t_mapping(t_address,t_bool)"
      },
      "t_mapping(t_address,t_mapping(t_uint256,t_uint256))": {
        "encoding": "mapping",
        "key": "t_address",
        "label": "mapping(address => mapping(uint256 => uint256))",
        "numberOfBytes": "32",
        "value": "t_mapping(t_uint256,t_uint256)"
      },
      "t_mapping(t_address,t_mapping(t_uint32,t_struct(Checkpoint)11387_storage))": {
        "encoding": "mapping",
        "key": "t_address",
        "label": "mapping(address => mapping(uint32 => struct ERC721Checkpointable.Checkpoint))",
        "numberOfBytes": "32",
        "value": "t_mapping(t_uint32,t_struct(Checkpoint)11387_storage)"
      },
      "t_mapping(t_address,t_uint256)": {
        "encoding": "mapping",
        "key": "t_address",
        "label": "mapping(address => uint256)",
        "numberOfBytes": "32",
        "value": "t_uint256"
      },
      "t_mapping(t_address,t_uint32)": {
        "encoding": "mapping",
        "key": "t_address",
        "label": "mapping(address => uint32)",
        "numberOfBytes": "32",
        "value": "t_uint32"
      },
      "t_mapping(t_uint256,t_address)": {
        "encoding": "mapping",
        "key": "t_uint256",
        "label": "mapping(uint256 => address)",
        "numberOfBytes": "32",
        "value": "t_address"
      },
      "t_mapping(t_uint256,t_uint256)": {
        "encoding": "mapping",
        "key": "t_uint256",
        "label": "mapping(uint256 => uint256)",
        "numberOfBytes": "32",
        "value": "t_uint256"
      },
      "t_mapping(t_uint32,t_struct(Checkpoint)11387_storage)": {
        "encoding": "mapping",
        "key": "t_uint32",
        "label": "mapping(uint32 => struct ERC721Checkpointable.Checkpoint)",
        "numberOfBytes": "32",
        "value": "t_struct(Checkpoint)11387_storage"
      },
      "t_string_storage": {
        "encoding": "bytes",
        "label": "string",
        "numberOfBytes": "32"
      },
      "t_struct(Checkpoint)11387_storage": {
        "encoding": "inplace",
        "label": "struct ERC721Checkpointable.Checkpoint",
        "members": [
          {
            "astId": 11384,
            "contract": "src/Bleeps.sol:Bleeps",
            "label": "fromBlock",
            "offset": 0,
            "slot": "0",
            "type": "t_uint32"
          },
          {
            "astId": 11386,
            "contract": "src/Bleeps.sol:Bleeps",
            "label": "votes",
            "offset": 4,
            "slot": "0",
            "type": "t_uint96"
          }
        ],
        "numberOfBytes": "32"
      },
      "t_uint256": {
        "encoding": "inplace",
        "label": "uint256",
        "numberOfBytes": "32"
      },
      "t_uint32": {
        "encoding": "inplace",
        "label": "uint32",
        "numberOfBytes": "4"
      },
      "t_uint96": {
        "encoding": "inplace",
        "label": "uint96",
        "numberOfBytes": "12"
      }
    }
  }
}