{
  "address": "0x21bc83342dE5A52c34d418f874Ae081F8e3bf9FC",
  "abi": [
    {
      "inputs": [
        {
          "internalType": "uint256",
          "name": "initPrice",
          "type": "uint256"
        },
        {
          "internalType": "uint256",
          "name": "delay",
          "type": "uint256"
        },
        {
          "internalType": "uint256",
          "name": "lastPrice",
          "type": "uint256"
        },
        {
          "internalType": "uint256",
          "name": "startTime",
          "type": "uint256"
        },
        {
          "internalType": "contract IERC721",
          "name": "mandalas",
          "type": "address"
        },
        {
          "internalType": "address",
          "name": "maintainer",
          "type": "address"
        },
        {
          "internalType": "address payable",
          "name": "recipient",
          "type": "address"
        },
        {
          "internalType": "contract BleepsTokenURI",
          "name": "initialTokenURIContract",
          "type": "address"
        }
      ],
      "stateMutability": "nonpayable",
      "type": "constructor"
    },
    {
      "anonymous": false,
      "inputs": [
        {
          "indexed": true,
          "internalType": "address",
          "name": "owner",
          "type": "address"
        },
        {
          "indexed": true,
          "internalType": "address",
          "name": "approved",
          "type": "address"
        },
        {
          "indexed": true,
          "internalType": "uint256",
          "name": "tokenId",
          "type": "uint256"
        }
      ],
      "name": "Approval",
      "type": "event"
    },
    {
      "anonymous": false,
      "inputs": [
        {
          "indexed": true,
          "internalType": "address",
          "name": "owner",
          "type": "address"
        },
        {
          "indexed": true,
          "internalType": "address",
          "name": "operator",
          "type": "address"
        },
        {
          "indexed": false,
          "internalType": "bool",
          "name": "approved",
          "type": "bool"
        }
      ],
      "name": "ApprovalForAll",
      "type": "event"
    },
    {
      "anonymous": false,
      "inputs": [
        {
          "indexed": true,
          "internalType": "address",
          "name": "from",
          "type": "address"
        },
        {
          "indexed": true,
          "internalType": "address",
          "name": "to",
          "type": "address"
        },
        {
          "indexed": true,
          "internalType": "uint256",
          "name": "tokenId",
          "type": "uint256"
        }
      ],
      "name": "Transfer",
      "type": "event"
    },
    {
      "inputs": [],
      "name": "DOMAIN_SEPARATOR",
      "outputs": [
        {
          "internalType": "bytes32",
          "name": "",
          "type": "bytes32"
        }
      ],
      "stateMutability": "view",
      "type": "function"
    },
    {
      "inputs": [],
      "name": "PERMIT_FOR_ALL_TYPEHASH",
      "outputs": [
        {
          "internalType": "bytes32",
          "name": "",
          "type": "bytes32"
        }
      ],
      "stateMutability": "view",
      "type": "function"
    },
    {
      "inputs": [],
      "name": "PERMIT_TYPEHASH",
      "outputs": [
        {
          "internalType": "bytes32",
          "name": "",
          "type": "bytes32"
        }
      ],
      "stateMutability": "view",
      "type": "function"
    },
    {
      "inputs": [
        {
          "internalType": "address",
          "name": "operator",
          "type": "address"
        },
        {
          "internalType": "uint256",
          "name": "id",
          "type": "uint256"
        }
      ],
      "name": "approve",
      "outputs": [],
      "stateMutability": "nonpayable",
      "type": "function"
    },
    {
      "inputs": [
        {
          "internalType": "address",
          "name": "owner",
          "type": "address"
        }
      ],
      "name": "balanceOf",
      "outputs": [
        {
          "internalType": "uint256",
          "name": "balance",
          "type": "uint256"
        }
      ],
      "stateMutability": "view",
      "type": "function"
    },
    {
      "inputs": [],
      "name": "contractURI",
      "outputs": [
        {
          "internalType": "string",
          "name": "",
          "type": "string"
        }
      ],
      "stateMutability": "view",
      "type": "function"
    },
    {
      "inputs": [
        {
          "internalType": "uint256",
          "name": "id",
          "type": "uint256"
        }
      ],
      "name": "getApproved",
      "outputs": [
        {
          "internalType": "address",
          "name": "",
          "type": "address"
        }
      ],
      "stateMutability": "view",
      "type": "function"
    },
    {
      "inputs": [
        {
          "internalType": "address",
          "name": "owner",
          "type": "address"
        },
        {
          "internalType": "address",
          "name": "operator",
          "type": "address"
        }
      ],
      "name": "isApprovedForAll",
      "outputs": [
        {
          "internalType": "bool",
          "name": "isOperator",
          "type": "bool"
        }
      ],
      "stateMutability": "view",
      "type": "function"
    },
    {
      "inputs": [
        {
          "internalType": "uint16",
          "name": "id",
          "type": "uint16"
        },
        {
          "internalType": "address",
          "name": "to",
          "type": "address"
        }
      ],
      "name": "mint",
      "outputs": [],
      "stateMutability": "payable",
      "type": "function"
    },
    {
      "inputs": [],
      "name": "name",
      "outputs": [
        {
          "internalType": "string",
          "name": "",
          "type": "string"
        }
      ],
      "stateMutability": "pure",
      "type": "function"
    },
    {
      "inputs": [
        {
          "internalType": "address",
          "name": "owner",
          "type": "address"
        },
        {
          "internalType": "uint128",
          "name": "batch",
          "type": "uint128"
        }
      ],
      "name": "nonces",
      "outputs": [
        {
          "internalType": "uint256",
          "name": "nonce",
          "type": "uint256"
        }
      ],
      "stateMutability": "view",
      "type": "function"
    },
    {
      "inputs": [
        {
          "internalType": "uint256",
          "name": "id",
          "type": "uint256"
        }
      ],
      "name": "ownerOf",
      "outputs": [
        {
          "internalType": "address",
          "name": "owner",
          "type": "address"
        }
      ],
      "stateMutability": "view",
      "type": "function"
    },
    {
      "inputs": [
        {
          "internalType": "uint256[]",
          "name": "ids",
          "type": "uint256[]"
        }
      ],
      "name": "ownersAndPriceInfo",
      "outputs": [
        {
          "internalType": "address[]",
          "name": "addresses",
          "type": "address[]"
        },
        {
          "internalType": "uint256",
          "name": "startTime",
          "type": "uint256"
        },
        {
          "internalType": "uint256",
          "name": "initPrice",
          "type": "uint256"
        },
        {
          "internalType": "uint256",
          "name": "delay",
          "type": "uint256"
        },
        {
          "internalType": "uint256",
          "name": "lastPrice",
          "type": "uint256"
        }
      ],
      "stateMutability": "view",
      "type": "function"
    },
    {
      "inputs": [
        {
          "internalType": "address",
          "name": "signer",
          "type": "address"
        },
        {
          "internalType": "address",
          "name": "spender",
          "type": "address"
        },
        {
          "internalType": "uint256",
          "name": "id",
          "type": "uint256"
        },
        {
          "internalType": "uint256",
          "name": "deadline",
          "type": "uint256"
        },
        {
          "internalType": "uint256",
          "name": "nonce",
          "type": "uint256"
        },
        {
          "internalType": "bytes",
          "name": "signature",
          "type": "bytes"
        },
        {
          "internalType": "enum ERC721BaseWithPermit.SignatureType",
          "name": "signatureType",
          "type": "uint8"
        }
      ],
      "name": "permit",
      "outputs": [],
      "stateMutability": "nonpayable",
      "type": "function"
    },
    {
      "inputs": [
        {
          "internalType": "address",
          "name": "signer",
          "type": "address"
        },
        {
          "internalType": "address",
          "name": "spender",
          "type": "address"
        },
        {
          "internalType": "uint256",
          "name": "deadline",
          "type": "uint256"
        },
        {
          "internalType": "uint256",
          "name": "nonce",
          "type": "uint256"
        },
        {
          "internalType": "bytes",
          "name": "signature",
          "type": "bytes"
        },
        {
          "internalType": "enum ERC721BaseWithPermit.SignatureType",
          "name": "signatureType",
          "type": "uint8"
        }
      ],
      "name": "permitForAll",
      "outputs": [],
      "stateMutability": "nonpayable",
      "type": "function"
    },
    {
      "inputs": [],
      "name": "priceInfo",
      "outputs": [
        {
          "internalType": "uint256",
          "name": "startTime",
          "type": "uint256"
        },
        {
          "internalType": "uint256",
          "name": "initPrice",
          "type": "uint256"
        },
        {
          "internalType": "uint256",
          "name": "delay",
          "type": "uint256"
        },
        {
          "internalType": "uint256",
          "name": "lastPrice",
          "type": "uint256"
        }
      ],
      "stateMutability": "view",
      "type": "function"
    },
    {
      "inputs": [
        {
          "internalType": "address",
          "name": "from",
          "type": "address"
        },
        {
          "internalType": "address",
          "name": "to",
          "type": "address"
        },
        {
          "internalType": "uint256",
          "name": "id",
          "type": "uint256"
        }
      ],
      "name": "safeTransferFrom",
      "outputs": [],
      "stateMutability": "nonpayable",
      "type": "function"
    },
    {
      "inputs": [
        {
          "internalType": "address",
          "name": "from",
          "type": "address"
        },
        {
          "internalType": "address",
          "name": "to",
          "type": "address"
        },
        {
          "internalType": "uint256",
          "name": "id",
          "type": "uint256"
        },
        {
          "internalType": "bytes",
          "name": "data",
          "type": "bytes"
        }
      ],
      "name": "safeTransferFrom",
      "outputs": [],
      "stateMutability": "nonpayable",
      "type": "function"
    },
    {
      "inputs": [
        {
          "internalType": "address",
          "name": "operator",
          "type": "address"
        },
        {
          "internalType": "bool",
          "name": "approved",
          "type": "bool"
        }
      ],
      "name": "setApprovalForAll",
      "outputs": [],
      "stateMutability": "nonpayable",
      "type": "function"
    },
    {
      "inputs": [
        {
          "internalType": "address",
          "name": "newMaintainer",
          "type": "address"
        }
      ],
      "name": "setMaintainer",
      "outputs": [],
      "stateMutability": "nonpayable",
      "type": "function"
    },
    {
      "inputs": [
        {
          "internalType": "address payable",
          "name": "newRecipient",
          "type": "address"
        }
      ],
      "name": "setRecipient",
      "outputs": [],
      "stateMutability": "nonpayable",
      "type": "function"
    },
    {
      "inputs": [
        {
          "internalType": "contract BleepsTokenURI",
          "name": "newTokenURIContract",
          "type": "address"
        }
      ],
      "name": "setTokenURIContract",
      "outputs": [],
      "stateMutability": "nonpayable",
      "type": "function"
    },
    {
      "inputs": [
        {
          "internalType": "bytes4",
          "name": "id",
          "type": "bytes4"
        }
      ],
      "name": "supportsInterface",
      "outputs": [
        {
          "internalType": "bool",
          "name": "",
          "type": "bool"
        }
      ],
      "stateMutability": "pure",
      "type": "function"
    },
    {
      "inputs": [],
      "name": "symbol",
      "outputs": [
        {
          "internalType": "string",
          "name": "",
          "type": "string"
        }
      ],
      "stateMutability": "pure",
      "type": "function"
    },
    {
      "inputs": [
        {
          "internalType": "uint256",
          "name": "id",
          "type": "uint256"
        }
      ],
      "name": "tokenURI",
      "outputs": [
        {
          "internalType": "string",
          "name": "",
          "type": "string"
        }
      ],
      "stateMutability": "view",
      "type": "function"
    },
    {
      "inputs": [],
      "name": "tokenURIContract",
      "outputs": [
        {
          "internalType": "contract BleepsTokenURI",
          "name": "",
          "type": "address"
        }
      ],
      "stateMutability": "view",
      "type": "function"
    },
    {
      "inputs": [],
      "name": "totalSupply",
      "outputs": [
        {
          "internalType": "uint256",
          "name": "",
          "type": "uint256"
        }
      ],
      "stateMutability": "pure",
      "type": "function"
    },
    {
      "inputs": [
        {
          "internalType": "address",
          "name": "from",
          "type": "address"
        },
        {
          "internalType": "address",
          "name": "to",
          "type": "address"
        },
        {
          "internalType": "uint256",
          "name": "id",
          "type": "uint256"
        }
      ],
      "name": "transferFrom",
      "outputs": [],
      "stateMutability": "nonpayable",
      "type": "function"
    }
  ],
  "transactionHash": "0x63214a61afd68bfcc766372979b3b42c63c4bcdc7c535bb8005f18e59945c289",
  "args": [
    "2000000000000000000",
    172800,
    "100000000000000000",
    1635355386,
    "0x434BADEA3943c5B3D86366Fa03c77201B6770A75",
    "0xE53cd71271AcAdbeb0f64d9c8C62bBdDc8cA9e66",
    "0xE53cd71271AcAdbeb0f64d9c8C62bBdDc8cA9e66",
    "0x883E8D65fFCc5E2847850Ac5d019199dC77960c6"
  ],
  "solcInputHash": "235042954a5a8f8c069928326e8177a8",
  "bytecode": "0x6101606040523480156200001257600080fd5b5060405162003e3d38038062003e3d833981016040819052620000359162000157565b4660808190526200004681620000b0565b60a0525060e097909752610100959095526101209390935260c0919091526001600160a01b0390811661014052600580549282166001600160a01b0319938416179055600680549382169383169390931790925560078054939092169216919091179055620001e8565b60007f8cad95687ba82c2ce50e74f7b754645e5117c3a5bec8151c0726d5857980a866620000f7604080518082019091526006815265426c6565707360d01b602082015290565b80516020918201206040805192830193909352918101919091526060810183905230608082015260a001604051602081830303815290604052805190602001209050919050565b6001600160a01b03811681146200015457600080fd5b50565b600080600080600080600080610100898b0312156200017557600080fd5b8851975060208901519650604089015195506060890151945060808901516200019e816200013e565b60a08a0151909450620001b1816200013e565b60c08a0151909350620001c4816200013e565b60e08a0151909250620001d7816200013e565b809150509295985092959890939650565b60805160a05160c05160e051610100516101205161014051613ba662000297600039600061187d01526000818161050901528181610f8301528181611756015281816117c601526118310152600081816104e101528181610f600152818161179f01526117ee0152600081816104bb01528181610f3d01528181611702015261177701526000818161049801528181610f1a0152611728015260006125640152600061252f0152613ba66000f3fe6080604052600436106101b75760003560e01c80636352211e116100ec5780639c2055131161008a578063c87b56dd11610064578063c87b56dd1461060e578063e8a3d4851461062e578063e985e9c514610643578063fdb3b6e81461069957600080fd5b80639c205513146105bb578063a22cb465146105ce578063b88d4fde146105ee57600080fd5b806381059f78116100c657806381059f781461048557806382fc314714610535578063836381cb1461055557806395d89b411461057557600080fd5b80636352211e14610418578063698f87be1461043857806370a082311461046557600080fd5b806323b872dd116101595780633644e515116101335780633644e5151461038f5780633bbed4a0146103a457806342842e0e146103c4578063585956d6146103e457600080fd5b806323b872dd1461030a5780632a2c67ff1461032a57806330adf81f1461035b57600080fd5b8063095ea7b311610195578063095ea7b31461028557806313ea5d29146102a757806313f66359146102c757806318160ddd146102f557600080fd5b806301ffc9a7146101bc57806306fdde03146101f1578063081812fc14610240575b600080fd5b3480156101c857600080fd5b506101dc6101d7366004613208565b6106b9565b60405190151581526020015b60405180910390f35b3480156101fd57600080fd5b5060408051808201909152600681527f426c65657073000000000000000000000000000000000000000000000000000060208201525b6040516101e8919061329b565b34801561024c57600080fd5b5061026061025b3660046132ae565b61079e565b60405173ffffffffffffffffffffffffffffffffffffffff90911681526020016101e8565b34801561029157600080fd5b506102a56102a03660046132e9565b61088f565b005b3480156102b357600080fd5b506102a56102c2366004613315565b6109e5565b3480156102d357600080fd5b506102e76102e2366004613332565b610aad565b6040519081526020016101e8565b34801561030157600080fd5b506102406102e7565b34801561031657600080fd5b506102a5610325366004613380565b610b02565b34801561033657600080fd5b5061034a6103453660046133c1565b610e44565b6040516101e8959493929190613436565b34801561036757600080fd5b506102e77f49ecf333e5b8c95c40fdafc95c1ad136e8914a8fb55e9dc8bb01eaa83a2df9ad81565b34801561039b57600080fd5b506102e7610fa9565b3480156103b057600080fd5b506102a56103bf366004613315565b610fb8565b3480156103d057600080fd5b506102a56103df366004613380565b611080565b3480156103f057600080fd5b506102e77f29795620f29ed5790c945e3f419a1b3e2381aa07751ccffe5b81231639d74cd581565b34801561042457600080fd5b506102606104333660046132ae565b61109b565b34801561044457600080fd5b506007546102609073ffffffffffffffffffffffffffffffffffffffff1681565b34801561047157600080fd5b506102e7610480366004613315565b61112c565b34801561049157600080fd5b50604080517f000000000000000000000000000000000000000000000000000000000000000081527f000000000000000000000000000000000000000000000000000000000000000060208201527f0000000000000000000000000000000000000000000000000000000000000000918101919091527f000000000000000000000000000000000000000000000000000000000000000060608201526080016101e8565b34801561054157600080fd5b506102a5610550366004613315565b6111d4565b34801561056157600080fd5b506102a56105703660046134fc565b61129c565b34801561058157600080fd5b5060408051808201909152600581527f424c4545500000000000000000000000000000000000000000000000000000006020820152610233565b6102a56105c9366004613592565b6115e0565b3480156105da57600080fd5b506102a56105e93660046135c7565b611c5d565b3480156105fa57600080fd5b506102a56106093660046136be565b611c6c565b34801561061a57600080fd5b506102336106293660046132ae565b611fb1565b34801561063a57600080fd5b50610233612079565b34801561064f57600080fd5b506101dc61065e36600461376d565b73ffffffffffffffffffffffffffffffffffffffff918216600090815260026020908152604080832093909416825291909152205460ff1690565b3480156106a557600080fd5b506102a56106b436600461378b565b61213e565b60007f01ffc9a7000000000000000000000000000000000000000000000000000000007fffffffff000000000000000000000000000000000000000000000000000000008316148061074c57507f80ac58cd000000000000000000000000000000000000000000000000000000007fffffffff000000000000000000000000000000000000000000000000000000008316145b8061079857507f5b5e139f000000000000000000000000000000000000000000000000000000007fffffffff000000000000000000000000000000000000000000000000000000008316145b92915050565b6000818152602081905260408120547f80000000000000000000000000000000000000000000000000000000000000008082161473ffffffffffffffffffffffffffffffffffffffff8216610854576040517f08c379a000000000000000000000000000000000000000000000000000000000815260206004820152601160248201527f4e4f4e4558495354454e545f544f4b454e00000000000000000000000000000060448201526064015b60405180910390fd5b80156108855750505060009081526003602052604090205473ffffffffffffffffffffffffffffffffffffffff1690565b5060009392505050565b60008181526020819052604090205473ffffffffffffffffffffffffffffffffffffffff811661091b576040517f08c379a000000000000000000000000000000000000000000000000000000000815260206004820152601160248201527f4e4f4e4558495354454e545f544f4b454e000000000000000000000000000000604482015260640161084b565b73ffffffffffffffffffffffffffffffffffffffff811633148061096f575073ffffffffffffffffffffffffffffffffffffffff8116600090815260026020908152604080832033845290915290205460ff165b6109d5576040517f08c379a000000000000000000000000000000000000000000000000000000000815260206004820152601560248201527f554e415554484f52495a45445f415050524f56414c0000000000000000000000604482015260640161084b565b6109e0818484612322565b505050565b60055473ffffffffffffffffffffffffffffffffffffffff163314610a66576040517f08c379a000000000000000000000000000000000000000000000000000000000815260206004820152600e60248201527f4e4f545f415554484f52495a4544000000000000000000000000000000000000604482015260640161084b565b600580547fffffffffffffffffffffffff00000000000000000000000000000000000000001673ffffffffffffffffffffffffffffffffffffffff92909216919091179055565b73ffffffffffffffffffffffffffffffffffffffff821660009081526004602090815260408083206fffffffffffffffffffffffffffffffff80861685529252822054610afb911682613847565b9392505050565b6000818152602081905260409020547f80000000000000000000000000000000000000000000000000000000000000008082161473ffffffffffffffffffffffffffffffffffffffff8216610bb3576040517f08c379a000000000000000000000000000000000000000000000000000000000815260206004820152601160248201527f4e4f4e4558495354454e545f544f4b454e000000000000000000000000000000604482015260640161084b565b8473ffffffffffffffffffffffffffffffffffffffff168273ffffffffffffffffffffffffffffffffffffffff1614610c48576040517f08c379a000000000000000000000000000000000000000000000000000000000815260206004820152600960248201527f4e4f545f4f574e45520000000000000000000000000000000000000000000000604482015260640161084b565b73ffffffffffffffffffffffffffffffffffffffff8416610cc5576040517f08c379a000000000000000000000000000000000000000000000000000000000815260206004820152601260248201527f4e4f545f544f5f5a45524f414444524553530000000000000000000000000000604482015260640161084b565b73ffffffffffffffffffffffffffffffffffffffff8416301415610d45576040517f08c379a000000000000000000000000000000000000000000000000000000000815260206004820152600b60248201527f4e4f545f544f5f54484953000000000000000000000000000000000000000000604482015260640161084b565b3373ffffffffffffffffffffffffffffffffffffffff861614610e325773ffffffffffffffffffffffffffffffffffffffff8516600090815260026020908152604080832033845290915290205460ff1680610dcc5750808015610dcc575060008381526003602052604090205473ffffffffffffffffffffffffffffffffffffffff1633145b610e32576040517f08c379a000000000000000000000000000000000000000000000000000000000815260206004820152601560248201527f554e415554484f52495a45445f5452414e534645520000000000000000000000604482015260640161084b565b610e3d85858561244b565b5050505050565b606060008080808567ffffffffffffffff811115610e6457610e646135fa565b604051908082528060200260200182016040528015610e8d578160200160208202803683370190505b50945060005b86811015610f15576000888883818110610eaf57610eaf61385f565b90506020020135905060008082815260200190815260200160002054878381518110610edd57610edd61385f565b73ffffffffffffffffffffffffffffffffffffffff909216602092830291909101909101525080610f0d8161388e565b915050610e93565b5093967f000000000000000000000000000000000000000000000000000000000000000096507f000000000000000000000000000000000000000000000000000000000000000095507f000000000000000000000000000000000000000000000000000000000000000094507f00000000000000000000000000000000000000000000000000000000000000009350915050565b6000610fb361252a565b905090565b60055473ffffffffffffffffffffffffffffffffffffffff163314611039576040517f08c379a000000000000000000000000000000000000000000000000000000000815260206004820152600e60248201527f4e4f545f415554484f52495a4544000000000000000000000000000000000000604482015260640161084b565b600680547fffffffffffffffffffffffff00000000000000000000000000000000000000001673ffffffffffffffffffffffffffffffffffffffff92909216919091179055565b6109e083838360405180602001604052806000815250611c6c565b60008181526020819052604090205473ffffffffffffffffffffffffffffffffffffffff8116611127576040517f08c379a000000000000000000000000000000000000000000000000000000000815260206004820152601160248201527f4e4f4e4558495354454e545f544f4b454e000000000000000000000000000000604482015260640161084b565b919050565b600073ffffffffffffffffffffffffffffffffffffffff82166111ab576040517f08c379a000000000000000000000000000000000000000000000000000000000815260206004820152601260248201527f5a45524f5f414444524553535f4f574e45520000000000000000000000000000604482015260640161084b565b5073ffffffffffffffffffffffffffffffffffffffff1660009081526001602052604090205490565b60055473ffffffffffffffffffffffffffffffffffffffff163314611255576040517f08c379a000000000000000000000000000000000000000000000000000000000815260206004820152600e60248201527f4e4f545f415554484f52495a4544000000000000000000000000000000000000604482015260640161084b565b600780547fffffffffffffffffffffffff00000000000000000000000000000000000000001673ffffffffffffffffffffffffffffffffffffffff92909216919091179055565b42851015611306576040517f08c379a000000000000000000000000000000000000000000000000000000000815260206004820152601760248201527f5045524d49545f444541444c494e455f45585049524544000000000000000000604482015260640161084b565b60008681526020819052604090205473ffffffffffffffffffffffffffffffffffffffff8116611392576040517f08c379a000000000000000000000000000000000000000000000000000000000815260206004820152601160248201527f4e4f4e4558495354454e545f544f4b454e000000000000000000000000000000604482015260640161084b565b8073ffffffffffffffffffffffffffffffffffffffff168973ffffffffffffffffffffffffffffffffffffffff1614806113fe575073ffffffffffffffffffffffffffffffffffffffff8082166000908152600260209081526040808320938d168352929052205460ff165b611464576040517f08c379a000000000000000000000000000000000000000000000000000000000815260206004820152601360248201527f554e415554484f52495a45445f5349474e455200000000000000000000000000604482015260640161084b565b611474898989898989898961258a565b608085901c6000611496700100000000000000000000000000000000886138f6565b73ffffffffffffffffffffffffffffffffffffffff8c1660009081526004602090815260408083206fffffffffffffffffffffffffffffffff8088168552925290912054919250908116908216811461154b576040517f08c379a000000000000000000000000000000000000000000000000000000000815260206004820152600d60248201527f494e56414c49445f4e4f4e434500000000000000000000000000000000000000604482015260640161084b565b61155681600161390a565b73ffffffffffffffffffffffffffffffffffffffff8d1660009081526004602090815260408083206fffffffffffffffffffffffffffffffff8881168552925290912080547fffffffffffffffffffffffffffffffff0000000000000000000000000000000016929091169190911790556115d2848c8c612322565b505050505050505050505050565b6102408261ffff161061164f576040517f08c379a000000000000000000000000000000000000000000000000000000000815260206004820152600d60248201527f494e56414c49445f534f554e4400000000000000000000000000000000000000604482015260640161084b565b600061166460106103ff600686901c166138f6565b905080600614806116755750806008145b156117005760065473ffffffffffffffffffffffffffffffffffffffff1633146116fb576040517f08c379a000000000000000000000000000000000000000000000000000000000815260206004820152601960248201527f546865736520626c656570732061726520726573657276656400000000000000604482015260640161084b565b611aa8565b7f0000000000000000000000000000000000000000000000000000000000000000600061174d7f00000000000000000000000000000000000000000000000000000000000000004261393e565b9050600061179b7f00000000000000000000000000000000000000000000000000000000000000007f000000000000000000000000000000000000000000000000000000000000000061393e565b90507f000000000000000000000000000000000000000000000000000000000000000082106117ec577f00000000000000000000000000000000000000000000000000000000000000009250611858565b7f0000000000000000000000000000000000000000000000000000000000000000611817838261393e565b6118219083613955565b61182b9190613992565b611855907f0000000000000000000000000000000000000000000000000000000000000000613847565b92505b604051336024820152600090819073ffffffffffffffffffffffffffffffffffffffff7f00000000000000000000000000000000000000000000000000000000000000001690604401604080517fffffffffffffffffffffffffffffffffffffffffffffffffffffffffffffffe08184030181529181526020820180517bffffffffffffffffffffffffffffffffffffffffffffffffffffffff167f70a08231000000000000000000000000000000000000000000000000000000001790525161192291906139a6565b600060405180830381855afa9150503d806000811461195d576040519150601f19603f3d011682016040523d82523d6000602084013e611962565b606091505b50915091506000828015611977575060008251115b611982576000611996565b8180602001905181019061199691906139c2565b905080156119b857600a6119ab876008613955565b6119b59190613992565b95505b85341015611a22576040517f08c379a000000000000000000000000000000000000000000000000000000000815260206004820152600a60248201527f4e4f545f454e4f55474800000000000000000000000000000000000000000000604482015260640161084b565b336108fc611a30883461393e565b6040518115909202916000818181858888f19350505050158015611a58573d6000803e3d6000fd5b5060065460405173ffffffffffffffffffffffffffffffffffffffff9091169087156108fc029088906000818181858888f19350505050158015611aa0573d6000803e3d6000fd5b505050505050505b73ffffffffffffffffffffffffffffffffffffffff8216611b25576040517f08c379a000000000000000000000000000000000000000000000000000000000815260206004820152601260248201527f4e4f545f544f5f5a45524f414444524553530000000000000000000000000000604482015260640161084b565b73ffffffffffffffffffffffffffffffffffffffff8216301415611ba5576040517f08c379a000000000000000000000000000000000000000000000000000000000815260206004820152600b60248201527f4e4f545f544f5f54484953000000000000000000000000000000000000000000604482015260640161084b565b61ffff831660009081526020819052604090205473ffffffffffffffffffffffffffffffffffffffff811615611c37576040517f08c379a000000000000000000000000000000000000000000000000000000000815260206004820152600f60248201527f414c52454144595f435245415445440000000000000000000000000000000000604482015260640161084b565b611c576000848661ffff1660405180602001604052806000815250612676565b50505050565b611c68338383612711565b5050565b6000828152602081905260409020547f80000000000000000000000000000000000000000000000000000000000000008082161473ffffffffffffffffffffffffffffffffffffffff8216611d1d576040517f08c379a000000000000000000000000000000000000000000000000000000000815260206004820152601160248201527f4e4f4e4558495354454e545f544f4b454e000000000000000000000000000000604482015260640161084b565b8573ffffffffffffffffffffffffffffffffffffffff168273ffffffffffffffffffffffffffffffffffffffff1614611db2576040517f08c379a000000000000000000000000000000000000000000000000000000000815260206004820152600960248201527f4e4f545f4f574e45520000000000000000000000000000000000000000000000604482015260640161084b565b73ffffffffffffffffffffffffffffffffffffffff8516611e2f576040517f08c379a000000000000000000000000000000000000000000000000000000000815260206004820152601260248201527f4e4f545f544f5f5a45524f414444524553530000000000000000000000000000604482015260640161084b565b73ffffffffffffffffffffffffffffffffffffffff8516301415611eaf576040517f08c379a000000000000000000000000000000000000000000000000000000000815260206004820152600b60248201527f4e4f545f544f5f54484953000000000000000000000000000000000000000000604482015260640161084b565b3373ffffffffffffffffffffffffffffffffffffffff871614611f9d57808015611efc575060008481526003602052604090205473ffffffffffffffffffffffffffffffffffffffff1633145b80611f37575073ffffffffffffffffffffffffffffffffffffffff8616600090815260026020908152604080832033845290915290205460ff165b611f9d576040517f08c379a000000000000000000000000000000000000000000000000000000000815260206004820152601560248201527f554e415554484f52495a45445f5452414e534645520000000000000000000000604482015260640161084b565b611fa986868686612676565b505050505050565b6007546040517fc4df382600000000000000000000000000000000000000000000000000000000815261ffff8316600482015260609173ffffffffffffffffffffffffffffffffffffffff169063c4df38269060240160006040518083038186803b15801561201f57600080fd5b505afa158015612033573d6000803e3d6000fd5b505050506040513d6000823e601f3d9081017fffffffffffffffffffffffffffffffffffffffffffffffffffffffffffffffe016820160405261079891908101906139db565b600754604080517fe8a3d485000000000000000000000000000000000000000000000000000000008152905160609273ffffffffffffffffffffffffffffffffffffffff169163e8a3d485916004808301926000929190829003018186803b1580156120e457600080fd5b505afa1580156120f8573d6000803e3d6000fd5b505050506040513d6000823e601f3d9081017fffffffffffffffffffffffffffffffffffffffffffffffffffffffffffffffe0168201604052610fb391908101906139db565b428510156121a8576040517f08c379a000000000000000000000000000000000000000000000000000000000815260206004820152601760248201527f5045524d49545f444541444c494e455f45585049524544000000000000000000604482015260640161084b565b6121b7878787878787876127a9565b608084901c60006121d9700100000000000000000000000000000000876138f6565b73ffffffffffffffffffffffffffffffffffffffff8a1660009081526004602090815260408083206fffffffffffffffffffffffffffffffff8088168552925290912054919250908116908216811461228e576040517f08c379a000000000000000000000000000000000000000000000000000000000815260206004820152600d60248201527f494e56414c49445f4e4f4e434500000000000000000000000000000000000000604482015260640161084b565b61229981600161390a565b73ffffffffffffffffffffffffffffffffffffffff8b1660009081526004602090815260408083206fffffffffffffffffffffffffffffffff8881168552925290912080547fffffffffffffffffffffffffffffffff0000000000000000000000000000000016929091169190911790556123168a8a6001612711565b50505050505050505050565b73ffffffffffffffffffffffffffffffffffffffff821661236957600081815260208190526040902073ffffffffffffffffffffffffffffffffffffffff841690556123eb565b60008181526020818152604080832073ffffffffffffffffffffffffffffffffffffffff8781167f800000000000000000000000000000000000000000000000000000000000000017909155600390925290912080547fffffffffffffffffffffffff0000000000000000000000000000000000000000169184169190911790555b808273ffffffffffffffffffffffffffffffffffffffff168473ffffffffffffffffffffffffffffffffffffffff167f8c5be1e5ebec7d5bd14f71427d1e84f3dd0314c0f7b2291e5b200ac8c7c3b92560405160405180910390a4505050565b73ffffffffffffffffffffffffffffffffffffffff8083166000908152600160208190526040909120805490910190558316156124ce5773ffffffffffffffffffffffffffffffffffffffff8316600090815260016020526040902080547fffffffffffffffffffffffffffffffffffffffffffffffffffffffffffffffff0190555b60008181526020819052604080822073ffffffffffffffffffffffffffffffffffffffff808616918290559151849391928716917fddf252ad1be2c89b69c2b068fc378daa952ba7f163c4a11628f55a4df523b3ef91a4505050565b6000467f000000000000000000000000000000000000000000000000000000000000000081146125625761255d81612882565b612584565b7f00000000000000000000000000000000000000000000000000000000000000005b91505090565b600061259461252a565b604080517f49ecf333e5b8c95c40fdafc95c1ad136e8914a8fb55e9dc8bb01eaa83a2df9ad602082015273ffffffffffffffffffffffffffffffffffffffff8b1691810191909152606081018990526080810187905260a0810188905260c0016040516020818303038152906040528051906020012060405160200161264c9291907f190100000000000000000000000000000000000000000000000000000000000081526002810192909252602282015260420190565b604051602081830303815290604052905061266a8982868686612926565b505b5050505050505050565b61268184848461244b565b73ffffffffffffffffffffffffffffffffffffffff83163b15611c57576126ab3385858585612ca6565b611c57576040517f08c379a000000000000000000000000000000000000000000000000000000000815260206004820152601860248201527f4552433732315f5452414e534645525f52454a45435445440000000000000000604482015260640161084b565b73ffffffffffffffffffffffffffffffffffffffff83811660008181526002602090815260408083209487168084529482529182902080547fffffffffffffffffffffffffffffffffffffffffffffffffffffffffffffff001686151590811790915591519182527f17307eab39ab6107e8899845ad3d59bd9653f200f220920489ca2b5937696c31910160405180910390a3505050565b60006127b361252a565b604080517f29795620f29ed5790c945e3f419a1b3e2381aa07751ccffe5b81231639d74cd5602082015273ffffffffffffffffffffffffffffffffffffffff8a1691810191909152606081018790526080810188905260a001604051602081830303815290604052805190602001206040516020016128649291907f190100000000000000000000000000000000000000000000000000000000000081526002810192909252602282015260420190565b604051602081830303815290604052905061266c8882868686612926565b60007f8cad95687ba82c2ce50e74f7b754645e5117c3a5bec8151c0726d5857980a8666128df60408051808201909152600681527f426c656570730000000000000000000000000000000000000000000000000000602082015290565b80516020918201206040805192830193909352918101919091526060810183905230608082015260a001604051602081830303815290604052805190602001209050919050565b600281600281111561293a5761293a613a52565b1415612a76576040517f20c13b0b000000000000000000000000000000000000000000000000000000008082529073ffffffffffffffffffffffffffffffffffffffff8716906320c13b0b9061299890889088908890600401613aca565b60206040518083038186803b1580156129b057600080fd5b505afa1580156129c4573d6000803e3d6000fd5b505050506040513d601f19601f820116820180604052508101906129e89190613afa565b7fffffffff000000000000000000000000000000000000000000000000000000001614612a71576040517f08c379a000000000000000000000000000000000000000000000000000000000815260206004820152601660248201527f5349474e41545552455f313237315f494e56414c494400000000000000000000604482015260640161084b565b610e3d565b6001816002811115612a8a57612a8a613a52565b1415612bc657835160208501206040517f1626ba7e000000000000000000000000000000000000000000000000000000008082529173ffffffffffffffffffffffffffffffffffffffff881691631626ba7e91612aed9188908890600401613b17565b60206040518083038186803b158015612b0557600080fd5b505afa158015612b19573d6000803e3d6000fd5b505050506040513d601f19601f82011682018060405250810190612b3d9190613afa565b7fffffffff000000000000000000000000000000000000000000000000000000001614612a71576040517f08c379a000000000000000000000000000000000000000000000000000000000815260206004820152601660248201527f5349474e41545552455f313635345f494e56414c494400000000000000000000604482015260640161084b565b6000612c0f84848080601f01602080910402602001604051908101604052809392919081815260200183838082843760009201919091525050885160208a012092915050612d8a565b90508073ffffffffffffffffffffffffffffffffffffffff168673ffffffffffffffffffffffffffffffffffffffff1614611fa9576040517f08c379a000000000000000000000000000000000000000000000000000000000815260206004820152601660248201527f5349474e41545552455f57524f4e475f5349474e455200000000000000000000604482015260640161084b565b6000808473ffffffffffffffffffffffffffffffffffffffff1663150b7a02888887876040518563ffffffff1660e01b8152600401612ce89493929190613b31565b602060405180830381600087803b158015612d0257600080fd5b505af1158015612d16573d6000803e3d6000fd5b505050506040513d601f19601f82011682018060405250810190612d3a9190613afa565b7fffffffff00000000000000000000000000000000000000000000000000000000167f150b7a02000000000000000000000000000000000000000000000000000000001491505095945050505050565b6000806000612d998585612dae565b91509150612da681612e1e565b509392505050565b600080825160411415612de55760208301516040840151606085015160001a612dd98782858561307a565b94509450505050612e17565b825160401415612e0f5760208301516040840151612e04868383613192565b935093505050612e17565b506000905060025b9250929050565b6000816004811115612e3257612e32613a52565b1415612e3b5750565b6001816004811115612e4f57612e4f613a52565b1415612eb7576040517f08c379a000000000000000000000000000000000000000000000000000000000815260206004820152601860248201527f45434453413a20696e76616c6964207369676e61747572650000000000000000604482015260640161084b565b6002816004811115612ecb57612ecb613a52565b1415612f33576040517f08c379a000000000000000000000000000000000000000000000000000000000815260206004820152601f60248201527f45434453413a20696e76616c6964207369676e6174757265206c656e67746800604482015260640161084b565b6003816004811115612f4757612f47613a52565b1415612fd5576040517f08c379a000000000000000000000000000000000000000000000000000000000815260206004820152602260248201527f45434453413a20696e76616c6964207369676e6174757265202773272076616c60448201527f7565000000000000000000000000000000000000000000000000000000000000606482015260840161084b565b6004816004811115612fe957612fe9613a52565b1415613077576040517f08c379a000000000000000000000000000000000000000000000000000000000815260206004820152602260248201527f45434453413a20696e76616c6964207369676e6174757265202776272076616c60448201527f7565000000000000000000000000000000000000000000000000000000000000606482015260840161084b565b50565b6000807f7fffffffffffffffffffffffffffffff5d576e7357a4501ddfe92f46681b20a08311156130b15750600090506003613189565b8460ff16601b141580156130c957508460ff16601c14155b156130da5750600090506004613189565b6040805160008082526020820180845289905260ff881692820192909252606081018690526080810185905260019060a0016020604051602081039080840390855afa15801561312e573d6000803e3d6000fd5b50506040517fffffffffffffffffffffffffffffffffffffffffffffffffffffffffffffffe0015191505073ffffffffffffffffffffffffffffffffffffffff811661318257600060019250925050613189565b9150600090505b94509492505050565b6000807f7fffffffffffffffffffffffffffffffffffffffffffffffffffffffffffffff831660ff84901c601b016131cc8782888561307a565b935093505050935093915050565b7fffffffff000000000000000000000000000000000000000000000000000000008116811461307757600080fd5b60006020828403121561321a57600080fd5b8135610afb816131da565b60005b83811015613240578181015183820152602001613228565b83811115611c575750506000910152565b60008151808452613269816020860160208601613225565b601f017fffffffffffffffffffffffffffffffffffffffffffffffffffffffffffffffe0169290920160200192915050565b602081526000610afb6020830184613251565b6000602082840312156132c057600080fd5b5035919050565b73ffffffffffffffffffffffffffffffffffffffff8116811461307757600080fd5b600080604083850312156132fc57600080fd5b8235613307816132c7565b946020939093013593505050565b60006020828403121561332757600080fd5b8135610afb816132c7565b6000806040838503121561334557600080fd5b8235613350816132c7565b915060208301356fffffffffffffffffffffffffffffffff8116811461337557600080fd5b809150509250929050565b60008060006060848603121561339557600080fd5b83356133a0816132c7565b925060208401356133b0816132c7565b929592945050506040919091013590565b600080602083850312156133d457600080fd5b823567ffffffffffffffff808211156133ec57600080fd5b818501915085601f83011261340057600080fd5b81358181111561340f57600080fd5b8660208260051b850101111561342457600080fd5b60209290920196919550909350505050565b60a0808252865190820181905260009060209060c0840190828a01845b8281101561348557815173ffffffffffffffffffffffffffffffffffffffff1684529284019290840190600101613453565b505050908301969096525060408101939093526060830191909152608090910152919050565b60008083601f8401126134bd57600080fd5b50813567ffffffffffffffff8111156134d557600080fd5b602083019150836020828501011115612e1757600080fd5b80356003811061112757600080fd5b60008060008060008060008060e0898b03121561351857600080fd5b8835613523816132c7565b97506020890135613533816132c7565b965060408901359550606089013594506080890135935060a089013567ffffffffffffffff81111561356457600080fd5b6135708b828c016134ab565b9094509250613583905060c08a016134ed565b90509295985092959890939650565b600080604083850312156135a557600080fd5b823561ffff811681146135b757600080fd5b91506020830135613375816132c7565b600080604083850312156135da57600080fd5b82356135e5816132c7565b91506020830135801515811461337557600080fd5b7f4e487b7100000000000000000000000000000000000000000000000000000000600052604160045260246000fd5b604051601f82017fffffffffffffffffffffffffffffffffffffffffffffffffffffffffffffffe016810167ffffffffffffffff81118282101715613670576136706135fa565b604052919050565b600067ffffffffffffffff821115613692576136926135fa565b50601f017fffffffffffffffffffffffffffffffffffffffffffffffffffffffffffffffe01660200190565b600080600080608085870312156136d457600080fd5b84356136df816132c7565b935060208501356136ef816132c7565b925060408501359150606085013567ffffffffffffffff81111561371257600080fd5b8501601f8101871361372357600080fd5b803561373661373182613678565b613629565b81815288602083850101111561374b57600080fd5b8160208401602083013760006020838301015280935050505092959194509250565b6000806040838503121561378057600080fd5b82356135b7816132c7565b600080600080600080600060c0888a0312156137a657600080fd5b87356137b1816132c7565b965060208801356137c1816132c7565b95506040880135945060608801359350608088013567ffffffffffffffff8111156137eb57600080fd5b6137f78a828b016134ab565b909450925061380a905060a089016134ed565b905092959891949750929550565b7f4e487b7100000000000000000000000000000000000000000000000000000000600052601160045260246000fd5b6000821982111561385a5761385a613818565b500190565b7f4e487b7100000000000000000000000000000000000000000000000000000000600052603260045260246000fd5b60007fffffffffffffffffffffffffffffffffffffffffffffffffffffffffffffffff8214156138c0576138c0613818565b5060010190565b7f4e487b7100000000000000000000000000000000000000000000000000000000600052601260045260246000fd5b600082613905576139056138c7565b500690565b60006fffffffffffffffffffffffffffffffff80831681851680830382111561393557613935613818565b01949350505050565b60008282101561395057613950613818565b500390565b6000817fffffffffffffffffffffffffffffffffffffffffffffffffffffffffffffffff048311821515161561398d5761398d613818565b500290565b6000826139a1576139a16138c7565b500490565b600082516139b8818460208701613225565b9190910192915050565b6000602082840312156139d457600080fd5b5051919050565b6000602082840312156139ed57600080fd5b815167ffffffffffffffff811115613a0457600080fd5b8201601f81018413613a1557600080fd5b8051613a2361373182613678565b818152856020838501011115613a3857600080fd5b613a49826020830160208601613225565b95945050505050565b7f4e487b7100000000000000000000000000000000000000000000000000000000600052602160045260246000fd5b8183528181602085013750600060208284010152600060207fffffffffffffffffffffffffffffffffffffffffffffffffffffffffffffffe0601f840116840101905092915050565b604081526000613add6040830186613251565b8281036020840152613af0818587613a81565b9695505050505050565b600060208284031215613b0c57600080fd5b8151610afb816131da565b838152604060208201526000613a49604083018486613a81565b600073ffffffffffffffffffffffffffffffffffffffff808716835280861660208401525083604083015260806060830152613af0608083018461325156fea26469706673582212209e9ae771e1ffe35e4e614747b61306afe5df5c16e459b253dd84e1838fc16b5564736f6c63430008090033",
  "devdoc": {
    "kind": "dev",
    "methods": {
      "DOMAIN_SEPARATOR()": {
        "details": "Return the DOMAIN_SEPARATOR."
      },
      "approve(address,uint256)": {
        "params": {
          "id": "The id of the token.",
          "operator": "The address receiving the approval."
        }
      },
      "balanceOf(address)": {
        "params": {
          "owner": "The address to look for."
        },
        "returns": {
          "balance": "The number of tokens owned by the address."
        }
      },
      "getApproved(uint256)": {
        "params": {
          "id": "The id of the token."
        },
        "returns": {
          "_0": "The address of the operator."
        }
      },
      "isApprovedForAll(address,address)": {
        "params": {
          "operator": "The address of the operator.",
          "owner": "The address of the owner."
        },
        "returns": {
          "isOperator": "The status of the approval."
        }
      },
      "ownerOf(uint256)": {
        "params": {
          "id": "The id of the token."
        },
        "returns": {
          "owner": "The address of the token owner."
        }
      },
      "safeTransferFrom(address,address,uint256)": {
        "params": {
          "from": "The send of the token.",
          "id": "The id of the token.",
          "to": "The recipient of the token."
        }
      },
      "safeTransferFrom(address,address,uint256,bytes)": {
        "params": {
          "data": "Additional data.",
          "from": "The sender of the token.",
          "id": "The id of the token.",
          "to": "The recipient of the token."
        }
      },
      "setApprovalForAll(address,bool)": {
        "params": {
          "approved": "The determination of the approval.",
          "operator": "The address receiving the approval."
        }
      },
      "supportsInterface(bytes4)": {
        "params": {
          "id": "The id of the interface."
        },
        "returns": {
          "_0": "Whether the interface is supported."
        }
      },
      "totalSupply()": {
        "returns": {
          "_0": "A count of valid NFTs tracked by this contract, where each one of  them has an assigned and queryable owner not equal to the zero address"
        }
      },
      "transferFrom(address,address,uint256)": {
        "params": {
          "from": "The sender of the token.",
          "id": "The id of the token.",
          "to": "The recipient of the token."
        }
      }
    },
    "version": 1
  },
  "userdoc": {
    "kind": "user",
    "methods": {
      "approve(address,uint256)": {
        "notice": "Approve an operator to spend tokens on the senders behalf."
      },
      "balanceOf(address)": {
        "notice": "Get the number of tokens owned by an address."
      },
      "getApproved(uint256)": {
        "notice": "Get the approved operator for a specific token."
      },
      "isApprovedForAll(address,address)": {
        "notice": "Check if the sender approved the operator."
      },
      "name()": {
        "notice": "A descriptive name for a collection of NFTs in this contract"
      },
      "ownerOf(uint256)": {
        "notice": "Get the owner of a token."
      },
      "safeTransferFrom(address,address,uint256)": {
        "notice": "Transfer a token between 2 addresses letting the receiver know of the transfer."
      },
      "safeTransferFrom(address,address,uint256,bytes)": {
        "notice": "Transfer a token between 2 addresses letting the receiver knows of the transfer."
      },
      "setApprovalForAll(address,bool)": {
        "notice": "Set the approval for an operator to manage all the tokens of the sender."
      },
      "supportsInterface(bytes4)": {
        "notice": "Check if the contract supports an interface. 0x01ffc9a7 is ERC165. 0x80ac58cd is ERC721 0x5b5e139f is for ERC721 metadata"
      },
      "symbol()": {
        "notice": "An abbreviated name for NFTs in this contract"
      },
      "totalSupply()": {
        "notice": "Count NFTs tracked by this contract"
      },
      "transferFrom(address,address,uint256)": {
        "notice": "Transfer a token between 2 addresses."
      }
    },
    "version": 1
  },
  "storageLayout": {
    "storage": [
      {
        "astId": 9409,
        "contract": "src/Bleeps.sol:Bleeps",
        "label": "_owners",
        "offset": 0,
        "slot": "0",
        "type": "t_mapping(t_uint256,t_uint256)"
      },
      {
        "astId": 9413,
        "contract": "src/Bleeps.sol:Bleeps",
        "label": "_balances",
        "offset": 0,
        "slot": "1",
        "type": "t_mapping(t_address,t_uint256)"
      },
      {
        "astId": 9419,
        "contract": "src/Bleeps.sol:Bleeps",
        "label": "_operatorsForAll",
        "offset": 0,
        "slot": "2",
        "type": "t_mapping(t_address,t_mapping(t_address,t_bool))"
      },
      {
        "astId": 9423,
        "contract": "src/Bleeps.sol:Bleeps",
        "label": "_operators",
        "offset": 0,
        "slot": "3",
        "type": "t_mapping(t_uint256,t_address)"
      },
      {
        "astId": 10164,
        "contract": "src/Bleeps.sol:Bleeps",
        "label": "_nonces",
        "offset": 0,
        "slot": "4",
        "type": "t_mapping(t_address,t_mapping(t_uint128,t_uint128))"
      },
      {
        "astId": 7422,
        "contract": "src/Bleeps.sol:Bleeps",
        "label": "_maintainer",
        "offset": 0,
        "slot": "5",
        "type": "t_address"
      },
      {
        "astId": 7424,
        "contract": "src/Bleeps.sol:Bleeps",
        "label": "_recipient",
        "offset": 0,
        "slot": "6",
        "type": "t_address_payable"
      },
      {
        "astId": 7427,
        "contract": "src/Bleeps.sol:Bleeps",
        "label": "tokenURIContract",
        "offset": 0,
        "slot": "7",
        "type": "t_contract(BleepsTokenURI)8872"
      }
    ],
    "types": {
      "t_address": {
        "encoding": "inplace",
        "label": "address",
        "numberOfBytes": "20"
      },
      "t_address_payable": {
        "encoding": "inplace",
        "label": "address payable",
        "numberOfBytes": "20"
      },
      "t_bool": {
        "encoding": "inplace",
        "label": "bool",
        "numberOfBytes": "1"
      },
      "t_contract(BleepsTokenURI)8872": {
        "encoding": "inplace",
        "label": "contract BleepsTokenURI",
        "numberOfBytes": "20"
      },
      "t_mapping(t_address,t_bool)": {
        "encoding": "mapping",
        "key": "t_address",
        "label": "mapping(address => bool)",
        "numberOfBytes": "32",
        "value": "t_bool"
      },
      "t_mapping(t_address,t_mapping(t_address,t_bool))": {
        "encoding": "mapping",
        "key": "t_address",
        "label": "mapping(address => mapping(address => bool))",
        "numberOfBytes": "32",
        "value": "t_mapping(t_address,t_bool)"
      },
      "t_mapping(t_address,t_mapping(t_uint128,t_uint128))": {
        "encoding": "mapping",
        "key": "t_address",
        "label": "mapping(address => mapping(uint128 => uint128))",
        "numberOfBytes": "32",
        "value": "t_mapping(t_uint128,t_uint128)"
      },
      "t_mapping(t_address,t_uint256)": {
        "encoding": "mapping",
        "key": "t_address",
        "label": "mapping(address => uint256)",
        "numberOfBytes": "32",
        "value": "t_uint256"
      },
      "t_mapping(t_uint128,t_uint128)": {
        "encoding": "mapping",
        "key": "t_uint128",
        "label": "mapping(uint128 => uint128)",
        "numberOfBytes": "32",
        "value": "t_uint128"
      },
      "t_mapping(t_uint256,t_address)": {
        "encoding": "mapping",
        "key": "t_uint256",
        "label": "mapping(uint256 => address)",
        "numberOfBytes": "32",
        "value": "t_address"
      },
      "t_mapping(t_uint256,t_uint256)": {
        "encoding": "mapping",
        "key": "t_uint256",
        "label": "mapping(uint256 => uint256)",
        "numberOfBytes": "32",
        "value": "t_uint256"
      },
      "t_uint128": {
        "encoding": "inplace",
        "label": "uint128",
        "numberOfBytes": "16"
      },
      "t_uint256": {
        "encoding": "inplace",
        "label": "uint256",
        "numberOfBytes": "32"
      }
    }
  }
}