{
  "address": "0xC622b7cdd7D9E560a7888cA1818B3109c99f9896",
  "abi": [
    {
      "inputs": [
        {
          "internalType": "contract Bleeps",
          "name": "bleeps",
          "type": "address"
        },
        {
          "internalType": "uint256",
          "name": "price",
          "type": "uint256"
        },
        {
          "internalType": "uint256",
          "name": "startTime",
          "type": "uint256"
        },
        {
          "internalType": "uint256",
          "name": "whitelistPrice",
          "type": "uint256"
        },
        {
          "internalType": "uint256",
          "name": "whitelistEndTime",
          "type": "uint256"
        },
        {
          "internalType": "bytes32",
          "name": "whitelistMerkleRoot",
          "type": "bytes32"
        },
        {
          "internalType": "address payable",
          "name": "projectCreator",
          "type": "address"
        },
        {
          "internalType": "uint256",
          "name": "creatorFeePer10000",
          "type": "uint256"
        },
        {
          "internalType": "address payable",
          "name": "saleRecipient",
          "type": "address"
        },
        {
          "internalType": "uint256",
          "name": "uptoInstr",
          "type": "uint256"
        }
      ],
      "stateMutability": "nonpayable",
      "type": "constructor"
    },
    {
      "inputs": [
        {
          "internalType": "uint16",
          "name": "id",
          "type": "uint16"
        },
        {
          "internalType": "address",
          "name": "to",
          "type": "address"
        }
      ],
      "name": "creatorMint",
      "outputs": [],
      "stateMutability": "nonpayable",
      "type": "function"
    },
    {
      "inputs": [
        {
          "internalType": "uint16[]",
          "name": "ids",
          "type": "uint16[]"
        },
        {
          "internalType": "address",
          "name": "to",
          "type": "address"
        }
      ],
      "name": "creatorMultiMint",
      "outputs": [],
      "stateMutability": "nonpayable",
      "type": "function"
    },
    {
      "inputs": [
        {
          "internalType": "uint256",
          "name": "id",
          "type": "uint256"
        }
      ],
      "name": "isOpenForSale",
      "outputs": [
        {
          "internalType": "bool",
          "name": "",
          "type": "bool"
        }
      ],
      "stateMutability": "view",
      "type": "function"
    },
    {
      "inputs": [
        {
          "internalType": "uint256",
          "name": "passId",
          "type": "uint256"
        }
      ],
      "name": "isPassUsed",
      "outputs": [
        {
          "internalType": "bool",
          "name": "",
          "type": "bool"
        }
      ],
      "stateMutability": "view",
      "type": "function"
    },
    {
      "inputs": [
        {
          "internalType": "uint256",
          "name": "id",
          "type": "uint256"
        }
      ],
      "name": "isReserved",
      "outputs": [
        {
          "internalType": "bool",
          "name": "",
          "type": "bool"
        }
      ],
      "stateMutability": "pure",
      "type": "function"
    },
    {
      "inputs": [
        {
          "internalType": "uint16",
          "name": "id",
          "type": "uint16"
        },
        {
          "internalType": "address",
          "name": "to",
          "type": "address"
        }
      ],
      "name": "mint",
      "outputs": [],
      "stateMutability": "payable",
      "type": "function"
    },
    {
      "inputs": [
        {
          "internalType": "uint16",
          "name": "id",
          "type": "uint16"
        },
        {
          "internalType": "address",
          "name": "to",
          "type": "address"
        },
        {
          "internalType": "uint256",
          "name": "passId",
          "type": "uint256"
        },
        {
          "internalType": "bytes32[]",
          "name": "proof",
          "type": "bytes32[]"
        }
      ],
      "name": "mintWithPassId",
      "outputs": [],
      "stateMutability": "payable",
      "type": "function"
    },
    {
      "inputs": [
        {
          "internalType": "uint16",
          "name": "id",
          "type": "uint16"
        },
        {
          "internalType": "address",
          "name": "to",
          "type": "address"
        },
        {
          "internalType": "uint256",
          "name": "passId",
          "type": "uint256"
        },
        {
          "internalType": "bytes",
          "name": "signature",
          "type": "bytes"
        },
        {
          "internalType": "bytes32[]",
          "name": "proof",
          "type": "bytes32[]"
        }
      ],
      "name": "mintWithSalePass",
      "outputs": [],
      "stateMutability": "payable",
      "type": "function"
    },
    {
      "inputs": [
        {
          "internalType": "uint256",
          "name": "passId",
          "type": "uint256"
        },
        {
          "internalType": "uint256[]",
          "name": "ids",
          "type": "uint256[]"
        }
      ],
      "name": "ownersAndPriceInfo",
      "outputs": [
        {
          "internalType": "address[]",
          "name": "addresses",
          "type": "address[]"
        },
        {
          "internalType": "uint256",
          "name": "price",
          "type": "uint256"
        },
        {
          "internalType": "uint256",
          "name": "startTime",
          "type": "uint256"
        },
        {
          "internalType": "uint256",
          "name": "whitelistPrice",
          "type": "uint256"
        },
        {
          "internalType": "uint256",
          "name": "whitelistEndTime",
          "type": "uint256"
        },
        {
          "internalType": "bytes32",
          "name": "whitelistMerkleRoot",
          "type": "bytes32"
        },
        {
          "internalType": "bool",
          "name": "passUsed",
          "type": "bool"
        },
        {
          "internalType": "uint256",
          "name": "uptoInstr",
          "type": "uint256"
        }
      ],
      "stateMutability": "view",
      "type": "function"
    },
    {
      "inputs": [],
      "name": "priceInfo",
      "outputs": [
        {
          "internalType": "uint256",
          "name": "price",
          "type": "uint256"
        },
        {
          "internalType": "uint256",
          "name": "startTime",
          "type": "uint256"
        },
        {
          "internalType": "uint256",
          "name": "whitelistPrice",
          "type": "uint256"
        },
        {
          "internalType": "uint256",
          "name": "whitelistEndTime",
          "type": "uint256"
        },
        {
          "internalType": "bytes32",
          "name": "whitelistMerkleRoot",
          "type": "bytes32"
        }
      ],
      "stateMutability": "view",
      "type": "function"
    }
  ],
  "transactionHash": "0xda571fcfc784f12931c5bfc9aea621eb956ac3837bc1e7a6158bffd69d9c6702",
  "args": [
    "0x692b6277b0D055dAEB6EC7DEb978204D27F6e2a4",
    "100000000000000000",
    1638126031,
    "100000000000000000",
    1638169231,
    "0xb7f515cbf37c088e143318195f0f701707805dd8cc7d4d3a182450cde3bdfba7",
    "0xcE1AEF3e0A5324F7AB6e21B4dacc10B82666E1e2",
    2500,
    "0xf8012228c56550bF4D77F9e0ae2158F0bE33B852",
    8
  ],
  "linkedData": {
    "numPrivatePasses": 815,
    "leaves": [
      {
        "passId": "0",
        "signer": "0x0da59Fd1235a5Aad0D7dd251A014a5CEd669C196"
      },
      {
        "passId": "1",
        "signer": "0x047334222A691cD30B97D05ad5Fb693a482724fd"
      },
      {
        "passId": "2",
        "signer": "0xC0170D9f1D6A523F42BB8Da8B43E53E111B7f8E6"
      },
      {
        "passId": "3",
        "signer": "0x1eDD523fbc9C22d9377F6239A9262311CA1FB5D1"
      },
      {
        "passId": "4",
        "signer": "0x7732849f68eD4B7B589f36aC4fc62620A3b8961d"
      },
      {
        "passId": "5",
        "signer": "0x4D061764599eeD1386C639A7e2BF4d4bB055d5DC"
      },
      {
        "passId": "6",
        "signer": "0x9498c7033C5DE91a3fDE43A35dFFaef2b5d557BD"
      },
      {
        "passId": "7",
        "signer": "0xd48681D0BdAB5a3F3C2F57b7106CA6ad92fCa792"
      },
      {
        "passId": "8",
        "signer": "0x8f8b36551C9Bf921356d43957C0f2E2DE95DcF12"
      },
      {
        "passId": "9",
        "signer": "0x423f0A81F3034B16704A83Be49C985439A5eE310"
      },
      {
        "passId": "10",
        "signer": "0xFaBE040590E67e3F99C7241de02EDD295a62EC4C"
      },
      {
        "passId": "11",
        "signer": "0x9F0081fDeA2251C385fB6C229559E450F31366eA"
      },
      {
        "passId": "12",
        "signer": "0x5e0534F7c365e254C465756df2A9b10927d16a85"
      },
      {
        "passId": "13",
        "signer": "0xDB5531159D4731545E08A2AF3462056cd163Cf54"
      },
      {
        "passId": "14",
        "signer": "0x031601Ba0Aade3D76143Eab7141883d070ae382E"
      },
      {
        "passId": "15",
        "signer": "0xb3574387D370795f2C49f4E76925C9B14c279959"
      },
      {
        "passId": "16",
        "signer": "0x1c2c9D9F283772046429FC458Da262A31a549A3E"
      },
      {
        "passId": "17",
        "signer": "0xbeBCFf267D83bF6A281863870bD2F39da753135C"
      },
      {
        "passId": "18",
        "signer": "0xC1613294fAc9A159bdc4DbcC9c091811A7212337"
      },
      {
        "passId": "19",
        "signer": "0x1D93C046E13c0D98fC4ebe9846f0C8a4dd76AE73"
      },
      {
        "passId": "20",
        "signer": "0xE30fE93935CF4FAa8C158AC1F53737Ad04b27413"
      },
      {
        "passId": "21",
        "signer": "0x17041a7086061ff902aF786a7440655bF6A83CC6"
      },
      {
        "passId": "22",
        "signer": "0x066281A0Eb2ca3387c66436Da88B145fac1456E1"
      },
      {
        "passId": "23",
        "signer": "0x8C5702272dc0dF2F6d3624F30707311EDfe0e7fE"
      },
      {
        "passId": "24",
        "signer": "0x7299ba7c05bc8f1ED85D7Aa6a0D72C2782BEFB43"
      },
      {
        "passId": "25",
        "signer": "0xeD29753d9Fe6d0A6492ea52d5a823f31ED70EE20"
      },
      {
        "passId": "26",
        "signer": "0xf6fdd4D8EA33A7e480e8d0A6681435a37f97d958"
      },
      {
        "passId": "27",
        "signer": "0x90d82c945044218e2CFEEB212D34bd97157418c6"
      },
      {
        "passId": "28",
        "signer": "0xa15eDA5682764EeDA8e9C2Fb673033010F41013a"
      },
      {
        "passId": "29",
        "signer": "0xcBa0bC436b71B5CF56cDDC650A95b2dD71e644DF"
      },
      {
        "passId": "30",
        "signer": "0x1442FdD1c83d497801132DD5c7A6a01d063Bef14"
      },
      {
        "passId": "31",
        "signer": "0xC35201a14ca864D0dcf40281ce9f79Fa0332b96C"
      },
      {
        "passId": "32",
        "signer": "0x7774Fc7Ba9A3caa37242Dc2D1E37C35Bf71B2E4f"
      },
      {
        "passId": "33",
        "signer": "0x16971d9cFa7689775CF6d7209dB45E80f15573C4"
      },
      {
        "passId": "34",
        "signer": "0x2Fd57FDE5Fecb815512CCa8eB920A96c8E36f20f"
      },
      {
        "passId": "35",
        "signer": "0xa4EcB542480d9CF130905D79c0934ddCf848ee26"
      },
      {
        "passId": "36",
        "signer": "0x235eC97EC08cBB18533fec9BDac852F7BE7e5377"
      },
      {
        "passId": "37",
        "signer": "0xC95fdf460eb354114271eD1Bf46DEd0AEa34B31E"
      },
      {
        "passId": "38",
        "signer": "0xfbabE9b0674E1551ccB8D601B45eeBf01043Ded9"
      },
      {
        "passId": "39",
        "signer": "0x292ee033F8b0922a487Ff95287a3de88d7c51b15"
      },
      {
        "passId": "40",
        "signer": "0x005800AA61d020aBa57d2689FccDa68d2aEf982b"
      },
      {
        "passId": "41",
        "signer": "0xFC3f640072F304f8D5B5757f18E894BBeA8Bcc48"
      },
      {
        "passId": "42",
        "signer": "0x6074bC62494bC332bcb54DA847f0DE6f59e13597"
      },
      {
        "passId": "43",
        "signer": "0x9665a08b5E9c4F3cB402eeA2A8667e084097AbF4"
      },
      {
        "passId": "44",
        "signer": "0xe4026841331a20Af037E875E080bd4513EF90B7b"
      },
      {
        "passId": "45",
        "signer": "0xE8d4B33971B7d9c415ECDD748c888Cf9871A24A7"
      },
      {
        "passId": "46",
        "signer": "0x8175e1217D33a60dF5DCaFA4324Ecf9531d131Aa"
      },
      {
        "passId": "47",
        "signer": "0x07Dc1206e2E9A68a90197F4cF3507Dc0e4533855"
      },
      {
        "passId": "48",
        "signer": "0xD40aADA8cC9D9f2317ca29ec5023c12BFDFA29c9"
      },
      {
        "passId": "49",
        "signer": "0xce37DcE04af9A5C005c73d9500933bf91EBfAFcC"
      },
      {
        "passId": "50",
        "signer": "0x1e4aEEB118725785B7b637E685cdf41C86FC2a13"
      },
      {
        "passId": "51",
        "signer": "0xa01F516A12ADCFb6EF2C309CAA2678bc6F6C31d3"
      },
      {
        "passId": "52",
        "signer": "0x7680e6a8a45eb12fc40dd72D13D8e165C6137132"
      },
      {
        "passId": "53",
        "signer": "0x4821cbecaddD970BD3699d15b274B3c24d5E05E7"
      },
      {
        "passId": "54",
        "signer": "0x74848258888C2F23176a71BD74BfAD7ff4d6c417"
      },
      {
        "passId": "55",
        "signer": "0x51ec8cED4A47aA24FFE74Ed21432735746d7d04b"
      },
      {
        "passId": "56",
        "signer": "0x0e6130dbe170Ec2B1Be88C8c574aB7d0B669A197"
      },
      {
        "passId": "57",
        "signer": "0x8224C86a9904323656cc98D24847B667Da983AD9"
      },
      {
        "passId": "58",
        "signer": "0x3339F536E4c02088411F9a6C08191ea6038dBe0e"
      },
      {
        "passId": "59",
        "signer": "0xC520D93745fAc80Df2A925f18aB01c5fa351B07D"
      },
      {
        "passId": "60",
        "signer": "0xbb4a02A5D6f6e8435689CF8d074267E3ad558018"
      },
      {
        "passId": "61",
        "signer": "0x5CbDa71c32776bC40d015D503A76163a5dbcE228"
      },
      {
        "passId": "62",
        "signer": "0x6eBDBED1011b7C1F0D7F10C84756Fa16c016C0AF"
      },
      {
        "passId": "63",
        "signer": "0x311168EF243e7a599210Ce13EC32C1aBB5183031"
      },
      {
        "passId": "64",
        "signer": "0x8c9923C4a79F190bcC4C054509662B3729Ca35af"
      },
      {
        "passId": "65",
        "signer": "0x6219EbDc4B1643785531e64a1Ba25C683Dc92e9c"
      },
      {
        "passId": "66",
        "signer": "0x3aE42328047D521b464a9F765371305d87C3e990"
      },
      {
        "passId": "67",
        "signer": "0x62bF65374Fce69e6a830EeF8366d40D0d577Bae2"
      },
      {
        "passId": "68",
        "signer": "0x93e5a78055997936B5D800300aFa5c7e7B5Cf516"
      },
      {
        "passId": "69",
        "signer": "0xDeE5f67db16cA29Ba49Ba434B5047fFC5d9F7B71"
      },
      {
        "passId": "70",
        "signer": "0xE56D3c6942F08A12e370bd39EFc358cF2405e25d"
      },
      {
        "passId": "71",
        "signer": "0x3753a53744e5840fec433876d2A88CA783d2C9ac"
      },
      {
        "passId": "72",
        "signer": "0x4306dE8AaE6888aB4f9058d4b8D0a32003604336"
      },
      {
        "passId": "73",
        "signer": "0x002ea497682617A92bF6a7AC0c0c580b45ba3ee0"
      },
      {
        "passId": "74",
        "signer": "0x352367dEbf17fcE6c670d1b30b40a6E85FdeF243"
      },
      {
        "passId": "75",
        "signer": "0xc8822ee5644Bf3dA13C4956dE68482B29e10DF63"
      },
      {
        "passId": "76",
        "signer": "0x31e3Fe1227e61917eC4f040e6202Be3882AB63C9"
      },
      {
        "passId": "77",
        "signer": "0x91589fCA27904a68220D9E1c7b08694fa5971aF0"
      },
      {
        "passId": "78",
        "signer": "0x1019159d3a27942D17A24d2d8F343cff1E726909"
      },
      {
        "passId": "79",
        "signer": "0x4F7E1DA9f11d769C9279c4c97C9640F68C4B53bc"
      },
      {
        "passId": "80",
        "signer": "0x00F0ba7a1Dea8dB54d50CB5C826ce9bBc843D5C4"
      },
      {
        "passId": "81",
        "signer": "0x2Db096f298159339CBFF8286478857bd2b7E230e"
      },
      {
        "passId": "82",
        "signer": "0x21c12b5bbEd0c0D373fe3009877c27e42196e7c7"
      },
      {
        "passId": "83",
        "signer": "0x1d5DcaE48490F8f73362572f738f16B37aE2E941"
      },
      {
        "passId": "84",
        "signer": "0x0ac89DCAEECa47ae858C7d7214deeC21763e6215"
      },
      {
        "passId": "85",
        "signer": "0x93f2Fe2156e4F0C74513bc13673f6E7E315cC540"
      },
      {
        "passId": "86",
        "signer": "0x6B36543Ca8ea239811b3E60d31Fb1234FDD05733"
      },
      {
        "passId": "87",
        "signer": "0x2653Dee6e096471f42b5db162291c4844be8dd33"
      },
      {
        "passId": "88",
        "signer": "0x2D1A48882Dfdb289F0f04Cba7358eB77C4Fa2a5C"
      },
      {
        "passId": "89",
        "signer": "0x5A27f66a4083650fA6524Fe72fd34246747cDCd5"
      },
      {
        "passId": "90",
        "signer": "0x2af3245A78808d9cc2eb5bF5494FbcbA9B4cEbCb"
      },
      {
        "passId": "91",
        "signer": "0xeA1e3aBFe413e3845b014Bf444A1c224B95FCc5C"
      },
      {
        "passId": "92",
        "signer": "0x748cD9bbE748FF52C3F57A61cD9bd299222F6d9A"
      },
      {
        "passId": "93",
        "signer": "0x1b1b02f0AE17cD106b79aC9CE083c77DD3713362"
      },
      {
        "passId": "94",
        "signer": "0xaC90065bB75D9DA626e29aA9DA05CCEACE0f9c83"
      },
      {
        "passId": "95",
        "signer": "0x528c4d6914BB7DA2068E223452D26e8eD9811cfb"
      },
      {
        "passId": "96",
        "signer": "0x5D07bA290Ff30699cDF0Dc238a87Adad9F657080"
      },
      {
        "passId": "97",
        "signer": "0x37b7a49a505eaaA17e4071DdEF4516345C443856"
      },
      {
        "passId": "98",
        "signer": "0x1E0E6fF8Ff20869E4E958610d300f3f36dD896c4"
      },
      {
        "passId": "99",
        "signer": "0x5121A933BDEbeE0Ab77c5D933c409D16EFae8493"
      },
      {
        "passId": "100",
        "signer": "0xAa9c089eF54e252eC1CB050FA0A137D1EEf6D921"
      },
      {
        "passId": "101",
        "signer": "0x7Ec4ab3BaC0C5da74dF11225C47069D6a7950Ac5"
      },
      {
        "passId": "102",
        "signer": "0x3c2c5e6385805b0AA828b94C86920E31E42b34C0"
      },
      {
        "passId": "103",
        "signer": "0x285e16cBA2294D1E2606c28a20Cf4cFa14B4FEc5"
      },
      {
        "passId": "104",
        "signer": "0x2D1A953643c8cBC655bBf9834ED9d32C8E8Ee1E9"
      },
      {
        "passId": "105",
        "signer": "0x2B66384ED9804FC7cd93aeFa4a6D3C86237cc9a8"
      },
      {
        "passId": "106",
        "signer": "0xbe3c1e5565495BA570a1656078D11641CcD92a04"
      },
      {
        "passId": "107",
        "signer": "0x432b599B716a1c95d51b5a904088CD53B59A4EcA"
      },
      {
        "passId": "108",
        "signer": "0xa682Add0c6eE079602D2F1158966E0DCe5a5DF50"
      },
      {
        "passId": "109",
        "signer": "0x8865B419420C961587eB9FE71294bE6234a30728"
      },
      {
        "passId": "110",
        "signer": "0x00De462D39f6dEDd6F091867236c6acA52260DCD"
      },
      {
        "passId": "111",
        "signer": "0x7F45c403e8BaC15a7B578684b0f52C30E5c99243"
      },
      {
        "passId": "112",
        "signer": "0x6ad97C5d1E404e340BE9Bcd0e4b467c552538e53"
      },
      {
        "passId": "113",
        "signer": "0xD68652fA693B2BBCED8B59a2Ac2dADD304E7F368"
      },
      {
        "passId": "114",
        "signer": "0xb34481fbF783e92C109eFb85CF34e11F4e78A9a4"
      },
      {
        "passId": "115",
        "signer": "0x0573520d711F6E9F45c4C90Bb25A18b491232Ed3"
      },
      {
        "passId": "116",
        "signer": "0xB265A98Cf7cdADb46139d29A62c44BE76eF72E54"
      },
      {
        "passId": "117",
        "signer": "0x213675A786019288eD4A27A51a90D7ceeBD89eCF"
      },
      {
        "passId": "118",
        "signer": "0xc08A08A40606374511BeC59276579398eAC0D659"
      },
      {
        "passId": "119",
        "signer": "0xC7faA0f59f159560dDcB023FBaA511b85B47023F"
      },
      {
        "passId": "120",
        "signer": "0x27b1BfE52E1Dfc1Ac83DdB49b239390F59c7f0eB"
      },
      {
        "passId": "121",
        "signer": "0x8fd0B1791216765b25f0929E879026863043B691"
      },
      {
        "passId": "122",
        "signer": "0x105BD9a6c40011F205e66Eef33a9665D05430892"
      },
      {
        "passId": "123",
        "signer": "0xF4573C0C801be92cd3a8a0c9E5240F241F1db29e"
      },
      {
        "passId": "124",
        "signer": "0x21c237fcaf975a6c4D3d9517BF6a3ef022b0d61E"
      },
      {
        "passId": "125",
        "signer": "0xacB6Dc549CfdbD3a014D1eEf4C384be63FfE488C"
      },
      {
        "passId": "126",
        "signer": "0x76830bB9B89C8ddD59C479E90EC404422cec4e7f"
      },
      {
        "passId": "127",
        "signer": "0x90B81e11728De9b76a47e6D019b12fA9d2C3E7B7"
      },
      {
        "passId": "128",
        "signer": "0x7eC90904BdA060D297518a32d3eBD4ed3F1fc653"
      },
      {
        "passId": "129",
        "signer": "0x7BaB8B8006D66C4FD022D253CB9FA8DcD8af8feC"
      },
      {
        "passId": "130",
        "signer": "0x4cC21D412478d47E444EDFfaEE80eD831274AF32"
      },
      {
        "passId": "131",
        "signer": "0x57465eB012a2B07F2f4ee731F3aD03a294eA4fB7"
      },
      {
        "passId": "132",
        "signer": "0x64c7EB3f0eF39276e6Ff0C800C3d54FAF166C583"
      },
      {
        "passId": "133",
        "signer": "0x2d7f390f3e487715507A83d9E33cf5283696e346"
      },
      {
        "passId": "134",
        "signer": "0x24c4D8666EAF9A997Dd8eC8623bb21B51ea25160"
      },
      {
        "passId": "135",
        "signer": "0xcC7C1EC84D90b3e28e3C5dac3fddB12f86546c91"
      },
      {
        "passId": "136",
        "signer": "0x284a5e3740099b886293f15c1A53FDb54b426e83"
      },
      {
        "passId": "137",
        "signer": "0xAcf32A26D5a34B36954D1b5285564f32483Ddc90"
      },
      {
        "passId": "138",
        "signer": "0x49d7e9fDD39322F266C0EEA0DE5764F7dB3B1fdA"
      },
      {
        "passId": "139",
        "signer": "0x497e9bb542d3EeB562e168b254311E884Ee8e95c"
      },
      {
        "passId": "140",
        "signer": "0x01e6B7cb51fABF61E65a7c5463434903f8d427eB"
      },
      {
        "passId": "141",
        "signer": "0x4d6F865c63789516C084D5f2933980aB712e9650"
      },
      {
        "passId": "142",
        "signer": "0x2A1EB00D243340d29d617281F8e47913aFbB8671"
      },
      {
        "passId": "143",
        "signer": "0x177C24CdAe2A5e591a5F8AE82f76542133e9c0B5"
      },
      {
        "passId": "144",
        "signer": "0x706099E7EFf665Af7DC3c54b27EdE3c0B83C89A6"
      },
      {
        "passId": "145",
        "signer": "0xF2753477612e7602bB0Bf7289c94b48AF27E3673"
      },
      {
        "passId": "146",
        "signer": "0xfE4bd3Dd82B455A89df32364cc2dB3db7033DaB9"
      },
      {
        "passId": "147",
        "signer": "0x2E5d7dfE76E147a86a9E26222Df249762E7B7a95"
      },
      {
        "passId": "148",
        "signer": "0x0d2F43287fF95086BE08D0Ae8960d94f75981c03"
      },
      {
        "passId": "149",
        "signer": "0x9Ed215d36EDd4B425248732F7f79aa929F66FD93"
      },
      {
        "passId": "150",
        "signer": "0x890E587933A5F4f29506e89eB17E7a4a3cE449A5"
      },
      {
        "passId": "151",
        "signer": "0x8e9fE6C22aB50d0e9BcADEA4Ccd5F7a015a2FcC8"
      },
      {
        "passId": "152",
        "signer": "0x4F7a1362cD21029f3Bc8ff9bF3Cce1b535dF6120"
      },
      {
        "passId": "153",
        "signer": "0x77b7916b4Df25A5eA9a7766C59c48D365698ca07"
      },
      {
        "passId": "154",
        "signer": "0x438df3890C28514CdC0BEd2230E5E1F11F3c9078"
      },
      {
        "passId": "155",
        "signer": "0x717b20e5B6059ED02207675277Ae73783bAa02C2"
      },
      {
        "passId": "156",
        "signer": "0x153f96acf7815A4eF9956d306a4E5E9C089718Ae"
      },
      {
        "passId": "157",
        "signer": "0xcFEF940E3c844417f90A50D0Cfc08930522B9d35"
      },
      {
        "passId": "158",
        "signer": "0xa399A7d9a0ab62b7970e1FDF009eDdA94A779AF5"
      },
      {
        "passId": "159",
        "signer": "0x11958C838C8AfA47bd5A9D315ABb43b8C8AD4469"
      },
      {
        "passId": "160",
        "signer": "0x37334EEb370B818123FCac318B9F9BeBC31c8539"
      },
      {
        "passId": "161",
        "signer": "0x7d4c01076Ecb5b827f9C0871B40c1C06C7115B17"
      },
      {
        "passId": "162",
        "signer": "0xb0896d8C242497a712D0b7bE467B5E95262cc9e6"
      },
      {
        "passId": "163",
        "signer": "0xf241357aad045CDc044f087E9ed0B89B346AF2Ce"
      },
      {
        "passId": "164",
        "signer": "0x7820dF9844d50eE98426421e1D65d3F3f563B546"
      },
      {
        "passId": "165",
        "signer": "0x1234F21caF38f979EC0d6Eff2D9210f4664d1904"
      },
      {
        "passId": "166",
        "signer": "0xd6FF4266B838BBE379f80780260e91Fc492dF900"
      },
      {
        "passId": "167",
        "signer": "0x0C7fb8CCa6fC805E1B193eF5148dFD76cbbbFe9C"
      },
      {
        "passId": "168",
        "signer": "0xd553c53bE7F3024aAEe4159ccE45BB8a68CEdD71"
      },
      {
        "passId": "169",
        "signer": "0x03737b4577f74776eC670a967ac9d6e5Bf6746BC"
      },
      {
        "passId": "170",
        "signer": "0x27090cb3c157513C75Df2192B073E66677f6eF5E"
      },
      {
        "passId": "171",
        "signer": "0xaD3cD09aa2a21BC34df8676A01A875e60b9046b8"
      },
      {
        "passId": "172",
        "signer": "0xfc62f835bd3c3DD1Ac84c99F3565895b709e5E92"
      },
      {
        "passId": "173",
        "signer": "0xdc61c13c6aD01415BC46CF8DC0095310998dc5E7"
      },
      {
        "passId": "174",
        "signer": "0x6419F0FC2F8155574feF5bd7DCb45E94Df58D61e"
      },
      {
        "passId": "175",
        "signer": "0x60e6A8b6fCeBdbCbc28DdECb3e86F88DA3674087"
      },
      {
        "passId": "176",
        "signer": "0xAb18efBED01CFAd68259B35c37479358a8C62B9D"
      },
      {
        "passId": "177",
        "signer": "0xA259d42983cdF82A262d26FC7b74d0d0bF7dD4A0"
      },
      {
        "passId": "178",
        "signer": "0xBA370Ddc1061FC4A9989a702F3317557DE533226"
      },
      {
        "passId": "179",
        "signer": "0x81de5C2EAB12f6339d88B2877e46728FE599E008"
      },
      {
        "passId": "180",
        "signer": "0xC6104CfF0Aba3936103bE0bEA756ee37dE40EFD1"
      },
      {
        "passId": "181",
        "signer": "0xfdF364781Dcb38A458346F15e82b4BD2Fe845f64"
      },
      {
        "passId": "182",
        "signer": "0xb4C6497F667917965bd78aD32669Cfc45b29F276"
      },
      {
        "passId": "183",
        "signer": "0x6B017B3164b86652c46Dca4f59C2277cc67B805E"
      },
      {
        "passId": "184",
        "signer": "0x49d5404972C8c614537E678d4FeD25B6AfCE6A06"
      },
      {
        "passId": "185",
        "signer": "0x8C60bA5C049Ab96FF38F5e7abBA211bCCba7d7d9"
      },
      {
        "passId": "186",
        "signer": "0x63FA8545D09A39aA90048ff75f319CBA5ae33B02"
      },
      {
        "passId": "187",
        "signer": "0xC5202db3695ED1dFc40b2076a4557243d7DBbD88"
      },
      {
        "passId": "188",
        "signer": "0x5975AA14AC6a80849095276b20Fa7cc2e14cC5C9"
      },
      {
        "passId": "189",
        "signer": "0x86c4aD57141B8536731C5d91D273705839cf8fe8"
      },
      {
        "passId": "190",
        "signer": "0x6C76A773ce4C76e1F917b532D03b52CAb7698ae2"
      },
      {
        "passId": "191",
        "signer": "0x0E75190780d3f5D64CFE192F4561bc081FCCCF75"
      },
      {
        "passId": "192",
        "signer": "0xC3b888E16De475130b8e4e1b4b30E42A92cb48Ce"
      },
      {
        "passId": "193",
        "signer": "0xC508D12A72cd35dEd539FD8888845E12Aec0561D"
      },
      {
        "passId": "194",
        "signer": "0x2eBf69fcc7A4E9B2Ca7B6Cc3f42034a0Ec5c46aD"
      },
      {
        "passId": "195",
        "signer": "0xfb25B564c41dDC2798E28DFDff130a203470D547"
      },
      {
        "passId": "196",
        "signer": "0xd6a95cF885FF4461660a45c2b05f2304A716d2b6"
      },
      {
        "passId": "197",
        "signer": "0xbE08708f1880d1A86820F6B458c36afeB58624CC"
      },
      {
        "passId": "198",
        "signer": "0xD06101B90efec079b489A8ea1225a0B0E5acCd8d"
      },
      {
        "passId": "199",
        "signer": "0x77D1265767b524e6734575c4760fE1837e0F5c1C"
      },
      {
        "passId": "200",
        "signer": "0xC814AD2272a5592E65df265dD2F721CA8596415a"
      },
      {
        "passId": "201",
        "signer": "0x3c3A9e0A7ce7ed095D128ba46bf87C58eA11e959"
      },
      {
        "passId": "202",
        "signer": "0xDe13215e9F5c70e665EFc123105Ba1FF14e1b2C1"
      },
      {
        "passId": "203",
        "signer": "0x2AD2e326834858EbAe490025eD8830c9ccfEAD43"
      },
      {
        "passId": "204",
        "signer": "0x394bEdEB79E9609006AD9BCB5e9fAB3b4CFBF23B"
      },
      {
        "passId": "205",
        "signer": "0x8570008471e8284bE7647a4Fa7ceB2749Da878B1"
      },
      {
        "passId": "206",
        "signer": "0xfAc7D7515c42d518659564C3607F2B1B1c1EC971"
      },
      {
        "passId": "207",
        "signer": "0xc98e4Fc886Bb9f80be8e50C1cf98bb9607d1781e"
      },
      {
        "passId": "208",
        "signer": "0x354d87bB9B6D4C6d6775681a3b7E658A2EE799C2"
      },
      {
        "passId": "209",
        "signer": "0x30C8dB1341d3bF1CCed4f398A1442a58ad9Ceb4E"
      },
      {
        "passId": "210",
        "signer": "0xA0350f24E9EcA3076FdDbE48fF2C847A55CCE0A1"
      },
      {
        "passId": "211",
        "signer": "0x7B1D94752ED06Fd92454dC4008280D7a04872Fc8"
      },
      {
        "passId": "212",
        "signer": "0xE2FEFd5e1AE72F37150c5d3B54174CC955b40e48"
      },
      {
        "passId": "213",
        "signer": "0x222944fEa87f7D7c1af8790A48E2590aC1719ea8"
      },
      {
        "passId": "214",
        "signer": "0xb6d4B6B989e6091985DFD2a796786f8cE25a2CBE"
      },
      {
        "passId": "215",
        "signer": "0xc5e656dc42ABdaD9F24626CAE73FA14B60d64893"
      },
      {
        "passId": "216",
        "signer": "0xDd875F66b82e259D583D3b68591116EF98bb2B60"
      },
      {
        "passId": "217",
        "signer": "0x8b236cA07260C7ea30a0197f8cD79Bf62407a8a0"
      },
      {
        "passId": "218",
        "signer": "0xAccED38a6723a3c83d35A64bD5B36AAdB4B6A8A9"
      },
      {
        "passId": "219",
        "signer": "0xb7eA48DE889c67204Ae05c3885EC294daC8D2942"
      },
      {
        "passId": "220",
        "signer": "0xf2c0C3c6933e05e968169a2aB02BcE0eC90C87A7"
      },
      {
        "passId": "221",
        "signer": "0x1f8710B618055548af48A413721fDBCdc8D30f84"
      },
      {
        "passId": "222",
        "signer": "0x73Ad14E0f7c05DFAe9F5b56980c43Fdfb406983d"
      },
      {
        "passId": "223",
        "signer": "0xc7E6092becC8534E99d1f5EF76070D9AeDC79da2"
      },
      {
        "passId": "224",
        "signer": "0x822Dfd217c461698B40461dA9A10D703D86F6681"
      },
      {
        "passId": "225",
        "signer": "0x667775192A9389bF3B07BaAE5373C9f4352209e5"
      },
      {
        "passId": "226",
        "signer": "0xB3f05366f9D765264ECc83aB38C4db6E13DBd4b0"
      },
      {
        "passId": "227",
        "signer": "0xf3383FCA4F16e32D2E739FdDa3BF633F8c30d7EA"
      },
      {
        "passId": "228",
        "signer": "0x24fEdcF1DC253bBCc1E432eE6A4B64564037A2Aa"
      },
      {
        "passId": "229",
        "signer": "0x672897945C7D397a7bf5c1FB938cCDBCAc264480"
      },
      {
        "passId": "230",
        "signer": "0x6E7fa903382869B707A516b1A2a0eA3CDe624Ba7"
      },
      {
        "passId": "231",
        "signer": "0x875aF41A9550CDE98ef9EBA76B3232271f75DE16"
      },
      {
        "passId": "232",
        "signer": "0x9943E849709df2BB36aDC6DE071691d616167F65"
      },
      {
        "passId": "233",
        "signer": "0xd8D03Cd7B487A47A30A30193ef14eA3798cd62A5"
      },
      {
        "passId": "234",
        "signer": "0x5A720BdAFF7FF9C5393D5140062e21A6fE90E3f0"
      },
      {
        "passId": "235",
        "signer": "0x77F4630e6079d9a674841bA339dcD012d88d7e12"
      },
      {
        "passId": "236",
        "signer": "0x828E92360299e519EF412595d7c0b6b83E10E251"
      },
      {
        "passId": "237",
        "signer": "0x867964341C8E6a19824C9f2032a2BC2449FDF8FA"
      },
      {
        "passId": "238",
        "signer": "0x882B1565f2580a942a6cD84fAF2E02a584b2dfeb"
      },
      {
        "passId": "239",
        "signer": "0x782d5FeD1A0a7Bc0817BDb2e88f29a0793753E4D"
      },
      {
        "passId": "240",
        "signer": "0xB8B5b302E1f779485eb4Eae9ED6c8Cd3A1e53D87"
      },
      {
        "passId": "241",
        "signer": "0x1B48AB3F8799a944D874670cDf523dF9AB4742D3"
      },
      {
        "passId": "242",
        "signer": "0x110564D43b7B14bAdc91B2f47C2fbFf718A50Fd9"
      },
      {
        "passId": "243",
        "signer": "0xcEDBEF8E3Acc9918aF3Fa1ca1215b4dA9C97128f"
      },
      {
        "passId": "244",
        "signer": "0x2Cd6410fC560b8162F98FCF81204940783663ea7"
      },
      {
        "passId": "245",
        "signer": "0x3C7736DBD906aD5Aac1DA6C45E92A3769F434050"
      },
      {
        "passId": "246",
        "signer": "0xC3aa50260C250135F5984a0B1e7CF05649FCb5b7"
      },
      {
        "passId": "247",
        "signer": "0x0486B006Df6ADDd880F9759b5AA848412dD6Cad8"
      },
      {
        "passId": "248",
        "signer": "0xac4e5d03326aafA78eB75421EA64c815C611A7dd"
      },
      {
        "passId": "249",
        "signer": "0x9c65aC023985F5Ed8648F8E1Fa250bB3EE3000ED"
      },
      {
        "passId": "250",
        "signer": "0xB45d13D12fecEBF3b3fe8be7Aee2D3C47c15B854"
      },
      {
        "passId": "251",
        "signer": "0x9AB2EE5eE07065a6Cdd0cD7191F3619f28cf5293"
      },
      {
        "passId": "252",
        "signer": "0xdA331f6A8fa0d8f4c872CF95fc5Abd46Df70DE91"
      },
      {
        "passId": "253",
        "signer": "0xC740C93b6A47d3CF90562A6b8667a2830Db7136E"
      },
      {
        "passId": "254",
        "signer": "0x9095e4F6C3402A5B576c5FcF500269c364603FBc"
      },
      {
        "passId": "255",
        "signer": "0x4bf3ff604e5124b4E1cfb6Ea42DA78875F1909Fe"
      },
      {
        "passId": "256",
        "signer": "0x92ddE1Fcb9f5bCCA03360A1866b053383C94B2a0"
      },
      {
        "passId": "257",
        "signer": "0x5854106206E7F1dD06Ee6D8aE8E4700E292F55b5"
      },
      {
        "passId": "258",
        "signer": "0x8340a56eA239bc3e0657370D67c05deDce31C4aF"
      },
      {
        "passId": "259",
        "signer": "0x20f0A8757d8De0fb48d29E6e146aD3513558cd4E"
      },
      {
        "passId": "260",
        "signer": "0x99BD6875009dd2289ff02fA6Cc931ebF269090D2"
      },
      {
        "passId": "261",
        "signer": "0xeBD66c45061B7D0B4eF33BA6D875EF12359fFF6E"
      },
      {
        "passId": "262",
        "signer": "0xF5EB672C7b9edc2d9a750b0cfE241cee09b0F97B"
      },
      {
        "passId": "263",
        "signer": "0x364650F0Bf2353cc32474b9A94a20a2e0A7d70d9"
      },
      {
        "passId": "264",
        "signer": "0x34c9B95229f2B325Aa8c473DbF0Ccddd2D729E5E"
      },
      {
        "passId": "265",
        "signer": "0x2ED83a50F2A0f335F997b6E9176E42BA58A6F36b"
      },
      {
        "passId": "266",
        "signer": "0x47fb6cF6b7937512993A119E72096eD6C33f380f"
      },
      {
        "passId": "267",
        "signer": "0x66D34b79E51a6E742c3277fD03cbF29485afcF1B"
      },
      {
        "passId": "268",
        "signer": "0xF79582b5E6b20e3Aa4bfe6506fCD85df18e993A0"
      },
      {
        "passId": "269",
        "signer": "0x393CaD2EBf02eeFC0d88AD1eCBCd8C1C4b15da08"
      },
      {
        "passId": "270",
        "signer": "0x5A094A8c796f934bEB385748dc99b3C275cb8c95"
      },
      {
        "passId": "271",
        "signer": "0x41e07d39c706ec169963f26E2C9BD3C6f0D0c3B2"
      },
      {
        "passId": "272",
        "signer": "0x3A892139647ff08afDefcd23A0f7AA1AA21EeFa7"
      },
      {
        "passId": "273",
        "signer": "0x7D3249DAa65cF2A87e4e5c7755EAc5d543aD3B09"
      },
      {
        "passId": "274",
        "signer": "0x6bA4618e8f4DF16a1f4825691E977d6E303f7a58"
      },
      {
        "passId": "275",
        "signer": "0x74D95BEdAf833567EBb8Ef74dE1e478481a03407"
      },
      {
        "passId": "276",
        "signer": "0x1A72aA343c18b02A8C1F3245C9BFc1bb66e78C56"
      },
      {
        "passId": "277",
        "signer": "0xB42Ca6f52847c98c6EcCe38d9A74E4C09E275eA2"
      },
      {
        "passId": "278",
        "signer": "0xd01fEaa197175955144DAEFfa7777271dC78c205"
      },
      {
        "passId": "279",
        "signer": "0xe249Ac268A87ba230d33bE40845aD666e4af2F1E"
      },
      {
        "passId": "280",
        "signer": "0xDBB9B15E6D5e44B9351c524B46d94Be4fC3Dd8Bc"
      },
      {
        "passId": "281",
        "signer": "0x6d655358d289fCE09029629aBB328523F22F3573"
      },
      {
        "passId": "282",
        "signer": "0x097F5052C4E5E679bAc741875E28cC87Dd2f92DC"
      },
      {
        "passId": "283",
        "signer": "0xc7AFAB466788589600FE8F22d978CCcC48A457E1"
      },
      {
        "passId": "284",
        "signer": "0xB1D03100B5AE26554a11163698790e53080F9E01"
      },
      {
        "passId": "285",
        "signer": "0x84d6d891BDfF2C121fA3cD534713645FE275f7e6"
      },
      {
        "passId": "286",
        "signer": "0x45d3a07850416f2c506e86de0C345fb9344128C2"
      },
      {
        "passId": "287",
        "signer": "0xf052377ef6B5017Cc00e695fd29575c7bE9800D8"
      },
      {
        "passId": "288",
        "signer": "0x3d5139b8Be000D8B0C2e46B0051D08F82448490B"
      },
      {
        "passId": "289",
        "signer": "0x6EdE94aD828E09595A3959681d682dc12F6e3Eb5"
      },
      {
        "passId": "290",
        "signer": "0x52036F695904d9bedA121CE5fE89d275dB364E48"
      },
      {
        "passId": "291",
        "signer": "0x831Ae369e795652bd38222b96323C4d22189C088"
      },
      {
        "passId": "292",
        "signer": "0x836601ec7aD8B3220585317d7Bdf7DeECeDb43cA"
      },
      {
        "passId": "293",
        "signer": "0x0BB5ed4046388a291134f286D865b403d12c6960"
      },
      {
        "passId": "294",
        "signer": "0x8d19E3577da7f944BebAca28ea8e2D7918ba2453"
      },
      {
        "passId": "295",
        "signer": "0xB471aEd506DA9FbbE79EcB67B9dB873388B98864"
      },
      {
        "passId": "296",
        "signer": "0xf6F75b7022aA2BdAfc9F9c62227689a6a14d1F94"
      },
      {
        "passId": "297",
        "signer": "0x61cdb1A94E6610E22fc244859ca0CCFe9E48A1aa"
      },
      {
        "passId": "298",
        "signer": "0xd66e24bDA9aa5666bADF0995D62e79e20F49c761"
      },
      {
        "passId": "299",
        "signer": "0x2F46604B646a5BBE2a0726A5422528d042b5A1E1"
      },
      {
        "passId": "300",
        "signer": "0x74822946B753a122F5eAb3d3be44187F51dD4D3e"
      },
      {
        "passId": "301",
        "signer": "0xE977e4b4EeDd4aa21C31B4F595337BFd1606263c"
      },
      {
        "passId": "302",
        "signer": "0x4cc09Ef21CFE11228606673dD05b00d95b316154"
      },
      {
        "passId": "303",
        "signer": "0xa234f91a67a0f6d3AEA85E5562F1d3f4c282fED5"
      },
      {
        "passId": "304",
        "signer": "0x519e6175199c90d4D06Fd85ed937A70785D02048"
      },
      {
        "passId": "305",
        "signer": "0xd25F835A07f618BA5fDE69E167A2d57488B6d81a"
      },
      {
        "passId": "306",
        "signer": "0x441702258e3822842599Ff6a8D56b5bc8BFbFF25"
      },
      {
        "passId": "307",
        "signer": "0x7860274a05A0a32E35B4fE487edC5592779DBB81"
      },
      {
        "passId": "308",
        "signer": "0x7df5C7E2A4F35509483Aa9bCBaba8b027Be18529"
      },
      {
        "passId": "309",
        "signer": "0xf959fF8d1132a5F9eEEe979adCC7AB628d2C059a"
      },
      {
        "passId": "310",
        "signer": "0xfB826e1b80210791BC50345844DD3bA4f83bc1F6"
      },
      {
        "passId": "311",
        "signer": "0x50d902e16E5d840Ce746E76Ce85D62AcBFc3E437"
      },
      {
        "passId": "312",
        "signer": "0xabfBedbB237d30c40Db3E5134645eb1f24644AFD"
      },
      {
        "passId": "313",
        "signer": "0x6a6F5a5e9e6CC15494f5BCc9B5a0F10e9ac00268"
      },
      {
        "passId": "314",
        "signer": "0x1e91B5ddC22edADB8a22F84104c710f462D329Dc"
      },
      {
        "passId": "315",
        "signer": "0xfA39e61969C3fc3fB8Cf369F855dc48a7eE5104B"
      },
      {
        "passId": "316",
        "signer": "0x2f1fCc826e8eBE5324efFc5f3Ae56Fe5fB7e3De9"
      },
      {
        "passId": "317",
        "signer": "0xBC0425C54e727F00ea7e3c273aA8A23F3BDD2D53"
      },
      {
        "passId": "318",
        "signer": "0x4fEE81aC104e8f32dCE8F0607fDb2Aadd6Ad7A81"
      },
      {
        "passId": "319",
        "signer": "0x28bed13cc5657c9F36572cC610bF734a242975Eb"
      },
      {
        "passId": "320",
        "signer": "0x16205b7F7809A94cbD2BcAE64A31f7625e454FA1"
      },
      {
        "passId": "321",
        "signer": "0xF8acea2e907f14Dd16664843AD673fE5f07bf123"
      },
      {
        "passId": "322",
        "signer": "0xe9817f9Af480cc3F27d8076A5AE5f9CC4853EfDD"
      },
      {
        "passId": "323",
        "signer": "0x7044845c9A7e88179ec6E0970aFdB402cafC4795"
      },
      {
        "passId": "324",
        "signer": "0x4550BEB0698326b43f6B129dfFA3ee23eEA88FA5"
      },
      {
        "passId": "325",
        "signer": "0x6571d9D14ef227b84f42377c87c1741A6c844f4c"
      },
      {
        "passId": "326",
        "signer": "0xE422b5146a74A7d9F7154fdc85b31d7db3F8BaaE"
      },
      {
        "passId": "327",
        "signer": "0x3018A86eFB780C3c3c23993aD19Cc3ec381AE638"
      },
      {
        "passId": "328",
        "signer": "0xBa092C316AB8054753eBC75A1e24C08d9Fe77DAf"
      },
      {
        "passId": "329",
        "signer": "0xEB787b0b7092Ffb4d5bb47efAE7af4dF9Ec10856"
      },
      {
        "passId": "330",
        "signer": "0x275dd24A6e0759CD321Af259B51F8b855f9c507c"
      },
      {
        "passId": "331",
        "signer": "0xF28eB0045Cb33c1E4DFeFc908275b9D130BA940D"
      },
      {
        "passId": "332",
        "signer": "0x5b58320812CAe8aC8C0959372242AEb82e3a1038"
      },
      {
        "passId": "333",
        "signer": "0xEac2ab5b95c59CB2902d6881F89F6453ED191DCd"
      },
      {
        "passId": "334",
        "signer": "0x89d6cbaa15dbAbe3361e62777362A9cb95fE2FE6"
      },
      {
        "passId": "335",
        "signer": "0x8D5ea373aBF33867830e838C2147AAC8fA266fD5"
      },
      {
        "passId": "336",
        "signer": "0x1a8f07cCC50BC3dC9B2c60dC7C58C5CfEAC7537f"
      },
      {
        "passId": "337",
        "signer": "0x650487c5E16A9E7f826844fF6C01CCe68C40de39"
      },
      {
        "passId": "338",
        "signer": "0x402923ea3F35BC27F1CD2cbFb02320c940968324"
      },
      {
        "passId": "339",
        "signer": "0xF08E80092dBc685FDF8d04253696475F483276b5"
      },
      {
        "passId": "340",
        "signer": "0x185649b09181Bf99479A9D7C475D8F253B70DA48"
      },
      {
        "passId": "341",
        "signer": "0xFa7671e6d61A5e4160ECB7b8Fe13A81dAD8a2A52"
      },
      {
        "passId": "342",
        "signer": "0xE555F9D1B3ace19bB576438F572447259001BAA9"
      },
      {
        "passId": "343",
        "signer": "0x971FDd35c9Ffad88Ba3b948F70f138bA7569152A"
      },
      {
        "passId": "344",
        "signer": "0xFB804BEa10F9e675112Fb7d9b16F6854cE44543c"
      },
      {
        "passId": "345",
        "signer": "0xbE6962155af137D19a809d61B221BE59c583102c"
      },
      {
        "passId": "346",
        "signer": "0x80114f666581F348AF9B30242d610D9A8ABfb5FD"
      },
      {
        "passId": "347",
        "signer": "0x32934c5087aC73E03d8E14Ea7012257Ace9098Db"
      },
      {
        "passId": "348",
        "signer": "0xf7aF11350Eb666Ac40b245c2220fB02D60e3b695"
      },
      {
        "passId": "349",
        "signer": "0xbC05f08a7130e4dC7A656e4fACF6cb65a705eA02"
      },
      {
        "passId": "350",
        "signer": "0x93eD486AAacE58137ac1319Be71d870bEfA5214f"
      },
      {
        "passId": "351",
        "signer": "0xB497987e995dfb944937bd9a2F3FB2e5566cC28B"
      },
      {
        "passId": "352",
        "signer": "0x42dfdC050e7F358b45FB1d1142b6119fee3a9208"
      },
      {
        "passId": "353",
        "signer": "0x376e383607faF1fD55cc67523F38B46F3D554e89"
      },
      {
        "passId": "354",
        "signer": "0xc71706d077D4170e81e6e8c34E1803DCaafC3424"
      },
      {
        "passId": "355",
        "signer": "0x7264C953455cdc95eD843780bcE83c6E65e8AcbF"
      },
      {
        "passId": "356",
        "signer": "0x972eB0e466158de1e48532208179CeA2a486B03f"
      },
      {
        "passId": "357",
        "signer": "0x0807048154389CEfc88Fd6789f2243666B793e95"
      },
      {
        "passId": "358",
        "signer": "0x6910812E165a9C5e44dE71C29982FD2743939dFe"
      },
      {
        "passId": "359",
        "signer": "0x5252716ec9529529845Dc77CCfa0880DC708cBE0"
      },
      {
        "passId": "360",
        "signer": "0xe793AD7a4e806b66e6a3b6aF94fF7c04CB20477B"
      },
      {
        "passId": "361",
        "signer": "0x5bdc38aa666F542c21089824a9F7CBdb2b7c9Fea"
      },
      {
        "passId": "362",
        "signer": "0xED14DE426c0029C24f1B621a66C1B332B605b9b3"
      },
      {
        "passId": "363",
        "signer": "0xeFdADe420639643B85270A3b77e39B8C24763aB4"
      },
      {
        "passId": "364",
        "signer": "0x0639a6612A108E4b22C2F67E5ea3feAE8dEFF0f7"
      },
      {
        "passId": "365",
        "signer": "0x90613D077A3C1eA37F8558962341C95956cf56B3"
      },
      {
        "passId": "366",
        "signer": "0xCD45Af0bcF743d4A6d5288B05767a9513214DDa6"
      },
      {
        "passId": "367",
        "signer": "0x10a2714c8B0C42A1d8ABa0E5f5957F0D0D997bDE"
      },
      {
        "passId": "368",
        "signer": "0x0945AB8126577da5C4C8C6dFc10D075a69B1D9a9"
      },
      {
        "passId": "369",
        "signer": "0x528b36daee2109da0116A5cB8aDa64A3a7208484"
      },
      {
        "passId": "370",
        "signer": "0xB327E7f536E47F98034e66a2F530302Aa0cB5371"
      },
      {
        "passId": "371",
        "signer": "0xdD7886BAbf516f9fe09b8fdFf0620BF280Eab2Df"
      },
      {
        "passId": "372",
        "signer": "0xea9254eD3f09E515F6Efe30470c14042b51A033e"
      },
      {
        "passId": "373",
        "signer": "0x3eC9114981290714e0888aecb924366B53a6251a"
      },
      {
        "passId": "374",
        "signer": "0x49BdB281064eec14C067b69b907282274347e5C5"
      },
      {
        "passId": "375",
        "signer": "0x12a6751A41eA2C668DDC27bDb73f136740601Bdf"
      },
      {
        "passId": "376",
        "signer": "0xEC69B65cedbBc7eF1569FB8Ac78300061e008516"
      },
      {
        "passId": "377",
        "signer": "0x4Cb296350B5a8dc376BA3e08171e6358f2CC62d1"
      },
      {
        "passId": "378",
        "signer": "0x34ab664DADb3538bbc97b0A95EE266999b744827"
      },
      {
        "passId": "379",
        "signer": "0xE1a5C75c3fe06008ceeb4543fd14c60ed2c780f6"
      },
      {
        "passId": "380",
        "signer": "0xa53849E2287e7db1AdC3f8c4CDAccc98E60fF5eb"
      },
      {
        "passId": "381",
        "signer": "0x50eBa84cd81dCe764aE1237B7657eC986A11974E"
      },
      {
        "passId": "382",
        "signer": "0x322f1796C237e098F4C64a6626Efc9167083335E"
      },
      {
        "passId": "383",
        "signer": "0x19319aB149C2e98F1A5510e65a99CAd0c7785ed7"
      },
      {
        "passId": "384",
        "signer": "0x6f2Fca8Cc24a7b9d426a5F0a7D11B05B33dca522"
      },
      {
        "passId": "385",
        "signer": "0x88d2876E293a6E71C2ea8FCCaAeB60D295Fc64Ee"
      },
      {
        "passId": "386",
        "signer": "0x03ba3627683cc088Bf7CA12842b7014bF7a2D41f"
      },
      {
        "passId": "387",
        "signer": "0xaE3ef119CBAF0dd7A94150aCDe476Fd00844913e"
      },
      {
        "passId": "388",
        "signer": "0xFE3E491DaE55e5e55b247775BfD7d4076831cC41"
      },
      {
        "passId": "389",
        "signer": "0x20846dafa40d136d9c208c757402DBc2d13f4AeE"
      },
      {
        "passId": "390",
        "signer": "0x1c8A590566F7b0a3864532dcbdf71B063cf38673"
      },
      {
        "passId": "391",
        "signer": "0x70642065DcFED97F0E5f38cbb3EcdCc72c172955"
      },
      {
        "passId": "392",
        "signer": "0x43c4aC60161e6E7Ce4D729A9E8060144e3d314fD"
      },
      {
        "passId": "393",
        "signer": "0x3D9E26675E59244355c8DFC9d164CBC64Ed5d974"
      },
      {
        "passId": "394",
        "signer": "0xe2807e9165242b534b75F5328Adce8101c511f26"
      },
      {
        "passId": "395",
        "signer": "0x5e8B42606624912009d2CF8789c1DE9009E79b47"
      },
      {
        "passId": "396",
        "signer": "0x4Ca20596e4a8aE825aB7A60A6091d3Bb551AfE9B"
      },
      {
        "passId": "397",
        "signer": "0xF714e082f7F9a861A4A1f9aE8Ce4A5380179Dcde"
      },
      {
        "passId": "398",
        "signer": "0xA2d8B8ee4035e1c8c4E3F1A32c7293e61C85F3c1"
      },
      {
        "passId": "399",
        "signer": "0xE09302225131cDB2F99E7d2F7737Ef753b933C77"
      },
      {
        "passId": "400",
        "signer": "0x8d5449A7341fDc1DC4D191BF0ECCAB27E7676D51"
      },
      {
        "passId": "401",
        "signer": "0x9EEc0Bd4cF4a14a78c221eD5d9DfD6Cbb871360b"
      },
      {
        "passId": "402",
        "signer": "0xD2EF3B9DbFABedC8FaD9dAB0A373195FEDF8BDaA"
      },
      {
        "passId": "403",
        "signer": "0x0De3cF8595C099e198d754aE6436149749292Ec8"
      },
      {
        "passId": "404",
        "signer": "0x539e3075191ca262e1AD0d2aC97e3aD994B90d42"
      },
      {
        "passId": "405",
        "signer": "0xcB3479c211Ab6Bc5d56c6B66CD6981cEF21EA028"
      },
      {
        "passId": "406",
        "signer": "0xA68d9AA05D113B800b7e4aa49EEfb8E311131B69"
      },
      {
        "passId": "407",
        "signer": "0xB1335EbC82a58F39DA2b9b6Dd0D832b29544119c"
      },
      {
        "passId": "408",
        "signer": "0x78584E7C466486cDa0d2b5A842e588A4AeF1c5eD"
      },
      {
        "passId": "409",
        "signer": "0x59d7e4a09850433CFeB9AD250c0cA0b9A251006d"
      },
      {
        "passId": "410",
        "signer": "0x9e447B25858C3b41D126C31A08bc94c905C87558"
      },
      {
        "passId": "411",
        "signer": "0xE0c074b6B57152D9E8891c3c7356A8e22Ea72A4E"
      },
      {
        "passId": "412",
        "signer": "0x004A514BBF9c5da157dcC2d204c036184088a911"
      },
      {
        "passId": "413",
        "signer": "0x68D7ab5A27d87375984d3ccA94f225903610277F"
      },
      {
        "passId": "414",
        "signer": "0xaC35216bC8C6F43baeAB76ff4Adb31B5D526165a"
      },
      {
        "passId": "415",
        "signer": "0xfCA18B7862e9085025c11c22D7077D188fdD08b5"
      },
      {
        "passId": "416",
        "signer": "0xC64Ece9dE9f5e4dfE32c28d6AAd3eC01d5FC5284"
      },
      {
        "passId": "417",
        "signer": "0x62bffAF96f53d0Ee4CA743C6C4cCd69A429a4A78"
      },
      {
        "passId": "418",
        "signer": "0x0eeD59C4188606C8Df218D702c5267A3775D826D"
      },
      {
        "passId": "419",
        "signer": "0x12C5762b2a05F4aa96cC010490A800cE5842a0C6"
      },
      {
        "passId": "420",
        "signer": "0x5F5BEF8f8dA1F018A73904885CF764075F4cc4fF"
      },
      {
        "passId": "421",
        "signer": "0xc80163B7311f910E2a0E72f949bb41b2eDbFA032"
      },
      {
        "passId": "422",
        "signer": "0xDda5a656e8d9304324b0Bd2222294E9099a336e9"
      },
      {
        "passId": "423",
        "signer": "0x73856A7694099b7e835ef0109a427E35EF18eCf1"
      },
      {
        "passId": "424",
        "signer": "0x1A360d36231A13A62969A29a818B260e39F4FE44"
      },
      {
        "passId": "425",
        "signer": "0xfCb42f0a75FCF56830A5B7B8F21008877e6dF57E"
      },
      {
        "passId": "426",
        "signer": "0xd6724B6A9C0DcAF50A36932b920148a68B7b75eB"
      },
      {
        "passId": "427",
        "signer": "0x82a6760aa277c8f88648443c6Ff43BcA0AE913A0"
      },
      {
        "passId": "428",
        "signer": "0x34F4bAbD342239c4a1a85663b3364295E8b29449"
      },
      {
        "passId": "429",
        "signer": "0x93c846cE677E07A96D11FaF0A9bd3deC4552185E"
      },
      {
        "passId": "430",
        "signer": "0x06AA79E771bd77c09507C3bAb2ED894ff6D578f1"
      },
      {
        "passId": "431",
        "signer": "0x7CA977324450fB08168d159A61e301a5EDDf35aD"
      },
      {
        "passId": "432",
        "signer": "0xD14096c531525B62580E6ac9594A9fbCceCbFDA2"
      },
      {
        "passId": "433",
        "signer": "0xD35Fcd46A4FCe9BE166461d08Dc41bc928a11bA2"
      },
      {
        "passId": "434",
        "signer": "0x0cc5dD4dC877800911839f7F9f5c4aa3F471b4C3"
      },
      {
        "passId": "435",
        "signer": "0xE25B7BEe9DA2b27474478D3B920BD908CaeC663E"
      },
      {
        "passId": "436",
        "signer": "0x641578e78448DEC4959FD94E038736E5EC64744D"
      },
      {
        "passId": "437",
        "signer": "0x6F9e443a6c27a17f45c3cF474B6C353aFa9fb6bc"
      },
      {
        "passId": "438",
        "signer": "0xc41a692d52809b17d030CFB173f3d100960a3887"
      },
      {
        "passId": "439",
        "signer": "0xF68a8D19591f4519F2c9d91cB986913F72d89ef6"
      },
      {
        "passId": "440",
        "signer": "0x010752C7B1726270FdB570FbFD7A8634bBF5475d"
      },
      {
        "passId": "441",
        "signer": "0xAF15c9B9745Be9a0D1d9Eba4a0f3070e97f1553f"
      },
      {
        "passId": "442",
        "signer": "0x500B33f8aB9d25ffbA899Be756c35447A6932de6"
      },
      {
        "passId": "443",
        "signer": "0xBaDd1c184D4c332C063603cDea29C2fbB65e75A7"
      },
      {
        "passId": "444",
        "signer": "0xe05B9CD992C5E8B086521600d9143c990422b3f9"
      },
      {
        "passId": "445",
        "signer": "0x39456bF0bac048a50fD787abd9dF8c14a79Ba2dD"
      },
      {
        "passId": "446",
        "signer": "0x7b16Fd970FDA5DD887a630eB8690d77a53D71c91"
      },
      {
        "passId": "447",
        "signer": "0x0e69FB237deD81bE611e952DcEE6934A55b17F9f"
      },
      {
        "passId": "448",
        "signer": "0x76A2c0db0691F6251f57767D03d3A715F9C6a9F2"
      },
      {
        "passId": "449",
        "signer": "0x0357F028E660FB1242d0F45871729507b341e3a9"
      },
      {
        "passId": "450",
        "signer": "0x139FA461869587Ff75732688998Cf67457894069"
      },
      {
        "passId": "451",
        "signer": "0x0EAC175466Fb8d900f40b2893BC1f203E702Bb3A"
      },
      {
        "passId": "452",
        "signer": "0x15bA7de4cA5c1d766b7d3B8AB57A14429aF4F8AE"
      },
      {
        "passId": "453",
        "signer": "0x29d09E37a2687aacD7AFDA7FebbdE49FCDcA53dD"
      },
      {
        "passId": "454",
        "signer": "0x156710838Ba0a35AA77fF48416dD5eF056dE09e2"
      },
      {
        "passId": "455",
        "signer": "0x156a3024baaB2B9404416D6d26d5ed074006Cae7"
      },
      {
        "passId": "456",
        "signer": "0x3796aA4BcE2B25eF3170C89F137bF1F44B5888E4"
      },
      {
        "passId": "457",
        "signer": "0xA0e42249dF54604373942A3b6C0478CbAd065258"
      },
      {
        "passId": "458",
        "signer": "0x0703ff786B29c07FB60C769B5ce8927488638Aa1"
      },
      {
        "passId": "459",
        "signer": "0x391aE9A7b9e6bA396F839a577c3A4b5D830aB793"
      },
      {
        "passId": "460",
        "signer": "0x6Fc4d80001069bd9729E9076Fbd7c80A22332A78"
      },
      {
        "passId": "461",
        "signer": "0x7876d03E612ff6b31bDC10cF08712ad84a710326"
      },
      {
        "passId": "462",
        "signer": "0xE98e2294e495188c199EeF01dD73879eDD9cE8B5"
      },
      {
        "passId": "463",
        "signer": "0x97Fe7e8E559AD2176ba0bfafF0Cd426D983e2A31"
      },
      {
        "passId": "464",
        "signer": "0x9a666951a60C7786452031F634f9B211904aa6D7"
      },
      {
        "passId": "465",
        "signer": "0xb4222329d281F9E610d5C2Db7406f39A58B6fd4E"
      },
      {
        "passId": "466",
        "signer": "0x845Be065b0056A639FDA25513C96CDaCdec41a15"
      },
      {
        "passId": "467",
        "signer": "0xdaa5FA41414D2256a0637059Fe9dBd4082bF8193"
      },
      {
        "passId": "468",
        "signer": "0x43C9126159d129177A165e3fF74f1F481ba34db3"
      },
      {
        "passId": "469",
        "signer": "0x4fE070c822330B79c783D4716cfdEAf3307a56ff"
      },
      {
        "passId": "470",
        "signer": "0xC9E63494CC9613b5Ebf4Ed173826c2E6365c04fD"
      },
      {
        "passId": "471",
        "signer": "0xdb9251Ec9dE6DA9d8e98583AB21bB869b21602d1"
      },
      {
        "passId": "472",
        "signer": "0x7b032D081d108F425b9ce510642C200E6431B04e"
      },
      {
        "passId": "473",
        "signer": "0xB8A131BF826DD4B69D8b829fB7a584C606cBDb96"
      },
      {
        "passId": "474",
        "signer": "0x6B7ecc4bD2C9AB1aA49455a470649d465E9d23fA"
      },
      {
        "passId": "475",
        "signer": "0x26055891768bc69AA0234256b7a3c6912465706D"
      },
      {
        "passId": "476",
        "signer": "0xF08CE349c972847E36cE4E9Da60dCbdfA666468D"
      },
      {
        "passId": "477",
        "signer": "0xd6C894c4AEd816a47376D4F946802DA488d69e9f"
      },
      {
        "passId": "478",
        "signer": "0x52a79E7FF626c82183a46A1166bE91FdD31fe78A"
      },
      {
        "passId": "479",
        "signer": "0xBB3651aab18A99b929703A1aaA21f778F6f6C4bd"
      },
      {
        "passId": "480",
        "signer": "0x301D57923d2A2f395776843109013c83a6A4935A"
      },
      {
        "passId": "481",
        "signer": "0xcBee3543e0bEbA0B7e7430103b7cC868328653A8"
      },
      {
        "passId": "482",
        "signer": "0xc40B254561CfC2113F1B824c205E299b4F41c83B"
      },
      {
        "passId": "483",
        "signer": "0x9fDc0C2201400d8d4D198e7231876633B78f265d"
      },
      {
        "passId": "484",
        "signer": "0xCf00d7313BF60eC449c8d2c72C1A2ADE87218D18"
      },
      {
        "passId": "485",
        "signer": "0x2766E742ac7304EDFF341bDe46C6C1dbe9dED685"
      },
      {
        "passId": "486",
        "signer": "0x5755C5256F55efa73b065404818c5136a63cC275"
      },
      {
        "passId": "487",
        "signer": "0x63509F61ED304D1F71Db43DA065d219d38E1ADAe"
      },
      {
        "passId": "488",
        "signer": "0x5F1E46d24310303c503142ceD130934B24F1BC8E"
      },
      {
        "passId": "489",
        "signer": "0xFe18d181843ae76f1b6a236A1acBcd90F5D2D817"
      },
      {
        "passId": "490",
        "signer": "0x9A79018dFc587237a2A2fED5c37EFF66AF3f87d8"
      },
      {
        "passId": "491",
        "signer": "0x29A81D2EAE600D8AA89BadF9368bac8b35c97bd7"
      },
      {
        "passId": "492",
        "signer": "0xb3688c6F7235D443832E75812868817Ca6F05b01"
      },
      {
        "passId": "493",
        "signer": "0x4022d06Cdfb50353963D1A9eEccfBE699c9CFDfD"
      },
      {
        "passId": "494",
        "signer": "0xcB54aaC719e24AC3554879b44d51d26293AEd512"
      },
      {
        "passId": "495",
        "signer": "0xE5E2e6f94E08eA9c38da747aCbe90D2cEC3016dD"
      },
      {
        "passId": "496",
        "signer": "0x132f93fe1BC70a54cd984F577642A1eb197C0A4d"
      },
      {
        "passId": "497",
        "signer": "0x71c2f79792Eb2A1e91627fdC86a99f1eDC99c3b0"
      },
      {
        "passId": "498",
        "signer": "0x211E79386cbCBdcF51667d3b99BF25a4864aE38e"
      },
      {
        "passId": "499",
        "signer": "0x2D89b94845ded699598b9e19D3e180e0CDB1b314"
      },
      {
        "passId": "500",
        "signer": "0x5BBC616779b5375F28c71ffD094636d1943f18ca"
      },
      {
        "passId": "501",
        "signer": "0x7933d449A1325906000249300D26989fbF7A9890"
      },
      {
        "passId": "502",
        "signer": "0xfbaEdDF893cC36bbE5047CDe1A2fE8F03d8c4263"
      },
      {
        "passId": "503",
        "signer": "0x1bBF38C123EB146040B0d22145765af68c6E6097"
      },
      {
        "passId": "504",
        "signer": "0x07f640E33a9c31125C9c039Df6C37D7c17E4BfF2"
      },
      {
        "passId": "505",
        "signer": "0xb42dEBE93e4537d6AFfb15BF3D8e9d9EBcB7F0b1"
      },
      {
        "passId": "506",
        "signer": "0x666DB1d09850B2653a67b66c15F9e1808939834A"
      },
      {
        "passId": "507",
        "signer": "0x3ea0922a4e9a13335ac3409bE95eE5e26258b73f"
      },
      {
        "passId": "508",
        "signer": "0xcde95D240059ecfbe2c9CCf9b7ee3E7aeEC8b69a"
      },
      {
        "passId": "509",
        "signer": "0x95C768eD3543d7FC6Da119F1e6587C370c98f55b"
      },
      {
        "passId": "510",
        "signer": "0xDe057AEdD20b24767266A43aEAb36B32D0D8D2bf"
      },
      {
        "passId": "511",
        "signer": "0x468d71388F6c81aa12863874f693b44d30Bbb4bc"
      },
      {
        "passId": "512",
        "signer": "0x329e81C21c985F271bAEc9EFA14a07f987Ce3C51"
      },
      {
        "passId": "513",
        "signer": "0xd3E7a3c2B6D07B2Ba34CcDf5d53BBc76a4aE95fB"
      },
      {
        "passId": "514",
        "signer": "0x964Cdb1285498DA3A903f689d35A459DB955862d"
      },
      {
        "passId": "515",
        "signer": "0xf99FEdD14507B23584F16BA74F69698513b70CcD"
      },
      {
        "passId": "516",
        "signer": "0x3ac87A6e882E1a5ee0945Daf61B82ACca106EB73"
      },
      {
        "passId": "517",
        "signer": "0x63109CCC494998261337e76ec6D435De895BaeFf"
      },
      {
        "passId": "518",
        "signer": "0x002A75C3F397f32d94763Ca1Be7c7A6aBf1C6998"
      },
      {
        "passId": "519",
        "signer": "0x1E1F65D3493d8146867E0a442f78795a1084ea6F"
      },
      {
        "passId": "520",
        "signer": "0xD9b82297744B4514C987431f2cF4c9767c2EF921"
      },
      {
        "passId": "521",
        "signer": "0x7de31e18a2FE6A50167987a227a8A32ACD0cBEfD"
      },
      {
        "passId": "522",
        "signer": "0x2e044a43323369a09Ea43B4029F7A8fc3b54abd3"
      },
      {
        "passId": "523",
        "signer": "0x09a17843D6060eF42dE0AAA1C5e184bb1300ea5b"
      },
      {
        "passId": "524",
        "signer": "0x1432A948727ab9d41765fB52d6679A227d6C0BBe"
      },
      {
        "passId": "525",
        "signer": "0xc685Bd00269489954A1f2268e004a479A1bAf96B"
      },
      {
        "passId": "526",
        "signer": "0x5623305E2db269229916621b43b2D07bBECDA07b"
      },
      {
        "passId": "527",
        "signer": "0x57367170cFf4cDfDE6167e106696ec7e6afceBe4"
      },
      {
        "passId": "528",
        "signer": "0xa30514F4Ed327952D34A046F3538bA9EaeA24240"
      },
      {
        "passId": "529",
        "signer": "0x5D103d89ad9933582c666705CF6f54f6EcD9e972"
      },
      {
        "passId": "530",
        "signer": "0xBecb47846D7D14c85d33382ae53a69a493514cE8"
      },
      {
        "passId": "531",
        "signer": "0xE76103E9C82970824c9ABb2c0fd817bfdF4762Ff"
      },
      {
        "passId": "532",
        "signer": "0x4b07025721E3cEA831061Be7a87F9B6b3F77A9b7"
      },
      {
        "passId": "533",
        "signer": "0xe1A067156A2337441EF1db2147EbA605A0eb03E3"
      },
      {
        "passId": "534",
        "signer": "0x852C61492Cda3069227f2Bbe1f3F6bCb75DDf583"
      },
      {
        "passId": "535",
        "signer": "0x23d9987395bE31d37D1E553Ea06dE6464fbEF17c"
      },
      {
        "passId": "536",
        "signer": "0x176F982eBD701f19DdAc26d8A7915Cfe03479B2e"
      },
      {
        "passId": "537",
        "signer": "0x6595CE43DFc8697f48Fb1e5DCf7702307a4EdEd3"
      },
      {
        "passId": "538",
        "signer": "0x9a9151433Ce4018F266C0Eb01252480D52590F9c"
      },
      {
        "passId": "539",
        "signer": "0xDa8378623da9DaCD8Beea58908620798fb42e6BC"
      },
      {
        "passId": "540",
        "signer": "0xAe16B0c48276bf0b0598b843FdD3DA86A6292805"
      },
      {
        "passId": "541",
        "signer": "0xC77D5c2AC56A46647544e5B31043A656fF091435"
      },
      {
        "passId": "542",
        "signer": "0x9b2bE443E563DC400FB6adbF6ebFf1b851Fe2547"
      },
      {
        "passId": "543",
        "signer": "0xe9d741433703AF01F461faf40855d66A583E9C06"
      },
      {
        "passId": "544",
        "signer": "0x3f9bfD96e1F1f678fB4FbB0aA630970Ed5f46Ace"
      },
      {
        "passId": "545",
        "signer": "0x010f9a779C007488fEaF0f39638D313679002524"
      },
      {
        "passId": "546",
        "signer": "0xfCa0acF94Cc93104B4050C1EFF08821CD87Ee5cA"
      },
      {
        "passId": "547",
        "signer": "0x65120A433C500D64085e1212f0700F2FB9F25F5c"
      },
      {
        "passId": "548",
        "signer": "0x4d286D35A202dAaaF7B91888431750abC21CD4Ea"
      },
      {
        "passId": "549",
        "signer": "0x835ce99BC7A20b11df4Cb5F36F678B9FcDF38AF1"
      },
      {
        "passId": "550",
        "signer": "0x05FDC048dfb643B7A85dFAc53DAcCe48af6AB1a4"
      },
      {
        "passId": "551",
        "signer": "0x6E3bd4016aC447A0e47ae2333f2837b7f40266a5"
      },
      {
        "passId": "552",
        "signer": "0xdcEA913C9b6f3A91D001DEe42D1c72C8774eBB21"
      },
      {
        "passId": "553",
        "signer": "0xaE9375eD12C1Fc47b810F5F0eB63feA92d22c385"
      },
      {
        "passId": "554",
        "signer": "0x22A4613f4936172AEd3F5f019c292A7219DC7F8E"
      },
      {
        "passId": "555",
        "signer": "0x945bCb51Ba8aD5B3c5c7b7FA4466e53ed5010BBA"
      },
      {
        "passId": "556",
        "signer": "0x55F29CB1fC3E6bD382c253DD7b647e42B2AcF021"
      },
      {
        "passId": "557",
        "signer": "0x1421128DB3a08F430EC991a0c4e96BA031714B36"
      },
      {
        "passId": "558",
        "signer": "0x651bcf1dF1Dc800a21733bA6EAcdeF8DE80D96d9"
      },
      {
        "passId": "559",
        "signer": "0x396C7ccffCe6A7e71Fd83934A3500BfB37f27c7A"
      },
      {
        "passId": "560",
        "signer": "0x5c61C7DD28548780b134Eccd13FbB3db7C9d1a5e"
      },
      {
        "passId": "561",
        "signer": "0x251914073e70DCfF1d130cA9De13aE748fDa3d14"
      },
      {
        "passId": "562",
        "signer": "0xC100D6A4e8B306aE3dcF0f34b1Bf8775217Be21a"
      },
      {
        "passId": "563",
        "signer": "0x3e8B0ECF6C44E676422773468f31891497eB00D9"
      },
      {
        "passId": "564",
        "signer": "0xC8Ab236a04bD9BBF75560BCF0960b3563a9F3723"
      },
      {
        "passId": "565",
        "signer": "0xFB6486f6d1971AcF50c34fFd52001Ab8918C2455"
      },
      {
        "passId": "566",
        "signer": "0x8c31fB4BC543113F9dB16A9cDfBD57475e98652B"
      },
      {
        "passId": "567",
        "signer": "0xA1CC1d2C4A66E87056fc730742EC0871b0014b64"
      },
      {
        "passId": "568",
        "signer": "0x091929855CF4a735d95fD83C945d1a42CBE63bC2"
      },
      {
        "passId": "569",
        "signer": "0x08d20AC567A0Ce8E2C13e54c08c3374b125A1664"
      },
      {
        "passId": "570",
        "signer": "0x708E66a3BfDc82f57BDDb00FA0f57aE1DCC6B69B"
      },
      {
        "passId": "571",
        "signer": "0x76424dcE6A4e10590f6595843d95c7dCb902672c"
      },
      {
        "passId": "572",
        "signer": "0xB1e32fF5A935aA3CAe79B587252ECc18330674F0"
      },
      {
        "passId": "573",
        "signer": "0x330a80Dc83CbC5728f0603afeDCeb742Ab7aCFA6"
      },
      {
        "passId": "574",
        "signer": "0xEc46015FF8E69A600f84527d400E9440Ecc27Cc8"
      },
      {
        "passId": "575",
        "signer": "0x60E2672B6405e86C7205F6A531A52173ACcE787e"
      },
      {
        "passId": "576",
        "signer": "0xCf06BE585494B729fEFAEA7CAca37629129d3bfF"
      },
      {
        "passId": "577",
        "signer": "0x7899B361aEa5564b5e8Bc125F72DB04f8a0BcA52"
      },
      {
        "passId": "578",
        "signer": "0x5D649932E51f6e15215406E221EbeB656D0F39D4"
      },
      {
        "passId": "579",
        "signer": "0xbCE650B9768173a740422eAc8435ca1445395C40"
      },
      {
        "passId": "580",
        "signer": "0x4C230CC4f734a7C3a4519C633B5d66CE2D88A2dC"
      },
      {
        "passId": "581",
        "signer": "0x6f70c6537599aAB7d6832Ef7dF317DDa2D115e23"
      },
      {
        "passId": "582",
        "signer": "0xD79C4e6E109acFcA55665AC986cb9Fc44bEF9C74"
      },
      {
        "passId": "583",
        "signer": "0x60f9f9429c4A6a4eECFf472100D792DE36F63fcE"
      },
      {
        "passId": "584",
        "signer": "0x03fE574B8CE2C2b77cBE0e72F8Fd08e63Cb3E5Eb"
      },
      {
        "passId": "585",
        "signer": "0x6fdA09EAe11251490B97461fF817272006285Bc2"
      },
      {
        "passId": "586",
        "signer": "0x847DeD1238207e9281C08E8E95745153a48c6558"
      },
      {
        "passId": "587",
        "signer": "0x6D6B4eE04791D59C90b12F515aE5a68D3A45f151"
      },
      {
        "passId": "588",
        "signer": "0xD43eFd435E3Da824D43b4ECa12cAa47ea84e56D6"
      },
      {
        "passId": "589",
        "signer": "0xe2f9D88F92D907b41cfeA1D483A5266C895cC813"
      },
      {
        "passId": "590",
        "signer": "0xb51aee7415Bb957141f7494e2Bd6b29A53597B8B"
      },
      {
        "passId": "591",
        "signer": "0x13df0C3EEBf87823836841B73265eAb6F1eD6052"
      },
      {
        "passId": "592",
        "signer": "0x97475ec128B402Dae4C78f8E4BD025de6a3a117E"
      },
      {
        "passId": "593",
        "signer": "0x9340975CD47FD7a56bf8FeB8D2096F1EEbf678a5"
      },
      {
        "passId": "594",
        "signer": "0xE6e79ea694c1541e492577F47E99095452e1eC02"
      },
      {
        "passId": "595",
        "signer": "0xAfca99BC83da87A2fF3cb058CC8CDb3beA6B79fc"
      },
      {
        "passId": "596",
        "signer": "0x551ba027403F2ddDE98Bc48cF5175a2857709819"
      },
      {
        "passId": "597",
        "signer": "0xB2916AF413DC2469A5b7B3b0805e0Ca53d119614"
      },
      {
        "passId": "598",
        "signer": "0x2a19f287b3811D2ab55c64f1D6F4D565A4D890cD"
      },
      {
        "passId": "599",
        "signer": "0xBCb1EFba38B08b03557BF7817907c4654E80c4BB"
      },
      {
        "passId": "600",
        "signer": "0x2c17322cC3e1087dAa895c3856F330a6E68b02ad"
      },
      {
        "passId": "601",
        "signer": "0xa9896FeF057BbD50818c4E665d006D5fa20D99f6"
      },
      {
        "passId": "602",
        "signer": "0x4409cB78649Ba3E4E80dEd8ed89f4842203F4871"
      },
      {
        "passId": "603",
        "signer": "0xA82ff6A6494C5645c1D36233Ea81322986Ba8ec7"
      },
      {
        "passId": "604",
        "signer": "0x59fA2b047692B04f2c6601C801E361cECAd46470"
      },
      {
        "passId": "605",
        "signer": "0x3f25587FD75EC2aAE268e13F19A21035A3a548d7"
      },
      {
        "passId": "606",
        "signer": "0x73a74B9366ecf598beFCF8BfeBBcC717d63F7Ab1"
      },
      {
        "passId": "607",
        "signer": "0xA45E9e870D9745e016d4A067bE7a3F0257345b4F"
      },
      {
        "passId": "608",
        "signer": "0x0AC06Bda9dB75a7c90D72fF4f8b9bFeaa774F9d9"
      },
      {
        "passId": "609",
        "signer": "0xBCee91A42e1aF005BE19B24F9a97B70bbed799E7"
      },
      {
        "passId": "610",
        "signer": "0x46bD69C3128e3FaBB4326d8EB0ccb001CC58611C"
      },
      {
        "passId": "611",
        "signer": "0x982F63e23DAA80Da21f45a5cC4F24F36cc7a236E"
      },
      {
        "passId": "612",
        "signer": "0x3DB5f02BaCDBEb9632e7902f8C5547d9006A64c1"
      },
      {
        "passId": "613",
        "signer": "0xc705Bb1b80749C91aabD7c2851cbEC35C6205484"
      },
      {
        "passId": "614",
        "signer": "0xC28C2C8361D4d96c45B3c0f0d14BbD53489c26D5"
      },
      {
        "passId": "615",
        "signer": "0x8D2989cCD9eB541e1cc3e28F0b973Ac7d9f60E16"
      },
      {
        "passId": "616",
        "signer": "0x257C1DDDe9dE9e83528e222Bd3778d94eBC4efCE"
      },
      {
        "passId": "617",
        "signer": "0x394df81029dfA0230f15E2557B33DCe862EA224E"
      },
      {
        "passId": "618",
        "signer": "0x2056159C601B5Ace38B3B6EF9E9F674CB34efE83"
      },
      {
        "passId": "619",
        "signer": "0x81b1CEa4Be40eB774EDF9d89e179023FEeeFE5d0"
      },
      {
        "passId": "620",
        "signer": "0x7794dd357163201e0BE0408995540D1DeA8e78A5"
      },
      {
        "passId": "621",
        "signer": "0x892215bC4F07fFBF72d9F5C94e0ffEB2E4792D8D"
      },
      {
        "passId": "622",
        "signer": "0xC448389fF00Dcc2F9341ebBd6659B44EF867d337"
      },
      {
        "passId": "623",
        "signer": "0x89A830f5108d5D638c221dDE45C8f496Ba884CD5"
      },
      {
        "passId": "624",
        "signer": "0x2B5B2ACb3Ef1B6F728B606cC5123a8591b2e416B"
      },
      {
        "passId": "625",
        "signer": "0x4908B9A81a4085F6748A3fDf8218C0c2c8E129A2"
      },
      {
        "passId": "626",
        "signer": "0x3e502254f40aB1C741F83D13bB1DEC42CAFC5fef"
      },
      {
        "passId": "627",
        "signer": "0x2CBFf9489d9da1c5FA88456C46107C92800cD6BC"
      },
      {
        "passId": "628",
        "signer": "0x76dB94BBe9D87B2cdAB661B8C227799EF8a9390E"
      },
      {
        "passId": "629",
        "signer": "0x365284432bFf71ADd29A11c731EC230d7Cae75cC"
      },
      {
        "passId": "630",
        "signer": "0xBd77b20027e2278ADd46b398D4D1417d82d712Dd"
      },
      {
        "passId": "631",
        "signer": "0xa5F594F6E72652f12C524769E8294De69d76de94"
      },
      {
        "passId": "632",
        "signer": "0xA6bD0B36C909eCC35215c460E46B5f7D5ee91893"
      },
      {
        "passId": "633",
        "signer": "0x6Ea228D706A72b6898CBB48226Ae6D68d0F17021"
      },
      {
        "passId": "634",
        "signer": "0x93Ed9725667eC2b7967d1E8Edd7568c6054011E7"
      },
      {
        "passId": "635",
        "signer": "0x074753d3A72C70b965d1d2Ee2C694bfC1241ceb0"
      },
      {
        "passId": "636",
        "signer": "0xFf133d78a55Ff1115742b70217f3D70701118838"
      },
      {
        "passId": "637",
        "signer": "0xF7a046bbc80C30A0211D978d480DA5d3981AB7bf"
      },
      {
        "passId": "638",
        "signer": "0x9E5d266f3e91141b5684412cf5e7e16187781DCD"
      },
      {
        "passId": "639",
        "signer": "0xc27Ffae82b00243bd0B5106184a7669899080245"
      },
      {
        "passId": "640",
        "signer": "0xa31Cd3B44b8bC901102cEf0279BEaf17d37AEace"
      },
      {
        "passId": "641",
        "signer": "0x297636C1FcC0CAC5904f18C6B274DE16d67d5BA6"
      },
      {
        "passId": "642",
        "signer": "0x0503150133FDF8A14E28c2388764717fd58F08Bb"
      },
      {
        "passId": "643",
        "signer": "0x13BD0aD09b431CCdC82FDBF41BbEB99326087970"
      },
      {
        "passId": "644",
        "signer": "0x578092382eC9e89cF5839293F7eE3009Cfc53B51"
      },
      {
        "passId": "645",
        "signer": "0xCc87Af47F2cd88685DDF6916144aCb7c27B87a68"
      },
      {
        "passId": "646",
        "signer": "0x2A50E602c1222ee7E81CC7BEaA7145CaA9f09458"
      },
      {
        "passId": "647",
        "signer": "0x748CBFc933913a61BeFCa948d220C341b82a31D6"
      },
      {
        "passId": "648",
        "signer": "0x630c34d38B5b6269db4C7573CD7FD4C451890572"
      },
      {
        "passId": "649",
        "signer": "0x65948D7C9Bd90C8E9a00bA19CF588459A065f096"
      },
      {
        "passId": "650",
        "signer": "0x96E405fAb3ef5268060419DEa5C53898f11B1286"
      },
      {
        "passId": "651",
        "signer": "0x1eD20C85EC9f85a649276590746e13B593865a24"
      },
      {
        "passId": "652",
        "signer": "0xA1fa303CbdcC9E42352f4eAf73b06A093916ad22"
      },
      {
        "passId": "653",
        "signer": "0xf0E26eC8CFDb456328B0D73580eDEd592E98A05a"
      },
      {
        "passId": "654",
        "signer": "0x8371AFbDE5FE9a21f56a085FDC7E76931FC7eA31"
      },
      {
        "passId": "655",
        "signer": "0xFbead61eA07ba491316c0AD2E4B51bF1cadB5259"
      },
      {
        "passId": "656",
        "signer": "0x39bE0f8c31E5126B739FAEAED03fEfA41D084332"
      },
      {
        "passId": "657",
        "signer": "0xE2Cb084F0FDc14C9B2512804d21049fe7Ca4fe92"
      },
      {
        "passId": "658",
        "signer": "0xe1fF79F110B010b462f07FEFB71a87bcD8793cFE"
      },
      {
        "passId": "659",
        "signer": "0x2e1B265c6378d654DF067cc97fa3397E1f2BeA0a"
      },
      {
        "passId": "660",
        "signer": "0xAC6dea9Be3489d6c748c15A4530c18462b0e35cc"
      },
      {
        "passId": "661",
        "signer": "0xf5505c83604001f7205dEf7629673cc0E9654670"
      },
      {
        "passId": "662",
        "signer": "0x87f8AcF715a170E36db619feFBA477aA46493C9e"
      },
      {
        "passId": "663",
        "signer": "0x370923E04Bb16f8635c2762c0eE7AF391d44F5dE"
      },
      {
        "passId": "664",
        "signer": "0xBAfe5Fb381e10F4d19AA7A5AC32BC346bCE5af7F"
      },
      {
        "passId": "665",
        "signer": "0x009791151b58720fa5078522872aa7941407e1e4"
      },
      {
        "passId": "666",
        "signer": "0x4bD0dCb6936f11b93354B1c4c95747C62cFb1cB0"
      },
      {
        "passId": "667",
        "signer": "0xac722Abca8CB1213eA833c80F3dCC3DC0857249b"
      },
      {
        "passId": "668",
        "signer": "0xDebd3FAEfDDB368A61b3CfaC4dB17de9DdC57CAF"
      },
      {
        "passId": "669",
        "signer": "0x217B4921e9b7939886342453cBF3bbd6bd3D03e0"
      },
      {
        "passId": "670",
        "signer": "0xC812e9688e5FDC6Ac39D60401B71ae515923E2E0"
      },
      {
        "passId": "671",
        "signer": "0xe2a806C99220D7cd6EF65c525bc8A106deE69148"
      },
      {
        "passId": "672",
        "signer": "0xc5C87492832504c928e37d12b7b7D78374537e18"
      },
      {
        "passId": "673",
        "signer": "0xb87ea63567d5801Db01A359B6e47e57c70bcAd9e"
      },
      {
        "passId": "674",
        "signer": "0x02f9DE8A914a8176432EB2e6c0d7F076703642E0"
      },
      {
        "passId": "675",
        "signer": "0xc88a6C635Ffa5FD63007AC9C48E16B24B3897C16"
      },
      {
        "passId": "676",
        "signer": "0xB84b8f019E8B356A20a485be985aE246e81B5785"
      },
      {
        "passId": "677",
        "signer": "0xB96c98c471438F9F7aD2E0b30BA603C4bF527dBA"
      },
      {
        "passId": "678",
        "signer": "0x006b263B301E1A88CF3c62FAd74d4a6F3e4ee28D"
      },
      {
        "passId": "679",
        "signer": "0x884E0FD18Fe1649920A820d816a12FC3eF4a9bB6"
      },
      {
        "passId": "680",
        "signer": "0x19059ad0474C98C74A201E9554726035397D815f"
      },
      {
        "passId": "681",
        "signer": "0x111384D4f392d79DD3222dEd7B5cA6C366d9adf4"
      },
      {
        "passId": "682",
        "signer": "0xadbFa5cAf25B977fc1805D546906A3DCF04F029F"
      },
      {
        "passId": "683",
        "signer": "0xE8D91979A73e1c9f882c689B61b191ed58fE3a1E"
      },
      {
        "passId": "684",
        "signer": "0x916238F4Ab01BD19c5F876D3Becf1D47A8f6117e"
      },
      {
        "passId": "685",
        "signer": "0xf537941969498c2C2E651d4bB46345530B5a06b0"
      },
      {
        "passId": "686",
        "signer": "0x4Ff91594F94F3674F0Fbd22c366e7492225ce760"
      },
      {
        "passId": "687",
        "signer": "0x657A93983208f66c117f5D07da57d897902C62E4"
      },
      {
        "passId": "688",
        "signer": "0x4E05008041C1763C1771cF4D4E40c120a3c40180"
      },
      {
        "passId": "689",
        "signer": "0x896F81e5e3b39Bd6806A848cB1931C78f2a563c2"
      },
      {
        "passId": "690",
        "signer": "0x09B22c4FB9B846d0b74daA5d77d16a9535F3245c"
      },
      {
        "passId": "691",
        "signer": "0x741E8b3a7C0A5833Ea66085ADAf50D35c16c5F40"
      },
      {
        "passId": "692",
        "signer": "0xA20CD68ff945d3EB5Af378511f0C908eB05D48b6"
      },
      {
        "passId": "693",
        "signer": "0xF91d9de6eF5864d1c7771978A41f1bB5bF50306E"
      },
      {
        "passId": "694",
        "signer": "0x8aeEf85988Ba023097D700bF2e0D718E0b60d5Ad"
      },
      {
        "passId": "695",
        "signer": "0x82F4e150B84F656eDa4a9cb9D719238789a47Ef7"
      },
      {
        "passId": "696",
        "signer": "0xB5a6aC38d1dd24ba93fdB8d379CAF334B54bFfEb"
      },
      {
        "passId": "697",
        "signer": "0x68ce83B791aCf0e59a03b8dC9bE5240772Eae2f9"
      },
      {
        "passId": "698",
        "signer": "0xB55ae9bba2AbAf729D6f76c0c19Aed3fa059Bda1"
      },
      {
        "passId": "699",
        "signer": "0x835E777Bba4f2718D8d8C40Ab3c375AE0d46b632"
      },
      {
        "passId": "700",
        "signer": "0x84C8b58Ee62B6A32aEc34c8F58F7447b7Af10Ade"
      },
      {
        "passId": "701",
        "signer": "0x1473eb5292078cD55Efa6075FD3cCeD8383bF877"
      },
      {
        "passId": "702",
        "signer": "0x8Dc06D9ac4811A4cC1Ab203e101f644831e0CA8E"
      },
      {
        "passId": "703",
        "signer": "0x931E27800B46B4EE7D6E108e6138F165Ede2299b"
      },
      {
        "passId": "704",
        "signer": "0xD7d640ACc4aA4E2B21A94c25F21b01D01920340C"
      },
      {
        "passId": "705",
        "signer": "0x09E03ACBE5Bce99FB62b5c1E08909BF3d55B7b0b"
      },
      {
        "passId": "706",
        "signer": "0x5054fBe19Ac1De8d670849804D707bD8DeB4030d"
      },
      {
        "passId": "707",
        "signer": "0xE48010591559627620F7BbDd71B4c0429D6E2adD"
      },
      {
        "passId": "708",
        "signer": "0x0bA0273BA411f1ca75f3c23383242d7Cb488d824"
      },
      {
        "passId": "709",
        "signer": "0x28D6b5804bACf260F14012beb1E0a5cEFF5F78b4"
      },
      {
        "passId": "710",
        "signer": "0xFB7Ed991Ad9881C6Acb08C991cB774619aAE725B"
      },
      {
        "passId": "711",
        "signer": "0x82055eC1b90cd6a70C14997BeB038c0341F897dA"
      },
      {
        "passId": "712",
        "signer": "0x0c83B500d4Ca541384Ab3c595a9218F321D01041"
      },
      {
        "passId": "713",
        "signer": "0x073A8fdA24d3523D46784003b610af326FD79264"
      },
      {
        "passId": "714",
        "signer": "0x76131A52370943ABDf9F80666fA4B3CFa18bc6cA"
      },
      {
        "passId": "715",
        "signer": "0x92e522f289fa6aFE88dcAa40767540726383F51D"
      },
      {
        "passId": "716",
        "signer": "0x03e6770CD19cA9f7AFE3056bCF23b856426A2196"
      },
      {
        "passId": "717",
        "signer": "0x808Ae8eC8C353DB5295C68B9388DB281461Af696"
      },
      {
        "passId": "718",
        "signer": "0x6a4B0c1f8c8Ef2C3645d5A0476974eEEa160F455"
      },
      {
        "passId": "719",
        "signer": "0xc09A6A34F6f104d1068C4B7a3c5BB57F725Be46B"
      },
      {
        "passId": "720",
        "signer": "0xA3f655847D3816636Ae62193eE6E33e639E77E0d"
      },
      {
        "passId": "721",
        "signer": "0x72c0994B77A6475E03Adb6E0F9980dbf48cDa19a"
      },
      {
        "passId": "722",
        "signer": "0x12E453CC659283459f9873d446c64F5452C0e2f2"
      },
      {
        "passId": "723",
        "signer": "0x1dDDd2209A8bd638f9CAf62Ecb4B5aafB7C15C36"
      },
      {
        "passId": "724",
        "signer": "0x204C6Da5b333eAFaBb5118647Ec78C2DFEa380F6"
      },
      {
        "passId": "725",
        "signer": "0xb963B5EE34D3C7a3d2B95e0175E95F2f180EC868"
      },
      {
        "passId": "726",
        "signer": "0x0cA1292C9e1345117Faa203E8f19DFf93A906aec"
      },
      {
        "passId": "727",
        "signer": "0x5eA2AF01fE6f0E3465ed9039c4f6758c5a483aB0"
      },
      {
        "passId": "728",
        "signer": "0x7d2430fDa781e5ced979DE756b296352000CC0b0"
      },
      {
        "passId": "729",
        "signer": "0x012E833bb505339FFcd56C00C8c77E4b3798464b"
      },
      {
        "passId": "730",
        "signer": "0xbE7Cc9aa56a9d91d1C71B3fEB5274765A6008Dc4"
      },
      {
        "passId": "731",
        "signer": "0xAb781C31d300230307aee0F9a648C20C032D7b2f"
      },
      {
        "passId": "732",
        "signer": "0x0aEcBfFABfA59f08D1b6FC6dC4012fAf8D86a12C"
      },
      {
        "passId": "733",
        "signer": "0xB7289041996f646f45a745076c276204D24B8Da5"
      },
      {
        "passId": "734",
        "signer": "0x34f77496988Ba3ffFC44Fe0c3010F361Fccb18A3"
      },
      {
        "passId": "735",
        "signer": "0xd3b9e47A17A907d4e25B81dBa5e8AAbAB6740f2e"
      },
      {
        "passId": "736",
        "signer": "0x868EF152cA8e1b922fC48b7EB8e76B508F41F1aC"
      },
      {
        "passId": "737",
        "signer": "0x9de32AE1839c827de2621BF1A62250E02Ff0d004"
      },
      {
        "passId": "738",
        "signer": "0x6095159856eE82224e11E0F15CA7DA2b09D5428a"
      },
      {
        "passId": "739",
        "signer": "0xD6912DB2921C3ca8D4070aae234aF329d28c6D92"
      },
      {
        "passId": "740",
        "signer": "0x89ca500E58AcEC1471158A03ca69795A80C9d837"
      },
      {
        "passId": "741",
        "signer": "0x6d96Be43c357D080BE6a57585d56ce819Dd31a59"
      },
      {
        "passId": "742",
        "signer": "0xaE99eBE7733bc8819609F06A7F7371D014d9b17b"
      },
      {
        "passId": "743",
        "signer": "0xF367bbBFeeE0773a58D4238E3319EcE9A9c9b4D1"
      },
      {
        "passId": "744",
        "signer": "0xAcFd576126eD7E74114359A84F4bCF7609Fb8197"
      },
      {
        "passId": "745",
        "signer": "0xC047F32CAEa20a0e2dd25cFA4445D91A8eDEb385"
      },
      {
        "passId": "746",
        "signer": "0x115C418D94f2a524f61f8FA7219ABDae62295880"
      },
      {
        "passId": "747",
        "signer": "0x63Cf7e4de32706f44eD10b1Fb1127d2eabA324Fe"
      },
      {
        "passId": "748",
        "signer": "0xa520C7407FA1692899D9eE009abCcD04Bb422ecf"
      },
      {
        "passId": "749",
        "signer": "0x7543F75943280f957f93fb6aD98C0A3115d269a2"
      },
      {
        "passId": "750",
        "signer": "0x700fe8f186893B8c4a0C52c223db73C9c8cbc425"
      },
      {
        "passId": "751",
        "signer": "0x92C03Ac9646AA40238F8cdd13628D6EC2Ddb1B56"
      },
      {
        "passId": "752",
        "signer": "0x21EA5D5E731a9C0B5934371975F25c500ec36CEe"
      },
      {
        "passId": "753",
        "signer": "0x6a5058CC6ad0514d036eb4cD8A4086266BaA117C"
      },
      {
        "passId": "754",
        "signer": "0x904D8B3Fb4Aa55671FB91FcB884Be57B68328796"
      },
      {
        "passId": "755",
        "signer": "0x2BC9765Bef6adA1F68343157D47135Efc205DE2b"
      },
      {
        "passId": "756",
        "signer": "0x5267A497022160eAAD3A26fC5D6E2cd8693533Db"
      },
      {
        "passId": "757",
        "signer": "0xd99c2f605e1fBF894Cc5c702e00051AA2CcbE91B"
      },
      {
        "passId": "758",
        "signer": "0x681A96fa1250CEcd4747c1CD1798755076161505"
      },
      {
        "passId": "759",
        "signer": "0x34099B6b7bA13abc709e5e85c1170762A4349ee5"
      },
      {
        "passId": "760",
        "signer": "0x711D233a38e7c5150f395D6EDD9e74d2ede4D408"
      },
      {
        "passId": "761",
        "signer": "0x92F3E75E289a49c1fe0737EbF6516FD7969D30dD"
      },
      {
        "passId": "762",
        "signer": "0x0656Ef0Fe029c36cC27F5D8e5Af90a852123F41E"
      },
      {
        "passId": "763",
        "signer": "0xbc27d53046931c4c65f1FeE3C84837deC73ad993"
      },
      {
        "passId": "764",
        "signer": "0x6eFFB50dEA5004f850429d5C1400cFE5578d29f9"
      },
      {
        "passId": "765",
        "signer": "0x192fAADD94FAF0830f33308987732f6b9cE8703f"
      },
      {
        "passId": "766",
        "signer": "0x6724a57390aD4078C9C81a4B19343f20f0438483"
      },
      {
        "passId": "767",
        "signer": "0x9a81ecf36Cf141a9e3d6a002c1fBDd2Fb642162d"
      },
      {
        "passId": "768",
        "signer": "0x79da9b28e2e759f9E770eF8f27ED04498513523b"
      },
      {
        "passId": "769",
        "signer": "0x119AA00fA19B842eD116Af80e3A3C6A4efb67a6f"
      },
      {
        "passId": "770",
        "signer": "0x7ffF4462a8dBF6E60f0E7bD4ef803cf86487ae90"
      },
      {
        "passId": "771",
        "signer": "0x856f2Fe7a74139578F8c09ebfC11C88A7eDB3a94"
      },
      {
        "passId": "772",
        "signer": "0x89C56555a0B8BEf494c1797Daa0Ad6669B07d802"
      },
      {
        "passId": "773",
        "signer": "0x2135FD17c7909cAF899E334C0990b09141607B31"
      },
      {
        "passId": "774",
        "signer": "0x51bdE4470dD4b1Ab630f5cCD5Bef211F8c082E50"
      },
      {
        "passId": "775",
        "signer": "0x64652fd3083606d66520A5844fA25f52AA807525"
      },
      {
        "passId": "776",
        "signer": "0x7cF24B4d09877aA880E648cdB4a14339088fE02c"
      },
      {
        "passId": "777",
        "signer": "0x83d3C17967C62F1FF0C76B892a2122e747AfB5C3"
      },
      {
        "passId": "778",
        "signer": "0x8479F0F1b2b93Fbc00c550dBB55e330560B56308"
      },
      {
        "passId": "779",
        "signer": "0xd2DF3f6BcBF5f71FB5e3c2CD590661f03252fE5A"
      },
      {
        "passId": "780",
        "signer": "0x93B8DF494Dc3A1197542AB388A97d6C5fB3E3B60"
      },
      {
        "passId": "781",
        "signer": "0x998199A4Fb61E3e00E2f643c76aA500B228d922e"
      },
      {
        "passId": "782",
        "signer": "0xe4Dc320b533942F0Ba5CaEA9FE75EF233F57EF71"
      },
      {
        "passId": "783",
        "signer": "0x1Ddc2C6F726B60F5f316f7DfA1b2eAa8EBeF9DCB"
      },
      {
        "passId": "784",
        "signer": "0x577E04C01E7b1Abe7F32347372c1aE892B1a79de"
      },
      {
        "passId": "785",
        "signer": "0x7D81aE9860030093F421392AeF5ACcD7d6989d65"
      },
      {
        "passId": "786",
        "signer": "0xD81B90bF5fccB256B921261A256BEc4814173000"
      },
      {
        "passId": "787",
        "signer": "0xC8689a350a11a282a3ae410bC5e7e51cA0feBe04"
      },
      {
        "passId": "788",
        "signer": "0xC953A246e3Ac9ce5a10382921B71d190e52eB4d3"
      },
      {
        "passId": "789",
        "signer": "0xA89640e0a5599c7c0fCcF529737Fb2331C0C7621"
      },
      {
        "passId": "790",
        "signer": "0x1C3Cbf86a7C1315bFe6d54403E7BE65152fDcbaF"
      },
      {
        "passId": "791",
        "signer": "0xdf134633590965FB3E833e24339c8a30E280A3ca"
      },
      {
        "passId": "792",
        "signer": "0x978447937dDBd2545d537510fA312FCA6c225955"
      },
      {
        "passId": "793",
        "signer": "0x0aE7A81B8C610E356d78E6C790F67D4cffA3FE64"
      },
      {
        "passId": "794",
        "signer": "0x00903fdC8939e767A08a545a4B009DF5e71589e6"
      },
      {
        "passId": "795",
        "signer": "0xa0C1026454E12e76a10b05807aECa6d9799Fe50e"
      },
      {
        "passId": "796",
        "signer": "0x04b9A73A21868633F62EEeC68A2f40d6C26A827D"
      },
      {
        "passId": "797",
        "signer": "0x5cEE927Fe6A726c3C161e76d49e7Bc8F5c531EbE"
      },
      {
        "passId": "798",
        "signer": "0x38eD2A433Ddd69F591BA109A58EcEbE9b3A50FdA"
      },
      {
        "passId": "799",
        "signer": "0xEdce525caB6164688aEE944D7D32dc85a673F890"
      },
      {
        "passId": "800",
        "signer": "0x5b0f9EBA266Da635AAF36f8992DD6A1B96338D5D"
      },
      {
        "passId": "801",
        "signer": "0x0Aff696a4AEB273371848E6d1488bA23A9d7A963"
      },
      {
        "passId": "802",
        "signer": "0xB9C0407e118AD8EBA5628c02c1fA3A140F6dF934"
      },
      {
        "passId": "803",
        "signer": "0x4a0A5e2FbE255c4CdB68355D3FAb27429d6B7cDD"
      },
      {
        "passId": "804",
        "signer": "0x90891FE8F49a8B861C8A2b975243aE301A632FcC"
      },
      {
        "passId": "805",
        "signer": "0x823e4D7Dc49AA7d5c1Be137A436Fd549313268a4"
      },
      {
        "passId": "806",
        "signer": "0x44f6484ED666B11616cA9AA66d7404b687da7d57"
      },
      {
        "passId": "807",
        "signer": "0x45f7dAe1b8296c1e6115827091d62757AEC1DfE7"
      },
      {
        "passId": "808",
        "signer": "0x953D3F12851c44a58235E0Db51BBF2903DC5238A"
      },
      {
        "passId": "809",
        "signer": "0x837fc7f0a056af1A3E396f154e6F119932006d95"
      },
      {
        "passId": "810",
        "signer": "0x4FB6289FbCB841c9F5E0Fe04887FDD68B1d4E21F"
      },
      {
        "passId": "811",
        "signer": "0xFc9CC5E77c434fD55d035BC645F12F592aB0AC1C"
      },
      {
        "passId": "812",
        "signer": "0xdd757f71C5AD618d7F50282265d804F092985777"
      },
      {
        "passId": "813",
        "signer": "0x0CF575f6939F2Dce2d6f4E43Cf29f4884aD282Ce"
      },
      {
        "passId": "814",
        "signer": "0x1DC5e5fFe7f16416B573525D3fc34DF5D05566fD"
      },
      {
        "passId": "815",
        "signer": "0x000000000000000000000000000000000000dead"
      },
      {
        "passId": "816",
        "signer": "0x000001f568875f378bf6d170b790967fe429c81a"
      },
      {
        "passId": "817",
        "signer": "0x0078c86e12186e2de1ff6fef5f1ada2bffde4ea5"
      },
      {
        "passId": "818",
        "signer": "0x024f1f8b3789bfdf9edb47f58a0d7a3afeaea804"
      },
      {
        "passId": "819",
        "signer": "0x049808d5eaa90a2665b9703d2246dded34f1eb73"
      },
      {
        "passId": "820",
        "signer": "0x05e8074088797c1f9057febf374deee0bc38e894"
      },
      {
        "passId": "821",
        "signer": "0x05ea539365d91df315e8ddd736e90431696fe8c4"
      },
      {
        "passId": "822",
        "signer": "0x09280340849e66948149804cac539cc7227512be"
      },
      {
        "passId": "823",
        "signer": "0x0946bc5c2f9848665cc3811458de403d0a78ad8e"
      },
      {
        "passId": "824",
        "signer": "0x0985224a811e65c235dbf4a2c2117712aabe4e39"
      },
      {
        "passId": "825",
        "signer": "0x0d0aca99686fced8e6fb39134aaed96f09b5283c"
      },
      {
        "passId": "826",
        "signer": "0x0d94b6e4c2aa9383964986020b3534d34885f700"
      },
      {
        "passId": "827",
        "signer": "0x0dd544d0da95666d7c3d38460feb4b5f25eaa515"
      },
      {
        "passId": "828",
        "signer": "0x0ea59c05be4b7149aaed26be764b618ac0255643"
      },
      {
        "passId": "829",
        "signer": "0x10b28ee04853bdd30d1fd7b302fbe5691c144aa0"
      },
      {
        "passId": "830",
        "signer": "0x10f6c58b9dc9603cb24ee9a5220bb4a470781676"
      },
      {
        "passId": "831",
        "signer": "0x12579783fbe8c2645d7a634b238da748405975a2"
      },
      {
        "passId": "832",
        "signer": "0x136c65a3f31682fcf683906ddbf3c76db2633f99"
      },
      {
        "passId": "833",
        "signer": "0x139d9a36ff2b6bfb8558dfbc22486da48c77a396"
      },
      {
        "passId": "834",
        "signer": "0x13b3a50f3947476eda74fe191344524e2d2d28e5"
      },
      {
        "passId": "835",
        "signer": "0x13e46ccd194ca86212236543d2e7376b00bafa42"
      },
      {
        "passId": "836",
        "signer": "0x1423fcc74da82fa03d70fa1f7a122db1ba231783"
      },
      {
        "passId": "837",
        "signer": "0x1436dbffbdde71d16a2c4d23f9116c3158c4d984"
      },
      {
        "passId": "838",
        "signer": "0x1527fa3a0778d574adfe714b7e60c7b2a1bf7c29"
      },
      {
        "passId": "839",
        "signer": "0x1974341df4b113a4c16f3d3f106176dec0e4da67"
      },
      {
        "passId": "840",
        "signer": "0x1c062628943a930b805849b494719c7d23c77bd5"
      },
      {
        "passId": "841",
        "signer": "0x1ec9503bbdad721ef3ad485b4b14ce0671dc9925"
      },
      {
        "passId": "842",
        "signer": "0x21c5edc237e95049f92059af6a571fdb700f2b82"
      },
      {
        "passId": "843",
        "signer": "0x2224acd07fd9b269ab5200a9a3df8062624deefb"
      },
      {
        "passId": "844",
        "signer": "0x230eb64900d027dfe372786b3342bd6178ec37d1"
      },
      {
        "passId": "845",
        "signer": "0x273c25abd33eca095e228fde0f15e8f7ec4eb4d9"
      },
      {
        "passId": "846",
        "signer": "0x27d9b6692ec1fb802cc8ceef74270ca4b448076a"
      },
      {
        "passId": "847",
        "signer": "0x290420874bf65691b98b67d042c06bbc31f85f11"
      },
      {
        "passId": "848",
        "signer": "0x2993db31d165c33d848e44a1c26a805ba411d324"
      },
      {
        "passId": "849",
        "signer": "0x2d2c46d26c8fec693586e067c4fc2b2ddc2b4cb3"
      },
      {
        "passId": "850",
        "signer": "0x2d79097b9e4c4f41654b2c91c39fd2c97af00c76"
      },
      {
        "passId": "851",
        "signer": "0x2de2299db048a9e3b8d1934b8dae11b8041cc4fd"
      },
      {
        "passId": "852",
        "signer": "0x2e50783188e23742dd3168682e39381ff5fa9731"
      },
      {
        "passId": "853",
        "signer": "0x2e699391d1b3b8577557b4c0ef6a1d9e8a394f04"
      },
      {
        "passId": "854",
        "signer": "0x308bff328370fc4a9683ab9fcd79a21be6dc5ee4"
      },
      {
        "passId": "855",
        "signer": "0x342c6bfa287ce37b8b53eee0e5b6e6bcbea98c76"
      },
      {
        "passId": "856",
        "signer": "0x362f020fd4420c317e7a0722994ba8bc3380d0e8"
      },
      {
        "passId": "857",
        "signer": "0x3668a20653316a7dd85342f64a4c984d146cadfe"
      },
      {
        "passId": "858",
        "signer": "0x37b699d7eead58433d352d1c77b2db1391f11ce5"
      },
      {
        "passId": "859",
        "signer": "0x3ad353e2845b96fb1b58c1ca6cda46b870de8d6f"
      },
      {
        "passId": "860",
        "signer": "0x3d14410609731ec7924ea8b1f13de544bb46a9a6"
      },
      {
        "passId": "861",
        "signer": "0x4011d09a86d0aca8377a4a8bad691f1aceecd672"
      },
      {
        "passId": "862",
        "signer": "0x41a7276167b80da8815df5b0ddaba3be29984250"
      },
      {
        "passId": "863",
        "signer": "0x44dc2ec15b3483fc8590f6b396cea5f8f2fbf3bd"
      },
      {
        "passId": "864",
        "signer": "0x4530307f98208d3bd5b9631880bc7351770c8810"
      },
      {
        "passId": "865",
        "signer": "0x4a1d757699ab73dd4b48b15049b6f1479b2f3511"
      },
      {
        "passId": "866",
        "signer": "0x4b0bd713574e67a97b3ff8f647f329794a2cbb64"
      },
      {
        "passId": "867",
        "signer": "0x4d03a186b3c7d039ff9a212cd8e81dc34a670b35"
      },
      {
        "passId": "868",
        "signer": "0x4de4a829d42191007431d608775430f3ab072082"
      },
      {
        "passId": "869",
        "signer": "0x4e012d25472225f3385baa43ed64dfec5885c51d"
      },
      {
        "passId": "870",
        "signer": "0x4ffb72b66eba24521736924f87dfe10677d82286"
      },
      {
        "passId": "871",
        "signer": "0x50f27cdb650879a41fb07038bf2b818845c20e17"
      },
      {
        "passId": "872",
        "signer": "0x5285ac85a979b612f5c5320961311bba099670f0"
      },
      {
        "passId": "873",
        "signer": "0x530cf036ed4fa58f7301a9c788c9806624cefd19"
      },
      {
        "passId": "874",
        "signer": "0x5310a9b64847c1b927f823a4bc8836e93f09dc78"
      },
      {
        "passId": "875",
        "signer": "0x54463aae905082c678708bb6c25226eb8f38d5a6"
      },
      {
        "passId": "876",
        "signer": "0x562bf1b67dc40d9b7c3ddd49e45ae58e61e1b76e"
      },
      {
        "passId": "877",
        "signer": "0x568b491fb2b4b9440f6d05e7723df0060fdaef1c"
      },
      {
        "passId": "878",
        "signer": "0x5a016b206d0314c7ec641c3a6fd89dac7fea010e"
      },
      {
        "passId": "879",
        "signer": "0x5b158f897f5ace2afefaf7ace8ce0cdbbbc9168a"
      },
      {
        "passId": "880",
        "signer": "0x5ba02f4ff6af1d9d2af8774d10fd32eb57d4e2e6"
      },
      {
        "passId": "881",
        "signer": "0x5bd685375c21375165438ca7f3eae7ec4fade8c5"
      },
      {
        "passId": "882",
        "signer": "0x5d9e720a1c16b98ab897165803c4d96e8060b8e4"
      },
      {
        "passId": "883",
        "signer": "0x5e01d9928ea32d1d3ae2f3263b6ec6c165dc2d76"
      },
      {
        "passId": "884",
        "signer": "0x5ee42438d0d8fc399c94ef3543665e993e847b49"
      },
      {
        "passId": "885",
        "signer": "0x5f8e56d7f3642dd8783774460da2d3a7c54aacda"
      },
      {
        "passId": "886",
        "signer": "0x5fb8b9512684d451d4e585a1a0aabfb48a253c67"
      },
      {
        "passId": "887",
        "signer": "0x6186290b28d511bff971631c916244a9fc539cfe"
      },
      {
        "passId": "888",
        "signer": "0x62f099a34f01d57c67a100851184bea0d48b45f6"
      },
      {
        "passId": "889",
        "signer": "0x63244b5f1ebcb999ea012da652dffee6653bf8f5"
      },
      {
        "passId": "890",
        "signer": "0x64e00561fa9b1f2f2048b2d4f571279689dd9541"
      },
      {
        "passId": "891",
        "signer": "0x65565244e5700b85c90358468faf37c85db55099"
      },
      {
        "passId": "892",
        "signer": "0x6584b48ccebd9c3e4413a1dd4cdbc38b2500cdf3"
      },
      {
        "passId": "893",
        "signer": "0x65d88c64b01b9481352fa8a68b54ed1b3b687388"
      },
      {
        "passId": "894",
        "signer": "0x663d3947f03ef5b387992b880ac85940057c13e3"
      },
      {
        "passId": "895",
        "signer": "0x67c3097a968db89610825976ec9a5976a966c044"
      },
      {
        "passId": "896",
        "signer": "0x68016f094ebb7b55b04372af335455854b0e2eb6"
      },
      {
        "passId": "897",
        "signer": "0x6854dc5c9e3d3ce0b9dd7250d866908515465dc6"
      },
      {
        "passId": "898",
        "signer": "0x686e960ebd9aceb1771850444d4d3a7810a0dac9"
      },
      {
        "passId": "899",
        "signer": "0x6d7fd0438219c0f753a1ccf7c4885bb6cb260999"
      },
      {
        "passId": "900",
        "signer": "0x704c978d50590b21e4c2f43eb4da24fe61fcd707"
      },
      {
        "passId": "901",
        "signer": "0x73e60cd967e957bc6e074f93320ffa1d52697d5b"
      },
      {
        "passId": "902",
        "signer": "0x75331ebbe0b00b97cab532384f13c9b479f074ec"
      },
      {
        "passId": "903",
        "signer": "0x75ef2eff7b12f5f900ef5c787036deab18423d1a"
      },
      {
        "passId": "904",
        "signer": "0x78885686feec340ab544428f161e7d621f520e29"
      },
      {
        "passId": "905",
        "signer": "0x79bebfcb560141f22959c62bbd2930d5c7e35d30"
      },
      {
        "passId": "906",
        "signer": "0x79fd2f15e0ea8c27b5192259f9da63f4e562f021"
      },
      {
        "passId": "907",
        "signer": "0x7a824bea2bed9399a68cd0e340224809521c81d9"
      },
      {
        "passId": "908",
        "signer": "0x7d6a8ffcaf98cac58340329b3a91759888cb1363"
      },
      {
        "passId": "909",
        "signer": "0x7e7a55b11dd9a02b4da169620adfc36b930100fc"
      },
      {
        "passId": "910",
        "signer": "0x80d0d54050c15971b21e877d95441800f5aa9ee8"
      },
      {
        "passId": "911",
        "signer": "0x8177598e08ee8199c160a48c7a0af31ab54bb59f"
      },
      {
        "passId": "912",
        "signer": "0x82410609593d876761681580cf304c794bd58d09"
      },
      {
        "passId": "913",
        "signer": "0x826f63afd9517364cbebe91a859f10b102505a40"
      },
      {
        "passId": "914",
        "signer": "0x836ef81a58e5565b8d1d555ec8e9a5c2792511c6"
      },
      {
        "passId": "915",
        "signer": "0x83d3c179e7906e7f6755658c70e106f1ed3c5782"
      },
      {
        "passId": "916",
        "signer": "0x84eeb7db3f93feb5a8a98f56dabb970a6797c187"
      },
      {
        "passId": "917",
        "signer": "0x865c2f85c9fea1c6ac7f53de07554d68cb92ed88"
      },
      {
        "passId": "918",
        "signer": "0x8725be0bb6ea759d10fbb52fedecc7dcd6890072"
      },
      {
        "passId": "919",
        "signer": "0x87dfef3b445667292aac89078b51f0f75795805f"
      },
      {
        "passId": "920",
        "signer": "0x88906af7616f88f610d1e479325a5c5f93ba1e2c"
      },
      {
        "passId": "921",
        "signer": "0x8a53b8b59877df193c6dae7b8d1d38251af563cf"
      },
      {
        "passId": "922",
        "signer": "0x8b5e90aa714c967efc8c286f46ce0fc822e1cfb0"
      },
      {
        "passId": "923",
        "signer": "0x8c0c3c60118b24b31806eae82ab4186821bf23f1"
      },
      {
        "passId": "924",
        "signer": "0x8c2e67bd3d0f432ef75d9ae6623cd0dfbce66050"
      },
      {
        "passId": "925",
        "signer": "0x8dc9d43df20681cd62ca0acb24ae7ce2794f835d"
      },
      {
        "passId": "926",
        "signer": "0x8df55ecf2c261b44d079302dc95327fe32f74eed"
      },
      {
        "passId": "927",
        "signer": "0x8ebbf8f59b7b7849e359f7e1cc395df6741c24b9"
      },
      {
        "passId": "928",
        "signer": "0x92e7faa1c7b1cf703e3cda42183978f16fa15713"
      },
      {
        "passId": "929",
        "signer": "0x932a824a4d3d0680e0b352de150e6f212b8ac841"
      },
      {
        "passId": "930",
        "signer": "0x95a4350e1cb5e795d3ebe8bee63d9183de5449d1"
      },
      {
        "passId": "931",
        "signer": "0x96dc89dbe84970ee42a2f0b35fb50599e6745ff8"
      },
      {
        "passId": "932",
        "signer": "0x975ab68d4c15d6db02e101d5be03c5b49b9a3282"
      },
      {
        "passId": "933",
        "signer": "0x9de0b0402258a6a562331da7b3c13b29578789c4"
      },
      {
        "passId": "934",
        "signer": "0x9fc6d6c7326585fd3c2a743a1f505990d6e9df3f"
      },
      {
        "passId": "935",
        "signer": "0xa0863e36c30f4974a3a0e2cfc2802513cfaa22f1"
      },
      {
        "passId": "936",
        "signer": "0xa0a6dc36041fb386378458006fecbddd02555ddd"
      },
      {
        "passId": "937",
        "signer": "0xa0d71d516c6149c958c489ab24223c99f5df906f"
      },
      {
        "passId": "938",
        "signer": "0xa0f838d02983161ee469bff969964b7051ac1cd9"
      },
      {
        "passId": "939",
        "signer": "0xa596370bc21dee36872b98009dfbbf465dbfefa3"
      },
      {
        "passId": "940",
        "signer": "0xa5975974cac3fefd831e42bdd2fe84cb5ee3b3de"
      },
      {
        "passId": "941",
        "signer": "0xa6157b7bb7ec05e2b6feafd686797f9ea05411cc"
      },
      {
        "passId": "942",
        "signer": "0xa6f4fa9840aa6825446c820af6d5eccf9f78ba05"
      },
      {
        "passId": "943",
        "signer": "0xa77d9227eee861e01519548b6000acca8600eebe"
      },
      {
        "passId": "944",
        "signer": "0xa7d9f4fd84cdd4bee564adc1b18e3e8aa79d25f1"
      },
      {
        "passId": "945",
        "signer": "0xa88e4a192f3ff5e46dcc96efefb38dfec7bb250c"
      },
      {
        "passId": "946",
        "signer": "0xab2f02d8d409ee4f67fdda5aac5ca7a64a897271"
      },
      {
        "passId": "947",
        "signer": "0xac75cdc34283406b050cadf4ea5902a9310b138e"
      },
      {
        "passId": "948",
        "signer": "0xad9f9194c68bd83250a534a7da574687e1f102ff"
      },
      {
        "passId": "949",
        "signer": "0xae8ce6bb2b95684f57c097b407f4e9b55d9ca432"
      },
      {
        "passId": "950",
        "signer": "0xaee2f40fe0568bd859bc6a518c7ef3252fdc9bf0"
      },
      {
        "passId": "951",
        "signer": "0xaf5cb828389bd6413e7bcd00ed2dcf2bdc1a015a"
      },
      {
        "passId": "952",
        "signer": "0xaf8fbf59e221d27b55dc3adc2366f9230bcf5096"
      },
      {
        "passId": "953",
        "signer": "0xb29b1936c11b77cec6061a9daf765ee2666c8f77"
      },
      {
        "passId": "954",
        "signer": "0xb347b5b99c49ce6c555071a1f0498c81511ad977"
      },
      {
        "passId": "955",
        "signer": "0xb3522064694ac9870dbf00eebc2712762193bb64"
      },
      {
        "passId": "956",
        "signer": "0xb353268ce17d2c7f0f4f8aff152e548c43633df5"
      },
      {
        "passId": "957",
        "signer": "0xb66190f67ed8f0ca790ddfe541ee1bd0da53fe70"
      },
      {
        "passId": "958",
        "signer": "0xb74e4d1592dad73f3745f57605580108ebaedad5"
      },
      {
        "passId": "959",
        "signer": "0xb7f9f538aa1b41ae2853eb63f1939187ffe70eb4"
      },
      {
        "passId": "960",
        "signer": "0xbb46c6e4d8a59520fbb11638c2d1228cc65f5a6c"
      },
      {
        "passId": "961",
        "signer": "0xbc10a3ae909b1b94f4c3e39607ad19d386dce32a"
      },
      {
        "passId": "962",
        "signer": "0xbd12aa424c207e90b66402c1f0aec357e8b1ded7"
      },
      {
        "passId": "963",
        "signer": "0xbe5be517537e53f09e88bcdf61da238477dca226"
      },
      {
        "passId": "964",
        "signer": "0xbeeef66749b64afe43bbc9475635eb510cfe4922"
      },
      {
        "passId": "965",
        "signer": "0xbf1ed1ea654ad49472daedc21a31c8d28e6bb790"
      },
      {
        "passId": "966",
        "signer": "0xbf27384febdc054bbd7e388761919e7d98f7da0c"
      },
      {
        "passId": "967",
        "signer": "0xbfdb50dc66c8df9fd9688d8fe5a0c34126427645"
      },
      {
        "passId": "968",
        "signer": "0xc09d3402515676b81a2f768c365146ea3faa5605"
      },
      {
        "passId": "969",
        "signer": "0xc0e5e14bdecd9ed6954a9e14c74e97cebd91bb94"
      },
      {
        "passId": "970",
        "signer": "0xc169699a825066f2f07e0b29c4082094b32a3f3e"
      },
      {
        "passId": "971",
        "signer": "0xc3a67c1437353bdc9c53060235a34018711de0cf"
      },
      {
        "passId": "972",
        "signer": "0xc42c694d0215b27bce1a871a4a2ad38cf0120a82"
      },
      {
        "passId": "973",
        "signer": "0xc555347d2b369b074be94fe6f7ae9ab43966b884"
      },
      {
        "passId": "974",
        "signer": "0xc665a60f22dda926b920deb8ffac0ef9d8a17460"
      },
      {
        "passId": "975",
        "signer": "0xc8286a9bf1f9bf8f3006fa014915c78b7e75111c"
      },
      {
        "passId": "976",
        "signer": "0xc8bace82793074fad3337424bdb84e306b2f8a44"
      },
      {
        "passId": "977",
        "signer": "0xc9a009bed9ed8a32499e18c20f7cd12132c8d6cb"
      },
      {
        "passId": "978",
        "signer": "0xca11d10ceb098f597a0cab28117fc3465991a63c"
      },
      {
        "passId": "979",
        "signer": "0xcbd2f544073eb35b59a8eb19194a222a5361cd74"
      },
      {
        "passId": "980",
        "signer": "0xcda685c8444f659ac3fe778f8d143aabdf1a21ab"
      },
      {
        "passId": "981",
        "signer": "0xcea78aaa93e917fb5e1802901db2b20aa4411b44"
      },
      {
        "passId": "982",
        "signer": "0xcef871b113d2bb5d3fa5dc96d2d288dd38082aae"
      },
      {
        "passId": "983",
        "signer": "0xcf680fb77c12e2aa2dec82f3ae0c0e527f549fe2"
      },
      {
        "passId": "984",
        "signer": "0xd1eddfcc4596cc8bd0bd7495beab9b979fc50336"
      },
      {
        "passId": "985",
        "signer": "0xd3e64b9dea13e4840a0da20965bd0ca37d05a12a"
      },
      {
        "passId": "986",
        "signer": "0xd651e2c626ee210fc38676124d5007ac822ad749"
      },
      {
        "passId": "987",
        "signer": "0xd657860fc512ec2250a7385a353f599e3276fddb"
      },
      {
        "passId": "988",
        "signer": "0xd6e02c13a6cc133c9d019495414667ea7bee05cc"
      },
      {
        "passId": "989",
        "signer": "0xdc190d7cea8e8bf0b381617062200c10cfff0a91"
      },
      {
        "passId": "990",
        "signer": "0xdd6c81d6d587e2d49eaadffb4ce380564046002a"
      },
      {
        "passId": "991",
        "signer": "0xddb92a96054132801cae3943b2f966fc2c308ac8"
      },
      {
        "passId": "992",
        "signer": "0xdde3ca351d85a4b4cc6aff8d42c0840959859053"
      },
      {
        "passId": "993",
        "signer": "0xe00a3ab72b29eb4ac2695221f62cdf872cb5d483"
      },
      {
        "passId": "994",
        "signer": "0xe120ed22a0cd12d5de6122aa7d5b6d93ac218b49"
      },
      {
        "passId": "995",
        "signer": "0xe20adb03a470b5573bf572dd918e052d0d17866e"
      },
      {
        "passId": "996",
        "signer": "0xe363c2fba75cbd27487b17430e1efbdd2add374e"
      },
      {
        "passId": "997",
        "signer": "0xe5a3d77d7788a83f3549dd7f08fc2aced7e262d2"
      },
      {
        "passId": "998",
        "signer": "0xe66e1e9e37e4e148b21eb22001431818e980d060"
      },
      {
        "passId": "999",
        "signer": "0xe7bd51dc30d4bdc9fddd42ea7c0a283590c9d416"
      },
      {
        "passId": "1000",
        "signer": "0xeb42cd8a1fe1ff556960a9a03ca29aa13f8aa838"
      },
      {
        "passId": "1001",
        "signer": "0xed0f30677c760ea8f0bff70c76eafc79d5f7c3c8"
      },
      {
        "passId": "1002",
        "signer": "0xeddd55a234240042695d7430bf0a09b9038a26ad"
      },
      {
        "passId": "1003",
        "signer": "0xee4d308cc1cde3dd0adcb5a2c85edff22db64918"
      },
      {
        "passId": "1004",
        "signer": "0xee9439a12a7c2a9b6600ca8a498620580d2f116e"
      },
      {
        "passId": "1005",
        "signer": "0xeeaf61935c0c48f8f8cc28c381683d7fa2f75e1c"
      },
      {
        "passId": "1006",
        "signer": "0xef1271ae97bc1a1b356ab697e9ed0d1d4e05fcda"
      },
      {
        "passId": "1007",
        "signer": "0xf19bc58f747d6ea11959bf2a0fa81e53285546ac"
      },
      {
        "passId": "1008",
        "signer": "0xf1e1c701b49b1dc2405a9e8ef40f9f88802b80fa"
      },
      {
        "passId": "1009",
        "signer": "0xf2b15320db6992ba49a7563e50e888c20edcbe3c"
      },
      {
        "passId": "1010",
        "signer": "0xf341c3abb49feb96b4822e68227b54c6fb9f6318"
      },
      {
        "passId": "1011",
        "signer": "0xf3493f6812b1f22b40f8539db2510e13ac251f96"
      },
      {
        "passId": "1012",
        "signer": "0xf3b1b6e83be4d55695f1d30ac3d307d9d5ca98ff"
      },
      {
        "passId": "1013",
        "signer": "0xf464d1a37d8ef9449722f44a4eeb715c0e0acdb3"
      },
      {
        "passId": "1014",
        "signer": "0xf6910d47fbb1f5518d60c721d4189936ecd5a1b6"
      },
      {
        "passId": "1015",
        "signer": "0xf73c935815908ad9a056fc50269f95d8ba032e9d"
      },
      {
        "passId": "1016",
        "signer": "0xf78cd306b23031de9e739a5bcde61764e82ad5ef"
      },
      {
        "passId": "1017",
        "signer": "0xf942040710bedf7220beb24b220631c2255e87f1"
      },
      {
        "passId": "1018",
        "signer": "0xf943e1d2db38db468f66a79b08ec23f8c4375ce3"
      },
      {
        "passId": "1019",
        "signer": "0xfa46dedf812c5803b1e2cea10eef3f27dafeca56"
      },
      {
        "passId": "1020",
        "signer": "0xfa9f104f338846b38b083c9e567ff6bbe43ab5f7"
      },
      {
        "passId": "1021",
        "signer": "0xfd12799b9fb97dc61d9ad7ad4ffba5624004bc62"
      },
      {
        "passId": "1022",
        "signer": "0xfe1e7dc61721f34a25c9eb4dc1a1a8f352c923ef"
      },
      {
        "passId": "1023",
        "signer": "0xfffff6e70842330948ca47254f2be673b1cb0db7"
      }
    ],
    "startTime": 1638126031,
    "publicSaleTimestamp": 1638169231,
    "percentageForCreator": 2500,
    "price": "100000000000000000"
  },
  "solcInputHash": "e51401ff8f31b15585d9d1fdfeccfeec",
  "bytecode": "0x6101a06040523480156200001257600080fd5b506040516200210138038062002101833981016040819052620000359162000091565b6001600160a01b03998a1660805292891660a05260c09190915290961660e05261010094909452610120929092526101405261016052610180526000556200012c565b6001600160a01b03811681146200008e57600080fd5b50565b6000806000806000806000806000806101408b8d031215620000b257600080fd5b8a51620000bf8162000078565b809a505060208b0151985060408b0151975060608b0151965060808b0151955060a08b0151945060c08b0151620000f68162000078565b60e08c01516101008d01519195509350620001118162000078565b809250506101208b015190509295989b9194979a5092959850565b60805160a05160c05160e0516101005161012051610140516101605161018051611edf62000222600039600081816101bd01528181610c050152610e2e015260008181610197015281816102dc015281816104110152818161051f01528181610be2015261103701526000818161016f01528181610bbf015261105f01526000818161014901528181610b9c0152610e5501526000818161012601528181610b7901526110850152600061159e0152600081816114ac01526114da0152600081816105cd015281816107fd015261152601526000818161078501528181610a0d01528181610aaa01526111a90152611edf6000f3fe6080604052600436106100b15760003560e01c80639c20551311610069578063d93459b61161004e578063d93459b61461023c578063e957a3811461025c578063f19b57c21461027c57600080fd5b80639c20551314610209578063ca9dca041461021c57600080fd5b80637361a72e1161009a5780637361a72e1461010057806381059f7814610113578063990b0f60146101e957600080fd5b80632228adcc146100b65780632558e933146100eb575b600080fd5b3480156100c257600080fd5b506100d66100d1366004611747565b6102b0565b60405190151581526020015b60405180910390f35b6100fe6100f93660046118a6565b6102da565b005b6100fe61010e3660046119a8565b61040f565b34801561011f57600080fd5b50604080517f000000000000000000000000000000000000000000000000000000000000000081527f000000000000000000000000000000000000000000000000000000000000000060208201527f0000000000000000000000000000000000000000000000000000000000000000918101919091527f000000000000000000000000000000000000000000000000000000000000000060608201527f0000000000000000000000000000000000000000000000000000000000000000608082015260a0016100e2565b3480156101f557600080fd5b506100d6610204366004611747565b6104d2565b6100fe610217366004611a12565b61051d565b34801561022857600080fd5b506100fe610237366004611a12565b6105b5565b34801561024857600080fd5b506100fe610257366004611a8e565b6107e5565b34801561026857600080fd5b506100d6610277366004611747565b610a7d565b34801561028857600080fd5b5061029c610297366004611ae5565b610a9b565b6040516100e2989796959493929190611b31565b6000806102c26010600685901c611bf7565b905080600714806102d35750806008145b9392505050565b7f00000000000000000000000000000000000000000000000000000000000000004210156103fe5761030b83610c43565b600061037683858760405160200161035292919091825260601b7fffffffffffffffffffffffffffffffffffffffff00000000000000000000000016602082015260340190565b60405160208183030381529060405280519060200120610d0190919063ffffffff16565b905060006103848583610d25565b90506103908382610d86565b6103fb576040517f08c379a000000000000000000000000000000000000000000000000000000000815260206004820152600d60248201527f494e56414c49445f50524f4f460000000000000000000000000000000000000060448201526064015b60405180910390fd5b50505b6104088585610e53565b5050505050565b7f00000000000000000000000000000000000000000000000000000000000000004210156104c25761044082610c43565b33600061044d8483610d25565b90506104598382610d86565b6104bf576040517f08c379a000000000000000000000000000000000000000000000000000000000815260206004820152600d60248201527f494e56414c49445f50524f4f460000000000000000000000000000000000000060448201526064016103f2565b50505b6104cc8484610e53565b50505050565b6000806104e161010084611c3a565b905060006104f182610100611c4e565b6104fb9085611c8b565b60009283526001602081905260409093205492901b9182169091149392505050565b7f00000000000000000000000000000000000000000000000000000000000000004210156105a7576040517f08c379a000000000000000000000000000000000000000000000000000000000815260206004820152601460248201527f524551554952455f504153535f4f525f5741495400000000000000000000000060448201526064016103f2565b6105b18282610e53565b5050565b3373ffffffffffffffffffffffffffffffffffffffff7f00000000000000000000000000000000000000000000000000000000000000001614610654576040517f08c379a000000000000000000000000000000000000000000000000000000000815260206004820152600e60248201527f4e4f545f415554484f52495a454400000000000000000000000000000000000060448201526064016103f2565b6102408261ffff16106106c3576040517f08c379a000000000000000000000000000000000000000000000000000000000815260206004820152600d60248201527f494e56414c49445f534f554e440000000000000000000000000000000000000060448201526064016103f2565b6106d08261ffff166102b0565b610736576040517f08c379a000000000000000000000000000000000000000000000000000000000815260206004820152600c60248201527f4e4f545f5245534552564544000000000000000000000000000000000000000060448201526064016103f2565b6040517f9c20551300000000000000000000000000000000000000000000000000000000815261ffff8316600482015273ffffffffffffffffffffffffffffffffffffffff82811660248301527f00000000000000000000000000000000000000000000000000000000000000001690639c20551390604401600060405180830381600087803b1580156107c957600080fd5b505af11580156107dd573d6000803e3d6000fd5b505050505050565b3373ffffffffffffffffffffffffffffffffffffffff7f00000000000000000000000000000000000000000000000000000000000000001614610884576040517f08c379a000000000000000000000000000000000000000000000000000000000815260206004820152600e60248201527f4e4f545f415554484f52495a454400000000000000000000000000000000000060448201526064016103f2565b60005b828110156109cf576102408484838181106108a4576108a4611ca2565b90506020020160208101906108b99190611cd1565b61ffff1610610924576040517f08c379a000000000000000000000000000000000000000000000000000000000815260206004820152600d60248201527f494e56414c49445f534f554e440000000000000000000000000000000000000060448201526064016103f2565b61095784848381811061093957610939611ca2565b905060200201602081019061094e9190611cd1565b61ffff166102b0565b6109bd576040517f08c379a000000000000000000000000000000000000000000000000000000000815260206004820152600c60248201527f4e4f545f5245534552564544000000000000000000000000000000000000000060448201526064016103f2565b806109c781611cec565b915050610887565b506040517fe2ea128800000000000000000000000000000000000000000000000000000000815273ffffffffffffffffffffffffffffffffffffffff7f0000000000000000000000000000000000000000000000000000000000000000169063e2ea128890610a4690869086908690600401611d25565b600060405180830381600087803b158015610a6057600080fd5b505af1158015610a74573d6000803e3d6000fd5b50505050505050565b600080610a8f6010600685901c611bf7565b60005410159392505050565b606060008060008060008060007f000000000000000000000000000000000000000000000000000000000000000073ffffffffffffffffffffffffffffffffffffffff1663a0554c268b8b6040518363ffffffff1660e01b8152600401610b03929190611d8b565b60006040518083038186803b158015610b1b57600080fd5b505afa158015610b2f573d6000803e3d6000fd5b505050506040513d6000823e601f3d9081017fffffffffffffffffffffffffffffffffffffffffffffffffffffffffffffffe0168201604052610b759190810190611de0565b97507f000000000000000000000000000000000000000000000000000000000000000096507f000000000000000000000000000000000000000000000000000000000000000095507f000000000000000000000000000000000000000000000000000000000000000094507f000000000000000000000000000000000000000000000000000000000000000093507f00000000000000000000000000000000000000000000000000000000000000009250610c2f8b6104d2565b915060005490509397509397509397509397565b6000610c5161010083611c3a565b90506000610c6182610100611c4e565b610c6b9084611c8b565b600083815260016020819052604090912054911b915080821615610ceb576040517f08c379a000000000000000000000000000000000000000000000000000000000815260206004820152601160248201527f504153535f414c52454144595f5553454400000000000000000000000000000060448201526064016103f2565b6000928352600160205260409092209117905550565b6000806000610d1085856111d8565b91509150610d1d81611248565b509392505050565b60008282604051602001610d6892919091825260601b7fffffffffffffffffffffffffffffffffffffffff00000000000000000000000016602082015260340190565b60405160208183030381529060405280519060200120905092915050565b6000805b8351811015610e2a576000848281518110610da757610da7611ca2565b6020026020010151905080841015610dea576040805160208101869052908101829052606001604051602081830303815290604052805190602001209350610e17565b60408051602081018390529081018590526060016040516020818303038152906040528051906020012093505b5080610e2281611cec565b915050610d8a565b50507f000000000000000000000000000000000000000000000000000000000000000014919050565b7f0000000000000000000000000000000000000000000000000000000000000000421015610edd576040517f08c379a000000000000000000000000000000000000000000000000000000000815260206004820152601060248201527f53414c455f4e4f545f535441525445440000000000000000000000000000000060448201526064016103f2565b6102408261ffff1610610f4c576040517f08c379a000000000000000000000000000000000000000000000000000000000815260206004820152600d60248201527f494e56414c49445f534f554e440000000000000000000000000000000000000060448201526064016103f2565b610f598261ffff16610a7d565b610fbf576040517f08c379a000000000000000000000000000000000000000000000000000000000815260206004820152601b60248201527f494e535455524d454e545f4e4f545f5945545f464f525f53414c45000000000060448201526064016103f2565b610fcc8261ffff166102b0565b15611033576040517f08c379a000000000000000000000000000000000000000000000000000000000815260206004820152600860248201527f524553455256454400000000000000000000000000000000000000000000000060448201526064016103f2565b60007f0000000000000000000000000000000000000000000000000000000000000000421015611083577f00000000000000000000000000000000000000000000000000000000000000006110a5565b7f00000000000000000000000000000000000000000000000000000000000000005b905080341015611111576040517f08c379a000000000000000000000000000000000000000000000000000000000815260206004820152600a60248201527f4e4f545f454e4f5547480000000000000000000000000000000000000000000060448201526064016103f2565b8034111561115157336108fc6111278334611c8b565b6040518115909202916000818181858888f1935050505015801561114f573d6000803e3d6000fd5b505b61115a816114a4565b6040517f9c20551300000000000000000000000000000000000000000000000000000000815261ffff8416600482015273ffffffffffffffffffffffffffffffffffffffff83811660248301527f00000000000000000000000000000000000000000000000000000000000000001690639c20551390604401610a46565b60008082516041141561120f5760208301516040840151606085015160001a611203878285856115e7565b94509450505050611241565b825160401415611239576020830151604084015161122e8683836116ff565b935093505050611241565b506000905060025b9250929050565b600081600481111561125c5761125c611e7a565b14156112655750565b600181600481111561127957611279611e7a565b14156112e1576040517f08c379a000000000000000000000000000000000000000000000000000000000815260206004820152601860248201527f45434453413a20696e76616c6964207369676e6174757265000000000000000060448201526064016103f2565b60028160048111156112f5576112f5611e7a565b141561135d576040517f08c379a000000000000000000000000000000000000000000000000000000000815260206004820152601f60248201527f45434453413a20696e76616c6964207369676e6174757265206c656e6774680060448201526064016103f2565b600381600481111561137157611371611e7a565b14156113ff576040517f08c379a000000000000000000000000000000000000000000000000000000000815260206004820152602260248201527f45434453413a20696e76616c6964207369676e6174757265202773272076616c60448201527f756500000000000000000000000000000000000000000000000000000000000060648201526084016103f2565b600481600481111561141357611413611e7a565b14156114a1576040517f08c379a000000000000000000000000000000000000000000000000000000000815260206004820152602260248201527f45434453413a20696e76616c6964207369676e6174757265202776272076616c60448201527f756500000000000000000000000000000000000000000000000000000000000060648201526084016103f2565b50565b80156114a1577f00000000000000000000000000000000000000000000000000000000000000001561157e5760006127106114ff7f000000000000000000000000000000000000000000000000000000000000000084611c4e565b6115099190611c3a565b60405190915073ffffffffffffffffffffffffffffffffffffffff7f0000000000000000000000000000000000000000000000000000000000000000169082156108fc029083906000818181858888f1935050505015801561156f573d6000803e3d6000fd5b5061157a8183611c8b565b9150505b80156114a15760405173ffffffffffffffffffffffffffffffffffffffff7f0000000000000000000000000000000000000000000000000000000000000000169082156108fc029083906000818181858888f193505050501580156105b1573d6000803e3d6000fd5b6000807f7fffffffffffffffffffffffffffffff5d576e7357a4501ddfe92f46681b20a083111561161e57506000905060036116f6565b8460ff16601b1415801561163657508460ff16601c14155b1561164757506000905060046116f6565b6040805160008082526020820180845289905260ff881692820192909252606081018690526080810185905260019060a0016020604051602081039080840390855afa15801561169b573d6000803e3d6000fd5b50506040517fffffffffffffffffffffffffffffffffffffffffffffffffffffffffffffffe0015191505073ffffffffffffffffffffffffffffffffffffffff81166116ef576000600192509250506116f6565b9150600090505b94509492505050565b6000807f7fffffffffffffffffffffffffffffffffffffffffffffffffffffffffffffff831660ff84901c601b01611739878288856115e7565b935093505050935093915050565b60006020828403121561175957600080fd5b5035919050565b803561ffff8116811461177257600080fd5b919050565b73ffffffffffffffffffffffffffffffffffffffff811681146114a157600080fd5b7f4e487b7100000000000000000000000000000000000000000000000000000000600052604160045260246000fd5b604051601f82017fffffffffffffffffffffffffffffffffffffffffffffffffffffffffffffffe016810167ffffffffffffffff8111828210171561180f5761180f611799565b604052919050565b600067ffffffffffffffff82111561183157611831611799565b5060051b60200190565b600082601f83011261184c57600080fd5b8135602061186161185c83611817565b6117c8565b82815260059290921b8401810191818101908684111561188057600080fd5b8286015b8481101561189b5780358352918301918301611884565b509695505050505050565b600080600080600060a086880312156118be57600080fd5b6118c786611760565b94506020808701356118d881611777565b945060408701359350606087013567ffffffffffffffff808211156118fc57600080fd5b818901915089601f83011261191057600080fd5b81358181111561192257611922611799565b611952847fffffffffffffffffffffffffffffffffffffffffffffffffffffffffffffffe0601f840116016117c8565b8181528b8583860101111561196657600080fd5b81858501868301376000918101909401529193506080880135918083111561198d57600080fd5b505061199b8882890161183b565b9150509295509295909350565b600080600080608085870312156119be57600080fd5b6119c785611760565b935060208501356119d781611777565b925060408501359150606085013567ffffffffffffffff8111156119fa57600080fd5b611a068782880161183b565b91505092959194509250565b60008060408385031215611a2557600080fd5b611a2e83611760565b91506020830135611a3e81611777565b809150509250929050565b60008083601f840112611a5b57600080fd5b50813567ffffffffffffffff811115611a7357600080fd5b6020830191508360208260051b850101111561124157600080fd5b600080600060408486031215611aa357600080fd5b833567ffffffffffffffff811115611aba57600080fd5b611ac686828701611a49565b9094509250506020840135611ada81611777565b809150509250925092565b600080600060408486031215611afa57600080fd5b83359250602084013567ffffffffffffffff811115611b1857600080fd5b611b2486828701611a49565b9497909650939450505050565b6101008082528951908201819052600090610120830190602090818d01845b82811015611b8257815173ffffffffffffffffffffffffffffffffffffffff1685529383019390830190600101611b50565b5050508192508a8185015250508760408301528660608301528560808301528460a0830152611bb560c083018515159052565b8260e08301529998505050505050505050565b7f4e487b7100000000000000000000000000000000000000000000000000000000600052601260045260246000fd5b600082611c0657611c06611bc8565b500690565b7f4e487b7100000000000000000000000000000000000000000000000000000000600052601160045260246000fd5b600082611c4957611c49611bc8565b500490565b6000817fffffffffffffffffffffffffffffffffffffffffffffffffffffffffffffffff0483118215151615611c8657611c86611c0b565b500290565b600082821015611c9d57611c9d611c0b565b500390565b7f4e487b7100000000000000000000000000000000000000000000000000000000600052603260045260246000fd5b600060208284031215611ce357600080fd5b6102d382611760565b60007fffffffffffffffffffffffffffffffffffffffffffffffffffffffffffffffff821415611d1e57611d1e611c0b565b5060010190565b6040808252810183905260008460608301825b86811015611d615761ffff611d4c84611760565b16825260209283019290910190600101611d38565b50809250505073ffffffffffffffffffffffffffffffffffffffff83166020830152949350505050565b6020815281602082015260007f07ffffffffffffffffffffffffffffffffffffffffffffffffffffffffffffff831115611dc457600080fd5b8260051b80856040850137600092016040019182525092915050565b60006020808385031215611df357600080fd5b825167ffffffffffffffff811115611e0a57600080fd5b8301601f81018513611e1b57600080fd5b8051611e2961185c82611817565b81815260059190911b82018301908381019087831115611e4857600080fd5b928401925b82841015611e6f578351611e6081611777565b82529284019290840190611e4d565b979650505050505050565b7f4e487b7100000000000000000000000000000000000000000000000000000000600052602160045260246000fdfea26469706673582212202911677db3b52bdb51464edbb8288ac47893c4b27897620dbaaf08f5f3be69ab64736f6c63430008090033",
  "devdoc": {
    "kind": "dev",
    "methods": {},
    "version": 1
  },
  "userdoc": {
    "kind": "user",
    "methods": {},
    "version": 1
  },
  "storageLayout": {
    "storage": [
      {
        "astId": 10767,
        "contract": "src/bleeps/BleepsFixedPriceSale.sol:BleepsFixedPriceSale",
        "label": "_uptoInstr",
        "offset": 0,
        "slot": "0",
        "type": "t_uint256"
      },
      {
        "astId": 10771,
        "contract": "src/bleeps/BleepsFixedPriceSale.sol:BleepsFixedPriceSale",
        "label": "_passUsed",
        "offset": 0,
        "slot": "1",
        "type": "t_mapping(t_uint256,t_uint256)"
      }
    ],
    "types": {
      "t_mapping(t_uint256,t_uint256)": {
        "encoding": "mapping",
        "key": "t_uint256",
        "label": "mapping(uint256 => uint256)",
        "numberOfBytes": "32",
        "value": "t_uint256"
      },
      "t_uint256": {
        "encoding": "inplace",
        "label": "uint256",
        "numberOfBytes": "32"
      }
    }
  }
}