{
  "address": "0x77Db365f7c27Fa478fd1c69B6805464a5f56261E",
  "abi": [
    {
      "inputs": [
        {
          "internalType": "address",
          "name": "openseaProxyRegistry",
          "type": "address"
        },
        {
          "internalType": "address",
          "name": "initialTokenURIAdmin",
          "type": "address"
        },
        {
          "internalType": "address",
          "name": "initialRoyaltyAdmin",
          "type": "address"
        },
        {
          "internalType": "address",
          "name": "initialMinterAdmin",
          "type": "address"
        },
        {
          "internalType": "contract ITokenURI",
          "name": "initialTokenURIContract",
          "type": "address"
        },
        {
          "internalType": "address",
          "name": "initialCheckpointingDisabler",
          "type": "address"
        }
      ],
      "stateMutability": "nonpayable",
      "type": "constructor"
    },
    {
      "anonymous": false,
      "inputs": [
        {
          "indexed": true,
          "internalType": "address",
          "name": "owner",
          "type": "address"
        },
        {
          "indexed": true,
          "internalType": "address",
          "name": "approved",
          "type": "address"
        },
        {
          "indexed": true,
          "internalType": "uint256",
          "name": "tokenId",
          "type": "uint256"
        }
      ],
      "name": "Approval",
      "type": "event"
    },
    {
      "anonymous": false,
      "inputs": [
        {
          "indexed": true,
          "internalType": "address",
          "name": "owner",
          "type": "address"
        },
        {
          "indexed": true,
          "internalType": "address",
          "name": "operator",
          "type": "address"
        },
        {
          "indexed": false,
          "internalType": "bool",
          "name": "approved",
          "type": "bool"
        }
      ],
      "name": "ApprovalForAll",
      "type": "event"
    },
    {
      "anonymous": false,
      "inputs": [],
      "name": "CheckpointingDisabled",
      "type": "event"
    },
    {
      "anonymous": false,
      "inputs": [
        {
          "indexed": false,
          "internalType": "address",
          "name": "newCheckpointingDisabler",
          "type": "address"
        }
      ],
      "name": "CheckpointingDisablerSet",
      "type": "event"
    },
    {
      "anonymous": false,
      "inputs": [
        {
          "indexed": true,
          "internalType": "address",
          "name": "delegator",
          "type": "address"
        },
        {
          "indexed": true,
          "internalType": "address",
          "name": "fromDelegate",
          "type": "address"
        },
        {
          "indexed": true,
          "internalType": "address",
          "name": "toDelegate",
          "type": "address"
        }
      ],
      "name": "DelegateChanged",
      "type": "event"
    },
    {
      "anonymous": false,
      "inputs": [
        {
          "indexed": true,
          "internalType": "address",
          "name": "delegate",
          "type": "address"
        },
        {
          "indexed": false,
          "internalType": "uint256",
          "name": "previousBalance",
          "type": "uint256"
        },
        {
          "indexed": false,
          "internalType": "uint256",
          "name": "newBalance",
          "type": "uint256"
        }
      ],
      "name": "DelegateVotesChanged",
      "type": "event"
    },
    {
      "anonymous": false,
      "inputs": [
        {
          "indexed": false,
          "internalType": "address",
          "name": "newMinterAdmin",
          "type": "address"
        }
      ],
      "name": "MinterAdminSet",
      "type": "event"
    },
    {
      "anonymous": false,
      "inputs": [
        {
          "indexed": false,
          "internalType": "address",
          "name": "newMinter",
          "type": "address"
        }
      ],
      "name": "MinterSet",
      "type": "event"
    },
    {
      "anonymous": false,
      "inputs": [
        {
          "indexed": false,
          "internalType": "address",
          "name": "newRoyaltyAdmin",
          "type": "address"
        }
      ],
      "name": "RoyaltyAdminSet",
      "type": "event"
    },
    {
      "anonymous": false,
      "inputs": [
        {
          "indexed": false,
          "internalType": "address",
          "name": "newTokenURIAdmin",
          "type": "address"
        }
      ],
      "name": "TokenURIAdminSet",
      "type": "event"
    },
    {
      "anonymous": false,
      "inputs": [
        {
          "indexed": false,
          "internalType": "contract ITokenURI",
          "name": "newTokenURIContract",
          "type": "address"
        }
      ],
      "name": "TokenURIContractSet",
      "type": "event"
    },
    {
      "anonymous": false,
      "inputs": [
        {
          "indexed": true,
          "internalType": "address",
          "name": "from",
          "type": "address"
        },
        {
          "indexed": true,
          "internalType": "address",
          "name": "to",
          "type": "address"
        },
        {
          "indexed": true,
          "internalType": "uint256",
          "name": "tokenId",
          "type": "uint256"
        }
      ],
      "name": "Transfer",
      "type": "event"
    },
    {
      "inputs": [],
      "name": "DELEGATION_TYPEHASH",
      "outputs": [
        {
          "internalType": "bytes32",
          "name": "",
          "type": "bytes32"
        }
      ],
      "stateMutability": "view",
      "type": "function"
    },
    {
      "inputs": [],
      "name": "DOMAIN_SEPARATOR",
      "outputs": [
        {
          "internalType": "bytes32",
          "name": "",
          "type": "bytes32"
        }
      ],
      "stateMutability": "view",
      "type": "function"
    },
    {
      "inputs": [],
      "name": "DOMAIN_TYPEHASH",
      "outputs": [
        {
          "internalType": "bytes32",
          "name": "",
          "type": "bytes32"
        }
      ],
      "stateMutability": "view",
      "type": "function"
    },
    {
      "inputs": [],
      "name": "PERMIT_FOR_ALL_TYPEHASH",
      "outputs": [
        {
          "internalType": "bytes32",
          "name": "",
          "type": "bytes32"
        }
      ],
      "stateMutability": "view",
      "type": "function"
    },
    {
      "inputs": [],
      "name": "PERMIT_TYPEHASH",
      "outputs": [
        {
          "internalType": "bytes32",
          "name": "",
          "type": "bytes32"
        }
      ],
      "stateMutability": "view",
      "type": "function"
    },
    {
      "inputs": [
        {
          "internalType": "address",
          "name": "operator",
          "type": "address"
        },
        {
          "internalType": "uint256",
          "name": "id",
          "type": "uint256"
        }
      ],
      "name": "approve",
      "outputs": [],
      "stateMutability": "nonpayable",
      "type": "function"
    },
    {
      "inputs": [
        {
          "internalType": "address",
          "name": "owner",
          "type": "address"
        }
      ],
      "name": "balanceOf",
      "outputs": [
        {
          "internalType": "uint256",
          "name": "balance",
          "type": "uint256"
        }
      ],
      "stateMutability": "view",
      "type": "function"
    },
    {
      "inputs": [],
      "name": "checkpointingDisabler",
      "outputs": [
        {
          "internalType": "address",
          "name": "",
          "type": "address"
        }
      ],
      "stateMutability": "view",
      "type": "function"
    },
    {
      "inputs": [
        {
          "internalType": "address",
          "name": "",
          "type": "address"
        },
        {
          "internalType": "uint32",
          "name": "",
          "type": "uint32"
        }
      ],
      "name": "checkpoints",
      "outputs": [
        {
          "internalType": "uint32",
          "name": "fromBlock",
          "type": "uint32"
        },
        {
          "internalType": "uint96",
          "name": "votes",
          "type": "uint96"
        }
      ],
      "stateMutability": "view",
      "type": "function"
    },
    {
      "inputs": [],
      "name": "contractURI",
      "outputs": [
        {
          "internalType": "string",
          "name": "",
          "type": "string"
        }
      ],
      "stateMutability": "view",
      "type": "function"
    },
    {
      "inputs": [],
      "name": "decimals",
      "outputs": [
        {
          "internalType": "uint8",
          "name": "",
          "type": "uint8"
        }
      ],
      "stateMutability": "view",
      "type": "function"
    },
    {
      "inputs": [
        {
          "internalType": "address",
          "name": "delegatee",
          "type": "address"
        }
      ],
      "name": "delegate",
      "outputs": [],
      "stateMutability": "nonpayable",
      "type": "function"
    },
    {
      "inputs": [
        {
          "internalType": "address",
          "name": "delegatee",
          "type": "address"
        },
        {
          "internalType": "uint256",
          "name": "nonce",
          "type": "uint256"
        },
        {
          "internalType": "uint256",
          "name": "expiry",
          "type": "uint256"
        },
        {
          "internalType": "uint8",
          "name": "v",
          "type": "uint8"
        },
        {
          "internalType": "bytes32",
          "name": "r",
          "type": "bytes32"
        },
        {
          "internalType": "bytes32",
          "name": "s",
          "type": "bytes32"
        }
      ],
      "name": "delegateBySig",
      "outputs": [],
      "stateMutability": "nonpayable",
      "type": "function"
    },
    {
      "inputs": [
        {
          "internalType": "address",
          "name": "delegator",
          "type": "address"
        }
      ],
      "name": "delegates",
      "outputs": [
        {
          "internalType": "address",
          "name": "",
          "type": "address"
        }
      ],
      "stateMutability": "view",
      "type": "function"
    },
    {
      "inputs": [],
      "name": "disableTheUseOfCheckpoints",
      "outputs": [],
      "stateMutability": "nonpayable",
      "type": "function"
    },
    {
      "inputs": [
        {
          "internalType": "uint256",
          "name": "id",
          "type": "uint256"
        }
      ],
      "name": "getApproved",
      "outputs": [
        {
          "internalType": "address",
          "name": "",
          "type": "address"
        }
      ],
      "stateMutability": "view",
      "type": "function"
    },
    {
      "inputs": [
        {
          "internalType": "address",
          "name": "account",
          "type": "address"
        }
      ],
      "name": "getCurrentVotes",
      "outputs": [
        {
          "internalType": "uint96",
          "name": "",
          "type": "uint96"
        }
      ],
      "stateMutability": "view",
      "type": "function"
    },
    {
      "inputs": [
        {
          "internalType": "address",
          "name": "account",
          "type": "address"
        },
        {
          "internalType": "uint256",
          "name": "blockNumber",
          "type": "uint256"
        }
      ],
      "name": "getPriorVotes",
      "outputs": [
        {
          "internalType": "uint96",
          "name": "",
          "type": "uint96"
        }
      ],
      "stateMutability": "view",
      "type": "function"
    },
    {
      "inputs": [
        {
          "internalType": "address",
          "name": "owner",
          "type": "address"
        },
        {
          "internalType": "address",
          "name": "operator",
          "type": "address"
        }
      ],
      "name": "isApprovedForAll",
      "outputs": [
        {
          "internalType": "bool",
          "name": "isOperator",
          "type": "bool"
        }
      ],
      "stateMutability": "view",
      "type": "function"
    },
    {
      "inputs": [
        {
          "internalType": "uint16",
          "name": "id",
          "type": "uint16"
        },
        {
          "internalType": "address",
          "name": "to",
          "type": "address"
        }
      ],
      "name": "mint",
      "outputs": [],
      "stateMutability": "nonpayable",
      "type": "function"
    },
    {
      "inputs": [],
      "name": "minter",
      "outputs": [
        {
          "internalType": "address",
          "name": "",
          "type": "address"
        }
      ],
      "stateMutability": "view",
      "type": "function"
    },
    {
      "inputs": [],
      "name": "minterAdmin",
      "outputs": [
        {
          "internalType": "address",
          "name": "",
          "type": "address"
        }
      ],
      "stateMutability": "view",
      "type": "function"
    },
    {
      "inputs": [
        {
          "internalType": "bytes[]",
          "name": "data",
          "type": "bytes[]"
        }
      ],
      "name": "multicall",
      "outputs": [
        {
          "internalType": "bytes[]",
          "name": "results",
          "type": "bytes[]"
        }
      ],
      "stateMutability": "payable",
      "type": "function"
    },
    {
      "inputs": [],
      "name": "name",
      "outputs": [
        {
          "internalType": "string",
          "name": "",
          "type": "string"
        }
      ],
      "stateMutability": "pure",
      "type": "function"
    },
    {
      "inputs": [
        {
          "internalType": "address",
          "name": "owner",
          "type": "address"
        }
      ],
      "name": "nonces",
      "outputs": [
        {
          "internalType": "uint256",
          "name": "nonce",
          "type": "uint256"
        }
      ],
      "stateMutability": "view",
      "type": "function"
    },
    {
      "inputs": [
        {
          "internalType": "address",
          "name": "",
          "type": "address"
        }
      ],
      "name": "numCheckpoints",
      "outputs": [
        {
          "internalType": "uint32",
          "name": "",
          "type": "uint32"
        }
      ],
      "stateMutability": "view",
      "type": "function"
    },
    {
      "inputs": [
        {
          "internalType": "uint256[]",
          "name": "ids",
          "type": "uint256[]"
        }
      ],
      "name": "ownerAndLastTransferBlockNumberList",
      "outputs": [
        {
          "components": [
            {
              "internalType": "address",
              "name": "owner",
              "type": "address"
            },
            {
              "internalType": "uint256",
              "name": "lastTransferBlockNumber",
              "type": "uint256"
            }
          ],
          "internalType": "struct ERC721Base.OwnerData[]",
          "name": "ownersData",
          "type": "tuple[]"
        }
      ],
      "stateMutability": "view",
      "type": "function"
    },
    {
      "inputs": [
        {
          "internalType": "uint256",
          "name": "id",
          "type": "uint256"
        }
      ],
      "name": "ownerOf",
      "outputs": [
        {
          "internalType": "address",
          "name": "owner",
          "type": "address"
        }
      ],
      "stateMutability": "view",
      "type": "function"
    },
    {
      "inputs": [
        {
          "internalType": "uint256[]",
          "name": "ids",
          "type": "uint256[]"
        }
      ],
      "name": "owners",
      "outputs": [
        {
          "internalType": "address[]",
          "name": "addresses",
          "type": "address[]"
        }
      ],
      "stateMutability": "view",
      "type": "function"
    },
    {
      "inputs": [
        {
          "internalType": "address",
          "name": "spender",
          "type": "address"
        },
        {
          "internalType": "uint256",
          "name": "id",
          "type": "uint256"
        },
        {
          "internalType": "uint256",
          "name": "deadline",
          "type": "uint256"
        },
        {
          "internalType": "uint8",
          "name": "v",
          "type": "uint8"
        },
        {
          "internalType": "bytes32",
          "name": "r",
          "type": "bytes32"
        },
        {
          "internalType": "bytes32",
          "name": "s",
          "type": "bytes32"
        }
      ],
      "name": "permit",
      "outputs": [],
      "stateMutability": "nonpayable",
      "type": "function"
    },
    {
      "inputs": [
        {
          "internalType": "address",
          "name": "signer",
          "type": "address"
        },
        {
          "internalType": "address",
          "name": "spender",
          "type": "address"
        },
        {
          "internalType": "uint256",
          "name": "deadline",
          "type": "uint256"
        },
        {
          "internalType": "uint8",
          "name": "v",
          "type": "uint8"
        },
        {
          "internalType": "bytes32",
          "name": "r",
          "type": "bytes32"
        },
        {
          "internalType": "bytes32",
          "name": "s",
          "type": "bytes32"
        }
      ],
      "name": "permitForAll",
      "outputs": [],
      "stateMutability": "nonpayable",
      "type": "function"
    },
    {
      "inputs": [],
      "name": "royaltyAdmin",
      "outputs": [
        {
          "internalType": "address",
          "name": "",
          "type": "address"
        }
      ],
      "stateMutability": "view",
      "type": "function"
    },
    {
      "inputs": [
        {
          "internalType": "uint256",
          "name": "id",
          "type": "uint256"
        },
        {
          "internalType": "uint256",
          "name": "salePrice",
          "type": "uint256"
        }
      ],
      "name": "royaltyInfo",
      "outputs": [
        {
          "internalType": "address",
          "name": "receiver",
          "type": "address"
        },
        {
          "internalType": "uint256",
          "name": "royaltyAmount",
          "type": "uint256"
        }
      ],
      "stateMutability": "view",
      "type": "function"
    },
    {
      "inputs": [
        {
          "internalType": "address",
          "name": "from",
          "type": "address"
        },
        {
          "internalType": "address",
          "name": "to",
          "type": "address"
        },
        {
          "internalType": "uint256",
          "name": "id",
          "type": "uint256"
        }
      ],
      "name": "safeTransferFrom",
      "outputs": [],
      "stateMutability": "nonpayable",
      "type": "function"
    },
    {
      "inputs": [
        {
          "internalType": "address",
          "name": "from",
          "type": "address"
        },
        {
          "internalType": "address",
          "name": "to",
          "type": "address"
        },
        {
          "internalType": "uint256",
          "name": "id",
          "type": "uint256"
        },
        {
          "internalType": "bytes",
          "name": "data",
          "type": "bytes"
        }
      ],
      "name": "safeTransferFrom",
      "outputs": [],
      "stateMutability": "nonpayable",
      "type": "function"
    },
    {
      "inputs": [
        {
          "internalType": "address",
          "name": "operator",
          "type": "address"
        },
        {
          "internalType": "bool",
          "name": "approved",
          "type": "bool"
        }
      ],
      "name": "setApprovalForAll",
      "outputs": [],
      "stateMutability": "nonpayable",
      "type": "function"
    },
    {
      "inputs": [
        {
          "internalType": "address",
          "name": "newCheckpointingDisabler",
          "type": "address"
        }
      ],
      "name": "setCheckpointingDisabler",
      "outputs": [],
      "stateMutability": "nonpayable",
      "type": "function"
    },
    {
      "inputs": [
        {
          "internalType": "address",
          "name": "newMinter",
          "type": "address"
        }
      ],
      "name": "setMinter",
      "outputs": [],
      "stateMutability": "nonpayable",
      "type": "function"
    },
    {
      "inputs": [
        {
          "internalType": "address",
          "name": "newMinterAdmin",
          "type": "address"
        }
      ],
      "name": "setMinterAdmin",
      "outputs": [],
      "stateMutability": "nonpayable",
      "type": "function"
    },
    {
      "inputs": [
        {
          "internalType": "address",
          "name": "newRoyaltyAdmin",
          "type": "address"
        }
      ],
      "name": "setRoyaltyAdmin",
      "outputs": [],
      "stateMutability": "nonpayable",
      "type": "function"
    },
    {
      "inputs": [
        {
          "internalType": "address",
          "name": "newRecipient",
          "type": "address"
        },
        {
          "internalType": "uint256",
          "name": "royaltyPer10Thousands",
          "type": "uint256"
        }
      ],
      "name": "setRoyaltyParameters",
      "outputs": [],
      "stateMutability": "nonpayable",
      "type": "function"
    },
    {
      "inputs": [
        {
          "internalType": "address",
          "name": "newTokenURIAdmin",
          "type": "address"
        }
      ],
      "name": "setTokenURIAdmin",
      "outputs": [],
      "stateMutability": "nonpayable",
      "type": "function"
    },
    {
      "inputs": [
        {
          "internalType": "contract ITokenURI",
          "name": "newTokenURIContract",
          "type": "address"
        }
      ],
      "name": "setTokenURIContract",
      "outputs": [],
      "stateMutability": "nonpayable",
      "type": "function"
    },
    {
      "inputs": [
        {
          "internalType": "uint256",
          "name": "id",
          "type": "uint256"
        }
      ],
      "name": "sound",
      "outputs": [
        {
          "internalType": "uint8",
          "name": "note",
          "type": "uint8"
        },
        {
          "internalType": "uint8",
          "name": "instrument",
          "type": "uint8"
        }
      ],
      "stateMutability": "pure",
      "type": "function"
    },
    {
      "inputs": [
        {
          "internalType": "bytes4",
          "name": "id",
          "type": "bytes4"
        }
      ],
      "name": "supportsInterface",
      "outputs": [
        {
          "internalType": "bool",
          "name": "",
          "type": "bool"
        }
      ],
      "stateMutability": "pure",
      "type": "function"
    },
    {
      "inputs": [],
      "name": "symbol",
      "outputs": [
        {
          "internalType": "string",
          "name": "",
          "type": "string"
        }
      ],
      "stateMutability": "pure",
      "type": "function"
    },
    {
      "inputs": [
        {
          "internalType": "uint256",
          "name": "id",
          "type": "uint256"
        }
      ],
      "name": "tokenNonces",
      "outputs": [
        {
          "internalType": "uint256",
          "name": "nonce",
          "type": "uint256"
        }
      ],
      "stateMutability": "view",
      "type": "function"
    },
    {
      "inputs": [
        {
          "internalType": "uint256",
          "name": "id",
          "type": "uint256"
        }
      ],
      "name": "tokenURI",
      "outputs": [
        {
          "internalType": "string",
          "name": "",
          "type": "string"
        }
      ],
      "stateMutability": "view",
      "type": "function"
    },
    {
      "inputs": [],
      "name": "tokenURIAdmin",
      "outputs": [
        {
          "internalType": "address",
          "name": "",
          "type": "address"
        }
      ],
      "stateMutability": "view",
      "type": "function"
    },
    {
      "inputs": [],
      "name": "tokenURIContract",
      "outputs": [
        {
          "internalType": "contract ITokenURI",
          "name": "",
          "type": "address"
        }
      ],
      "stateMutability": "view",
      "type": "function"
    },
    {
      "inputs": [
        {
          "internalType": "address",
          "name": "from",
          "type": "address"
        },
        {
          "internalType": "address",
          "name": "to",
          "type": "address"
        },
        {
          "internalType": "uint256",
          "name": "id",
          "type": "uint256"
        }
      ],
      "name": "transferFrom",
      "outputs": [],
      "stateMutability": "nonpayable",
      "type": "function"
    },
    {
      "inputs": [
        {
          "internalType": "address",
          "name": "delegator",
          "type": "address"
        }
      ],
      "name": "votesToDelegate",
      "outputs": [
        {
          "internalType": "uint96",
          "name": "",
          "type": "uint96"
        }
      ],
      "stateMutability": "view",
      "type": "function"
    }
  ],
  "transactionHash": "0xde76bf9b6e68100478cac9d6c80cb786f75c054c7eed5010db592869e50f7fc1",
  "args": [
    "0x0000000000000000000000000000000000000000",
    "0xE53cd71271AcAdbeb0f64d9c8C62bBdDc8cA9e66",
    "0xE53cd71271AcAdbeb0f64d9c8C62bBdDc8cA9e66",
    "0xE53cd71271AcAdbeb0f64d9c8C62bBdDc8cA9e66",
    "0x8C24E8FCe70EA08f1AA66C1bBd71FB4619D68e55",
    "0xE53cd71271AcAdbeb0f64d9c8C62bBdDc8cA9e66"
  ],
  "solcInputHash": "d916af620307ccba45feb080daf8a057",
  "bytecode": "0x60e06040526006805460ff191660011790553480156200001e57600080fd5b5060405162005220380380620052208339810160408190526200004191620002a7565b6001600160a01b0386166080524660a0819052859085908590620000658162000200565b60c05250600a80546001600160a01b038581166001600160a01b03199283168117909355600b8054858316908416179055600c8054918616919092161790556040519081527f89de65ceb8cdf195a0b50021ed65dd305b54d3b744a0e283bd98c6058e2edd789060200160405180910390a16040516001600160a01b03821681527fb17416b845258d996b82b66c3c9166088ec5edf592b35fcce47c62a73d61ef419060200160405180910390a16040516001600160a01b03831681527fb8e0165b6664b7af8f9563c66e3d6b987c2d06fe192539d7123a0777b41a7c899060200160405180910390a15050600e80546001600160a01b0319166001600160a01b0385169081179091556040519081527f6bf5b09f847c9c9e97addeaf1ea9d5fd44ff6ae2c9c4aaf55fb476eca421a45d915060200160405180910390a1601180546001600160a01b0319166001600160a01b0383169081179091556040519081527f4b70ff24654603d6961acf6a0cf30db833fc126dac63891114f984fefcc2b0649060200160405180910390a15050505050506200033b565b60007f8cad95687ba82c2ce50e74f7b754645e5117c3a5bec8151c0726d5857980a86662000247604080518082019091526006815265426c6565707360d01b602082015290565b80516020918201206040805192830193909352918101919091526060810183905230608082015260a001604051602081830303815290604052805190602001209050919050565b6001600160a01b0381168114620002a457600080fd5b50565b60008060008060008060c08789031215620002c157600080fd5b8651620002ce816200028e565b6020880151909650620002e1816200028e565b6040880151909550620002f4816200028e565b606088015190945062000307816200028e565b60808801519093506200031a816200028e565b60a08801519092506200032d816200028e565b809150509295509295509295565b60805160a05160c051614eae6200037260003960006133c8015260006133930152600081816137ee01526138740152614eae6000f3fe60806040526004361061033f5760003560e01c80637ecebe00116101b0578063b88d4fde116100ec578063e8a3d48511610095578063edd9803f1161006f578063edd9803f14610b3b578063f1127ed814610b5b578063f394528214610bda578063fca3b5aa14610c0757600080fd5b8063e8a3d48514610ae6578063e9580e9114610afb578063e985e9c514610b1b57600080fd5b8063d6d2d847116100c6578063d6d2d84714610a7d578063e6b34e8614610a9d578063e7a324dc14610ab257600080fd5b8063b88d4fde14610a1d578063c3cda52014610a3d578063c87b56dd14610a5d57600080fd5b80639c20551311610159578063a754d48f11610133578063a754d48f14610983578063ac9650d8146109b0578063adc5fcc2146109d0578063b4b5ea57146109fd57600080fd5b80639c20551314610916578063a0554c2614610936578063a22cb4651461096357600080fd5b80638cc660111161018a5780638cc660111461088357806395d89b41146108b057806399235f39146108f657600080fd5b80637ecebe00146107f357806382fc314714610836578063894e851f1461085657600080fd5b806342842e0e1161027f578063639147af1161022857806370a082311161020257806370a0823114610756578063782d6fe1146107765780637ac2ff7b146107b35780637ba9638b146107d357600080fd5b8063639147af146106c1578063698f87be146106e15780636fcfff451461070e57600080fd5b8063587cde1e11610259578063587cde1e146106615780635c19a95c146106815780636352211e146106a157600080fd5b806342842e0e146105ed5780634d6878211461060d578063585956d61461062d57600080fd5b806323b872dd116102ec57806330adf81f116102c657806330adf81f14610550578063313ce5671461058457806334dd800d146105ab5780633644e515146105d857600080fd5b806323b872dd1461049e5780632954dbfa146104be5780632a55205a1461050457600080fd5b8063081812fc1161031d578063081812fc1461041a578063095ea7b31461043a57806320606b701461045c57600080fd5b806301ffc9a71461034457806306fdde031461037957806307546172146103c8575b600080fd5b34801561035057600080fd5b5061036461035f3660046143e6565b610c27565b60405190151581526020015b60405180910390f35b34801561038557600080fd5b5060408051808201909152600681527f426c65657073000000000000000000000000000000000000000000000000000060208201525b6040516103709190614479565b3480156103d457600080fd5b50600d546103f59073ffffffffffffffffffffffffffffffffffffffff1681565b60405173ffffffffffffffffffffffffffffffffffffffff9091168152602001610370565b34801561042657600080fd5b506103f561043536600461448c565b610c84565b34801561044657600080fd5b5061045a6104553660046144c7565b610d75565b005b34801561046857600080fd5b506104907f8cad95687ba82c2ce50e74f7b754645e5117c3a5bec8151c0726d5857980a86681565b604051908152602001610370565b3480156104aa57600080fd5b5061045a6104b93660046144f3565b610edf565b3480156104ca57600080fd5b506104ea6104d936600461448c565b603f81169160069190911c600f1690565b6040805160ff938416815292909116602083015201610370565b34801561051057600080fd5b5061052461051f366004614534565b611221565b6040805173ffffffffffffffffffffffffffffffffffffffff9093168352602083019190915201610370565b34801561055c57600080fd5b506104907f49ecf333e5b8c95c40fdafc95c1ad136e8914a8fb55e9dc8bb01eaa83a2df9ad81565b34801561059057600080fd5b50610599600081565b60405160ff9091168152602001610370565b3480156105b757600080fd5b50600a546103f59073ffffffffffffffffffffffffffffffffffffffff1681565b3480156105e457600080fd5b50610490611264565b3480156105f957600080fd5b5061045a6106083660046144f3565b611273565b34801561061957600080fd5b5061045a610628366004614556565b611293565b34801561063957600080fd5b506104907f29795620f29ed5790c945e3f419a1b3e2381aa07751ccffe5b81231639d74cd581565b34801561066d57600080fd5b506103f561067c366004614556565b61138e565b34801561068d57600080fd5b5061045a61069c366004614556565b6113cd565b3480156106ad57600080fd5b506103f56106bc36600461448c565b6113f8565b3480156106cd57600080fd5b5061045a6106dc366004614556565b611489565b3480156106ed57600080fd5b50600e546103f59073ffffffffffffffffffffffffffffffffffffffff1681565b34801561071a57600080fd5b50610741610729366004614556565b60096020526000908152604090205463ffffffff1681565b60405163ffffffff9091168152602001610370565b34801561076257600080fd5b50610490610771366004614556565b61157d565b34801561078257600080fd5b506107966107913660046144c7565b611625565b6040516bffffffffffffffffffffffff9091168152602001610370565b3480156107bf57600080fd5b5061045a6107ce366004614584565b61193c565b3480156107df57600080fd5b5061045a6107ee366004614556565b611a8c565b3480156107ff57600080fd5b5061049061080e366004614556565b73ffffffffffffffffffffffffffffffffffffffff1660009081526005602052604090205490565b34801561084257600080fd5b5061045a610851366004614556565b611b80565b34801561086257600080fd5b50600b546103f59073ffffffffffffffffffffffffffffffffffffffff1681565b34801561088f57600080fd5b506011546103f59073ffffffffffffffffffffffffffffffffffffffff1681565b3480156108bc57600080fd5b5060408051808201909152600581527f424c45455000000000000000000000000000000000000000000000000000000060208201526103bb565b34801561090257600080fd5b5061045a610911366004614556565b611c74565b34801561092257600080fd5b5061045a6109313660046145de565b611d68565b34801561094257600080fd5b5061095661095136600461466a565b612007565b60405161037091906146ac565b34801561096f57600080fd5b5061045a61097e366004614706565b6120da565b34801561098f57600080fd5b50600c546103f59073ffffffffffffffffffffffffffffffffffffffff1681565b6109c36109be36600461466a565b6120e9565b6040516103709190614739565b3480156109dc57600080fd5b506104906109eb36600461448c565b60009081526004602052604090205490565b348015610a0957600080fd5b50610796610a18366004614556565b612254565b348015610a2957600080fd5b5061045a610a3836600461487d565b6122f1565b348015610a4957600080fd5b5061045a610a58366004614584565b612636565b348015610a6957600080fd5b506103bb610a7836600461448c565b6129a5565b348015610a8957600080fd5b5061045a610a9836600461492c565b612a6a565b348015610aa957600080fd5b5061045a612b29565b348015610abe57600080fd5b506104907fe48329057bfd03d55e49b547132e39cffd9c1820ad7b9d4c5307691425d15adf81565b348015610af257600080fd5b506103bb612c59565b348015610b0757600080fd5b50610796610b16366004614556565b612d1e565b348015610b2757600080fd5b50610364610b36366004614975565b612d4a565b348015610b4757600080fd5b5061045a610b563660046144c7565b612d92565b348015610b6757600080fd5b50610bb1610b76366004614993565b600860209081526000928352604080842090915290825290205463ffffffff81169064010000000090046bffffffffffffffffffffffff1682565b6040805163ffffffff90931683526bffffffffffffffffffffffff909116602083015201610370565b348015610be657600080fd5b50610bfa610bf536600461466a565b612e5e565b60405161037091906149ca565b348015610c1357600080fd5b5061045a610c22366004614556565b612f91565b6000610c3282613085565b80610c7e57507f2a55205a000000000000000000000000000000000000000000000000000000007fffffffff000000000000000000000000000000000000000000000000000000008316145b92915050565b6000818152602081905260408120547f80000000000000000000000000000000000000000000000000000000000000008082161473ffffffffffffffffffffffffffffffffffffffff8216610d3a576040517f08c379a000000000000000000000000000000000000000000000000000000000815260206004820152601160248201527f4e4f4e4558495354454e545f544f4b454e00000000000000000000000000000060448201526064015b60405180910390fd5b8015610d6b5750505060009081526003602052604090205473ffffffffffffffffffffffffffffffffffffffff1690565b5060009392505050565b6000818152602081905260409020546affffffffffffffffffffff60a082901c1673ffffffffffffffffffffffffffffffffffffffff8216610e13576040517f08c379a000000000000000000000000000000000000000000000000000000000815260206004820152601160248201527f4e4f4e4558495354454e545f544f4b454e0000000000000000000000000000006044820152606401610d31565b3373ffffffffffffffffffffffffffffffffffffffff83161480610e67575073ffffffffffffffffffffffffffffffffffffffff8216600090815260026020908152604080832033845290915290205460ff165b610ecd576040517f08c379a000000000000000000000000000000000000000000000000000000000815260206004820152601560248201527f554e415554484f52495a45445f415050524f56414c00000000000000000000006044820152606401610d31565b610ed982828686613166565b50505050565b6000818152602081905260409020547f80000000000000000000000000000000000000000000000000000000000000008082161473ffffffffffffffffffffffffffffffffffffffff8216610f90576040517f08c379a000000000000000000000000000000000000000000000000000000000815260206004820152601160248201527f4e4f4e4558495354454e545f544f4b454e0000000000000000000000000000006044820152606401610d31565b8473ffffffffffffffffffffffffffffffffffffffff168273ffffffffffffffffffffffffffffffffffffffff1614611025576040517f08c379a000000000000000000000000000000000000000000000000000000000815260206004820152600960248201527f4e4f545f4f574e455200000000000000000000000000000000000000000000006044820152606401610d31565b73ffffffffffffffffffffffffffffffffffffffff84166110a2576040517f08c379a000000000000000000000000000000000000000000000000000000000815260206004820152601260248201527f4e4f545f544f5f5a45524f4144445245535300000000000000000000000000006044820152606401610d31565b73ffffffffffffffffffffffffffffffffffffffff8416301415611122576040517f08c379a000000000000000000000000000000000000000000000000000000000815260206004820152600b60248201527f4e4f545f544f5f544849530000000000000000000000000000000000000000006044820152606401610d31565b3373ffffffffffffffffffffffffffffffffffffffff86161461120f5773ffffffffffffffffffffffffffffffffffffffff8516600090815260026020908152604080832033845290915290205460ff16806111a957508080156111a9575060008381526003602052604090205473ffffffffffffffffffffffffffffffffffffffff1633145b61120f576040517f08c379a000000000000000000000000000000000000000000000000000000000815260206004820152601560248201527f554e415554484f52495a45445f5452414e5346455200000000000000000000006044820152606401610d31565b61121a85858561329f565b5050505050565b600f5460105473ffffffffffffffffffffffffffffffffffffffff90911690600090612710906112519085614a5e565b61125b9190614aca565b90509250929050565b600061126e61338e565b905090565b61128e838383604051806020016040528060008152506122f1565b505050565b60115473ffffffffffffffffffffffffffffffffffffffff163314611314576040517f08c379a000000000000000000000000000000000000000000000000000000000815260206004820152600e60248201527f4e4f545f415554484f52495a45440000000000000000000000000000000000006044820152606401610d31565b601180547fffffffffffffffffffffffff00000000000000000000000000000000000000001673ffffffffffffffffffffffffffffffffffffffff83169081179091556040519081527f4b70ff24654603d6961acf6a0cf30db833fc126dac63891114f984fefcc2b064906020015b60405180910390a150565b73ffffffffffffffffffffffffffffffffffffffff80821660009081526007602052604081205490911680156113c457806113c6565b825b9392505050565b73ffffffffffffffffffffffffffffffffffffffff81166113eb5750335b6113f533826133ee565b50565b60008181526020819052604090205473ffffffffffffffffffffffffffffffffffffffff8116611484576040517f08c379a000000000000000000000000000000000000000000000000000000000815260206004820152601160248201527f4e4f4e4558495354454e545f544f4b454e0000000000000000000000000000006044820152606401610d31565b919050565b600a5473ffffffffffffffffffffffffffffffffffffffff16331461150a576040517f08c379a000000000000000000000000000000000000000000000000000000000815260206004820152600e60248201527f4e4f545f415554484f52495a45440000000000000000000000000000000000006044820152606401610d31565b600a80547fffffffffffffffffffffffff00000000000000000000000000000000000000001673ffffffffffffffffffffffffffffffffffffffff83169081179091556040519081527f89de65ceb8cdf195a0b50021ed65dd305b54d3b744a0e283bd98c6058e2edd7890602001611383565b600073ffffffffffffffffffffffffffffffffffffffff82166115fc576040517f08c379a000000000000000000000000000000000000000000000000000000000815260206004820152601260248201527f5a45524f5f414444524553535f4f574e455200000000000000000000000000006044820152606401610d31565b5073ffffffffffffffffffffffffffffffffffffffff1660009081526001602052604090205490565b60004382106116b6576040517f08c379a000000000000000000000000000000000000000000000000000000000815260206004820152603760248201527f455243373231436865636b706f696e7461626c653a3a6765745072696f72566f60448201527f7465733a206e6f74207965742064657465726d696e65640000000000000000006064820152608401610d31565b73ffffffffffffffffffffffffffffffffffffffff831660009081526009602052604090205463ffffffff16806116f1576000915050610c7e565b73ffffffffffffffffffffffffffffffffffffffff841660009081526008602052604081208491611723600185614ade565b63ffffffff908116825260208201929092526040016000205416116117a95773ffffffffffffffffffffffffffffffffffffffff8416600090815260086020526040812090611773600184614ade565b63ffffffff16815260208101919091526040016000205464010000000090046bffffffffffffffffffffffff169150610c7e9050565b73ffffffffffffffffffffffffffffffffffffffff8416600090815260086020908152604080832083805290915290205463ffffffff168310156117f1576000915050610c7e565b6000806117ff600184614ade565b90505b8163ffffffff168163ffffffff1611156118e457600060026118248484614ade565b61182e9190614b03565b6118389083614ade565b73ffffffffffffffffffffffffffffffffffffffff8816600090815260086020908152604080832063ffffffff8581168552908352928190208151808301909252549283168082526401000000009093046bffffffffffffffffffffffff16918101919091529192508714156118b857602001519450610c7e9350505050565b805163ffffffff168711156118cf578193506118dd565b6118da600183614ade565b92505b5050611802565b5073ffffffffffffffffffffffffffffffffffffffff8516600090815260086020908152604080832063ffffffff909416835292905220546bffffffffffffffffffffffff6401000000009091041691505092915050565b428410156119a6576040517f08c379a000000000000000000000000000000000000000000000000000000000815260206004820152601760248201527f5045524d49545f444541444c494e455f455850495245440000000000000000006044820152606401610d31565b6000858152602081905260409020546affffffffffffffffffffff60a082901c1673ffffffffffffffffffffffffffffffffffffffff8216611a44576040517f08c379a000000000000000000000000000000000000000000000000000000000815260206004820152601160248201527f4e4f4e4558495354454e545f544f4b454e0000000000000000000000000000006044820152606401610d31565b60008781526004602052604081208054611a769285928c928c928c9290611a6a83614b26565b919050558a8a8a613493565b611a8282828a8a613166565b5050505050505050565b600b5473ffffffffffffffffffffffffffffffffffffffff163314611b0d576040517f08c379a000000000000000000000000000000000000000000000000000000000815260206004820152600e60248201527f4e4f545f415554484f52495a45440000000000000000000000000000000000006044820152606401610d31565b600b80547fffffffffffffffffffffffff00000000000000000000000000000000000000001673ffffffffffffffffffffffffffffffffffffffff83169081179091556040519081527fb17416b845258d996b82b66c3c9166088ec5edf592b35fcce47c62a73d61ef4190602001611383565b600a5473ffffffffffffffffffffffffffffffffffffffff163314611c01576040517f08c379a000000000000000000000000000000000000000000000000000000000815260206004820152600e60248201527f4e4f545f415554484f52495a45440000000000000000000000000000000000006044820152606401610d31565b600e80547fffffffffffffffffffffffff00000000000000000000000000000000000000001673ffffffffffffffffffffffffffffffffffffffff83169081179091556040519081527f6bf5b09f847c9c9e97addeaf1ea9d5fd44ff6ae2c9c4aaf55fb476eca421a45d90602001611383565b600c5473ffffffffffffffffffffffffffffffffffffffff163314611cf5576040517f08c379a000000000000000000000000000000000000000000000000000000000815260206004820152600e60248201527f4e4f545f415554484f52495a45440000000000000000000000000000000000006044820152606401610d31565b600c80547fffffffffffffffffffffffff00000000000000000000000000000000000000001673ffffffffffffffffffffffffffffffffffffffff83169081179091556040519081527fb8e0165b6664b7af8f9563c66e3d6b987c2d06fe192539d7123a0777b41a7c8990602001611383565b600d5473ffffffffffffffffffffffffffffffffffffffff163314611de9576040517f08c379a000000000000000000000000000000000000000000000000000000000815260206004820152601360248201527f4f4e4c595f4d494e5445525f414c4c4f574544000000000000000000000000006044820152606401610d31565b6104008261ffff1610611e58576040517f08c379a000000000000000000000000000000000000000000000000000000000815260206004820152600d60248201527f494e56414c49445f534f554e44000000000000000000000000000000000000006044820152606401610d31565b73ffffffffffffffffffffffffffffffffffffffff8116611ed5576040517f08c379a000000000000000000000000000000000000000000000000000000000815260206004820152601260248201527f4e4f545f544f5f5a45524f4144445245535300000000000000000000000000006044820152606401610d31565b73ffffffffffffffffffffffffffffffffffffffff8116301415611f55576040517f08c379a000000000000000000000000000000000000000000000000000000000815260206004820152600b60248201527f4e4f545f544f5f544849530000000000000000000000000000000000000000006044820152606401610d31565b61ffff821660009081526020819052604090205473ffffffffffffffffffffffffffffffffffffffff811615611fe7576040517f08c379a000000000000000000000000000000000000000000000000000000000815260206004820152600f60248201527f414c52454144595f4352454154454400000000000000000000000000000000006044820152606401610d31565b61128e6000838561ffff1660405180602001604052806000815250613585565b60608167ffffffffffffffff811115612022576120226147b9565b60405190808252806020026020018201604052801561204b578160200160208202803683370190505b50905060005b828110156120d357600084848381811061206d5761206d614b5f565b9050602002013590506000808281526020019081526020016000205483838151811061209b5761209b614b5f565b73ffffffffffffffffffffffffffffffffffffffff9092166020928302919091019091015250806120cb81614b26565b915050612051565b5092915050565b6120e5338383613620565b5050565b60608167ffffffffffffffff811115612104576121046147b9565b60405190808252806020026020018201604052801561213757816020015b60608152602001906001900390816121225790505b50905060005b828110156120d3576000803086868581811061215b5761215b614b5f565b905060200281019061216d9190614b8e565b60405161217b929190614bf3565b600060405180830381855af49150503d80600081146121b6576040519150601f19603f3d011682016040523d82523d6000602084013e6121bb565b606091505b509150915081612221576044815110156121d457600080fd5b600481019050808060200190518101906121ee9190614c03565b6040517f08c379a0000000000000000000000000000000000000000000000000000000008152600401610d319190614479565b8084848151811061223457612234614b5f565b60200260200101819052505050808061224c90614b26565b91505061213d565b73ffffffffffffffffffffffffffffffffffffffff811660009081526009602052604081205463ffffffff168061228c5760006113c6565b73ffffffffffffffffffffffffffffffffffffffff83166000908152600860205260408120906122bd600184614ade565b63ffffffff16815260208101919091526040016000205464010000000090046bffffffffffffffffffffffff169392505050565b6000828152602081905260409020547f80000000000000000000000000000000000000000000000000000000000000008082161473ffffffffffffffffffffffffffffffffffffffff82166123a2576040517f08c379a000000000000000000000000000000000000000000000000000000000815260206004820152601160248201527f4e4f4e4558495354454e545f544f4b454e0000000000000000000000000000006044820152606401610d31565b8573ffffffffffffffffffffffffffffffffffffffff168273ffffffffffffffffffffffffffffffffffffffff1614612437576040517f08c379a000000000000000000000000000000000000000000000000000000000815260206004820152600960248201527f4e4f545f4f574e455200000000000000000000000000000000000000000000006044820152606401610d31565b73ffffffffffffffffffffffffffffffffffffffff85166124b4576040517f08c379a000000000000000000000000000000000000000000000000000000000815260206004820152601260248201527f4e4f545f544f5f5a45524f4144445245535300000000000000000000000000006044820152606401610d31565b73ffffffffffffffffffffffffffffffffffffffff8516301415612534576040517f08c379a000000000000000000000000000000000000000000000000000000000815260206004820152600b60248201527f4e4f545f544f5f544849530000000000000000000000000000000000000000006044820152606401610d31565b3373ffffffffffffffffffffffffffffffffffffffff87161461262257808015612581575060008481526003602052604090205473ffffffffffffffffffffffffffffffffffffffff1633145b806125bc575073ffffffffffffffffffffffffffffffffffffffff8616600090815260026020908152604080832033845290915290205460ff165b612622576040517f08c379a000000000000000000000000000000000000000000000000000000000815260206004820152601560248201527f554e415554484f52495a45445f5452414e5346455200000000000000000000006044820152606401610d31565b61262e86868686613585565b505050505050565b600061264061338e565b604080517fe48329057bfd03d55e49b547132e39cffd9c1820ad7b9d4c5307691425d15adf602082015273ffffffffffffffffffffffffffffffffffffffff8a1691810191909152606081018890526080810187905260a001604051602081830303815290604052805190602001206040516020016126f19291907f190100000000000000000000000000000000000000000000000000000000000081526002810192909252602282015260420190565b604080517fffffffffffffffffffffffffffffffffffffffffffffffffffffffffffffffe08184030181528282528051602091820120600080855291840180845281905260ff88169284019290925260608301869052608083018590529092509060019060a0016020604051602081039080840390855afa15801561277a573d6000803e3d6000fd5b50506040517fffffffffffffffffffffffffffffffffffffffffffffffffffffffffffffffe0015191505073ffffffffffffffffffffffffffffffffffffffff8116612848576040517f08c379a000000000000000000000000000000000000000000000000000000000815260206004820152603660248201527f455243373231436865636b706f696e7461626c653a3a64656c6567617465427960448201527f5369673a20696e76616c6964207369676e6174757265000000000000000000006064820152608401610d31565b73ffffffffffffffffffffffffffffffffffffffff8116600090815260056020526040812080549161287983614b26565b91905055871461290b576040517f08c379a000000000000000000000000000000000000000000000000000000000815260206004820152603260248201527f455243373231436865636b706f696e7461626c653a3a64656c6567617465427960448201527f5369673a20696e76616c6964206e6f6e636500000000000000000000000000006064820152608401610d31565b8542111561299b576040517f08c379a000000000000000000000000000000000000000000000000000000000815260206004820152603660248201527f455243373231436865636b706f696e7461626c653a3a64656c6567617465427960448201527f5369673a207369676e61747572652065787069726564000000000000000000006064820152608401610d31565b611a8281896133ee565b600e546040517fc87b56dd0000000000000000000000000000000000000000000000000000000081526004810183905260609173ffffffffffffffffffffffffffffffffffffffff169063c87b56dd9060240160006040518083038186803b158015612a1057600080fd5b505afa158015612a24573d6000803e3d6000fd5b505050506040513d6000823e601f3d9081017fffffffffffffffffffffffffffffffffffffffffffffffffffffffffffffffe0168201604052610c7e9190810190614c03565b42841015612ad4576040517f08c379a000000000000000000000000000000000000000000000000000000000815260206004820152601760248201527f5045524d49545f444541444c494e455f455850495245440000000000000000006044820152606401610d31565b73ffffffffffffffffffffffffffffffffffffffff861660009081526005602052604081208054612b1d92899289928992909190612b1183614b26565b919050558787876136b8565b61262e86866001613620565b60115473ffffffffffffffffffffffffffffffffffffffff163314612baa576040517f08c379a000000000000000000000000000000000000000000000000000000000815260206004820152600e60248201527f4e4f545f415554484f52495a45440000000000000000000000000000000000006044820152606401610d31565b600680547fffffffffffffffffffffffffffffffffffffffffffffffffffffffffffffff00169055601180547fffffffffffffffffffffffff0000000000000000000000000000000000000000169055604051600081527f4b70ff24654603d6961acf6a0cf30db833fc126dac63891114f984fefcc2b0649060200160405180910390a16040517f3355f5c11ec5fbd9909c4fbd232bf8592a749dba18405f16df892fa6b40eddae90600090a1565b600e54604080517fe8a3d485000000000000000000000000000000000000000000000000000000008152905160609273ffffffffffffffffffffffffffffffffffffffff169163e8a3d485916004808301926000929190829003018186803b158015612cc457600080fd5b505afa158015612cd8573d6000803e3d6000fd5b505050506040513d6000823e601f3d9081017fffffffffffffffffffffffffffffffffffffffffffffffffffffffffffffffe016820160405261126e9190810190614c03565b6000610c7e612d2c8361157d565b6040518060600160405280603d8152602001614e05603d9139613798565b73ffffffffffffffffffffffffffffffffffffffff808316600090815260026020908152604080832093851683529290529081205460ff16806113c657506113c683836137ea565b600b5473ffffffffffffffffffffffffffffffffffffffff163314612e13576040517f08c379a000000000000000000000000000000000000000000000000000000000815260206004820152600e60248201527f4e4f545f415554484f52495a45440000000000000000000000000000000000006044820152606401610d31565b600f80547fffffffffffffffffffffffff00000000000000000000000000000000000000001673ffffffffffffffffffffffffffffffffffffffff9390931692909217909155601055565b60608167ffffffffffffffff811115612e7957612e796147b9565b604051908082528060200260200182016040528015612ebe57816020015b6040805180820190915260008082526020820152815260200190600190039081612e975790505b50905060005b828110156120d3576000806000868685818110612ee357612ee3614b5f565b90506020020135815260200190815260200160002054905080838381518110612f0e57612f0e614b5f565b60200260200101516000019073ffffffffffffffffffffffffffffffffffffffff16908173ffffffffffffffffffffffffffffffffffffffff168152505060a081901c6affffffffffffffffffffff16838381518110612f7057612f70614b5f565b60209081029190910181015101525080612f8981614b26565b915050612ec4565b600c5473ffffffffffffffffffffffffffffffffffffffff163314613012576040517f08c379a000000000000000000000000000000000000000000000000000000000815260206004820152600e60248201527f4e4f545f415554484f52495a45440000000000000000000000000000000000006044820152606401610d31565b600d80547fffffffffffffffffffffffff00000000000000000000000000000000000000001673ffffffffffffffffffffffffffffffffffffffff83169081179091556040519081527f726b590ef91a8c76ad05bbe91a57ef84605276528f49cd47d787f558a4e755b690602001611383565b60007f01ffc9a7000000000000000000000000000000000000000000000000000000007fffffffff000000000000000000000000000000000000000000000000000000008316148061311857507f80ac58cd000000000000000000000000000000000000000000000000000000007fffffffff000000000000000000000000000000000000000000000000000000008316145b80610c7e5750507fffffffff00000000000000000000000000000000000000000000000000000000167f5b5e139f000000000000000000000000000000000000000000000000000000001490565b73ffffffffffffffffffffffffffffffffffffffff82166131b357600081815260208190526040902060a084901b73ffffffffffffffffffffffffffffffffffffffff861617905561323e565b6000818152602081815260408083207f800000000000000000000000000000000000000000000000000000000000000073ffffffffffffffffffffffffffffffffffffffff89811660a08a901b1791909117909155600390925290912080547fffffffffffffffffffffffff0000000000000000000000000000000000000000169184169190911790555b808273ffffffffffffffffffffffffffffffffffffffff168573ffffffffffffffffffffffffffffffffffffffff167f8c5be1e5ebec7d5bd14f71427d1e84f3dd0314c0f7b2291e5b200ac8c7c3b92560405160405180910390a450505050565b6132aa838383613913565b73ffffffffffffffffffffffffffffffffffffffff80831660009081526001602081905260409091208054909101905583161561332d5773ffffffffffffffffffffffffffffffffffffffff8316600090815260016020526040902080547fffffffffffffffffffffffffffffffffffffffffffffffffffffffffffffffff0190555b6000818152602081905260408082204360a01b73ffffffffffffffffffffffffffffffffffffffff80871691821790925591518493918716917fddf252ad1be2c89b69c2b068fc378daa952ba7f163c4a11628f55a4df523b3ef91a4505050565b6000467f000000000000000000000000000000000000000000000000000000000000000081146133c6576133c18161393a565b6133e8565b7f00000000000000000000000000000000000000000000000000000000000000005b91505090565b60006133f98361138e565b73ffffffffffffffffffffffffffffffffffffffff84811660008181526007602052604080822080547fffffffffffffffffffffffff000000000000000000000000000000000000000016888616908117909155905194955093928516927f3134e8a2e6d97e929a7e54011ea5485d7d196dd5f0ba4d4ef95803e8e3fc257f9190a4600061348684612d1e565b9050610ed98284836139de565b600061349d61338e565b604080517f49ecf333e5b8c95c40fdafc95c1ad136e8914a8fb55e9dc8bb01eaa83a2df9ad602082015273ffffffffffffffffffffffffffffffffffffffff8b1691810191909152606081018990526080810187905260a0810188905260c001604051602081830303815290604052805190602001206040516020016135559291907f190100000000000000000000000000000000000000000000000000000000000081526002810192909252602282015260420190565b60405160208183030381529060405280519060200120905061357a8982868686613c03565b505050505050505050565b61359084848461329f565b73ffffffffffffffffffffffffffffffffffffffff83163b15610ed9576135ba3385858585613f30565b610ed9576040517f08c379a000000000000000000000000000000000000000000000000000000000815260206004820152601860248201527f4552433732315f5452414e534645525f52454a454354454400000000000000006044820152606401610d31565b73ffffffffffffffffffffffffffffffffffffffff83811660008181526002602090815260408083209487168084529482529182902080547fffffffffffffffffffffffffffffffffffffffffffffffffffffffffffffff001686151590811790915591519182527f17307eab39ab6107e8899845ad3d59bd9653f200f220920489ca2b5937696c31910160405180910390a3505050565b60006136c261338e565b604080517f29795620f29ed5790c945e3f419a1b3e2381aa07751ccffe5b81231639d74cd5602082015273ffffffffffffffffffffffffffffffffffffffff8a1691810191909152606081018790526080810188905260a001604051602081830303815290604052805190602001206040516020016137739291907f190100000000000000000000000000000000000000000000000000000000000081526002810192909252602282015260420190565b604051602081830303815290604052805190602001209050611a828882868686613c03565b6000816c0100000000000000000000000084106137e2576040517f08c379a0000000000000000000000000000000000000000000000000000000008152600401610d319190614479565b509192915050565b60007f000000000000000000000000000000000000000000000000000000000000000073ffffffffffffffffffffffffffffffffffffffff1661382f57506000610c7e565b6040517fc455279100000000000000000000000000000000000000000000000000000000815273ffffffffffffffffffffffffffffffffffffffff84811660048301527f0000000000000000000000000000000000000000000000000000000000000000918482169183169063c45527919060240160206040518083038186803b1580156138bc57600080fd5b505afa1580156138d0573d6000803e3d6000fd5b505050506040513d601f19601f820116820180604052508101906138f49190614c7a565b73ffffffffffffffffffffffffffffffffffffffff1614949350505050565b60065460ff161561128e5761128e61392a8461138e565b6139338461138e565b60016139de565b60007f8cad95687ba82c2ce50e74f7b754645e5117c3a5bec8151c0726d5857980a86661399760408051808201909152600681527f426c656570730000000000000000000000000000000000000000000000000000602082015290565b80516020918201206040805192830193909352918101919091526060810183905230608082015260a001604051602081830303815290604052805190602001209050919050565b8173ffffffffffffffffffffffffffffffffffffffff168373ffffffffffffffffffffffffffffffffffffffff1614158015613a2857506000816bffffffffffffffffffffffff16115b1561128e5773ffffffffffffffffffffffffffffffffffffffff831615613b1a5773ffffffffffffffffffffffffffffffffffffffff831660009081526009602052604081205463ffffffff169081613a82576000613ae1565b73ffffffffffffffffffffffffffffffffffffffff8516600090815260086020526040812090613ab3600185614ade565b63ffffffff16815260208101919091526040016000205464010000000090046bffffffffffffffffffffffff165b90506000613b088285604051806060016040528060378152602001614e4260379139614014565b9050613b1686848484614082565b5050505b73ffffffffffffffffffffffffffffffffffffffff82161561128e5773ffffffffffffffffffffffffffffffffffffffff821660009081526009602052604081205463ffffffff169081613b6f576000613bce565b73ffffffffffffffffffffffffffffffffffffffff8416600090815260086020526040812090613ba0600185614ade565b63ffffffff16815260208101919091526040016000205464010000000090046bffffffffffffffffffffffff165b90506000613bf58285604051806060016040528060368152602001614d8b60369139614305565b905061262e85848484614082565b73ffffffffffffffffffffffffffffffffffffffff85163b15613d9f57604080516020810184905280820183905260f885901b7fff000000000000000000000000000000000000000000000000000000000000001660608201528151604181830301815260618201928390527f1626ba7e000000000000000000000000000000000000000000000000000000009283905273ffffffffffffffffffffffffffffffffffffffff881691631626ba7e91613cc191899190606501614c97565b60206040518083038186803b158015613cd957600080fd5b505afa158015613ced573d6000803e3d6000fd5b505050506040513d601f19601f82011682018060405250810190613d119190614cb0565b7fffffffff000000000000000000000000000000000000000000000000000000001614613d9a576040517f08c379a000000000000000000000000000000000000000000000000000000000815260206004820152601b60248201527f5349474e41545552455f313237315f4e4f545f4d41544348494e4700000000006044820152606401610d31565b61121a565b6040805160008082526020820180845287905260ff861692820192909252606081018490526080810183905260019060a0016020604051602081039080840390855afa158015613df3573d6000803e3d6000fd5b50506040517fffffffffffffffffffffffffffffffffffffffffffffffffffffffffffffffe0015191505073ffffffffffffffffffffffffffffffffffffffff8116613e9b576040517f08c379a000000000000000000000000000000000000000000000000000000000815260206004820152601160248201527f5349474e41545552455f494e56414c49440000000000000000000000000000006044820152606401610d31565b8573ffffffffffffffffffffffffffffffffffffffff168173ffffffffffffffffffffffffffffffffffffffff161461262e576040517f08c379a000000000000000000000000000000000000000000000000000000000815260206004820152601660248201527f5349474e41545552455f57524f4e475f5349474e4552000000000000000000006044820152606401610d31565b6000808473ffffffffffffffffffffffffffffffffffffffff1663150b7a02888887876040518563ffffffff1660e01b8152600401613f729493929190614ccd565b602060405180830381600087803b158015613f8c57600080fd5b505af1158015613fa0573d6000803e3d6000fd5b505050506040513d601f19601f82011682018060405250810190613fc49190614cb0565b7fffffffff00000000000000000000000000000000000000000000000000000000167f150b7a02000000000000000000000000000000000000000000000000000000001491505095945050505050565b6000836bffffffffffffffffffffffff16836bffffffffffffffffffffffff161115829061406f576040517f08c379a0000000000000000000000000000000000000000000000000000000008152600401610d319190614479565b5061407a8385614d16565b949350505050565b60006140a643604051806080016040528060448152602001614dc160449139614376565b905060008463ffffffff1611801561410d575073ffffffffffffffffffffffffffffffffffffffff8516600090815260086020526040812063ffffffff8316916140f1600188614ade565b63ffffffff908116825260208201929092526040016000205416145b156141a35773ffffffffffffffffffffffffffffffffffffffff851660009081526008602052604081208391614144600188614ade565b63ffffffff168152602081019190915260400160002080546bffffffffffffffffffffffff92909216640100000000027fffffffffffffffffffffffffffffffff000000000000000000000000ffffffff90921691909117905561429e565b60408051808201825263ffffffff80841682526bffffffffffffffffffffffff808616602080850191825273ffffffffffffffffffffffffffffffffffffffff8b166000908152600882528681208b8616825290915294909420925183549451909116640100000000027fffffffffffffffffffffffffffffffff00000000000000000000000000000000909416911617919091179055614245846001614d3b565b73ffffffffffffffffffffffffffffffffffffffff8616600090815260096020526040902080547fffffffffffffffffffffffffffffffffffffffffffffffffffffffff000000001663ffffffff929092169190911790555b604080516bffffffffffffffffffffffff80861682528416602082015273ffffffffffffffffffffffffffffffffffffffff8716917fdec2bacdd2f05b59de34da9b523dff8be42e5e38e818c82fdb0bae774387a724910160405180910390a25050505050565b6000806143128486614d63565b9050846bffffffffffffffffffffffff16816bffffffffffffffffffffffff161015839061436d576040517f08c379a0000000000000000000000000000000000000000000000000000000008152600401610d319190614479565b50949350505050565b60008164010000000084106137e2576040517f08c379a0000000000000000000000000000000000000000000000000000000008152600401610d319190614479565b7fffffffff00000000000000000000000000000000000000000000000000000000811681146113f557600080fd5b6000602082840312156143f857600080fd5b81356113c6816143b8565b60005b8381101561441e578181015183820152602001614406565b83811115610ed95750506000910152565b60008151808452614447816020860160208601614403565b601f017fffffffffffffffffffffffffffffffffffffffffffffffffffffffffffffffe0169290920160200192915050565b6020815260006113c6602083018461442f565b60006020828403121561449e57600080fd5b5035919050565b73ffffffffffffffffffffffffffffffffffffffff811681146113f557600080fd5b600080604083850312156144da57600080fd5b82356144e5816144a5565b946020939093013593505050565b60008060006060848603121561450857600080fd5b8335614513816144a5565b92506020840135614523816144a5565b929592945050506040919091013590565b6000806040838503121561454757600080fd5b50508035926020909101359150565b60006020828403121561456857600080fd5b81356113c6816144a5565b803560ff8116811461148457600080fd5b60008060008060008060c0878903121561459d57600080fd5b86356145a8816144a5565b955060208701359450604087013593506145c460608801614573565b92506080870135915060a087013590509295509295509295565b600080604083850312156145f157600080fd5b823561ffff8116811461460357600080fd5b91506020830135614613816144a5565b809150509250929050565b60008083601f84011261463057600080fd5b50813567ffffffffffffffff81111561464857600080fd5b6020830191508360208260051b850101111561466357600080fd5b9250929050565b6000806020838503121561467d57600080fd5b823567ffffffffffffffff81111561469457600080fd5b6146a08582860161461e565b90969095509350505050565b6020808252825182820181905260009190848201906040850190845b818110156146fa57835173ffffffffffffffffffffffffffffffffffffffff16835292840192918401916001016146c8565b50909695505050505050565b6000806040838503121561471957600080fd5b8235614724816144a5565b91506020830135801515811461461357600080fd5b6000602080830181845280855180835260408601915060408160051b870101925083870160005b828110156147ac577fffffffffffffffffffffffffffffffffffffffffffffffffffffffffffffffc088860301845261479a85835161442f565b94509285019290850190600101614760565b5092979650505050505050565b7f4e487b7100000000000000000000000000000000000000000000000000000000600052604160045260246000fd5b604051601f82017fffffffffffffffffffffffffffffffffffffffffffffffffffffffffffffffe016810167ffffffffffffffff8111828210171561482f5761482f6147b9565b604052919050565b600067ffffffffffffffff821115614851576148516147b9565b50601f017fffffffffffffffffffffffffffffffffffffffffffffffffffffffffffffffe01660200190565b6000806000806080858703121561489357600080fd5b843561489e816144a5565b935060208501356148ae816144a5565b925060408501359150606085013567ffffffffffffffff8111156148d157600080fd5b8501601f810187136148e257600080fd5b80356148f56148f082614837565b6147e8565b81815288602083850101111561490a57600080fd5b8160208401602083013760006020838301015280935050505092959194509250565b60008060008060008060c0878903121561494557600080fd5b8635614950816144a5565b95506020870135614960816144a5565b9450604087013593506145c460608801614573565b6000806040838503121561498857600080fd5b8235614603816144a5565b600080604083850312156149a657600080fd5b82356149b1816144a5565b9150602083013563ffffffff8116811461461357600080fd5b602080825282518282018190526000919060409081850190868401855b82811015614a22578151805173ffffffffffffffffffffffffffffffffffffffff1685528601518685015292840192908501906001016149e7565b5091979650505050505050565b7f4e487b7100000000000000000000000000000000000000000000000000000000600052601160045260246000fd5b6000817fffffffffffffffffffffffffffffffffffffffffffffffffffffffffffffffff0483118215151615614a9657614a96614a2f565b500290565b7f4e487b7100000000000000000000000000000000000000000000000000000000600052601260045260246000fd5b600082614ad957614ad9614a9b565b500490565b600063ffffffff83811690831681811015614afb57614afb614a2f565b039392505050565b600063ffffffff80841680614b1a57614b1a614a9b565b92169190910492915050565b60007fffffffffffffffffffffffffffffffffffffffffffffffffffffffffffffffff821415614b5857614b58614a2f565b5060010190565b7f4e487b7100000000000000000000000000000000000000000000000000000000600052603260045260246000fd5b60008083357fffffffffffffffffffffffffffffffffffffffffffffffffffffffffffffffe1843603018112614bc357600080fd5b83018035915067ffffffffffffffff821115614bde57600080fd5b60200191503681900382131561466357600080fd5b8183823760009101908152919050565b600060208284031215614c1557600080fd5b815167ffffffffffffffff811115614c2c57600080fd5b8201601f81018413614c3d57600080fd5b8051614c4b6148f082614837565b818152856020838501011115614c6057600080fd5b614c71826020830160208601614403565b95945050505050565b600060208284031215614c8c57600080fd5b81516113c6816144a5565b82815260406020820152600061407a604083018461442f565b600060208284031215614cc257600080fd5b81516113c6816143b8565b600073ffffffffffffffffffffffffffffffffffffffff808716835280861660208401525083604083015260806060830152614d0c608083018461442f565b9695505050505050565b60006bffffffffffffffffffffffff83811690831681811015614afb57614afb614a2f565b600063ffffffff808316818516808303821115614d5a57614d5a614a2f565b01949350505050565b60006bffffffffffffffffffffffff808316818516808303821115614d5a57614d5a614a2f56fe455243373231436865636b706f696e7461626c653a3a5f6d6f766544656c6567617465733a20616d6f756e74206f766572666c6f7773455243373231436865636b706f696e7461626c653a3a5f7772697465436865636b706f696e743a20626c6f636b206e756d62657220657863656564732033322062697473455243373231436865636b706f696e7461626c653a3a766f746573546f44656c65676174653a20616d6f756e7420657863656564732039362062697473455243373231436865636b706f696e7461626c653a3a5f6d6f766544656c6567617465733a20616d6f756e7420756e646572666c6f7773a264697066735822122027b4713a323e03fdd0c55aeb1d3ac70a4a9987643b6e9af88851262bbb4552da64736f6c63430008090033",
  "devdoc": {
    "kind": "dev",
    "methods": {
      "DOMAIN_SEPARATOR()": {
        "details": "Return the DOMAIN_SEPARATOR."
      },
      "approve(address,uint256)": {
        "params": {
          "id": "The id of the token.",
          "operator": "The address receiving the approval."
        }
      },
      "balanceOf(address)": {
        "params": {
          "owner": "The address to look for."
        },
        "returns": {
          "balance": "The number of tokens owned by the address."
        }
      },
      "constructor": {
        "details": "Create the Bleeps contract",
        "params": {
          "initialCheckpointingDisabler": "admin able to update the royalty recipient and rates.",
          "initialMinterAdmin": "admin able to set the minter contract.",
          "initialRoyaltyAdmin": "admin able to update the royalty recipient and rates.",
          "initialTokenURIAdmin": "admin able to update the tokenURI contract.",
          "initialTokenURIContract": "initial tokenURI contract that generate the metadata including the wav file.",
          "openseaProxyRegistry": "allow Bleeps to be sold on opensea without prior approval tx as long as the user have already an opensea proxy."
        }
      },
      "delegate(address)": {
        "params": {
          "delegatee": "The address to delegate votes to"
        }
      },
      "delegateBySig(address,uint256,uint256,uint8,bytes32,bytes32)": {
        "params": {
          "delegatee": "The address to delegate votes to",
          "expiry": "The time at which to expire the signature",
          "nonce": "The contract state required to match the signature",
          "r": "Half of the ECDSA signature pair",
          "s": "Half of the ECDSA signature pair",
          "v": "The recovery byte of the signature"
        }
      },
      "getApproved(uint256)": {
        "params": {
          "id": "The id of the token."
        },
        "returns": {
          "_0": "The address of the operator."
        }
      },
      "getCurrentVotes(address)": {
        "params": {
          "account": "The address to get votes balance"
        },
        "returns": {
          "_0": "The number of current votes for `account`"
        }
      },
      "getPriorVotes(address,uint256)": {
        "details": "Block number must be a finalized block or else this function will revert to prevent misinformation.",
        "params": {
          "account": "The address of the account to check",
          "blockNumber": "The block number to get the vote balance at"
        },
        "returns": {
          "_0": "The number of votes the account had as of the given block"
        }
      },
      "isApprovedForAll(address,address)": {
        "params": {
          "operator": "The address of the operator.",
          "owner": "The address of the owner."
        },
        "returns": {
          "isOperator": "The status of the approval."
        }
      },
      "mint(uint16,address)": {
        "params": {
          "id": "bleep id which represent a pair of (note, instrument).",
          "to": "address that will receive the Bleep."
        }
      },
      "multicall(bytes[])": {
        "details": "The `msg.value` should not be trusted for any method callable from multicall.",
        "params": {
          "data": "The encoded function data for each of the calls to make to this contract."
        },
        "returns": {
          "results": "The results from each of the calls passed in via data."
        }
      },
      "ownerAndLastTransferBlockNumberList(uint256[])": {
        "params": {
          "ids": "The list of token ids to check."
        },
        "returns": {
          "ownersData": "The list of (owner, lastTransferBlockNumber) for each ids given as input."
        }
      },
      "ownerOf(uint256)": {
        "params": {
          "id": "The id of the token."
        },
        "returns": {
          "owner": "The address of the token owner."
        }
      },
      "owners(uint256[])": {
        "params": {
          "ids": "The list if token ids to check."
        },
        "returns": {
          "addresses": "The list of addresses, corresponding to the list of ids."
        }
      },
      "royaltyInfo(uint256,uint256)": {
        "params": {
          "id": "- the token queried for royalty information.",
          "salePrice": "- the sale price of the token specified by id."
        },
        "returns": {
          "receiver": "- address of who should be sent the royalty payment.",
          "royaltyAmount": "- the royalty payment amount for salePrice."
        }
      },
      "safeTransferFrom(address,address,uint256)": {
        "params": {
          "from": "The send of the token.",
          "id": "The id of the token.",
          "to": "The recipient of the token."
        }
      },
      "safeTransferFrom(address,address,uint256,bytes)": {
        "params": {
          "data": "Additional data.",
          "from": "The sender of the token.",
          "id": "The id of the token.",
          "to": "The recipient of the token."
        }
      },
      "setApprovalForAll(address,bool)": {
        "params": {
          "approved": "The determination of the approval.",
          "operator": "The address receiving the approval."
        }
      },
      "setCheckpointingDisabler(address)": {
        "params": {
          "newCheckpointingDisabler": "new address that can disable the use of checkpointing. can be the zero address to remove the ability to change."
        }
      },
      "setRoyaltyParameters(address,uint256)": {
        "params": {
          "newRecipient": "the address that should receive the royalty proceeds.",
          "royaltyPer10Thousands": "the share of the salePrice (in 1/10000) given to the recipient."
        }
      },
      "setTokenURIContract(address)": {
        "params": {
          "newTokenURIContract": "The address of the new tokenURI contract."
        }
      },
      "sound(uint256)": {
        "params": {
          "id": "bleep id which represent a pair of (note, instrument)."
        },
        "returns": {
          "instrument": "the instrument index (0 to 16). At launch there is only 9 instrument but the DAO could add more (up to 16 in total).",
          "note": "the note index (0 to 63) starting from C2 to D#7"
        }
      },
      "supportsInterface(bytes4)": {
        "params": {
          "id": "The id of the interface."
        },
        "returns": {
          "_0": "Whether the interface is supported."
        }
      },
      "transferFrom(address,address,uint256)": {
        "params": {
          "from": "The sender of the token.",
          "id": "The id of the token.",
          "to": "The recipient of the token."
        }
      },
      "votesToDelegate(address)": {
        "details": "Used when calling `_delegate()`"
      }
    },
    "stateVariables": {
      "_royaltyPer10Thousands": {
        "details": "share of royalty, default to zero."
      },
      "_royaltyRecipient": {
        "details": "recipient of royalty, default to zero."
      },
      "checkpointingDisabler": {
        "details": "address that is able to switch off the use of checkpointing, this will make token transfers much cheaper in term of gas, but require the design of a new governance system."
      }
    },
    "version": 1
  },
  "userdoc": {
    "events": {
      "DelegateChanged(address,address,address)": {
        "notice": "An event thats emitted when an account changes its delegate"
      },
      "DelegateVotesChanged(address,uint256,uint256)": {
        "notice": "An event thats emitted when a delegate account's vote balance changes"
      }
    },
    "kind": "user",
    "methods": {
      "DELEGATION_TYPEHASH()": {
        "notice": "The EIP-712 typehash for the delegation struct used by the contract"
      },
      "approve(address,uint256)": {
        "notice": "Approve an operator to spend tokens on the senders behalf."
      },
      "balanceOf(address)": {
        "notice": "Get the number of tokens owned by an address."
      },
      "checkpoints(address,uint32)": {
        "notice": "A record of votes checkpoints for each account, by index"
      },
      "contractURI()": {
        "notice": "Returns the Uniform Resource Identifier (URI) for the token collection."
      },
      "decimals()": {
        "notice": "Defines decimals as per ERC-20 convention to make integrations with 3rd party governance platforms easier"
      },
      "delegate(address)": {
        "notice": "Delegate votes from `msg.sender` to `delegatee`"
      },
      "delegateBySig(address,uint256,uint256,uint8,bytes32,bytes32)": {
        "notice": "Delegates votes from signatory to `delegatee`"
      },
      "delegates(address)": {
        "notice": "Overrides the standard `Comp.sol` delegates mapping to return the delegator's own address if they haven't delegated. This avoids having to delegate to oneself."
      },
      "disableTheUseOfCheckpoints()": {
        "notice": "disable checkpointing overhead This can be used if the governance system can switch to use ownerAndLastTransferBlockNumberOf instead of checkpoints"
      },
      "getApproved(uint256)": {
        "notice": "Get the approved operator for a specific token."
      },
      "getCurrentVotes(address)": {
        "notice": "Gets the current votes balance for `account`"
      },
      "getPriorVotes(address,uint256)": {
        "notice": "Determine the prior number of votes for an account as of a block number"
      },
      "isApprovedForAll(address,address)": {
        "notice": "Check if the sender approved the operator."
      },
      "mint(uint16,address)": {
        "notice": "mint one of bleep if not already minted. Can only be called by `minter`."
      },
      "minter()": {
        "notice": "address allowed to mint, allow the sale contract to be separated from the token contract that can focus on the core logic Once all 1024 potential bleeps (there could be less, at minimum there are 576 bleeps) are minted, no minter can mint anymore"
      },
      "minterAdmin()": {
        "notice": "minterAdmin can update the minter. At the time being there is 576 Bleeps but there is space for extra instrument and the upper limit is 1024. could be given to the DAO later so instrument can be added, the sale of these instrument sound could benenfit the DAO too and add new members."
      },
      "multicall(bytes[])": {
        "notice": "Call multiple functions in the current contract and return the data from all of them if they all succeed."
      },
      "name()": {
        "notice": "A descriptive name for a collection of NFTs in this contract."
      },
      "numCheckpoints(address)": {
        "notice": "The number of checkpoints for each account"
      },
      "ownerAndLastTransferBlockNumberList(uint256[])": {
        "notice": "Get the list of owner of a token and the blockNumber of its last transfer, useful to voting mechanism."
      },
      "ownerOf(uint256)": {
        "notice": "Get the owner of a token."
      },
      "owners(uint256[])": {
        "notice": "give the list of owners for the list of ids given."
      },
      "royaltyAdmin()": {
        "notice": "address allowed to set royalty parameters"
      },
      "royaltyInfo(uint256,uint256)": {
        "notice": "Called with the sale price to determine how much royalty is owed and to whom."
      },
      "safeTransferFrom(address,address,uint256)": {
        "notice": "Transfer a token between 2 addresses letting the receiver know of the transfer."
      },
      "safeTransferFrom(address,address,uint256,bytes)": {
        "notice": "Transfer a token between 2 addresses letting the receiver knows of the transfer."
      },
      "setApprovalForAll(address,bool)": {
        "notice": "Set the approval for an operator to manage all the tokens of the sender."
      },
      "setCheckpointingDisabler(address)": {
        "notice": "update the address that can disable the use of checkpinting, can be used to disable it entirely."
      },
      "setRoyaltyParameters(address,uint256)": {
        "notice": "set a new royalty recipient and rate, Can only be set by the `royaltyAdmin`."
      },
      "setTokenURIContract(address)": {
        "notice": "set a new tokenURI contract, that generate the metadata including the wav file, Can only be set by the `tokenURIAdmin`."
      },
      "sound(uint256)": {
        "notice": "gives the note and instrument for a particular Bleep id."
      },
      "supportsInterface(bytes4)": {
        "notice": "Check if the contract supports an interface."
      },
      "symbol()": {
        "notice": "An abbreviated name for NFTs in this contract."
      },
      "tokenURI(uint256)": {
        "notice": "Returns the Uniform Resource Identifier (URI) for token `id`."
      },
      "tokenURIAdmin()": {
        "notice": "maintainer can update the tokenURI contract, this is intended to be relinquished once the tokenURI has been heavily tested in the wild and that no modification are needed."
      },
      "tokenURIContract()": {
        "notice": "the contract that actually generate the sound (and all metadata via the a data: uri via tokenURI call)."
      },
      "transferFrom(address,address,uint256)": {
        "notice": "Transfer a token between 2 addresses."
      },
      "votesToDelegate(address)": {
        "notice": "The votes a delegator can delegate, which is the current balance of the delegator."
      }
    },
    "version": 1
  },
  "storageLayout": {
    "storage": [
      {
        "astId": 6026,
        "contract": "src/bleeps/Bleeps.sol:Bleeps",
        "label": "_owners",
        "offset": 0,
        "slot": "0",
        "type": "t_mapping(t_uint256,t_uint256)"
      },
      {
        "astId": 6030,
        "contract": "src/bleeps/Bleeps.sol:Bleeps",
        "label": "_balances",
        "offset": 0,
        "slot": "1",
        "type": "t_mapping(t_address,t_uint256)"
      },
      {
        "astId": 6036,
        "contract": "src/bleeps/Bleeps.sol:Bleeps",
        "label": "_operatorsForAll",
        "offset": 0,
        "slot": "2",
        "type": "t_mapping(t_address,t_mapping(t_address,t_bool))"
      },
      {
        "astId": 6040,
        "contract": "src/bleeps/Bleeps.sol:Bleeps",
        "label": "_operators",
        "offset": 0,
        "slot": "3",
        "type": "t_mapping(t_uint256,t_address)"
      },
      {
        "astId": 6988,
        "contract": "src/bleeps/Bleeps.sol:Bleeps",
        "label": "_tokenNonces",
        "offset": 0,
        "slot": "4",
        "type": "t_mapping(t_uint256,t_uint256)"
      },
      {
        "astId": 6992,
        "contract": "src/bleeps/Bleeps.sol:Bleeps",
        "label": "_userNonces",
        "offset": 0,
        "slot": "5",
        "type": "t_mapping(t_address,t_uint256)"
      },
      {
        "astId": 7366,
        "contract": "src/bleeps/Bleeps.sol:Bleeps",
        "label": "_useCheckpoints",
        "offset": 0,
        "slot": "6",
        "type": "t_bool"
      },
      {
        "astId": 7375,
        "contract": "src/bleeps/Bleeps.sol:Bleeps",
        "label": "_delegates",
        "offset": 0,
        "slot": "7",
        "type": "t_mapping(t_address,t_address)"
      },
      {
        "astId": 7388,
        "contract": "src/bleeps/Bleeps.sol:Bleeps",
        "label": "checkpoints",
        "offset": 0,
        "slot": "8",
        "type": "t_mapping(t_address,t_mapping(t_uint32,t_struct(Checkpoint)7380_storage))"
      },
      {
        "astId": 7393,
        "contract": "src/bleeps/Bleeps.sol:Bleeps",
        "label": "numCheckpoints",
        "offset": 0,
        "slot": "9",
        "type": "t_mapping(t_address,t_uint32)"
      },
      {
        "astId": 8098,
        "contract": "src/bleeps/Bleeps.sol:Bleeps",
        "label": "tokenURIAdmin",
        "offset": 0,
        "slot": "10",
        "type": "t_address"
      },
      {
        "astId": 8101,
        "contract": "src/bleeps/Bleeps.sol:Bleeps",
        "label": "royaltyAdmin",
        "offset": 0,
        "slot": "11",
        "type": "t_address"
      },
      {
        "astId": 8104,
        "contract": "src/bleeps/Bleeps.sol:Bleeps",
        "label": "minterAdmin",
        "offset": 0,
        "slot": "12",
        "type": "t_address"
      },
      {
        "astId": 8107,
        "contract": "src/bleeps/Bleeps.sol:Bleeps",
        "label": "minter",
        "offset": 0,
        "slot": "13",
        "type": "t_address"
      },
      {
        "astId": 8319,
        "contract": "src/bleeps/Bleeps.sol:Bleeps",
        "label": "tokenURIContract",
        "offset": 0,
        "slot": "14",
        "type": "t_contract(ITokenURI)9886"
      },
      {
        "astId": 8322,
        "contract": "src/bleeps/Bleeps.sol:Bleeps",
        "label": "_royaltyRecipient",
        "offset": 0,
        "slot": "15",
        "type": "t_address"
      },
      {
        "astId": 8325,
        "contract": "src/bleeps/Bleeps.sol:Bleeps",
        "label": "_royaltyPer10Thousands",
        "offset": 0,
        "slot": "16",
        "type": "t_uint256"
      },
      {
        "astId": 8328,
        "contract": "src/bleeps/Bleeps.sol:Bleeps",
        "label": "checkpointingDisabler",
        "offset": 0,
        "slot": "17",
        "type": "t_address"
      }
    ],
    "types": {
      "t_address": {
        "encoding": "inplace",
        "label": "address",
        "numberOfBytes": "20"
      },
      "t_bool": {
        "encoding": "inplace",
        "label": "bool",
        "numberOfBytes": "1"
      },
      "t_contract(ITokenURI)9886": {
        "encoding": "inplace",
        "label": "contract ITokenURI",
        "numberOfBytes": "20"
      },
      "t_mapping(t_address,t_address)": {
        "encoding": "mapping",
        "key": "t_address",
        "label": "mapping(address => address)",
        "numberOfBytes": "32",
        "value": "t_address"
      },
      "t_mapping(t_address,t_bool)": {
        "encoding": "mapping",
        "key": "t_address",
        "label": "mapping(address => bool)",
        "numberOfBytes": "32",
        "value": "t_bool"
      },
      "t_mapping(t_address,t_mapping(t_address,t_bool))": {
        "encoding": "mapping",
        "key": "t_address",
        "label": "mapping(address => mapping(address => bool))",
        "numberOfBytes": "32",
        "value": "t_mapping(t_address,t_bool)"
      },
      "t_mapping(t_address,t_mapping(t_uint32,t_struct(Checkpoint)7380_storage))": {
        "encoding": "mapping",
        "key": "t_address",
        "label": "mapping(address => mapping(uint32 => struct ERC721Checkpointable.Checkpoint))",
        "numberOfBytes": "32",
        "value": "t_mapping(t_uint32,t_struct(Checkpoint)7380_storage)"
      },
      "t_mapping(t_address,t_uint256)": {
        "encoding": "mapping",
        "key": "t_address",
        "label": "mapping(address => uint256)",
        "numberOfBytes": "32",
        "value": "t_uint256"
      },
      "t_mapping(t_address,t_uint32)": {
        "encoding": "mapping",
        "key": "t_address",
        "label": "mapping(address => uint32)",
        "numberOfBytes": "32",
        "value": "t_uint32"
      },
      "t_mapping(t_uint256,t_address)": {
        "encoding": "mapping",
        "key": "t_uint256",
        "label": "mapping(uint256 => address)",
        "numberOfBytes": "32",
        "value": "t_address"
      },
      "t_mapping(t_uint256,t_uint256)": {
        "encoding": "mapping",
        "key": "t_uint256",
        "label": "mapping(uint256 => uint256)",
        "numberOfBytes": "32",
        "value": "t_uint256"
      },
      "t_mapping(t_uint32,t_struct(Checkpoint)7380_storage)": {
        "encoding": "mapping",
        "key": "t_uint32",
        "label": "mapping(uint32 => struct ERC721Checkpointable.Checkpoint)",
        "numberOfBytes": "32",
        "value": "t_struct(Checkpoint)7380_storage"
      },
      "t_struct(Checkpoint)7380_storage": {
        "encoding": "inplace",
        "label": "struct ERC721Checkpointable.Checkpoint",
        "members": [
          {
            "astId": 7377,
            "contract": "src/bleeps/Bleeps.sol:Bleeps",
            "label": "fromBlock",
            "offset": 0,
            "slot": "0",
            "type": "t_uint32"
          },
          {
            "astId": 7379,
            "contract": "src/bleeps/Bleeps.sol:Bleeps",
            "label": "votes",
            "offset": 4,
            "slot": "0",
            "type": "t_uint96"
          }
        ],
        "numberOfBytes": "32"
      },
      "t_uint256": {
        "encoding": "inplace",
        "label": "uint256",
        "numberOfBytes": "32"
      },
      "t_uint32": {
        "encoding": "inplace",
        "label": "uint32",
        "numberOfBytes": "4"
      },
      "t_uint96": {
        "encoding": "inplace",
        "label": "uint96",
        "numberOfBytes": "12"
      }
    }
  }
}