{
  "address": "0x1ac89a5fE108854f9D8BFBFB0CB97D90A7F8D1A6",
  "abi": [
    {
      "inputs": [
        {
          "internalType": "address",
          "name": "ens",
          "type": "address"
        },
        {
          "internalType": "address",
          "name": "initialOwner",
          "type": "address"
        },
        {
          "internalType": "address",
          "name": "initialTokenURIAdmin",
          "type": "address"
        },
        {
          "internalType": "address",
          "name": "initialMinterAdmin",
          "type": "address"
        },
        {
          "internalType": "address",
          "name": "initialRoyaltyAdmin",
          "type": "address"
        },
        {
          "internalType": "address",
          "name": "initialGuardian",
          "type": "address"
        },
        {
          "internalType": "address",
          "name": "openseaProxyRegistry",
          "type": "address"
        },
        {
          "internalType": "address",
          "name": "initialRoyaltyReceiver",
          "type": "address"
        },
        {
          "internalType": "uint96",
          "name": "imitialRoyaltyPer10Thousands",
          "type": "uint96"
        },
        {
          "internalType": "contract ITokenURI",
          "name": "initialTokenURIContract",
          "type": "address"
        },
        {
          "internalType": "address",
          "name": "initialCheckpointingDisabler",
          "type": "address"
        }
      ],
      "stateMutability": "nonpayable",
      "type": "constructor"
    },
    {
      "anonymous": false,
      "inputs": [
        {
          "indexed": true,
          "internalType": "address",
          "name": "owner",
          "type": "address"
        },
        {
          "indexed": true,
          "internalType": "address",
          "name": "approved",
          "type": "address"
        },
        {
          "indexed": true,
          "internalType": "uint256",
          "name": "tokenId",
          "type": "uint256"
        }
      ],
      "name": "Approval",
      "type": "event"
    },
    {
      "anonymous": false,
      "inputs": [
        {
          "indexed": true,
          "internalType": "address",
          "name": "owner",
          "type": "address"
        },
        {
          "indexed": true,
          "internalType": "address",
          "name": "operator",
          "type": "address"
        },
        {
          "indexed": false,
          "internalType": "bool",
          "name": "approved",
          "type": "bool"
        }
      ],
      "name": "ApprovalForAll",
      "type": "event"
    },
    {
      "anonymous": false,
      "inputs": [],
      "name": "CheckpointingDisabled",
      "type": "event"
    },
    {
      "anonymous": false,
      "inputs": [
        {
          "indexed": false,
          "internalType": "address",
          "name": "newCheckpointingDisabler",
          "type": "address"
        }
      ],
      "name": "CheckpointingDisablerSet",
      "type": "event"
    },
    {
      "anonymous": false,
      "inputs": [
        {
          "indexed": true,
          "internalType": "address",
          "name": "delegator",
          "type": "address"
        },
        {
          "indexed": true,
          "internalType": "address",
          "name": "fromDelegate",
          "type": "address"
        },
        {
          "indexed": true,
          "internalType": "address",
          "name": "toDelegate",
          "type": "address"
        }
      ],
      "name": "DelegateChanged",
      "type": "event"
    },
    {
      "anonymous": false,
      "inputs": [
        {
          "indexed": true,
          "internalType": "address",
          "name": "delegate",
          "type": "address"
        },
        {
          "indexed": false,
          "internalType": "uint256",
          "name": "previousBalance",
          "type": "uint256"
        },
        {
          "indexed": false,
          "internalType": "uint256",
          "name": "newBalance",
          "type": "uint256"
        }
      ],
      "name": "DelegateVotesChanged",
      "type": "event"
    },
    {
      "anonymous": false,
      "inputs": [
        {
          "indexed": false,
          "internalType": "address",
          "name": "newGuardian",
          "type": "address"
        }
      ],
      "name": "GuardianSet",
      "type": "event"
    },
    {
      "anonymous": false,
      "inputs": [
        {
          "indexed": false,
          "internalType": "address",
          "name": "newMinterAdmin",
          "type": "address"
        }
      ],
      "name": "MinterAdminSet",
      "type": "event"
    },
    {
      "anonymous": false,
      "inputs": [
        {
          "indexed": false,
          "internalType": "address",
          "name": "newMinter",
          "type": "address"
        }
      ],
      "name": "MinterSet",
      "type": "event"
    },
    {
      "anonymous": false,
      "inputs": [
        {
          "indexed": true,
          "internalType": "address",
          "name": "previousOwner",
          "type": "address"
        },
        {
          "indexed": true,
          "internalType": "address",
          "name": "newOwner",
          "type": "address"
        }
      ],
      "name": "OwnershipTransferred",
      "type": "event"
    },
    {
      "anonymous": false,
      "inputs": [
        {
          "indexed": false,
          "internalType": "address",
          "name": "newRoyaltyAdmin",
          "type": "address"
        }
      ],
      "name": "RoyaltyAdminSet",
      "type": "event"
    },
    {
      "anonymous": false,
      "inputs": [
        {
          "indexed": false,
          "internalType": "address",
          "name": "receiver",
          "type": "address"
        },
        {
          "indexed": false,
          "internalType": "uint256",
          "name": "royaltyPer10Thousands",
          "type": "uint256"
        }
      ],
      "name": "RoyaltySet",
      "type": "event"
    },
    {
      "anonymous": false,
      "inputs": [
        {
          "indexed": false,
          "internalType": "address",
          "name": "newTokenURIAdmin",
          "type": "address"
        }
      ],
      "name": "TokenURIAdminSet",
      "type": "event"
    },
    {
      "anonymous": false,
      "inputs": [
        {
          "indexed": false,
          "internalType": "contract ITokenURI",
          "name": "newTokenURIContract",
          "type": "address"
        }
      ],
      "name": "TokenURIContractSet",
      "type": "event"
    },
    {
      "anonymous": false,
      "inputs": [
        {
          "indexed": true,
          "internalType": "address",
          "name": "from",
          "type": "address"
        },
        {
          "indexed": true,
          "internalType": "address",
          "name": "to",
          "type": "address"
        },
        {
          "indexed": true,
          "internalType": "uint256",
          "name": "tokenId",
          "type": "uint256"
        }
      ],
      "name": "Transfer",
      "type": "event"
    },
    {
      "inputs": [],
      "name": "DELEGATION_TYPEHASH",
      "outputs": [
        {
          "internalType": "bytes32",
          "name": "",
          "type": "bytes32"
        }
      ],
      "stateMutability": "view",
      "type": "function"
    },
    {
      "inputs": [],
      "name": "DOMAIN_SEPARATOR",
      "outputs": [
        {
          "internalType": "bytes32",
          "name": "",
          "type": "bytes32"
        }
      ],
      "stateMutability": "view",
      "type": "function"
    },
    {
      "inputs": [],
      "name": "DOMAIN_TYPEHASH",
      "outputs": [
        {
          "internalType": "bytes32",
          "name": "",
          "type": "bytes32"
        }
      ],
      "stateMutability": "view",
      "type": "function"
    },
    {
      "inputs": [],
      "name": "PERMIT_FOR_ALL_TYPEHASH",
      "outputs": [
        {
          "internalType": "bytes32",
          "name": "",
          "type": "bytes32"
        }
      ],
      "stateMutability": "view",
      "type": "function"
    },
    {
      "inputs": [],
      "name": "PERMIT_TYPEHASH",
      "outputs": [
        {
          "internalType": "bytes32",
          "name": "",
          "type": "bytes32"
        }
      ],
      "stateMutability": "view",
      "type": "function"
    },
    {
      "inputs": [
        {
          "internalType": "address",
          "name": "operator",
          "type": "address"
        },
        {
          "internalType": "uint256",
          "name": "id",
          "type": "uint256"
        }
      ],
      "name": "approve",
      "outputs": [],
      "stateMutability": "nonpayable",
      "type": "function"
    },
    {
      "inputs": [
        {
          "internalType": "address",
          "name": "owner",
          "type": "address"
        }
      ],
      "name": "balanceOf",
      "outputs": [
        {
          "internalType": "uint256",
          "name": "balance",
          "type": "uint256"
        }
      ],
      "stateMutability": "view",
      "type": "function"
    },
    {
      "inputs": [],
      "name": "checkpointingDisabler",
      "outputs": [
        {
          "internalType": "address",
          "name": "",
          "type": "address"
        }
      ],
      "stateMutability": "view",
      "type": "function"
    },
    {
      "inputs": [
        {
          "internalType": "address",
          "name": "",
          "type": "address"
        },
        {
          "internalType": "uint32",
          "name": "",
          "type": "uint32"
        }
      ],
      "name": "checkpoints",
      "outputs": [
        {
          "internalType": "uint32",
          "name": "fromBlock",
          "type": "uint32"
        },
        {
          "internalType": "uint96",
          "name": "votes",
          "type": "uint96"
        }
      ],
      "stateMutability": "view",
      "type": "function"
    },
    {
      "inputs": [],
      "name": "contractURI",
      "outputs": [
        {
          "internalType": "string",
          "name": "",
          "type": "string"
        }
      ],
      "stateMutability": "view",
      "type": "function"
    },
    {
      "inputs": [],
      "name": "decimals",
      "outputs": [
        {
          "internalType": "uint8",
          "name": "",
          "type": "uint8"
        }
      ],
      "stateMutability": "view",
      "type": "function"
    },
    {
      "inputs": [
        {
          "internalType": "address",
          "name": "delegatee",
          "type": "address"
        }
      ],
      "name": "delegate",
      "outputs": [],
      "stateMutability": "nonpayable",
      "type": "function"
    },
    {
      "inputs": [
        {
          "internalType": "address",
          "name": "delegatee",
          "type": "address"
        },
        {
          "internalType": "uint256",
          "name": "nonce",
          "type": "uint256"
        },
        {
          "internalType": "uint256",
          "name": "expiry",
          "type": "uint256"
        },
        {
          "internalType": "uint8",
          "name": "v",
          "type": "uint8"
        },
        {
          "internalType": "bytes32",
          "name": "r",
          "type": "bytes32"
        },
        {
          "internalType": "bytes32",
          "name": "s",
          "type": "bytes32"
        }
      ],
      "name": "delegateBySig",
      "outputs": [],
      "stateMutability": "nonpayable",
      "type": "function"
    },
    {
      "inputs": [
        {
          "internalType": "address",
          "name": "delegator",
          "type": "address"
        }
      ],
      "name": "delegates",
      "outputs": [
        {
          "internalType": "address",
          "name": "",
          "type": "address"
        }
      ],
      "stateMutability": "view",
      "type": "function"
    },
    {
      "inputs": [],
      "name": "disableTheUseOfCheckpoints",
      "outputs": [],
      "stateMutability": "nonpayable",
      "type": "function"
    },
    {
      "inputs": [
        {
          "internalType": "uint256",
          "name": "id",
          "type": "uint256"
        }
      ],
      "name": "getApproved",
      "outputs": [
        {
          "internalType": "address",
          "name": "",
          "type": "address"
        }
      ],
      "stateMutability": "view",
      "type": "function"
    },
    {
      "inputs": [
        {
          "internalType": "address",
          "name": "account",
          "type": "address"
        }
      ],
      "name": "getCurrentVotes",
      "outputs": [
        {
          "internalType": "uint96",
          "name": "",
          "type": "uint96"
        }
      ],
      "stateMutability": "view",
      "type": "function"
    },
    {
      "inputs": [
        {
          "internalType": "address",
          "name": "account",
          "type": "address"
        },
        {
          "internalType": "uint256",
          "name": "blockNumber",
          "type": "uint256"
        }
      ],
      "name": "getPriorVotes",
      "outputs": [
        {
          "internalType": "uint96",
          "name": "",
          "type": "uint96"
        }
      ],
      "stateMutability": "view",
      "type": "function"
    },
    {
      "inputs": [],
      "name": "guardian",
      "outputs": [
        {
          "internalType": "address",
          "name": "",
          "type": "address"
        }
      ],
      "stateMutability": "view",
      "type": "function"
    },
    {
      "inputs": [
        {
          "internalType": "address",
          "name": "owner",
          "type": "address"
        },
        {
          "internalType": "address",
          "name": "operator",
          "type": "address"
        }
      ],
      "name": "isApprovedForAll",
      "outputs": [
        {
          "internalType": "bool",
          "name": "isOperator",
          "type": "bool"
        }
      ],
      "stateMutability": "view",
      "type": "function"
    },
    {
      "inputs": [
        {
          "internalType": "uint16",
          "name": "id",
          "type": "uint16"
        },
        {
          "internalType": "address",
          "name": "to",
          "type": "address"
        }
      ],
      "name": "mint",
      "outputs": [],
      "stateMutability": "nonpayable",
      "type": "function"
    },
    {
      "inputs": [],
      "name": "minter",
      "outputs": [
        {
          "internalType": "address",
          "name": "",
          "type": "address"
        }
      ],
      "stateMutability": "view",
      "type": "function"
    },
    {
      "inputs": [],
      "name": "minterAdmin",
      "outputs": [
        {
          "internalType": "address",
          "name": "",
          "type": "address"
        }
      ],
      "stateMutability": "view",
      "type": "function"
    },
    {
      "inputs": [
        {
          "internalType": "uint16[]",
          "name": "ids",
          "type": "uint16[]"
        },
        {
          "internalType": "address",
          "name": "to",
          "type": "address"
        }
      ],
      "name": "multiMint",
      "outputs": [],
      "stateMutability": "nonpayable",
      "type": "function"
    },
    {
      "inputs": [
        {
          "internalType": "bytes[]",
          "name": "data",
          "type": "bytes[]"
        }
      ],
      "name": "multicall",
      "outputs": [
        {
          "internalType": "bytes[]",
          "name": "results",
          "type": "bytes[]"
        }
      ],
      "stateMutability": "payable",
      "type": "function"
    },
    {
      "inputs": [],
      "name": "name",
      "outputs": [
        {
          "internalType": "string",
          "name": "",
          "type": "string"
        }
      ],
      "stateMutability": "pure",
      "type": "function"
    },
    {
      "inputs": [
        {
          "internalType": "address",
          "name": "owner",
          "type": "address"
        }
      ],
      "name": "nonces",
      "outputs": [
        {
          "internalType": "uint256",
          "name": "nonce",
          "type": "uint256"
        }
      ],
      "stateMutability": "view",
      "type": "function"
    },
    {
      "inputs": [
        {
          "internalType": "address",
          "name": "",
          "type": "address"
        }
      ],
      "name": "numCheckpoints",
      "outputs": [
        {
          "internalType": "uint32",
          "name": "",
          "type": "uint32"
        }
      ],
      "stateMutability": "view",
      "type": "function"
    },
    {
      "inputs": [],
      "name": "owner",
      "outputs": [
        {
          "internalType": "address",
          "name": "",
          "type": "address"
        }
      ],
      "stateMutability": "view",
      "type": "function"
    },
    {
      "inputs": [
        {
          "internalType": "uint256[]",
          "name": "ids",
          "type": "uint256[]"
        }
      ],
      "name": "ownerAndLastTransferBlockNumberList",
      "outputs": [
        {
          "components": [
            {
              "internalType": "address",
              "name": "owner",
              "type": "address"
            },
            {
              "internalType": "uint256",
              "name": "lastTransferBlockNumber",
              "type": "uint256"
            }
          ],
          "internalType": "struct ERC721Base.OwnerData[]",
          "name": "ownersData",
          "type": "tuple[]"
        }
      ],
      "stateMutability": "view",
      "type": "function"
    },
    {
      "inputs": [
        {
          "internalType": "uint256",
          "name": "id",
          "type": "uint256"
        }
      ],
      "name": "ownerOf",
      "outputs": [
        {
          "internalType": "address",
          "name": "owner",
          "type": "address"
        }
      ],
      "stateMutability": "view",
      "type": "function"
    },
    {
      "inputs": [
        {
          "internalType": "uint256[]",
          "name": "ids",
          "type": "uint256[]"
        }
      ],
      "name": "owners",
      "outputs": [
        {
          "internalType": "address[]",
          "name": "addresses",
          "type": "address[]"
        }
      ],
      "stateMutability": "view",
      "type": "function"
    },
    {
      "inputs": [
        {
          "internalType": "address",
          "name": "spender",
          "type": "address"
        },
        {
          "internalType": "uint256",
          "name": "id",
          "type": "uint256"
        },
        {
          "internalType": "uint256",
          "name": "deadline",
          "type": "uint256"
        },
        {
          "internalType": "uint8",
          "name": "v",
          "type": "uint8"
        },
        {
          "internalType": "bytes32",
          "name": "r",
          "type": "bytes32"
        },
        {
          "internalType": "bytes32",
          "name": "s",
          "type": "bytes32"
        }
      ],
      "name": "permit",
      "outputs": [],
      "stateMutability": "nonpayable",
      "type": "function"
    },
    {
      "inputs": [
        {
          "internalType": "address",
          "name": "signer",
          "type": "address"
        },
        {
          "internalType": "address",
          "name": "spender",
          "type": "address"
        },
        {
          "internalType": "uint256",
          "name": "deadline",
          "type": "uint256"
        },
        {
          "internalType": "uint8",
          "name": "v",
          "type": "uint8"
        },
        {
          "internalType": "bytes32",
          "name": "r",
          "type": "bytes32"
        },
        {
          "internalType": "bytes32",
          "name": "s",
          "type": "bytes32"
        }
      ],
      "name": "permitForAll",
      "outputs": [],
      "stateMutability": "nonpayable",
      "type": "function"
    },
    {
      "inputs": [],
      "name": "royaltyAdmin",
      "outputs": [
        {
          "internalType": "address",
          "name": "",
          "type": "address"
        }
      ],
      "stateMutability": "view",
      "type": "function"
    },
    {
      "inputs": [
        {
          "internalType": "uint256",
          "name": "id",
          "type": "uint256"
        },
        {
          "internalType": "uint256",
          "name": "salePrice",
          "type": "uint256"
        }
      ],
      "name": "royaltyInfo",
      "outputs": [
        {
          "internalType": "address",
          "name": "receiver",
          "type": "address"
        },
        {
          "internalType": "uint256",
          "name": "royaltyAmount",
          "type": "uint256"
        }
      ],
      "stateMutability": "view",
      "type": "function"
    },
    {
      "inputs": [
        {
          "internalType": "address",
          "name": "from",
          "type": "address"
        },
        {
          "internalType": "address",
          "name": "to",
          "type": "address"
        },
        {
          "internalType": "uint256",
          "name": "id",
          "type": "uint256"
        }
      ],
      "name": "safeTransferFrom",
      "outputs": [],
      "stateMutability": "nonpayable",
      "type": "function"
    },
    {
      "inputs": [
        {
          "internalType": "address",
          "name": "from",
          "type": "address"
        },
        {
          "internalType": "address",
          "name": "to",
          "type": "address"
        },
        {
          "internalType": "uint256",
          "name": "id",
          "type": "uint256"
        },
        {
          "internalType": "bytes",
          "name": "data",
          "type": "bytes"
        }
      ],
      "name": "safeTransferFrom",
      "outputs": [],
      "stateMutability": "nonpayable",
      "type": "function"
    },
    {
      "inputs": [
        {
          "internalType": "address",
          "name": "operator",
          "type": "address"
        },
        {
          "internalType": "bool",
          "name": "approved",
          "type": "bool"
        }
      ],
      "name": "setApprovalForAll",
      "outputs": [],
      "stateMutability": "nonpayable",
      "type": "function"
    },
    {
      "inputs": [
        {
          "internalType": "address",
          "name": "newCheckpointingDisabler",
          "type": "address"
        }
      ],
      "name": "setCheckpointingDisabler",
      "outputs": [],
      "stateMutability": "nonpayable",
      "type": "function"
    },
    {
      "inputs": [
        {
          "internalType": "string",
          "name": "name",
          "type": "string"
        }
      ],
      "name": "setENSName",
      "outputs": [],
      "stateMutability": "nonpayable",
      "type": "function"
    },
    {
      "inputs": [
        {
          "internalType": "address",
          "name": "newGuardian",
          "type": "address"
        }
      ],
      "name": "setGuardian",
      "outputs": [],
      "stateMutability": "nonpayable",
      "type": "function"
    },
    {
      "inputs": [
        {
          "internalType": "address",
          "name": "newMinter",
          "type": "address"
        }
      ],
      "name": "setMinter",
      "outputs": [],
      "stateMutability": "nonpayable",
      "type": "function"
    },
    {
      "inputs": [
        {
          "internalType": "address",
          "name": "newMinterAdmin",
          "type": "address"
        }
      ],
      "name": "setMinterAdmin",
      "outputs": [],
      "stateMutability": "nonpayable",
      "type": "function"
    },
    {
      "inputs": [
        {
          "internalType": "address",
          "name": "newRoyaltyAdmin",
          "type": "address"
        }
      ],
      "name": "setRoyaltyAdmin",
      "outputs": [],
      "stateMutability": "nonpayable",
      "type": "function"
    },
    {
      "inputs": [
        {
          "internalType": "address",
          "name": "newReceiver",
          "type": "address"
        },
        {
          "internalType": "uint96",
          "name": "royaltyPer10Thousands",
          "type": "uint96"
        }
      ],
      "name": "setRoyaltyParameters",
      "outputs": [],
      "stateMutability": "nonpayable",
      "type": "function"
    },
    {
      "inputs": [
        {
          "internalType": "address",
          "name": "newTokenURIAdmin",
          "type": "address"
        }
      ],
      "name": "setTokenURIAdmin",
      "outputs": [],
      "stateMutability": "nonpayable",
      "type": "function"
    },
    {
      "inputs": [
        {
          "internalType": "contract ITokenURI",
          "name": "newTokenURIContract",
          "type": "address"
        }
      ],
      "name": "setTokenURIContract",
      "outputs": [],
      "stateMutability": "nonpayable",
      "type": "function"
    },
    {
      "inputs": [
        {
          "internalType": "uint256",
          "name": "id",
          "type": "uint256"
        }
      ],
      "name": "sound",
      "outputs": [
        {
          "internalType": "uint8",
          "name": "note",
          "type": "uint8"
        },
        {
          "internalType": "uint8",
          "name": "instrument",
          "type": "uint8"
        }
      ],
      "stateMutability": "pure",
      "type": "function"
    },
    {
      "inputs": [
        {
          "internalType": "bytes4",
          "name": "id",
          "type": "bytes4"
        }
      ],
      "name": "supportsInterface",
      "outputs": [
        {
          "internalType": "bool",
          "name": "",
          "type": "bool"
        }
      ],
      "stateMutability": "pure",
      "type": "function"
    },
    {
      "inputs": [],
      "name": "symbol",
      "outputs": [
        {
          "internalType": "string",
          "name": "",
          "type": "string"
        }
      ],
      "stateMutability": "pure",
      "type": "function"
    },
    {
      "inputs": [
        {
          "internalType": "uint256",
          "name": "id",
          "type": "uint256"
        }
      ],
      "name": "tokenNonces",
      "outputs": [
        {
          "internalType": "uint256",
          "name": "nonce",
          "type": "uint256"
        }
      ],
      "stateMutability": "view",
      "type": "function"
    },
    {
      "inputs": [
        {
          "internalType": "uint256",
          "name": "id",
          "type": "uint256"
        }
      ],
      "name": "tokenURI",
      "outputs": [
        {
          "internalType": "string",
          "name": "",
          "type": "string"
        }
      ],
      "stateMutability": "view",
      "type": "function"
    },
    {
      "inputs": [],
      "name": "tokenURIAdmin",
      "outputs": [
        {
          "internalType": "address",
          "name": "",
          "type": "address"
        }
      ],
      "stateMutability": "view",
      "type": "function"
    },
    {
      "inputs": [],
      "name": "tokenURIContract",
      "outputs": [
        {
          "internalType": "contract ITokenURI",
          "name": "",
          "type": "address"
        }
      ],
      "stateMutability": "view",
      "type": "function"
    },
    {
      "inputs": [
        {
          "internalType": "address",
          "name": "from",
          "type": "address"
        },
        {
          "internalType": "address",
          "name": "to",
          "type": "address"
        },
        {
          "internalType": "uint256",
          "name": "id",
          "type": "uint256"
        }
      ],
      "name": "transferFrom",
      "outputs": [],
      "stateMutability": "nonpayable",
      "type": "function"
    },
    {
      "inputs": [
        {
          "internalType": "address",
          "name": "newOwner",
          "type": "address"
        }
      ],
      "name": "transferOwnership",
      "outputs": [],
      "stateMutability": "nonpayable",
      "type": "function"
    },
    {
      "inputs": [
        {
          "internalType": "address",
          "name": "delegator",
          "type": "address"
        }
      ],
      "name": "votesToDelegate",
      "outputs": [
        {
          "internalType": "uint96",
          "name": "",
          "type": "uint96"
        }
      ],
      "stateMutability": "view",
      "type": "function"
    },
    {
      "inputs": [
        {
          "internalType": "contract IERC20",
          "name": "token",
          "type": "address"
        },
        {
          "internalType": "address",
          "name": "to",
          "type": "address"
        }
      ],
      "name": "withdrawERC20",
      "outputs": [],
      "stateMutability": "nonpayable",
      "type": "function"
    }
  ],
  "transactionHash": "0xbfdb7d90c36416374fe24674cc020765bc1cd45b192591b46ef723b0cc8ac117",
  "args": [
    "0x00000000000C2E074eC69A0dFb2997BA6C7d2e1e",
    "0xE53cd71271AcAdbeb0f64d9c8C62bBdDc8cA9e66",
    "0xE53cd71271AcAdbeb0f64d9c8C62bBdDc8cA9e66",
    "0xE53cd71271AcAdbeb0f64d9c8C62bBdDc8cA9e66",
    "0xE53cd71271AcAdbeb0f64d9c8C62bBdDc8cA9e66",
    "0xE53cd71271AcAdbeb0f64d9c8C62bBdDc8cA9e66",
    "0x0000000000000000000000000000000000000000",
    "0xE53cd71271AcAdbeb0f64d9c8C62bBdDc8cA9e66",
    500,
    "0x18E646E4959869346489C24CCd879833FfB3a87f",
    "0xE53cd71271AcAdbeb0f64d9c8C62bBdDc8cA9e66"
  ],
  "solcInputHash": "c2d8f5d5aa701e4398409589817095a9",
  "bytecode": "0x6101006040526006805460ff191660011790553480156200001f57600080fd5b5060405162005faa38038062005faa833981016040819052620000429162000388565b6001600160a01b0385166080524660a08190528b908b908b908b908b908b906200006c81620002cf565b60c052506001600160a01b0386811660e052600a80546001600160a01b031990811688841617909155600b80548216878416908117909155600c80548316868516179055600d80548316878516179055600f80549092169284169290921790556040519081527f89de65ceb8cdf195a0b50021ed65dd305b54d3b744a0e283bd98c6058e2edd789060200160405180910390a16040516001600160a01b03831681527fb17416b845258d996b82b66c3c9166088ec5edf592b35fcce47c62a73d61ef419060200160405180910390a16040516001600160a01b03841681527fb8e0165b6664b7af8f9563c66e3d6b987c2d06fe192539d7123a0777b41a7c899060200160405180910390a16040516001600160a01b03821681527fe6c09ffe4572dc9ceaa5ddde4ae41befa655d6fdfe8052077af0970f700e942e9060200160405180910390a15050601080546001600160a01b0319166001600160a01b0388169081179091556040519081527f6bf5b09f847c9c9e97addeaf1ea9d5fd44ff6ae2c9c4aaf55fb476eca421a45d945060200192506200020a915050565b60405180910390a1601280546001600160a01b0319166001600160a01b0383169081179091556040519081527f4b70ff24654603d6961acf6a0cf30db833fc126dac63891114f984fefcc2b0649060200160405180910390a16001600160a01b038416600160a01b6001600160601b03851690810282176011556040805192835260208301919091527fb744dc8fdcd17f69ad99fdabe0fe0ed8fea41193727ed2123d997550eaae918f910160405180910390a1505050505050505050505062000490565b60007f8cad95687ba82c2ce50e74f7b754645e5117c3a5bec8151c0726d5857980a86662000316604080518082019091526006815265426c6565707360d01b602082015290565b80516020918201206040805192830193909352918101919091526060810183905230608082015260a001604051602081830303815290604052805190602001209050919050565b6001600160a01b03811681146200037357600080fd5b50565b805162000383816200035d565b919050565b60008060008060008060008060008060006101608c8e031215620003ab57600080fd5b8b51620003b8816200035d565b60208d0151909b50620003cb816200035d565b60408d0151909a50620003de816200035d565b60608d0151909950620003f1816200035d565b60808d015190985062000404816200035d565b60a08d015190975062000417816200035d565b60c08d01519096506200042a816200035d565b60e08d01519095506200043d816200035d565b6101008d01519094506001600160601b03811681146200045c57600080fd5b92506200046d6101208d0162000376565b91506200047e6101408d0162000376565b90509295989b509295989b9093969950565b60805160a05160c05160e051615ad9620004d160003960006119a501526000613ea201526000613e6d0152600081816142c8015261434e0152615ad96000f3fe60806040526004361061038c5760003560e01c80637ecebe00116101dc578063b4b5ea5711610102578063e7a324dc116100a0578063f1127ed81161006f578063f1127ed814610c82578063f2fde38b14610d01578063f394528214610d21578063fca3b5aa14610d4e57600080fd5b8063e7a324dc14610bf9578063e8a3d48514610c2d578063e9580e9114610c42578063e985e9c514610c6257600080fd5b8063c87b56dd116100dc578063c87b56dd14610b84578063d6d2d84714610ba4578063e2ea128814610bc4578063e6b34e8614610be457600080fd5b8063b4b5ea5714610b24578063b88d4fde14610b44578063c3cda52014610b6457600080fd5b806395d89b411161017a578063a22cb46511610149578063a22cb46514610a8a578063a754d48f14610aaa578063ac9650d814610ad7578063adc5fcc214610af757600080fd5b806395d89b41146109d757806399235f3914610a1d5780639c20551314610a3d578063a0554c2614610a5d57600080fd5b80638a0dac4a116101b65780638a0dac4a1461093d5780638cc660111461095d5780638da5cb5b1461098a5780639456fbcc146109b757600080fd5b80637ecebe00146108ad57806382fc3147146108f0578063894e851f1461091057600080fd5b806342842e0e116102c1578063639147af1161025f57806377dd4ac31161022e57806377dd4ac314610810578063782d6fe1146108305780637ac2ff7b1461086d5780637ba9638b1461088d57600080fd5b8063639147af1461075b578063698f87be1461077b5780636fcfff45146107a857806370a08231146107f057600080fd5b8063585956d61161029b578063585956d6146106c7578063587cde1e146106fb5780635c19a95c1461071b5780636352211e1461073b57600080fd5b806342842e0e1461065a578063452a93201461067a5780634d687821146106a757600080fd5b806324d42fe71161032e57806330adf81f1161030857806330adf81f146105bd578063313ce567146105f157806334dd800d146106185780633644e5151461064557600080fd5b806324d42fe71461050b5780632954dbfa1461052b5780632a55205a1461057157600080fd5b8063081812fc1161036a578063081812fc14610467578063095ea7b31461048757806320606b70146104a957806323b872dd146104eb57600080fd5b806301ffc9a71461039157806306fdde03146103c65780630754617214610415575b600080fd5b34801561039d57600080fd5b506103b16103ac366004614ec0565b610d6e565b60405190151581526020015b60405180910390f35b3480156103d257600080fd5b5060408051808201909152600681527f426c65657073000000000000000000000000000000000000000000000000000060208201525b6040516103bd9190614f53565b34801561042157600080fd5b50600e546104429073ffffffffffffffffffffffffffffffffffffffff1681565b60405173ffffffffffffffffffffffffffffffffffffffff90911681526020016103bd565b34801561047357600080fd5b50610442610482366004614f66565b610dcb565b34801561049357600080fd5b506104a76104a2366004614fa1565b610ebc565b005b3480156104b557600080fd5b506104dd7f8cad95687ba82c2ce50e74f7b754645e5117c3a5bec8151c0726d5857980a86681565b6040519081526020016103bd565b3480156104f757600080fd5b506104a7610506366004614fcd565b611026565b34801561051757600080fd5b506104a761052636600461500e565b611369565b34801561053757600080fd5b50610557610546366004614f66565b603f81169160069190911c600f1690565b6040805160ff9384168152929091166020830152016103bd565b34801561057d57600080fd5b5061059161058c366004615058565b61146c565b6040805173ffffffffffffffffffffffffffffffffffffffff90931683526020830191909152016103bd565b3480156105c957600080fd5b506104dd7f49ecf333e5b8c95c40fdafc95c1ad136e8914a8fb55e9dc8bb01eaa83a2df9ad81565b3480156105fd57600080fd5b50610606600081565b60405160ff90911681526020016103bd565b34801561062457600080fd5b50600b546104429073ffffffffffffffffffffffffffffffffffffffff1681565b34801561065157600080fd5b506104dd6114d1565b34801561066657600080fd5b506104a7610675366004614fcd565b6114e0565b34801561068657600080fd5b50600f546104429073ffffffffffffffffffffffffffffffffffffffff1681565b3480156106b357600080fd5b506104a76106c236600461507a565b611500565b3480156106d357600080fd5b506104dd7f29795620f29ed5790c945e3f419a1b3e2381aa07751ccffe5b81231639d74cd581565b34801561070757600080fd5b5061044261071636600461507a565b6115fb565b34801561072757600080fd5b506104a761073636600461507a565b61163a565b34801561074757600080fd5b50610442610756366004614f66565b611665565b34801561076757600080fd5b506104a761077636600461507a565b6116f6565b34801561078757600080fd5b506010546104429073ffffffffffffffffffffffffffffffffffffffff1681565b3480156107b457600080fd5b506107db6107c336600461507a565b60096020526000908152604090205463ffffffff1681565b60405163ffffffff90911681526020016103bd565b3480156107fc57600080fd5b506104dd61080b36600461507a565b61182b565b34801561081c57600080fd5b506104a761082b366004615199565b6118d3565b34801561083c57600080fd5b5061085061084b366004614fa1565b611adb565b6040516bffffffffffffffffffffffff90911681526020016103bd565b34801561087957600080fd5b506104a76108883660046151f3565b611df2565b34801561089957600080fd5b506104a76108a836600461507a565b611f42565b3480156108b957600080fd5b506104dd6108c836600461507a565b73ffffffffffffffffffffffffffffffffffffffff1660009081526005602052604090205490565b3480156108fc57600080fd5b506104a761090b36600461507a565b612077565b34801561091c57600080fd5b50600c546104429073ffffffffffffffffffffffffffffffffffffffff1681565b34801561094957600080fd5b506104a761095836600461507a565b61216b565b34801561096957600080fd5b506012546104429073ffffffffffffffffffffffffffffffffffffffff1681565b34801561099657600080fd5b50600a546104429073ffffffffffffffffffffffffffffffffffffffff1681565b3480156109c357600080fd5b506104a76109d236600461524d565b61225f565b3480156109e357600080fd5b5060408051808201909152600581527f424c4545500000000000000000000000000000000000000000000000000000006020820152610408565b348015610a2957600080fd5b506104a7610a3836600461507a565b61242a565b348015610a4957600080fd5b506104a7610a5836600461528d565b61255f565b348015610a6957600080fd5b50610a7d610a783660046152f5565b6127fe565b6040516103bd9190615337565b348015610a9657600080fd5b506104a7610aa536600461539f565b6128d1565b348015610ab657600080fd5b50600d546104429073ffffffffffffffffffffffffffffffffffffffff1681565b610aea610ae53660046152f5565b6128e0565b6040516103bd91906153cd565b348015610b0357600080fd5b506104dd610b12366004614f66565b60009081526004602052604090205490565b348015610b3057600080fd5b50610850610b3f36600461507a565b612a4b565b348015610b5057600080fd5b506104a7610b5f36600461544d565b612ae8565b348015610b7057600080fd5b506104a7610b7f3660046151f3565b612e2d565b348015610b9057600080fd5b50610408610b9f366004614f66565b61319c565b348015610bb057600080fd5b506104a7610bbf3660046154cd565b613261565b348015610bd057600080fd5b506104a7610bdf366004615516565b613320565b348015610bf057600080fd5b506104a7613601565b348015610c0557600080fd5b506104dd7fe48329057bfd03d55e49b547132e39cffd9c1820ad7b9d4c5307691425d15adf81565b348015610c3957600080fd5b50610408613731565b348015610c4e57600080fd5b50610850610c5d36600461507a565b613829565b348015610c6e57600080fd5b506103b1610c7d36600461524d565b613855565b348015610c8e57600080fd5b50610cd8610c9d36600461556d565b600860209081526000928352604080842090915290825290205463ffffffff81169064010000000090046bffffffffffffffffffffffff1682565b6040805163ffffffff90931683526bffffffffffffffffffffffff9091166020830152016103bd565b348015610d0d57600080fd5b506104a7610d1c36600461507a565b61389d565b348015610d2d57600080fd5b50610d41610d3c3660046152f5565b613938565b6040516103bd91906155a4565b348015610d5a57600080fd5b506104a7610d6936600461507a565b613a6b565b6000610d7982613b5f565b80610dc557507f2a55205a000000000000000000000000000000000000000000000000000000007fffffffff000000000000000000000000000000000000000000000000000000008316145b92915050565b6000818152602081905260408120547f80000000000000000000000000000000000000000000000000000000000000008082161473ffffffffffffffffffffffffffffffffffffffff8216610e81576040517f08c379a000000000000000000000000000000000000000000000000000000000815260206004820152601160248201527f4e4f4e4558495354454e545f544f4b454e00000000000000000000000000000060448201526064015b60405180910390fd5b8015610eb25750505060009081526003602052604090205473ffffffffffffffffffffffffffffffffffffffff1690565b5060009392505050565b6000818152602081905260409020546affffffffffffffffffffff60a082901c1673ffffffffffffffffffffffffffffffffffffffff8216610f5a576040517f08c379a000000000000000000000000000000000000000000000000000000000815260206004820152601160248201527f4e4f4e4558495354454e545f544f4b454e0000000000000000000000000000006044820152606401610e78565b3373ffffffffffffffffffffffffffffffffffffffff83161480610fae575073ffffffffffffffffffffffffffffffffffffffff8216600090815260026020908152604080832033845290915290205460ff165b611014576040517f08c379a000000000000000000000000000000000000000000000000000000000815260206004820152601560248201527f554e415554484f52495a45445f415050524f56414c00000000000000000000006044820152606401610e78565b61102082828686613c40565b50505050565b6000818152602081905260409020547f80000000000000000000000000000000000000000000000000000000000000008082161473ffffffffffffffffffffffffffffffffffffffff82166110d7576040517f08c379a000000000000000000000000000000000000000000000000000000000815260206004820152601160248201527f4e4f4e4558495354454e545f544f4b454e0000000000000000000000000000006044820152606401610e78565b8473ffffffffffffffffffffffffffffffffffffffff168273ffffffffffffffffffffffffffffffffffffffff161461116c576040517f08c379a000000000000000000000000000000000000000000000000000000000815260206004820152600960248201527f4e4f545f4f574e455200000000000000000000000000000000000000000000006044820152606401610e78565b73ffffffffffffffffffffffffffffffffffffffff84166111e9576040517f08c379a000000000000000000000000000000000000000000000000000000000815260206004820152601260248201527f4e4f545f544f5f5a45524f4144445245535300000000000000000000000000006044820152606401610e78565b73ffffffffffffffffffffffffffffffffffffffff8416301415611269576040517f08c379a000000000000000000000000000000000000000000000000000000000815260206004820152600b60248201527f4e4f545f544f5f544849530000000000000000000000000000000000000000006044820152606401610e78565b3373ffffffffffffffffffffffffffffffffffffffff861614611357578080156112b6575060008381526003602052604090205473ffffffffffffffffffffffffffffffffffffffff1633145b806112f1575073ffffffffffffffffffffffffffffffffffffffff8516600090815260026020908152604080832033845290915290205460ff165b611357576040517f08c379a000000000000000000000000000000000000000000000000000000000815260206004820152601560248201527f554e415554484f52495a45445f5452414e5346455200000000000000000000006044820152606401610e78565b611362858585613d79565b5050505050565b600c5473ffffffffffffffffffffffffffffffffffffffff1633146113ea576040517f08c379a000000000000000000000000000000000000000000000000000000000815260206004820152600e60248201527f4e4f545f415554484f52495a45440000000000000000000000000000000000006044820152606401610e78565b73ffffffffffffffffffffffffffffffffffffffff8216740100000000000000000000000000000000000000006bffffffffffffffffffffffff831690810282176011556040805192835260208301919091527fb744dc8fdcd17f69ad99fdabe0fe0ed8fea41193727ed2123d997550eaae918f910160405180910390a15050565b60115473ffffffffffffffffffffffffffffffffffffffff811690600090612710906114be907401000000000000000000000000000000000000000090046bffffffffffffffffffffffff1685615638565b6114c891906156a4565b90509250929050565b60006114db613e68565b905090565b6114fb83838360405180602001604052806000815250612ae8565b505050565b60125473ffffffffffffffffffffffffffffffffffffffff163314611581576040517f08c379a000000000000000000000000000000000000000000000000000000000815260206004820152600e60248201527f4e4f545f415554484f52495a45440000000000000000000000000000000000006044820152606401610e78565b601280547fffffffffffffffffffffffff00000000000000000000000000000000000000001673ffffffffffffffffffffffffffffffffffffffff83169081179091556040519081527f4b70ff24654603d6961acf6a0cf30db833fc126dac63891114f984fefcc2b064906020015b60405180910390a150565b73ffffffffffffffffffffffffffffffffffffffff80821660009081526007602052604081205490911680156116315780611633565b825b9392505050565b73ffffffffffffffffffffffffffffffffffffffff81166116585750335b6116623382613ec8565b50565b60008181526020819052604090205473ffffffffffffffffffffffffffffffffffffffff81166116f1576040517f08c379a000000000000000000000000000000000000000000000000000000000815260206004820152601160248201527f4e4f4e4558495354454e545f544f4b454e0000000000000000000000000000006044820152606401610e78565b919050565b600b5473ffffffffffffffffffffffffffffffffffffffff163314806117525750600f5473ffffffffffffffffffffffffffffffffffffffff1633148015611752575073ffffffffffffffffffffffffffffffffffffffff8116155b6117b8576040517f08c379a000000000000000000000000000000000000000000000000000000000815260206004820152600e60248201527f4e4f545f415554484f52495a45440000000000000000000000000000000000006044820152606401610e78565b600b80547fffffffffffffffffffffffff00000000000000000000000000000000000000001673ffffffffffffffffffffffffffffffffffffffff83169081179091556040519081527f89de65ceb8cdf195a0b50021ed65dd305b54d3b744a0e283bd98c6058e2edd78906020016115f0565b600073ffffffffffffffffffffffffffffffffffffffff82166118aa576040517f08c379a000000000000000000000000000000000000000000000000000000000815260206004820152601260248201527f5a45524f5f414444524553535f4f574e455200000000000000000000000000006044820152606401610e78565b5073ffffffffffffffffffffffffffffffffffffffff1660009081526001602052604090205490565b600a5473ffffffffffffffffffffffffffffffffffffffff163314611954576040517f08c379a000000000000000000000000000000000000000000000000000000000815260206004820152600e60248201527f4e4f545f415554484f52495a45440000000000000000000000000000000000006044820152606401610e78565b6040517f02571be30000000000000000000000000000000000000000000000000000000081527f91d1777781884d03a6757a803996e38de2a42967fb37eeaca72729271025a9e260048201526000907f000000000000000000000000000000000000000000000000000000000000000073ffffffffffffffffffffffffffffffffffffffff16906302571be39060240160206040518083038186803b1580156119fc57600080fd5b505afa158015611a10573d6000803e3d6000fd5b505050506040513d601f19601f82011682018060405250810190611a3491906156b8565b6040517fc47f002700000000000000000000000000000000000000000000000000000000815290915073ffffffffffffffffffffffffffffffffffffffff82169063c47f002790611a89908590600401614f53565b602060405180830381600087803b158015611aa357600080fd5b505af1158015611ab7573d6000803e3d6000fd5b505050506040513d601f19601f820116820180604052508101906114fb91906156d5565b6000438210611b6c576040517f08c379a000000000000000000000000000000000000000000000000000000000815260206004820152603760248201527f455243373231436865636b706f696e7461626c653a3a6765745072696f72566f60448201527f7465733a206e6f74207965742064657465726d696e65640000000000000000006064820152608401610e78565b73ffffffffffffffffffffffffffffffffffffffff831660009081526009602052604090205463ffffffff1680611ba7576000915050610dc5565b73ffffffffffffffffffffffffffffffffffffffff841660009081526008602052604081208491611bd96001856156ee565b63ffffffff90811682526020820192909252604001600020541611611c5f5773ffffffffffffffffffffffffffffffffffffffff8416600090815260086020526040812090611c296001846156ee565b63ffffffff16815260208101919091526040016000205464010000000090046bffffffffffffffffffffffff169150610dc59050565b73ffffffffffffffffffffffffffffffffffffffff8416600090815260086020908152604080832083805290915290205463ffffffff16831015611ca7576000915050610dc5565b600080611cb56001846156ee565b90505b8163ffffffff168163ffffffff161115611d9a5760006002611cda84846156ee565b611ce49190615713565b611cee90836156ee565b73ffffffffffffffffffffffffffffffffffffffff8816600090815260086020908152604080832063ffffffff8581168552908352928190208151808301909252549283168082526401000000009093046bffffffffffffffffffffffff1691810191909152919250871415611d6e57602001519450610dc59350505050565b805163ffffffff16871115611d8557819350611d93565b611d906001836156ee565b92505b5050611cb8565b5073ffffffffffffffffffffffffffffffffffffffff8516600090815260086020908152604080832063ffffffff909416835292905220546bffffffffffffffffffffffff6401000000009091041691505092915050565b42841015611e5c576040517f08c379a000000000000000000000000000000000000000000000000000000000815260206004820152601760248201527f5045524d49545f444541444c494e455f455850495245440000000000000000006044820152606401610e78565b6000858152602081905260409020546affffffffffffffffffffff60a082901c1673ffffffffffffffffffffffffffffffffffffffff8216611efa576040517f08c379a000000000000000000000000000000000000000000000000000000000815260206004820152601160248201527f4e4f4e4558495354454e545f544f4b454e0000000000000000000000000000006044820152606401610e78565b60008781526004602052604081208054611f2c9285928c928c928c9290611f2083615736565b919050558a8a8a613f6d565b611f3882828a8a613c40565b5050505050505050565b600c5473ffffffffffffffffffffffffffffffffffffffff16331480611f9e5750600f5473ffffffffffffffffffffffffffffffffffffffff1633148015611f9e575073ffffffffffffffffffffffffffffffffffffffff8116155b612004576040517f08c379a000000000000000000000000000000000000000000000000000000000815260206004820152600e60248201527f4e4f545f415554484f52495a45440000000000000000000000000000000000006044820152606401610e78565b600c80547fffffffffffffffffffffffff00000000000000000000000000000000000000001673ffffffffffffffffffffffffffffffffffffffff83169081179091556040519081527fb17416b845258d996b82b66c3c9166088ec5edf592b35fcce47c62a73d61ef41906020016115f0565b600b5473ffffffffffffffffffffffffffffffffffffffff1633146120f8576040517f08c379a000000000000000000000000000000000000000000000000000000000815260206004820152600e60248201527f4e4f545f415554484f52495a45440000000000000000000000000000000000006044820152606401610e78565b601080547fffffffffffffffffffffffff00000000000000000000000000000000000000001673ffffffffffffffffffffffffffffffffffffffff83169081179091556040519081527f6bf5b09f847c9c9e97addeaf1ea9d5fd44ff6ae2c9c4aaf55fb476eca421a45d906020016115f0565b600f5473ffffffffffffffffffffffffffffffffffffffff1633146121ec576040517f08c379a000000000000000000000000000000000000000000000000000000000815260206004820152600e60248201527f4e4f545f415554484f52495a45440000000000000000000000000000000000006044820152606401610e78565b600f80547fffffffffffffffffffffffff00000000000000000000000000000000000000001673ffffffffffffffffffffffffffffffffffffffff83169081179091556040519081527fe6c09ffe4572dc9ceaa5ddde4ae41befa655d6fdfe8052077af0970f700e942e906020016115f0565b600a5473ffffffffffffffffffffffffffffffffffffffff1633146122e0576040517f08c379a000000000000000000000000000000000000000000000000000000000815260206004820152600e60248201527f4e4f545f415554484f52495a45440000000000000000000000000000000000006044820152606401610e78565b6040517f70a0823100000000000000000000000000000000000000000000000000000000815230600482015273ffffffffffffffffffffffffffffffffffffffff83169063a9059cbb90839083906370a082319060240160206040518083038186803b15801561234f57600080fd5b505afa158015612363573d6000803e3d6000fd5b505050506040513d601f19601f8201168201806040525081019061238791906156d5565b6040517fffffffff0000000000000000000000000000000000000000000000000000000060e085901b16815273ffffffffffffffffffffffffffffffffffffffff90921660048301526024820152604401602060405180830381600087803b1580156123f257600080fd5b505af1158015612406573d6000803e3d6000fd5b505050506040513d601f19601f820116820180604052508101906114fb919061576f565b600d5473ffffffffffffffffffffffffffffffffffffffff163314806124865750600f5473ffffffffffffffffffffffffffffffffffffffff1633148015612486575073ffffffffffffffffffffffffffffffffffffffff8116155b6124ec576040517f08c379a000000000000000000000000000000000000000000000000000000000815260206004820152600e60248201527f4e4f545f415554484f52495a45440000000000000000000000000000000000006044820152606401610e78565b600d80547fffffffffffffffffffffffff00000000000000000000000000000000000000001673ffffffffffffffffffffffffffffffffffffffff83169081179091556040519081527fb8e0165b6664b7af8f9563c66e3d6b987c2d06fe192539d7123a0777b41a7c89906020016115f0565b600e5473ffffffffffffffffffffffffffffffffffffffff1633146125e0576040517f08c379a000000000000000000000000000000000000000000000000000000000815260206004820152601360248201527f4f4e4c595f4d494e5445525f414c4c4f574544000000000000000000000000006044820152606401610e78565b6104008261ffff161061264f576040517f08c379a000000000000000000000000000000000000000000000000000000000815260206004820152600d60248201527f494e56414c49445f424c454550000000000000000000000000000000000000006044820152606401610e78565b73ffffffffffffffffffffffffffffffffffffffff81166126cc576040517f08c379a000000000000000000000000000000000000000000000000000000000815260206004820152601260248201527f4e4f545f544f5f5a45524f4144445245535300000000000000000000000000006044820152606401610e78565b73ffffffffffffffffffffffffffffffffffffffff811630141561274c576040517f08c379a000000000000000000000000000000000000000000000000000000000815260206004820152600b60248201527f4e4f545f544f5f544849530000000000000000000000000000000000000000006044820152606401610e78565b61ffff821660009081526020819052604090205473ffffffffffffffffffffffffffffffffffffffff8116156127de576040517f08c379a000000000000000000000000000000000000000000000000000000000815260206004820152600f60248201527f414c52454144595f4352454154454400000000000000000000000000000000006044820152606401610e78565b6114fb6000838561ffff166040518060200160405280600081525061405f565b60608167ffffffffffffffff81111561281957612819615097565b604051908082528060200260200182016040528015612842578160200160208202803683370190505b50905060005b828110156128ca5760008484838181106128645761286461578c565b905060200201359050600080828152602001908152602001600020548383815181106128925761289261578c565b73ffffffffffffffffffffffffffffffffffffffff9092166020928302919091019091015250806128c281615736565b915050612848565b5092915050565b6128dc3383836140fa565b5050565b60608167ffffffffffffffff8111156128fb576128fb615097565b60405190808252806020026020018201604052801561292e57816020015b60608152602001906001900390816129195790505b50905060005b828110156128ca57600080308686858181106129525761295261578c565b905060200281019061296491906157bb565b604051612972929190615820565b600060405180830381855af49150503d80600081146129ad576040519150601f19603f3d011682016040523d82523d6000602084013e6129b2565b606091505b509150915081612a18576044815110156129cb57600080fd5b600481019050808060200190518101906129e59190615830565b6040517f08c379a0000000000000000000000000000000000000000000000000000000008152600401610e789190614f53565b80848481518110612a2b57612a2b61578c565b602002602001018190525050508080612a4390615736565b915050612934565b73ffffffffffffffffffffffffffffffffffffffff811660009081526009602052604081205463ffffffff1680612a83576000611633565b73ffffffffffffffffffffffffffffffffffffffff8316600090815260086020526040812090612ab46001846156ee565b63ffffffff16815260208101919091526040016000205464010000000090046bffffffffffffffffffffffff169392505050565b6000828152602081905260409020547f80000000000000000000000000000000000000000000000000000000000000008082161473ffffffffffffffffffffffffffffffffffffffff8216612b99576040517f08c379a000000000000000000000000000000000000000000000000000000000815260206004820152601160248201527f4e4f4e4558495354454e545f544f4b454e0000000000000000000000000000006044820152606401610e78565b8573ffffffffffffffffffffffffffffffffffffffff168273ffffffffffffffffffffffffffffffffffffffff1614612c2e576040517f08c379a000000000000000000000000000000000000000000000000000000000815260206004820152600960248201527f4e4f545f4f574e455200000000000000000000000000000000000000000000006044820152606401610e78565b73ffffffffffffffffffffffffffffffffffffffff8516612cab576040517f08c379a000000000000000000000000000000000000000000000000000000000815260206004820152601260248201527f4e4f545f544f5f5a45524f4144445245535300000000000000000000000000006044820152606401610e78565b73ffffffffffffffffffffffffffffffffffffffff8516301415612d2b576040517f08c379a000000000000000000000000000000000000000000000000000000000815260206004820152600b60248201527f4e4f545f544f5f544849530000000000000000000000000000000000000000006044820152606401610e78565b3373ffffffffffffffffffffffffffffffffffffffff871614612e1957808015612d78575060008481526003602052604090205473ffffffffffffffffffffffffffffffffffffffff1633145b80612db3575073ffffffffffffffffffffffffffffffffffffffff8616600090815260026020908152604080832033845290915290205460ff165b612e19576040517f08c379a000000000000000000000000000000000000000000000000000000000815260206004820152601560248201527f554e415554484f52495a45445f5452414e5346455200000000000000000000006044820152606401610e78565b612e258686868661405f565b505050505050565b6000612e37613e68565b604080517fe48329057bfd03d55e49b547132e39cffd9c1820ad7b9d4c5307691425d15adf602082015273ffffffffffffffffffffffffffffffffffffffff8a1691810191909152606081018890526080810187905260a00160405160208183030381529060405280519060200120604051602001612ee89291907f190100000000000000000000000000000000000000000000000000000000000081526002810192909252602282015260420190565b604080517fffffffffffffffffffffffffffffffffffffffffffffffffffffffffffffffe08184030181528282528051602091820120600080855291840180845281905260ff88169284019290925260608301869052608083018590529092509060019060a0016020604051602081039080840390855afa158015612f71573d6000803e3d6000fd5b50506040517fffffffffffffffffffffffffffffffffffffffffffffffffffffffffffffffe0015191505073ffffffffffffffffffffffffffffffffffffffff811661303f576040517f08c379a000000000000000000000000000000000000000000000000000000000815260206004820152603660248201527f455243373231436865636b706f696e7461626c653a3a64656c6567617465427960448201527f5369673a20696e76616c6964207369676e6174757265000000000000000000006064820152608401610e78565b73ffffffffffffffffffffffffffffffffffffffff8116600090815260056020526040812080549161307083615736565b919050558714613102576040517f08c379a000000000000000000000000000000000000000000000000000000000815260206004820152603260248201527f455243373231436865636b706f696e7461626c653a3a64656c6567617465427960448201527f5369673a20696e76616c6964206e6f6e636500000000000000000000000000006064820152608401610e78565b85421115613192576040517f08c379a000000000000000000000000000000000000000000000000000000000815260206004820152603660248201527f455243373231436865636b706f696e7461626c653a3a64656c6567617465427960448201527f5369673a207369676e61747572652065787069726564000000000000000000006064820152608401610e78565b611f388189613ec8565b6010546040517fc87b56dd0000000000000000000000000000000000000000000000000000000081526004810183905260609173ffffffffffffffffffffffffffffffffffffffff169063c87b56dd9060240160006040518083038186803b15801561320757600080fd5b505afa15801561321b573d6000803e3d6000fd5b505050506040513d6000823e601f3d9081017fffffffffffffffffffffffffffffffffffffffffffffffffffffffffffffffe0168201604052610dc59190810190615830565b428410156132cb576040517f08c379a000000000000000000000000000000000000000000000000000000000815260206004820152601760248201527f5045524d49545f444541444c494e455f455850495245440000000000000000006044820152606401610e78565b73ffffffffffffffffffffffffffffffffffffffff8616600090815260056020526040812080546133149289928992899290919061330883615736565b91905055878787614192565b612e25868660016140fa565b600e5473ffffffffffffffffffffffffffffffffffffffff1633146133a1576040517f08c379a000000000000000000000000000000000000000000000000000000000815260206004820152601360248201527f4f4e4c595f4d494e5445525f414c4c4f574544000000000000000000000000006044820152606401610e78565b73ffffffffffffffffffffffffffffffffffffffff811661341e576040517f08c379a000000000000000000000000000000000000000000000000000000000815260206004820152601260248201527f4e4f545f544f5f5a45524f4144445245535300000000000000000000000000006044820152606401610e78565b73ffffffffffffffffffffffffffffffffffffffff811630141561349e576040517f08c379a000000000000000000000000000000000000000000000000000000000815260206004820152600b60248201527f4e4f545f544f5f544849530000000000000000000000000000000000000000006044820152606401610e78565b60005b828110156110205760008484838181106134bd576134bd61578c565b90506020020160208101906134d291906158a7565b61ffff1690506104008110613543576040517f08c379a000000000000000000000000000000000000000000000000000000000815260206004820152600d60248201527f494e56414c49445f424c454550000000000000000000000000000000000000006044820152606401610e78565b60008181526020819052604090205473ffffffffffffffffffffffffffffffffffffffff8116156135d0576040517f08c379a000000000000000000000000000000000000000000000000000000000815260206004820152600f60248201527f414c52454144595f4352454154454400000000000000000000000000000000006044820152606401610e78565b6135ec600085846040518060200160405280600081525061405f565b505080806135f990615736565b9150506134a1565b60125473ffffffffffffffffffffffffffffffffffffffff163314613682576040517f08c379a000000000000000000000000000000000000000000000000000000000815260206004820152600e60248201527f4e4f545f415554484f52495a45440000000000000000000000000000000000006044820152606401610e78565b600680547fffffffffffffffffffffffffffffffffffffffffffffffffffffffffffffff00169055601280547fffffffffffffffffffffffff0000000000000000000000000000000000000000169055604051600081527f4b70ff24654603d6961acf6a0cf30db833fc126dac63891114f984fefcc2b0649060200160405180910390a16040517f3355f5c11ec5fbd9909c4fbd232bf8592a749dba18405f16df892fa6b40eddae90600090a1565b6010546011546040517fcc4c332400000000000000000000000000000000000000000000000000000000815273ffffffffffffffffffffffffffffffffffffffff8083166004830152740100000000000000000000000000000000000000009092046bffffffffffffffffffffffff166024820152606092919091169063cc4c33249060440160006040518083038186803b1580156137cf57600080fd5b505afa1580156137e3573d6000803e3d6000fd5b505050506040513d6000823e601f3d9081017fffffffffffffffffffffffffffffffffffffffffffffffffffffffffffffffe01682016040526114db9190810190615830565b6000610dc56138378361182b565b6040518060600160405280603d8152602001615a30603d9139614272565b73ffffffffffffffffffffffffffffffffffffffff808316600090815260026020908152604080832093851683529290529081205460ff1680611633575061163383836142c4565b600a5473ffffffffffffffffffffffffffffffffffffffff163381146138c257600080fd5b600a80547fffffffffffffffffffffffff00000000000000000000000000000000000000001673ffffffffffffffffffffffffffffffffffffffff84811691821790925560405190918316907f8be0079c531659141344cd1fd0a4f28419497f9722a3daafe3b4186f6b6457e090600090a35050565b60608167ffffffffffffffff81111561395357613953615097565b60405190808252806020026020018201604052801561399857816020015b60408051808201909152600080825260208201528152602001906001900390816139715790505b50905060005b828110156128ca5760008060008686858181106139bd576139bd61578c565b905060200201358152602001908152602001600020549050808383815181106139e8576139e861578c565b60200260200101516000019073ffffffffffffffffffffffffffffffffffffffff16908173ffffffffffffffffffffffffffffffffffffffff168152505060a081901c6affffffffffffffffffffff16838381518110613a4a57613a4a61578c565b60209081029190910181015101525080613a6381615736565b91505061399e565b600d5473ffffffffffffffffffffffffffffffffffffffff163314613aec576040517f08c379a000000000000000000000000000000000000000000000000000000000815260206004820152600e60248201527f4e4f545f415554484f52495a45440000000000000000000000000000000000006044820152606401610e78565b600e80547fffffffffffffffffffffffff00000000000000000000000000000000000000001673ffffffffffffffffffffffffffffffffffffffff83169081179091556040519081527f726b590ef91a8c76ad05bbe91a57ef84605276528f49cd47d787f558a4e755b6906020016115f0565b60007f01ffc9a7000000000000000000000000000000000000000000000000000000007fffffffff0000000000000000000000000000000000000000000000000000000083161480613bf257507f80ac58cd000000000000000000000000000000000000000000000000000000007fffffffff000000000000000000000000000000000000000000000000000000008316145b80610dc55750507fffffffff00000000000000000000000000000000000000000000000000000000167f5b5e139f000000000000000000000000000000000000000000000000000000001490565b73ffffffffffffffffffffffffffffffffffffffff8216613c8d57600081815260208190526040902060a084901b73ffffffffffffffffffffffffffffffffffffffff8616179055613d18565b6000818152602081815260408083207f800000000000000000000000000000000000000000000000000000000000000073ffffffffffffffffffffffffffffffffffffffff89811660a08a901b1791909117909155600390925290912080547fffffffffffffffffffffffff0000000000000000000000000000000000000000169184169190911790555b808273ffffffffffffffffffffffffffffffffffffffff168573ffffffffffffffffffffffffffffffffffffffff167f8c5be1e5ebec7d5bd14f71427d1e84f3dd0314c0f7b2291e5b200ac8c7c3b92560405160405180910390a450505050565b613d848383836143ed565b73ffffffffffffffffffffffffffffffffffffffff808316600090815260016020819052604090912080549091019055831615613e075773ffffffffffffffffffffffffffffffffffffffff8316600090815260016020526040902080547fffffffffffffffffffffffffffffffffffffffffffffffffffffffffffffffff0190555b6000818152602081905260408082204360a01b73ffffffffffffffffffffffffffffffffffffffff80871691821790925591518493918716917fddf252ad1be2c89b69c2b068fc378daa952ba7f163c4a11628f55a4df523b3ef91a4505050565b6000467f00000000000000000000000000000000000000000000000000000000000000008114613ea057613e9b81614414565b613ec2565b7f00000000000000000000000000000000000000000000000000000000000000005b91505090565b6000613ed3836115fb565b73ffffffffffffffffffffffffffffffffffffffff84811660008181526007602052604080822080547fffffffffffffffffffffffff000000000000000000000000000000000000000016888616908117909155905194955093928516927f3134e8a2e6d97e929a7e54011ea5485d7d196dd5f0ba4d4ef95803e8e3fc257f9190a46000613f6084613829565b90506110208284836144b8565b6000613f77613e68565b604080517f49ecf333e5b8c95c40fdafc95c1ad136e8914a8fb55e9dc8bb01eaa83a2df9ad602082015273ffffffffffffffffffffffffffffffffffffffff8b1691810191909152606081018990526080810187905260a0810188905260c0016040516020818303038152906040528051906020012060405160200161402f9291907f190100000000000000000000000000000000000000000000000000000000000081526002810192909252602282015260420190565b60405160208183030381529060405280519060200120905061405489828686866146dd565b505050505050505050565b61406a848484613d79565b73ffffffffffffffffffffffffffffffffffffffff83163b15611020576140943385858585614a0a565b611020576040517f08c379a000000000000000000000000000000000000000000000000000000000815260206004820152601860248201527f4552433732315f5452414e534645525f52454a454354454400000000000000006044820152606401610e78565b73ffffffffffffffffffffffffffffffffffffffff83811660008181526002602090815260408083209487168084529482529182902080547fffffffffffffffffffffffffffffffffffffffffffffffffffffffffffffff001686151590811790915591519182527f17307eab39ab6107e8899845ad3d59bd9653f200f220920489ca2b5937696c31910160405180910390a3505050565b600061419c613e68565b604080517f29795620f29ed5790c945e3f419a1b3e2381aa07751ccffe5b81231639d74cd5602082015273ffffffffffffffffffffffffffffffffffffffff8a1691810191909152606081018790526080810188905260a0016040516020818303038152906040528051906020012060405160200161424d9291907f190100000000000000000000000000000000000000000000000000000000000081526002810192909252602282015260420190565b604051602081830303815290604052805190602001209050611f3888828686866146dd565b6000816c0100000000000000000000000084106142bc576040517f08c379a0000000000000000000000000000000000000000000000000000000008152600401610e789190614f53565b509192915050565b60007f000000000000000000000000000000000000000000000000000000000000000073ffffffffffffffffffffffffffffffffffffffff1661430957506000610dc5565b6040517fc455279100000000000000000000000000000000000000000000000000000000815273ffffffffffffffffffffffffffffffffffffffff84811660048301527f0000000000000000000000000000000000000000000000000000000000000000918482169183169063c45527919060240160206040518083038186803b15801561439657600080fd5b505afa1580156143aa573d6000803e3d6000fd5b505050506040513d601f19601f820116820180604052508101906143ce91906156b8565b73ffffffffffffffffffffffffffffffffffffffff1614949350505050565b60065460ff16156114fb576114fb614404846115fb565b61440d846115fb565b60016144b8565b60007f8cad95687ba82c2ce50e74f7b754645e5117c3a5bec8151c0726d5857980a86661447160408051808201909152600681527f426c656570730000000000000000000000000000000000000000000000000000602082015290565b80516020918201206040805192830193909352918101919091526060810183905230608082015260a001604051602081830303815290604052805190602001209050919050565b8173ffffffffffffffffffffffffffffffffffffffff168373ffffffffffffffffffffffffffffffffffffffff161415801561450257506000816bffffffffffffffffffffffff16115b156114fb5773ffffffffffffffffffffffffffffffffffffffff8316156145f45773ffffffffffffffffffffffffffffffffffffffff831660009081526009602052604081205463ffffffff16908161455c5760006145bb565b73ffffffffffffffffffffffffffffffffffffffff851660009081526008602052604081209061458d6001856156ee565b63ffffffff16815260208101919091526040016000205464010000000090046bffffffffffffffffffffffff165b905060006145e28285604051806060016040528060378152602001615a6d60379139614aee565b90506145f086848484614b5c565b5050505b73ffffffffffffffffffffffffffffffffffffffff8216156114fb5773ffffffffffffffffffffffffffffffffffffffff821660009081526009602052604081205463ffffffff1690816146495760006146a8565b73ffffffffffffffffffffffffffffffffffffffff841660009081526008602052604081209061467a6001856156ee565b63ffffffff16815260208101919091526040016000205464010000000090046bffffffffffffffffffffffff165b905060006146cf82856040518060600160405280603681526020016159b660369139614ddf565b9050612e2585848484614b5c565b73ffffffffffffffffffffffffffffffffffffffff85163b1561487957604080516020810184905280820183905260f885901b7fff000000000000000000000000000000000000000000000000000000000000001660608201528151604181830301815260618201928390527f1626ba7e000000000000000000000000000000000000000000000000000000009283905273ffffffffffffffffffffffffffffffffffffffff881691631626ba7e9161479b918991906065016158c2565b60206040518083038186803b1580156147b357600080fd5b505afa1580156147c7573d6000803e3d6000fd5b505050506040513d601f19601f820116820180604052508101906147eb91906158db565b7fffffffff000000000000000000000000000000000000000000000000000000001614614874576040517f08c379a000000000000000000000000000000000000000000000000000000000815260206004820152601b60248201527f5349474e41545552455f313237315f4e4f545f4d41544348494e4700000000006044820152606401610e78565b611362565b6040805160008082526020820180845287905260ff861692820192909252606081018490526080810183905260019060a0016020604051602081039080840390855afa1580156148cd573d6000803e3d6000fd5b50506040517fffffffffffffffffffffffffffffffffffffffffffffffffffffffffffffffe0015191505073ffffffffffffffffffffffffffffffffffffffff8116614975576040517f08c379a000000000000000000000000000000000000000000000000000000000815260206004820152601160248201527f5349474e41545552455f494e56414c49440000000000000000000000000000006044820152606401610e78565b8573ffffffffffffffffffffffffffffffffffffffff168173ffffffffffffffffffffffffffffffffffffffff1614612e25576040517f08c379a000000000000000000000000000000000000000000000000000000000815260206004820152601660248201527f5349474e41545552455f57524f4e475f5349474e4552000000000000000000006044820152606401610e78565b6000808473ffffffffffffffffffffffffffffffffffffffff1663150b7a02888887876040518563ffffffff1660e01b8152600401614a4c94939291906158f8565b602060405180830381600087803b158015614a6657600080fd5b505af1158015614a7a573d6000803e3d6000fd5b505050506040513d601f19601f82011682018060405250810190614a9e91906158db565b7fffffffff00000000000000000000000000000000000000000000000000000000167f150b7a02000000000000000000000000000000000000000000000000000000001491505095945050505050565b6000836bffffffffffffffffffffffff16836bffffffffffffffffffffffff1611158290614b49576040517f08c379a0000000000000000000000000000000000000000000000000000000008152600401610e789190614f53565b50614b548385615941565b949350505050565b6000614b80436040518060800160405280604481526020016159ec60449139614e50565b905060008463ffffffff16118015614be7575073ffffffffffffffffffffffffffffffffffffffff8516600090815260086020526040812063ffffffff831691614bcb6001886156ee565b63ffffffff908116825260208201929092526040016000205416145b15614c7d5773ffffffffffffffffffffffffffffffffffffffff851660009081526008602052604081208391614c1e6001886156ee565b63ffffffff168152602081019190915260400160002080546bffffffffffffffffffffffff92909216640100000000027fffffffffffffffffffffffffffffffff000000000000000000000000ffffffff909216919091179055614d78565b60408051808201825263ffffffff80841682526bffffffffffffffffffffffff808616602080850191825273ffffffffffffffffffffffffffffffffffffffff8b166000908152600882528681208b8616825290915294909420925183549451909116640100000000027fffffffffffffffffffffffffffffffff00000000000000000000000000000000909416911617919091179055614d1f846001615966565b73ffffffffffffffffffffffffffffffffffffffff8616600090815260096020526040902080547fffffffffffffffffffffffffffffffffffffffffffffffffffffffff000000001663ffffffff929092169190911790555b604080516bffffffffffffffffffffffff80861682528416602082015273ffffffffffffffffffffffffffffffffffffffff8716917fdec2bacdd2f05b59de34da9b523dff8be42e5e38e818c82fdb0bae774387a724910160405180910390a25050505050565b600080614dec848661598e565b9050846bffffffffffffffffffffffff16816bffffffffffffffffffffffff1610158390614e47576040517f08c379a0000000000000000000000000000000000000000000000000000000008152600401610e789190614f53565b50949350505050565b60008164010000000084106142bc576040517f08c379a0000000000000000000000000000000000000000000000000000000008152600401610e789190614f53565b7fffffffff000000000000000000000000000000000000000000000000000000008116811461166257600080fd5b600060208284031215614ed257600080fd5b813561163381614e92565b60005b83811015614ef8578181015183820152602001614ee0565b838111156110205750506000910152565b60008151808452614f21816020860160208601614edd565b601f017fffffffffffffffffffffffffffffffffffffffffffffffffffffffffffffffe0169290920160200192915050565b6020815260006116336020830184614f09565b600060208284031215614f7857600080fd5b5035919050565b73ffffffffffffffffffffffffffffffffffffffff8116811461166257600080fd5b60008060408385031215614fb457600080fd5b8235614fbf81614f7f565b946020939093013593505050565b600080600060608486031215614fe257600080fd5b8335614fed81614f7f565b92506020840135614ffd81614f7f565b929592945050506040919091013590565b6000806040838503121561502157600080fd5b823561502c81614f7f565b915060208301356bffffffffffffffffffffffff8116811461504d57600080fd5b809150509250929050565b6000806040838503121561506b57600080fd5b50508035926020909101359150565b60006020828403121561508c57600080fd5b813561163381614f7f565b7f4e487b7100000000000000000000000000000000000000000000000000000000600052604160045260246000fd5b604051601f82017fffffffffffffffffffffffffffffffffffffffffffffffffffffffffffffffe016810167ffffffffffffffff8111828210171561510d5761510d615097565b604052919050565b600067ffffffffffffffff82111561512f5761512f615097565b50601f017fffffffffffffffffffffffffffffffffffffffffffffffffffffffffffffffe01660200190565b600061516e61516984615115565b6150c6565b905082815283838301111561518257600080fd5b828260208301376000602084830101529392505050565b6000602082840312156151ab57600080fd5b813567ffffffffffffffff8111156151c257600080fd5b8201601f810184136151d357600080fd5b614b548482356020840161515b565b803560ff811681146116f157600080fd5b60008060008060008060c0878903121561520c57600080fd5b863561521781614f7f565b95506020870135945060408701359350615233606088016151e2565b92506080870135915060a087013590509295509295509295565b6000806040838503121561526057600080fd5b823561526b81614f7f565b9150602083013561504d81614f7f565b803561ffff811681146116f157600080fd5b600080604083850312156152a057600080fd5b61526b8361527b565b60008083601f8401126152bb57600080fd5b50813567ffffffffffffffff8111156152d357600080fd5b6020830191508360208260051b85010111156152ee57600080fd5b9250929050565b6000806020838503121561530857600080fd5b823567ffffffffffffffff81111561531f57600080fd5b61532b858286016152a9565b90969095509350505050565b6020808252825182820181905260009190848201906040850190845b8181101561538557835173ffffffffffffffffffffffffffffffffffffffff1683529284019291840191600101615353565b50909695505050505050565b801515811461166257600080fd5b600080604083850312156153b257600080fd5b82356153bd81614f7f565b9150602083013561504d81615391565b6000602080830181845280855180835260408601915060408160051b870101925083870160005b82811015615440577fffffffffffffffffffffffffffffffffffffffffffffffffffffffffffffffc088860301845261542e858351614f09565b945092850192908501906001016153f4565b5092979650505050505050565b6000806000806080858703121561546357600080fd5b843561546e81614f7f565b9350602085013561547e81614f7f565b925060408501359150606085013567ffffffffffffffff8111156154a157600080fd5b8501601f810187136154b257600080fd5b6154c18782356020840161515b565b91505092959194509250565b60008060008060008060c087890312156154e657600080fd5b86356154f181614f7f565b9550602087013561550181614f7f565b945060408701359350615233606088016151e2565b60008060006040848603121561552b57600080fd5b833567ffffffffffffffff81111561554257600080fd5b61554e868287016152a9565b909450925050602084013561556281614f7f565b809150509250925092565b6000806040838503121561558057600080fd5b823561558b81614f7f565b9150602083013563ffffffff8116811461504d57600080fd5b602080825282518282018190526000919060409081850190868401855b828110156155fc578151805173ffffffffffffffffffffffffffffffffffffffff1685528601518685015292840192908501906001016155c1565b5091979650505050505050565b7f4e487b7100000000000000000000000000000000000000000000000000000000600052601160045260246000fd5b6000817fffffffffffffffffffffffffffffffffffffffffffffffffffffffffffffffff048311821515161561567057615670615609565b500290565b7f4e487b7100000000000000000000000000000000000000000000000000000000600052601260045260246000fd5b6000826156b3576156b3615675565b500490565b6000602082840312156156ca57600080fd5b815161163381614f7f565b6000602082840312156156e757600080fd5b5051919050565b600063ffffffff8381169083168181101561570b5761570b615609565b039392505050565b600063ffffffff8084168061572a5761572a615675565b92169190910492915050565b60007fffffffffffffffffffffffffffffffffffffffffffffffffffffffffffffffff82141561576857615768615609565b5060010190565b60006020828403121561578157600080fd5b815161163381615391565b7f4e487b7100000000000000000000000000000000000000000000000000000000600052603260045260246000fd5b60008083357fffffffffffffffffffffffffffffffffffffffffffffffffffffffffffffffe18436030181126157f057600080fd5b83018035915067ffffffffffffffff82111561580b57600080fd5b6020019150368190038213156152ee57600080fd5b8183823760009101908152919050565b60006020828403121561584257600080fd5b815167ffffffffffffffff81111561585957600080fd5b8201601f8101841361586a57600080fd5b805161587861516982615115565b81815285602083850101111561588d57600080fd5b61589e826020830160208601614edd565b95945050505050565b6000602082840312156158b957600080fd5b6116338261527b565b828152604060208201526000614b546040830184614f09565b6000602082840312156158ed57600080fd5b815161163381614e92565b600073ffffffffffffffffffffffffffffffffffffffff8087168352808616602084015250836040830152608060608301526159376080830184614f09565b9695505050505050565b60006bffffffffffffffffffffffff8381169083168181101561570b5761570b615609565b600063ffffffff80831681851680830382111561598557615985615609565b01949350505050565b60006bffffffffffffffffffffffff8083168185168083038211156159855761598561560956fe455243373231436865636b706f696e7461626c653a3a5f6d6f766544656c6567617465733a20616d6f756e74206f766572666c6f7773455243373231436865636b706f696e7461626c653a3a5f7772697465436865636b706f696e743a20626c6f636b206e756d62657220657863656564732033322062697473455243373231436865636b706f696e7461626c653a3a766f746573546f44656c65676174653a20616d6f756e7420657863656564732039362062697473455243373231436865636b706f696e7461626c653a3a5f6d6f766544656c6567617465733a20616d6f756e7420756e646572666c6f7773a26469706673582212203e413b67f38c9e27039f4604cf8e75faada57a23356de7f1f57ff5c8d48fab7664736f6c63430008090033",
  "devdoc": {
    "kind": "dev",
    "methods": {
      "DOMAIN_SEPARATOR()": {
        "details": "Return the DOMAIN_SEPARATOR."
      },
      "approve(address,uint256)": {
        "params": {
          "id": "The id of the token.",
          "operator": "The address receiving the approval."
        }
      },
      "balanceOf(address)": {
        "params": {
          "owner": "The address to look for."
        },
        "returns": {
          "balance": "The number of tokens owned by the address."
        }
      },
      "constructor": {
        "details": "Create the Bleeps contract",
        "params": {
          "ens": "ENS address for the network the contract is deployed to",
          "imitialRoyaltyPer10Thousands": "amount of royalty in 10,000 basis point",
          "initialCheckpointingDisabler": "admin able to cancel checkpointing",
          "initialGuardian": "guardian able to immortalize rules",
          "initialMinterAdmin": "admin able to set the minter contract.",
          "initialOwner": "address that can execute on behalf of Bleeps (example: can claim ENS name).",
          "initialRoyaltyAdmin": "admin able to update the royalty receiver and rates.",
          "initialRoyaltyReceiver": "receiver of royalties",
          "initialTokenURIAdmin": "admin able to update the tokenURI contract.",
          "initialTokenURIContract": "initial tokenURI contract that generate the metadata including the wav file.",
          "openseaProxyRegistry": "allow Bleeps to be sold on opensea without prior approval tx as long as the user have already an opensea proxy."
        }
      },
      "delegate(address)": {
        "params": {
          "delegatee": "The address to delegate votes to"
        }
      },
      "delegateBySig(address,uint256,uint256,uint8,bytes32,bytes32)": {
        "params": {
          "delegatee": "The address to delegate votes to",
          "expiry": "The time at which to expire the signature",
          "nonce": "The contract state required to match the signature",
          "r": "Half of the ECDSA signature pair",
          "s": "Half of the ECDSA signature pair",
          "v": "The recovery byte of the signature"
        }
      },
      "getApproved(uint256)": {
        "params": {
          "id": "The id of the token."
        },
        "returns": {
          "_0": "The address of the operator."
        }
      },
      "getCurrentVotes(address)": {
        "params": {
          "account": "The address to get votes balance"
        },
        "returns": {
          "_0": "The number of current votes for `account`"
        }
      },
      "getPriorVotes(address,uint256)": {
        "details": "Block number must be a finalized block or else this function will revert to prevent misinformation.",
        "params": {
          "account": "The address of the account to check",
          "blockNumber": "The block number to get the vote balance at"
        },
        "returns": {
          "_0": "The number of votes the account had as of the given block"
        }
      },
      "isApprovedForAll(address,address)": {
        "params": {
          "operator": "The address of the operator.",
          "owner": "The address of the owner."
        },
        "returns": {
          "isOperator": "The status of the approval."
        }
      },
      "mint(uint16,address)": {
        "params": {
          "id": "bleep id which represent a pair of (note, instrument).",
          "to": "address that will receive the Bleep."
        }
      },
      "multiMint(uint16[],address)": {
        "params": {
          "ids": "list of bleep id which represent each a pair of (note, instrument).",
          "to": "address that will receive the Bleeps."
        }
      },
      "multicall(bytes[])": {
        "details": "The `msg.value` should not be trusted for any method callable from multicall.",
        "params": {
          "data": "The encoded function data for each of the calls to make to this contract."
        },
        "returns": {
          "results": "The results from each of the calls passed in via data."
        }
      },
      "ownerAndLastTransferBlockNumberList(uint256[])": {
        "params": {
          "ids": "The list of token ids to check."
        },
        "returns": {
          "ownersData": "The list of (owner, lastTransferBlockNumber) for each ids given as input."
        }
      },
      "ownerOf(uint256)": {
        "params": {
          "id": "The id of the token."
        },
        "returns": {
          "owner": "The address of the token owner."
        }
      },
      "owners(uint256[])": {
        "params": {
          "ids": "The list if token ids to check."
        },
        "returns": {
          "addresses": "The list of addresses, corresponding to the list of ids."
        }
      },
      "royaltyInfo(uint256,uint256)": {
        "params": {
          "id": "- the token queried for royalty information.",
          "salePrice": "- the sale price of the token specified by id."
        },
        "returns": {
          "receiver": "- address of who should be sent the royalty payment.",
          "royaltyAmount": "- the royalty payment amount for salePrice."
        }
      },
      "safeTransferFrom(address,address,uint256)": {
        "params": {
          "from": "The send of the token.",
          "id": "The id of the token.",
          "to": "The recipient of the token."
        }
      },
      "safeTransferFrom(address,address,uint256,bytes)": {
        "params": {
          "data": "Additional data.",
          "from": "The sender of the token.",
          "id": "The id of the token.",
          "to": "The recipient of the token."
        }
      },
      "setApprovalForAll(address,bool)": {
        "params": {
          "approved": "The determination of the approval.",
          "operator": "The address receiving the approval."
        }
      },
      "setCheckpointingDisabler(address)": {
        "params": {
          "newCheckpointingDisabler": "new address that can disable the use of checkpointing. can be the zero address to remove the ability to change."
        }
      },
      "setRoyaltyParameters(address,uint96)": {
        "params": {
          "newReceiver": "the address that should receive the royalty proceeds.",
          "royaltyPer10Thousands": "the share of the salePrice (in 1/10000) given to the receiver."
        }
      },
      "setTokenURIContract(address)": {
        "params": {
          "newTokenURIContract": "The address of the new tokenURI contract."
        }
      },
      "sound(uint256)": {
        "params": {
          "id": "bleep id which represent a pair of (note, instrument)."
        },
        "returns": {
          "instrument": "the instrument index (0 to 16). At launch there is only 9 instrument but the DAO could add more (up to 16 in total).",
          "note": "the note index (0 to 63) starting from C2 to D#7"
        }
      },
      "supportsInterface(bytes4)": {
        "params": {
          "id": "The id of the interface."
        },
        "returns": {
          "_0": "Whether the interface is supported."
        }
      },
      "transferFrom(address,address,uint256)": {
        "params": {
          "from": "The sender of the token.",
          "id": "The id of the token.",
          "to": "The recipient of the token."
        }
      },
      "votesToDelegate(address)": {
        "details": "Used when calling `_delegate()`"
      }
    },
    "stateVariables": {
      "checkpointingDisabler": {
        "details": "address that is able to switch off the use of checkpointing, this will make token transfers much cheaper in term of gas, but require the design of a new governance system."
      }
    },
    "version": 1
  },
  "userdoc": {
    "events": {
      "DelegateChanged(address,address,address)": {
        "notice": "An event thats emitted when an account changes its delegate"
      },
      "DelegateVotesChanged(address,uint256,uint256)": {
        "notice": "An event thats emitted when a delegate account's vote balance changes"
      }
    },
    "kind": "user",
    "methods": {
      "DELEGATION_TYPEHASH()": {
        "notice": "The EIP-712 typehash for the delegation struct used by the contract"
      },
      "approve(address,uint256)": {
        "notice": "Approve an operator to transfer a specific token on the senders behalf."
      },
      "balanceOf(address)": {
        "notice": "Get the number of tokens owned by an address."
      },
      "checkpoints(address,uint32)": {
        "notice": "A record of votes checkpoints for each account, by index"
      },
      "contractURI()": {
        "notice": "Returns the Uniform Resource Identifier (URI) for the token collection."
      },
      "decimals()": {
        "notice": "Defines decimals as per ERC-20 convention to make integrations with 3rd party governance platforms easier"
      },
      "delegate(address)": {
        "notice": "Delegate votes from `msg.sender` to `delegatee`"
      },
      "delegateBySig(address,uint256,uint256,uint8,bytes32,bytes32)": {
        "notice": "Delegates votes from signatory to `delegatee`"
      },
      "delegates(address)": {
        "notice": "Overrides the standard `Comp.sol` delegates mapping to return the delegator's own address if they haven't delegated. This avoids having to delegate to oneself."
      },
      "disableTheUseOfCheckpoints()": {
        "notice": "disable checkpointing overhead This can be used if the governance system can switch to use ownerAndLastTransferBlockNumberOf instead of checkpoints"
      },
      "getApproved(uint256)": {
        "notice": "Get the approved operator for a specific token."
      },
      "getCurrentVotes(address)": {
        "notice": "Gets the current votes balance for `account`"
      },
      "getPriorVotes(address,uint256)": {
        "notice": "Determine the prior number of votes for an account as of a block number"
      },
      "guardian()": {
        "notice": "guardian has some special vetoing power to guide the direction of the DAO. It can only remove rights from the DAO. It could be used to immortalize rules. For example: the royalty setup could be frozen."
      },
      "isApprovedForAll(address,address)": {
        "notice": "Check if the sender approved the operator."
      },
      "mint(uint16,address)": {
        "notice": "mint one of bleep if not already minted. Can only be called by `minter`."
      },
      "minter()": {
        "notice": "address allowed to mint, allow the sale contract to be separated from the token contract that can focus on the core logic Once all 1024 potential bleeps (there could be less, at minimum there are 576 bleeps) are minted, no minter can mint anymore"
      },
      "minterAdmin()": {
        "notice": "minterAdmin can update the minter. At the time being there is 576 Bleeps but there is space for extra instrument and the upper limit is 1024. could be given to the DAO later so instrument can be added, the sale of these new bleeps could benenfit the DAO too and add new members."
      },
      "multiMint(uint16[],address)": {
        "notice": "mint multiple bleeps if not already minted. Can only be called by `minter`."
      },
      "multicall(bytes[])": {
        "notice": "Call multiple functions in the current contract and return the data from all of them if they all succeed."
      },
      "name()": {
        "notice": "A descriptive name for a collection of NFTs in this contract."
      },
      "numCheckpoints(address)": {
        "notice": "The number of checkpoints for each account"
      },
      "owner()": {
        "notice": "the address of the current owner, that is able to set ENS names and withdraw ERC20 owned by the contract."
      },
      "ownerAndLastTransferBlockNumberList(uint256[])": {
        "notice": "Get the list of owner of a token and the blockNumber of its last transfer, useful to voting mechanism."
      },
      "ownerOf(uint256)": {
        "notice": "Get the owner of a token."
      },
      "owners(uint256[])": {
        "notice": "give the list of owners for the list of ids given."
      },
      "royaltyAdmin()": {
        "notice": "address allowed to set royalty parameters"
      },
      "royaltyInfo(uint256,uint256)": {
        "notice": "Called with the sale price to determine how much royalty is owed and to whom."
      },
      "safeTransferFrom(address,address,uint256)": {
        "notice": "Transfer a token between 2 addresses letting the receiver know of the transfer."
      },
      "safeTransferFrom(address,address,uint256,bytes)": {
        "notice": "Transfer a token between 2 addresses letting the receiver knows of the transfer."
      },
      "setApprovalForAll(address,bool)": {
        "notice": "Set the approval for an operator to manage all the tokens of the sender."
      },
      "setCheckpointingDisabler(address)": {
        "notice": "update the address that can disable the use of checkpinting, can be used to disable it entirely."
      },
      "setGuardian(address)": {
        "notice": "set the new guardian that can freeze the other admins (except owner). Can only be called by the current guardian."
      },
      "setMinter(address)": {
        "notice": "set the new minter that can mint Bleeps (up to 1024). Can only be called by the minter admin."
      },
      "setMinterAdmin(address)": {
        "notice": "set the new minterAdmin that can set the minter for Bleeps Can only be called by the current minter admin."
      },
      "setRoyaltyAdmin(address)": {
        "notice": "set the new royaltyAdmin that can change the royalties Can only be called by the current royalty admin."
      },
      "setRoyaltyParameters(address,uint96)": {
        "notice": "set a new royalty receiver and rate, Can only be set by the `royaltyAdmin`."
      },
      "setTokenURIAdmin(address)": {
        "notice": "set the new tokenURIAdmin that can change the tokenURI Can only be called by the current tokenURI admin."
      },
      "setTokenURIContract(address)": {
        "notice": "set a new tokenURI contract, that generate the metadata including the wav file, Can only be set by the `tokenURIAdmin`."
      },
      "sound(uint256)": {
        "notice": "gives the note and instrument for a particular Bleep id."
      },
      "supportsInterface(bytes4)": {
        "notice": "Check if the contract supports an interface."
      },
      "symbol()": {
        "notice": "An abbreviated name for NFTs in this contract."
      },
      "tokenURI(uint256)": {
        "notice": "Returns the Uniform Resource Identifier (URI) for token `id`."
      },
      "tokenURIAdmin()": {
        "notice": "tokenURIAdmin can update the tokenURI contract, this is intended to be relinquished once the tokenURI has been heavily tested in the wild and that no modification are needed."
      },
      "tokenURIContract()": {
        "notice": "the contract that actually generate the sound (and all metadata via the a data: uri via tokenURI call)."
      },
      "transferFrom(address,address,uint256)": {
        "notice": "Transfer a token between 2 addresses."
      },
      "transferOwnership(address)": {
        "notice": "Transfers ownership of the contract to a new account (`newOwner`). Can only be called by the current owner."
      },
      "votesToDelegate(address)": {
        "notice": "The votes a delegator can delegate, which is the current balance of the delegator."
      }
    },
    "version": 1
  },
  "storageLayout": {
    "storage": [
      {
        "astId": 6602,
        "contract": "src/bleeps/Bleeps.sol:Bleeps",
        "label": "_owners",
        "offset": 0,
        "slot": "0",
        "type": "t_mapping(t_uint256,t_uint256)"
      },
      {
        "astId": 6606,
        "contract": "src/bleeps/Bleeps.sol:Bleeps",
        "label": "_balances",
        "offset": 0,
        "slot": "1",
        "type": "t_mapping(t_address,t_uint256)"
      },
      {
        "astId": 6612,
        "contract": "src/bleeps/Bleeps.sol:Bleeps",
        "label": "_operatorsForAll",
        "offset": 0,
        "slot": "2",
        "type": "t_mapping(t_address,t_mapping(t_address,t_bool))"
      },
      {
        "astId": 6616,
        "contract": "src/bleeps/Bleeps.sol:Bleeps",
        "label": "_operators",
        "offset": 0,
        "slot": "3",
        "type": "t_mapping(t_uint256,t_address)"
      },
      {
        "astId": 7560,
        "contract": "src/bleeps/Bleeps.sol:Bleeps",
        "label": "_tokenNonces",
        "offset": 0,
        "slot": "4",
        "type": "t_mapping(t_uint256,t_uint256)"
      },
      {
        "astId": 7564,
        "contract": "src/bleeps/Bleeps.sol:Bleeps",
        "label": "_userNonces",
        "offset": 0,
        "slot": "5",
        "type": "t_mapping(t_address,t_uint256)"
      },
      {
        "astId": 7938,
        "contract": "src/bleeps/Bleeps.sol:Bleeps",
        "label": "_useCheckpoints",
        "offset": 0,
        "slot": "6",
        "type": "t_bool"
      },
      {
        "astId": 7947,
        "contract": "src/bleeps/Bleeps.sol:Bleeps",
        "label": "_delegates",
        "offset": 0,
        "slot": "7",
        "type": "t_mapping(t_address,t_address)"
      },
      {
        "astId": 7960,
        "contract": "src/bleeps/Bleeps.sol:Bleeps",
        "label": "checkpoints",
        "offset": 0,
        "slot": "8",
        "type": "t_mapping(t_address,t_mapping(t_uint32,t_struct(Checkpoint)7952_storage))"
      },
      {
        "astId": 7965,
        "contract": "src/bleeps/Bleeps.sol:Bleeps",
        "label": "numCheckpoints",
        "offset": 0,
        "slot": "9",
        "type": "t_mapping(t_address,t_uint32)"
      },
      {
        "astId": 11137,
        "contract": "src/bleeps/Bleeps.sol:Bleeps",
        "label": "owner",
        "offset": 0,
        "slot": "10",
        "type": "t_address"
      },
      {
        "astId": 11140,
        "contract": "src/bleeps/Bleeps.sol:Bleeps",
        "label": "tokenURIAdmin",
        "offset": 0,
        "slot": "11",
        "type": "t_address"
      },
      {
        "astId": 11143,
        "contract": "src/bleeps/Bleeps.sol:Bleeps",
        "label": "royaltyAdmin",
        "offset": 0,
        "slot": "12",
        "type": "t_address"
      },
      {
        "astId": 11146,
        "contract": "src/bleeps/Bleeps.sol:Bleeps",
        "label": "minterAdmin",
        "offset": 0,
        "slot": "13",
        "type": "t_address"
      },
      {
        "astId": 11149,
        "contract": "src/bleeps/Bleeps.sol:Bleeps",
        "label": "minter",
        "offset": 0,
        "slot": "14",
        "type": "t_address"
      },
      {
        "astId": 11152,
        "contract": "src/bleeps/Bleeps.sol:Bleeps",
        "label": "guardian",
        "offset": 0,
        "slot": "15",
        "type": "t_address"
      },
      {
        "astId": 9608,
        "contract": "src/bleeps/Bleeps.sol:Bleeps",
        "label": "tokenURIContract",
        "offset": 0,
        "slot": "16",
        "type": "t_contract(ITokenURI)12922"
      },
      {
        "astId": 9616,
        "contract": "src/bleeps/Bleeps.sol:Bleeps",
        "label": "_royalty",
        "offset": 0,
        "slot": "17",
        "type": "t_struct(Royalty)9613_storage"
      },
      {
        "astId": 9619,
        "contract": "src/bleeps/Bleeps.sol:Bleeps",
        "label": "checkpointingDisabler",
        "offset": 0,
        "slot": "18",
        "type": "t_address"
      }
    ],
    "types": {
      "t_address": {
        "encoding": "inplace",
        "label": "address",
        "numberOfBytes": "20"
      },
      "t_bool": {
        "encoding": "inplace",
        "label": "bool",
        "numberOfBytes": "1"
      },
      "t_contract(ITokenURI)12922": {
        "encoding": "inplace",
        "label": "contract ITokenURI",
        "numberOfBytes": "20"
      },
      "t_mapping(t_address,t_address)": {
        "encoding": "mapping",
        "key": "t_address",
        "label": "mapping(address => address)",
        "numberOfBytes": "32",
        "value": "t_address"
      },
      "t_mapping(t_address,t_bool)": {
        "encoding": "mapping",
        "key": "t_address",
        "label": "mapping(address => bool)",
        "numberOfBytes": "32",
        "value": "t_bool"
      },
      "t_mapping(t_address,t_mapping(t_address,t_bool))": {
        "encoding": "mapping",
        "key": "t_address",
        "label": "mapping(address => mapping(address => bool))",
        "numberOfBytes": "32",
        "value": "t_mapping(t_address,t_bool)"
      },
      "t_mapping(t_address,t_mapping(t_uint32,t_struct(Checkpoint)7952_storage))": {
        "encoding": "mapping",
        "key": "t_address",
        "label": "mapping(address => mapping(uint32 => struct ERC721Checkpointable.Checkpoint))",
        "numberOfBytes": "32",
        "value": "t_mapping(t_uint32,t_struct(Checkpoint)7952_storage)"
      },
      "t_mapping(t_address,t_uint256)": {
        "encoding": "mapping",
        "key": "t_address",
        "label": "mapping(address => uint256)",
        "numberOfBytes": "32",
        "value": "t_uint256"
      },
      "t_mapping(t_address,t_uint32)": {
        "encoding": "mapping",
        "key": "t_address",
        "label": "mapping(address => uint32)",
        "numberOfBytes": "32",
        "value": "t_uint32"
      },
      "t_mapping(t_uint256,t_address)": {
        "encoding": "mapping",
        "key": "t_uint256",
        "label": "mapping(uint256 => address)",
        "numberOfBytes": "32",
        "value": "t_address"
      },
      "t_mapping(t_uint256,t_uint256)": {
        "encoding": "mapping",
        "key": "t_uint256",
        "label": "mapping(uint256 => uint256)",
        "numberOfBytes": "32",
        "value": "t_uint256"
      },
      "t_mapping(t_uint32,t_struct(Checkpoint)7952_storage)": {
        "encoding": "mapping",
        "key": "t_uint32",
        "label": "mapping(uint32 => struct ERC721Checkpointable.Checkpoint)",
        "numberOfBytes": "32",
        "value": "t_struct(Checkpoint)7952_storage"
      },
      "t_struct(Checkpoint)7952_storage": {
        "encoding": "inplace",
        "label": "struct ERC721Checkpointable.Checkpoint",
        "members": [
          {
            "astId": 7949,
            "contract": "src/bleeps/Bleeps.sol:Bleeps",
            "label": "fromBlock",
            "offset": 0,
            "slot": "0",
            "type": "t_uint32"
          },
          {
            "astId": 7951,
            "contract": "src/bleeps/Bleeps.sol:Bleeps",
            "label": "votes",
            "offset": 4,
            "slot": "0",
            "type": "t_uint96"
          }
        ],
        "numberOfBytes": "32"
      },
      "t_struct(Royalty)9613_storage": {
        "encoding": "inplace",
        "label": "struct Bleeps.Royalty",
        "members": [
          {
            "astId": 9610,
            "contract": "src/bleeps/Bleeps.sol:Bleeps",
            "label": "receiver",
            "offset": 0,
            "slot": "0",
            "type": "t_address"
          },
          {
            "astId": 9612,
            "contract": "src/bleeps/Bleeps.sol:Bleeps",
            "label": "per10Thousands",
            "offset": 20,
            "slot": "0",
            "type": "t_uint96"
          }
        ],
        "numberOfBytes": "32"
      },
      "t_uint256": {
        "encoding": "inplace",
        "label": "uint256",
        "numberOfBytes": "32"
      },
      "t_uint32": {
        "encoding": "inplace",
        "label": "uint32",
        "numberOfBytes": "4"
      },
      "t_uint96": {
        "encoding": "inplace",
        "label": "uint96",
        "numberOfBytes": "12"
      }
    }
  }
}