{
  "address": "0x7471949FcCbe73c14837c7d759474904f30365CF",
  "abi": [
    {
      "inputs": [
        {
          "internalType": "contract Bleeps",
          "name": "bleeps",
          "type": "address"
        },
        {
          "internalType": "uint256",
          "name": "price",
          "type": "uint256"
        },
        {
          "internalType": "uint256",
          "name": "whitelistPrice",
          "type": "uint256"
        },
        {
          "internalType": "uint256",
          "name": "whitelistTimeLimit",
          "type": "uint256"
        },
        {
          "internalType": "bytes32",
          "name": "whitelistMerkleRoot",
          "type": "bytes32"
        },
        {
          "internalType": "address payable",
          "name": "projectCreator",
          "type": "address"
        },
        {
          "internalType": "uint256",
          "name": "creatorFeePer10000",
          "type": "uint256"
        },
        {
          "internalType": "address payable",
          "name": "saleRecipient",
          "type": "address"
        },
        {
          "internalType": "uint256",
          "name": "deploymentCostToPay",
          "type": "uint256"
        },
        {
          "internalType": "contract IERC721",
          "name": "mandalas",
          "type": "address"
        },
        {
          "internalType": "uint256",
          "name": "mandalasDiscountPercentage",
          "type": "uint256"
        },
        {
          "internalType": "uint256",
          "name": "uptoInstr",
          "type": "uint256"
        }
      ],
      "stateMutability": "nonpayable",
      "type": "constructor"
    },
    {
      "inputs": [
        {
          "internalType": "uint16",
          "name": "id",
          "type": "uint16"
        },
        {
          "internalType": "address",
          "name": "to",
          "type": "address"
        }
      ],
      "name": "creatorMint",
      "outputs": [],
      "stateMutability": "nonpayable",
      "type": "function"
    },
    {
      "inputs": [
        {
          "internalType": "uint16[]",
          "name": "ids",
          "type": "uint16[]"
        },
        {
          "internalType": "address",
          "name": "to",
          "type": "address"
        }
      ],
      "name": "creatorMultiMint",
      "outputs": [],
      "stateMutability": "nonpayable",
      "type": "function"
    },
    {
      "inputs": [
        {
          "internalType": "uint256",
          "name": "id",
          "type": "uint256"
        }
      ],
      "name": "isOpenForSale",
      "outputs": [
        {
          "internalType": "bool",
          "name": "",
          "type": "bool"
        }
      ],
      "stateMutability": "view",
      "type": "function"
    },
    {
      "inputs": [
        {
          "internalType": "uint256",
          "name": "passId",
          "type": "uint256"
        }
      ],
      "name": "isPassUsed",
      "outputs": [
        {
          "internalType": "bool",
          "name": "",
          "type": "bool"
        }
      ],
      "stateMutability": "view",
      "type": "function"
    },
    {
      "inputs": [
        {
          "internalType": "uint256",
          "name": "id",
          "type": "uint256"
        }
      ],
      "name": "isReserved",
      "outputs": [
        {
          "internalType": "bool",
          "name": "",
          "type": "bool"
        }
      ],
      "stateMutability": "pure",
      "type": "function"
    },
    {
      "inputs": [
        {
          "internalType": "uint16",
          "name": "id",
          "type": "uint16"
        },
        {
          "internalType": "address",
          "name": "to",
          "type": "address"
        }
      ],
      "name": "mint",
      "outputs": [],
      "stateMutability": "payable",
      "type": "function"
    },
    {
      "inputs": [
        {
          "internalType": "uint16",
          "name": "id",
          "type": "uint16"
        },
        {
          "internalType": "address",
          "name": "to",
          "type": "address"
        },
        {
          "internalType": "uint256",
          "name": "passId",
          "type": "uint256"
        },
        {
          "internalType": "bytes32[]",
          "name": "proof",
          "type": "bytes32[]"
        }
      ],
      "name": "mintWithPassId",
      "outputs": [],
      "stateMutability": "payable",
      "type": "function"
    },
    {
      "inputs": [
        {
          "internalType": "uint16",
          "name": "id",
          "type": "uint16"
        },
        {
          "internalType": "address",
          "name": "to",
          "type": "address"
        },
        {
          "internalType": "uint256",
          "name": "passId",
          "type": "uint256"
        },
        {
          "internalType": "bytes",
          "name": "signature",
          "type": "bytes"
        },
        {
          "internalType": "bytes32[]",
          "name": "proof",
          "type": "bytes32[]"
        }
      ],
      "name": "mintWithSalePass",
      "outputs": [],
      "stateMutability": "payable",
      "type": "function"
    },
    {
      "inputs": [
        {
          "internalType": "address",
          "name": "purchaser",
          "type": "address"
        },
        {
          "internalType": "uint256",
          "name": "passId",
          "type": "uint256"
        },
        {
          "internalType": "uint256[]",
          "name": "ids",
          "type": "uint256[]"
        }
      ],
      "name": "ownersAndPriceInfo",
      "outputs": [
        {
          "internalType": "address[]",
          "name": "addresses",
          "type": "address[]"
        },
        {
          "internalType": "uint256",
          "name": "price",
          "type": "uint256"
        },
        {
          "internalType": "uint256",
          "name": "whitelistPrice",
          "type": "uint256"
        },
        {
          "internalType": "uint256",
          "name": "whitelistTimeLimit",
          "type": "uint256"
        },
        {
          "internalType": "bytes32",
          "name": "whitelistMerkleRoot",
          "type": "bytes32"
        },
        {
          "internalType": "uint256",
          "name": "mandalasDiscountPercentage",
          "type": "uint256"
        },
        {
          "internalType": "bool",
          "name": "hasMandalas",
          "type": "bool"
        },
        {
          "internalType": "bool",
          "name": "passUsed",
          "type": "bool"
        },
        {
          "internalType": "uint256",
          "name": "uptoInstr",
          "type": "uint256"
        }
      ],
      "stateMutability": "view",
      "type": "function"
    },
    {
      "inputs": [
        {
          "internalType": "address",
          "name": "purchaser",
          "type": "address"
        }
      ],
      "name": "priceInfo",
      "outputs": [
        {
          "internalType": "uint256",
          "name": "price",
          "type": "uint256"
        },
        {
          "internalType": "uint256",
          "name": "whitelistPrice",
          "type": "uint256"
        },
        {
          "internalType": "uint256",
          "name": "whitelistTimeLimit",
          "type": "uint256"
        },
        {
          "internalType": "bytes32",
          "name": "whitelistMerkleRoot",
          "type": "bytes32"
        },
        {
          "internalType": "uint256",
          "name": "mandalasDiscountPercentage",
          "type": "uint256"
        },
        {
          "internalType": "bool",
          "name": "hasMandalas",
          "type": "bool"
        }
      ],
      "stateMutability": "view",
      "type": "function"
    }
  ],
  "transactionHash": "0x1dfa6f7e5ac90c0b3c29ad9b84cac4153e683478f581b50a0260c45547404556",
  "args": [
    "0x52AF1C006aD4A55aa448004f72923d7435827B7E",
    "100000000000000000",
    "100000000000000000",
    1637442415,
    "0xf09dbbfe9a45f0601cd17636f78cd503df560e80af1f3522603b5c6465265423",
    "0xE53cd71271AcAdbeb0f64d9c8C62bBdDc8cA9e66",
    2000,
    "0x30A6DE1B27E83ea524284AB9A3fC74d77e9CDbeA",
    "3500000000000000000",
    "0x434BADEA3943c5B3D86366Fa03c77201B6770A75",
    0,
    2
  ],
  "linkedData": {
    "leaves": [
      {
        "passId": "0",
        "signer": "0xc91C8A15939CaBb6AB66c3722915c25D0357eceA"
      },
      {
        "passId": "1",
        "signer": "0x48f4Ad33ec2deC2439eb89f077Af84B74a42cBe9"
      },
      {
        "passId": "2",
        "signer": "0xEeF3Cb65c15CcFF440Af7A39986d624b481c29c6"
      },
      {
        "passId": "3",
        "signer": "0x480B4883eF1B5877A0B83A8C89BA6e30D4798d13"
      },
      {
        "passId": "4",
        "signer": "0x348c74b2A1dAcdF156A44e87C21dd4e00606c626"
      },
      {
        "passId": "5",
        "signer": "0x773a1fb4E5DE93d73298fccAb777AC2370855eD4"
      },
      {
        "passId": "6",
        "signer": "0xf4A6B40E9aE916aaae06716eA9fC772aa9a57cE8"
      },
      {
        "passId": "7",
        "signer": "0x484d723c54F3AFa0C9B4fEefEB16B29488a22fdb"
      },
      {
        "passId": "8",
        "signer": "0xcC715CA9fb12a8f7d7fe30dD885932946619800d"
      },
      {
        "passId": "9",
        "signer": "0x79840b72C081dCfa2DB643b6DBb634E1D564c721"
      },
      {
        "passId": "10",
        "signer": "0x3e26eD99043bDB8E4d0672333290E4c550973a11"
      },
      {
        "passId": "11",
        "signer": "0xD0C2e5e6a2B43Fb348357E3C57D2175CdF9df5b9"
      },
      {
        "passId": "12",
        "signer": "0x0FaA02D23f1E28c21f801891415D3b3534d053da"
      },
      {
        "passId": "13",
        "signer": "0x75B48b5fADe098AA6947C53B0CEaBA3bEDbA4Fc0"
      },
      {
        "passId": "14",
        "signer": "0x697878b65cDD3de90c1716C0e50847044D889179"
      },
      {
        "passId": "15",
        "signer": "0x623284276AD92050416C86B3556bf094B88f8023"
      },
      {
        "passId": "16",
        "signer": "0xCc457de1681a41c071406AbC815a5e3D850ce052"
      },
      {
        "passId": "17",
        "signer": "0xFD1F7c90F563E2ef1Ce02055EB1c3d1E43E93887"
      },
      {
        "passId": "18",
        "signer": "0x1c735F850b0FA92bFE8b249992e23ed0d8B5f029"
      },
      {
        "passId": "19",
        "signer": "0x5e31Ff8b4A460F6A99517910bA4eE75f7c5A97e4"
      },
      {
        "passId": "20",
        "signer": "0x124623C633aBf985E5D5fED003a723376627EfdB"
      },
      {
        "passId": "21",
        "signer": "0xCd97e9bf95f3C046c4D1B4b30C684796de3f3D88"
      },
      {
        "passId": "22",
        "signer": "0x9496D8F230723E2bf587fd6dD417152330909fbA"
      },
      {
        "passId": "23",
        "signer": "0x9f29B4e31B2c9bE94D4E4B13658b30629fbb2e9D"
      },
      {
        "passId": "24",
        "signer": "0xde7cfA11e39111F742E3a57fef7cE3234AeFeFD4"
      },
      {
        "passId": "25",
        "signer": "0x870455223F024512F07B0f54292e100c37c4f382"
      },
      {
        "passId": "26",
        "signer": "0xAd6cD3d3483F2FFfb97667BC451047841bCF355c"
      },
      {
        "passId": "27",
        "signer": "0x2bbE0E91bFD8763F73586ceE845f1255e11174cC"
      },
      {
        "passId": "28",
        "signer": "0x8A2982BB6fa46D4908cA908E7A6a136D53cb5E71"
      },
      {
        "passId": "29",
        "signer": "0x6caF26550B3D5AD4906671b127B340213469cf85"
      },
      {
        "passId": "30",
        "signer": "0xBC4a3a311C82EE7e04377C58Aec81Be2a779c8D4"
      },
      {
        "passId": "31",
        "signer": "0x896De165f00a9843a2a19f9F82c29433b8dE4792"
      },
      {
        "passId": "32",
        "signer": "0x5FBB411ED71D2A51a95e013EDBd4AD7635e1CC27"
      },
      {
        "passId": "33",
        "signer": "0x0555fA5f99fc9FF32d8B5AD3348586e062FB8F99"
      },
      {
        "passId": "34",
        "signer": "0xce1bE85Bc8CEf951c0f0c8cb9Bb394D8D4778f8a"
      },
      {
        "passId": "35",
        "signer": "0x9669450c8C1699B0beDcC69716fecd0432651149"
      },
      {
        "passId": "36",
        "signer": "0xF532B3F3Ffaca0eE6c39f8f816F4E48413B889E0"
      },
      {
        "passId": "37",
        "signer": "0x9781A87De8d4a1F84380890202f69486fD3Ba644"
      },
      {
        "passId": "38",
        "signer": "0xC55848102d1090Bb32A8cAC59f469F38512e0561"
      },
      {
        "passId": "39",
        "signer": "0xf9b2f59E4a2C85D7746cdC4Bc93b3509D7221560"
      },
      {
        "passId": "40",
        "signer": "0x3CF15Aa7f4C5C6D9e6F0e81b04312130c90711CB"
      },
      {
        "passId": "41",
        "signer": "0xFEFfc419B7183C41153C9824B2fC485407d42EC8"
      },
      {
        "passId": "42",
        "signer": "0x208b4c983eFDa6acfb168515cBd5c4Ef2BE63173"
      },
      {
        "passId": "43",
        "signer": "0x38aB7B446Aa377a1FCeC45B4966BA2f1fB6bF9f2"
      },
      {
        "passId": "44",
        "signer": "0x0EB5339627c3F5766E5D01ECa450ab2139a48B96"
      },
      {
        "passId": "45",
        "signer": "0x41a13185918321D319B06213FD115aeB86750f25"
      },
      {
        "passId": "46",
        "signer": "0x0A0692e56B693cB9ab9543e9B3Ff638b1b26A8c7"
      },
      {
        "passId": "47",
        "signer": "0xa7B8Ed1B57037eB58981B3dcFD0EeA8052447815"
      },
      {
        "passId": "48",
        "signer": "0xe4AaC4FEA18F052a98d5875dc810731361e26c66"
      },
      {
        "passId": "49",
        "signer": "0x25959760120a77b26DEeB987cCA90b150286dB94"
      },
      {
        "passId": "50",
        "signer": "0xe2653a5aE704aF99a71Fe4B7ddD7cc4c1c071B4c"
      },
      {
        "passId": "51",
        "signer": "0x8EaC6C851E6AF381CF384F57AE5eC17128FE335D"
      },
      {
        "passId": "52",
        "signer": "0x2860EdAC954EC4e6AcfDEf9331c2533D3BB49f95"
      },
      {
        "passId": "53",
        "signer": "0x503Bdb6Da4f4B12A96b8CD7BA472A899FcD53317"
      },
      {
        "passId": "54",
        "signer": "0x5c82c7A1AEdF44f62D8764AEC8cA295d80D49c32"
      },
      {
        "passId": "55",
        "signer": "0x0382B1e617448cd07c30651A8BB8fa6Cd6B2b852"
      },
      {
        "passId": "56",
        "signer": "0xc7E3d2565abc6427bD05295EFac3010E4469cf57"
      },
      {
        "passId": "57",
        "signer": "0xa49C1b8d16b01275C085927855Bb40751D37CaFD"
      },
      {
        "passId": "58",
        "signer": "0xC366C1361922600E082E1DcB5f6A8f597FD6c41b"
      },
      {
        "passId": "59",
        "signer": "0xC675bBfDEB559efDf171a18180b221E26E272374"
      },
      {
        "passId": "60",
        "signer": "0x68Fe399C020F858f6739E7cfd22171BD41D445FC"
      },
      {
        "passId": "61",
        "signer": "0xCd3eF89b668B15D6535d7fDAd2e7cF73fe4D7B97"
      },
      {
        "passId": "62",
        "signer": "0xd47eC8FAD23cAa7857591C937D4658b9CF9D0A9b"
      },
      {
        "passId": "63",
        "signer": "0xE70B23EE9022ebe78B6E1c68F8cB6801C46d4bF6"
      },
      {
        "passId": "64",
        "signer": "0x37AFa5c44c49A850326dE2e640c5fb791DB755fE"
      },
      {
        "passId": "65",
        "signer": "0x80C53Ad8AC7A0171B4CBC344D8d25b740011b9CF"
      },
      {
        "passId": "66",
        "signer": "0xBe29E680dC270f61555CCE7743E2618Dc50AcCAa"
      },
      {
        "passId": "67",
        "signer": "0xBF1dDF3D8C02F4A641582cd7E6241f0Bd3eeB6b2"
      },
      {
        "passId": "68",
        "signer": "0x428AEA8ff3dF1101d8E2B89267e924C9e341D0B8"
      },
      {
        "passId": "69",
        "signer": "0x39e7E7800CA706fB103201c1A6648649227f68E7"
      },
      {
        "passId": "70",
        "signer": "0x1143B6ea9219666Bc90e45Ed574689fdE80AFD96"
      },
      {
        "passId": "71",
        "signer": "0xF37Cf913C76132166b1dB3078A49B3eD111FbcB1"
      },
      {
        "passId": "72",
        "signer": "0xe4812cDa9EFbB9C9ba339CDb47B19A69F2DE3e1A"
      },
      {
        "passId": "73",
        "signer": "0x241A792DDe10a39e9C04a4a26D1208D7a3091A73"
      },
      {
        "passId": "74",
        "signer": "0xFbfB8F99EC5b2A45f3887743B8AF43eC47eE8902"
      },
      {
        "passId": "75",
        "signer": "0x369291D759d4B9D407A57c5aa775A2380F5E8D86"
      },
      {
        "passId": "76",
        "signer": "0x61a694540144F7BD6369c27D423B46029e76a855"
      },
      {
        "passId": "77",
        "signer": "0x66726376C7D13D1a62b98686921cC1542366a23f"
      },
      {
        "passId": "78",
        "signer": "0x0533220F205edB0D3e22b215F04D173C6B1032b9"
      },
      {
        "passId": "79",
        "signer": "0x22598657bEFc47dEEBA1a54FB4A3850845Eeed30"
      },
      {
        "passId": "80",
        "signer": "0x28c386853269b3E8eD0207085ADC8204297b77c5"
      },
      {
        "passId": "81",
        "signer": "0x17Ccb24C419e1336c9f0f502291424D82da0c3e3"
      },
      {
        "passId": "82",
        "signer": "0x5F0Dd4373ed5590a9FD4389e8fa3E3B175b609ea"
      },
      {
        "passId": "83",
        "signer": "0x1Eb1df98d4C1C6E53D80C079065a7BAC7dBf1efF"
      },
      {
        "passId": "84",
        "signer": "0xE6029e729aAa1BA582A96D7A02df4a5387C4e5b1"
      },
      {
        "passId": "85",
        "signer": "0x06dfb1D943aEa383EB229D52Ff3d0918C0952bc5"
      },
      {
        "passId": "86",
        "signer": "0x5301Ff20C068ebC936b6B5747Ea5405FfB30eAe5"
      },
      {
        "passId": "87",
        "signer": "0xFf3cdDF720854e6Cdbbe3337248C6249d181Ecae"
      },
      {
        "passId": "88",
        "signer": "0xd0D64E9163EE37DAa81a3f80e2cE2c971B0F4df6"
      },
      {
        "passId": "89",
        "signer": "0xB25A13fb9A2a8C3E1606d56F3a061191fdD60563"
      },
      {
        "passId": "90",
        "signer": "0x7AE74A34f3214498E93cE40aA753919fA884aF26"
      },
      {
        "passId": "91",
        "signer": "0x0E7EB02B7cFe47cb5c95786e664a89dA7e1Cc916"
      },
      {
        "passId": "92",
        "signer": "0x05f915B14Ac919500fB506c6df50815CB26d5ff6"
      },
      {
        "passId": "93",
        "signer": "0x1ac8D2B00bC8B11c5654D6B2e120EFAFEA0F7E38"
      },
      {
        "passId": "94",
        "signer": "0x8895342851Fe4A74ccB104078C41EB818E859715"
      },
      {
        "passId": "95",
        "signer": "0x63258a86287FF9C9B15628F877C2159e36CF9CE6"
      },
      {
        "passId": "96",
        "signer": "0x4a837e8025549Fe7744Ec67FF45B8DBEb7B71BCC"
      },
      {
        "passId": "97",
        "signer": "0x65e84D473EB81665bb31A930157387CFad4Af3D0"
      },
      {
        "passId": "98",
        "signer": "0xc82C0d875d72BEFb9573280A099e696c5343Bd17"
      },
      {
        "passId": "99",
        "signer": "0xf5133a139a85913EC670B008Bde6693Bdc85815b"
      },
      {
        "passId": "100",
        "signer": "0x5f073924dF8c91BD467E6C2a133CD7831b912F4C"
      },
      {
        "passId": "101",
        "signer": "0x19eaa99EF3C85Cb67Ce49A796B8902DB99e54aBB"
      },
      {
        "passId": "102",
        "signer": "0x8F8F12bFeD7A7A07D3f53316685A2Ade666e942D"
      },
      {
        "passId": "103",
        "signer": "0x3917EBe51Dd1C6Ee6725f86D1583c0D30a1934a5"
      },
      {
        "passId": "104",
        "signer": "0x3E3cE6574EaaD10013e12d50C2613cdE7ef71035"
      },
      {
        "passId": "105",
        "signer": "0xE61c42D7D03f2103d8596cd6a0ff5f0fDC59197a"
      },
      {
        "passId": "106",
        "signer": "0x759300746e3D3d2aD10DECa0e2E7646AA892199F"
      },
      {
        "passId": "107",
        "signer": "0x01bBb094553c2e2db34A8124FB192a28969EB747"
      },
      {
        "passId": "108",
        "signer": "0xEF6d420969CB82eF9a5dd10DEaCD4f3D9A5b0e9d"
      },
      {
        "passId": "109",
        "signer": "0x36C65577DE43335dFa981c265e6e7D8A11438206"
      },
      {
        "passId": "110",
        "signer": "0x71973F1CaED1b473506701735F05F42aC7b28f83"
      },
      {
        "passId": "111",
        "signer": "0xE213118d14d50fC462F12200837EF1d78B309123"
      },
      {
        "passId": "112",
        "signer": "0xF44921420b37aFA164f4631F1C9FEA5264847188"
      },
      {
        "passId": "113",
        "signer": "0x993884F81aFe5AfE6166E7e2D34022546D4d4BDD"
      },
      {
        "passId": "114",
        "signer": "0xcd48e8D287dc029e83Df77364CED856f5bD32dF8"
      },
      {
        "passId": "115",
        "signer": "0xe15f906fb9E04b8De4bc577E068B6d9cb74Bd49A"
      },
      {
        "passId": "116",
        "signer": "0x2dB1e3df6443823E04f2Ad1995E2217901982B4b"
      },
      {
        "passId": "117",
        "signer": "0x0660202805D1Db5180Ae3A449439aA2208b9b3dC"
      },
      {
        "passId": "118",
        "signer": "0xF9eA48dCb57E934e113f1E39523Cd62996E9Fd70"
      },
      {
        "passId": "119",
        "signer": "0x78386CA7A1C98BeA112f587E8419490fC80B09e8"
      },
      {
        "passId": "120",
        "signer": "0x5A7Ba99307297d7e48f3f82A6d96cb6EAfC9F784"
      },
      {
        "passId": "121",
        "signer": "0x14A0C75D9bDF9f7FB532Fe7BE47d55F774Ef9Aab"
      },
      {
        "passId": "122",
        "signer": "0xF6b79D31565EA385FBbD4AC144FdDfa872ae1009"
      },
      {
        "passId": "123",
        "signer": "0xb2c8627AB756D339F83F116a470570961A03Adba"
      },
      {
        "passId": "124",
        "signer": "0x86c30E8501605c1b7199B2448E1D7a6426Eb7dB5"
      },
      {
        "passId": "125",
        "signer": "0xE58911ABa5Bb7e3eE09C6AA7DFAC09529205Cc59"
      },
      {
        "passId": "126",
        "signer": "0x9e3b7C7d3b8509fe2b7b47a1B1BD6ED6088fe8d6"
      },
      {
        "passId": "127",
        "signer": "0xc968E1a0993f019de4473ED2F7f35b46F3eb3610"
      },
      {
        "passId": "128",
        "signer": "0x5bA532a9b2c66EC7C67b3Cf2b2231d87e04074c6"
      },
      {
        "passId": "129",
        "signer": "0x8CA46A6Ca6cFA5cdB9838Fa064355255F7A012a7"
      },
      {
        "passId": "130",
        "signer": "0x879073Fa78B7CE0143b4D8D11c11353dBc7142Ff"
      },
      {
        "passId": "131",
        "signer": "0x56f94f1A87b1dD8368429Dd906700a6C0A826bEC"
      },
      {
        "passId": "132",
        "signer": "0x4d508E2BF3cF719A1f197Ee54B31aa4Db5A3D59D"
      },
      {
        "passId": "133",
        "signer": "0x53b5CA1c795c132c26846A207Ff422ee8807328f"
      },
      {
        "passId": "134",
        "signer": "0x000BE28c442a1b4cA22eDD76C267e7f676941d6d"
      },
      {
        "passId": "135",
        "signer": "0x3c8A21B584252Db95d3f7e15E39Cadf33BD73Fe3"
      },
      {
        "passId": "136",
        "signer": "0x6BE817c48E059C9A823938E3027628DA2cC26B91"
      },
      {
        "passId": "137",
        "signer": "0x01d1089F2A7F2947D94D242cf8bdf5d396222191"
      },
      {
        "passId": "138",
        "signer": "0x4bcbf8c66e1C60EBA62c69A362dbBEc16473A41b"
      },
      {
        "passId": "139",
        "signer": "0x38967D78eE9A0976FF8768F6b55e76E919f85bB3"
      },
      {
        "passId": "140",
        "signer": "0x0C2f9603E69D8FC0445C260eF0287254A09D8c3c"
      },
      {
        "passId": "141",
        "signer": "0x668D93a40c922025092bC1F83c7A7fE73644c4EE"
      },
      {
        "passId": "142",
        "signer": "0xF4a4Cc17820de4e8b21f0CcE02c6F726699dB3Fe"
      },
      {
        "passId": "143",
        "signer": "0xF393309A5eb49335B89Fe46f2E7166C44e6F0C6d"
      },
      {
        "passId": "144",
        "signer": "0xE11f847fC6C576fEe3ecBd4a78e3DC5F4e9918a8"
      },
      {
        "passId": "145",
        "signer": "0x429AF67C725b11721F243c773606E73A9A8F26f8"
      },
      {
        "passId": "146",
        "signer": "0x8a252E4c81417c79d4d1294fe80012eF392D8d4e"
      },
      {
        "passId": "147",
        "signer": "0xde18fE97651479263346320f601B548C47f20cE2"
      },
      {
        "passId": "148",
        "signer": "0xF44399bCA016AEf4fe216F57414f6Af41583F1b7"
      },
      {
        "passId": "149",
        "signer": "0x646703Ce480F5FE4cB599282640B3F1b947D4115"
      },
      {
        "passId": "150",
        "signer": "0xF5E5418bb300FeeA3611c4C65e678327e670CfAe"
      },
      {
        "passId": "151",
        "signer": "0xCEE10125F30f7A1eb68eBcFD7FF98fb3359d8e14"
      },
      {
        "passId": "152",
        "signer": "0xe5489805a0A93FDd73FF1e70a19A5d8Ac3604f04"
      },
      {
        "passId": "153",
        "signer": "0xd0366543e2C9b9339f884f9AaAdcC8EA695d4f8F"
      },
      {
        "passId": "154",
        "signer": "0x9Eac9939AB0402c790B6B627Da4EE931598C2d29"
      },
      {
        "passId": "155",
        "signer": "0x5426FaaEfC874DfBD8154Cd8eB63cF7Eb0E7C877"
      },
      {
        "passId": "156",
        "signer": "0x4AFA6752282b746268FE7932d97abC87d9a949FA"
      },
      {
        "passId": "157",
        "signer": "0x70ed747b330cEAd5bE9556255Ef8B5D0bA32a5b5"
      },
      {
        "passId": "158",
        "signer": "0xEeB8fEc5a5E975138d2990D788C0fF2385F145Ac"
      },
      {
        "passId": "159",
        "signer": "0xA0e128589A40cBa64df8A635794812b3830C135C"
      },
      {
        "passId": "160",
        "signer": "0x0a05978a5E25B0dDF5fC7A97dAbD2fdCe7aF255c"
      },
      {
        "passId": "161",
        "signer": "0x4A7FcdDE05403DaC143cE2A09cB2CAf41aE67EbA"
      },
      {
        "passId": "162",
        "signer": "0xc43208fF990856D3fb8Cb3b047F098064b1239eE"
      },
      {
        "passId": "163",
        "signer": "0xa544a717c4E12A2fDc3e48519e702Db20190ef45"
      },
      {
        "passId": "164",
        "signer": "0x697Cc81964fb0c0a0566c98aBA47BC8a862eD1d5"
      },
      {
        "passId": "165",
        "signer": "0x0D64D1bD5505Cf97543287cb65Aa1944D6801dEE"
      },
      {
        "passId": "166",
        "signer": "0x484c76Da86a53605D2D3ad5C132e1296A2C43067"
      },
      {
        "passId": "167",
        "signer": "0xFFE42618c45e25549428B80623A388B9Ee65f514"
      },
      {
        "passId": "168",
        "signer": "0x78816A1dAC7295023BEe6134B0881B465eDa170e"
      },
      {
        "passId": "169",
        "signer": "0xFD70d45fFA93D5718A98615388bA8035388d2821"
      },
      {
        "passId": "170",
        "signer": "0x342aBdF2E798eA5875dC814C05E5ADa8ecB02874"
      },
      {
        "passId": "171",
        "signer": "0x6D18b2Ee82Bbd6A4258b06014Baefc3DbAe15856"
      },
      {
        "passId": "172",
        "signer": "0xf18ce7ef82d818054B7Df1a2878E9EFfe2d1A49a"
      },
      {
        "passId": "173",
        "signer": "0xBaC8bF33AAa532EF4a17054Cd77019158E910d48"
      },
      {
        "passId": "174",
        "signer": "0x7ef652174C3f8B0D05F8cECa7298dB6926830832"
      },
      {
        "passId": "175",
        "signer": "0xe1DC5Dd53D3A7EC9F813447D92b66EfbB582ae26"
      },
      {
        "passId": "176",
        "signer": "0x13586ceDEAb6feAdcc8B38cef6afc8D07B7AFA53"
      },
      {
        "passId": "177",
        "signer": "0xEe19577e744E0ac3000510a7668bf68EdBFb8ea8"
      },
      {
        "passId": "178",
        "signer": "0x0Ba07929E9A0e36535170579cE6D2FaeF74147De"
      },
      {
        "passId": "179",
        "signer": "0xaded5C955dA96d52E67E8d2d43D58Fd8C558c2F2"
      },
      {
        "passId": "180",
        "signer": "0xbB9ADaaef05fe9b8809f3C789f7A4731B1b95e28"
      },
      {
        "passId": "181",
        "signer": "0x848b1F649454a795D460005236C87A4E6C549901"
      },
      {
        "passId": "182",
        "signer": "0x396FAf84F3E93fa5C37b9d9AA23DC73a1cF2Bf68"
      },
      {
        "passId": "183",
        "signer": "0x8b738795169fbbf1a9325B533Aaf1B18126DFe19"
      },
      {
        "passId": "184",
        "signer": "0xFb4782d94c71396dD52B4FAE00007e8BbD4f927A"
      },
      {
        "passId": "185",
        "signer": "0x2C43F30c348AA4f82049ceb62A8A3100a7eF5b2C"
      },
      {
        "passId": "186",
        "signer": "0xFbA27Aee89aF8BEA72bd93484a72aFdf455DC0cD"
      },
      {
        "passId": "187",
        "signer": "0xeCB3871fbF46B072B99ee9e4cbF689ecDC3ffE67"
      },
      {
        "passId": "188",
        "signer": "0x466806D359702192dac6Ee74E523C3745FFE54d9"
      },
      {
        "passId": "189",
        "signer": "0xeA54aA63C654b8720c48B36415524aB91f8eA973"
      },
      {
        "passId": "190",
        "signer": "0x695FD2016717062e72F57E2529274D8Aca59B692"
      },
      {
        "passId": "191",
        "signer": "0x1645374c0F6a812f39Cb6E469AD2D5FEF2eb11F9"
      },
      {
        "passId": "192",
        "signer": "0x96Ac9FFCb057062c1e70f08b43A8428461f446A3"
      },
      {
        "passId": "193",
        "signer": "0xf5FBe05f975023aD7458a490Bbd6D7FE992C1f2F"
      },
      {
        "passId": "194",
        "signer": "0x38a8894c9A8C742Ae8D1A7E9Ed71bF3A515c09bC"
      },
      {
        "passId": "195",
        "signer": "0x8F09d88C9f32cf160BfF76bA95eD2b2B89D028B1"
      },
      {
        "passId": "196",
        "signer": "0x920c9492Eff57F75eAE2B2D1e949E28B1Aa4E027"
      },
      {
        "passId": "197",
        "signer": "0x908f0Adf6886b7e0Ebc07e7934719b556342572F"
      },
      {
        "passId": "198",
        "signer": "0xe87ee38564943b0435E0a3022803C3C3fBaa81c9"
      },
      {
        "passId": "199",
        "signer": "0xeb3Fe5ac998965c1bD5fcCA8F9EE59F6E119db4B"
      },
      {
        "passId": "200",
        "signer": "0x7CF1ac56910b13148556699385765591c843Df38"
      },
      {
        "passId": "201",
        "signer": "0x1A378f44Ba4d5130110435C4d9953C6766cbaE17"
      },
      {
        "passId": "202",
        "signer": "0xf9E1B248280e400ECd278133B6e95D99dc3B5a62"
      },
      {
        "passId": "203",
        "signer": "0x091c75468FdEa398dfAF281b5B6E0e23ddd29225"
      },
      {
        "passId": "204",
        "signer": "0x2DB580D4ff128cF2f00E77924F2720aAFF56f3E4"
      },
      {
        "passId": "205",
        "signer": "0xaBF9bdD59Fa1DB28d4A359F0bB8aDe720FCA14B9"
      },
      {
        "passId": "206",
        "signer": "0x85b3867888e48412Cf836987992ecFe9Ee0Ed8Ec"
      },
      {
        "passId": "207",
        "signer": "0x91D4BFeCd09C6F4C33fEaF94d92b29ae386D744e"
      },
      {
        "passId": "208",
        "signer": "0xFb5ba7ec9FB78095626b0e00004845A20618397e"
      },
      {
        "passId": "209",
        "signer": "0x546277a571a284Df81bC9DA8beD1a2DAd2b166aE"
      },
      {
        "passId": "210",
        "signer": "0x1b703565C22e5021Ae6Cc5dC74267B345853dc1B"
      },
      {
        "passId": "211",
        "signer": "0xCFB0c57C0B2D8cb2788c5707f5695362b5Eb4910"
      },
      {
        "passId": "212",
        "signer": "0xe9a5396960FcCDBFeD1BFd118e25c7f218A4bc6B"
      },
      {
        "passId": "213",
        "signer": "0xF7aa973Ff63A853e9b616BF23Cf72256C0cBFD59"
      },
      {
        "passId": "214",
        "signer": "0xceFFAE3d4608D2824F0465edB5fA031453Bf3f24"
      },
      {
        "passId": "215",
        "signer": "0x5508ABfF989d5fE92C67c732d9b05381B6D23Ca3"
      },
      {
        "passId": "216",
        "signer": "0x5FA9019811512A417C8Fea7F847f3213dB65fB17"
      },
      {
        "passId": "217",
        "signer": "0x622DB637742A3B72F8928927329d028554ABd97b"
      },
      {
        "passId": "218",
        "signer": "0x907FEd4dC940284980502fe38e9637aAA7B3653a"
      },
      {
        "passId": "219",
        "signer": "0x9746AA451B5Bb3b11398AC5a05B93095eF1E2231"
      },
      {
        "passId": "220",
        "signer": "0xDDc4fB57e06793F848Fd843d3450130Db0cbE10d"
      },
      {
        "passId": "221",
        "signer": "0x7d316AF1b3B6E8654293983c27659CEa690b0433"
      },
      {
        "passId": "222",
        "signer": "0xe7f081C3E290b1D220e3Fb93592835dC4F78A547"
      },
      {
        "passId": "223",
        "signer": "0x3883954Fc35C80B6914BA03e04de9445eC019Ae3"
      },
      {
        "passId": "224",
        "signer": "0x6bDf38CDA02eeEfc73Db07bd32f98b7DDd8E91f2"
      },
      {
        "passId": "225",
        "signer": "0x1F84E2C89e78679f9809829df6Eb1594c0bD0c64"
      },
      {
        "passId": "226",
        "signer": "0xBF9560be8220ae12aBd31CFf931Aca696D783Ca6"
      },
      {
        "passId": "227",
        "signer": "0x36D6f5DBB769AfC8F43F364bBA44FBba7BeBd386"
      },
      {
        "passId": "228",
        "signer": "0x119056db07375335973c39ABd6346DeEA14354b1"
      },
      {
        "passId": "229",
        "signer": "0x35a38b401F0219CBb7BbFB00042B9a3A3EAb0c2f"
      },
      {
        "passId": "230",
        "signer": "0x68CE7f2C1c6cA3F97AC6a927CfB95631371b44e3"
      },
      {
        "passId": "231",
        "signer": "0x87074321c35018573E16c1CEa68BB152be643522"
      },
      {
        "passId": "232",
        "signer": "0x5dCAF549851EbbC725E42C8fd6BAaDE7F21e6640"
      },
      {
        "passId": "233",
        "signer": "0xb71635f925073F77a59894595B8d2b5daD58E06E"
      },
      {
        "passId": "234",
        "signer": "0x8Ce5A435c97af7AeAca9A807B7449456C370a036"
      },
      {
        "passId": "235",
        "signer": "0x5A018366f072A256F2d432CC61C366d8De7ac51b"
      },
      {
        "passId": "236",
        "signer": "0x8b0d7FF6e0f9b34A7fd4c4670B8226e6ca9FBA02"
      },
      {
        "passId": "237",
        "signer": "0xc76e24d54B28c272f7965a169c6064Ca535231BE"
      },
      {
        "passId": "238",
        "signer": "0x5A909ea65d39029D3dccA23a32490f48f2cF8136"
      },
      {
        "passId": "239",
        "signer": "0xaa4dED9975e5142B9D03f7C40CbBb71f4a12FE3a"
      },
      {
        "passId": "240",
        "signer": "0xc2820E63447BDe761304f42C96859DE3C25AEe94"
      },
      {
        "passId": "241",
        "signer": "0x93F9A37DF08c770B2AAc1698BF3bf82acb259cCe"
      },
      {
        "passId": "242",
        "signer": "0xb276f7Ca7d32f17E7728F39A2cA63Ed54d6235F6"
      },
      {
        "passId": "243",
        "signer": "0x4FD36EAA7BF6C41dF2a833B498eB4468CF66bd13"
      },
      {
        "passId": "244",
        "signer": "0xfA877B593AEA81B92330bA3c537Ef0705801f895"
      },
      {
        "passId": "245",
        "signer": "0x310cF334E53e5569e3363B4F9561F213c229b36A"
      },
      {
        "passId": "246",
        "signer": "0xff024B9c3520Df78c69EC4e88062ae597827C8B1"
      },
      {
        "passId": "247",
        "signer": "0x14eD8e0F25FC3d95640AdE41dE3bA92A6B6a42Cd"
      },
      {
        "passId": "248",
        "signer": "0x7A730D60CA2F399A7b9952C831309091d48B8567"
      },
      {
        "passId": "249",
        "signer": "0xc271bbc7f24926fEBb2F325956973CB28d1D8BdC"
      },
      {
        "passId": "250",
        "signer": "0xF62743c96f83B054f1ffce9127fF92b760FDc332"
      },
      {
        "passId": "251",
        "signer": "0x6a6A7424b5d5A55e7bE3ee161f4709663ba7bA6D"
      },
      {
        "passId": "252",
        "signer": "0x0b9ceBBE66D6CAfB89B0471e7337d70Ab9C2BB28"
      },
      {
        "passId": "253",
        "signer": "0xcF56B7d5EDF7193242a3ba7cC958C0626fcC60A4"
      },
      {
        "passId": "254",
        "signer": "0x8E63Af873787689806fbB0bd95DeBfaEf3BDDDB0"
      },
      {
        "passId": "255",
        "signer": "0xD7BEE6E4C1DA5c8040A9CDC917c33bD9e32b8b46"
      },
      {
        "passId": "256",
        "signer": "0x9286FA48223DeF1457D00De87b2a86a2A94fd721"
      },
      {
        "passId": "257",
        "signer": "0x7cD38B47c704F2b77c500d99E83eF4b851aA1563"
      },
      {
        "passId": "258",
        "signer": "0x7CefBB8F5a601a395DA0Ca589d430D30Dd9a2322"
      },
      {
        "passId": "259",
        "signer": "0x76217943C22445A181e3ACF77900Fe4194494E18"
      },
      {
        "passId": "260",
        "signer": "0x1489CE7D9297B89AA41381D85a2fa2537A356620"
      },
      {
        "passId": "261",
        "signer": "0x747F81b08BEaaC7d0ae225875f8d8B4436930f71"
      },
      {
        "passId": "262",
        "signer": "0x82EBCA47bDa6377959bf201AB300907456a1336b"
      },
      {
        "passId": "263",
        "signer": "0x5D68BC1A60af863939Ea0440d36B447faAE50a9C"
      },
      {
        "passId": "264",
        "signer": "0x4EC1E29Edeaf635401cc1B6675475bb227732D0e"
      },
      {
        "passId": "265",
        "signer": "0x0492022C6498AB4e0910f661C70D4ff393437C9F"
      },
      {
        "passId": "266",
        "signer": "0xc3D9F20504f7213B4504a891C1c14e7256f245b1"
      },
      {
        "passId": "267",
        "signer": "0x586F7F0ca2E56d8c07aF3D344534c138a9919F4e"
      },
      {
        "passId": "268",
        "signer": "0x2D4d67Fc0FA3F218392808B8fcAd39303a719e8F"
      },
      {
        "passId": "269",
        "signer": "0x055856B9F5A077bFe60D204CEEa0C4C008047575"
      },
      {
        "passId": "270",
        "signer": "0x3d58E134557DAa57AB8De3FC21d744e13e978F10"
      },
      {
        "passId": "271",
        "signer": "0x00A32267748B1E0e5B849a2EFEbaD11874B8b23E"
      },
      {
        "passId": "272",
        "signer": "0xCC4cDACC6277E2622a1B84C7F4e1eb0b7EcD799A"
      },
      {
        "passId": "273",
        "signer": "0xcC30f59DF5Ff5c37F9deCbe5215ce1Ff85E59D46"
      },
      {
        "passId": "274",
        "signer": "0x8aE6dd3b8a739B57b2bb36b564679E85f8b2313e"
      },
      {
        "passId": "275",
        "signer": "0xCE9FCAe06551F9D34bB7AD4C1D63AdFA6b151e20"
      },
      {
        "passId": "276",
        "signer": "0x2d425c7594CFd864111aD150b1536148CAfd7AA4"
      },
      {
        "passId": "277",
        "signer": "0x0A5DC2F8DF59c671169AdB16AEe54582ffb2757a"
      },
      {
        "passId": "278",
        "signer": "0x7a106Dd27B0B6D3c0365E4cEFeD4aD51fD015D22"
      },
      {
        "passId": "279",
        "signer": "0x5a1dbA6a794Fb8c48DeaFcdA3A50913Da2381071"
      },
      {
        "passId": "280",
        "signer": "0x0F08183a7b7bbFA76C7833b3c8D62e29C3AC7aA2"
      },
      {
        "passId": "281",
        "signer": "0xe81F3D4F65c2EF1EE168ea3A3F8b356c2C79E435"
      },
      {
        "passId": "282",
        "signer": "0x364A153DcD83C4B13DA3697276506D5636f581d7"
      },
      {
        "passId": "283",
        "signer": "0x9aB686cda06C19e5efd7B13A8F88eC288619584a"
      },
      {
        "passId": "284",
        "signer": "0x14629be8DbAf9A0858823097523BB3AEbFfc9383"
      },
      {
        "passId": "285",
        "signer": "0x31deD79859C6dADAED225C4E965080705D53a02b"
      },
      {
        "passId": "286",
        "signer": "0x0Eb8bE0946F0618917ddD3D7aa7a9c5A2D06FD8d"
      },
      {
        "passId": "287",
        "signer": "0x7267c90E19fb057d33Ab401b4f7710e3DE9E4B96"
      },
      {
        "passId": "288",
        "signer": "0x025Fc779471cea08495719D36DC9Ef70e34A0B10"
      },
      {
        "passId": "289",
        "signer": "0x3a489e81df7368A5bF8CA20873F73Cfc11011188"
      },
      {
        "passId": "290",
        "signer": "0x7290C82A5876F2cD4A83ba163b482d9d19178d61"
      },
      {
        "passId": "291",
        "signer": "0x5F7A5D74404AB950Cc0C20808a144b34aFD44f6c"
      },
      {
        "passId": "292",
        "signer": "0xeaA9b99EC6f24230AB7D29A0fc7AD56bFA2A4EFC"
      },
      {
        "passId": "293",
        "signer": "0xdbAFd713bdf8Ee00f1514e2Cffa26cB5B07fcAb8"
      },
      {
        "passId": "294",
        "signer": "0x57781f6a659009Fa59eDe13F0aF89Cd03877e5a8"
      },
      {
        "passId": "295",
        "signer": "0x997aB4B9B29Bfd257e86B371Af6A8dBBcC51434F"
      },
      {
        "passId": "296",
        "signer": "0xf1a176311b623A71B7B0C22734fF2C346FcA9DF9"
      },
      {
        "passId": "297",
        "signer": "0x58EC7C4A90171F7eba1fEE0614c367f7e4e83fe1"
      },
      {
        "passId": "298",
        "signer": "0xF28Bfe5ad93e976876E58EA92fa46E62c166f4c0"
      },
      {
        "passId": "299",
        "signer": "0x35e6A1Ff0Cf69eb9e7fBd7426fc9aE4F4EE7AC4E"
      },
      {
        "passId": "300",
        "signer": "0xD5FB10423E05Ee6200d0A418DDd009Be1e35ef28"
      },
      {
        "passId": "301",
        "signer": "0x6340b57325Eb007d7FeFD28A8C8F2be720742bCA"
      },
      {
        "passId": "302",
        "signer": "0xB8CC4841D3c011066d3856b5c309581D5e43B2bb"
      },
      {
        "passId": "303",
        "signer": "0x91a4436AE6ebf2e2C7F0F3C0841e67B922e16540"
      },
      {
        "passId": "304",
        "signer": "0x5CFdec77A7f176676C9Dd2530EC5607C31d331dF"
      },
      {
        "passId": "305",
        "signer": "0x97Acb351995F3DC27BD02Ac9d11C74d260294404"
      },
      {
        "passId": "306",
        "signer": "0x0D5Eb97EC2D238462133a65992DbcBC7E6c7F4Ec"
      },
      {
        "passId": "307",
        "signer": "0x3db5E7bDD07a0f4778004ABc39b468286f473979"
      },
      {
        "passId": "308",
        "signer": "0x6F5da54a318F6A5bE0D184FFfCb5cc543b3939cD"
      },
      {
        "passId": "309",
        "signer": "0xC52711F3C2A1A3b7991F4D67AB594706Fca800Ac"
      },
      {
        "passId": "310",
        "signer": "0xD94635C1B4577e89019634768cB1B17186c6845A"
      },
      {
        "passId": "311",
        "signer": "0xdA3b74019d118816CF347584581069e6CF0c3D41"
      },
      {
        "passId": "312",
        "signer": "0x03f58Df11e161986FC29D9532190d697960357f6"
      },
      {
        "passId": "313",
        "signer": "0xF30F128B90ac06B1bbe83CC06eBb8cB78485F277"
      },
      {
        "passId": "314",
        "signer": "0x4F7c1C854b5f68b0D4B9966bB965836D4051DdEC"
      },
      {
        "passId": "315",
        "signer": "0xc1be57834A35D659E518B245d4ace5012Bbf7c90"
      },
      {
        "passId": "316",
        "signer": "0x81555D56D07D3885C55C115b690F7B1F10267D98"
      },
      {
        "passId": "317",
        "signer": "0x38140F41e4Ced87327BFec81EA399517f1Ebf32C"
      },
      {
        "passId": "318",
        "signer": "0x84AfA7C2d19ddC2f7575886DfABD9981bDD8f644"
      },
      {
        "passId": "319",
        "signer": "0x02Aedae6ADaE353466079e02966647574e992b32"
      },
      {
        "passId": "320",
        "signer": "0x2326C488786A67d5e64e0D2fb181Ce24cf2a61B1"
      },
      {
        "passId": "321",
        "signer": "0xdE80b2b6366d3331Cf34DBcE4a1F3B973Eb0C7c3"
      },
      {
        "passId": "322",
        "signer": "0x0a5a7a45930499D6d71Fdfe5a785CCaA0874C665"
      },
      {
        "passId": "323",
        "signer": "0xbF4Ac3E2CF8f4996D40E064e77CCda860684Bf55"
      },
      {
        "passId": "324",
        "signer": "0x191B64a0432719C3817b7db63e62481C59138C9f"
      },
      {
        "passId": "325",
        "signer": "0x506782dc5A9190EA06233B3D348C21310c280118"
      },
      {
        "passId": "326",
        "signer": "0xdaCbDE04a1432ee9B13E2CEde96871f6402DB5DB"
      },
      {
        "passId": "327",
        "signer": "0x15ef0ED16765E0B4b7f287a7d344d4E55b795b65"
      },
      {
        "passId": "328",
        "signer": "0x2c8B1A81Cef161A9ccB05F80632baf9722192EC3"
      },
      {
        "passId": "329",
        "signer": "0xA3A3F2416Bfe30895906a50219e76a1230f05686"
      },
      {
        "passId": "330",
        "signer": "0x75247328cbd9fAdD4aC869ae70992c29B54a3381"
      },
      {
        "passId": "331",
        "signer": "0xF52E48729B0bf0091BF9055450FcDAA061AbCb9e"
      },
      {
        "passId": "332",
        "signer": "0xa3B5dd399046A0784Af80b169F0ceeEc3FE6C13F"
      },
      {
        "passId": "333",
        "signer": "0x6B64135A9450Ca1e8E5965BEFe98334C7C5d7B71"
      },
      {
        "passId": "334",
        "signer": "0x40dE17195cb800DB4C7097db1d467bB946B2e320"
      },
      {
        "passId": "335",
        "signer": "0xbba04337e084a5A5262f0dE8D973a9D79ca9844D"
      },
      {
        "passId": "336",
        "signer": "0xDabbAb417070C62241e5f236b266a3976097F780"
      },
      {
        "passId": "337",
        "signer": "0xf890e1d49044DBC5E420505d81a43f535a17E179"
      },
      {
        "passId": "338",
        "signer": "0x06C00AF37A7Cccd2b0C9d7Cd162DEcbC92365983"
      },
      {
        "passId": "339",
        "signer": "0xabAb705B9CAa8133103B7009A974f8EFc5A0264d"
      },
      {
        "passId": "340",
        "signer": "0x4443F7d3E03C0697B7Fa2254806faCF7a7154587"
      },
      {
        "passId": "341",
        "signer": "0xE7dDf90b17BC8251f077E2fE7C20E824f0BA263B"
      },
      {
        "passId": "342",
        "signer": "0xfAA777174e17B03C3ebdA0CbB1E436B7C86b2b6A"
      },
      {
        "passId": "343",
        "signer": "0x40CEAEAbD0BeaB899D70FF013Fe2699dcB33E7A7"
      },
      {
        "passId": "344",
        "signer": "0xd955F17B91F1504176e6763F161954154FB862F7"
      },
      {
        "passId": "345",
        "signer": "0xDB257810076f7c25e547CA9B023ED109c520Cefb"
      },
      {
        "passId": "346",
        "signer": "0xadFCFaf0895A9949EdDDB941ab3A03e20c7A8C19"
      },
      {
        "passId": "347",
        "signer": "0x52d17fE2dF680ec80D6837aB3dF23B72c6CaD30f"
      },
      {
        "passId": "348",
        "signer": "0xabA87b5Fd8a8FbDE1aF73f182e0cad016984Eee6"
      },
      {
        "passId": "349",
        "signer": "0xE295AeccE68271B891C5cF6fbA75BFA9E5D65651"
      },
      {
        "passId": "350",
        "signer": "0xeedD7F27C3595a1Da6e4859Bf1eAce246B7d933f"
      },
      {
        "passId": "351",
        "signer": "0xa06fDa4c582563d4996A6a3fd8fc06fDAFb84d65"
      },
      {
        "passId": "352",
        "signer": "0x46Aee377a1A0954aea50a9381137DbAb96deE10b"
      },
      {
        "passId": "353",
        "signer": "0xF4715C58Dd949974C59909a63487fdbE0B4Cf0A4"
      },
      {
        "passId": "354",
        "signer": "0x7Aa07CE90A9E3bdf2186a178E5939960c212Ee4F"
      },
      {
        "passId": "355",
        "signer": "0xff461711524272F50ae549085df6a28a1C52C17f"
      },
      {
        "passId": "356",
        "signer": "0x05BFB4aaf5A4b7d3bC9d5d374151eFc8921D7261"
      },
      {
        "passId": "357",
        "signer": "0x0075d3090C33e138a3146A831939bBc2d5875a2D"
      },
      {
        "passId": "358",
        "signer": "0x48270FFAd026eFb152f72ec6f49E00aAc3933812"
      },
      {
        "passId": "359",
        "signer": "0xBc3743767d6a30439DbE6DC34AC355D42C10D3B3"
      },
      {
        "passId": "360",
        "signer": "0x98Aeae5cA7ad5D316521c81cC0cA5e93C0FCB599"
      },
      {
        "passId": "361",
        "signer": "0x946bd400f65e3Af1936738c2593Cce0C9743f163"
      },
      {
        "passId": "362",
        "signer": "0xc98e6692F6821cA24e907d96FdE095f74Caf1873"
      },
      {
        "passId": "363",
        "signer": "0x92e2aC0f68E0eB0FFB27684347898eF8140de558"
      },
      {
        "passId": "364",
        "signer": "0x06Cea72A5E4114eF4BC4A9F5aFb0E31a6d338899"
      },
      {
        "passId": "365",
        "signer": "0xda570582075Deb3A6308a7b2c17F2a6F5D688D60"
      },
      {
        "passId": "366",
        "signer": "0x3769A584c2A65e93ce988e8D6a4710B9a2249b0A"
      },
      {
        "passId": "367",
        "signer": "0x94Db3862A5Db2bB78d42Ae171CB214B3a36DF476"
      },
      {
        "passId": "368",
        "signer": "0xAe618F08cB80A1e000be2700DCaEDF9b70Db94ac"
      },
      {
        "passId": "369",
        "signer": "0xc1bdE4290dC7755dAcCA2F9ED9aC9c36c7aD1c6B"
      },
      {
        "passId": "370",
        "signer": "0xaf80b55aC025CF3456Ee253AaF34f0f86fb88814"
      },
      {
        "passId": "371",
        "signer": "0xF5a543F9F6d7bF3Ebb89d6886CA84518d27e0DE2"
      },
      {
        "passId": "372",
        "signer": "0x74ce07934062c4028B7B5d53017B3AeD7686E6E6"
      },
      {
        "passId": "373",
        "signer": "0xE045c70E5eFC7c523b04A208FB3CeB1B52690a5d"
      },
      {
        "passId": "374",
        "signer": "0x496DA355452cd2E50BcFb447FEA11C2b39e20561"
      },
      {
        "passId": "375",
        "signer": "0xB1ADad3AEC1B14A5e18a85069a8aAF729411c62F"
      },
      {
        "passId": "376",
        "signer": "0x5aBb0437c47Dd075AeA85Ca758a2b3D2AcABD98e"
      },
      {
        "passId": "377",
        "signer": "0x16e24d0b93789d59f97b3C3792a6e9C3E9aC7F8B"
      },
      {
        "passId": "378",
        "signer": "0x002B54aC2b88fC2CccF7f3979782300ba1bE723D"
      },
      {
        "passId": "379",
        "signer": "0x6dB655F2B862b026920E675f876184415f876671"
      },
      {
        "passId": "380",
        "signer": "0x4F3C4931A3Ad4F85cBf2f2Aa4e49bC7d091BdF9C"
      },
      {
        "passId": "381",
        "signer": "0x3D8651c7DCD0950D7D924DA7Be38d3c762e61f9e"
      },
      {
        "passId": "382",
        "signer": "0xdea4FFeF0002A988ecbc0736a47949AaA69b6F26"
      },
      {
        "passId": "383",
        "signer": "0xe092CfD49b6f5683d8b0Cc148efa17CA60F02a8a"
      },
      {
        "passId": "384",
        "signer": "0xf821A71b9CFBc5f756adE8152957AE9f9c0a43C9"
      },
      {
        "passId": "385",
        "signer": "0x79B1816dc62B42a012B86C6602Fa6432BA7664c8"
      },
      {
        "passId": "386",
        "signer": "0xA1cb552214c9cb795df8f8722900FdeC1303bC13"
      },
      {
        "passId": "387",
        "signer": "0x9549bb6Ce4D0E83263d0276C070fe762b7760A06"
      },
      {
        "passId": "388",
        "signer": "0xB06677eEFb1fEc23874dADe934582d493610A8A2"
      },
      {
        "passId": "389",
        "signer": "0x4e3BA178b4a8eAA3d69a48be51146324912D8cB7"
      },
      {
        "passId": "390",
        "signer": "0x06d7D7dA67199B693b7143BD0faD1fEA3A25A627"
      },
      {
        "passId": "391",
        "signer": "0xB18bFe24A91d0a5Da8E05073Cf4765c97a0239C2"
      },
      {
        "passId": "392",
        "signer": "0xb10ddb01E2A4D2a65530F327336c3777f48A367e"
      },
      {
        "passId": "393",
        "signer": "0x3473973277bA68eed3BC9425Fe7e076787a93C49"
      },
      {
        "passId": "394",
        "signer": "0x4faf0E976B66d09d53744d3FC7A510831F2b08bD"
      },
      {
        "passId": "395",
        "signer": "0xf04Ca24F2E5cA42AA5E9d03a4f0A99c259036583"
      },
      {
        "passId": "396",
        "signer": "0x616Dc3F9fa1F73e6418A6B2F17a0f45a8244152e"
      },
      {
        "passId": "397",
        "signer": "0x5405A082134eBA678b026cA9c2B09C4BB00D9B30"
      },
      {
        "passId": "398",
        "signer": "0x96D9af4F90Ee707495D8B7E3aF9a5843e61539d3"
      },
      {
        "passId": "399",
        "signer": "0xE2E5A6188E1B0aF5C675dB97A1a235d06dee8c69"
      },
      {
        "passId": "400",
        "signer": "0x07266B1C5b2D73D829c19c80516f9C7E5328374C"
      },
      {
        "passId": "401",
        "signer": "0x17C45a4cf45a70c01eb86F645510d2Ed271d85Ba"
      },
      {
        "passId": "402",
        "signer": "0xc2a8eB34457E8106632D9d176545a875C847bf26"
      },
      {
        "passId": "403",
        "signer": "0x57EB738088629510989dE301Fd2a9d2C129282Ad"
      },
      {
        "passId": "404",
        "signer": "0x9A85f731aA3aA5847D1F9C8E1e915134048c7349"
      },
      {
        "passId": "405",
        "signer": "0x44063E5ddE78aF8Ba6ea36686D291159Cb0F743B"
      },
      {
        "passId": "406",
        "signer": "0x288654924247D14fD4Af97595058C68933beF4A5"
      },
      {
        "passId": "407",
        "signer": "0x1b5256892c10BD759dE2F2AE07658d57CaE6a3b0"
      },
      {
        "passId": "408",
        "signer": "0xFD08DE923e47955b9Ca5b3e887ef87b2932ee1a4"
      },
      {
        "passId": "409",
        "signer": "0x4Cd18d6a618597c277F3f2212E0841A7408Bb346"
      },
      {
        "passId": "410",
        "signer": "0x7CdD3e9E199C47d61EA17A6853517d9dA2f6aC36"
      },
      {
        "passId": "411",
        "signer": "0x5906abc0350C4c885b1dCB81632FB306484a6876"
      },
      {
        "passId": "412",
        "signer": "0xA2697CA1FBb0970E939A20ED24ecb9076796dDb5"
      },
      {
        "passId": "413",
        "signer": "0xECfF9d4E93C2BEd7C31703A71b27b8451c4915bD"
      },
      {
        "passId": "414",
        "signer": "0xEA68dF918b79791b48866c98ce2e1ff055271838"
      },
      {
        "passId": "415",
        "signer": "0x0CD70304d027819912C2f0ab5B3EAd8C55F214eC"
      },
      {
        "passId": "416",
        "signer": "0x4E58bd35fA4Fb8C464fb23aa5969860c4384FE99"
      },
      {
        "passId": "417",
        "signer": "0x15ADaa2Fc2F98849272680FF3cc66705E30B7788"
      },
      {
        "passId": "418",
        "signer": "0x0438d654d58634a1D7B73df278e0ABf714d89Af5"
      },
      {
        "passId": "419",
        "signer": "0x6d0f7A77974AaE0DFD8c2AbB8B325F7De36A1E17"
      },
      {
        "passId": "420",
        "signer": "0x6AfE805d11e82941AEF80B33fA525f1c1494f8E9"
      },
      {
        "passId": "421",
        "signer": "0x7fe6868625Cb742b540DA496545c74085E7A681F"
      },
      {
        "passId": "422",
        "signer": "0x2AB0F85372109E2a9F0F43Dac1f20d797A63522e"
      },
      {
        "passId": "423",
        "signer": "0xE6C81FFacCe15b788eAe49CC7dD67773448f636a"
      },
      {
        "passId": "424",
        "signer": "0x0B0B073430868f6ADFca807Ad25Fe7aD51D295A2"
      },
      {
        "passId": "425",
        "signer": "0x66938DBcE0EB3aF6C41D496B91201517ff0a6EaA"
      },
      {
        "passId": "426",
        "signer": "0x203e72395C75F90E8dC5B7b741A6231C678a81FC"
      },
      {
        "passId": "427",
        "signer": "0xAF359C0B2294d964a6369FA3cB67A0cd84075Bb8"
      },
      {
        "passId": "428",
        "signer": "0xbCb352a607a0810256261d752A07e1fA603941f7"
      },
      {
        "passId": "429",
        "signer": "0x9972C066997253B21C08EA213f8611fB9b66F69A"
      },
      {
        "passId": "430",
        "signer": "0xFB0C32837fc4F6d8425b5dFbED6A6D0A70CfE4F6"
      },
      {
        "passId": "431",
        "signer": "0xf1D82cB13eFa9748bdc46432AeEb70D8844Df411"
      },
      {
        "passId": "432",
        "signer": "0x9F238976cf13DdbC94d8c50b12a5537b4dd14793"
      },
      {
        "passId": "433",
        "signer": "0xd43Ae8a4c953Eb75b61c3fAC74305b37A4Fe0623"
      },
      {
        "passId": "434",
        "signer": "0x28f73393483a694DB2E38118D0Aa66387DCc4C0C"
      },
      {
        "passId": "435",
        "signer": "0x598b4A106cAa792865F8406325F96348293507Dc"
      },
      {
        "passId": "436",
        "signer": "0x87CF3FF20cdf9a1F781c7ed9FF650c3CAC3861d3"
      },
      {
        "passId": "437",
        "signer": "0x85879B4011BBD76eF6Ff1699061499A531a3258d"
      },
      {
        "passId": "438",
        "signer": "0xd585fd43e7dF6Dfb82c83aF0bf17D53f0c649f2d"
      },
      {
        "passId": "439",
        "signer": "0x9e828BCdE0AD69AD4dA46412A15b0a1e9D6109A7"
      },
      {
        "passId": "440",
        "signer": "0x608A44ED0405c6dFD754DBc77aee5541fA2eA11a"
      },
      {
        "passId": "441",
        "signer": "0x38A664ebe31f14337948161FFe8a09d26a71a157"
      },
      {
        "passId": "442",
        "signer": "0xa926a2d15346D0506B45c4E7C7C36a77fDd5D190"
      },
      {
        "passId": "443",
        "signer": "0x894c4ac2197F503Fa09531DbC61D13504506fbF7"
      },
      {
        "passId": "444",
        "signer": "0xfBc15c61D7bEFc1635CB9d2C29e4b6F4Cb359C68"
      },
      {
        "passId": "445",
        "signer": "0xA66aC7B8824D15E5B31bCdaA069252F49241E0Ef"
      },
      {
        "passId": "446",
        "signer": "0x5bEAeb66cab521aC49D69E9Cae3409FDeaE19e97"
      },
      {
        "passId": "447",
        "signer": "0x5F34D057108d19FAe85d163C944f2C6Fb36e7431"
      },
      {
        "passId": "448",
        "signer": "0x9F5faBc15c18A32D592E50a0328774E523b109F4"
      },
      {
        "passId": "449",
        "signer": "0xE6cb74d400b9c7E2ecf4faB789975916e992A041"
      },
      {
        "passId": "450",
        "signer": "0x1F9b1E8E064cBA1be8d76EaBEE2C9207552C033D"
      },
      {
        "passId": "451",
        "signer": "0x318a01fDf04F2863A2A669667DDef5E71ca3C74c"
      },
      {
        "passId": "452",
        "signer": "0x1ddD445a7dF610AC1cbd56c636F0864F4EB49B17"
      },
      {
        "passId": "453",
        "signer": "0xd2156815Ef8205a0D8F48679eB4433DFD7056e42"
      },
      {
        "passId": "454",
        "signer": "0x6C57AeAB3047C885D8849b380cE1985FafB43490"
      },
      {
        "passId": "455",
        "signer": "0x5cA1c347eC693f77388abC61A5B5361499EE4893"
      },
      {
        "passId": "456",
        "signer": "0x2984b064dE01671439E2B75062c327DD1f330f78"
      },
      {
        "passId": "457",
        "signer": "0x493156CD5370718eaF812F987Fff09288d1B03E5"
      },
      {
        "passId": "458",
        "signer": "0xF1be0C69B01945CC7EEf5543aB02dBcA7775Ac4a"
      },
      {
        "passId": "459",
        "signer": "0x3a90a34803A249899Ea2FCBaEa3E80AbDf05266C"
      },
      {
        "passId": "460",
        "signer": "0x5B69AcE5e7c9EA320eFDBD44d184dDfE8909b1Da"
      },
      {
        "passId": "461",
        "signer": "0x036CC70b55e6501455D926f796C080158Dc33547"
      },
      {
        "passId": "462",
        "signer": "0xD9384ed35a41bAc1313df34D62A9708fA8A36B93"
      },
      {
        "passId": "463",
        "signer": "0x73f1f39E4156f85D5Ec71c76d19d070EEf89609d"
      },
      {
        "passId": "464",
        "signer": "0x302EBe30f2c8F36B81E7b02e0Ef1484d6ecCf592"
      },
      {
        "passId": "465",
        "signer": "0x1F7b301E68D15646585ed78290Ae840ABf4afB74"
      },
      {
        "passId": "466",
        "signer": "0x29F3df12EE5F7Cc279680B0E2758a0101d0De769"
      },
      {
        "passId": "467",
        "signer": "0x3e6B72C56345B7c2A89436893a1063a1658A4fb5"
      },
      {
        "passId": "468",
        "signer": "0xd9DAB5Ea843eD7A9533F5B439f419c061E9625Bd"
      },
      {
        "passId": "469",
        "signer": "0x82A81Be01717321D5799d605081EBD53167E572A"
      },
      {
        "passId": "470",
        "signer": "0x5D5Bc2611eCB2ECfeD5392d677Db52249328ae5c"
      },
      {
        "passId": "471",
        "signer": "0xB7dAa75b1c2FAC84e5c7a8183a1F6dC3c0eECACe"
      },
      {
        "passId": "472",
        "signer": "0x1946dFc2BA67Cc25cbCb52561baaccd56eD4E4F8"
      },
      {
        "passId": "473",
        "signer": "0xD1610Ae6BeA1aAc8cCE87126437d9c8E3d12C483"
      },
      {
        "passId": "474",
        "signer": "0x462277Aa5eeE18ba6D414f28A234D34EEc0cB087"
      },
      {
        "passId": "475",
        "signer": "0x3C82fB4A08418216c495749901b5874c5ae8BE0f"
      },
      {
        "passId": "476",
        "signer": "0xb59648B8980Ee911b4C2e8838659eC81C8102c70"
      },
      {
        "passId": "477",
        "signer": "0x8AE5bdDC46126b1b9db40b072742f66984c34B35"
      },
      {
        "passId": "478",
        "signer": "0x4fC38B1047F3abE60989435ED1dFfB93C6e46544"
      },
      {
        "passId": "479",
        "signer": "0x0bCC3ba7A537cE44e1957b28547907bA378E04ad"
      },
      {
        "passId": "480",
        "signer": "0x0B3D221cA338C6a1d34BbEEE02DbF07572bf09F9"
      },
      {
        "passId": "481",
        "signer": "0x894c904a400af4FbeE58E1E583C0bAf72810b6Ba"
      },
      {
        "passId": "482",
        "signer": "0x9d681445bEAdc845Bd4AB4173D62Ce63D094C128"
      },
      {
        "passId": "483",
        "signer": "0xddf25840E4Bb305EB36433edC351aE8c318bA763"
      },
      {
        "passId": "484",
        "signer": "0x5A62Bb28c45457AeffEA42CAecdca8EF74914d23"
      },
      {
        "passId": "485",
        "signer": "0xEd95dE7C237369BBFFF5bD2247ec6145FEc36c3d"
      },
      {
        "passId": "486",
        "signer": "0xb25b80c36dE29e0268Fc578bD925386e41E298Da"
      },
      {
        "passId": "487",
        "signer": "0x35512aF8262CAFE052Ae74a0468dc7e70d22031F"
      },
      {
        "passId": "488",
        "signer": "0x7f37B7A3fBcE2dB81485f537ff2CA8dfB0e2f995"
      },
      {
        "passId": "489",
        "signer": "0xEb32e2Dd0bE20F84e53ad690FC30D7e86DfBc42d"
      },
      {
        "passId": "490",
        "signer": "0xc0A5De33dFDf0eE1B2F59Af7D1e309f9f0dC992B"
      },
      {
        "passId": "491",
        "signer": "0xc9917a981EcEf9DA508fd7101Ad9cd757E202F2a"
      },
      {
        "passId": "492",
        "signer": "0x4f6978B18272aD7E7224E345b1029BC08E20b5ca"
      },
      {
        "passId": "493",
        "signer": "0x931D6dd807136fc57f589E6c01ecbF88BE39849f"
      },
      {
        "passId": "494",
        "signer": "0x9d783E29028Db2941998Df0D896211fC3238261A"
      },
      {
        "passId": "495",
        "signer": "0xc02Ed6CA7954A030d903d5E7ca1D5c0Bebe0a556"
      },
      {
        "passId": "496",
        "signer": "0x6106a8EE72D7f90CecA1E8F4609A8A9A8c052752"
      },
      {
        "passId": "497",
        "signer": "0xd46d5138D68843ff23D1C0CF9003579f66827dbE"
      },
      {
        "passId": "498",
        "signer": "0x1EFf10690CE3a21Fca137b6c174446e358BE5299"
      },
      {
        "passId": "499",
        "signer": "0x3819066dBb5d99F495b9178F9380717703C00dB6"
      },
      {
        "passId": "500",
        "signer": "0x7674A08983399D299b89F5E15B301f77ad909C45"
      },
      {
        "passId": "501",
        "signer": "0xDfCF96aAe85099C693Af6A06A8d4EcB9C1bCAF65"
      },
      {
        "passId": "502",
        "signer": "0x8901fB8428BB4785CE95C27e0042deCAcc422330"
      },
      {
        "passId": "503",
        "signer": "0xE1a1122A449027DFE152Ad9dF9393144e7D2bB38"
      },
      {
        "passId": "504",
        "signer": "0xD53696e4Ad3959C9047854C65f94a8971607987a"
      },
      {
        "passId": "505",
        "signer": "0x1Fa7D870414589288eB1Ae78743AD5F81d08493B"
      },
      {
        "passId": "506",
        "signer": "0xd70d2bb631C91635bF817DcD65f63578C45C1D5A"
      },
      {
        "passId": "507",
        "signer": "0x16E6a5FD64E0A041487a4A6F4bC9ff056010d89A"
      },
      {
        "passId": "508",
        "signer": "0x53A7Ea1322BE684eEE0f8A7F9836630226a8b07c"
      },
      {
        "passId": "509",
        "signer": "0xD4F5B04c89F3eA72279C6e306765d44cAFF4e3b4"
      },
      {
        "passId": "510",
        "signer": "0x6510835eEe8cFD4768b914FB50422110565a923C"
      },
      {
        "passId": "511",
        "signer": "0xBAc99aA806E8996ba3Be96fb2223a8b825f3f486"
      },
      {
        "passId": "512",
        "signer": "0xC9279FeF131eFa4E361D962464Aa5fE14EdcaD44"
      },
      {
        "passId": "513",
        "signer": "0xD92D124937D81728529a50d02B2FD8fDac11C1AE"
      },
      {
        "passId": "514",
        "signer": "0x4ff4B32e849cD90310641581CCc02A38514C587F"
      },
      {
        "passId": "515",
        "signer": "0x648608D07F16B4dfCaF9200fD3cAEAFceBE3115e"
      },
      {
        "passId": "516",
        "signer": "0xBFFD9E72e9269f4372797a108BEC39897d1fd3cb"
      },
      {
        "passId": "517",
        "signer": "0xe5b294DEe50441C150A280c35bbAE9035dD15E94"
      },
      {
        "passId": "518",
        "signer": "0x8D9A3b443eBd71D65301B50a7F9176049De9136e"
      },
      {
        "passId": "519",
        "signer": "0x0789e809464a79b5C0eF07045785EED7C9F39CB0"
      },
      {
        "passId": "520",
        "signer": "0x50620734866Ed7Bde207100f1649bF692CE4fa86"
      },
      {
        "passId": "521",
        "signer": "0x495784B5E2eD2d0340D9a08B946459E6D98a4143"
      },
      {
        "passId": "522",
        "signer": "0x3ee59a6ac7360f59bf7345dc8b878364ABa3C030"
      },
      {
        "passId": "523",
        "signer": "0xb46d829D87F39e4E10845F517aA0286Ebb5a611D"
      },
      {
        "passId": "524",
        "signer": "0xc9Cfc1B8cc127D81B6E27FDe315F07516538aA77"
      },
      {
        "passId": "525",
        "signer": "0x3901fb72F591e42c922E1bDF5e50334b047A5D5E"
      },
      {
        "passId": "526",
        "signer": "0xeEf9DFf2818b3862A19563D1aD9ee4B9B87E2312"
      },
      {
        "passId": "527",
        "signer": "0x0D3c3317385Cfbc72738De449Dc35ED47a0cCd13"
      },
      {
        "passId": "528",
        "signer": "0xb310d48F8C8608c1219401C710Abf33f01b2BFCE"
      },
      {
        "passId": "529",
        "signer": "0x200d83F1Fc14e2D76CB435a11eF40786CF5907fC"
      },
      {
        "passId": "530",
        "signer": "0x0E471006d7A992D875B0A77ab2eA057B17601B53"
      },
      {
        "passId": "531",
        "signer": "0xc3318DB6bCADc725DC7a75A76f145984A6230257"
      },
      {
        "passId": "532",
        "signer": "0xb8b3084054d34D78a2CC5cE79C3E7dAbE2459b42"
      },
      {
        "passId": "533",
        "signer": "0x693568Bb5B968545Ca7282338c9CE9c1b55205C0"
      },
      {
        "passId": "534",
        "signer": "0x14AD77C05D7F96aeF0b25368d4995F32942A3D65"
      },
      {
        "passId": "535",
        "signer": "0xd1e1C71a66B14F07d915298aD9B842e6ea712CB1"
      },
      {
        "passId": "536",
        "signer": "0x5EDB7299F8D471db1133E5282ff41C88055fDABA"
      },
      {
        "passId": "537",
        "signer": "0xdf82fFfCB9944CBE03DfE9559Fd8d21E53dc3697"
      },
      {
        "passId": "538",
        "signer": "0xB8c3675E51E0CAF0DaEA2E2c435e6c5302AE1BbB"
      },
      {
        "passId": "539",
        "signer": "0x5796A1747A93B7FdAE2048dA619abEf0a76FBcd4"
      },
      {
        "passId": "540",
        "signer": "0xD6f69a78656D83c9281560E163D1df899bC6534a"
      },
      {
        "passId": "541",
        "signer": "0x1748ae0bF28d0F4f48AEE96971d7df141c5dAD66"
      },
      {
        "passId": "542",
        "signer": "0xE17b315eA7b08BBc42ce1f4DE87da749fdA05978"
      },
      {
        "passId": "543",
        "signer": "0x0c2E78E7Adb33C11A83e57C6dcEc55997c94eBe4"
      },
      {
        "passId": "544",
        "signer": "0xF104f8D8C2945D7535cc22B500571A85F63768f2"
      },
      {
        "passId": "545",
        "signer": "0x38dCeaEADE0723FC629c89fCFA3aeCAf51c2f6a9"
      },
      {
        "passId": "546",
        "signer": "0xbE62f2CCd23ac6199fa548B64ffCF5894896aA25"
      },
      {
        "passId": "547",
        "signer": "0xD5829AC89ab8449cFbf3E9f41E88f09804ab94eD"
      },
      {
        "passId": "548",
        "signer": "0x3341409Ee73F85a1430e618e9423225578E1223E"
      },
      {
        "passId": "549",
        "signer": "0x330675adD77191668928ca8aF61E422e7A0B776d"
      },
      {
        "passId": "550",
        "signer": "0x1762fbDF983E98317E24CdF76c4E45952243CF3A"
      },
      {
        "passId": "551",
        "signer": "0x75d39312CcEd2635791cc6C1fe6d3985B6BEbCDC"
      },
      {
        "passId": "552",
        "signer": "0x7B7Cf0bc954Aa2Dbc3f9B106151B694cf7a5CbcE"
      },
      {
        "passId": "553",
        "signer": "0xd099D2848b05CB986E59e27b41ec59b4fA667CBB"
      },
      {
        "passId": "554",
        "signer": "0xE5488B17C4D0e6c13A18C31d47f8c6ac6d77c76E"
      },
      {
        "passId": "555",
        "signer": "0x2a39475DcF9CfCCE7Fdeb9661a52f33C88C6588c"
      },
      {
        "passId": "556",
        "signer": "0x126Bb35F8A57153081CB90FF97E77B364499C574"
      },
      {
        "passId": "557",
        "signer": "0x7b4f7fed45860dF4d0e8fF2Bb79EC796E83E37F3"
      },
      {
        "passId": "558",
        "signer": "0xc12bF3af676fe5D3584B0af98525Ee94c633E662"
      },
      {
        "passId": "559",
        "signer": "0x8eb835D8Be744734E5FB2d6f02Cf5eB67988f4BE"
      },
      {
        "passId": "560",
        "signer": "0x8a774Da82f97359E26bA20A36e7F8c84Ad597c66"
      },
      {
        "passId": "561",
        "signer": "0xf715a5246d29d0b889b78F7Df7a582212a1da38b"
      },
      {
        "passId": "562",
        "signer": "0x377D2F136823615AaFbc0c20fe3CE4f19C39F9da"
      },
      {
        "passId": "563",
        "signer": "0x8056a783CA27b7fCFA75d5169aB46C0cF3C591Cd"
      },
      {
        "passId": "564",
        "signer": "0xfA2dBCe411882d8dcC889710EF8Dc7bD5A344299"
      },
      {
        "passId": "565",
        "signer": "0x2406f045B675Ea8Ff8AE3d339EF0B4c127567aEa"
      },
      {
        "passId": "566",
        "signer": "0x6a58E5132426a5081aD50bAB636E7Fb92079D755"
      },
      {
        "passId": "567",
        "signer": "0x4A6fA6fb30268ba41d812781E19f7b471aaB7D91"
      },
      {
        "passId": "568",
        "signer": "0xae838f6Ffd140b2e726F5C7aaF0D9D27074Dae79"
      },
      {
        "passId": "569",
        "signer": "0x2C08fCe89212d57B510E08fE9E633F71E7FD1EC8"
      },
      {
        "passId": "570",
        "signer": "0x3E4324EDb2028D35C3D61740019626F89b27b7BD"
      },
      {
        "passId": "571",
        "signer": "0x94027C3A091425a08eA33C4e6Ed486F4F63a0960"
      },
      {
        "passId": "572",
        "signer": "0x16b695845d2809ADC1d55261D2C63fE65eA836cE"
      },
      {
        "passId": "573",
        "signer": "0x6241d16C7Fb388260B336340EC07e42b334Da47e"
      },
      {
        "passId": "574",
        "signer": "0xf5A052eC35649332E900e639318962A51320b7B8"
      },
      {
        "passId": "575",
        "signer": "0xdC31EA37f3dedA95c81036C0C66683FD2E0d4EC7"
      },
      {
        "passId": "576",
        "signer": "0x7FD45708FfC9aEDCedC5B0053f0EA40435A36910"
      },
      {
        "passId": "577",
        "signer": "0x094368517952c376e6Ea1D89d68Dc6e3A10d0BaA"
      },
      {
        "passId": "578",
        "signer": "0x8378F1B5e0E9a2f00bB904589Ccb7046A2899907"
      },
      {
        "passId": "579",
        "signer": "0xff5FEe005Ba5fc292a1afF1b9c029971fC11112C"
      },
      {
        "passId": "580",
        "signer": "0xacf481cC8D31EAdDcDf4e30f405A5d97859AFd75"
      },
      {
        "passId": "581",
        "signer": "0x239fdB6B367D7eF80e8B5Cf41159c30AC218DfbF"
      },
      {
        "passId": "582",
        "signer": "0x8e9AF86cbc2E0fae465554a83186859D953afC08"
      },
      {
        "passId": "583",
        "signer": "0x770a302AB100Bd83d1F5b03222efCd15AC3271fc"
      },
      {
        "passId": "584",
        "signer": "0xa00E16BA08A09B01cE590A5b4598C4A09baC8A03"
      },
      {
        "passId": "585",
        "signer": "0x131B13B7F9A0d90BCFdDCa3A613C33F5Db04a0E2"
      },
      {
        "passId": "586",
        "signer": "0x9e272F025DBE7e03ACdb734D46Aa086B0098eE61"
      },
      {
        "passId": "587",
        "signer": "0x25B1006B91436FbFBC9D0257F4C93cD234cb7e04"
      },
      {
        "passId": "588",
        "signer": "0x4d34BEaE6Ff91f896779787e9fD48FDdA014B31A"
      },
      {
        "passId": "589",
        "signer": "0xCb5Db019b05579de788D4fF71B3769E1E7C57f90"
      },
      {
        "passId": "590",
        "signer": "0x305a213CCd5647C4816936300fc717C3b5D6084D"
      },
      {
        "passId": "591",
        "signer": "0xBCfF3b71736C8868768220a7589E046A23B56512"
      },
      {
        "passId": "592",
        "signer": "0xFE373A082fCd255C010b2CbcE4330Ec41eDa5461"
      },
      {
        "passId": "593",
        "signer": "0xC99385D1f6A19b3C84313A7DC5303eEe9e39A577"
      },
      {
        "passId": "594",
        "signer": "0x0691A3d000f8702DBD5E8f61346D2836a329dAC7"
      },
      {
        "passId": "595",
        "signer": "0x6dd163153CC0991f11e4Aa2637b775Ea9264db02"
      },
      {
        "passId": "596",
        "signer": "0xB7184bE1b48F47641A888dFe2A49a41293661AF2"
      },
      {
        "passId": "597",
        "signer": "0x98c5385A8D4148c62d45f80CDBC534098E343d91"
      },
      {
        "passId": "598",
        "signer": "0x30D0EC36731321AecA3fB1279F9142d3F23aa3aB"
      },
      {
        "passId": "599",
        "signer": "0xFFf88c8307D5E245bE68b91c5C11730939dc9711"
      },
      {
        "passId": "600",
        "signer": "0x02B631700fC6AD81e9182189FeDFF0e8b90230EB"
      },
      {
        "passId": "601",
        "signer": "0xA64Dc349649ddD289Bf33f16ccB716484C712faf"
      },
      {
        "passId": "602",
        "signer": "0x60178f1ee04c453D522237bc1A2E84a40dE6FC25"
      },
      {
        "passId": "603",
        "signer": "0xd9cbe465A26b2e030733c46E4E0a6CDA399BBf13"
      },
      {
        "passId": "604",
        "signer": "0xAB8F19dCC6b565334A39015626C56fab7A1aC248"
      },
      {
        "passId": "605",
        "signer": "0x60cDA5AE1B97074842917C34d81e3EA93b051d6f"
      },
      {
        "passId": "606",
        "signer": "0x89AdDC44c16c3492a0F17B5bcA29e2eE9aBcaE14"
      },
      {
        "passId": "607",
        "signer": "0xb6B2b53E29E57F2E11dA0139267AaF617c23C2DB"
      },
      {
        "passId": "608",
        "signer": "0xC66E0f6DF24DE88f4c7655C85C2Fa414a6aC5573"
      },
      {
        "passId": "609",
        "signer": "0xb0Ef81fa520A797F7B40eCE3b0c4713AC243D296"
      },
      {
        "passId": "610",
        "signer": "0x674C845220DA4BF5172e86897BF7057AbFD95a16"
      },
      {
        "passId": "611",
        "signer": "0x8356E7B5eD9BA87852F015a0B3e3AFbe22DF5BEf"
      },
      {
        "passId": "612",
        "signer": "0x22ce6B9Ed50Bf642D9B3E0FfaC1F9D57f3BB7b70"
      },
      {
        "passId": "613",
        "signer": "0xB1e6c60fEdF0bee83c499E47EA99B320673eE481"
      },
      {
        "passId": "614",
        "signer": "0x84B14d3940DF1AF55FA6FEc77467960df267679C"
      },
      {
        "passId": "615",
        "signer": "0x526B94f1D8803d3462598b31800465ddeA326940"
      },
      {
        "passId": "616",
        "signer": "0x765Efd6251e48285ECf0AF9FaEaCc1c3Ba457bDC"
      },
      {
        "passId": "617",
        "signer": "0x4dbDd39E9B8011b26E1B02CdBA0F7F57158fbb39"
      },
      {
        "passId": "618",
        "signer": "0x5A769818A76c58ADAf34d5584333c5d76C1422f8"
      },
      {
        "passId": "619",
        "signer": "0x2FaE7dA653ef78462910e8A8f4dE03D8CcAc3c7e"
      },
      {
        "passId": "620",
        "signer": "0x4c743f399Ba21671ed2dAe504CdfC6b3abf78B53"
      },
      {
        "passId": "621",
        "signer": "0xC1Ea1fDe2A9D894e60fa72c257D984aaf4cdf15e"
      },
      {
        "passId": "622",
        "signer": "0xEdBf7c832AdA98eF6c1e8Fb1efCd171DD393E4e9"
      },
      {
        "passId": "623",
        "signer": "0xf9545E367B6298A312d03fc823d49d4f77c57200"
      },
      {
        "passId": "624",
        "signer": "0x596F9eD029f90c0170d4F9b76b51204d9B61e7D9"
      },
      {
        "passId": "625",
        "signer": "0xA890777b06d70c6d344b435a202826b6387d685f"
      },
      {
        "passId": "626",
        "signer": "0xea65c5381A2F9032237c90b0f5ebd1813221042B"
      },
      {
        "passId": "627",
        "signer": "0xb23b5B61865e5dd3d902a39963A4249578f592B0"
      },
      {
        "passId": "628",
        "signer": "0xba44D34241fbf16f33642c8e35D08eD0dBAe7892"
      },
      {
        "passId": "629",
        "signer": "0xDe03E33460493C4BC2Fa78cD1e858e219BAC431b"
      },
      {
        "passId": "630",
        "signer": "0x6A3b6C9cCc71D3C04391e6347D5c1CB1622175cA"
      },
      {
        "passId": "631",
        "signer": "0x2aD2A35D8b978aD8c84b3df6D491551E009efFA7"
      },
      {
        "passId": "632",
        "signer": "0x7eB1ee0dD5AA7352599Fc8a64C1905fC674DA986"
      },
      {
        "passId": "633",
        "signer": "0x4A4B0657fddeCE2a69A26Fb8F9e7aE2148975041"
      },
      {
        "passId": "634",
        "signer": "0x120DcCA9Bda5879e4530b02F297bf5Dc985D8af7"
      },
      {
        "passId": "635",
        "signer": "0xd3A9555b39f241fA762DF7d989DeF607fb2f1968"
      },
      {
        "passId": "636",
        "signer": "0x7a7449402A5D0e7f7d1722AAd0B907ac09e0B325"
      },
      {
        "passId": "637",
        "signer": "0x688893cC4680B3BDA8dcc659B451E59851701c2a"
      },
      {
        "passId": "638",
        "signer": "0x813c20fb1656ca18776931a509CD5AE1b9570A23"
      },
      {
        "passId": "639",
        "signer": "0x9eeDA7cD01b16fDDEcC94b2891c4406d1F7526EE"
      },
      {
        "passId": "640",
        "signer": "0x826399Ae3E62050988744598bf9A1adc847f5EdB"
      },
      {
        "passId": "641",
        "signer": "0xA8b95005F63eC75d3c9fE8D7BcBB97061f3847bC"
      },
      {
        "passId": "642",
        "signer": "0x438490f689b5D9D59a7a292E940F05f5410E0f7b"
      },
      {
        "passId": "643",
        "signer": "0xc41a6425d57C3A1C8D3724f0F3feD2BF0B307D68"
      },
      {
        "passId": "644",
        "signer": "0xFf1243351BA5b1493a1728cb8A9c0CDE9dd33D06"
      },
      {
        "passId": "645",
        "signer": "0x412651db325aE6ea027727524CFBdB8BE0125d5A"
      },
      {
        "passId": "646",
        "signer": "0xA41DE3A27E678Ac0043A40a93772042ab7266D3b"
      },
      {
        "passId": "647",
        "signer": "0x13A99582bA41F43Afd3dd283Aab5877aD76D8fb6"
      },
      {
        "passId": "648",
        "signer": "0xeC008B9A645bb1Af4166a6787abfE6AdD8cd6A90"
      },
      {
        "passId": "649",
        "signer": "0x805ca9cC1AFD74F2FcF911A8e226bF6f0f0798B9"
      },
      {
        "passId": "650",
        "signer": "0x60e753Acc5ba84066b7dfF200CF0E2485c6778a7"
      },
      {
        "passId": "651",
        "signer": "0xaf12817f5E5d41Ed4c5d87399ca198e15211A897"
      },
      {
        "passId": "652",
        "signer": "0x8a662e4FE783f3719683D454e9af1B6A461aB8Bc"
      },
      {
        "passId": "653",
        "signer": "0x3940eB400b986Ff8B4f9de1C23583e7FA5626478"
      },
      {
        "passId": "654",
        "signer": "0xb74029ABDd92F17718Df6d2Efd7fdEdbAeE2008C"
      },
      {
        "passId": "655",
        "signer": "0x503c89fe35d47d192c3F4A47a20d8ef15Fa036b2"
      },
      {
        "passId": "656",
        "signer": "0x30eE09C51bD0643f69F217dE21317eca9D745aC4"
      },
      {
        "passId": "657",
        "signer": "0xe5E15f1Fdf4a65FC61A25f72fd93657077fECDF0"
      },
      {
        "passId": "658",
        "signer": "0x085024D3c9A3c5aA3380c375175daD756522EE63"
      },
      {
        "passId": "659",
        "signer": "0x2725529413CE0B578cfC222AfF8b3f264bc51c90"
      },
      {
        "passId": "660",
        "signer": "0x9F2f438bF99a051accDf8Dc56a7065882abC8eA9"
      },
      {
        "passId": "661",
        "signer": "0x4DB0826DBA9C296a7C58BF5471e6E9198c890b41"
      },
      {
        "passId": "662",
        "signer": "0x7949197885510De4F45547FaB90476226B3B550c"
      },
      {
        "passId": "663",
        "signer": "0x65974dE8F117F0883c2fa05d9A3548a48ebbEE9b"
      },
      {
        "passId": "664",
        "signer": "0x80421374A884722226C615400a7F24a1c01901dE"
      },
      {
        "passId": "665",
        "signer": "0xB52256B9B0FeDB69259049930CB66E0d2231BC4e"
      },
      {
        "passId": "666",
        "signer": "0x9A9Ba873d71C376190891dE60Cb4AB46Ae050ea7"
      },
      {
        "passId": "667",
        "signer": "0x98ccE45e409C0454F06F7BC26A3d4f2D6c465CC1"
      },
      {
        "passId": "668",
        "signer": "0xEd9d9dF9BC42531968922395FB84dd37CE7AF51C"
      },
      {
        "passId": "669",
        "signer": "0x289fbaB9669d0EC880ED94310903333265BdD009"
      },
      {
        "passId": "670",
        "signer": "0xeB5543bFFbaC08Fa3De553188230cC6636f5Febd"
      },
      {
        "passId": "671",
        "signer": "0xA990615AB1818015a2aD5D5686B35D63281DFfDE"
      },
      {
        "passId": "672",
        "signer": "0xDFaccCa7bDd5184d4080D4C953EEa2342131d810"
      },
      {
        "passId": "673",
        "signer": "0x7b925373EE9907670927c16e1a42953a2Dc80F3B"
      },
      {
        "passId": "674",
        "signer": "0xf9eAB93B7da9ae8A395C7815D25CF2900D0baC05"
      },
      {
        "passId": "675",
        "signer": "0xdaCCf70d334c1bCECdA3b8B94806983177793dA7"
      },
      {
        "passId": "676",
        "signer": "0x3279dC6A9762bbeAD60dCeC243DCC35D38827c10"
      },
      {
        "passId": "677",
        "signer": "0xC2b291651Da1800E64D695c823C3e1fB45086A97"
      },
      {
        "passId": "678",
        "signer": "0x998725f6411341c38364DFE6b746c396E47d164E"
      },
      {
        "passId": "679",
        "signer": "0x1b294afF4E81e3C2f2533F6c3cabFF3D72bC6cd1"
      },
      {
        "passId": "680",
        "signer": "0x84e816ABFe18397c11F40853367e5f13E23b3092"
      },
      {
        "passId": "681",
        "signer": "0x4d02E16a9B6b249CF60ca302bd161614546BDF57"
      },
      {
        "passId": "682",
        "signer": "0xAa9B30635CEbe9366ea4446e7d42a075f7162bA7"
      },
      {
        "passId": "683",
        "signer": "0x819CAA58B852B42a8e88072E2D5069C94F7ddCC2"
      },
      {
        "passId": "684",
        "signer": "0xAFa4ec2cACfc415d522dE223E57A99d170122745"
      },
      {
        "passId": "685",
        "signer": "0x0792acf4BF95B040530D16e5f42d3E710e54A07E"
      },
      {
        "passId": "686",
        "signer": "0x6a831927b3d39cD60903B2d3ae22524C71E708Ca"
      },
      {
        "passId": "687",
        "signer": "0x0a1a2e3F326De9115E5AA0B2095C55b4f37800A3"
      },
      {
        "passId": "688",
        "signer": "0x5Cd99509686a37B991ADa41563b1870a562829DB"
      },
      {
        "passId": "689",
        "signer": "0x7ae6ab3Da7565bF962a666B37634e199319778b2"
      },
      {
        "passId": "690",
        "signer": "0x7e676C367d2A0Cd9Fe330B2e9C007Da8b5D2A4b3"
      },
      {
        "passId": "691",
        "signer": "0xcDb22eB20c32ae98F8Ac50EEEA84649d7dd0D77E"
      },
      {
        "passId": "692",
        "signer": "0xD7aBb733a100EfA3cda45ec084e4D0cE03B50f4F"
      },
      {
        "passId": "693",
        "signer": "0xEAbd089f736CB01157f2Dd26b8EbB11D1a3287cD"
      },
      {
        "passId": "694",
        "signer": "0xa8Ba544F0f6a25E90817D5601e25C5C7F467Be1F"
      },
      {
        "passId": "695",
        "signer": "0x794E1ac08499dD9c073C0b92Fa1e9dcEE0C883Ab"
      },
      {
        "passId": "696",
        "signer": "0xBdFC0560953Ff2170836fF8075494D6DE3c49B6f"
      },
      {
        "passId": "697",
        "signer": "0x40662d2ba2ea8EcB774E3f96B2637b03B9D1Be30"
      },
      {
        "passId": "698",
        "signer": "0x89f5822b8cBd71253484F7a240079A1E89FAD3dB"
      },
      {
        "passId": "699",
        "signer": "0x46900BaA4c847B488fe6b15685BBD96d9F535E6e"
      },
      {
        "passId": "700",
        "signer": "0xE6EEbcD28e3Bf50291fd9909d8c4fb5053cB976C"
      },
      {
        "passId": "701",
        "signer": "0x66B999E38b0ECEbcf1818f4031b82f160c41F533"
      },
      {
        "passId": "702",
        "signer": "0xB8C4491509bEC2575f04ffD3C1991C5F5a105B89"
      },
      {
        "passId": "703",
        "signer": "0xbb69d815DA08C89EF44cC239f50aFb574DC314a3"
      },
      {
        "passId": "704",
        "signer": "0x5879df0f2A401eAF527CF459B36B2adE83B66D06"
      },
      {
        "passId": "705",
        "signer": "0x7F758227c9Ce5F8D654126cF170da5A6fBa3e880"
      },
      {
        "passId": "706",
        "signer": "0x7b1140669551c847b399F1815083c5b837080921"
      },
      {
        "passId": "707",
        "signer": "0x1c4a291EaAf7A06285c6b6D31Cc8Dd19adf207f3"
      },
      {
        "passId": "708",
        "signer": "0x5d5800c6699c94d807f6292aE71802dbd05dF055"
      },
      {
        "passId": "709",
        "signer": "0xb7594A5a9e5Cd3dB3a3f37Cc87Ff94A14b75b0BC"
      },
      {
        "passId": "710",
        "signer": "0x9C41cc0AFF8Fe014B1340317Abb0e4b4985d44Be"
      },
      {
        "passId": "711",
        "signer": "0x51ABbAF52E650098fC34CC0af449d24401496786"
      },
      {
        "passId": "712",
        "signer": "0xbc3ab0e4b27eb2655CD490b7cC6211b73023AC98"
      },
      {
        "passId": "713",
        "signer": "0x597f8ef71c277F87A207f2A5d7697e3cb38e1Af1"
      },
      {
        "passId": "714",
        "signer": "0xcdc0Cf58b8611ca463c10C63924f9dBaa08fb3EE"
      },
      {
        "passId": "715",
        "signer": "0xBA43acb3233eBdFAD6a4f6623a82718580906A35"
      },
      {
        "passId": "716",
        "signer": "0x2634F5fCe022dCC76eD419EE7b9B07d20E265276"
      },
      {
        "passId": "717",
        "signer": "0x7EC75045372167aBFBb596F804E0a116Bc6018B3"
      },
      {
        "passId": "718",
        "signer": "0x91E7dca5C929eaED5Dc71cc37268375BD7Dd4551"
      },
      {
        "passId": "719",
        "signer": "0xAc0B90D76EA0857b77C805814B4d0A3Bb3bBd434"
      },
      {
        "passId": "720",
        "signer": "0xaa3eFdE356A2Fd2127e6727c9Fac6C6E19e856B7"
      },
      {
        "passId": "721",
        "signer": "0xcf92af040D4F30038CAE9e607AE97B500a71F5ab"
      },
      {
        "passId": "722",
        "signer": "0x377944F438700026b919A0F329fb8FC396d7F319"
      },
      {
        "passId": "723",
        "signer": "0x28867333A63d10e11fFD9F144666fb6BEf10a2A8"
      },
      {
        "passId": "724",
        "signer": "0x80DeF4203E3B44E2A9753fD39575F500E4e0186E"
      },
      {
        "passId": "725",
        "signer": "0x315142e573bCe40a25deC375FB4c273E267feC7E"
      },
      {
        "passId": "726",
        "signer": "0x1F8edF0d5145a2623855cf9EA7bb552eA2dC62F5"
      },
      {
        "passId": "727",
        "signer": "0x98d7D89bb034B12FDA11d1930df0399906B5e597"
      },
      {
        "passId": "728",
        "signer": "0xEFEd1AC4D6a03198266295C60eE40E007357455E"
      },
      {
        "passId": "729",
        "signer": "0x135Fe501c18c2f9682917FF0d010A5c0aE979Dce"
      },
      {
        "passId": "730",
        "signer": "0xe4D08510F5Dda0f4098F4dfFF267a3f1603E2F80"
      },
      {
        "passId": "731",
        "signer": "0x4AF6A04DfC07D23b9C8b1B624e4b49683D96bb54"
      },
      {
        "passId": "732",
        "signer": "0xb6FCa36BCE66E28C990b15B0a5a09Df1CBb360f2"
      },
      {
        "passId": "733",
        "signer": "0x903B5153612faAFf1361ABC74F5b237e55012524"
      },
      {
        "passId": "734",
        "signer": "0x4f8eEf2D7FD8d9Dc408d05234c5c31868883678f"
      },
      {
        "passId": "735",
        "signer": "0x5Fbb72d090D2CB3F274405c015731758d8826D8F"
      },
      {
        "passId": "736",
        "signer": "0xBe8317AF6B0c850784633236a7c902F958867695"
      },
      {
        "passId": "737",
        "signer": "0x8a6eB7bEC56718027BF5DaD35677B070B844Fd65"
      },
      {
        "passId": "738",
        "signer": "0x0Fab6e3AaF03023bF1aebc86E1a7Ba1dE97CDEBe"
      },
      {
        "passId": "739",
        "signer": "0x09123e68724C9Ffb0556e7A0dA6fD2f213954b38"
      },
      {
        "passId": "740",
        "signer": "0x7320a3D46C20b3d085182DeeCBce2908AD8151aC"
      },
      {
        "passId": "741",
        "signer": "0x406d13ffb807c3ec97a9D5AaEb25D176d6a48828"
      },
      {
        "passId": "742",
        "signer": "0x82729F1dD9BdC0aA8F390CC2615EcDDaB2822705"
      },
      {
        "passId": "743",
        "signer": "0x2d74Ac829BCec2d35f0e3A0149d15663491e4891"
      },
      {
        "passId": "744",
        "signer": "0x1311A85f732c6e52975AF1106C030770A509515D"
      },
      {
        "passId": "745",
        "signer": "0x6Cb5C096b8db760D35Ed66381d03C286B91C6789"
      },
      {
        "passId": "746",
        "signer": "0x34Cde24454839467d791CC58e23E150A7a962969"
      },
      {
        "passId": "747",
        "signer": "0xFF04Cf2bA787878F728b9CB47A219Aa31D5cBbE7"
      },
      {
        "passId": "748",
        "signer": "0x850ee763B966993D3128B47d2bEDBE1bDa1ed532"
      },
      {
        "passId": "749",
        "signer": "0x2c422fB37662D5E04fC1836E62132D44990B851D"
      },
      {
        "passId": "750",
        "signer": "0xE3d79507B2a95C3AA3297BF754A16Ad938fc00c5"
      },
      {
        "passId": "751",
        "signer": "0x253507c1cDE61dBB2ef73131069e9a731f27fb01"
      },
      {
        "passId": "752",
        "signer": "0x1B8972f7CfB3d663e1be8Da254E12eC17b5a2bD8"
      },
      {
        "passId": "753",
        "signer": "0x7549b7d11fC0baa0254Fb471EF9Ae68aAde14500"
      },
      {
        "passId": "754",
        "signer": "0x7Ae7AC3Fd3C50F31038dfd391e7513A2bdB80647"
      },
      {
        "passId": "755",
        "signer": "0xb73f23f243B8214Fd02864AEC58EADafc1938c2a"
      },
      {
        "passId": "756",
        "signer": "0x6DA4a290813F98d266921357D363a7CE2de7a6F9"
      },
      {
        "passId": "757",
        "signer": "0xE67166e37A090eAf58E9fb1a92e6FD73B83d9B30"
      },
      {
        "passId": "758",
        "signer": "0xfa911C692b9d8BFaa85e30C2E3fbFB1A1f6458B5"
      },
      {
        "passId": "759",
        "signer": "0xAf2Cc8F6606850664f657F66fDA77c5a21794f17"
      },
      {
        "passId": "760",
        "signer": "0xB4c756aCdCb7a91002a88C25092b4eB75F362b11"
      },
      {
        "passId": "761",
        "signer": "0x263FB209710E6CFF62e95F7eFF5167CBdf251CC3"
      },
      {
        "passId": "762",
        "signer": "0x55e1375e2Ff73129DaaB2FCc55D24Ae5e9f52B9e"
      },
      {
        "passId": "763",
        "signer": "0xdA8b8b0fD0412cdFbA0119B0D9D461079b4ee334"
      },
      {
        "passId": "764",
        "signer": "0x7Bb27B19D54e78223E251D92C7dc3a827F1b244F"
      },
      {
        "passId": "765",
        "signer": "0x053B968ff57040F7A6e1EdFfbC2B655F2dc1CC39"
      },
      {
        "passId": "766",
        "signer": "0x4345764b3aC5Ed2eBD059d3CD153b44B4eFA11D9"
      },
      {
        "passId": "767",
        "signer": "0x122Ec74281f84b9565a4ddF8A4BBEa974908621B"
      },
      {
        "passId": "768",
        "signer": "0xDeb4fd92f430bA9C97fB7B5a8653b4c4C8a80a63"
      },
      {
        "passId": "769",
        "signer": "0x9cec0277E608F06aFF81C9F81a06c42b4F7131DF"
      },
      {
        "passId": "770",
        "signer": "0x94DaC5805496265c6F0507Bb21F85a21DaFABef5"
      },
      {
        "passId": "771",
        "signer": "0x46E0291220412C3aF5A77d9de151E6D0A65daA89"
      },
      {
        "passId": "772",
        "signer": "0x8873D532960e470c9C4798FE888E798ae7821d0E"
      },
      {
        "passId": "773",
        "signer": "0xBE896e0F1c7c82Ee2dD397Cb78746fc23ea4ec42"
      },
      {
        "passId": "774",
        "signer": "0x71707FDCF29c3ca247bfCaE044651D6C7932D076"
      },
      {
        "passId": "775",
        "signer": "0x62c8E44a2F76b29c4F1905189e090f9c3D8e6B03"
      },
      {
        "passId": "776",
        "signer": "0x820910D09f9072c5CB4c8cAA9349dD88DC91dE20"
      },
      {
        "passId": "777",
        "signer": "0x3aa978C025E4a7b7dbd300750B73b8B06aC19ab5"
      },
      {
        "passId": "778",
        "signer": "0xEdb137A259de1F0B91F6ec0738A01ec41B435B25"
      },
      {
        "passId": "779",
        "signer": "0x258a8d245c217c067a51C9C8a996eB8409b27370"
      },
      {
        "passId": "780",
        "signer": "0x410655200cc52D545c96D3EfaD6ae8efF0aE39Ba"
      },
      {
        "passId": "781",
        "signer": "0x98f9462bAa0fC0da1cde05d45A45308A42376288"
      },
      {
        "passId": "782",
        "signer": "0x3c92177944DC0c1a6F1aecc99D8805e3b78a760F"
      },
      {
        "passId": "783",
        "signer": "0x803Ad960abAD2fb660c82D64f8bab17CF0Be521b"
      },
      {
        "passId": "784",
        "signer": "0xddC74D211728b0a070da221Ce93Af29fb332dA90"
      },
      {
        "passId": "785",
        "signer": "0x6F913F79387856903b90293eEEa1D7422fCa3e4d"
      },
      {
        "passId": "786",
        "signer": "0xb1f1D8406f8857614E98EBb345cC5653F24CBEfC"
      },
      {
        "passId": "787",
        "signer": "0x1EcF9e7E709a7be19012604a80B5f12b26C01c1E"
      },
      {
        "passId": "788",
        "signer": "0x0ABda307468782484508Fc0464f47BF6c5AfC496"
      },
      {
        "passId": "789",
        "signer": "0x706D4DD649a72e5CD1Fc30E537B1c73fd917f052"
      },
      {
        "passId": "790",
        "signer": "0x07c9d2cccbED87346788E2E2b8fAdb1668F62aac"
      },
      {
        "passId": "791",
        "signer": "0x7D47A9fb45f6dbD0495E6E7314e8711bD00D4573"
      },
      {
        "passId": "792",
        "signer": "0x7467Ff06fb3EF95afE53C611f348e3c5c2a9ed11"
      },
      {
        "passId": "793",
        "signer": "0xeb708FA3b44fc93A3788fD98B85a4A325e7B0Eec"
      },
      {
        "passId": "794",
        "signer": "0x78883f04bD3CE5Dba1d9F4acDE7F278C0083d2BB"
      },
      {
        "passId": "795",
        "signer": "0x3BA1e529B3Fe52f799CdA0A64bB10e439A3432d4"
      },
      {
        "passId": "796",
        "signer": "0x6728D6F53C021adC3336c68230687BD1C1E583bB"
      },
      {
        "passId": "797",
        "signer": "0x67f39ceda6dA36eDbC1f72cE48011B634AB8F105"
      },
      {
        "passId": "798",
        "signer": "0xa4F0Ea990e710c46DfE65d6f70B3967C340Df628"
      },
      {
        "passId": "799",
        "signer": "0x48788b991862ed13f19887C2116D2C2Edd061460"
      },
      {
        "passId": "800",
        "signer": "0x1a486F84f67425Af6413CC8298ed754BE6fE2cAB"
      },
      {
        "passId": "801",
        "signer": "0x7cbb4Dd038b775bce7d2F57c418128746761d4Ba"
      },
      {
        "passId": "802",
        "signer": "0x481Bb2800E9cD92b2c285C2f2183F11A7f7F7D93"
      },
      {
        "passId": "803",
        "signer": "0xB67FFa2b684aEEA823F698529dD2837410AE8730"
      },
      {
        "passId": "804",
        "signer": "0x83bD1B273bB6301dd814a83576DCc5b50f27A235"
      },
      {
        "passId": "805",
        "signer": "0xb631192F5fE6EF9780f1050F6B1c211B19222693"
      },
      {
        "passId": "806",
        "signer": "0x46f98A0dC6a5605D070A34b3fEEE417d5AbFD28e"
      },
      {
        "passId": "807",
        "signer": "0x2F8d97d48eF7Bec92A540EF841E81810015b17a1"
      },
      {
        "passId": "808",
        "signer": "0x46e4648a7Ff117338a63b34954A74a3c917D22eB"
      },
      {
        "passId": "809",
        "signer": "0x0f1E553ed1e5eC2b909fa4137D62AfB3ab044deD"
      },
      {
        "passId": "810",
        "signer": "0x2A373AbFdf2AbC32a1785604B090591F4f71622D"
      },
      {
        "passId": "811",
        "signer": "0x4f9ed3a4D2045640d48b14D6FDA550416fA4d1e9"
      },
      {
        "passId": "812",
        "signer": "0xed5c605C8bF892CA3C15CED59AbaAF892E775e98"
      },
      {
        "passId": "813",
        "signer": "0xf5Cb633054F2b83b007B7B64B46CE523EB9c0777"
      },
      {
        "passId": "814",
        "signer": "0xC704D64B05cBCBfaB1345428b64E930143d75739"
      },
      {
        "passId": "815",
        "signer": "0xAE21F8FFF5818E5793bD79679C848E905c3e09E5"
      },
      {
        "passId": "816",
        "signer": "0x60b3293771Ac1E13B572195d0218CBD8Ee05879C"
      },
      {
        "passId": "817",
        "signer": "0x000000000000000000000000000000000000dead"
      },
      {
        "passId": "818",
        "signer": "0x000001f568875f378bf6d170b790967fe429c81a"
      },
      {
        "passId": "819",
        "signer": "0x0078c86e12186e2de1ff6fef5f1ada2bffde4ea5"
      },
      {
        "passId": "820",
        "signer": "0x024f1f8b3789bfdf9edb47f58a0d7a3afeaea804"
      },
      {
        "passId": "821",
        "signer": "0x049808d5eaa90a2665b9703d2246dded34f1eb73"
      },
      {
        "passId": "822",
        "signer": "0x05e8074088797c1f9057febf374deee0bc38e894"
      },
      {
        "passId": "823",
        "signer": "0x05ea539365d91df315e8ddd736e90431696fe8c4"
      },
      {
        "passId": "824",
        "signer": "0x09280340849e66948149804cac539cc7227512be"
      },
      {
        "passId": "825",
        "signer": "0x0946bc5c2f9848665cc3811458de403d0a78ad8e"
      },
      {
        "passId": "826",
        "signer": "0x0985224a811e65c235dbf4a2c2117712aabe4e39"
      },
      {
        "passId": "827",
        "signer": "0x0d0aca99686fced8e6fb39134aaed96f09b5283c"
      },
      {
        "passId": "828",
        "signer": "0x0d94b6e4c2aa9383964986020b3534d34885f700"
      },
      {
        "passId": "829",
        "signer": "0x0dd544d0da95666d7c3d38460feb4b5f25eaa515"
      },
      {
        "passId": "830",
        "signer": "0x0ea59c05be4b7149aaed26be764b618ac0255643"
      },
      {
        "passId": "831",
        "signer": "0x10b28ee04853bdd30d1fd7b302fbe5691c144aa0"
      },
      {
        "passId": "832",
        "signer": "0x10f6c58b9dc9603cb24ee9a5220bb4a470781676"
      },
      {
        "passId": "833",
        "signer": "0x12579783fbe8c2645d7a634b238da748405975a2"
      },
      {
        "passId": "834",
        "signer": "0x136c65a3f31682fcf683906ddbf3c76db2633f99"
      },
      {
        "passId": "835",
        "signer": "0x139d9a36ff2b6bfb8558dfbc22486da48c77a396"
      },
      {
        "passId": "836",
        "signer": "0x13b3a50f3947476eda74fe191344524e2d2d28e5"
      },
      {
        "passId": "837",
        "signer": "0x13e46ccd194ca86212236543d2e7376b00bafa42"
      },
      {
        "passId": "838",
        "signer": "0x1423fcc74da82fa03d70fa1f7a122db1ba231783"
      },
      {
        "passId": "839",
        "signer": "0x1436dbffbdde71d16a2c4d23f9116c3158c4d984"
      },
      {
        "passId": "840",
        "signer": "0x1527fa3a0778d574adfe714b7e60c7b2a1bf7c29"
      },
      {
        "passId": "841",
        "signer": "0x1974341df4b113a4c16f3d3f106176dec0e4da67"
      },
      {
        "passId": "842",
        "signer": "0x19b2ba0892da19d09d59e300d11da9edf96654ae"
      },
      {
        "passId": "843",
        "signer": "0x1c062628943a930b805849b494719c7d23c77bd5"
      },
      {
        "passId": "844",
        "signer": "0x1ec9503bbdad721ef3ad485b4b14ce0671dc9925"
      },
      {
        "passId": "845",
        "signer": "0x21c5edc237e95049f92059af6a571fdb700f2b82"
      },
      {
        "passId": "846",
        "signer": "0x2224acd07fd9b269ab5200a9a3df8062624deefb"
      },
      {
        "passId": "847",
        "signer": "0x230eb64900d027dfe372786b3342bd6178ec37d1"
      },
      {
        "passId": "848",
        "signer": "0x273c25abd33eca095e228fde0f15e8f7ec4eb4d9"
      },
      {
        "passId": "849",
        "signer": "0x27d9b6692ec1fb802cc8ceef74270ca4b448076a"
      },
      {
        "passId": "850",
        "signer": "0x290420874bf65691b98b67d042c06bbc31f85f11"
      },
      {
        "passId": "851",
        "signer": "0x2993db31d165c33d848e44a1c26a805ba411d324"
      },
      {
        "passId": "852",
        "signer": "0x2d2c46d26c8fec693586e067c4fc2b2ddc2b4cb3"
      },
      {
        "passId": "853",
        "signer": "0x2d79097b9e4c4f41654b2c91c39fd2c97af00c76"
      },
      {
        "passId": "854",
        "signer": "0x2de2299db048a9e3b8d1934b8dae11b8041cc4fd"
      },
      {
        "passId": "855",
        "signer": "0x2e50783188e23742dd3168682e39381ff5fa9731"
      },
      {
        "passId": "856",
        "signer": "0x2e699391d1b3b8577557b4c0ef6a1d9e8a394f04"
      },
      {
        "passId": "857",
        "signer": "0x308bff328370fc4a9683ab9fcd79a21be6dc5ee4"
      },
      {
        "passId": "858",
        "signer": "0x342c6bfa287ce37b8b53eee0e5b6e6bcbea98c76"
      },
      {
        "passId": "859",
        "signer": "0x362f020fd4420c317e7a0722994ba8bc3380d0e8"
      },
      {
        "passId": "860",
        "signer": "0x3668a20653316a7dd85342f64a4c984d146cadfe"
      },
      {
        "passId": "861",
        "signer": "0x37b699d7eead58433d352d1c77b2db1391f11ce5"
      },
      {
        "passId": "862",
        "signer": "0x3ad353e2845b96fb1b58c1ca6cda46b870de8d6f"
      },
      {
        "passId": "863",
        "signer": "0x3d14410609731ec7924ea8b1f13de544bb46a9a6"
      },
      {
        "passId": "864",
        "signer": "0x4011d09a86d0aca8377a4a8bad691f1aceecd672"
      },
      {
        "passId": "865",
        "signer": "0x41a7276167b80da8815df5b0ddaba3be29984250"
      },
      {
        "passId": "866",
        "signer": "0x44dc2ec15b3483fc8590f6b396cea5f8f2fbf3bd"
      },
      {
        "passId": "867",
        "signer": "0x4530307f98208d3bd5b9631880bc7351770c8810"
      },
      {
        "passId": "868",
        "signer": "0x4a1d757699ab73dd4b48b15049b6f1479b2f3511"
      },
      {
        "passId": "869",
        "signer": "0x4b0bd713574e67a97b3ff8f647f329794a2cbb64"
      },
      {
        "passId": "870",
        "signer": "0x4d03a186b3c7d039ff9a212cd8e81dc34a670b35"
      },
      {
        "passId": "871",
        "signer": "0x4de4a829d42191007431d608775430f3ab072082"
      },
      {
        "passId": "872",
        "signer": "0x4e012d25472225f3385baa43ed64dfec5885c51d"
      },
      {
        "passId": "873",
        "signer": "0x4ffb72b66eba24521736924f87dfe10677d82286"
      },
      {
        "passId": "874",
        "signer": "0x50f27cdb650879a41fb07038bf2b818845c20e17"
      },
      {
        "passId": "875",
        "signer": "0x5285ac85a979b612f5c5320961311bba099670f0"
      },
      {
        "passId": "876",
        "signer": "0x530cf036ed4fa58f7301a9c788c9806624cefd19"
      },
      {
        "passId": "877",
        "signer": "0x5310a9b64847c1b927f823a4bc8836e93f09dc78"
      },
      {
        "passId": "878",
        "signer": "0x54463aae905082c678708bb6c25226eb8f38d5a6"
      },
      {
        "passId": "879",
        "signer": "0x562bf1b67dc40d9b7c3ddd49e45ae58e61e1b76e"
      },
      {
        "passId": "880",
        "signer": "0x568b491fb2b4b9440f6d05e7723df0060fdaef1c"
      },
      {
        "passId": "881",
        "signer": "0x5b158f897f5ace2afefaf7ace8ce0cdbbbc9168a"
      },
      {
        "passId": "882",
        "signer": "0x5ba02f4ff6af1d9d2af8774d10fd32eb57d4e2e6"
      },
      {
        "passId": "883",
        "signer": "0x5bd685375c21375165438ca7f3eae7ec4fade8c5"
      },
      {
        "passId": "884",
        "signer": "0x5d9e720a1c16b98ab897165803c4d96e8060b8e4"
      },
      {
        "passId": "885",
        "signer": "0x5e01d9928ea32d1d3ae2f3263b6ec6c165dc2d76"
      },
      {
        "passId": "886",
        "signer": "0x5ee42438d0d8fc399c94ef3543665e993e847b49"
      },
      {
        "passId": "887",
        "signer": "0x5f8e56d7f3642dd8783774460da2d3a7c54aacda"
      },
      {
        "passId": "888",
        "signer": "0x5fb8b9512684d451d4e585a1a0aabfb48a253c67"
      },
      {
        "passId": "889",
        "signer": "0x6186290b28d511bff971631c916244a9fc539cfe"
      },
      {
        "passId": "890",
        "signer": "0x62f099a34f01d57c67a100851184bea0d48b45f6"
      },
      {
        "passId": "891",
        "signer": "0x63244b5f1ebcb999ea012da652dffee6653bf8f5"
      },
      {
        "passId": "892",
        "signer": "0x64e00561fa9b1f2f2048b2d4f571279689dd9541"
      },
      {
        "passId": "893",
        "signer": "0x65565244e5700b85c90358468faf37c85db55099"
      },
      {
        "passId": "894",
        "signer": "0x6584b48ccebd9c3e4413a1dd4cdbc38b2500cdf3"
      },
      {
        "passId": "895",
        "signer": "0x65d88c64b01b9481352fa8a68b54ed1b3b687388"
      },
      {
        "passId": "896",
        "signer": "0x663d3947f03ef5b387992b880ac85940057c13e3"
      },
      {
        "passId": "897",
        "signer": "0x67c3097a968db89610825976ec9a5976a966c044"
      },
      {
        "passId": "898",
        "signer": "0x68016f094ebb7b55b04372af335455854b0e2eb6"
      },
      {
        "passId": "899",
        "signer": "0x6854dc5c9e3d3ce0b9dd7250d866908515465dc6"
      },
      {
        "passId": "900",
        "signer": "0x686e960ebd9aceb1771850444d4d3a7810a0dac9"
      },
      {
        "passId": "901",
        "signer": "0x6d7fd0438219c0f753a1ccf7c4885bb6cb260999"
      },
      {
        "passId": "902",
        "signer": "0x704c978d50590b21e4c2f43eb4da24fe61fcd707"
      },
      {
        "passId": "903",
        "signer": "0x73e60cd967e957bc6e074f93320ffa1d52697d5b"
      },
      {
        "passId": "904",
        "signer": "0x75331ebbe0b00b97cab532384f13c9b479f074ec"
      },
      {
        "passId": "905",
        "signer": "0x75ef2eff7b12f5f900ef5c787036deab18423d1a"
      },
      {
        "passId": "906",
        "signer": "0x78885686feec340ab544428f161e7d621f520e29"
      },
      {
        "passId": "907",
        "signer": "0x79bebfcb560141f22959c62bbd2930d5c7e35d30"
      },
      {
        "passId": "908",
        "signer": "0x79fd2f15e0ea8c27b5192259f9da63f4e562f021"
      },
      {
        "passId": "909",
        "signer": "0x7a824bea2bed9399a68cd0e340224809521c81d9"
      },
      {
        "passId": "910",
        "signer": "0x7d6a8ffcaf98cac58340329b3a91759888cb1363"
      },
      {
        "passId": "911",
        "signer": "0x7e7a55b11dd9a02b4da169620adfc36b930100fc"
      },
      {
        "passId": "912",
        "signer": "0x80d0d54050c15971b21e877d95441800f5aa9ee8"
      },
      {
        "passId": "913",
        "signer": "0x8177598e08ee8199c160a48c7a0af31ab54bb59f"
      },
      {
        "passId": "914",
        "signer": "0x82410609593d876761681580cf304c794bd58d09"
      },
      {
        "passId": "915",
        "signer": "0x826f63afd9517364cbebe91a859f10b102505a40"
      },
      {
        "passId": "916",
        "signer": "0x836ef81a58e5565b8d1d555ec8e9a5c2792511c6"
      },
      {
        "passId": "917",
        "signer": "0x83d3c179e7906e7f6755658c70e106f1ed3c5782"
      },
      {
        "passId": "918",
        "signer": "0x84eeb7db3f93feb5a8a98f56dabb970a6797c187"
      },
      {
        "passId": "919",
        "signer": "0x865c2f85c9fea1c6ac7f53de07554d68cb92ed88"
      },
      {
        "passId": "920",
        "signer": "0x8725be0bb6ea759d10fbb52fedecc7dcd6890072"
      },
      {
        "passId": "921",
        "signer": "0x87dfef3b445667292aac89078b51f0f75795805f"
      },
      {
        "passId": "922",
        "signer": "0x88906af7616f88f610d1e479325a5c5f93ba1e2c"
      },
      {
        "passId": "923",
        "signer": "0x8a53b8b59877df193c6dae7b8d1d38251af563cf"
      },
      {
        "passId": "924",
        "signer": "0x8b5e90aa714c967efc8c286f46ce0fc822e1cfb0"
      },
      {
        "passId": "925",
        "signer": "0x8c0c3c60118b24b31806eae82ab4186821bf23f1"
      },
      {
        "passId": "926",
        "signer": "0x8c2e67bd3d0f432ef75d9ae6623cd0dfbce66050"
      },
      {
        "passId": "927",
        "signer": "0x8dc9d43df20681cd62ca0acb24ae7ce2794f835d"
      },
      {
        "passId": "928",
        "signer": "0x8df55ecf2c261b44d079302dc95327fe32f74eed"
      },
      {
        "passId": "929",
        "signer": "0x8ebbf8f59b7b7849e359f7e1cc395df6741c24b9"
      },
      {
        "passId": "930",
        "signer": "0x92e7faa1c7b1cf703e3cda42183978f16fa15713"
      },
      {
        "passId": "931",
        "signer": "0x932a824a4d3d0680e0b352de150e6f212b8ac841"
      },
      {
        "passId": "932",
        "signer": "0x95a4350e1cb5e795d3ebe8bee63d9183de5449d1"
      },
      {
        "passId": "933",
        "signer": "0x96dc89dbe84970ee42a2f0b35fb50599e6745ff8"
      },
      {
        "passId": "934",
        "signer": "0x975ab68d4c15d6db02e101d5be03c5b49b9a3282"
      },
      {
        "passId": "935",
        "signer": "0x9de0b0402258a6a562331da7b3c13b29578789c4"
      },
      {
        "passId": "936",
        "signer": "0x9fc6d6c7326585fd3c2a743a1f505990d6e9df3f"
      },
      {
        "passId": "937",
        "signer": "0xa0863e36c30f4974a3a0e2cfc2802513cfaa22f1"
      },
      {
        "passId": "938",
        "signer": "0xa0a6dc36041fb386378458006fecbddd02555ddd"
      },
      {
        "passId": "939",
        "signer": "0xa0d71d516c6149c958c489ab24223c99f5df906f"
      },
      {
        "passId": "940",
        "signer": "0xa0f838d02983161ee469bff969964b7051ac1cd9"
      },
      {
        "passId": "941",
        "signer": "0xa596370bc21dee36872b98009dfbbf465dbfefa3"
      },
      {
        "passId": "942",
        "signer": "0xa5975974cac3fefd831e42bdd2fe84cb5ee3b3de"
      },
      {
        "passId": "943",
        "signer": "0xa6157b7bb7ec05e2b6feafd686797f9ea05411cc"
      },
      {
        "passId": "944",
        "signer": "0xa6f4fa9840aa6825446c820af6d5eccf9f78ba05"
      },
      {
        "passId": "945",
        "signer": "0xa77d9227eee861e01519548b6000acca8600eebe"
      },
      {
        "passId": "946",
        "signer": "0xa7d9f4fd84cdd4bee564adc1b18e3e8aa79d25f1"
      },
      {
        "passId": "947",
        "signer": "0xa88e4a192f3ff5e46dcc96efefb38dfec7bb250c"
      },
      {
        "passId": "948",
        "signer": "0xab2f02d8d409ee4f67fdda5aac5ca7a64a897271"
      },
      {
        "passId": "949",
        "signer": "0xac75cdc34283406b050cadf4ea5902a9310b138e"
      },
      {
        "passId": "950",
        "signer": "0xad9f9194c68bd83250a534a7da574687e1f102ff"
      },
      {
        "passId": "951",
        "signer": "0xae8ce6bb2b95684f57c097b407f4e9b55d9ca432"
      },
      {
        "passId": "952",
        "signer": "0xaee2f40fe0568bd859bc6a518c7ef3252fdc9bf0"
      },
      {
        "passId": "953",
        "signer": "0xaf5cb828389bd6413e7bcd00ed2dcf2bdc1a015a"
      },
      {
        "passId": "954",
        "signer": "0xaf8fbf59e221d27b55dc3adc2366f9230bcf5096"
      },
      {
        "passId": "955",
        "signer": "0xb29b1936c11b77cec6061a9daf765ee2666c8f77"
      },
      {
        "passId": "956",
        "signer": "0xb347b5b99c49ce6c555071a1f0498c81511ad977"
      },
      {
        "passId": "957",
        "signer": "0xb3522064694ac9870dbf00eebc2712762193bb64"
      },
      {
        "passId": "958",
        "signer": "0xb353268ce17d2c7f0f4f8aff152e548c43633df5"
      },
      {
        "passId": "959",
        "signer": "0xb66190f67ed8f0ca790ddfe541ee1bd0da53fe70"
      },
      {
        "passId": "960",
        "signer": "0xb7f9f538aa1b41ae2853eb63f1939187ffe70eb4"
      },
      {
        "passId": "961",
        "signer": "0xbb46c6e4d8a59520fbb11638c2d1228cc65f5a6c"
      },
      {
        "passId": "962",
        "signer": "0xbc10a3ae909b1b94f4c3e39607ad19d386dce32a"
      },
      {
        "passId": "963",
        "signer": "0xbd12aa424c207e90b66402c1f0aec357e8b1ded7"
      },
      {
        "passId": "964",
        "signer": "0xbe5be517537e53f09e88bcdf61da238477dca226"
      },
      {
        "passId": "965",
        "signer": "0xbeeef66749b64afe43bbc9475635eb510cfe4922"
      },
      {
        "passId": "966",
        "signer": "0xbf1ed1ea654ad49472daedc21a31c8d28e6bb790"
      },
      {
        "passId": "967",
        "signer": "0xbfdb50dc66c8df9fd9688d8fe5a0c34126427645"
      },
      {
        "passId": "968",
        "signer": "0xc09d3402515676b81a2f768c365146ea3faa5605"
      },
      {
        "passId": "969",
        "signer": "0xc0e5e14bdecd9ed6954a9e14c74e97cebd91bb94"
      },
      {
        "passId": "970",
        "signer": "0xc169699a825066f2f07e0b29c4082094b32a3f3e"
      },
      {
        "passId": "971",
        "signer": "0xc3a67c1437353bdc9c53060235a34018711de0cf"
      },
      {
        "passId": "972",
        "signer": "0xc42c694d0215b27bce1a871a4a2ad38cf0120a82"
      },
      {
        "passId": "973",
        "signer": "0xc555347d2b369b074be94fe6f7ae9ab43966b884"
      },
      {
        "passId": "974",
        "signer": "0xc665a60f22dda926b920deb8ffac0ef9d8a17460"
      },
      {
        "passId": "975",
        "signer": "0xc8286a9bf1f9bf8f3006fa014915c78b7e75111c"
      },
      {
        "passId": "976",
        "signer": "0xc8bace82793074fad3337424bdb84e306b2f8a44"
      },
      {
        "passId": "977",
        "signer": "0xc9a009bed9ed8a32499e18c20f7cd12132c8d6cb"
      },
      {
        "passId": "978",
        "signer": "0xca11d10ceb098f597a0cab28117fc3465991a63c"
      },
      {
        "passId": "979",
        "signer": "0xcbd2f544073eb35b59a8eb19194a222a5361cd74"
      },
      {
        "passId": "980",
        "signer": "0xcda685c8444f659ac3fe778f8d143aabdf1a21ab"
      },
      {
        "passId": "981",
        "signer": "0xcea78aaa93e917fb5e1802901db2b20aa4411b44"
      },
      {
        "passId": "982",
        "signer": "0xcef871b113d2bb5d3fa5dc96d2d288dd38082aae"
      },
      {
        "passId": "983",
        "signer": "0xcf680fb77c12e2aa2dec82f3ae0c0e527f549fe2"
      },
      {
        "passId": "984",
        "signer": "0xd1eddfcc4596cc8bd0bd7495beab9b979fc50336"
      },
      {
        "passId": "985",
        "signer": "0xd286064cc27514b914bab0f2fad2e1a89a91f314"
      },
      {
        "passId": "986",
        "signer": "0xd3e64b9dea13e4840a0da20965bd0ca37d05a12a"
      },
      {
        "passId": "987",
        "signer": "0xd651e2c626ee210fc38676124d5007ac822ad749"
      },
      {
        "passId": "988",
        "signer": "0xd657860fc512ec2250a7385a353f599e3276fddb"
      },
      {
        "passId": "989",
        "signer": "0xd6e02c13a6cc133c9d019495414667ea7bee05cc"
      },
      {
        "passId": "990",
        "signer": "0xdc190d7cea8e8bf0b381617062200c10cfff0a91"
      },
      {
        "passId": "991",
        "signer": "0xdd6c81d6d587e2d49eaadffb4ce380564046002a"
      },
      {
        "passId": "992",
        "signer": "0xddb92a96054132801cae3943b2f966fc2c308ac8"
      },
      {
        "passId": "993",
        "signer": "0xdde3ca351d85a4b4cc6aff8d42c0840959859053"
      },
      {
        "passId": "994",
        "signer": "0xe120ed22a0cd12d5de6122aa7d5b6d93ac218b49"
      },
      {
        "passId": "995",
        "signer": "0xe20adb03a470b5573bf572dd918e052d0d17866e"
      },
      {
        "passId": "996",
        "signer": "0xe363c2fba75cbd27487b17430e1efbdd2add374e"
      },
      {
        "passId": "997",
        "signer": "0xe5a3d77d7788a83f3549dd7f08fc2aced7e262d2"
      },
      {
        "passId": "998",
        "signer": "0xe66e1e9e37e4e148b21eb22001431818e980d060"
      },
      {
        "passId": "999",
        "signer": "0xe7bd51dc30d4bdc9fddd42ea7c0a283590c9d416"
      },
      {
        "passId": "1000",
        "signer": "0xeb42cd8a1fe1ff556960a9a03ca29aa13f8aa838"
      },
      {
        "passId": "1001",
        "signer": "0xed0f30677c760ea8f0bff70c76eafc79d5f7c3c8"
      },
      {
        "passId": "1002",
        "signer": "0xeddd55a234240042695d7430bf0a09b9038a26ad"
      },
      {
        "passId": "1003",
        "signer": "0xee4d308cc1cde3dd0adcb5a2c85edff22db64918"
      },
      {
        "passId": "1004",
        "signer": "0xee9439a12a7c2a9b6600ca8a498620580d2f116e"
      },
      {
        "passId": "1005",
        "signer": "0xeeaf61935c0c48f8f8cc28c381683d7fa2f75e1c"
      },
      {
        "passId": "1006",
        "signer": "0xef1271ae97bc1a1b356ab697e9ed0d1d4e05fcda"
      },
      {
        "passId": "1007",
        "signer": "0xf19bc58f747d6ea11959bf2a0fa81e53285546ac"
      },
      {
        "passId": "1008",
        "signer": "0xf1e1c701b49b1dc2405a9e8ef40f9f88802b80fa"
      },
      {
        "passId": "1009",
        "signer": "0xf2b15320db6992ba49a7563e50e888c20edcbe3c"
      },
      {
        "passId": "1010",
        "signer": "0xf341c3abb49feb96b4822e68227b54c6fb9f6318"
      },
      {
        "passId": "1011",
        "signer": "0xf3493f6812b1f22b40f8539db2510e13ac251f96"
      },
      {
        "passId": "1012",
        "signer": "0xf3b1b6e83be4d55695f1d30ac3d307d9d5ca98ff"
      },
      {
        "passId": "1013",
        "signer": "0xf464d1a37d8ef9449722f44a4eeb715c0e0acdb3"
      },
      {
        "passId": "1014",
        "signer": "0xf6910d47fbb1f5518d60c721d4189936ecd5a1b6"
      },
      {
        "passId": "1015",
        "signer": "0xf73c935815908ad9a056fc50269f95d8ba032e9d"
      },
      {
        "passId": "1016",
        "signer": "0xf78cd306b23031de9e739a5bcde61764e82ad5ef"
      },
      {
        "passId": "1017",
        "signer": "0xf942040710bedf7220beb24b220631c2255e87f1"
      },
      {
        "passId": "1018",
        "signer": "0xf943e1d2db38db468f66a79b08ec23f8c4375ce3"
      },
      {
        "passId": "1019",
        "signer": "0xfa46dedf812c5803b1e2cea10eef3f27dafeca56"
      },
      {
        "passId": "1020",
        "signer": "0xfa9f104f338846b38b083c9e567ff6bbe43ab5f7"
      },
      {
        "passId": "1021",
        "signer": "0xfd12799b9fb97dc61d9ad7ad4ffba5624004bc62"
      },
      {
        "passId": "1022",
        "signer": "0xfe1e7dc61721f34a25c9eb4dc1a1a8f352c923ef"
      },
      {
        "passId": "1023",
        "signer": "0xfffff6e70842330948ca47254f2be673b1cb0db7"
      }
    ]
  },
  "solcInputHash": "57b0c679cfa11deaf51e4a5214cf9fc4",
  "bytecode": "0x6101c06040523480156200001257600080fd5b50604051620024823803806200248283398101604081905262000035916200009e565b6001600160a01b039b8c16608052958b1660a05260c09490945291891660e05260005590961661010052610120959095526101409390935261016091909152610180526101a05260015562000159565b6001600160a01b03811681146200009b57600080fd5b50565b6000806000806000806000806000806000806101808d8f031215620000c257600080fd5b8c51620000cf8162000085565b809c505060208d01519a5060408d0151995060608d0151985060808d0151975060a08d0151620000ff8162000085565b60c08e015160e08f01519198509650620001198162000085565b6101008e01516101208f01519196509450620001358162000085565b809350506101408d015191506101608d015190509295989b509295989b509295989b565b60805160a05160c05160e05161010051610120516101405161016051610180516101a0516122136200026f60003960008181610376015281816105b20152610fef0152600081816103530152818161041101528181610591015281816106110152818161071f015261116e01526000818161033001528181610570015261119601526000818161030d0152818161054f01526111bc015260008181610399015281816105d3015281816111e2015261121e01526000610ca20152600061184701526000818161175501526117830152600081816107cd015281816109fd01528181611679015281816116f201526117cf01526000818161023e0152818161098501528181610c0d015261135301526122136000f3fe6080604052600436106100b15760003560e01c8063990b0f6011610069578063ca9dca041161004e578063ca9dca04146101ce578063d93459b6146101ee578063e957a3811461020e57600080fd5b8063990b0f601461019b5780639c205513146101bb57600080fd5b80632558e9331161009a5780632558e933146101245780636d048d53146101395780637361a72e1461018857600080fd5b80630ccc797f146100b65780632228adcc146100f4575b600080fd5b3480156100c257600080fd5b506100d66100d1366004611a5c565b61022e565b6040516100eb99989796959493929190611ab8565b60405180910390f35b34801561010057600080fd5b5061011461010f366004611b54565b6103e5565b60405190151581526020016100eb565b610137610132366004611c91565b61040f565b005b34801561014557600080fd5b50610159610154366004611d93565b610544565b6040805196875260208701959095529385019290925260608401526080830152151560a082015260c0016100eb565b610137610196366004611db0565b61060f565b3480156101a757600080fd5b506101146101b6366004611b54565b6106d2565b6101376101c9366004611e1a565b61071d565b3480156101da57600080fd5b506101376101e9366004611e1a565b6107b5565b3480156101fa57600080fd5b50610137610209366004611e51565b6109e5565b34801561021a57600080fd5b50610114610229366004611b54565b610c7d565b60606000806000806000806000807f000000000000000000000000000000000000000000000000000000000000000073ffffffffffffffffffffffffffffffffffffffff1663a0554c268c8c6040518363ffffffff1660e01b8152600401610297929190611ea8565b60006040518083038186803b1580156102af57600080fd5b505afa1580156102c3573d6000803e3d6000fd5b505050506040513d6000823e601f3d9081017fffffffffffffffffffffffffffffffffffffffffffffffffffffffffffffffe01682016040526103099190810190611efd565b98507f000000000000000000000000000000000000000000000000000000000000000097507f000000000000000000000000000000000000000000000000000000000000000096507f000000000000000000000000000000000000000000000000000000000000000095507f000000000000000000000000000000000000000000000000000000000000000094507f000000000000000000000000000000000000000000000000000000000000000093506103c38d610c9b565b92506103ce8c6106d2565b915060015490509499509499509499509499909550565b6000806103f76010600685901c611fc6565b905080600714806104085750806008145b9392505050565b7f00000000000000000000000000000000000000000000000000000000000000004210156105335761044083610e04565b60006104ab83858760405160200161048792919091825260601b7fffffffffffffffffffffffffffffffffffffffff00000000000000000000000016602082015260340190565b60405160208183030381529060405280519060200120610ec290919063ffffffff16565b905060006104b98583610ee6565b90506104c58382610f47565b610530576040517f08c379a000000000000000000000000000000000000000000000000000000000815260206004820152600d60248201527f494e56414c49445f50524f4f460000000000000000000000000000000000000060448201526064015b60405180910390fd5b50505b61053d8585611014565b5050505050565b6000806000806000807f00000000000000000000000000000000000000000000000000000000000000007f00000000000000000000000000000000000000000000000000000000000000007f00000000000000000000000000000000000000000000000000000000000000007f00000000000000000000000000000000000000000000000000000000000000007f00000000000000000000000000000000000000000000000000000000000000006105fb8c610c9b565b949c939b5091995097509550909350915050565b7f00000000000000000000000000000000000000000000000000000000000000004210156106c25761064082610e04565b33600061064d8483610ee6565b90506106598382610f47565b6106bf576040517f08c379a000000000000000000000000000000000000000000000000000000000815260206004820152600d60248201527f494e56414c49445f50524f4f46000000000000000000000000000000000000006044820152606401610527565b50505b6106cc8484611014565b50505050565b6000806106e161010084612009565b905060006106f18261010061201d565b6106fb908561205a565b60009283526002602052604090922054600190921b9182169091149392505050565b7f00000000000000000000000000000000000000000000000000000000000000004210156107a7576040517f08c379a000000000000000000000000000000000000000000000000000000000815260206004820152601460248201527f524551554952455f504153535f4f525f574149540000000000000000000000006044820152606401610527565b6107b18282611014565b5050565b3373ffffffffffffffffffffffffffffffffffffffff7f00000000000000000000000000000000000000000000000000000000000000001614610854576040517f08c379a000000000000000000000000000000000000000000000000000000000815260206004820152600e60248201527f4e4f545f415554484f52495a45440000000000000000000000000000000000006044820152606401610527565b6102408261ffff16106108c3576040517f08c379a000000000000000000000000000000000000000000000000000000000815260206004820152600d60248201527f494e56414c49445f534f554e44000000000000000000000000000000000000006044820152606401610527565b6108d08261ffff166103e5565b610936576040517f08c379a000000000000000000000000000000000000000000000000000000000815260206004820152600c60248201527f4e4f545f524553455256454400000000000000000000000000000000000000006044820152606401610527565b6040517f9c20551300000000000000000000000000000000000000000000000000000000815261ffff8316600482015273ffffffffffffffffffffffffffffffffffffffff82811660248301527f00000000000000000000000000000000000000000000000000000000000000001690639c20551390604401600060405180830381600087803b1580156109c957600080fd5b505af11580156109dd573d6000803e3d6000fd5b505050505050565b3373ffffffffffffffffffffffffffffffffffffffff7f00000000000000000000000000000000000000000000000000000000000000001614610a84576040517f08c379a000000000000000000000000000000000000000000000000000000000815260206004820152600e60248201527f4e4f545f415554484f52495a45440000000000000000000000000000000000006044820152606401610527565b60005b82811015610bcf57610240848483818110610aa457610aa4612071565b9050602002016020810190610ab991906120a0565b61ffff1610610b24576040517f08c379a000000000000000000000000000000000000000000000000000000000815260206004820152600d60248201527f494e56414c49445f534f554e44000000000000000000000000000000000000006044820152606401610527565b610b57848483818110610b3957610b39612071565b9050602002016020810190610b4e91906120a0565b61ffff166103e5565b610bbd576040517f08c379a000000000000000000000000000000000000000000000000000000000815260206004820152600c60248201527f4e4f545f524553455256454400000000000000000000000000000000000000006044820152606401610527565b80610bc7816120bb565b915050610a87565b506040517fe2ea128800000000000000000000000000000000000000000000000000000000815273ffffffffffffffffffffffffffffffffffffffff7f0000000000000000000000000000000000000000000000000000000000000000169063e2ea128890610c46908690869086906004016120f4565b600060405180830381600087803b158015610c6057600080fd5b505af1158015610c74573d6000803e3d6000fd5b50505050505050565b600080610c8f6010600685901c611fc6565b60015410159392505050565b60008060007f000000000000000000000000000000000000000000000000000000000000000073ffffffffffffffffffffffffffffffffffffffff1684604051602401610d04919073ffffffffffffffffffffffffffffffffffffffff91909116815260200190565b604080517fffffffffffffffffffffffffffffffffffffffffffffffffffffffffffffffe08184030181529181526020820180517bffffffffffffffffffffffffffffffffffffffffffffffffffffffff167f70a082310000000000000000000000000000000000000000000000000000000017905251610d85919061215a565b600060405180830381855afa9150503d8060008114610dc0576040519150601f19603f3d011682016040523d82523d6000602084013e610dc5565b606091505b50915091506000828015610dda575060008251115b610de5576000610df9565b81806020019051810190610df99190612195565b151595945050505050565b6000610e1261010083612009565b90506000610e228261010061201d565b610e2c908461205a565b600083815260026020526040902054600190911b915080821615610eac576040517f08c379a000000000000000000000000000000000000000000000000000000000815260206004820152601160248201527f504153535f414c52454144595f555345440000000000000000000000000000006044820152606401610527565b6000928352600260205260409092209117905550565b6000806000610ed18585611382565b91509150610ede816113f2565b509392505050565b60008282604051602001610f2992919091825260601b7fffffffffffffffffffffffffffffffffffffffff00000000000000000000000016602082015260340190565b60405160208183030381529060405280519060200120905092915050565b6000805b8351811015610feb576000848281518110610f6857610f68612071565b6020026020010151905080841015610fab576040805160208101869052908101829052606001604051602081830303815290604052805190602001209350610fd8565b60408051602081018390529081018590526060016040516020818303038152906040528051906020012093505b5080610fe3816120bb565b915050610f4b565b50507f000000000000000000000000000000000000000000000000000000000000000014919050565b6102408261ffff1610611083576040517f08c379a000000000000000000000000000000000000000000000000000000000815260206004820152600d60248201527f494e56414c49445f534f554e44000000000000000000000000000000000000006044820152606401610527565b6110908261ffff16610c7d565b6110f6576040517f08c379a000000000000000000000000000000000000000000000000000000000815260206004820152601b60248201527f494e535455524d454e545f4e4f545f5945545f464f525f53414c4500000000006044820152606401610527565b6111038261ffff166103e5565b1561116a576040517f08c379a000000000000000000000000000000000000000000000000000000000815260206004820152600860248201527f52455345525645440000000000000000000000000000000000000000000000006044820152606401610527565b60007f00000000000000000000000000000000000000000000000000000000000000004210156111ba577f00000000000000000000000000000000000000000000000000000000000000006111dc565b7f00000000000000000000000000000000000000000000000000000000000000005b905060007f0000000000000000000000000000000000000000000000000000000000000000118015611212575061121233610c9b565b1561125a5760646112437f00000000000000000000000000000000000000000000000000000000000000008361201d565b61124d9190612009565b611257908261205a565b90505b803410156112c4576040517f08c379a000000000000000000000000000000000000000000000000000000000815260206004820152600a60248201527f4e4f545f454e4f554748000000000000000000000000000000000000000000006044820152606401610527565b336108fc6112d2833461205a565b6040518115909202916000818181858888f193505050501580156112fa573d6000803e3d6000fd5b506113048161164e565b6040517f9c20551300000000000000000000000000000000000000000000000000000000815261ffff8416600482015273ffffffffffffffffffffffffffffffffffffffff83811660248301527f00000000000000000000000000000000000000000000000000000000000000001690639c20551390604401610c46565b6000808251604114156113b95760208301516040840151606085015160001a6113ad87828585611895565b945094505050506113eb565b8251604014156113e357602083015160408401516113d88683836119ad565b9350935050506113eb565b506000905060025b9250929050565b6000816004811115611406576114066121ae565b141561140f5750565b6001816004811115611423576114236121ae565b141561148b576040517f08c379a000000000000000000000000000000000000000000000000000000000815260206004820152601860248201527f45434453413a20696e76616c6964207369676e617475726500000000000000006044820152606401610527565b600281600481111561149f5761149f6121ae565b1415611507576040517f08c379a000000000000000000000000000000000000000000000000000000000815260206004820152601f60248201527f45434453413a20696e76616c6964207369676e6174757265206c656e677468006044820152606401610527565b600381600481111561151b5761151b6121ae565b14156115a9576040517f08c379a000000000000000000000000000000000000000000000000000000000815260206004820152602260248201527f45434453413a20696e76616c6964207369676e6174757265202773272076616c60448201527f75650000000000000000000000000000000000000000000000000000000000006064820152608401610527565b60048160048111156115bd576115bd6121ae565b141561164b576040517f08c379a000000000000000000000000000000000000000000000000000000000815260206004820152602260248201527f45434453413a20696e76616c6964207369676e6174757265202776272076616c60448201527f75650000000000000000000000000000000000000000000000000000000000006064820152608401610527565b50565b600054801561174d57808211156116d85760405173ffffffffffffffffffffffffffffffffffffffff7f0000000000000000000000000000000000000000000000000000000000000000169082156108fc029083906000818181858888f193505050501580156116c2573d6000803e3d6000fd5b506116cd818361205a565b60008055915061174d565b60405173ffffffffffffffffffffffffffffffffffffffff7f0000000000000000000000000000000000000000000000000000000000000000169083156108fc029084906000818181858888f1935050505015801561173b573d6000803e3d6000fd5b50611746828261205a565b6000555050565b81156107b1577f0000000000000000000000000000000000000000000000000000000000000000156118275760006127106117a87f00000000000000000000000000000000000000000000000000000000000000008561201d565b6117b29190612009565b60405190915073ffffffffffffffffffffffffffffffffffffffff7f0000000000000000000000000000000000000000000000000000000000000000169082156108fc029083906000818181858888f19350505050158015611818573d6000803e3d6000fd5b50611823818461205a565b9250505b81156107b15760405173ffffffffffffffffffffffffffffffffffffffff7f0000000000000000000000000000000000000000000000000000000000000000169083156108fc029084906000818181858888f19350505050158015611890573d6000803e3d6000fd5b505050565b6000807f7fffffffffffffffffffffffffffffff5d576e7357a4501ddfe92f46681b20a08311156118cc57506000905060036119a4565b8460ff16601b141580156118e457508460ff16601c14155b156118f557506000905060046119a4565b6040805160008082526020820180845289905260ff881692820192909252606081018690526080810185905260019060a0016020604051602081039080840390855afa158015611949573d6000803e3d6000fd5b50506040517fffffffffffffffffffffffffffffffffffffffffffffffffffffffffffffffe0015191505073ffffffffffffffffffffffffffffffffffffffff811661199d576000600192509250506119a4565b9150600090505b94509492505050565b6000807f7fffffffffffffffffffffffffffffffffffffffffffffffffffffffffffffff831660ff84901c601b016119e787828885611895565b935093505050935093915050565b73ffffffffffffffffffffffffffffffffffffffff8116811461164b57600080fd5b60008083601f840112611a2957600080fd5b50813567ffffffffffffffff811115611a4157600080fd5b6020830191508360208260051b85010111156113eb57600080fd5b60008060008060608587031215611a7257600080fd5b8435611a7d816119f5565b935060208501359250604085013567ffffffffffffffff811115611aa057600080fd5b611aac87828801611a17565b95989497509550505050565b6101208082528a51908201819052600090610140830190602090818e01845b82811015611b0957815173ffffffffffffffffffffffffffffffffffffffff1685529383019390830190600101611ad7565b5050508192508b8185015250508860408301528760608301528660808301528560a0830152611b3c60c083018615159052565b92151560e08201526101000152979650505050505050565b600060208284031215611b6657600080fd5b5035919050565b803561ffff81168114611b7f57600080fd5b919050565b7f4e487b7100000000000000000000000000000000000000000000000000000000600052604160045260246000fd5b604051601f82017fffffffffffffffffffffffffffffffffffffffffffffffffffffffffffffffe016810167ffffffffffffffff81118282101715611bfa57611bfa611b84565b604052919050565b600067ffffffffffffffff821115611c1c57611c1c611b84565b5060051b60200190565b600082601f830112611c3757600080fd5b81356020611c4c611c4783611c02565b611bb3565b82815260059290921b84018101918181019086841115611c6b57600080fd5b8286015b84811015611c865780358352918301918301611c6f565b509695505050505050565b600080600080600060a08688031215611ca957600080fd5b611cb286611b6d565b9450602080870135611cc3816119f5565b945060408701359350606087013567ffffffffffffffff80821115611ce757600080fd5b818901915089601f830112611cfb57600080fd5b813581811115611d0d57611d0d611b84565b611d3d847fffffffffffffffffffffffffffffffffffffffffffffffffffffffffffffffe0601f84011601611bb3565b8181528b85838601011115611d5157600080fd5b818585018683013760009181019094015291935060808801359180831115611d7857600080fd5b5050611d8688828901611c26565b9150509295509295909350565b600060208284031215611da557600080fd5b8135610408816119f5565b60008060008060808587031215611dc657600080fd5b611dcf85611b6d565b93506020850135611ddf816119f5565b925060408501359150606085013567ffffffffffffffff811115611e0257600080fd5b611e0e87828801611c26565b91505092959194509250565b60008060408385031215611e2d57600080fd5b611e3683611b6d565b91506020830135611e46816119f5565b809150509250929050565b600080600060408486031215611e6657600080fd5b833567ffffffffffffffff811115611e7d57600080fd5b611e8986828701611a17565b9094509250506020840135611e9d816119f5565b809150509250925092565b6020815281602082015260007f07ffffffffffffffffffffffffffffffffffffffffffffffffffffffffffffff831115611ee157600080fd5b8260051b80856040850137600092016040019182525092915050565b60006020808385031215611f1057600080fd5b825167ffffffffffffffff811115611f2757600080fd5b8301601f81018513611f3857600080fd5b8051611f46611c4782611c02565b81815260059190911b82018301908381019087831115611f6557600080fd5b928401925b82841015611f8c578351611f7d816119f5565b82529284019290840190611f6a565b979650505050505050565b7f4e487b7100000000000000000000000000000000000000000000000000000000600052601260045260246000fd5b600082611fd557611fd5611f97565b500690565b7f4e487b7100000000000000000000000000000000000000000000000000000000600052601160045260246000fd5b60008261201857612018611f97565b500490565b6000817fffffffffffffffffffffffffffffffffffffffffffffffffffffffffffffffff048311821515161561205557612055611fda565b500290565b60008282101561206c5761206c611fda565b500390565b7f4e487b7100000000000000000000000000000000000000000000000000000000600052603260045260246000fd5b6000602082840312156120b257600080fd5b61040882611b6d565b60007fffffffffffffffffffffffffffffffffffffffffffffffffffffffffffffffff8214156120ed576120ed611fda565b5060010190565b6040808252810183905260008460608301825b868110156121305761ffff61211b84611b6d565b16825260209283019290910190600101612107565b50809250505073ffffffffffffffffffffffffffffffffffffffff83166020830152949350505050565b6000825160005b8181101561217b5760208186018101518583015201612161565b8181111561218a576000828501525b509190910192915050565b6000602082840312156121a757600080fd5b5051919050565b7f4e487b7100000000000000000000000000000000000000000000000000000000600052602160045260246000fdfea2646970667358221220b36da589c49b92217c02c0c023f4723beba2aee69bff52022dd724f738fbafa664736f6c63430008090033",
  "devdoc": {
    "kind": "dev",
    "methods": {},
    "version": 1
  },
  "userdoc": {
    "kind": "user",
    "methods": {},
    "version": 1
  },
  "storageLayout": {
    "storage": [
      {
        "astId": 12356,
        "contract": "src/bleeps/BleepsFixedPriceSale.sol:BleepsFixedPriceSale",
        "label": "_deploymentCostToPay",
        "offset": 0,
        "slot": "0",
        "type": "t_uint256"
      },
      {
        "astId": 10521,
        "contract": "src/bleeps/BleepsFixedPriceSale.sol:BleepsFixedPriceSale",
        "label": "_uptoInstr",
        "offset": 0,
        "slot": "1",
        "type": "t_uint256"
      },
      {
        "astId": 10525,
        "contract": "src/bleeps/BleepsFixedPriceSale.sol:BleepsFixedPriceSale",
        "label": "_passUsed",
        "offset": 0,
        "slot": "2",
        "type": "t_mapping(t_uint256,t_uint256)"
      }
    ],
    "types": {
      "t_mapping(t_uint256,t_uint256)": {
        "encoding": "mapping",
        "key": "t_uint256",
        "label": "mapping(uint256 => uint256)",
        "numberOfBytes": "32",
        "value": "t_uint256"
      },
      "t_uint256": {
        "encoding": "inplace",
        "label": "uint256",
        "numberOfBytes": "32"
      }
    }
  }
}