{
  "address": "0x883E8D65fFCc5E2847850Ac5d019199dC77960c6",
  "abi": [
    {
      "inputs": [],
      "name": "contractURI",
      "outputs": [
        {
          "internalType": "string",
          "name": "",
          "type": "string"
        }
      ],
      "stateMutability": "pure",
      "type": "function"
    },
    {
      "inputs": [
        {
          "internalType": "uint256",
          "name": "id",
          "type": "uint256"
        }
      ],
      "name": "wav",
      "outputs": [
        {
          "internalType": "string",
          "name": "",
          "type": "string"
        }
      ],
      "stateMutability": "view",
      "type": "function"
    }
  ],
  "transactionHash": "0x6d2dc079d748e446332e8496f767af3f25f5e2c7ca355ded11496213e0db097e",
  "args": [],
  "solcInputHash": "235042954a5a8f8c069928326e8177a8",
  "bytecode": "0x608060405234801561001057600080fd5b50612386806100206000396000f3fe608060405234801561001057600080fd5b50600436106100365760003560e01c8063c4df38261461003b578063e8a3d48514610064575b600080fd5b61004e61004936600461100c565b61006c565b60405161005b9190611055565b60405180910390f35b61004e61007d565b6060610077826100a0565b92915050565b606060405180610b000160405280610ac88152602001611849610ac89139905090565b60408051620186a0808252620186c082019092526060916000919060208201818036833701905050905060006100d6848361068b565b905060006100e5604086611104565b905060006100f86010600688901c611104565b604080516060810182528181529192506101f49160009161231160208301399050600080610127876020611147565b90506001830191508088019050600060405180610120016040528060fc815260200161174d60fc913960408051600480825260a082019092529192506000918291602082016080803683370190505090506000965060005b612df681101561066a5761223e8111156101ac5787156101a7576101a460018961115f565b97505b6101e3565b6101b7600282611104565b6101a7576101f48810156101a7576101a4600189611147565b8060008112156101de576000035b919050565b612af861271062ffffff60038d0260200187015160e81c1602046000805b600381101561060f57600086156105f6578c6102585761022d620f42406002620f42408a0602036101d0565b60029081027ffffffffffffffffffffffffffffffffffffffffffffffffffffffffffff0bdc0010590505b60018d14156102da57620f42408707620d59f881121561027c576007601082020591505b620d59f881131561029357601081620f4240030291505b620d59f88114156102aa57601081620f4240030291505b50620f42407ffffffffffffffffffffffffffffffffffffffffffffffffffffffffffff0bdc09091016207a12002055b60028d14156103145750620f42407ffffffffffffffffffffffffffffffffffffffffffffffffffffffffffff85ee081880701620aae6002055b60038d141561035d57507ffffffffffffffffffffffffffffffffffffffffffffffffffffffffffff0bdc0620f424087076207a12081101561035757620f424091505b50600490055b60048d14156103a657507ffffffffffffffffffffffffffffffffffffffffffffffffffffffffffff0bdc0620f424087076204c4b48110156103a057620f424091505b50600490055b60058d141561040557600487029050620f42406207a120620186a06207a12060026207a1206103e8620f4240621e8480620f42406207a1208b020507036101d0565b03056103fd620f4240621e84808807036101d0565b010303020590505b60068d14156105025760208601516040870151606088015160808901516380000000613039856341c64e6d020106935062027100623d0900848d03020482915080620f424001620f42406380000000621e848088020403828401020592508b93506305f5e1006064820260af0360036004868601020502059550507ffffffffffffffffffffffffffffffffffffffffffffffffffffffffffff0bdc08512156104cc577ffffffffffffffffffffffffffffffffffffffffffffffffffffffffffff0bdc094505b620f42408513156104de57620f424094505b60208a0193909352604089019190915260608801526080870152600a600591909102055b60078d141561057057506002868102906203d090906207a1206105517ffffffffffffffffffffffffffffffffffffffffffffffffffffffffffff0bdc0621e8480608060fe8e020507016101d0565b0305036207a12061056b620f4240621e84808507036101d0565b030190505b60088d14156105dd5750600760056002621e8480608060fe8b02058190077fffffffffffffffffffffffffffffffffffffffffffffffffffffffffffe91ca001829005918a0207017fffffffffffffffffffffffffffffffffffffffffffffffffffffffffffe54c100102055b6102bc8c82020590506080621e84806101008302050190505b95830195600882026010031b9190910190600101610201565b50603f8160121c168801518753600187019650603f81600c1c168801518753600187019650603f8160061c168801518753600187019650603f81168801518753505060019490940193610663600382611147565b905061017f565b5061067a8b8587612df68e6107a5565b50989b9a5050505050505050505050565b6000806106998460006109d0565b905060006106a8856000610c9b565b9050600082826106b788610edc565b6106c28960016109d0565b6106cd8a6001610c9b565b87876040516020016106e59796959493929190611192565b604080517fffffffffffffffffffffffffffffffffffffffffffffffffffffffffffffffe0818403018152919052805190915060208083019087015b6020831061075e57815181527fffffffffffffffffffffffffffffffffffffffffffffffffffffffffffffffe09092019160209182019101610721565b905181516020939093036101000a7fffffffffffffffffffffffffffffffffffffffffffffffffffffffffffffffff01801990911692169190911790525195945050505050565b60228453600184019350607d84536001840193506020858503038552600060086001846107d2919061115f565b6107dd9060026115c8565b6107e890602c611147565b6107f2919061115f565b90506000602c610803836008611147565b61080d919061115f565b9050603461081c846020611147565b610826919061115f565b603f602084901b64ff0000000016601085811b63ff000000169190910162ff00008616019085901c61ff0016016546000000005701602a81901c919091168701519189019750908753600187019650603f8160241c168601518753600187019650603f81601e1c168601518753600187019650603f8160181c168601518753600187019650603f8160121c168601518753600187019650603f81600c1c168601518753600187019650603f8160061c168601518753600187019650603f811686015187535060046108f8846020611147565b610902919061115f565b603f602083901b64ff0000000016601084811b63ff000000169190910162ff00008516019084901c61ff0016016561000000005701602a81901c919091168701519189019750908753600187019650603f8160241c168601518753600187019650603f81601e1c168601518753600187019650603f8160181c168601518753600187019650603f8160121c168601518753600187019650603f81600c1c168601518753600187019650603f8160061c168601518753600187019650603f811686015187535050505050505050565b606060006109e36010600686901c611104565b905080610a27576040518060400160405280600881526020017f545249414e474c450000000000000000000000000000000000000000000000008152509150610c94565b8060011415610aae5782610a70576040518060400160405280600c81526020017f54494c5445442532305341570000000000000000000000000000000000000000815250610aa7565b6040518060400160405280600e81526020017f54494c54454425323532305341570000000000000000000000000000000000008152505b9150610c94565b8060021415610af4576040518060400160405280600381526020017f53415700000000000000000000000000000000000000000000000000000000008152509150610c94565b8060031415610b3a576040518060400160405280600681526020017f53515541524500000000000000000000000000000000000000000000000000008152509150610c94565b8060041415610b80576040518060400160405280600581526020017f50554c53450000000000000000000000000000000000000000000000000000008152509150610c94565b8060051415610bc6576040518060400160405280600581526020017f4f5247414e0000000000000000000000000000000000000000000000000000008152509150610c94565b8060061415610c0c576040518060400160405280600581526020017f4e4f4953450000000000000000000000000000000000000000000000000000008152509150610c94565b8060071415610c52576040518060400160405280600681526020017f50484153455200000000000000000000000000000000000000000000000000008152509150610c94565b8060081415610c94576040518060400160405280600981526020017f46554e4b595f534157000000000000000000000000000000000000000000000081525091505b5092915050565b60606000610caa604085611104565b90506000610cb9600c83611104565b90508060ff811615610cd35780610ccf81611605565b9150505b60028260ff161115610ced5780610ce981611605565b9150505b60058260ff161115610d075780610d0381611605565b9150505b60078260ff161115610d215780610d1d81611605565b9150505b60098260ff161115610d3b5780610d3781611605565b9150505b60408051808201909152600181527f5f00000000000000000000000000000000000000000000000000000000000000602082015293506007610d7e826002611640565b610d889190611665565b610d93906041611640565b60f81b84600081518110610da957610da9611687565b60200101907effffffffffffffffffffffffffffffffffffffffffffffffffffffffffffff1916908160001a9053508160ff1660011480610ded57508160ff166003145b80610dfb57508160ff166006145b80610e0957508160ff166008145b80610e1757508160ff16600a145b15610e6c578415610e495783604051602001610e3391906116b6565b6040516020818303038152906040529350610e6c565b83604051602001610e5a91906116f7565b60405160208183030381529060405293505b610e77600c84611738565b610e82906030611640565b60f81b8460018651610e94919061115f565b81518110610ea457610ea4611687565b60200101907effffffffffffffffffffffffffffffffffffffffffffffffffffffffffffff1916908160001a90535050505092915050565b606081610f1c57505060408051808201909152600181527f3000000000000000000000000000000000000000000000000000000000000000602082015290565b8160005b8115610f3457600101600a82049150610f20565b60008167ffffffffffffffff811115610f4f57610f4f6110a6565b6040519080825280601f01601f191660200182016040528015610f79576020820181803683370190505b5090507fffffffffffffffffffffffffffffffffffffffffffffffffffffffffffffffff82015b851561100357600a860660300160f81b82828060019003935081518110610fc957610fc9611687565b60200101907effffffffffffffffffffffffffffffffffffffffffffffffffffffffffffff1916908160001a905350600a86049550610fa0565b50949350505050565b60006020828403121561101e57600080fd5b5035919050565b60005b83811015611040578181015183820152602001611028565b8381111561104f576000848401525b50505050565b6020815260008251806020840152611074816040850160208701611025565b601f017fffffffffffffffffffffffffffffffffffffffffffffffffffffffffffffffe0169190910160400192915050565b7f4e487b7100000000000000000000000000000000000000000000000000000000600052604160045260246000fd5b7f4e487b7100000000000000000000000000000000000000000000000000000000600052601260045260246000fd5b600082611113576111136110d5565b500690565b7f4e487b7100000000000000000000000000000000000000000000000000000000600052601160045260246000fd5b6000821982111561115a5761115a611118565b500190565b60008282101561117157611171611118565b500390565b60008151611188818560208601611025565b9290920192915050565b7f646174613a6170706c69636174696f6e2f6a736f6e2c7b226e616d65223a22008152600088516111ca81601f850160208d01611025565b7f2532300000000000000000000000000000000000000000000000000000000000601f918401918201528851611207816022840160208d01611025565b7f222c226465736372697074696f6e223a2241253230736f756e6425323066756c910160228101919091527f6c7925323067656e6572617465642532306f6e636861696e222c22657874657260428201527f6e616c5f75726c223a220000000000000000000000000000000000000000000060628201527f68747470733a2f2f626c656570732e6172742f626c656570732f25323369643d606c8201526114186114126112b7608c84018b611176565b7f222c22696d616765223a22646174613a696d6167652f7376672b786d6c2c3c7381527f76672532353230786d6c6e733d27687474703a2f2f7777772e77332e6f72672f60208201527f323030302f73766727253235323076696577426f783d2730253235323030253260408201527f3532303634253235323033322725323532303e3c746578742532353230783d2760608201527f3332272532353230793d273136272532353230646f6d696e616e742d6261736560808201527f6c696e653d276d6964646c65272532353230746578742d616e63686f723d276d60a08201527f6964646c652725323532307374796c653d2766696c6c3a25323532307267622860c08201527f38342c25323532303130322c2532353230323231293b2532353230666f6e742d60e08201527f73697a653a2532353230313270783b273e0000000000000000000000000000006101008201526101110190565b88611176565b7f25323000000000000000000000000000000000000000000000000000000000008152905061144a6003820187611176565b7f3c2f746578743e3c2f7376673e222c0000000000000000000000000000000000815290507f2261747472696275746573223a5b7b2274726169745f74797065223a22496e73600f8201527f7472756d656e74222c2276616c7565223a220000000000000000000000000000602f82015261152261151c6114cd60418401611412565b7f227d2c7b2274726169745f74797065223a224e6f7465222c2276616c7565223a81527f2200000000000000000000000000000000000000000000000000000000000000602082015260210190565b85611176565b7f227d5d000000000000000000000000000000000000000000000000000000000081527f22616e696d6174696f6e5f75726c223a22646174613a617564696f2f7761763b60038201527f6261736536342c556b6c47526741414141425851565a465a6d3130494241414160238201527f414142414145412b436f414150425641414142414167415a474630595141410060438201526062019a9950505050505050505050565b6000817fffffffffffffffffffffffffffffffffffffffffffffffffffffffffffffffff048311821515161561160057611600611118565b500290565b600060ff82168061161857611618611118565b7fffffffffffffffffffffffffffffffffffffffffffffffffffffffffffffffff0192915050565b600060ff821660ff84168060ff0382111561165d5761165d611118565b019392505050565b600060ff831680611678576116786110d5565b8060ff84160691505092915050565b7f4e487b7100000000000000000000000000000000000000000000000000000000600052603260045260246000fd5b600082516116c8818460208701611025565b7f25323532335f0000000000000000000000000000000000000000000000000000920191825250600601919050565b60008251611709818460208701611025565b7f2532335f00000000000000000000000000000000000000000000000000000000920191825250600401919050565b600082611747576117476110d5565b50049056fe00198d001b12001cae001e6200203100221b00242200264800288f002af8002d8600303b00331900362300395b003cc4004061004435004844004c9000511d0055f0005b0c006076006633006c460072b60079890080c300886b00908700992000a23a00abe000b61800c0ec00cc6500d88d00e56d00f3110101850110d601210f01323f0144750157c0016c310181d90198ca01b11901cada01e62302030b0221ab02421e02647e0288ea02af8002d8620303b10331940362320395b403cc4604061604435704843c04c8fc0511d4055f0005b0c306076306632906c464072b6707988b080c2c0886ad0908770991f90a23a80abe000b61860c0ec5646174613a6170706c69636174696f6e2f6a736f6e2c7b226e616d65223a22426c65657073222c226465736372697074696f6e223a22436f6d706f7361626c65253230536f756e647325323046756c6c7925323047656e6572617465642532304f6e2d436861696e222c22696d616765223a22646174613a696d6167652f7376672b786d6c3b6261736536342c50484e325a79423462577875637a30696148523063446f764c336433647935334d793576636d63764d6a41774d43397a646d636949485a705a58644362336739496a41674d4341314d43417a4f4334774e5349676333523562475539496d4a685932746e636d3931626d51745932397362334936643268706447556949443438633352356247552b49307870626d56664d5342375957357062574630615739754f6e423162484e6c4944467a49476c755a6d6c756158526c4f3246756157316864476c766269316b5a57786865546f754d54567a4f33306a54476c755a56387949487468626d6c74595852706232343663485673633255674d584d676157356d61573570644755375957357062574630615739754c57526c624746354f69347a4d484d3766534e4d6157356c587a4d67653246756157316864476c76626a70776457787a5a53417863794270626d5a70626d6c305a547468626d6c7459585270623234745a47567359586b364c6a5131637a743949307870626d56664e4342375957357062574630615739754f6e423162484e6c4944467a49476c755a6d6c756158526c4f3246756157316864476c766269316b5a57786865546f754e6a427a4f33306a54476c755a56383149487468626d6c74595852706232343663485673633255674d584d676157356d61573570644755375957357062574630615739754c57526c624746354f6934334e584d3766534e4d6157356c587a5967653246756157316864476c76626a70776457787a5a53417863794270626d5a70626d6c305a547468626d6c7459585270623234745a47567359586b364c6a6b77637a743949307870626d56664e7942375957357062574630615739754f6e423162484e6c4944467a49476c755a6d6c756158526c4f3246756157316864476c766269316b5a57786865546f784c6a4131637a743949307870626d56664f4342375957357062574630615739754f6e423162484e6c4944467a49476c755a6d6c756158526c4f3246756157316864476c766269316b5a57786865546f784c6a4977637a743949307870626d56664f5342375957357062574630615739754f6e423162484e6c4944467a49476c755a6d6c756158526c4f3246756157316864476c766269316b5a57786865546f784c6a4d31637a74395147746c65575a795957316c637942776457787a5a5342374d43563764484a68626e4e6d62334a744f69427a593246735a566b6f4d536b3764484a68626e4e6d62334a744c57397961576470626a6f314d4355674e54416c4f3330314d435567653352795957357a5a6d397962546f6763324e686247565a4b4334334b547430636d467563325a76636d307462334a705a326c754f6941314d4355674e54416c4f3330784d44416c49487430636d467563325a76636d303649484e6a5957786c575367784b547430636d467563325a76636d307462334a705a326c754f6941314d4355674e54416c4f3331395043397a64486c735a54343863474630614342705a44306954476c755a5638784969426b595852684c57356862575539496b7870626d55674d5349675a443069545441754f5445734d54564d4d4334334f4377784e5545784c4445734d4377774c4441734d4377784e6e5932595445734d5377774c4445734d4377794c44427a4d4377774c4441734d4659784e6d45784c4445734d4377774c4441744d533078534441754f5446614969382b504842686447676761575139496b7870626d56664d6949675a474630595331755957316c50534a4d6157356c4944496949475139496b30324c6a6b784c446c4d4e6934334f437735515445734d5377774c4441734d4377324c444577566a4934595445734d5377774c4445734d4377794c44427a4d4377774c4441734d4659784d4545784c4445734d4377774c4441734e797735534459754f5446614969382b504842686447676761575139496b7870626d56664d7949675a474630595331755957316c50534a4d6157356c49444d6949475139496b30784d6934354d537777544445794c6a63344c4442424d5377784c4441734d4377774c4445794c4446574d7a64684d5377784c4441734d5377774c4449734d484d774c4441734d437777566a46684d5377784c4441734d4377774c5445744d5567784d6934354d566f694c7a343863474630614342705a44306954476c755a5638304969426b595852684c57356862575539496b7870626d55674e4349675a443069545445344c6a6b784c444577624330774c6a45794c4442424d5377784c4441734d4377774c4445344c444578566a4933595445734d5377774c4445734d4377794c44427a4d4377774c4441734d4659784d5745784c4445734d4377774c4441744d533078534445344c6a6b7857694976506a78775958526f49476c6b50534a4d6157356c587a55694947526864474574626d46745a54306954476c755a5341314969426b50534a4e4d6a51754f5445734d5456734c5441754d5449734d4545784c4445734d4377774c4441734d6a51734d545a324e6d45784c4445734d4377774c4441734d697777637a41734d4377774c4442574d545a684d5377784c4441734d4377774c5445744d5567794e4334354d566f694c7a343863474630614342705a44306954476c755a5638324969426b595852684c57356862575539496b7870626d55674e6949675a44306954544d774c6a6b784c444577624330774c6a45794c4442424d5377784c4441734d4377774c444d774c444578566a4933595445734d5377774c4445734d4377794c44427a4d4377774c4441734d4659784d5745784c4445734d4377774c4441744d53307853444d774c6a6b7857694976506a78775958526f49476c6b50534a4d6157356c587a63694947526864474574626d46745a54306954476c755a5341334969426b50534a4e4d7a59754f5445734d45777a4e6934334f437777515445734d5377774c4441734d43777a4e697778566a4d33595445734d5377774c4445734d4377794c44427a4d4377774c4441734d465978595445734d5377774c4441734d4330784c5446494d7a59754f5446614969382b504842686447676761575139496b7870626d56664f4349675a474630595331755957316c50534a4d6157356c4944676949475139496b30304d6934354d537735544451794c6a63344c446c424d5377784c4441734d4377774c4451794c444577566a4934595445734d5377774c4445734d4377794c44427a4d4377774c4441734d4659784d4745784c4445734d4377774c4441744d533078534451794c6a6b7857694976506a78775958526f49476c6b50534a4d6157356c587a6b694947526864474574626d46745a54306954476c755a5341354969426b50534a4e4e4467754f5445734d5456734c5441754d5449734d4545784c4445734d4377774c4441734e4467734d545a324e6d45784c4445734d4377784c4441734d697777637a41734d4377774c4442574d545a684d5377784c4441734d4377774c5445744d5567304f4334354d566f694c7a34384c334e325a7a344b222c2265787465726e616c5f6c696e6b223a2268747470733a2f2f626c656570732e617274227d4142434445464748494a4b4c4d4e4f505152535455565758595a6162636465666768696a6b6c6d6e6f707172737475767778797a303132333435363738392b2fa2646970667358221220ec2fc0183ca7fbeb5499872d6b42ff9dad2ca323d4c61189bfb709e2ac69b59c64736f6c63430008090033",
  "devdoc": {
    "kind": "dev",
    "methods": {},
    "version": 1
  },
  "userdoc": {
    "kind": "user",
    "methods": {},
    "version": 1
  },
  "storageLayout": {
    "storage": [],
    "types": null
  }
}