{
  "address": "0xCc4E49EC86a6A7E6c90c98920Db0DA91EB72586f",
  "abi": [
    {
      "inputs": [
        {
          "internalType": "contract Bleeps",
          "name": "bleeps",
          "type": "address"
        },
        {
          "internalType": "uint256",
          "name": "price",
          "type": "uint256"
        },
        {
          "internalType": "uint256",
          "name": "whitelistPrice",
          "type": "uint256"
        },
        {
          "internalType": "uint256",
          "name": "whitelistTimeLimit",
          "type": "uint256"
        },
        {
          "internalType": "bytes32",
          "name": "whitelistMerkleRoot",
          "type": "bytes32"
        },
        {
          "internalType": "address payable",
          "name": "recipient",
          "type": "address"
        },
        {
          "internalType": "contract IERC721",
          "name": "mandalas",
          "type": "address"
        },
        {
          "internalType": "uint256",
          "name": "mandalasDiscountPercentage",
          "type": "uint256"
        },
        {
          "internalType": "uint256",
          "name": "uptoInstr",
          "type": "uint256"
        }
      ],
      "stateMutability": "nonpayable",
      "type": "constructor"
    },
    {
      "inputs": [
        {
          "internalType": "uint256",
          "name": "id",
          "type": "uint256"
        }
      ],
      "name": "isOpenForSale",
      "outputs": [
        {
          "internalType": "bool",
          "name": "",
          "type": "bool"
        }
      ],
      "stateMutability": "nonpayable",
      "type": "function"
    },
    {
      "inputs": [
        {
          "internalType": "uint256",
          "name": "passId",
          "type": "uint256"
        }
      ],
      "name": "isPassUsed",
      "outputs": [
        {
          "internalType": "bool",
          "name": "",
          "type": "bool"
        }
      ],
      "stateMutability": "view",
      "type": "function"
    },
    {
      "inputs": [
        {
          "internalType": "uint256",
          "name": "id",
          "type": "uint256"
        }
      ],
      "name": "isReserved",
      "outputs": [
        {
          "internalType": "bool",
          "name": "",
          "type": "bool"
        }
      ],
      "stateMutability": "nonpayable",
      "type": "function"
    },
    {
      "inputs": [
        {
          "internalType": "uint16",
          "name": "id",
          "type": "uint16"
        },
        {
          "internalType": "address",
          "name": "to",
          "type": "address"
        }
      ],
      "name": "mint",
      "outputs": [],
      "stateMutability": "payable",
      "type": "function"
    },
    {
      "inputs": [
        {
          "internalType": "uint16",
          "name": "id",
          "type": "uint16"
        },
        {
          "internalType": "address",
          "name": "to",
          "type": "address"
        },
        {
          "internalType": "uint256",
          "name": "passId",
          "type": "uint256"
        },
        {
          "internalType": "bytes32[]",
          "name": "proof",
          "type": "bytes32[]"
        }
      ],
      "name": "mintWithPassId",
      "outputs": [],
      "stateMutability": "payable",
      "type": "function"
    },
    {
      "inputs": [
        {
          "internalType": "uint16",
          "name": "id",
          "type": "uint16"
        },
        {
          "internalType": "address",
          "name": "to",
          "type": "address"
        },
        {
          "internalType": "uint256",
          "name": "passId",
          "type": "uint256"
        },
        {
          "internalType": "bytes",
          "name": "signature",
          "type": "bytes"
        },
        {
          "internalType": "bytes32[]",
          "name": "proof",
          "type": "bytes32[]"
        }
      ],
      "name": "mintWithSalePass",
      "outputs": [],
      "stateMutability": "payable",
      "type": "function"
    },
    {
      "inputs": [
        {
          "internalType": "address",
          "name": "purchaser",
          "type": "address"
        },
        {
          "internalType": "uint256",
          "name": "passId",
          "type": "uint256"
        },
        {
          "internalType": "uint256[]",
          "name": "ids",
          "type": "uint256[]"
        }
      ],
      "name": "ownersAndPriceInfo",
      "outputs": [
        {
          "internalType": "address[]",
          "name": "addresses",
          "type": "address[]"
        },
        {
          "internalType": "uint256",
          "name": "price",
          "type": "uint256"
        },
        {
          "internalType": "uint256",
          "name": "whitelistPrice",
          "type": "uint256"
        },
        {
          "internalType": "uint256",
          "name": "whitelistTimeLimit",
          "type": "uint256"
        },
        {
          "internalType": "bytes32",
          "name": "whitelistMerkleRoot",
          "type": "bytes32"
        },
        {
          "internalType": "uint256",
          "name": "mandalasDiscountPercentage",
          "type": "uint256"
        },
        {
          "internalType": "bool",
          "name": "hasMandalas",
          "type": "bool"
        },
        {
          "internalType": "bool",
          "name": "passUsed",
          "type": "bool"
        },
        {
          "internalType": "uint256",
          "name": "uptoInstr",
          "type": "uint256"
        }
      ],
      "stateMutability": "view",
      "type": "function"
    },
    {
      "inputs": [
        {
          "internalType": "address",
          "name": "purchaser",
          "type": "address"
        }
      ],
      "name": "priceInfo",
      "outputs": [
        {
          "internalType": "uint256",
          "name": "price",
          "type": "uint256"
        },
        {
          "internalType": "uint256",
          "name": "whitelistPrice",
          "type": "uint256"
        },
        {
          "internalType": "uint256",
          "name": "whitelistTimeLimit",
          "type": "uint256"
        },
        {
          "internalType": "bytes32",
          "name": "whitelistMerkleRoot",
          "type": "bytes32"
        },
        {
          "internalType": "uint256",
          "name": "mandalasDiscountPercentage",
          "type": "uint256"
        },
        {
          "internalType": "bool",
          "name": "hasMandalas",
          "type": "bool"
        }
      ],
      "stateMutability": "view",
      "type": "function"
    },
    {
      "inputs": [
        {
          "internalType": "uint16",
          "name": "id",
          "type": "uint16"
        },
        {
          "internalType": "address",
          "name": "to",
          "type": "address"
        }
      ],
      "name": "recipientMint",
      "outputs": [],
      "stateMutability": "nonpayable",
      "type": "function"
    }
  ],
  "transactionHash": "0xd65693d2c8d9f7f68fbda79125cd6487e4d888a686000058e951d7b2f0621028",
  "args": [
    "0xDd7ce3658a01bbADFf209EC19B259D30CE9559E3",
    "100000000000000000",
    "100000000000000000",
    1637097748,
    "0x5e1fae6600e239434004e30cf1a6e5585df91196e307b9ba5e1e843462225d5e",
    "0xE53cd71271AcAdbeb0f64d9c8C62bBdDc8cA9e66",
    "0x434BADEA3943c5B3D86366Fa03c77201B6770A75",
    0,
    2
  ],
  "linkedData": {
    "leaves": [
      {
        "passId": "0",
        "signer": "0x4e9542ebC5244e4c07572c3DA1aF5d7968DdF02f"
      },
      {
        "passId": "1",
        "signer": "0x840Da70Dcd8EF9DCb4C37BFBC7348B0502beB69D"
      },
      {
        "passId": "2",
        "signer": "0xEBc854A59BB59E51a4b75fC870E3134c6995ABbD"
      },
      {
        "passId": "3",
        "signer": "0x2a15c47F275DB56d17ed3F5e20bc4DEAfa674c9c"
      },
      {
        "passId": "4",
        "signer": "0xf791d86B4EDdDc4B5146Ba0e6D3c7c78916F0efD"
      },
      {
        "passId": "5",
        "signer": "0x1a308781aaA7840C44781743878425EA3fFbCe58"
      },
      {
        "passId": "6",
        "signer": "0x94833dcbcD42663Ca4BC3C3a0fe0df2328d985A9"
      },
      {
        "passId": "7",
        "signer": "0x1B66c01b8f35815947d296Ab5559866Fa43B34E0"
      },
      {
        "passId": "8",
        "signer": "0x1899AB070c2A5753c1133C896277A6941b9E4c6d"
      },
      {
        "passId": "9",
        "signer": "0xe7006f8A94ae4967B44790Ddf897934D18a3dd35"
      },
      {
        "passId": "10",
        "signer": "0x08838eeB859e61BEBeA513ae191a4E2224eB94C6"
      },
      {
        "passId": "11",
        "signer": "0xe2f8Ee2a17b6690b49dB3b135448CAb323F00f5B"
      },
      {
        "passId": "12",
        "signer": "0xFCaec32eD8daD012D776712e2cf06e76A0c37b9F"
      },
      {
        "passId": "13",
        "signer": "0xeA022e3D0B32B82945c340653649126564d22C24"
      },
      {
        "passId": "14",
        "signer": "0x4b274E05D6E5EFE4C006d06Bd623ffE2F8668054"
      },
      {
        "passId": "15",
        "signer": "0xAF3Ebc7435e1E8E9c1C86a45e3CEDE40be7Ce8a4"
      },
      {
        "passId": "16",
        "signer": "0x535057c4a5dD6F091c65b7502a04F3Aa447E72dd"
      },
      {
        "passId": "17",
        "signer": "0x37f3ea280fa2789EbB1a33cf77eBEFb2bC875C04"
      },
      {
        "passId": "18",
        "signer": "0x901b1f0c6c63B5D5A71Ef5da50643E56eB4c51E5"
      },
      {
        "passId": "19",
        "signer": "0x31816dF8E725221E0b825230521Dd62071a47563"
      },
      {
        "passId": "20",
        "signer": "0x167aB0bB65Ec87150e21C07eB76173853EC09e99"
      },
      {
        "passId": "21",
        "signer": "0x45cc2b44Dcc74FcD46bC359d4A777f3c85E3454B"
      },
      {
        "passId": "22",
        "signer": "0xA93D61aC8154a2762F6f667629e10d171B3Bb894"
      },
      {
        "passId": "23",
        "signer": "0x29BE0a4Af7f2bE5Aa99d3bdb0fc9DAFaF363c559"
      },
      {
        "passId": "24",
        "signer": "0x01734343b556d46a351BCF1875Ef6F6a5f80a57C"
      },
      {
        "passId": "25",
        "signer": "0x898A4d57aE970cE60E27F3583E425F9a16B1b899"
      },
      {
        "passId": "26",
        "signer": "0x1D3cb59c48a5Dd2481dB31ADA3c160b1eB597453"
      },
      {
        "passId": "27",
        "signer": "0xC6206821580c62E7528ce101a593A27493470e41"
      },
      {
        "passId": "28",
        "signer": "0x63E8a22613c4fE0d6a58576623930c56612EF4b6"
      },
      {
        "passId": "29",
        "signer": "0x0d1663Ce0CCbf55bfb096628db260afcdCf9c5e2"
      },
      {
        "passId": "30",
        "signer": "0x667f7979a0d7bD95B1476EeC729339EbA573DdEB"
      },
      {
        "passId": "31",
        "signer": "0x321067E7078CbB4FDa2d09eB13b96A290D0E89Ba"
      },
      {
        "passId": "32",
        "signer": "0x0D9945694B5565E706c3381E1d4aB64b12f481C5"
      },
      {
        "passId": "33",
        "signer": "0xA0E5f32Da28873Fb7881a2F668d82bb0ceA06C17"
      },
      {
        "passId": "34",
        "signer": "0x87655019ad2b603eA9996937FC5ad900601B0ceD"
      },
      {
        "passId": "35",
        "signer": "0x6d6ED8CcA6614542E0ec865A842382c515e695Ab"
      },
      {
        "passId": "36",
        "signer": "0xeF2815d7ECf1481AF1658b78a88e59BE82268B14"
      },
      {
        "passId": "37",
        "signer": "0x63d85b916D73b9138Ba4C1840f45FF01b44e0D40"
      },
      {
        "passId": "38",
        "signer": "0xc09fFc6D9DD2225D7687e9e83a62655EfAE77721"
      },
      {
        "passId": "39",
        "signer": "0x514D5E175745256b94aD26E8d11313340e66542d"
      },
      {
        "passId": "40",
        "signer": "0xe3a32a029c62C7D46E58f7BC02D2ACbd3Ac4Eba6"
      },
      {
        "passId": "41",
        "signer": "0xd16131223fAa0392E015972EB8749767089A8d79"
      },
      {
        "passId": "42",
        "signer": "0x2D42B73D30f344E986683E030880a918bD978eef"
      },
      {
        "passId": "43",
        "signer": "0xd239Cf2a7C8DA1651aa30e322d0FBa0911350449"
      },
      {
        "passId": "44",
        "signer": "0xdFD55cF1B6a57178541E240070a80a20caF8DAD3"
      },
      {
        "passId": "45",
        "signer": "0x35A6463d24fb98891Bfe6F2Ff6bfDcC8695afd3b"
      },
      {
        "passId": "46",
        "signer": "0x713028280C136fdD30Cf18c4FBC06D4F994973D3"
      },
      {
        "passId": "47",
        "signer": "0x28FB8f0fA4760ecB6aD64DA5578F46D369151600"
      },
      {
        "passId": "48",
        "signer": "0x6144cA3830BeD8e419205ebB0B3dFE222d1B3A8a"
      },
      {
        "passId": "49",
        "signer": "0x57a30533FB5838c7f506811fB8DBDb8474c6b199"
      },
      {
        "passId": "50",
        "signer": "0x8ca8eaa0b4DBAf76321bDe3dFD564460219B7A1e"
      },
      {
        "passId": "51",
        "signer": "0xEDc0c5fdc7a4ED946ecB36260F5e086fdB2ADe03"
      },
      {
        "passId": "52",
        "signer": "0x4e60FF330B36902b0Ef6bf24830b4Fe89d2188de"
      },
      {
        "passId": "53",
        "signer": "0x58764cC49793a8D8EeC60392f8b698129fb74A7A"
      },
      {
        "passId": "54",
        "signer": "0xF32562a0eA12046D593A8DD35334ebEC6f01D2F8"
      },
      {
        "passId": "55",
        "signer": "0x7b89E388d14e0be5a026762C6bF5C012418994f8"
      },
      {
        "passId": "56",
        "signer": "0x6da06aa2E15e7C71af96A64752DA9a719Aa08413"
      },
      {
        "passId": "57",
        "signer": "0x92b11BFa9d4fD38e6e273422FfAc3711CB9AbCdc"
      },
      {
        "passId": "58",
        "signer": "0x7Faa878B2950406982533eAfc4865e90427ea223"
      },
      {
        "passId": "59",
        "signer": "0x53EcB1774F62fAA9E0591a9F758bDe41677583BE"
      },
      {
        "passId": "60",
        "signer": "0x3C486BD14A989C264C86528E72129a0055D7F884"
      },
      {
        "passId": "61",
        "signer": "0xfD691A7731B79c7eAA540CE4dA8441D8c1D690BA"
      },
      {
        "passId": "62",
        "signer": "0x9a4823aA308D5FE554E689Ce6Ea044727B8aafBD"
      },
      {
        "passId": "63",
        "signer": "0x0d30175516ec7b9E3DBe1dCb912B2f7Acec4317D"
      },
      {
        "passId": "64",
        "signer": "0x50a3619320AA5C9B6A3C19478C2603aaC76e0Eda"
      },
      {
        "passId": "65",
        "signer": "0xc8D8e80f4c774E1521D741D55880E663F3E784D7"
      },
      {
        "passId": "66",
        "signer": "0xe8fEaEd0dEb267EC07C348aBf854E7eabe0795Bb"
      },
      {
        "passId": "67",
        "signer": "0xE5B9224511BDB7C80Cbc306717870B3E3f380E52"
      },
      {
        "passId": "68",
        "signer": "0xdAB289426b9Bd056F92A6198837d983d4642f5eE"
      },
      {
        "passId": "69",
        "signer": "0xB9069E3106e0E39B14B07AF91A46136099c93d41"
      },
      {
        "passId": "70",
        "signer": "0x654EfD7d15216f34446aeeeDA1d381AB1BCc536B"
      },
      {
        "passId": "71",
        "signer": "0x44b03415C9C4Bb44A7771917aC580907e169Ddb3"
      },
      {
        "passId": "72",
        "signer": "0xad0d168255Dd7Db87517DfDDE58312C48b91cA18"
      },
      {
        "passId": "73",
        "signer": "0xf16dAed160b2b5332d5CE01B19309B6dd04bc1bD"
      },
      {
        "passId": "74",
        "signer": "0x74Ff98F5b5848C8f880B92231dEA6418552d27e0"
      },
      {
        "passId": "75",
        "signer": "0x51B8C03eC22F6b24366272C415590844B4DBAB31"
      },
      {
        "passId": "76",
        "signer": "0xd99ad8E1C6855E61e0B74Bb33AC781D4b004CA87"
      },
      {
        "passId": "77",
        "signer": "0x553199cc97af23Ce75d0641945Af2442b701C523"
      },
      {
        "passId": "78",
        "signer": "0xc66e3A326f85d07a4193F4294c1CE0fe427bf67d"
      },
      {
        "passId": "79",
        "signer": "0xCec1e20d59e7e93A994CB3561502Ce65232b721f"
      },
      {
        "passId": "80",
        "signer": "0xd5EC4fd56faEbA9aCb36b9F913c651E4c2e28926"
      },
      {
        "passId": "81",
        "signer": "0x33b60e04351707e5e5041E2a8236a9eC899815ed"
      },
      {
        "passId": "82",
        "signer": "0x47311c877EBE27Cb2EE6f1f485a2d4BACFC5974d"
      },
      {
        "passId": "83",
        "signer": "0x901E6eDE3575926E9847e90F835D78E2df817bA5"
      },
      {
        "passId": "84",
        "signer": "0x8B6BdcEB19EbDBF099228CAEb804d925489E9790"
      },
      {
        "passId": "85",
        "signer": "0xCC9d783Fd00770285bc2d1E339A94026DC98c179"
      },
      {
        "passId": "86",
        "signer": "0xbc06d05B779057371B004ED158CC9f1FF56Db1f5"
      },
      {
        "passId": "87",
        "signer": "0x3a2D274300354853f41955919E81b86d9f04734e"
      },
      {
        "passId": "88",
        "signer": "0xa1304A5F5873B63f3Fa4D67E11A58de196566e07"
      },
      {
        "passId": "89",
        "signer": "0x4caA0C2b09bCAeE378375d6531a9A1ffbB4400c5"
      },
      {
        "passId": "90",
        "signer": "0x348Df42cCF3BC0861599111E80C0F2E8ec4A0b94"
      },
      {
        "passId": "91",
        "signer": "0x35e1D09a4b8A97BC286771b8508Ec9354b10843c"
      },
      {
        "passId": "92",
        "signer": "0x48c20Aa548898050ea7A160Ab99942b5b6c8b155"
      },
      {
        "passId": "93",
        "signer": "0x77092B1720574C4D8714c13c2E79Df30d89A0766"
      },
      {
        "passId": "94",
        "signer": "0xB6A7318802C66A6A52098Eba3875EFc55588a85E"
      },
      {
        "passId": "95",
        "signer": "0x17FD91cd0d8a09FE16cAe76186a2071cF7FB160e"
      },
      {
        "passId": "96",
        "signer": "0xc291Ff34A76D089392568D9ccC606fb5eA3A47CF"
      },
      {
        "passId": "97",
        "signer": "0x553dCeF7cE55D789d5A82DD909194C9310b50504"
      },
      {
        "passId": "98",
        "signer": "0xeD5272c6a2844292451e20690F53abCE7Bd94A63"
      },
      {
        "passId": "99",
        "signer": "0x63E9887B3Afe2fC3bA42666a12F08c5c13BcCf52"
      },
      {
        "passId": "100",
        "signer": "0x40461870a14577Ca1d783d7222B32951B6F911d7"
      },
      {
        "passId": "101",
        "signer": "0xa7F798d2f5fc42f3ab032343a3Ecf4Ab58979f0A"
      },
      {
        "passId": "102",
        "signer": "0xA9E29ACb44ac3dB30786d652556f5Fa3D813198D"
      },
      {
        "passId": "103",
        "signer": "0xbdc6C5D105ec169282485162034CF48E63853a0F"
      },
      {
        "passId": "104",
        "signer": "0x59578ee5a3740d744ae0e303ff8025E326BE0Cc7"
      },
      {
        "passId": "105",
        "signer": "0x0AeED34662EC9E19489a131d64Bf7c841AF5123b"
      },
      {
        "passId": "106",
        "signer": "0x623f777CBC8EA20E8a36FCc6A3207658E2155e7b"
      },
      {
        "passId": "107",
        "signer": "0x07c21e3A79C980B8878329990434EEDbC81148C2"
      },
      {
        "passId": "108",
        "signer": "0x6bBc0Ad5328616229eE2480D992e032076Ad279c"
      },
      {
        "passId": "109",
        "signer": "0xc88D1EADb437a46B8c55bfbC3CFd4854d699d854"
      },
      {
        "passId": "110",
        "signer": "0x9Ea46a5CE6BA3a0E76C09D184eA0917d6D7720bB"
      },
      {
        "passId": "111",
        "signer": "0xdd4Fcd258ce61040EDbC7c3a21b32F23efD052a5"
      },
      {
        "passId": "112",
        "signer": "0x318cFB1f7076F337a9ef8ce0962c2C3044D0dca7"
      },
      {
        "passId": "113",
        "signer": "0x0DA687cB4C8bD7dAb2A26f81a1071D04e8829536"
      },
      {
        "passId": "114",
        "signer": "0x89B8a95DA4E37cC9303D0699F69CaEC3866A3958"
      },
      {
        "passId": "115",
        "signer": "0x3c1752552d6a20Ed1BF1c84491eF947Cb20A207f"
      },
      {
        "passId": "116",
        "signer": "0x7617b9292EEf04c663EADc67b4f5EE7Efc4887CA"
      },
      {
        "passId": "117",
        "signer": "0x1a98F90718F5d193dD78845c0372A299E26B1063"
      },
      {
        "passId": "118",
        "signer": "0x91fC43407A11037c0ceE75f65E29B6E07299B4C0"
      },
      {
        "passId": "119",
        "signer": "0x42d51250e6F4c5410C1e3D5976D2dA80a9afCEb3"
      },
      {
        "passId": "120",
        "signer": "0x6dfAc42f664B95eB76C0c8A7fA6C13eF365f3cd1"
      },
      {
        "passId": "121",
        "signer": "0x505f2c0eDd935a7e7553E664B41Ad92Edd9c7279"
      },
      {
        "passId": "122",
        "signer": "0xfC714ed0a867C9E10875438f972b26f6a61572Fa"
      },
      {
        "passId": "123",
        "signer": "0x385c4e481B3CaEfC5edbb94bff64Db6d261B4341"
      },
      {
        "passId": "124",
        "signer": "0x5cb64Dab252343E0d70bA6010182b57438713387"
      },
      {
        "passId": "125",
        "signer": "0x841ccdAAe483e6DDD18A563fdBb2b6328B0171E6"
      },
      {
        "passId": "126",
        "signer": "0x4309BeD7e16270F94C3c7fa71A798D2B068cb445"
      },
      {
        "passId": "127",
        "signer": "0x6Ad66eA4519cFB0fa387609ca1c95e6Ce8514C5f"
      },
      {
        "passId": "128",
        "signer": "0x80A794b39f94C9e84606c51f27E4513886049e0A"
      },
      {
        "passId": "129",
        "signer": "0x8905e8cE312104dF6dd1987dDcbE3D7fC4AB92C1"
      },
      {
        "passId": "130",
        "signer": "0xaE32DA710844b06C25960820Ffc34c16894753c8"
      },
      {
        "passId": "131",
        "signer": "0x42E007303Fd321455a3d2666E2d8a242B5F1cE15"
      },
      {
        "passId": "132",
        "signer": "0x7E2BFf9090eD0Cd2a6D317d58AB06009d1375eb2"
      },
      {
        "passId": "133",
        "signer": "0x17C743C4751315Cc30085AE0448eA301fb29c07d"
      },
      {
        "passId": "134",
        "signer": "0x1ff7CBfC91Cc7366D219F4a94467BBE099010D7D"
      },
      {
        "passId": "135",
        "signer": "0xBB690358e401b886E740e3086CE4736c1937075b"
      },
      {
        "passId": "136",
        "signer": "0x276750405006FCC6f515075C9234D19326735239"
      },
      {
        "passId": "137",
        "signer": "0x53F42c3353A56E0f625Afa878A49CF031C6391c6"
      },
      {
        "passId": "138",
        "signer": "0xf63371AC14F91C12f23848E0160F5d6c502904A9"
      },
      {
        "passId": "139",
        "signer": "0xe084ac7A8538b394b859d2F29088Ba2f8BE19dd5"
      },
      {
        "passId": "140",
        "signer": "0x001E520945f2aa2dc6c35B54ff05aEB97B82b85d"
      },
      {
        "passId": "141",
        "signer": "0x9F9E9F834fa3CE5BF880e05c1d06bB200ed97300"
      },
      {
        "passId": "142",
        "signer": "0x244f86aeA3c7Ea2C6AE43075384435fdA8a6D290"
      },
      {
        "passId": "143",
        "signer": "0x5C47b5312F563E53543285fabA547D9B59481a70"
      },
      {
        "passId": "144",
        "signer": "0xB1f6d9F41B26f1E7d0B9202123b2FB42DE65551a"
      },
      {
        "passId": "145",
        "signer": "0x516FCBAdcFb870651b98FfDA6D37232546D16a0e"
      },
      {
        "passId": "146",
        "signer": "0xC3b521E54AF2025Ad4bb49E5C3EaA93B311a35a2"
      },
      {
        "passId": "147",
        "signer": "0x622762dF221Bac553756FAb81305AC597861dC22"
      },
      {
        "passId": "148",
        "signer": "0xdD1Bc8163ABd995752e3325AD64B263D8a7BFC03"
      },
      {
        "passId": "149",
        "signer": "0xB8666584Ab1BFF6E1F27E83d7a786B249dceE044"
      },
      {
        "passId": "150",
        "signer": "0xE3F9b17e6aA671E02503cb2FC4E8dD1844806E18"
      },
      {
        "passId": "151",
        "signer": "0xc4c0aa17d07338aF590F1293c9FEca5d05462389"
      },
      {
        "passId": "152",
        "signer": "0x15Ae66D7Bb1969E4397129059d3d4b00016F2D8F"
      },
      {
        "passId": "153",
        "signer": "0xA631DEfF478A10d4c85DE29C833E16B5FB3a9224"
      },
      {
        "passId": "154",
        "signer": "0x16F775d30fA3fe2Ed1dd44a0020ab178c7245BEd"
      },
      {
        "passId": "155",
        "signer": "0x62DDCA7Ec663eFc1Fb70D66A48fF4db4aC82bc48"
      },
      {
        "passId": "156",
        "signer": "0x96E74774eb3F16CDd8f76c1991a34Fbf3AAdea78"
      },
      {
        "passId": "157",
        "signer": "0x0fEC0a83aCf8283e2751970449180418C17611B1"
      },
      {
        "passId": "158",
        "signer": "0x613A2De0Bd32dE97A84f08A62c23E232D4fbd124"
      },
      {
        "passId": "159",
        "signer": "0x0956E3801a02eabb5DAA65276B38e4B8B4F8322E"
      },
      {
        "passId": "160",
        "signer": "0xC2544590daab40D7979f20503F37CD0AB9bB232c"
      },
      {
        "passId": "161",
        "signer": "0x02F2964525B474B46406d59D78c9EE8458122bDe"
      },
      {
        "passId": "162",
        "signer": "0x82722fFdedeb252cC3a6E64763cB8b88413394b8"
      },
      {
        "passId": "163",
        "signer": "0xc9C47A60FfBa7a9ec6D499Ee6047e198A883f278"
      },
      {
        "passId": "164",
        "signer": "0x5966FD69D37DB996D8F680f7E361D46Dfd2A6AD0"
      },
      {
        "passId": "165",
        "signer": "0xA33bFBfE6d1E7BD05E74B395731Dfb9d27d4d5cC"
      },
      {
        "passId": "166",
        "signer": "0x692bF07F51fD0f7A19bcd438F2C2CdD5FCF17Ac3"
      },
      {
        "passId": "167",
        "signer": "0x7E5aB243FB754E3B6ced986D89449F7b222ECcd5"
      },
      {
        "passId": "168",
        "signer": "0xe9D1739794b774878DC4Ba3450985De54F374B30"
      },
      {
        "passId": "169",
        "signer": "0x8d002757eDEB34Af910C436a65b669FAF276e19c"
      },
      {
        "passId": "170",
        "signer": "0xe16313033a052CB1eD90145edA4Cac65BC5C1c7F"
      },
      {
        "passId": "171",
        "signer": "0xC6c8A837DFe60b868e4c33D45A8ffCaeF3a49B35"
      },
      {
        "passId": "172",
        "signer": "0x9B59837dcb3805B4baf8B2A91772a2A1322c8eb7"
      },
      {
        "passId": "173",
        "signer": "0x811399d1226EB7ECC079E66B0d7db973C551E2C4"
      },
      {
        "passId": "174",
        "signer": "0xD4b88Df86b00190408a23cb9305dcfa42d3ED8A2"
      },
      {
        "passId": "175",
        "signer": "0x89a7934f65D8cf6F50eCc04c10506D57402e45Fd"
      },
      {
        "passId": "176",
        "signer": "0x66429D4B879Bb5B9E064F9a8C2C26fC9863192b5"
      },
      {
        "passId": "177",
        "signer": "0x118484d7A2B07A939eB273196F4cD80A7c7902eA"
      },
      {
        "passId": "178",
        "signer": "0x9a2Ff8483308ae223c66a52a5C4BfaEFa20f5b22"
      },
      {
        "passId": "179",
        "signer": "0x0AF98a0B31Cf7AA35a93BC77E9dDf04241A8A13C"
      },
      {
        "passId": "180",
        "signer": "0x0a7242d1230E3f0c1274cB4FB895E2b97539D671"
      },
      {
        "passId": "181",
        "signer": "0x22e43A739E4a8c9D2Fbe729055cfb4C21Ed8C763"
      },
      {
        "passId": "182",
        "signer": "0xF1f9565E7C39Cb2F89e50B486D6a5F265997d45c"
      },
      {
        "passId": "183",
        "signer": "0x1f052Ac756f6415ad43E965563b1C7b5FBCf5209"
      },
      {
        "passId": "184",
        "signer": "0x279EAA20F5b7689016B13D5AD1fAB7f9856c3EEc"
      },
      {
        "passId": "185",
        "signer": "0x4A9d90bD841a82733d03c8666E5B8FA25825ccea"
      },
      {
        "passId": "186",
        "signer": "0xc88286E30eC51e45Ab819a8449A658Cd7b20884a"
      },
      {
        "passId": "187",
        "signer": "0xD996C6Ac3BDc24bb01D2b13C11b03Bd2e90178CA"
      },
      {
        "passId": "188",
        "signer": "0x3A64c9f6Cf159CE057034d31cDbA5BCc3EcEc03c"
      },
      {
        "passId": "189",
        "signer": "0x55CC0066F5311843eEe67086E3a5e950149CD772"
      },
      {
        "passId": "190",
        "signer": "0xB8Baa34B7A1152432b304684C433f5f563e514D1"
      },
      {
        "passId": "191",
        "signer": "0x643c2DA45c64D17Ae40431a3729B927cd04210c5"
      },
      {
        "passId": "192",
        "signer": "0xd981674CA50ce58438aC717397fE23F79cE274cD"
      },
      {
        "passId": "193",
        "signer": "0x10E91304EfB8ABcCAA407e2e0cb08998C603e7b5"
      },
      {
        "passId": "194",
        "signer": "0x9a12E9AA2467fEdd6f7833b85dB15c27F71A55D7"
      },
      {
        "passId": "195",
        "signer": "0x474c2a32212D146B7ACab574ae8429a1E7833eB2"
      },
      {
        "passId": "196",
        "signer": "0x966Cadb965419179422B070C920D59102E46F107"
      },
      {
        "passId": "197",
        "signer": "0x0554161510A667AbDc86ADaFCf1E51CBBA0B4Abd"
      },
      {
        "passId": "198",
        "signer": "0x5F4943015c81582364006a3A2cD92ef7d2cbC319"
      },
      {
        "passId": "199",
        "signer": "0x15Ba6b9cE7569901F946546dCef1d5876BF4bf91"
      },
      {
        "passId": "200",
        "signer": "0xDD837f4A250aF955c14BE0297AD1158fc8f91FA3"
      },
      {
        "passId": "201",
        "signer": "0xcD0e21a08581EBcD39Fe98257b3EbFF7dd13580f"
      },
      {
        "passId": "202",
        "signer": "0xFa9fD02d577d8B23a4dCC4557959E134f8e405ce"
      },
      {
        "passId": "203",
        "signer": "0x3957660B57f05664b320ea862F95eE7D9bf15053"
      },
      {
        "passId": "204",
        "signer": "0x56C2FBAc2a9Dbe91B6Ac0a00833b3C61aD46e718"
      },
      {
        "passId": "205",
        "signer": "0x376B08DfECa8BF79708ef43CFa2cA56939Ae6eE4"
      },
      {
        "passId": "206",
        "signer": "0xdC5F65191e93253F430870E73a7BE85d2298a523"
      },
      {
        "passId": "207",
        "signer": "0x9cd6F9e2F120D0C055fBcb36FBcb2e4DD2817a3F"
      },
      {
        "passId": "208",
        "signer": "0x45Fe995381A74F0a636A68Cb6Ed901774769352e"
      },
      {
        "passId": "209",
        "signer": "0xbaF865aCD9097C917A4a487f9c18ECd12DF14A38"
      },
      {
        "passId": "210",
        "signer": "0x73f1Dd0cb234d192cC59E05322aa90Db0233153b"
      },
      {
        "passId": "211",
        "signer": "0xdd76347365a9B740EC718264421f6d7672CDC970"
      },
      {
        "passId": "212",
        "signer": "0xd70554756A0072C17EcC4C228Bdbd07eE57E0B1f"
      },
      {
        "passId": "213",
        "signer": "0xAC7Ee68C5A7bD1Dc15cc9B00e3Ea8c5Ec1a2e66e"
      },
      {
        "passId": "214",
        "signer": "0x78597BB16Bda6070d07F8F4e42D8df1Be4fBF006"
      },
      {
        "passId": "215",
        "signer": "0x192334323AC50e06cC7Ab4dE6541af708c50Ae23"
      },
      {
        "passId": "216",
        "signer": "0x35c5eE8999607a7e0C7cC37786A324e2156ed5d7"
      },
      {
        "passId": "217",
        "signer": "0xB01d9e8bc4b092eb803F37F2922300B3b60bCB79"
      },
      {
        "passId": "218",
        "signer": "0x1da4a2e66b641018Cf6D953F4C5E69650dF7F1E2"
      },
      {
        "passId": "219",
        "signer": "0x40CcCE71E41f8d35a46E45fb5f8e679F2542434D"
      },
      {
        "passId": "220",
        "signer": "0x34D7C49dFf4ff9a190816D24258c743f1e0eF61A"
      },
      {
        "passId": "221",
        "signer": "0x9c72dA3EA0F8C60861498e87E911D7Df8BE83Fe0"
      },
      {
        "passId": "222",
        "signer": "0x8D8D5231F2CA574f2EF03E5D045aCd6fe28CD505"
      },
      {
        "passId": "223",
        "signer": "0xdBd63cFDf48bF5565F94108D28a48873D5BEe33f"
      },
      {
        "passId": "224",
        "signer": "0x7Ce00ad44FDE0c825cffb6cbC429229a36a85084"
      },
      {
        "passId": "225",
        "signer": "0xea0e8cB05151C84caEe31CA26923494830d85462"
      },
      {
        "passId": "226",
        "signer": "0x3C01bBb388dE440925A62D0B91BF586362968De9"
      },
      {
        "passId": "227",
        "signer": "0xD33683810C3C7A15083d11827176F44fe25D3E8F"
      },
      {
        "passId": "228",
        "signer": "0xfa4c346fc566A6bf3906E7479d161BA5bcBE685c"
      },
      {
        "passId": "229",
        "signer": "0x654faD97B15fA02547ace1eb541178eaB6d719BD"
      },
      {
        "passId": "230",
        "signer": "0xb5f5373a319E3aA09c0A2a7166f53863fcEeC5FA"
      },
      {
        "passId": "231",
        "signer": "0x0636C0bE786f33487abec58b20171041F9B49435"
      },
      {
        "passId": "232",
        "signer": "0x8e665e5Ef57F4a13eC7A039095C178dCE5ab2B4D"
      },
      {
        "passId": "233",
        "signer": "0x15D84E3210C2373cEEE088cEF95ff23502066Ade"
      },
      {
        "passId": "234",
        "signer": "0xD01A3921Fa65aC66fCdd451D07F4D300f235Fc9F"
      },
      {
        "passId": "235",
        "signer": "0x41E440915a52025C7DC5D33cC988edbB0CedE3dc"
      },
      {
        "passId": "236",
        "signer": "0xDE2ea32b9118Bf6d238f68D4F6bF80c2BBE96748"
      },
      {
        "passId": "237",
        "signer": "0x7E8b6B98611Fc9d819421F00B4E6A10076633961"
      },
      {
        "passId": "238",
        "signer": "0xa21864A01502eeEa82bD65561411C7db10FfFc20"
      },
      {
        "passId": "239",
        "signer": "0x3e5DA1C388C5fdd4A0c9695Ba41F9e71504b3406"
      },
      {
        "passId": "240",
        "signer": "0xB662F996308389b2737fE2e7D8bd82344807c82a"
      },
      {
        "passId": "241",
        "signer": "0x8F794490F4f72c3C939F58eE2C23Cc80F38a0000"
      },
      {
        "passId": "242",
        "signer": "0xF35772EF6B20Fe030029e0bf56f68ED36417b773"
      },
      {
        "passId": "243",
        "signer": "0x933b62c958B7e469b889B4b7F3706e8B1856B250"
      },
      {
        "passId": "244",
        "signer": "0xd21B5F1645B65089DC6C4d388Aee77e8fd1F22BA"
      },
      {
        "passId": "245",
        "signer": "0xC8c8AC4b7ca1811C36E1c564e7Cd673ad646A80e"
      },
      {
        "passId": "246",
        "signer": "0xaF88060F2a4D0565CE65c7577c843b6401f821F8"
      },
      {
        "passId": "247",
        "signer": "0xf936e3c9683991A101a7A58FD5B6F248289aaf62"
      },
      {
        "passId": "248",
        "signer": "0xA038D6cc205368942Cc7688582210075177b6d6d"
      },
      {
        "passId": "249",
        "signer": "0x86655B774eb8d7C28b5F2067AEDC533a3fD0eD3d"
      },
      {
        "passId": "250",
        "signer": "0xB9F65bd3328f788ab143B3a1793f2cccE0A534E8"
      },
      {
        "passId": "251",
        "signer": "0x1c83F0a343b98a9ab627262Cc3533fF94465C3E1"
      },
      {
        "passId": "252",
        "signer": "0xCE87adA229813395f02f3b248E5683Bb78c719d0"
      },
      {
        "passId": "253",
        "signer": "0x644b5e2270c18Bdf43DC25775C304092D0034515"
      },
      {
        "passId": "254",
        "signer": "0x6c9A3a2caA82c86F69f699F7F2AB343eBEef0562"
      },
      {
        "passId": "255",
        "signer": "0x8eF15c6FAaf76D7469ad8e999c9941D9976A3484"
      },
      {
        "passId": "256",
        "signer": "0xb3a026e25E360Bf6740330888cA1E06104134eCD"
      },
      {
        "passId": "257",
        "signer": "0xa928d6F70925B0B8758B82eabd6910a71bB1bE2D"
      },
      {
        "passId": "258",
        "signer": "0x5B02aF89ba19C201840673B484A08967e05071Bd"
      },
      {
        "passId": "259",
        "signer": "0xd0C703C0639080E9FF274A2eD3e6e5B72D2c7a66"
      },
      {
        "passId": "260",
        "signer": "0x9F050D0A6C71464F42B485800A13DB9657b1e8C2"
      },
      {
        "passId": "261",
        "signer": "0x2DA22641B697B5D016B79c19DbDd131cd9117e0e"
      },
      {
        "passId": "262",
        "signer": "0xd19F858136066FE73e4c1598998EB125989F5322"
      },
      {
        "passId": "263",
        "signer": "0x4aF1A85f251D9a7F82db4bd30B3E462bc8fd3a94"
      },
      {
        "passId": "264",
        "signer": "0xE2A7a01B3BbaD0eE5165D1af64306f14CF2381cE"
      },
      {
        "passId": "265",
        "signer": "0x59A876aa3320D7B835e537423861E6Cd64E152f4"
      },
      {
        "passId": "266",
        "signer": "0x726050F457327D6178DA819e1C0Cec285cAAe449"
      },
      {
        "passId": "267",
        "signer": "0x333dA2EA69BC4BC7141Ebd90e0C4aE162b5C049E"
      },
      {
        "passId": "268",
        "signer": "0x9e9b0fDf078c518D736a7A94E37486FCfe69191a"
      },
      {
        "passId": "269",
        "signer": "0xD9835290B9C17fc71Ea50BCF19e7FDb5ec914cd4"
      },
      {
        "passId": "270",
        "signer": "0x237d7332559298D957982f1F029f3B2544bb8c7c"
      },
      {
        "passId": "271",
        "signer": "0x5d818ee2bB3BCaaD8Ed87A896E793Add9C01D169"
      },
      {
        "passId": "272",
        "signer": "0x352c351314A77584c67c8E9D29F85C5ABb151FC9"
      },
      {
        "passId": "273",
        "signer": "0xC17a1EDe57b5275626D0edE082C43844F6e7e202"
      },
      {
        "passId": "274",
        "signer": "0xb98BbdB9d9238efD01c16e633c2fF56CB5169C16"
      },
      {
        "passId": "275",
        "signer": "0x088E36FB91B881460804C1475011314448F63bea"
      },
      {
        "passId": "276",
        "signer": "0xDcfdEc1a8B4f1F086090707501295955D0F18A35"
      },
      {
        "passId": "277",
        "signer": "0x8F84C009855F39a0D1fFf5Cc29a2Ec7A8B380c87"
      },
      {
        "passId": "278",
        "signer": "0x1065658A5739bF46ec28D085c1727DFc71dd3415"
      },
      {
        "passId": "279",
        "signer": "0x49EEFdA986D2D1dD62EB7D4f5Df8189f53DA1F8e"
      },
      {
        "passId": "280",
        "signer": "0x5F797614881e68798F199961e943056acCE6f05b"
      },
      {
        "passId": "281",
        "signer": "0x51f7e572BAc54Aeace667e358b7c534a8E12f4C6"
      },
      {
        "passId": "282",
        "signer": "0x2DacF8DDdCF49C75351A87a9603b7b76a1431dF3"
      },
      {
        "passId": "283",
        "signer": "0xa77daC3eF8A0F5ee829c05513bD24af1240F58d6"
      },
      {
        "passId": "284",
        "signer": "0x61bA5F575c39b6376B0eA4972a1d0c240d6DF25d"
      },
      {
        "passId": "285",
        "signer": "0xAb6b95A478BAb71CaF7381F2216E6cb53FF7a4D5"
      },
      {
        "passId": "286",
        "signer": "0xAaDe7A03733D79437E5826015995a8cd1088ba3a"
      },
      {
        "passId": "287",
        "signer": "0x29Ea85AB0c3533351b32bA0a8D884912D26a4A68"
      },
      {
        "passId": "288",
        "signer": "0x808aF0c220bAA891763ca11Cc59F01C35764BE25"
      },
      {
        "passId": "289",
        "signer": "0x69d0cd483aC04F509E23C16Db4f22BbD58f76f6a"
      },
      {
        "passId": "290",
        "signer": "0x8D5BC513AeB73a8928B638A5301575C75d39d7D6"
      },
      {
        "passId": "291",
        "signer": "0xdB632Ef7E4a7ED21649e35C726956da55D1558CE"
      },
      {
        "passId": "292",
        "signer": "0x4E03D15fc029E5dE48c3c3d278EE714970c82F62"
      },
      {
        "passId": "293",
        "signer": "0x11ce2bB3fbE7311896Eff9d4211f1dB2DBCCeB8d"
      },
      {
        "passId": "294",
        "signer": "0xA478D0D5eE0F49796B0aF4127eFb84196f1Ee420"
      },
      {
        "passId": "295",
        "signer": "0x702123C938183665eBe34Fa14AAddCEED04dc151"
      },
      {
        "passId": "296",
        "signer": "0xFe88d0b35a1Dd7c1e5Cd55bC5DA91c2Ab3613a08"
      },
      {
        "passId": "297",
        "signer": "0x906fA516Fd084d475eD2F159C6E4f09eA17FA878"
      },
      {
        "passId": "298",
        "signer": "0x568bf1f36Cec897e767ba1452755ADe278223Fe6"
      },
      {
        "passId": "299",
        "signer": "0xEB25C8787518eBCE4176e5a29e1581251b4EA6B2"
      },
      {
        "passId": "300",
        "signer": "0xb72B56891Fd2358Ef92f92115Eed771Da87CaE3e"
      },
      {
        "passId": "301",
        "signer": "0xf34e0Ed9B32768cebAdC2031E197cbB209c61867"
      },
      {
        "passId": "302",
        "signer": "0x039d5297363Bb8C0fF5Ce27ba5c1169C4a82D469"
      },
      {
        "passId": "303",
        "signer": "0xb560Be65C8075aBD0d7Bc7b063d5ac0723AF44a0"
      },
      {
        "passId": "304",
        "signer": "0x9C0De4b87F35aceb30c7B5bf0b48e1fb8c825C93"
      },
      {
        "passId": "305",
        "signer": "0x000000000000000000000000000000000000dead"
      },
      {
        "passId": "306",
        "signer": "0x000001f568875f378bf6d170b790967fe429c81a"
      },
      {
        "passId": "307",
        "signer": "0x0078c86e12186e2de1ff6fef5f1ada2bffde4ea5"
      },
      {
        "passId": "308",
        "signer": "0x024f1f8b3789bfdf9edb47f58a0d7a3afeaea804"
      },
      {
        "passId": "309",
        "signer": "0x049808d5eaa90a2665b9703d2246dded34f1eb73"
      },
      {
        "passId": "310",
        "signer": "0x05e8074088797c1f9057febf374deee0bc38e894"
      },
      {
        "passId": "311",
        "signer": "0x05ea539365d91df315e8ddd736e90431696fe8c4"
      },
      {
        "passId": "312",
        "signer": "0x09280340849e66948149804cac539cc7227512be"
      },
      {
        "passId": "313",
        "signer": "0x0946bc5c2f9848665cc3811458de403d0a78ad8e"
      },
      {
        "passId": "314",
        "signer": "0x0985224a811e65c235dbf4a2c2117712aabe4e39"
      },
      {
        "passId": "315",
        "signer": "0x0d0aca99686fced8e6fb39134aaed96f09b5283c"
      },
      {
        "passId": "316",
        "signer": "0x0d94b6e4c2aa9383964986020b3534d34885f700"
      },
      {
        "passId": "317",
        "signer": "0x0dd544d0da95666d7c3d38460feb4b5f25eaa515"
      },
      {
        "passId": "318",
        "signer": "0x0ea59c05be4b7149aaed26be764b618ac0255643"
      },
      {
        "passId": "319",
        "signer": "0x10b28ee04853bdd30d1fd7b302fbe5691c144aa0"
      },
      {
        "passId": "320",
        "signer": "0x10f6c58b9dc9603cb24ee9a5220bb4a470781676"
      },
      {
        "passId": "321",
        "signer": "0x12579783fbe8c2645d7a634b238da748405975a2"
      },
      {
        "passId": "322",
        "signer": "0x136c65a3f31682fcf683906ddbf3c76db2633f99"
      },
      {
        "passId": "323",
        "signer": "0x139d9a36ff2b6bfb8558dfbc22486da48c77a396"
      },
      {
        "passId": "324",
        "signer": "0x13b3a50f3947476eda74fe191344524e2d2d28e5"
      },
      {
        "passId": "325",
        "signer": "0x13e46ccd194ca86212236543d2e7376b00bafa42"
      },
      {
        "passId": "326",
        "signer": "0x1423fcc74da82fa03d70fa1f7a122db1ba231783"
      },
      {
        "passId": "327",
        "signer": "0x1436dbffbdde71d16a2c4d23f9116c3158c4d984"
      },
      {
        "passId": "328",
        "signer": "0x1527fa3a0778d574adfe714b7e60c7b2a1bf7c29"
      },
      {
        "passId": "329",
        "signer": "0x1974341df4b113a4c16f3d3f106176dec0e4da67"
      },
      {
        "passId": "330",
        "signer": "0x19b2ba0892da19d09d59e300d11da9edf96654ae"
      },
      {
        "passId": "331",
        "signer": "0x1c062628943a930b805849b494719c7d23c77bd5"
      },
      {
        "passId": "332",
        "signer": "0x1ec9503bbdad721ef3ad485b4b14ce0671dc9925"
      },
      {
        "passId": "333",
        "signer": "0x21c5edc237e95049f92059af6a571fdb700f2b82"
      },
      {
        "passId": "334",
        "signer": "0x2224acd07fd9b269ab5200a9a3df8062624deefb"
      },
      {
        "passId": "335",
        "signer": "0x230eb64900d027dfe372786b3342bd6178ec37d1"
      },
      {
        "passId": "336",
        "signer": "0x273c25abd33eca095e228fde0f15e8f7ec4eb4d9"
      },
      {
        "passId": "337",
        "signer": "0x27d9b6692ec1fb802cc8ceef74270ca4b448076a"
      },
      {
        "passId": "338",
        "signer": "0x290420874bf65691b98b67d042c06bbc31f85f11"
      },
      {
        "passId": "339",
        "signer": "0x2993db31d165c33d848e44a1c26a805ba411d324"
      },
      {
        "passId": "340",
        "signer": "0x2d2c46d26c8fec693586e067c4fc2b2ddc2b4cb3"
      },
      {
        "passId": "341",
        "signer": "0x2d79097b9e4c4f41654b2c91c39fd2c97af00c76"
      },
      {
        "passId": "342",
        "signer": "0x2de2299db048a9e3b8d1934b8dae11b8041cc4fd"
      },
      {
        "passId": "343",
        "signer": "0x2e50783188e23742dd3168682e39381ff5fa9731"
      },
      {
        "passId": "344",
        "signer": "0x2e699391d1b3b8577557b4c0ef6a1d9e8a394f04"
      },
      {
        "passId": "345",
        "signer": "0x308bff328370fc4a9683ab9fcd79a21be6dc5ee4"
      },
      {
        "passId": "346",
        "signer": "0x342c6bfa287ce37b8b53eee0e5b6e6bcbea98c76"
      },
      {
        "passId": "347",
        "signer": "0x362f020fd4420c317e7a0722994ba8bc3380d0e8"
      },
      {
        "passId": "348",
        "signer": "0x3668a20653316a7dd85342f64a4c984d146cadfe"
      },
      {
        "passId": "349",
        "signer": "0x37b699d7eead58433d352d1c77b2db1391f11ce5"
      },
      {
        "passId": "350",
        "signer": "0x3ad353e2845b96fb1b58c1ca6cda46b870de8d6f"
      },
      {
        "passId": "351",
        "signer": "0x3d14410609731ec7924ea8b1f13de544bb46a9a6"
      },
      {
        "passId": "352",
        "signer": "0x4011d09a86d0aca8377a4a8bad691f1aceecd672"
      },
      {
        "passId": "353",
        "signer": "0x41a7276167b80da8815df5b0ddaba3be29984250"
      },
      {
        "passId": "354",
        "signer": "0x44dc2ec15b3483fc8590f6b396cea5f8f2fbf3bd"
      },
      {
        "passId": "355",
        "signer": "0x4530307f98208d3bd5b9631880bc7351770c8810"
      },
      {
        "passId": "356",
        "signer": "0x4a1d757699ab73dd4b48b15049b6f1479b2f3511"
      },
      {
        "passId": "357",
        "signer": "0x4b0bd713574e67a97b3ff8f647f329794a2cbb64"
      },
      {
        "passId": "358",
        "signer": "0x4d03a186b3c7d039ff9a212cd8e81dc34a670b35"
      },
      {
        "passId": "359",
        "signer": "0x4de4a829d42191007431d608775430f3ab072082"
      },
      {
        "passId": "360",
        "signer": "0x4e012d25472225f3385baa43ed64dfec5885c51d"
      },
      {
        "passId": "361",
        "signer": "0x4ffb72b66eba24521736924f87dfe10677d82286"
      },
      {
        "passId": "362",
        "signer": "0x50f27cdb650879a41fb07038bf2b818845c20e17"
      },
      {
        "passId": "363",
        "signer": "0x5285ac85a979b612f5c5320961311bba099670f0"
      },
      {
        "passId": "364",
        "signer": "0x530cf036ed4fa58f7301a9c788c9806624cefd19"
      },
      {
        "passId": "365",
        "signer": "0x5310a9b64847c1b927f823a4bc8836e93f09dc78"
      },
      {
        "passId": "366",
        "signer": "0x54463aae905082c678708bb6c25226eb8f38d5a6"
      },
      {
        "passId": "367",
        "signer": "0x562bf1b67dc40d9b7c3ddd49e45ae58e61e1b76e"
      },
      {
        "passId": "368",
        "signer": "0x568b491fb2b4b9440f6d05e7723df0060fdaef1c"
      },
      {
        "passId": "369",
        "signer": "0x5b158f897f5ace2afefaf7ace8ce0cdbbbc9168a"
      },
      {
        "passId": "370",
        "signer": "0x5ba02f4ff6af1d9d2af8774d10fd32eb57d4e2e6"
      },
      {
        "passId": "371",
        "signer": "0x5bd685375c21375165438ca7f3eae7ec4fade8c5"
      },
      {
        "passId": "372",
        "signer": "0x5d9e720a1c16b98ab897165803c4d96e8060b8e4"
      },
      {
        "passId": "373",
        "signer": "0x5e01d9928ea32d1d3ae2f3263b6ec6c165dc2d76"
      },
      {
        "passId": "374",
        "signer": "0x5ee42438d0d8fc399c94ef3543665e993e847b49"
      },
      {
        "passId": "375",
        "signer": "0x5f8e56d7f3642dd8783774460da2d3a7c54aacda"
      },
      {
        "passId": "376",
        "signer": "0x5fb8b9512684d451d4e585a1a0aabfb48a253c67"
      },
      {
        "passId": "377",
        "signer": "0x6186290b28d511bff971631c916244a9fc539cfe"
      },
      {
        "passId": "378",
        "signer": "0x62f099a34f01d57c67a100851184bea0d48b45f6"
      },
      {
        "passId": "379",
        "signer": "0x63244b5f1ebcb999ea012da652dffee6653bf8f5"
      },
      {
        "passId": "380",
        "signer": "0x64e00561fa9b1f2f2048b2d4f571279689dd9541"
      },
      {
        "passId": "381",
        "signer": "0x65565244e5700b85c90358468faf37c85db55099"
      },
      {
        "passId": "382",
        "signer": "0x6584b48ccebd9c3e4413a1dd4cdbc38b2500cdf3"
      },
      {
        "passId": "383",
        "signer": "0x65d88c64b01b9481352fa8a68b54ed1b3b687388"
      },
      {
        "passId": "384",
        "signer": "0x663d3947f03ef5b387992b880ac85940057c13e3"
      },
      {
        "passId": "385",
        "signer": "0x67c3097a968db89610825976ec9a5976a966c044"
      },
      {
        "passId": "386",
        "signer": "0x68016f094ebb7b55b04372af335455854b0e2eb6"
      },
      {
        "passId": "387",
        "signer": "0x6854dc5c9e3d3ce0b9dd7250d866908515465dc6"
      },
      {
        "passId": "388",
        "signer": "0x686e960ebd9aceb1771850444d4d3a7810a0dac9"
      },
      {
        "passId": "389",
        "signer": "0x6d7fd0438219c0f753a1ccf7c4885bb6cb260999"
      },
      {
        "passId": "390",
        "signer": "0x704c978d50590b21e4c2f43eb4da24fe61fcd707"
      },
      {
        "passId": "391",
        "signer": "0x73e60cd967e957bc6e074f93320ffa1d52697d5b"
      },
      {
        "passId": "392",
        "signer": "0x75331ebbe0b00b97cab532384f13c9b479f074ec"
      },
      {
        "passId": "393",
        "signer": "0x75ef2eff7b12f5f900ef5c787036deab18423d1a"
      },
      {
        "passId": "394",
        "signer": "0x78885686feec340ab544428f161e7d621f520e29"
      },
      {
        "passId": "395",
        "signer": "0x79bebfcb560141f22959c62bbd2930d5c7e35d30"
      },
      {
        "passId": "396",
        "signer": "0x79fd2f15e0ea8c27b5192259f9da63f4e562f021"
      },
      {
        "passId": "397",
        "signer": "0x7a824bea2bed9399a68cd0e340224809521c81d9"
      },
      {
        "passId": "398",
        "signer": "0x7d6a8ffcaf98cac58340329b3a91759888cb1363"
      },
      {
        "passId": "399",
        "signer": "0x7e7a55b11dd9a02b4da169620adfc36b930100fc"
      },
      {
        "passId": "400",
        "signer": "0x80d0d54050c15971b21e877d95441800f5aa9ee8"
      },
      {
        "passId": "401",
        "signer": "0x8177598e08ee8199c160a48c7a0af31ab54bb59f"
      },
      {
        "passId": "402",
        "signer": "0x82410609593d876761681580cf304c794bd58d09"
      },
      {
        "passId": "403",
        "signer": "0x826f63afd9517364cbebe91a859f10b102505a40"
      },
      {
        "passId": "404",
        "signer": "0x836ef81a58e5565b8d1d555ec8e9a5c2792511c6"
      },
      {
        "passId": "405",
        "signer": "0x83d3c179e7906e7f6755658c70e106f1ed3c5782"
      },
      {
        "passId": "406",
        "signer": "0x84eeb7db3f93feb5a8a98f56dabb970a6797c187"
      },
      {
        "passId": "407",
        "signer": "0x865c2f85c9fea1c6ac7f53de07554d68cb92ed88"
      },
      {
        "passId": "408",
        "signer": "0x8725be0bb6ea759d10fbb52fedecc7dcd6890072"
      },
      {
        "passId": "409",
        "signer": "0x87dfef3b445667292aac89078b51f0f75795805f"
      },
      {
        "passId": "410",
        "signer": "0x88906af7616f88f610d1e479325a5c5f93ba1e2c"
      },
      {
        "passId": "411",
        "signer": "0x8a53b8b59877df193c6dae7b8d1d38251af563cf"
      },
      {
        "passId": "412",
        "signer": "0x8b5e90aa714c967efc8c286f46ce0fc822e1cfb0"
      },
      {
        "passId": "413",
        "signer": "0x8c0c3c60118b24b31806eae82ab4186821bf23f1"
      },
      {
        "passId": "414",
        "signer": "0x8c2e67bd3d0f432ef75d9ae6623cd0dfbce66050"
      },
      {
        "passId": "415",
        "signer": "0x8dc9d43df20681cd62ca0acb24ae7ce2794f835d"
      },
      {
        "passId": "416",
        "signer": "0x8df55ecf2c261b44d079302dc95327fe32f74eed"
      },
      {
        "passId": "417",
        "signer": "0x8ebbf8f59b7b7849e359f7e1cc395df6741c24b9"
      },
      {
        "passId": "418",
        "signer": "0x92e7faa1c7b1cf703e3cda42183978f16fa15713"
      },
      {
        "passId": "419",
        "signer": "0x932a824a4d3d0680e0b352de150e6f212b8ac841"
      },
      {
        "passId": "420",
        "signer": "0x95a4350e1cb5e795d3ebe8bee63d9183de5449d1"
      },
      {
        "passId": "421",
        "signer": "0x96dc89dbe84970ee42a2f0b35fb50599e6745ff8"
      },
      {
        "passId": "422",
        "signer": "0x975ab68d4c15d6db02e101d5be03c5b49b9a3282"
      },
      {
        "passId": "423",
        "signer": "0x9de0b0402258a6a562331da7b3c13b29578789c4"
      },
      {
        "passId": "424",
        "signer": "0x9fc6d6c7326585fd3c2a743a1f505990d6e9df3f"
      },
      {
        "passId": "425",
        "signer": "0xa0863e36c30f4974a3a0e2cfc2802513cfaa22f1"
      },
      {
        "passId": "426",
        "signer": "0xa0a6dc36041fb386378458006fecbddd02555ddd"
      },
      {
        "passId": "427",
        "signer": "0xa0d71d516c6149c958c489ab24223c99f5df906f"
      },
      {
        "passId": "428",
        "signer": "0xa0f838d02983161ee469bff969964b7051ac1cd9"
      },
      {
        "passId": "429",
        "signer": "0xa596370bc21dee36872b98009dfbbf465dbfefa3"
      },
      {
        "passId": "430",
        "signer": "0xa5975974cac3fefd831e42bdd2fe84cb5ee3b3de"
      },
      {
        "passId": "431",
        "signer": "0xa6157b7bb7ec05e2b6feafd686797f9ea05411cc"
      },
      {
        "passId": "432",
        "signer": "0xa6f4fa9840aa6825446c820af6d5eccf9f78ba05"
      },
      {
        "passId": "433",
        "signer": "0xa77d9227eee861e01519548b6000acca8600eebe"
      },
      {
        "passId": "434",
        "signer": "0xa7d9f4fd84cdd4bee564adc1b18e3e8aa79d25f1"
      },
      {
        "passId": "435",
        "signer": "0xa88e4a192f3ff5e46dcc96efefb38dfec7bb250c"
      },
      {
        "passId": "436",
        "signer": "0xab2f02d8d409ee4f67fdda5aac5ca7a64a897271"
      },
      {
        "passId": "437",
        "signer": "0xac75cdc34283406b050cadf4ea5902a9310b138e"
      },
      {
        "passId": "438",
        "signer": "0xad9f9194c68bd83250a534a7da574687e1f102ff"
      },
      {
        "passId": "439",
        "signer": "0xae8ce6bb2b95684f57c097b407f4e9b55d9ca432"
      },
      {
        "passId": "440",
        "signer": "0xaee2f40fe0568bd859bc6a518c7ef3252fdc9bf0"
      },
      {
        "passId": "441",
        "signer": "0xaf5cb828389bd6413e7bcd00ed2dcf2bdc1a015a"
      },
      {
        "passId": "442",
        "signer": "0xaf8fbf59e221d27b55dc3adc2366f9230bcf5096"
      },
      {
        "passId": "443",
        "signer": "0xb29b1936c11b77cec6061a9daf765ee2666c8f77"
      },
      {
        "passId": "444",
        "signer": "0xb347b5b99c49ce6c555071a1f0498c81511ad977"
      },
      {
        "passId": "445",
        "signer": "0xb3522064694ac9870dbf00eebc2712762193bb64"
      },
      {
        "passId": "446",
        "signer": "0xb353268ce17d2c7f0f4f8aff152e548c43633df5"
      },
      {
        "passId": "447",
        "signer": "0xb66190f67ed8f0ca790ddfe541ee1bd0da53fe70"
      },
      {
        "passId": "448",
        "signer": "0xb7f9f538aa1b41ae2853eb63f1939187ffe70eb4"
      },
      {
        "passId": "449",
        "signer": "0xbb46c6e4d8a59520fbb11638c2d1228cc65f5a6c"
      },
      {
        "passId": "450",
        "signer": "0xbc10a3ae909b1b94f4c3e39607ad19d386dce32a"
      },
      {
        "passId": "451",
        "signer": "0xbd12aa424c207e90b66402c1f0aec357e8b1ded7"
      },
      {
        "passId": "452",
        "signer": "0xbe5be517537e53f09e88bcdf61da238477dca226"
      },
      {
        "passId": "453",
        "signer": "0xbeeef66749b64afe43bbc9475635eb510cfe4922"
      },
      {
        "passId": "454",
        "signer": "0xbf1ed1ea654ad49472daedc21a31c8d28e6bb790"
      },
      {
        "passId": "455",
        "signer": "0xbfdb50dc66c8df9fd9688d8fe5a0c34126427645"
      },
      {
        "passId": "456",
        "signer": "0xc09d3402515676b81a2f768c365146ea3faa5605"
      },
      {
        "passId": "457",
        "signer": "0xc0e5e14bdecd9ed6954a9e14c74e97cebd91bb94"
      },
      {
        "passId": "458",
        "signer": "0xc169699a825066f2f07e0b29c4082094b32a3f3e"
      },
      {
        "passId": "459",
        "signer": "0xc3a67c1437353bdc9c53060235a34018711de0cf"
      },
      {
        "passId": "460",
        "signer": "0xc42c694d0215b27bce1a871a4a2ad38cf0120a82"
      },
      {
        "passId": "461",
        "signer": "0xc555347d2b369b074be94fe6f7ae9ab43966b884"
      },
      {
        "passId": "462",
        "signer": "0xc665a60f22dda926b920deb8ffac0ef9d8a17460"
      },
      {
        "passId": "463",
        "signer": "0xc8286a9bf1f9bf8f3006fa014915c78b7e75111c"
      },
      {
        "passId": "464",
        "signer": "0xc8bace82793074fad3337424bdb84e306b2f8a44"
      },
      {
        "passId": "465",
        "signer": "0xc9a009bed9ed8a32499e18c20f7cd12132c8d6cb"
      },
      {
        "passId": "466",
        "signer": "0xca11d10ceb098f597a0cab28117fc3465991a63c"
      },
      {
        "passId": "467",
        "signer": "0xcbd2f544073eb35b59a8eb19194a222a5361cd74"
      },
      {
        "passId": "468",
        "signer": "0xcda685c8444f659ac3fe778f8d143aabdf1a21ab"
      },
      {
        "passId": "469",
        "signer": "0xcea78aaa93e917fb5e1802901db2b20aa4411b44"
      },
      {
        "passId": "470",
        "signer": "0xcef871b113d2bb5d3fa5dc96d2d288dd38082aae"
      },
      {
        "passId": "471",
        "signer": "0xcf680fb77c12e2aa2dec82f3ae0c0e527f549fe2"
      },
      {
        "passId": "472",
        "signer": "0xd1eddfcc4596cc8bd0bd7495beab9b979fc50336"
      },
      {
        "passId": "473",
        "signer": "0xd286064cc27514b914bab0f2fad2e1a89a91f314"
      },
      {
        "passId": "474",
        "signer": "0xd3e64b9dea13e4840a0da20965bd0ca37d05a12a"
      },
      {
        "passId": "475",
        "signer": "0xd651e2c626ee210fc38676124d5007ac822ad749"
      },
      {
        "passId": "476",
        "signer": "0xd657860fc512ec2250a7385a353f599e3276fddb"
      },
      {
        "passId": "477",
        "signer": "0xd6e02c13a6cc133c9d019495414667ea7bee05cc"
      },
      {
        "passId": "478",
        "signer": "0xdc190d7cea8e8bf0b381617062200c10cfff0a91"
      },
      {
        "passId": "479",
        "signer": "0xdd6c81d6d587e2d49eaadffb4ce380564046002a"
      },
      {
        "passId": "480",
        "signer": "0xddb92a96054132801cae3943b2f966fc2c308ac8"
      },
      {
        "passId": "481",
        "signer": "0xdde3ca351d85a4b4cc6aff8d42c0840959859053"
      },
      {
        "passId": "482",
        "signer": "0xe120ed22a0cd12d5de6122aa7d5b6d93ac218b49"
      },
      {
        "passId": "483",
        "signer": "0xe20adb03a470b5573bf572dd918e052d0d17866e"
      },
      {
        "passId": "484",
        "signer": "0xe363c2fba75cbd27487b17430e1efbdd2add374e"
      },
      {
        "passId": "485",
        "signer": "0xe5a3d77d7788a83f3549dd7f08fc2aced7e262d2"
      },
      {
        "passId": "486",
        "signer": "0xe66e1e9e37e4e148b21eb22001431818e980d060"
      },
      {
        "passId": "487",
        "signer": "0xe7bd51dc30d4bdc9fddd42ea7c0a283590c9d416"
      },
      {
        "passId": "488",
        "signer": "0xeb42cd8a1fe1ff556960a9a03ca29aa13f8aa838"
      },
      {
        "passId": "489",
        "signer": "0xed0f30677c760ea8f0bff70c76eafc79d5f7c3c8"
      },
      {
        "passId": "490",
        "signer": "0xeddd55a234240042695d7430bf0a09b9038a26ad"
      },
      {
        "passId": "491",
        "signer": "0xee4d308cc1cde3dd0adcb5a2c85edff22db64918"
      },
      {
        "passId": "492",
        "signer": "0xee9439a12a7c2a9b6600ca8a498620580d2f116e"
      },
      {
        "passId": "493",
        "signer": "0xeeaf61935c0c48f8f8cc28c381683d7fa2f75e1c"
      },
      {
        "passId": "494",
        "signer": "0xef1271ae97bc1a1b356ab697e9ed0d1d4e05fcda"
      },
      {
        "passId": "495",
        "signer": "0xf19bc58f747d6ea11959bf2a0fa81e53285546ac"
      },
      {
        "passId": "496",
        "signer": "0xf1e1c701b49b1dc2405a9e8ef40f9f88802b80fa"
      },
      {
        "passId": "497",
        "signer": "0xf2b15320db6992ba49a7563e50e888c20edcbe3c"
      },
      {
        "passId": "498",
        "signer": "0xf341c3abb49feb96b4822e68227b54c6fb9f6318"
      },
      {
        "passId": "499",
        "signer": "0xf3493f6812b1f22b40f8539db2510e13ac251f96"
      },
      {
        "passId": "500",
        "signer": "0xf3b1b6e83be4d55695f1d30ac3d307d9d5ca98ff"
      },
      {
        "passId": "501",
        "signer": "0xf464d1a37d8ef9449722f44a4eeb715c0e0acdb3"
      },
      {
        "passId": "502",
        "signer": "0xf6910d47fbb1f5518d60c721d4189936ecd5a1b6"
      },
      {
        "passId": "503",
        "signer": "0xf73c935815908ad9a056fc50269f95d8ba032e9d"
      },
      {
        "passId": "504",
        "signer": "0xf78cd306b23031de9e739a5bcde61764e82ad5ef"
      },
      {
        "passId": "505",
        "signer": "0xf942040710bedf7220beb24b220631c2255e87f1"
      },
      {
        "passId": "506",
        "signer": "0xf943e1d2db38db468f66a79b08ec23f8c4375ce3"
      },
      {
        "passId": "507",
        "signer": "0xfa46dedf812c5803b1e2cea10eef3f27dafeca56"
      },
      {
        "passId": "508",
        "signer": "0xfa9f104f338846b38b083c9e567ff6bbe43ab5f7"
      },
      {
        "passId": "509",
        "signer": "0xfd12799b9fb97dc61d9ad7ad4ffba5624004bc62"
      },
      {
        "passId": "510",
        "signer": "0xfe1e7dc61721f34a25c9eb4dc1a1a8f352c923ef"
      },
      {
        "passId": "511",
        "signer": "0xfffff6e70842330948ca47254f2be673b1cb0db7"
      }
    ]
  },
  "solcInputHash": "7a86ad9086924b6c6f45f586cc717f1f",
  "bytecode": "0x6101806040523480156200001257600080fd5b5060405162001e9238038062001e9283398101604081905262000035916200008c565b6001600160a01b0398891660805292881660a052961660c05260e095909552610100939093526101209190915261014052610160526000556200011c565b6001600160a01b03811681146200008957600080fd5b50565b60008060008060008060008060006101208a8c031215620000ac57600080fd5b8951620000b98162000073565b8099505060208a0151975060408a0151965060608a0151955060808a0151945060a08a0151620000e98162000073565b60c08b0151909450620000fc8162000073565b8093505060e08a015191506101008a015190509295985092959850929598565b60805160a05160c05160e05161010051610120516101405161016051611c99620001f96000396000818161033b015281816105770152610d1c015260008181610318015281816103d601528181610556015281816105d6015281816106e40152610e9b0152600081816102f5015281816105350152610ec30152600081816102d2015281816105140152610ee901526000818161035e0152818161059801528181610f0f0152610f4b015260006109cf01526000818161079201526110420152600081816102030152818161094a01526110db0152611c996000f3fe6080604052600436106100965760003560e01c80637361a72e116100695780639c2055131161004e5780639c205513146101a0578063e31b3a68146101b3578063e957a381146101d357600080fd5b80637361a72e1461016d578063990b0f601461018057600080fd5b80630ccc797f1461009b5780632228adcc146100d95780632558e933146101095780636d048d531461011e575b600080fd5b3480156100a757600080fd5b506100bb6100b636600461158a565b6101f3565b6040516100d099989796959493929190611616565b60405180910390f35b3480156100e557600080fd5b506100f96100f43660046116b2565b6103aa565b60405190151581526020016100d0565b61011c6101173660046117ef565b6103d4565b005b34801561012a57600080fd5b5061013e6101393660046118f1565b610509565b6040805196875260208701959095529385019290925260608401526080830152151560a082015260c0016100d0565b61011c61017b36600461190e565b6105d4565b34801561018c57600080fd5b506100f961019b3660046116b2565b610697565b61011c6101ae366004611978565b6106e2565b3480156101bf57600080fd5b5061011c6101ce366004611978565b61077a565b3480156101df57600080fd5b506100f96101ee3660046116b2565b6109aa565b60606000806000806000806000807f000000000000000000000000000000000000000000000000000000000000000073ffffffffffffffffffffffffffffffffffffffff1663a0554c268c8c6040518363ffffffff1660e01b815260040161025c9291906119af565b60006040518083038186803b15801561027457600080fd5b505afa158015610288573d6000803e3d6000fd5b505050506040513d6000823e601f3d9081017fffffffffffffffffffffffffffffffffffffffffffffffffffffffffffffffe01682016040526102ce9190810190611a04565b98507f000000000000000000000000000000000000000000000000000000000000000097507f000000000000000000000000000000000000000000000000000000000000000096507f000000000000000000000000000000000000000000000000000000000000000095507f000000000000000000000000000000000000000000000000000000000000000094507f000000000000000000000000000000000000000000000000000000000000000093506103888d6109c8565b92506103938c610697565b915060005490509499509499509499509499909550565b6000806103bc6010600685901c611acd565b905080600714806103cd5750806008145b9392505050565b7f00000000000000000000000000000000000000000000000000000000000000004210156104f85761040583610b31565b600061047083858760405160200161044c92919091825260601b7fffffffffffffffffffffffffffffffffffffffff00000000000000000000000016602082015260340190565b60405160208183030381529060405280519060200120610bef90919063ffffffff16565b9050600061047e8583610c13565b905061048a8382610c74565b6104f5576040517f08c379a000000000000000000000000000000000000000000000000000000000815260206004820152600d60248201527f494e56414c49445f50524f4f460000000000000000000000000000000000000060448201526064015b60405180910390fd5b50505b6105028585610d41565b5050505050565b6000806000806000807f00000000000000000000000000000000000000000000000000000000000000007f00000000000000000000000000000000000000000000000000000000000000007f00000000000000000000000000000000000000000000000000000000000000007f00000000000000000000000000000000000000000000000000000000000000007f00000000000000000000000000000000000000000000000000000000000000006105c08c6109c8565b949c939b5091995097509550909350915050565b7f00000000000000000000000000000000000000000000000000000000000000004210156106875761060582610b31565b3360006106128483610c13565b905061061e8382610c74565b610684576040517f08c379a000000000000000000000000000000000000000000000000000000000815260206004820152600d60248201527f494e56414c49445f50524f4f460000000000000000000000000000000000000060448201526064016104ec565b50505b6106918484610d41565b50505050565b6000806106a661010084611b10565b905060006106b682610100611b24565b6106c09085611b61565b60009283526001602081905260409093205492901b9182169091149392505050565b7f000000000000000000000000000000000000000000000000000000000000000042101561076c576040517f08c379a000000000000000000000000000000000000000000000000000000000815260206004820152601460248201527f524551554952455f504153535f4f525f5741495400000000000000000000000060448201526064016104ec565b6107768282610d41565b5050565b3373ffffffffffffffffffffffffffffffffffffffff7f00000000000000000000000000000000000000000000000000000000000000001614610819576040517f08c379a000000000000000000000000000000000000000000000000000000000815260206004820152600e60248201527f4e4f545f415554484f52495a454400000000000000000000000000000000000060448201526064016104ec565b6102408261ffff1610610888576040517f08c379a000000000000000000000000000000000000000000000000000000000815260206004820152600d60248201527f494e56414c49445f534f554e440000000000000000000000000000000000000060448201526064016104ec565b6108958261ffff166103aa565b6108fb576040517f08c379a000000000000000000000000000000000000000000000000000000000815260206004820152600c60248201527f4e4f545f5245534552564544000000000000000000000000000000000000000060448201526064016104ec565b6040517f9c20551300000000000000000000000000000000000000000000000000000000815261ffff8316600482015273ffffffffffffffffffffffffffffffffffffffff82811660248301527f00000000000000000000000000000000000000000000000000000000000000001690639c20551390604401600060405180830381600087803b15801561098e57600080fd5b505af11580156109a2573d6000803e3d6000fd5b505050505050565b6000806109bc6010600685901c611acd565b60005410159392505050565b60008060007f000000000000000000000000000000000000000000000000000000000000000073ffffffffffffffffffffffffffffffffffffffff1684604051602401610a31919073ffffffffffffffffffffffffffffffffffffffff91909116815260200190565b604080517fffffffffffffffffffffffffffffffffffffffffffffffffffffffffffffffe08184030181529181526020820180517bffffffffffffffffffffffffffffffffffffffffffffffffffffffff167f70a082310000000000000000000000000000000000000000000000000000000017905251610ab29190611b78565b600060405180830381855afa9150503d8060008114610aed576040519150601f19603f3d011682016040523d82523d6000602084013e610af2565b606091505b50915091506000828015610b07575060008251115b610b12576000610b26565b81806020019051810190610b269190611bb3565b151595945050505050565b6000610b3f61010083611b10565b90506000610b4f82610100611b24565b610b599084611b61565b600083815260016020819052604090912054911b915080821615610bd9576040517f08c379a000000000000000000000000000000000000000000000000000000000815260206004820152601160248201527f504153535f414c52454144595f5553454400000000000000000000000000000060448201526064016104ec565b6000928352600160205260409092209117905550565b6000806000610bfe858561113c565b91509150610c0b816111ac565b509392505050565b60008282604051602001610c5692919091825260601b7fffffffffffffffffffffffffffffffffffffffff00000000000000000000000016602082015260340190565b60405160208183030381529060405280519060200120905092915050565b6000805b8351811015610d18576000848281518110610c9557610c95611bcc565b6020026020010151905080841015610cd8576040805160208101869052908101829052606001604051602081830303815290604052805190602001209350610d05565b60408051602081018390529081018590526060016040516020818303038152906040528051906020012093505b5080610d1081611bfb565b915050610c78565b50507f000000000000000000000000000000000000000000000000000000000000000014919050565b6102408261ffff1610610db0576040517f08c379a000000000000000000000000000000000000000000000000000000000815260206004820152600d60248201527f494e56414c49445f534f554e440000000000000000000000000000000000000060448201526064016104ec565b610dbd8261ffff166109aa565b610e23576040517f08c379a000000000000000000000000000000000000000000000000000000000815260206004820152601b60248201527f494e535455524d454e545f4e4f545f5945545f464f525f53414c45000000000060448201526064016104ec565b610e308261ffff166103aa565b15610e97576040517f08c379a000000000000000000000000000000000000000000000000000000000815260206004820152600860248201527f524553455256454400000000000000000000000000000000000000000000000060448201526064016104ec565b60007f0000000000000000000000000000000000000000000000000000000000000000421015610ee7577f0000000000000000000000000000000000000000000000000000000000000000610f09565b7f00000000000000000000000000000000000000000000000000000000000000005b905060007f0000000000000000000000000000000000000000000000000000000000000000118015610f3f5750610f3f336109c8565b15610f87576064610f707f000000000000000000000000000000000000000000000000000000000000000083611b24565b610f7a9190611b10565b610f849082611b61565b90505b80341015610ff1576040517f08c379a000000000000000000000000000000000000000000000000000000000815260206004820152600a60248201527f4e4f545f454e4f5547480000000000000000000000000000000000000000000060448201526064016104ec565b336108fc610fff8334611b61565b6040518115909202916000818181858888f19350505050158015611027573d6000803e3d6000fd5b5060405173ffffffffffffffffffffffffffffffffffffffff7f0000000000000000000000000000000000000000000000000000000000000000169082156108fc029083906000818181858888f1935050505015801561108b573d6000803e3d6000fd5b506040517f9c20551300000000000000000000000000000000000000000000000000000000815261ffff8416600482015273ffffffffffffffffffffffffffffffffffffffff83811660248301527f00000000000000000000000000000000000000000000000000000000000000001690639c20551390604401600060405180830381600087803b15801561111f57600080fd5b505af1158015611133573d6000803e3d6000fd5b50505050505050565b6000808251604114156111735760208301516040840151606085015160001a61116787828585611408565b945094505050506111a5565b82516040141561119d5760208301516040840151611192868383611520565b9350935050506111a5565b506000905060025b9250929050565b60008160048111156111c0576111c0611c34565b14156111c95750565b60018160048111156111dd576111dd611c34565b1415611245576040517f08c379a000000000000000000000000000000000000000000000000000000000815260206004820152601860248201527f45434453413a20696e76616c6964207369676e6174757265000000000000000060448201526064016104ec565b600281600481111561125957611259611c34565b14156112c1576040517f08c379a000000000000000000000000000000000000000000000000000000000815260206004820152601f60248201527f45434453413a20696e76616c6964207369676e6174757265206c656e6774680060448201526064016104ec565b60038160048111156112d5576112d5611c34565b1415611363576040517f08c379a000000000000000000000000000000000000000000000000000000000815260206004820152602260248201527f45434453413a20696e76616c6964207369676e6174757265202773272076616c60448201527f756500000000000000000000000000000000000000000000000000000000000060648201526084016104ec565b600481600481111561137757611377611c34565b1415611405576040517f08c379a000000000000000000000000000000000000000000000000000000000815260206004820152602260248201527f45434453413a20696e76616c6964207369676e6174757265202776272076616c60448201527f756500000000000000000000000000000000000000000000000000000000000060648201526084016104ec565b50565b6000807f7fffffffffffffffffffffffffffffff5d576e7357a4501ddfe92f46681b20a083111561143f5750600090506003611517565b8460ff16601b1415801561145757508460ff16601c14155b156114685750600090506004611517565b6040805160008082526020820180845289905260ff881692820192909252606081018690526080810185905260019060a0016020604051602081039080840390855afa1580156114bc573d6000803e3d6000fd5b50506040517fffffffffffffffffffffffffffffffffffffffffffffffffffffffffffffffe0015191505073ffffffffffffffffffffffffffffffffffffffff811661151057600060019250925050611517565b9150600090505b94509492505050565b6000807f7fffffffffffffffffffffffffffffffffffffffffffffffffffffffffffffff831660ff84901c601b0161155a87828885611408565b935093505050935093915050565b73ffffffffffffffffffffffffffffffffffffffff8116811461140557600080fd5b600080600080606085870312156115a057600080fd5b84356115ab81611568565b935060208501359250604085013567ffffffffffffffff808211156115cf57600080fd5b818701915087601f8301126115e357600080fd5b8135818111156115f257600080fd5b8860208260051b850101111561160757600080fd5b95989497505060200194505050565b6101208082528a51908201819052600090610140830190602090818e01845b8281101561166757815173ffffffffffffffffffffffffffffffffffffffff1685529383019390830190600101611635565b5050508192508b8185015250508860408301528760608301528660808301528560a083015261169a60c083018615159052565b92151560e08201526101000152979650505050505050565b6000602082840312156116c457600080fd5b5035919050565b803561ffff811681146116dd57600080fd5b919050565b7f4e487b7100000000000000000000000000000000000000000000000000000000600052604160045260246000fd5b604051601f82017fffffffffffffffffffffffffffffffffffffffffffffffffffffffffffffffe016810167ffffffffffffffff81118282101715611758576117586116e2565b604052919050565b600067ffffffffffffffff82111561177a5761177a6116e2565b5060051b60200190565b600082601f83011261179557600080fd5b813560206117aa6117a583611760565b611711565b82815260059290921b840181019181810190868411156117c957600080fd5b8286015b848110156117e457803583529183019183016117cd565b509695505050505050565b600080600080600060a0868803121561180757600080fd5b611810866116cb565b945060208087013561182181611568565b945060408701359350606087013567ffffffffffffffff8082111561184557600080fd5b818901915089601f83011261185957600080fd5b81358181111561186b5761186b6116e2565b61189b847fffffffffffffffffffffffffffffffffffffffffffffffffffffffffffffffe0601f84011601611711565b8181528b858386010111156118af57600080fd5b8185850186830137600091810190940152919350608088013591808311156118d657600080fd5b50506118e488828901611784565b9150509295509295909350565b60006020828403121561190357600080fd5b81356103cd81611568565b6000806000806080858703121561192457600080fd5b61192d856116cb565b9350602085013561193d81611568565b925060408501359150606085013567ffffffffffffffff81111561196057600080fd5b61196c87828801611784565b91505092959194509250565b6000806040838503121561198b57600080fd5b611994836116cb565b915060208301356119a481611568565b809150509250929050565b6020815281602082015260007f07ffffffffffffffffffffffffffffffffffffffffffffffffffffffffffffff8311156119e857600080fd5b8260051b80856040850137600092016040019182525092915050565b60006020808385031215611a1757600080fd5b825167ffffffffffffffff811115611a2e57600080fd5b8301601f81018513611a3f57600080fd5b8051611a4d6117a582611760565b81815260059190911b82018301908381019087831115611a6c57600080fd5b928401925b82841015611a93578351611a8481611568565b82529284019290840190611a71565b979650505050505050565b7f4e487b7100000000000000000000000000000000000000000000000000000000600052601260045260246000fd5b600082611adc57611adc611a9e565b500690565b7f4e487b7100000000000000000000000000000000000000000000000000000000600052601160045260246000fd5b600082611b1f57611b1f611a9e565b500490565b6000817fffffffffffffffffffffffffffffffffffffffffffffffffffffffffffffffff0483118215151615611b5c57611b5c611ae1565b500290565b600082821015611b7357611b73611ae1565b500390565b6000825160005b81811015611b995760208186018101518583015201611b7f565b81811115611ba8576000828501525b509190910192915050565b600060208284031215611bc557600080fd5b5051919050565b7f4e487b7100000000000000000000000000000000000000000000000000000000600052603260045260246000fd5b60007fffffffffffffffffffffffffffffffffffffffffffffffffffffffffffffffff821415611c2d57611c2d611ae1565b5060010190565b7f4e487b7100000000000000000000000000000000000000000000000000000000600052602160045260246000fdfea2646970667358221220f35a815bb09f2c9c85c5e019ce8e323a850cfa3366ee11e30e8cb58a1dd6818664736f6c63430008090033",
  "devdoc": {
    "kind": "dev",
    "methods": {},
    "version": 1
  },
  "userdoc": {
    "kind": "user",
    "methods": {},
    "version": 1
  },
  "storageLayout": {
    "storage": [
      {
        "astId": 9128,
        "contract": "src/bleeps/BleepsFixedPriceSale.sol:BleepsFixedPriceSale",
        "label": "_uptoInstr",
        "offset": 0,
        "slot": "0",
        "type": "t_uint256"
      },
      {
        "astId": 9132,
        "contract": "src/bleeps/BleepsFixedPriceSale.sol:BleepsFixedPriceSale",
        "label": "_passUsed",
        "offset": 0,
        "slot": "1",
        "type": "t_mapping(t_uint256,t_uint256)"
      }
    ],
    "types": {
      "t_mapping(t_uint256,t_uint256)": {
        "encoding": "mapping",
        "key": "t_uint256",
        "label": "mapping(uint256 => uint256)",
        "numberOfBytes": "32",
        "value": "t_uint256"
      },
      "t_uint256": {
        "encoding": "inplace",
        "label": "uint256",
        "numberOfBytes": "32"
      }
    }
  }
}