{
  "address": "0x0A77c7544b7e1f81f522f833b984E3e951294226",
  "abi": [
    {
      "inputs": [
        {
          "internalType": "uint256",
          "name": "id",
          "type": "uint256"
        }
      ],
      "name": "wav",
      "outputs": [
        {
          "internalType": "string",
          "name": "",
          "type": "string"
        }
      ],
      "stateMutability": "view",
      "type": "function"
    }
  ],
  "transactionHash": "0x0d61d95e028d157df37ca302d90f97763fe417a6426f8154c73b808464df2dae",
  "args": [],
  "solcInputHash": "596d2ac5c800e142c3a4be152947f99a",
  "bytecode": "0x608060405234801561001057600080fd5b50611461806100206000396000f3fe608060405234801561001057600080fd5b506004361061002b5760003560e01c8063c4df382614610030575b600080fd5b61004361003e366004610d98565b610059565b6040516100509190610de1565b60405180910390f35b60606100648261006a565b92915050565b60408051620186a0808252620186c082019092526060916000919060208201818036833701905050905060006100a084836105f7565b905060006100af604086610e61565b905060006100c26040600688901c610e61565b604080516060810182528181529192506101f4916000916113ec602083013990506000806100f1876020610ea4565b90506001830191508088019050600060405180610120016040528060fc81526020016112f060fc913960408051600480825260a082019092529192506000918291602082016080803683370190505090506000965060005b612df68110156105d65761223e81111561018d57610168600282610e61565b1580156101755750600088115b1561018857610185600189610ebc565b97505b6101c4565b610198600382610e61565b610188576101f488101561018857610185600189610ea4565b8060008112156101bf576000035b919050565b612af861271062ffffff60038d0260200187015160e81c1602046000805b600381101561057b5760008615610562578c6102395761020e620f42406002620f42408a0602036101b1565b60029081027ffffffffffffffffffffffffffffffffffffffffffffffffffffffffffff0bdc0010590505b60018d14156102bb57620f42408707620d59f881121561025d576007601082020591505b620d59f881131561027457601081620f4240030291505b620d59f881141561028b57601081620f4240030291505b50620f42407ffffffffffffffffffffffffffffffffffffffffffffffffffffffffffff0bdc09091016207a12002055b60028d14156102f55750620f42407ffffffffffffffffffffffffffffffffffffffffffffffffffffffffffff85ee081880701620aae6002055b60038d141561033e57507ffffffffffffffffffffffffffffffffffffffffffffffffffffffffffff0bdc0620f424087076207a12081101561033857620f424091505b50600490055b60048d141561038357507ffffffffffffffffffffffffffffffffffffffffffffffffffffffffffff0bdc0620f424087076204c4b481101561038157620f424091505b505b60058d14156103e257600487029050620f42406207a120620186a06207a12060026207a1206103c5620f4240621e8480620f42406207a1208b020507036101b1565b03056103da620f4240621e84808807036101b1565b010303020590505b60068d14156104db5760208601516040870151606088015160808901516380000000613039856341c64e6d020106935062027100620f4240848d03020482915080620f424001620f42406308000000621e848088020403828401020592508b9350620f42408160020360036004868601020502059550507ffffffffffffffffffffffffffffffffffffffffffffffffffffffffffff0bdc08512156104a5577ffffffffffffffffffffffffffffffffffffffffffffffffffffffffffff0bdc094505b620f42408513156104b757620f424094505b60208a0193909352604089019190915260608801526080870152600a600591909102055b60078d141561054957506002868102906203d090906207a12061052a7ffffffffffffffffffffffffffffffffffffffffffffffffffffffffffff0bdc0621e8480608060fe8e020507016101b1565b0305036207a120610544620f4240621e84808507036101b1565b030190505b6102bc8c82020590506080621e84806101008302050190505b95830195600882026010031b91909101906001016101e2565b50603f8160121c168801518753600187019650603f81600c1c168801518753600187019650603f8160061c168801518753600187019650603f811688015187535050600194909401936105cf600382610ea4565b9050610149565b506105e68b8587612df68e6106d9565b50989b9a5050505050505050505050565b60008061060384610904565b90506000818260405160200161061a929190610eef565b604080517fffffffffffffffffffffffffffffffffffffffffffffffffffffffffffffffe0818403018152919052805190915060208083019086015b6020831061069357815181527fffffffffffffffffffffffffffffffffffffffffffffffffffffffffffffffe09092019160209182019101610656565b905181516020939093036101000a7fffffffffffffffffffffffffffffffffffffffffffffffffffffffffffffffff018019909116921691909117905251949350505050565b60228453600184019350607d84536001840193506020858503038552600060086001846107069190610ebc565b6107119060026111ac565b61071c90602c610ea4565b6107269190610ebc565b90506000602c610737836008610ea4565b6107419190610ebc565b90506034610750846020610ea4565b61075a9190610ebc565b603f602084901b64ff0000000016601085811b63ff000000169190910162ff00008616019085901c61ff0016016546000000005701602a81901c919091168701519189019750908753600187019650603f8160241c168601518753600187019650603f81601e1c168601518753600187019650603f8160181c168601518753600187019650603f8160121c168601518753600187019650603f81600c1c168601518753600187019650603f8160061c168601518753600187019650603f8116860151875350600461082c846020610ea4565b6108369190610ebc565b603f602083901b64ff0000000016601084811b63ff000000169190910162ff00008516019084901c61ff0016016561000000005701602a81901c919091168701519189019750908753600187019650603f8160241c168601518753600187019650603f81601e1c168601518753600187019650603f8160181c168601518753600187019650603f8160121c168601518753600187019650603f81600c1c168601518753600187019650603f8160061c168601518753600187019650603f811686015187535050505050505050565b60606000610913604084610e61565b905060006109266040600686901c610e61565b90508061096a576040518060400160405280600d81526020017f545249414e474c452532305f5f000000000000000000000000000000000000008152509250610b50565b80600114156109b0576040518060400160405280601181526020017f54494c5445442532305341572532305f5f0000000000000000000000000000008152509250610b50565b80600214156109f6576040518060400160405280600881526020017f5341572532305f5f0000000000000000000000000000000000000000000000008152509250610b50565b8060031415610a3c576040518060400160405280600b81526020017f5351554152452532305f5f0000000000000000000000000000000000000000008152509250610b50565b8060041415610a82576040518060400160405280600a81526020017f50554c53452532305f5f000000000000000000000000000000000000000000008152509250610b50565b8060051415610ac8576040518060400160405280600a81526020017f4f5247414e2532305f5f000000000000000000000000000000000000000000008152509250610b50565b8060061415610b0e576040518060400160405280600a81526020017f4e4f4953452532305f5f000000000000000000000000000000000000000000008152509250610b50565b8060071415610b50576040518060400160405280600b81526020017f5048415345522532305f5f00000000000000000000000000000000000000000081525092505b6000610b5d600c84610e61565b90508060ff811615610b775780610b73816111e9565b9150505b60028260ff161115610b915780610b8d816111e9565b9150505b60058260ff161115610bab5780610ba7816111e9565b9150505b60078260ff161115610bc55780610bc1816111e9565b9150505b60098260ff161115610bdf5780610bdb816111e9565b9150505b6007610bec826002611224565b610bf69190611249565b610c01906041611224565b60f81b8560028751610c139190610ebc565b81518110610c2357610c2361126b565b60200101907effffffffffffffffffffffffffffffffffffffffffffffffffffffffffffff1916908160001a9053508160ff1660011480610c6757508160ff166003145b80610c7557508160ff166006145b80610c8357508160ff166008145b80610c9157508160ff16600a145b15610d28577f25000000000000000000000000000000000000000000000000000000000000008560018751610cc69190610ebc565b81518110610cd657610cd661126b565b60200101907effffffffffffffffffffffffffffffffffffffffffffffffffffffffffffff1916908160001a90535084604051602001610d16919061129a565b60405160208183030381529060405294505b610d33600c856112db565b610d3e906030611224565b60f81b8560018751610d509190610ebc565b81518110610d6057610d6061126b565b60200101907effffffffffffffffffffffffffffffffffffffffffffffffffffffffffffff1916908160001a90535050505050919050565b600060208284031215610daa57600080fd5b5035919050565b60005b83811015610dcc578181015183820152602001610db4565b83811115610ddb576000848401525b50505050565b6020815260008251806020840152610e00816040850160208701610db1565b601f017fffffffffffffffffffffffffffffffffffffffffffffffffffffffffffffffe0169190910160400192915050565b7f4e487b7100000000000000000000000000000000000000000000000000000000600052601260045260246000fd5b600082610e7057610e70610e32565b500690565b7f4e487b7100000000000000000000000000000000000000000000000000000000600052601160045260246000fd5b60008219821115610eb757610eb7610e75565b500190565b600082821015610ece57610ece610e75565b500390565b60008151610ee5818560208601610db1565b9290920192915050565b7f646174613a6170706c69636174696f6e2f6a736f6e2c7b226e616d65223a2200815260008351610f2781601f850160208801610db1565b7f222c226465736372697074696f6e223a2241253230736f756e6425323066756c601f918401918201527f6c7925323067656e6572617465642532306f6e636861696e222c226578746572603f8201527f6e616c5f75726c223a2200000000000000000000000000000000000000000000605f8201527f68747470733a2f2f626c656570732e6574682e6c696e6b00000000000000000060698201527f222c22696d616765223a22646174613a696d6167652f7376672b786d6c2c3c7360808201527f7667253235323076696577426f783d273025323532303025323532303332253260a08201527f35323031362725323532303e3c746578742532353230783d273136272532353260c08201527f30793d2738272532353230646f6d696e616e742d626173656c696e653d276d6960e08201527f64646c65272532353230746578742d616e63686f723d276d6964646c652725326101008201527f3532307374796c653d2766696c6c3a2532353230726762283231392c253235326101208201527f3033392c2532353230313139293b2532353230666f6e742d73697a653a2532356101408201527f3230313270783b273e00000000000000000000000000000000000000000000006101608201526111a3611108610169830186610ed3565b7f3c2f746578743e3c2f7376673e222c22616e696d6174696f6e5f75726c223a2281527f646174613a617564696f2f7761763b6261736536342c556b6c4752674141414160208201527f425851565a465a6d31304942414141414142414145412b436f4141504256414160408201527f4142414167415a474630595141410000000000000000000000000000000000006060820152606e0190565b95945050505050565b6000817fffffffffffffffffffffffffffffffffffffffffffffffffffffffffffffffff04831182151516156111e4576111e4610e75565b500290565b600060ff8216806111fc576111fc610e75565b7fffffffffffffffffffffffffffffffffffffffffffffffffffffffffffffffff0192915050565b600060ff821660ff84168060ff0382111561124157611241610e75565b019392505050565b600060ff83168061125c5761125c610e32565b8060ff84160691505092915050565b7f4e487b7100000000000000000000000000000000000000000000000000000000600052603260045260246000fd5b600082516112ac818460208701610db1565b7f32335f0000000000000000000000000000000000000000000000000000000000920191825250600301919050565b6000826112ea576112ea610e32565b50049056fe00198d001b12001cae001e6200203100221b00242200264800288f002af8002d8600303b00331900362300395b003cc4004061004435004844004c9000511d0055f0005b0c006076006633006c460072b60079890080c300886b00908700992000a23a00abe000b61800c0ec00cc6500d88d00e56d00f3110101850110d601210f01323f0144750157c0016c310181d90198ca01b11901cada01e62302030b0221ab02421e02647e0288ea02af8002d8620303b10331940362320395b403cc4604061604435704843c04c8fc0511d4055f0005b0c306076306632906c464072b6707988b080c2c0886ad0908770991f90a23a80abe000b61860c0ec54142434445464748494a4b4c4d4e4f505152535455565758595a6162636465666768696a6b6c6d6e6f707172737475767778797a303132333435363738392b2fa264697066735822122038deecd26351a3ac081c3bd57c95a92ed4e94af97a2f67452e9f5e71aaa1587764736f6c63430008090033",
  "devdoc": {
    "kind": "dev",
    "methods": {},
    "version": 1
  },
  "userdoc": {
    "kind": "user",
    "methods": {},
    "version": 1
  },
  "storageLayout": {
    "storage": [],
    "types": null
  }
}