{
  "address": "0xDd7ce3658a01bbADFf209EC19B259D30CE9559E3",
  "abi": [
    {
      "inputs": [
        {
          "internalType": "address",
          "name": "openseaProxyRegistry",
          "type": "address"
        },
        {
          "internalType": "address",
          "name": "initialTokenURIAdmin",
          "type": "address"
        },
        {
          "internalType": "address",
          "name": "initialRoyaltyAdmin",
          "type": "address"
        },
        {
          "internalType": "address",
          "name": "initialMinterAdmin",
          "type": "address"
        },
        {
          "internalType": "address",
          "name": "initialGuardian",
          "type": "address"
        },
        {
          "internalType": "contract ITokenURI",
          "name": "initialTokenURIContract",
          "type": "address"
        },
        {
          "internalType": "address",
          "name": "initialCheckpointingDisabler",
          "type": "address"
        }
      ],
      "stateMutability": "nonpayable",
      "type": "constructor"
    },
    {
      "anonymous": false,
      "inputs": [
        {
          "indexed": true,
          "internalType": "address",
          "name": "owner",
          "type": "address"
        },
        {
          "indexed": true,
          "internalType": "address",
          "name": "approved",
          "type": "address"
        },
        {
          "indexed": true,
          "internalType": "uint256",
          "name": "tokenId",
          "type": "uint256"
        }
      ],
      "name": "Approval",
      "type": "event"
    },
    {
      "anonymous": false,
      "inputs": [
        {
          "indexed": true,
          "internalType": "address",
          "name": "owner",
          "type": "address"
        },
        {
          "indexed": true,
          "internalType": "address",
          "name": "operator",
          "type": "address"
        },
        {
          "indexed": false,
          "internalType": "bool",
          "name": "approved",
          "type": "bool"
        }
      ],
      "name": "ApprovalForAll",
      "type": "event"
    },
    {
      "anonymous": false,
      "inputs": [],
      "name": "CheckpointingDisabled",
      "type": "event"
    },
    {
      "anonymous": false,
      "inputs": [
        {
          "indexed": false,
          "internalType": "address",
          "name": "newCheckpointingDisabler",
          "type": "address"
        }
      ],
      "name": "CheckpointingDisablerSet",
      "type": "event"
    },
    {
      "anonymous": false,
      "inputs": [
        {
          "indexed": true,
          "internalType": "address",
          "name": "delegator",
          "type": "address"
        },
        {
          "indexed": true,
          "internalType": "address",
          "name": "fromDelegate",
          "type": "address"
        },
        {
          "indexed": true,
          "internalType": "address",
          "name": "toDelegate",
          "type": "address"
        }
      ],
      "name": "DelegateChanged",
      "type": "event"
    },
    {
      "anonymous": false,
      "inputs": [
        {
          "indexed": true,
          "internalType": "address",
          "name": "delegate",
          "type": "address"
        },
        {
          "indexed": false,
          "internalType": "uint256",
          "name": "previousBalance",
          "type": "uint256"
        },
        {
          "indexed": false,
          "internalType": "uint256",
          "name": "newBalance",
          "type": "uint256"
        }
      ],
      "name": "DelegateVotesChanged",
      "type": "event"
    },
    {
      "anonymous": false,
      "inputs": [
        {
          "indexed": false,
          "internalType": "address",
          "name": "newGuardian",
          "type": "address"
        }
      ],
      "name": "GuardianSet",
      "type": "event"
    },
    {
      "anonymous": false,
      "inputs": [
        {
          "indexed": false,
          "internalType": "address",
          "name": "newMinterAdmin",
          "type": "address"
        }
      ],
      "name": "MinterAdminSet",
      "type": "event"
    },
    {
      "anonymous": false,
      "inputs": [
        {
          "indexed": false,
          "internalType": "address",
          "name": "newMinter",
          "type": "address"
        }
      ],
      "name": "MinterSet",
      "type": "event"
    },
    {
      "anonymous": false,
      "inputs": [
        {
          "indexed": false,
          "internalType": "address",
          "name": "newRoyaltyAdmin",
          "type": "address"
        }
      ],
      "name": "RoyaltyAdminSet",
      "type": "event"
    },
    {
      "anonymous": false,
      "inputs": [
        {
          "indexed": false,
          "internalType": "address",
          "name": "newTokenURIAdmin",
          "type": "address"
        }
      ],
      "name": "TokenURIAdminSet",
      "type": "event"
    },
    {
      "anonymous": false,
      "inputs": [
        {
          "indexed": false,
          "internalType": "contract ITokenURI",
          "name": "newTokenURIContract",
          "type": "address"
        }
      ],
      "name": "TokenURIContractSet",
      "type": "event"
    },
    {
      "anonymous": false,
      "inputs": [
        {
          "indexed": true,
          "internalType": "address",
          "name": "from",
          "type": "address"
        },
        {
          "indexed": true,
          "internalType": "address",
          "name": "to",
          "type": "address"
        },
        {
          "indexed": true,
          "internalType": "uint256",
          "name": "tokenId",
          "type": "uint256"
        }
      ],
      "name": "Transfer",
      "type": "event"
    },
    {
      "inputs": [],
      "name": "DELEGATION_TYPEHASH",
      "outputs": [
        {
          "internalType": "bytes32",
          "name": "",
          "type": "bytes32"
        }
      ],
      "stateMutability": "view",
      "type": "function"
    },
    {
      "inputs": [],
      "name": "DOMAIN_SEPARATOR",
      "outputs": [
        {
          "internalType": "bytes32",
          "name": "",
          "type": "bytes32"
        }
      ],
      "stateMutability": "view",
      "type": "function"
    },
    {
      "inputs": [],
      "name": "DOMAIN_TYPEHASH",
      "outputs": [
        {
          "internalType": "bytes32",
          "name": "",
          "type": "bytes32"
        }
      ],
      "stateMutability": "view",
      "type": "function"
    },
    {
      "inputs": [],
      "name": "PERMIT_FOR_ALL_TYPEHASH",
      "outputs": [
        {
          "internalType": "bytes32",
          "name": "",
          "type": "bytes32"
        }
      ],
      "stateMutability": "view",
      "type": "function"
    },
    {
      "inputs": [],
      "name": "PERMIT_TYPEHASH",
      "outputs": [
        {
          "internalType": "bytes32",
          "name": "",
          "type": "bytes32"
        }
      ],
      "stateMutability": "view",
      "type": "function"
    },
    {
      "inputs": [
        {
          "internalType": "address",
          "name": "operator",
          "type": "address"
        },
        {
          "internalType": "uint256",
          "name": "id",
          "type": "uint256"
        }
      ],
      "name": "approve",
      "outputs": [],
      "stateMutability": "nonpayable",
      "type": "function"
    },
    {
      "inputs": [
        {
          "internalType": "address",
          "name": "owner",
          "type": "address"
        }
      ],
      "name": "balanceOf",
      "outputs": [
        {
          "internalType": "uint256",
          "name": "balance",
          "type": "uint256"
        }
      ],
      "stateMutability": "view",
      "type": "function"
    },
    {
      "inputs": [],
      "name": "checkpointingDisabler",
      "outputs": [
        {
          "internalType": "address",
          "name": "",
          "type": "address"
        }
      ],
      "stateMutability": "view",
      "type": "function"
    },
    {
      "inputs": [
        {
          "internalType": "address",
          "name": "",
          "type": "address"
        },
        {
          "internalType": "uint32",
          "name": "",
          "type": "uint32"
        }
      ],
      "name": "checkpoints",
      "outputs": [
        {
          "internalType": "uint32",
          "name": "fromBlock",
          "type": "uint32"
        },
        {
          "internalType": "uint96",
          "name": "votes",
          "type": "uint96"
        }
      ],
      "stateMutability": "view",
      "type": "function"
    },
    {
      "inputs": [],
      "name": "contractURI",
      "outputs": [
        {
          "internalType": "string",
          "name": "",
          "type": "string"
        }
      ],
      "stateMutability": "view",
      "type": "function"
    },
    {
      "inputs": [],
      "name": "decimals",
      "outputs": [
        {
          "internalType": "uint8",
          "name": "",
          "type": "uint8"
        }
      ],
      "stateMutability": "view",
      "type": "function"
    },
    {
      "inputs": [
        {
          "internalType": "address",
          "name": "delegatee",
          "type": "address"
        }
      ],
      "name": "delegate",
      "outputs": [],
      "stateMutability": "nonpayable",
      "type": "function"
    },
    {
      "inputs": [
        {
          "internalType": "address",
          "name": "delegatee",
          "type": "address"
        },
        {
          "internalType": "uint256",
          "name": "nonce",
          "type": "uint256"
        },
        {
          "internalType": "uint256",
          "name": "expiry",
          "type": "uint256"
        },
        {
          "internalType": "uint8",
          "name": "v",
          "type": "uint8"
        },
        {
          "internalType": "bytes32",
          "name": "r",
          "type": "bytes32"
        },
        {
          "internalType": "bytes32",
          "name": "s",
          "type": "bytes32"
        }
      ],
      "name": "delegateBySig",
      "outputs": [],
      "stateMutability": "nonpayable",
      "type": "function"
    },
    {
      "inputs": [
        {
          "internalType": "address",
          "name": "delegator",
          "type": "address"
        }
      ],
      "name": "delegates",
      "outputs": [
        {
          "internalType": "address",
          "name": "",
          "type": "address"
        }
      ],
      "stateMutability": "view",
      "type": "function"
    },
    {
      "inputs": [],
      "name": "disableTheUseOfCheckpoints",
      "outputs": [],
      "stateMutability": "nonpayable",
      "type": "function"
    },
    {
      "inputs": [
        {
          "internalType": "uint256",
          "name": "id",
          "type": "uint256"
        }
      ],
      "name": "getApproved",
      "outputs": [
        {
          "internalType": "address",
          "name": "",
          "type": "address"
        }
      ],
      "stateMutability": "view",
      "type": "function"
    },
    {
      "inputs": [
        {
          "internalType": "address",
          "name": "account",
          "type": "address"
        }
      ],
      "name": "getCurrentVotes",
      "outputs": [
        {
          "internalType": "uint96",
          "name": "",
          "type": "uint96"
        }
      ],
      "stateMutability": "view",
      "type": "function"
    },
    {
      "inputs": [
        {
          "internalType": "address",
          "name": "account",
          "type": "address"
        },
        {
          "internalType": "uint256",
          "name": "blockNumber",
          "type": "uint256"
        }
      ],
      "name": "getPriorVotes",
      "outputs": [
        {
          "internalType": "uint96",
          "name": "",
          "type": "uint96"
        }
      ],
      "stateMutability": "view",
      "type": "function"
    },
    {
      "inputs": [],
      "name": "guardian",
      "outputs": [
        {
          "internalType": "address",
          "name": "",
          "type": "address"
        }
      ],
      "stateMutability": "view",
      "type": "function"
    },
    {
      "inputs": [
        {
          "internalType": "address",
          "name": "owner",
          "type": "address"
        },
        {
          "internalType": "address",
          "name": "operator",
          "type": "address"
        }
      ],
      "name": "isApprovedForAll",
      "outputs": [
        {
          "internalType": "bool",
          "name": "isOperator",
          "type": "bool"
        }
      ],
      "stateMutability": "view",
      "type": "function"
    },
    {
      "inputs": [
        {
          "internalType": "uint16",
          "name": "id",
          "type": "uint16"
        },
        {
          "internalType": "address",
          "name": "to",
          "type": "address"
        }
      ],
      "name": "mint",
      "outputs": [],
      "stateMutability": "nonpayable",
      "type": "function"
    },
    {
      "inputs": [],
      "name": "minter",
      "outputs": [
        {
          "internalType": "address",
          "name": "",
          "type": "address"
        }
      ],
      "stateMutability": "view",
      "type": "function"
    },
    {
      "inputs": [],
      "name": "minterAdmin",
      "outputs": [
        {
          "internalType": "address",
          "name": "",
          "type": "address"
        }
      ],
      "stateMutability": "view",
      "type": "function"
    },
    {
      "inputs": [
        {
          "internalType": "bytes[]",
          "name": "data",
          "type": "bytes[]"
        }
      ],
      "name": "multicall",
      "outputs": [
        {
          "internalType": "bytes[]",
          "name": "results",
          "type": "bytes[]"
        }
      ],
      "stateMutability": "payable",
      "type": "function"
    },
    {
      "inputs": [],
      "name": "name",
      "outputs": [
        {
          "internalType": "string",
          "name": "",
          "type": "string"
        }
      ],
      "stateMutability": "pure",
      "type": "function"
    },
    {
      "inputs": [
        {
          "internalType": "address",
          "name": "owner",
          "type": "address"
        }
      ],
      "name": "nonces",
      "outputs": [
        {
          "internalType": "uint256",
          "name": "nonce",
          "type": "uint256"
        }
      ],
      "stateMutability": "view",
      "type": "function"
    },
    {
      "inputs": [
        {
          "internalType": "address",
          "name": "",
          "type": "address"
        }
      ],
      "name": "numCheckpoints",
      "outputs": [
        {
          "internalType": "uint32",
          "name": "",
          "type": "uint32"
        }
      ],
      "stateMutability": "view",
      "type": "function"
    },
    {
      "inputs": [
        {
          "internalType": "uint256[]",
          "name": "ids",
          "type": "uint256[]"
        }
      ],
      "name": "ownerAndLastTransferBlockNumberList",
      "outputs": [
        {
          "components": [
            {
              "internalType": "address",
              "name": "owner",
              "type": "address"
            },
            {
              "internalType": "uint256",
              "name": "lastTransferBlockNumber",
              "type": "uint256"
            }
          ],
          "internalType": "struct ERC721Base.OwnerData[]",
          "name": "ownersData",
          "type": "tuple[]"
        }
      ],
      "stateMutability": "view",
      "type": "function"
    },
    {
      "inputs": [
        {
          "internalType": "uint256",
          "name": "id",
          "type": "uint256"
        }
      ],
      "name": "ownerOf",
      "outputs": [
        {
          "internalType": "address",
          "name": "owner",
          "type": "address"
        }
      ],
      "stateMutability": "view",
      "type": "function"
    },
    {
      "inputs": [
        {
          "internalType": "uint256[]",
          "name": "ids",
          "type": "uint256[]"
        }
      ],
      "name": "owners",
      "outputs": [
        {
          "internalType": "address[]",
          "name": "addresses",
          "type": "address[]"
        }
      ],
      "stateMutability": "view",
      "type": "function"
    },
    {
      "inputs": [
        {
          "internalType": "address",
          "name": "spender",
          "type": "address"
        },
        {
          "internalType": "uint256",
          "name": "id",
          "type": "uint256"
        },
        {
          "internalType": "uint256",
          "name": "deadline",
          "type": "uint256"
        },
        {
          "internalType": "uint8",
          "name": "v",
          "type": "uint8"
        },
        {
          "internalType": "bytes32",
          "name": "r",
          "type": "bytes32"
        },
        {
          "internalType": "bytes32",
          "name": "s",
          "type": "bytes32"
        }
      ],
      "name": "permit",
      "outputs": [],
      "stateMutability": "nonpayable",
      "type": "function"
    },
    {
      "inputs": [
        {
          "internalType": "address",
          "name": "signer",
          "type": "address"
        },
        {
          "internalType": "address",
          "name": "spender",
          "type": "address"
        },
        {
          "internalType": "uint256",
          "name": "deadline",
          "type": "uint256"
        },
        {
          "internalType": "uint8",
          "name": "v",
          "type": "uint8"
        },
        {
          "internalType": "bytes32",
          "name": "r",
          "type": "bytes32"
        },
        {
          "internalType": "bytes32",
          "name": "s",
          "type": "bytes32"
        }
      ],
      "name": "permitForAll",
      "outputs": [],
      "stateMutability": "nonpayable",
      "type": "function"
    },
    {
      "inputs": [],
      "name": "royaltyAdmin",
      "outputs": [
        {
          "internalType": "address",
          "name": "",
          "type": "address"
        }
      ],
      "stateMutability": "view",
      "type": "function"
    },
    {
      "inputs": [
        {
          "internalType": "uint256",
          "name": "id",
          "type": "uint256"
        },
        {
          "internalType": "uint256",
          "name": "salePrice",
          "type": "uint256"
        }
      ],
      "name": "royaltyInfo",
      "outputs": [
        {
          "internalType": "address",
          "name": "receiver",
          "type": "address"
        },
        {
          "internalType": "uint256",
          "name": "royaltyAmount",
          "type": "uint256"
        }
      ],
      "stateMutability": "view",
      "type": "function"
    },
    {
      "inputs": [
        {
          "internalType": "address",
          "name": "from",
          "type": "address"
        },
        {
          "internalType": "address",
          "name": "to",
          "type": "address"
        },
        {
          "internalType": "uint256",
          "name": "id",
          "type": "uint256"
        }
      ],
      "name": "safeTransferFrom",
      "outputs": [],
      "stateMutability": "nonpayable",
      "type": "function"
    },
    {
      "inputs": [
        {
          "internalType": "address",
          "name": "from",
          "type": "address"
        },
        {
          "internalType": "address",
          "name": "to",
          "type": "address"
        },
        {
          "internalType": "uint256",
          "name": "id",
          "type": "uint256"
        },
        {
          "internalType": "bytes",
          "name": "data",
          "type": "bytes"
        }
      ],
      "name": "safeTransferFrom",
      "outputs": [],
      "stateMutability": "nonpayable",
      "type": "function"
    },
    {
      "inputs": [
        {
          "internalType": "address",
          "name": "operator",
          "type": "address"
        },
        {
          "internalType": "bool",
          "name": "approved",
          "type": "bool"
        }
      ],
      "name": "setApprovalForAll",
      "outputs": [],
      "stateMutability": "nonpayable",
      "type": "function"
    },
    {
      "inputs": [
        {
          "internalType": "address",
          "name": "newCheckpointingDisabler",
          "type": "address"
        }
      ],
      "name": "setCheckpointingDisabler",
      "outputs": [],
      "stateMutability": "nonpayable",
      "type": "function"
    },
    {
      "inputs": [
        {
          "internalType": "address",
          "name": "newGuardian",
          "type": "address"
        }
      ],
      "name": "setGuardian",
      "outputs": [],
      "stateMutability": "nonpayable",
      "type": "function"
    },
    {
      "inputs": [
        {
          "internalType": "address",
          "name": "newMinter",
          "type": "address"
        }
      ],
      "name": "setMinter",
      "outputs": [],
      "stateMutability": "nonpayable",
      "type": "function"
    },
    {
      "inputs": [
        {
          "internalType": "address",
          "name": "newMinterAdmin",
          "type": "address"
        }
      ],
      "name": "setMinterAdmin",
      "outputs": [],
      "stateMutability": "nonpayable",
      "type": "function"
    },
    {
      "inputs": [
        {
          "internalType": "address",
          "name": "newRoyaltyAdmin",
          "type": "address"
        }
      ],
      "name": "setRoyaltyAdmin",
      "outputs": [],
      "stateMutability": "nonpayable",
      "type": "function"
    },
    {
      "inputs": [
        {
          "internalType": "address",
          "name": "newRecipient",
          "type": "address"
        },
        {
          "internalType": "uint256",
          "name": "royaltyPer10Thousands",
          "type": "uint256"
        }
      ],
      "name": "setRoyaltyParameters",
      "outputs": [],
      "stateMutability": "nonpayable",
      "type": "function"
    },
    {
      "inputs": [
        {
          "internalType": "address",
          "name": "newTokenURIAdmin",
          "type": "address"
        }
      ],
      "name": "setTokenURIAdmin",
      "outputs": [],
      "stateMutability": "nonpayable",
      "type": "function"
    },
    {
      "inputs": [
        {
          "internalType": "contract ITokenURI",
          "name": "newTokenURIContract",
          "type": "address"
        }
      ],
      "name": "setTokenURIContract",
      "outputs": [],
      "stateMutability": "nonpayable",
      "type": "function"
    },
    {
      "inputs": [
        {
          "internalType": "uint256",
          "name": "id",
          "type": "uint256"
        }
      ],
      "name": "sound",
      "outputs": [
        {
          "internalType": "uint8",
          "name": "note",
          "type": "uint8"
        },
        {
          "internalType": "uint8",
          "name": "instrument",
          "type": "uint8"
        }
      ],
      "stateMutability": "pure",
      "type": "function"
    },
    {
      "inputs": [
        {
          "internalType": "bytes4",
          "name": "id",
          "type": "bytes4"
        }
      ],
      "name": "supportsInterface",
      "outputs": [
        {
          "internalType": "bool",
          "name": "",
          "type": "bool"
        }
      ],
      "stateMutability": "pure",
      "type": "function"
    },
    {
      "inputs": [],
      "name": "symbol",
      "outputs": [
        {
          "internalType": "string",
          "name": "",
          "type": "string"
        }
      ],
      "stateMutability": "pure",
      "type": "function"
    },
    {
      "inputs": [
        {
          "internalType": "uint256",
          "name": "id",
          "type": "uint256"
        }
      ],
      "name": "tokenNonces",
      "outputs": [
        {
          "internalType": "uint256",
          "name": "nonce",
          "type": "uint256"
        }
      ],
      "stateMutability": "view",
      "type": "function"
    },
    {
      "inputs": [
        {
          "internalType": "uint256",
          "name": "id",
          "type": "uint256"
        }
      ],
      "name": "tokenURI",
      "outputs": [
        {
          "internalType": "string",
          "name": "",
          "type": "string"
        }
      ],
      "stateMutability": "view",
      "type": "function"
    },
    {
      "inputs": [],
      "name": "tokenURIAdmin",
      "outputs": [
        {
          "internalType": "address",
          "name": "",
          "type": "address"
        }
      ],
      "stateMutability": "view",
      "type": "function"
    },
    {
      "inputs": [],
      "name": "tokenURIContract",
      "outputs": [
        {
          "internalType": "contract ITokenURI",
          "name": "",
          "type": "address"
        }
      ],
      "stateMutability": "view",
      "type": "function"
    },
    {
      "inputs": [
        {
          "internalType": "address",
          "name": "from",
          "type": "address"
        },
        {
          "internalType": "address",
          "name": "to",
          "type": "address"
        },
        {
          "internalType": "uint256",
          "name": "id",
          "type": "uint256"
        }
      ],
      "name": "transferFrom",
      "outputs": [],
      "stateMutability": "nonpayable",
      "type": "function"
    },
    {
      "inputs": [
        {
          "internalType": "address",
          "name": "delegator",
          "type": "address"
        }
      ],
      "name": "votesToDelegate",
      "outputs": [
        {
          "internalType": "uint96",
          "name": "",
          "type": "uint96"
        }
      ],
      "stateMutability": "view",
      "type": "function"
    }
  ],
  "transactionHash": "0x11cc68f61d432ef13bfe451cf188f87aedaedc7dd31542f406651e808d353818",
  "args": [
    "0x0000000000000000000000000000000000000000",
    "0xE53cd71271AcAdbeb0f64d9c8C62bBdDc8cA9e66",
    "0xE53cd71271AcAdbeb0f64d9c8C62bBdDc8cA9e66",
    "0xE53cd71271AcAdbeb0f64d9c8C62bBdDc8cA9e66",
    "0xE53cd71271AcAdbeb0f64d9c8C62bBdDc8cA9e66",
    "0x1A8E2f81dE31cC29588889c29582a93de0a4213d",
    "0xE53cd71271AcAdbeb0f64d9c8C62bBdDc8cA9e66"
  ],
  "solcInputHash": "7a86ad9086924b6c6f45f586cc717f1f",
  "bytecode": "0x60e06040526006805460ff191660011790553480156200001e57600080fd5b5060405162005456380380620054568339810160408190526200004191620002ac565b6001600160a01b0387166080524660a08190528690869086908690620000678162000205565b60c05250600a80546001600160a01b038681166001600160a01b03199283168117909355600b8054868316908416179055600c8054918716919092161790556040519081527f89de65ceb8cdf195a0b50021ed65dd305b54d3b744a0e283bd98c6058e2edd789060200160405180910390a16040516001600160a01b03831681527fb17416b845258d996b82b66c3c9166088ec5edf592b35fcce47c62a73d61ef419060200160405180910390a16040516001600160a01b03841681527fb8e0165b6664b7af8f9563c66e3d6b987c2d06fe192539d7123a0777b41a7c899060200160405180910390a15050600f80546001600160a01b0319166001600160a01b0386169081179091556040519081527f6bf5b09f847c9c9e97addeaf1ea9d5fd44ff6ae2c9c4aaf55fb476eca421a45d9250602001905060405180910390a1601280546001600160a01b0319166001600160a01b0383169081179091556040519081527f4b70ff24654603d6961acf6a0cf30db833fc126dac63891114f984fefcc2b0649060200160405180910390a15050505050505062000357565b60007f8cad95687ba82c2ce50e74f7b754645e5117c3a5bec8151c0726d5857980a8666200024c604080518082019091526006815265426c6565707360d01b602082015290565b80516020918201206040805192830193909352918101919091526060810183905230608082015260a001604051602081830303815290604052805190602001209050919050565b6001600160a01b0381168114620002a957600080fd5b50565b600080600080600080600060e0888a031215620002c857600080fd5b8751620002d58162000293565b6020890151909750620002e88162000293565b6040890151909650620002fb8162000293565b60608901519095506200030e8162000293565b6080890151909450620003218162000293565b60a0890151909350620003348162000293565b60c0890151909250620003478162000293565b8091505092959891949750929550565b60805160a05160c0516150c86200038e60003960006135e2015260006135ad015260008181613a080152613a8e01526150c86000f3fe6080604052600436106103555760003560e01c80637ecebe00116101bb578063b4b5ea57116100f7578063e8a3d48511610095578063edd9803f1161006f578063edd9803f14610b9e578063f1127ed814610bbe578063f394528214610c3d578063fca3b5aa14610c6a57600080fd5b8063e8a3d48514610b49578063e9580e9114610b5e578063e985e9c514610b7e57600080fd5b8063c87b56dd116100d1578063c87b56dd14610ac0578063d6d2d84714610ae0578063e6b34e8614610b00578063e7a324dc14610b1557600080fd5b8063b4b5ea5714610a60578063b88d4fde14610a80578063c3cda52014610aa057600080fd5b806399235f3911610164578063a22cb4651161013e578063a22cb465146109c6578063a754d48f146109e6578063ac9650d814610a13578063adc5fcc214610a3357600080fd5b806399235f39146109595780639c20551314610979578063a0554c261461099957600080fd5b80638a0dac4a116101955780638a0dac4a146108c65780638cc66011146108e657806395d89b411461091357600080fd5b80637ecebe001461083657806382fc314714610879578063894e851f1461089957600080fd5b806342842e0e11610295578063639147af1161023357806370a082311161020d57806370a0823114610799578063782d6fe1146107b95780637ac2ff7b146107f65780637ba9638b1461081657600080fd5b8063639147af14610704578063698f87be146107245780636fcfff451461075157600080fd5b8063585956d61161026f578063585956d614610670578063587cde1e146106a45780635c19a95c146106c45780636352211e146106e457600080fd5b806342842e0e14610603578063452a9320146106235780634d6878211461065057600080fd5b806323b872dd1161030257806330adf81f116102dc57806330adf81f14610566578063313ce5671461059a57806334dd800d146105c15780633644e515146105ee57600080fd5b806323b872dd146104b45780632954dbfa146104d45780632a55205a1461051a57600080fd5b8063081812fc11610333578063081812fc14610430578063095ea7b31461045057806320606b701461047257600080fd5b806301ffc9a71461035a57806306fdde031461038f57806307546172146103de575b600080fd5b34801561036657600080fd5b5061037a610375366004614600565b610c8a565b60405190151581526020015b60405180910390f35b34801561039b57600080fd5b5060408051808201909152600681527f426c65657073000000000000000000000000000000000000000000000000000060208201525b6040516103869190614693565b3480156103ea57600080fd5b50600d5461040b9073ffffffffffffffffffffffffffffffffffffffff1681565b60405173ffffffffffffffffffffffffffffffffffffffff9091168152602001610386565b34801561043c57600080fd5b5061040b61044b3660046146a6565b610ce7565b34801561045c57600080fd5b5061047061046b3660046146e1565b610dd8565b005b34801561047e57600080fd5b506104a67f8cad95687ba82c2ce50e74f7b754645e5117c3a5bec8151c0726d5857980a86681565b604051908152602001610386565b3480156104c057600080fd5b506104706104cf36600461470d565b610f42565b3480156104e057600080fd5b506105006104ef3660046146a6565b603f81169160069190911c600f1690565b6040805160ff938416815292909116602083015201610386565b34801561052657600080fd5b5061053a61053536600461474e565b611284565b6040805173ffffffffffffffffffffffffffffffffffffffff9093168352602083019190915201610386565b34801561057257600080fd5b506104a67f49ecf333e5b8c95c40fdafc95c1ad136e8914a8fb55e9dc8bb01eaa83a2df9ad81565b3480156105a657600080fd5b506105af600081565b60405160ff9091168152602001610386565b3480156105cd57600080fd5b50600a5461040b9073ffffffffffffffffffffffffffffffffffffffff1681565b3480156105fa57600080fd5b506104a66112c7565b34801561060f57600080fd5b5061047061061e36600461470d565b6112d6565b34801561062f57600080fd5b50600e5461040b9073ffffffffffffffffffffffffffffffffffffffff1681565b34801561065c57600080fd5b5061047061066b366004614770565b6112f6565b34801561067c57600080fd5b506104a67f29795620f29ed5790c945e3f419a1b3e2381aa07751ccffe5b81231639d74cd581565b3480156106b057600080fd5b5061040b6106bf366004614770565b6113f1565b3480156106d057600080fd5b506104706106df366004614770565b611430565b3480156106f057600080fd5b5061040b6106ff3660046146a6565b61145b565b34801561071057600080fd5b5061047061071f366004614770565b6114ec565b34801561073057600080fd5b50600f5461040b9073ffffffffffffffffffffffffffffffffffffffff1681565b34801561075d57600080fd5b5061078461076c366004614770565b60096020526000908152604090205463ffffffff1681565b60405163ffffffff9091168152602001610386565b3480156107a557600080fd5b506104a66107b4366004614770565b611621565b3480156107c557600080fd5b506107d96107d43660046146e1565b6116c9565b6040516bffffffffffffffffffffffff9091168152602001610386565b34801561080257600080fd5b5061047061081136600461479e565b6119e0565b34801561082257600080fd5b50610470610831366004614770565b611b30565b34801561084257600080fd5b506104a6610851366004614770565b73ffffffffffffffffffffffffffffffffffffffff1660009081526005602052604090205490565b34801561088557600080fd5b50610470610894366004614770565b611c65565b3480156108a557600080fd5b50600b5461040b9073ffffffffffffffffffffffffffffffffffffffff1681565b3480156108d257600080fd5b506104706108e1366004614770565b611d59565b3480156108f257600080fd5b5060125461040b9073ffffffffffffffffffffffffffffffffffffffff1681565b34801561091f57600080fd5b5060408051808201909152600581527f424c45455000000000000000000000000000000000000000000000000000000060208201526103d1565b34801561096557600080fd5b50610470610974366004614770565b611e4d565b34801561098557600080fd5b506104706109943660046147f8565b611f82565b3480156109a557600080fd5b506109b96109b4366004614884565b612221565b60405161038691906148c6565b3480156109d257600080fd5b506104706109e1366004614920565b6122f4565b3480156109f257600080fd5b50600c5461040b9073ffffffffffffffffffffffffffffffffffffffff1681565b610a26610a21366004614884565b612303565b6040516103869190614953565b348015610a3f57600080fd5b506104a6610a4e3660046146a6565b60009081526004602052604090205490565b348015610a6c57600080fd5b506107d9610a7b366004614770565b61246e565b348015610a8c57600080fd5b50610470610a9b366004614a97565b61250b565b348015610aac57600080fd5b50610470610abb36600461479e565b612850565b348015610acc57600080fd5b506103d1610adb3660046146a6565b612bbf565b348015610aec57600080fd5b50610470610afb366004614b46565b612c84565b348015610b0c57600080fd5b50610470612d43565b348015610b2157600080fd5b506104a67fe48329057bfd03d55e49b547132e39cffd9c1820ad7b9d4c5307691425d15adf81565b348015610b5557600080fd5b506103d1612e73565b348015610b6a57600080fd5b506107d9610b79366004614770565b612f38565b348015610b8a57600080fd5b5061037a610b99366004614b8f565b612f64565b348015610baa57600080fd5b50610470610bb93660046146e1565b612fac565b348015610bca57600080fd5b50610c14610bd9366004614bad565b600860209081526000928352604080842090915290825290205463ffffffff81169064010000000090046bffffffffffffffffffffffff1682565b6040805163ffffffff90931683526bffffffffffffffffffffffff909116602083015201610386565b348015610c4957600080fd5b50610c5d610c58366004614884565b613078565b6040516103869190614be4565b348015610c7657600080fd5b50610470610c85366004614770565b6131ab565b6000610c958261329f565b80610ce157507f2a55205a000000000000000000000000000000000000000000000000000000007fffffffff000000000000000000000000000000000000000000000000000000008316145b92915050565b6000818152602081905260408120547f80000000000000000000000000000000000000000000000000000000000000008082161473ffffffffffffffffffffffffffffffffffffffff8216610d9d576040517f08c379a000000000000000000000000000000000000000000000000000000000815260206004820152601160248201527f4e4f4e4558495354454e545f544f4b454e00000000000000000000000000000060448201526064015b60405180910390fd5b8015610dce5750505060009081526003602052604090205473ffffffffffffffffffffffffffffffffffffffff1690565b5060009392505050565b6000818152602081905260409020546affffffffffffffffffffff60a082901c1673ffffffffffffffffffffffffffffffffffffffff8216610e76576040517f08c379a000000000000000000000000000000000000000000000000000000000815260206004820152601160248201527f4e4f4e4558495354454e545f544f4b454e0000000000000000000000000000006044820152606401610d94565b3373ffffffffffffffffffffffffffffffffffffffff83161480610eca575073ffffffffffffffffffffffffffffffffffffffff8216600090815260026020908152604080832033845290915290205460ff165b610f30576040517f08c379a000000000000000000000000000000000000000000000000000000000815260206004820152601560248201527f554e415554484f52495a45445f415050524f56414c00000000000000000000006044820152606401610d94565b610f3c82828686613380565b50505050565b6000818152602081905260409020547f80000000000000000000000000000000000000000000000000000000000000008082161473ffffffffffffffffffffffffffffffffffffffff8216610ff3576040517f08c379a000000000000000000000000000000000000000000000000000000000815260206004820152601160248201527f4e4f4e4558495354454e545f544f4b454e0000000000000000000000000000006044820152606401610d94565b8473ffffffffffffffffffffffffffffffffffffffff168273ffffffffffffffffffffffffffffffffffffffff1614611088576040517f08c379a000000000000000000000000000000000000000000000000000000000815260206004820152600960248201527f4e4f545f4f574e455200000000000000000000000000000000000000000000006044820152606401610d94565b73ffffffffffffffffffffffffffffffffffffffff8416611105576040517f08c379a000000000000000000000000000000000000000000000000000000000815260206004820152601260248201527f4e4f545f544f5f5a45524f4144445245535300000000000000000000000000006044820152606401610d94565b73ffffffffffffffffffffffffffffffffffffffff8416301415611185576040517f08c379a000000000000000000000000000000000000000000000000000000000815260206004820152600b60248201527f4e4f545f544f5f544849530000000000000000000000000000000000000000006044820152606401610d94565b3373ffffffffffffffffffffffffffffffffffffffff8616146112725773ffffffffffffffffffffffffffffffffffffffff8516600090815260026020908152604080832033845290915290205460ff168061120c575080801561120c575060008381526003602052604090205473ffffffffffffffffffffffffffffffffffffffff1633145b611272576040517f08c379a000000000000000000000000000000000000000000000000000000000815260206004820152601560248201527f554e415554484f52495a45445f5452414e5346455200000000000000000000006044820152606401610d94565b61127d8585856134b9565b5050505050565b60105460115473ffffffffffffffffffffffffffffffffffffffff90911690600090612710906112b49085614c78565b6112be9190614ce4565b90509250929050565b60006112d16135a8565b905090565b6112f18383836040518060200160405280600081525061250b565b505050565b60125473ffffffffffffffffffffffffffffffffffffffff163314611377576040517f08c379a000000000000000000000000000000000000000000000000000000000815260206004820152600e60248201527f4e4f545f415554484f52495a45440000000000000000000000000000000000006044820152606401610d94565b601280547fffffffffffffffffffffffff00000000000000000000000000000000000000001673ffffffffffffffffffffffffffffffffffffffff83169081179091556040519081527f4b70ff24654603d6961acf6a0cf30db833fc126dac63891114f984fefcc2b064906020015b60405180910390a150565b73ffffffffffffffffffffffffffffffffffffffff80821660009081526007602052604081205490911680156114275780611429565b825b9392505050565b73ffffffffffffffffffffffffffffffffffffffff811661144e5750335b6114583382613608565b50565b60008181526020819052604090205473ffffffffffffffffffffffffffffffffffffffff81166114e7576040517f08c379a000000000000000000000000000000000000000000000000000000000815260206004820152601160248201527f4e4f4e4558495354454e545f544f4b454e0000000000000000000000000000006044820152606401610d94565b919050565b600a5473ffffffffffffffffffffffffffffffffffffffff163314806115485750600e5473ffffffffffffffffffffffffffffffffffffffff1633148015611548575073ffffffffffffffffffffffffffffffffffffffff8116155b6115ae576040517f08c379a000000000000000000000000000000000000000000000000000000000815260206004820152600e60248201527f4e4f545f415554484f52495a45440000000000000000000000000000000000006044820152606401610d94565b600a80547fffffffffffffffffffffffff00000000000000000000000000000000000000001673ffffffffffffffffffffffffffffffffffffffff83169081179091556040519081527f89de65ceb8cdf195a0b50021ed65dd305b54d3b744a0e283bd98c6058e2edd78906020016113e6565b600073ffffffffffffffffffffffffffffffffffffffff82166116a0576040517f08c379a000000000000000000000000000000000000000000000000000000000815260206004820152601260248201527f5a45524f5f414444524553535f4f574e455200000000000000000000000000006044820152606401610d94565b5073ffffffffffffffffffffffffffffffffffffffff1660009081526001602052604090205490565b600043821061175a576040517f08c379a000000000000000000000000000000000000000000000000000000000815260206004820152603760248201527f455243373231436865636b706f696e7461626c653a3a6765745072696f72566f60448201527f7465733a206e6f74207965742064657465726d696e65640000000000000000006064820152608401610d94565b73ffffffffffffffffffffffffffffffffffffffff831660009081526009602052604090205463ffffffff1680611795576000915050610ce1565b73ffffffffffffffffffffffffffffffffffffffff8416600090815260086020526040812084916117c7600185614cf8565b63ffffffff9081168252602082019290925260400160002054161161184d5773ffffffffffffffffffffffffffffffffffffffff8416600090815260086020526040812090611817600184614cf8565b63ffffffff16815260208101919091526040016000205464010000000090046bffffffffffffffffffffffff169150610ce19050565b73ffffffffffffffffffffffffffffffffffffffff8416600090815260086020908152604080832083805290915290205463ffffffff16831015611895576000915050610ce1565b6000806118a3600184614cf8565b90505b8163ffffffff168163ffffffff16111561198857600060026118c88484614cf8565b6118d29190614d1d565b6118dc9083614cf8565b73ffffffffffffffffffffffffffffffffffffffff8816600090815260086020908152604080832063ffffffff8581168552908352928190208151808301909252549283168082526401000000009093046bffffffffffffffffffffffff169181019190915291925087141561195c57602001519450610ce19350505050565b805163ffffffff1687111561197357819350611981565b61197e600183614cf8565b92505b50506118a6565b5073ffffffffffffffffffffffffffffffffffffffff8516600090815260086020908152604080832063ffffffff909416835292905220546bffffffffffffffffffffffff6401000000009091041691505092915050565b42841015611a4a576040517f08c379a000000000000000000000000000000000000000000000000000000000815260206004820152601760248201527f5045524d49545f444541444c494e455f455850495245440000000000000000006044820152606401610d94565b6000858152602081905260409020546affffffffffffffffffffff60a082901c1673ffffffffffffffffffffffffffffffffffffffff8216611ae8576040517f08c379a000000000000000000000000000000000000000000000000000000000815260206004820152601160248201527f4e4f4e4558495354454e545f544f4b454e0000000000000000000000000000006044820152606401610d94565b60008781526004602052604081208054611b1a9285928c928c928c9290611b0e83614d40565b919050558a8a8a6136ad565b611b2682828a8a613380565b5050505050505050565b600b5473ffffffffffffffffffffffffffffffffffffffff16331480611b8c5750600e5473ffffffffffffffffffffffffffffffffffffffff1633148015611b8c575073ffffffffffffffffffffffffffffffffffffffff8116155b611bf2576040517f08c379a000000000000000000000000000000000000000000000000000000000815260206004820152600e60248201527f4e4f545f415554484f52495a45440000000000000000000000000000000000006044820152606401610d94565b600b80547fffffffffffffffffffffffff00000000000000000000000000000000000000001673ffffffffffffffffffffffffffffffffffffffff83169081179091556040519081527fb17416b845258d996b82b66c3c9166088ec5edf592b35fcce47c62a73d61ef41906020016113e6565b600a5473ffffffffffffffffffffffffffffffffffffffff163314611ce6576040517f08c379a000000000000000000000000000000000000000000000000000000000815260206004820152600e60248201527f4e4f545f415554484f52495a45440000000000000000000000000000000000006044820152606401610d94565b600f80547fffffffffffffffffffffffff00000000000000000000000000000000000000001673ffffffffffffffffffffffffffffffffffffffff83169081179091556040519081527f6bf5b09f847c9c9e97addeaf1ea9d5fd44ff6ae2c9c4aaf55fb476eca421a45d906020016113e6565b600e5473ffffffffffffffffffffffffffffffffffffffff163314611dda576040517f08c379a000000000000000000000000000000000000000000000000000000000815260206004820152600e60248201527f4e4f545f415554484f52495a45440000000000000000000000000000000000006044820152606401610d94565b600e80547fffffffffffffffffffffffff00000000000000000000000000000000000000001673ffffffffffffffffffffffffffffffffffffffff83169081179091556040519081527fe6c09ffe4572dc9ceaa5ddde4ae41befa655d6fdfe8052077af0970f700e942e906020016113e6565b600c5473ffffffffffffffffffffffffffffffffffffffff16331480611ea95750600e5473ffffffffffffffffffffffffffffffffffffffff1633148015611ea9575073ffffffffffffffffffffffffffffffffffffffff8116155b611f0f576040517f08c379a000000000000000000000000000000000000000000000000000000000815260206004820152600e60248201527f4e4f545f415554484f52495a45440000000000000000000000000000000000006044820152606401610d94565b600c80547fffffffffffffffffffffffff00000000000000000000000000000000000000001673ffffffffffffffffffffffffffffffffffffffff83169081179091556040519081527fb8e0165b6664b7af8f9563c66e3d6b987c2d06fe192539d7123a0777b41a7c89906020016113e6565b600d5473ffffffffffffffffffffffffffffffffffffffff163314612003576040517f08c379a000000000000000000000000000000000000000000000000000000000815260206004820152601360248201527f4f4e4c595f4d494e5445525f414c4c4f574544000000000000000000000000006044820152606401610d94565b6104008261ffff1610612072576040517f08c379a000000000000000000000000000000000000000000000000000000000815260206004820152600d60248201527f494e56414c49445f534f554e44000000000000000000000000000000000000006044820152606401610d94565b73ffffffffffffffffffffffffffffffffffffffff81166120ef576040517f08c379a000000000000000000000000000000000000000000000000000000000815260206004820152601260248201527f4e4f545f544f5f5a45524f4144445245535300000000000000000000000000006044820152606401610d94565b73ffffffffffffffffffffffffffffffffffffffff811630141561216f576040517f08c379a000000000000000000000000000000000000000000000000000000000815260206004820152600b60248201527f4e4f545f544f5f544849530000000000000000000000000000000000000000006044820152606401610d94565b61ffff821660009081526020819052604090205473ffffffffffffffffffffffffffffffffffffffff811615612201576040517f08c379a000000000000000000000000000000000000000000000000000000000815260206004820152600f60248201527f414c52454144595f4352454154454400000000000000000000000000000000006044820152606401610d94565b6112f16000838561ffff166040518060200160405280600081525061379f565b60608167ffffffffffffffff81111561223c5761223c6149d3565b604051908082528060200260200182016040528015612265578160200160208202803683370190505b50905060005b828110156122ed57600084848381811061228757612287614d79565b905060200201359050600080828152602001908152602001600020548383815181106122b5576122b5614d79565b73ffffffffffffffffffffffffffffffffffffffff9092166020928302919091019091015250806122e581614d40565b91505061226b565b5092915050565b6122ff33838361383a565b5050565b60608167ffffffffffffffff81111561231e5761231e6149d3565b60405190808252806020026020018201604052801561235157816020015b606081526020019060019003908161233c5790505b50905060005b828110156122ed576000803086868581811061237557612375614d79565b90506020028101906123879190614da8565b604051612395929190614e0d565b600060405180830381855af49150503d80600081146123d0576040519150601f19603f3d011682016040523d82523d6000602084013e6123d5565b606091505b50915091508161243b576044815110156123ee57600080fd5b600481019050808060200190518101906124089190614e1d565b6040517f08c379a0000000000000000000000000000000000000000000000000000000008152600401610d949190614693565b8084848151811061244e5761244e614d79565b60200260200101819052505050808061246690614d40565b915050612357565b73ffffffffffffffffffffffffffffffffffffffff811660009081526009602052604081205463ffffffff16806124a6576000611429565b73ffffffffffffffffffffffffffffffffffffffff83166000908152600860205260408120906124d7600184614cf8565b63ffffffff16815260208101919091526040016000205464010000000090046bffffffffffffffffffffffff169392505050565b6000828152602081905260409020547f80000000000000000000000000000000000000000000000000000000000000008082161473ffffffffffffffffffffffffffffffffffffffff82166125bc576040517f08c379a000000000000000000000000000000000000000000000000000000000815260206004820152601160248201527f4e4f4e4558495354454e545f544f4b454e0000000000000000000000000000006044820152606401610d94565b8573ffffffffffffffffffffffffffffffffffffffff168273ffffffffffffffffffffffffffffffffffffffff1614612651576040517f08c379a000000000000000000000000000000000000000000000000000000000815260206004820152600960248201527f4e4f545f4f574e455200000000000000000000000000000000000000000000006044820152606401610d94565b73ffffffffffffffffffffffffffffffffffffffff85166126ce576040517f08c379a000000000000000000000000000000000000000000000000000000000815260206004820152601260248201527f4e4f545f544f5f5a45524f4144445245535300000000000000000000000000006044820152606401610d94565b73ffffffffffffffffffffffffffffffffffffffff851630141561274e576040517f08c379a000000000000000000000000000000000000000000000000000000000815260206004820152600b60248201527f4e4f545f544f5f544849530000000000000000000000000000000000000000006044820152606401610d94565b3373ffffffffffffffffffffffffffffffffffffffff87161461283c5780801561279b575060008481526003602052604090205473ffffffffffffffffffffffffffffffffffffffff1633145b806127d6575073ffffffffffffffffffffffffffffffffffffffff8616600090815260026020908152604080832033845290915290205460ff165b61283c576040517f08c379a000000000000000000000000000000000000000000000000000000000815260206004820152601560248201527f554e415554484f52495a45445f5452414e5346455200000000000000000000006044820152606401610d94565b6128488686868661379f565b505050505050565b600061285a6135a8565b604080517fe48329057bfd03d55e49b547132e39cffd9c1820ad7b9d4c5307691425d15adf602082015273ffffffffffffffffffffffffffffffffffffffff8a1691810191909152606081018890526080810187905260a0016040516020818303038152906040528051906020012060405160200161290b9291907f190100000000000000000000000000000000000000000000000000000000000081526002810192909252602282015260420190565b604080517fffffffffffffffffffffffffffffffffffffffffffffffffffffffffffffffe08184030181528282528051602091820120600080855291840180845281905260ff88169284019290925260608301869052608083018590529092509060019060a0016020604051602081039080840390855afa158015612994573d6000803e3d6000fd5b50506040517fffffffffffffffffffffffffffffffffffffffffffffffffffffffffffffffe0015191505073ffffffffffffffffffffffffffffffffffffffff8116612a62576040517f08c379a000000000000000000000000000000000000000000000000000000000815260206004820152603660248201527f455243373231436865636b706f696e7461626c653a3a64656c6567617465427960448201527f5369673a20696e76616c6964207369676e6174757265000000000000000000006064820152608401610d94565b73ffffffffffffffffffffffffffffffffffffffff81166000908152600560205260408120805491612a9383614d40565b919050558714612b25576040517f08c379a000000000000000000000000000000000000000000000000000000000815260206004820152603260248201527f455243373231436865636b706f696e7461626c653a3a64656c6567617465427960448201527f5369673a20696e76616c6964206e6f6e636500000000000000000000000000006064820152608401610d94565b85421115612bb5576040517f08c379a000000000000000000000000000000000000000000000000000000000815260206004820152603660248201527f455243373231436865636b706f696e7461626c653a3a64656c6567617465427960448201527f5369673a207369676e61747572652065787069726564000000000000000000006064820152608401610d94565b611b268189613608565b600f546040517fc87b56dd0000000000000000000000000000000000000000000000000000000081526004810183905260609173ffffffffffffffffffffffffffffffffffffffff169063c87b56dd9060240160006040518083038186803b158015612c2a57600080fd5b505afa158015612c3e573d6000803e3d6000fd5b505050506040513d6000823e601f3d9081017fffffffffffffffffffffffffffffffffffffffffffffffffffffffffffffffe0168201604052610ce19190810190614e1d565b42841015612cee576040517f08c379a000000000000000000000000000000000000000000000000000000000815260206004820152601760248201527f5045524d49545f444541444c494e455f455850495245440000000000000000006044820152606401610d94565b73ffffffffffffffffffffffffffffffffffffffff861660009081526005602052604081208054612d3792899289928992909190612d2b83614d40565b919050558787876138d2565b6128488686600161383a565b60125473ffffffffffffffffffffffffffffffffffffffff163314612dc4576040517f08c379a000000000000000000000000000000000000000000000000000000000815260206004820152600e60248201527f4e4f545f415554484f52495a45440000000000000000000000000000000000006044820152606401610d94565b600680547fffffffffffffffffffffffffffffffffffffffffffffffffffffffffffffff00169055601280547fffffffffffffffffffffffff0000000000000000000000000000000000000000169055604051600081527f4b70ff24654603d6961acf6a0cf30db833fc126dac63891114f984fefcc2b0649060200160405180910390a16040517f3355f5c11ec5fbd9909c4fbd232bf8592a749dba18405f16df892fa6b40eddae90600090a1565b600f54604080517fe8a3d485000000000000000000000000000000000000000000000000000000008152905160609273ffffffffffffffffffffffffffffffffffffffff169163e8a3d485916004808301926000929190829003018186803b158015612ede57600080fd5b505afa158015612ef2573d6000803e3d6000fd5b505050506040513d6000823e601f3d9081017fffffffffffffffffffffffffffffffffffffffffffffffffffffffffffffffe01682016040526112d19190810190614e1d565b6000610ce1612f4683611621565b6040518060600160405280603d815260200161501f603d91396139b2565b73ffffffffffffffffffffffffffffffffffffffff808316600090815260026020908152604080832093851683529290529081205460ff168061142957506114298383613a04565b600b5473ffffffffffffffffffffffffffffffffffffffff16331461302d576040517f08c379a000000000000000000000000000000000000000000000000000000000815260206004820152600e60248201527f4e4f545f415554484f52495a45440000000000000000000000000000000000006044820152606401610d94565b601080547fffffffffffffffffffffffff00000000000000000000000000000000000000001673ffffffffffffffffffffffffffffffffffffffff9390931692909217909155601155565b60608167ffffffffffffffff811115613093576130936149d3565b6040519080825280602002602001820160405280156130d857816020015b60408051808201909152600080825260208201528152602001906001900390816130b15790505b50905060005b828110156122ed5760008060008686858181106130fd576130fd614d79565b9050602002013581526020019081526020016000205490508083838151811061312857613128614d79565b60200260200101516000019073ffffffffffffffffffffffffffffffffffffffff16908173ffffffffffffffffffffffffffffffffffffffff168152505060a081901c6affffffffffffffffffffff1683838151811061318a5761318a614d79565b602090810291909101810151015250806131a381614d40565b9150506130de565b600c5473ffffffffffffffffffffffffffffffffffffffff16331461322c576040517f08c379a000000000000000000000000000000000000000000000000000000000815260206004820152600e60248201527f4e4f545f415554484f52495a45440000000000000000000000000000000000006044820152606401610d94565b600d80547fffffffffffffffffffffffff00000000000000000000000000000000000000001673ffffffffffffffffffffffffffffffffffffffff83169081179091556040519081527f726b590ef91a8c76ad05bbe91a57ef84605276528f49cd47d787f558a4e755b6906020016113e6565b60007f01ffc9a7000000000000000000000000000000000000000000000000000000007fffffffff000000000000000000000000000000000000000000000000000000008316148061333257507f80ac58cd000000000000000000000000000000000000000000000000000000007fffffffff000000000000000000000000000000000000000000000000000000008316145b80610ce15750507fffffffff00000000000000000000000000000000000000000000000000000000167f5b5e139f000000000000000000000000000000000000000000000000000000001490565b73ffffffffffffffffffffffffffffffffffffffff82166133cd57600081815260208190526040902060a084901b73ffffffffffffffffffffffffffffffffffffffff8616179055613458565b6000818152602081815260408083207f800000000000000000000000000000000000000000000000000000000000000073ffffffffffffffffffffffffffffffffffffffff89811660a08a901b1791909117909155600390925290912080547fffffffffffffffffffffffff0000000000000000000000000000000000000000169184169190911790555b808273ffffffffffffffffffffffffffffffffffffffff168573ffffffffffffffffffffffffffffffffffffffff167f8c5be1e5ebec7d5bd14f71427d1e84f3dd0314c0f7b2291e5b200ac8c7c3b92560405160405180910390a450505050565b6134c4838383613b2d565b73ffffffffffffffffffffffffffffffffffffffff8083166000908152600160208190526040909120805490910190558316156135475773ffffffffffffffffffffffffffffffffffffffff8316600090815260016020526040902080547fffffffffffffffffffffffffffffffffffffffffffffffffffffffffffffffff0190555b6000818152602081905260408082204360a01b73ffffffffffffffffffffffffffffffffffffffff80871691821790925591518493918716917fddf252ad1be2c89b69c2b068fc378daa952ba7f163c4a11628f55a4df523b3ef91a4505050565b6000467f000000000000000000000000000000000000000000000000000000000000000081146135e0576135db81613b54565b613602565b7f00000000000000000000000000000000000000000000000000000000000000005b91505090565b6000613613836113f1565b73ffffffffffffffffffffffffffffffffffffffff84811660008181526007602052604080822080547fffffffffffffffffffffffff000000000000000000000000000000000000000016888616908117909155905194955093928516927f3134e8a2e6d97e929a7e54011ea5485d7d196dd5f0ba4d4ef95803e8e3fc257f9190a460006136a084612f38565b9050610f3c828483613bf8565b60006136b76135a8565b604080517f49ecf333e5b8c95c40fdafc95c1ad136e8914a8fb55e9dc8bb01eaa83a2df9ad602082015273ffffffffffffffffffffffffffffffffffffffff8b1691810191909152606081018990526080810187905260a0810188905260c0016040516020818303038152906040528051906020012060405160200161376f9291907f190100000000000000000000000000000000000000000000000000000000000081526002810192909252602282015260420190565b6040516020818303038152906040528051906020012090506137948982868686613e1d565b505050505050505050565b6137aa8484846134b9565b73ffffffffffffffffffffffffffffffffffffffff83163b15610f3c576137d4338585858561414a565b610f3c576040517f08c379a000000000000000000000000000000000000000000000000000000000815260206004820152601860248201527f4552433732315f5452414e534645525f52454a454354454400000000000000006044820152606401610d94565b73ffffffffffffffffffffffffffffffffffffffff83811660008181526002602090815260408083209487168084529482529182902080547fffffffffffffffffffffffffffffffffffffffffffffffffffffffffffffff001686151590811790915591519182527f17307eab39ab6107e8899845ad3d59bd9653f200f220920489ca2b5937696c31910160405180910390a3505050565b60006138dc6135a8565b604080517f29795620f29ed5790c945e3f419a1b3e2381aa07751ccffe5b81231639d74cd5602082015273ffffffffffffffffffffffffffffffffffffffff8a1691810191909152606081018790526080810188905260a0016040516020818303038152906040528051906020012060405160200161398d9291907f190100000000000000000000000000000000000000000000000000000000000081526002810192909252602282015260420190565b604051602081830303815290604052805190602001209050611b268882868686613e1d565b6000816c0100000000000000000000000084106139fc576040517f08c379a0000000000000000000000000000000000000000000000000000000008152600401610d949190614693565b509192915050565b60007f000000000000000000000000000000000000000000000000000000000000000073ffffffffffffffffffffffffffffffffffffffff16613a4957506000610ce1565b6040517fc455279100000000000000000000000000000000000000000000000000000000815273ffffffffffffffffffffffffffffffffffffffff84811660048301527f0000000000000000000000000000000000000000000000000000000000000000918482169183169063c45527919060240160206040518083038186803b158015613ad657600080fd5b505afa158015613aea573d6000803e3d6000fd5b505050506040513d601f19601f82011682018060405250810190613b0e9190614e94565b73ffffffffffffffffffffffffffffffffffffffff1614949350505050565b60065460ff16156112f1576112f1613b44846113f1565b613b4d846113f1565b6001613bf8565b60007f8cad95687ba82c2ce50e74f7b754645e5117c3a5bec8151c0726d5857980a866613bb160408051808201909152600681527f426c656570730000000000000000000000000000000000000000000000000000602082015290565b80516020918201206040805192830193909352918101919091526060810183905230608082015260a001604051602081830303815290604052805190602001209050919050565b8173ffffffffffffffffffffffffffffffffffffffff168373ffffffffffffffffffffffffffffffffffffffff1614158015613c4257506000816bffffffffffffffffffffffff16115b156112f15773ffffffffffffffffffffffffffffffffffffffff831615613d345773ffffffffffffffffffffffffffffffffffffffff831660009081526009602052604081205463ffffffff169081613c9c576000613cfb565b73ffffffffffffffffffffffffffffffffffffffff8516600090815260086020526040812090613ccd600185614cf8565b63ffffffff16815260208101919091526040016000205464010000000090046bffffffffffffffffffffffff165b90506000613d22828560405180606001604052806037815260200161505c6037913961422e565b9050613d308684848461429c565b5050505b73ffffffffffffffffffffffffffffffffffffffff8216156112f15773ffffffffffffffffffffffffffffffffffffffff821660009081526009602052604081205463ffffffff169081613d89576000613de8565b73ffffffffffffffffffffffffffffffffffffffff8416600090815260086020526040812090613dba600185614cf8565b63ffffffff16815260208101919091526040016000205464010000000090046bffffffffffffffffffffffff165b90506000613e0f8285604051806060016040528060368152602001614fa56036913961451f565b90506128488584848461429c565b73ffffffffffffffffffffffffffffffffffffffff85163b15613fb957604080516020810184905280820183905260f885901b7fff000000000000000000000000000000000000000000000000000000000000001660608201528151604181830301815260618201928390527f1626ba7e000000000000000000000000000000000000000000000000000000009283905273ffffffffffffffffffffffffffffffffffffffff881691631626ba7e91613edb91899190606501614eb1565b60206040518083038186803b158015613ef357600080fd5b505afa158015613f07573d6000803e3d6000fd5b505050506040513d601f19601f82011682018060405250810190613f2b9190614eca565b7fffffffff000000000000000000000000000000000000000000000000000000001614613fb4576040517f08c379a000000000000000000000000000000000000000000000000000000000815260206004820152601b60248201527f5349474e41545552455f313237315f4e4f545f4d41544348494e4700000000006044820152606401610d94565b61127d565b6040805160008082526020820180845287905260ff861692820192909252606081018490526080810183905260019060a0016020604051602081039080840390855afa15801561400d573d6000803e3d6000fd5b50506040517fffffffffffffffffffffffffffffffffffffffffffffffffffffffffffffffe0015191505073ffffffffffffffffffffffffffffffffffffffff81166140b5576040517f08c379a000000000000000000000000000000000000000000000000000000000815260206004820152601160248201527f5349474e41545552455f494e56414c49440000000000000000000000000000006044820152606401610d94565b8573ffffffffffffffffffffffffffffffffffffffff168173ffffffffffffffffffffffffffffffffffffffff1614612848576040517f08c379a000000000000000000000000000000000000000000000000000000000815260206004820152601660248201527f5349474e41545552455f57524f4e475f5349474e4552000000000000000000006044820152606401610d94565b6000808473ffffffffffffffffffffffffffffffffffffffff1663150b7a02888887876040518563ffffffff1660e01b815260040161418c9493929190614ee7565b602060405180830381600087803b1580156141a657600080fd5b505af11580156141ba573d6000803e3d6000fd5b505050506040513d601f19601f820116820180604052508101906141de9190614eca565b7fffffffff00000000000000000000000000000000000000000000000000000000167f150b7a02000000000000000000000000000000000000000000000000000000001491505095945050505050565b6000836bffffffffffffffffffffffff16836bffffffffffffffffffffffff1611158290614289576040517f08c379a0000000000000000000000000000000000000000000000000000000008152600401610d949190614693565b506142948385614f30565b949350505050565b60006142c043604051806080016040528060448152602001614fdb60449139614590565b905060008463ffffffff16118015614327575073ffffffffffffffffffffffffffffffffffffffff8516600090815260086020526040812063ffffffff83169161430b600188614cf8565b63ffffffff908116825260208201929092526040016000205416145b156143bd5773ffffffffffffffffffffffffffffffffffffffff85166000908152600860205260408120839161435e600188614cf8565b63ffffffff168152602081019190915260400160002080546bffffffffffffffffffffffff92909216640100000000027fffffffffffffffffffffffffffffffff000000000000000000000000ffffffff9092169190911790556144b8565b60408051808201825263ffffffff80841682526bffffffffffffffffffffffff808616602080850191825273ffffffffffffffffffffffffffffffffffffffff8b166000908152600882528681208b8616825290915294909420925183549451909116640100000000027fffffffffffffffffffffffffffffffff0000000000000000000000000000000090941691161791909117905561445f846001614f55565b73ffffffffffffffffffffffffffffffffffffffff8616600090815260096020526040902080547fffffffffffffffffffffffffffffffffffffffffffffffffffffffff000000001663ffffffff929092169190911790555b604080516bffffffffffffffffffffffff80861682528416602082015273ffffffffffffffffffffffffffffffffffffffff8716917fdec2bacdd2f05b59de34da9b523dff8be42e5e38e818c82fdb0bae774387a724910160405180910390a25050505050565b60008061452c8486614f7d565b9050846bffffffffffffffffffffffff16816bffffffffffffffffffffffff1610158390614587576040517f08c379a0000000000000000000000000000000000000000000000000000000008152600401610d949190614693565b50949350505050565b60008164010000000084106139fc576040517f08c379a0000000000000000000000000000000000000000000000000000000008152600401610d949190614693565b7fffffffff000000000000000000000000000000000000000000000000000000008116811461145857600080fd5b60006020828403121561461257600080fd5b8135611429816145d2565b60005b83811015614638578181015183820152602001614620565b83811115610f3c5750506000910152565b6000815180845261466181602086016020860161461d565b601f017fffffffffffffffffffffffffffffffffffffffffffffffffffffffffffffffe0169290920160200192915050565b6020815260006114296020830184614649565b6000602082840312156146b857600080fd5b5035919050565b73ffffffffffffffffffffffffffffffffffffffff8116811461145857600080fd5b600080604083850312156146f457600080fd5b82356146ff816146bf565b946020939093013593505050565b60008060006060848603121561472257600080fd5b833561472d816146bf565b9250602084013561473d816146bf565b929592945050506040919091013590565b6000806040838503121561476157600080fd5b50508035926020909101359150565b60006020828403121561478257600080fd5b8135611429816146bf565b803560ff811681146114e757600080fd5b60008060008060008060c087890312156147b757600080fd5b86356147c2816146bf565b955060208701359450604087013593506147de6060880161478d565b92506080870135915060a087013590509295509295509295565b6000806040838503121561480b57600080fd5b823561ffff8116811461481d57600080fd5b9150602083013561482d816146bf565b809150509250929050565b60008083601f84011261484a57600080fd5b50813567ffffffffffffffff81111561486257600080fd5b6020830191508360208260051b850101111561487d57600080fd5b9250929050565b6000806020838503121561489757600080fd5b823567ffffffffffffffff8111156148ae57600080fd5b6148ba85828601614838565b90969095509350505050565b6020808252825182820181905260009190848201906040850190845b8181101561491457835173ffffffffffffffffffffffffffffffffffffffff16835292840192918401916001016148e2565b50909695505050505050565b6000806040838503121561493357600080fd5b823561493e816146bf565b91506020830135801515811461482d57600080fd5b6000602080830181845280855180835260408601915060408160051b870101925083870160005b828110156149c6577fffffffffffffffffffffffffffffffffffffffffffffffffffffffffffffffc08886030184526149b4858351614649565b9450928501929085019060010161497a565b5092979650505050505050565b7f4e487b7100000000000000000000000000000000000000000000000000000000600052604160045260246000fd5b604051601f82017fffffffffffffffffffffffffffffffffffffffffffffffffffffffffffffffe016810167ffffffffffffffff81118282101715614a4957614a496149d3565b604052919050565b600067ffffffffffffffff821115614a6b57614a6b6149d3565b50601f017fffffffffffffffffffffffffffffffffffffffffffffffffffffffffffffffe01660200190565b60008060008060808587031215614aad57600080fd5b8435614ab8816146bf565b93506020850135614ac8816146bf565b925060408501359150606085013567ffffffffffffffff811115614aeb57600080fd5b8501601f81018713614afc57600080fd5b8035614b0f614b0a82614a51565b614a02565b818152886020838501011115614b2457600080fd5b8160208401602083013760006020838301015280935050505092959194509250565b60008060008060008060c08789031215614b5f57600080fd5b8635614b6a816146bf565b95506020870135614b7a816146bf565b9450604087013593506147de6060880161478d565b60008060408385031215614ba257600080fd5b823561481d816146bf565b60008060408385031215614bc057600080fd5b8235614bcb816146bf565b9150602083013563ffffffff8116811461482d57600080fd5b602080825282518282018190526000919060409081850190868401855b82811015614c3c578151805173ffffffffffffffffffffffffffffffffffffffff168552860151868501529284019290850190600101614c01565b5091979650505050505050565b7f4e487b7100000000000000000000000000000000000000000000000000000000600052601160045260246000fd5b6000817fffffffffffffffffffffffffffffffffffffffffffffffffffffffffffffffff0483118215151615614cb057614cb0614c49565b500290565b7f4e487b7100000000000000000000000000000000000000000000000000000000600052601260045260246000fd5b600082614cf357614cf3614cb5565b500490565b600063ffffffff83811690831681811015614d1557614d15614c49565b039392505050565b600063ffffffff80841680614d3457614d34614cb5565b92169190910492915050565b60007fffffffffffffffffffffffffffffffffffffffffffffffffffffffffffffffff821415614d7257614d72614c49565b5060010190565b7f4e487b7100000000000000000000000000000000000000000000000000000000600052603260045260246000fd5b60008083357fffffffffffffffffffffffffffffffffffffffffffffffffffffffffffffffe1843603018112614ddd57600080fd5b83018035915067ffffffffffffffff821115614df857600080fd5b60200191503681900382131561487d57600080fd5b8183823760009101908152919050565b600060208284031215614e2f57600080fd5b815167ffffffffffffffff811115614e4657600080fd5b8201601f81018413614e5757600080fd5b8051614e65614b0a82614a51565b818152856020838501011115614e7a57600080fd5b614e8b82602083016020860161461d565b95945050505050565b600060208284031215614ea657600080fd5b8151611429816146bf565b8281526040602082015260006142946040830184614649565b600060208284031215614edc57600080fd5b8151611429816145d2565b600073ffffffffffffffffffffffffffffffffffffffff808716835280861660208401525083604083015260806060830152614f266080830184614649565b9695505050505050565b60006bffffffffffffffffffffffff83811690831681811015614d1557614d15614c49565b600063ffffffff808316818516808303821115614f7457614f74614c49565b01949350505050565b60006bffffffffffffffffffffffff808316818516808303821115614f7457614f74614c4956fe455243373231436865636b706f696e7461626c653a3a5f6d6f766544656c6567617465733a20616d6f756e74206f766572666c6f7773455243373231436865636b706f696e7461626c653a3a5f7772697465436865636b706f696e743a20626c6f636b206e756d62657220657863656564732033322062697473455243373231436865636b706f696e7461626c653a3a766f746573546f44656c65676174653a20616d6f756e7420657863656564732039362062697473455243373231436865636b706f696e7461626c653a3a5f6d6f766544656c6567617465733a20616d6f756e7420756e646572666c6f7773a264697066735822122025594e64da268dcdb7fa9a8f8d71cac86f34665a816e35738ee856aa998ba1aa64736f6c63430008090033",
  "devdoc": {
    "kind": "dev",
    "methods": {
      "DOMAIN_SEPARATOR()": {
        "details": "Return the DOMAIN_SEPARATOR."
      },
      "approve(address,uint256)": {
        "params": {
          "id": "The id of the token.",
          "operator": "The address receiving the approval."
        }
      },
      "balanceOf(address)": {
        "params": {
          "owner": "The address to look for."
        },
        "returns": {
          "balance": "The number of tokens owned by the address."
        }
      },
      "constructor": {
        "details": "Create the Bleeps contract",
        "params": {
          "initialCheckpointingDisabler": "admin able to update the royalty recipient and rates.",
          "initialGuardian": "guardian able to immortalize rules",
          "initialMinterAdmin": "admin able to set the minter contract.",
          "initialRoyaltyAdmin": "admin able to update the royalty recipient and rates.",
          "initialTokenURIAdmin": "admin able to update the tokenURI contract.",
          "initialTokenURIContract": "initial tokenURI contract that generate the metadata including the wav file.",
          "openseaProxyRegistry": "allow Bleeps to be sold on opensea without prior approval tx as long as the user have already an opensea proxy."
        }
      },
      "delegate(address)": {
        "params": {
          "delegatee": "The address to delegate votes to"
        }
      },
      "delegateBySig(address,uint256,uint256,uint8,bytes32,bytes32)": {
        "params": {
          "delegatee": "The address to delegate votes to",
          "expiry": "The time at which to expire the signature",
          "nonce": "The contract state required to match the signature",
          "r": "Half of the ECDSA signature pair",
          "s": "Half of the ECDSA signature pair",
          "v": "The recovery byte of the signature"
        }
      },
      "getApproved(uint256)": {
        "params": {
          "id": "The id of the token."
        },
        "returns": {
          "_0": "The address of the operator."
        }
      },
      "getCurrentVotes(address)": {
        "params": {
          "account": "The address to get votes balance"
        },
        "returns": {
          "_0": "The number of current votes for `account`"
        }
      },
      "getPriorVotes(address,uint256)": {
        "details": "Block number must be a finalized block or else this function will revert to prevent misinformation.",
        "params": {
          "account": "The address of the account to check",
          "blockNumber": "The block number to get the vote balance at"
        },
        "returns": {
          "_0": "The number of votes the account had as of the given block"
        }
      },
      "isApprovedForAll(address,address)": {
        "params": {
          "operator": "The address of the operator.",
          "owner": "The address of the owner."
        },
        "returns": {
          "isOperator": "The status of the approval."
        }
      },
      "mint(uint16,address)": {
        "params": {
          "id": "bleep id which represent a pair of (note, instrument).",
          "to": "address that will receive the Bleep."
        }
      },
      "multicall(bytes[])": {
        "details": "The `msg.value` should not be trusted for any method callable from multicall.",
        "params": {
          "data": "The encoded function data for each of the calls to make to this contract."
        },
        "returns": {
          "results": "The results from each of the calls passed in via data."
        }
      },
      "ownerAndLastTransferBlockNumberList(uint256[])": {
        "params": {
          "ids": "The list of token ids to check."
        },
        "returns": {
          "ownersData": "The list of (owner, lastTransferBlockNumber) for each ids given as input."
        }
      },
      "ownerOf(uint256)": {
        "params": {
          "id": "The id of the token."
        },
        "returns": {
          "owner": "The address of the token owner."
        }
      },
      "owners(uint256[])": {
        "params": {
          "ids": "The list if token ids to check."
        },
        "returns": {
          "addresses": "The list of addresses, corresponding to the list of ids."
        }
      },
      "royaltyInfo(uint256,uint256)": {
        "params": {
          "id": "- the token queried for royalty information.",
          "salePrice": "- the sale price of the token specified by id."
        },
        "returns": {
          "receiver": "- address of who should be sent the royalty payment.",
          "royaltyAmount": "- the royalty payment amount for salePrice."
        }
      },
      "safeTransferFrom(address,address,uint256)": {
        "params": {
          "from": "The send of the token.",
          "id": "The id of the token.",
          "to": "The recipient of the token."
        }
      },
      "safeTransferFrom(address,address,uint256,bytes)": {
        "params": {
          "data": "Additional data.",
          "from": "The sender of the token.",
          "id": "The id of the token.",
          "to": "The recipient of the token."
        }
      },
      "setApprovalForAll(address,bool)": {
        "params": {
          "approved": "The determination of the approval.",
          "operator": "The address receiving the approval."
        }
      },
      "setCheckpointingDisabler(address)": {
        "params": {
          "newCheckpointingDisabler": "new address that can disable the use of checkpointing. can be the zero address to remove the ability to change."
        }
      },
      "setRoyaltyParameters(address,uint256)": {
        "params": {
          "newRecipient": "the address that should receive the royalty proceeds.",
          "royaltyPer10Thousands": "the share of the salePrice (in 1/10000) given to the recipient."
        }
      },
      "setTokenURIContract(address)": {
        "params": {
          "newTokenURIContract": "The address of the new tokenURI contract."
        }
      },
      "sound(uint256)": {
        "params": {
          "id": "bleep id which represent a pair of (note, instrument)."
        },
        "returns": {
          "instrument": "the instrument index (0 to 16). At launch there is only 9 instrument but the DAO could add more (up to 16 in total).",
          "note": "the note index (0 to 63) starting from C2 to D#7"
        }
      },
      "supportsInterface(bytes4)": {
        "params": {
          "id": "The id of the interface."
        },
        "returns": {
          "_0": "Whether the interface is supported."
        }
      },
      "transferFrom(address,address,uint256)": {
        "params": {
          "from": "The sender of the token.",
          "id": "The id of the token.",
          "to": "The recipient of the token."
        }
      },
      "votesToDelegate(address)": {
        "details": "Used when calling `_delegate()`"
      }
    },
    "stateVariables": {
      "_royaltyPer10Thousands": {
        "details": "share of royalty, default to zero."
      },
      "_royaltyRecipient": {
        "details": "recipient of royalty, default to zero."
      },
      "checkpointingDisabler": {
        "details": "address that is able to switch off the use of checkpointing, this will make token transfers much cheaper in term of gas, but require the design of a new governance system."
      }
    },
    "version": 1
  },
  "userdoc": {
    "events": {
      "DelegateChanged(address,address,address)": {
        "notice": "An event thats emitted when an account changes its delegate"
      },
      "DelegateVotesChanged(address,uint256,uint256)": {
        "notice": "An event thats emitted when a delegate account's vote balance changes"
      }
    },
    "kind": "user",
    "methods": {
      "DELEGATION_TYPEHASH()": {
        "notice": "The EIP-712 typehash for the delegation struct used by the contract"
      },
      "approve(address,uint256)": {
        "notice": "Approve an operator to spend tokens on the senders behalf."
      },
      "balanceOf(address)": {
        "notice": "Get the number of tokens owned by an address."
      },
      "checkpoints(address,uint32)": {
        "notice": "A record of votes checkpoints for each account, by index"
      },
      "contractURI()": {
        "notice": "Returns the Uniform Resource Identifier (URI) for the token collection."
      },
      "decimals()": {
        "notice": "Defines decimals as per ERC-20 convention to make integrations with 3rd party governance platforms easier"
      },
      "delegate(address)": {
        "notice": "Delegate votes from `msg.sender` to `delegatee`"
      },
      "delegateBySig(address,uint256,uint256,uint8,bytes32,bytes32)": {
        "notice": "Delegates votes from signatory to `delegatee`"
      },
      "delegates(address)": {
        "notice": "Overrides the standard `Comp.sol` delegates mapping to return the delegator's own address if they haven't delegated. This avoids having to delegate to oneself."
      },
      "disableTheUseOfCheckpoints()": {
        "notice": "disable checkpointing overhead This can be used if the governance system can switch to use ownerAndLastTransferBlockNumberOf instead of checkpoints"
      },
      "getApproved(uint256)": {
        "notice": "Get the approved operator for a specific token."
      },
      "getCurrentVotes(address)": {
        "notice": "Gets the current votes balance for `account`"
      },
      "getPriorVotes(address,uint256)": {
        "notice": "Determine the prior number of votes for an account as of a block number"
      },
      "guardian()": {
        "notice": "guardian has some special vetoing power to guide the direction of the DAO. It can only remove rights from the DAO. It could be used to immortalize rules. For example: The DAO governance framework is by default changeable. This means the DAO could change it so Bleeps are not more votes. To prevent that from happening, the guardian can remove the ability of the DAO to changes its governance contract. (the reason the governance is changeable by default is so that better ideas an be tried out later)"
      },
      "isApprovedForAll(address,address)": {
        "notice": "Check if the sender approved the operator."
      },
      "mint(uint16,address)": {
        "notice": "mint one of bleep if not already minted. Can only be called by `minter`."
      },
      "minter()": {
        "notice": "address allowed to mint, allow the sale contract to be separated from the token contract that can focus on the core logic Once all 1024 potential bleeps (there could be less, at minimum there are 576 bleeps) are minted, no minter can mint anymore"
      },
      "minterAdmin()": {
        "notice": "minterAdmin can update the minter. At the time being there is 576 Bleeps but there is space for extra instrument and the upper limit is 1024. could be given to the DAO later so instrument can be added, the sale of these instrument sound could benenfit the DAO too and add new members."
      },
      "multicall(bytes[])": {
        "notice": "Call multiple functions in the current contract and return the data from all of them if they all succeed."
      },
      "name()": {
        "notice": "A descriptive name for a collection of NFTs in this contract."
      },
      "numCheckpoints(address)": {
        "notice": "The number of checkpoints for each account"
      },
      "ownerAndLastTransferBlockNumberList(uint256[])": {
        "notice": "Get the list of owner of a token and the blockNumber of its last transfer, useful to voting mechanism."
      },
      "ownerOf(uint256)": {
        "notice": "Get the owner of a token."
      },
      "owners(uint256[])": {
        "notice": "give the list of owners for the list of ids given."
      },
      "royaltyAdmin()": {
        "notice": "address allowed to set royalty parameters"
      },
      "royaltyInfo(uint256,uint256)": {
        "notice": "Called with the sale price to determine how much royalty is owed and to whom."
      },
      "safeTransferFrom(address,address,uint256)": {
        "notice": "Transfer a token between 2 addresses letting the receiver know of the transfer."
      },
      "safeTransferFrom(address,address,uint256,bytes)": {
        "notice": "Transfer a token between 2 addresses letting the receiver knows of the transfer."
      },
      "setApprovalForAll(address,bool)": {
        "notice": "Set the approval for an operator to manage all the tokens of the sender."
      },
      "setCheckpointingDisabler(address)": {
        "notice": "update the address that can disable the use of checkpinting, can be used to disable it entirely."
      },
      "setRoyaltyParameters(address,uint256)": {
        "notice": "set a new royalty recipient and rate, Can only be set by the `royaltyAdmin`."
      },
      "setTokenURIContract(address)": {
        "notice": "set a new tokenURI contract, that generate the metadata including the wav file, Can only be set by the `tokenURIAdmin`."
      },
      "sound(uint256)": {
        "notice": "gives the note and instrument for a particular Bleep id."
      },
      "supportsInterface(bytes4)": {
        "notice": "Check if the contract supports an interface."
      },
      "symbol()": {
        "notice": "An abbreviated name for NFTs in this contract."
      },
      "tokenURI(uint256)": {
        "notice": "Returns the Uniform Resource Identifier (URI) for token `id`."
      },
      "tokenURIAdmin()": {
        "notice": "maintainer can update the tokenURI contract, this is intended to be relinquished once the tokenURI has been heavily tested in the wild and that no modification are needed."
      },
      "tokenURIContract()": {
        "notice": "the contract that actually generate the sound (and all metadata via the a data: uri via tokenURI call)."
      },
      "transferFrom(address,address,uint256)": {
        "notice": "Transfer a token between 2 addresses."
      },
      "votesToDelegate(address)": {
        "notice": "The votes a delegator can delegate, which is the current balance of the delegator."
      }
    },
    "version": 1
  },
  "storageLayout": {
    "storage": [
      {
        "astId": 6026,
        "contract": "src/bleeps/Bleeps.sol:Bleeps",
        "label": "_owners",
        "offset": 0,
        "slot": "0",
        "type": "t_mapping(t_uint256,t_uint256)"
      },
      {
        "astId": 6030,
        "contract": "src/bleeps/Bleeps.sol:Bleeps",
        "label": "_balances",
        "offset": 0,
        "slot": "1",
        "type": "t_mapping(t_address,t_uint256)"
      },
      {
        "astId": 6036,
        "contract": "src/bleeps/Bleeps.sol:Bleeps",
        "label": "_operatorsForAll",
        "offset": 0,
        "slot": "2",
        "type": "t_mapping(t_address,t_mapping(t_address,t_bool))"
      },
      {
        "astId": 6040,
        "contract": "src/bleeps/Bleeps.sol:Bleeps",
        "label": "_operators",
        "offset": 0,
        "slot": "3",
        "type": "t_mapping(t_uint256,t_address)"
      },
      {
        "astId": 6984,
        "contract": "src/bleeps/Bleeps.sol:Bleeps",
        "label": "_tokenNonces",
        "offset": 0,
        "slot": "4",
        "type": "t_mapping(t_uint256,t_uint256)"
      },
      {
        "astId": 6988,
        "contract": "src/bleeps/Bleeps.sol:Bleeps",
        "label": "_userNonces",
        "offset": 0,
        "slot": "5",
        "type": "t_mapping(t_address,t_uint256)"
      },
      {
        "astId": 7362,
        "contract": "src/bleeps/Bleeps.sol:Bleeps",
        "label": "_useCheckpoints",
        "offset": 0,
        "slot": "6",
        "type": "t_bool"
      },
      {
        "astId": 7371,
        "contract": "src/bleeps/Bleeps.sol:Bleeps",
        "label": "_delegates",
        "offset": 0,
        "slot": "7",
        "type": "t_mapping(t_address,t_address)"
      },
      {
        "astId": 7384,
        "contract": "src/bleeps/Bleeps.sol:Bleeps",
        "label": "checkpoints",
        "offset": 0,
        "slot": "8",
        "type": "t_mapping(t_address,t_mapping(t_uint32,t_struct(Checkpoint)7376_storage))"
      },
      {
        "astId": 7389,
        "contract": "src/bleeps/Bleeps.sol:Bleeps",
        "label": "numCheckpoints",
        "offset": 0,
        "slot": "9",
        "type": "t_mapping(t_address,t_uint32)"
      },
      {
        "astId": 8098,
        "contract": "src/bleeps/Bleeps.sol:Bleeps",
        "label": "tokenURIAdmin",
        "offset": 0,
        "slot": "10",
        "type": "t_address"
      },
      {
        "astId": 8101,
        "contract": "src/bleeps/Bleeps.sol:Bleeps",
        "label": "royaltyAdmin",
        "offset": 0,
        "slot": "11",
        "type": "t_address"
      },
      {
        "astId": 8104,
        "contract": "src/bleeps/Bleeps.sol:Bleeps",
        "label": "minterAdmin",
        "offset": 0,
        "slot": "12",
        "type": "t_address"
      },
      {
        "astId": 8107,
        "contract": "src/bleeps/Bleeps.sol:Bleeps",
        "label": "minter",
        "offset": 0,
        "slot": "13",
        "type": "t_address"
      },
      {
        "astId": 8110,
        "contract": "src/bleeps/Bleeps.sol:Bleeps",
        "label": "guardian",
        "offset": 0,
        "slot": "14",
        "type": "t_address"
      },
      {
        "astId": 8385,
        "contract": "src/bleeps/Bleeps.sol:Bleeps",
        "label": "tokenURIContract",
        "offset": 0,
        "slot": "15",
        "type": "t_contract(ITokenURI)10874"
      },
      {
        "astId": 8388,
        "contract": "src/bleeps/Bleeps.sol:Bleeps",
        "label": "_royaltyRecipient",
        "offset": 0,
        "slot": "16",
        "type": "t_address"
      },
      {
        "astId": 8391,
        "contract": "src/bleeps/Bleeps.sol:Bleeps",
        "label": "_royaltyPer10Thousands",
        "offset": 0,
        "slot": "17",
        "type": "t_uint256"
      },
      {
        "astId": 8394,
        "contract": "src/bleeps/Bleeps.sol:Bleeps",
        "label": "checkpointingDisabler",
        "offset": 0,
        "slot": "18",
        "type": "t_address"
      }
    ],
    "types": {
      "t_address": {
        "encoding": "inplace",
        "label": "address",
        "numberOfBytes": "20"
      },
      "t_bool": {
        "encoding": "inplace",
        "label": "bool",
        "numberOfBytes": "1"
      },
      "t_contract(ITokenURI)10874": {
        "encoding": "inplace",
        "label": "contract ITokenURI",
        "numberOfBytes": "20"
      },
      "t_mapping(t_address,t_address)": {
        "encoding": "mapping",
        "key": "t_address",
        "label": "mapping(address => address)",
        "numberOfBytes": "32",
        "value": "t_address"
      },
      "t_mapping(t_address,t_bool)": {
        "encoding": "mapping",
        "key": "t_address",
        "label": "mapping(address => bool)",
        "numberOfBytes": "32",
        "value": "t_bool"
      },
      "t_mapping(t_address,t_mapping(t_address,t_bool))": {
        "encoding": "mapping",
        "key": "t_address",
        "label": "mapping(address => mapping(address => bool))",
        "numberOfBytes": "32",
        "value": "t_mapping(t_address,t_bool)"
      },
      "t_mapping(t_address,t_mapping(t_uint32,t_struct(Checkpoint)7376_storage))": {
        "encoding": "mapping",
        "key": "t_address",
        "label": "mapping(address => mapping(uint32 => struct ERC721Checkpointable.Checkpoint))",
        "numberOfBytes": "32",
        "value": "t_mapping(t_uint32,t_struct(Checkpoint)7376_storage)"
      },
      "t_mapping(t_address,t_uint256)": {
        "encoding": "mapping",
        "key": "t_address",
        "label": "mapping(address => uint256)",
        "numberOfBytes": "32",
        "value": "t_uint256"
      },
      "t_mapping(t_address,t_uint32)": {
        "encoding": "mapping",
        "key": "t_address",
        "label": "mapping(address => uint32)",
        "numberOfBytes": "32",
        "value": "t_uint32"
      },
      "t_mapping(t_uint256,t_address)": {
        "encoding": "mapping",
        "key": "t_uint256",
        "label": "mapping(uint256 => address)",
        "numberOfBytes": "32",
        "value": "t_address"
      },
      "t_mapping(t_uint256,t_uint256)": {
        "encoding": "mapping",
        "key": "t_uint256",
        "label": "mapping(uint256 => uint256)",
        "numberOfBytes": "32",
        "value": "t_uint256"
      },
      "t_mapping(t_uint32,t_struct(Checkpoint)7376_storage)": {
        "encoding": "mapping",
        "key": "t_uint32",
        "label": "mapping(uint32 => struct ERC721Checkpointable.Checkpoint)",
        "numberOfBytes": "32",
        "value": "t_struct(Checkpoint)7376_storage"
      },
      "t_struct(Checkpoint)7376_storage": {
        "encoding": "inplace",
        "label": "struct ERC721Checkpointable.Checkpoint",
        "members": [
          {
            "astId": 7373,
            "contract": "src/bleeps/Bleeps.sol:Bleeps",
            "label": "fromBlock",
            "offset": 0,
            "slot": "0",
            "type": "t_uint32"
          },
          {
            "astId": 7375,
            "contract": "src/bleeps/Bleeps.sol:Bleeps",
            "label": "votes",
            "offset": 4,
            "slot": "0",
            "type": "t_uint96"
          }
        ],
        "numberOfBytes": "32"
      },
      "t_uint256": {
        "encoding": "inplace",
        "label": "uint256",
        "numberOfBytes": "32"
      },
      "t_uint32": {
        "encoding": "inplace",
        "label": "uint32",
        "numberOfBytes": "4"
      },
      "t_uint96": {
        "encoding": "inplace",
        "label": "uint96",
        "numberOfBytes": "12"
      }
    }
  }
}