{
  "address": "0x8C24E8FCe70EA08f1AA66C1bBd71FB4619D68e55",
  "abi": [
    {
      "inputs": [],
      "name": "contractURI",
      "outputs": [
        {
          "internalType": "string",
          "name": "",
          "type": "string"
        }
      ],
      "stateMutability": "pure",
      "type": "function"
    },
    {
      "inputs": [
        {
          "internalType": "uint256",
          "name": "id",
          "type": "uint256"
        }
      ],
      "name": "tokenURI",
      "outputs": [
        {
          "internalType": "string",
          "name": "",
          "type": "string"
        }
      ],
      "stateMutability": "pure",
      "type": "function"
    }
  ],
  "transactionHash": "0x2f89ca06c076ce77ce524e3f11cb965d34492382d14857a6575a3d7a24e68dd0",
  "args": [],
  "solcInputHash": "d916af620307ccba45feb080daf8a057",
  "bytecode": "0x608060405234801561001057600080fd5b50613c91806100206000396000f3fe608060405234801561001057600080fd5b50600436106100365760003560e01c8063c87b56dd1461003b578063e8a3d48514610064575b600080fd5b61004e610049366004611088565b61006c565b60405161005b91906110d1565b60405180910390f35b61004e61007d565b6060610077826100a0565b92915050565b6060604051806121c0016040528061219c8152602001611a8061219c9139905090565b60408051620186a0808252620186c082019092526060916000919060208201818036833701905050905060006100d6848361068b565b905060006100e5604086611180565b905060006100f86010600688901c611180565b604080516060810182528181529192506101f491600091613c1c602083013990506000806101278760206111c3565b90506001830191508088019050600060405180610120016040528060fc815260200161198460fc913960408051600480825260a082019092529192506000918291602082016080803683370190505090506000965060005b612df681101561066a5761223e8111156101ac5787156101a7576101a46001896111db565b97505b6101e3565b6101b7600282611180565b6101a7576101f48810156101a7576101a46001896111c3565b8060008112156101de576000035b919050565b612af861271062ffffff60038d0260200187015160e81c1602046000805b600381101561060f57600086156105f6578c6102585761022d620f42406002620f42408a0602036101d0565b60029081027ffffffffffffffffffffffffffffffffffffffffffffffffffffffffffff0bdc0010590505b60018d14156102da57620f42408707620d59f881121561027c576007601082020591505b620d59f881131561029357601081620f4240030291505b620d59f88114156102aa57601081620f4240030291505b50620f42407ffffffffffffffffffffffffffffffffffffffffffffffffffffffffffff0bdc09091016207a12002055b60028d14156103145750620f42407ffffffffffffffffffffffffffffffffffffffffffffffffffffffffffff85ee081880701620aae6002055b60038d141561035d57507ffffffffffffffffffffffffffffffffffffffffffffffffffffffffffff0bdc0620f424087076207a12081101561035757620f424091505b50600490055b60048d14156103a657507ffffffffffffffffffffffffffffffffffffffffffffffffffffffffffff0bdc0620f424087076204c4b48110156103a057620f424091505b50600490055b60058d141561040557600487029050620f42406207a120620186a06207a12060026207a1206103e8620f4240621e8480620f42406207a1208b020507036101d0565b03056103fd620f4240621e84808807036101d0565b010303020590505b60068d14156105025760208601516040870151606088015160808901516380000000613039856341c64e6d020106935062027100623d0900848d03020482915080620f424001620f42406380000000621e848088020403828401020592508b93506305f5e1006064820260af0360036004868601020502059550507ffffffffffffffffffffffffffffffffffffffffffffffffffffffffffff0bdc08512156104cc577ffffffffffffffffffffffffffffffffffffffffffffffffffffffffffff0bdc094505b620f42408513156104de57620f424094505b60208a0193909352604089019190915260608801526080870152600a600591909102055b60078d141561057057506002868102906203d090906207a1206105517ffffffffffffffffffffffffffffffffffffffffffffffffffffffffffff0bdc0621e8480608060fe8e020507016101d0565b0305036207a12061056b620f4240621e84808507036101d0565b030190505b60088d14156105dd5750600760056002621e8480608060fe8b02058190077fffffffffffffffffffffffffffffffffffffffffffffffffffffffffffe91ca001829005918a0207017fffffffffffffffffffffffffffffffffffffffffffffffffffffffffffe54c100102055b6102bc8c82020590506080621e84806101008302050190505b95830195600882026010031b9190910190600101610201565b50603f8160121c168801518753600187019650603f81600c1c168801518753600187019650603f8160061c168801518753600187019650603f811688015187535050600194909401936106636003826111c3565b905061017f565b5061067a8b8587612df68e610798565b50989b9a5050505050505050505050565b6000806106998460006109c3565b905060006106a8856000610c8e565b9050600082826106b788610ed2565b6106c089611002565b86866040516020016106d79695949392919061120e565b604080517fffffffffffffffffffffffffffffffffffffffffffffffffffffffffffffffe0818403018152919052805190915060208083019087015b6020831061075057815181527fffffffffffffffffffffffffffffffffffffffffffffffffffffffffffffffe09092019160209182019101610713565b905181516020939093036101000a7fffffffffffffffffffffffffffffffffffffffffffffffffffffffffffffffff0180199091169216919091179052519250505092915050565b60228453600184019350607d84536001840193506020858503038552600060086001846107c591906111db565b6107d09060026114dd565b6107db90602c6111c3565b6107e591906111db565b90506000602c6107f68360086111c3565b61080091906111db565b9050603461080f8460206111c3565b61081991906111db565b603f602084901b64ff0000000016601085811b63ff000000169190910162ff00008616019085901c61ff0016016546000000005701602a81901c919091168701519189019750908753600187019650603f8160241c168601518753600187019650603f81601e1c168601518753600187019650603f8160181c168601518753600187019650603f8160121c168601518753600187019650603f81600c1c168601518753600187019650603f8160061c168601518753600187019650603f811686015187535060046108eb8460206111c3565b6108f591906111db565b603f602083901b64ff0000000016601084811b63ff000000169190910162ff00008516019084901c61ff0016016561000000005701602a81901c919091168701519189019750908753600187019650603f8160241c168601518753600187019650603f81601e1c168601518753600187019650603f8160181c168601518753600187019650603f8160121c168601518753600187019650603f81600c1c168601518753600187019650603f8160061c168601518753600187019650603f811686015187535050505050505050565b606060006109d66010600686901c611180565b905080610a1a576040518060400160405280600881526020017f545249414e474c450000000000000000000000000000000000000000000000008152509150610c87565b8060011415610aa15782610a63576040518060400160405280600c81526020017f54494c5445442532305341570000000000000000000000000000000000000000815250610a9a565b6040518060400160405280600e81526020017f54494c54454425323532305341570000000000000000000000000000000000008152505b9150610c87565b8060021415610ae7576040518060400160405280600381526020017f53415700000000000000000000000000000000000000000000000000000000008152509150610c87565b8060031415610b2d576040518060400160405280600681526020017f53515541524500000000000000000000000000000000000000000000000000008152509150610c87565b8060041415610b73576040518060400160405280600581526020017f50554c53450000000000000000000000000000000000000000000000000000008152509150610c87565b8060051415610bb9576040518060400160405280600581526020017f4f5247414e0000000000000000000000000000000000000000000000000000008152509150610c87565b8060061415610bff576040518060400160405280600581526020017f4e4f4953450000000000000000000000000000000000000000000000000000008152509150610c87565b8060071415610c45576040518060400160405280600681526020017f50484153455200000000000000000000000000000000000000000000000000008152509150610c87565b8060081415610c87576040518060400160405280600981526020017f46554e4b595f534157000000000000000000000000000000000000000000000081525091505b5092915050565b60606000610c9d604085611180565b90506000610cac600c83611180565b90508060ff811615610cc65780610cc28161151a565b9150505b60028260ff161115610ce05780610cdc8161151a565b9150505b60058260ff161115610cfa5780610cf68161151a565b9150505b60078260ff161115610d145780610d108161151a565b9150505b60098260ff161115610d2e5780610d2a8161151a565b9150505b60006007610d3d836002611555565b610d47919061157a565b610d52906041611555565b60f81b90506000610d64600c8661159c565b610d6f906032611555565b60f81b90508360ff1660011480610d8957508360ff166003145b80610d9757508360ff166006145b80610da557508360ff166008145b80610db357508360ff16600a145b15610e97578615610e36576040517fff0000000000000000000000000000000000000000000000000000000000000080841660208301527f25323532330000000000000000000000000000000000000000000000000000006021830152821660268201526027015b60405160208183030381529060405295505050505050610077565b6040517fff0000000000000000000000000000000000000000000000000000000000000080841660208301527f2532330000000000000000000000000000000000000000000000000000000000602183015282166024820152602501610e1b565b6040517fff00000000000000000000000000000000000000000000000000000000000000808416602083015282166021820152602201610e1b565b606081610f1257505060408051808201909152600181527f3000000000000000000000000000000000000000000000000000000000000000602082015290565b8160005b8115610f2a57600101600a82049150610f16565b60008167ffffffffffffffff811115610f4557610f45611122565b6040519080825280601f01601f191660200182016040528015610f6f576020820181803683370190505b5090507fffffffffffffffffffffffffffffffffffffffffffffffffffffffffffffffff82015b8515610ff957600a860660300160f81b82828060019003935081518110610fbf57610fbf6115b0565b60200101907effffffffffffffffffffffffffffffffffffffffffffffffffffffffffffff1916908160001a905350600a86049550610f96565b50949350505050565b6060600060405180610120016040528060fc815260200161198460fc91399050600061102f8460006109c3565b603f8516600302830160200151909150606460e89190911c0461105181610ed2565b8261105d876001610c8e565b60405160200161106f939291906115df565b6040516020818303038152906040529350505050919050565b60006020828403121561109a57600080fd5b5035919050565b60005b838110156110bc5781810151838201526020016110a4565b838111156110cb576000848401525b50505050565b60208152600082518060208401526110f08160408501602087016110a1565b601f017fffffffffffffffffffffffffffffffffffffffffffffffffffffffffffffffe0169190910160400192915050565b7f4e487b7100000000000000000000000000000000000000000000000000000000600052604160045260246000fd5b7f4e487b7100000000000000000000000000000000000000000000000000000000600052601260045260246000fd5b60008261118f5761118f611151565b500690565b7f4e487b7100000000000000000000000000000000000000000000000000000000600052601160045260246000fd5b600082198211156111d6576111d6611194565b500190565b6000828210156111ed576111ed611194565b500390565b600081516112048185602086016110a1565b9290920192915050565b7f646174613a6170706c69636174696f6e2f6a736f6e2c7b226e616d65223a220081526000875161124681601f850160208c016110a1565b7f2532300000000000000000000000000000000000000000000000000000000000601f918401918201528751611283816022840160208c016110a1565b7f222c226465736372697074696f6e223a2241253230736f756e6425323066756c910160228101919091527f6c7925323067656e6572617465642532306f6e636861696e222c22657874657260428201527f6e616c5f75726c223a220000000000000000000000000000000000000000000060628201527f68747470733a2f2f626c656570732e6172742f626c656570732f25323369643d606c82015261132d608c8201886111f2565b7f222c22696d616765223a220000000000000000000000000000000000000000008152905061135f600b8201876111f2565b7f222c000000000000000000000000000000000000000000000000000000000000815290507f2261747472696275746573223a5b7b2274726169745f74797065223a22496e7360028201527f7472756d656e74222c2276616c7565223a22000000000000000000000000000060228201526114386114326113e360348401886111f2565b7f227d2c7b2274726169745f74797065223a224e6f7465222c2276616c7565223a81527f2200000000000000000000000000000000000000000000000000000000000000602082015260210190565b856111f2565b7f227d5d2c0000000000000000000000000000000000000000000000000000000081527f22616e696d6174696f6e5f75726c223a22646174613a617564696f2f7761763b60048201527f6261736536342c556b6c47526741414141425851565a465a6d3130494241414160248201527f414142414145412b436f414150425641414142414167415a474630595141410060448201526063019998505050505050505050565b6000817fffffffffffffffffffffffffffffffffffffffffffffffffffffffffffffffff048311821515161561151557611515611194565b500290565b600060ff82168061152d5761152d611194565b7fffffffffffffffffffffffffffffffffffffffffffffffffffffffffffffffff0192915050565b600060ff821660ff84168060ff0382111561157257611572611194565b019392505050565b600060ff83168061158d5761158d611151565b8060ff84160691505092915050565b6000826115ab576115ab611151565b500490565b7f4e487b7100000000000000000000000000000000000000000000000000000000600052603260045260246000fd5b7f646174613a696d6167652f7376672b786d6c2c3c7376672532353230786d6c6e81527f733d27687474703a2f2f7777772e77332e6f72672f323030302f73766727253260208201527f35323076696577426f783d27302532353230302532353230353132253235323060408201527f3531322725323532307374796c653d276261636b67726f756e642d636f6c6f7260608201527f3a25323532333030303b7374726f6b653a25323532336461623839343b66696c60808201527f6c3a25323532336461623839343b273e3c726563742532353230783d2736272560a08201527f32353230793d273627253235323077696474683d27353030272532353230686560c08201527f696768743d2735303027253235323072783d2736342725323532307374796c6560e08201527f3d277374726f6b652d77696474683a383b66696c6c3a25323532333030303b276101008201527f2f3e3c746578742532353230783d273335272532353230793d273335272532356101208201527f3230646f6d696e616e742d626173656c696e653d2768616e67696e67272532356101408201527f3230746578742d616e63686f723d2773746172742725323532307374796c653d6101608201527f2766696c6c3a25323532336461623839343b666f6e742d73697a653a333270786101808201527f3b273e00000000000000000000000000000000000000000000000000000000006101a0820152600061195461194e6118b36118ad6118126101a387018a6111f2565b7f2532353230687a3c2f746578743e3c746578742532353230783d27323536272581527f32353230793d27313730272532353230646f6d696e616e742d626173656c696e60208201527f653d276d6964646c65272532353230746578742d616e63686f723d276d69646460408201527f6c652725323532307374796c653d27666f6e742d73697a653a333670783b273e606082015260800190565b876111f2565b7f3c2f746578743e3c746578742532353230783d27323536272532353230793d2781527f333330272532353230646f6d696e616e742d626173656c696e653d276d69646460208201527f6c65272532353230746578742d616e63686f723d276d6964646c65272532353260408201527f307374796c653d27666f6e742d73697a653a373270783b273e00000000000000606082015260790190565b846111f2565b7f3c2f746578743e3c2f7376673e000000000000000000000000000000000000008152600d019594505050505056fe00198d001b12001cae001e6200203100221b00242200264800288f002af8002d8600303b00331900362300395b003cc4004061004435004844004c9000511d0055f0005b0c006076006633006c460072b60079890080c300886b00908700992000a23a00abe000b61800c0ec00cc6500d88d00e56d00f3110101850110d601210f01323f0144750157c0016c310181d90198ca01b11901cada01e62302030b0221ab02421e02647e0288ea02af8002d8620303b10331940362320395b403cc4604061604435704843c04c8fc0511d4055f0005b0c306076306632906c464072b6707988b080c2c0886ad0908770991f90a23a80abe000b61860c0ec5646174613a6170706c69636174696f6e2f6a736f6e2c7b226e616d65223a22426c65657073222c226465736372697074696f6e223a225468652532304669727374253230436f6d706f7361626c65253230536f756e647325323046756c6c7925323047656e6572617465642532304f6e2d436861696e253230576974682532305a65726f25323045787465726e616c6974696573222c22696d616765223a22646174613a696d6167652f7376672b786d6c3b6261736536342c50484e325a79423361575230614430694e544579634867694947686c6157646f644430694e5445796348676949485a705a58644362336739496a41674d4341314d5449674e544579496942325a584a7a61573975505349784c6a4569494868746247357a50534a6f644852774f693876643364334c6e637a4c6d39795a7938794d4441774c334e325a79496765473173626e4d3665477870626d7339496d6830644841364c79393364336375647a4d7562334a6e4c7a45354f546b7665477870626d7369506a7830615852735a5435436247566c63484d765447396e627a777664476c306247552b5047636761575139496c4e3562574a7662484d6949484e30636d39725a543069626d39755a534967633352796232746c4c5864705a48526f505349784969426d6157787350534a756232356c4969426d615778734c584a3162475539496d56325a5735765a475169506a786e49476c6b50534a436247566c63484d765447396e627949675a6d6c736244306949305242516a67354e43492b50484268644767675a443069545449324e5334354e4377304d445167517a49324e7934774f5449734e444130494449324f4334794d5451734e44417a4c6a67314e6941794e6a6b754d7a41324c4451774d7934314e6a6767517a49334d43347a4f5467734e44417a4c6a4934494449334d53347a4e7977304d4449754f444d32494449334d6934794d6a49734e4441794c6a497a4e6942444d6a637a4c6a41334e4377304d4445754e6a4d32494449334d7934334e5449734e4441774c6a67324d6941794e7a51754d6a55324c444d354f5334354d545167517a49334e4334334e69777a4f5467754f545932494449334e5334774d5449734d7a6b334c6a67304e4341794e7a55754d4445794c444d354e6934314e446767517a49334e5334774d5449734d7a6b304c6a6b30494449334e4334324d6a49734d7a6b7a4c6a55324e6941794e7a4d754f4451794c444d354d6934304d6a5967517a49334d7934774e6a49734d7a6b784c6a49344e6941794e7a45754f4467734d7a6b774c6a51344f4341794e7a41754d6a6b324c444d354d4334774d7a4967517a49334d5334304e4467734d7a67354c6a5134494449334d69347a4d5467734d7a67344c6a63334d6941794e7a49754f5441324c444d344e7934354d446767517a49334d7934304f5451734d7a67334c6a41304e4341794e7a4d754e7a67344c444d344e5334354e6a51674d6a637a4c6a63344f43777a4f4451754e6a593449454d794e7a4d754e7a67344c444d344d7934304e6a67674d6a637a4c6a55354c444d344d6934304e6941794e7a4d754d546b304c444d344d5334324e445167517a49334d6934334f5467734d7a67774c6a67794f4341794e7a49754d6a51734d7a67774c6a45334e4341794e7a45754e5449734d7a63354c6a59344d6942444d6a63774c6a67734d7a63354c6a4535494449324f5334354d7a59734d7a63344c6a677a4e6941794e6a67754f5449344c444d334f4334324d6942444d6a59334c6a6b794c444d334f4334304d4451674d6a59324c6a67774e43777a4e7a67754d6a6b32494449324e5334314f43777a4e7a67754d6a6b32494577794e544d754e4467304c444d334f4334794f545967544449314d7934304f4451734e444130494577794e6a55754f5451734e44413049466f67545449324e4334344e69777a4f4467754e79424d4d6a55354c6a457a4e69777a4f4467754e79424d4d6a55354c6a457a4e69777a4f4449754e6a6734494577794e6a51754e4449344c444d344d6934324f446767517a49324e4334354d7a49734d7a67794c6a59344f4341794e6a55754e4445344c444d344d6934334d7941794e6a55754f4467324c444d344d6934344d545167517a49324e69347a4e5451734d7a67794c6a67354f4341794e6a59754e7a59344c444d344d7934774e4467674d6a59334c6a45794f43777a4f444d754d6a593049454d794e6a63754e4467344c444d344d7934304f4341794e6a63754e7a63324c444d344d7934334f4341794e6a63754f546b794c444d344e4334784e6a5167517a49324f4334794d4467734d7a67304c6a55304f4341794e6a67754d7a45324c444d344e5334774e4341794e6a67754d7a45324c444d344e5334324e4342444d6a59344c6a4d784e69777a4f4459754e7a49674d6a59334c6a6b354d69777a4f4463754e5341794e6a63754d7a51304c444d344e7934354f4342444d6a59324c6a59354e69777a4f4467754e4459674d6a59314c6a67324f43777a4f4467754e7941794e6a51754f4459734d7a67344c6a63675769424e4d6a59314c6a45344e43777a4f546b754e6a4134494577794e546b754d544d324c444d354f5334324d446767544449314f5334784d7a59734d7a6b794c6a55314d69424d4d6a59314c6a49354d69777a4f5449754e54557949454d794e6a59754e5445324c444d354d6934314e5449674d6a59334c6a55734d7a6b794c6a677a4e4341794e6a67754d6a51304c444d354d79347a4f546767517a49324f4334354f4467734d7a6b7a4c6a6b324d6941794e6a6b754d7a59734d7a6b304c6a6b774e4341794e6a6b754d7a59734d7a6b324c6a49794e4342444d6a59354c6a4d324c444d354e6934344f5459674d6a59354c6a49304e69777a4f5463754e445134494449324f5334774d5467734d7a6b334c6a673449454d794e6a67754e7a6b734d7a6b344c6a4d784d6941794e6a67754e4467304c444d354f4334324e5451674d6a59344c6a45734d7a6b344c6a6b774e6942444d6a59334c6a63784e69777a4f546b754d545534494449324e7934794e7a49734d7a6b354c6a4d7a4f4341794e6a59754e7a59344c444d354f5334304e445967517a49324e6934794e6a51734d7a6b354c6a55314e4341794e6a55754e7a4d324c444d354f5334324d4467674d6a59314c6a45344e43777a4f546b754e6a413449466f6754544d784d5334774d4467734e4441304945777a4d5445754d4441344c444d354f5334794e446767544449354f4334304f43777a4f546b754d6a5134494577794f5467754e4467734d7a63344c6a49354e69424d4d6a6b794c6a67794f43777a4e7a67754d6a6b32494577794f5449754f4449344c4451774e43424d4d7a45784c6a41774f4377304d4451675769424e4d7a51334c6a59344f4377304d44516754444d304e7934324f4467734d7a6b354c6a49304f43424d4d7a4d7a4c6a67794f43777a4f546b754d6a51344945777a4d7a4d754f4449344c444d354d6934354e44676754444d304e6934794f4451734d7a6b794c6a6b304f43424d4d7a51324c6a49344e43777a4f4467754e5455324945777a4d7a4d754f4449344c444d344f4334314e54596754444d7a4d7934344d6a67734d7a677a4c6a41304f43424d4d7a51334c6a51734d7a677a4c6a41304f43424d4d7a51334c6a51734d7a63344c6a49354e69424d4d7a49344c6a45334e69777a4e7a67754d6a6b324945777a4d6a67754d5463324c4451774e43424d4d7a51334c6a59344f4377304d4451675769424e4d7a67314c6a41784e6977304d44516754444d344e5334774d5459734d7a6b354c6a49304f43424d4d7a63784c6a45314e69777a4f546b754d6a51344945777a4e7a45754d5455324c444d354d6934354e44676754444d344d7934324d5449734d7a6b794c6a6b304f43424d4d7a677a4c6a59784d69777a4f4467754e5455324945777a4e7a45754d5455324c444d344f4334314e54596754444d334d5334784e5459734d7a677a4c6a41304f43424d4d7a67304c6a63794f43777a4f444d754d4451344945777a4f4451754e7a49344c444d334f4334794f54596754444d324e5334314d4451734d7a63344c6a49354e69424d4d7a59314c6a55774e4377304d44516754444d344e5334774d5459734e44413049466f67545451774f4334304f4451734e444130494577304d4467754e4467304c444d354e4334334f445167544451784e4334304d6a51734d7a6b304c6a63344e4342444e4445324c6a417a4d69777a4f5451754e7a6730494451784e7934304c444d354e4334314e5341304d5467754e5449344c444d354e4334774f444967517a51784f5334324e5459734d7a6b7a4c6a59784e4341304d6a41754e5463304c444d354d6934354f5459674e4449784c6a49344d69777a4f5449754d6a493449454d304d6a45754f546b734d7a6b784c6a5132494451794d6934314d4459734d7a6b774c6a55334f4341304d6a49754f444d734d7a67354c6a55344d6942444e44497a4c6a45314e43777a4f4467754e546732494451794d79347a4d5459734d7a67334c6a55334d6941304d6a4d754d7a45324c444d344e6934314e4342444e44497a4c6a4d784e69777a4f4455754e446730494451794d7934784e5451734d7a67304c6a51324e4341304d6a49754f444d734d7a677a4c6a513449454d304d6a49754e5441324c444d344d6934304f5459674e4449784c6a6b354c444d344d5334324d6941304d6a45754d6a67794c444d344d4334344e544967517a51794d4334314e7a51734d7a67774c6a41344e4341304d546b754e6a55324c444d334f5334304e6a59674e4445344c6a55794f43777a4e7a67754f546b3449454d304d5463754e43777a4e7a67754e544d674e4445324c6a417a4d69777a4e7a67754d6a6b32494451784e4334304d6a51734d7a63344c6a49354e69424d4e4441794c6a677a4d69777a4e7a67754d6a6b32494577304d4449754f444d794c4451774e43424d4e4441344c6a51344e4377304d4451675769424e4e4445794c6a67334e69777a4f5441754d7a6b79494577304d4467754e4467304c444d354d43347a4f544967544451774f4334304f4451734d7a67794c6a59344f43424d4e4445794c6a67334e69777a4f4449754e6a673449454d304d544d754e5449304c444d344d6934324f4467674e4445304c6a45304f43777a4f4449754e7a4d32494451784e4334334e4467734d7a67794c6a677a4d6942444e4445314c6a4d304f43777a4f4449754f544934494451784e5334344e7a59734d7a677a4c6a45784e4341304d5459754d7a4d794c444d344d79347a4f5342444e4445324c6a63344f43777a4f444d754e6a5932494451784e7934784e5451734d7a67304c6a41314e6941304d5463754e444d734d7a67304c6a553249454d304d5463754e7a41324c444d344e5334774e6a51674e4445334c6a67304e43777a4f4455754e7a4930494451784e7934344e4451734d7a67324c6a553049454d304d5463754f4451304c444d344e79347a4e5459674e4445334c6a63774e69777a4f4467754d444532494451784e7934304d79777a4f4467754e544967517a51784e7934784e5451734d7a67354c6a41794e4341304d5459754e7a67344c444d344f5334304d5451674e4445324c6a4d7a4d69777a4f446b754e6a6b67517a51784e5334344e7a59734d7a67354c6a6b324e6941304d5455754d7a51344c444d354d4334784e5449674e4445304c6a63304f43777a4f5441754d6a513449454d304d5451754d5451344c444d354d43347a4e4451674e44457a4c6a55794e43777a4f5441754d7a6b79494451784d6934344e7a59734d7a6b774c6a4d354d694261494530304e5441754d5459344c4451774e4334314e7a5967517a51314d5334354d6977304d4451754e546332494451314d7934304e6a49734e4441304c6a4d334d6941304e5451754e7a6b304c4451774d7934354e6a5167517a51314e6934784d6a59734e44417a4c6a55314e6941304e5463754d6a51794c4451774d6934354f4459674e4455344c6a45304d6977304d4449754d6a553049454d304e546b754d4451794c4451774d5334314d6a49674e4455354c6a63794c4451774d4334324e5449674e4459774c6a45334e69777a4f546b754e6a513049454d304e6a41754e6a4d794c444d354f4334324d7a59674e4459774c6a67324c444d354e7934314e4451674e4459774c6a67324c444d354e69347a4e6a6767517a51324d4334344e69777a4f5451754f544934494451324d4334314e5451734d7a6b7a4c6a63304e6941304e546b754f5451794c444d354d6934344d6a4967517a51314f53347a4d79777a4f5445754f446b34494451314f4334324d4451734d7a6b784c6a4532494451314e7934334e6a51734d7a6b774c6a59774f4342444e4455324c6a6b794e43777a4f5441754d445532494451314e6934774e7a67734d7a67354c6a59314e4341304e5455754d6a49324c444d344f5334304d444967517a51314e43347a4e7a51734d7a67354c6a4531494451314d7934334d4467734d7a67344c6a6b334e6941304e544d754d6a49344c444d344f4334344f4342444e4455784c6a59794c444d344f4334304e7a49674e4455774c6a4d784f43777a4f4467754d544d32494451304f53347a4d6a49734d7a67334c6a67334d6942444e4451344c6a4d794e69777a4f4463754e6a4134494451304e7934314e4459734d7a67334c6a4d304e4341304e4459754f5467794c444d344e7934774f4342444e4451324c6a51784f43777a4f4459754f444532494451304e6934774e43777a4f4459754e544934494451304e5334344e4467734d7a67324c6a49784e6942444e4451314c6a59314e69777a4f4455754f544130494451304e5334314e69777a4f4455754e446b32494451304e5334314e69777a4f4451754f546b7949454d304e4455754e5459734d7a67304c6a5130494451304e5334324f43777a4f444d754f546730494451304e5334354d69777a4f444d754e6a493049454d304e4459754d5459734d7a677a4c6a49324e4341304e4459754e4459324c444d344d6934354e6a51674e4451324c6a677a4f43777a4f4449754e7a493049454d304e4463754d6a45734d7a67794c6a51344e4341304e4463754e6a49304c444d344d69347a4d5459674e4451344c6a41344c444d344d6934794d6942444e4451344c6a557a4e69777a4f4449754d544930494451304f4334354f5449734d7a67794c6a41334e6941304e446b754e4451344c444d344d6934774e7a5967517a51314d4334784e4451734d7a67794c6a41334e6941304e5441754e7a67324c444d344d6934784d7a59674e4455784c6a4d334e43777a4f4449754d6a553249454d304e5445754f5459794c444d344d69347a4e7a59674e4455794c6a51344e43777a4f4449754e5467674e4455794c6a6b304c444d344d6934344e6a6767517a51314d79347a4f5459734d7a677a4c6a45314e6941304e544d754e7a59794c444d344d7934314e5449674e4455304c6a417a4f43777a4f4451754d44553249454d304e5451754d7a45304c444d344e4334314e6941304e5451754e4463324c444d344e5334784f5459674e4455304c6a55794e43777a4f4455754f545930494577304e546b754f546b324c444d344e5334354e6a5167517a51314f5334354f5459734d7a67304c6a51334e6941304e546b754e7a45304c444d344d7934794d5341304e546b754d5455734d7a67794c6a45324e6942444e4455344c6a55344e69777a4f4445754d544979494451314e7934344d6a51734d7a67774c6a49324e4341304e5459754f4459304c444d334f5334314f544967517a51314e5334354d4451734d7a63344c6a6b79494451314e4334344d4459734d7a63344c6a517a4e4341304e544d754e5463734d7a63344c6a457a4e4342444e4455794c6a4d7a4e43777a4e7a63754f444d30494451314d5334774e4451734d7a63334c6a59344e4341304e446b754e79777a4e7a63754e6a673049454d304e4467754e5451344c444d334e7934324f4451674e4451334c6a4d354e69777a4e7a63754f4451674e4451324c6a49304e43777a4e7a67754d54557949454d304e4455754d446b794c444d334f4334304e6a51674e4451304c6a41324c444d334f4334354e4451674e44517a4c6a45304f43777a4e7a6b754e546b7949454d304e4449754d6a4d324c444d344d4334794e4341304e4445754e446b344c444d344d5334774e5341304e4441754f544d304c444d344d6934774d6a4967517a51304d43347a4e79777a4f4449754f546b30494451304d4334774f4467734d7a67304c6a4530494451304d4334774f4467734d7a67314c6a513249454d304e4441754d4467344c444d344e6934324d7a59674e4451774c6a4d784c444d344e7934324d7a67674e4451774c6a63314e43777a4f4467754e44593249454d304e4445754d546b344c444d344f5334794f5451674e4451784c6a63344c444d344f5334354f4451674e4451794c6a55734d7a6b774c6a557a4e6942444e44517a4c6a49794c444d354d5334774f4467674e4451304c6a417a4e69777a4f5445754e544d34494451304e4334354e4467734d7a6b784c6a67344e6942444e4451314c6a67324c444d354d6934794d7a51674e4451324c6a63354e69777a4f5449754e544934494451304e7934334e5459734d7a6b794c6a63324f4342444e4451344c6a59354d69777a4f544d754d444d79494451304f5334324d5459734d7a6b7a4c6a49334d6941304e5441754e5449344c444d354d7934304f446767517a51314d5334304e43777a4f544d754e7a4130494451314d6934794e5459734d7a6b7a4c6a6b314e6941304e5449754f5463324c444d354e4334794e445167517a51314d7934324f5459734d7a6b304c6a557a4d6941304e5451754d6a63344c444d354e4334344f5449674e4455304c6a63794d69777a4f5455754d7a493049454d304e5455754d5459324c444d354e5334334e5459674e4455314c6a4d344f43777a4f5459754d7a49674e4455314c6a4d344f43777a4f5463754d44453249454d304e5455754d7a67344c444d354e7934324e6a51674e4455314c6a49794c444d354f4334784f5467674e4455304c6a67344e43777a4f5467754e6a453449454d304e5451754e5451344c444d354f5334774d7a67674e4455304c6a45794f43777a4f546b754d7a5934494451314d7934324d6a51734d7a6b354c6a59774f4342444e44557a4c6a45794c444d354f5334344e4467674e4455794c6a55344c4451774d4334774d5341304e5449754d4441304c4451774d4334774f545167517a51314d5334304d6a67734e4441774c6a45334f4341304e5441754f4467344c4451774d4334794d6941304e5441754d7a67304c4451774d4334794d6942444e4451354c6a59304c4451774d4334794d6941304e4467754f5449734e4441774c6a457a494451304f4334794d6a51734d7a6b354c6a6b3149454d304e4463754e5449344c444d354f5334334e7941304e4459754f5449794c444d354f5334304f5451674e4451324c6a51774e69777a4f546b754d54497949454d304e4455754f446b734d7a6b344c6a6331494451304e5334304e7a59734d7a6b344c6a49324e4341304e4455754d5459304c444d354e7934324e6a5167517a51304e4334344e5449734d7a6b334c6a41324e4341304e4451754e6a6b324c444d354e69347a4d7a49674e4451304c6a59354e69777a4f5455754e445934494577304d7a6b754d6a49304c444d354e5334304e6a6767517a517a4f5334794c444d354e7934774e5449674e444d354c6a51344f43777a4f5467754e4449674e4451774c6a41344f43777a4f546b754e54637949454d304e4441754e6a67344c4451774d4334334d6a51674e4451784c6a51354f4377304d4445754e6a6379494451304d6934314d5467734e4441794c6a51784e6942444e44517a4c6a557a4f4377304d444d754d5459674e4451304c6a63784e4377304d444d754e7a4132494451304e6934774e4459734e4441304c6a41314e4342444e4451334c6a4d334f4377304d4451754e444179494451304f4334334e5449734e4441304c6a55334e6941304e5441754d5459344c4451774e4334314e7a59675769496761575139496b4a4d52555651557949675a6d6c73624331796457786c50534a75623235365a584a76496a34384c3342686447672b5047636761575139496b64796233567749694230636d467563325a76636d3039496e52795957357a624746305a5367794e5445754d4441774d4441774c4341784e444d754d4441774d4441774b53492b50484a6c5933516761575139496c4a6c59335268626d64735a534967654430694d434967655430694e7a4169494864705a48526f505349794d434967614756705a326830505349344d434967636e6739496a4577496a34384c334a6c5933512b50484a6c5933516761575139496c4a6c59335268626d64735a534967654430694d7a676949486b39496a49304969423361575230614430694d6a41694947686c6157646f644430694d54637949694279654430694d544169506a7776636d566a64443438636d566a644342705a443069556d566a644746755a32786c49694234505349334e694967655430694e6a4169494864705a48526f505349794d434967614756705a326830505349784d44416949484a34505349784d43492b504339795a574e30506a78795a574e3049476c6b50534a535a574e305957356e6247556949486739496a45784e434967655430694e6a4169494864705a48526f505349794d434967614756705a326830505349784d44416949484a34505349784d43492b504339795a574e30506a78795a574e3049476c6b50534a535a574e305957356e6247556949486739496a45314d694967655430694d43496764326c6b64476739496a49774969426f5a576c6e61485139496a49794d434967636e6739496a4577496a34384c334a6c5933512b50484a6c5933516761575139496c4a6c59335268626d64735a534967654430694d546b77496942355053497a4e53496764326c6b64476739496a49774969426f5a576c6e61485139496a45314d434967636e6739496a4577496a34384c334a6c5933512b5043396e506a7877623278355a32397549476c6b50534a55636d6c68626d64735a53496763473970626e527a505349784d6a4d674d544d79494445354e5334794d544d7a4d7a4d674d6a55784c6a41354d4445334f4341784d6a4d674d6a6b7a4c6a63794f5463304f4341314d5341794e5445754d446b774d546334496a34384c33427662486c6e6232342b5048427662486c6e6232346761575139496c5279615746755a32786c49694230636d467563325a76636d3039496e52795957357a624746305a5367784d6a4d754d5441324e6a59334c43417a4d5455754d7a51304e6a49334b53427a593246735a5367784c4341744d536b6764484a68626e4e735958526c4b4330784d6a4d754d5441324e6a59334c4341744d7a45314c6a4d304e4459794e796b674969427762326c7564484d39496a45794d7941794e6a51754f5455354e544132494445354e5334794d544d7a4d7a4d674d7a59314c6a63794f5463304f4341784d6a4d754d5441324e6a593349444d794d7934304e5459794f4455674e5445674d7a59314c6a63794f5463304f43492b50433977623278355a323975506a77765a7a34384c32632b5043397a646d632b222c2265787465726e616c5f6c696e6b223a2268747470733a2f2f626c656570732e617274227d4142434445464748494a4b4c4d4e4f505152535455565758595a6162636465666768696a6b6c6d6e6f707172737475767778797a303132333435363738392b2fa2646970667358221220a9ef703bbba006774a26cab9747cb86b9af5f63379b25381e96da0605493547064736f6c63430008090033",
  "devdoc": {
    "kind": "dev",
    "methods": {},
    "version": 1
  },
  "userdoc": {
    "kind": "user",
    "methods": {},
    "version": 1
  },
  "storageLayout": {
    "storage": [],
    "types": null
  }
}