{
  "address": "0xc722A7Fa50569D73D89e39D2B1Be6a82c4b84cef",
  "abi": [
    {
      "inputs": [
        {
          "internalType": "contract Bleeps",
          "name": "bleeps",
          "type": "address"
        },
        {
          "internalType": "uint256",
          "name": "price",
          "type": "uint256"
        },
        {
          "internalType": "uint256",
          "name": "whitelistPrice",
          "type": "uint256"
        },
        {
          "internalType": "uint256",
          "name": "whitelistTimeLimit",
          "type": "uint256"
        },
        {
          "internalType": "bytes32",
          "name": "whitelistMerkleRoot",
          "type": "bytes32"
        },
        {
          "internalType": "address payable",
          "name": "projectCreator",
          "type": "address"
        },
        {
          "internalType": "uint256",
          "name": "creatorFeePer10000",
          "type": "uint256"
        },
        {
          "internalType": "address payable",
          "name": "saleRecipient",
          "type": "address"
        },
        {
          "internalType": "uint256",
          "name": "deploymentCostToPay",
          "type": "uint256"
        },
        {
          "internalType": "contract IERC721",
          "name": "mandalas",
          "type": "address"
        },
        {
          "internalType": "uint256",
          "name": "mandalasDiscountPercentage",
          "type": "uint256"
        },
        {
          "internalType": "uint256",
          "name": "uptoInstr",
          "type": "uint256"
        }
      ],
      "stateMutability": "nonpayable",
      "type": "constructor"
    },
    {
      "inputs": [
        {
          "internalType": "uint16",
          "name": "id",
          "type": "uint16"
        },
        {
          "internalType": "address",
          "name": "to",
          "type": "address"
        }
      ],
      "name": "creatorMint",
      "outputs": [],
      "stateMutability": "nonpayable",
      "type": "function"
    },
    {
      "inputs": [
        {
          "internalType": "uint16[]",
          "name": "ids",
          "type": "uint16[]"
        },
        {
          "internalType": "address",
          "name": "to",
          "type": "address"
        }
      ],
      "name": "creatorMultiMint",
      "outputs": [],
      "stateMutability": "nonpayable",
      "type": "function"
    },
    {
      "inputs": [
        {
          "internalType": "uint256",
          "name": "id",
          "type": "uint256"
        }
      ],
      "name": "isOpenForSale",
      "outputs": [
        {
          "internalType": "bool",
          "name": "",
          "type": "bool"
        }
      ],
      "stateMutability": "view",
      "type": "function"
    },
    {
      "inputs": [
        {
          "internalType": "uint256",
          "name": "passId",
          "type": "uint256"
        }
      ],
      "name": "isPassUsed",
      "outputs": [
        {
          "internalType": "bool",
          "name": "",
          "type": "bool"
        }
      ],
      "stateMutability": "view",
      "type": "function"
    },
    {
      "inputs": [
        {
          "internalType": "uint256",
          "name": "id",
          "type": "uint256"
        }
      ],
      "name": "isReserved",
      "outputs": [
        {
          "internalType": "bool",
          "name": "",
          "type": "bool"
        }
      ],
      "stateMutability": "pure",
      "type": "function"
    },
    {
      "inputs": [
        {
          "internalType": "uint16",
          "name": "id",
          "type": "uint16"
        },
        {
          "internalType": "address",
          "name": "to",
          "type": "address"
        }
      ],
      "name": "mint",
      "outputs": [],
      "stateMutability": "payable",
      "type": "function"
    },
    {
      "inputs": [
        {
          "internalType": "uint16",
          "name": "id",
          "type": "uint16"
        },
        {
          "internalType": "address",
          "name": "to",
          "type": "address"
        },
        {
          "internalType": "uint256",
          "name": "passId",
          "type": "uint256"
        },
        {
          "internalType": "bytes32[]",
          "name": "proof",
          "type": "bytes32[]"
        }
      ],
      "name": "mintWithPassId",
      "outputs": [],
      "stateMutability": "payable",
      "type": "function"
    },
    {
      "inputs": [
        {
          "internalType": "uint16",
          "name": "id",
          "type": "uint16"
        },
        {
          "internalType": "address",
          "name": "to",
          "type": "address"
        },
        {
          "internalType": "uint256",
          "name": "passId",
          "type": "uint256"
        },
        {
          "internalType": "bytes",
          "name": "signature",
          "type": "bytes"
        },
        {
          "internalType": "bytes32[]",
          "name": "proof",
          "type": "bytes32[]"
        }
      ],
      "name": "mintWithSalePass",
      "outputs": [],
      "stateMutability": "payable",
      "type": "function"
    },
    {
      "inputs": [
        {
          "internalType": "address",
          "name": "purchaser",
          "type": "address"
        },
        {
          "internalType": "uint256",
          "name": "passId",
          "type": "uint256"
        },
        {
          "internalType": "uint256[]",
          "name": "ids",
          "type": "uint256[]"
        }
      ],
      "name": "ownersAndPriceInfo",
      "outputs": [
        {
          "internalType": "address[]",
          "name": "addresses",
          "type": "address[]"
        },
        {
          "internalType": "uint256",
          "name": "price",
          "type": "uint256"
        },
        {
          "internalType": "uint256",
          "name": "whitelistPrice",
          "type": "uint256"
        },
        {
          "internalType": "uint256",
          "name": "whitelistTimeLimit",
          "type": "uint256"
        },
        {
          "internalType": "bytes32",
          "name": "whitelistMerkleRoot",
          "type": "bytes32"
        },
        {
          "internalType": "uint256",
          "name": "mandalasDiscountPercentage",
          "type": "uint256"
        },
        {
          "internalType": "bool",
          "name": "hasMandalas",
          "type": "bool"
        },
        {
          "internalType": "bool",
          "name": "passUsed",
          "type": "bool"
        },
        {
          "internalType": "uint256",
          "name": "uptoInstr",
          "type": "uint256"
        }
      ],
      "stateMutability": "view",
      "type": "function"
    },
    {
      "inputs": [
        {
          "internalType": "address",
          "name": "purchaser",
          "type": "address"
        }
      ],
      "name": "priceInfo",
      "outputs": [
        {
          "internalType": "uint256",
          "name": "price",
          "type": "uint256"
        },
        {
          "internalType": "uint256",
          "name": "whitelistPrice",
          "type": "uint256"
        },
        {
          "internalType": "uint256",
          "name": "whitelistTimeLimit",
          "type": "uint256"
        },
        {
          "internalType": "bytes32",
          "name": "whitelistMerkleRoot",
          "type": "bytes32"
        },
        {
          "internalType": "uint256",
          "name": "mandalasDiscountPercentage",
          "type": "uint256"
        },
        {
          "internalType": "bool",
          "name": "hasMandalas",
          "type": "bool"
        }
      ],
      "stateMutability": "view",
      "type": "function"
    }
  ],
  "transactionHash": "0x3d7155649470d17ff9c1bfef66befb5bbb25c2df3cc5778592fb313211b0a63b",
  "args": [
    "0x52AF1C006aD4A55aa448004f72923d7435827B7E",
    "100000000000000000",
    "100000000000000000",
    1637840641,
    "0x8a479f7601a087dc15cb2f59a541f2881c98a061cc3f23e3568e7c9323ed41f0",
    "0xE53cd71271AcAdbeb0f64d9c8C62bBdDc8cA9e66",
    2446,
    "0x30A6DE1B27E83ea524284AB9A3fC74d77e9CDbeA",
    0,
    "0x434BADEA3943c5B3D86366Fa03c77201B6770A75",
    0,
    2
  ],
  "linkedData": {
    "numPrivatePasses": 817,
    "leaves": [
      {
        "passId": "0",
        "signer": "0x780C075b16594c94D504485b1BC32BB6723d1f67"
      },
      {
        "passId": "1",
        "signer": "0x299e15848B6BBba4651B03343CFBB68Ca8317951"
      },
      {
        "passId": "2",
        "signer": "0x3991D66A7A13a6fdc22e0d0bB8eeFB3E3dFB029E"
      },
      {
        "passId": "3",
        "signer": "0x6ac90B34108a71ca8972A88DE087d6CF527961C3"
      },
      {
        "passId": "4",
        "signer": "0xB6c300bf5bC44748f01c7f98FE813cc00Cf4A6FB"
      },
      {
        "passId": "5",
        "signer": "0x1A5835b7fa39BFe6F8B7d0e17f811D5898eDf0dA"
      },
      {
        "passId": "6",
        "signer": "0x069e7Cde1B8dA0e60900471e7A04DeCFdDE00d14"
      },
      {
        "passId": "7",
        "signer": "0x996A9b3B9BE1C04c13CcbAA821B5DcCb5B41Fac1"
      },
      {
        "passId": "8",
        "signer": "0x99e34EA80E730781e5aE3d31344E4d735860283C"
      },
      {
        "passId": "9",
        "signer": "0x22f198B2447942e4372b5B7a84857c3f37Dc0556"
      },
      {
        "passId": "10",
        "signer": "0xFFa7E32F26341Fd3f0a8F6a0371a65d53cbE86a0"
      },
      {
        "passId": "11",
        "signer": "0x344AE63441da34bC92FB300452C3b9C7F11221aF"
      },
      {
        "passId": "12",
        "signer": "0x0fDbA6c21D0F6030Ba6Ce618de1EEC02befc0445"
      },
      {
        "passId": "13",
        "signer": "0x4eC45ca01c7Bf61006541FC110AF274602fc4b52"
      },
      {
        "passId": "14",
        "signer": "0xc0903A7db2Aa37BA7288Ff79Ce714db21D29c851"
      },
      {
        "passId": "15",
        "signer": "0x27aeD617150D9011d98D45225FDD177AE95E09f6"
      },
      {
        "passId": "16",
        "signer": "0xeD93Eb94F70258CC662407122072a356A8F83042"
      },
      {
        "passId": "17",
        "signer": "0x8d4d3Ef1835AaAE0188FA2D4057a4141a125C213"
      },
      {
        "passId": "18",
        "signer": "0xa42D4069ACa3E2AAE74A4B46565f764f36Bc9a15"
      },
      {
        "passId": "19",
        "signer": "0x3d213e3A6Baaa7D6B98c0EABAAE3502D98069C6f"
      },
      {
        "passId": "20",
        "signer": "0x1A4EB97ACc87a70cE8780D34a577C448e7b04115"
      },
      {
        "passId": "21",
        "signer": "0xD0D0e48376F3C4B27aC11A9DC800df27a04629B2"
      },
      {
        "passId": "22",
        "signer": "0xE87f9d250b1608Fff7A4611fBB9C7bae5f681c93"
      },
      {
        "passId": "23",
        "signer": "0xf561dE6596308d77b4511125565779BC7E494B86"
      },
      {
        "passId": "24",
        "signer": "0xDFCB2bc8A9D5859186478AB0a58Ae610422BB7f2"
      },
      {
        "passId": "25",
        "signer": "0x1F63981851Bfb5707Fd35c1a0D2Ee82690a236EB"
      },
      {
        "passId": "26",
        "signer": "0x275055503Af7fd5e986F68f357a0203bA5c3e2dC"
      },
      {
        "passId": "27",
        "signer": "0x5285c11F9a256C66A3D70A676E1A521262E0f6E7"
      },
      {
        "passId": "28",
        "signer": "0xd26AF2432459f11b277eA6B06168e01976eC52E1"
      },
      {
        "passId": "29",
        "signer": "0x09A3f0F5128BfCDa3681A273D9F131DB6fADC4fc"
      },
      {
        "passId": "30",
        "signer": "0x5E2281f37fF9DcDBa3Ec29278cDC17304CC23D50"
      },
      {
        "passId": "31",
        "signer": "0xA701A834F55EA5BE26D3B9928cF3E1b89DdCcf91"
      },
      {
        "passId": "32",
        "signer": "0x6E6dA612918A5020DD30De0B7D1a972A0CDFE980"
      },
      {
        "passId": "33",
        "signer": "0xa0362bc19E19E1cA4eb6C29F8b16c8f0bC8A6992"
      },
      {
        "passId": "34",
        "signer": "0xCF392491Af4f07bA81C32167BE9f9d1FAB2F2314"
      },
      {
        "passId": "35",
        "signer": "0x6010740d863b83631874E537Ca70aCe30b82725C"
      },
      {
        "passId": "36",
        "signer": "0xe78d4751FC340bd258D548762a4d604B5B32D579"
      },
      {
        "passId": "37",
        "signer": "0x6e600f9B6D0Fd83e776c8435378bc088Ba6E59FC"
      },
      {
        "passId": "38",
        "signer": "0x0a0eE13493C910b577fd69D3864427DF282a5cF8"
      },
      {
        "passId": "39",
        "signer": "0x8cf529eD938e7da799E6460f2B8Ad00D39a7C1cf"
      },
      {
        "passId": "40",
        "signer": "0x0E61c25eAFA7c44bce27E05a7cB37a7Cd0053DDf"
      },
      {
        "passId": "41",
        "signer": "0x6F7F8698865BB222077e2BadB5bB80A672FAB386"
      },
      {
        "passId": "42",
        "signer": "0xbbce54564cD0f778eE05AA6d648B118773051717"
      },
      {
        "passId": "43",
        "signer": "0x76B0Bc44dD5d515A86811f42752e750E48a370F9"
      },
      {
        "passId": "44",
        "signer": "0x6F17bc79eE264ae5Cc7112CCe9F500ab6ED10762"
      },
      {
        "passId": "45",
        "signer": "0x5e89E15B788CC540C50D331814dde089dE032985"
      },
      {
        "passId": "46",
        "signer": "0xc8591C4ceeB7623ca53f9165521c63dB293a1B1b"
      },
      {
        "passId": "47",
        "signer": "0x422Ec14C9473917c4abE7b5d45538FD6eCAD3f2E"
      },
      {
        "passId": "48",
        "signer": "0x4b3C3845be6Ab5A0b1d2c1B6aDF57BE69dE51E41"
      },
      {
        "passId": "49",
        "signer": "0x4Ce8aaCEf40D62BAc4362D558FFA75CC74254c78"
      },
      {
        "passId": "50",
        "signer": "0xaEe5d5E316F098725c757056C7F915605DCC52Af"
      },
      {
        "passId": "51",
        "signer": "0x0612ceFA73633D39c4eaE7C6D868eC217805019c"
      },
      {
        "passId": "52",
        "signer": "0x4337bCB9eb005aaDBCDE6a8336a2f91f229730c0"
      },
      {
        "passId": "53",
        "signer": "0x3Cc12B0765B1797c76C054526EF919e0Fd3048c8"
      },
      {
        "passId": "54",
        "signer": "0x2B8e2806813390641D6Ae66387bEF2Bb69bF185B"
      },
      {
        "passId": "55",
        "signer": "0x0E53Fb0EA17Eb755E7884c8A8380A2649f12bD48"
      },
      {
        "passId": "56",
        "signer": "0xAe78a9F28887305caac3beeF1dd656b2e4D7e5C1"
      },
      {
        "passId": "57",
        "signer": "0x32b630c8B0B891e11715C395BF5aaE0D92B19F9d"
      },
      {
        "passId": "58",
        "signer": "0xb174641FD465B9f2aa6516C3B5A793E0eE2016Fb"
      },
      {
        "passId": "59",
        "signer": "0xB1bb932aA41F527593BBEfc9d0AFebF26B647543"
      },
      {
        "passId": "60",
        "signer": "0xE6a29e36dC1f404Df3aD86B29d0e48c1c1ebc735"
      },
      {
        "passId": "61",
        "signer": "0x96DA5A55b52371cC80E43e9b568BFB1430d8554A"
      },
      {
        "passId": "62",
        "signer": "0xAdA21b2a0012E7cb1Caf935B4B4c2A4Ea234eC25"
      },
      {
        "passId": "63",
        "signer": "0xAd3071c635c63ad96Ef13D65A7b145eE3646597B"
      },
      {
        "passId": "64",
        "signer": "0x38824a9a038a7Aae3109c45D92F3A300de199A20"
      },
      {
        "passId": "65",
        "signer": "0xEb5A0727F56b8f69886D2a2a80DAA551ABdDAEa0"
      },
      {
        "passId": "66",
        "signer": "0x72E56777ca75854e5839def29D2EDED9fca91A2a"
      },
      {
        "passId": "67",
        "signer": "0x6a047f81C1E97bDC0F717D0819565bd6e093259d"
      },
      {
        "passId": "68",
        "signer": "0x43A86A3ddCb1d61BB3282200eC3D49b216CE244A"
      },
      {
        "passId": "69",
        "signer": "0xA9494Ce357c0E0b64A6c09038D888F9004ECB0fd"
      },
      {
        "passId": "70",
        "signer": "0x2c322e6451f1b6bfC0059894586c11955467b549"
      },
      {
        "passId": "71",
        "signer": "0xa717F55Eb8aCDd76880afa5F70824996CfFc990f"
      },
      {
        "passId": "72",
        "signer": "0x2f308271B10aC9507D64FCbe004c828Fe8fb803e"
      },
      {
        "passId": "73",
        "signer": "0x6F74d96E8D1daC425c2df1155860DC59e0Af0206"
      },
      {
        "passId": "74",
        "signer": "0x2b69Bb9339966d9c23e90Ab168DC0cD2F5951aB4"
      },
      {
        "passId": "75",
        "signer": "0x667188c50F60BdA1fCD33D5A2144563922757F8c"
      },
      {
        "passId": "76",
        "signer": "0xBD87d355eF83f15B22fc221a08a2390DCfccB66f"
      },
      {
        "passId": "77",
        "signer": "0x4a57B655020b288Eeb757f62B7074DF6C2f05118"
      },
      {
        "passId": "78",
        "signer": "0x4AaC9905465dbc866Ca1dCD0485c1C95F195F71a"
      },
      {
        "passId": "79",
        "signer": "0xA0C711F03105B4bD8E0D55d89a73A390EfDCD949"
      },
      {
        "passId": "80",
        "signer": "0x7B257adE5BDA88fac0C5fCa3B8880c53a8Ca3600"
      },
      {
        "passId": "81",
        "signer": "0x7BF5bE1335a04F8aA51FbBBd9a8EfAaa3A624a6c"
      },
      {
        "passId": "82",
        "signer": "0x8f2f55De27966cE18388b319e7A24C61aae574ea"
      },
      {
        "passId": "83",
        "signer": "0xda1907f94c15abd3D7B6bA620A33E6314a2Fe23d"
      },
      {
        "passId": "84",
        "signer": "0x933d3cc2aFBFf6b0F8007507D73f5cc4f800483C"
      },
      {
        "passId": "85",
        "signer": "0xE6544884D9FfFd661C25bFC9447356d5205B3cD2"
      },
      {
        "passId": "86",
        "signer": "0xb0f04AC299065245AF2bcA19dA6D133269c2C10F"
      },
      {
        "passId": "87",
        "signer": "0x453465b2ed920F32C8fDdeccd7F4b7a02003E8df"
      },
      {
        "passId": "88",
        "signer": "0x0BCbEF9e411EEa2b68E2ceEb6671F389fA4c00e7"
      },
      {
        "passId": "89",
        "signer": "0x84DBafd77CF0c3B690eB806262EF08a4517442C2"
      },
      {
        "passId": "90",
        "signer": "0x926C49775B556e0Dbc29871e4d8A68151811f339"
      },
      {
        "passId": "91",
        "signer": "0xAf9Dbd49186c73f71a8b76d9dE246CA61bB0d226"
      },
      {
        "passId": "92",
        "signer": "0x79e2B3DFD2F3425aE92a50A1bEadB7C6176f628B"
      },
      {
        "passId": "93",
        "signer": "0x4201267B2A5D188FBfe9BeD02d4D13eFF5a1b50B"
      },
      {
        "passId": "94",
        "signer": "0xb5E54556d7329Af38Fc5f5FED45534e645926452"
      },
      {
        "passId": "95",
        "signer": "0x13E56d2AcbB167c16FF7819067278949Fc66881E"
      },
      {
        "passId": "96",
        "signer": "0x3D45F72a59411e9D213Ad5FD7B1A1caFC47c197C"
      },
      {
        "passId": "97",
        "signer": "0xAEF518700e32ae12c79679b2aDFC8906B6808cC3"
      },
      {
        "passId": "98",
        "signer": "0xEDafEcb7F68DE61D0FF7e681448C6a17d7b2caFA"
      },
      {
        "passId": "99",
        "signer": "0xA1A8F63eEb51C8dc7B7F79C61Ba9ac132883Ae48"
      },
      {
        "passId": "100",
        "signer": "0x7D4C883E7780777480E2f0e4Ad1A6FC32dD77DB9"
      },
      {
        "passId": "101",
        "signer": "0xCF45F1f22c4Aae4d3F3d4C6E33d71c627d4d26B6"
      },
      {
        "passId": "102",
        "signer": "0x0Fdb244f002aA616EA149a00Ed8BbB4a52A94Cc3"
      },
      {
        "passId": "103",
        "signer": "0x7deC52d92348A1B6987cd3fD3Bbd2B2F961bdD9F"
      },
      {
        "passId": "104",
        "signer": "0x295e0f3Ed796A8F9ddd92BA13561c641cb0a4540"
      },
      {
        "passId": "105",
        "signer": "0xfc0cC2291fb7e66C02af4F50d4e779Ff3F37E40D"
      },
      {
        "passId": "106",
        "signer": "0x625982f709c11d2818b5dB320A0552E53fa8045c"
      },
      {
        "passId": "107",
        "signer": "0xFBB7CEbeB180Fb6f4c36669093EAb44a3B4f90BD"
      },
      {
        "passId": "108",
        "signer": "0x631FB77a2c9f8a07d14d875d3714992968bD935C"
      },
      {
        "passId": "109",
        "signer": "0xe9B6814080caE923b1e196D5DD490a5A90Eb72A0"
      },
      {
        "passId": "110",
        "signer": "0xca78643fcf38Ee25C5FB84A53920EBbdB71CA06e"
      },
      {
        "passId": "111",
        "signer": "0x43fF731307B139b238ceCf8399bdB4771778Cb4d"
      },
      {
        "passId": "112",
        "signer": "0x60d2136B1e42569bc8E4F452da4D3c475e8D72B7"
      },
      {
        "passId": "113",
        "signer": "0x8929195e7A364f49dDfe3a756F662C9680c4D815"
      },
      {
        "passId": "114",
        "signer": "0x8111C23Dae71FdecE5a02df91cd2ff294bC809d8"
      },
      {
        "passId": "115",
        "signer": "0x94190d2d47A807EB1E92C4e7b8c6158088f51F60"
      },
      {
        "passId": "116",
        "signer": "0xe34053a2C7fe5567aEA577DA233a94F0bDd77A48"
      },
      {
        "passId": "117",
        "signer": "0x352F0FD6079DF551Afd2839745965Dc466a678CB"
      },
      {
        "passId": "118",
        "signer": "0x485Ec98D5bFA51D51ee625510A032780c6Eb03Ea"
      },
      {
        "passId": "119",
        "signer": "0xA80Ccf1112041Dcdd0f9628cc21Bf1E5811F512A"
      },
      {
        "passId": "120",
        "signer": "0x70a065b3d7678d0FdDa6A5DBF01829038d5c2b9A"
      },
      {
        "passId": "121",
        "signer": "0xe6AFdDCAA18fd134B7eF600ff72367AcDF1B283f"
      },
      {
        "passId": "122",
        "signer": "0x37550993C9295bf26222fb43Af05ac91E6C6a5e7"
      },
      {
        "passId": "123",
        "signer": "0xe13BDd448b0EF95B14A84D0B99B5A8354b846C35"
      },
      {
        "passId": "124",
        "signer": "0xE320A46C4e62309F03bcFd64d47E90871D6B95A9"
      },
      {
        "passId": "125",
        "signer": "0xA76a1021289F8b80100C1236658571795801Ca2F"
      },
      {
        "passId": "126",
        "signer": "0xE5f363aaAE6bf511Cf4Bb3BA7E9a879689acEa40"
      },
      {
        "passId": "127",
        "signer": "0xae32dC448Bd14cE3218ce99502B2954938B448C9"
      },
      {
        "passId": "128",
        "signer": "0x8A6B216ECCeca32AD93edcB20F440934158E9De6"
      },
      {
        "passId": "129",
        "signer": "0xaA7e6587AA41189Baba566c58493aa83d40B4cE1"
      },
      {
        "passId": "130",
        "signer": "0x3D8BB1ECF4676a3b5d95656a456c2022c35828F3"
      },
      {
        "passId": "131",
        "signer": "0xc6da12D8B3493B33B1548Ef36407Dfc1d882B403"
      },
      {
        "passId": "132",
        "signer": "0x6DC037bEBaf7408ed6DC7C2b044B3Db71155B572"
      },
      {
        "passId": "133",
        "signer": "0xb6e45d42dA3365412Dd83347B7dc8994dce27f1E"
      },
      {
        "passId": "134",
        "signer": "0x5a113EcC807C935Afc5253ed4d9A84e1920f5646"
      },
      {
        "passId": "135",
        "signer": "0x72c37539f020626E1afE8f27A95F1a058222023F"
      },
      {
        "passId": "136",
        "signer": "0x50168D3827883331754F979BD1231A0758940cDD"
      },
      {
        "passId": "137",
        "signer": "0x7072E08E2cBa75A44c0796a14A1d95E67C513167"
      },
      {
        "passId": "138",
        "signer": "0x22f9B50341A82c46c0EF9b3b584af48e0f50cdb2"
      },
      {
        "passId": "139",
        "signer": "0xd2D75b5a3f1664eC0485F94b55F85627d68D4C4A"
      },
      {
        "passId": "140",
        "signer": "0xd89B2809db75Ae85cDaD27b0792553537e6f53b9"
      },
      {
        "passId": "141",
        "signer": "0x87Cacad281b8A05520a7776B84a2dBEd5849E9AF"
      },
      {
        "passId": "142",
        "signer": "0x5B39F0C71Cb1e8ae3EDbb46264dA98e2eDeBb922"
      },
      {
        "passId": "143",
        "signer": "0x9Fcd293628038fb81A2e12362392150ED0A3262e"
      },
      {
        "passId": "144",
        "signer": "0x8004bCff466C462A98424C5B769C18CAD60cD663"
      },
      {
        "passId": "145",
        "signer": "0x20689B76866D4a1D9E46e53C0B632D5c03AB211B"
      },
      {
        "passId": "146",
        "signer": "0x32a8b6C04783cc5Ac135c52Fa360b36A5023ca42"
      },
      {
        "passId": "147",
        "signer": "0xff2eDdD3524822B8b4E24115C476D4830c057245"
      },
      {
        "passId": "148",
        "signer": "0x1F0C6D5c2cF4B0fee8e888B1CaBC7901035c36FE"
      },
      {
        "passId": "149",
        "signer": "0xe552f39564C27484453D8670F66e066aD02d23C5"
      },
      {
        "passId": "150",
        "signer": "0xc57b05e7BeDed3D32734CE6afF45802439325B6D"
      },
      {
        "passId": "151",
        "signer": "0xFF33C8b379Ef875E8a61B754f8F989ddDFDD7B26"
      },
      {
        "passId": "152",
        "signer": "0x84c2D4C93a6476d276Bf0CE92501147CA07fd5A2"
      },
      {
        "passId": "153",
        "signer": "0xd7219432EaA7Aa7Fc971343E1c7B8cB2ca725789"
      },
      {
        "passId": "154",
        "signer": "0xB379fF60cefBb672FA7F0BB117E779E3C5Ac3f07"
      },
      {
        "passId": "155",
        "signer": "0xEF456505C089ae093212893ed14F456b47Eb5e57"
      },
      {
        "passId": "156",
        "signer": "0xDc618261993eAA7F003147E4aAF93D27AFFae4B1"
      },
      {
        "passId": "157",
        "signer": "0xfdDD1577D4AFCbBb8dF61449f2A2b467538E38Fd"
      },
      {
        "passId": "158",
        "signer": "0x0A7f8F88cBD570C8F72F6065d58abD4Eb03D618B"
      },
      {
        "passId": "159",
        "signer": "0x2f71bDe7F5Da7d2184f0Ba06efF3a7aAEbFa367d"
      },
      {
        "passId": "160",
        "signer": "0x0BfA6D4473a1E38509E201ef831ABFB169347Ca4"
      },
      {
        "passId": "161",
        "signer": "0x375c7FD5e3dc3bD5172CE7c2AdCf15D61A80Aaf4"
      },
      {
        "passId": "162",
        "signer": "0x3eb4944bd1071d8B6aFC61282c46219D915610dA"
      },
      {
        "passId": "163",
        "signer": "0x3a740dDb13b253F0EeCf35467c70E819c86F5689"
      },
      {
        "passId": "164",
        "signer": "0x2d5c11259905B970c8Fa60a31d02189fD7A3aFC4"
      },
      {
        "passId": "165",
        "signer": "0xBE5F09a48c2107bEA49996DE1CD8ccc744B3ddAF"
      },
      {
        "passId": "166",
        "signer": "0x141a49F1c18755231f9096A8eAA1F94018C72493"
      },
      {
        "passId": "167",
        "signer": "0x4B2D4EA304D2aD41A7656090e349a510B186d74A"
      },
      {
        "passId": "168",
        "signer": "0x824aAd7A5C17272e6F7581FEFB0fD7cF4E463EEa"
      },
      {
        "passId": "169",
        "signer": "0xe155E52bb8f8F0d55bA89b725e161BcF684D688c"
      },
      {
        "passId": "170",
        "signer": "0x6c03ed134B96F52c91765a9bFc8E56305Bcc1Bd5"
      },
      {
        "passId": "171",
        "signer": "0x5De9f22A8009B3f208a95D8bF9D1F3991c33579D"
      },
      {
        "passId": "172",
        "signer": "0x748a7E41D7D869bf47428F6559DBA10a6ea91149"
      },
      {
        "passId": "173",
        "signer": "0xbA784426b4D53D963CC9f6bF7d47bDa287cb2914"
      },
      {
        "passId": "174",
        "signer": "0x567F5a811eB031A8Dd5Ac53CaD8D49C9C76ff314"
      },
      {
        "passId": "175",
        "signer": "0xaA1DE22F45227701680a645a9c29cF2711CF6d0a"
      },
      {
        "passId": "176",
        "signer": "0x5F85dFe5a825b1Bc4003785d92bd19B62693b7d6"
      },
      {
        "passId": "177",
        "signer": "0x1716914478CD4e22DdAF9599018A1b53B9d3eb03"
      },
      {
        "passId": "178",
        "signer": "0x4758232b21dD1A4306F48b84C00f7bE8D61e0DDc"
      },
      {
        "passId": "179",
        "signer": "0x5Bc3C4d67fdA8CDC475735fAe1eb31f8117122dD"
      },
      {
        "passId": "180",
        "signer": "0x78a7F6a63b2Cb6dfA5ECbe10e36A6945ba8b14b3"
      },
      {
        "passId": "181",
        "signer": "0x2D90466c5Cf24D034C71afFF9aD7FCacC79FDCbe"
      },
      {
        "passId": "182",
        "signer": "0xBF7074EBdFAe15E157204aA1dDFd428cF9aCcbf0"
      },
      {
        "passId": "183",
        "signer": "0x32BCD25E43de3e46903e8042C1Fe091b10353813"
      },
      {
        "passId": "184",
        "signer": "0xB13Df9Ca2De181D247DF017D0E95e59eAfC916B0"
      },
      {
        "passId": "185",
        "signer": "0x150c04dfeCCC3842ba14DbABaEAF10b2EBc6Dc28"
      },
      {
        "passId": "186",
        "signer": "0x532C176613d3b1b05d7643AeeC1E7Fc9e477d846"
      },
      {
        "passId": "187",
        "signer": "0xbd628df01541841c05A369b775Bd50b015D270B7"
      },
      {
        "passId": "188",
        "signer": "0x6eC3b355Be037DAe5a0eF150F09Cf8cA85C51c7a"
      },
      {
        "passId": "189",
        "signer": "0x39d997D65571747f09948665488Eea76AE63A261"
      },
      {
        "passId": "190",
        "signer": "0x62a2ba9e2DAE0034B8eA4BD8Be838059104Ef728"
      },
      {
        "passId": "191",
        "signer": "0x560C14fAc7a122fbbc9e31cEE52E23DB5e889017"
      },
      {
        "passId": "192",
        "signer": "0x24A00DA62B5B9AF6921aE876028B8347e5a531D2"
      },
      {
        "passId": "193",
        "signer": "0x9F5c931E109eB4F8cCB784910fE429A6D6e5a420"
      },
      {
        "passId": "194",
        "signer": "0x411DfDCB103Ca23f9544c7C8715332335Bf40E07"
      },
      {
        "passId": "195",
        "signer": "0x417b4CaF894EDfae37219900a79F4b8a6C2A6ef5"
      },
      {
        "passId": "196",
        "signer": "0x0BB2DbbC988547269f46561eE5555efB7AacF761"
      },
      {
        "passId": "197",
        "signer": "0xdf8575b033c4665008Ff86A96B91FD6F0311b2F4"
      },
      {
        "passId": "198",
        "signer": "0x1BedFc072880E53B69800bd122ec737D799706F4"
      },
      {
        "passId": "199",
        "signer": "0x4F0EAcb3BC39BD526EBF3d40693cb35296aa8432"
      },
      {
        "passId": "200",
        "signer": "0x44DAB15a4FF42180CaAE4288c501222A257AeC04"
      },
      {
        "passId": "201",
        "signer": "0x86dCCf41E4e186718C36e61fbc0aAb472060cC70"
      },
      {
        "passId": "202",
        "signer": "0x486871d306324457281204c646Cd979793017511"
      },
      {
        "passId": "203",
        "signer": "0xBFA7cb777a9aafe0855563b6c56C7B9A8a5EB228"
      },
      {
        "passId": "204",
        "signer": "0xFefE4815AB5ffB11636A581f28c0B3c945209a6A"
      },
      {
        "passId": "205",
        "signer": "0xd96bC038D3ca9078113221961ed8Dc2f0110F148"
      },
      {
        "passId": "206",
        "signer": "0x4145943f52420F86439380D879ab172063b80921"
      },
      {
        "passId": "207",
        "signer": "0xB03Bc2f6ccEd8503A1F0Ea41aa706c632A85bC29"
      },
      {
        "passId": "208",
        "signer": "0x5246DDF905FF3aD51627a7177bEeC31546626139"
      },
      {
        "passId": "209",
        "signer": "0x230AC9763e48708B5E5b8988fcE7aB4a2336F0cF"
      },
      {
        "passId": "210",
        "signer": "0x40103CC355f9B5f42f00c865F90C7Bc202993513"
      },
      {
        "passId": "211",
        "signer": "0x370079725e503c5c3657789f9eaE5Ab7BC4447f6"
      },
      {
        "passId": "212",
        "signer": "0x5Fe96488d0d1EBd0763Ad7616BAd614a41869A9B"
      },
      {
        "passId": "213",
        "signer": "0x2E59F9D088D2b5Bcb1fC7983a86A006C45422be2"
      },
      {
        "passId": "214",
        "signer": "0x171DbA8118debcFFc83BEbf0610bB1454A938674"
      },
      {
        "passId": "215",
        "signer": "0x3898125c75fE52DfB6b916EbE54fFA6AE9792D71"
      },
      {
        "passId": "216",
        "signer": "0x41710274B91C5A52420b9a7390B1181E221e0A23"
      },
      {
        "passId": "217",
        "signer": "0x3Bf21D1305557111A1c0962DAd6BF36543BEE873"
      },
      {
        "passId": "218",
        "signer": "0x6058b656FA567Ea09932B80012de6F4EAfAd4464"
      },
      {
        "passId": "219",
        "signer": "0x11ff809eBf33DBfAf7203b6026c5aAb5744B34BD"
      },
      {
        "passId": "220",
        "signer": "0x23448cD900527F7Ce4F3f700C4cEa6e96A192a1A"
      },
      {
        "passId": "221",
        "signer": "0xaBC0B97495499ee3EE3F474e76097C0ED5379DEa"
      },
      {
        "passId": "222",
        "signer": "0x1593B0585B98c7B0B29ec4d46C49F2B3bda6Dd9A"
      },
      {
        "passId": "223",
        "signer": "0xA90ef53A1cD329aDa144A041a8E8DA9Cb46CB47F"
      },
      {
        "passId": "224",
        "signer": "0x78DF42E2dCDfc3C24100f5d3851fac57A4671291"
      },
      {
        "passId": "225",
        "signer": "0xc2A487C01a8b3C14B747235de4205Fa887B6Ddec"
      },
      {
        "passId": "226",
        "signer": "0x7E17Ca297eAA839ef6f826AFf7aD46ff1D410232"
      },
      {
        "passId": "227",
        "signer": "0xd784Bc376608df19C99635D82b3bB5De4CEf18f9"
      },
      {
        "passId": "228",
        "signer": "0x68c52e3D15cc23b96fD46D040F187bF494A07368"
      },
      {
        "passId": "229",
        "signer": "0x53997D84456bb0dc42208cCf2dA06E47762efF10"
      },
      {
        "passId": "230",
        "signer": "0x9512aB04DAC5a49BF8e548a1323e80c1c34714e6"
      },
      {
        "passId": "231",
        "signer": "0xf84b000fF05100e9Ca4389FC2Db8D635d367c882"
      },
      {
        "passId": "232",
        "signer": "0x53ED20ca3f380738CCbdFA5Aae8fA94F0d065b06"
      },
      {
        "passId": "233",
        "signer": "0x6d93B611457F73b0b5D28F8712d99a657d2967Fe"
      },
      {
        "passId": "234",
        "signer": "0x895Ac996bcD9868682665473FE8c576FC417E4f4"
      },
      {
        "passId": "235",
        "signer": "0x014ED11a3990825768cE3Aaf84E58BdeDbEe0c68"
      },
      {
        "passId": "236",
        "signer": "0x486BbE386Fb03c5fE5940FDabd884768D1521132"
      },
      {
        "passId": "237",
        "signer": "0x50BD3C5a088B15849caB83ED8e3231F11D7527A9"
      },
      {
        "passId": "238",
        "signer": "0x087347ffbA5e8AcC3CD98Bf311EbCA7DE3795896"
      },
      {
        "passId": "239",
        "signer": "0xC2633648313324e1894586319c03F03Ed3FFB7cC"
      },
      {
        "passId": "240",
        "signer": "0x899B03Fc6d5baa07c810d8621D7a85683259dE93"
      },
      {
        "passId": "241",
        "signer": "0xaC85fB51fFd0A12c53B9C8185bA70f82b1998C00"
      },
      {
        "passId": "242",
        "signer": "0x75ebfD0903a6E3dB4C624E91E80FD517926E70B8"
      },
      {
        "passId": "243",
        "signer": "0x37034046697d2e311fE6a2a91362CB38Cc794D88"
      },
      {
        "passId": "244",
        "signer": "0x23d060A5ef0b22aBa8F863c7870601938AA7Ca7b"
      },
      {
        "passId": "245",
        "signer": "0xA10E6da0ff2aE0615d6382410884367D57503eBa"
      },
      {
        "passId": "246",
        "signer": "0x408385d28C1Ed4cD8F15e408c52405fDD68083af"
      },
      {
        "passId": "247",
        "signer": "0x9686Ed9053DB5c93964f66a97212936aB240448D"
      },
      {
        "passId": "248",
        "signer": "0xdF6f07Bf44BBD76063347051A892A947F1A3C9Bb"
      },
      {
        "passId": "249",
        "signer": "0xea91F0eBe15640156f756acf875EF5a4c4F812c2"
      },
      {
        "passId": "250",
        "signer": "0xCaf9FDE251dcD294a6E2529D2A59fa80179175aa"
      },
      {
        "passId": "251",
        "signer": "0x3a3F251d1AB76B7C6C6b9eB83E64e5cAF53418AD"
      },
      {
        "passId": "252",
        "signer": "0xc9892fe9880195565c0d78181546C7E9A230e37a"
      },
      {
        "passId": "253",
        "signer": "0x1c883628208A7f8b6892F7Bb769D9C2930b99E14"
      },
      {
        "passId": "254",
        "signer": "0x22D44b80f42bc49E9561D3400Dd9f6a98Ab63dcf"
      },
      {
        "passId": "255",
        "signer": "0xffC665d8e4F1E20A7cADd8F65A66B0fDf51Eb108"
      },
      {
        "passId": "256",
        "signer": "0xc7C646B372F5B982d8186128b26a110809f22E19"
      },
      {
        "passId": "257",
        "signer": "0xE24e19aeBCFd6E7b1F11B32456723D4FD0E8279F"
      },
      {
        "passId": "258",
        "signer": "0x8aD77357095aFBC2DC0cfa6D217704E230a9A247"
      },
      {
        "passId": "259",
        "signer": "0xDE4310798c353d3A2314Fdf2f7c3Cf4bA5074Ef4"
      },
      {
        "passId": "260",
        "signer": "0xFffB4b76058489d6f601687B795772BB76BAbBA4"
      },
      {
        "passId": "261",
        "signer": "0x791AFd77854EB5DDD513D843408b52DaB9888253"
      },
      {
        "passId": "262",
        "signer": "0x08ceA50f759CaF1A94B15235B17C4ee2fED37b10"
      },
      {
        "passId": "263",
        "signer": "0x24BfdFbcd1d8a07C48177C5dca0301e77f8F51C1"
      },
      {
        "passId": "264",
        "signer": "0x66520d10C19a42a3d2465CF410DE71fBEE043570"
      },
      {
        "passId": "265",
        "signer": "0xf7f3EFc009A86B6aaDe0971C814FaE8530880787"
      },
      {
        "passId": "266",
        "signer": "0xe497cbe1fd469E15EC591F26eb65b4b09AE7E3f4"
      },
      {
        "passId": "267",
        "signer": "0xBC27FF868EE34840B7c9c5c13ED637973B459A5B"
      },
      {
        "passId": "268",
        "signer": "0x42bE6b7A3eE8FeFEE69B86078eD6E6DEa3c57AaC"
      },
      {
        "passId": "269",
        "signer": "0x6793D3C980FE7fCdE2Ab1F887f16B31282A82991"
      },
      {
        "passId": "270",
        "signer": "0xB7757DA28D8219572396B0A7Dc7f380fb7be91dA"
      },
      {
        "passId": "271",
        "signer": "0x9047f8E4B598Fb82B721dEa3cdA0E1025A363795"
      },
      {
        "passId": "272",
        "signer": "0xa747b19034c5463F16b48516cA9dE8F8c911f695"
      },
      {
        "passId": "273",
        "signer": "0x5bcF97c659408D9dF0025d2374aEF86520B132Af"
      },
      {
        "passId": "274",
        "signer": "0x99038739E879D1F6C6Ad2dC757591f5A414860a9"
      },
      {
        "passId": "275",
        "signer": "0xaAf6FD263b429A1Aa9115c4D87865631434C5021"
      },
      {
        "passId": "276",
        "signer": "0x330Dc9C216560DE7eA130b4109f4ea82DAb6878b"
      },
      {
        "passId": "277",
        "signer": "0x3C8301A37eFAAd12006f373Cb0defC75968408e7"
      },
      {
        "passId": "278",
        "signer": "0xF44F4867b8AfBeE409e7366dC5E11B5A288cA146"
      },
      {
        "passId": "279",
        "signer": "0x6caFFaCE7DD2664526E7955aDd9D00A86A97a51B"
      },
      {
        "passId": "280",
        "signer": "0x2d2c9CBA2BF19103F5c3944760f5A6CFb9F24210"
      },
      {
        "passId": "281",
        "signer": "0xD18aE9C8c9F717068106CE2e11A2F3761D33fdAD"
      },
      {
        "passId": "282",
        "signer": "0x1FABC1F415F7823e40a867eedE005fd7c6418ED9"
      },
      {
        "passId": "283",
        "signer": "0xCe5F62eCcd5Bf63C8C72B3c874b8A17459F396aa"
      },
      {
        "passId": "284",
        "signer": "0x4b5e54ec149224230A5d1eE84846E9B52aCF68f1"
      },
      {
        "passId": "285",
        "signer": "0x11D9b8333994d8d84fb5CafeE3FE4E6dC660A8CB"
      },
      {
        "passId": "286",
        "signer": "0xBEb7b6070c1c9F5624DC3e31C756b4B3A8C23b9B"
      },
      {
        "passId": "287",
        "signer": "0x143567125F2CD392eEb2AB4A8C16349662e5fE00"
      },
      {
        "passId": "288",
        "signer": "0x24a8D35927CC10aDC6d5D99cf6A1Cb0507D67210"
      },
      {
        "passId": "289",
        "signer": "0x9A3E7B8D0Ea8D645A36995De2FdC5CD007aa66F1"
      },
      {
        "passId": "290",
        "signer": "0x2EaCC72b19f7Fc3531A612d0e58736564d1d5C1e"
      },
      {
        "passId": "291",
        "signer": "0xAD7abD104534e7868d073Ff78C687B6ec0826297"
      },
      {
        "passId": "292",
        "signer": "0xF374D42Da094dc4deEd10847B09904aCeCec0CC8"
      },
      {
        "passId": "293",
        "signer": "0xa1d4D53Fd07D37003A83257b31aE0954510D3193"
      },
      {
        "passId": "294",
        "signer": "0x1bE5e969e2ab2938fd616D4B2A2F801001d0B985"
      },
      {
        "passId": "295",
        "signer": "0xAAEd289413BC24b385cf29A8a0996B50Cc3e5812"
      },
      {
        "passId": "296",
        "signer": "0x9149c453Ae873B478151e049FBEa858E65D0dCeD"
      },
      {
        "passId": "297",
        "signer": "0x319bBf4E8b6D002Ae516d89643aB478f23fD5F8e"
      },
      {
        "passId": "298",
        "signer": "0xB8C774BF836Bc7858FEEdC0F69FA19dFbc24fD4E"
      },
      {
        "passId": "299",
        "signer": "0xdD1ddB3F74518A174e80DbB884f68fE6E17b21ca"
      },
      {
        "passId": "300",
        "signer": "0x9284a6Ee53f88FD0319d614b0649596c35C66207"
      },
      {
        "passId": "301",
        "signer": "0x9784B80d8173b1a4969ffBe35cEE83C10B6016F1"
      },
      {
        "passId": "302",
        "signer": "0x72f2d48a488dbd96a340A73e9c27361c6334DBDd"
      },
      {
        "passId": "303",
        "signer": "0x5CC98E38FBBD41BEAC64cdE1b45aa269aa5A541D"
      },
      {
        "passId": "304",
        "signer": "0x8D230667Afb9e37136C66Bb616d01B112302cCD0"
      },
      {
        "passId": "305",
        "signer": "0x71E5bf0D43df263d17243C614cDaE3E9931B740f"
      },
      {
        "passId": "306",
        "signer": "0x8d11AC39bd9BFdc5d49b84DaA43044d1EA24767D"
      },
      {
        "passId": "307",
        "signer": "0xd3E23B391f864700D58666E8E83051eF0F590EEd"
      },
      {
        "passId": "308",
        "signer": "0xF28C74f11721dCd32ac7A23EdcD19446d42B8437"
      },
      {
        "passId": "309",
        "signer": "0x21bB4EEca228E8dDb42ef75caaF6EE898E8C92fc"
      },
      {
        "passId": "310",
        "signer": "0x4ceDe8eDc0704D67df533B1Ddc1D6057a7F4d37f"
      },
      {
        "passId": "311",
        "signer": "0xAd40cBbB4e5C9aC8Ff5beC101A4732FDdb760621"
      },
      {
        "passId": "312",
        "signer": "0xAb46ACDB86d44DEb380B05125A32Ac272513e295"
      },
      {
        "passId": "313",
        "signer": "0x961029c7673D8bF6caaa4aF62C67CC849EB424bF"
      },
      {
        "passId": "314",
        "signer": "0xD5Db77f93f6482e14c94C2bC448c1F7178F51eFC"
      },
      {
        "passId": "315",
        "signer": "0x343936b3e6e2a81031C63ef0591A61dDdc710946"
      },
      {
        "passId": "316",
        "signer": "0x4A73e0f4497edD07d24811dCc0Af95E8052e64bD"
      },
      {
        "passId": "317",
        "signer": "0x79cFFb5E4428b8414B063C351f2F6965A8Ee1c65"
      },
      {
        "passId": "318",
        "signer": "0x674E83B084fA9fDab411DEeBA549aC2f8a5dC8A7"
      },
      {
        "passId": "319",
        "signer": "0x1AEA056E7CAbF01E9DC90f71Acb2f5fe8BB3Fe62"
      },
      {
        "passId": "320",
        "signer": "0x3aB34D87D657a6d65baB107460fF603909Eb8F86"
      },
      {
        "passId": "321",
        "signer": "0xC4CFF61Ba7f36575599621142adfd624abb97DFD"
      },
      {
        "passId": "322",
        "signer": "0xb584E991d5a19a3d3b822fb53330f8442fecD711"
      },
      {
        "passId": "323",
        "signer": "0x7a4200fC4256f25Fb24Cf0e8628d248b9ef5C732"
      },
      {
        "passId": "324",
        "signer": "0xa1B0176c2a8bCc44B7830E831Faf5Dd1B91aE1b7"
      },
      {
        "passId": "325",
        "signer": "0x9A73Af3B041CE7530fB22c6a631f1E2934476755"
      },
      {
        "passId": "326",
        "signer": "0x3de8cBCDBC3d23712AEc283ed61ED6DE4974594E"
      },
      {
        "passId": "327",
        "signer": "0xA15D96f50E90208d374631705fA1e70199023B83"
      },
      {
        "passId": "328",
        "signer": "0x3b13026183C88fB63E25358C3FBc554Ff89D7453"
      },
      {
        "passId": "329",
        "signer": "0x1e18204aC5A3a6156abf198fbd66b76bB94430a0"
      },
      {
        "passId": "330",
        "signer": "0xAAD35aA8E96b5E8b66216d2748e485dc980B5FE5"
      },
      {
        "passId": "331",
        "signer": "0x40FD8aD89eAB382E1AE8CB3128A2Da0c701512Eb"
      },
      {
        "passId": "332",
        "signer": "0x89c5171B53f3dD5b1De619A3166deE44dd9F90A2"
      },
      {
        "passId": "333",
        "signer": "0x01508060Dbe961b6B88c034DAfcc4D3Cc323733F"
      },
      {
        "passId": "334",
        "signer": "0x63377DCAa925b6f01e97CF026c08dB820817599d"
      },
      {
        "passId": "335",
        "signer": "0x7Ed6de299C1F59E125f35b71054BF4F6825329a3"
      },
      {
        "passId": "336",
        "signer": "0xc0366ce8f67e93f7D9BABC417D8E104f03021b91"
      },
      {
        "passId": "337",
        "signer": "0xF74C4b9863C3bb271548633D4bBa74Bac52AA226"
      },
      {
        "passId": "338",
        "signer": "0x883AC3aFaf4A4076B00b3254FE9429C4a1FB1343"
      },
      {
        "passId": "339",
        "signer": "0xCa711774922090d89a05479e0EeE4950e71E0a15"
      },
      {
        "passId": "340",
        "signer": "0xA0d59F5d11dC39EB8841Fa7060C81859f97ca23e"
      },
      {
        "passId": "341",
        "signer": "0x9B51f03CC283BB502B172E6216C279026de9B4C2"
      },
      {
        "passId": "342",
        "signer": "0x5646cFE7C342B96a195aCB88cACc5Ea6396220a2"
      },
      {
        "passId": "343",
        "signer": "0x0a7b29Dd3e8597208aA2369E89128ec51A614540"
      },
      {
        "passId": "344",
        "signer": "0x858d8a8929a8B88c7bd68ebeE81F3058EbF13C8b"
      },
      {
        "passId": "345",
        "signer": "0xE1c8069B5c505f346fAB5Fc0d63d6e77C25af3F2"
      },
      {
        "passId": "346",
        "signer": "0xBC3002DE4Fa601b8c848Fe93149DdaF74FD5aCb1"
      },
      {
        "passId": "347",
        "signer": "0xeCF3DD952F554E1E10Fc2FCa931eD5AA147A0A32"
      },
      {
        "passId": "348",
        "signer": "0x5d42DCEb33778F1df202C54eac4fE98fdfBEA744"
      },
      {
        "passId": "349",
        "signer": "0x92bd5c49908c41Ab7e41cc5Bcc72D3c76A5fC02B"
      },
      {
        "passId": "350",
        "signer": "0x09D4fFFEe6Dc6e0A9F873702eAcb5cB8703Ae307"
      },
      {
        "passId": "351",
        "signer": "0xfD61076E6C4380C6B0bE7a6e97667bf8180a826c"
      },
      {
        "passId": "352",
        "signer": "0x6242B15a2f8FdAf00042d2fe7BeB8bf9E5f25f89"
      },
      {
        "passId": "353",
        "signer": "0x3901e8cb3C86F989323C8AC943db1C46F3dAdae0"
      },
      {
        "passId": "354",
        "signer": "0x9e4D8ea63f7b431222540957Ab80bc8F8A3AD080"
      },
      {
        "passId": "355",
        "signer": "0x55a5765A2834F467499b3d611f7B107392E7163b"
      },
      {
        "passId": "356",
        "signer": "0xCCC36F1516dB61fd6e75D9e323CDE1BAf1610215"
      },
      {
        "passId": "357",
        "signer": "0xb654F00897Afa7FC63Be031e8063cc755639CCFE"
      },
      {
        "passId": "358",
        "signer": "0xD724b16133f8278E61AB50c30eDcb283a0e0B0b6"
      },
      {
        "passId": "359",
        "signer": "0x06b4755fb3fB8761db22beeb0935140E20CD9C17"
      },
      {
        "passId": "360",
        "signer": "0xF6935b16e532B10D3B01dcF279c19aC7bE9F3A25"
      },
      {
        "passId": "361",
        "signer": "0xea245936fCf3D4ec1E99586Ca05f9B4B32745A87"
      },
      {
        "passId": "362",
        "signer": "0x52d75eacABb89f6D969e76B5Ce05271AC8154915"
      },
      {
        "passId": "363",
        "signer": "0xE22671E03517b3cf0B13E6750F240703E0b64482"
      },
      {
        "passId": "364",
        "signer": "0xcCdc9731e9F4B73777668014E8DCaD1A49615417"
      },
      {
        "passId": "365",
        "signer": "0x5e273bFB8A93d078a3c753C7ba6aCce94cBFf2e8"
      },
      {
        "passId": "366",
        "signer": "0x46e0999bdC269839005086F44c7C423802aF9bF4"
      },
      {
        "passId": "367",
        "signer": "0xF311C985c39B97CBdAB80D5E23Ffde138d4AD3f8"
      },
      {
        "passId": "368",
        "signer": "0xd4C44BA8a457310229B0B34154e5ED6FB6348661"
      },
      {
        "passId": "369",
        "signer": "0xf9A5DF22AcD2d2b0410a6db20A356323e8DB3f92"
      },
      {
        "passId": "370",
        "signer": "0x5C87C139E7475829cf9db9066713E57511BA289f"
      },
      {
        "passId": "371",
        "signer": "0x0A184c24dad8F35FcF42963E6210902D0945770e"
      },
      {
        "passId": "372",
        "signer": "0xEAcb7EC5EAA830716641AF47e67e30021ede53D7"
      },
      {
        "passId": "373",
        "signer": "0xCFAE514d7665cD53813A20A462d1a1c97DC55bAb"
      },
      {
        "passId": "374",
        "signer": "0xA301608E412982e060A539d250f71a0B11E6B9bb"
      },
      {
        "passId": "375",
        "signer": "0x9469cA468c8D3512DF38a924392334023B1fD3De"
      },
      {
        "passId": "376",
        "signer": "0x017477B8DEDcCE691c146fb63bC3AAAa69419ed3"
      },
      {
        "passId": "377",
        "signer": "0xFa08A0A2696633a472EC21F56E7A6b806dc481AE"
      },
      {
        "passId": "378",
        "signer": "0xc896B3A67c72710A1c7C2d0B47bd127BDaD85bA4"
      },
      {
        "passId": "379",
        "signer": "0x05F266525DA8789c0da1032d63678cc898696B97"
      },
      {
        "passId": "380",
        "signer": "0x6C11b42464f695BBD6fd21ACd82aa2d030028fD5"
      },
      {
        "passId": "381",
        "signer": "0xC8F254373817865d797B4528896Cd7A4D2DEe2c3"
      },
      {
        "passId": "382",
        "signer": "0x612838b47Cb42b89ec38135fd1c1ce74C3c8f5Ec"
      },
      {
        "passId": "383",
        "signer": "0xDA5d597961511C7c038919E80EF02603DdDC3119"
      },
      {
        "passId": "384",
        "signer": "0x01CbE22dB05C916ca9c9381764Ef1c3Fe6F08dC7"
      },
      {
        "passId": "385",
        "signer": "0x8DFA96Eaf68E1da1D1Cf89694BBec0E43e5c5AB4"
      },
      {
        "passId": "386",
        "signer": "0x6a4B8aC23a5d39c1F5e2d6735d0311c320c7A6c2"
      },
      {
        "passId": "387",
        "signer": "0x8f50dfFFa2ecA5B28DEdB08C8427054A5f1FD386"
      },
      {
        "passId": "388",
        "signer": "0xd9D1aCc656444C5eF8e6A6A5F8792448A99676B8"
      },
      {
        "passId": "389",
        "signer": "0x3E0e68627FaDA366ACbd5a55293723D66332adf8"
      },
      {
        "passId": "390",
        "signer": "0x577b40BE2bf161df81BD1a689bbF6BB1bfD2A40E"
      },
      {
        "passId": "391",
        "signer": "0xeb4200840ba3BeC809CaC823494B5347D24Dbeb1"
      },
      {
        "passId": "392",
        "signer": "0xf0E0923406FCBa3A2d1ddE4086893212FAffA3Fd"
      },
      {
        "passId": "393",
        "signer": "0x8827f251CdC5F10570d2C01BCDff1357f6398e22"
      },
      {
        "passId": "394",
        "signer": "0xd99c8fbA9Cc1E6A91E510B34Ad72119AAbF2A8F2"
      },
      {
        "passId": "395",
        "signer": "0xf76e57237c316B0E84ae325879Fe2e85809984FE"
      },
      {
        "passId": "396",
        "signer": "0xC1D75E2A04d9dDbc0A5513fac58E11D9c5EC530A"
      },
      {
        "passId": "397",
        "signer": "0x09ED9598559dC0256A28477B61AafB74Bbb31511"
      },
      {
        "passId": "398",
        "signer": "0x4C7F09fCf7bf6B93E1296a4F1548b27eA78a6484"
      },
      {
        "passId": "399",
        "signer": "0x91E7c138C48A923B9812FbEa60B5D52Ae637Eb1C"
      },
      {
        "passId": "400",
        "signer": "0xb4F91EE48AFD7f3d5ADB199EAd9E377F27DB7C14"
      },
      {
        "passId": "401",
        "signer": "0xfA26D7603C3AD7DA789de5aB434b8C3C1B091Eee"
      },
      {
        "passId": "402",
        "signer": "0x9BD259502E570a66f5C585dbC57cB7b774107d15"
      },
      {
        "passId": "403",
        "signer": "0xb8006EBEd1e671d512194815cA1B70c1D40F123A"
      },
      {
        "passId": "404",
        "signer": "0x3B814CDc3Ad2F70DAD0B6c613e00DC5240584d37"
      },
      {
        "passId": "405",
        "signer": "0x39A69AF7C595D17443Cd5113b8AE90A808128acE"
      },
      {
        "passId": "406",
        "signer": "0x939aD454fC54a7EEbF802E3cd50cc0284335904a"
      },
      {
        "passId": "407",
        "signer": "0x0e5e0E1d6c1aE32deCDeE31F4e645c89d588B866"
      },
      {
        "passId": "408",
        "signer": "0x3524776643465b026f86D7A3BbCe798B72245dA4"
      },
      {
        "passId": "409",
        "signer": "0x5271570164E1a5Fe6f8412d9bA3D3dee7A102f4B"
      },
      {
        "passId": "410",
        "signer": "0x77c1b35d57FF88F81C54284aFcf3584f02742cc4"
      },
      {
        "passId": "411",
        "signer": "0x8590Fd25F9DB752bccF61dCF36a5E1244026D8c5"
      },
      {
        "passId": "412",
        "signer": "0xD21E6DdFd96235B8AaB8401621eef929011AA29F"
      },
      {
        "passId": "413",
        "signer": "0xF447A373118e135f03B1f35E479BEc1de8e51bCC"
      },
      {
        "passId": "414",
        "signer": "0x9fFB999a0E56Ddfb51F70C6D59292D533dE2B22e"
      },
      {
        "passId": "415",
        "signer": "0xc4D400A58ec5942Ff9a82b341F0D254288D5683f"
      },
      {
        "passId": "416",
        "signer": "0x01D15a5fC513f2d130f4eAA35bD96d2CCA192FA6"
      },
      {
        "passId": "417",
        "signer": "0x1a08988702f820c822a594471bfE88AB55bD2F3b"
      },
      {
        "passId": "418",
        "signer": "0x6Ab30DAA81BfAc1ECaFFdb4da7676A8b53Dc1a80"
      },
      {
        "passId": "419",
        "signer": "0x42B36Fa25E22d10c4A52a3A9CC7E1e979781c2eC"
      },
      {
        "passId": "420",
        "signer": "0xD630270FFd58c8423a63579E6b6b4D0BEFA54dE7"
      },
      {
        "passId": "421",
        "signer": "0xe6474035b1B4E318E77BF5994360c67F07d3e391"
      },
      {
        "passId": "422",
        "signer": "0x140f171c08cb63553dB8EEf5F0A198116c905875"
      },
      {
        "passId": "423",
        "signer": "0x88Fa87e6067c3242eAF93ca37D1ad6d1ceda2Fe2"
      },
      {
        "passId": "424",
        "signer": "0x3C7064254bB95BE084Af954d06a160fD8E143F66"
      },
      {
        "passId": "425",
        "signer": "0x15778261Df464A1ffCbDC186087f413ba91a2e8B"
      },
      {
        "passId": "426",
        "signer": "0xEfcdc014e96415F18f9Cdfbd3c41f7a9beAD5d47"
      },
      {
        "passId": "427",
        "signer": "0xEb1a88E263c535F909AD6491F1f819Da6473B83f"
      },
      {
        "passId": "428",
        "signer": "0xf7893c9Ddd31C2Ed5FEA9770be958914F368c068"
      },
      {
        "passId": "429",
        "signer": "0x7E6069d0A5df7F8fd80d8AaA2861cbEC0e99BE09"
      },
      {
        "passId": "430",
        "signer": "0x02a147E299AB61E0Fef243Eb96171Cd4dEDdce47"
      },
      {
        "passId": "431",
        "signer": "0xfe0bbc261Cd6281B8010709391daA61B3b5c2cDf"
      },
      {
        "passId": "432",
        "signer": "0x2e98E91bDcaD143E8A014b03ac7Ee4C6A776BaEb"
      },
      {
        "passId": "433",
        "signer": "0xf1540a19881A1b0ec1351985236ffEB73dC0b782"
      },
      {
        "passId": "434",
        "signer": "0xb426017B08FF667562e255E91017079dCbD108b7"
      },
      {
        "passId": "435",
        "signer": "0x18De88C45F0aD39a031D383933F087DAf29b6791"
      },
      {
        "passId": "436",
        "signer": "0x740561228BA4DF31AAAB811fc477c8A0A64417ae"
      },
      {
        "passId": "437",
        "signer": "0x21D151a55efa859D8878B68Cce03fCF652d84f33"
      },
      {
        "passId": "438",
        "signer": "0x505e32D1457A8d8239DbEA6E8736591b1eFB299E"
      },
      {
        "passId": "439",
        "signer": "0x21bD5Cf825Ae7BCed742BEB1e3c77cE08063D509"
      },
      {
        "passId": "440",
        "signer": "0x3F78D4874d4eD2759f5BBd3bce36Ef9E4bE59559"
      },
      {
        "passId": "441",
        "signer": "0xf09128236283d8Eff60BB62Bb4b31f8F017f3a89"
      },
      {
        "passId": "442",
        "signer": "0xC76F7dEEf4663483f3CDC8Ef966cf7275bf2ca9D"
      },
      {
        "passId": "443",
        "signer": "0x8A1A55a91b65fCD1F1B00aE8969eD1089bCAa4CD"
      },
      {
        "passId": "444",
        "signer": "0xB18219E32bFFA0dbF9298778172e5F8fAa9c9F9d"
      },
      {
        "passId": "445",
        "signer": "0xA38A5e7EE3826BaB375FC9e7FF7489b038514CDf"
      },
      {
        "passId": "446",
        "signer": "0x23E02981E21cb9d61138954031B934d1A198e414"
      },
      {
        "passId": "447",
        "signer": "0xC5bEC26C6f047a8AAc192aB0bF40963419BCe7c9"
      },
      {
        "passId": "448",
        "signer": "0x36736F720afa6422Ba0A21E3D47cDAF9b81cA7A7"
      },
      {
        "passId": "449",
        "signer": "0x8f2e0F1565E7E1431bFf71d066762d4084Ad9f77"
      },
      {
        "passId": "450",
        "signer": "0x392545c4bE37FB6F81e2feAac6570641F7D49B2E"
      },
      {
        "passId": "451",
        "signer": "0x24Ad93D8EE5f4D159DA50c9b51FbA791b3E1d361"
      },
      {
        "passId": "452",
        "signer": "0x8cC4EDF075975f4D465E555739ab29e41FAc0b9A"
      },
      {
        "passId": "453",
        "signer": "0xE8aF3F55eB53C008FF93ee73e3D771ee0CA10F61"
      },
      {
        "passId": "454",
        "signer": "0xB2cc58116d83fc89c3A36C9d2dd01146aDE7e2D3"
      },
      {
        "passId": "455",
        "signer": "0x59559991258298E8C7e50321169412E60962c136"
      },
      {
        "passId": "456",
        "signer": "0x3fE611722989C79b032F04bCB84c02caB304c100"
      },
      {
        "passId": "457",
        "signer": "0xe6e1FEf12F79081E805F90Ff338cCeafebAe31F7"
      },
      {
        "passId": "458",
        "signer": "0xD1da5f7b9eEbE49e84dBc436087CB24514DB8DFB"
      },
      {
        "passId": "459",
        "signer": "0xd2ECB9726a528f07f3527B88988A866f6499C9Ab"
      },
      {
        "passId": "460",
        "signer": "0x2e681cB4Cf49e3A4EAFc44Af652b289e037f5847"
      },
      {
        "passId": "461",
        "signer": "0x3EfDC5BEc49467b6A64583e8DeeCFD843830beaa"
      },
      {
        "passId": "462",
        "signer": "0x95b266D33C0d1b87fE4783331b2Fd9306d37cF2B"
      },
      {
        "passId": "463",
        "signer": "0xDC5ADf0082c473991D9B596aED76738611DaaB3D"
      },
      {
        "passId": "464",
        "signer": "0xbCBEC7643889f389BBf64CC9224cfFb7F58cCa79"
      },
      {
        "passId": "465",
        "signer": "0x62826B9666F399E88b1bacA91a9586BbF1c4E86f"
      },
      {
        "passId": "466",
        "signer": "0x658826c5A769297Cb4D571B0031Faa0ca0904a18"
      },
      {
        "passId": "467",
        "signer": "0x953D40964B6C5D335D8633F26A05D9e025A1474f"
      },
      {
        "passId": "468",
        "signer": "0x0F392b3c9e425A96Ad9Dd2514C3daE513e7c1D95"
      },
      {
        "passId": "469",
        "signer": "0xEb3285aEe6BbB26daf2fD09569cb57738de8A200"
      },
      {
        "passId": "470",
        "signer": "0xcaaFb58b5d57cddCEe27b9753279F73Cf2E29aB1"
      },
      {
        "passId": "471",
        "signer": "0x161dDdd0e6c790979d88c3DEd5277ced73E79EaD"
      },
      {
        "passId": "472",
        "signer": "0x2E8A33a5093dd98Fee0Df9D15d8707960c2e371B"
      },
      {
        "passId": "473",
        "signer": "0x3b383ba9Bd92e38078be4A880015eC59ed5cA863"
      },
      {
        "passId": "474",
        "signer": "0xa50145304d28e9B15bC52733bE420fD1c15CC87A"
      },
      {
        "passId": "475",
        "signer": "0x7588B844b9DE487F5696207728CB916466A3f9Cc"
      },
      {
        "passId": "476",
        "signer": "0x1e02d9672208e53094912390afCEc034513dDa46"
      },
      {
        "passId": "477",
        "signer": "0x1dBB527EE44A21Dd3f3BB5B7673e4343C7F3ba6B"
      },
      {
        "passId": "478",
        "signer": "0xaae2cd8b060bE6a18C35618F67A10A87c887B8D0"
      },
      {
        "passId": "479",
        "signer": "0x3b98cd9F2121E2Bd0BC2B34b0E8D5b96E594BDe5"
      },
      {
        "passId": "480",
        "signer": "0x588eD2EA0C5d8172487DbE26e75c8b33e0304f9A"
      },
      {
        "passId": "481",
        "signer": "0xE6DEAE2F7799f9837DD6a605091B9eEF86953573"
      },
      {
        "passId": "482",
        "signer": "0xB1AD1f70172810B9BCA246E0e3e2bbfec10C8D8f"
      },
      {
        "passId": "483",
        "signer": "0xB40E2eC65d672cBdefb44f6FE59974c16DE95D10"
      },
      {
        "passId": "484",
        "signer": "0x4c6EBa6434452d7Aecb1B4C418898435060BD018"
      },
      {
        "passId": "485",
        "signer": "0x581ccf8095B676e82a6C3057c1f5D75883c7A00F"
      },
      {
        "passId": "486",
        "signer": "0x99F094989b20F1B7014cFd970B3B5972be7B4890"
      },
      {
        "passId": "487",
        "signer": "0x75bCD75b009e98D6Bb3044020c8d73a2d7361F89"
      },
      {
        "passId": "488",
        "signer": "0x98fAA53e5E140f54F57d7Ad480A44Dda971D2d84"
      },
      {
        "passId": "489",
        "signer": "0xa5707AE882ab5f5358e03cC1A78e4356bEcd5374"
      },
      {
        "passId": "490",
        "signer": "0x9C9d6F9c1F47F762d985fa49B000336278573758"
      },
      {
        "passId": "491",
        "signer": "0x3b694a706a7e58317A6B5B937f707fef680C7765"
      },
      {
        "passId": "492",
        "signer": "0x524dC3C290e7beB0870B3f3C1c41B9D13DcD14f0"
      },
      {
        "passId": "493",
        "signer": "0x4791e913c46bB2d06aaAE9C442D9f218694479b8"
      },
      {
        "passId": "494",
        "signer": "0xbD04D1A9D11DE792FeCc7Fa373A1875F9dEEBC32"
      },
      {
        "passId": "495",
        "signer": "0x50bFa5d37345651b3a7aBD4759c79B48C798EFEe"
      },
      {
        "passId": "496",
        "signer": "0xC257044B3D795740B25814FdA50BD11cf4Bc04d1"
      },
      {
        "passId": "497",
        "signer": "0x20381B2E72f567Eb87FaFb66138f3BA72CE50D79"
      },
      {
        "passId": "498",
        "signer": "0xB4932a9042Cab9d52141CC348F364cD27A86e4f1"
      },
      {
        "passId": "499",
        "signer": "0x1Da848e828A0EefCDD1c45e6fC475c40443Ba7CA"
      },
      {
        "passId": "500",
        "signer": "0x93e184AF68056E17d0Cb9533fDa288C21Ef77281"
      },
      {
        "passId": "501",
        "signer": "0x0bFd0125Fe01cDe6b7834167A4EBEA14f6ADB7FB"
      },
      {
        "passId": "502",
        "signer": "0xF3975f77A94be5B96ba4B772f784b97EE58A3a70"
      },
      {
        "passId": "503",
        "signer": "0xac69dF132387936E31Aa7f9617D97997FB12701b"
      },
      {
        "passId": "504",
        "signer": "0x60a7C068A5673cD41fC636fd00Ae0567E288cF83"
      },
      {
        "passId": "505",
        "signer": "0x452e96708D2C88F503Aa3a379f13CCECf161F1D3"
      },
      {
        "passId": "506",
        "signer": "0x4beb26913e46020e2A24da5c12Ec31CF7c0e9cAd"
      },
      {
        "passId": "507",
        "signer": "0xa45929F2379C4E0b555F1f5057175b43d1Eb4F9C"
      },
      {
        "passId": "508",
        "signer": "0xc7329405E185ceE7a2ADB5AcC10FEC82a684a5A2"
      },
      {
        "passId": "509",
        "signer": "0x4A2a781578B3b4196a76C1B429162d9EeEE7eA09"
      },
      {
        "passId": "510",
        "signer": "0xdeF8f99Cc814bcC91cd79e86225106f1C8E15D85"
      },
      {
        "passId": "511",
        "signer": "0xC759C3bE1D689AF6Dbd70fC335ED492e90EC16Fa"
      },
      {
        "passId": "512",
        "signer": "0xc54705F99ba86A20634073892B12b59Fd688Eb39"
      },
      {
        "passId": "513",
        "signer": "0xb69bed158849211318f126dc8320EB4870583AE6"
      },
      {
        "passId": "514",
        "signer": "0x1A9f7A4e962DFf4BDdD79C8E0ca0525e15B6E16e"
      },
      {
        "passId": "515",
        "signer": "0x47FD8FD50242F39cF95b2cA912a34e40f1cd542F"
      },
      {
        "passId": "516",
        "signer": "0x674813eea703d612B3Cae82C187D4b99E92fb538"
      },
      {
        "passId": "517",
        "signer": "0xBf210dCBb4C508D365c292Cf7e4E3BE1F8C1c46b"
      },
      {
        "passId": "518",
        "signer": "0xDD6Fc84b174391D5299959D3C3d820e6f9C22E86"
      },
      {
        "passId": "519",
        "signer": "0x30775D09a086af3eDB2aF148787B5100758514FB"
      },
      {
        "passId": "520",
        "signer": "0x5Eb7158dD91586D0A11b4904DEA54DB5343A5D9f"
      },
      {
        "passId": "521",
        "signer": "0xB46aAA292E8561d23e314a11784CD529B0b3DDdf"
      },
      {
        "passId": "522",
        "signer": "0x56244fA137F374226bdC0Efd16b0B2cd5525f122"
      },
      {
        "passId": "523",
        "signer": "0xE6466e9e4fd40C7D7e536010988DE3b2B9aF0e13"
      },
      {
        "passId": "524",
        "signer": "0x29F4901032c562Be131Bcf40e939DE735f03612f"
      },
      {
        "passId": "525",
        "signer": "0xA7d1F796B75947f29d5dab1d36f91024d97ebdFC"
      },
      {
        "passId": "526",
        "signer": "0xddEBC821F1f7733fdb4397BAa0679f04848FF3fF"
      },
      {
        "passId": "527",
        "signer": "0x2c360CCc34d2bd34A84f5567c10b230311f87847"
      },
      {
        "passId": "528",
        "signer": "0xB8789D5EcceF91cd4Ba60636C80f48dEce47A93A"
      },
      {
        "passId": "529",
        "signer": "0x7C204385637Df7F1CF9AA89553936FF6715ecA35"
      },
      {
        "passId": "530",
        "signer": "0x39FA2E52e9B90B8cC4cbBC4D98dA76dbCc7BD852"
      },
      {
        "passId": "531",
        "signer": "0xE4e872265d6bAe7Eb1444dF8aF8f59B4E17E0C0f"
      },
      {
        "passId": "532",
        "signer": "0xCa12D3Ce16e836f2dd7E7e17824bc7682f99256d"
      },
      {
        "passId": "533",
        "signer": "0x635914Ba7EbA1a38ca8a5Db2229D3d81575D4f3d"
      },
      {
        "passId": "534",
        "signer": "0x04720f6183eFe219C40729bC96713BF947257213"
      },
      {
        "passId": "535",
        "signer": "0x4A7975478a597Dae5B937B13cE38985210794d1B"
      },
      {
        "passId": "536",
        "signer": "0x9d95cB3E6e28de67A69Edd33baa443834CE2B4eB"
      },
      {
        "passId": "537",
        "signer": "0x04775e91625a74E0F0Dfdf259fE13AF11f59Bf7f"
      },
      {
        "passId": "538",
        "signer": "0x52f43293A500d84314d685EB18C036f54D211935"
      },
      {
        "passId": "539",
        "signer": "0x41e03b1309da3B804d58DF711a00Aa6BfF999abb"
      },
      {
        "passId": "540",
        "signer": "0xb9D32C8F45D80Ee48Eb78Ed831b7c0926DC4352d"
      },
      {
        "passId": "541",
        "signer": "0x65F45a9368EDdC8A5d8069a816D77e1909b495F7"
      },
      {
        "passId": "542",
        "signer": "0xbFb6e7733A7499087909bf62A469910F32ceBC8d"
      },
      {
        "passId": "543",
        "signer": "0x8CEDA5B985894E4b10C69758CF4BBd25AF8931F9"
      },
      {
        "passId": "544",
        "signer": "0x73f245656503149c559BD71E10DB7A70CE607B64"
      },
      {
        "passId": "545",
        "signer": "0x314248965819C801F5F3a46F84542642B0Cd6CE3"
      },
      {
        "passId": "546",
        "signer": "0xcF248b53B46b68ab4E0a136984488e02408BC40D"
      },
      {
        "passId": "547",
        "signer": "0x06397328bCf8C9bb4e43FEC4a9082AED5BCB8Ed1"
      },
      {
        "passId": "548",
        "signer": "0xfba78aD5b77E4f94E7C3613CfB640cbEFE6Cd98e"
      },
      {
        "passId": "549",
        "signer": "0x1b6Dd1ed1D82FAF892497776B4bc9F59cB67099c"
      },
      {
        "passId": "550",
        "signer": "0xE7Ceaf8314C9c6354D37Aa222D9B0BE7c9358C76"
      },
      {
        "passId": "551",
        "signer": "0x47f0D44B2fD4f2A632906212122aA2b87791f468"
      },
      {
        "passId": "552",
        "signer": "0x68a4aB2059d3b6C352740F867642f9Cdf5427b00"
      },
      {
        "passId": "553",
        "signer": "0x0033453b26305B2f37bd5fe85481b884BfafF91d"
      },
      {
        "passId": "554",
        "signer": "0xb2cec6607f995eb5A255c5D9944baB2fE54Cbe64"
      },
      {
        "passId": "555",
        "signer": "0x8567035bc4B19c817F72F529590F76279bA0De7D"
      },
      {
        "passId": "556",
        "signer": "0x31891A8BBC6882F987E4a999a79D8A87E6242645"
      },
      {
        "passId": "557",
        "signer": "0x3199716DA96cd66cB39c46635454937Ac89c26D8"
      },
      {
        "passId": "558",
        "signer": "0xe30b369EF1d4656FED66e19BDBAc8A2550Fc18f8"
      },
      {
        "passId": "559",
        "signer": "0x83cd3D4fB5d3E54eeEC1001eE2A8A2fFefa4ee8F"
      },
      {
        "passId": "560",
        "signer": "0x5D59d95CF4be077DbC52896c849d1cCACe94c1a9"
      },
      {
        "passId": "561",
        "signer": "0x8dD78887488DB74Df0A24FeA6b679b706C7608b8"
      },
      {
        "passId": "562",
        "signer": "0x5BA2AF3E2186F93f576b9C013E4df804C50E19C1"
      },
      {
        "passId": "563",
        "signer": "0xBFcdbB6df82968F29338d35A1d5c46a3B2f3d3EF"
      },
      {
        "passId": "564",
        "signer": "0x199517b8056BD1085Aee020E1fe6200aDb4672Ff"
      },
      {
        "passId": "565",
        "signer": "0x4E109A3A5dBe683FDcFE6DFFD7ABEee410631eFf"
      },
      {
        "passId": "566",
        "signer": "0x6110c0EF79092676660674aea31C299FD8E6A014"
      },
      {
        "passId": "567",
        "signer": "0x82588Ec8A25B2df535ea2dc326484D7a8c5F7b2E"
      },
      {
        "passId": "568",
        "signer": "0x12420Fd171b3d0c1Dc472F3aeDA855B71487a326"
      },
      {
        "passId": "569",
        "signer": "0x942Bc19aA7D8657cDa0253bFE1Ea6436Eac6E1C7"
      },
      {
        "passId": "570",
        "signer": "0xb0Cc905145D050000C4Ae4c71c5e0c3CAc4fCe8A"
      },
      {
        "passId": "571",
        "signer": "0x3E6fdb3A6F41926ED0419DfE3F1182D5751d623a"
      },
      {
        "passId": "572",
        "signer": "0x449613109e92555A647fE7Cca38fE8109A3D7A90"
      },
      {
        "passId": "573",
        "signer": "0x0BA1BF22b750DCC3C9cf868Be55331b56d6DE07A"
      },
      {
        "passId": "574",
        "signer": "0x5889fdE36C1F3E7B3D6A1d228C7eac53424B5DeD"
      },
      {
        "passId": "575",
        "signer": "0x869237AF894578350AF465ADB1D435B08a9d1069"
      },
      {
        "passId": "576",
        "signer": "0x997B9072701E35fd6094366A73dE9a7B62B6542F"
      },
      {
        "passId": "577",
        "signer": "0x601819E5e538F32fF0893f555Fb24eE9Ea85A551"
      },
      {
        "passId": "578",
        "signer": "0x5f47aa6C6F44Fe55AfA73f2D4Dc5a0740CcEd4cA"
      },
      {
        "passId": "579",
        "signer": "0x993239F2DD8061a6e3f5071c2e0a3b20187E8823"
      },
      {
        "passId": "580",
        "signer": "0x1D2dB70C9547F760ed2b38898F6CFF8a4E75Cc87"
      },
      {
        "passId": "581",
        "signer": "0x77620e6572b9bd4c079f3F033da202684947d570"
      },
      {
        "passId": "582",
        "signer": "0x2cb2d72158c182D13711E9A98C89f2F6AFd854bd"
      },
      {
        "passId": "583",
        "signer": "0xc02b85a07A6e84320B193e8A59839636E8FE206e"
      },
      {
        "passId": "584",
        "signer": "0xb6de5e55Cf9CEEB9Fe14D2A28124C779a3cE6004"
      },
      {
        "passId": "585",
        "signer": "0x42D156bC6e6A11879aedba9D97adC9a6178DedDe"
      },
      {
        "passId": "586",
        "signer": "0xb8cF91A7A85feD7d10389774FD59a6509ACc0a35"
      },
      {
        "passId": "587",
        "signer": "0xa8555B4d10F3f1ED329610b07B14Efe400425e08"
      },
      {
        "passId": "588",
        "signer": "0x3D768eb44118160Bc7048b419138CA1D854AF23F"
      },
      {
        "passId": "589",
        "signer": "0xfDb7eA35805565357eFB511aabFf64C5131e9D2f"
      },
      {
        "passId": "590",
        "signer": "0x4492289E7C145c04d276FeC0e2273fCC4b12C328"
      },
      {
        "passId": "591",
        "signer": "0xa964bB9d66026894484627e0513B8f60c85Cc682"
      },
      {
        "passId": "592",
        "signer": "0x8CFA016d6Ec93EeAd7D88D6Ede09eAcB23098E5E"
      },
      {
        "passId": "593",
        "signer": "0xf7454A9D0f7D575D0bE9FcEB0B9546c6d2Cc47cE"
      },
      {
        "passId": "594",
        "signer": "0xF30817A140538F3e1F3C72Afffc02129A174c5a0"
      },
      {
        "passId": "595",
        "signer": "0x3bC6Dc5AFFf651b4a948Fb247585a322284cEEb4"
      },
      {
        "passId": "596",
        "signer": "0x31e459bAAB3c745a9Bd35AEBdaD2feAa4dae1149"
      },
      {
        "passId": "597",
        "signer": "0x05097B281952c6958b23b6E6c3F2E24Fb310C365"
      },
      {
        "passId": "598",
        "signer": "0x3f1E47C975692EF31d26e32c6880c551f7e6A501"
      },
      {
        "passId": "599",
        "signer": "0xa7F3f54D9Ee26840eA6C1613D9550B0E411F74e7"
      },
      {
        "passId": "600",
        "signer": "0x00Ce40F534ec14BDccFf071FFff7e518273bc6AB"
      },
      {
        "passId": "601",
        "signer": "0x643B3017ab1730570A7EEaacD990d8EDb1c272aB"
      },
      {
        "passId": "602",
        "signer": "0x391c28362d5E925f71228E1B5053FB7053bf741b"
      },
      {
        "passId": "603",
        "signer": "0xF17356FF27728feDebbbc1A0B1f4EFa4f8Ec2Ba6"
      },
      {
        "passId": "604",
        "signer": "0x71157De60657A45C85aB124fE4Eca7f4fFEA1092"
      },
      {
        "passId": "605",
        "signer": "0xD68E990de6A732d468143D05760e42E60E7AE7be"
      },
      {
        "passId": "606",
        "signer": "0x02A6854F335D65Be6d21D53a8649D647aeE21F91"
      },
      {
        "passId": "607",
        "signer": "0xD65bAb0e3419DCdF73be1C3b070141909dFC946E"
      },
      {
        "passId": "608",
        "signer": "0x3C75e120B8296E232A66F0b6673AE04d93260b86"
      },
      {
        "passId": "609",
        "signer": "0xF680Dd1D7C05a77F1E6c813B07D976ea4e6C063A"
      },
      {
        "passId": "610",
        "signer": "0x1dc84d7776Ef94501b9898c0Bee1b4014BE17a4C"
      },
      {
        "passId": "611",
        "signer": "0x3d0753CA36904D920816982983b6F01f7f3D6f13"
      },
      {
        "passId": "612",
        "signer": "0x25eD5f618be7C759C76932DEF06756455505F75f"
      },
      {
        "passId": "613",
        "signer": "0xC9e222ea50A96ba6524F8d565D1185E3a8E5BE4f"
      },
      {
        "passId": "614",
        "signer": "0x01f4DD0Da701616401ABe6Eb287A104Ed6dF3007"
      },
      {
        "passId": "615",
        "signer": "0x6d4842464cA37a6eEEcCA6327928666842329756"
      },
      {
        "passId": "616",
        "signer": "0xabaD6656843343ee7540eE393c417b793d6AfDAF"
      },
      {
        "passId": "617",
        "signer": "0xd7862b98Ed02Ce26Cbdb01E1ecF8B755825A757d"
      },
      {
        "passId": "618",
        "signer": "0x0136a2352cB54f3828e48181Af4289A9D22Af6A4"
      },
      {
        "passId": "619",
        "signer": "0x593437BB46A93C9CDC6df31B9E683396132805F4"
      },
      {
        "passId": "620",
        "signer": "0xeB067ef27928D94f3A3B624D39c17482E3FCcA07"
      },
      {
        "passId": "621",
        "signer": "0x62b6956E78f0383e4aDB5e17cd65076F8353DD3e"
      },
      {
        "passId": "622",
        "signer": "0x0aa55E75ABC139B2A033D23d6Bc213FC2BD07835"
      },
      {
        "passId": "623",
        "signer": "0x611a19A0b26132e790c63ba92CDb621B4F905999"
      },
      {
        "passId": "624",
        "signer": "0x1Db6C9B112e7466CA3db47a27fea5FA453eab2ce"
      },
      {
        "passId": "625",
        "signer": "0x8c42Aa10e08c80428Ccf298E4d127403B636C0b5"
      },
      {
        "passId": "626",
        "signer": "0xF49B238c674e6f4473Ce0Ac5d3Dd45b2B74FE520"
      },
      {
        "passId": "627",
        "signer": "0x8B6DB7E4B0784B3877B30e3b81052B1b0A774B8C"
      },
      {
        "passId": "628",
        "signer": "0x064D9c0E2cD7756b41B7A665d4A1EE329d8f7f0c"
      },
      {
        "passId": "629",
        "signer": "0xc47CC4E87010C826621b611f49f597b3AD8f0C0a"
      },
      {
        "passId": "630",
        "signer": "0x49d8aB2cE4a47EcAC0Cb730e44379F24B4Ba57a9"
      },
      {
        "passId": "631",
        "signer": "0x91811f9270b89C1C10f9a3976d99Cc03eEf2a6f9"
      },
      {
        "passId": "632",
        "signer": "0x2a1B82E1B6cCE208C46E554b7736ac2E80dD3625"
      },
      {
        "passId": "633",
        "signer": "0x58a04E9654E82b4b83AA19eC002f18D8C5E5E78a"
      },
      {
        "passId": "634",
        "signer": "0x379D2DD57e93bBe09967e867632BD1e13FaF4242"
      },
      {
        "passId": "635",
        "signer": "0x305d6643031B4C22d6A83042DB9baE763882400d"
      },
      {
        "passId": "636",
        "signer": "0x143a41Ae4b62946Fe95dA91Af2Fd086F9Fa88640"
      },
      {
        "passId": "637",
        "signer": "0x87DD67605d9697fFF6C0DB6ae5Cc39A62334A98E"
      },
      {
        "passId": "638",
        "signer": "0xf28C6C3b01f92Ebb0210f0590B905E70A1E6a128"
      },
      {
        "passId": "639",
        "signer": "0x6BaAe30aeD330889fF7c5d349aD3541e4d536bac"
      },
      {
        "passId": "640",
        "signer": "0xB23DEE04AA998379D1A3545AE9860bf34ba3AE84"
      },
      {
        "passId": "641",
        "signer": "0xB1623D1C1f418D564bF2FE4218880F453Df289A5"
      },
      {
        "passId": "642",
        "signer": "0x88aaBa8f611be5a033f04712aa22A70B4115f5F7"
      },
      {
        "passId": "643",
        "signer": "0x32192Ca7A9317a5f8D7D5fdeAd5c66cd2aa37575"
      },
      {
        "passId": "644",
        "signer": "0x3c783853a880b9C1477dE00400BA2Cff2e319681"
      },
      {
        "passId": "645",
        "signer": "0x81dB4b8A69B0554dC0A4C153F7e1Be722FB9B391"
      },
      {
        "passId": "646",
        "signer": "0x75019F07bC4F1d895B55Fe8637Aaa6Af545518bC"
      },
      {
        "passId": "647",
        "signer": "0x2bA1074EE09523548da091Fe35089fa69Fea16b8"
      },
      {
        "passId": "648",
        "signer": "0x2BBEd8fBEb8Ee790b5f0a018a848B569D792cFce"
      },
      {
        "passId": "649",
        "signer": "0x58636253BF0BFe5fE890042A8B5fF5916122c4a1"
      },
      {
        "passId": "650",
        "signer": "0xc4a5F411098fC8A4518C15f1BE1a9D9c29BA062B"
      },
      {
        "passId": "651",
        "signer": "0x617a83b60250C92346c83bd8e8E7e7C35c138cCd"
      },
      {
        "passId": "652",
        "signer": "0x8E91248532BC1eAf34bEcAbBC7Cd4EAe03E82d78"
      },
      {
        "passId": "653",
        "signer": "0x88C9f44E71B37AEEB3e095834897cad10e6C1773"
      },
      {
        "passId": "654",
        "signer": "0x0DcDA59A845158b22A36B50A1D40670822B1DB07"
      },
      {
        "passId": "655",
        "signer": "0xc7BB3b8c2e5dC79e35D86CfEFA92422a0692a18c"
      },
      {
        "passId": "656",
        "signer": "0xeAdFf2470b7CC8c895cd9069C385168B436c012E"
      },
      {
        "passId": "657",
        "signer": "0xD5D3fb65b974B747D00AA25Db7381FAe1Ff4D57c"
      },
      {
        "passId": "658",
        "signer": "0xFc06Fd03D5F5aFA212896D61A9820ECcF4543D55"
      },
      {
        "passId": "659",
        "signer": "0xC5ff649f2C6A509D439cf7Ab9CbFdFcC86B6F8D8"
      },
      {
        "passId": "660",
        "signer": "0x8f2b81e996D0A732f0b39a7C3D52fc8A1bAEf705"
      },
      {
        "passId": "661",
        "signer": "0x9BAfa67cd5Ba526a5F47C5Ed32F5Eeb3387A53f1"
      },
      {
        "passId": "662",
        "signer": "0x6F21414B4ba1e1A3868EDa102400C1084c6bdb41"
      },
      {
        "passId": "663",
        "signer": "0x19A55C3309e9148a06Da72284944A754A6d2f295"
      },
      {
        "passId": "664",
        "signer": "0x635B5f00913cc083DE6FAfEF08B123c7d9DA671c"
      },
      {
        "passId": "665",
        "signer": "0x47a32173A7A4D24376BfeA7df77582588811CA8B"
      },
      {
        "passId": "666",
        "signer": "0xa697f7BE175550594B58bc0d77882a325bc798D2"
      },
      {
        "passId": "667",
        "signer": "0xee3C7bc7DcF8646E81105BAb8bcfa689986F90B8"
      },
      {
        "passId": "668",
        "signer": "0xFFBE284FC44B61925AA1Ec326dfD204d2005B25C"
      },
      {
        "passId": "669",
        "signer": "0xdb55A192E65a886F9207C029C33050D3855951cc"
      },
      {
        "passId": "670",
        "signer": "0x344485022A0E498c1E1Ed0F69317b1Eb224d023b"
      },
      {
        "passId": "671",
        "signer": "0x333E53E7632b7652a8ef5375900A90AE46161Dd7"
      },
      {
        "passId": "672",
        "signer": "0x0E87859467987Da811582D2FF274886B707A1193"
      },
      {
        "passId": "673",
        "signer": "0x316170FEDce886A5E7605A4AE711B54a5588E777"
      },
      {
        "passId": "674",
        "signer": "0x822Ee67bA8Ee4571056e4C5EEFAE19a135Bb5b0E"
      },
      {
        "passId": "675",
        "signer": "0xe5a963F9DaB29c805c5b48674183f52eC83EB74c"
      },
      {
        "passId": "676",
        "signer": "0x1e85f455c4d4a6AF46509922b137185771CCd46E"
      },
      {
        "passId": "677",
        "signer": "0x4D019130A964D30F1CB84D692F48755aB06D699E"
      },
      {
        "passId": "678",
        "signer": "0xC441111E19dAC5e0995104907eC5A2a5F63bc005"
      },
      {
        "passId": "679",
        "signer": "0xAD05B14a40A543216c86a57d221A87Db4c728b4C"
      },
      {
        "passId": "680",
        "signer": "0x1ec32Cea5b2AA00bacADE0Fea1a5B0ecece22236"
      },
      {
        "passId": "681",
        "signer": "0xCA869C31640f10a694530D91a3F56E50962E5A93"
      },
      {
        "passId": "682",
        "signer": "0xA020Cb90774Ef6d664E44E12d7711d48193de80B"
      },
      {
        "passId": "683",
        "signer": "0xbF562A1a47A5aBa10e7D023cdE4C5b00cFF6f78F"
      },
      {
        "passId": "684",
        "signer": "0x4425A74DAeB2A998E7d60a3D13B521B254847612"
      },
      {
        "passId": "685",
        "signer": "0x0807f2A7b173FaAb5684cE136E0b8eC7EA2979f4"
      },
      {
        "passId": "686",
        "signer": "0x3b378bf8Ae53c2a1793eF53341705a7c199E8a8e"
      },
      {
        "passId": "687",
        "signer": "0xBB5b711275eCfaBf80610a37F49475c728EaD321"
      },
      {
        "passId": "688",
        "signer": "0x1FDC33A09D8cE3BC3F6d6a3910DF489Efbe2fE43"
      },
      {
        "passId": "689",
        "signer": "0xD75AFDfDF4939331dAeFEF63eD35b439262c9683"
      },
      {
        "passId": "690",
        "signer": "0x4D782eBE96216B66161f9b9cD6d65767e8c61c72"
      },
      {
        "passId": "691",
        "signer": "0x08cc8ddF88a6E9680fB5d37d0A4D78aF3ee0CdfA"
      },
      {
        "passId": "692",
        "signer": "0x9d72a1Ce012A07eE7c4C1f65af2550185Bb9A64c"
      },
      {
        "passId": "693",
        "signer": "0x78775a4b8A0b4bF36791F14e0c739E76e6EC1BD0"
      },
      {
        "passId": "694",
        "signer": "0xbA3f671df9Ae54a779EeEDF91617f40b9Ba0c21D"
      },
      {
        "passId": "695",
        "signer": "0x5D8fba4117E3b6A4223789E298Ec5833b171e09a"
      },
      {
        "passId": "696",
        "signer": "0xa23a5f399a07b6392Cf1330c691d9B0a61944356"
      },
      {
        "passId": "697",
        "signer": "0x6ACf57ACe46d19eA07Ed97D2F9019222ee849079"
      },
      {
        "passId": "698",
        "signer": "0x28B721a5C784381A827D0bfaf92569bd7f53E04D"
      },
      {
        "passId": "699",
        "signer": "0xA0Ed6FB40d5Fc5197f340D891C9462e029615858"
      },
      {
        "passId": "700",
        "signer": "0x4E3b45661288A3cAE90e796521CAa9fE0D8120C1"
      },
      {
        "passId": "701",
        "signer": "0xE5e80d2F8DdE54D19Fbb239056b0fCc84DDc0315"
      },
      {
        "passId": "702",
        "signer": "0x7C446F18D1551e72B0E1C31377CD0a77DC97533E"
      },
      {
        "passId": "703",
        "signer": "0x6b4811e6E2090F6F4baf1C75f0846Bfa484F3Fd5"
      },
      {
        "passId": "704",
        "signer": "0x12700CD752173b4492ee14a49a12f5c8f77Ed491"
      },
      {
        "passId": "705",
        "signer": "0xD7dF92F8381Fa880b3b623F446855425A3b578fc"
      },
      {
        "passId": "706",
        "signer": "0xA386853B14E6fbFD75c12709a893A35207881171"
      },
      {
        "passId": "707",
        "signer": "0xBF976b61Adcab62349925e6dd4B443fB5d362173"
      },
      {
        "passId": "708",
        "signer": "0xF9A1E6b772d0193a0b4002C2b4eA133E1C6db137"
      },
      {
        "passId": "709",
        "signer": "0x3866847E0767549f262c9619893F2609A8405Dc6"
      },
      {
        "passId": "710",
        "signer": "0x40C42538FB5D94DA5FD5d3E90A65029979dAe50D"
      },
      {
        "passId": "711",
        "signer": "0x2DB7073d7acb059EbEbb7564cb44672DC97e3004"
      },
      {
        "passId": "712",
        "signer": "0x0198f06Be103dA396ddCcC6570E2E1de9f1dD144"
      },
      {
        "passId": "713",
        "signer": "0xd89120A9BeE57292671cC1BbE74b3c954E00EC44"
      },
      {
        "passId": "714",
        "signer": "0x30FEe044d0d6597356BDeA2eED808009593c1c2a"
      },
      {
        "passId": "715",
        "signer": "0x54d678Ae5761bC40227dAC0c9c3D211341521a18"
      },
      {
        "passId": "716",
        "signer": "0xD41dF829cc85b6ed16a5B06BfFEf539B32C9FAaE"
      },
      {
        "passId": "717",
        "signer": "0xb85254bC498744dC8B28C10e3506B486c3eEA3D7"
      },
      {
        "passId": "718",
        "signer": "0x1BBf560415Bc25927D6461dcd2E717388F335f60"
      },
      {
        "passId": "719",
        "signer": "0x8Cd572d6470f32AF642c96DC5A6Dad8cf2F04E23"
      },
      {
        "passId": "720",
        "signer": "0xE333EA7A962A092c069c4a8c7cc362fCBbf7787a"
      },
      {
        "passId": "721",
        "signer": "0xe8a15D651C456E5a8421d9C46749c5345d452A2f"
      },
      {
        "passId": "722",
        "signer": "0x99B3FCf05C0df07AA3086A6Ae3E55d04Fe761B1B"
      },
      {
        "passId": "723",
        "signer": "0x5b6CA5B73026F31a543921bA579A5f1348ba74c3"
      },
      {
        "passId": "724",
        "signer": "0x4a386fE2694C18e421Cb3DC85bDB02f572849414"
      },
      {
        "passId": "725",
        "signer": "0xe46F23b53B2FA5243E849D70c22f407e8Ef3c7CF"
      },
      {
        "passId": "726",
        "signer": "0x42246231bC6003AC540CeA41A3c5321acca021B8"
      },
      {
        "passId": "727",
        "signer": "0x18Aca10adf1DDaf49EE6fe932A63eE0832E404e2"
      },
      {
        "passId": "728",
        "signer": "0x0ce8653e34B1a1A4920b5eC2b6555864F7E20213"
      },
      {
        "passId": "729",
        "signer": "0xcF9907C9A4A452802a4D45Cfaf8299A6d5D76510"
      },
      {
        "passId": "730",
        "signer": "0x8EdeB1C5f7FD7f658e95A6F8FB936c70280C7C2e"
      },
      {
        "passId": "731",
        "signer": "0xAabD3D12781a19f90931bAac5924ad9FE8312c2A"
      },
      {
        "passId": "732",
        "signer": "0xF412901bE9F09D82f9aa98F96E28C07Bfd8fd15F"
      },
      {
        "passId": "733",
        "signer": "0x4b4579C4CA52b945497e3738CAE24f4B36f3A9b9"
      },
      {
        "passId": "734",
        "signer": "0xA9F22639e728Fc67E9A563AFE7De0AA4F772B2Ba"
      },
      {
        "passId": "735",
        "signer": "0xF5374d7b62bb591De9AAb010Bcaa6465d4928fc6"
      },
      {
        "passId": "736",
        "signer": "0x310D772c71D1D59dF97115aC39f38236653b1122"
      },
      {
        "passId": "737",
        "signer": "0xE7c8B01C4F24E11007f8EBcA952DAD34ebF0dcf5"
      },
      {
        "passId": "738",
        "signer": "0xe7BB6C163D92ad1BdE731cC96BAc0f480Dc0bef0"
      },
      {
        "passId": "739",
        "signer": "0x897E1F634b82368F7278500a3b15cD66eF966E27"
      },
      {
        "passId": "740",
        "signer": "0xAd8977Cacf17E5366c518a76C319f15736d02eac"
      },
      {
        "passId": "741",
        "signer": "0xf609772B2249229c66CEF12eC78767C5466fAf00"
      },
      {
        "passId": "742",
        "signer": "0xdDBe8E2110B5fFcE04798fa263171bAF343388a6"
      },
      {
        "passId": "743",
        "signer": "0x8a88DC19bCb430B31F0fA458206F080693f6aDc0"
      },
      {
        "passId": "744",
        "signer": "0x53922D64C407C3DA5E9f55FE19fD014485A56395"
      },
      {
        "passId": "745",
        "signer": "0x1FD0D02D025401f7c616DdAf7B6e17C0a0ef295C"
      },
      {
        "passId": "746",
        "signer": "0x801ba4868E1002b94EFdcb8F6b5230cf6D63C014"
      },
      {
        "passId": "747",
        "signer": "0x00982baf2C4632673eE55D9ba225B3CA95FF872E"
      },
      {
        "passId": "748",
        "signer": "0xE5c438291df74E8D7657894757DD313770C2103D"
      },
      {
        "passId": "749",
        "signer": "0xb2D3f099313fB7Cab101B223a40495F921548A03"
      },
      {
        "passId": "750",
        "signer": "0x4115A96fCd6981DD99B49FF4baD301A3777FB09B"
      },
      {
        "passId": "751",
        "signer": "0xF68d26A9B1bcDda52f90C046BdE79be4E1065691"
      },
      {
        "passId": "752",
        "signer": "0x2a3c6A35916edf75005621807aE1ff26CF2cF0c0"
      },
      {
        "passId": "753",
        "signer": "0x94E5862911474A1EC96ccb220Ed4af1d21233791"
      },
      {
        "passId": "754",
        "signer": "0x244FdD0B7f87567E4ed3cd39e82930eec6f87801"
      },
      {
        "passId": "755",
        "signer": "0xA1b2f049E8c112bd263dEFC68A600361EA1da567"
      },
      {
        "passId": "756",
        "signer": "0xE12657e78513E45D75e75378dbc3e53b0e9Cde20"
      },
      {
        "passId": "757",
        "signer": "0x4Fc64a69b999Bb22e4afE0CaFe35aD42D7D52E0e"
      },
      {
        "passId": "758",
        "signer": "0x45ff581B74EbcC18184409e6652AF6DaCb75e6fc"
      },
      {
        "passId": "759",
        "signer": "0x8dd8539fBC6DB14924d07f5e0b7F6bd473AD9Afa"
      },
      {
        "passId": "760",
        "signer": "0x60E6136A1fC951CB3a33f78f2F20467aB4B861D4"
      },
      {
        "passId": "761",
        "signer": "0x93cAD0a100143be5e367d45252C8803E7bA48020"
      },
      {
        "passId": "762",
        "signer": "0x3C0b39eedC2eEde7cDdA19C3009843E87A4f435B"
      },
      {
        "passId": "763",
        "signer": "0x8Ec94c4eF724D332De59251B821338aC8bff0b32"
      },
      {
        "passId": "764",
        "signer": "0x7BCE5dB9e1BAfAfb5537FBeA1789173120faBe90"
      },
      {
        "passId": "765",
        "signer": "0x69d65Bb197917807aC614AA5763493047eD11Ca2"
      },
      {
        "passId": "766",
        "signer": "0xcaC81AaD80FbF6B632978b667fDD3921cE2dF3c9"
      },
      {
        "passId": "767",
        "signer": "0x1D1BA255f1554bd743cBb3Ba6eD4aDa8954fAB95"
      },
      {
        "passId": "768",
        "signer": "0xa4F4002c6E5969Ff9D550Df2f8F9d4b416b649aD"
      },
      {
        "passId": "769",
        "signer": "0x8CfcD138E8960F94987EA8aFDFD663606f151F48"
      },
      {
        "passId": "770",
        "signer": "0x2d4a4651523C7ea38c679C5A94A0a05959616EA5"
      },
      {
        "passId": "771",
        "signer": "0xE15d575cEEc89b8fEbDea5F71a08e3CdBDD3d452"
      },
      {
        "passId": "772",
        "signer": "0xC00a973dA4AA7Da430Fd28Ee6439E927D0d46620"
      },
      {
        "passId": "773",
        "signer": "0xf0dC155922bd0c048aC97b5f4595369DDc803E10"
      },
      {
        "passId": "774",
        "signer": "0xFA87408e82B2c44127C3E8A742ecD9A158a09921"
      },
      {
        "passId": "775",
        "signer": "0x365F634CF515f57f946d72B27917ABDBc74B16B3"
      },
      {
        "passId": "776",
        "signer": "0x1F2d790aE1442aD757Ae1e5A387F9D84333b7b99"
      },
      {
        "passId": "777",
        "signer": "0x8A01095E9fC2713990905A8a1642add75D2Bb619"
      },
      {
        "passId": "778",
        "signer": "0x3fbb6F55593A182b5Db2345b36042c67f6a0e095"
      },
      {
        "passId": "779",
        "signer": "0xaf8F2ad9508b9725bDe445042be2516a4a6046bF"
      },
      {
        "passId": "780",
        "signer": "0xB8f5C3D0C3164aC0b17157E6fB74546105332F50"
      },
      {
        "passId": "781",
        "signer": "0xaE614BF4E59Ed27ceA62880614417037ec9588aE"
      },
      {
        "passId": "782",
        "signer": "0x645065d1faa5968A7f4181a2403ce15f05Ca0fA2"
      },
      {
        "passId": "783",
        "signer": "0x4747f4063460a3c58F866467ce6a00C96CAEcF34"
      },
      {
        "passId": "784",
        "signer": "0x95f27aA21A3C2aC9B7Ff82A72b75DB8aDD30bD63"
      },
      {
        "passId": "785",
        "signer": "0xAa03436219F3C26c8d7e1C79Effad6B1128DAB5B"
      },
      {
        "passId": "786",
        "signer": "0x7EB0C1Ebae6fC59861ccA046F24868cdF8FAbab5"
      },
      {
        "passId": "787",
        "signer": "0x8506334604cc397194148AD2bc8834b352623DDd"
      },
      {
        "passId": "788",
        "signer": "0x0188917B19d1a3671dC26D1b6AbC729e38B51989"
      },
      {
        "passId": "789",
        "signer": "0x60D2C26a63BBC415BB5ac58fE403e1353f1c677F"
      },
      {
        "passId": "790",
        "signer": "0xF1fDa9E015Ab235f06917A7D96Cd4d5e12d35665"
      },
      {
        "passId": "791",
        "signer": "0xC5eA36296495Dea5bA1cBfdc56c28bD4d22b68Eb"
      },
      {
        "passId": "792",
        "signer": "0x5FF7920fec03F011D2FCC7d4758Fe2D5cdfe9C86"
      },
      {
        "passId": "793",
        "signer": "0xF0bc964F0Cd0bE9CAa360C24cDdf05c08dD8714A"
      },
      {
        "passId": "794",
        "signer": "0x50a7669564E1Df19893C41B0E8810148EAa64F27"
      },
      {
        "passId": "795",
        "signer": "0xa6d9Bbcc16b7739F5FD82Ea7d5Ad7999b1E04F71"
      },
      {
        "passId": "796",
        "signer": "0x327d37ba83388b440Bf68E6B182A10Ad146f0Aa2"
      },
      {
        "passId": "797",
        "signer": "0x7226D84267b07A0c87Ac88e2d7EbE166a1583Eb0"
      },
      {
        "passId": "798",
        "signer": "0xB226387FaDF8B403e83DaE59eB2cf5D74814C210"
      },
      {
        "passId": "799",
        "signer": "0xec752B104802a57Db0078BEf61454ec96343Dc5B"
      },
      {
        "passId": "800",
        "signer": "0xaBBC365F549ced0888698fDA1aF793ebeC8652A7"
      },
      {
        "passId": "801",
        "signer": "0x6183c31cA3682BeEab2a36F066bEe76C970b571c"
      },
      {
        "passId": "802",
        "signer": "0x125ebC82dCFCF7D66f67638a6BD4f06CEb0Ad9e9"
      },
      {
        "passId": "803",
        "signer": "0xE4B206E4ab74A6AA95D7C6532987F8998E72F48D"
      },
      {
        "passId": "804",
        "signer": "0x22BE2dDf446F33200E2072F799d05836c64F0ebe"
      },
      {
        "passId": "805",
        "signer": "0x3A677248Ac5d5Bd232B8063c208AAeEE73c78103"
      },
      {
        "passId": "806",
        "signer": "0x3eC003C3A6CDc957862293EAaBc31F3aF1d10783"
      },
      {
        "passId": "807",
        "signer": "0xde80455aFa729C259f2BBE9C1298EF2426266f06"
      },
      {
        "passId": "808",
        "signer": "0x1E3C53D7D416551fcD4D50C03BC49056be66E909"
      },
      {
        "passId": "809",
        "signer": "0x04a3301EF145F726da8C36924A2Deae46a2F98B8"
      },
      {
        "passId": "810",
        "signer": "0x40c86A6635fD4401Bff1B9b18FFdADdE5AAfEa11"
      },
      {
        "passId": "811",
        "signer": "0x3c7C068F52C5152c26E69e87f030A0e53298DA4A"
      },
      {
        "passId": "812",
        "signer": "0x7639e9a239842D6cadc04f94e7F6cd3727328bEF"
      },
      {
        "passId": "813",
        "signer": "0x562d49E58163BEd92A679627cD131d7058b14162"
      },
      {
        "passId": "814",
        "signer": "0x9d7A3F4CfB22135b35AD67F3E3F0f918E4442b03"
      },
      {
        "passId": "815",
        "signer": "0xFd69664eA47d3812bBE8220Caf2b5E3Fa4A25d3c"
      },
      {
        "passId": "816",
        "signer": "0x84Ab6a0d34BD4646Af05Efb88619d3Fd0B9fF13f"
      },
      {
        "passId": "817",
        "signer": "0x000000000000000000000000000000000000dead"
      },
      {
        "passId": "818",
        "signer": "0x000001f568875f378bf6d170b790967fe429c81a"
      },
      {
        "passId": "819",
        "signer": "0x0078c86e12186e2de1ff6fef5f1ada2bffde4ea5"
      },
      {
        "passId": "820",
        "signer": "0x024f1f8b3789bfdf9edb47f58a0d7a3afeaea804"
      },
      {
        "passId": "821",
        "signer": "0x049808d5eaa90a2665b9703d2246dded34f1eb73"
      },
      {
        "passId": "822",
        "signer": "0x05e8074088797c1f9057febf374deee0bc38e894"
      },
      {
        "passId": "823",
        "signer": "0x05ea539365d91df315e8ddd736e90431696fe8c4"
      },
      {
        "passId": "824",
        "signer": "0x09280340849e66948149804cac539cc7227512be"
      },
      {
        "passId": "825",
        "signer": "0x0946bc5c2f9848665cc3811458de403d0a78ad8e"
      },
      {
        "passId": "826",
        "signer": "0x0985224a811e65c235dbf4a2c2117712aabe4e39"
      },
      {
        "passId": "827",
        "signer": "0x0d0aca99686fced8e6fb39134aaed96f09b5283c"
      },
      {
        "passId": "828",
        "signer": "0x0d94b6e4c2aa9383964986020b3534d34885f700"
      },
      {
        "passId": "829",
        "signer": "0x0dd544d0da95666d7c3d38460feb4b5f25eaa515"
      },
      {
        "passId": "830",
        "signer": "0x0ea59c05be4b7149aaed26be764b618ac0255643"
      },
      {
        "passId": "831",
        "signer": "0x10b28ee04853bdd30d1fd7b302fbe5691c144aa0"
      },
      {
        "passId": "832",
        "signer": "0x10f6c58b9dc9603cb24ee9a5220bb4a470781676"
      },
      {
        "passId": "833",
        "signer": "0x12579783fbe8c2645d7a634b238da748405975a2"
      },
      {
        "passId": "834",
        "signer": "0x136c65a3f31682fcf683906ddbf3c76db2633f99"
      },
      {
        "passId": "835",
        "signer": "0x139d9a36ff2b6bfb8558dfbc22486da48c77a396"
      },
      {
        "passId": "836",
        "signer": "0x13b3a50f3947476eda74fe191344524e2d2d28e5"
      },
      {
        "passId": "837",
        "signer": "0x13e46ccd194ca86212236543d2e7376b00bafa42"
      },
      {
        "passId": "838",
        "signer": "0x1423fcc74da82fa03d70fa1f7a122db1ba231783"
      },
      {
        "passId": "839",
        "signer": "0x1436dbffbdde71d16a2c4d23f9116c3158c4d984"
      },
      {
        "passId": "840",
        "signer": "0x1527fa3a0778d574adfe714b7e60c7b2a1bf7c29"
      },
      {
        "passId": "841",
        "signer": "0x1974341df4b113a4c16f3d3f106176dec0e4da67"
      },
      {
        "passId": "842",
        "signer": "0x19b2ba0892da19d09d59e300d11da9edf96654ae"
      },
      {
        "passId": "843",
        "signer": "0x1c062628943a930b805849b494719c7d23c77bd5"
      },
      {
        "passId": "844",
        "signer": "0x1ec9503bbdad721ef3ad485b4b14ce0671dc9925"
      },
      {
        "passId": "845",
        "signer": "0x21c5edc237e95049f92059af6a571fdb700f2b82"
      },
      {
        "passId": "846",
        "signer": "0x2224acd07fd9b269ab5200a9a3df8062624deefb"
      },
      {
        "passId": "847",
        "signer": "0x230eb64900d027dfe372786b3342bd6178ec37d1"
      },
      {
        "passId": "848",
        "signer": "0x273c25abd33eca095e228fde0f15e8f7ec4eb4d9"
      },
      {
        "passId": "849",
        "signer": "0x27d9b6692ec1fb802cc8ceef74270ca4b448076a"
      },
      {
        "passId": "850",
        "signer": "0x290420874bf65691b98b67d042c06bbc31f85f11"
      },
      {
        "passId": "851",
        "signer": "0x2993db31d165c33d848e44a1c26a805ba411d324"
      },
      {
        "passId": "852",
        "signer": "0x2d2c46d26c8fec693586e067c4fc2b2ddc2b4cb3"
      },
      {
        "passId": "853",
        "signer": "0x2d79097b9e4c4f41654b2c91c39fd2c97af00c76"
      },
      {
        "passId": "854",
        "signer": "0x2de2299db048a9e3b8d1934b8dae11b8041cc4fd"
      },
      {
        "passId": "855",
        "signer": "0x2e50783188e23742dd3168682e39381ff5fa9731"
      },
      {
        "passId": "856",
        "signer": "0x2e699391d1b3b8577557b4c0ef6a1d9e8a394f04"
      },
      {
        "passId": "857",
        "signer": "0x308bff328370fc4a9683ab9fcd79a21be6dc5ee4"
      },
      {
        "passId": "858",
        "signer": "0x342c6bfa287ce37b8b53eee0e5b6e6bcbea98c76"
      },
      {
        "passId": "859",
        "signer": "0x362f020fd4420c317e7a0722994ba8bc3380d0e8"
      },
      {
        "passId": "860",
        "signer": "0x3668a20653316a7dd85342f64a4c984d146cadfe"
      },
      {
        "passId": "861",
        "signer": "0x37b699d7eead58433d352d1c77b2db1391f11ce5"
      },
      {
        "passId": "862",
        "signer": "0x3ad353e2845b96fb1b58c1ca6cda46b870de8d6f"
      },
      {
        "passId": "863",
        "signer": "0x3d14410609731ec7924ea8b1f13de544bb46a9a6"
      },
      {
        "passId": "864",
        "signer": "0x4011d09a86d0aca8377a4a8bad691f1aceecd672"
      },
      {
        "passId": "865",
        "signer": "0x41a7276167b80da8815df5b0ddaba3be29984250"
      },
      {
        "passId": "866",
        "signer": "0x44dc2ec15b3483fc8590f6b396cea5f8f2fbf3bd"
      },
      {
        "passId": "867",
        "signer": "0x4530307f98208d3bd5b9631880bc7351770c8810"
      },
      {
        "passId": "868",
        "signer": "0x4a1d757699ab73dd4b48b15049b6f1479b2f3511"
      },
      {
        "passId": "869",
        "signer": "0x4b0bd713574e67a97b3ff8f647f329794a2cbb64"
      },
      {
        "passId": "870",
        "signer": "0x4d03a186b3c7d039ff9a212cd8e81dc34a670b35"
      },
      {
        "passId": "871",
        "signer": "0x4de4a829d42191007431d608775430f3ab072082"
      },
      {
        "passId": "872",
        "signer": "0x4e012d25472225f3385baa43ed64dfec5885c51d"
      },
      {
        "passId": "873",
        "signer": "0x4ffb72b66eba24521736924f87dfe10677d82286"
      },
      {
        "passId": "874",
        "signer": "0x50f27cdb650879a41fb07038bf2b818845c20e17"
      },
      {
        "passId": "875",
        "signer": "0x5285ac85a979b612f5c5320961311bba099670f0"
      },
      {
        "passId": "876",
        "signer": "0x530cf036ed4fa58f7301a9c788c9806624cefd19"
      },
      {
        "passId": "877",
        "signer": "0x5310a9b64847c1b927f823a4bc8836e93f09dc78"
      },
      {
        "passId": "878",
        "signer": "0x54463aae905082c678708bb6c25226eb8f38d5a6"
      },
      {
        "passId": "879",
        "signer": "0x562bf1b67dc40d9b7c3ddd49e45ae58e61e1b76e"
      },
      {
        "passId": "880",
        "signer": "0x568b491fb2b4b9440f6d05e7723df0060fdaef1c"
      },
      {
        "passId": "881",
        "signer": "0x5b158f897f5ace2afefaf7ace8ce0cdbbbc9168a"
      },
      {
        "passId": "882",
        "signer": "0x5ba02f4ff6af1d9d2af8774d10fd32eb57d4e2e6"
      },
      {
        "passId": "883",
        "signer": "0x5bd685375c21375165438ca7f3eae7ec4fade8c5"
      },
      {
        "passId": "884",
        "signer": "0x5d9e720a1c16b98ab897165803c4d96e8060b8e4"
      },
      {
        "passId": "885",
        "signer": "0x5e01d9928ea32d1d3ae2f3263b6ec6c165dc2d76"
      },
      {
        "passId": "886",
        "signer": "0x5ee42438d0d8fc399c94ef3543665e993e847b49"
      },
      {
        "passId": "887",
        "signer": "0x5f8e56d7f3642dd8783774460da2d3a7c54aacda"
      },
      {
        "passId": "888",
        "signer": "0x5fb8b9512684d451d4e585a1a0aabfb48a253c67"
      },
      {
        "passId": "889",
        "signer": "0x6186290b28d511bff971631c916244a9fc539cfe"
      },
      {
        "passId": "890",
        "signer": "0x62f099a34f01d57c67a100851184bea0d48b45f6"
      },
      {
        "passId": "891",
        "signer": "0x63244b5f1ebcb999ea012da652dffee6653bf8f5"
      },
      {
        "passId": "892",
        "signer": "0x64e00561fa9b1f2f2048b2d4f571279689dd9541"
      },
      {
        "passId": "893",
        "signer": "0x65565244e5700b85c90358468faf37c85db55099"
      },
      {
        "passId": "894",
        "signer": "0x6584b48ccebd9c3e4413a1dd4cdbc38b2500cdf3"
      },
      {
        "passId": "895",
        "signer": "0x65d88c64b01b9481352fa8a68b54ed1b3b687388"
      },
      {
        "passId": "896",
        "signer": "0x663d3947f03ef5b387992b880ac85940057c13e3"
      },
      {
        "passId": "897",
        "signer": "0x67c3097a968db89610825976ec9a5976a966c044"
      },
      {
        "passId": "898",
        "signer": "0x68016f094ebb7b55b04372af335455854b0e2eb6"
      },
      {
        "passId": "899",
        "signer": "0x6854dc5c9e3d3ce0b9dd7250d866908515465dc6"
      },
      {
        "passId": "900",
        "signer": "0x686e960ebd9aceb1771850444d4d3a7810a0dac9"
      },
      {
        "passId": "901",
        "signer": "0x6d7fd0438219c0f753a1ccf7c4885bb6cb260999"
      },
      {
        "passId": "902",
        "signer": "0x704c978d50590b21e4c2f43eb4da24fe61fcd707"
      },
      {
        "passId": "903",
        "signer": "0x73e60cd967e957bc6e074f93320ffa1d52697d5b"
      },
      {
        "passId": "904",
        "signer": "0x75331ebbe0b00b97cab532384f13c9b479f074ec"
      },
      {
        "passId": "905",
        "signer": "0x75ef2eff7b12f5f900ef5c787036deab18423d1a"
      },
      {
        "passId": "906",
        "signer": "0x78885686feec340ab544428f161e7d621f520e29"
      },
      {
        "passId": "907",
        "signer": "0x79bebfcb560141f22959c62bbd2930d5c7e35d30"
      },
      {
        "passId": "908",
        "signer": "0x79fd2f15e0ea8c27b5192259f9da63f4e562f021"
      },
      {
        "passId": "909",
        "signer": "0x7a824bea2bed9399a68cd0e340224809521c81d9"
      },
      {
        "passId": "910",
        "signer": "0x7d6a8ffcaf98cac58340329b3a91759888cb1363"
      },
      {
        "passId": "911",
        "signer": "0x7e7a55b11dd9a02b4da169620adfc36b930100fc"
      },
      {
        "passId": "912",
        "signer": "0x80d0d54050c15971b21e877d95441800f5aa9ee8"
      },
      {
        "passId": "913",
        "signer": "0x8177598e08ee8199c160a48c7a0af31ab54bb59f"
      },
      {
        "passId": "914",
        "signer": "0x82410609593d876761681580cf304c794bd58d09"
      },
      {
        "passId": "915",
        "signer": "0x826f63afd9517364cbebe91a859f10b102505a40"
      },
      {
        "passId": "916",
        "signer": "0x836ef81a58e5565b8d1d555ec8e9a5c2792511c6"
      },
      {
        "passId": "917",
        "signer": "0x83d3c179e7906e7f6755658c70e106f1ed3c5782"
      },
      {
        "passId": "918",
        "signer": "0x84eeb7db3f93feb5a8a98f56dabb970a6797c187"
      },
      {
        "passId": "919",
        "signer": "0x865c2f85c9fea1c6ac7f53de07554d68cb92ed88"
      },
      {
        "passId": "920",
        "signer": "0x8725be0bb6ea759d10fbb52fedecc7dcd6890072"
      },
      {
        "passId": "921",
        "signer": "0x87dfef3b445667292aac89078b51f0f75795805f"
      },
      {
        "passId": "922",
        "signer": "0x88906af7616f88f610d1e479325a5c5f93ba1e2c"
      },
      {
        "passId": "923",
        "signer": "0x8a53b8b59877df193c6dae7b8d1d38251af563cf"
      },
      {
        "passId": "924",
        "signer": "0x8b5e90aa714c967efc8c286f46ce0fc822e1cfb0"
      },
      {
        "passId": "925",
        "signer": "0x8c0c3c60118b24b31806eae82ab4186821bf23f1"
      },
      {
        "passId": "926",
        "signer": "0x8c2e67bd3d0f432ef75d9ae6623cd0dfbce66050"
      },
      {
        "passId": "927",
        "signer": "0x8dc9d43df20681cd62ca0acb24ae7ce2794f835d"
      },
      {
        "passId": "928",
        "signer": "0x8df55ecf2c261b44d079302dc95327fe32f74eed"
      },
      {
        "passId": "929",
        "signer": "0x8ebbf8f59b7b7849e359f7e1cc395df6741c24b9"
      },
      {
        "passId": "930",
        "signer": "0x92e7faa1c7b1cf703e3cda42183978f16fa15713"
      },
      {
        "passId": "931",
        "signer": "0x932a824a4d3d0680e0b352de150e6f212b8ac841"
      },
      {
        "passId": "932",
        "signer": "0x95a4350e1cb5e795d3ebe8bee63d9183de5449d1"
      },
      {
        "passId": "933",
        "signer": "0x96dc89dbe84970ee42a2f0b35fb50599e6745ff8"
      },
      {
        "passId": "934",
        "signer": "0x975ab68d4c15d6db02e101d5be03c5b49b9a3282"
      },
      {
        "passId": "935",
        "signer": "0x9de0b0402258a6a562331da7b3c13b29578789c4"
      },
      {
        "passId": "936",
        "signer": "0x9fc6d6c7326585fd3c2a743a1f505990d6e9df3f"
      },
      {
        "passId": "937",
        "signer": "0xa0863e36c30f4974a3a0e2cfc2802513cfaa22f1"
      },
      {
        "passId": "938",
        "signer": "0xa0a6dc36041fb386378458006fecbddd02555ddd"
      },
      {
        "passId": "939",
        "signer": "0xa0d71d516c6149c958c489ab24223c99f5df906f"
      },
      {
        "passId": "940",
        "signer": "0xa0f838d02983161ee469bff969964b7051ac1cd9"
      },
      {
        "passId": "941",
        "signer": "0xa596370bc21dee36872b98009dfbbf465dbfefa3"
      },
      {
        "passId": "942",
        "signer": "0xa5975974cac3fefd831e42bdd2fe84cb5ee3b3de"
      },
      {
        "passId": "943",
        "signer": "0xa6157b7bb7ec05e2b6feafd686797f9ea05411cc"
      },
      {
        "passId": "944",
        "signer": "0xa6f4fa9840aa6825446c820af6d5eccf9f78ba05"
      },
      {
        "passId": "945",
        "signer": "0xa77d9227eee861e01519548b6000acca8600eebe"
      },
      {
        "passId": "946",
        "signer": "0xa7d9f4fd84cdd4bee564adc1b18e3e8aa79d25f1"
      },
      {
        "passId": "947",
        "signer": "0xa88e4a192f3ff5e46dcc96efefb38dfec7bb250c"
      },
      {
        "passId": "948",
        "signer": "0xab2f02d8d409ee4f67fdda5aac5ca7a64a897271"
      },
      {
        "passId": "949",
        "signer": "0xac75cdc34283406b050cadf4ea5902a9310b138e"
      },
      {
        "passId": "950",
        "signer": "0xad9f9194c68bd83250a534a7da574687e1f102ff"
      },
      {
        "passId": "951",
        "signer": "0xae8ce6bb2b95684f57c097b407f4e9b55d9ca432"
      },
      {
        "passId": "952",
        "signer": "0xaee2f40fe0568bd859bc6a518c7ef3252fdc9bf0"
      },
      {
        "passId": "953",
        "signer": "0xaf5cb828389bd6413e7bcd00ed2dcf2bdc1a015a"
      },
      {
        "passId": "954",
        "signer": "0xaf8fbf59e221d27b55dc3adc2366f9230bcf5096"
      },
      {
        "passId": "955",
        "signer": "0xb29b1936c11b77cec6061a9daf765ee2666c8f77"
      },
      {
        "passId": "956",
        "signer": "0xb347b5b99c49ce6c555071a1f0498c81511ad977"
      },
      {
        "passId": "957",
        "signer": "0xb3522064694ac9870dbf00eebc2712762193bb64"
      },
      {
        "passId": "958",
        "signer": "0xb353268ce17d2c7f0f4f8aff152e548c43633df5"
      },
      {
        "passId": "959",
        "signer": "0xb66190f67ed8f0ca790ddfe541ee1bd0da53fe70"
      },
      {
        "passId": "960",
        "signer": "0xb7f9f538aa1b41ae2853eb63f1939187ffe70eb4"
      },
      {
        "passId": "961",
        "signer": "0xbb46c6e4d8a59520fbb11638c2d1228cc65f5a6c"
      },
      {
        "passId": "962",
        "signer": "0xbc10a3ae909b1b94f4c3e39607ad19d386dce32a"
      },
      {
        "passId": "963",
        "signer": "0xbd12aa424c207e90b66402c1f0aec357e8b1ded7"
      },
      {
        "passId": "964",
        "signer": "0xbe5be517537e53f09e88bcdf61da238477dca226"
      },
      {
        "passId": "965",
        "signer": "0xbeeef66749b64afe43bbc9475635eb510cfe4922"
      },
      {
        "passId": "966",
        "signer": "0xbf1ed1ea654ad49472daedc21a31c8d28e6bb790"
      },
      {
        "passId": "967",
        "signer": "0xbfdb50dc66c8df9fd9688d8fe5a0c34126427645"
      },
      {
        "passId": "968",
        "signer": "0xc09d3402515676b81a2f768c365146ea3faa5605"
      },
      {
        "passId": "969",
        "signer": "0xc0e5e14bdecd9ed6954a9e14c74e97cebd91bb94"
      },
      {
        "passId": "970",
        "signer": "0xc169699a825066f2f07e0b29c4082094b32a3f3e"
      },
      {
        "passId": "971",
        "signer": "0xc3a67c1437353bdc9c53060235a34018711de0cf"
      },
      {
        "passId": "972",
        "signer": "0xc42c694d0215b27bce1a871a4a2ad38cf0120a82"
      },
      {
        "passId": "973",
        "signer": "0xc555347d2b369b074be94fe6f7ae9ab43966b884"
      },
      {
        "passId": "974",
        "signer": "0xc665a60f22dda926b920deb8ffac0ef9d8a17460"
      },
      {
        "passId": "975",
        "signer": "0xc8286a9bf1f9bf8f3006fa014915c78b7e75111c"
      },
      {
        "passId": "976",
        "signer": "0xc8bace82793074fad3337424bdb84e306b2f8a44"
      },
      {
        "passId": "977",
        "signer": "0xc9a009bed9ed8a32499e18c20f7cd12132c8d6cb"
      },
      {
        "passId": "978",
        "signer": "0xca11d10ceb098f597a0cab28117fc3465991a63c"
      },
      {
        "passId": "979",
        "signer": "0xcbd2f544073eb35b59a8eb19194a222a5361cd74"
      },
      {
        "passId": "980",
        "signer": "0xcda685c8444f659ac3fe778f8d143aabdf1a21ab"
      },
      {
        "passId": "981",
        "signer": "0xcea78aaa93e917fb5e1802901db2b20aa4411b44"
      },
      {
        "passId": "982",
        "signer": "0xcef871b113d2bb5d3fa5dc96d2d288dd38082aae"
      },
      {
        "passId": "983",
        "signer": "0xcf680fb77c12e2aa2dec82f3ae0c0e527f549fe2"
      },
      {
        "passId": "984",
        "signer": "0xd1eddfcc4596cc8bd0bd7495beab9b979fc50336"
      },
      {
        "passId": "985",
        "signer": "0xd286064cc27514b914bab0f2fad2e1a89a91f314"
      },
      {
        "passId": "986",
        "signer": "0xd3e64b9dea13e4840a0da20965bd0ca37d05a12a"
      },
      {
        "passId": "987",
        "signer": "0xd651e2c626ee210fc38676124d5007ac822ad749"
      },
      {
        "passId": "988",
        "signer": "0xd657860fc512ec2250a7385a353f599e3276fddb"
      },
      {
        "passId": "989",
        "signer": "0xd6e02c13a6cc133c9d019495414667ea7bee05cc"
      },
      {
        "passId": "990",
        "signer": "0xdc190d7cea8e8bf0b381617062200c10cfff0a91"
      },
      {
        "passId": "991",
        "signer": "0xdd6c81d6d587e2d49eaadffb4ce380564046002a"
      },
      {
        "passId": "992",
        "signer": "0xddb92a96054132801cae3943b2f966fc2c308ac8"
      },
      {
        "passId": "993",
        "signer": "0xdde3ca351d85a4b4cc6aff8d42c0840959859053"
      },
      {
        "passId": "994",
        "signer": "0xe120ed22a0cd12d5de6122aa7d5b6d93ac218b49"
      },
      {
        "passId": "995",
        "signer": "0xe20adb03a470b5573bf572dd918e052d0d17866e"
      },
      {
        "passId": "996",
        "signer": "0xe363c2fba75cbd27487b17430e1efbdd2add374e"
      },
      {
        "passId": "997",
        "signer": "0xe5a3d77d7788a83f3549dd7f08fc2aced7e262d2"
      },
      {
        "passId": "998",
        "signer": "0xe66e1e9e37e4e148b21eb22001431818e980d060"
      },
      {
        "passId": "999",
        "signer": "0xe7bd51dc30d4bdc9fddd42ea7c0a283590c9d416"
      },
      {
        "passId": "1000",
        "signer": "0xeb42cd8a1fe1ff556960a9a03ca29aa13f8aa838"
      },
      {
        "passId": "1001",
        "signer": "0xed0f30677c760ea8f0bff70c76eafc79d5f7c3c8"
      },
      {
        "passId": "1002",
        "signer": "0xeddd55a234240042695d7430bf0a09b9038a26ad"
      },
      {
        "passId": "1003",
        "signer": "0xee4d308cc1cde3dd0adcb5a2c85edff22db64918"
      },
      {
        "passId": "1004",
        "signer": "0xee9439a12a7c2a9b6600ca8a498620580d2f116e"
      },
      {
        "passId": "1005",
        "signer": "0xeeaf61935c0c48f8f8cc28c381683d7fa2f75e1c"
      },
      {
        "passId": "1006",
        "signer": "0xef1271ae97bc1a1b356ab697e9ed0d1d4e05fcda"
      },
      {
        "passId": "1007",
        "signer": "0xf19bc58f747d6ea11959bf2a0fa81e53285546ac"
      },
      {
        "passId": "1008",
        "signer": "0xf1e1c701b49b1dc2405a9e8ef40f9f88802b80fa"
      },
      {
        "passId": "1009",
        "signer": "0xf2b15320db6992ba49a7563e50e888c20edcbe3c"
      },
      {
        "passId": "1010",
        "signer": "0xf341c3abb49feb96b4822e68227b54c6fb9f6318"
      },
      {
        "passId": "1011",
        "signer": "0xf3493f6812b1f22b40f8539db2510e13ac251f96"
      },
      {
        "passId": "1012",
        "signer": "0xf3b1b6e83be4d55695f1d30ac3d307d9d5ca98ff"
      },
      {
        "passId": "1013",
        "signer": "0xf464d1a37d8ef9449722f44a4eeb715c0e0acdb3"
      },
      {
        "passId": "1014",
        "signer": "0xf6910d47fbb1f5518d60c721d4189936ecd5a1b6"
      },
      {
        "passId": "1015",
        "signer": "0xf73c935815908ad9a056fc50269f95d8ba032e9d"
      },
      {
        "passId": "1016",
        "signer": "0xf78cd306b23031de9e739a5bcde61764e82ad5ef"
      },
      {
        "passId": "1017",
        "signer": "0xf942040710bedf7220beb24b220631c2255e87f1"
      },
      {
        "passId": "1018",
        "signer": "0xf943e1d2db38db468f66a79b08ec23f8c4375ce3"
      },
      {
        "passId": "1019",
        "signer": "0xfa46dedf812c5803b1e2cea10eef3f27dafeca56"
      },
      {
        "passId": "1020",
        "signer": "0xfa9f104f338846b38b083c9e567ff6bbe43ab5f7"
      },
      {
        "passId": "1021",
        "signer": "0xfd12799b9fb97dc61d9ad7ad4ffba5624004bc62"
      },
      {
        "passId": "1022",
        "signer": "0xfe1e7dc61721f34a25c9eb4dc1a1a8f352c923ef"
      },
      {
        "passId": "1023",
        "signer": "0xfffff6e70842330948ca47254f2be673b1cb0db7"
      }
    ],
    "publicSaleTimestamp": 1637840641,
    "deploymentCost": 0,
    "percentageForCreator": 2446,
    "price": "100000000000000000"
  },
  "solcInputHash": "57b0c679cfa11deaf51e4a5214cf9fc4",
  "bytecode": "0x6101c06040523480156200001257600080fd5b50604051620024823803806200248283398101604081905262000035916200009e565b6001600160a01b039b8c16608052958b1660a05260c09490945291891660e05260005590961661010052610120959095526101409390935261016091909152610180526101a05260015562000159565b6001600160a01b03811681146200009b57600080fd5b50565b6000806000806000806000806000806000806101808d8f031215620000c257600080fd5b8c51620000cf8162000085565b809c505060208d01519a5060408d0151995060608d0151985060808d0151975060a08d0151620000ff8162000085565b60c08e015160e08f01519198509650620001198162000085565b6101008e01516101208f01519196509450620001358162000085565b809350506101408d015191506101608d015190509295989b509295989b509295989b565b60805160a05160c05160e05161010051610120516101405161016051610180516101a0516122136200026f60003960008181610376015281816105b20152610fef0152600081816103530152818161041101528181610591015281816106110152818161071f015261116e01526000818161033001528181610570015261119601526000818161030d0152818161054f01526111bc015260008181610399015281816105d3015281816111e2015261121e01526000610ca20152600061184701526000818161175501526117830152600081816107cd015281816109fd01528181611679015281816116f201526117cf01526000818161023e0152818161098501528181610c0d015261135301526122136000f3fe6080604052600436106100b15760003560e01c8063990b0f6011610069578063ca9dca041161004e578063ca9dca04146101ce578063d93459b6146101ee578063e957a3811461020e57600080fd5b8063990b0f601461019b5780639c205513146101bb57600080fd5b80632558e9331161009a5780632558e933146101245780636d048d53146101395780637361a72e1461018857600080fd5b80630ccc797f146100b65780632228adcc146100f4575b600080fd5b3480156100c257600080fd5b506100d66100d1366004611a5c565b61022e565b6040516100eb99989796959493929190611ab8565b60405180910390f35b34801561010057600080fd5b5061011461010f366004611b54565b6103e5565b60405190151581526020016100eb565b610137610132366004611c91565b61040f565b005b34801561014557600080fd5b50610159610154366004611d93565b610544565b6040805196875260208701959095529385019290925260608401526080830152151560a082015260c0016100eb565b610137610196366004611db0565b61060f565b3480156101a757600080fd5b506101146101b6366004611b54565b6106d2565b6101376101c9366004611e1a565b61071d565b3480156101da57600080fd5b506101376101e9366004611e1a565b6107b5565b3480156101fa57600080fd5b50610137610209366004611e51565b6109e5565b34801561021a57600080fd5b50610114610229366004611b54565b610c7d565b60606000806000806000806000807f000000000000000000000000000000000000000000000000000000000000000073ffffffffffffffffffffffffffffffffffffffff1663a0554c268c8c6040518363ffffffff1660e01b8152600401610297929190611ea8565b60006040518083038186803b1580156102af57600080fd5b505afa1580156102c3573d6000803e3d6000fd5b505050506040513d6000823e601f3d9081017fffffffffffffffffffffffffffffffffffffffffffffffffffffffffffffffe01682016040526103099190810190611efd565b98507f000000000000000000000000000000000000000000000000000000000000000097507f000000000000000000000000000000000000000000000000000000000000000096507f000000000000000000000000000000000000000000000000000000000000000095507f000000000000000000000000000000000000000000000000000000000000000094507f000000000000000000000000000000000000000000000000000000000000000093506103c38d610c9b565b92506103ce8c6106d2565b915060015490509499509499509499509499909550565b6000806103f76010600685901c611fc6565b905080600714806104085750806008145b9392505050565b7f00000000000000000000000000000000000000000000000000000000000000004210156105335761044083610e04565b60006104ab83858760405160200161048792919091825260601b7fffffffffffffffffffffffffffffffffffffffff00000000000000000000000016602082015260340190565b60405160208183030381529060405280519060200120610ec290919063ffffffff16565b905060006104b98583610ee6565b90506104c58382610f47565b610530576040517f08c379a000000000000000000000000000000000000000000000000000000000815260206004820152600d60248201527f494e56414c49445f50524f4f460000000000000000000000000000000000000060448201526064015b60405180910390fd5b50505b61053d8585611014565b5050505050565b6000806000806000807f00000000000000000000000000000000000000000000000000000000000000007f00000000000000000000000000000000000000000000000000000000000000007f00000000000000000000000000000000000000000000000000000000000000007f00000000000000000000000000000000000000000000000000000000000000007f00000000000000000000000000000000000000000000000000000000000000006105fb8c610c9b565b949c939b5091995097509550909350915050565b7f00000000000000000000000000000000000000000000000000000000000000004210156106c25761064082610e04565b33600061064d8483610ee6565b90506106598382610f47565b6106bf576040517f08c379a000000000000000000000000000000000000000000000000000000000815260206004820152600d60248201527f494e56414c49445f50524f4f46000000000000000000000000000000000000006044820152606401610527565b50505b6106cc8484611014565b50505050565b6000806106e161010084612009565b905060006106f18261010061201d565b6106fb908561205a565b60009283526002602052604090922054600190921b9182169091149392505050565b7f00000000000000000000000000000000000000000000000000000000000000004210156107a7576040517f08c379a000000000000000000000000000000000000000000000000000000000815260206004820152601460248201527f524551554952455f504153535f4f525f574149540000000000000000000000006044820152606401610527565b6107b18282611014565b5050565b3373ffffffffffffffffffffffffffffffffffffffff7f00000000000000000000000000000000000000000000000000000000000000001614610854576040517f08c379a000000000000000000000000000000000000000000000000000000000815260206004820152600e60248201527f4e4f545f415554484f52495a45440000000000000000000000000000000000006044820152606401610527565b6102408261ffff16106108c3576040517f08c379a000000000000000000000000000000000000000000000000000000000815260206004820152600d60248201527f494e56414c49445f534f554e44000000000000000000000000000000000000006044820152606401610527565b6108d08261ffff166103e5565b610936576040517f08c379a000000000000000000000000000000000000000000000000000000000815260206004820152600c60248201527f4e4f545f524553455256454400000000000000000000000000000000000000006044820152606401610527565b6040517f9c20551300000000000000000000000000000000000000000000000000000000815261ffff8316600482015273ffffffffffffffffffffffffffffffffffffffff82811660248301527f00000000000000000000000000000000000000000000000000000000000000001690639c20551390604401600060405180830381600087803b1580156109c957600080fd5b505af11580156109dd573d6000803e3d6000fd5b505050505050565b3373ffffffffffffffffffffffffffffffffffffffff7f00000000000000000000000000000000000000000000000000000000000000001614610a84576040517f08c379a000000000000000000000000000000000000000000000000000000000815260206004820152600e60248201527f4e4f545f415554484f52495a45440000000000000000000000000000000000006044820152606401610527565b60005b82811015610bcf57610240848483818110610aa457610aa4612071565b9050602002016020810190610ab991906120a0565b61ffff1610610b24576040517f08c379a000000000000000000000000000000000000000000000000000000000815260206004820152600d60248201527f494e56414c49445f534f554e44000000000000000000000000000000000000006044820152606401610527565b610b57848483818110610b3957610b39612071565b9050602002016020810190610b4e91906120a0565b61ffff166103e5565b610bbd576040517f08c379a000000000000000000000000000000000000000000000000000000000815260206004820152600c60248201527f4e4f545f524553455256454400000000000000000000000000000000000000006044820152606401610527565b80610bc7816120bb565b915050610a87565b506040517fe2ea128800000000000000000000000000000000000000000000000000000000815273ffffffffffffffffffffffffffffffffffffffff7f0000000000000000000000000000000000000000000000000000000000000000169063e2ea128890610c46908690869086906004016120f4565b600060405180830381600087803b158015610c6057600080fd5b505af1158015610c74573d6000803e3d6000fd5b50505050505050565b600080610c8f6010600685901c611fc6565b60015410159392505050565b60008060007f000000000000000000000000000000000000000000000000000000000000000073ffffffffffffffffffffffffffffffffffffffff1684604051602401610d04919073ffffffffffffffffffffffffffffffffffffffff91909116815260200190565b604080517fffffffffffffffffffffffffffffffffffffffffffffffffffffffffffffffe08184030181529181526020820180517bffffffffffffffffffffffffffffffffffffffffffffffffffffffff167f70a082310000000000000000000000000000000000000000000000000000000017905251610d85919061215a565b600060405180830381855afa9150503d8060008114610dc0576040519150601f19603f3d011682016040523d82523d6000602084013e610dc5565b606091505b50915091506000828015610dda575060008251115b610de5576000610df9565b81806020019051810190610df99190612195565b151595945050505050565b6000610e1261010083612009565b90506000610e228261010061201d565b610e2c908461205a565b600083815260026020526040902054600190911b915080821615610eac576040517f08c379a000000000000000000000000000000000000000000000000000000000815260206004820152601160248201527f504153535f414c52454144595f555345440000000000000000000000000000006044820152606401610527565b6000928352600260205260409092209117905550565b6000806000610ed18585611382565b91509150610ede816113f2565b509392505050565b60008282604051602001610f2992919091825260601b7fffffffffffffffffffffffffffffffffffffffff00000000000000000000000016602082015260340190565b60405160208183030381529060405280519060200120905092915050565b6000805b8351811015610feb576000848281518110610f6857610f68612071565b6020026020010151905080841015610fab576040805160208101869052908101829052606001604051602081830303815290604052805190602001209350610fd8565b60408051602081018390529081018590526060016040516020818303038152906040528051906020012093505b5080610fe3816120bb565b915050610f4b565b50507f000000000000000000000000000000000000000000000000000000000000000014919050565b6102408261ffff1610611083576040517f08c379a000000000000000000000000000000000000000000000000000000000815260206004820152600d60248201527f494e56414c49445f534f554e44000000000000000000000000000000000000006044820152606401610527565b6110908261ffff16610c7d565b6110f6576040517f08c379a000000000000000000000000000000000000000000000000000000000815260206004820152601b60248201527f494e535455524d454e545f4e4f545f5945545f464f525f53414c4500000000006044820152606401610527565b6111038261ffff166103e5565b1561116a576040517f08c379a000000000000000000000000000000000000000000000000000000000815260206004820152600860248201527f52455345525645440000000000000000000000000000000000000000000000006044820152606401610527565b60007f00000000000000000000000000000000000000000000000000000000000000004210156111ba577f00000000000000000000000000000000000000000000000000000000000000006111dc565b7f00000000000000000000000000000000000000000000000000000000000000005b905060007f0000000000000000000000000000000000000000000000000000000000000000118015611212575061121233610c9b565b1561125a5760646112437f00000000000000000000000000000000000000000000000000000000000000008361201d565b61124d9190612009565b611257908261205a565b90505b803410156112c4576040517f08c379a000000000000000000000000000000000000000000000000000000000815260206004820152600a60248201527f4e4f545f454e4f554748000000000000000000000000000000000000000000006044820152606401610527565b336108fc6112d2833461205a565b6040518115909202916000818181858888f193505050501580156112fa573d6000803e3d6000fd5b506113048161164e565b6040517f9c20551300000000000000000000000000000000000000000000000000000000815261ffff8416600482015273ffffffffffffffffffffffffffffffffffffffff83811660248301527f00000000000000000000000000000000000000000000000000000000000000001690639c20551390604401610c46565b6000808251604114156113b95760208301516040840151606085015160001a6113ad87828585611895565b945094505050506113eb565b8251604014156113e357602083015160408401516113d88683836119ad565b9350935050506113eb565b506000905060025b9250929050565b6000816004811115611406576114066121ae565b141561140f5750565b6001816004811115611423576114236121ae565b141561148b576040517f08c379a000000000000000000000000000000000000000000000000000000000815260206004820152601860248201527f45434453413a20696e76616c6964207369676e617475726500000000000000006044820152606401610527565b600281600481111561149f5761149f6121ae565b1415611507576040517f08c379a000000000000000000000000000000000000000000000000000000000815260206004820152601f60248201527f45434453413a20696e76616c6964207369676e6174757265206c656e677468006044820152606401610527565b600381600481111561151b5761151b6121ae565b14156115a9576040517f08c379a000000000000000000000000000000000000000000000000000000000815260206004820152602260248201527f45434453413a20696e76616c6964207369676e6174757265202773272076616c60448201527f75650000000000000000000000000000000000000000000000000000000000006064820152608401610527565b60048160048111156115bd576115bd6121ae565b141561164b576040517f08c379a000000000000000000000000000000000000000000000000000000000815260206004820152602260248201527f45434453413a20696e76616c6964207369676e6174757265202776272076616c60448201527f75650000000000000000000000000000000000000000000000000000000000006064820152608401610527565b50565b600054801561174d57808211156116d85760405173ffffffffffffffffffffffffffffffffffffffff7f0000000000000000000000000000000000000000000000000000000000000000169082156108fc029083906000818181858888f193505050501580156116c2573d6000803e3d6000fd5b506116cd818361205a565b60008055915061174d565b60405173ffffffffffffffffffffffffffffffffffffffff7f0000000000000000000000000000000000000000000000000000000000000000169083156108fc029084906000818181858888f1935050505015801561173b573d6000803e3d6000fd5b50611746828261205a565b6000555050565b81156107b1577f0000000000000000000000000000000000000000000000000000000000000000156118275760006127106117a87f00000000000000000000000000000000000000000000000000000000000000008561201d565b6117b29190612009565b60405190915073ffffffffffffffffffffffffffffffffffffffff7f0000000000000000000000000000000000000000000000000000000000000000169082156108fc029083906000818181858888f19350505050158015611818573d6000803e3d6000fd5b50611823818461205a565b9250505b81156107b15760405173ffffffffffffffffffffffffffffffffffffffff7f0000000000000000000000000000000000000000000000000000000000000000169083156108fc029084906000818181858888f19350505050158015611890573d6000803e3d6000fd5b505050565b6000807f7fffffffffffffffffffffffffffffff5d576e7357a4501ddfe92f46681b20a08311156118cc57506000905060036119a4565b8460ff16601b141580156118e457508460ff16601c14155b156118f557506000905060046119a4565b6040805160008082526020820180845289905260ff881692820192909252606081018690526080810185905260019060a0016020604051602081039080840390855afa158015611949573d6000803e3d6000fd5b50506040517fffffffffffffffffffffffffffffffffffffffffffffffffffffffffffffffe0015191505073ffffffffffffffffffffffffffffffffffffffff811661199d576000600192509250506119a4565b9150600090505b94509492505050565b6000807f7fffffffffffffffffffffffffffffffffffffffffffffffffffffffffffffff831660ff84901c601b016119e787828885611895565b935093505050935093915050565b73ffffffffffffffffffffffffffffffffffffffff8116811461164b57600080fd5b60008083601f840112611a2957600080fd5b50813567ffffffffffffffff811115611a4157600080fd5b6020830191508360208260051b85010111156113eb57600080fd5b60008060008060608587031215611a7257600080fd5b8435611a7d816119f5565b935060208501359250604085013567ffffffffffffffff811115611aa057600080fd5b611aac87828801611a17565b95989497509550505050565b6101208082528a51908201819052600090610140830190602090818e01845b82811015611b0957815173ffffffffffffffffffffffffffffffffffffffff1685529383019390830190600101611ad7565b5050508192508b8185015250508860408301528760608301528660808301528560a0830152611b3c60c083018615159052565b92151560e08201526101000152979650505050505050565b600060208284031215611b6657600080fd5b5035919050565b803561ffff81168114611b7f57600080fd5b919050565b7f4e487b7100000000000000000000000000000000000000000000000000000000600052604160045260246000fd5b604051601f82017fffffffffffffffffffffffffffffffffffffffffffffffffffffffffffffffe016810167ffffffffffffffff81118282101715611bfa57611bfa611b84565b604052919050565b600067ffffffffffffffff821115611c1c57611c1c611b84565b5060051b60200190565b600082601f830112611c3757600080fd5b81356020611c4c611c4783611c02565b611bb3565b82815260059290921b84018101918181019086841115611c6b57600080fd5b8286015b84811015611c865780358352918301918301611c6f565b509695505050505050565b600080600080600060a08688031215611ca957600080fd5b611cb286611b6d565b9450602080870135611cc3816119f5565b945060408701359350606087013567ffffffffffffffff80821115611ce757600080fd5b818901915089601f830112611cfb57600080fd5b813581811115611d0d57611d0d611b84565b611d3d847fffffffffffffffffffffffffffffffffffffffffffffffffffffffffffffffe0601f84011601611bb3565b8181528b85838601011115611d5157600080fd5b818585018683013760009181019094015291935060808801359180831115611d7857600080fd5b5050611d8688828901611c26565b9150509295509295909350565b600060208284031215611da557600080fd5b8135610408816119f5565b60008060008060808587031215611dc657600080fd5b611dcf85611b6d565b93506020850135611ddf816119f5565b925060408501359150606085013567ffffffffffffffff811115611e0257600080fd5b611e0e87828801611c26565b91505092959194509250565b60008060408385031215611e2d57600080fd5b611e3683611b6d565b91506020830135611e46816119f5565b809150509250929050565b600080600060408486031215611e6657600080fd5b833567ffffffffffffffff811115611e7d57600080fd5b611e8986828701611a17565b9094509250506020840135611e9d816119f5565b809150509250925092565b6020815281602082015260007f07ffffffffffffffffffffffffffffffffffffffffffffffffffffffffffffff831115611ee157600080fd5b8260051b80856040850137600092016040019182525092915050565b60006020808385031215611f1057600080fd5b825167ffffffffffffffff811115611f2757600080fd5b8301601f81018513611f3857600080fd5b8051611f46611c4782611c02565b81815260059190911b82018301908381019087831115611f6557600080fd5b928401925b82841015611f8c578351611f7d816119f5565b82529284019290840190611f6a565b979650505050505050565b7f4e487b7100000000000000000000000000000000000000000000000000000000600052601260045260246000fd5b600082611fd557611fd5611f97565b500690565b7f4e487b7100000000000000000000000000000000000000000000000000000000600052601160045260246000fd5b60008261201857612018611f97565b500490565b6000817fffffffffffffffffffffffffffffffffffffffffffffffffffffffffffffffff048311821515161561205557612055611fda565b500290565b60008282101561206c5761206c611fda565b500390565b7f4e487b7100000000000000000000000000000000000000000000000000000000600052603260045260246000fd5b6000602082840312156120b257600080fd5b61040882611b6d565b60007fffffffffffffffffffffffffffffffffffffffffffffffffffffffffffffffff8214156120ed576120ed611fda565b5060010190565b6040808252810183905260008460608301825b868110156121305761ffff61211b84611b6d565b16825260209283019290910190600101612107565b50809250505073ffffffffffffffffffffffffffffffffffffffff83166020830152949350505050565b6000825160005b8181101561217b5760208186018101518583015201612161565b8181111561218a576000828501525b509190910192915050565b6000602082840312156121a757600080fd5b5051919050565b7f4e487b7100000000000000000000000000000000000000000000000000000000600052602160045260246000fdfea2646970667358221220b36da589c49b92217c02c0c023f4723beba2aee69bff52022dd724f738fbafa664736f6c63430008090033",
  "devdoc": {
    "kind": "dev",
    "methods": {},
    "version": 1
  },
  "userdoc": {
    "kind": "user",
    "methods": {},
    "version": 1
  },
  "storageLayout": {
    "storage": [
      {
        "astId": 12356,
        "contract": "src/bleeps/BleepsFixedPriceSale.sol:BleepsFixedPriceSale",
        "label": "_deploymentCostToPay",
        "offset": 0,
        "slot": "0",
        "type": "t_uint256"
      },
      {
        "astId": 10521,
        "contract": "src/bleeps/BleepsFixedPriceSale.sol:BleepsFixedPriceSale",
        "label": "_uptoInstr",
        "offset": 0,
        "slot": "1",
        "type": "t_uint256"
      },
      {
        "astId": 10525,
        "contract": "src/bleeps/BleepsFixedPriceSale.sol:BleepsFixedPriceSale",
        "label": "_passUsed",
        "offset": 0,
        "slot": "2",
        "type": "t_mapping(t_uint256,t_uint256)"
      }
    ],
    "types": {
      "t_mapping(t_uint256,t_uint256)": {
        "encoding": "mapping",
        "key": "t_uint256",
        "label": "mapping(uint256 => uint256)",
        "numberOfBytes": "32",
        "value": "t_uint256"
      },
      "t_uint256": {
        "encoding": "inplace",
        "label": "uint256",
        "numberOfBytes": "32"
      }
    }
  }
}