{
  "address": "0x4990755971B64740aAe5680754ce301fe4EF69b5",
  "abi": [
    {
      "inputs": [
        {
          "internalType": "contract Bleeps",
          "name": "bleeps",
          "type": "address"
        },
        {
          "internalType": "uint256",
          "name": "initPrice",
          "type": "uint256"
        },
        {
          "internalType": "uint256",
          "name": "delay",
          "type": "uint256"
        },
        {
          "internalType": "uint256",
          "name": "lastPrice",
          "type": "uint256"
        },
        {
          "internalType": "uint256",
          "name": "startTime",
          "type": "uint256"
        },
        {
          "internalType": "address payable",
          "name": "recipient",
          "type": "address"
        },
        {
          "internalType": "contract IERC721",
          "name": "mandalas",
          "type": "address"
        },
        {
          "internalType": "uint256",
          "name": "mandalasDiscountPercentage",
          "type": "uint256"
        }
      ],
      "stateMutability": "nonpayable",
      "type": "constructor"
    },
    {
      "inputs": [
        {
          "internalType": "uint16",
          "name": "id",
          "type": "uint16"
        },
        {
          "internalType": "address",
          "name": "to",
          "type": "address"
        }
      ],
      "name": "mint",
      "outputs": [],
      "stateMutability": "payable",
      "type": "function"
    },
    {
      "inputs": [
        {
          "internalType": "address",
          "name": "purchaser",
          "type": "address"
        },
        {
          "internalType": "uint256[]",
          "name": "ids",
          "type": "uint256[]"
        }
      ],
      "name": "ownersAndPriceInfo",
      "outputs": [
        {
          "internalType": "address[]",
          "name": "addresses",
          "type": "address[]"
        },
        {
          "internalType": "uint256",
          "name": "startTime",
          "type": "uint256"
        },
        {
          "internalType": "uint256",
          "name": "initPrice",
          "type": "uint256"
        },
        {
          "internalType": "uint256",
          "name": "delay",
          "type": "uint256"
        },
        {
          "internalType": "uint256",
          "name": "lastPrice",
          "type": "uint256"
        },
        {
          "internalType": "uint256",
          "name": "mandalasDiscountPercentage",
          "type": "uint256"
        },
        {
          "internalType": "bool",
          "name": "hasMandalas",
          "type": "bool"
        }
      ],
      "stateMutability": "view",
      "type": "function"
    },
    {
      "inputs": [
        {
          "internalType": "address",
          "name": "purchaser",
          "type": "address"
        }
      ],
      "name": "priceInfo",
      "outputs": [
        {
          "internalType": "uint256",
          "name": "startTime",
          "type": "uint256"
        },
        {
          "internalType": "uint256",
          "name": "initPrice",
          "type": "uint256"
        },
        {
          "internalType": "uint256",
          "name": "delay",
          "type": "uint256"
        },
        {
          "internalType": "uint256",
          "name": "lastPrice",
          "type": "uint256"
        },
        {
          "internalType": "uint256",
          "name": "mandalasDiscountPercentage",
          "type": "uint256"
        },
        {
          "internalType": "bool",
          "name": "hasMandalas",
          "type": "bool"
        }
      ],
      "stateMutability": "view",
      "type": "function"
    }
  ],
  "transactionHash": "0x97489bce104b8b170f5fb44dd084b89396a519adc405a5016a4e9c6a54518d63",
  "args": [
    "0x6B071f95D6caaE342EBC70b8a96BEBF163003485",
    "2000000000000000000",
    172800,
    "100000000000000000",
    1635679651,
    "0xE53cd71271AcAdbeb0f64d9c8C62bBdDc8cA9e66",
    "0x434BADEA3943c5B3D86366Fa03c77201B6770A75",
    20
  ],
  "solcInputHash": "91d95a219095e1b55f09f978b2865399",
  "bytecode": "0x61018060405234801561001157600080fd5b50604051610fad380380610fad83398101604081905261003091610082565b6001600160a01b0397881660805260c09690965260e0949094526101009290925260a0528316610120529091166101405261016052610101565b6001600160a01b038116811461007f57600080fd5b50565b600080600080600080600080610100898b03121561009f57600080fd5b88516100aa8161006a565b809850506020890151965060408901519550606089015194506080890151935060a08901516100d88161006a565b60c08a01519093506100e98161006a565b8092505060e089015190509295985092959890939650565b60805160a05160c05160e05161010051610120516101405161016051610dd86101d5600039600081816101640152818161045001526107ad015260006107ed015260008181610257015261054701526000818161014301528181610339015281816103a901528181610414015261078a01526000818161012201528181610382015281816103d10152610767015260008181610101015281816102e50152818161035a015261074401526000818160e00152818161030b01526107210152600081816105e401526106520152610dd86000f3fe6080604052600436106100345760003560e01c80636d048d53146100395780639c2055131461008d578063d10bca8b146100a2575b600080fd5b34801561004557600080fd5b50610059610054366004610974565b6100d5565b6040805196875260208701959095529385019290925260608401526080830152151560a082015260c0015b60405180910390f35b6100a061009b366004610998565b6101a0565b005b3480156100ae57600080fd5b506100c26100bd3660046109d8565b610645565b6040516100849796959493929190610a60565b6000806000806000807f00000000000000000000000000000000000000000000000000000000000000007f00000000000000000000000000000000000000000000000000000000000000007f00000000000000000000000000000000000000000000000000000000000000007f00000000000000000000000000000000000000000000000000000000000000007f000000000000000000000000000000000000000000000000000000000000000061018c8c6107e6565b949c939b5091995097509550909350915050565b6102408261ffff1610610214576040517f08c379a000000000000000000000000000000000000000000000000000000000815260206004820152600d60248201527f494e56414c49445f534f554e440000000000000000000000000000000000000060448201526064015b60405180910390fd5b600061022960106103ff600686901c16610b14565b9050806006148061023a5750806008145b156102e3573373ffffffffffffffffffffffffffffffffffffffff7f000000000000000000000000000000000000000000000000000000000000000016146102de576040517f08c379a000000000000000000000000000000000000000000000000000000000815260206004820152601960248201527f546865736520626c656570732061726520726573657276656400000000000000604482015260640161020b565b610595565b7f000000000000000000000000000000000000000000000000000000000000000060006103307f000000000000000000000000000000000000000000000000000000000000000042610b57565b9050600061037e7f00000000000000000000000000000000000000000000000000000000000000007f0000000000000000000000000000000000000000000000000000000000000000610b57565b90507f000000000000000000000000000000000000000000000000000000000000000082106103cf577f0000000000000000000000000000000000000000000000000000000000000000925061043b565b7f00000000000000000000000000000000000000000000000000000000000000006103fa8382610b57565b6104049083610b6e565b61040e9190610bab565b610438907f0000000000000000000000000000000000000000000000000000000000000000610bbf565b92505b610444336107e6565b1561048c5760646104757f000000000000000000000000000000000000000000000000000000000000000085610b6e565b61047f9190610bab565b6104899084610b57565b92505b823410156104f6576040517f08c379a000000000000000000000000000000000000000000000000000000000815260206004820152600a60248201527f4e4f545f454e4f55474800000000000000000000000000000000000000000000604482015260640161020b565b336108fc6105048534610b57565b6040518115909202916000818181858888f1935050505015801561052c573d6000803e3d6000fd5b5060405173ffffffffffffffffffffffffffffffffffffffff7f0000000000000000000000000000000000000000000000000000000000000000169084156108fc029085906000818181858888f19350505050158015610590573d6000803e3d6000fd5b505050505b6040517f9c20551300000000000000000000000000000000000000000000000000000000815261ffff8416600482015273ffffffffffffffffffffffffffffffffffffffff83811660248301527f00000000000000000000000000000000000000000000000000000000000000001690639c20551390604401600060405180830381600087803b15801561062857600080fd5b505af115801561063c573d6000803e3d6000fd5b50505050505050565b60606000806000806000807f000000000000000000000000000000000000000000000000000000000000000073ffffffffffffffffffffffffffffffffffffffff1663a0554c268a8a6040518363ffffffff1660e01b81526004016106ab929190610bd7565b60006040518083038186803b1580156106c357600080fd5b505afa1580156106d7573d6000803e3d6000fd5b505050506040513d6000823e601f3d9081017fffffffffffffffffffffffffffffffffffffffffffffffffffffffffffffffe016820160405261071d9190810190610c6b565b96507f000000000000000000000000000000000000000000000000000000000000000095507f000000000000000000000000000000000000000000000000000000000000000094507f000000000000000000000000000000000000000000000000000000000000000093507f000000000000000000000000000000000000000000000000000000000000000092507f000000000000000000000000000000000000000000000000000000000000000091506107d78a6107e6565b90509397509397509397909450565b60008060007f000000000000000000000000000000000000000000000000000000000000000073ffffffffffffffffffffffffffffffffffffffff168460405160240161084f919073ffffffffffffffffffffffffffffffffffffffff91909116815260200190565b604080517fffffffffffffffffffffffffffffffffffffffffffffffffffffffffffffffe08184030181529181526020820180517bffffffffffffffffffffffffffffffffffffffffffffffffffffffff167f70a0823100000000000000000000000000000000000000000000000000000000179052516108d09190610d4e565b600060405180830381855afa9150503d806000811461090b576040519150601f19603f3d011682016040523d82523d6000602084013e610910565b606091505b50915091506000828015610925575060008251115b610930576000610944565b818060200190518101906109449190610d89565b151595945050505050565b73ffffffffffffffffffffffffffffffffffffffff8116811461097157600080fd5b50565b60006020828403121561098657600080fd5b81356109918161094f565b9392505050565b600080604083850312156109ab57600080fd5b823561ffff811681146109bd57600080fd5b915060208301356109cd8161094f565b809150509250929050565b6000806000604084860312156109ed57600080fd5b83356109f88161094f565b9250602084013567ffffffffffffffff80821115610a1557600080fd5b818601915086601f830112610a2957600080fd5b813581811115610a3857600080fd5b8760208260051b8501011115610a4d57600080fd5b6020830194508093505050509250925092565b60e08082528851908201819052600090602090610100840190828c01845b82811015610ab057815173ffffffffffffffffffffffffffffffffffffffff1684529284019290840190600101610a7e565b505050908301989098525060408101959095526060850193909352608084019190915260a0830152151560c090910152919050565b7f4e487b7100000000000000000000000000000000000000000000000000000000600052601260045260246000fd5b600082610b2357610b23610ae5565b500690565b7f4e487b7100000000000000000000000000000000000000000000000000000000600052601160045260246000fd5b600082821015610b6957610b69610b28565b500390565b6000817fffffffffffffffffffffffffffffffffffffffffffffffffffffffffffffffff0483118215151615610ba657610ba6610b28565b500290565b600082610bba57610bba610ae5565b500490565b60008219821115610bd257610bd2610b28565b500190565b6020815281602082015260007f07ffffffffffffffffffffffffffffffffffffffffffffffffffffffffffffff831115610c1057600080fd5b8260051b80856040850137600092016040019182525092915050565b7f4e487b7100000000000000000000000000000000000000000000000000000000600052604160045260246000fd5b8051610c668161094f565b919050565b60006020808385031215610c7e57600080fd5b825167ffffffffffffffff80821115610c9657600080fd5b818501915085601f830112610caa57600080fd5b815181811115610cbc57610cbc610c2c565b8060051b6040517fffffffffffffffffffffffffffffffffffffffffffffffffffffffffffffffe0603f83011681018181108582111715610cff57610cff610c2c565b604052918252848201925083810185019188831115610d1d57600080fd5b938501935b82851015610d4257610d3385610c5b565b84529385019392850192610d22565b98975050505050505050565b6000825160005b81811015610d6f5760208186018101518583015201610d55565b81811115610d7e576000828501525b509190910192915050565b600060208284031215610d9b57600080fd5b505191905056fea2646970667358221220aa51cad5a3604501f441b11383387bac96ab30224b7586e5af15c7406e49f61564736f6c63430008090033",
  "devdoc": {
    "kind": "dev",
    "methods": {},
    "version": 1
  },
  "userdoc": {
    "kind": "user",
    "methods": {},
    "version": 1
  },
  "storageLayout": {
    "storage": [],
    "types": null
  }
}