{
  "address": "0x6BD40643DF3c20aaD6108d155B2a443f927598BE",
  "abi": [
    {
      "inputs": [
        {
          "internalType": "contract ERC20VotesComp",
          "name": "_token",
          "type": "address"
        },
        {
          "internalType": "contract ICompoundTimelock",
          "name": "_timelock",
          "type": "address"
        }
      ],
      "stateMutability": "nonpayable",
      "type": "constructor"
    },
    {
      "anonymous": false,
      "inputs": [
        {
          "indexed": false,
          "internalType": "uint256",
          "name": "proposalId",
          "type": "uint256"
        }
      ],
      "name": "ProposalCanceled",
      "type": "event"
    },
    {
      "anonymous": false,
      "inputs": [
        {
          "indexed": false,
          "internalType": "uint256",
          "name": "proposalId",
          "type": "uint256"
        },
        {
          "indexed": false,
          "internalType": "address",
          "name": "proposer",
          "type": "address"
        },
        {
          "indexed": false,
          "internalType": "address[]",
          "name": "targets",
          "type": "address[]"
        },
        {
          "indexed": false,
          "internalType": "uint256[]",
          "name": "values",
          "type": "uint256[]"
        },
        {
          "indexed": false,
          "internalType": "string[]",
          "name": "signatures",
          "type": "string[]"
        },
        {
          "indexed": false,
          "internalType": "bytes[]",
          "name": "calldatas",
          "type": "bytes[]"
        },
        {
          "indexed": false,
          "internalType": "uint256",
          "name": "startBlock",
          "type": "uint256"
        },
        {
          "indexed": false,
          "internalType": "uint256",
          "name": "endBlock",
          "type": "uint256"
        },
        {
          "indexed": false,
          "internalType": "string",
          "name": "description",
          "type": "string"
        }
      ],
      "name": "ProposalCreated",
      "type": "event"
    },
    {
      "anonymous": false,
      "inputs": [
        {
          "indexed": false,
          "internalType": "uint256",
          "name": "proposalId",
          "type": "uint256"
        }
      ],
      "name": "ProposalExecuted",
      "type": "event"
    },
    {
      "anonymous": false,
      "inputs": [
        {
          "indexed": false,
          "internalType": "uint256",
          "name": "proposalId",
          "type": "uint256"
        },
        {
          "indexed": false,
          "internalType": "uint256",
          "name": "eta",
          "type": "uint256"
        }
      ],
      "name": "ProposalQueued",
      "type": "event"
    },
    {
      "anonymous": false,
      "inputs": [
        {
          "indexed": false,
          "internalType": "address",
          "name": "oldTimelock",
          "type": "address"
        },
        {
          "indexed": false,
          "internalType": "address",
          "name": "newTimelock",
          "type": "address"
        }
      ],
      "name": "TimelockChange",
      "type": "event"
    },
    {
      "anonymous": false,
      "inputs": [
        {
          "indexed": true,
          "internalType": "address",
          "name": "voter",
          "type": "address"
        },
        {
          "indexed": false,
          "internalType": "uint256",
          "name": "proposalId",
          "type": "uint256"
        },
        {
          "indexed": false,
          "internalType": "uint8",
          "name": "support",
          "type": "uint8"
        },
        {
          "indexed": false,
          "internalType": "uint256",
          "name": "weight",
          "type": "uint256"
        },
        {
          "indexed": false,
          "internalType": "string",
          "name": "reason",
          "type": "string"
        }
      ],
      "name": "VoteCast",
      "type": "event"
    },
    {
      "inputs": [],
      "name": "BALLOT_TYPEHASH",
      "outputs": [
        {
          "internalType": "bytes32",
          "name": "",
          "type": "bytes32"
        }
      ],
      "stateMutability": "view",
      "type": "function"
    },
    {
      "inputs": [],
      "name": "COUNTING_MODE",
      "outputs": [
        {
          "internalType": "string",
          "name": "",
          "type": "string"
        }
      ],
      "stateMutability": "pure",
      "type": "function"
    },
    {
      "inputs": [],
      "name": "__acceptAdmin",
      "outputs": [],
      "stateMutability": "nonpayable",
      "type": "function"
    },
    {
      "inputs": [
        {
          "internalType": "uint256",
          "name": "proposalId",
          "type": "uint256"
        }
      ],
      "name": "cancel",
      "outputs": [],
      "stateMutability": "nonpayable",
      "type": "function"
    },
    {
      "inputs": [
        {
          "internalType": "uint256",
          "name": "proposalId",
          "type": "uint256"
        },
        {
          "internalType": "uint8",
          "name": "support",
          "type": "uint8"
        }
      ],
      "name": "castVote",
      "outputs": [
        {
          "internalType": "uint256",
          "name": "",
          "type": "uint256"
        }
      ],
      "stateMutability": "nonpayable",
      "type": "function"
    },
    {
      "inputs": [
        {
          "internalType": "uint256",
          "name": "proposalId",
          "type": "uint256"
        },
        {
          "internalType": "uint8",
          "name": "support",
          "type": "uint8"
        },
        {
          "internalType": "uint8",
          "name": "v",
          "type": "uint8"
        },
        {
          "internalType": "bytes32",
          "name": "r",
          "type": "bytes32"
        },
        {
          "internalType": "bytes32",
          "name": "s",
          "type": "bytes32"
        }
      ],
      "name": "castVoteBySig",
      "outputs": [
        {
          "internalType": "uint256",
          "name": "",
          "type": "uint256"
        }
      ],
      "stateMutability": "nonpayable",
      "type": "function"
    },
    {
      "inputs": [
        {
          "internalType": "uint256",
          "name": "proposalId",
          "type": "uint256"
        },
        {
          "internalType": "uint8",
          "name": "support",
          "type": "uint8"
        },
        {
          "internalType": "string",
          "name": "reason",
          "type": "string"
        }
      ],
      "name": "castVoteWithReason",
      "outputs": [
        {
          "internalType": "uint256",
          "name": "",
          "type": "uint256"
        }
      ],
      "stateMutability": "nonpayable",
      "type": "function"
    },
    {
      "inputs": [
        {
          "internalType": "address[]",
          "name": "targets",
          "type": "address[]"
        },
        {
          "internalType": "uint256[]",
          "name": "values",
          "type": "uint256[]"
        },
        {
          "internalType": "bytes[]",
          "name": "calldatas",
          "type": "bytes[]"
        },
        {
          "internalType": "bytes32",
          "name": "descriptionHash",
          "type": "bytes32"
        }
      ],
      "name": "execute",
      "outputs": [
        {
          "internalType": "uint256",
          "name": "",
          "type": "uint256"
        }
      ],
      "stateMutability": "payable",
      "type": "function"
    },
    {
      "inputs": [
        {
          "internalType": "uint256",
          "name": "proposalId",
          "type": "uint256"
        }
      ],
      "name": "execute",
      "outputs": [],
      "stateMutability": "payable",
      "type": "function"
    },
    {
      "inputs": [
        {
          "internalType": "uint256",
          "name": "proposalId",
          "type": "uint256"
        }
      ],
      "name": "getActions",
      "outputs": [
        {
          "internalType": "address[]",
          "name": "targets",
          "type": "address[]"
        },
        {
          "internalType": "uint256[]",
          "name": "values",
          "type": "uint256[]"
        },
        {
          "internalType": "string[]",
          "name": "signatures",
          "type": "string[]"
        },
        {
          "internalType": "bytes[]",
          "name": "calldatas",
          "type": "bytes[]"
        }
      ],
      "stateMutability": "view",
      "type": "function"
    },
    {
      "inputs": [
        {
          "internalType": "uint256",
          "name": "proposalId",
          "type": "uint256"
        },
        {
          "internalType": "address",
          "name": "voter",
          "type": "address"
        }
      ],
      "name": "getReceipt",
      "outputs": [
        {
          "components": [
            {
              "internalType": "bool",
              "name": "hasVoted",
              "type": "bool"
            },
            {
              "internalType": "uint8",
              "name": "support",
              "type": "uint8"
            },
            {
              "internalType": "uint96",
              "name": "votes",
              "type": "uint96"
            }
          ],
          "internalType": "struct IGovernorCompatibilityBravo.Receipt",
          "name": "",
          "type": "tuple"
        }
      ],
      "stateMutability": "view",
      "type": "function"
    },
    {
      "inputs": [
        {
          "internalType": "address",
          "name": "account",
          "type": "address"
        },
        {
          "internalType": "uint256",
          "name": "blockNumber",
          "type": "uint256"
        }
      ],
      "name": "getVotes",
      "outputs": [
        {
          "internalType": "uint256",
          "name": "",
          "type": "uint256"
        }
      ],
      "stateMutability": "view",
      "type": "function"
    },
    {
      "inputs": [
        {
          "internalType": "uint256",
          "name": "proposalId",
          "type": "uint256"
        },
        {
          "internalType": "address",
          "name": "account",
          "type": "address"
        }
      ],
      "name": "hasVoted",
      "outputs": [
        {
          "internalType": "bool",
          "name": "",
          "type": "bool"
        }
      ],
      "stateMutability": "view",
      "type": "function"
    },
    {
      "inputs": [
        {
          "internalType": "address[]",
          "name": "targets",
          "type": "address[]"
        },
        {
          "internalType": "uint256[]",
          "name": "values",
          "type": "uint256[]"
        },
        {
          "internalType": "bytes[]",
          "name": "calldatas",
          "type": "bytes[]"
        },
        {
          "internalType": "bytes32",
          "name": "descriptionHash",
          "type": "bytes32"
        }
      ],
      "name": "hashProposal",
      "outputs": [
        {
          "internalType": "uint256",
          "name": "",
          "type": "uint256"
        }
      ],
      "stateMutability": "pure",
      "type": "function"
    },
    {
      "inputs": [],
      "name": "name",
      "outputs": [
        {
          "internalType": "string",
          "name": "",
          "type": "string"
        }
      ],
      "stateMutability": "view",
      "type": "function"
    },
    {
      "inputs": [
        {
          "internalType": "uint256",
          "name": "proposalId",
          "type": "uint256"
        }
      ],
      "name": "proposalDeadline",
      "outputs": [
        {
          "internalType": "uint256",
          "name": "",
          "type": "uint256"
        }
      ],
      "stateMutability": "view",
      "type": "function"
    },
    {
      "inputs": [
        {
          "internalType": "uint256",
          "name": "proposalId",
          "type": "uint256"
        }
      ],
      "name": "proposalEta",
      "outputs": [
        {
          "internalType": "uint256",
          "name": "",
          "type": "uint256"
        }
      ],
      "stateMutability": "view",
      "type": "function"
    },
    {
      "inputs": [
        {
          "internalType": "uint256",
          "name": "proposalId",
          "type": "uint256"
        }
      ],
      "name": "proposalSnapshot",
      "outputs": [
        {
          "internalType": "uint256",
          "name": "",
          "type": "uint256"
        }
      ],
      "stateMutability": "view",
      "type": "function"
    },
    {
      "inputs": [],
      "name": "proposalThreshold",
      "outputs": [
        {
          "internalType": "uint256",
          "name": "",
          "type": "uint256"
        }
      ],
      "stateMutability": "pure",
      "type": "function"
    },
    {
      "inputs": [
        {
          "internalType": "uint256",
          "name": "proposalId",
          "type": "uint256"
        }
      ],
      "name": "proposals",
      "outputs": [
        {
          "internalType": "uint256",
          "name": "id",
          "type": "uint256"
        },
        {
          "internalType": "address",
          "name": "proposer",
          "type": "address"
        },
        {
          "internalType": "uint256",
          "name": "eta",
          "type": "uint256"
        },
        {
          "internalType": "uint256",
          "name": "startBlock",
          "type": "uint256"
        },
        {
          "internalType": "uint256",
          "name": "endBlock",
          "type": "uint256"
        },
        {
          "internalType": "uint256",
          "name": "forVotes",
          "type": "uint256"
        },
        {
          "internalType": "uint256",
          "name": "againstVotes",
          "type": "uint256"
        },
        {
          "internalType": "uint256",
          "name": "abstainVotes",
          "type": "uint256"
        },
        {
          "internalType": "bool",
          "name": "canceled",
          "type": "bool"
        },
        {
          "internalType": "bool",
          "name": "executed",
          "type": "bool"
        }
      ],
      "stateMutability": "view",
      "type": "function"
    },
    {
      "inputs": [
        {
          "internalType": "address[]",
          "name": "targets",
          "type": "address[]"
        },
        {
          "internalType": "uint256[]",
          "name": "values",
          "type": "uint256[]"
        },
        {
          "internalType": "bytes[]",
          "name": "calldatas",
          "type": "bytes[]"
        },
        {
          "internalType": "string",
          "name": "description",
          "type": "string"
        }
      ],
      "name": "propose",
      "outputs": [
        {
          "internalType": "uint256",
          "name": "",
          "type": "uint256"
        }
      ],
      "stateMutability": "nonpayable",
      "type": "function"
    },
    {
      "inputs": [
        {
          "internalType": "address[]",
          "name": "targets",
          "type": "address[]"
        },
        {
          "internalType": "uint256[]",
          "name": "values",
          "type": "uint256[]"
        },
        {
          "internalType": "string[]",
          "name": "signatures",
          "type": "string[]"
        },
        {
          "internalType": "bytes[]",
          "name": "calldatas",
          "type": "bytes[]"
        },
        {
          "internalType": "string",
          "name": "description",
          "type": "string"
        }
      ],
      "name": "propose",
      "outputs": [
        {
          "internalType": "uint256",
          "name": "",
          "type": "uint256"
        }
      ],
      "stateMutability": "nonpayable",
      "type": "function"
    },
    {
      "inputs": [
        {
          "internalType": "address[]",
          "name": "targets",
          "type": "address[]"
        },
        {
          "internalType": "uint256[]",
          "name": "values",
          "type": "uint256[]"
        },
        {
          "internalType": "bytes[]",
          "name": "calldatas",
          "type": "bytes[]"
        },
        {
          "internalType": "bytes32",
          "name": "descriptionHash",
          "type": "bytes32"
        }
      ],
      "name": "queue",
      "outputs": [
        {
          "internalType": "uint256",
          "name": "",
          "type": "uint256"
        }
      ],
      "stateMutability": "nonpayable",
      "type": "function"
    },
    {
      "inputs": [
        {
          "internalType": "uint256",
          "name": "proposalId",
          "type": "uint256"
        }
      ],
      "name": "queue",
      "outputs": [],
      "stateMutability": "nonpayable",
      "type": "function"
    },
    {
      "inputs": [
        {
          "internalType": "uint256",
          "name": "",
          "type": "uint256"
        }
      ],
      "name": "quorum",
      "outputs": [
        {
          "internalType": "uint256",
          "name": "",
          "type": "uint256"
        }
      ],
      "stateMutability": "pure",
      "type": "function"
    },
    {
      "inputs": [],
      "name": "quorumVotes",
      "outputs": [
        {
          "internalType": "uint256",
          "name": "",
          "type": "uint256"
        }
      ],
      "stateMutability": "view",
      "type": "function"
    },
    {
      "inputs": [
        {
          "internalType": "uint256",
          "name": "proposalId",
          "type": "uint256"
        }
      ],
      "name": "state",
      "outputs": [
        {
          "internalType": "enum IGovernor.ProposalState",
          "name": "",
          "type": "uint8"
        }
      ],
      "stateMutability": "view",
      "type": "function"
    },
    {
      "inputs": [
        {
          "internalType": "bytes4",
          "name": "interfaceId",
          "type": "bytes4"
        }
      ],
      "name": "supportsInterface",
      "outputs": [
        {
          "internalType": "bool",
          "name": "",
          "type": "bool"
        }
      ],
      "stateMutability": "view",
      "type": "function"
    },
    {
      "inputs": [],
      "name": "timelock",
      "outputs": [
        {
          "internalType": "address",
          "name": "",
          "type": "address"
        }
      ],
      "stateMutability": "view",
      "type": "function"
    },
    {
      "inputs": [],
      "name": "token",
      "outputs": [
        {
          "internalType": "contract ERC20VotesComp",
          "name": "",
          "type": "address"
        }
      ],
      "stateMutability": "view",
      "type": "function"
    },
    {
      "inputs": [
        {
          "internalType": "contract ICompoundTimelock",
          "name": "newTimelock",
          "type": "address"
        }
      ],
      "name": "updateTimelock",
      "outputs": [],
      "stateMutability": "nonpayable",
      "type": "function"
    },
    {
      "inputs": [],
      "name": "version",
      "outputs": [
        {
          "internalType": "string",
          "name": "",
          "type": "string"
        }
      ],
      "stateMutability": "view",
      "type": "function"
    },
    {
      "inputs": [],
      "name": "votingDelay",
      "outputs": [
        {
          "internalType": "uint256",
          "name": "",
          "type": "uint256"
        }
      ],
      "stateMutability": "pure",
      "type": "function"
    },
    {
      "inputs": [],
      "name": "votingPeriod",
      "outputs": [
        {
          "internalType": "uint256",
          "name": "",
          "type": "uint256"
        }
      ],
      "stateMutability": "pure",
      "type": "function"
    }
  ],
  "transactionHash": "0x02401fbd6c8de76964dd46d1f3cded6f192f52e3b55286241dd006fa2d2f3c4f",
  "args": [
    "0x6B071f95D6caaE342EBC70b8a96BEBF163003485",
    "0x3EA4E29AeD0Ce734aBaFc19f6E01dB4F3c28AD71"
  ],
  "solcInputHash": "91d95a219095e1b55f09f978b2865399",
  "bytecode": "0x6101406040523480156200001257600080fd5b5060405162004c3f38038062004c3f83398101604081905262000035916200026a565b808260405180604001604052806009815260200168426c6565707344414f60b81b815250806200006a6200012760201b60201c565b815160209283012081519183019190912060c082815260e08290524660a0818152604080517f8b73c3c69bb8fe3d512ecc4cf759cc79239f7b179b0ffacaa9a75d522b39400f818901819052818301979097526060810195909552608080860193909352308583015280518086039092018252939092019092528051908401209052610100528151620001049160009190840190620001ab565b50506001600160a01b0316610120526200011e8162000142565b505050620002e6565b6040805180820190915260018152603160f81b602082015290565b600354604080516001600160a01b03928316815291831660208301527f08f74ea46ef7894f65eabfb5e6e695de773a000b47c529ab559178069b226401910160405180910390a1600380546001600160a01b0319166001600160a01b0392909216919091179055565b828054620001b990620002a9565b90600052602060002090601f016020900481019282620001dd576000855562000228565b82601f10620001f857805160ff191683800117855562000228565b8280016001018555821562000228579182015b82811115620002285782518255916020019190600101906200020b565b50620002369291506200023a565b5090565b5b808211156200023657600081556001016200023b565b6001600160a01b03811681146200026757600080fd5b50565b600080604083850312156200027e57600080fd5b82516200028b8162000251565b60208401519092506200029e8162000251565b809150509250929050565b600181811c90821680620002be57607f821691505b60208210811415620002e057634e487b7160e01b600052602260045260246000fd5b50919050565b60805160a05160c05160e05161010051610120516149026200033d600039600081816107fd0152612646015260006129a7015260006129f6015260006129d1015260006129550152600061297e01526149026000f3fe6080604052600436106102195760003560e01c80637d5e81e21161011d578063da95691a116100b0578063e23a9a521161007f578063f8ce560a11610064578063f8ce560a146107ca578063fc0c546a146107eb578063fe0d94c11461081f57600080fd5b8063e23a9a52146106c9578063eb9019d4146107aa57600080fd5b8063da95691a1461060f578063dd4e2ba51461062f578063ddf0b00914610675578063deaaa7cc1461069557600080fd5b8063b9a61961116100ec578063b9a619611461056e578063c01f9e3714610583578063c59057e4146105a3578063d33219b4146105c357600080fd5b80637d5e81e21461050e578063a890c9101461052e578063ab58fb8e1461054e578063b58131b0146102d657600080fd5b8063328dd982116101b057806340e58ee51161017f57806354fd4d501161016457806354fd4d501461048857806356781388146104ce5780637b3c71d3146104ee57600080fd5b806340e58ee51461040f578063438596321461043157600080fd5b8063328dd9821461037e5780633932abb1146103ae5780633bccf4fd146103c25780633e4f49e6146103e257600080fd5b8063160cbed7116101ec578063160cbed71461031657806324bc1a64146103365780632656227d1461034b5780632d63f6931461035e57600080fd5b8063013cf08b1461021e57806301ffc9a7146102a657806302a251a3146102d657806306fdde03146102f4575b600080fd5b34801561022a57600080fd5b5061023e610239366004613bc9565b610832565b604080519a8b5273ffffffffffffffffffffffffffffffffffffffff90991660208b0152978901969096526060880194909452608087019290925260a086015260c085015260e084015215156101008301521515610120820152610140015b60405180910390f35b3480156102b257600080fd5b506102c66102c1366004613be2565b6108e8565b604051901515815260200161029d565b3480156102e257600080fd5b5060025b60405190815260200161029d565b34801561030057600080fd5b506103096108f9565b60405161029d9190613c9a565b34801561032257600080fd5b506102e6610331366004613f54565b61098b565b34801561034257600080fd5b506102e6610e4d565b6102e6610359366004613f54565b610e62565b34801561036a57600080fd5b506102e6610379366004613bc9565b610fc3565b34801561038a57600080fd5b5061039e610399366004613bc9565b610ffc565b60405161029d94939291906140b7565b3480156103ba57600080fd5b5060016102e6565b3480156103ce57600080fd5b506102e66103dd36600461411a565b61129a565b3480156103ee57600080fd5b506104026103fd366004613bc9565b61132e565b60405161029d9190614197565b34801561041b57600080fd5b5061042f61042a366004613bc9565b611339565b005b34801561043d57600080fd5b506102c661044c3660046141d8565b600082815260026020908152604080832073ffffffffffffffffffffffffffffffffffffffff8516845260080190915290205460ff1692915050565b34801561049457600080fd5b5060408051808201909152600181527f31000000000000000000000000000000000000000000000000000000000000006020820152610309565b3480156104da57600080fd5b506102e66104e9366004614208565b6116af565b3480156104fa57600080fd5b506102e6610509366004614234565b6116d8565b34801561051a57600080fd5b506102e66105293660046142db565b61172a565b34801561053a57600080fd5b5061042f610549366004614388565b611741565b34801561055a57600080fd5b506102e6610569366004613bc9565b6117e9565b34801561057a57600080fd5b5061042f611816565b34801561058f57600080fd5b506102e661059e366004613bc9565b61189a565b3480156105af57600080fd5b506102e66105be366004613f54565b6118ca565b3480156105cf57600080fd5b5060035473ffffffffffffffffffffffffffffffffffffffff165b60405173ffffffffffffffffffffffffffffffffffffffff909116815260200161029d565b34801561061b57600080fd5b506102e661062a366004614425565b611922565b34801561063b57600080fd5b5060408051808201909152601a81527f737570706f72743d627261766f2671756f72756d3d627261766f0000000000006020820152610309565b34801561068157600080fd5b5061042f610690366004613bc9565b611947565b3480156106a157600080fd5b506102e67f150214d74d59b7d1e90c73fc22ef3d991dd0a76b046543d4d80ab92d2a50328f81565b3480156106d557600080fd5b506107756106e43660046141d8565b604080516060810182526000808252602082018190529181019190915250600091825260026020908152604080842073ffffffffffffffffffffffffffffffffffffffff93909316845260089092018152918190208151606081018352905460ff8082161515835261010082041693820193909352620100009092046bffffffffffffffffffffffff169082015290565b6040805182511515815260208084015160ff1690820152918101516bffffffffffffffffffffffff169082015260600161029d565b3480156107b657600080fd5b506102e66107c53660046144f7565b611bc2565b3480156107d657600080fd5b506102e66107e5366004613bc9565b50600390565b3480156107f757600080fd5b506105ea7f000000000000000000000000000000000000000000000000000000000000000081565b61042f61082d366004613bc9565b611bd5565b80600080808080808080806108468a6117e9565b97506108518b610fc3565b965061085c8b61189a565b60008c8152600260205260408120805460058201546006830154600784015473ffffffffffffffffffffffffffffffffffffffff9093169e50949a5098509296509194506108a98d61132e565b905060028160078111156108bf576108bf614168565b14935060078160078111156108d6576108d6614168565b14925050509193959799509193959799565b60006108f382611e50565b92915050565b60606000805461090890614523565b80601f016020809104026020016040519081016040528092919081815260200182805461093490614523565b80156109815780601f1061095657610100808354040283529160200191610981565b820191906000526020600020905b81548152906001019060200180831161096457829003601f168201915b5050505050905090565b60008061099a868686866118ca565b905060046109a78261132e565b60078111156109b8576109b8614168565b14610a4a576040517f08c379a000000000000000000000000000000000000000000000000000000000815260206004820152602160248201527f476f7665726e6f723a2070726f706f73616c206e6f742073756363657373667560448201527f6c0000000000000000000000000000000000000000000000000000000000000060648201526084015b60405180910390fd5b600354604080517f6a42b8f8000000000000000000000000000000000000000000000000000000008152905160009273ffffffffffffffffffffffffffffffffffffffff1691636a42b8f8916004808301926020929190829003018186803b158015610ab557600080fd5b505afa158015610ac9573d6000803e3d6000fd5b505050506040513d601f19601f82011682018060405250810190610aed9190614571565b610af790426145b9565b9050610b4a610b0582611ea6565b60008481526004602052604090209081547fffffffffffffffffffffffffffffffffffffffffffffffff00000000000000001667ffffffffffffffff91909116179055565b60005b8751811015610e0857600354885173ffffffffffffffffffffffffffffffffffffffff9091169063f2b06537908a9084908110610b8c57610b8c6145d1565b6020026020010151898481518110610ba657610ba66145d1565b6020026020010151898581518110610bc057610bc06145d1565b602002602001015186604051602001610bdc9493929190614600565b604051602081830303815290604052805190602001206040518263ffffffff1660e01b8152600401610c1091815260200190565b60206040518083038186803b158015610c2857600080fd5b505afa158015610c3c573d6000803e3d6000fd5b505050506040513d601f19601f82011682018060405250810190610c609190614654565b15610d13576040517f08c379a000000000000000000000000000000000000000000000000000000000815260206004820152604260248201527f476f7665726e6f7254696d656c6f636b436f6d706f756e643a206964656e746960448201527f63616c2070726f706f73616c20616374696f6e20616c7265616479207175657560648201527f6564000000000000000000000000000000000000000000000000000000000000608482015260a401610a41565b600354885173ffffffffffffffffffffffffffffffffffffffff90911690633a66f901908a9084908110610d4957610d496145d1565b6020026020010151898481518110610d6357610d636145d1565b6020026020010151898581518110610d7d57610d7d6145d1565b6020026020010151866040518563ffffffff1660e01b8152600401610da59493929190614600565b602060405180830381600087803b158015610dbf57600080fd5b505af1158015610dd3573d6000803e3d6000fd5b505050506040513d601f19601f82011682018060405250810190610df79190614571565b50610e0181614676565b9050610b4d565b5060408051838152602081018390527f9a2e42fd6722813d69113e7d0079d3d940171428df7373df9c7f7617cfda289291015b60405180910390a15095945050505050565b6000610e5d6107e56001436146af565b905090565b600080610e71868686866118ca565b90506000610e7e8261132e565b90506004816007811115610e9457610e94614168565b1480610eb157506005816007811115610eaf57610eaf614168565b145b610f3d576040517f08c379a000000000000000000000000000000000000000000000000000000000815260206004820152602160248201527f476f7665726e6f723a2070726f706f73616c206e6f742073756363657373667560448201527f6c000000000000000000000000000000000000000000000000000000000000006064820152608401610a41565b60008281526001602081815260409283902060020180547fffffffffffffffffffffffffffffffffffffffffffffffffffffffffffffff001690921790915590518381527f712ae1383f79ac853f8d882153778e0260ef8f03b504e2866e0593e04d2b291f910160405180910390a1610fb98288888888611f44565b5095945050505050565b600081815260016020908152604080832081519283019091525467ffffffffffffffff16908190525b67ffffffffffffffff1692915050565b6060806060806000600260008781526020019081526020016000209050806001018160020182600301836004018380548060200260200160405190810160405280929190818152602001828054801561108b57602002820191906000526020600020905b815473ffffffffffffffffffffffffffffffffffffffff168152600190910190602001808311611060575b50505050509350828054806020026020016040519081016040528092919081815260200182805480156110dd57602002820191906000526020600020905b8154815260200190600101908083116110c9575b5050505050925081805480602002602001604051908101604052809291908181526020016000905b828210156111b157838290600052602060002001805461112490614523565b80601f016020809104026020016040519081016040528092919081815260200182805461115090614523565b801561119d5780601f106111725761010080835404028352916020019161119d565b820191906000526020600020905b81548152906001019060200180831161118057829003601f168201915b505050505081526020019060010190611105565b50505050915080805480602002602001604051908101604052809291908181526020016000905b828210156112845783829060005260206000200180546111f790614523565b80601f016020809104026020016040519081016040528092919081815260200182805461122390614523565b80156112705780601f1061124557610100808354040283529160200191611270565b820191906000526020600020905b81548152906001019060200180831161125357829003601f168201915b5050505050815260200190600101906111d8565b5050505090509450945094509450509193509193565b604080517f150214d74d59b7d1e90c73fc22ef3d991dd0a76b046543d4d80ab92d2a50328f602082015290810186905260ff851660608201526000908190611306906112fe9060800160405160208183030381529060405280519060200120611f58565b868686611fc1565b905061132387828860405180602001604052806000815250611fdf565b979650505050505050565b60006108f38261212c565b6000818152600260205260409020805473ffffffffffffffffffffffffffffffffffffffff163373ffffffffffffffffffffffffffffffffffffffff1614806113a85750600281546113a69073ffffffffffffffffffffffffffffffffffffffff166107c56001436146af565b105b611434576040517f08c379a000000000000000000000000000000000000000000000000000000000815260206004820152602760248201527f476f7665726e6f72427261766f3a2070726f706f7365722061626f766520746860448201527f726573686f6c64000000000000000000000000000000000000000000000000006064820152608401610a41565b6116aa8160010180548060200260200160405190810160405280929190818152602001828054801561149c57602002820191906000526020600020905b815473ffffffffffffffffffffffffffffffffffffffff168152600190910190602001808311611471575b5050505050826002018054806020026020016040519081016040528092919081815260200182805480156114ef57602002820191906000526020600020905b8154815260200190600101908083116114db575b50505050506116a084600301805480602002602001604051908101604052809291908181526020016000905b828210156115c757838290600052602060002001805461153a90614523565b80601f016020809104026020016040519081016040528092919081815260200182805461156690614523565b80156115b35780601f10611588576101008083540402835291602001916115b3565b820191906000526020600020905b81548152906001019060200180831161159657829003601f168201915b50505050508152602001906001019061151b565b50505060048701805460408051602080840282018101909252828152935060009084015b8282101561169757838290600052602060002001805461160a90614523565b80601f016020809104026020016040519081016040528092919081815260200182805461163690614523565b80156116835780601f1061165857610100808354040283529160200191611683565b820191906000526020600020905b81548152906001019060200180831161166657829003601f168201915b5050505050815260200190600101906115eb565b50505050612236565b84600901546123e2565b505050565b6000803390506116d084828560405180602001604052806000815250611fdf565b949350505050565b60008033905061172086828787878080601f016020809104026020016040519081016040528093929190818152602001838380828437600092019190915250611fdf92505050565b9695505050505050565b6000611738858585856123f0565b95945050505050565b611749612459565b73ffffffffffffffffffffffffffffffffffffffff163373ffffffffffffffffffffffffffffffffffffffff16146117dd576040517f08c379a000000000000000000000000000000000000000000000000000000000815260206004820152601860248201527f476f7665726e6f723a206f6e6c79476f7665726e616e636500000000000000006044820152606401610a41565b6117e68161247a565b50565b600081815260046020908152604080832081519283019091525467ffffffffffffffff1690819052610fec565b600360009054906101000a900473ffffffffffffffffffffffffffffffffffffffff1673ffffffffffffffffffffffffffffffffffffffff16630e18b6816040518163ffffffff1660e01b8152600401600060405180830381600087803b15801561188057600080fd5b505af1158015611894573d6000803e3d6000fd5b50505050565b600081815260016020818152604080842081519283019091529091015467ffffffffffffffff1690819052610fec565b6000848484846040516020016118e394939291906146c6565b604080517fffffffffffffffffffffffffffffffffffffffffffffffffffffffffffffffe0818403018152919052805160209091012095945050505050565b6000611932338787878787612515565b61172086866119418787612236565b8561172a565b60008181526002602090815260409182902060018101805484518185028101850190955280855291936116aa939092908301828280156119bd57602002820191906000526020600020905b815473ffffffffffffffffffffffffffffffffffffffff168152600190910190602001808311611992575b505050505082600201805480602002602001604051908101604052809291908181526020018280548015611a1057602002820191906000526020600020905b8154815260200190600101908083116119fc575b5050505050611bb884600301805480602002602001604051908101604052809291908181526020016000905b82821015611ae8578382906000526020600020018054611a5b90614523565b80601f0160208091040260200160405190810160405280929190818152602001828054611a8790614523565b8015611ad45780601f10611aa957610100808354040283529160200191611ad4565b820191906000526020600020905b815481529060010190602001808311611ab757829003601f168201915b505050505081526020019060010190611a3c565b50505060048701805460408051602080840282018101909252828152935060009084015b82821015611697578382906000526020600020018054611b2b90614523565b80601f0160208091040260200160405190810160405280929190818152602001828054611b5790614523565b8015611ba45780601f10611b7957610100808354040283529160200191611ba4565b820191906000526020600020905b815481529060010190602001808311611b8757829003601f168201915b505050505081526020019060010190611b0c565b846009015461098b565b6000611bce83836125f7565b9392505050565b60008181526002602090815260409182902060018101805484518185028101850190955280855291936116aa93909290830182828015611c4b57602002820191906000526020600020905b815473ffffffffffffffffffffffffffffffffffffffff168152600190910190602001808311611c20575b505050505082600201805480602002602001604051908101604052809291908181526020018280548015611c9e57602002820191906000526020600020905b815481526020019060010190808311611c8a575b5050505050611e4684600301805480602002602001604051908101604052809291908181526020016000905b82821015611d76578382906000526020600020018054611ce990614523565b80601f0160208091040260200160405190810160405280929190818152602001828054611d1590614523565b8015611d625780601f10611d3757610100808354040283529160200191611d62565b820191906000526020600020905b815481529060010190602001808311611d4557829003601f168201915b505050505081526020019060010190611cca565b50505060048701805460408051602080840282018101909252828152935060009084015b82821015611697578382906000526020600020018054611db990614523565b80601f0160208091040260200160405190810160405280929190818152602001828054611de590614523565b8015611e325780601f10611e0757610100808354040283529160200191611e32565b820191906000526020600020905b815481529060010190602001808311611e1557829003601f168201915b505050505081526020019060010190611d9a565b8460090154610e62565b60007fffffffff0000000000000000000000000000000000000000000000000000000082167f6e665ced0000000000000000000000000000000000000000000000000000000014806108f357506108f3826126d7565b600067ffffffffffffffff821115611f40576040517f08c379a000000000000000000000000000000000000000000000000000000000815260206004820152602660248201527f53616665436173743a2076616c756520646f65736e27742066697420696e203660448201527f34206269747300000000000000000000000000000000000000000000000000006064820152608401610a41565b5090565b611f51858585858561276e565b5050505050565b60006108f3611f65612951565b836040517f19010000000000000000000000000000000000000000000000000000000000006020820152602281018390526042810182905260009060620160405160208183030381529060405280519060200120905092915050565b6000806000611fd287878787612a44565b91509150610fb981612b5c565b6000848152600160208190526040822090611ff98761132e565b600781111561200a5761200a614168565b14612097576040517f08c379a000000000000000000000000000000000000000000000000000000000815260206004820152602360248201527f476f7665726e6f723a20766f7465206e6f742063757272656e746c792061637460448201527f69766500000000000000000000000000000000000000000000000000000000006064820152608401610a41565b6040805160208101909152815467ffffffffffffffff16908190526000906120c0908790611bc2565b90506120ce87878784612db5565b8573ffffffffffffffffffffffffffffffffffffffff167fb8e138887d0aa13bab447e82de9d5c1777041ecd21ca36ba824ff1e6c07ddda48887848860405161211a9493929190614711565b60405180910390a29695505050505050565b60008061213883612fee565b9050600481600781111561214e5761214e614168565b146121595792915050565b6000612164846117e9565b905080612172575092915050565b600360009054906101000a900473ffffffffffffffffffffffffffffffffffffffff1673ffffffffffffffffffffffffffffffffffffffff1663c1a287e26040518163ffffffff1660e01b815260040160206040518083038186803b1580156121da57600080fd5b505afa1580156121ee573d6000803e3d6000fd5b505050506040513d601f19601f820116820180604052508101906122129190614571565b61221c90826145b9565b421061222c575060069392505050565b5060059392505050565b60606000825167ffffffffffffffff81111561225457612254613cad565b60405190808252806020026020018201604052801561228757816020015b60608152602001906001900390816122725790505b50905060005b84518110156123da578481815181106122a8576122a86145d1565b602002602001015151600014612391578481815181106122ca576122ca6145d1565b60200260200101518482815181106122e4576122e46145d1565b60200260200101516040516024016122fc9190613c9a565b604080517fffffffffffffffffffffffffffffffffffffffffffffffffffffffffffffffe0818403018152908290529161233591614739565b6040519081900390206020820180517bffffffffffffffffffffffffffffffffffffffffffffffffffffffff167fffffffff000000000000000000000000000000000000000000000000000000009092169190911790526123ac565b8381815181106123a3576123a36145d1565b60200260200101515b8282815181106123be576123be6145d1565b6020026020010181905250806123d390614676565b905061228d565b509392505050565b600061173885858585613171565b600061244d338686865167ffffffffffffffff81111561241257612412613cad565b60405190808252806020026020018201604052801561244557816020015b60608152602001906001900390816124305790505b508787612515565b611738858585856132b0565b6000610e5d60035473ffffffffffffffffffffffffffffffffffffffff1690565b6003546040805173ffffffffffffffffffffffffffffffffffffffff928316815291831660208301527f08f74ea46ef7894f65eabfb5e6e695de773a000b47c529ab559178069b226401910160405180910390a1600380547fffffffffffffffffffffffff00000000000000000000000000000000000000001673ffffffffffffffffffffffffffffffffffffffff92909216919091179055565b805160208201206000612533878761252d8888612236565b856118ca565b60008181526002602052604090206009810154919250906125ec5780547fffffffffffffffffffffffff00000000000000000000000000000000000000001673ffffffffffffffffffffffffffffffffffffffff8a1617815587516125a190600183019060208b019061395a565b5086516125b790600283019060208a01906139e0565b5085516125cd9060038301906020890190613a1b565b5084516125e39060048301906020880190613a74565b50600981018390555b505050505050505050565b6040517f782d6fe100000000000000000000000000000000000000000000000000000000815273ffffffffffffffffffffffffffffffffffffffff8381166004830152602482018390526000917f00000000000000000000000000000000000000000000000000000000000000009091169063782d6fe19060440160206040518083038186803b15801561268a57600080fd5b505afa15801561269e573d6000803e3d6000fd5b505050506040513d601f19601f820116820180604052508101906126c29190614755565b6bffffffffffffffffffffffff169392505050565b60007fffffffff0000000000000000000000000000000000000000000000000000000082167fbf26d8970000000000000000000000000000000000000000000000000000000014806108f357507f01ffc9a7000000000000000000000000000000000000000000000000000000007fffffffff000000000000000000000000000000000000000000000000000000008316146108f3565b6000612779866117e9565b90506000811161280b576040517f08c379a000000000000000000000000000000000000000000000000000000000815260206004820152603160248201527f476f7665726e6f7254696d656c6f636b436f6d706f756e643a2070726f706f7360448201527f616c206e6f7420796574207175657565640000000000000000000000000000006064820152608401610a41565b60005b855181101561294857600354855173ffffffffffffffffffffffffffffffffffffffff90911690630825f38f9087908490811061284d5761284d6145d1565b6020026020010151888481518110612867576128676145d1565b6020026020010151888581518110612881576128816145d1565b602002602001015188868151811061289b5761289b6145d1565b6020026020010151876040518663ffffffff1660e01b81526004016128c39493929190614600565b6000604051808303818588803b1580156128dc57600080fd5b505af11580156128f0573d6000803e3d6000fd5b50505050506040513d6000823e601f3d9081017fffffffffffffffffffffffffffffffffffffffffffffffffffffffffffffffe01682016040526129379190810190614783565b5061294181614676565b905061280e565b50505050505050565b60007f00000000000000000000000000000000000000000000000000000000000000004614156129a057507f000000000000000000000000000000000000000000000000000000000000000090565b50604080517f00000000000000000000000000000000000000000000000000000000000000006020808301919091527f0000000000000000000000000000000000000000000000000000000000000000828401527f000000000000000000000000000000000000000000000000000000000000000060608301524660808301523060a0808401919091528351808403909101815260c0909201909252805191012090565b6000807f7fffffffffffffffffffffffffffffff5d576e7357a4501ddfe92f46681b20a0831115612a7b5750600090506003612b53565b8460ff16601b14158015612a9357508460ff16601c14155b15612aa45750600090506004612b53565b6040805160008082526020820180845289905260ff881692820192909252606081018690526080810185905260019060a0016020604051602081039080840390855afa158015612af8573d6000803e3d6000fd5b50506040517fffffffffffffffffffffffffffffffffffffffffffffffffffffffffffffffe0015191505073ffffffffffffffffffffffffffffffffffffffff8116612b4c57600060019250925050612b53565b9150600090505b94509492505050565b6000816004811115612b7057612b70614168565b1415612b795750565b6001816004811115612b8d57612b8d614168565b1415612bf5576040517f08c379a000000000000000000000000000000000000000000000000000000000815260206004820152601860248201527f45434453413a20696e76616c6964207369676e617475726500000000000000006044820152606401610a41565b6002816004811115612c0957612c09614168565b1415612c71576040517f08c379a000000000000000000000000000000000000000000000000000000000815260206004820152601f60248201527f45434453413a20696e76616c6964207369676e6174757265206c656e677468006044820152606401610a41565b6003816004811115612c8557612c85614168565b1415612d13576040517f08c379a000000000000000000000000000000000000000000000000000000000815260206004820152602260248201527f45434453413a20696e76616c6964207369676e6174757265202773272076616c60448201527f75650000000000000000000000000000000000000000000000000000000000006064820152608401610a41565b6004816004811115612d2757612d27614168565b14156117e6576040517f08c379a000000000000000000000000000000000000000000000000000000000815260206004820152602260248201527f45434453413a20696e76616c6964207369676e6174757265202776272076616c60448201527f75650000000000000000000000000000000000000000000000000000000000006064820152608401610a41565b600084815260026020908152604080832073ffffffffffffffffffffffffffffffffffffffff8716845260088101909252909120805460ff1615612e7b576040517f08c379a000000000000000000000000000000000000000000000000000000000815260206004820152602d60248201527f476f7665726e6f72436f6d7061746962696c697479427261766f3a20766f746560448201527f20616c72656164792063617374000000000000000000000000000000000000006064820152608401610a41565b805460ff8516610100027fffffffffffffffffffffffffffffffffffffffffffffffffffffffffffff0000909116176001178155612eb883613383565b81546bffffffffffffffffffffffff9190911662010000027fffffffffffffffffffffffffffffffffffff000000000000000000000000ffff90911617815560ff8416612f1e5782826006016000828254612f1391906145b9565b90915550612fe69050565b60ff841660011415612f3e5782826005016000828254612f1391906145b9565b60ff841660021415612f5e5782826007016000828254612f1391906145b9565b6040517f08c379a000000000000000000000000000000000000000000000000000000000815260206004820152602d60248201527f476f7665726e6f72436f6d7061746962696c697479427261766f3a20696e766160448201527f6c696420766f74652074797065000000000000000000000000000000000000006064820152608401610a41565b505050505050565b6000818152600160208181526040808420815160a081018352815467ffffffffffffffff90811660808301908152825283518086018552958301541685529283019390935260029092015460ff808216158015948401949094526101009091041615156060820152906130645750600792915050565b8060600151156130775750600292915050565b8051514367ffffffffffffffff90911611156130965750600092915050565b6020810151514367ffffffffffffffff90911611156130b85750600192915050565b6130c58160200151613421565b15613109576130d383613452565b80156130f5575060008381526002602052604090206006810154600590910154115b613100576003611bce565b60049392505050565b6040517f08c379a000000000000000000000000000000000000000000000000000000000815260206004820152601d60248201527f476f7665726e6f723a20756e6b6e6f776e2070726f706f73616c2069640000006044820152606401610a41565b50919050565b60008061318086868686613479565b9050600061318d826117e9565b90508015610fb95760005b875181101561327657600354885173ffffffffffffffffffffffffffffffffffffffff9091169063591fcdfe908a90849081106131d7576131d76145d1565b60200260200101518984815181106131f1576131f16145d1565b602002602001015189858151811061320b5761320b6145d1565b6020026020010151866040518563ffffffff1660e01b81526004016132339493929190614600565b600060405180830381600087803b15801561324d57600080fd5b505af1158015613261573d6000803e3d6000fd5b505050508061326f90614676565b9050613198565b50600082815260046020526040902080547fffffffffffffffffffffffffffffffffffffffffffffffff0000000000000000169055610fb9565b600060026132c3336107c56001436146af565b1015613377576040517f08c379a000000000000000000000000000000000000000000000000000000000815260206004820152604360248201527f476f7665726e6f72436f6d7061746962696c697479427261766f3a2070726f7060448201527f6f73657220766f7465732062656c6f772070726f706f73616c2074687265736860648201527f6f6c640000000000000000000000000000000000000000000000000000000000608482015260a401610a41565b611738858585856135bc565b60006bffffffffffffffffffffffff821115611f40576040517f08c379a000000000000000000000000000000000000000000000000000000000815260206004820152602660248201527f53616665436173743a2076616c756520646f65736e27742066697420696e203960448201527f36206269747300000000000000000000000000000000000000000000000000006064820152608401610a41565b6000613437825167ffffffffffffffff16151590565b80156108f3575050514367ffffffffffffffff909116111590565b600081815260026020526040812060058101546134716107e585610fc3565b109392505050565b600080613488868686866118ca565b905060006134958261132e565b905060028160078111156134ab576134ab614168565b141580156134cb575060068160078111156134c8576134c8614168565b14155b80156134e9575060078160078111156134e6576134e6614168565b14155b61354f576040517f08c379a000000000000000000000000000000000000000000000000000000000815260206004820152601d60248201527f476f7665726e6f723a2070726f706f73616c206e6f74206163746976650000006044820152606401610a41565b6000828152600160205260409081902060020180547fffffffffffffffffffffffffffffffffffffffffffffffffffffffffffff00ff16610100179055517f789cf55be980739dad1d0699b93b58e806b51c9d96619bfa8fe0a28abaa7b30c90610e3b9084815260200190565b6000806135d286868686805190602001206118ca565b90508451865114613665576040517f08c379a000000000000000000000000000000000000000000000000000000000815260206004820152602160248201527f476f7665726e6f723a20696e76616c69642070726f706f73616c206c656e677460448201527f68000000000000000000000000000000000000000000000000000000000000006064820152608401610a41565b83518651146136f6576040517f08c379a000000000000000000000000000000000000000000000000000000000815260206004820152602160248201527f476f7665726e6f723a20696e76616c69642070726f706f73616c206c656e677460448201527f68000000000000000000000000000000000000000000000000000000000000006064820152608401610a41565b6000865111613761576040517f08c379a000000000000000000000000000000000000000000000000000000000815260206004820152601860248201527f476f7665726e6f723a20656d7074792070726f706f73616c00000000000000006044820152606401610a41565b6000818152600160209081526040918290208251918201909252815467ffffffffffffffff169081905215613818576040517f08c379a000000000000000000000000000000000000000000000000000000000815260206004820152602160248201527f476f7665726e6f723a2070726f706f73616c20616c726561647920657869737460448201527f73000000000000000000000000000000000000000000000000000000000000006064820152608401610a41565b60006138246001611ea6565b61382d43611ea6565b61383791906147f1565b905060006138456002611ea6565b61384f90836147f1565b83547fffffffffffffffffffffffffffffffffffffffffffffffff00000000000000001667ffffffffffffffff841617845590506001830180547fffffffffffffffffffffffffffffffffffffffffffffffff00000000000000001667ffffffffffffffff83161790557f7d84a6263ae0d98d3329bd7b46bb4e8d6f98cd35a7adb45c274c8b7fd5ebd5e084338b8b8d5167ffffffffffffffff8111156138f8576138f8613cad565b60405190808252806020026020018201604052801561392b57816020015b60608152602001906001900390816139165790505b508c88888e6040516139459998979695949392919061481d565b60405180910390a15091979650505050505050565b8280548282559060005260206000209081019282156139d4579160200282015b828111156139d457825182547fffffffffffffffffffffffff00000000000000000000000000000000000000001673ffffffffffffffffffffffffffffffffffffffff90911617825560209092019160019091019061397a565b50611f40929150613acd565b8280548282559060005260206000209081019282156139d4579160200282015b828111156139d4578251825591602001919060010190613a00565b828054828255906000526020600020908101928215613a68579160200282015b82811115613a685782518051613a58918491602090910190613ae2565b5091602001919060010190613a3b565b50611f40929150613b55565b828054828255906000526020600020908101928215613ac1579160200282015b82811115613ac15782518051613ab1918491602090910190613ae2565b5091602001919060010190613a94565b50611f40929150613b72565b5b80821115611f405760008155600101613ace565b828054613aee90614523565b90600052602060002090601f016020900481019282613b1057600085556139d4565b82601f10613b2957805160ff19168380011785556139d4565b828001600101855582156139d457918201828111156139d4578251825591602001919060010190613a00565b80821115611f40576000613b698282613b8f565b50600101613b55565b80821115611f40576000613b868282613b8f565b50600101613b72565b508054613b9b90614523565b6000825580601f10613bab575050565b601f0160209004906000526020600020908101906117e69190613acd565b600060208284031215613bdb57600080fd5b5035919050565b600060208284031215613bf457600080fd5b81357fffffffff0000000000000000000000000000000000000000000000000000000081168114611bce57600080fd5b60005b83811015613c3f578181015183820152602001613c27565b838111156118945750506000910152565b60008151808452613c68816020860160208601613c24565b601f017fffffffffffffffffffffffffffffffffffffffffffffffffffffffffffffffe0169290920160200192915050565b602081526000611bce6020830184613c50565b7f4e487b7100000000000000000000000000000000000000000000000000000000600052604160045260246000fd5b604051601f82017fffffffffffffffffffffffffffffffffffffffffffffffffffffffffffffffe016810167ffffffffffffffff81118282101715613d2357613d23613cad565b604052919050565b600067ffffffffffffffff821115613d4557613d45613cad565b5060051b60200190565b73ffffffffffffffffffffffffffffffffffffffff811681146117e657600080fd5b600082601f830112613d8257600080fd5b81356020613d97613d9283613d2b565b613cdc565b82815260059290921b84018101918181019086841115613db657600080fd5b8286015b84811015613dda578035613dcd81613d4f565b8352918301918301613dba565b509695505050505050565b600082601f830112613df657600080fd5b81356020613e06613d9283613d2b565b82815260059290921b84018101918181019086841115613e2557600080fd5b8286015b84811015613dda5780358352918301918301613e29565b600067ffffffffffffffff821115613e5a57613e5a613cad565b50601f017fffffffffffffffffffffffffffffffffffffffffffffffffffffffffffffffe01660200190565b6000613e94613d9284613e40565b9050828152838383011115613ea857600080fd5b828260208301376000602084830101529392505050565b600082601f830112613ed057600080fd5b81356020613ee0613d9283613d2b565b82815260059290921b84018101918181019086841115613eff57600080fd5b8286015b84811015613dda57803567ffffffffffffffff811115613f235760008081fd5b8701603f81018913613f355760008081fd5b613f46898683013560408401613e86565b845250918301918301613f03565b60008060008060808587031215613f6a57600080fd5b843567ffffffffffffffff80821115613f8257600080fd5b613f8e88838901613d71565b95506020870135915080821115613fa457600080fd5b613fb088838901613de5565b94506040870135915080821115613fc657600080fd5b50613fd387828801613ebf565b949793965093946060013593505050565b600081518084526020808501945080840160005b8381101561402a57815173ffffffffffffffffffffffffffffffffffffffff1687529582019590820190600101613ff8565b509495945050505050565b600081518084526020808501945080840160005b8381101561402a57815187529582019590820190600101614049565b6000815180845260208085019450848260051b860182860160005b858110156140aa578383038952614098838351613c50565b98850198925090840190600101614080565b5090979650505050505050565b6080815260006140ca6080830187613fe4565b82810360208401526140dc8187614035565b905082810360408401526140f08186614065565b905082810360608401526113238185614065565b803560ff8116811461411557600080fd5b919050565b600080600080600060a0868803121561413257600080fd5b8535945061414260208701614104565b935061415060408701614104565b94979396509394606081013594506080013592915050565b7f4e487b7100000000000000000000000000000000000000000000000000000000600052602160045260246000fd5b60208101600883106141d2577f4e487b7100000000000000000000000000000000000000000000000000000000600052602160045260246000fd5b91905290565b600080604083850312156141eb57600080fd5b8235915060208301356141fd81613d4f565b809150509250929050565b6000806040838503121561421b57600080fd5b8235915061422b60208401614104565b90509250929050565b6000806000806060858703121561424a57600080fd5b8435935061425a60208601614104565b9250604085013567ffffffffffffffff8082111561427757600080fd5b818701915087601f83011261428b57600080fd5b81358181111561429a57600080fd5b8860208285010111156142ac57600080fd5b95989497505060200194505050565b600082601f8301126142cc57600080fd5b611bce83833560208501613e86565b600080600080608085870312156142f157600080fd5b843567ffffffffffffffff8082111561430957600080fd5b61431588838901613d71565b9550602087013591508082111561432b57600080fd5b61433788838901613de5565b9450604087013591508082111561434d57600080fd5b61435988838901613ebf565b9350606087013591508082111561436f57600080fd5b5061437c878288016142bb565b91505092959194509250565b60006020828403121561439a57600080fd5b8135611bce81613d4f565b600082601f8301126143b657600080fd5b813560206143c6613d9283613d2b565b82815260059290921b840181019181810190868411156143e557600080fd5b8286015b84811015613dda57803567ffffffffffffffff8111156144095760008081fd5b6144178986838b01016142bb565b8452509183019183016143e9565b600080600080600060a0868803121561443d57600080fd5b853567ffffffffffffffff8082111561445557600080fd5b61446189838a01613d71565b9650602088013591508082111561447757600080fd5b61448389838a01613de5565b9550604088013591508082111561449957600080fd5b6144a589838a016143a5565b945060608801359150808211156144bb57600080fd5b6144c789838a01613ebf565b935060808801359150808211156144dd57600080fd5b506144ea888289016142bb565b9150509295509295909350565b6000806040838503121561450a57600080fd5b823561451581613d4f565b946020939093013593505050565b600181811c9082168061453757607f821691505b6020821081141561316b577f4e487b7100000000000000000000000000000000000000000000000000000000600052602260045260246000fd5b60006020828403121561458357600080fd5b5051919050565b7f4e487b7100000000000000000000000000000000000000000000000000000000600052601160045260246000fd5b600082198211156145cc576145cc61458a565b500190565b7f4e487b7100000000000000000000000000000000000000000000000000000000600052603260045260246000fd5b73ffffffffffffffffffffffffffffffffffffffff8516815283602082015260a06040820152600060a082015260c06060820152600061464360c0830185613c50565b905082608083015295945050505050565b60006020828403121561466657600080fd5b81518015158114611bce57600080fd5b60007fffffffffffffffffffffffffffffffffffffffffffffffffffffffffffffffff8214156146a8576146a861458a565b5060010190565b6000828210156146c1576146c161458a565b500390565b6080815260006146d96080830187613fe4565b82810360208401526146eb8187614035565b905082810360408401526146ff8186614065565b91505082606083015295945050505050565b84815260ff841660208201528260408201526080606082015260006117206080830184613c50565b6000825161474b818460208701613c24565b9190910192915050565b60006020828403121561476757600080fd5b81516bffffffffffffffffffffffff81168114611bce57600080fd5b60006020828403121561479557600080fd5b815167ffffffffffffffff8111156147ac57600080fd5b8201601f810184136147bd57600080fd5b80516147cb613d9282613e40565b8181528560208385010111156147e057600080fd5b611738826020830160208601613c24565b600067ffffffffffffffff8083168185168083038211156148145761481461458a565b01949350505050565b60006101208b835273ffffffffffffffffffffffffffffffffffffffff8b1660208401528060408401526148538184018b613fe4565b90508281036060840152614867818a614035565b9050828103608084015261487b8189614065565b905082810360a084015261488f8188614065565b67ffffffffffffffff87811660c0860152861660e085015283810361010085015290506148bc8185613c50565b9c9b50505050505050505050505056fea2646970667358221220472d6621a106829226369b1695c8d7c4cd89b5fc9046945c80dcb9141b39280c64736f6c63430008090033",
  "devdoc": {
    "kind": "dev",
    "methods": {
      "COUNTING_MODE()": {
        "details": "A description of the possible `support` values for {castVote} and the way these votes are counted, meant to be consumed by UIs to show correct vote options and interpret the results. The string is a URL-encoded sequence of key-value pairs that each describe one aspect, for example `support=bravo&quorum=for,abstain`. There are 2 standard keys: `support` and `quorum`. - `support=bravo` refers to the vote options 0 = For, 1 = Against, 2 = Abstain, as in `GovernorBravo`. - `quorum=bravo` means that only For votes are counted towards quorum. - `quorum=for,abstain` means that both For and Abstain votes are counted towards quorum. NOTE: The string can be decoded by the standard https://developer.mozilla.org/en-US/docs/Web/API/URLSearchParams[`URLSearchParams`] JavaScript class."
      },
      "__acceptAdmin()": {
        "details": "Accept admin right over the timelock."
      },
      "cancel(uint256)": {
        "details": "Cancels a proposal only if sender is the proposer, or proposer delegates dropped below proposal threshold."
      },
      "castVote(uint256,uint8)": {
        "details": "See {IGovernor-castVote}."
      },
      "castVoteBySig(uint256,uint8,uint8,bytes32,bytes32)": {
        "details": "See {IGovernor-castVoteBySig}."
      },
      "castVoteWithReason(uint256,uint8,string)": {
        "details": "See {IGovernor-castVoteWithReason}."
      },
      "execute(address[],uint256[],bytes[],bytes32)": {
        "details": "See {IGovernor-execute}."
      },
      "execute(uint256)": {
        "details": "See {IGovernorCompatibilityBravo-execute}."
      },
      "getActions(uint256)": {
        "details": "See {IGovernorCompatibilityBravo-getActions}."
      },
      "getReceipt(uint256,address)": {
        "details": "See {IGovernorCompatibilityBravo-getReceipt}."
      },
      "hasVoted(uint256,address)": {
        "details": "See {IGovernor-hasVoted}."
      },
      "hashProposal(address[],uint256[],bytes[],bytes32)": {
        "details": "See {IGovernor-hashProposal}. The proposal id is produced by hashing the RLC encoded `targets` array, the `values` array, the `calldatas` array and the descriptionHash (bytes32 which itself is the keccak256 hash of the description string). This proposal id can be produced from the proposal data which is part of the {ProposalCreated} event. It can even be computed in advance, before the proposal is submitted. Note that the chainId and the governor address are not part of the proposal id computation. Consequently, the same proposal (with same operation and same description) will have the same id if submitted on multiple governors accross multiple networks. This also means that in order to execute the same operation twice (on the same governor) the proposer will have to change the description in order to avoid proposal id conflicts."
      },
      "name()": {
        "details": "See {IGovernor-name}."
      },
      "proposalDeadline(uint256)": {
        "details": "See {IGovernor-proposalDeadline}."
      },
      "proposalEta(uint256)": {
        "details": "Public accessor to check the eta of a queued proposal"
      },
      "proposalSnapshot(uint256)": {
        "details": "See {IGovernor-proposalSnapshot}."
      },
      "proposalThreshold()": {
        "details": "Part of the Governor Bravo's interface: _\"The number of votes required in order for a voter to become a proposer\"_."
      },
      "proposals(uint256)": {
        "details": "See {IGovernorCompatibilityBravo-proposals}."
      },
      "propose(address[],uint256[],string[],bytes[],string)": {
        "details": "See {IGovernorCompatibilityBravo-propose}."
      },
      "queue(address[],uint256[],bytes[],bytes32)": {
        "details": "Function to queue a proposal to the timelock."
      },
      "queue(uint256)": {
        "details": "See {IGovernorCompatibilityBravo-queue}."
      },
      "quorumVotes()": {
        "details": "See {IGovernorCompatibilityBravo-quorumVotes}."
      },
      "timelock()": {
        "details": "Public accessor to check the address of the timelock"
      },
      "updateTimelock(address)": {
        "details": "Public endpoint to update the underlying timelock instance. Restricted to the timelock itself, so updates must be proposed, scheduled and executed using the {Governor} workflow. For security reason, the timelock must be handed over to another admin before setting up a new one. The two operations (hand over the timelock) and do the update can be batched in a single proposal. Note that if the timelock admin has been handed over in a previous operation, we refuse updates made through the timelock if admin of the timelock has already been accepted and the operation is executed outside the scope of governance."
      },
      "version()": {
        "details": "See {IGovernor-version}."
      },
      "votingDelay()": {
        "details": "delay, in number of block, between the proposal is created and the vote starts. This can be increassed to leave time for users to buy voting power, of delegate it, before the voting of a proposal starts."
      },
      "votingPeriod()": {
        "details": "delay, in number of blocks, between the vote start and vote ends. Note: the {votingDelay} can delay the start of the vote. This must be considered when setting the voting duration compared to the voting delay."
      }
    },
    "version": 1
  },
  "userdoc": {
    "kind": "user",
    "methods": {
      "COUNTING_MODE()": {
        "notice": "module:voting"
      },
      "votingDelay()": {
        "notice": "module:user-config"
      },
      "votingPeriod()": {
        "notice": "module:user-config"
      }
    },
    "version": 1
  },
  "storageLayout": {
    "storage": [
      {
        "astId": 43,
        "contract": "src/bleepsdao/BleepsDAOGovernance.sol:BleepsDAOGovernance",
        "label": "_name",
        "offset": 0,
        "slot": "0",
        "type": "t_string_storage"
      },
      {
        "astId": 48,
        "contract": "src/bleepsdao/BleepsDAOGovernance.sol:BleepsDAOGovernance",
        "label": "_proposals",
        "offset": 0,
        "slot": "1",
        "type": "t_mapping(t_uint256,t_struct(ProposalCore)41_storage)"
      },
      {
        "astId": 1079,
        "contract": "src/bleepsdao/BleepsDAOGovernance.sol:BleepsDAOGovernance",
        "label": "_proposalDetails",
        "offset": 0,
        "slot": "2",
        "type": "t_mapping(t_uint256,t_struct(ProposalDetails)1074_storage)"
      },
      {
        "astId": 2137,
        "contract": "src/bleepsdao/BleepsDAOGovernance.sol:BleepsDAOGovernance",
        "label": "_timelock",
        "offset": 0,
        "slot": "3",
        "type": "t_contract(ICompoundTimelock)2118"
      },
      {
        "astId": 2142,
        "contract": "src/bleepsdao/BleepsDAOGovernance.sol:BleepsDAOGovernance",
        "label": "_proposalTimelocks",
        "offset": 0,
        "slot": "4",
        "type": "t_mapping(t_uint256,t_struct(ProposalTimelock)2134_storage)"
      }
    ],
    "types": {
      "t_address": {
        "encoding": "inplace",
        "label": "address",
        "numberOfBytes": "20"
      },
      "t_array(t_address)dyn_storage": {
        "base": "t_address",
        "encoding": "dynamic_array",
        "label": "address[]",
        "numberOfBytes": "32"
      },
      "t_array(t_bytes_storage)dyn_storage": {
        "base": "t_bytes_storage",
        "encoding": "dynamic_array",
        "label": "bytes[]",
        "numberOfBytes": "32"
      },
      "t_array(t_string_storage)dyn_storage": {
        "base": "t_string_storage",
        "encoding": "dynamic_array",
        "label": "string[]",
        "numberOfBytes": "32"
      },
      "t_array(t_uint256)dyn_storage": {
        "base": "t_uint256",
        "encoding": "dynamic_array",
        "label": "uint256[]",
        "numberOfBytes": "32"
      },
      "t_bool": {
        "encoding": "inplace",
        "label": "bool",
        "numberOfBytes": "1"
      },
      "t_bytes32": {
        "encoding": "inplace",
        "label": "bytes32",
        "numberOfBytes": "32"
      },
      "t_bytes_storage": {
        "encoding": "bytes",
        "label": "bytes",
        "numberOfBytes": "32"
      },
      "t_contract(ICompoundTimelock)2118": {
        "encoding": "inplace",
        "label": "contract ICompoundTimelock",
        "numberOfBytes": "20"
      },
      "t_mapping(t_address,t_struct(Receipt)1854_storage)": {
        "encoding": "mapping",
        "key": "t_address",
        "label": "mapping(address => struct IGovernorCompatibilityBravo.Receipt)",
        "numberOfBytes": "32",
        "value": "t_struct(Receipt)1854_storage"
      },
      "t_mapping(t_uint256,t_struct(ProposalCore)41_storage)": {
        "encoding": "mapping",
        "key": "t_uint256",
        "label": "mapping(uint256 => struct Governor.ProposalCore)",
        "numberOfBytes": "32",
        "value": "t_struct(ProposalCore)41_storage"
      },
      "t_mapping(t_uint256,t_struct(ProposalDetails)1074_storage)": {
        "encoding": "mapping",
        "key": "t_uint256",
        "label": "mapping(uint256 => struct GovernorCompatibilityBravo.ProposalDetails)",
        "numberOfBytes": "32",
        "value": "t_struct(ProposalDetails)1074_storage"
      },
      "t_mapping(t_uint256,t_struct(ProposalTimelock)2134_storage)": {
        "encoding": "mapping",
        "key": "t_uint256",
        "label": "mapping(uint256 => struct GovernorTimelockCompound.ProposalTimelock)",
        "numberOfBytes": "32",
        "value": "t_struct(ProposalTimelock)2134_storage"
      },
      "t_string_storage": {
        "encoding": "bytes",
        "label": "string",
        "numberOfBytes": "32"
      },
      "t_struct(BlockNumber)4872_storage": {
        "encoding": "inplace",
        "label": "struct Timers.BlockNumber",
        "members": [
          {
            "astId": 4871,
            "contract": "src/bleepsdao/BleepsDAOGovernance.sol:BleepsDAOGovernance",
            "label": "_deadline",
            "offset": 0,
            "slot": "0",
            "type": "t_uint64"
          }
        ],
        "numberOfBytes": "32"
      },
      "t_struct(ProposalCore)41_storage": {
        "encoding": "inplace",
        "label": "struct Governor.ProposalCore",
        "members": [
          {
            "astId": 33,
            "contract": "src/bleepsdao/BleepsDAOGovernance.sol:BleepsDAOGovernance",
            "label": "voteStart",
            "offset": 0,
            "slot": "0",
            "type": "t_struct(BlockNumber)4872_storage"
          },
          {
            "astId": 36,
            "contract": "src/bleepsdao/BleepsDAOGovernance.sol:BleepsDAOGovernance",
            "label": "voteEnd",
            "offset": 0,
            "slot": "1",
            "type": "t_struct(BlockNumber)4872_storage"
          },
          {
            "astId": 38,
            "contract": "src/bleepsdao/BleepsDAOGovernance.sol:BleepsDAOGovernance",
            "label": "executed",
            "offset": 0,
            "slot": "2",
            "type": "t_bool"
          },
          {
            "astId": 40,
            "contract": "src/bleepsdao/BleepsDAOGovernance.sol:BleepsDAOGovernance",
            "label": "canceled",
            "offset": 1,
            "slot": "2",
            "type": "t_bool"
          }
        ],
        "numberOfBytes": "96"
      },
      "t_struct(ProposalDetails)1074_storage": {
        "encoding": "inplace",
        "label": "struct GovernorCompatibilityBravo.ProposalDetails",
        "members": [
          {
            "astId": 1048,
            "contract": "src/bleepsdao/BleepsDAOGovernance.sol:BleepsDAOGovernance",
            "label": "proposer",
            "offset": 0,
            "slot": "0",
            "type": "t_address"
          },
          {
            "astId": 1051,
            "contract": "src/bleepsdao/BleepsDAOGovernance.sol:BleepsDAOGovernance",
            "label": "targets",
            "offset": 0,
            "slot": "1",
            "type": "t_array(t_address)dyn_storage"
          },
          {
            "astId": 1054,
            "contract": "src/bleepsdao/BleepsDAOGovernance.sol:BleepsDAOGovernance",
            "label": "values",
            "offset": 0,
            "slot": "2",
            "type": "t_array(t_uint256)dyn_storage"
          },
          {
            "astId": 1057,
            "contract": "src/bleepsdao/BleepsDAOGovernance.sol:BleepsDAOGovernance",
            "label": "signatures",
            "offset": 0,
            "slot": "3",
            "type": "t_array(t_string_storage)dyn_storage"
          },
          {
            "astId": 1060,
            "contract": "src/bleepsdao/BleepsDAOGovernance.sol:BleepsDAOGovernance",
            "label": "calldatas",
            "offset": 0,
            "slot": "4",
            "type": "t_array(t_bytes_storage)dyn_storage"
          },
          {
            "astId": 1062,
            "contract": "src/bleepsdao/BleepsDAOGovernance.sol:BleepsDAOGovernance",
            "label": "forVotes",
            "offset": 0,
            "slot": "5",
            "type": "t_uint256"
          },
          {
            "astId": 1064,
            "contract": "src/bleepsdao/BleepsDAOGovernance.sol:BleepsDAOGovernance",
            "label": "againstVotes",
            "offset": 0,
            "slot": "6",
            "type": "t_uint256"
          },
          {
            "astId": 1066,
            "contract": "src/bleepsdao/BleepsDAOGovernance.sol:BleepsDAOGovernance",
            "label": "abstainVotes",
            "offset": 0,
            "slot": "7",
            "type": "t_uint256"
          },
          {
            "astId": 1071,
            "contract": "src/bleepsdao/BleepsDAOGovernance.sol:BleepsDAOGovernance",
            "label": "receipts",
            "offset": 0,
            "slot": "8",
            "type": "t_mapping(t_address,t_struct(Receipt)1854_storage)"
          },
          {
            "astId": 1073,
            "contract": "src/bleepsdao/BleepsDAOGovernance.sol:BleepsDAOGovernance",
            "label": "descriptionHash",
            "offset": 0,
            "slot": "9",
            "type": "t_bytes32"
          }
        ],
        "numberOfBytes": "320"
      },
      "t_struct(ProposalTimelock)2134_storage": {
        "encoding": "inplace",
        "label": "struct GovernorTimelockCompound.ProposalTimelock",
        "members": [
          {
            "astId": 2133,
            "contract": "src/bleepsdao/BleepsDAOGovernance.sol:BleepsDAOGovernance",
            "label": "timer",
            "offset": 0,
            "slot": "0",
            "type": "t_struct(Timestamp)4767_storage"
          }
        ],
        "numberOfBytes": "32"
      },
      "t_struct(Receipt)1854_storage": {
        "encoding": "inplace",
        "label": "struct IGovernorCompatibilityBravo.Receipt",
        "members": [
          {
            "astId": 1849,
            "contract": "src/bleepsdao/BleepsDAOGovernance.sol:BleepsDAOGovernance",
            "label": "hasVoted",
            "offset": 0,
            "slot": "0",
            "type": "t_bool"
          },
          {
            "astId": 1851,
            "contract": "src/bleepsdao/BleepsDAOGovernance.sol:BleepsDAOGovernance",
            "label": "support",
            "offset": 1,
            "slot": "0",
            "type": "t_uint8"
          },
          {
            "astId": 1853,
            "contract": "src/bleepsdao/BleepsDAOGovernance.sol:BleepsDAOGovernance",
            "label": "votes",
            "offset": 2,
            "slot": "0",
            "type": "t_uint96"
          }
        ],
        "numberOfBytes": "32"
      },
      "t_struct(Timestamp)4767_storage": {
        "encoding": "inplace",
        "label": "struct Timers.Timestamp",
        "members": [
          {
            "astId": 4766,
            "contract": "src/bleepsdao/BleepsDAOGovernance.sol:BleepsDAOGovernance",
            "label": "_deadline",
            "offset": 0,
            "slot": "0",
            "type": "t_uint64"
          }
        ],
        "numberOfBytes": "32"
      },
      "t_uint256": {
        "encoding": "inplace",
        "label": "uint256",
        "numberOfBytes": "32"
      },
      "t_uint64": {
        "encoding": "inplace",
        "label": "uint64",
        "numberOfBytes": "8"
      },
      "t_uint8": {
        "encoding": "inplace",
        "label": "uint8",
        "numberOfBytes": "1"
      },
      "t_uint96": {
        "encoding": "inplace",
        "label": "uint96",
        "numberOfBytes": "12"
      }
    }
  }
}