{
  "address": "0x07C6C4FB0a6fCADFc2f44b1655B442030C641b89",
  "abi": [
    {
      "inputs": [
        {
          "internalType": "uint256",
          "name": "id",
          "type": "uint256"
        }
      ],
      "name": "wav",
      "outputs": [
        {
          "internalType": "string",
          "name": "",
          "type": "string"
        }
      ],
      "stateMutability": "view",
      "type": "function"
    }
  ],
  "transactionHash": "0xb6cb4d838138752760f38719c227f2b9fbb0ca24b46b3b2991db682ee5907bf4",
  "args": [],
  "solcInputHash": "1fe95427c7d0e20d4317a1fdb3cda5cd",
  "bytecode": "0x608060405234801561001057600080fd5b5061144e806100206000396000f3fe608060405234801561001057600080fd5b506004361061002b5760003560e01c8063c4df382614610030575b600080fd5b61004361003e366004610d85565b610059565b6040516100509190610dce565b60405180910390f35b60606100648261006a565b92915050565b60408051620186a0808252620186c082019092526060916000919060208201818036833701905050905060006100a084836105e4565b905060006100af604086610e4e565b905060006100c26040600688901c610e4e565b604080516060810182528181529192506101f4916000916113d9602083013990506000806100f1876020610e91565b90506001830191508088019050600060405180610120016040528060fc81526020016112dd60fc913960408051600480825260a082019092529192506000918291602082016080803683370190505090506000965060005b612df68110156105c35761223e8111156101765787156101715761016e600189610ea9565b97505b6101ad565b610181600282610e4e565b610171576101f48810156101715761016e600189610e91565b8060008112156101a8576000035b919050565b612af861271062ffffff60038d0260200187015160e81c1602046000805b6003811015610568576000861561054f578c610222576101f7620f42406002620f42408a06020361019a565b60029081027ffffffffffffffffffffffffffffffffffffffffffffffffffffffffffff0bdc0010590505b60018d14156102a457620f42408707620d59f8811215610246576007601082020591505b620d59f881131561025d57601081620f4240030291505b620d59f881141561027457601081620f4240030291505b50620f42407ffffffffffffffffffffffffffffffffffffffffffffffffffffffffffff0bdc09091016207a12002055b60028d14156102de5750620f42407ffffffffffffffffffffffffffffffffffffffffffffffffffffffffffff85ee081880701620aae6002055b60038d141561032757507ffffffffffffffffffffffffffffffffffffffffffffffffffffffffffff0bdc0620f424087076207a12081101561032157620f424091505b50600490055b60048d141561037057507ffffffffffffffffffffffffffffffffffffffffffffffffffffffffffff0bdc0620f424087076204c4b481101561036a57620f424091505b50600490055b60058d14156103cf57600487029050620f42406207a120620186a06207a12060026207a1206103b2620f4240621e8480620f42406207a1208b0205070361019a565b03056103c7620f4240621e848088070361019a565b010303020590505b60068d14156104c85760208601516040870151606088015160808901516380000000613039856341c64e6d020106935062027100620f4240848d03020482915080620f424001620f42406308000000621e848088020403828401020592508b9350620f42408160020360036004868601020502059550507ffffffffffffffffffffffffffffffffffffffffffffffffffffffffffff0bdc0851215610492577ffffffffffffffffffffffffffffffffffffffffffffffffffffffffffff0bdc094505b620f42408513156104a457620f424094505b60208a0193909352604089019190915260608801526080870152600a600591909102055b60078d141561053657506002868102906203d090906207a1206105177ffffffffffffffffffffffffffffffffffffffffffffffffffffffffffff0bdc0621e8480608060fe8e0205070161019a565b0305036207a120610531620f4240621e848085070361019a565b030190505b6102bc8c82020590506080621e84806101008302050190505b95830195600882026010031b91909101906001016101cb565b50603f8160121c168801518753600187019650603f81600c1c168801518753600187019650603f8160061c168801518753600187019650603f811688015187535050600194909401936105bc600382610e91565b9050610149565b506105d38b8587612df68e6106c6565b50989b9a5050505050505050505050565b6000806105f0846108f1565b905060008182604051602001610607929190610edc565b604080517fffffffffffffffffffffffffffffffffffffffffffffffffffffffffffffffe0818403018152919052805190915060208083019086015b6020831061068057815181527fffffffffffffffffffffffffffffffffffffffffffffffffffffffffffffffe09092019160209182019101610643565b905181516020939093036101000a7fffffffffffffffffffffffffffffffffffffffffffffffffffffffffffffffff018019909116921691909117905251949350505050565b60228453600184019350607d84536001840193506020858503038552600060086001846106f39190610ea9565b6106fe906002611199565b61070990602c610e91565b6107139190610ea9565b90506000602c610724836008610e91565b61072e9190610ea9565b9050603461073d846020610e91565b6107479190610ea9565b603f602084901b64ff0000000016601085811b63ff000000169190910162ff00008616019085901c61ff0016016546000000005701602a81901c919091168701519189019750908753600187019650603f8160241c168601518753600187019650603f81601e1c168601518753600187019650603f8160181c168601518753600187019650603f8160121c168601518753600187019650603f81600c1c168601518753600187019650603f8160061c168601518753600187019650603f81168601518753506004610819846020610e91565b6108239190610ea9565b603f602083901b64ff0000000016601084811b63ff000000169190910162ff00008516019084901c61ff0016016561000000005701602a81901c919091168701519189019750908753600187019650603f8160241c168601518753600187019650603f81601e1c168601518753600187019650603f8160181c168601518753600187019650603f8160121c168601518753600187019650603f81600c1c168601518753600187019650603f8160061c168601518753600187019650603f811686015187535050505050505050565b60606000610900604084610e4e565b905060006109136040600686901c610e4e565b905080610957576040518060400160405280600d81526020017f545249414e474c452532305f5f000000000000000000000000000000000000008152509250610b3d565b806001141561099d576040518060400160405280601181526020017f54494c5445442532305341572532305f5f0000000000000000000000000000008152509250610b3d565b80600214156109e3576040518060400160405280600881526020017f5341572532305f5f0000000000000000000000000000000000000000000000008152509250610b3d565b8060031415610a29576040518060400160405280600b81526020017f5351554152452532305f5f0000000000000000000000000000000000000000008152509250610b3d565b8060041415610a6f576040518060400160405280600a81526020017f50554c53452532305f5f000000000000000000000000000000000000000000008152509250610b3d565b8060051415610ab5576040518060400160405280600a81526020017f4f5247414e2532305f5f000000000000000000000000000000000000000000008152509250610b3d565b8060061415610afb576040518060400160405280600a81526020017f4e4f4953452532305f5f000000000000000000000000000000000000000000008152509250610b3d565b8060071415610b3d576040518060400160405280600b81526020017f5048415345522532305f5f00000000000000000000000000000000000000000081525092505b6000610b4a600c84610e4e565b90508060ff811615610b645780610b60816111d6565b9150505b60028260ff161115610b7e5780610b7a816111d6565b9150505b60058260ff161115610b985780610b94816111d6565b9150505b60078260ff161115610bb25780610bae816111d6565b9150505b60098260ff161115610bcc5780610bc8816111d6565b9150505b6007610bd9826002611211565b610be39190611236565b610bee906041611211565b60f81b8560028751610c009190610ea9565b81518110610c1057610c10611258565b60200101907effffffffffffffffffffffffffffffffffffffffffffffffffffffffffffff1916908160001a9053508160ff1660011480610c5457508160ff166003145b80610c6257508160ff166006145b80610c7057508160ff166008145b80610c7e57508160ff16600a145b15610d15577f25000000000000000000000000000000000000000000000000000000000000008560018751610cb39190610ea9565b81518110610cc357610cc3611258565b60200101907effffffffffffffffffffffffffffffffffffffffffffffffffffffffffffff1916908160001a90535084604051602001610d039190611287565b60405160208183030381529060405294505b610d20600c856112c8565b610d2b906030611211565b60f81b8560018751610d3d9190610ea9565b81518110610d4d57610d4d611258565b60200101907effffffffffffffffffffffffffffffffffffffffffffffffffffffffffffff1916908160001a90535050505050919050565b600060208284031215610d9757600080fd5b5035919050565b60005b83811015610db9578181015183820152602001610da1565b83811115610dc8576000848401525b50505050565b6020815260008251806020840152610ded816040850160208701610d9e565b601f017fffffffffffffffffffffffffffffffffffffffffffffffffffffffffffffffe0169190910160400192915050565b7f4e487b7100000000000000000000000000000000000000000000000000000000600052601260045260246000fd5b600082610e5d57610e5d610e1f565b500690565b7f4e487b7100000000000000000000000000000000000000000000000000000000600052601160045260246000fd5b60008219821115610ea457610ea4610e62565b500190565b600082821015610ebb57610ebb610e62565b500390565b60008151610ed2818560208601610d9e565b9290920192915050565b7f646174613a6170706c69636174696f6e2f6a736f6e2c7b226e616d65223a2200815260008351610f1481601f850160208801610d9e565b7f222c226465736372697074696f6e223a2241253230736f756e6425323066756c601f918401918201527f6c7925323067656e6572617465642532306f6e636861696e222c226578746572603f8201527f6e616c5f75726c223a2200000000000000000000000000000000000000000000605f8201527f68747470733a2f2f626c656570732e6574682e6c696e6b00000000000000000060698201527f222c22696d616765223a22646174613a696d6167652f7376672b786d6c2c3c7360808201527f7667253235323076696577426f783d273025323532303025323532303332253260a08201527f35323031362725323532303e3c746578742532353230783d273136272532353260c08201527f30793d2738272532353230646f6d696e616e742d626173656c696e653d276d6960e08201527f64646c65272532353230746578742d616e63686f723d276d6964646c652725326101008201527f3532307374796c653d2766696c6c3a2532353230726762283231392c253235326101208201527f3033392c2532353230313139293b2532353230666f6e742d73697a653a2532356101408201527f3230313270783b273e00000000000000000000000000000000000000000000006101608201526111906110f5610169830186610ec0565b7f3c2f746578743e3c2f7376673e222c22616e696d6174696f6e5f75726c223a2281527f646174613a617564696f2f7761763b6261736536342c556b6c4752674141414160208201527f425851565a465a6d31304942414141414142414145412b436f4141504256414160408201527f4142414167415a474630595141410000000000000000000000000000000000006060820152606e0190565b95945050505050565b6000817fffffffffffffffffffffffffffffffffffffffffffffffffffffffffffffffff04831182151516156111d1576111d1610e62565b500290565b600060ff8216806111e9576111e9610e62565b7fffffffffffffffffffffffffffffffffffffffffffffffffffffffffffffffff0192915050565b600060ff821660ff84168060ff0382111561122e5761122e610e62565b019392505050565b600060ff83168061124957611249610e1f565b8060ff84160691505092915050565b7f4e487b7100000000000000000000000000000000000000000000000000000000600052603260045260246000fd5b60008251611299818460208701610d9e565b7f32335f0000000000000000000000000000000000000000000000000000000000920191825250600301919050565b6000826112d7576112d7610e1f565b50049056fe00198d001b12001cae001e6200203100221b00242200264800288f002af8002d8600303b00331900362300395b003cc4004061004435004844004c9000511d0055f0005b0c006076006633006c460072b60079890080c300886b00908700992000a23a00abe000b61800c0ec00cc6500d88d00e56d00f3110101850110d601210f01323f0144750157c0016c310181d90198ca01b11901cada01e62302030b0221ab02421e02647e0288ea02af8002d8620303b10331940362320395b403cc4604061604435704843c04c8fc0511d4055f0005b0c306076306632906c464072b6707988b080c2c0886ad0908770991f90a23a80abe000b61860c0ec54142434445464748494a4b4c4d4e4f505152535455565758595a6162636465666768696a6b6c6d6e6f707172737475767778797a303132333435363738392b2fa264697066735822122053876c6b09123af3e0310c8d96107f4872047b8cdbf8c3d7e0a7047ffc22099764736f6c63430008090033",
  "devdoc": {
    "kind": "dev",
    "methods": {},
    "version": 1
  },
  "userdoc": {
    "kind": "user",
    "methods": {},
    "version": 1
  },
  "storageLayout": {
    "storage": [],
    "types": null
  }
}