{
  "address": "0xEE47AeDEE8C8d3DdC84154bB371d446B4d4Bbb5f",
  "abi": [
    {
      "inputs": [
        {
          "internalType": "address",
          "name": "initialTokenURIAdmin",
          "type": "address"
        },
        {
          "internalType": "address",
          "name": "initialRoyaltyAdmin",
          "type": "address"
        },
        {
          "internalType": "address",
          "name": "initialMinterAdmin",
          "type": "address"
        },
        {
          "internalType": "contract MeloBleepsTokenURI",
          "name": "initialTokenURIContract",
          "type": "address"
        }
      ],
      "stateMutability": "nonpayable",
      "type": "constructor"
    },
    {
      "anonymous": false,
      "inputs": [
        {
          "indexed": true,
          "internalType": "address",
          "name": "owner",
          "type": "address"
        },
        {
          "indexed": true,
          "internalType": "address",
          "name": "approved",
          "type": "address"
        },
        {
          "indexed": true,
          "internalType": "uint256",
          "name": "tokenId",
          "type": "uint256"
        }
      ],
      "name": "Approval",
      "type": "event"
    },
    {
      "anonymous": false,
      "inputs": [
        {
          "indexed": true,
          "internalType": "address",
          "name": "owner",
          "type": "address"
        },
        {
          "indexed": true,
          "internalType": "address",
          "name": "operator",
          "type": "address"
        },
        {
          "indexed": false,
          "internalType": "bool",
          "name": "approved",
          "type": "bool"
        }
      ],
      "name": "ApprovalForAll",
      "type": "event"
    },
    {
      "anonymous": false,
      "inputs": [
        {
          "indexed": false,
          "internalType": "address",
          "name": "newMinterAdmin",
          "type": "address"
        }
      ],
      "name": "MinterAdminSet",
      "type": "event"
    },
    {
      "anonymous": false,
      "inputs": [
        {
          "indexed": false,
          "internalType": "address",
          "name": "newMinter",
          "type": "address"
        }
      ],
      "name": "MinterSet",
      "type": "event"
    },
    {
      "anonymous": false,
      "inputs": [
        {
          "indexed": false,
          "internalType": "address",
          "name": "newRoyaltyAdmin",
          "type": "address"
        }
      ],
      "name": "RoyaltyAdminSet",
      "type": "event"
    },
    {
      "anonymous": false,
      "inputs": [
        {
          "indexed": false,
          "internalType": "address",
          "name": "newTokenURIAdmin",
          "type": "address"
        }
      ],
      "name": "TokenURIAdminSet",
      "type": "event"
    },
    {
      "anonymous": false,
      "inputs": [
        {
          "indexed": false,
          "internalType": "contract MeloBleepsTokenURI",
          "name": "newTokenURIContract",
          "type": "address"
        }
      ],
      "name": "TokenURIContractSet",
      "type": "event"
    },
    {
      "anonymous": false,
      "inputs": [
        {
          "indexed": true,
          "internalType": "address",
          "name": "from",
          "type": "address"
        },
        {
          "indexed": true,
          "internalType": "address",
          "name": "to",
          "type": "address"
        },
        {
          "indexed": true,
          "internalType": "uint256",
          "name": "tokenId",
          "type": "uint256"
        }
      ],
      "name": "Transfer",
      "type": "event"
    },
    {
      "inputs": [
        {
          "internalType": "address",
          "name": "operator",
          "type": "address"
        },
        {
          "internalType": "uint256",
          "name": "id",
          "type": "uint256"
        }
      ],
      "name": "approve",
      "outputs": [],
      "stateMutability": "nonpayable",
      "type": "function"
    },
    {
      "inputs": [
        {
          "internalType": "address",
          "name": "owner",
          "type": "address"
        }
      ],
      "name": "balanceOf",
      "outputs": [
        {
          "internalType": "uint256",
          "name": "balance",
          "type": "uint256"
        }
      ],
      "stateMutability": "view",
      "type": "function"
    },
    {
      "inputs": [
        {
          "internalType": "uint256",
          "name": "id",
          "type": "uint256"
        }
      ],
      "name": "creatorOf",
      "outputs": [
        {
          "internalType": "address payable",
          "name": "",
          "type": "address"
        }
      ],
      "stateMutability": "view",
      "type": "function"
    },
    {
      "inputs": [
        {
          "internalType": "uint256",
          "name": "id",
          "type": "uint256"
        }
      ],
      "name": "getApproved",
      "outputs": [
        {
          "internalType": "address",
          "name": "",
          "type": "address"
        }
      ],
      "stateMutability": "view",
      "type": "function"
    },
    {
      "inputs": [
        {
          "internalType": "address",
          "name": "owner",
          "type": "address"
        },
        {
          "internalType": "address",
          "name": "operator",
          "type": "address"
        }
      ],
      "name": "isApprovedForAll",
      "outputs": [
        {
          "internalType": "bool",
          "name": "isOperator",
          "type": "bool"
        }
      ],
      "stateMutability": "view",
      "type": "function"
    },
    {
      "inputs": [
        {
          "internalType": "address payable",
          "name": "artist",
          "type": "address"
        },
        {
          "internalType": "bytes32",
          "name": "data1",
          "type": "bytes32"
        },
        {
          "internalType": "bytes32",
          "name": "data2",
          "type": "bytes32"
        },
        {
          "internalType": "address",
          "name": "to",
          "type": "address"
        }
      ],
      "name": "mint",
      "outputs": [
        {
          "internalType": "uint256",
          "name": "id",
          "type": "uint256"
        }
      ],
      "stateMutability": "nonpayable",
      "type": "function"
    },
    {
      "inputs": [],
      "name": "minter",
      "outputs": [
        {
          "internalType": "address",
          "name": "",
          "type": "address"
        }
      ],
      "stateMutability": "view",
      "type": "function"
    },
    {
      "inputs": [],
      "name": "minterAdmin",
      "outputs": [
        {
          "internalType": "address",
          "name": "",
          "type": "address"
        }
      ],
      "stateMutability": "view",
      "type": "function"
    },
    {
      "inputs": [
        {
          "internalType": "bytes[]",
          "name": "data",
          "type": "bytes[]"
        }
      ],
      "name": "multicall",
      "outputs": [
        {
          "internalType": "bytes[]",
          "name": "results",
          "type": "bytes[]"
        }
      ],
      "stateMutability": "payable",
      "type": "function"
    },
    {
      "inputs": [],
      "name": "name",
      "outputs": [
        {
          "internalType": "string",
          "name": "",
          "type": "string"
        }
      ],
      "stateMutability": "pure",
      "type": "function"
    },
    {
      "inputs": [
        {
          "internalType": "uint256[]",
          "name": "ids",
          "type": "uint256[]"
        }
      ],
      "name": "ownerAndLastTransferBlockNumberList",
      "outputs": [
        {
          "components": [
            {
              "internalType": "address",
              "name": "owner",
              "type": "address"
            },
            {
              "internalType": "uint256",
              "name": "lastTransferBlockNumber",
              "type": "uint256"
            }
          ],
          "internalType": "struct ERC721Base.OwnerData[]",
          "name": "ownersData",
          "type": "tuple[]"
        }
      ],
      "stateMutability": "view",
      "type": "function"
    },
    {
      "inputs": [
        {
          "internalType": "uint256",
          "name": "id",
          "type": "uint256"
        }
      ],
      "name": "ownerOf",
      "outputs": [
        {
          "internalType": "address",
          "name": "owner",
          "type": "address"
        }
      ],
      "stateMutability": "view",
      "type": "function"
    },
    {
      "inputs": [],
      "name": "royaltyAdmin",
      "outputs": [
        {
          "internalType": "address",
          "name": "",
          "type": "address"
        }
      ],
      "stateMutability": "view",
      "type": "function"
    },
    {
      "inputs": [
        {
          "internalType": "address",
          "name": "from",
          "type": "address"
        },
        {
          "internalType": "address",
          "name": "to",
          "type": "address"
        },
        {
          "internalType": "uint256",
          "name": "id",
          "type": "uint256"
        }
      ],
      "name": "safeTransferFrom",
      "outputs": [],
      "stateMutability": "nonpayable",
      "type": "function"
    },
    {
      "inputs": [
        {
          "internalType": "address",
          "name": "from",
          "type": "address"
        },
        {
          "internalType": "address",
          "name": "to",
          "type": "address"
        },
        {
          "internalType": "uint256",
          "name": "id",
          "type": "uint256"
        },
        {
          "internalType": "bytes",
          "name": "data",
          "type": "bytes"
        }
      ],
      "name": "safeTransferFrom",
      "outputs": [],
      "stateMutability": "nonpayable",
      "type": "function"
    },
    {
      "inputs": [
        {
          "internalType": "address",
          "name": "operator",
          "type": "address"
        },
        {
          "internalType": "bool",
          "name": "approved",
          "type": "bool"
        }
      ],
      "name": "setApprovalForAll",
      "outputs": [],
      "stateMutability": "nonpayable",
      "type": "function"
    },
    {
      "inputs": [
        {
          "internalType": "address",
          "name": "newMinter",
          "type": "address"
        }
      ],
      "name": "setMinter",
      "outputs": [],
      "stateMutability": "nonpayable",
      "type": "function"
    },
    {
      "inputs": [
        {
          "internalType": "address",
          "name": "newMinterAdmin",
          "type": "address"
        }
      ],
      "name": "setMinterAdmin",
      "outputs": [],
      "stateMutability": "nonpayable",
      "type": "function"
    },
    {
      "inputs": [
        {
          "internalType": "address",
          "name": "newRoyaltyAdmin",
          "type": "address"
        }
      ],
      "name": "setRoyaltyAdmin",
      "outputs": [],
      "stateMutability": "nonpayable",
      "type": "function"
    },
    {
      "inputs": [
        {
          "internalType": "address",
          "name": "newTokenURIAdmin",
          "type": "address"
        }
      ],
      "name": "setTokenURIAdmin",
      "outputs": [],
      "stateMutability": "nonpayable",
      "type": "function"
    },
    {
      "inputs": [
        {
          "internalType": "contract MeloBleepsTokenURI",
          "name": "newTokenURIContract",
          "type": "address"
        }
      ],
      "name": "setTokenURIContract",
      "outputs": [],
      "stateMutability": "nonpayable",
      "type": "function"
    },
    {
      "inputs": [
        {
          "internalType": "bytes4",
          "name": "id",
          "type": "bytes4"
        }
      ],
      "name": "supportsInterface",
      "outputs": [
        {
          "internalType": "bool",
          "name": "",
          "type": "bool"
        }
      ],
      "stateMutability": "pure",
      "type": "function"
    },
    {
      "inputs": [],
      "name": "symbol",
      "outputs": [
        {
          "internalType": "string",
          "name": "",
          "type": "string"
        }
      ],
      "stateMutability": "pure",
      "type": "function"
    },
    {
      "inputs": [
        {
          "internalType": "uint256",
          "name": "id",
          "type": "uint256"
        }
      ],
      "name": "tokenURI",
      "outputs": [
        {
          "internalType": "string",
          "name": "",
          "type": "string"
        }
      ],
      "stateMutability": "view",
      "type": "function"
    },
    {
      "inputs": [],
      "name": "tokenURIAdmin",
      "outputs": [
        {
          "internalType": "address",
          "name": "",
          "type": "address"
        }
      ],
      "stateMutability": "view",
      "type": "function"
    },
    {
      "inputs": [],
      "name": "tokenURIContract",
      "outputs": [
        {
          "internalType": "contract MeloBleepsTokenURI",
          "name": "",
          "type": "address"
        }
      ],
      "stateMutability": "view",
      "type": "function"
    },
    {
      "inputs": [
        {
          "internalType": "address",
          "name": "from",
          "type": "address"
        },
        {
          "internalType": "address",
          "name": "to",
          "type": "address"
        },
        {
          "internalType": "uint256",
          "name": "id",
          "type": "uint256"
        }
      ],
      "name": "transferFrom",
      "outputs": [],
      "stateMutability": "nonpayable",
      "type": "function"
    }
  ],
  "transactionHash": "0x19d4eb46445e4180390c2381342f7d8681621265f3e475a8d20c70d648e19146",
  "args": [
    "0xE53cd71271AcAdbeb0f64d9c8C62bBdDc8cA9e66",
    "0xE53cd71271AcAdbeb0f64d9c8C62bBdDc8cA9e66",
    "0xE53cd71271AcAdbeb0f64d9c8C62bBdDc8cA9e66",
    "0x1f759F57E91C042a40e413eC01ce6b7fb2AfE554"
  ],
  "solcInputHash": "d916af620307ccba45feb080daf8a057",
  "bytecode": "0x60806040526000600a553480156200001657600080fd5b50604051620029903803806200299083398101604081905262000039916200019c565b600480546001600160a01b038681166001600160a01b031992831681179093556005805486831690841617905560068054918716919092161790556040519081528490849084907f89de65ceb8cdf195a0b50021ed65dd305b54d3b744a0e283bd98c6058e2edd789060200160405180910390a16040516001600160a01b03821681527fb17416b845258d996b82b66c3c9166088ec5edf592b35fcce47c62a73d61ef419060200160405180910390a16040516001600160a01b03831681527fb8e0165b6664b7af8f9563c66e3d6b987c2d06fe192539d7123a0777b41a7c899060200160405180910390a15050600880546001600160a01b0319166001600160a01b0384169081179091556040519081527f6bf5b09f847c9c9e97addeaf1ea9d5fd44ff6ae2c9c4aaf55fb476eca421a45d915060200160405180910390a15050505062000204565b6001600160a01b03811681146200019957600080fd5b50565b60008060008060808587031215620001b357600080fd5b8451620001c08162000183565b6020860151909450620001d38162000183565b6040860151909350620001e68162000183565b6060860151909250620001f98162000183565b939692955090935050565b61277c80620002146000396000f3fe6080604052600436106101ac5760003560e01c806370a08231116100ec578063a754d48f1161008a578063c87b56dd11610064578063c87b56dd14610597578063e985e9c5146105b7578063f39452821461060d578063fca3b5aa1461063a57600080fd5b8063a754d48f1461052a578063ac9650d814610557578063b88d4fde1461057757600080fd5b8063894e851f116100c6578063894e851f1461047757806395d89b41146104a457806399235f39146104ea578063a22cb4651461050a57600080fd5b806370a08231146104175780637ba9638b1461043757806382fc31471461045757600080fd5b806334dd800d116101595780635bffff1d116101335780635bffff1d1461037c5780636352211e146103aa578063639147af146103ca578063698f87be146103ea57600080fd5b806334dd800d146102e957806342842e0e14610316578063589a17431461033657600080fd5b8063081812fc1161018a578063081812fc14610287578063095ea7b3146102a757806323b872dd146102c957600080fd5b806301ffc9a7146101b157806306fdde03146101e65780630754617214610235575b600080fd5b3480156101bd57600080fd5b506101d16101cc366004612057565b61065a565b60405190151581526020015b60405180910390f35b3480156101f257600080fd5b5060408051808201909152601e81527f4d656c6f426c656570732c204d656c6f64696573206f6620426c65657073000060208201525b6040516101dd91906120f1565b34801561024157600080fd5b506007546102629073ffffffffffffffffffffffffffffffffffffffff1681565b60405173ffffffffffffffffffffffffffffffffffffffff90911681526020016101dd565b34801561029357600080fd5b506102626102a2366004612104565b61073f565b3480156102b357600080fd5b506102c76102c236600461213f565b610830565b005b3480156102d557600080fd5b506102c76102e436600461216b565b61099a565b3480156102f557600080fd5b506004546102629073ffffffffffffffffffffffffffffffffffffffff1681565b34801561032257600080fd5b506102c761033136600461216b565b610cdc565b34801561034257600080fd5b50610262610351366004612104565b60009081526009602052604090206002015473ffffffffffffffffffffffffffffffffffffffff1690565b34801561038857600080fd5b5061039c6103973660046121ac565b610cfc565b6040519081526020016101dd565b3480156103b657600080fd5b506102626103c5366004612104565b610f12565b3480156103d657600080fd5b506102c76103e53660046121f6565b610fa3565b3480156103f657600080fd5b506008546102629073ffffffffffffffffffffffffffffffffffffffff1681565b34801561042357600080fd5b5061039c6104323660046121f6565b61109e565b34801561044357600080fd5b506102c76104523660046121f6565b611146565b34801561046357600080fd5b506102c76104723660046121f6565b61123a565b34801561048357600080fd5b506005546102629073ffffffffffffffffffffffffffffffffffffffff1681565b3480156104b057600080fd5b5060408051808201909152600681527f4d424c45455000000000000000000000000000000000000000000000000000006020820152610228565b3480156104f657600080fd5b506102c76105053660046121f6565b61132e565b34801561051657600080fd5b506102c7610525366004612213565b611422565b34801561053657600080fd5b506006546102629073ffffffffffffffffffffffffffffffffffffffff1681565b61056a61056536600461229d565b611431565b6040516101dd91906122df565b34801561058357600080fd5b506102c7610592366004612423565b6115a3565b3480156105a357600080fd5b506102286105b2366004612104565b6118e8565b3480156105c357600080fd5b506101d16105d23660046124d2565b73ffffffffffffffffffffffffffffffffffffffff918216600090815260026020908152604080832093909416825291909152205460ff1690565b34801561061957600080fd5b5061062d61062836600461229d565b6119cb565b6040516101dd9190612500565b34801561064657600080fd5b506102c76106553660046121f6565b611afe565b60007f01ffc9a7000000000000000000000000000000000000000000000000000000007fffffffff00000000000000000000000000000000000000000000000000000000831614806106ed57507f80ac58cd000000000000000000000000000000000000000000000000000000007fffffffff000000000000000000000000000000000000000000000000000000008316145b8061073957507f5b5e139f000000000000000000000000000000000000000000000000000000007fffffffff000000000000000000000000000000000000000000000000000000008316145b92915050565b6000818152602081905260408120547f80000000000000000000000000000000000000000000000000000000000000008082161473ffffffffffffffffffffffffffffffffffffffff82166107f5576040517f08c379a000000000000000000000000000000000000000000000000000000000815260206004820152601160248201527f4e4f4e4558495354454e545f544f4b454e00000000000000000000000000000060448201526064015b60405180910390fd5b80156108265750505060009081526003602052604090205473ffffffffffffffffffffffffffffffffffffffff1690565b5060009392505050565b6000818152602081905260409020546affffffffffffffffffffff60a082901c1673ffffffffffffffffffffffffffffffffffffffff82166108ce576040517f08c379a000000000000000000000000000000000000000000000000000000000815260206004820152601160248201527f4e4f4e4558495354454e545f544f4b454e00000000000000000000000000000060448201526064016107ec565b3373ffffffffffffffffffffffffffffffffffffffff83161480610922575073ffffffffffffffffffffffffffffffffffffffff8216600090815260026020908152604080832033845290915290205460ff165b610988576040517f08c379a000000000000000000000000000000000000000000000000000000000815260206004820152601560248201527f554e415554484f52495a45445f415050524f56414c000000000000000000000060448201526064016107ec565b61099482828686611bf2565b50505050565b6000818152602081905260409020547f80000000000000000000000000000000000000000000000000000000000000008082161473ffffffffffffffffffffffffffffffffffffffff8216610a4b576040517f08c379a000000000000000000000000000000000000000000000000000000000815260206004820152601160248201527f4e4f4e4558495354454e545f544f4b454e00000000000000000000000000000060448201526064016107ec565b8473ffffffffffffffffffffffffffffffffffffffff168273ffffffffffffffffffffffffffffffffffffffff1614610ae0576040517f08c379a000000000000000000000000000000000000000000000000000000000815260206004820152600960248201527f4e4f545f4f574e4552000000000000000000000000000000000000000000000060448201526064016107ec565b73ffffffffffffffffffffffffffffffffffffffff8416610b5d576040517f08c379a000000000000000000000000000000000000000000000000000000000815260206004820152601260248201527f4e4f545f544f5f5a45524f41444452455353000000000000000000000000000060448201526064016107ec565b73ffffffffffffffffffffffffffffffffffffffff8416301415610bdd576040517f08c379a000000000000000000000000000000000000000000000000000000000815260206004820152600b60248201527f4e4f545f544f5f5448495300000000000000000000000000000000000000000060448201526064016107ec565b3373ffffffffffffffffffffffffffffffffffffffff861614610cca5773ffffffffffffffffffffffffffffffffffffffff8516600090815260026020908152604080832033845290915290205460ff1680610c645750808015610c64575060008381526003602052604090205473ffffffffffffffffffffffffffffffffffffffff1633145b610cca576040517f08c379a000000000000000000000000000000000000000000000000000000000815260206004820152601560248201527f554e415554484f52495a45445f5452414e53464552000000000000000000000060448201526064016107ec565b610cd5858585611d2b565b5050505050565b610cf7838383604051806020016040528060008152506115a3565b505050565b60075460009073ffffffffffffffffffffffffffffffffffffffff163314610d80576040517f08c379a000000000000000000000000000000000000000000000000000000000815260206004820152601360248201527f4f4e4c595f4d494e5445525f414c4c4f5745440000000000000000000000000060448201526064016107ec565b600a60008154610d8f90612565565b918290555060408051606081018252868152602080820187815273ffffffffffffffffffffffffffffffffffffffff8a81168486019081526000878152600990945294909220925183555160018301559151600290910180547fffffffffffffffffffffffff0000000000000000000000000000000000000000169183169190911790559091508216610e7e576040517f08c379a000000000000000000000000000000000000000000000000000000000815260206004820152601260248201527f4e4f545f544f5f5a45524f41444452455353000000000000000000000000000060448201526064016107ec565b73ffffffffffffffffffffffffffffffffffffffff8216301415610efe576040517f08c379a000000000000000000000000000000000000000000000000000000000815260206004820152600b60248201527f4e4f545f544f5f5448495300000000000000000000000000000000000000000060448201526064016107ec565b610f0a60008383611d2b565b949350505050565b60008181526020819052604090205473ffffffffffffffffffffffffffffffffffffffff8116610f9e576040517f08c379a000000000000000000000000000000000000000000000000000000000815260206004820152601160248201527f4e4f4e4558495354454e545f544f4b454e00000000000000000000000000000060448201526064016107ec565b919050565b60045473ffffffffffffffffffffffffffffffffffffffff163314611024576040517f08c379a000000000000000000000000000000000000000000000000000000000815260206004820152600e60248201527f4e4f545f415554484f52495a454400000000000000000000000000000000000060448201526064016107ec565b600480547fffffffffffffffffffffffff00000000000000000000000000000000000000001673ffffffffffffffffffffffffffffffffffffffff83169081179091556040519081527f89de65ceb8cdf195a0b50021ed65dd305b54d3b744a0e283bd98c6058e2edd78906020015b60405180910390a150565b600073ffffffffffffffffffffffffffffffffffffffff821661111d576040517f08c379a000000000000000000000000000000000000000000000000000000000815260206004820152601260248201527f5a45524f5f414444524553535f4f574e4552000000000000000000000000000060448201526064016107ec565b5073ffffffffffffffffffffffffffffffffffffffff1660009081526001602052604090205490565b60055473ffffffffffffffffffffffffffffffffffffffff1633146111c7576040517f08c379a000000000000000000000000000000000000000000000000000000000815260206004820152600e60248201527f4e4f545f415554484f52495a454400000000000000000000000000000000000060448201526064016107ec565b600580547fffffffffffffffffffffffff00000000000000000000000000000000000000001673ffffffffffffffffffffffffffffffffffffffff83169081179091556040519081527fb17416b845258d996b82b66c3c9166088ec5edf592b35fcce47c62a73d61ef4190602001611093565b60045473ffffffffffffffffffffffffffffffffffffffff1633146112bb576040517f08c379a000000000000000000000000000000000000000000000000000000000815260206004820152600e60248201527f4e4f545f415554484f52495a454400000000000000000000000000000000000060448201526064016107ec565b600880547fffffffffffffffffffffffff00000000000000000000000000000000000000001673ffffffffffffffffffffffffffffffffffffffff83169081179091556040519081527f6bf5b09f847c9c9e97addeaf1ea9d5fd44ff6ae2c9c4aaf55fb476eca421a45d90602001611093565b60065473ffffffffffffffffffffffffffffffffffffffff1633146113af576040517f08c379a000000000000000000000000000000000000000000000000000000000815260206004820152600e60248201527f4e4f545f415554484f52495a454400000000000000000000000000000000000060448201526064016107ec565b600680547fffffffffffffffffffffffff00000000000000000000000000000000000000001673ffffffffffffffffffffffffffffffffffffffff83169081179091556040519081527fb8e0165b6664b7af8f9563c66e3d6b987c2d06fe192539d7123a0777b41a7c8990602001611093565b61142d338383611e0f565b5050565b60608167ffffffffffffffff81111561144c5761144c61235f565b60405190808252806020026020018201604052801561147f57816020015b606081526020019060019003908161146a5790505b50905060005b8281101561159c57600080308686858181106114a3576114a36125c5565b90506020028101906114b591906125f4565b6040516114c3929190612659565b600060405180830381855af49150503d80600081146114fe576040519150601f19603f3d011682016040523d82523d6000602084013e611503565b606091505b5091509150816115695760448151101561151c57600080fd5b600481019050808060200190518101906115369190612669565b6040517f08c379a00000000000000000000000000000000000000000000000000000000081526004016107ec91906120f1565b8084848151811061157c5761157c6125c5565b60200260200101819052505050808061159490612565565b915050611485565b5092915050565b6000828152602081905260409020547f80000000000000000000000000000000000000000000000000000000000000008082161473ffffffffffffffffffffffffffffffffffffffff8216611654576040517f08c379a000000000000000000000000000000000000000000000000000000000815260206004820152601160248201527f4e4f4e4558495354454e545f544f4b454e00000000000000000000000000000060448201526064016107ec565b8573ffffffffffffffffffffffffffffffffffffffff168273ffffffffffffffffffffffffffffffffffffffff16146116e9576040517f08c379a000000000000000000000000000000000000000000000000000000000815260206004820152600960248201527f4e4f545f4f574e4552000000000000000000000000000000000000000000000060448201526064016107ec565b73ffffffffffffffffffffffffffffffffffffffff8516611766576040517f08c379a000000000000000000000000000000000000000000000000000000000815260206004820152601260248201527f4e4f545f544f5f5a45524f41444452455353000000000000000000000000000060448201526064016107ec565b73ffffffffffffffffffffffffffffffffffffffff85163014156117e6576040517f08c379a000000000000000000000000000000000000000000000000000000000815260206004820152600b60248201527f4e4f545f544f5f5448495300000000000000000000000000000000000000000060448201526064016107ec565b3373ffffffffffffffffffffffffffffffffffffffff8716146118d457808015611833575060008481526003602052604090205473ffffffffffffffffffffffffffffffffffffffff1633145b8061186e575073ffffffffffffffffffffffffffffffffffffffff8616600090815260026020908152604080832033845290915290205460ff165b6118d4576040517f08c379a000000000000000000000000000000000000000000000000000000000815260206004820152601560248201527f554e415554484f52495a45445f5452414e53464552000000000000000000000060448201526064016107ec565b6118e086868686611ea7565b505050505050565b60008181526009602052604090819020805460019091015460085492517fd63fab2b000000000000000000000000000000000000000000000000000000008152600481018390526024810182905260609373ffffffffffffffffffffffffffffffffffffffff169063d63fab2b9060440160006040518083038186803b15801561197157600080fd5b505afa158015611985573d6000803e3d6000fd5b505050506040513d6000823e601f3d9081017fffffffffffffffffffffffffffffffffffffffffffffffffffffffffffffffe0168201604052610f0a9190810190612669565b60608167ffffffffffffffff8111156119e6576119e661235f565b604051908082528060200260200182016040528015611a2b57816020015b6040805180820190915260008082526020820152815260200190600190039081611a045790505b50905060005b8281101561159c576000806000868685818110611a5057611a506125c5565b90506020020135815260200190815260200160002054905080838381518110611a7b57611a7b6125c5565b60200260200101516000019073ffffffffffffffffffffffffffffffffffffffff16908173ffffffffffffffffffffffffffffffffffffffff168152505060a081901c6affffffffffffffffffffff16838381518110611add57611add6125c5565b60209081029190910181015101525080611af681612565565b915050611a31565b60065473ffffffffffffffffffffffffffffffffffffffff163314611b7f576040517f08c379a000000000000000000000000000000000000000000000000000000000815260206004820152600e60248201527f4e4f545f415554484f52495a454400000000000000000000000000000000000060448201526064016107ec565b600780547fffffffffffffffffffffffff00000000000000000000000000000000000000001673ffffffffffffffffffffffffffffffffffffffff83169081179091556040519081527f726b590ef91a8c76ad05bbe91a57ef84605276528f49cd47d787f558a4e755b690602001611093565b73ffffffffffffffffffffffffffffffffffffffff8216611c3f57600081815260208190526040902060a084901b73ffffffffffffffffffffffffffffffffffffffff8616179055611cca565b6000818152602081815260408083207f800000000000000000000000000000000000000000000000000000000000000073ffffffffffffffffffffffffffffffffffffffff89811660a08a901b1791909117909155600390925290912080547fffffffffffffffffffffffff0000000000000000000000000000000000000000169184169190911790555b808273ffffffffffffffffffffffffffffffffffffffff168573ffffffffffffffffffffffffffffffffffffffff167f8c5be1e5ebec7d5bd14f71427d1e84f3dd0314c0f7b2291e5b200ac8c7c3b92560405160405180910390a450505050565b73ffffffffffffffffffffffffffffffffffffffff808316600090815260016020819052604090912080549091019055831615611dae5773ffffffffffffffffffffffffffffffffffffffff8316600090815260016020526040902080547fffffffffffffffffffffffffffffffffffffffffffffffffffffffffffffffff0190555b6000818152602081905260408082204360a01b73ffffffffffffffffffffffffffffffffffffffff80871691821790925591518493918716917fddf252ad1be2c89b69c2b068fc378daa952ba7f163c4a11628f55a4df523b3ef91a4505050565b73ffffffffffffffffffffffffffffffffffffffff83811660008181526002602090815260408083209487168084529482529182902080547fffffffffffffffffffffffffffffffffffffffffffffffffffffffffffffff001686151590811790915591519182527f17307eab39ab6107e8899845ad3d59bd9653f200f220920489ca2b5937696c31910160405180910390a3505050565b611eb2848484611d2b565b73ffffffffffffffffffffffffffffffffffffffff83163b1561099457611edc3385858585611f42565b610994576040517f08c379a000000000000000000000000000000000000000000000000000000000815260206004820152601860248201527f4552433732315f5452414e534645525f52454a4543544544000000000000000060448201526064016107ec565b6000808473ffffffffffffffffffffffffffffffffffffffff1663150b7a02888887876040518563ffffffff1660e01b8152600401611f8494939291906126e0565b602060405180830381600087803b158015611f9e57600080fd5b505af1158015611fb2573d6000803e3d6000fd5b505050506040513d601f19601f82011682018060405250810190611fd69190612729565b7fffffffff00000000000000000000000000000000000000000000000000000000167f150b7a02000000000000000000000000000000000000000000000000000000001491505095945050505050565b7fffffffff000000000000000000000000000000000000000000000000000000008116811461205457600080fd5b50565b60006020828403121561206957600080fd5b813561207481612026565b9392505050565b60005b8381101561209657818101518382015260200161207e565b838111156109945750506000910152565b600081518084526120bf81602086016020860161207b565b601f017fffffffffffffffffffffffffffffffffffffffffffffffffffffffffffffffe0169290920160200192915050565b60208152600061207460208301846120a7565b60006020828403121561211657600080fd5b5035919050565b73ffffffffffffffffffffffffffffffffffffffff8116811461205457600080fd5b6000806040838503121561215257600080fd5b823561215d8161211d565b946020939093013593505050565b60008060006060848603121561218057600080fd5b833561218b8161211d565b9250602084013561219b8161211d565b929592945050506040919091013590565b600080600080608085870312156121c257600080fd5b84356121cd8161211d565b9350602085013592506040850135915060608501356121eb8161211d565b939692955090935050565b60006020828403121561220857600080fd5b81356120748161211d565b6000806040838503121561222657600080fd5b82356122318161211d565b91506020830135801515811461224657600080fd5b809150509250929050565b60008083601f84011261226357600080fd5b50813567ffffffffffffffff81111561227b57600080fd5b6020830191508360208260051b850101111561229657600080fd5b9250929050565b600080602083850312156122b057600080fd5b823567ffffffffffffffff8111156122c757600080fd5b6122d385828601612251565b90969095509350505050565b6000602080830181845280855180835260408601915060408160051b870101925083870160005b82811015612352577fffffffffffffffffffffffffffffffffffffffffffffffffffffffffffffffc08886030184526123408583516120a7565b94509285019290850190600101612306565b5092979650505050505050565b7f4e487b7100000000000000000000000000000000000000000000000000000000600052604160045260246000fd5b604051601f82017fffffffffffffffffffffffffffffffffffffffffffffffffffffffffffffffe016810167ffffffffffffffff811182821017156123d5576123d561235f565b604052919050565b600067ffffffffffffffff8211156123f7576123f761235f565b50601f017fffffffffffffffffffffffffffffffffffffffffffffffffffffffffffffffe01660200190565b6000806000806080858703121561243957600080fd5b84356124448161211d565b935060208501356124548161211d565b925060408501359150606085013567ffffffffffffffff81111561247757600080fd5b8501601f8101871361248857600080fd5b803561249b612496826123dd565b61238e565b8181528860208385010111156124b057600080fd5b8160208401602083013760006020838301015280935050505092959194509250565b600080604083850312156124e557600080fd5b82356124f08161211d565b915060208301356122468161211d565b602080825282518282018190526000919060409081850190868401855b82811015612558578151805173ffffffffffffffffffffffffffffffffffffffff16855286015186850152928401929085019060010161251d565b5091979650505050505050565b60007fffffffffffffffffffffffffffffffffffffffffffffffffffffffffffffffff8214156125be577f4e487b7100000000000000000000000000000000000000000000000000000000600052601160045260246000fd5b5060010190565b7f4e487b7100000000000000000000000000000000000000000000000000000000600052603260045260246000fd5b60008083357fffffffffffffffffffffffffffffffffffffffffffffffffffffffffffffffe184360301811261262957600080fd5b83018035915067ffffffffffffffff82111561264457600080fd5b60200191503681900382131561229657600080fd5b8183823760009101908152919050565b60006020828403121561267b57600080fd5b815167ffffffffffffffff81111561269257600080fd5b8201601f810184136126a357600080fd5b80516126b1612496826123dd565b8181528560208385010111156126c657600080fd5b6126d782602083016020860161207b565b95945050505050565b600073ffffffffffffffffffffffffffffffffffffffff80871683528086166020840152508360408301526080606083015261271f60808301846120a7565b9695505050505050565b60006020828403121561273b57600080fd5b81516120748161202656fea26469706673582212202f6e9b47c2873d414edfad3b64395704ba6b43556a83db0e6508eff3b484073a64736f6c63430008090033",
  "devdoc": {
    "kind": "dev",
    "methods": {
      "approve(address,uint256)": {
        "params": {
          "id": "The id of the token.",
          "operator": "The address receiving the approval."
        }
      },
      "balanceOf(address)": {
        "params": {
          "owner": "The address to look for."
        },
        "returns": {
          "balance": "The number of tokens owned by the address."
        }
      },
      "getApproved(uint256)": {
        "params": {
          "id": "The id of the token."
        },
        "returns": {
          "_0": "The address of the operator."
        }
      },
      "isApprovedForAll(address,address)": {
        "params": {
          "operator": "The address of the operator.",
          "owner": "The address of the owner."
        },
        "returns": {
          "isOperator": "The status of the approval."
        }
      },
      "multicall(bytes[])": {
        "details": "The `msg.value` should not be trusted for any method callable from multicall.",
        "params": {
          "data": "The encoded function data for each of the calls to make to this contract."
        },
        "returns": {
          "results": "The results from each of the calls passed in via data."
        }
      },
      "ownerAndLastTransferBlockNumberList(uint256[])": {
        "params": {
          "ids": "The list of token ids to check."
        },
        "returns": {
          "ownersData": "The list of (owner, lastTransferBlockNumber) for each ids given as input."
        }
      },
      "ownerOf(uint256)": {
        "params": {
          "id": "The id of the token."
        },
        "returns": {
          "owner": "The address of the token owner."
        }
      },
      "safeTransferFrom(address,address,uint256)": {
        "params": {
          "from": "The send of the token.",
          "id": "The id of the token.",
          "to": "The recipient of the token."
        }
      },
      "safeTransferFrom(address,address,uint256,bytes)": {
        "params": {
          "data": "Additional data.",
          "from": "The sender of the token.",
          "id": "The id of the token.",
          "to": "The recipient of the token."
        }
      },
      "setApprovalForAll(address,bool)": {
        "params": {
          "approved": "The determination of the approval.",
          "operator": "The address receiving the approval."
        }
      },
      "supportsInterface(bytes4)": {
        "params": {
          "id": "The id of the interface."
        },
        "returns": {
          "_0": "Whether the interface is supported."
        }
      },
      "transferFrom(address,address,uint256)": {
        "params": {
          "from": "The sender of the token.",
          "id": "The id of the token.",
          "to": "The recipient of the token."
        }
      }
    },
    "version": 1
  },
  "userdoc": {
    "kind": "user",
    "methods": {
      "approve(address,uint256)": {
        "notice": "Approve an operator to spend tokens on the senders behalf."
      },
      "balanceOf(address)": {
        "notice": "Get the number of tokens owned by an address."
      },
      "getApproved(uint256)": {
        "notice": "Get the approved operator for a specific token."
      },
      "isApprovedForAll(address,address)": {
        "notice": "Check if the sender approved the operator."
      },
      "minter()": {
        "notice": "address allowed to mint, allow the sale contract to be separated from the token contract that can focus on the core logic Once all 1024 potential bleeps (there could be less, at minimum there are 576 bleeps) are minted, no minter can mint anymore"
      },
      "minterAdmin()": {
        "notice": "minterAdmin can update the minter. At the time being there is 576 Bleeps but there is space for extra instrument and the upper limit is 1024. could be given to the DAO later so instrument can be added, the sale of these instrument sound could benenfit the DAO too and add new members."
      },
      "multicall(bytes[])": {
        "notice": "Call multiple functions in the current contract and return the data from all of them if they all succeed."
      },
      "name()": {
        "notice": "A descriptive name for a collection of NFTs in this contract"
      },
      "ownerAndLastTransferBlockNumberList(uint256[])": {
        "notice": "Get the list of owner of a token and the blockNumber of its last transfer, useful to voting mechanism."
      },
      "ownerOf(uint256)": {
        "notice": "Get the owner of a token."
      },
      "royaltyAdmin()": {
        "notice": "address allowed to set royalty parameters"
      },
      "safeTransferFrom(address,address,uint256)": {
        "notice": "Transfer a token between 2 addresses letting the receiver know of the transfer."
      },
      "safeTransferFrom(address,address,uint256,bytes)": {
        "notice": "Transfer a token between 2 addresses letting the receiver knows of the transfer."
      },
      "setApprovalForAll(address,bool)": {
        "notice": "Set the approval for an operator to manage all the tokens of the sender."
      },
      "supportsInterface(bytes4)": {
        "notice": "Check if the contract supports an interface."
      },
      "symbol()": {
        "notice": "An abbreviated name for NFTs in this contract"
      },
      "tokenURIAdmin()": {
        "notice": "maintainer can update the tokenURI contract, this is intended to be relinquished once the tokenURI has been heavily tested in the wild and that no modification are needed."
      },
      "tokenURIContract()": {
        "notice": "the contract that actually generate the sound (and all metadata via the a data: uri as tokenURI)"
      },
      "transferFrom(address,address,uint256)": {
        "notice": "Transfer a token between 2 addresses."
      }
    },
    "version": 1
  },
  "storageLayout": {
    "storage": [
      {
        "astId": 6026,
        "contract": "src/melobleeps/MeloBleeps.sol:MeloBleeps",
        "label": "_owners",
        "offset": 0,
        "slot": "0",
        "type": "t_mapping(t_uint256,t_uint256)"
      },
      {
        "astId": 6030,
        "contract": "src/melobleeps/MeloBleeps.sol:MeloBleeps",
        "label": "_balances",
        "offset": 0,
        "slot": "1",
        "type": "t_mapping(t_address,t_uint256)"
      },
      {
        "astId": 6036,
        "contract": "src/melobleeps/MeloBleeps.sol:MeloBleeps",
        "label": "_operatorsForAll",
        "offset": 0,
        "slot": "2",
        "type": "t_mapping(t_address,t_mapping(t_address,t_bool))"
      },
      {
        "astId": 6040,
        "contract": "src/melobleeps/MeloBleeps.sol:MeloBleeps",
        "label": "_operators",
        "offset": 0,
        "slot": "3",
        "type": "t_mapping(t_uint256,t_address)"
      },
      {
        "astId": 8098,
        "contract": "src/melobleeps/MeloBleeps.sol:MeloBleeps",
        "label": "tokenURIAdmin",
        "offset": 0,
        "slot": "4",
        "type": "t_address"
      },
      {
        "astId": 8101,
        "contract": "src/melobleeps/MeloBleeps.sol:MeloBleeps",
        "label": "royaltyAdmin",
        "offset": 0,
        "slot": "5",
        "type": "t_address"
      },
      {
        "astId": 8104,
        "contract": "src/melobleeps/MeloBleeps.sol:MeloBleeps",
        "label": "minterAdmin",
        "offset": 0,
        "slot": "6",
        "type": "t_address"
      },
      {
        "astId": 8107,
        "contract": "src/melobleeps/MeloBleeps.sol:MeloBleeps",
        "label": "minter",
        "offset": 0,
        "slot": "7",
        "type": "t_address"
      },
      {
        "astId": 10130,
        "contract": "src/melobleeps/MeloBleeps.sol:MeloBleeps",
        "label": "tokenURIContract",
        "offset": 0,
        "slot": "8",
        "type": "t_contract(MeloBleepsTokenURI)11015"
      },
      {
        "astId": 10142,
        "contract": "src/melobleeps/MeloBleeps.sol:MeloBleeps",
        "label": "_melodies",
        "offset": 0,
        "slot": "9",
        "type": "t_mapping(t_uint256,t_struct(Melody)10137_storage)"
      },
      {
        "astId": 10145,
        "contract": "src/melobleeps/MeloBleeps.sol:MeloBleeps",
        "label": "_supply",
        "offset": 0,
        "slot": "10",
        "type": "t_uint256"
      }
    ],
    "types": {
      "t_address": {
        "encoding": "inplace",
        "label": "address",
        "numberOfBytes": "20"
      },
      "t_address_payable": {
        "encoding": "inplace",
        "label": "address payable",
        "numberOfBytes": "20"
      },
      "t_bool": {
        "encoding": "inplace",
        "label": "bool",
        "numberOfBytes": "1"
      },
      "t_bytes32": {
        "encoding": "inplace",
        "label": "bytes32",
        "numberOfBytes": "32"
      },
      "t_contract(MeloBleepsTokenURI)11015": {
        "encoding": "inplace",
        "label": "contract MeloBleepsTokenURI",
        "numberOfBytes": "20"
      },
      "t_mapping(t_address,t_bool)": {
        "encoding": "mapping",
        "key": "t_address",
        "label": "mapping(address => bool)",
        "numberOfBytes": "32",
        "value": "t_bool"
      },
      "t_mapping(t_address,t_mapping(t_address,t_bool))": {
        "encoding": "mapping",
        "key": "t_address",
        "label": "mapping(address => mapping(address => bool))",
        "numberOfBytes": "32",
        "value": "t_mapping(t_address,t_bool)"
      },
      "t_mapping(t_address,t_uint256)": {
        "encoding": "mapping",
        "key": "t_address",
        "label": "mapping(address => uint256)",
        "numberOfBytes": "32",
        "value": "t_uint256"
      },
      "t_mapping(t_uint256,t_address)": {
        "encoding": "mapping",
        "key": "t_uint256",
        "label": "mapping(uint256 => address)",
        "numberOfBytes": "32",
        "value": "t_address"
      },
      "t_mapping(t_uint256,t_struct(Melody)10137_storage)": {
        "encoding": "mapping",
        "key": "t_uint256",
        "label": "mapping(uint256 => struct MeloBleeps.Melody)",
        "numberOfBytes": "32",
        "value": "t_struct(Melody)10137_storage"
      },
      "t_mapping(t_uint256,t_uint256)": {
        "encoding": "mapping",
        "key": "t_uint256",
        "label": "mapping(uint256 => uint256)",
        "numberOfBytes": "32",
        "value": "t_uint256"
      },
      "t_struct(Melody)10137_storage": {
        "encoding": "inplace",
        "label": "struct MeloBleeps.Melody",
        "members": [
          {
            "astId": 10132,
            "contract": "src/melobleeps/MeloBleeps.sol:MeloBleeps",
            "label": "data1",
            "offset": 0,
            "slot": "0",
            "type": "t_bytes32"
          },
          {
            "astId": 10134,
            "contract": "src/melobleeps/MeloBleeps.sol:MeloBleeps",
            "label": "data2",
            "offset": 0,
            "slot": "1",
            "type": "t_bytes32"
          },
          {
            "astId": 10136,
            "contract": "src/melobleeps/MeloBleeps.sol:MeloBleeps",
            "label": "artist",
            "offset": 0,
            "slot": "2",
            "type": "t_address_payable"
          }
        ],
        "numberOfBytes": "96"
      },
      "t_uint256": {
        "encoding": "inplace",
        "label": "uint256",
        "numberOfBytes": "32"
      }
    }
  }
}