{
  "address": "0x84adF13De3480680208F35c0bc9ED6B97bB52fb8",
  "abi": [
    {
      "inputs": [
        {
          "internalType": "address",
          "name": "maintainer",
          "type": "address"
        },
        {
          "internalType": "contract MeloBleepsTokenURI",
          "name": "tokenURIContract",
          "type": "address"
        }
      ],
      "stateMutability": "nonpayable",
      "type": "constructor"
    },
    {
      "anonymous": false,
      "inputs": [
        {
          "indexed": true,
          "internalType": "address",
          "name": "owner",
          "type": "address"
        },
        {
          "indexed": true,
          "internalType": "address",
          "name": "approved",
          "type": "address"
        },
        {
          "indexed": true,
          "internalType": "uint256",
          "name": "tokenId",
          "type": "uint256"
        }
      ],
      "name": "Approval",
      "type": "event"
    },
    {
      "anonymous": false,
      "inputs": [
        {
          "indexed": true,
          "internalType": "address",
          "name": "owner",
          "type": "address"
        },
        {
          "indexed": true,
          "internalType": "address",
          "name": "operator",
          "type": "address"
        },
        {
          "indexed": false,
          "internalType": "bool",
          "name": "approved",
          "type": "bool"
        }
      ],
      "name": "ApprovalForAll",
      "type": "event"
    },
    {
      "anonymous": false,
      "inputs": [
        {
          "indexed": true,
          "internalType": "address",
          "name": "from",
          "type": "address"
        },
        {
          "indexed": true,
          "internalType": "address",
          "name": "to",
          "type": "address"
        },
        {
          "indexed": true,
          "internalType": "uint256",
          "name": "tokenId",
          "type": "uint256"
        }
      ],
      "name": "Transfer",
      "type": "event"
    },
    {
      "inputs": [
        {
          "internalType": "address",
          "name": "operator",
          "type": "address"
        },
        {
          "internalType": "uint256",
          "name": "id",
          "type": "uint256"
        }
      ],
      "name": "approve",
      "outputs": [],
      "stateMutability": "nonpayable",
      "type": "function"
    },
    {
      "inputs": [
        {
          "internalType": "address",
          "name": "owner",
          "type": "address"
        }
      ],
      "name": "balanceOf",
      "outputs": [
        {
          "internalType": "uint256",
          "name": "balance",
          "type": "uint256"
        }
      ],
      "stateMutability": "view",
      "type": "function"
    },
    {
      "inputs": [
        {
          "internalType": "uint256",
          "name": "id",
          "type": "uint256"
        }
      ],
      "name": "getApproved",
      "outputs": [
        {
          "internalType": "address",
          "name": "",
          "type": "address"
        }
      ],
      "stateMutability": "view",
      "type": "function"
    },
    {
      "inputs": [
        {
          "internalType": "address",
          "name": "owner",
          "type": "address"
        },
        {
          "internalType": "address",
          "name": "operator",
          "type": "address"
        }
      ],
      "name": "isApprovedForAll",
      "outputs": [
        {
          "internalType": "bool",
          "name": "isOperator",
          "type": "bool"
        }
      ],
      "stateMutability": "view",
      "type": "function"
    },
    {
      "inputs": [
        {
          "internalType": "bytes32",
          "name": "data1",
          "type": "bytes32"
        },
        {
          "internalType": "bytes32",
          "name": "data2",
          "type": "bytes32"
        },
        {
          "internalType": "address",
          "name": "to",
          "type": "address"
        }
      ],
      "name": "mint",
      "outputs": [],
      "stateMutability": "nonpayable",
      "type": "function"
    },
    {
      "inputs": [],
      "name": "name",
      "outputs": [
        {
          "internalType": "string",
          "name": "",
          "type": "string"
        }
      ],
      "stateMutability": "pure",
      "type": "function"
    },
    {
      "inputs": [
        {
          "internalType": "uint256",
          "name": "id",
          "type": "uint256"
        }
      ],
      "name": "ownerOf",
      "outputs": [
        {
          "internalType": "address",
          "name": "owner",
          "type": "address"
        }
      ],
      "stateMutability": "view",
      "type": "function"
    },
    {
      "inputs": [
        {
          "internalType": "address",
          "name": "from",
          "type": "address"
        },
        {
          "internalType": "address",
          "name": "to",
          "type": "address"
        },
        {
          "internalType": "uint256",
          "name": "id",
          "type": "uint256"
        }
      ],
      "name": "safeTransferFrom",
      "outputs": [],
      "stateMutability": "nonpayable",
      "type": "function"
    },
    {
      "inputs": [
        {
          "internalType": "address",
          "name": "from",
          "type": "address"
        },
        {
          "internalType": "address",
          "name": "to",
          "type": "address"
        },
        {
          "internalType": "uint256",
          "name": "id",
          "type": "uint256"
        },
        {
          "internalType": "bytes",
          "name": "data",
          "type": "bytes"
        }
      ],
      "name": "safeTransferFrom",
      "outputs": [],
      "stateMutability": "nonpayable",
      "type": "function"
    },
    {
      "inputs": [
        {
          "internalType": "address",
          "name": "operator",
          "type": "address"
        },
        {
          "internalType": "bool",
          "name": "approved",
          "type": "bool"
        }
      ],
      "name": "setApprovalForAll",
      "outputs": [],
      "stateMutability": "nonpayable",
      "type": "function"
    },
    {
      "inputs": [
        {
          "internalType": "address",
          "name": "newMaintainer",
          "type": "address"
        }
      ],
      "name": "setMaintainer",
      "outputs": [],
      "stateMutability": "nonpayable",
      "type": "function"
    },
    {
      "inputs": [
        {
          "internalType": "contract MeloBleepsTokenURI",
          "name": "newTokenURIContract",
          "type": "address"
        }
      ],
      "name": "setTokenURIContract",
      "outputs": [],
      "stateMutability": "nonpayable",
      "type": "function"
    },
    {
      "inputs": [
        {
          "internalType": "bytes4",
          "name": "id",
          "type": "bytes4"
        }
      ],
      "name": "supportsInterface",
      "outputs": [
        {
          "internalType": "bool",
          "name": "",
          "type": "bool"
        }
      ],
      "stateMutability": "pure",
      "type": "function"
    },
    {
      "inputs": [],
      "name": "symbol",
      "outputs": [
        {
          "internalType": "string",
          "name": "",
          "type": "string"
        }
      ],
      "stateMutability": "pure",
      "type": "function"
    },
    {
      "inputs": [
        {
          "internalType": "uint256",
          "name": "id",
          "type": "uint256"
        }
      ],
      "name": "tokenURI",
      "outputs": [
        {
          "internalType": "string",
          "name": "",
          "type": "string"
        }
      ],
      "stateMutability": "view",
      "type": "function"
    },
    {
      "inputs": [
        {
          "internalType": "address",
          "name": "from",
          "type": "address"
        },
        {
          "internalType": "address",
          "name": "to",
          "type": "address"
        },
        {
          "internalType": "uint256",
          "name": "id",
          "type": "uint256"
        }
      ],
      "name": "transferFrom",
      "outputs": [],
      "stateMutability": "nonpayable",
      "type": "function"
    }
  ],
  "transactionHash": "0xe5fbdaee3c121d95327d1364167b1e6fdaf834e6a9ff6c3ce5f95cb80000a1b6",
  "args": [
    "0xE53cd71271AcAdbeb0f64d9c8C62bBdDc8cA9e66",
    "0xfD21cD4426F864c75De555Cf662E179B99f3967d"
  ],
  "solcInputHash": "0bc62c0a68f8f77b8e1bfeaf9ba84ce3",
  "bytecode": "0x60806040523480156200001157600080fd5b5060405162001c7c38038062001c7c83398101604081905262000034916200007f565b600480546001600160a01b039384166001600160a01b03199182161790915560058054929093169116179055620000be565b6001600160a01b03811681146200007c57600080fd5b50565b600080604083850312156200009357600080fd5b8251620000a08162000066565b6020840151909250620000b38162000066565b809150509250929050565b611bae80620000ce6000396000f3fe608060405234801561001057600080fd5b50600436106101005760003560e01c806370a0823111610097578063b88d4fde11610066578063b88d4fde14610288578063c87b56dd1461029b578063d8f361ad146102ae578063e985e9c5146102c157600080fd5b806370a082311461020857806382fc31471461022957806395d89b411461023c578063a22cb4651461027557600080fd5b806313ea5d29116100d357806313ea5d29146101bc57806323b872dd146101cf57806342842e0e146101e25780636352211e146101f557600080fd5b806301ffc9a71461010557806306fdde031461012d578063081812fc1461016f578063095ea7b3146101a7575b600080fd5b610118610113366004611711565b61030a565b60405190151581526020015b60405180910390f35b60408051808201909152601e81527f4d656c6f426c656570732c204d656c6f64696573206f6620426c65657073000060208201525b60405161012491906117ab565b61018261017d3660046117be565b6103ef565b60405173ffffffffffffffffffffffffffffffffffffffff9091168152602001610124565b6101ba6101b53660046117f9565b6104e0565b005b6101ba6101ca366004611825565b610636565b6101ba6101dd366004611842565b6106fe565b6101ba6101f0366004611842565b610a40565b6101826102033660046117be565b610a5b565b61021b610216366004611825565b610aec565b604051908152602001610124565b6101ba610237366004611825565b610b94565b60408051808201909152600681527f4d424c45455000000000000000000000000000000000000000000000000000006020820152610162565b6101ba610283366004611883565b610c5c565b6101ba610296366004611985565b610c6b565b6101626102a93660046117be565b610fb0565b6101ba6102bc366004611a34565b61109b565b6101186102cf366004611a6d565b73ffffffffffffffffffffffffffffffffffffffff918216600090815260026020908152604080832093909416825291909152205460ff1690565b60007f01ffc9a7000000000000000000000000000000000000000000000000000000007fffffffff000000000000000000000000000000000000000000000000000000008316148061039d57507f80ac58cd000000000000000000000000000000000000000000000000000000007fffffffff000000000000000000000000000000000000000000000000000000008316145b806103e957507f5b5e139f000000000000000000000000000000000000000000000000000000007fffffffff000000000000000000000000000000000000000000000000000000008316145b92915050565b6000818152602081905260408120547f80000000000000000000000000000000000000000000000000000000000000008082161473ffffffffffffffffffffffffffffffffffffffff82166104a5576040517f08c379a000000000000000000000000000000000000000000000000000000000815260206004820152601160248201527f4e4f4e4558495354454e545f544f4b454e00000000000000000000000000000060448201526064015b60405180910390fd5b80156104d65750505060009081526003602052604090205473ffffffffffffffffffffffffffffffffffffffff1690565b5060009392505050565b60008181526020819052604090205473ffffffffffffffffffffffffffffffffffffffff811661056c576040517f08c379a000000000000000000000000000000000000000000000000000000000815260206004820152601160248201527f4e4f4e4558495354454e545f544f4b454e000000000000000000000000000000604482015260640161049c565b73ffffffffffffffffffffffffffffffffffffffff81163314806105c0575073ffffffffffffffffffffffffffffffffffffffff8116600090815260026020908152604080832033845290915290205460ff165b610626576040517f08c379a000000000000000000000000000000000000000000000000000000000815260206004820152601560248201527f554e415554484f52495a45445f415050524f56414c0000000000000000000000604482015260640161049c565b6106318184846112bb565b505050565b60045473ffffffffffffffffffffffffffffffffffffffff1633146106b7576040517f08c379a000000000000000000000000000000000000000000000000000000000815260206004820152600e60248201527f4e4f545f415554484f52495a4544000000000000000000000000000000000000604482015260640161049c565b600480547fffffffffffffffffffffffff00000000000000000000000000000000000000001673ffffffffffffffffffffffffffffffffffffffff92909216919091179055565b6000818152602081905260409020547f80000000000000000000000000000000000000000000000000000000000000008082161473ffffffffffffffffffffffffffffffffffffffff82166107af576040517f08c379a000000000000000000000000000000000000000000000000000000000815260206004820152601160248201527f4e4f4e4558495354454e545f544f4b454e000000000000000000000000000000604482015260640161049c565b8473ffffffffffffffffffffffffffffffffffffffff168273ffffffffffffffffffffffffffffffffffffffff1614610844576040517f08c379a000000000000000000000000000000000000000000000000000000000815260206004820152600960248201527f4e4f545f4f574e45520000000000000000000000000000000000000000000000604482015260640161049c565b73ffffffffffffffffffffffffffffffffffffffff84166108c1576040517f08c379a000000000000000000000000000000000000000000000000000000000815260206004820152601260248201527f4e4f545f544f5f5a45524f414444524553530000000000000000000000000000604482015260640161049c565b73ffffffffffffffffffffffffffffffffffffffff8416301415610941576040517f08c379a000000000000000000000000000000000000000000000000000000000815260206004820152600b60248201527f4e4f545f544f5f54484953000000000000000000000000000000000000000000604482015260640161049c565b3373ffffffffffffffffffffffffffffffffffffffff861614610a2e5773ffffffffffffffffffffffffffffffffffffffff8516600090815260026020908152604080832033845290915290205460ff16806109c857508080156109c8575060008381526003602052604090205473ffffffffffffffffffffffffffffffffffffffff1633145b610a2e576040517f08c379a000000000000000000000000000000000000000000000000000000000815260206004820152601560248201527f554e415554484f52495a45445f5452414e534645520000000000000000000000604482015260640161049c565b610a398585856113e4565b5050505050565b61063183838360405180602001604052806000815250610c6b565b60008181526020819052604090205473ffffffffffffffffffffffffffffffffffffffff8116610ae7576040517f08c379a000000000000000000000000000000000000000000000000000000000815260206004820152601160248201527f4e4f4e4558495354454e545f544f4b454e000000000000000000000000000000604482015260640161049c565b919050565b600073ffffffffffffffffffffffffffffffffffffffff8216610b6b576040517f08c379a000000000000000000000000000000000000000000000000000000000815260206004820152601260248201527f5a45524f5f414444524553535f4f574e45520000000000000000000000000000604482015260640161049c565b5073ffffffffffffffffffffffffffffffffffffffff1660009081526001602052604090205490565b60045473ffffffffffffffffffffffffffffffffffffffff163314610c15576040517f08c379a000000000000000000000000000000000000000000000000000000000815260206004820152600e60248201527f4e4f545f415554484f52495a4544000000000000000000000000000000000000604482015260640161049c565b600580547fffffffffffffffffffffffff00000000000000000000000000000000000000001673ffffffffffffffffffffffffffffffffffffffff92909216919091179055565b610c673383836114c3565b5050565b6000828152602081905260409020547f80000000000000000000000000000000000000000000000000000000000000008082161473ffffffffffffffffffffffffffffffffffffffff8216610d1c576040517f08c379a000000000000000000000000000000000000000000000000000000000815260206004820152601160248201527f4e4f4e4558495354454e545f544f4b454e000000000000000000000000000000604482015260640161049c565b8573ffffffffffffffffffffffffffffffffffffffff168273ffffffffffffffffffffffffffffffffffffffff1614610db1576040517f08c379a000000000000000000000000000000000000000000000000000000000815260206004820152600960248201527f4e4f545f4f574e45520000000000000000000000000000000000000000000000604482015260640161049c565b73ffffffffffffffffffffffffffffffffffffffff8516610e2e576040517f08c379a000000000000000000000000000000000000000000000000000000000815260206004820152601260248201527f4e4f545f544f5f5a45524f414444524553530000000000000000000000000000604482015260640161049c565b73ffffffffffffffffffffffffffffffffffffffff8516301415610eae576040517f08c379a000000000000000000000000000000000000000000000000000000000815260206004820152600b60248201527f4e4f545f544f5f54484953000000000000000000000000000000000000000000604482015260640161049c565b3373ffffffffffffffffffffffffffffffffffffffff871614610f9c57808015610efb575060008481526003602052604090205473ffffffffffffffffffffffffffffffffffffffff1633145b80610f36575073ffffffffffffffffffffffffffffffffffffffff8616600090815260026020908152604080832033845290915290205460ff165b610f9c576040517f08c379a000000000000000000000000000000000000000000000000000000000815260206004820152601560248201527f554e415554484f52495a45445f5452414e534645520000000000000000000000604482015260640161049c565b610fa88686868661155b565b505050505050565b60008181526006602052604090819020805460019091015460055492517fd63fab2b000000000000000000000000000000000000000000000000000000008152600481018390526024810182905260609373ffffffffffffffffffffffffffffffffffffffff169063d63fab2b9060440160006040518083038186803b15801561103957600080fd5b505afa15801561104d573d6000803e3d6000fd5b505050506040513d6000823e601f3d9081017fffffffffffffffffffffffffffffffffffffffffffffffffffffffffffffffe01682016040526110939190810190611a9b565b949350505050565b6040805160208101859052908101839052600090606001604080517fffffffffffffffffffffffffffffffffffffffffffffffffffffffffffffffe0818403018152828252805160209182012083830183528784528382018781526000828152600690935292909120925183559051600190920191909155905073ffffffffffffffffffffffffffffffffffffffff8216611192576040517f08c379a000000000000000000000000000000000000000000000000000000000815260206004820152601260248201527f4e4f545f544f5f5a45524f414444524553530000000000000000000000000000604482015260640161049c565b73ffffffffffffffffffffffffffffffffffffffff8216301415611212576040517f08c379a000000000000000000000000000000000000000000000000000000000815260206004820152600b60248201527f4e4f545f544f5f54484953000000000000000000000000000000000000000000604482015260640161049c565b60008181526020819052604090205473ffffffffffffffffffffffffffffffffffffffff81161561129f576040517f08c379a000000000000000000000000000000000000000000000000000000000815260206004820152600f60248201527f414c52454144595f435245415445440000000000000000000000000000000000604482015260640161049c565b610a39600084846040518060200160405280600081525061155b565b73ffffffffffffffffffffffffffffffffffffffff821661130257600081815260208190526040902073ffffffffffffffffffffffffffffffffffffffff84169055611384565b60008181526020818152604080832073ffffffffffffffffffffffffffffffffffffffff8781167f800000000000000000000000000000000000000000000000000000000000000017909155600390925290912080547fffffffffffffffffffffffff0000000000000000000000000000000000000000169184169190911790555b808273ffffffffffffffffffffffffffffffffffffffff168473ffffffffffffffffffffffffffffffffffffffff167f8c5be1e5ebec7d5bd14f71427d1e84f3dd0314c0f7b2291e5b200ac8c7c3b92560405160405180910390a4505050565b73ffffffffffffffffffffffffffffffffffffffff8083166000908152600160208190526040909120805490910190558316156114675773ffffffffffffffffffffffffffffffffffffffff8316600090815260016020526040902080547fffffffffffffffffffffffffffffffffffffffffffffffffffffffffffffffff0190555b60008181526020819052604080822073ffffffffffffffffffffffffffffffffffffffff808616918290559151849391928716917fddf252ad1be2c89b69c2b068fc378daa952ba7f163c4a11628f55a4df523b3ef91a4505050565b73ffffffffffffffffffffffffffffffffffffffff83811660008181526002602090815260408083209487168084529482529182902080547fffffffffffffffffffffffffffffffffffffffffffffffffffffffffffffff001686151590811790915591519182527f17307eab39ab6107e8899845ad3d59bd9653f200f220920489ca2b5937696c31910160405180910390a3505050565b6115668484846113e4565b73ffffffffffffffffffffffffffffffffffffffff83163b156115f65761159033858585856115fc565b6115f6576040517f08c379a000000000000000000000000000000000000000000000000000000000815260206004820152601860248201527f4552433732315f5452414e534645525f52454a45435445440000000000000000604482015260640161049c565b50505050565b6000808473ffffffffffffffffffffffffffffffffffffffff1663150b7a02888887876040518563ffffffff1660e01b815260040161163e9493929190611b12565b602060405180830381600087803b15801561165857600080fd5b505af115801561166c573d6000803e3d6000fd5b505050506040513d601f19601f820116820180604052508101906116909190611b5b565b7fffffffff00000000000000000000000000000000000000000000000000000000167f150b7a02000000000000000000000000000000000000000000000000000000001491505095945050505050565b7fffffffff000000000000000000000000000000000000000000000000000000008116811461170e57600080fd5b50565b60006020828403121561172357600080fd5b813561172e816116e0565b9392505050565b60005b83811015611750578181015183820152602001611738565b838111156115f65750506000910152565b60008151808452611779816020860160208601611735565b601f017fffffffffffffffffffffffffffffffffffffffffffffffffffffffffffffffe0169290920160200192915050565b60208152600061172e6020830184611761565b6000602082840312156117d057600080fd5b5035919050565b73ffffffffffffffffffffffffffffffffffffffff8116811461170e57600080fd5b6000806040838503121561180c57600080fd5b8235611817816117d7565b946020939093013593505050565b60006020828403121561183757600080fd5b813561172e816117d7565b60008060006060848603121561185757600080fd5b8335611862816117d7565b92506020840135611872816117d7565b929592945050506040919091013590565b6000806040838503121561189657600080fd5b82356118a1816117d7565b9150602083013580151581146118b657600080fd5b809150509250929050565b7f4e487b7100000000000000000000000000000000000000000000000000000000600052604160045260246000fd5b604051601f82017fffffffffffffffffffffffffffffffffffffffffffffffffffffffffffffffe016810167ffffffffffffffff81118282101715611937576119376118c1565b604052919050565b600067ffffffffffffffff821115611959576119596118c1565b50601f017fffffffffffffffffffffffffffffffffffffffffffffffffffffffffffffffe01660200190565b6000806000806080858703121561199b57600080fd5b84356119a6816117d7565b935060208501356119b6816117d7565b925060408501359150606085013567ffffffffffffffff8111156119d957600080fd5b8501601f810187136119ea57600080fd5b80356119fd6119f88261193f565b6118f0565b818152886020838501011115611a1257600080fd5b8160208401602083013760006020838301015280935050505092959194509250565b600080600060608486031215611a4957600080fd5b83359250602084013591506040840135611a62816117d7565b809150509250925092565b60008060408385031215611a8057600080fd5b8235611a8b816117d7565b915060208301356118b6816117d7565b600060208284031215611aad57600080fd5b815167ffffffffffffffff811115611ac457600080fd5b8201601f81018413611ad557600080fd5b8051611ae36119f88261193f565b818152856020838501011115611af857600080fd5b611b09826020830160208601611735565b95945050505050565b600073ffffffffffffffffffffffffffffffffffffffff808716835280861660208401525083604083015260806060830152611b516080830184611761565b9695505050505050565b600060208284031215611b6d57600080fd5b815161172e816116e056fea26469706673582212200f04a49b3916a1f5af74cd0d38c05adc03f1d0961e368d1f21875d92e04e02c964736f6c63430008090033",
  "devdoc": {
    "kind": "dev",
    "methods": {
      "approve(address,uint256)": {
        "params": {
          "id": "The id of the token.",
          "operator": "The address receiving the approval."
        }
      },
      "balanceOf(address)": {
        "params": {
          "owner": "The address to look for."
        },
        "returns": {
          "balance": "The number of tokens owned by the address."
        }
      },
      "getApproved(uint256)": {
        "params": {
          "id": "The id of the token."
        },
        "returns": {
          "_0": "The address of the operator."
        }
      },
      "isApprovedForAll(address,address)": {
        "params": {
          "operator": "The address of the operator.",
          "owner": "The address of the owner."
        },
        "returns": {
          "isOperator": "The status of the approval."
        }
      },
      "ownerOf(uint256)": {
        "params": {
          "id": "The id of the token."
        },
        "returns": {
          "owner": "The address of the token owner."
        }
      },
      "safeTransferFrom(address,address,uint256)": {
        "params": {
          "from": "The send of the token.",
          "id": "The id of the token.",
          "to": "The recipient of the token."
        }
      },
      "safeTransferFrom(address,address,uint256,bytes)": {
        "params": {
          "data": "Additional data.",
          "from": "The sender of the token.",
          "id": "The id of the token.",
          "to": "The recipient of the token."
        }
      },
      "setApprovalForAll(address,bool)": {
        "params": {
          "approved": "The determination of the approval.",
          "operator": "The address receiving the approval."
        }
      },
      "supportsInterface(bytes4)": {
        "params": {
          "id": "The id of the interface."
        },
        "returns": {
          "_0": "Whether the interface is supported."
        }
      },
      "transferFrom(address,address,uint256)": {
        "params": {
          "from": "The sender of the token.",
          "id": "The id of the token.",
          "to": "The recipient of the token."
        }
      }
    },
    "version": 1
  },
  "userdoc": {
    "kind": "user",
    "methods": {
      "approve(address,uint256)": {
        "notice": "Approve an operator to spend tokens on the senders behalf."
      },
      "balanceOf(address)": {
        "notice": "Get the number of tokens owned by an address."
      },
      "getApproved(uint256)": {
        "notice": "Get the approved operator for a specific token."
      },
      "isApprovedForAll(address,address)": {
        "notice": "Check if the sender approved the operator."
      },
      "name()": {
        "notice": "A descriptive name for a collection of NFTs in this contract"
      },
      "ownerOf(uint256)": {
        "notice": "Get the owner of a token."
      },
      "safeTransferFrom(address,address,uint256)": {
        "notice": "Transfer a token between 2 addresses letting the receiver know of the transfer."
      },
      "safeTransferFrom(address,address,uint256,bytes)": {
        "notice": "Transfer a token between 2 addresses letting the receiver knows of the transfer."
      },
      "setApprovalForAll(address,bool)": {
        "notice": "Set the approval for an operator to manage all the tokens of the sender."
      },
      "supportsInterface(bytes4)": {
        "notice": "Check if the contract supports an interface. 0x01ffc9a7 is ERC165. 0x80ac58cd is ERC721 0x5b5e139f is for ERC721 metadata"
      },
      "symbol()": {
        "notice": "An abbreviated name for NFTs in this contract"
      },
      "transferFrom(address,address,uint256)": {
        "notice": "Transfer a token between 2 addresses."
      }
    },
    "version": 1
  },
  "storageLayout": {
    "storage": [
      {
        "astId": 9570,
        "contract": "src/MeloBleeps.sol:MeloBleeps",
        "label": "_owners",
        "offset": 0,
        "slot": "0",
        "type": "t_mapping(t_uint256,t_uint256)"
      },
      {
        "astId": 9574,
        "contract": "src/MeloBleeps.sol:MeloBleeps",
        "label": "_balances",
        "offset": 0,
        "slot": "1",
        "type": "t_mapping(t_address,t_uint256)"
      },
      {
        "astId": 9580,
        "contract": "src/MeloBleeps.sol:MeloBleeps",
        "label": "_operatorsForAll",
        "offset": 0,
        "slot": "2",
        "type": "t_mapping(t_address,t_mapping(t_address,t_bool))"
      },
      {
        "astId": 9584,
        "contract": "src/MeloBleeps.sol:MeloBleeps",
        "label": "_operators",
        "offset": 0,
        "slot": "3",
        "type": "t_mapping(t_uint256,t_address)"
      },
      {
        "astId": 9043,
        "contract": "src/MeloBleeps.sol:MeloBleeps",
        "label": "_maintainer",
        "offset": 0,
        "slot": "4",
        "type": "t_address"
      },
      {
        "astId": 9046,
        "contract": "src/MeloBleeps.sol:MeloBleeps",
        "label": "_tokenURIContract",
        "offset": 0,
        "slot": "5",
        "type": "t_contract(MeloBleepsTokenURI)9542"
      },
      {
        "astId": 9056,
        "contract": "src/MeloBleeps.sol:MeloBleeps",
        "label": "_melodies",
        "offset": 0,
        "slot": "6",
        "type": "t_mapping(t_uint256,t_struct(Melody)9051_storage)"
      }
    ],
    "types": {
      "t_address": {
        "encoding": "inplace",
        "label": "address",
        "numberOfBytes": "20"
      },
      "t_bool": {
        "encoding": "inplace",
        "label": "bool",
        "numberOfBytes": "1"
      },
      "t_bytes32": {
        "encoding": "inplace",
        "label": "bytes32",
        "numberOfBytes": "32"
      },
      "t_contract(MeloBleepsTokenURI)9542": {
        "encoding": "inplace",
        "label": "contract MeloBleepsTokenURI",
        "numberOfBytes": "20"
      },
      "t_mapping(t_address,t_bool)": {
        "encoding": "mapping",
        "key": "t_address",
        "label": "mapping(address => bool)",
        "numberOfBytes": "32",
        "value": "t_bool"
      },
      "t_mapping(t_address,t_mapping(t_address,t_bool))": {
        "encoding": "mapping",
        "key": "t_address",
        "label": "mapping(address => mapping(address => bool))",
        "numberOfBytes": "32",
        "value": "t_mapping(t_address,t_bool)"
      },
      "t_mapping(t_address,t_uint256)": {
        "encoding": "mapping",
        "key": "t_address",
        "label": "mapping(address => uint256)",
        "numberOfBytes": "32",
        "value": "t_uint256"
      },
      "t_mapping(t_uint256,t_address)": {
        "encoding": "mapping",
        "key": "t_uint256",
        "label": "mapping(uint256 => address)",
        "numberOfBytes": "32",
        "value": "t_address"
      },
      "t_mapping(t_uint256,t_struct(Melody)9051_storage)": {
        "encoding": "mapping",
        "key": "t_uint256",
        "label": "mapping(uint256 => struct MeloBleeps.Melody)",
        "numberOfBytes": "32",
        "value": "t_struct(Melody)9051_storage"
      },
      "t_mapping(t_uint256,t_uint256)": {
        "encoding": "mapping",
        "key": "t_uint256",
        "label": "mapping(uint256 => uint256)",
        "numberOfBytes": "32",
        "value": "t_uint256"
      },
      "t_struct(Melody)9051_storage": {
        "encoding": "inplace",
        "label": "struct MeloBleeps.Melody",
        "members": [
          {
            "astId": 9048,
            "contract": "src/MeloBleeps.sol:MeloBleeps",
            "label": "data1",
            "offset": 0,
            "slot": "0",
            "type": "t_bytes32"
          },
          {
            "astId": 9050,
            "contract": "src/MeloBleeps.sol:MeloBleeps",
            "label": "data2",
            "offset": 0,
            "slot": "1",
            "type": "t_bytes32"
          }
        ],
        "numberOfBytes": "64"
      },
      "t_uint256": {
        "encoding": "inplace",
        "label": "uint256",
        "numberOfBytes": "32"
      }
    }
  }
}