{
  "address": "0x49f958a5869Fdb972fb448787257221b7c01F47c",
  "abi": [
    {
      "inputs": [
        {
          "internalType": "contract Bleeps",
          "name": "bleeps",
          "type": "address"
        },
        {
          "internalType": "uint256",
          "name": "price",
          "type": "uint256"
        },
        {
          "internalType": "uint256",
          "name": "startTime",
          "type": "uint256"
        },
        {
          "internalType": "uint256",
          "name": "whitelistPrice",
          "type": "uint256"
        },
        {
          "internalType": "uint256",
          "name": "whitelistEndTime",
          "type": "uint256"
        },
        {
          "internalType": "bytes32",
          "name": "whitelistMerkleRoot",
          "type": "bytes32"
        },
        {
          "internalType": "address payable",
          "name": "projectCreator",
          "type": "address"
        },
        {
          "internalType": "uint256",
          "name": "creatorFeePer10000",
          "type": "uint256"
        },
        {
          "internalType": "address payable",
          "name": "saleRecipient",
          "type": "address"
        },
        {
          "internalType": "uint256",
          "name": "uptoInstr",
          "type": "uint256"
        }
      ],
      "stateMutability": "nonpayable",
      "type": "constructor"
    },
    {
      "inputs": [
        {
          "internalType": "uint16",
          "name": "id",
          "type": "uint16"
        },
        {
          "internalType": "address",
          "name": "to",
          "type": "address"
        }
      ],
      "name": "creatorMint",
      "outputs": [],
      "stateMutability": "nonpayable",
      "type": "function"
    },
    {
      "inputs": [
        {
          "internalType": "uint16[]",
          "name": "ids",
          "type": "uint16[]"
        },
        {
          "internalType": "address",
          "name": "to",
          "type": "address"
        }
      ],
      "name": "creatorMultiMint",
      "outputs": [],
      "stateMutability": "nonpayable",
      "type": "function"
    },
    {
      "inputs": [
        {
          "internalType": "uint256",
          "name": "id",
          "type": "uint256"
        }
      ],
      "name": "isOpenForSale",
      "outputs": [
        {
          "internalType": "bool",
          "name": "",
          "type": "bool"
        }
      ],
      "stateMutability": "view",
      "type": "function"
    },
    {
      "inputs": [
        {
          "internalType": "uint256",
          "name": "passId",
          "type": "uint256"
        }
      ],
      "name": "isPassUsed",
      "outputs": [
        {
          "internalType": "bool",
          "name": "",
          "type": "bool"
        }
      ],
      "stateMutability": "view",
      "type": "function"
    },
    {
      "inputs": [
        {
          "internalType": "uint256",
          "name": "id",
          "type": "uint256"
        }
      ],
      "name": "isReserved",
      "outputs": [
        {
          "internalType": "bool",
          "name": "",
          "type": "bool"
        }
      ],
      "stateMutability": "pure",
      "type": "function"
    },
    {
      "inputs": [
        {
          "internalType": "uint16",
          "name": "id",
          "type": "uint16"
        },
        {
          "internalType": "address",
          "name": "to",
          "type": "address"
        }
      ],
      "name": "mint",
      "outputs": [],
      "stateMutability": "payable",
      "type": "function"
    },
    {
      "inputs": [
        {
          "internalType": "uint16",
          "name": "id",
          "type": "uint16"
        },
        {
          "internalType": "address",
          "name": "to",
          "type": "address"
        },
        {
          "internalType": "uint256",
          "name": "passId",
          "type": "uint256"
        },
        {
          "internalType": "bytes32[]",
          "name": "proof",
          "type": "bytes32[]"
        }
      ],
      "name": "mintWithPassId",
      "outputs": [],
      "stateMutability": "payable",
      "type": "function"
    },
    {
      "inputs": [
        {
          "internalType": "uint16",
          "name": "id",
          "type": "uint16"
        },
        {
          "internalType": "address",
          "name": "to",
          "type": "address"
        },
        {
          "internalType": "uint256",
          "name": "passId",
          "type": "uint256"
        },
        {
          "internalType": "bytes",
          "name": "signature",
          "type": "bytes"
        },
        {
          "internalType": "bytes32[]",
          "name": "proof",
          "type": "bytes32[]"
        }
      ],
      "name": "mintWithSalePass",
      "outputs": [],
      "stateMutability": "payable",
      "type": "function"
    },
    {
      "inputs": [
        {
          "internalType": "uint256",
          "name": "passId",
          "type": "uint256"
        },
        {
          "internalType": "uint256[]",
          "name": "ids",
          "type": "uint256[]"
        }
      ],
      "name": "ownersAndPriceInfo",
      "outputs": [
        {
          "internalType": "address[]",
          "name": "addresses",
          "type": "address[]"
        },
        {
          "internalType": "uint256",
          "name": "price",
          "type": "uint256"
        },
        {
          "internalType": "uint256",
          "name": "startTime",
          "type": "uint256"
        },
        {
          "internalType": "uint256",
          "name": "whitelistPrice",
          "type": "uint256"
        },
        {
          "internalType": "uint256",
          "name": "whitelistEndTime",
          "type": "uint256"
        },
        {
          "internalType": "bytes32",
          "name": "whitelistMerkleRoot",
          "type": "bytes32"
        },
        {
          "internalType": "bool",
          "name": "passUsed",
          "type": "bool"
        },
        {
          "internalType": "uint256",
          "name": "uptoInstr",
          "type": "uint256"
        }
      ],
      "stateMutability": "view",
      "type": "function"
    },
    {
      "inputs": [],
      "name": "priceInfo",
      "outputs": [
        {
          "internalType": "uint256",
          "name": "price",
          "type": "uint256"
        },
        {
          "internalType": "uint256",
          "name": "startTime",
          "type": "uint256"
        },
        {
          "internalType": "uint256",
          "name": "whitelistPrice",
          "type": "uint256"
        },
        {
          "internalType": "uint256",
          "name": "whitelistEndTime",
          "type": "uint256"
        },
        {
          "internalType": "bytes32",
          "name": "whitelistMerkleRoot",
          "type": "bytes32"
        }
      ],
      "stateMutability": "view",
      "type": "function"
    }
  ],
  "transactionHash": "0xf5f3cf6e2c1c590ec25566818c4dcc441546594e7ea558e2153348ac5127aa40",
  "args": [
    "0x285B3f7B4d68CdDe162793Ea5996F21252a6eE59",
    "100000000000000000",
    1638605487,
    "100000000000000000",
    1638607287,
    "0xc265b7f421ebad106f74bbb2e2895a9da81e5c4d90652c3017e05fc4c297e44e",
    "0xcE1AEF3e0A5324F7AB6e21B4dacc10B82666E1e2",
    2500,
    "0xDcf0fCaC9901b89819f5E9478b1B6A0919715172",
    8
  ],
  "linkedData": {
    "numPrivatePasses": 815,
    "leaves": [
      {
        "passId": "0",
        "signer": "0x301de73176D2f0093c3ECd6820db0C80E2ef2573"
      },
      {
        "passId": "1",
        "signer": "0x3Cf991498cCff73271E22506309301292E67E56a"
      },
      {
        "passId": "2",
        "signer": "0xaB9275D56b088b4316600fF4a36Cebe8041aBbb1"
      },
      {
        "passId": "3",
        "signer": "0x4Dc0F4Fc4d2b3513982f2418144D1F759eC88e37"
      },
      {
        "passId": "4",
        "signer": "0x64d2be7AD9E48476BF239c3e020b8c4f84f76Cf1"
      },
      {
        "passId": "5",
        "signer": "0x61536F8624D3Da9bf814895C5275B26e450b61f5"
      },
      {
        "passId": "6",
        "signer": "0xFa50605424336388289C462F219eb15F4794ccd8"
      },
      {
        "passId": "7",
        "signer": "0x7C3434AcD6774B537D9459863e5f93d7B3F689a5"
      },
      {
        "passId": "8",
        "signer": "0x55DdD684Fe9EdEdA20D5CA7e834Bc44d75616c19"
      },
      {
        "passId": "9",
        "signer": "0xf0aB1a519bb494D787f779132509159cea23d446"
      },
      {
        "passId": "10",
        "signer": "0x15F207471247329dE10d6e473D03AB0eed8E53EA"
      },
      {
        "passId": "11",
        "signer": "0x49cfc4DDF2e05f4642E6Ee574c7F535fe362Bf4E"
      },
      {
        "passId": "12",
        "signer": "0x3ed24077D69cF870E1d5e514a2408698c5df37b2"
      },
      {
        "passId": "13",
        "signer": "0x9e2fbAED5a6680541194D0c97ec49B82b1360D45"
      },
      {
        "passId": "14",
        "signer": "0xaF5742d2A196E0cC1d50C5016fB448C719311650"
      },
      {
        "passId": "15",
        "signer": "0x309343c75a50454C9a9613bE5e8167e65661990b"
      },
      {
        "passId": "16",
        "signer": "0x113732FF50EF07540e8b1Eb97b28f632955531FB"
      },
      {
        "passId": "17",
        "signer": "0x3f3B478D710bFeA25a83364a1701A14Bae0Ce4b3"
      },
      {
        "passId": "18",
        "signer": "0x04400698c005B03F185E171A1FC4879D7a4a6033"
      },
      {
        "passId": "19",
        "signer": "0xCd4CcF068CD1676B6781D39F00259601976d6d4f"
      },
      {
        "passId": "20",
        "signer": "0x47aA7B3C928aD40122aF18976b841F088ef86cb2"
      },
      {
        "passId": "21",
        "signer": "0x9Aac04958Aba535142b3B4AfeC99B82bb6c6F453"
      },
      {
        "passId": "22",
        "signer": "0x087E6dfc60893F5f10DaBC9ce47aebeEb62323bB"
      },
      {
        "passId": "23",
        "signer": "0x29271a7C5C11dD43C35b36290334afa5863C925F"
      },
      {
        "passId": "24",
        "signer": "0x7292129bc65f70D4e00B1154CD63594a320D189F"
      },
      {
        "passId": "25",
        "signer": "0xf815243ebFcB15B8563446aC57c8ca2a3f20d0Bd"
      },
      {
        "passId": "26",
        "signer": "0x86b7D66b18CF47C11CCC0B2860026a3E73b842bf"
      },
      {
        "passId": "27",
        "signer": "0x4fd240615225C39901436c0339e487cA08Ab0c91"
      },
      {
        "passId": "28",
        "signer": "0x20f1D3ba728212a6033dE8a4b3f2dce76FF1254D"
      },
      {
        "passId": "29",
        "signer": "0xAb9F14c732Eab8AB4740ee391c3052a703f7C26e"
      },
      {
        "passId": "30",
        "signer": "0xC8773fd23F2723EAfDFa8691BFe9C3760c4CDCE7"
      },
      {
        "passId": "31",
        "signer": "0xf9bc25679cE7017d4Ee13D6C307C0E5000265f77"
      },
      {
        "passId": "32",
        "signer": "0x2006721FB206C721F370c0FFfC76cb0626DAc8d4"
      },
      {
        "passId": "33",
        "signer": "0xd079D3Bf6856Ba33277Bbc91ae33Bdaf3fD1630F"
      },
      {
        "passId": "34",
        "signer": "0x3B5cFF73002C6d127FBa23A0c7665DC05D520930"
      },
      {
        "passId": "35",
        "signer": "0xf2498085C78ac307A06E95eA203Bf27feb09c913"
      },
      {
        "passId": "36",
        "signer": "0xEc2565f13546f42b836ED57130Bc688055e7646f"
      },
      {
        "passId": "37",
        "signer": "0x7d7925275aD060b3AFa1B8Ee7f06b7603D63E84C"
      },
      {
        "passId": "38",
        "signer": "0x270228d80a62eB527a1357d79e41349fDC50D783"
      },
      {
        "passId": "39",
        "signer": "0x21D5bbF8e0Ee7EB9BBD6411245E30022dfD45F43"
      },
      {
        "passId": "40",
        "signer": "0x0C21C8Fe6a0d2F4aFc33bcfBD8D31946988d6d96"
      },
      {
        "passId": "41",
        "signer": "0x67CB4DD3f48AfD3a59D251ACf4892f3b97463a3f"
      },
      {
        "passId": "42",
        "signer": "0xa2689930b4034485F79387149284aB790Bc9c6CC"
      },
      {
        "passId": "43",
        "signer": "0x08f3d0CAA00522Df31241916081724A506537B03"
      },
      {
        "passId": "44",
        "signer": "0x5d5b5EC7cb3BE764f1AC09a147Bd498C090f6d60"
      },
      {
        "passId": "45",
        "signer": "0x4E28FdD1B804037a297377CE24865C3DdeCA4D41"
      },
      {
        "passId": "46",
        "signer": "0xEa2A5B72E3954bF3f5019580da73b6d6B6ba7930"
      },
      {
        "passId": "47",
        "signer": "0x8688c6F87bd8125e1A6f830b38c2f9604Ec18281"
      },
      {
        "passId": "48",
        "signer": "0x5f1BAaE5f82C42B1Be72F8dEceDFf6BB04F1C133"
      },
      {
        "passId": "49",
        "signer": "0x55e5b195BDfB93C65f9C82E47b2023dd7453F832"
      },
      {
        "passId": "50",
        "signer": "0x503dd1F39DC5EF0BA76E790B87A49Bc4C9801454"
      },
      {
        "passId": "51",
        "signer": "0x7D132b327d9c4d32cBFC8D9d66ae65787d09f8A4"
      },
      {
        "passId": "52",
        "signer": "0x40612E21565D5F8316924BF47a6Aaeb7cA0EE9bd"
      },
      {
        "passId": "53",
        "signer": "0xA1435782C3c8C5E3036d61437854ca17A4dd4Bd6"
      },
      {
        "passId": "54",
        "signer": "0xa06AdBcA8f6655d1dF6CC36f91F27E38CFa69d9f"
      },
      {
        "passId": "55",
        "signer": "0xc718689A0b93Ad4a783fa7F05D937156cF4148e3"
      },
      {
        "passId": "56",
        "signer": "0xdE431940cB0ea74d3ba8b381a30e0C69d8f0a6c4"
      },
      {
        "passId": "57",
        "signer": "0x1b5b3BB07BbEe2A6b1d2dC14Ac275e8Cbc749447"
      },
      {
        "passId": "58",
        "signer": "0xA093d0f56cbE1602CaD8f1C7942f44775d19c3e5"
      },
      {
        "passId": "59",
        "signer": "0xdfB18A0d4003D12f7cd32EfAbbE382fF2420aEac"
      },
      {
        "passId": "60",
        "signer": "0x3188DbD4Ec997e0B2ae661f3c84D69D3b91CA9Ba"
      },
      {
        "passId": "61",
        "signer": "0xFB3B457163aE81b2ece1a777060b9B204A9A9A0d"
      },
      {
        "passId": "62",
        "signer": "0xA36B319D93A5FC692181ee433ED444682d850a40"
      },
      {
        "passId": "63",
        "signer": "0x00D8465b410ad633be6A22802A4bfEB8A75053C0"
      },
      {
        "passId": "64",
        "signer": "0x16436623D2736881ba82981F2Db0350DEb5CF7d5"
      },
      {
        "passId": "65",
        "signer": "0x2213c4b0629772FFb408d2c5f685427182bfD6dA"
      },
      {
        "passId": "66",
        "signer": "0xc13A51561D456d1eF92eC6dfd50f113903450E6d"
      },
      {
        "passId": "67",
        "signer": "0x18943138bC1Ddbe9Ec3d5982611254e368080Aa9"
      },
      {
        "passId": "68",
        "signer": "0x8d9ab669f228EfE385a4E51468bEC075eBeC3B62"
      },
      {
        "passId": "69",
        "signer": "0x2e7F2665593dBBce41b19986695Ca546bFCb082D"
      },
      {
        "passId": "70",
        "signer": "0x2Cdc71Ae4018728B56F5e1d6f07aFAf93fdD2B31"
      },
      {
        "passId": "71",
        "signer": "0xA5C245e3183D980ba9abb7113C8533893b1736cf"
      },
      {
        "passId": "72",
        "signer": "0xb0981CFbFb7138EB912D816E67d1Eb969401B895"
      },
      {
        "passId": "73",
        "signer": "0xD2D16Dc6f52d93BC67382A7c80B64c95bbccB1A5"
      },
      {
        "passId": "74",
        "signer": "0x613d8dD1E9a5A976797e396Ceb0F750974253cA4"
      },
      {
        "passId": "75",
        "signer": "0x72449C838D28c90BD8e5eE9a0815d90FF8599568"
      },
      {
        "passId": "76",
        "signer": "0xE72516BDF0B55388BB4ea8b68FD098e9De2DB6fA"
      },
      {
        "passId": "77",
        "signer": "0xC7Ca02CfffDC9E5580484584AEf1fb2bDF98b5FE"
      },
      {
        "passId": "78",
        "signer": "0xc8A6DAe7ce11fCaDf3bdeB2695aB4eda981C1628"
      },
      {
        "passId": "79",
        "signer": "0x7AEc78f52B301820677009E1941F03B79E3ed3CC"
      },
      {
        "passId": "80",
        "signer": "0xaC77a6Eb0b28fb78c9C74f72688f6887691968b8"
      },
      {
        "passId": "81",
        "signer": "0x7392224ed16517E53aE32238a89D42330f5fee22"
      },
      {
        "passId": "82",
        "signer": "0x259BdC83d95953E8Ea070fED4E803da89FA10167"
      },
      {
        "passId": "83",
        "signer": "0x7cE4D4882Fb5de41C80dBaD4bB41FbF31CcF0d9F"
      },
      {
        "passId": "84",
        "signer": "0xB40961fbfCDb75BAa8454534a449845655fB50aa"
      },
      {
        "passId": "85",
        "signer": "0x568A82Ae86EBF24aea7373fAdb7aF34865Eec1dE"
      },
      {
        "passId": "86",
        "signer": "0x5a7E598FDdEA0d397D6afA12999c00C1a51b50A9"
      },
      {
        "passId": "87",
        "signer": "0xfB3893576811cf0b660e8f8f347De346C2C66F4a"
      },
      {
        "passId": "88",
        "signer": "0x514306ae55DeCd76403972e51E3796e16A134a8f"
      },
      {
        "passId": "89",
        "signer": "0x5f05AaA537793F9F103bacacC00d442B2052b47A"
      },
      {
        "passId": "90",
        "signer": "0x12b02Fa127c4219dE86E268376946B271143a79E"
      },
      {
        "passId": "91",
        "signer": "0x2fF68eE932452D1525c1e9D82cfC20feB9997F60"
      },
      {
        "passId": "92",
        "signer": "0x25454C971Dc973A18bD2fe6e6649d7c70aF60AB0"
      },
      {
        "passId": "93",
        "signer": "0x266d5Da846ea1d2905C2061C411dd3Ae16862122"
      },
      {
        "passId": "94",
        "signer": "0x521D2b5DABC8a9BC8276D0f8dB4D3d8e14999B16"
      },
      {
        "passId": "95",
        "signer": "0xa07D1004c116d744d4a57B5eadB66a4a3b7B8b2B"
      },
      {
        "passId": "96",
        "signer": "0x39c89CA0dC9AA84e10B1fCD03723f0e27fC6070A"
      },
      {
        "passId": "97",
        "signer": "0xf07979F2840ef538da327C0475eA94B91611d577"
      },
      {
        "passId": "98",
        "signer": "0x0808316090442bb91f2378a170959aF08736d353"
      },
      {
        "passId": "99",
        "signer": "0x2369719D3F652F932dED09503Ff08031F520A60A"
      },
      {
        "passId": "100",
        "signer": "0x6E8e083E6399149d8A284749AEa213e70B24B188"
      },
      {
        "passId": "101",
        "signer": "0xCa831D257d49A38264735F2C7d4D02B45f2CE38e"
      },
      {
        "passId": "102",
        "signer": "0x8BED850d694f4C35B5e6bC7213FBbdf9b6ee9C3c"
      },
      {
        "passId": "103",
        "signer": "0x1d2876b93751d9fcA395B641421Ee8082F4b25C1"
      },
      {
        "passId": "104",
        "signer": "0xc4F87CFF7de1830Aeadc035e7376626981761848"
      },
      {
        "passId": "105",
        "signer": "0x675d12f0a7c9075379947318138F761a3170DBB3"
      },
      {
        "passId": "106",
        "signer": "0xe45d635b551835925b3A63568511B35E06A82112"
      },
      {
        "passId": "107",
        "signer": "0x24271e9D74dA72A82D6Ea8279e14Bd57Df85160C"
      },
      {
        "passId": "108",
        "signer": "0x4277219CfCbb37DE6E9818B815eA965C1F5493AD"
      },
      {
        "passId": "109",
        "signer": "0x6D95F765Cf15Be971aA24E33Ffad56c74B940242"
      },
      {
        "passId": "110",
        "signer": "0x22B57e78dda9D38e2b8960cDbD178f6af4E7d5c4"
      },
      {
        "passId": "111",
        "signer": "0x4d28b655d83bfeEd822a9d9328C5e2F874b6ddDc"
      },
      {
        "passId": "112",
        "signer": "0xdd18A9Fc14802A7179e240F7D20C92DA908FaD1a"
      },
      {
        "passId": "113",
        "signer": "0xFA6EdCE94203Dcc3DcD576A98DcddE8eFcCeF16d"
      },
      {
        "passId": "114",
        "signer": "0xAf3B82d41b04306f9Af7448d742035Cf82E7F135"
      },
      {
        "passId": "115",
        "signer": "0x3695bEff700896daA8bBc00cbAB53d4FF01EA313"
      },
      {
        "passId": "116",
        "signer": "0x0FCd178F51CD2361520DA5Ac16CA9bcc1fe937FB"
      },
      {
        "passId": "117",
        "signer": "0x8407e30A5a447ED1874db5DB05E5b1fC0F6c0b94"
      },
      {
        "passId": "118",
        "signer": "0x88A3C73B2DAF2346F8fc4423d5D5d868a57fa3ce"
      },
      {
        "passId": "119",
        "signer": "0x6F4BcE129A67Eb655e6FfF53F3B6e436A8eD6118"
      },
      {
        "passId": "120",
        "signer": "0xEd75f387F04A57712Feaee1Cc030bf7450EC2325"
      },
      {
        "passId": "121",
        "signer": "0x826514095Be686Aa5E6fa297fcd2c9C741fA74B3"
      },
      {
        "passId": "122",
        "signer": "0xe2b7dC3D329cbA2Fee7c17960Ea1E8BacdB384f7"
      },
      {
        "passId": "123",
        "signer": "0x4284ADAD7c13563cd17745eB36A223073ab03911"
      },
      {
        "passId": "124",
        "signer": "0x93bd3278266163764062646Ff680640551258F3F"
      },
      {
        "passId": "125",
        "signer": "0xc28E61626d62CC64dAD1AEFF0B6661C2f1281da7"
      },
      {
        "passId": "126",
        "signer": "0xb08527bC3d676818e66Cd25095Bb2f8bdC664704"
      },
      {
        "passId": "127",
        "signer": "0xE6E8D7DC876895589e5f9Ae4985944DdcE4cdc85"
      },
      {
        "passId": "128",
        "signer": "0x1982EF90f0BA91dce6f80c73a6C85d8C46290588"
      },
      {
        "passId": "129",
        "signer": "0x78Eca75f52b5E4341aA7aCB1953f12CBc2Ad929B"
      },
      {
        "passId": "130",
        "signer": "0x389b25CF0b2d5e10A6a123367936Bd04048d22e1"
      },
      {
        "passId": "131",
        "signer": "0xc2C1944efA249b51f702A79f82AbcF48e86826f3"
      },
      {
        "passId": "132",
        "signer": "0x13Dd4043a19b39FE993960D3d9E36DE8aBE365a8"
      },
      {
        "passId": "133",
        "signer": "0x27cdf31Bbc2A6284389576D64C04Cbeb54Ac6d7d"
      },
      {
        "passId": "134",
        "signer": "0xf635f1bAFfd7C7b94d4421b77033FE1dd600bB59"
      },
      {
        "passId": "135",
        "signer": "0x932A3dF2d22B4298AbdeB4D6F5e2DBe8EA91906B"
      },
      {
        "passId": "136",
        "signer": "0x4c32A349bb363BBb6F12326de71C2E7526aD5d18"
      },
      {
        "passId": "137",
        "signer": "0x08c55eBABcBCa3A91C9118b761122F82e220cb4f"
      },
      {
        "passId": "138",
        "signer": "0x874c916dF8F5683B7b66cfc1Bb9D601bBe17fF80"
      },
      {
        "passId": "139",
        "signer": "0x5414b93892870a2014022Ef2DC76233939a6Bb3A"
      },
      {
        "passId": "140",
        "signer": "0x3a850EF69c4FfBA404633d3ECE4C3FaFd1044C99"
      },
      {
        "passId": "141",
        "signer": "0x0066FeB36f855Fcc22134F625963Bd4611906D94"
      },
      {
        "passId": "142",
        "signer": "0xeB08FEde3156Fe6f4608c0bcC6986Fe376CE0C63"
      },
      {
        "passId": "143",
        "signer": "0x5da8d1b4994Fc4ab02053fB7564Dc660a601cf27"
      },
      {
        "passId": "144",
        "signer": "0x4f58Ca7C21dBf7eBF6DD75d07AE408E6A3c4D1Fb"
      },
      {
        "passId": "145",
        "signer": "0x55236Ba2f248cf4E1E55d41c963C587E6363E423"
      },
      {
        "passId": "146",
        "signer": "0x8dAD2005Fe648659CA8fBb46749aA95d4B25337a"
      },
      {
        "passId": "147",
        "signer": "0xa97CFA93a42e59C0A78d92fC016d8aB3f649848b"
      },
      {
        "passId": "148",
        "signer": "0x59520f749457c6c03D7E34cD5946E6BB8f9A6d1D"
      },
      {
        "passId": "149",
        "signer": "0x8920056e8785ade48bc405Cd517898f05020dB0b"
      },
      {
        "passId": "150",
        "signer": "0xB090b279042985Cf186781C2C85A826215D29bf5"
      },
      {
        "passId": "151",
        "signer": "0x3ca3E26F7C2FD044F950a949C6AF5F4c54438D77"
      },
      {
        "passId": "152",
        "signer": "0xd4DCEe3efd2850569E4379D5F1C73734c0B62eAF"
      },
      {
        "passId": "153",
        "signer": "0xa189f629a710B0567E2d28F80B0D03C1b1C757e7"
      },
      {
        "passId": "154",
        "signer": "0xc052473aDA2538753Cf804D3f75bde439805fEf7"
      },
      {
        "passId": "155",
        "signer": "0x0c2341Afb871cbFbb584f34291BC42552ED4E8C2"
      },
      {
        "passId": "156",
        "signer": "0xcEd9894e55c7B635e9Fc3b1A724c33697D72Bf30"
      },
      {
        "passId": "157",
        "signer": "0xcA336E1681660359b7a7F69E637AE8e5F120668a"
      },
      {
        "passId": "158",
        "signer": "0xBA0B7F999dc263562B7dd7DF3707E8a4e0977D1e"
      },
      {
        "passId": "159",
        "signer": "0x9eBd98fD7F915815703FF702A5CB914AA2047B86"
      },
      {
        "passId": "160",
        "signer": "0x1372e3268Df8884100d0EA09570FBF696E287719"
      },
      {
        "passId": "161",
        "signer": "0x3780add317CA1Fca1CB66D893fA673aC62dC8836"
      },
      {
        "passId": "162",
        "signer": "0x8E344892679a506B596b737b284F1492280f6568"
      },
      {
        "passId": "163",
        "signer": "0x097a48c765C14640Adf1E7CDc30153082A9d2DAf"
      },
      {
        "passId": "164",
        "signer": "0xaA44E8F8F16cB83118776e8A6BA1730d782F6be3"
      },
      {
        "passId": "165",
        "signer": "0xa8F331C460B1c52eB2CE7118Af38921fC601f6F2"
      },
      {
        "passId": "166",
        "signer": "0x8A9100c7be6F9246aE8307eefc4c491744568fEF"
      },
      {
        "passId": "167",
        "signer": "0xecabE510C14F65b56C50d6420DA361cD23D604D6"
      },
      {
        "passId": "168",
        "signer": "0x52B82F54A4Ca7fd040B5d57ccA72dfAa69E9147b"
      },
      {
        "passId": "169",
        "signer": "0x6855D43eb198D4D70B1B33BB26F56b48ce009676"
      },
      {
        "passId": "170",
        "signer": "0x5CfDf8E3DEE0e45a84a3D204344d7fB4B7F70201"
      },
      {
        "passId": "171",
        "signer": "0xBc8f3d7a6aB9c7D6bc7F3871Aa94256761C82a1d"
      },
      {
        "passId": "172",
        "signer": "0xb2F39E8cDdca17163B3CD56b306DaabF556a8626"
      },
      {
        "passId": "173",
        "signer": "0xfFF4F5b3d0a905e21a60684B4C65db837cf23b4D"
      },
      {
        "passId": "174",
        "signer": "0xAb41fe4051DbE557C9b6B46d73df6cD4c9A54776"
      },
      {
        "passId": "175",
        "signer": "0xbc34B0f288B3CBCf7454F0497FD433B67db0497A"
      },
      {
        "passId": "176",
        "signer": "0xDAd83bCd681ba326698158Fa28Ac04B3Ab2Adee8"
      },
      {
        "passId": "177",
        "signer": "0x42Cc865935BBE1A574493040F87162EABE97c7F1"
      },
      {
        "passId": "178",
        "signer": "0x65D67AB227c10875870805DEF848468D388e3d6f"
      },
      {
        "passId": "179",
        "signer": "0x08917644f8a0aC6F5B0a7F37996731c4c69577ed"
      },
      {
        "passId": "180",
        "signer": "0xB143e6686B22900DfeB60e73012f4aeA979B1a6E"
      },
      {
        "passId": "181",
        "signer": "0xacB326d68a5e6667C061b1E97CF4A48a12F7765e"
      },
      {
        "passId": "182",
        "signer": "0xF8098AFbC708C49FBAcc30C9cBf5e2b78c3bB9DC"
      },
      {
        "passId": "183",
        "signer": "0x0333fbb494568ef768157Fec309b57BEF8eA564e"
      },
      {
        "passId": "184",
        "signer": "0xa63D6e6CBF8392Fdfc5D96664f5c9F48ec263e27"
      },
      {
        "passId": "185",
        "signer": "0xc08DFd019F8152fca6d3e700dc83F5b0286cB28E"
      },
      {
        "passId": "186",
        "signer": "0x1f3B7248141ba75717682Bf8a314AeC6E477de30"
      },
      {
        "passId": "187",
        "signer": "0x738B0c2Fe5c04935e4FCDBE8dF41c9ed69e719e2"
      },
      {
        "passId": "188",
        "signer": "0xBDb69a129389d0454b1dda5cfCD5168bC4baAA17"
      },
      {
        "passId": "189",
        "signer": "0x0a799381Df9b9e53cd6830bb14bC033ab4354C04"
      },
      {
        "passId": "190",
        "signer": "0xa2A9662abc5C9895D6fEbBc608Ff0A1441b4CD9d"
      },
      {
        "passId": "191",
        "signer": "0xCB6F4bed66655599e594bff7B7e302099d8d24a9"
      },
      {
        "passId": "192",
        "signer": "0x2C2d4d38BBb1F2973977cbF55921723610dbfE64"
      },
      {
        "passId": "193",
        "signer": "0xf914472Ba50C3860F40c67499FF5655766558814"
      },
      {
        "passId": "194",
        "signer": "0x55917369083D16dc9533D3Cff0c08492894adeBE"
      },
      {
        "passId": "195",
        "signer": "0xa94144a078F6CAaB2998b4346f1ED323915912f5"
      },
      {
        "passId": "196",
        "signer": "0x648C899bEd3E957F7A61B3aA4E438dd143029D9d"
      },
      {
        "passId": "197",
        "signer": "0x3E838240dDd8E333c92749b2AEfd7A58E5ADE81A"
      },
      {
        "passId": "198",
        "signer": "0x5FDBea4f18D7c0B5F3d9aAc17190236474A06fFe"
      },
      {
        "passId": "199",
        "signer": "0x48693A7eE2C479dB6997F42B85dDa2703FEb9f26"
      },
      {
        "passId": "200",
        "signer": "0xf153B384c0F918b1707Dffa3087299bE7EE18AD8"
      },
      {
        "passId": "201",
        "signer": "0xea2dc050f3C97f4E0c7D1BDD25CAfe7c1078D781"
      },
      {
        "passId": "202",
        "signer": "0xAe8521fC795668E98a7fEdF76b67dF67D348d638"
      },
      {
        "passId": "203",
        "signer": "0xbc0b1c53DaEE65e23B8B1463281CE15a6e7C1539"
      },
      {
        "passId": "204",
        "signer": "0xA82682a9aFA4684483491a8190d8ebb8d16EC154"
      },
      {
        "passId": "205",
        "signer": "0x712724c4C91C3c07B3aBa17C2DED435d9bAA2421"
      },
      {
        "passId": "206",
        "signer": "0x64DC5291725d3608136E7276AFfdb8F446E116C3"
      },
      {
        "passId": "207",
        "signer": "0x0A763160fc44CA450450EeC8023d07133fC1D7B8"
      },
      {
        "passId": "208",
        "signer": "0x528438A984757d18535E7B03402266E8018A3b17"
      },
      {
        "passId": "209",
        "signer": "0x269f0Ed91aaa61d868F5bD920Ee049ca9b8De8b9"
      },
      {
        "passId": "210",
        "signer": "0xD5F72BCa70DBe00e27Bd4a060a76014E010aa159"
      },
      {
        "passId": "211",
        "signer": "0xF19aB1C5bbE56A5b9485Bc4D6920A087358ec9C6"
      },
      {
        "passId": "212",
        "signer": "0x1CE0BeE7537967D8851b780158d901AF15149E8E"
      },
      {
        "passId": "213",
        "signer": "0x29686BF784709Aa4e95Ba799B59C4b997C94CC15"
      },
      {
        "passId": "214",
        "signer": "0x34C6cad0d2eaC8319Fc9E9fd4Ff8cA6ADbcA3e98"
      },
      {
        "passId": "215",
        "signer": "0x29CA5152F166B312c4a368Bfb1631d37a64270b6"
      },
      {
        "passId": "216",
        "signer": "0xeb2826cdaD63E7C4010523a5D79A779d811Af0B0"
      },
      {
        "passId": "217",
        "signer": "0x88B046e90d3473ec97C2Ca40B07C1aA8BC0940D8"
      },
      {
        "passId": "218",
        "signer": "0x5eE7f21a53f209c0c00c61759B86806F263927e1"
      },
      {
        "passId": "219",
        "signer": "0x05C8F774A2fA1e11d042eE70402551368EF6b00B"
      },
      {
        "passId": "220",
        "signer": "0xF67dF08A7608D8D04c01186b83C920461B7A0975"
      },
      {
        "passId": "221",
        "signer": "0x5abB22E5F4008C9AfB80717bA0c01091001D978A"
      },
      {
        "passId": "222",
        "signer": "0xE01E542F61eE9781AdAc6c25b5Fe960B10943EB4"
      },
      {
        "passId": "223",
        "signer": "0x24C9207EdA21c6eCDe9595eeaBA0C0E48071e775"
      },
      {
        "passId": "224",
        "signer": "0x4f933595aD33aBD94f817Bb95c78D20d5FfB9f2E"
      },
      {
        "passId": "225",
        "signer": "0x575490BCC36F1Fe5bb0B4cD3B6dFBe76c2e995c9"
      },
      {
        "passId": "226",
        "signer": "0xecAe4535EEb43D8DEbDbbF20487FE661A2dfb08d"
      },
      {
        "passId": "227",
        "signer": "0x86224608Cd350088E5eaa5Adb36eccac4f18525a"
      },
      {
        "passId": "228",
        "signer": "0xd57A840549DFb72E697206b168a9cd49FD96720D"
      },
      {
        "passId": "229",
        "signer": "0x1b546Dfc1c14Bc9bA3465Ecc3F8Be398fDEAb890"
      },
      {
        "passId": "230",
        "signer": "0x2CF5ff9094C1042dF7019De99Fcdf99aeBC033a7"
      },
      {
        "passId": "231",
        "signer": "0xe59620dAD8d3fB1Cc3231A5A4D43c1C5DD864968"
      },
      {
        "passId": "232",
        "signer": "0x95Ad779A89FC67d4eADE4D4cc0770be2efda1077"
      },
      {
        "passId": "233",
        "signer": "0x5A5F9961880fA3b12dce04905c03b51Caff23dc4"
      },
      {
        "passId": "234",
        "signer": "0x762FDD1F89eA000628CAa679f4F66652f944F326"
      },
      {
        "passId": "235",
        "signer": "0x436183e5a7eAc11b61fE6B41E53DE7D25b4490aa"
      },
      {
        "passId": "236",
        "signer": "0x03D39999eb465bFBD0DFC8e610F4caF2d9A37d42"
      },
      {
        "passId": "237",
        "signer": "0x864bC4BB098035ac3E64b8A0473ce965B91e84c3"
      },
      {
        "passId": "238",
        "signer": "0x913d74B7ecddc1f17D6e441E4F4A34275c5566f9"
      },
      {
        "passId": "239",
        "signer": "0x5b6c052545a6b6bdCB5c3AB02cafE6824fEcD533"
      },
      {
        "passId": "240",
        "signer": "0xcD4ab981C4A4eBD4691Ebd8E113195D01F60BF2D"
      },
      {
        "passId": "241",
        "signer": "0x093B8d4bd6c016691CeA623baC967E782A478256"
      },
      {
        "passId": "242",
        "signer": "0x52dDB5ec55e6BF768d1312a7647579681eFfa904"
      },
      {
        "passId": "243",
        "signer": "0x7DdF0733F0B394C7cf4B0dE77112D3f81c34A537"
      },
      {
        "passId": "244",
        "signer": "0x9e13F442fAac262d8Dd4a86334b368B0fa363f19"
      },
      {
        "passId": "245",
        "signer": "0xB9198a9120cAd5424F721471Fc53b6D51dD6f42D"
      },
      {
        "passId": "246",
        "signer": "0x4fb19200eb10288CEf19aFeeB1C882c21B6CDa42"
      },
      {
        "passId": "247",
        "signer": "0xa3093c7c28d2FdAE9a9f0Bf87C0f90baBf80b56b"
      },
      {
        "passId": "248",
        "signer": "0x1eC6aF8a811CDB408494DcF95b2EEb79E2b8fd7f"
      },
      {
        "passId": "249",
        "signer": "0x65882FeEe44061401198C12E7946184a226C43Ea"
      },
      {
        "passId": "250",
        "signer": "0xe2AbDC5E7a73725933f409D3EB20f1BA7b021330"
      },
      {
        "passId": "251",
        "signer": "0x9c66b0e54494D7676C8EC1c9c8A1f853d5633913"
      },
      {
        "passId": "252",
        "signer": "0x751268Dda30FFDcBDa8ab35b1CFfA7c09359B8Db"
      },
      {
        "passId": "253",
        "signer": "0x09779eb0D4d4E2C680362a42Bb1888980eC597Cd"
      },
      {
        "passId": "254",
        "signer": "0xDbf103c0EB96bDd7C5126b6Eb9196034618223E7"
      },
      {
        "passId": "255",
        "signer": "0x565428d03E574c1E9B0A9e7864F16775a8Ed24d9"
      },
      {
        "passId": "256",
        "signer": "0xe838f2f2797111cda99ff6AD6CFE537cf6E1aB1C"
      },
      {
        "passId": "257",
        "signer": "0x090364a0ed3aCf815DB9ea35a8A2fd2DE46c0b4d"
      },
      {
        "passId": "258",
        "signer": "0x45EEFde08EC9770e58653C36275417663da2391f"
      },
      {
        "passId": "259",
        "signer": "0x4CDc72e69fE647681c81fec9faD5a301cFf338Fb"
      },
      {
        "passId": "260",
        "signer": "0xD69c8ED99Ad7B17f3082442d3056d0a23f837B0e"
      },
      {
        "passId": "261",
        "signer": "0x39f74515c51c2c08Ce61903C8B1d1F7f0EF7A259"
      },
      {
        "passId": "262",
        "signer": "0xE5E55C17F7b8078428B19dA59D94dEFB6FF20CD3"
      },
      {
        "passId": "263",
        "signer": "0xD9069272978944fD8D393be9CFbf5357b5A352A5"
      },
      {
        "passId": "264",
        "signer": "0xc6B3a15178C4ADE53F1807c445b9d8CDB7CEA53e"
      },
      {
        "passId": "265",
        "signer": "0x00eDcA84e7DD80aE3165407D8cA5d678e7dE4016"
      },
      {
        "passId": "266",
        "signer": "0xa9CD3E0DF74fa823904900E34D6853cD45EfaB9B"
      },
      {
        "passId": "267",
        "signer": "0x5ac36E35Cc86B33e4dCF7Aa6b40ACcFaFce10280"
      },
      {
        "passId": "268",
        "signer": "0x353DE2B18B7DAfb6B6B13E7C2c6C5cdfe738Dd08"
      },
      {
        "passId": "269",
        "signer": "0xC0FddB80e859699f2EbE6eb350f52A41c6DEcF2D"
      },
      {
        "passId": "270",
        "signer": "0x70F4b97bF5CceC55DfDe3CE119cC147C08BDbab5"
      },
      {
        "passId": "271",
        "signer": "0x06182FE8861fdc05027049dEb891542A4661601d"
      },
      {
        "passId": "272",
        "signer": "0xc6cf16dB4E01B7cE0D6f749cFe88452bC1e3d685"
      },
      {
        "passId": "273",
        "signer": "0x665c6616576CDF4Eb29751C11799e0e82B020803"
      },
      {
        "passId": "274",
        "signer": "0x96360f380d98c78B8f0139cC2461ef31638Da366"
      },
      {
        "passId": "275",
        "signer": "0xaceDa4CFc2013741a71b9F71b4418F3EADD86154"
      },
      {
        "passId": "276",
        "signer": "0x552ac651B76Fe49b55d8E93025259AD583204490"
      },
      {
        "passId": "277",
        "signer": "0x86b9B2Eac516311cebDd28f9D55edCbF045B6454"
      },
      {
        "passId": "278",
        "signer": "0x41E35c78E4005dFd9014bE5476Ec0e21425a7039"
      },
      {
        "passId": "279",
        "signer": "0x984D5A5Bb521B71226D64B7eD7272d1e873FdC57"
      },
      {
        "passId": "280",
        "signer": "0x32dBe4C088348e3bA88792D16E64FCbD93219192"
      },
      {
        "passId": "281",
        "signer": "0xdbE411f60D6f36441acbf06BD9086b1F27341c33"
      },
      {
        "passId": "282",
        "signer": "0xBF80D2acAB528Ac104B6B135088548f7d076a056"
      },
      {
        "passId": "283",
        "signer": "0x5Ec87Da1aef0cFC513123BA829EfD6a493B99f2a"
      },
      {
        "passId": "284",
        "signer": "0xAaC050568fA6F9D35C7317d1DC495c75466800A2"
      },
      {
        "passId": "285",
        "signer": "0xC93f6D3947Abd4ccA93fB759580D1A24Cd526a1C"
      },
      {
        "passId": "286",
        "signer": "0x96c5a9012551449d108E2dfece188F926957A6c8"
      },
      {
        "passId": "287",
        "signer": "0x124019f46eb4F111B9b737eEE7B5b0d020776d30"
      },
      {
        "passId": "288",
        "signer": "0xD3De0E6c75C13C4B9f6C44d98Dc86c4e44530598"
      },
      {
        "passId": "289",
        "signer": "0x100d0D8dAB92FCA87b0770E72Fc2A4D595F92639"
      },
      {
        "passId": "290",
        "signer": "0xaEf6C6052d0160D0032364Cdc9aB36Db2819E65D"
      },
      {
        "passId": "291",
        "signer": "0x43c425F2473Cb5237283908F8C4d4e275b0c1A88"
      },
      {
        "passId": "292",
        "signer": "0x6372c3839ca41B1ce860342cCA03E53b609269cb"
      },
      {
        "passId": "293",
        "signer": "0x8356517f8E0ec67926E08172f62076Da370E16e8"
      },
      {
        "passId": "294",
        "signer": "0x79C684f9600837fb631a5F3BC76234E9faEfE9b8"
      },
      {
        "passId": "295",
        "signer": "0xb9129C7c656253157a7C8c92597C6290127fDd76"
      },
      {
        "passId": "296",
        "signer": "0x42765De5Ab5b7FB5fad54e60d2fCB83479009dCA"
      },
      {
        "passId": "297",
        "signer": "0xE813aa748Ac1F6AeB15C7c35c28989b3EE6e06F8"
      },
      {
        "passId": "298",
        "signer": "0x005dDa5A9b3A4bF1716658865D3Bd01f01E2278A"
      },
      {
        "passId": "299",
        "signer": "0xf7578644644Be7c8a153633Ac7d677Ab6AeEE5Cc"
      },
      {
        "passId": "300",
        "signer": "0xf72A5c7809363d87e6FdBBb3b17770185C289a03"
      },
      {
        "passId": "301",
        "signer": "0xFc36E9b18af0Ea7830a009460e67ee0c91B3cD31"
      },
      {
        "passId": "302",
        "signer": "0xdf2E9Ef4DDf37B7B0C92b6994BB7516149693bd8"
      },
      {
        "passId": "303",
        "signer": "0x0f39E4A03454c6883e17D2c28AB955606Ae64677"
      },
      {
        "passId": "304",
        "signer": "0x97C9f6A3d1b0DdF5a556835851129b48b1E2C1fA"
      },
      {
        "passId": "305",
        "signer": "0x5b7e93eba209f78c8125deD468aa4e42ba53a8D2"
      },
      {
        "passId": "306",
        "signer": "0x111e8b6a8EC422CA5598BEF3900D59C49fcd4406"
      },
      {
        "passId": "307",
        "signer": "0x63D7c02Fc207c6D874241d5B4e0FDb6c363793E0"
      },
      {
        "passId": "308",
        "signer": "0x1b8EeAB7cE47a27D6630B06bDA6eec5b49685A2B"
      },
      {
        "passId": "309",
        "signer": "0xAf2070784449Ccbc4dD4631f35dD4f00d1eC7c1B"
      },
      {
        "passId": "310",
        "signer": "0xC8247d569527CB849CDeB25eca3e6b5287352FB4"
      },
      {
        "passId": "311",
        "signer": "0xFF3aFF45e9EbF08Cc02fc7397F8B5a6c156f4EDF"
      },
      {
        "passId": "312",
        "signer": "0x60819A97d7E824dE56E35DB1B18ba6871f208C86"
      },
      {
        "passId": "313",
        "signer": "0x2eF15f14Cc0174Ed14Da02C4840CB04BF0fa2fDb"
      },
      {
        "passId": "314",
        "signer": "0x22bC9395e0CDA0534a2C57d91f1b42a0Ac80B27A"
      },
      {
        "passId": "315",
        "signer": "0x15A9C3B16B8CC747DdAD5fEe3E4044beFaB39392"
      },
      {
        "passId": "316",
        "signer": "0x1Af88e9Dd662250baECe82008868e5785d8c7Eb4"
      },
      {
        "passId": "317",
        "signer": "0x03AcB109b188e61D15D310AEf71dcD065FF4D817"
      },
      {
        "passId": "318",
        "signer": "0x57c964080e8922B29f88AddDbF62FbAAa8e7C9Ea"
      },
      {
        "passId": "319",
        "signer": "0x6658076d4f04Ec64c18c82A3A153169c2F5bbEde"
      },
      {
        "passId": "320",
        "signer": "0x8209427f5fdDbc0f9F4cAAeF3753A71952Bc503b"
      },
      {
        "passId": "321",
        "signer": "0xd9664010131C5cDE7b3b7d2752a09C21a0Da3D26"
      },
      {
        "passId": "322",
        "signer": "0x6841d903861155876fb4448e9520c3ac9776E9C4"
      },
      {
        "passId": "323",
        "signer": "0xd6A92090bC4c05F45aF292D30759727748DF6200"
      },
      {
        "passId": "324",
        "signer": "0x6B9a319aaFc9372dc0D6f05e677beca203174e3C"
      },
      {
        "passId": "325",
        "signer": "0x3cF1d0072Ff679b15C0EE6Bf9F46143cC8de1780"
      },
      {
        "passId": "326",
        "signer": "0x75890D04F0A1dEDD93eA7b6FF06a679348198A05"
      },
      {
        "passId": "327",
        "signer": "0x16Edd8a5Ea3269D177a6036C7A379608fE111618"
      },
      {
        "passId": "328",
        "signer": "0x5B236262430157f956Ed78FB07136057cbfcf17b"
      },
      {
        "passId": "329",
        "signer": "0x8cE3F4F0c019F7837dcBa5e7051bE4bb7c46AAE1"
      },
      {
        "passId": "330",
        "signer": "0x20f35eB7Fba102F351D063CF78763952C7dEB403"
      },
      {
        "passId": "331",
        "signer": "0x9Ca900370CC37c3C7c569CF92b8b2a6964F7B670"
      },
      {
        "passId": "332",
        "signer": "0x587b1F82Fbcd7F9aCdf4a31562DCe8944474F8B9"
      },
      {
        "passId": "333",
        "signer": "0x91e14ba9EdbaC8b07C9794E9F173338Fd2efE300"
      },
      {
        "passId": "334",
        "signer": "0xEBAe10FDc1C1a1856F6F85A25E23c207326b0c67"
      },
      {
        "passId": "335",
        "signer": "0x99000bC16413aFDc77a3b0C730763Cd4ad1FB894"
      },
      {
        "passId": "336",
        "signer": "0x23B94401cf85CEbA2ca36366A029E7388ca831C8"
      },
      {
        "passId": "337",
        "signer": "0x2559F6AC0ECbF724F7eceA3f98d3358224AC86Ed"
      },
      {
        "passId": "338",
        "signer": "0x20ff91B072Dc5fe4fD0451F432Fd86c1fdA2A2e0"
      },
      {
        "passId": "339",
        "signer": "0x51B7E561c536Aa5D98Bc2E58dD0A64E19AFBC8Ac"
      },
      {
        "passId": "340",
        "signer": "0x71a96f74463D0dfa87ec9424add240A1c1Dd7e10"
      },
      {
        "passId": "341",
        "signer": "0x47aB72085F3d2c237d37C6E4F9Af944213046F72"
      },
      {
        "passId": "342",
        "signer": "0x0260E90E7968EA7B2eEa5C03FDA79b5ea62d54b8"
      },
      {
        "passId": "343",
        "signer": "0x98Ba237115e26B83214DF8c304Da2EB76e2da0cF"
      },
      {
        "passId": "344",
        "signer": "0x9dEF62f74EEE534668FdE26CD56CD3271204646E"
      },
      {
        "passId": "345",
        "signer": "0x172af9bF20D5a3E286fD543E87D09A589b92EC4F"
      },
      {
        "passId": "346",
        "signer": "0x2bE627DE9a92AC1a97f6E05A96a7d711e7c1419D"
      },
      {
        "passId": "347",
        "signer": "0x91720420267EEc4E0359E395329d01c958a6d6Ad"
      },
      {
        "passId": "348",
        "signer": "0xFC6f228BbF3e2099eFDc60887F8bc9Ef83E859Cd"
      },
      {
        "passId": "349",
        "signer": "0x16d35ca2c7B3e363F68ED8DD0F212FF043a22eC7"
      },
      {
        "passId": "350",
        "signer": "0xE7A14F3b5231d1c72E516BCc1ed28E5cCc5af6CE"
      },
      {
        "passId": "351",
        "signer": "0xa42971e5533423904F9dD770b0DfF1033384EBf0"
      },
      {
        "passId": "352",
        "signer": "0x73968159c06f34d87206760aA8CDA584b1f76102"
      },
      {
        "passId": "353",
        "signer": "0x683aaC1749412ce465FA3DA4BEF6C6c41c91f162"
      },
      {
        "passId": "354",
        "signer": "0x0e0d563e42B4AA235D150ec4A3eDcC78DBeDb4cf"
      },
      {
        "passId": "355",
        "signer": "0xAe7760FCf4bF1293A87DBb53d32BDadf72F2d0f6"
      },
      {
        "passId": "356",
        "signer": "0xD76Fc1463a6dE5e1e0B4Ba4EA737b728e18B7097"
      },
      {
        "passId": "357",
        "signer": "0x257268CC334A991FA705884bAF3e31afa70b32F8"
      },
      {
        "passId": "358",
        "signer": "0x24754a0648DE27b94aB7f366d3c4F8f6ee070677"
      },
      {
        "passId": "359",
        "signer": "0x48989F83303762B0858BB91b6d0109653B6d7586"
      },
      {
        "passId": "360",
        "signer": "0xBB865a712692C25f616A8084172945901D6BdE3B"
      },
      {
        "passId": "361",
        "signer": "0xEEDaCFd7D52ED419a1B474FF4Efd7dcE54Cb87a7"
      },
      {
        "passId": "362",
        "signer": "0x2a8c80ea598EF4b94F0282BC9701523B449af8C5"
      },
      {
        "passId": "363",
        "signer": "0xEF91578abcb0Ea810d793d94a966be713375eE15"
      },
      {
        "passId": "364",
        "signer": "0x163a287A9F07E31fe845F12931630538f989CA7B"
      },
      {
        "passId": "365",
        "signer": "0x08b7277BF9Aa4d6FA2093Ae051126e09E1177840"
      },
      {
        "passId": "366",
        "signer": "0x2F37509001e2c7042B932be089Aee190ea7a15a9"
      },
      {
        "passId": "367",
        "signer": "0x95283Bb55abd0576b5c185bF8C5215ee3657EC25"
      },
      {
        "passId": "368",
        "signer": "0x56C9D772f87fb8fc6B660B7D14884A01f0aeF33A"
      },
      {
        "passId": "369",
        "signer": "0x0FF49a2Ae978A7F4B86681df039C4F3a0EAa807b"
      },
      {
        "passId": "370",
        "signer": "0xe54650E57626762386dDaDD4227f4b458F1ea496"
      },
      {
        "passId": "371",
        "signer": "0xb9A6c3c02E4E87CbC315020a4543cF470cCBB922"
      },
      {
        "passId": "372",
        "signer": "0x541D24786261c4dcd7b9A13575eA9D7e87aDbfA2"
      },
      {
        "passId": "373",
        "signer": "0x8cA294CFEe41AD2563ab3f34fc0c09c4CFf8212E"
      },
      {
        "passId": "374",
        "signer": "0x78Dc6E30f53bA9772E52028a03E098825D7Dc6E0"
      },
      {
        "passId": "375",
        "signer": "0x1c6C4042eE4CcE36eB5d267b2b874CbcdB8c8324"
      },
      {
        "passId": "376",
        "signer": "0x0cfC6e93F041074CAF397F927576a0ec150c7f08"
      },
      {
        "passId": "377",
        "signer": "0x0d534adc803AB4B453E10dee0332724C6e1B293A"
      },
      {
        "passId": "378",
        "signer": "0xBd06Cd45DC69A5cb83FC5C3D8931577Eb6EBF93C"
      },
      {
        "passId": "379",
        "signer": "0xa30556ff1629aEFE9B2C7Df14Fb6B0151F035b47"
      },
      {
        "passId": "380",
        "signer": "0x9E018215e95A1F7003Fd6dE966e1057ea0d45185"
      },
      {
        "passId": "381",
        "signer": "0xd802670fCda81c8cfa795E3D23258517B5cDf266"
      },
      {
        "passId": "382",
        "signer": "0x5F1DC8c9Aa91dD8f7Db6857C6f482f51Df0E0cB0"
      },
      {
        "passId": "383",
        "signer": "0x10C987dA5a7D8dD8B1c74b9eC7DBEf2Be0FeA50D"
      },
      {
        "passId": "384",
        "signer": "0xb3f871dea780Db356366e2BFC906b407Ce79b687"
      },
      {
        "passId": "385",
        "signer": "0xD822c0f5f2Aa5a5566752169adCfb3B52Fb60d75"
      },
      {
        "passId": "386",
        "signer": "0x998122bAB01B3d8DAAf5070CF7dEcBeFd8C36090"
      },
      {
        "passId": "387",
        "signer": "0xf96385c77f7D06d02bd0d928cdF1a24002459Edf"
      },
      {
        "passId": "388",
        "signer": "0x9ADc7aC63c0ab6eDBB8C076054077c5c7ED691f3"
      },
      {
        "passId": "389",
        "signer": "0x4FAf6Fc87617E5AaecE8DF6615C8B01Dc199f97b"
      },
      {
        "passId": "390",
        "signer": "0x6Bab2EaDD389430d9AB477d9543856D71878b454"
      },
      {
        "passId": "391",
        "signer": "0xc291cFB3d8dF4501854E186D940785a70a1146FC"
      },
      {
        "passId": "392",
        "signer": "0x36Fa5fd4208CceEFE7Dd65eC6f0Ab1De601856F1"
      },
      {
        "passId": "393",
        "signer": "0x6102f9691531cff241F06A34c8ea05BD67009A90"
      },
      {
        "passId": "394",
        "signer": "0x10d4c6F6FfaE22eb4ea0D855e251d28e0FC19B7B"
      },
      {
        "passId": "395",
        "signer": "0x12b767F86ca1C65B0EF7c3ce9C6cF6D4832ca42F"
      },
      {
        "passId": "396",
        "signer": "0x8731A078775b1efEFF0565a172b5eDb873DFeBA6"
      },
      {
        "passId": "397",
        "signer": "0x31b601659d9199EAe1A7A0c91F67D7228b1f0295"
      },
      {
        "passId": "398",
        "signer": "0xD2313a0998Fb7438C25A72AF162bD7221C16FE77"
      },
      {
        "passId": "399",
        "signer": "0x351c5302EBEEF4A10742Ef72Dd98E3113A106Db0"
      },
      {
        "passId": "400",
        "signer": "0x27836cfc9dDD77dbc61f3aC3a87E996271994Fe9"
      },
      {
        "passId": "401",
        "signer": "0x1Ce7f21011054A2166dD2DB655A272FBC93A54ac"
      },
      {
        "passId": "402",
        "signer": "0x178A677B0D2781fEca8d966eA58e3291c64F26B3"
      },
      {
        "passId": "403",
        "signer": "0x7dE2276B97D1A6ccd76b11141D2e8688444DF420"
      },
      {
        "passId": "404",
        "signer": "0x1691F6995f0108B06c004A4Efc7342cd6f7bf0D3"
      },
      {
        "passId": "405",
        "signer": "0xa0dAB8a37db9Ff70A9220516412E5f56042ecbb3"
      },
      {
        "passId": "406",
        "signer": "0x05bea409214AF3cf7007FEe72441C2131184FF7d"
      },
      {
        "passId": "407",
        "signer": "0x07000DB4Fc1C51f97A74477eeCb0b9Cf54548C8F"
      },
      {
        "passId": "408",
        "signer": "0xef6faaf48c97b677061DAe6CC3D5474BEcA2D084"
      },
      {
        "passId": "409",
        "signer": "0xC5b095CE05b7A11f12d5D4c71798A25fAd676D61"
      },
      {
        "passId": "410",
        "signer": "0x1A6c09f5360730BEF469d97AA509CCb039AcED6D"
      },
      {
        "passId": "411",
        "signer": "0x0BEe2B19d785f182500a393C87885cE6e994B92a"
      },
      {
        "passId": "412",
        "signer": "0x5ca6f816F617A597171196f8F2EDaf5dAFa80DA7"
      },
      {
        "passId": "413",
        "signer": "0x8f1f5382789e8Fb67a3C1194d9b5d0b046663bc1"
      },
      {
        "passId": "414",
        "signer": "0x85502119E7EDc6A11e03dF994A4d9972391F8838"
      },
      {
        "passId": "415",
        "signer": "0x516d8751ecF706FE694E9847697f725e9b9334a1"
      },
      {
        "passId": "416",
        "signer": "0x0f4d40e55B93D828f2539C00497F1bD0FD1ecE19"
      },
      {
        "passId": "417",
        "signer": "0xbAd2239fb52D7dFB56aCDB471E15C236752c865a"
      },
      {
        "passId": "418",
        "signer": "0x938C0D8326f8E9B0759C2D0BdCCc976262D46d6e"
      },
      {
        "passId": "419",
        "signer": "0x15dc8cf868a4347C02AD6488B48851Fe741a0Bf6"
      },
      {
        "passId": "420",
        "signer": "0x289b38820Db4055Ea3Be22214BaC29C4BB56E338"
      },
      {
        "passId": "421",
        "signer": "0x84FFBBDCf4D0450294E222768e5634e8E30587b1"
      },
      {
        "passId": "422",
        "signer": "0xDCdaAEfc2aCB23C822032e0f3Cb342F83BcAaC69"
      },
      {
        "passId": "423",
        "signer": "0x518c0697563E18D6A411192De1d1aa44D9caB330"
      },
      {
        "passId": "424",
        "signer": "0x761353C5Ce09f64cd0a6124C2f8C3CCa1Dec50b9"
      },
      {
        "passId": "425",
        "signer": "0xaB57fA3125b2141775792dfb87Cd903025dc2Eac"
      },
      {
        "passId": "426",
        "signer": "0x0394b38BE8abA91c143D6Fb5044cE6ed0b93f630"
      },
      {
        "passId": "427",
        "signer": "0x3D42Eb24AeCe8375fa5Ddf6AC0b4A46eB681dEC4"
      },
      {
        "passId": "428",
        "signer": "0x35fA2FD8E75DAB230ccc67629A2893bc7B519499"
      },
      {
        "passId": "429",
        "signer": "0x0783d73aa82826542b9B89D73A49cdb454cbEA2a"
      },
      {
        "passId": "430",
        "signer": "0x28EcC3dB162A4216d8097A5104EB37Ab69f93589"
      },
      {
        "passId": "431",
        "signer": "0x77A45342eA6673D9F13fF11B071DB0232d0f8d3f"
      },
      {
        "passId": "432",
        "signer": "0x936EB80821A1C2A86122081F2381D6db49688EFe"
      },
      {
        "passId": "433",
        "signer": "0xC96Efef05474383055C0c973313A600f37cd27b9"
      },
      {
        "passId": "434",
        "signer": "0xC2Ded4DdB0b5A82a00D1d64134C067aD0535d16a"
      },
      {
        "passId": "435",
        "signer": "0x861Fd9fa502BA71b3C8aDBdA81519ddDAff16d0C"
      },
      {
        "passId": "436",
        "signer": "0x29eAa307Af00d56eCda8B356691DFA77B2A0ef63"
      },
      {
        "passId": "437",
        "signer": "0x2f03f3affb9e3B156805e3E03C5CB95035F2bC78"
      },
      {
        "passId": "438",
        "signer": "0x591790508c0248e2F0c23caB35F9f085Ed01f63d"
      },
      {
        "passId": "439",
        "signer": "0x4A6feD8C95E810b0dc1bA3F9DEA5413F711F4AFA"
      },
      {
        "passId": "440",
        "signer": "0xD81415Cfe1640EEb30fb538172778924275A2596"
      },
      {
        "passId": "441",
        "signer": "0x8d97825f3C00EcCaf8FeBD1B1196bFDA929fd81e"
      },
      {
        "passId": "442",
        "signer": "0xDf2674d168bE7F624d18fcBb0DFdb1f8b122F14f"
      },
      {
        "passId": "443",
        "signer": "0xa4F170C4b39178Bef8C929C68E70b720039dbABd"
      },
      {
        "passId": "444",
        "signer": "0xc3858dcfEFcc8bDe8c9407f783F5278f4203c62E"
      },
      {
        "passId": "445",
        "signer": "0x85ab73d0c385a6C1e088BA3d0aCC1595625ADA32"
      },
      {
        "passId": "446",
        "signer": "0xcf371E660d6cE346E24A83eB95E3cc76d137aaDb"
      },
      {
        "passId": "447",
        "signer": "0xD5dB5A93E3953C0a970235Fe5dD9C6Dfae2F3272"
      },
      {
        "passId": "448",
        "signer": "0x17d3F2eE701Da6Fb89F0A76c62fAa9c1c36D92A4"
      },
      {
        "passId": "449",
        "signer": "0x4BC151F3A467a562B87C36b36E7C546D4A30E878"
      },
      {
        "passId": "450",
        "signer": "0x0cF896ea3E863f2bDCb8eB62c954626Bd31A62EF"
      },
      {
        "passId": "451",
        "signer": "0x3b4f610Ce6527DF87ce6041b32921B273BFe5D63"
      },
      {
        "passId": "452",
        "signer": "0xF176c5DFD70c2F00843936009BbAf1AA3CB79bAf"
      },
      {
        "passId": "453",
        "signer": "0x4400AbAe52Dc4BdbC4fe261c76cC7ee7F7e294Af"
      },
      {
        "passId": "454",
        "signer": "0xf13AE4E07f8b52F67A393d660E5Be6AA0e4C9c69"
      },
      {
        "passId": "455",
        "signer": "0xB6cde06B52aF59043417bc0a1032C4315AF7a468"
      },
      {
        "passId": "456",
        "signer": "0x511756d965bda079b64C69f550e859E443324891"
      },
      {
        "passId": "457",
        "signer": "0xfF7ddDED88D3217bc35D91e2eA349fBDB1b75e96"
      },
      {
        "passId": "458",
        "signer": "0x6e7D5eF8E207Bf284A0908C5718049C1cE5F1665"
      },
      {
        "passId": "459",
        "signer": "0xd0328d4ED772D144D2E7cf361A584Ca4fB3591fb"
      },
      {
        "passId": "460",
        "signer": "0xf4cEE706D3C9bF7a5957FAc526F408D9A6269273"
      },
      {
        "passId": "461",
        "signer": "0x860429F1E51CbdFd3eB4B5115C1f7FfD3c3c9e3a"
      },
      {
        "passId": "462",
        "signer": "0x4f2F20eAF103aBAbDB7D977F664F8142dCA7c406"
      },
      {
        "passId": "463",
        "signer": "0xDc2a4f1411863Ee1c3e3F28C00F771061598A419"
      },
      {
        "passId": "464",
        "signer": "0xFad86260FCBEa025490553478181673659c12F99"
      },
      {
        "passId": "465",
        "signer": "0x99196B0a64A40Fa07a5D2D34a8C1035a0029abd8"
      },
      {
        "passId": "466",
        "signer": "0x4E99b38CE29055757D61487F8d09258723334EfC"
      },
      {
        "passId": "467",
        "signer": "0x49B98e07464044A65d758ABD602B099C3DFEAc9f"
      },
      {
        "passId": "468",
        "signer": "0xAEE91f619a2A2b86C3b255Ef47bbB478be51873F"
      },
      {
        "passId": "469",
        "signer": "0xF08ffD9285947bD2C9C60Eb88F3000209e0cD78F"
      },
      {
        "passId": "470",
        "signer": "0xb5823736F2a78B93205414b682000384C31c33aa"
      },
      {
        "passId": "471",
        "signer": "0x4BFF3412e51f684a75fbf3665dc5AB4da6E390fe"
      },
      {
        "passId": "472",
        "signer": "0x08531Cd32961544C403c0A6aC6F20f00fC38707f"
      },
      {
        "passId": "473",
        "signer": "0xCF66f3ec51CFD38bCA6883eE9E0A762df5069307"
      },
      {
        "passId": "474",
        "signer": "0x17E7986A31cA72fF0A9409e49909f660160Dd989"
      },
      {
        "passId": "475",
        "signer": "0x96b068b75304eE025c12d6152E4cb98dD6A03DBD"
      },
      {
        "passId": "476",
        "signer": "0x6fcb754662a2C64b56C01B66903c921F50Fd3b76"
      },
      {
        "passId": "477",
        "signer": "0x36A68Bb0A1D0141B14dAA8ed8733FFc692CE23e7"
      },
      {
        "passId": "478",
        "signer": "0xDE9960eEd2d68283C28f3C6B991bE76AE483739a"
      },
      {
        "passId": "479",
        "signer": "0x9b3D73ebb4B5a262122e8FE927D0493D58F66431"
      },
      {
        "passId": "480",
        "signer": "0x1C10882b7b077844d0fD87cA00C3a0E0CC13664E"
      },
      {
        "passId": "481",
        "signer": "0xC046D98fBceb71399fa56fa4f457474cE5cA6CA2"
      },
      {
        "passId": "482",
        "signer": "0x1Ef00c3f08612b08880BFb3B9798797b35426A87"
      },
      {
        "passId": "483",
        "signer": "0x99E9477F12b0762734CE62138af93ea3138266Ca"
      },
      {
        "passId": "484",
        "signer": "0x37A821462f49FcF48e1e95450D1b28a44474c43b"
      },
      {
        "passId": "485",
        "signer": "0x4Fd00BC71D4EEBd04C51497540a403532fDF7927"
      },
      {
        "passId": "486",
        "signer": "0xe175B6e426EAd754788a2f3c349C4D732f1621De"
      },
      {
        "passId": "487",
        "signer": "0x6765f9DD5F4b897Bd23A50c585c719c1313CaaF9"
      },
      {
        "passId": "488",
        "signer": "0x11E3E9c3835130D46542DAdBBf895e60284bE4b7"
      },
      {
        "passId": "489",
        "signer": "0xAbb69c394BCf7e8f00Fc7B6eF32E876d04b1ca65"
      },
      {
        "passId": "490",
        "signer": "0x04BA958040Cf98A0B01686145e4D462bc74cb44a"
      },
      {
        "passId": "491",
        "signer": "0xA53766a1ae1B800D617D5F72F17bF11d646FCcF4"
      },
      {
        "passId": "492",
        "signer": "0x4eA9e9614675212bF3944b685C0fDB06CC195b6A"
      },
      {
        "passId": "493",
        "signer": "0x194A909c1c2839E6A88d8496263ec6F6140Efc19"
      },
      {
        "passId": "494",
        "signer": "0xb45234bD30C8A4E805F9650dDFA5B6e5B9C50c33"
      },
      {
        "passId": "495",
        "signer": "0xB81B2Cb92E95Fe0B83E091636A4fb4860356412e"
      },
      {
        "passId": "496",
        "signer": "0x995b6a877b46601c40DE8703dFb349c7C45A1049"
      },
      {
        "passId": "497",
        "signer": "0xa18BdC8263C88501b5bf2C709d5bDB33D6b7Aa25"
      },
      {
        "passId": "498",
        "signer": "0x2839Ada2C55d5C9057EBe8c47eB5d3C8cf4ab42C"
      },
      {
        "passId": "499",
        "signer": "0x5e44B43C8E48b50C44CBac3EE935f3c1c5D50131"
      },
      {
        "passId": "500",
        "signer": "0x8d0D03F073aE9277Efc9E628025A63B8Ef156f91"
      },
      {
        "passId": "501",
        "signer": "0xd248f8Be596df86e54AEdd234ad3E1477aef5F73"
      },
      {
        "passId": "502",
        "signer": "0x5284d1Bf292f894D815C5384A514AD2a10556Fb7"
      },
      {
        "passId": "503",
        "signer": "0x2537447C0bb55DF75dA18c2519AbB1f330af05EC"
      },
      {
        "passId": "504",
        "signer": "0xF11b67BBB96d30649E780fB7DAeDBd2c9d69Cf10"
      },
      {
        "passId": "505",
        "signer": "0xE0398d56f282c9deDF8FA8d4070d241A943Da9B8"
      },
      {
        "passId": "506",
        "signer": "0xf68fBD61B829d64B31a7799eDF1Db21B9D7ae8BB"
      },
      {
        "passId": "507",
        "signer": "0x8995C82144C0F414417612982AC2dAe40ddc583c"
      },
      {
        "passId": "508",
        "signer": "0xe713951857D70c2305c616246Aa088bA6485d36A"
      },
      {
        "passId": "509",
        "signer": "0x8a97aA537adF71706255e17fFBF3aCF04A8CE7DB"
      },
      {
        "passId": "510",
        "signer": "0xCCBba9Ba0367116a128316394A264974C9E81fdC"
      },
      {
        "passId": "511",
        "signer": "0x2B22D09D19Bb6529f0A8A6cE7F23a10a28e10514"
      },
      {
        "passId": "512",
        "signer": "0x830BfCb282965beBa72970c815BA9E4CEC4Fd160"
      },
      {
        "passId": "513",
        "signer": "0x63662e607024f43f63A00fe3A73c44e26DB78829"
      },
      {
        "passId": "514",
        "signer": "0xa858874Ba528104cF25513cbD27c64549Fb47689"
      },
      {
        "passId": "515",
        "signer": "0xCBD07BAf71E5d49E6BF9fc6ac7C63Df370FaE83B"
      },
      {
        "passId": "516",
        "signer": "0x7c175DcC5Efa4D76972f3F692869596eA7a1A92C"
      },
      {
        "passId": "517",
        "signer": "0xbdf52e616A145533EC4630930B7d5237Ef7Da0e2"
      },
      {
        "passId": "518",
        "signer": "0x99fD79Af89155A88e60935D23f24f212eF679f01"
      },
      {
        "passId": "519",
        "signer": "0x331f4985De7DC0512632C6B4A9971d1995C4320e"
      },
      {
        "passId": "520",
        "signer": "0xC707f26D7cB39B072F139FC429a743a74C4A1355"
      },
      {
        "passId": "521",
        "signer": "0x25e109262e9AAbfEA9d4701142C5454b9Ef48117"
      },
      {
        "passId": "522",
        "signer": "0x5402DFb0ABF66D91868Daaa295649EFc1bc36e69"
      },
      {
        "passId": "523",
        "signer": "0xB34773B5536fA58367800130fe22314862Be2d7d"
      },
      {
        "passId": "524",
        "signer": "0x9802129a7FC85eed26B117C275B03D74eeD84B8D"
      },
      {
        "passId": "525",
        "signer": "0xa1F7EBfe9a362D7F86E7772A62f7f5a5fFa9e58a"
      },
      {
        "passId": "526",
        "signer": "0xD42CBf8F39Bc22c1EEbc3571E3F3051e5Ac2930e"
      },
      {
        "passId": "527",
        "signer": "0xdaD7980D3E70c3e289bfcc00ea938Bd3CEcbBE93"
      },
      {
        "passId": "528",
        "signer": "0xbe92B6ad03b95A2062484a598a81A3929e73275B"
      },
      {
        "passId": "529",
        "signer": "0xeDbb8fB2B7f5d9b21F7652e6BC25CACC63Fa5cE3"
      },
      {
        "passId": "530",
        "signer": "0x84b43072887534BC0AF973927395805FCb73B0B8"
      },
      {
        "passId": "531",
        "signer": "0x44F6edbd82558ef32CE8e6E4999e3e9deB5451d9"
      },
      {
        "passId": "532",
        "signer": "0x5C7Fb4C4eD2D611C655dc4D458E6Ac69593580Fa"
      },
      {
        "passId": "533",
        "signer": "0x175b69Dc38e36af089c128769CAfb986F588D6Fb"
      },
      {
        "passId": "534",
        "signer": "0xBe409a2CaC88216b133797834a35E9F6A77305bC"
      },
      {
        "passId": "535",
        "signer": "0x285B4db2d948226FC997C6a79978BAe9EcffAC3c"
      },
      {
        "passId": "536",
        "signer": "0x831b9d998242228AE34e4Bf87d5663fe3F1a875b"
      },
      {
        "passId": "537",
        "signer": "0x7D14038Afec4422f4501D3DAB71801cA04C78c8E"
      },
      {
        "passId": "538",
        "signer": "0x67B43e5eDBDAe96ce15e9cae6AEC77b8D90e1c77"
      },
      {
        "passId": "539",
        "signer": "0x0B2239eBc2B8e1c6F3F6f42C1A152Bdb7CA443DB"
      },
      {
        "passId": "540",
        "signer": "0xbAF4f89595879dCDc2E768Fc885a32aa5eA253Be"
      },
      {
        "passId": "541",
        "signer": "0xbeB3b5Ef2d9cD9c0f680017F817E67C9c2284b90"
      },
      {
        "passId": "542",
        "signer": "0x49375A323eb13644b7F347f2b26d72FB1E200586"
      },
      {
        "passId": "543",
        "signer": "0xF90E0E88286d8608f05c84c7a494D240C961C02d"
      },
      {
        "passId": "544",
        "signer": "0xA58F90189aA9aBEB94D3EAa1855671bdD04dbaA2"
      },
      {
        "passId": "545",
        "signer": "0x8bfC9AA579Dd8045Ad79a0d0f599BD9036Cb5Cfd"
      },
      {
        "passId": "546",
        "signer": "0xaA5533cF4A488b5e0C2bD25A2aeFd7f07C9F55e7"
      },
      {
        "passId": "547",
        "signer": "0x1815A2136E8c3B315a47817A68d4B1eF84Aa31Ef"
      },
      {
        "passId": "548",
        "signer": "0x0Fc7826906081eBbbfF4c9B54c2646ed1539f776"
      },
      {
        "passId": "549",
        "signer": "0xa9E8A61A3d76f0A1B676eEA88DEcA1b62B784e35"
      },
      {
        "passId": "550",
        "signer": "0xCF9650ceE9e65F69411bDE3c699A8ec2EF688Ec1"
      },
      {
        "passId": "551",
        "signer": "0x876bA971aFE2327688AF9a9aB836E8b9DBda1A36"
      },
      {
        "passId": "552",
        "signer": "0x3ed1172F26367A8d560150D4F5dff35b45CDad36"
      },
      {
        "passId": "553",
        "signer": "0x96472f47f81C0208A99984b64EF1D686FC03Adb6"
      },
      {
        "passId": "554",
        "signer": "0xe2cd3a7ABa4e0210EE4De80F34f2dDccDA0f46Fa"
      },
      {
        "passId": "555",
        "signer": "0x940D6A045eBF71e27822435bEA833903f29f8dEF"
      },
      {
        "passId": "556",
        "signer": "0x9B197B9DE0eB7aC660841a27a728bf82CCf853F8"
      },
      {
        "passId": "557",
        "signer": "0xe3E8A9B5470274f079F500225e256d7Ba994887D"
      },
      {
        "passId": "558",
        "signer": "0x001F6F7672aE83100523358dCc40548A70856bce"
      },
      {
        "passId": "559",
        "signer": "0x320d98d27Fd7b3757ac6AcA8BD7B495694946ED5"
      },
      {
        "passId": "560",
        "signer": "0x700e88bEe999e17B174271dd562D4c9D405cC96f"
      },
      {
        "passId": "561",
        "signer": "0xb7b403d803F51783077fA2A9B60E8d27BBb30048"
      },
      {
        "passId": "562",
        "signer": "0xd8330e3B83ee694b48003c87BB1E20AC41d4d759"
      },
      {
        "passId": "563",
        "signer": "0xB525463407FA89fE95208a59D0adAAbf46DaDa9b"
      },
      {
        "passId": "564",
        "signer": "0x4014C89f2D0a78c5bB780cc735fF6C64a8A78179"
      },
      {
        "passId": "565",
        "signer": "0x3b2D55C101035810534549639d90CDd3D639d97c"
      },
      {
        "passId": "566",
        "signer": "0x727036A2098cab07d646AC27c6329D0B647e66f2"
      },
      {
        "passId": "567",
        "signer": "0x5656B0F263F69b10Fd45eE5b0573bed30E20d6fE"
      },
      {
        "passId": "568",
        "signer": "0x225056BBC715FCb3F732455C760C13d7E09A0E0A"
      },
      {
        "passId": "569",
        "signer": "0xDaE49960dF18BDa1A46Ae007b1C4Ba070C9a4AfD"
      },
      {
        "passId": "570",
        "signer": "0x450Ddf9d83D62Ff74057f8acbAfC42545ce88032"
      },
      {
        "passId": "571",
        "signer": "0x5fc6C3CaF3c9E3C8820fC1C51d99d65eA464C3cB"
      },
      {
        "passId": "572",
        "signer": "0xc799629D8FFfA92f949082d620a668EA46120826"
      },
      {
        "passId": "573",
        "signer": "0xC80045c13b9Ae4EC7f0023Ee468aA142806Dc30B"
      },
      {
        "passId": "574",
        "signer": "0x51780E4AB05Abe7ca4D7D43B04e6966a70105b17"
      },
      {
        "passId": "575",
        "signer": "0xb0a173842Cb36C4ab52347e9Ec23b96E56414A72"
      },
      {
        "passId": "576",
        "signer": "0xDF61B1183a1BeE8a192739f6Cc91d51165667991"
      },
      {
        "passId": "577",
        "signer": "0xc5f938FD44d68F4578f390CDF11823fBfDB3bAD3"
      },
      {
        "passId": "578",
        "signer": "0x7FD96D2fcC2528Bf685400651C9182fDf05b7Abd"
      },
      {
        "passId": "579",
        "signer": "0xA80126f9aa0d4dEEA3c4Ad560a0EB0898cf188c9"
      },
      {
        "passId": "580",
        "signer": "0x729f193BCE9EA9bc73fE770e81BB3a520D22C45A"
      },
      {
        "passId": "581",
        "signer": "0xa516cB5E5c033a2A6bADC9f02f57c10CA1C726D9"
      },
      {
        "passId": "582",
        "signer": "0x03082CD5Bd6F810534a9425A8CD83d7899B42Fa6"
      },
      {
        "passId": "583",
        "signer": "0x74C5C5a7199F8E4B0fb7BF076EbF9f9FeC3935E6"
      },
      {
        "passId": "584",
        "signer": "0x2b38b2a489Cfd221B0d9c8E92F2156f0559393e8"
      },
      {
        "passId": "585",
        "signer": "0xd000fc48A68455d69a3Dbf2E4E06C3F220D03055"
      },
      {
        "passId": "586",
        "signer": "0x7E3b91E4c9c06124BDD0E89Bb7edc97f83Ca81B8"
      },
      {
        "passId": "587",
        "signer": "0x164286C647008ae3Fd150E953BFB819b00d8Bfd1"
      },
      {
        "passId": "588",
        "signer": "0xEeC73CF7D012Ebd9F89d7c5acE168EbE00E3477a"
      },
      {
        "passId": "589",
        "signer": "0xc87C497658087D0422edEd14e640185f73D91006"
      },
      {
        "passId": "590",
        "signer": "0x8D4ebCD35c3fB49d5283D8D5cb92075287b2Bf99"
      },
      {
        "passId": "591",
        "signer": "0xB2bf7F92a7B15Df89a03F424AA7B0a0c59f23F6a"
      },
      {
        "passId": "592",
        "signer": "0x89Ddabc22F4f93F40AA8e1f2A41B6b1015D025dc"
      },
      {
        "passId": "593",
        "signer": "0x430E331D0eF91754D99b26594e89cA0405492264"
      },
      {
        "passId": "594",
        "signer": "0xa935f2dA2d1DddA8d48Cc6C07374AA4836BD5Ef5"
      },
      {
        "passId": "595",
        "signer": "0x0Ec9eEbA51357C7F2eDf76825B64407e6A48bc38"
      },
      {
        "passId": "596",
        "signer": "0x0ca5AF7D764F0171a1A9928FA7fBd997Ee47b2bF"
      },
      {
        "passId": "597",
        "signer": "0x33621565F14460dF02d8A54770D78e0eb62f9f4D"
      },
      {
        "passId": "598",
        "signer": "0x0c497a9C4f21c0e189bA78Ea6eDd6e3dF04bd12b"
      },
      {
        "passId": "599",
        "signer": "0x54C51222BC3D58AbeF4189491FD87b962291FC14"
      },
      {
        "passId": "600",
        "signer": "0x3f3131Ef9eC197a428c1f1D88Eb370e183E79d59"
      },
      {
        "passId": "601",
        "signer": "0x9ad8dD754F31c470735534775fEA290956B1404c"
      },
      {
        "passId": "602",
        "signer": "0xCDB6ecBe76573B756e72DEeC313c67E24527306a"
      },
      {
        "passId": "603",
        "signer": "0xCedA1eA35A05A36a0aF57320EFC4127359B6aed6"
      },
      {
        "passId": "604",
        "signer": "0xf18F6CCdBfF0c64CAfd0E8a0d2ADc930Da2A4C6E"
      },
      {
        "passId": "605",
        "signer": "0x15d6Ea4A372E93D5eFc3B192aA7cE927eB4f3E50"
      },
      {
        "passId": "606",
        "signer": "0xD14B83BB370529Ca147259579296B3Ba466ED842"
      },
      {
        "passId": "607",
        "signer": "0xc65106a079562893163787499BDC30FC9627ec0C"
      },
      {
        "passId": "608",
        "signer": "0x75ef079474d8d603b6a336bD90d2d0Cc1A818564"
      },
      {
        "passId": "609",
        "signer": "0xBB123781288ecc8417B7756bF7f6B9E2F1cBF9Ca"
      },
      {
        "passId": "610",
        "signer": "0xca25B776bBeb0dDe9239B7C3511D168F37f1b832"
      },
      {
        "passId": "611",
        "signer": "0x39B1BeFf84b60d844f6d6db1A494B684801E0105"
      },
      {
        "passId": "612",
        "signer": "0x7b4A53a86D81B005BA4bfd5B47269A156f6824BC"
      },
      {
        "passId": "613",
        "signer": "0xC398De62012cb74e80607546Aa09c2AFb09f5e16"
      },
      {
        "passId": "614",
        "signer": "0xf709698F476f06FB26933B5d794FeDA2B8fcFf8A"
      },
      {
        "passId": "615",
        "signer": "0x280054107455140fEE3da46ffF41f2d4D00F5ea9"
      },
      {
        "passId": "616",
        "signer": "0xeE593aFdF1d0eeCe67502717f89712f2F65Feb67"
      },
      {
        "passId": "617",
        "signer": "0x5e4cec556b852002643d2dE060FFD0A698Dd56C6"
      },
      {
        "passId": "618",
        "signer": "0x52a367F7f29Fbd81DA688D1792D1cC57B32D487d"
      },
      {
        "passId": "619",
        "signer": "0x10435bD8f0B6A431AF7F20C7A0b1969f92291b64"
      },
      {
        "passId": "620",
        "signer": "0xE07896d0f351da71EA042B867663d833CF839CA9"
      },
      {
        "passId": "621",
        "signer": "0x83db92D181C2f2c85Fabf24B9CEC06f30d615cF2"
      },
      {
        "passId": "622",
        "signer": "0x7482d5a09Ec151740F6cA8707f60e7180913cCAb"
      },
      {
        "passId": "623",
        "signer": "0x367dd80DD0f954AC7B006009ab273dE13ceE6744"
      },
      {
        "passId": "624",
        "signer": "0x7c15FBBac3c88E8d9771AC71Ae0827e1110a15CA"
      },
      {
        "passId": "625",
        "signer": "0x8224B66f275D4d370C2Eeb44bc14b39AE1aABBde"
      },
      {
        "passId": "626",
        "signer": "0x2c6f464f187B8BbB821d8c67022fBF7876b251C8"
      },
      {
        "passId": "627",
        "signer": "0x81415745e6b61A4D8ffe67302c861C66c1762062"
      },
      {
        "passId": "628",
        "signer": "0xec2BDa07BAd710E3DcC32ae93D622Fa8B6526E52"
      },
      {
        "passId": "629",
        "signer": "0xD59617f2A30a07Dd98F69b4e425204c0f039C4f2"
      },
      {
        "passId": "630",
        "signer": "0x64d4325E603254012FBd7286Ded05B25bdAF5aAF"
      },
      {
        "passId": "631",
        "signer": "0xcF03d7fe2EC57C8Fe5193ce42D26caCD6EC973c2"
      },
      {
        "passId": "632",
        "signer": "0xC11451D54a22436f6a44DD0A9cDF9b6161888e66"
      },
      {
        "passId": "633",
        "signer": "0x715Ef8eBeaac70407B95a7e88aB55cf61Ed9C338"
      },
      {
        "passId": "634",
        "signer": "0xa787ad4Bd7CFc980Ec49B777CDFdC8064B99730E"
      },
      {
        "passId": "635",
        "signer": "0xb3036ba27dc5E550d46c1B3426B522cC461769e5"
      },
      {
        "passId": "636",
        "signer": "0xFeEAb1745A83a1b53317750385e8D8402804761A"
      },
      {
        "passId": "637",
        "signer": "0x8175CF447FF99413068F8cce07677344413455a7"
      },
      {
        "passId": "638",
        "signer": "0x01c7Cb7DcCaC2A16695FE87A33BC05aCfbCeCD74"
      },
      {
        "passId": "639",
        "signer": "0x234A267A3E0bcaF4d2c425fd08aC2609722f9E48"
      },
      {
        "passId": "640",
        "signer": "0x6Ec6A9EEf3ab46C801771c5D2b4fD47aC12EF6c4"
      },
      {
        "passId": "641",
        "signer": "0x2125ad98D77D0eE4ca7ef572eaB290695228C751"
      },
      {
        "passId": "642",
        "signer": "0x614F7af9EE8bF9F887dF482c65A79F43F938ee69"
      },
      {
        "passId": "643",
        "signer": "0x8e36b1f3f549B60f3A975EA93414730e285a2d8E"
      },
      {
        "passId": "644",
        "signer": "0x13FcF3B87F3595FB144AfD5EEA64CDeE27365Fc3"
      },
      {
        "passId": "645",
        "signer": "0x16104E768419b0EcA1b8ae2F65C951787f8Fd6fd"
      },
      {
        "passId": "646",
        "signer": "0xC9CE1c171eF630E04e41c71509F33109CEBf69D3"
      },
      {
        "passId": "647",
        "signer": "0x7Bd1b0CA346F5C9175e975185885620cd747adD9"
      },
      {
        "passId": "648",
        "signer": "0x0051b21e5C693C82c11971D055e7DEd2157D8431"
      },
      {
        "passId": "649",
        "signer": "0x8258cEe52Ca4365Db63403b809B5eA9dcC9B2213"
      },
      {
        "passId": "650",
        "signer": "0xed3aDfFAB14c02BB8357f998AdfC3f42902f4c4e"
      },
      {
        "passId": "651",
        "signer": "0xe2Ac7C904dC0130415461a71885C176f235c1c39"
      },
      {
        "passId": "652",
        "signer": "0x2799ce54f9eE6139a8482a914f1e0B692d59A186"
      },
      {
        "passId": "653",
        "signer": "0x2214420d754924B3D1B8E642eb499dA077992A43"
      },
      {
        "passId": "654",
        "signer": "0xBe43583aa45d42cD41C4d7f2932D32811402E138"
      },
      {
        "passId": "655",
        "signer": "0x580f1CF212bA4142033Bc0c88aF0e490F109DC91"
      },
      {
        "passId": "656",
        "signer": "0x235E4007bB982E306137822E903c0F83e71F18b4"
      },
      {
        "passId": "657",
        "signer": "0x03cA378a8cE35f2c4E85DbeD34c401A7451c569b"
      },
      {
        "passId": "658",
        "signer": "0x5A021fa2792ebd58250CE4f7c0246588c878569d"
      },
      {
        "passId": "659",
        "signer": "0xa55921fbAdE14CbE79eEc0E54633Be10a9aa2993"
      },
      {
        "passId": "660",
        "signer": "0x7ED339980B6cb648F8d1e9751884E175671C893B"
      },
      {
        "passId": "661",
        "signer": "0x6bC956F4196811FdE27377D6DEB0955572f79376"
      },
      {
        "passId": "662",
        "signer": "0x287E7479Bf8dFEED4290729db3e2746B8111d118"
      },
      {
        "passId": "663",
        "signer": "0xF327d01CEf163A1952e48ECB25a2d8198bB10115"
      },
      {
        "passId": "664",
        "signer": "0xC9768e561cD642F4f650f247C51cB340C1286413"
      },
      {
        "passId": "665",
        "signer": "0xaD5259BedB7b9ABcC399C0797714A8Fe033fe460"
      },
      {
        "passId": "666",
        "signer": "0xaDc54Ab9A3f93371036cBb7e47c95bAeb9CB4B4D"
      },
      {
        "passId": "667",
        "signer": "0x637d73959B63844c5d45EA0230A5B217f5a2a504"
      },
      {
        "passId": "668",
        "signer": "0x85a2E68f535A24c3aC45f5BBdC2999274b3aB04d"
      },
      {
        "passId": "669",
        "signer": "0x573Bd6D51f19Ca775Be4eAc40003434De842A3FE"
      },
      {
        "passId": "670",
        "signer": "0xCc405A9262Db65788dee4bb6f3F59310e018125C"
      },
      {
        "passId": "671",
        "signer": "0x4F5D697bdD378a852360623EDEE1eB67E8cd48b8"
      },
      {
        "passId": "672",
        "signer": "0xA65380eea7CCf77728b2F1DBDB6FF5Dc8daB806b"
      },
      {
        "passId": "673",
        "signer": "0x5114764E26b2678817F86b7970B293d262aEac11"
      },
      {
        "passId": "674",
        "signer": "0x098DBD6c37b4BAA80f8b0F6450252d4C0BBEDa6b"
      },
      {
        "passId": "675",
        "signer": "0x027422C5ef5754479f4d088271eB78a7D9aD13c7"
      },
      {
        "passId": "676",
        "signer": "0x4cE2242B5E6BDAdA57E2a286565927c4d12588c4"
      },
      {
        "passId": "677",
        "signer": "0xC6CdD4Bc5d759dc8cFC9C519EEE0B328C3B68c2E"
      },
      {
        "passId": "678",
        "signer": "0x392988922f12fc37a5Bfec18bbbBa6Aafe55861A"
      },
      {
        "passId": "679",
        "signer": "0x281C2C82dc2A56CACe036754171d2F7982Ef2F4e"
      },
      {
        "passId": "680",
        "signer": "0x5D3ae7193f0f2b0C1Ec8e6191878729d4B2FbAaF"
      },
      {
        "passId": "681",
        "signer": "0x6Fb7768Debb0558a2AFC645254C34639D514507a"
      },
      {
        "passId": "682",
        "signer": "0xb9670F183bfe05fA3Ca4b774dd6CD321dC3B25f2"
      },
      {
        "passId": "683",
        "signer": "0x7664fAB52638831CFBb2510c7989917Bcb661Ed5"
      },
      {
        "passId": "684",
        "signer": "0x82eB4f0aA21517c58328A58d6B1865418f46882c"
      },
      {
        "passId": "685",
        "signer": "0x29eA4a953AC862911F0a1A9C681a835d85612eEd"
      },
      {
        "passId": "686",
        "signer": "0x33b41b038d20F421bEd71032D4869b6572498Fc9"
      },
      {
        "passId": "687",
        "signer": "0x33464dAcbe0Ea6d183B15CB65D7ec597BEE1F69E"
      },
      {
        "passId": "688",
        "signer": "0x24C3B759EEd803B1F674C83b5f83B2a06B02269F"
      },
      {
        "passId": "689",
        "signer": "0x52B196C02c0119728229dA975F14f7De58feD23d"
      },
      {
        "passId": "690",
        "signer": "0xfd83df7670894f7479e31a1aC75B882d8799205E"
      },
      {
        "passId": "691",
        "signer": "0xd2dc4e3Df7505F97edDa33796F3Ae690e0B44Bb5"
      },
      {
        "passId": "692",
        "signer": "0xa945B472dd39e3aeBBA73cc0Ee8c52118534bf4D"
      },
      {
        "passId": "693",
        "signer": "0x39e91534D0CE0372cC8CA0A3e338015aa095F807"
      },
      {
        "passId": "694",
        "signer": "0xcb19fDCa9Aa929d60386B95CC495Bb6eD824a024"
      },
      {
        "passId": "695",
        "signer": "0xaC85EfF1F6A3Db11478E94FbB7535dC3461a5ECF"
      },
      {
        "passId": "696",
        "signer": "0x8eFdcb5781b6c0Ba30513A5475DF15577cC4Aa38"
      },
      {
        "passId": "697",
        "signer": "0xF62a82A582A44A727E83ED2c3aeb9d97eBaBE670"
      },
      {
        "passId": "698",
        "signer": "0x1A18c6139AC1e4eb9DaB6F1DeB272b727c52C67a"
      },
      {
        "passId": "699",
        "signer": "0x7d9ad7E1b3a823A819e98E457c17c0e028D21c17"
      },
      {
        "passId": "700",
        "signer": "0xF44a19F1915B734abF0c5494330EC97691D03594"
      },
      {
        "passId": "701",
        "signer": "0xc18C08C956ec1Ac7EA48AE45d909d9c5c3B49d84"
      },
      {
        "passId": "702",
        "signer": "0xbE2b687A020f7c4f96fB298e7427d43C497be07c"
      },
      {
        "passId": "703",
        "signer": "0x739cc66F1a0B44F4439eeD20420C36dcd4a67827"
      },
      {
        "passId": "704",
        "signer": "0xA13FCAd6A4b916A822dB945a4b22A813b63f1653"
      },
      {
        "passId": "705",
        "signer": "0x59d0aBcc862B49A87A5eBE458B3622859B2bE38A"
      },
      {
        "passId": "706",
        "signer": "0x4d82d87b92A78e00d91560D4d2a7cE89791E190d"
      },
      {
        "passId": "707",
        "signer": "0x5ff09A41dffBa02adBA689220BB01009B6E688aB"
      },
      {
        "passId": "708",
        "signer": "0x0e4e967Cdd77f4aEbF1e2de722cFd39DEB70d0f4"
      },
      {
        "passId": "709",
        "signer": "0x34ea282C77bAB80CaE7a8515c037e2A305dD3605"
      },
      {
        "passId": "710",
        "signer": "0x94601dF3693F59972B88BF7C256218CDe233294F"
      },
      {
        "passId": "711",
        "signer": "0x748db8Be2AE6b1B9A53937965464dB4431f53eEF"
      },
      {
        "passId": "712",
        "signer": "0x707a07E1EAce85400479af93720B1c8BcC117CCE"
      },
      {
        "passId": "713",
        "signer": "0xD778819Eb7BD9d01b0f7719D01B4F98993184F2E"
      },
      {
        "passId": "714",
        "signer": "0xe2157F8a0a9e19aD2f1debbEbd028B71E2356b87"
      },
      {
        "passId": "715",
        "signer": "0x84Ce122F388B1484d1387b71C477777c757C3f4C"
      },
      {
        "passId": "716",
        "signer": "0x2749C325E146adB5a4A7d3a19FbB2cd18C16ab3D"
      },
      {
        "passId": "717",
        "signer": "0x99BC7bddA0d81EaF3ef524c1bD65b056b741F583"
      },
      {
        "passId": "718",
        "signer": "0x219009a4De1044DB356911fDC277401b8538DEe9"
      },
      {
        "passId": "719",
        "signer": "0x4fDfB64532e198FF1e60AAbAfda4D1471A1DC039"
      },
      {
        "passId": "720",
        "signer": "0x9952C15a044ae9699CC2134030f662d6a6d14a35"
      },
      {
        "passId": "721",
        "signer": "0xfd835294D2d951AEd00d5d1a71A48D73Be6e45B2"
      },
      {
        "passId": "722",
        "signer": "0x8CE6F9FE9dfA8b3658C08483A6F4d72854857a6D"
      },
      {
        "passId": "723",
        "signer": "0x63A87A532DE4AFCd8e50973f60A90BDDb5e583C4"
      },
      {
        "passId": "724",
        "signer": "0x8cEd3652907968A81eC346942DcB8d0b68741836"
      },
      {
        "passId": "725",
        "signer": "0x571457580da64a19cC72B339eC5ED8EE5134c81F"
      },
      {
        "passId": "726",
        "signer": "0xb65f4D9F54c79396a1ba0B34Ce13313000242173"
      },
      {
        "passId": "727",
        "signer": "0x9AdE383B5C5BE3B28100d0bf68a776ef1FFfBB6e"
      },
      {
        "passId": "728",
        "signer": "0x8a2c1fA39ed7b4c44D817733f9604438A831703B"
      },
      {
        "passId": "729",
        "signer": "0x8a26c65D2dF674756c10CD566E1F3D04e196BC08"
      },
      {
        "passId": "730",
        "signer": "0x0e0A49A6A6dce17B9545385F9742849bA7C396a5"
      },
      {
        "passId": "731",
        "signer": "0x97997b953E89708939f7D74Fe12bd3b5a56FAbdB"
      },
      {
        "passId": "732",
        "signer": "0xbFD7C76Bf53dBCFCe137cC172F3c0d7C6816600A"
      },
      {
        "passId": "733",
        "signer": "0x301B55Fe45d15982ac07cb4f0b57b6F354f99c65"
      },
      {
        "passId": "734",
        "signer": "0xcFDceEc80Bb5E154e913a6e1Ed9ceef8F15543C2"
      },
      {
        "passId": "735",
        "signer": "0xDB81a9bCD2F07B7e090F37cD246216DB54b04858"
      },
      {
        "passId": "736",
        "signer": "0xc525a788293F60b035Cc14cD57f3077904b01eAe"
      },
      {
        "passId": "737",
        "signer": "0xd3074CBF562FC43f41aa0f8CD4a1638B4fA59FF1"
      },
      {
        "passId": "738",
        "signer": "0x4F408424c160040f918299Cff35E811fB170E258"
      },
      {
        "passId": "739",
        "signer": "0x57fE5328a2624Cd5cDccdfBdd61b25dD803eb1a8"
      },
      {
        "passId": "740",
        "signer": "0x43307010c58AaAB3757fb8a10C83e9912aA8a900"
      },
      {
        "passId": "741",
        "signer": "0xB59c8ebFF73AAF68B355D587Da51AfE655C3051F"
      },
      {
        "passId": "742",
        "signer": "0x30746A0775fdC753C3e8eb8F230BB1Bdb7B467d5"
      },
      {
        "passId": "743",
        "signer": "0xC59C669D20Db4E16a3AE8915Ce6D9205eA540ba5"
      },
      {
        "passId": "744",
        "signer": "0x7A3D0485FdEdB3A423102805Aaa7c7BEBeb9255f"
      },
      {
        "passId": "745",
        "signer": "0x16b8a83cf85b87B79995D84bEaEeACDF0a48D1b9"
      },
      {
        "passId": "746",
        "signer": "0x3E49C7004ec27ab66281bEA1C12Fb20eD5790E98"
      },
      {
        "passId": "747",
        "signer": "0xe018f9DaBa2D909F324ade11578aB77D7eC39F19"
      },
      {
        "passId": "748",
        "signer": "0x84bE00Bf943671364a64ACA7F92A654ba22BBCd2"
      },
      {
        "passId": "749",
        "signer": "0x7913f6588B0C8Acc5c067c7b47fb685271110912"
      },
      {
        "passId": "750",
        "signer": "0x414F7C4bD2B3A77814Cd4FC51E6746Fb0b11a2a8"
      },
      {
        "passId": "751",
        "signer": "0xF6772f8deBbAFd049A44e291C30e1b667cD7c930"
      },
      {
        "passId": "752",
        "signer": "0x92d717f005AEeeB23dA674648cC5775B2a30801B"
      },
      {
        "passId": "753",
        "signer": "0xf934CF027D279DF983A0b8f65d1a10e784b439Df"
      },
      {
        "passId": "754",
        "signer": "0x3829f03A72E24B187c126139C90233bA1Af387a2"
      },
      {
        "passId": "755",
        "signer": "0xf7AE6f132586026d72efa5DE368f46af07181e0F"
      },
      {
        "passId": "756",
        "signer": "0xEf0935103Ff8145115143b95746D117a093CD7a1"
      },
      {
        "passId": "757",
        "signer": "0xddd188A74DA96e340B2403B1F07Aa0Ba87C54ad0"
      },
      {
        "passId": "758",
        "signer": "0x55167d04Dc00b23083918D075123B5D568078359"
      },
      {
        "passId": "759",
        "signer": "0xa8063A8B983be59254f00A5FA9A48dEc8984205c"
      },
      {
        "passId": "760",
        "signer": "0x2274bF1bCeFa5F2038E94CD885a55bC9A85141f4"
      },
      {
        "passId": "761",
        "signer": "0xe68EB5174CA81B7e1E54916A7d29e2177997Ab34"
      },
      {
        "passId": "762",
        "signer": "0x1231Fd689F70A8D4E0BB6e0b27E374E662FB942e"
      },
      {
        "passId": "763",
        "signer": "0xe1a336C5Dd65b786518D6FDcDD0C008aD87308Fd"
      },
      {
        "passId": "764",
        "signer": "0x3A9326749ED5BF4752A4153d1B7ceF2f19a65D51"
      },
      {
        "passId": "765",
        "signer": "0x9ebc23614E334A4ff6620AF48672F6DacdCa9615"
      },
      {
        "passId": "766",
        "signer": "0x0202701Dcf918e934F52B6863f0b10e439C9B2fC"
      },
      {
        "passId": "767",
        "signer": "0xbcB4E4b5Ac997E148A8c56b722e6bDE5C3591946"
      },
      {
        "passId": "768",
        "signer": "0x539B9404cA8F2F8118800216c352a48e852112D4"
      },
      {
        "passId": "769",
        "signer": "0x68Bb17AA9B0B36Eb4fE51D3d9Ed9093b62c42e83"
      },
      {
        "passId": "770",
        "signer": "0xA4512292dE7Ec30E01C09A6C0F9533AFC4573f40"
      },
      {
        "passId": "771",
        "signer": "0xECad511E7cf7f9026e9AB6150bC49619fACF4607"
      },
      {
        "passId": "772",
        "signer": "0x5407C428f5bf32dB2832c2A8fD8fCe9EC9A57533"
      },
      {
        "passId": "773",
        "signer": "0x7810E6076893C915310D19DFC0Ce114004E950eD"
      },
      {
        "passId": "774",
        "signer": "0x9Ac8C131a1e9E45795F05972E4dbaDea694A4Edb"
      },
      {
        "passId": "775",
        "signer": "0x05B30797c0b0B4B56919D90579E75a51A97F905D"
      },
      {
        "passId": "776",
        "signer": "0x1FBD4Fe6cC0B866dd9eBF0B38aFb35a6e229DbBD"
      },
      {
        "passId": "777",
        "signer": "0x6a9F9EA61D804B1DD4205927eB7330feD1c021Ce"
      },
      {
        "passId": "778",
        "signer": "0x9396f028d519C78563De7Fa6f6a5f560d74dC8aE"
      },
      {
        "passId": "779",
        "signer": "0xb8f0bD1b379016011FCe759cf1bE21B69D8a3087"
      },
      {
        "passId": "780",
        "signer": "0xE79166096D25084c780A0417580A0d785d65e9b3"
      },
      {
        "passId": "781",
        "signer": "0xe82e7875365991ABe9423005E60a41D5Af490625"
      },
      {
        "passId": "782",
        "signer": "0x2D0080daead8F181a83019948CAdF249c64E1E21"
      },
      {
        "passId": "783",
        "signer": "0xed8e4cd3Cb5562a3ffF906C739F274eb0B53a59C"
      },
      {
        "passId": "784",
        "signer": "0x8e1cC4BD565B5e0946aE23dCd78ef913Cf623B44"
      },
      {
        "passId": "785",
        "signer": "0xaA5f673988029F2A7FA8712C83F3Dc4938d24c1D"
      },
      {
        "passId": "786",
        "signer": "0x095834D89c6416f293E0e055FBfe3795685b28A2"
      },
      {
        "passId": "787",
        "signer": "0x344ea46d20463979d0227C9F6ACcc155EEe82840"
      },
      {
        "passId": "788",
        "signer": "0xbeb0B680acb31Fc13F32856c3adA14d829958fcc"
      },
      {
        "passId": "789",
        "signer": "0xDe277e3552E73f200BC06f856B0024F49B236d77"
      },
      {
        "passId": "790",
        "signer": "0xE9E80B2910B7be1efc0C40e80eA272980b6C5EF9"
      },
      {
        "passId": "791",
        "signer": "0xde039d6E9De50e1Df2329c570E945c1eA7ca7011"
      },
      {
        "passId": "792",
        "signer": "0xFF9325F68C3F91dD7398923dF03EbF191a005c5C"
      },
      {
        "passId": "793",
        "signer": "0x46fB1586c994A74be6D5b400C619c3717a6A98B2"
      },
      {
        "passId": "794",
        "signer": "0xb6a54d619c4e42F495c9ab38A04898b38aFb7019"
      },
      {
        "passId": "795",
        "signer": "0x2b9c2D646c8AA752592aD84a1b802b5085717877"
      },
      {
        "passId": "796",
        "signer": "0x6cc678e53c2b1656Fbd3Aa0320baB5F29d216520"
      },
      {
        "passId": "797",
        "signer": "0xE14d979176220402cC2A6006659Cc3b63EcD44ce"
      },
      {
        "passId": "798",
        "signer": "0xf369b35Aa5be8Dc485d45F339A5BBB3462DE30f4"
      },
      {
        "passId": "799",
        "signer": "0xed7876C41F11B26f23A5704634f984c06C0Ff516"
      },
      {
        "passId": "800",
        "signer": "0x521Bf4a76bFab4E0b86f8ed7EaD3BDae3E7BC3Ef"
      },
      {
        "passId": "801",
        "signer": "0x8BA17D171e7BDc18176444E7a998207526d0Cd82"
      },
      {
        "passId": "802",
        "signer": "0x52bd6D230d6063C60A83b10Ef7844838DD729F4f"
      },
      {
        "passId": "803",
        "signer": "0x1b10974A21d371fE4536D40d94E78f53eE001Bca"
      },
      {
        "passId": "804",
        "signer": "0x1845e5909a635Cd3C3cF80163316b0eA82C04Ff4"
      },
      {
        "passId": "805",
        "signer": "0x03096DdF335eAB1389E07f4ffe4327dad9eED3fe"
      },
      {
        "passId": "806",
        "signer": "0x1cEAd1b8b7b1Ab2D86c3f91695B91be80d51BE87"
      },
      {
        "passId": "807",
        "signer": "0x5b410c3A3Ae951e7f3CFF10cB741d2f4F4472Ea3"
      },
      {
        "passId": "808",
        "signer": "0x68ce89C57D4952869Ce6aa78796b3546A16B7de0"
      },
      {
        "passId": "809",
        "signer": "0x5b8f92226422500cBEFE76eC2986C3BcAFc38DD0"
      },
      {
        "passId": "810",
        "signer": "0x267EEa7ee4f8A81276e9c88Ca30f92B1D686d47F"
      },
      {
        "passId": "811",
        "signer": "0x195Fd49b060123fc908a70a21848C68786670461"
      },
      {
        "passId": "812",
        "signer": "0x1D1893CBd66863fE10c12ce544f2125e6621D2E8"
      },
      {
        "passId": "813",
        "signer": "0x88ca4F8179d560428f3a430e8d4b3d7BAF25d1D4"
      },
      {
        "passId": "814",
        "signer": "0xda0C9883601811F3713749e761F94A22e49E974b"
      },
      {
        "passId": "815",
        "signer": "0x000000000000000000000000000000000000dead"
      },
      {
        "passId": "816",
        "signer": "0x000001f568875f378bf6d170b790967fe429c81a"
      },
      {
        "passId": "817",
        "signer": "0x0078c86e12186e2de1ff6fef5f1ada2bffde4ea5"
      },
      {
        "passId": "818",
        "signer": "0x024f1f8b3789bfdf9edb47f58a0d7a3afeaea804"
      },
      {
        "passId": "819",
        "signer": "0x049808d5eaa90a2665b9703d2246dded34f1eb73"
      },
      {
        "passId": "820",
        "signer": "0x05e8074088797c1f9057febf374deee0bc38e894"
      },
      {
        "passId": "821",
        "signer": "0x05ea539365d91df315e8ddd736e90431696fe8c4"
      },
      {
        "passId": "822",
        "signer": "0x09280340849e66948149804cac539cc7227512be"
      },
      {
        "passId": "823",
        "signer": "0x0946bc5c2f9848665cc3811458de403d0a78ad8e"
      },
      {
        "passId": "824",
        "signer": "0x0985224a811e65c235dbf4a2c2117712aabe4e39"
      },
      {
        "passId": "825",
        "signer": "0x0d0aca99686fced8e6fb39134aaed96f09b5283c"
      },
      {
        "passId": "826",
        "signer": "0x0d94b6e4c2aa9383964986020b3534d34885f700"
      },
      {
        "passId": "827",
        "signer": "0x0dd544d0da95666d7c3d38460feb4b5f25eaa515"
      },
      {
        "passId": "828",
        "signer": "0x0ea59c05be4b7149aaed26be764b618ac0255643"
      },
      {
        "passId": "829",
        "signer": "0x10b28ee04853bdd30d1fd7b302fbe5691c144aa0"
      },
      {
        "passId": "830",
        "signer": "0x10f6c58b9dc9603cb24ee9a5220bb4a470781676"
      },
      {
        "passId": "831",
        "signer": "0x12579783fbe8c2645d7a634b238da748405975a2"
      },
      {
        "passId": "832",
        "signer": "0x136c65a3f31682fcf683906ddbf3c76db2633f99"
      },
      {
        "passId": "833",
        "signer": "0x139d9a36ff2b6bfb8558dfbc22486da48c77a396"
      },
      {
        "passId": "834",
        "signer": "0x13b3a50f3947476eda74fe191344524e2d2d28e5"
      },
      {
        "passId": "835",
        "signer": "0x13e46ccd194ca86212236543d2e7376b00bafa42"
      },
      {
        "passId": "836",
        "signer": "0x1423fcc74da82fa03d70fa1f7a122db1ba231783"
      },
      {
        "passId": "837",
        "signer": "0x1436dbffbdde71d16a2c4d23f9116c3158c4d984"
      },
      {
        "passId": "838",
        "signer": "0x1527fa3a0778d574adfe714b7e60c7b2a1bf7c29"
      },
      {
        "passId": "839",
        "signer": "0x1974341df4b113a4c16f3d3f106176dec0e4da67"
      },
      {
        "passId": "840",
        "signer": "0x1c062628943a930b805849b494719c7d23c77bd5"
      },
      {
        "passId": "841",
        "signer": "0x1ec9503bbdad721ef3ad485b4b14ce0671dc9925"
      },
      {
        "passId": "842",
        "signer": "0x21c5edc237e95049f92059af6a571fdb700f2b82"
      },
      {
        "passId": "843",
        "signer": "0x2224acd07fd9b269ab5200a9a3df8062624deefb"
      },
      {
        "passId": "844",
        "signer": "0x230eb64900d027dfe372786b3342bd6178ec37d1"
      },
      {
        "passId": "845",
        "signer": "0x273c25abd33eca095e228fde0f15e8f7ec4eb4d9"
      },
      {
        "passId": "846",
        "signer": "0x27d9b6692ec1fb802cc8ceef74270ca4b448076a"
      },
      {
        "passId": "847",
        "signer": "0x290420874bf65691b98b67d042c06bbc31f85f11"
      },
      {
        "passId": "848",
        "signer": "0x2993db31d165c33d848e44a1c26a805ba411d324"
      },
      {
        "passId": "849",
        "signer": "0x2d2c46d26c8fec693586e067c4fc2b2ddc2b4cb3"
      },
      {
        "passId": "850",
        "signer": "0x2d79097b9e4c4f41654b2c91c39fd2c97af00c76"
      },
      {
        "passId": "851",
        "signer": "0x2de2299db048a9e3b8d1934b8dae11b8041cc4fd"
      },
      {
        "passId": "852",
        "signer": "0x2e50783188e23742dd3168682e39381ff5fa9731"
      },
      {
        "passId": "853",
        "signer": "0x2e699391d1b3b8577557b4c0ef6a1d9e8a394f04"
      },
      {
        "passId": "854",
        "signer": "0x308bff328370fc4a9683ab9fcd79a21be6dc5ee4"
      },
      {
        "passId": "855",
        "signer": "0x342c6bfa287ce37b8b53eee0e5b6e6bcbea98c76"
      },
      {
        "passId": "856",
        "signer": "0x362f020fd4420c317e7a0722994ba8bc3380d0e8"
      },
      {
        "passId": "857",
        "signer": "0x3668a20653316a7dd85342f64a4c984d146cadfe"
      },
      {
        "passId": "858",
        "signer": "0x37b699d7eead58433d352d1c77b2db1391f11ce5"
      },
      {
        "passId": "859",
        "signer": "0x3ad353e2845b96fb1b58c1ca6cda46b870de8d6f"
      },
      {
        "passId": "860",
        "signer": "0x3d14410609731ec7924ea8b1f13de544bb46a9a6"
      },
      {
        "passId": "861",
        "signer": "0x4011d09a86d0aca8377a4a8bad691f1aceecd672"
      },
      {
        "passId": "862",
        "signer": "0x41a7276167b80da8815df5b0ddaba3be29984250"
      },
      {
        "passId": "863",
        "signer": "0x44dc2ec15b3483fc8590f6b396cea5f8f2fbf3bd"
      },
      {
        "passId": "864",
        "signer": "0x4530307f98208d3bd5b9631880bc7351770c8810"
      },
      {
        "passId": "865",
        "signer": "0x4a1d757699ab73dd4b48b15049b6f1479b2f3511"
      },
      {
        "passId": "866",
        "signer": "0x4b0bd713574e67a97b3ff8f647f329794a2cbb64"
      },
      {
        "passId": "867",
        "signer": "0x4d03a186b3c7d039ff9a212cd8e81dc34a670b35"
      },
      {
        "passId": "868",
        "signer": "0x4de4a829d42191007431d608775430f3ab072082"
      },
      {
        "passId": "869",
        "signer": "0x4e012d25472225f3385baa43ed64dfec5885c51d"
      },
      {
        "passId": "870",
        "signer": "0x4ffb72b66eba24521736924f87dfe10677d82286"
      },
      {
        "passId": "871",
        "signer": "0x50f27cdb650879a41fb07038bf2b818845c20e17"
      },
      {
        "passId": "872",
        "signer": "0x5285ac85a979b612f5c5320961311bba099670f0"
      },
      {
        "passId": "873",
        "signer": "0x530cf036ed4fa58f7301a9c788c9806624cefd19"
      },
      {
        "passId": "874",
        "signer": "0x5310a9b64847c1b927f823a4bc8836e93f09dc78"
      },
      {
        "passId": "875",
        "signer": "0x54463aae905082c678708bb6c25226eb8f38d5a6"
      },
      {
        "passId": "876",
        "signer": "0x562bf1b67dc40d9b7c3ddd49e45ae58e61e1b76e"
      },
      {
        "passId": "877",
        "signer": "0x568b491fb2b4b9440f6d05e7723df0060fdaef1c"
      },
      {
        "passId": "878",
        "signer": "0x5a016b206d0314c7ec641c3a6fd89dac7fea010e"
      },
      {
        "passId": "879",
        "signer": "0x5b158f897f5ace2afefaf7ace8ce0cdbbbc9168a"
      },
      {
        "passId": "880",
        "signer": "0x5ba02f4ff6af1d9d2af8774d10fd32eb57d4e2e6"
      },
      {
        "passId": "881",
        "signer": "0x5bd685375c21375165438ca7f3eae7ec4fade8c5"
      },
      {
        "passId": "882",
        "signer": "0x5d9e720a1c16b98ab897165803c4d96e8060b8e4"
      },
      {
        "passId": "883",
        "signer": "0x5e01d9928ea32d1d3ae2f3263b6ec6c165dc2d76"
      },
      {
        "passId": "884",
        "signer": "0x5ee42438d0d8fc399c94ef3543665e993e847b49"
      },
      {
        "passId": "885",
        "signer": "0x5f8e56d7f3642dd8783774460da2d3a7c54aacda"
      },
      {
        "passId": "886",
        "signer": "0x5fb8b9512684d451d4e585a1a0aabfb48a253c67"
      },
      {
        "passId": "887",
        "signer": "0x6186290b28d511bff971631c916244a9fc539cfe"
      },
      {
        "passId": "888",
        "signer": "0x62f099a34f01d57c67a100851184bea0d48b45f6"
      },
      {
        "passId": "889",
        "signer": "0x63244b5f1ebcb999ea012da652dffee6653bf8f5"
      },
      {
        "passId": "890",
        "signer": "0x64e00561fa9b1f2f2048b2d4f571279689dd9541"
      },
      {
        "passId": "891",
        "signer": "0x65565244e5700b85c90358468faf37c85db55099"
      },
      {
        "passId": "892",
        "signer": "0x6584b48ccebd9c3e4413a1dd4cdbc38b2500cdf3"
      },
      {
        "passId": "893",
        "signer": "0x65d88c64b01b9481352fa8a68b54ed1b3b687388"
      },
      {
        "passId": "894",
        "signer": "0x663d3947f03ef5b387992b880ac85940057c13e3"
      },
      {
        "passId": "895",
        "signer": "0x67c3097a968db89610825976ec9a5976a966c044"
      },
      {
        "passId": "896",
        "signer": "0x68016f094ebb7b55b04372af335455854b0e2eb6"
      },
      {
        "passId": "897",
        "signer": "0x6854dc5c9e3d3ce0b9dd7250d866908515465dc6"
      },
      {
        "passId": "898",
        "signer": "0x686e960ebd9aceb1771850444d4d3a7810a0dac9"
      },
      {
        "passId": "899",
        "signer": "0x6d7fd0438219c0f753a1ccf7c4885bb6cb260999"
      },
      {
        "passId": "900",
        "signer": "0x704c978d50590b21e4c2f43eb4da24fe61fcd707"
      },
      {
        "passId": "901",
        "signer": "0x73e60cd967e957bc6e074f93320ffa1d52697d5b"
      },
      {
        "passId": "902",
        "signer": "0x75331ebbe0b00b97cab532384f13c9b479f074ec"
      },
      {
        "passId": "903",
        "signer": "0x75ef2eff7b12f5f900ef5c787036deab18423d1a"
      },
      {
        "passId": "904",
        "signer": "0x78885686feec340ab544428f161e7d621f520e29"
      },
      {
        "passId": "905",
        "signer": "0x79bebfcb560141f22959c62bbd2930d5c7e35d30"
      },
      {
        "passId": "906",
        "signer": "0x79fd2f15e0ea8c27b5192259f9da63f4e562f021"
      },
      {
        "passId": "907",
        "signer": "0x7a824bea2bed9399a68cd0e340224809521c81d9"
      },
      {
        "passId": "908",
        "signer": "0x7d6a8ffcaf98cac58340329b3a91759888cb1363"
      },
      {
        "passId": "909",
        "signer": "0x7e7a55b11dd9a02b4da169620adfc36b930100fc"
      },
      {
        "passId": "910",
        "signer": "0x80d0d54050c15971b21e877d95441800f5aa9ee8"
      },
      {
        "passId": "911",
        "signer": "0x8177598e08ee8199c160a48c7a0af31ab54bb59f"
      },
      {
        "passId": "912",
        "signer": "0x82410609593d876761681580cf304c794bd58d09"
      },
      {
        "passId": "913",
        "signer": "0x826f63afd9517364cbebe91a859f10b102505a40"
      },
      {
        "passId": "914",
        "signer": "0x836ef81a58e5565b8d1d555ec8e9a5c2792511c6"
      },
      {
        "passId": "915",
        "signer": "0x83d3c179e7906e7f6755658c70e106f1ed3c5782"
      },
      {
        "passId": "916",
        "signer": "0x84eeb7db3f93feb5a8a98f56dabb970a6797c187"
      },
      {
        "passId": "917",
        "signer": "0x865c2f85c9fea1c6ac7f53de07554d68cb92ed88"
      },
      {
        "passId": "918",
        "signer": "0x8725be0bb6ea759d10fbb52fedecc7dcd6890072"
      },
      {
        "passId": "919",
        "signer": "0x87dfef3b445667292aac89078b51f0f75795805f"
      },
      {
        "passId": "920",
        "signer": "0x88906af7616f88f610d1e479325a5c5f93ba1e2c"
      },
      {
        "passId": "921",
        "signer": "0x8a53b8b59877df193c6dae7b8d1d38251af563cf"
      },
      {
        "passId": "922",
        "signer": "0x8b5e90aa714c967efc8c286f46ce0fc822e1cfb0"
      },
      {
        "passId": "923",
        "signer": "0x8c0c3c60118b24b31806eae82ab4186821bf23f1"
      },
      {
        "passId": "924",
        "signer": "0x8c2e67bd3d0f432ef75d9ae6623cd0dfbce66050"
      },
      {
        "passId": "925",
        "signer": "0x8dc9d43df20681cd62ca0acb24ae7ce2794f835d"
      },
      {
        "passId": "926",
        "signer": "0x8df55ecf2c261b44d079302dc95327fe32f74eed"
      },
      {
        "passId": "927",
        "signer": "0x8ebbf8f59b7b7849e359f7e1cc395df6741c24b9"
      },
      {
        "passId": "928",
        "signer": "0x92e7faa1c7b1cf703e3cda42183978f16fa15713"
      },
      {
        "passId": "929",
        "signer": "0x932a824a4d3d0680e0b352de150e6f212b8ac841"
      },
      {
        "passId": "930",
        "signer": "0x95a4350e1cb5e795d3ebe8bee63d9183de5449d1"
      },
      {
        "passId": "931",
        "signer": "0x96dc89dbe84970ee42a2f0b35fb50599e6745ff8"
      },
      {
        "passId": "932",
        "signer": "0x975ab68d4c15d6db02e101d5be03c5b49b9a3282"
      },
      {
        "passId": "933",
        "signer": "0x9de0b0402258a6a562331da7b3c13b29578789c4"
      },
      {
        "passId": "934",
        "signer": "0x9fc6d6c7326585fd3c2a743a1f505990d6e9df3f"
      },
      {
        "passId": "935",
        "signer": "0xa0863e36c30f4974a3a0e2cfc2802513cfaa22f1"
      },
      {
        "passId": "936",
        "signer": "0xa0a6dc36041fb386378458006fecbddd02555ddd"
      },
      {
        "passId": "937",
        "signer": "0xa0d71d516c6149c958c489ab24223c99f5df906f"
      },
      {
        "passId": "938",
        "signer": "0xa0f838d02983161ee469bff969964b7051ac1cd9"
      },
      {
        "passId": "939",
        "signer": "0xa596370bc21dee36872b98009dfbbf465dbfefa3"
      },
      {
        "passId": "940",
        "signer": "0xa5975974cac3fefd831e42bdd2fe84cb5ee3b3de"
      },
      {
        "passId": "941",
        "signer": "0xa6157b7bb7ec05e2b6feafd686797f9ea05411cc"
      },
      {
        "passId": "942",
        "signer": "0xa6f4fa9840aa6825446c820af6d5eccf9f78ba05"
      },
      {
        "passId": "943",
        "signer": "0xa77d9227eee861e01519548b6000acca8600eebe"
      },
      {
        "passId": "944",
        "signer": "0xa7d9f4fd84cdd4bee564adc1b18e3e8aa79d25f1"
      },
      {
        "passId": "945",
        "signer": "0xa88e4a192f3ff5e46dcc96efefb38dfec7bb250c"
      },
      {
        "passId": "946",
        "signer": "0xab2f02d8d409ee4f67fdda5aac5ca7a64a897271"
      },
      {
        "passId": "947",
        "signer": "0xac75cdc34283406b050cadf4ea5902a9310b138e"
      },
      {
        "passId": "948",
        "signer": "0xad9f9194c68bd83250a534a7da574687e1f102ff"
      },
      {
        "passId": "949",
        "signer": "0xae8ce6bb2b95684f57c097b407f4e9b55d9ca432"
      },
      {
        "passId": "950",
        "signer": "0xaee2f40fe0568bd859bc6a518c7ef3252fdc9bf0"
      },
      {
        "passId": "951",
        "signer": "0xaf5cb828389bd6413e7bcd00ed2dcf2bdc1a015a"
      },
      {
        "passId": "952",
        "signer": "0xaf8fbf59e221d27b55dc3adc2366f9230bcf5096"
      },
      {
        "passId": "953",
        "signer": "0xb29b1936c11b77cec6061a9daf765ee2666c8f77"
      },
      {
        "passId": "954",
        "signer": "0xb347b5b99c49ce6c555071a1f0498c81511ad977"
      },
      {
        "passId": "955",
        "signer": "0xb3522064694ac9870dbf00eebc2712762193bb64"
      },
      {
        "passId": "956",
        "signer": "0xb353268ce17d2c7f0f4f8aff152e548c43633df5"
      },
      {
        "passId": "957",
        "signer": "0xb66190f67ed8f0ca790ddfe541ee1bd0da53fe70"
      },
      {
        "passId": "958",
        "signer": "0xb74e4d1592dad73f3745f57605580108ebaedad5"
      },
      {
        "passId": "959",
        "signer": "0xb7f9f538aa1b41ae2853eb63f1939187ffe70eb4"
      },
      {
        "passId": "960",
        "signer": "0xbb46c6e4d8a59520fbb11638c2d1228cc65f5a6c"
      },
      {
        "passId": "961",
        "signer": "0xbc10a3ae909b1b94f4c3e39607ad19d386dce32a"
      },
      {
        "passId": "962",
        "signer": "0xbd12aa424c207e90b66402c1f0aec357e8b1ded7"
      },
      {
        "passId": "963",
        "signer": "0xbe5be517537e53f09e88bcdf61da238477dca226"
      },
      {
        "passId": "964",
        "signer": "0xbeeef66749b64afe43bbc9475635eb510cfe4922"
      },
      {
        "passId": "965",
        "signer": "0xbf1ed1ea654ad49472daedc21a31c8d28e6bb790"
      },
      {
        "passId": "966",
        "signer": "0xbf27384febdc054bbd7e388761919e7d98f7da0c"
      },
      {
        "passId": "967",
        "signer": "0xbfdb50dc66c8df9fd9688d8fe5a0c34126427645"
      },
      {
        "passId": "968",
        "signer": "0xc09d3402515676b81a2f768c365146ea3faa5605"
      },
      {
        "passId": "969",
        "signer": "0xc0e5e14bdecd9ed6954a9e14c74e97cebd91bb94"
      },
      {
        "passId": "970",
        "signer": "0xc169699a825066f2f07e0b29c4082094b32a3f3e"
      },
      {
        "passId": "971",
        "signer": "0xc3a67c1437353bdc9c53060235a34018711de0cf"
      },
      {
        "passId": "972",
        "signer": "0xc42c694d0215b27bce1a871a4a2ad38cf0120a82"
      },
      {
        "passId": "973",
        "signer": "0xc555347d2b369b074be94fe6f7ae9ab43966b884"
      },
      {
        "passId": "974",
        "signer": "0xc665a60f22dda926b920deb8ffac0ef9d8a17460"
      },
      {
        "passId": "975",
        "signer": "0xc8286a9bf1f9bf8f3006fa014915c78b7e75111c"
      },
      {
        "passId": "976",
        "signer": "0xc8bace82793074fad3337424bdb84e306b2f8a44"
      },
      {
        "passId": "977",
        "signer": "0xc9a009bed9ed8a32499e18c20f7cd12132c8d6cb"
      },
      {
        "passId": "978",
        "signer": "0xca11d10ceb098f597a0cab28117fc3465991a63c"
      },
      {
        "passId": "979",
        "signer": "0xcbd2f544073eb35b59a8eb19194a222a5361cd74"
      },
      {
        "passId": "980",
        "signer": "0xcda685c8444f659ac3fe778f8d143aabdf1a21ab"
      },
      {
        "passId": "981",
        "signer": "0xcea78aaa93e917fb5e1802901db2b20aa4411b44"
      },
      {
        "passId": "982",
        "signer": "0xcef871b113d2bb5d3fa5dc96d2d288dd38082aae"
      },
      {
        "passId": "983",
        "signer": "0xcf680fb77c12e2aa2dec82f3ae0c0e527f549fe2"
      },
      {
        "passId": "984",
        "signer": "0xd1eddfcc4596cc8bd0bd7495beab9b979fc50336"
      },
      {
        "passId": "985",
        "signer": "0xd3e64b9dea13e4840a0da20965bd0ca37d05a12a"
      },
      {
        "passId": "986",
        "signer": "0xd651e2c626ee210fc38676124d5007ac822ad749"
      },
      {
        "passId": "987",
        "signer": "0xd657860fc512ec2250a7385a353f599e3276fddb"
      },
      {
        "passId": "988",
        "signer": "0xd6e02c13a6cc133c9d019495414667ea7bee05cc"
      },
      {
        "passId": "989",
        "signer": "0xdc190d7cea8e8bf0b381617062200c10cfff0a91"
      },
      {
        "passId": "990",
        "signer": "0xdd6c81d6d587e2d49eaadffb4ce380564046002a"
      },
      {
        "passId": "991",
        "signer": "0xddb92a96054132801cae3943b2f966fc2c308ac8"
      },
      {
        "passId": "992",
        "signer": "0xdde3ca351d85a4b4cc6aff8d42c0840959859053"
      },
      {
        "passId": "993",
        "signer": "0xe00a3ab72b29eb4ac2695221f62cdf872cb5d483"
      },
      {
        "passId": "994",
        "signer": "0xe120ed22a0cd12d5de6122aa7d5b6d93ac218b49"
      },
      {
        "passId": "995",
        "signer": "0xe20adb03a470b5573bf572dd918e052d0d17866e"
      },
      {
        "passId": "996",
        "signer": "0xe363c2fba75cbd27487b17430e1efbdd2add374e"
      },
      {
        "passId": "997",
        "signer": "0xe5a3d77d7788a83f3549dd7f08fc2aced7e262d2"
      },
      {
        "passId": "998",
        "signer": "0xe66e1e9e37e4e148b21eb22001431818e980d060"
      },
      {
        "passId": "999",
        "signer": "0xe7bd51dc30d4bdc9fddd42ea7c0a283590c9d416"
      },
      {
        "passId": "1000",
        "signer": "0xeb42cd8a1fe1ff556960a9a03ca29aa13f8aa838"
      },
      {
        "passId": "1001",
        "signer": "0xed0f30677c760ea8f0bff70c76eafc79d5f7c3c8"
      },
      {
        "passId": "1002",
        "signer": "0xeddd55a234240042695d7430bf0a09b9038a26ad"
      },
      {
        "passId": "1003",
        "signer": "0xee4d308cc1cde3dd0adcb5a2c85edff22db64918"
      },
      {
        "passId": "1004",
        "signer": "0xee9439a12a7c2a9b6600ca8a498620580d2f116e"
      },
      {
        "passId": "1005",
        "signer": "0xeeaf61935c0c48f8f8cc28c381683d7fa2f75e1c"
      },
      {
        "passId": "1006",
        "signer": "0xef1271ae97bc1a1b356ab697e9ed0d1d4e05fcda"
      },
      {
        "passId": "1007",
        "signer": "0xf19bc58f747d6ea11959bf2a0fa81e53285546ac"
      },
      {
        "passId": "1008",
        "signer": "0xf1e1c701b49b1dc2405a9e8ef40f9f88802b80fa"
      },
      {
        "passId": "1009",
        "signer": "0xf2b15320db6992ba49a7563e50e888c20edcbe3c"
      },
      {
        "passId": "1010",
        "signer": "0xf341c3abb49feb96b4822e68227b54c6fb9f6318"
      },
      {
        "passId": "1011",
        "signer": "0xf3493f6812b1f22b40f8539db2510e13ac251f96"
      },
      {
        "passId": "1012",
        "signer": "0xf3b1b6e83be4d55695f1d30ac3d307d9d5ca98ff"
      },
      {
        "passId": "1013",
        "signer": "0xf464d1a37d8ef9449722f44a4eeb715c0e0acdb3"
      },
      {
        "passId": "1014",
        "signer": "0xf6910d47fbb1f5518d60c721d4189936ecd5a1b6"
      },
      {
        "passId": "1015",
        "signer": "0xf73c935815908ad9a056fc50269f95d8ba032e9d"
      },
      {
        "passId": "1016",
        "signer": "0xf78cd306b23031de9e739a5bcde61764e82ad5ef"
      },
      {
        "passId": "1017",
        "signer": "0xf942040710bedf7220beb24b220631c2255e87f1"
      },
      {
        "passId": "1018",
        "signer": "0xf943e1d2db38db468f66a79b08ec23f8c4375ce3"
      },
      {
        "passId": "1019",
        "signer": "0xfa46dedf812c5803b1e2cea10eef3f27dafeca56"
      },
      {
        "passId": "1020",
        "signer": "0xfa9f104f338846b38b083c9e567ff6bbe43ab5f7"
      },
      {
        "passId": "1021",
        "signer": "0xfd12799b9fb97dc61d9ad7ad4ffba5624004bc62"
      },
      {
        "passId": "1022",
        "signer": "0xfe1e7dc61721f34a25c9eb4dc1a1a8f352c923ef"
      },
      {
        "passId": "1023",
        "signer": "0xfffff6e70842330948ca47254f2be673b1cb0db7"
      }
    ],
    "startTime": 1638605487,
    "publicSaleTimestamp": 1638607287,
    "percentageForCreator": 2500,
    "price": "100000000000000000"
  },
  "solcInputHash": "fe2d698dc766749c774f141be3fe643d",
  "bytecode": "0x6101a06040523480156200001257600080fd5b506040516200210138038062002101833981016040819052620000359162000091565b6001600160a01b03998a1660805292891660a05260c09190915290961660e05261010094909452610120929092526101405261016052610180526000556200012c565b6001600160a01b03811681146200008e57600080fd5b50565b6000806000806000806000806000806101408b8d031215620000b257600080fd5b8a51620000bf8162000078565b809a505060208b0151985060408b0151975060608b0151965060808b0151955060a08b0151945060c08b0151620000f68162000078565b60e08c01516101008d01519195509350620001118162000078565b809250506101208b015190509295989b9194979a5092959850565b60805160a05160c05160e0516101005161012051610140516101605161018051611edf62000222600039600081816101bd01528181610c050152610e2e015260008181610197015281816102dc015281816104110152818161051f01528181610be2015261103701526000818161016f01528181610bbf015261105f01526000818161014901528181610b9c0152610e5501526000818161012601528181610b7901526110850152600061159e0152600081816114ac01526114da0152600081816105cd015281816107fd015261152601526000818161078501528181610a0d01528181610aaa01526111a90152611edf6000f3fe6080604052600436106100b15760003560e01c80639c20551311610069578063d93459b61161004e578063d93459b61461023c578063e957a3811461025c578063f19b57c21461027c57600080fd5b80639c20551314610209578063ca9dca041461021c57600080fd5b80637361a72e1161009a5780637361a72e1461010057806381059f7814610113578063990b0f60146101e957600080fd5b80632228adcc146100b65780632558e933146100eb575b600080fd5b3480156100c257600080fd5b506100d66100d1366004611747565b6102b0565b60405190151581526020015b60405180910390f35b6100fe6100f93660046118a6565b6102da565b005b6100fe61010e3660046119a8565b61040f565b34801561011f57600080fd5b50604080517f000000000000000000000000000000000000000000000000000000000000000081527f000000000000000000000000000000000000000000000000000000000000000060208201527f0000000000000000000000000000000000000000000000000000000000000000918101919091527f000000000000000000000000000000000000000000000000000000000000000060608201527f0000000000000000000000000000000000000000000000000000000000000000608082015260a0016100e2565b3480156101f557600080fd5b506100d6610204366004611747565b6104d2565b6100fe610217366004611a12565b61051d565b34801561022857600080fd5b506100fe610237366004611a12565b6105b5565b34801561024857600080fd5b506100fe610257366004611a8e565b6107e5565b34801561026857600080fd5b506100d6610277366004611747565b610a7d565b34801561028857600080fd5b5061029c610297366004611ae5565b610a9b565b6040516100e2989796959493929190611b31565b6000806102c26010600685901c611bf7565b905080600714806102d35750806008145b9392505050565b7f00000000000000000000000000000000000000000000000000000000000000004210156103fe5761030b83610c43565b600061037683858760405160200161035292919091825260601b7fffffffffffffffffffffffffffffffffffffffff00000000000000000000000016602082015260340190565b60405160208183030381529060405280519060200120610d0190919063ffffffff16565b905060006103848583610d25565b90506103908382610d86565b6103fb576040517f08c379a000000000000000000000000000000000000000000000000000000000815260206004820152600d60248201527f494e56414c49445f50524f4f460000000000000000000000000000000000000060448201526064015b60405180910390fd5b50505b6104088585610e53565b5050505050565b7f00000000000000000000000000000000000000000000000000000000000000004210156104c25761044082610c43565b33600061044d8483610d25565b90506104598382610d86565b6104bf576040517f08c379a000000000000000000000000000000000000000000000000000000000815260206004820152600d60248201527f494e56414c49445f50524f4f460000000000000000000000000000000000000060448201526064016103f2565b50505b6104cc8484610e53565b50505050565b6000806104e161010084611c3a565b905060006104f182610100611c4e565b6104fb9085611c8b565b60009283526001602081905260409093205492901b9182169091149392505050565b7f00000000000000000000000000000000000000000000000000000000000000004210156105a7576040517f08c379a000000000000000000000000000000000000000000000000000000000815260206004820152601460248201527f524551554952455f504153535f4f525f5741495400000000000000000000000060448201526064016103f2565b6105b18282610e53565b5050565b3373ffffffffffffffffffffffffffffffffffffffff7f00000000000000000000000000000000000000000000000000000000000000001614610654576040517f08c379a000000000000000000000000000000000000000000000000000000000815260206004820152600e60248201527f4e4f545f415554484f52495a454400000000000000000000000000000000000060448201526064016103f2565b6102408261ffff16106106c3576040517f08c379a000000000000000000000000000000000000000000000000000000000815260206004820152600d60248201527f494e56414c49445f534f554e440000000000000000000000000000000000000060448201526064016103f2565b6106d08261ffff166102b0565b610736576040517f08c379a000000000000000000000000000000000000000000000000000000000815260206004820152600c60248201527f4e4f545f5245534552564544000000000000000000000000000000000000000060448201526064016103f2565b6040517f9c20551300000000000000000000000000000000000000000000000000000000815261ffff8316600482015273ffffffffffffffffffffffffffffffffffffffff82811660248301527f00000000000000000000000000000000000000000000000000000000000000001690639c20551390604401600060405180830381600087803b1580156107c957600080fd5b505af11580156107dd573d6000803e3d6000fd5b505050505050565b3373ffffffffffffffffffffffffffffffffffffffff7f00000000000000000000000000000000000000000000000000000000000000001614610884576040517f08c379a000000000000000000000000000000000000000000000000000000000815260206004820152600e60248201527f4e4f545f415554484f52495a454400000000000000000000000000000000000060448201526064016103f2565b60005b828110156109cf576102408484838181106108a4576108a4611ca2565b90506020020160208101906108b99190611cd1565b61ffff1610610924576040517f08c379a000000000000000000000000000000000000000000000000000000000815260206004820152600d60248201527f494e56414c49445f534f554e440000000000000000000000000000000000000060448201526064016103f2565b61095784848381811061093957610939611ca2565b905060200201602081019061094e9190611cd1565b61ffff166102b0565b6109bd576040517f08c379a000000000000000000000000000000000000000000000000000000000815260206004820152600c60248201527f4e4f545f5245534552564544000000000000000000000000000000000000000060448201526064016103f2565b806109c781611cec565b915050610887565b506040517fe2ea128800000000000000000000000000000000000000000000000000000000815273ffffffffffffffffffffffffffffffffffffffff7f0000000000000000000000000000000000000000000000000000000000000000169063e2ea128890610a4690869086908690600401611d25565b600060405180830381600087803b158015610a6057600080fd5b505af1158015610a74573d6000803e3d6000fd5b50505050505050565b600080610a8f6010600685901c611bf7565b60005410159392505050565b606060008060008060008060007f000000000000000000000000000000000000000000000000000000000000000073ffffffffffffffffffffffffffffffffffffffff1663a0554c268b8b6040518363ffffffff1660e01b8152600401610b03929190611d8b565b60006040518083038186803b158015610b1b57600080fd5b505afa158015610b2f573d6000803e3d6000fd5b505050506040513d6000823e601f3d9081017fffffffffffffffffffffffffffffffffffffffffffffffffffffffffffffffe0168201604052610b759190810190611de0565b97507f000000000000000000000000000000000000000000000000000000000000000096507f000000000000000000000000000000000000000000000000000000000000000095507f000000000000000000000000000000000000000000000000000000000000000094507f000000000000000000000000000000000000000000000000000000000000000093507f00000000000000000000000000000000000000000000000000000000000000009250610c2f8b6104d2565b915060005490509397509397509397509397565b6000610c5161010083611c3a565b90506000610c6182610100611c4e565b610c6b9084611c8b565b600083815260016020819052604090912054911b915080821615610ceb576040517f08c379a000000000000000000000000000000000000000000000000000000000815260206004820152601160248201527f504153535f414c52454144595f5553454400000000000000000000000000000060448201526064016103f2565b6000928352600160205260409092209117905550565b6000806000610d1085856111d8565b91509150610d1d81611248565b509392505050565b60008282604051602001610d6892919091825260601b7fffffffffffffffffffffffffffffffffffffffff00000000000000000000000016602082015260340190565b60405160208183030381529060405280519060200120905092915050565b6000805b8351811015610e2a576000848281518110610da757610da7611ca2565b6020026020010151905080841015610dea576040805160208101869052908101829052606001604051602081830303815290604052805190602001209350610e17565b60408051602081018390529081018590526060016040516020818303038152906040528051906020012093505b5080610e2281611cec565b915050610d8a565b50507f000000000000000000000000000000000000000000000000000000000000000014919050565b7f0000000000000000000000000000000000000000000000000000000000000000421015610edd576040517f08c379a000000000000000000000000000000000000000000000000000000000815260206004820152601060248201527f53414c455f4e4f545f535441525445440000000000000000000000000000000060448201526064016103f2565b6102408261ffff1610610f4c576040517f08c379a000000000000000000000000000000000000000000000000000000000815260206004820152600d60248201527f494e56414c49445f534f554e440000000000000000000000000000000000000060448201526064016103f2565b610f598261ffff16610a7d565b610fbf576040517f08c379a000000000000000000000000000000000000000000000000000000000815260206004820152601b60248201527f494e535455524d454e545f4e4f545f5945545f464f525f53414c45000000000060448201526064016103f2565b610fcc8261ffff166102b0565b15611033576040517f08c379a000000000000000000000000000000000000000000000000000000000815260206004820152600860248201527f524553455256454400000000000000000000000000000000000000000000000060448201526064016103f2565b60007f0000000000000000000000000000000000000000000000000000000000000000421015611083577f00000000000000000000000000000000000000000000000000000000000000006110a5565b7f00000000000000000000000000000000000000000000000000000000000000005b905080341015611111576040517f08c379a000000000000000000000000000000000000000000000000000000000815260206004820152600a60248201527f4e4f545f454e4f5547480000000000000000000000000000000000000000000060448201526064016103f2565b8034111561115157336108fc6111278334611c8b565b6040518115909202916000818181858888f1935050505015801561114f573d6000803e3d6000fd5b505b61115a816114a4565b6040517f9c20551300000000000000000000000000000000000000000000000000000000815261ffff8416600482015273ffffffffffffffffffffffffffffffffffffffff83811660248301527f00000000000000000000000000000000000000000000000000000000000000001690639c20551390604401610a46565b60008082516041141561120f5760208301516040840151606085015160001a611203878285856115e7565b94509450505050611241565b825160401415611239576020830151604084015161122e8683836116ff565b935093505050611241565b506000905060025b9250929050565b600081600481111561125c5761125c611e7a565b14156112655750565b600181600481111561127957611279611e7a565b14156112e1576040517f08c379a000000000000000000000000000000000000000000000000000000000815260206004820152601860248201527f45434453413a20696e76616c6964207369676e6174757265000000000000000060448201526064016103f2565b60028160048111156112f5576112f5611e7a565b141561135d576040517f08c379a000000000000000000000000000000000000000000000000000000000815260206004820152601f60248201527f45434453413a20696e76616c6964207369676e6174757265206c656e6774680060448201526064016103f2565b600381600481111561137157611371611e7a565b14156113ff576040517f08c379a000000000000000000000000000000000000000000000000000000000815260206004820152602260248201527f45434453413a20696e76616c6964207369676e6174757265202773272076616c60448201527f756500000000000000000000000000000000000000000000000000000000000060648201526084016103f2565b600481600481111561141357611413611e7a565b14156114a1576040517f08c379a000000000000000000000000000000000000000000000000000000000815260206004820152602260248201527f45434453413a20696e76616c6964207369676e6174757265202776272076616c60448201527f756500000000000000000000000000000000000000000000000000000000000060648201526084016103f2565b50565b80156114a1577f00000000000000000000000000000000000000000000000000000000000000001561157e5760006127106114ff7f000000000000000000000000000000000000000000000000000000000000000084611c4e565b6115099190611c3a565b60405190915073ffffffffffffffffffffffffffffffffffffffff7f0000000000000000000000000000000000000000000000000000000000000000169082156108fc029083906000818181858888f1935050505015801561156f573d6000803e3d6000fd5b5061157a8183611c8b565b9150505b80156114a15760405173ffffffffffffffffffffffffffffffffffffffff7f0000000000000000000000000000000000000000000000000000000000000000169082156108fc029083906000818181858888f193505050501580156105b1573d6000803e3d6000fd5b6000807f7fffffffffffffffffffffffffffffff5d576e7357a4501ddfe92f46681b20a083111561161e57506000905060036116f6565b8460ff16601b1415801561163657508460ff16601c14155b1561164757506000905060046116f6565b6040805160008082526020820180845289905260ff881692820192909252606081018690526080810185905260019060a0016020604051602081039080840390855afa15801561169b573d6000803e3d6000fd5b50506040517fffffffffffffffffffffffffffffffffffffffffffffffffffffffffffffffe0015191505073ffffffffffffffffffffffffffffffffffffffff81166116ef576000600192509250506116f6565b9150600090505b94509492505050565b6000807f7fffffffffffffffffffffffffffffffffffffffffffffffffffffffffffffff831660ff84901c601b01611739878288856115e7565b935093505050935093915050565b60006020828403121561175957600080fd5b5035919050565b803561ffff8116811461177257600080fd5b919050565b73ffffffffffffffffffffffffffffffffffffffff811681146114a157600080fd5b7f4e487b7100000000000000000000000000000000000000000000000000000000600052604160045260246000fd5b604051601f82017fffffffffffffffffffffffffffffffffffffffffffffffffffffffffffffffe016810167ffffffffffffffff8111828210171561180f5761180f611799565b604052919050565b600067ffffffffffffffff82111561183157611831611799565b5060051b60200190565b600082601f83011261184c57600080fd5b8135602061186161185c83611817565b6117c8565b82815260059290921b8401810191818101908684111561188057600080fd5b8286015b8481101561189b5780358352918301918301611884565b509695505050505050565b600080600080600060a086880312156118be57600080fd5b6118c786611760565b94506020808701356118d881611777565b945060408701359350606087013567ffffffffffffffff808211156118fc57600080fd5b818901915089601f83011261191057600080fd5b81358181111561192257611922611799565b611952847fffffffffffffffffffffffffffffffffffffffffffffffffffffffffffffffe0601f840116016117c8565b8181528b8583860101111561196657600080fd5b81858501868301376000918101909401529193506080880135918083111561198d57600080fd5b505061199b8882890161183b565b9150509295509295909350565b600080600080608085870312156119be57600080fd5b6119c785611760565b935060208501356119d781611777565b925060408501359150606085013567ffffffffffffffff8111156119fa57600080fd5b611a068782880161183b565b91505092959194509250565b60008060408385031215611a2557600080fd5b611a2e83611760565b91506020830135611a3e81611777565b809150509250929050565b60008083601f840112611a5b57600080fd5b50813567ffffffffffffffff811115611a7357600080fd5b6020830191508360208260051b850101111561124157600080fd5b600080600060408486031215611aa357600080fd5b833567ffffffffffffffff811115611aba57600080fd5b611ac686828701611a49565b9094509250506020840135611ada81611777565b809150509250925092565b600080600060408486031215611afa57600080fd5b83359250602084013567ffffffffffffffff811115611b1857600080fd5b611b2486828701611a49565b9497909650939450505050565b6101008082528951908201819052600090610120830190602090818d01845b82811015611b8257815173ffffffffffffffffffffffffffffffffffffffff1685529383019390830190600101611b50565b5050508192508a8185015250508760408301528660608301528560808301528460a0830152611bb560c083018515159052565b8260e08301529998505050505050505050565b7f4e487b7100000000000000000000000000000000000000000000000000000000600052601260045260246000fd5b600082611c0657611c06611bc8565b500690565b7f4e487b7100000000000000000000000000000000000000000000000000000000600052601160045260246000fd5b600082611c4957611c49611bc8565b500490565b6000817fffffffffffffffffffffffffffffffffffffffffffffffffffffffffffffffff0483118215151615611c8657611c86611c0b565b500290565b600082821015611c9d57611c9d611c0b565b500390565b7f4e487b7100000000000000000000000000000000000000000000000000000000600052603260045260246000fd5b600060208284031215611ce357600080fd5b6102d382611760565b60007fffffffffffffffffffffffffffffffffffffffffffffffffffffffffffffffff821415611d1e57611d1e611c0b565b5060010190565b6040808252810183905260008460608301825b86811015611d615761ffff611d4c84611760565b16825260209283019290910190600101611d38565b50809250505073ffffffffffffffffffffffffffffffffffffffff83166020830152949350505050565b6020815281602082015260007f07ffffffffffffffffffffffffffffffffffffffffffffffffffffffffffffff831115611dc457600080fd5b8260051b80856040850137600092016040019182525092915050565b60006020808385031215611df357600080fd5b825167ffffffffffffffff811115611e0a57600080fd5b8301601f81018513611e1b57600080fd5b8051611e2961185c82611817565b81815260059190911b82018301908381019087831115611e4857600080fd5b928401925b82841015611e6f578351611e6081611777565b82529284019290840190611e4d565b979650505050505050565b7f4e487b7100000000000000000000000000000000000000000000000000000000600052602160045260246000fdfea2646970667358221220e378235ed66e6e75e6fa87153cdeaddb3c6049d070bd1ac4da44e7058205335f64736f6c63430008090033",
  "devdoc": {
    "kind": "dev",
    "methods": {},
    "version": 1
  },
  "userdoc": {
    "kind": "user",
    "methods": {},
    "version": 1
  },
  "storageLayout": {
    "storage": [
      {
        "astId": 10767,
        "contract": "src/bleeps/BleepsFixedPriceSale.sol:BleepsFixedPriceSale",
        "label": "_uptoInstr",
        "offset": 0,
        "slot": "0",
        "type": "t_uint256"
      },
      {
        "astId": 10771,
        "contract": "src/bleeps/BleepsFixedPriceSale.sol:BleepsFixedPriceSale",
        "label": "_passUsed",
        "offset": 0,
        "slot": "1",
        "type": "t_mapping(t_uint256,t_uint256)"
      }
    ],
    "types": {
      "t_mapping(t_uint256,t_uint256)": {
        "encoding": "mapping",
        "key": "t_uint256",
        "label": "mapping(uint256 => uint256)",
        "numberOfBytes": "32",
        "value": "t_uint256"
      },
      "t_uint256": {
        "encoding": "inplace",
        "label": "uint256",
        "numberOfBytes": "32"
      }
    }
  }
}