{
  "address": "0x93c0360A0A4b358550E91997C56AC2D2E712e20e",
  "abi": [
    {
      "anonymous": false,
      "inputs": [
        {
          "indexed": true,
          "internalType": "address",
          "name": "owner",
          "type": "address"
        },
        {
          "indexed": true,
          "internalType": "address",
          "name": "approved",
          "type": "address"
        },
        {
          "indexed": true,
          "internalType": "uint256",
          "name": "tokenId",
          "type": "uint256"
        }
      ],
      "name": "Approval",
      "type": "event"
    },
    {
      "anonymous": false,
      "inputs": [
        {
          "indexed": true,
          "internalType": "address",
          "name": "owner",
          "type": "address"
        },
        {
          "indexed": true,
          "internalType": "address",
          "name": "operator",
          "type": "address"
        },
        {
          "indexed": false,
          "internalType": "bool",
          "name": "approved",
          "type": "bool"
        }
      ],
      "name": "ApprovalForAll",
      "type": "event"
    },
    {
      "anonymous": false,
      "inputs": [
        {
          "indexed": true,
          "internalType": "address",
          "name": "from",
          "type": "address"
        },
        {
          "indexed": true,
          "internalType": "address",
          "name": "to",
          "type": "address"
        },
        {
          "indexed": true,
          "internalType": "uint256",
          "name": "tokenId",
          "type": "uint256"
        }
      ],
      "name": "Transfer",
      "type": "event"
    },
    {
      "inputs": [],
      "name": "DOMAIN_SEPARATOR",
      "outputs": [
        {
          "internalType": "bytes32",
          "name": "",
          "type": "bytes32"
        }
      ],
      "stateMutability": "view",
      "type": "function"
    },
    {
      "inputs": [],
      "name": "DOMAIN_TYPEHASH",
      "outputs": [
        {
          "internalType": "bytes32",
          "name": "",
          "type": "bytes32"
        }
      ],
      "stateMutability": "view",
      "type": "function"
    },
    {
      "inputs": [],
      "name": "PERMIT_FOR_ALL_TYPEHASH",
      "outputs": [
        {
          "internalType": "bytes32",
          "name": "",
          "type": "bytes32"
        }
      ],
      "stateMutability": "view",
      "type": "function"
    },
    {
      "inputs": [],
      "name": "PERMIT_TYPEHASH",
      "outputs": [
        {
          "internalType": "bytes32",
          "name": "",
          "type": "bytes32"
        }
      ],
      "stateMutability": "view",
      "type": "function"
    },
    {
      "inputs": [
        {
          "internalType": "address",
          "name": "owner",
          "type": "address"
        }
      ],
      "name": "accountNonces",
      "outputs": [
        {
          "internalType": "uint256",
          "name": "nonce",
          "type": "uint256"
        }
      ],
      "stateMutability": "view",
      "type": "function"
    },
    {
      "inputs": [
        {
          "internalType": "address",
          "name": "operator",
          "type": "address"
        },
        {
          "internalType": "uint256",
          "name": "id",
          "type": "uint256"
        }
      ],
      "name": "approve",
      "outputs": [],
      "stateMutability": "nonpayable",
      "type": "function"
    },
    {
      "inputs": [
        {
          "internalType": "address",
          "name": "owner",
          "type": "address"
        }
      ],
      "name": "balanceOf",
      "outputs": [
        {
          "internalType": "uint256",
          "name": "balance",
          "type": "uint256"
        }
      ],
      "stateMutability": "view",
      "type": "function"
    },
    {
      "inputs": [
        {
          "internalType": "uint256",
          "name": "id",
          "type": "uint256"
        }
      ],
      "name": "getApproved",
      "outputs": [
        {
          "internalType": "address",
          "name": "",
          "type": "address"
        }
      ],
      "stateMutability": "view",
      "type": "function"
    },
    {
      "inputs": [
        {
          "internalType": "address",
          "name": "owner",
          "type": "address"
        },
        {
          "internalType": "address",
          "name": "operator",
          "type": "address"
        }
      ],
      "name": "isApprovedForAll",
      "outputs": [
        {
          "internalType": "bool",
          "name": "isOperator",
          "type": "bool"
        }
      ],
      "stateMutability": "view",
      "type": "function"
    },
    {
      "inputs": [
        {
          "internalType": "uint16",
          "name": "id",
          "type": "uint16"
        },
        {
          "internalType": "address",
          "name": "to",
          "type": "address"
        }
      ],
      "name": "mint",
      "outputs": [],
      "stateMutability": "nonpayable",
      "type": "function"
    },
    {
      "inputs": [
        {
          "internalType": "bytes[]",
          "name": "data",
          "type": "bytes[]"
        }
      ],
      "name": "multicall",
      "outputs": [
        {
          "internalType": "bytes[]",
          "name": "results",
          "type": "bytes[]"
        }
      ],
      "stateMutability": "payable",
      "type": "function"
    },
    {
      "inputs": [],
      "name": "name",
      "outputs": [
        {
          "internalType": "string",
          "name": "",
          "type": "string"
        }
      ],
      "stateMutability": "pure",
      "type": "function"
    },
    {
      "inputs": [
        {
          "internalType": "address",
          "name": "owner",
          "type": "address"
        }
      ],
      "name": "nonces",
      "outputs": [
        {
          "internalType": "uint256",
          "name": "nonce",
          "type": "uint256"
        }
      ],
      "stateMutability": "view",
      "type": "function"
    },
    {
      "inputs": [
        {
          "internalType": "uint256[]",
          "name": "ids",
          "type": "uint256[]"
        }
      ],
      "name": "ownerAndLastTransferBlockNumberList",
      "outputs": [
        {
          "components": [
            {
              "internalType": "address",
              "name": "owner",
              "type": "address"
            },
            {
              "internalType": "uint256",
              "name": "lastTransferBlockNumber",
              "type": "uint256"
            }
          ],
          "internalType": "struct ERC721Base.OwnerData[]",
          "name": "ownersData",
          "type": "tuple[]"
        }
      ],
      "stateMutability": "view",
      "type": "function"
    },
    {
      "inputs": [
        {
          "internalType": "uint256",
          "name": "id",
          "type": "uint256"
        }
      ],
      "name": "ownerOf",
      "outputs": [
        {
          "internalType": "address",
          "name": "owner",
          "type": "address"
        }
      ],
      "stateMutability": "view",
      "type": "function"
    },
    {
      "inputs": [
        {
          "internalType": "address",
          "name": "spender",
          "type": "address"
        },
        {
          "internalType": "uint256",
          "name": "id",
          "type": "uint256"
        },
        {
          "internalType": "uint256",
          "name": "deadline",
          "type": "uint256"
        },
        {
          "internalType": "bytes",
          "name": "sig",
          "type": "bytes"
        }
      ],
      "name": "permit",
      "outputs": [],
      "stateMutability": "nonpayable",
      "type": "function"
    },
    {
      "inputs": [
        {
          "internalType": "address",
          "name": "signer",
          "type": "address"
        },
        {
          "internalType": "address",
          "name": "spender",
          "type": "address"
        },
        {
          "internalType": "uint256",
          "name": "deadline",
          "type": "uint256"
        },
        {
          "internalType": "bytes",
          "name": "sig",
          "type": "bytes"
        }
      ],
      "name": "permitForAll",
      "outputs": [],
      "stateMutability": "nonpayable",
      "type": "function"
    },
    {
      "inputs": [
        {
          "internalType": "address",
          "name": "from",
          "type": "address"
        },
        {
          "internalType": "address",
          "name": "to",
          "type": "address"
        },
        {
          "internalType": "uint256",
          "name": "id",
          "type": "uint256"
        }
      ],
      "name": "safeTransferFrom",
      "outputs": [],
      "stateMutability": "nonpayable",
      "type": "function"
    },
    {
      "inputs": [
        {
          "internalType": "address",
          "name": "from",
          "type": "address"
        },
        {
          "internalType": "address",
          "name": "to",
          "type": "address"
        },
        {
          "internalType": "uint256",
          "name": "id",
          "type": "uint256"
        },
        {
          "internalType": "bytes",
          "name": "data",
          "type": "bytes"
        }
      ],
      "name": "safeTransferFrom",
      "outputs": [],
      "stateMutability": "nonpayable",
      "type": "function"
    },
    {
      "inputs": [
        {
          "internalType": "address",
          "name": "operator",
          "type": "address"
        },
        {
          "internalType": "bool",
          "name": "approved",
          "type": "bool"
        }
      ],
      "name": "setApprovalForAll",
      "outputs": [],
      "stateMutability": "nonpayable",
      "type": "function"
    },
    {
      "inputs": [
        {
          "internalType": "bytes4",
          "name": "id",
          "type": "bytes4"
        }
      ],
      "name": "supportsInterface",
      "outputs": [
        {
          "internalType": "bool",
          "name": "",
          "type": "bool"
        }
      ],
      "stateMutability": "pure",
      "type": "function"
    },
    {
      "inputs": [],
      "name": "symbol",
      "outputs": [
        {
          "internalType": "string",
          "name": "",
          "type": "string"
        }
      ],
      "stateMutability": "pure",
      "type": "function"
    },
    {
      "inputs": [
        {
          "internalType": "uint256",
          "name": "id",
          "type": "uint256"
        }
      ],
      "name": "tokenNonces",
      "outputs": [
        {
          "internalType": "uint256",
          "name": "nonce",
          "type": "uint256"
        }
      ],
      "stateMutability": "view",
      "type": "function"
    },
    {
      "inputs": [
        {
          "internalType": "address",
          "name": "from",
          "type": "address"
        },
        {
          "internalType": "address",
          "name": "to",
          "type": "address"
        },
        {
          "internalType": "uint256",
          "name": "id",
          "type": "uint256"
        }
      ],
      "name": "transferFrom",
      "outputs": [],
      "stateMutability": "nonpayable",
      "type": "function"
    }
  ],
  "transactionHash": "0xae0355228dd0dabbb082956bb585a4d05fd773bb963194f18a3a19afcb62e22b",
  "args": [],
  "solcInputHash": "fe2d698dc766749c774f141be3fe643d",
  "bytecode": "0x60c06040523480156200001157600080fd5b5046608081905262000023816200002d565b60a05250620000c0565b60007f8cad95687ba82c2ce50e74f7b754645e5117c3a5bec8151c0726d5857980a8666200007960408051808201909152600b81526a4d616e64616c614d6f636b60a81b602082015290565b80516020918201206040805192830193909352918101919091526060810183905230608082015260a001604051602081830303815290604052805190602001209050919050565b60805160a051612b18620000e660003960006119fb015260006119c60152612b186000f3fe60806040526004361061018b5760003560e01c806370a08231116100d6578063ab84ee6f1161007f578063b88d4fde11610059578063b88d4fde146104ba578063e985e9c5146104da578063f39452821461053057600080fd5b8063ab84ee6f1461045a578063ac9650d81461047a578063adc5fcc21461049a57600080fd5b806395d89b41116100b057806395d89b41146101c55780639c2055131461041a578063a22cb4651461043a57600080fd5b806370a08231146103da578063745a41bc146103fa5780637ecebe001461034357600080fd5b806330adf81f11610138578063580f6da211610112578063580f6da214610343578063585956d6146103865780636352211e146103ba57600080fd5b806330adf81f146102da5780633644e5151461030e57806342842e0e1461032357600080fd5b8063095ea7b311610169578063095ea7b31461025657806320606b701461027857806323b872dd146102ba57600080fd5b806301ffc9a71461019057806306fdde03146101c5578063081812fc14610211575b600080fd5b34801561019c57600080fd5b506101b06101ab366004612366565b61055d565b60405190151581526020015b60405180910390f35b3480156101d157600080fd5b50604080518082018252600b81527f4d616e64616c614d6f636b000000000000000000000000000000000000000000602082015290516101bc91906123f9565b34801561021d57600080fd5b5061023161022c36600461240c565b610642565b60405173ffffffffffffffffffffffffffffffffffffffff90911681526020016101bc565b34801561026257600080fd5b50610276610271366004612449565b610733565b005b34801561028457600080fd5b506102ac7f8cad95687ba82c2ce50e74f7b754645e5117c3a5bec8151c0726d5857980a86681565b6040519081526020016101bc565b3480156102c657600080fd5b506102766102d5366004612473565b61089d565b3480156102e657600080fd5b506102ac7f49ecf333e5b8c95c40fdafc95c1ad136e8914a8fb55e9dc8bb01eaa83a2df9ad81565b34801561031a57600080fd5b506102ac610be0565b34801561032f57600080fd5b5061027661033e366004612473565b610bef565b34801561034f57600080fd5b506102ac61035e3660046124af565b73ffffffffffffffffffffffffffffffffffffffff1660009081526005602052604090205490565b34801561039257600080fd5b506102ac7f29795620f29ed5790c945e3f419a1b3e2381aa07751ccffe5b81231639d74cd581565b3480156103c657600080fd5b506102316103d536600461240c565b610c0f565b3480156103e657600080fd5b506102ac6103f53660046124af565b610ca0565b34801561040657600080fd5b506102766104153660046125e4565b610d48565b34801561042657600080fd5b50610276610435366004612645565b610e94565b34801561044657600080fd5b50610276610455366004612681565b611043565b34801561046657600080fd5b506102766104753660046126bd565b611052565b61048d610488366004612752565b61110f565b6040516101bc9190612794565b3480156104a657600080fd5b506102ac6104b536600461240c565b611281565b3480156104c657600080fd5b506102766104d53660046126bd565b611334565b3480156104e657600080fd5b506101b06104f5366004612814565b73ffffffffffffffffffffffffffffffffffffffff918216600090815260026020908152604080832093909416825291909152205460ff1690565b34801561053c57600080fd5b5061055061054b366004612752565b611671565b6040516101bc9190612830565b60007f01ffc9a7000000000000000000000000000000000000000000000000000000007fffffffff00000000000000000000000000000000000000000000000000000000831614806105f057507f80ac58cd000000000000000000000000000000000000000000000000000000007fffffffff000000000000000000000000000000000000000000000000000000008316145b8061063c57507f5b5e139f000000000000000000000000000000000000000000000000000000007fffffffff000000000000000000000000000000000000000000000000000000008316145b92915050565b6000818152602081905260408120547f80000000000000000000000000000000000000000000000000000000000000008082161473ffffffffffffffffffffffffffffffffffffffff82166106f8576040517f08c379a000000000000000000000000000000000000000000000000000000000815260206004820152601160248201527f4e4f4e4558495354454e545f544f4b454e00000000000000000000000000000060448201526064015b60405180910390fd5b80156107295750505060009081526003602052604090205473ffffffffffffffffffffffffffffffffffffffff1690565b5060009392505050565b6000818152602081905260409020546affffffffffffffffffffff60a082901c1673ffffffffffffffffffffffffffffffffffffffff82166107d1576040517f08c379a000000000000000000000000000000000000000000000000000000000815260206004820152601160248201527f4e4f4e4558495354454e545f544f4b454e00000000000000000000000000000060448201526064016106ef565b3373ffffffffffffffffffffffffffffffffffffffff83161480610825575073ffffffffffffffffffffffffffffffffffffffff8216600090815260026020908152604080832033845290915290205460ff165b61088b576040517f08c379a000000000000000000000000000000000000000000000000000000000815260206004820152601560248201527f554e415554484f52495a45445f415050524f56414c000000000000000000000060448201526064016106ef565b610897828286866117a4565b50505050565b6000818152602081905260409020547f80000000000000000000000000000000000000000000000000000000000000008082161473ffffffffffffffffffffffffffffffffffffffff821661094e576040517f08c379a000000000000000000000000000000000000000000000000000000000815260206004820152601160248201527f4e4f4e4558495354454e545f544f4b454e00000000000000000000000000000060448201526064016106ef565b8473ffffffffffffffffffffffffffffffffffffffff168273ffffffffffffffffffffffffffffffffffffffff16146109e3576040517f08c379a000000000000000000000000000000000000000000000000000000000815260206004820152600960248201527f4e4f545f4f574e4552000000000000000000000000000000000000000000000060448201526064016106ef565b73ffffffffffffffffffffffffffffffffffffffff8416610a60576040517f08c379a000000000000000000000000000000000000000000000000000000000815260206004820152601260248201527f4e4f545f544f5f5a45524f41444452455353000000000000000000000000000060448201526064016106ef565b73ffffffffffffffffffffffffffffffffffffffff8416301415610ae0576040517f08c379a000000000000000000000000000000000000000000000000000000000815260206004820152600b60248201527f4e4f545f544f5f5448495300000000000000000000000000000000000000000060448201526064016106ef565b3373ffffffffffffffffffffffffffffffffffffffff861614610bce57808015610b2d575060008381526003602052604090205473ffffffffffffffffffffffffffffffffffffffff1633145b80610b68575073ffffffffffffffffffffffffffffffffffffffff8516600090815260026020908152604080832033845290915290205460ff165b610bce576040517f08c379a000000000000000000000000000000000000000000000000000000000815260206004820152601560248201527f554e415554484f52495a45445f5452414e53464552000000000000000000000060448201526064016106ef565b610bd98585856118dd565b5050505050565b6000610bea6119c1565b905090565b610c0a83838360405180602001604052806000815250611334565b505050565b60008181526020819052604090205473ffffffffffffffffffffffffffffffffffffffff8116610c9b576040517f08c379a000000000000000000000000000000000000000000000000000000000815260206004820152601160248201527f4e4f4e4558495354454e545f544f4b454e00000000000000000000000000000060448201526064016106ef565b919050565b600073ffffffffffffffffffffffffffffffffffffffff8216610d1f576040517f08c379a000000000000000000000000000000000000000000000000000000000815260206004820152601260248201527f5a45524f5f414444524553535f4f574e4552000000000000000000000000000060448201526064016106ef565b5073ffffffffffffffffffffffffffffffffffffffff1660009081526001602052604090205490565b42821015610db2576040517f08c379a000000000000000000000000000000000000000000000000000000000815260206004820152601760248201527f5045524d49545f444541444c494e455f4558504952454400000000000000000060448201526064016106ef565b6000838152602081905260409020546affffffffffffffffffffff60a082901c1673ffffffffffffffffffffffffffffffffffffffff8216610e50576040517f08c379a000000000000000000000000000000000000000000000000000000000815260206004820152601160248201527f4e4f4e4558495354454e545f544f4b454e00000000000000000000000000000060448201526064016106ef565b60008581526004602052604081208054610e809285928a928a928a9290610e7683612895565b9190505588611a21565b610e8c828288886117a4565b505050505050565b73ffffffffffffffffffffffffffffffffffffffff8116610f11576040517f08c379a000000000000000000000000000000000000000000000000000000000815260206004820152601260248201527f4e4f545f544f5f5a45524f41444452455353000000000000000000000000000060448201526064016106ef565b73ffffffffffffffffffffffffffffffffffffffff8116301415610f91576040517f08c379a000000000000000000000000000000000000000000000000000000000815260206004820152600b60248201527f4e4f545f544f5f5448495300000000000000000000000000000000000000000060448201526064016106ef565b61ffff821660009081526020819052604090205473ffffffffffffffffffffffffffffffffffffffff811615611023576040517f08c379a000000000000000000000000000000000000000000000000000000000815260206004820152600f60248201527f414c52454144595f43524541544544000000000000000000000000000000000060448201526064016106ef565b610c0a6000838561ffff1660405180602001604052806000815250611b75565b61104e338383611c10565b5050565b428210156110bc576040517f08c379a000000000000000000000000000000000000000000000000000000000815260206004820152601760248201527f5045524d49545f444541444c494e455f4558504952454400000000000000000060448201526064016106ef565b73ffffffffffffffffffffffffffffffffffffffff841660009081526005602052604081208054611103928792879287929091906110f983612895565b9190505585611ca8565b61089784846001611c10565b60608167ffffffffffffffff81111561112a5761112a6124ca565b60405190808252806020026020018201604052801561115d57816020015b60608152602001906001900390816111485790505b50905060005b8281101561127a5760008030868685818110611181576111816128f5565b90506020028101906111939190612924565b6040516111a1929190612989565b600060405180830381855af49150503d80600081146111dc576040519150601f19603f3d011682016040523d82523d6000602084013e6111e1565b606091505b509150915081611247576044815110156111fa57600080fd5b600481019050808060200190518101906112149190612999565b6040517f08c379a00000000000000000000000000000000000000000000000000000000081526004016106ef91906123f9565b8084848151811061125a5761125a6128f5565b60200260200101819052505050808061127290612895565b915050611163565b5092915050565b6000818152602081905260408120546affffffffffffffffffffff60a082901c1673ffffffffffffffffffffffffffffffffffffffff821661131f576040517f08c379a000000000000000000000000000000000000000000000000000000000815260206004820152601160248201527f4e4f4e4558495354454e545f544f4b454e00000000000000000000000000000060448201526064016106ef565b50505060009081526004602052604090205490565b6000828152602081905260409020547f80000000000000000000000000000000000000000000000000000000000000008082161473ffffffffffffffffffffffffffffffffffffffff82166113e5576040517f08c379a000000000000000000000000000000000000000000000000000000000815260206004820152601160248201527f4e4f4e4558495354454e545f544f4b454e00000000000000000000000000000060448201526064016106ef565b8573ffffffffffffffffffffffffffffffffffffffff168273ffffffffffffffffffffffffffffffffffffffff161461147a576040517f08c379a000000000000000000000000000000000000000000000000000000000815260206004820152600960248201527f4e4f545f4f574e4552000000000000000000000000000000000000000000000060448201526064016106ef565b73ffffffffffffffffffffffffffffffffffffffff85166114f7576040517f08c379a000000000000000000000000000000000000000000000000000000000815260206004820152601260248201527f4e4f545f544f5f5a45524f41444452455353000000000000000000000000000060448201526064016106ef565b73ffffffffffffffffffffffffffffffffffffffff8516301415611577576040517f08c379a000000000000000000000000000000000000000000000000000000000815260206004820152600b60248201527f4e4f545f544f5f5448495300000000000000000000000000000000000000000060448201526064016106ef565b3373ffffffffffffffffffffffffffffffffffffffff871614611665578080156115c4575060008481526003602052604090205473ffffffffffffffffffffffffffffffffffffffff1633145b806115ff575073ffffffffffffffffffffffffffffffffffffffff8616600090815260026020908152604080832033845290915290205460ff165b611665576040517f08c379a000000000000000000000000000000000000000000000000000000000815260206004820152601560248201527f554e415554484f52495a45445f5452414e53464552000000000000000000000060448201526064016106ef565b610e8c86868686611b75565b60608167ffffffffffffffff81111561168c5761168c6124ca565b6040519080825280602002602001820160405280156116d157816020015b60408051808201909152600080825260208201528152602001906001900390816116aa5790505b50905060005b8281101561127a5760008060008686858181106116f6576116f66128f5565b90506020020135815260200190815260200160002054905080838381518110611721576117216128f5565b60200260200101516000019073ffffffffffffffffffffffffffffffffffffffff16908173ffffffffffffffffffffffffffffffffffffffff168152505060a081901c6affffffffffffffffffffff16838381518110611783576117836128f5565b6020908102919091018101510152508061179c81612895565b9150506116d7565b73ffffffffffffffffffffffffffffffffffffffff82166117f157600081815260208190526040902060a084901b73ffffffffffffffffffffffffffffffffffffffff861617905561187c565b6000818152602081815260408083207f800000000000000000000000000000000000000000000000000000000000000073ffffffffffffffffffffffffffffffffffffffff89811660a08a901b1791909117909155600390925290912080547fffffffffffffffffffffffff0000000000000000000000000000000000000000169184169190911790555b808273ffffffffffffffffffffffffffffffffffffffff168573ffffffffffffffffffffffffffffffffffffffff167f8c5be1e5ebec7d5bd14f71427d1e84f3dd0314c0f7b2291e5b200ac8c7c3b92560405160405180910390a450505050565b73ffffffffffffffffffffffffffffffffffffffff8083166000908152600160208190526040909120805490910190558316156119605773ffffffffffffffffffffffffffffffffffffffff8316600090815260016020526040902080547fffffffffffffffffffffffffffffffffffffffffffffffffffffffffffffffff0190555b6000818152602081905260408082204360a01b73ffffffffffffffffffffffffffffffffffffffff80871691821790925591518493918716917fddf252ad1be2c89b69c2b068fc378daa952ba7f163c4a11628f55a4df523b3ef91a4505050565b6000467f000000000000000000000000000000000000000000000000000000000000000081146119f9576119f481611dec565b611a1b565b7f00000000000000000000000000000000000000000000000000000000000000005b91505090565b6000611a2b6119c1565b604080517f49ecf333e5b8c95c40fdafc95c1ad136e8914a8fb55e9dc8bb01eaa83a2df9ad602082015273ffffffffffffffffffffffffffffffffffffffff891691810191909152606081018790526080810185905260a0810186905260c00160405160208183030381529060405280519060200120604051602001611ae39291907f190100000000000000000000000000000000000000000000000000000000000081526002810192909252602282015260420190565b604051602081830303815290604052805190602001209050611b06878284611e90565b611b6c576040517f08c379a000000000000000000000000000000000000000000000000000000000815260206004820152601160248201527f494e56414c49445f5349474e415455524500000000000000000000000000000060448201526064016106ef565b50505050505050565b611b808484846118dd565b73ffffffffffffffffffffffffffffffffffffffff83163b1561089757611baa3385858585612081565b610897576040517f08c379a000000000000000000000000000000000000000000000000000000000815260206004820152601860248201527f4552433732315f5452414e534645525f52454a4543544544000000000000000060448201526064016106ef565b73ffffffffffffffffffffffffffffffffffffffff83811660008181526002602090815260408083209487168084529482529182902080547fffffffffffffffffffffffffffffffffffffffffffffffffffffffffffffff001686151590811790915591519182527f17307eab39ab6107e8899845ad3d59bd9653f200f220920489ca2b5937696c31910160405180910390a3505050565b6000611cb26119c1565b604080517f29795620f29ed5790c945e3f419a1b3e2381aa07751ccffe5b81231639d74cd5602082015273ffffffffffffffffffffffffffffffffffffffff881691810191909152606081018590526080810186905260a00160405160208183030381529060405280519060200120604051602001611d639291907f190100000000000000000000000000000000000000000000000000000000000081526002810192909252602282015260420190565b604051602081830303815290604052805190602001209050611d86868284611e90565b610e8c576040517f08c379a000000000000000000000000000000000000000000000000000000000815260206004820152601160248201527f494e56414c49445f5349474e415455524500000000000000000000000000000060448201526064016106ef565b60007f8cad95687ba82c2ce50e74f7b754645e5117c3a5bec8151c0726d5857980a866611e4960408051808201909152600b81527f4d616e64616c614d6f636b000000000000000000000000000000000000000000602082015290565b80516020918201206040805192830193909352918101919091526060810183905230608082015260a001604051602081830303815290604052805190602001209050919050565b6000806000611e9f8585612165565b90925090506000816004811115611eb857611eb8612a10565b148015611ef057508573ffffffffffffffffffffffffffffffffffffffff168273ffffffffffffffffffffffffffffffffffffffff16145b15611f005760019250505061207a565b6000808773ffffffffffffffffffffffffffffffffffffffff16631626ba7e60e01b8888604051602401611f35929190612a3f565b604080517fffffffffffffffffffffffffffffffffffffffffffffffffffffffffffffffe08184030181529181526020820180517bffffffffffffffffffffffffffffffffffffffffffffffffffffffff167fffffffff00000000000000000000000000000000000000000000000000000000909416939093179092529051611fbe9190612a60565b600060405180830381855afa9150503d8060008114611ff9576040519150601f19603f3d011682016040523d82523d6000602084013e611ffe565b606091505b5091509150818015612011575080516020145b8015612073575080517f1626ba7e000000000000000000000000000000000000000000000000000000009061204f9083016020908101908401612a7c565b7fffffffff0000000000000000000000000000000000000000000000000000000016145b9450505050505b9392505050565b6000808473ffffffffffffffffffffffffffffffffffffffff1663150b7a02888887876040518563ffffffff1660e01b81526004016120c39493929190612a99565b602060405180830381600087803b1580156120dd57600080fd5b505af11580156120f1573d6000803e3d6000fd5b505050506040513d601f19601f820116820180604052508101906121159190612a7c565b7fffffffff00000000000000000000000000000000000000000000000000000000167f150b7a02000000000000000000000000000000000000000000000000000000001491505095945050505050565b60008082516041141561219c5760208301516040840151606085015160001a612190878285856121d5565b945094505050506121ce565b8251604014156121c657602083015160408401516121bb8683836122ed565b9350935050506121ce565b506000905060025b9250929050565b6000807f7fffffffffffffffffffffffffffffff5d576e7357a4501ddfe92f46681b20a083111561220c57506000905060036122e4565b8460ff16601b1415801561222457508460ff16601c14155b1561223557506000905060046122e4565b6040805160008082526020820180845289905260ff881692820192909252606081018690526080810185905260019060a0016020604051602081039080840390855afa158015612289573d6000803e3d6000fd5b50506040517fffffffffffffffffffffffffffffffffffffffffffffffffffffffffffffffe0015191505073ffffffffffffffffffffffffffffffffffffffff81166122dd576000600192509250506122e4565b9150600090505b94509492505050565b6000807f7fffffffffffffffffffffffffffffffffffffffffffffffffffffffffffffff831660ff84901c601b01612327878288856121d5565b935093505050935093915050565b7fffffffff000000000000000000000000000000000000000000000000000000008116811461236357600080fd5b50565b60006020828403121561237857600080fd5b813561207a81612335565b60005b8381101561239e578181015183820152602001612386565b838111156108975750506000910152565b600081518084526123c7816020860160208601612383565b601f017fffffffffffffffffffffffffffffffffffffffffffffffffffffffffffffffe0169290920160200192915050565b60208152600061207a60208301846123af565b60006020828403121561241e57600080fd5b5035919050565b803573ffffffffffffffffffffffffffffffffffffffff81168114610c9b57600080fd5b6000806040838503121561245c57600080fd5b61246583612425565b946020939093013593505050565b60008060006060848603121561248857600080fd5b61249184612425565b925061249f60208501612425565b9150604084013590509250925092565b6000602082840312156124c157600080fd5b61207a82612425565b7f4e487b7100000000000000000000000000000000000000000000000000000000600052604160045260246000fd5b604051601f82017fffffffffffffffffffffffffffffffffffffffffffffffffffffffffffffffe016810167ffffffffffffffff81118282101715612540576125406124ca565b604052919050565b600067ffffffffffffffff821115612562576125626124ca565b50601f017fffffffffffffffffffffffffffffffffffffffffffffffffffffffffffffffe01660200190565b600082601f83011261259f57600080fd5b81356125b26125ad82612548565b6124f9565b8181528460208386010111156125c757600080fd5b816020850160208301376000918101602001919091529392505050565b600080600080608085870312156125fa57600080fd5b61260385612425565b93506020850135925060408501359150606085013567ffffffffffffffff81111561262d57600080fd5b6126398782880161258e565b91505092959194509250565b6000806040838503121561265857600080fd5b823561ffff8116811461266a57600080fd5b915061267860208401612425565b90509250929050565b6000806040838503121561269457600080fd5b61269d83612425565b9150602083013580151581146126b257600080fd5b809150509250929050565b600080600080608085870312156126d357600080fd5b6126dc85612425565b93506126ea60208601612425565b925060408501359150606085013567ffffffffffffffff81111561262d57600080fd5b60008083601f84011261271f57600080fd5b50813567ffffffffffffffff81111561273757600080fd5b6020830191508360208260051b85010111156121ce57600080fd5b6000806020838503121561276557600080fd5b823567ffffffffffffffff81111561277c57600080fd5b6127888582860161270d565b90969095509350505050565b6000602080830181845280855180835260408601915060408160051b870101925083870160005b82811015612807577fffffffffffffffffffffffffffffffffffffffffffffffffffffffffffffffc08886030184526127f58583516123af565b945092850192908501906001016127bb565b5092979650505050505050565b6000806040838503121561282757600080fd5b61266a83612425565b602080825282518282018190526000919060409081850190868401855b82811015612888578151805173ffffffffffffffffffffffffffffffffffffffff16855286015186850152928401929085019060010161284d565b5091979650505050505050565b60007fffffffffffffffffffffffffffffffffffffffffffffffffffffffffffffffff8214156128ee577f4e487b7100000000000000000000000000000000000000000000000000000000600052601160045260246000fd5b5060010190565b7f4e487b7100000000000000000000000000000000000000000000000000000000600052603260045260246000fd5b60008083357fffffffffffffffffffffffffffffffffffffffffffffffffffffffffffffffe184360301811261295957600080fd5b83018035915067ffffffffffffffff82111561297457600080fd5b6020019150368190038213156121ce57600080fd5b8183823760009101908152919050565b6000602082840312156129ab57600080fd5b815167ffffffffffffffff8111156129c257600080fd5b8201601f810184136129d357600080fd5b80516129e16125ad82612548565b8181528560208385010111156129f657600080fd5b612a07826020830160208601612383565b95945050505050565b7f4e487b7100000000000000000000000000000000000000000000000000000000600052602160045260246000fd5b828152604060208201526000612a5860408301846123af565b949350505050565b60008251612a72818460208701612383565b9190910192915050565b600060208284031215612a8e57600080fd5b815161207a81612335565b600073ffffffffffffffffffffffffffffffffffffffff808716835280861660208401525083604083015260806060830152612ad860808301846123af565b969550505050505056fea26469706673582212203cb597fb5e6b7a0d46810a77e49a5f55676ffd580cae29644f25f2988bddd61664736f6c63430008090033",
  "devdoc": {
    "kind": "dev",
    "methods": {
      "DOMAIN_SEPARATOR()": {
        "details": "Return the DOMAIN_SEPARATOR."
      },
      "approve(address,uint256)": {
        "params": {
          "id": "The id of the token.",
          "operator": "The address receiving the approval."
        }
      },
      "balanceOf(address)": {
        "params": {
          "owner": "The address to look for."
        },
        "returns": {
          "balance": "The number of tokens owned by the address."
        }
      },
      "getApproved(uint256)": {
        "params": {
          "id": "The id of the token."
        },
        "returns": {
          "_0": "The address of the operator."
        }
      },
      "isApprovedForAll(address,address)": {
        "params": {
          "operator": "The address of the operator.",
          "owner": "The address of the owner."
        },
        "returns": {
          "isOperator": "The status of the approval."
        }
      },
      "multicall(bytes[])": {
        "details": "The `msg.value` should not be trusted for any method callable from multicall.",
        "params": {
          "data": "The encoded function data for each of the calls to make to this contract."
        },
        "returns": {
          "results": "The results from each of the calls passed in via data."
        }
      },
      "ownerAndLastTransferBlockNumberList(uint256[])": {
        "params": {
          "ids": "The list of token ids to check."
        },
        "returns": {
          "ownersData": "The list of (owner, lastTransferBlockNumber) for each ids given as input."
        }
      },
      "ownerOf(uint256)": {
        "params": {
          "id": "The id of the token."
        },
        "returns": {
          "owner": "The address of the token owner."
        }
      },
      "safeTransferFrom(address,address,uint256)": {
        "params": {
          "from": "The send of the token.",
          "id": "The id of the token.",
          "to": "The recipient of the token."
        }
      },
      "safeTransferFrom(address,address,uint256,bytes)": {
        "params": {
          "data": "Additional data.",
          "from": "The sender of the token.",
          "id": "The id of the token.",
          "to": "The recipient of the token."
        }
      },
      "setApprovalForAll(address,bool)": {
        "params": {
          "approved": "The determination of the approval.",
          "operator": "The address receiving the approval."
        }
      },
      "supportsInterface(bytes4)": {
        "params": {
          "id": "The id of the interface."
        },
        "returns": {
          "_0": "Whether the interface is supported."
        }
      },
      "transferFrom(address,address,uint256)": {
        "params": {
          "from": "The sender of the token.",
          "id": "The id of the token.",
          "to": "The recipient of the token."
        }
      }
    },
    "version": 1
  },
  "userdoc": {
    "kind": "user",
    "methods": {
      "approve(address,uint256)": {
        "notice": "Approve an operator to transfer a specific token on the senders behalf."
      },
      "balanceOf(address)": {
        "notice": "Get the number of tokens owned by an address."
      },
      "getApproved(uint256)": {
        "notice": "Get the approved operator for a specific token."
      },
      "isApprovedForAll(address,address)": {
        "notice": "Check if the sender approved the operator."
      },
      "multicall(bytes[])": {
        "notice": "Call multiple functions in the current contract and return the data from all of them if they all succeed."
      },
      "name()": {
        "notice": "A descriptive name for a collection of NFTs in this contract"
      },
      "ownerAndLastTransferBlockNumberList(uint256[])": {
        "notice": "Get the list of owner of a token and the blockNumber of its last transfer, useful to voting mechanism."
      },
      "ownerOf(uint256)": {
        "notice": "Get the owner of a token."
      },
      "safeTransferFrom(address,address,uint256)": {
        "notice": "Transfer a token between 2 addresses letting the receiver know of the transfer."
      },
      "safeTransferFrom(address,address,uint256,bytes)": {
        "notice": "Transfer a token between 2 addresses letting the receiver knows of the transfer."
      },
      "setApprovalForAll(address,bool)": {
        "notice": "Set the approval for an operator to manage all the tokens of the sender."
      },
      "supportsInterface(bytes4)": {
        "notice": "Check if the contract supports an interface."
      },
      "symbol()": {
        "notice": "An abbreviated name for NFTs in this contract"
      },
      "transferFrom(address,address,uint256)": {
        "notice": "Transfer a token between 2 addresses."
      }
    },
    "version": 1
  },
  "storageLayout": {
    "storage": [
      {
        "astId": 6429,
        "contract": "src/mock/MandalaTokenMock.sol:MandalaTokenMock",
        "label": "_owners",
        "offset": 0,
        "slot": "0",
        "type": "t_mapping(t_uint256,t_uint256)"
      },
      {
        "astId": 6433,
        "contract": "src/mock/MandalaTokenMock.sol:MandalaTokenMock",
        "label": "_balances",
        "offset": 0,
        "slot": "1",
        "type": "t_mapping(t_address,t_uint256)"
      },
      {
        "astId": 6439,
        "contract": "src/mock/MandalaTokenMock.sol:MandalaTokenMock",
        "label": "_operatorsForAll",
        "offset": 0,
        "slot": "2",
        "type": "t_mapping(t_address,t_mapping(t_address,t_bool))"
      },
      {
        "astId": 6443,
        "contract": "src/mock/MandalaTokenMock.sol:MandalaTokenMock",
        "label": "_operators",
        "offset": 0,
        "slot": "3",
        "type": "t_mapping(t_uint256,t_address)"
      },
      {
        "astId": 7761,
        "contract": "src/mock/MandalaTokenMock.sol:MandalaTokenMock",
        "label": "_tokenNonces",
        "offset": 0,
        "slot": "4",
        "type": "t_mapping(t_uint256,t_uint256)"
      },
      {
        "astId": 7765,
        "contract": "src/mock/MandalaTokenMock.sol:MandalaTokenMock",
        "label": "_userNonces",
        "offset": 0,
        "slot": "5",
        "type": "t_mapping(t_address,t_uint256)"
      }
    ],
    "types": {
      "t_address": {
        "encoding": "inplace",
        "label": "address",
        "numberOfBytes": "20"
      },
      "t_bool": {
        "encoding": "inplace",
        "label": "bool",
        "numberOfBytes": "1"
      },
      "t_mapping(t_address,t_bool)": {
        "encoding": "mapping",
        "key": "t_address",
        "label": "mapping(address => bool)",
        "numberOfBytes": "32",
        "value": "t_bool"
      },
      "t_mapping(t_address,t_mapping(t_address,t_bool))": {
        "encoding": "mapping",
        "key": "t_address",
        "label": "mapping(address => mapping(address => bool))",
        "numberOfBytes": "32",
        "value": "t_mapping(t_address,t_bool)"
      },
      "t_mapping(t_address,t_uint256)": {
        "encoding": "mapping",
        "key": "t_address",
        "label": "mapping(address => uint256)",
        "numberOfBytes": "32",
        "value": "t_uint256"
      },
      "t_mapping(t_uint256,t_address)": {
        "encoding": "mapping",
        "key": "t_uint256",
        "label": "mapping(uint256 => address)",
        "numberOfBytes": "32",
        "value": "t_address"
      },
      "t_mapping(t_uint256,t_uint256)": {
        "encoding": "mapping",
        "key": "t_uint256",
        "label": "mapping(uint256 => uint256)",
        "numberOfBytes": "32",
        "value": "t_uint256"
      },
      "t_uint256": {
        "encoding": "inplace",
        "label": "uint256",
        "numberOfBytes": "32"
      }
    }
  }
}