{
  "address": "0xB5D95243Bc09e3C9059d381cDc2988011D43D8Cc",
  "abi": [
    {
      "inputs": [
        {
          "internalType": "address",
          "name": "receiver",
          "type": "address"
        },
        {
          "internalType": "uint96",
          "name": "per10Thousands",
          "type": "uint96"
        }
      ],
      "name": "contractURI",
      "outputs": [
        {
          "internalType": "string",
          "name": "",
          "type": "string"
        }
      ],
      "stateMutability": "pure",
      "type": "function"
    },
    {
      "inputs": [
        {
          "internalType": "bytes32",
          "name": "d1",
          "type": "bytes32"
        },
        {
          "internalType": "bytes32",
          "name": "d2",
          "type": "bytes32"
        },
        {
          "internalType": "uint8",
          "name": "speed",
          "type": "uint8"
        },
        {
          "internalType": "string",
          "name": "name",
          "type": "string"
        }
      ],
      "name": "tokenURI",
      "outputs": [
        {
          "internalType": "string",
          "name": "",
          "type": "string"
        }
      ],
      "stateMutability": "pure",
      "type": "function"
    }
  ],
  "transactionHash": "0x32c6c296469f73a7fc763cc1565e1b3b7831d8ae4e33f69ee0831c745dce1a34",
  "args": [],
  "numDeployments": 1,
  "solcInputHash": "033e5259db8a7b30206c03a47d8d035b",
  "bytecode": "0x608060405234801561001057600080fd5b506143f8806100206000396000f3fe608060405234801561001057600080fd5b50600436106100365760003560e01c80630214125d1461003b578063cc4c332414610064575b600080fd5b61004e610049366004610dd1565b610077565b60405161005b9190610e9d565b60405180910390f35b61004e610072366004610eee565b6100c5565b60606100bb86868686868080601f01602080910402602001604051908101604052809392919081815260200183838082843760009201919091525061012892505050565b9695505050505050565b60606100de826bffffffffffffffffffffffff16610762565b6100ff73ffffffffffffffffffffffffffffffffffffffff8516601461089c565b604051602001610110929190610f6d565b60405160208183030381529060405290505b92915050565b604080516207a1208082526207a140820190925260609160009190602082018180368337019050509050600061015e8285610aea565b9050600060405180606001604052806040815260200161438360409139905060008061018b846020613d6e565b90506001830191508085019050600060405180610120016040528060fc815260200161428760fc9139905060006003611cb6612af86101ce60ff8e16603d613d86565b6101d89190613d86565b6101e3906020613d86565b6101ed9190613df2565b6101f8906001613d6e565b610203906003613d86565b61020d9190613df2565b60408051600480825260a0820190925291925060009190602082016080803683370190505090506000805b8381101561074257610258565b806000811215610253576000035b919050565b6020840481048f600f82111561029a57507ffffffffffffffffffffffffffffffffffffffffffffffffffffffffffffffff0018e600f82111561029a57600f91505b6003603f600f9384036010029290921c91821602870160200151612af860e89190911c612710020491600a82901c6007166064029160061c166000805b60038110156106e557600087156106cc578361032e57610303620f42406002620f42408b060203610245565b60029081027ffffffffffffffffffffffffffffffffffffffffffffffffffffffffffff0bdc0010590505b60018414156103b057620f42408807620d59f8811215610352576007601082020591505b620d59f881131561036957601081620f4240030291505b620d59f881141561038057601081620f4240030291505b50620f42407ffffffffffffffffffffffffffffffffffffffffffffffffffffffffffff0bdc09091016207a12002055b60028414156103ea5750620f42407ffffffffffffffffffffffffffffffffffffffffffffffffffffffffffff85ee081890701620aae6002055b600384141561043357507ffffffffffffffffffffffffffffffffffffffffffffffffffffffffffff0bdc0620f424088076207a12081101561042d57620f424091505b50600490055b600484141561047c57507ffffffffffffffffffffffffffffffffffffffffffffffffffffffffffff0bdc0620f424088076204c4b481101561047657620f424091505b50600490055b60058414156104db57600488029050620f42406207a120620186a06207a12060026207a1206104be620f4240621e8480620f42406207a1208b02050703610245565b03056104d3620f4240621e8480880703610245565b010303020590505b600684141561054957506002878102906203d090906207a12061052a7ffffffffffffffffffffffffffffffffffffffffffffffffffffffffffff0bdc0621e8480608060fe8f02050701610245565b0305036207a120610544620f4240621e8480850703610245565b030190505b600784141561064657602089015160408a015160608b015160808c01516380000000613039856341c64e6d020106935062027100623d0900848e03020482915080620f424001620f42406380000000621e848088020403828401020592508c93506305f5e1006064820260af0360036004868601020502059550507ffffffffffffffffffffffffffffffffffffffffffffffffffffffffffff0bdc0851215610610577ffffffffffffffffffffffffffffffffffffffffffffffffffffffffffff0bdc094505b620f424085131561062257620f424094505b60208d019390935260408c019190915260608b015260808a0152600a600591909102055b60088414156106b35750600760056002621e8480608060fe8c02058190077fffffffffffffffffffffffffffffffffffffffffffffffffffffffffffe91ca001829005918b0207017fffffffffffffffffffffffffffffffffffffffffffffffffffffffffffe54c100102055b6102bc8582020590506080621e84806101008302050190505b96850196600882026010031b91909101906001016102d7565b50603f8160121c168b01518a5360018a019950603f81600c1c168b01518a5360018a019950603f8160061c168b01518a5360018a019950603f81168b01518a53505050600196909601955061073b600382613d6e565b9050610238565b50610750898688868c610bb1565b50969c9b505050505050505050505050565b6060816107a257505060408051808201909152600181527f3000000000000000000000000000000000000000000000000000000000000000602082015290565b8160005b81156107cc57806107b681613e06565b91506107c59050600a83613df2565b91506107a6565b60008167ffffffffffffffff8111156107e7576107e7613d10565b6040519080825280601f01601f191660200182016040528015610811576020820181803683370190505b5090505b841561089457610826600183613e3f565b9150610833600a86613e56565b61083e906030613d6e565b60f81b81838151811061085357610853613e6a565b60200101907effffffffffffffffffffffffffffffffffffffffffffffffffffffffffffff1916908160001a90535061088d600a86613df2565b9450610815565b949350505050565b606060006108ab836002613d86565b6108b6906002613d6e565b67ffffffffffffffff8111156108ce576108ce613d10565b6040519080825280601f01601f1916602001820160405280156108f8576020820181803683370190505b5090507f30000000000000000000000000000000000000000000000000000000000000008160008151811061092f5761092f613e6a565b60200101907effffffffffffffffffffffffffffffffffffffffffffffffffffffffffffff1916908160001a9053507f78000000000000000000000000000000000000000000000000000000000000008160018151811061099257610992613e6a565b60200101907effffffffffffffffffffffffffffffffffffffffffffffffffffffffffffff1916908160001a90535060006109ce846002613d86565b6109d9906001613d6e565b90505b6001811115610a76577f303132333435363738396162636465660000000000000000000000000000000085600f1660108110610a1a57610a1a613e6a565b1a60f81b828281518110610a3057610a30613e6a565b60200101907effffffffffffffffffffffffffffffffffffffffffffffffffffffffffffff1916908160001a90535060049490941c93610a6f81613e99565b90506109dc565b508315610ae3576040517f08c379a000000000000000000000000000000000000000000000000000000000815260206004820181905260248201527f537472696e67733a20686578206c656e67746820696e73756666696369656e74604482015260640160405180910390fd5b9392505050565b60008082604051602001610afe9190613ece565b604080517fffffffffffffffffffffffffffffffffffffffffffffffffffffffffffffffe0818403018152919052805190915060208083019086015b60208310610b725781518152610b51602082613d6e565b9050610b5e602083613d6e565b9150610b6b602084613e3f565b9250610b3a565b60006001610b81856020613e3f565b610b8d9061010061427a565b610b979190613e3f565b925182518416931916929092179052505051905092915050565b60228453600184019350607d8453600184019350602085850303855260006008600184610bde9190613e3f565b610be990602c613d6e565b610bf39190613e3f565b90506000602c610c04836008613d6e565b610c0e9190613e3f565b90506034610c1d846020613d6e565b610c279190613e3f565b603f602084901b64ff0000000016601085811b63ff000000169190910162ff00008616019085901c61ff0016016546000000005701602a81901c919091168701519189019750908753600187019650603f8160241c168601518753600187019650603f81601e1c168601518753600187019650603f8160181c168601518753600187019650603f8160121c168601518753600187019650603f81600c1c168601518753600187019650603f8160061c168601518753600187019650603f81168601518753506004610cf9846020613d6e565b610d039190613e3f565b603f602083901b64ff0000000016601084811b63ff000000169190910162ff00008516019084901c61ff0016016561000000005701602a81901c919091168701519189019750908753600187019650603f8160241c168601518753600187019650603f81601e1c168601518753600187019650603f8160181c168601518753600187019650603f8160121c168601518753600187019650603f81600c1c168601518753600187019650603f8160061c168601518753600187019650603f811686015187535050505050505050565b600080600080600060808688031215610de957600080fd5b8535945060208601359350604086013560ff81168114610e0857600080fd5b9250606086013567ffffffffffffffff80821115610e2557600080fd5b818801915088601f830112610e3957600080fd5b813581811115610e4857600080fd5b896020828501011115610e5a57600080fd5b9699959850939650602001949392505050565b60005b83811015610e88578181015183820152602001610e70565b83811115610e97576000848401525b50505050565b6020815260008251806020840152610ebc816040850160208701610e6d565b601f017fffffffffffffffffffffffffffffffffffffffffffffffffffffffffffffffe0169190910160400192915050565b60008060408385031215610f0157600080fd5b823573ffffffffffffffffffffffffffffffffffffffff81168114610f2557600080fd5b915060208301356bffffffffffffffffffffffff81168114610f4657600080fd5b809150509250929050565b60008151610f63818560208601610e6d565b9290920192915050565b7f646174613a6170706c69636174696f6e2f6a736f6e2c7b226e616d65223a224281527f6c656570732532304d656c6f64696573222c226465736372697074696f6e223a60208201527f22426c656570732532304d656c6f64696573253230617265253230746865253260408201527f306669727374253230636f6d706f736564253230736f756e647325323066756c60608201527f6c7925323067656e6572617465642532306f6e2d636861696e2532307769746860808201527f2532307a65726f25323065787465726e616c69746965732e253230456163682560a08201527f3230426c65657025323067697665732532306f6e65253230766f74652532306960c08201527f6e253230746865253230426c6565707325323044414f2e25323054686579253260e08201527f3063616e253230616c736f2532306265253230636f6d62696e6564253230746f6101008201527f2532306372656174652532304f6e636861696e2532304d656c6f646965732e226101208201527f2c22696d616765223a22646174613a696d6167652f7376672b786d6c3b6261736101408201527f6536342c50484e325a79423261575633516d393450534977494441674e5445796101608201527f494455784d69496765473173626e4d39496d6830644841364c793933643363756101808201527f647a4d7562334a6e4c7a49774d44417663335a6e4969423462577875637a70346101a08201527f62476c75617a30696148523063446f764c336433647935334d793576636d63766101c08201527f4d546b354f53393462476c75617949676333523562475539496d4a685932746e6101e08201527f636d3931626d51745932397362334936596d786859327337496a34385a7942706102008201527f5a44306955336c74596d397363794967633352796232746c50534a756232356c6102208201527f4969427a64484a766132557464326c6b64476739496a456949475a70624777396102408201527f496d3576626d556949475a7062477774636e56735a5430695a585a6c626d396b6102608201527f5a43492b504763675a6d6c736244306949305242516a67354e43492b44516f386102808201527f634746306143426b50534a4e4d6a59314c6a6b304c4451774e4342444d6a59336102a08201527f4c6a41354d6977304d4451674d6a59344c6a49784e4377304d444d754f4455326102c08201527f494449324f53347a4d4459734e44417a4c6a55324f4342444d6a63774c6a4d356102e08201527f4f4377304d444d754d6a67674d6a63784c6a4d334c4451774d6934344d7a59676103008201527f4d6a63794c6a49794d6977304d4449754d6a4d3249454d794e7a4d754d4463306103208201527f4c4451774d5334324d7a59674d6a637a4c6a63314d6977304d4441754f4459796103408201527f494449334e4334794e5459734d7a6b354c6a6b784e4342444d6a63304c6a63326103608201527f4c444d354f4334354e6a59674d6a63314c6a41784d69777a4f5463754f4451306103808201527f494449334e5334774d5449734d7a6b324c6a55304f4342444d6a63314c6a41786103a08201527f4d69777a4f5451754f5451674d6a63304c6a59794d69777a4f544d754e5459326103c08201527f494449334d7934344e4449734d7a6b794c6a51794e6942444d6a637a4c6a41326103e08201527f4d69777a4f5445754d6a6732494449334d5334344f43777a4f5441754e4467346104008201527f494449334d4334794f5459734d7a6b774c6a417a4d6942444d6a63784c6a51306104208201527f4f43777a4f446b754e4467674d6a63794c6a4d784f43777a4f4467754e7a63796104408201527f494449334d6934354d4459734d7a67334c6a6b774f4342444d6a637a4c6a51356104608201527f4e43777a4f4463754d445130494449334d7934334f4467734d7a67314c6a6b326104808201527f4e4341794e7a4d754e7a67344c444d344e4334324e6a6767517a49334d7934336104a08201527f4f4467734d7a677a4c6a51324f4341794e7a4d754e546b734d7a67794c6a51326104c08201527f494449334d7934784f5451734d7a67784c6a59304e4342444d6a63794c6a63356104e08201527f4f43777a4f4441754f444934494449334d6934794e43777a4f4441754d5463306105008201527f494449334d5334314d69777a4e7a6b754e6a677949454d794e7a41754f43777a6105208201527f4e7a6b754d546b674d6a59354c6a6b7a4e69777a4e7a67754f444d32494449326105408201527f4f4334354d6a67734d7a63344c6a597949454d794e6a63754f5449734d7a63346105608201527f4c6a51774e4341794e6a59754f4441304c444d334f4334794f5459674d6a59316105808201527f4c6a55344c444d334f4334794f545967544449314d7934304f4451734d7a63346105a08201527f4c6a49354e69424d4d6a557a4c6a51344e4377304d445167544449324e5334356105c08201527f4e4377304d4451675769424e4d6a59304c6a67324c444d344f433433494577796105e08201527f4e546b754d544d324c444d344f433433494577794e546b754d544d324c444d346106008201527f4d6934324f446767544449324e4334304d6a67734d7a67794c6a59344f4342446106208201527f4d6a59304c6a6b7a4d69777a4f4449754e6a6734494449324e5334304d5467736106408201527f4d7a67794c6a637a494449324e5334344f4459734d7a67794c6a67784e4342446106608201527f4d6a59324c6a4d314e43777a4f4449754f446b34494449324e6934334e6a67736106808201527f4d7a677a4c6a41304f4341794e6a63754d5449344c444d344d7934794e6a51676106a08201527f517a49324e7934304f4467734d7a677a4c6a5134494449324e7934334e7a59736106c08201527f4d7a677a4c6a6334494449324e7934354f5449734d7a67304c6a45324e4342446106e08201527f4d6a59344c6a49774f43777a4f4451754e545134494449324f43347a4d5459736107008201527f4d7a67314c6a4130494449324f43347a4d5459734d7a67314c6a593049454d796107208201527f4e6a67754d7a45324c444d344e6934334d6941794e6a63754f546b794c444d346107408201527f4e793431494449324e79347a4e4451734d7a67334c6a6b3449454d794e6a59756107608201527f4e6a6b324c444d344f4334304e6941794e6a55754f4459344c444d344f4334336107808201527f494449324e4334344e69777a4f4467754e794261494530794e6a55754d5467306107a08201527f4c444d354f5334324d446767544449314f5334784d7a59734d7a6b354c6a59776107c08201527f4f43424d4d6a55354c6a457a4e69777a4f5449754e545579494577794e6a55756107e08201527f4d6a6b794c444d354d6934314e544967517a49324e6934314d5459734d7a6b796108008201527f4c6a55314d6941794e6a63754e53777a4f5449754f444d30494449324f4334796108208201527f4e4451734d7a6b7a4c6a4d354f4342444d6a59344c6a6b344f43777a4f544d756108408201527f4f545979494449324f53347a4e69777a4f5451754f544130494449324f53347a6108608201527f4e69777a4f5459754d6a493049454d794e6a6b754d7a59734d7a6b324c6a67356108808201527f4e6941794e6a6b754d6a51324c444d354e7934304e4467674d6a59354c6a41786108a08201527f4f43777a4f5463754f446767517a49324f4334334f53777a4f5467754d7a45796108c08201527f494449324f4334304f4451734d7a6b344c6a59314e4341794e6a67754d53777a6108e08201527f4f5467754f54413249454d794e6a63754e7a45324c444d354f5334784e5467676109008201527f4d6a59334c6a49334d69777a4f546b754d7a4d34494449324e6934334e6a67736109208201527f4d7a6b354c6a51304e6942444d6a59324c6a49324e43777a4f546b754e5455306109408201527f494449324e5334334d7a59734d7a6b354c6a59774f4341794e6a55754d5467306109608201527f4c444d354f5334324d4467675769424e4d7a45784c6a41774f4377304d4451676109808201527f54444d784d5334774d4467734d7a6b354c6a49304f43424d4d6a6b344c6a51346109a08201527f4c444d354f5334794e446767544449354f4334304f43777a4e7a67754d6a6b326109c08201527f494577794f5449754f4449344c444d334f4334794f545967544449354d6934346109e08201527f4d6a67734e4441304945777a4d5445754d4441344c4451774e4342614945307a610a008201527f4e4463754e6a67344c4451774e43424d4d7a51334c6a59344f43777a4f546b75610a208201527f4d6a51344945777a4d7a4d754f4449344c444d354f5334794e44676754444d7a610a408201527f4d7934344d6a67734d7a6b794c6a6b304f43424d4d7a51324c6a49344e43777a610a608201527f4f5449754f5451344945777a4e4459754d6a67304c444d344f4334314e545967610a808201527f54444d7a4d7934344d6a67734d7a67344c6a55314e69424d4d7a4d7a4c6a6779610aa08201527f4f43777a4f444d754d4451344945777a4e4463754e43777a4f444d754d445134610ac08201527f4945777a4e4463754e43777a4e7a67754d6a6b324945777a4d6a67754d546332610ae08201527f4c444d334f4334794f54596754444d794f4334784e7a59734e4441304945777a610b008201527f4e4463754e6a67344c4451774e4342614945307a4f4455754d4445324c445177610b208201527f4e43424d4d7a67314c6a41784e69777a4f546b754d6a51344945777a4e7a4575610b408201527f4d5455324c444d354f5334794e44676754444d334d5334784e5459734d7a6b79610b608201527f4c6a6b304f43424d4d7a677a4c6a59784d69777a4f5449754f5451344945777a610b808201527f4f444d754e6a45794c444d344f4334314e54596754444d334d5334784e545973610ba08201527f4d7a67344c6a55314e69424d4d7a63784c6a45314e69777a4f444d754d445134610bc08201527f4945777a4f4451754e7a49344c444d344d7934774e44676754444d344e433433610be08201527f4d6a67734d7a63344c6a49354e69424d4d7a59314c6a55774e43777a4e7a6775610c008201527f4d6a6b324945777a4e6a55754e5441304c4451774e43424d4d7a67314c6a4178610c208201527f4e6977304d4451675769424e4e4441344c6a51344e4377304d44516754445177610c408201527f4f4334304f4451734d7a6b304c6a63344e43424d4e4445304c6a51794e43777a610c608201527f4f5451754e7a673049454d304d5459754d444d794c444d354e4334334f445167610c808201527f4e4445334c6a51734d7a6b304c6a5531494451784f4334314d6a67734d7a6b30610ca08201527f4c6a41344d6942444e4445354c6a59314e69777a4f544d754e6a453049445179610cc08201527f4d4334314e7a51734d7a6b794c6a6b354e6941304d6a45754d6a67794c444d35610ce08201527f4d6934794d6a6767517a51794d5334354f53777a4f5445754e4459674e444979610d008201527f4c6a55774e69777a4f5441754e546334494451794d6934344d79777a4f446b75610d208201527f4e54677949454d304d6a4d754d5455304c444d344f4334314f4459674e44497a610d408201527f4c6a4d784e69777a4f4463754e546379494451794d79347a4d5459734d7a6732610d608201527f4c6a553049454d304d6a4d754d7a45324c444d344e5334304f4451674e44497a610d808201527f4c6a45314e43777a4f4451754e445930494451794d6934344d79777a4f444d75610da08201527f4e446767517a51794d6934314d4459734d7a67794c6a51354e6941304d6a4575610dc08201527f4f546b734d7a67784c6a5979494451794d5334794f4449734d7a67774c6a6731610de08201527f4d6942444e4449774c6a55334e43777a4f4441754d446730494451784f533432610e008201527f4e5459734d7a63354c6a51324e6941304d5467754e5449344c444d334f433435610e208201527f4f546767517a51784e7934304c444d334f4334314d7941304d5459754d444d79610e408201527f4c444d334f4334794f5459674e4445304c6a51794e43777a4e7a67754d6a6b32610e608201527f494577304d4449754f444d794c444d334f4334794f545967544451774d693434610e808201527f4d7a49734e444130494577304d4467754e4467304c4451774e43426149453030610ea08201527f4d5449754f4463324c444d354d43347a4f544967544451774f4334304f445173610ec08201527f4d7a6b774c6a4d354d69424d4e4441344c6a51344e43777a4f4449754e6a6734610ee08201527f494577304d5449754f4463324c444d344d6934324f446767517a51784d793431610f008201527f4d6a51734d7a67794c6a59344f4341304d5451754d5451344c444d344d693433610f208201527f4d7a59674e4445304c6a63304f43777a4f4449754f444d7949454d304d545575610f408201527f4d7a51344c444d344d6934354d6a67674e4445314c6a67334e69777a4f444d75610f608201527f4d544530494451784e69347a4d7a49734d7a677a4c6a4d3549454d304d545975610f808201527f4e7a67344c444d344d7934324e6a59674e4445334c6a45314e43777a4f445175610fa08201527f4d445532494451784e7934304d79777a4f4451754e545967517a51784e793433610fc08201527f4d4459734d7a67314c6a41324e4341304d5463754f4451304c444d344e533433610fe08201527f4d6a51674e4445334c6a67304e43777a4f4459754e545167517a51784e7934346110008201527f4e4451734d7a67334c6a4d314e6941304d5463754e7a41324c444d344f4334776110208201527f4d5459674e4445334c6a517a4c444d344f4334314d6942444e4445334c6a45316110408201527f4e43777a4f446b754d444930494451784e6934334f4467734d7a67354c6a51786110608201527f4e4341304d5459754d7a4d794c444d344f5334324f5342444e4445314c6a67336110808201527f4e69777a4f446b754f545932494451784e53347a4e4467734d7a6b774c6a45316110a08201527f4d6941304d5451754e7a51344c444d354d4334794e446767517a51784e4334786110c08201527f4e4467734d7a6b774c6a4d304e4341304d544d754e5449304c444d354d43347a6110e08201527f4f5449674e4445794c6a67334e69777a4f5441754d7a6b7949466f67545451316111008201527f4d4334784e6a67734e4441304c6a55334e6942444e4455784c6a6b794c4451776111208201527f4e4334314e7a59674e44557a4c6a51324d6977304d4451754d7a6379494451316111408201527f4e4334334f5451734e44417a4c6a6b324e4342444e4455324c6a45794e6977306111608201527f4d444d754e545532494451314e7934794e4449734e4441794c6a6b344e6941306111808201527f4e5467754d5451794c4451774d6934794e545167517a51314f5334774e4449736111a08201527f4e4441784c6a55794d6941304e546b754e7a49734e4441774c6a59314d6941306111c08201527f4e6a41754d5463324c444d354f5334324e445167517a51324d4334324d7a49736111e08201527f4d7a6b344c6a597a4e6941304e6a41754f4459734d7a6b334c6a55304e4341306112008201527f4e6a41754f4459734d7a6b324c6a4d324f4342444e4459774c6a67324c444d356112208201527f4e4334354d6a67674e4459774c6a55314e43777a4f544d754e7a5132494451316112408201527f4f5334354e4449734d7a6b794c6a67794d6942444e4455354c6a4d7a4c444d356112608201527f4d5334344f5467674e4455344c6a59774e43777a4f5445754d5459674e4455336112808201527f4c6a63324e43777a4f5441754e6a413449454d304e5459754f5449304c444d356112a08201527f4d4334774e5459674e4455324c6a41334f43777a4f446b754e6a5530494451316112c08201527f4e5334794d6a59734d7a67354c6a51774d6942444e4455304c6a4d334e43777a6112e08201527f4f446b754d5455674e44557a4c6a63774f43777a4f4467754f546332494451316113008201527f4d7934794d6a67734d7a67344c6a673449454d304e5445754e6a49734d7a67346113208201527f4c6a51334d6941304e5441754d7a45344c444d344f4334784d7a59674e4451356113408201527f4c6a4d794d69777a4f4463754f44637949454d304e4467754d7a49324c444d346113608201527f4e7934324d4467674e4451334c6a55304e69777a4f4463754d7a5130494451306113808201527f4e6934354f4449734d7a67334c6a413449454d304e4459754e4445344c444d346113a08201527f4e6934344d5459674e4451324c6a41304c444d344e6934314d6a67674e4451316113c08201527f4c6a67304f43777a4f4459754d6a453249454d304e4455754e6a55324c444d346113e08201527f4e5334354d4451674e4451314c6a55324c444d344e5334304f5459674e4451316114008201527f4c6a55324c444d344e4334354f544967517a51304e5334314e69777a4f4451756114208201527f4e4451674e4451314c6a59344c444d344d7934354f4451674e4451314c6a6b796114408201527f4c444d344d7934324d6a5167517a51304e6934784e69777a4f444d754d6a59306114608201527f494451304e6934304e6a59734d7a67794c6a6b324e4341304e4459754f444d346114808201527f4c444d344d6934334d6a5167517a51304e7934794d53777a4f4449754e4467306114a08201527f494451304e7934324d6a51734d7a67794c6a4d784e6941304e4467754d4467736114c08201527f4d7a67794c6a497949454d304e4467754e544d324c444d344d6934784d6a51676114e08201527f4e4451344c6a6b354d69777a4f4449754d446332494451304f5334304e4467736115008201527f4d7a67794c6a41334e6942444e4455774c6a45304e43777a4f4449754d4463326115208201527f494451314d4334334f4459734d7a67794c6a457a4e6941304e5445754d7a63306115408201527f4c444d344d6934794e545967517a51314d5334354e6a49734d7a67794c6a4d336115608201527f4e6941304e5449754e4467304c444d344d6934314f4341304e5449754f5451736115808201527f4d7a67794c6a67324f4342444e44557a4c6a4d354e69777a4f444d754d5455326115a08201527f494451314d7934334e6a49734d7a677a4c6a55314d6941304e5451754d444d346115c08201527f4c444d344e4334774e545967517a51314e43347a4d5451734d7a67304c6a55326115e08201527f494451314e4334304e7a59734d7a67314c6a45354e6941304e5451754e5449306116008201527f4c444d344e5334354e6a5167544451314f5334354f5459734d7a67314c6a6b326116208201527f4e4342444e4455354c6a6b354e69777a4f4451754e446332494451314f5334336116408201527f4d5451734d7a677a4c6a4978494451314f5334784e53777a4f4449754d5459326116608201527f49454d304e5467754e5467324c444d344d5334784d6a49674e4455334c6a67796116808201527f4e43777a4f4441754d6a5930494451314e6934344e6a51734d7a63354c6a55356116a08201527f4d6942444e4455314c6a6b774e43777a4e7a67754f5449674e4455304c6a67776116c08201527f4e69777a4e7a67754e444d30494451314d7934314e79777a4e7a67754d544d306116e08201527f49454d304e5449754d7a4d304c444d334e7934344d7a51674e4455784c6a41306117008201527f4e43777a4e7a63754e6a6730494451304f5334334c444d334e7934324f4451676117208201527f517a51304f4334314e4467734d7a63334c6a59344e4341304e4463754d7a6b326117408201527f4c444d334e7934344e4341304e4459754d6a51304c444d334f4334784e5449676117608201527f517a51304e5334774f5449734d7a63344c6a51324e4341304e4451754d4459736117808201527f4d7a63344c6a6b304e4341304e444d754d5451344c444d334f5334314f5449676117a08201527f517a51304d6934794d7a59734d7a67774c6a4930494451304d5334304f5467736117c08201527f4d7a67784c6a4131494451304d4334354d7a51734d7a67794c6a41794d6942446117e08201527f4e4451774c6a4d334c444d344d6934354f5451674e4451774c6a41344f43777a6118008201527f4f4451754d5451674e4451774c6a41344f43777a4f4455754e445967517a51306118208201527f4d4334774f4467734d7a67324c6a597a4e6941304e4441754d7a45734d7a67336118408201527f4c6a597a4f4341304e4441754e7a55304c444d344f4334304e6a5967517a51306118608201527f4d5334784f5467734d7a67354c6a49354e4341304e4445754e7a67734d7a67356118808201527f4c6a6b344e4341304e4449754e53777a4f5441754e544d3249454d304e444d756118a08201527f4d6a49734d7a6b784c6a41344f4341304e4451754d444d324c444d354d5334316118c08201527f4d7a67674e4451304c6a6b304f43777a4f5445754f44673249454d304e4455756118e08201527f4f4459734d7a6b794c6a497a4e4341304e4459754e7a6b324c444d354d6934316119008201527f4d6a67674e4451334c6a63314e69777a4f5449754e7a593449454d304e4467756119208201527f4e6a6b794c444d354d7934774d7a49674e4451354c6a59784e69777a4f544d756119408201527f4d6a6379494451314d4334314d6a67734d7a6b7a4c6a51344f4342444e4455786119608201527f4c6a51304c444d354d7934334d4451674e4455794c6a49314e69777a4f544d756119808201527f4f545532494451314d6934354e7a59734d7a6b304c6a49304e4342444e44557a6119a08201527f4c6a59354e69777a4f5451754e544d79494451314e4334794e7a67734d7a6b306119c08201527f4c6a67354d6941304e5451754e7a49794c444d354e53347a4d6a5167517a51316119e08201527f4e5334784e6a59734d7a6b314c6a63314e6941304e5455754d7a67344c444d35611a008201527f4e69347a4d6941304e5455754d7a67344c444d354e7934774d545967517a5131611a208201527f4e53347a4f4467734d7a6b334c6a59324e4341304e5455754d6a49734d7a6b34611a408201527f4c6a45354f4341304e5451754f4467304c444d354f4334324d546767517a5131611a608201527f4e4334314e4467734d7a6b354c6a417a4f4341304e5451754d5449344c444d35611a808201527f4f53347a4e6a67674e44557a4c6a59794e43777a4f546b754e6a413449454d30611aa08201527f4e544d754d5449734d7a6b354c6a67304f4341304e5449754e5467734e444177611ac08201527f4c6a4178494451314d6934774d4451734e4441774c6a41354e4342444e445578611ae08201527f4c6a51794f4377304d4441754d546334494451314d4334344f4467734e444177611b008201527f4c6a4979494451314d43347a4f4451734e4441774c6a497949454d304e446b75611b208201527f4e6a51734e4441774c6a4979494451304f4334354d6977304d4441754d544d67611b408201527f4e4451344c6a49794e43777a4f546b754f545567517a51304e7934314d6a6773611b608201527f4d7a6b354c6a6333494451304e6934354d6a49734d7a6b354c6a51354e434130611b808201527f4e4459754e4441324c444d354f5334784d6a4967517a51304e5334344f53777a611ba08201527f4f5467754e7a55674e4451314c6a51334e69777a4f5467754d6a593049445130611bc08201527f4e5334784e6a51734d7a6b334c6a59324e4342444e4451304c6a67314d69777a611be08201527f4f5463754d445930494451304e4334324f5459734d7a6b324c6a4d7a4d694130611c008201527f4e4451754e6a6b324c444d354e5334304e6a67675444517a4f5334794d6a5173611c208201527f4d7a6b314c6a51324f4342444e444d354c6a49734d7a6b334c6a41314d694130611c408201527f4d7a6b754e4467344c444d354f4334304d6941304e4441754d4467344c444d35611c608201527f4f5334314e7a4967517a51304d4334324f4467734e4441774c6a63794e434130611c808201527f4e4445754e446b344c4451774d5334324e7a49674e4451794c6a55784f437730611ca08201527f4d4449754e44453249454d304e444d754e544d344c4451774d7934784e694130611cc08201527f4e4451754e7a45304c4451774d7934334d4459674e4451324c6a41304e697730611ce08201527f4d4451754d44553049454d304e4463754d7a63344c4451774e4334304d444967611d008201527f4e4451344c6a63314d6977304d4451754e546332494451314d4334784e6a6773611d208201527f4e4441304c6a55334e694261496942705a443069516b7846525642544969426d611d408201527f615778734c584a3162475539496d3576626e706c636d3869506a777663474630611d608201527f6144344e436a786e49476c6b50534a48636d39316343496764484a68626e4e6d611d808201527f62334a7450534a30636d4675633278686447556f4d6a55784c6a41774d444177611da08201527f4d4377674d54517a4c6a41774d4441774d436b695067304b50484e306557786c611dc08201527f5067304b4c6c70375957357062574630615739754f6e423162484e6c4944467a611de08201527f49476c755a6d6c756158526c4f3352795957357a5a6d39796253316962336736611e008201527f49475a7062477774596d39344f3352795957357a5a6d397962533176636d6c6e611e208201527f6157343649474e6c626e526c636a743944516f6a51587468626d6c7459585270611e408201527f623234745a47567359586b364c6a4531637a743944516f6a516e7468626d6c74611e608201527f59585270623234745a47567359586b364c6a4d77637a743944516f6a51337468611e808201527f626d6c7459585270623234745a47567359586b364c6a5131637a743944516f6a611ea08201527f52487468626d6c7459585270623234745a47567359586b364c6a5977637a7439611ec08201527f44516f6a52587468626d6c7459585270623234745a47567359586b364c6a6331611ee08201527f637a743944516f6a526e7468626d6c7459585270623234745a47567359586b36611f008201527f4c6a6b77637a743944516f6a52337468626d6c7459585270623234745a475673611f208201527f59586b364d5334774e584d376651304b49306837595735706257463061573975611f408201527f4c57526c624746354f6a45754d6a427a4f33304e43694e4a6532467561573168611f608201527f64476c766269316b5a57786865546f784c6a4d31637a74394451704161325635611f808201527f5a6e4a686257567a4948423162484e6c494873774a587430636d467563325a76611fa08201527f636d303649484e6a5957786c575367784b547430636d467563325a76636d3074611fc08201527f62334a705a326c754f6a55774a5341314d435537665455774a53423764484a68611fe08201527f626e4e6d62334a744f69427a593246735a566b6f4c6a63704f3352795957357a6120008201527f5a6d397962533176636d6c6e61573436494455774a5341314d435537665445776120208201527f4d435567653352795957357a5a6d397962546f6763324e686247565a4b4445706120408201527f4f3352795957357a5a6d397962533176636d6c6e61573436494455774a5341316120608201527f4d4355376658304e436a7776633352356247552b44516f38636d566a6443426a6120808201527f6247467a637a30695769496761575139496b456949486739496a416949486b396120a08201527f496a63774969423361575230614430694d6a41694947686c6157646f644430696120c08201527f4f44416949484a34505349784d43492b504339795a574e305067304b50484a6c6120e08201527f593351675932786863334d39496c6f6949476c6b50534a43496942345053497a6121008201527f4f434967655430694d6a5169494864705a48526f505349794d434967614756706121208201527f5a326830505349784e7a496949484a34505349784d43492b504339795a574e306121408201527f5067304b50484a6c593351675932786863334d39496c6f6949476c6b50534a446121608201527f49694234505349334e694967655430694e6a4169494864705a48526f505349796121808201527f4d434967614756705a326830505349784d44416949484a34505349784d43492b6121a08201527f504339795a574e305067304b50484a6c593351675932786863334d39496c6f696121c08201527f49476c6b50534a4549694234505349784d54516949486b39496a5977496942336121e08201527f61575230614430694d6a41694947686c6157646f644430694d544177496942796122008201527f654430694d544169506a7776636d566a6444344e436a78795a574e3049474e736122208201527f59584e7a50534a61496942705a44306952534967654430694d545579496942356122408201527f505349774969423361575230614430694d6a41694947686c6157646f644430696122608201527f4d6a497749694279654430694d544169506a7776636d566a6444344e436a78796122808201527f5a574e3049474e7359584e7a50534a61496942705a44306952694967654430696122a08201527f4d546b77496942355053497a4e53496764326c6b64476739496a49774969426f6122c08201527f5a576c6e61485139496a45314d434967636e6739496a4577496a34384c334a6c6122e08201527f5933512b44516f384c32632b44516f386347397365576476626942705a4430696123008201527f56484a705957356e624755694948427661573530637a30694d54497a4944457a6123208201527f4d6941784f5455754d6a457a4d7a4d7a494449314d5334774f5441784e7a67676123408201527f4d54497a494449354d7934334d6a6b334e4467674e5445674d6a55784c6a41356123608201527f4d4445334f43492b50433977623278355a323975506a7877623278355a3239756123808201527f49476c6b50534a55636d6c68626d64735a53496764484a68626e4e6d62334a746123a08201527f50534a30636d4675633278686447556f4d54497a4c6a45774e6a59324e7977676123c08201527f4d7a45314c6a4d304e4459794e796b6763324e686247556f4d5377674c5445706123e08201527f494852795957357a624746305a5367744d54497a4c6a45774e6a59324e7977676124008201527f4c544d784e53347a4e4451324d6a63704943496763473970626e527a505349786124208201527f4d6a4d674d6a59304c6a6b314f5455774e6941784f5455754d6a457a4d7a4d7a6124408201527f49444d324e5334334d6a6b334e4467674d54497a4c6a45774e6a59324e79417a6124608201527f4d6a4d754e4455324d6a67314944557849444d324e5334334d6a6b334e4467696124808201527f506a77766347397365576476626a34384c32632b5043396e506a777663335a6e6124a08201527f50673d3d222c2265787465726e616c5f6c696e6b223a2268747470733a2f2f626124c08201527f6c656570732e617274222c2273656c6c65725f6665655f62617369735f706f696124e08201527f6e7473223a0000000000000000000000000000000000000000000000000000006125008201526000613cb1612505830185610f51565b7f2c226665655f726563697069656e74223a2200000000000000000000000000008152613ce16012820185610f51565b7f227d000000000000000000000000000000000000000000000000000000000000815260020195945050505050565b7f4e487b7100000000000000000000000000000000000000000000000000000000600052604160045260246000fd5b7f4e487b7100000000000000000000000000000000000000000000000000000000600052601160045260246000fd5b60008219821115613d8157613d81613d3f565b500190565b6000817fffffffffffffffffffffffffffffffffffffffffffffffffffffffffffffffff0483118215151615613dbe57613dbe613d3f565b500290565b7f4e487b7100000000000000000000000000000000000000000000000000000000600052601260045260246000fd5b600082613e0157613e01613dc3565b500490565b60007fffffffffffffffffffffffffffffffffffffffffffffffffffffffffffffffff821415613e3857613e38613d3f565b5060010190565b600082821015613e5157613e51613d3f565b500390565b600082613e6557613e65613dc3565b500690565b7f4e487b7100000000000000000000000000000000000000000000000000000000600052603260045260246000fd5b600081613ea857613ea8613d3f565b507fffffffffffffffffffffffffffffffffffffffffffffffffffffffffffffffff0190565b7f646174613a6170706c69636174696f6e2f6a736f6e2c7b226e616d65223a2200815260008251613f0681601f850160208701610e6d565b7f222c226465736372697074696f6e223a224d656c6f6479222c2265787465726e601f918401918201527f616c5f75726c223a220000000000000000000000000000000000000000000000603f8201527f68747470733a2f2f626c656570732e6172742f6d656c6f646965732f2532336960488201527f643d00000000000000000000000000000000000000000000000000000000000060688201527f222c22696d616765223a22646174613a696d6167652f7376672b786d6c2c3c73606a8201527f76672076696577426f783d2730203020333220313627203e3c7465787420783d608a8201527f273530252720793d273530252720646f6d696e616e742d626173656c696e653d60aa8201527f276d6964646c652720746578742d616e63686f723d276d6964646c652720737460ca8201527f796c653d2766696c6c3a20726762283231392c2033392c20313139293b20666f60ea8201527f6e742d73697a653a20313270783b273e0000000000000000000000000000000061010a8201526140b461011a82017f68656c6c6f0000000000000000000000000000000000000000000000000000009052565b7f3c2f746578743e3c2f7376673e222c22616e696d6174696f6e5f75726c223a2261011f8201527f646174613a617564696f2f7761763b6261736536342c556b6c4752674141414161013f8201527f425851565a465a6d31304942414141414142414145412b436f4141506771414161015f8201527f4142414167415a4746305951414100000000000000000000000000000000000061017f82015261018d8101610894565b600181815b808511156141b357817fffffffffffffffffffffffffffffffffffffffffffffffffffffffffffffffff0482111561419957614199613d3f565b808516156141a657918102915b93841c939080029061415f565b509250929050565b6000826141ca57506001610122565b816141d757506000610122565b81600181146141ed57600281146141f757614213565b6001915050610122565b60ff84111561420857614208613d3f565b50506001821b610122565b5060208310610133831016604e8410600b8410161715614236575081810a610122565b614240838361415a565b807fffffffffffffffffffffffffffffffffffffffffffffffffffffffffffffffff0482111561427257614272613d3f565b029392505050565b6000610ae383836141bb56fe00198d001b12001cae001e6200203100221b00242200264800288f002af8002d8600303b00331900362300395b003cc4004061004435004844004c9000511d0055f0005b0c006076006633006c460072b60079890080c300886b00908700992000a23a00abe000b61800c0ec00cc6500d88d00e56d00f3110101850110d601210f01323f0144750157c0016c310181d90198ca01b11901cada01e62302030b0221ab02421e02647e0288ea02af8002d8620303b10331940362320395b403cc4604061604435704843c04c8fc0511d4055f0005b0c306076306632906c464072b6707988b080c2c0886ad0908770991f90a23a80abe000b61860c0ec54142434445464748494a4b4c4d4e4f505152535455565758595a6162636465666768696a6b6c6d6e6f707172737475767778797a303132333435363738392b2fa26469706673582212201a1daeaf01c33ecf28f9f624f09a0eab46d529ab36f19a456546c4a3f273c3c964736f6c63430008090033",
  "devdoc": {
    "kind": "dev",
    "methods": {},
    "version": 1
  },
  "userdoc": {
    "kind": "user",
    "methods": {},
    "version": 1
  },
  "storageLayout": {
    "storage": [],
    "types": null
  }
}