{
  "address": "0x9D430dB5915AF757B2E95E046E92537b4F4e3d3c",
  "abi": [
    {
      "inputs": [
        {
          "internalType": "contract Bleeps",
          "name": "bleeps",
          "type": "address"
        },
        {
          "internalType": "contract MeloBleeps",
          "name": "meloBleeps",
          "type": "address"
        },
        {
          "internalType": "address payable",
          "name": "bleepsDAOAccount",
          "type": "address"
        }
      ],
      "stateMutability": "nonpayable",
      "type": "constructor"
    },
    {
      "anonymous": false,
      "inputs": [
        {
          "indexed": true,
          "internalType": "address",
          "name": "artist",
          "type": "address"
        },
        {
          "indexed": false,
          "internalType": "uint256",
          "name": "id",
          "type": "uint256"
        },
        {
          "indexed": false,
          "internalType": "uint256",
          "name": "startPrice",
          "type": "uint256"
        },
        {
          "indexed": false,
          "internalType": "uint256",
          "name": "endPrice",
          "type": "uint256"
        },
        {
          "indexed": false,
          "internalType": "uint256",
          "name": "duration",
          "type": "uint256"
        }
      ],
      "name": "AuctionStarted",
      "type": "event"
    },
    {
      "inputs": [
        {
          "internalType": "address payable",
          "name": "artist",
          "type": "address"
        },
        {
          "internalType": "bytes32",
          "name": "data1",
          "type": "bytes32"
        },
        {
          "internalType": "bytes32",
          "name": "data2",
          "type": "bytes32"
        },
        {
          "internalType": "uint256",
          "name": "startPrice",
          "type": "uint256"
        },
        {
          "internalType": "uint256",
          "name": "endPrice",
          "type": "uint256"
        },
        {
          "internalType": "uint256",
          "name": "duration",
          "type": "uint256"
        }
      ],
      "name": "mint",
      "outputs": [],
      "stateMutability": "nonpayable",
      "type": "function"
    },
    {
      "inputs": [
        {
          "internalType": "uint256",
          "name": "id",
          "type": "uint256"
        },
        {
          "internalType": "address",
          "name": "to",
          "type": "address"
        }
      ],
      "name": "purchase",
      "outputs": [],
      "stateMutability": "payable",
      "type": "function"
    }
  ],
  "transactionHash": "0x36245603181de5c377be66370440cf2f2014d40175a85407c9af2aa1101c5251",
  "args": [
    "0x285B3f7B4d68CdDe162793Ea5996F21252a6eE59",
    "0x4CF8d094CBE16736CE58827d794d9EcE03014b2E",
    "0xDcf0fCaC9901b89819f5E9478b1B6A0919715172"
  ],
  "solcInputHash": "fe2d698dc766749c774f141be3fe643d",
  "bytecode": "0x60e060405234801561001057600080fd5b50604051610d5f380380610d5f83398101604081905261002f91610064565b6001600160a01b0392831660805290821660a0521660c0526100b1565b6001600160a01b038116811461006157600080fd5b50565b60008060006060848603121561007957600080fd5b83516100848161004c565b60208501519093506100958161004c565b60408501519092506100a68161004c565b809150509250925092565b60805160a05160c051610c746100eb60003960006109a40152600081816102a2015281816106c2015261074f015260005050610c746000f3fe6080604052600436106100295760003560e01c806390e66c251461002e578063ae77c23714610050575b600080fd5b34801561003a57600080fd5b5061004e610049366004610a1e565b610063565b005b61004e61005e366004610a6a565b61048c565b6000610073633b9aca0085610ac9565b905061008d633b9aca0067ffffffffffffffff8316610b04565b8414610120576040517f08c379a000000000000000000000000000000000000000000000000000000000815260206004820152602a60248201527f5072696365206e65656420746f206265206d756c7469706c65206f662031303060448201527f303030303030303030300000000000000000000000000000000000000000000060648201526084015b60405180910390fd5b6000610130633b9aca0085610ac9565b905061014a633b9aca0067ffffffffffffffff8316610b04565b84146101d8576040517f08c379a000000000000000000000000000000000000000000000000000000000815260206004820152602a60248201527f5072696365206e65656420746f206265206d756c7469706c65206f662031303060448201527f30303030303030303030000000000000000000000000000000000000000000006064820152608401610117565b6401000000008310610246576040517f08c379a000000000000000000000000000000000000000000000000000000000815260206004820152601060248201527f4455524154494f4e20544f4f20424947000000000000000000000000000000006044820152606401610117565b6040517f5bffff1d00000000000000000000000000000000000000000000000000000000815273ffffffffffffffffffffffffffffffffffffffff898116600483015260248201899052604482018890523060648301526000917f000000000000000000000000000000000000000000000000000000000000000090911690635bffff1d90608401602060405180830381600087803b1580156102e857600080fd5b505af11580156102fc573d6000803e3d6000fd5b505050506040513d601f19601f820116820180604052508101906103209190610b41565b6040805160808101825267ffffffffffffffff428116825286811660208084019182528783168486019081528a8416606086019081526000888152928390529186902094518554935191519251851678010000000000000000000000000000000000000000000000000277ffffffffffffffffffffffffffffffffffffffffffffffff93861670010000000000000000000000000000000002939093166fffffffffffffffffffffffffffffffff92861668010000000000000000027fffffffffffffffffffffffffffffffff0000000000000000000000000000000090951691909516179290921791909116919091171790555190915073ffffffffffffffffffffffffffffffffffffffff8a16907fa4e6cb91578a064a1737a833b3d276bb28e387f33f6001f70c7c1389658b64d1906104799084908a908a908a9093845260208401929092526040830152606082015260800190565b60405180910390a2505050505050505050565b6000828152602081815260408083208151608081018352905467ffffffffffffffff8082168084526801000000000000000083048216958401959095527001000000000000000000000000000000008204811693830193909352780100000000000000000000000000000000000000000000000090049091166060820152919081906105189042610b5a565b90506000836040015184602001516105309190610b71565b67ffffffffffffffff169050836060015167ffffffffffffffff16821061057657633b9aca00846040015167ffffffffffffffff1661056f9190610b04565b92506105cf565b6060840151633b9aca009067ffffffffffffffff166105958482610b5a565b61059f9084610b04565b6105a99190610ac9565b856040015167ffffffffffffffff166105c29190610b9a565b6105cc9190610b04565b92505b82341015610639576040517f08c379a000000000000000000000000000000000000000000000000000000000815260206004820152600a60248201527f4e4f545f454e4f554748000000000000000000000000000000000000000000006044820152606401610117565b336108fc6106478534610b5a565b6040518115909202916000818181858888f1935050505015801561066f573d6000803e3d6000fd5b506040517f42842e0e00000000000000000000000000000000000000000000000000000000815230600482015273ffffffffffffffffffffffffffffffffffffffff8681166024830152604482018890527f000000000000000000000000000000000000000000000000000000000000000016906342842e0e90606401600060405180830381600087803b15801561070657600080fd5b505af115801561071a573d6000803e3d6000fd5b50506040517f589a174300000000000000000000000000000000000000000000000000000000815260048101899052600092507f000000000000000000000000000000000000000000000000000000000000000073ffffffffffffffffffffffffffffffffffffffff16915063589a17439060240160206040518083038186803b1580156107a757600080fd5b505afa1580156107bb573d6000803e3d6000fd5b505050506040513d601f19601f820116820180604052508101906107df9190610bb2565b90508373ffffffffffffffffffffffffffffffffffffffff82166108fc6064610809846005610b04565b6108139190610ac9565b6040518115909202916000818181858888f193505050501561085357606461083c866005610b04565b6108469190610ac9565b6108509082610b5a565b90505b606060005b81518110156109895781818151811061087357610873610bd6565b60200260200101516000015173ffffffffffffffffffffffffffffffffffffffff166108fc606484518585815181106108ae576108ae610bd6565b6020026020010151602001516bffffffffffffffffffffffff168b60056108d59190610b04565b6108df9190610b04565b6108e99190610ac9565b6108f39190610ac9565b6040518115909202916000818181858888f1935050505015610977576064825183838151811061092557610925610bd6565b6020026020010151602001516bffffffffffffffffffffffff1634600561094c9190610b04565b6109569190610b04565b6109609190610ac9565b61096a9190610ac9565b6109749084610b5a565b92505b8061098181610c05565b915050610858565b5060405173ffffffffffffffffffffffffffffffffffffffff7f0000000000000000000000000000000000000000000000000000000000000000169083156108fc029084906000818181858888f193505050501580156109ed573d6000803e3d6000fd5b50505050505050505050565b73ffffffffffffffffffffffffffffffffffffffff81168114610a1b57600080fd5b50565b60008060008060008060c08789031215610a3757600080fd5b8635610a42816109f9565b9860208801359850604088013597606081013597506080810135965060a00135945092505050565b60008060408385031215610a7d57600080fd5b823591506020830135610a8f816109f9565b809150509250929050565b7f4e487b7100000000000000000000000000000000000000000000000000000000600052601160045260246000fd5b600082610aff577f4e487b7100000000000000000000000000000000000000000000000000000000600052601260045260246000fd5b500490565b6000817fffffffffffffffffffffffffffffffffffffffffffffffffffffffffffffffff0483118215151615610b3c57610b3c610a9a565b500290565b600060208284031215610b5357600080fd5b5051919050565b600082821015610b6c57610b6c610a9a565b500390565b600067ffffffffffffffff83811690831681811015610b9257610b92610a9a565b039392505050565b60008219821115610bad57610bad610a9a565b500190565b600060208284031215610bc457600080fd5b8151610bcf816109f9565b9392505050565b7f4e487b7100000000000000000000000000000000000000000000000000000000600052603260045260246000fd5b60007fffffffffffffffffffffffffffffffffffffffffffffffffffffffffffffffff821415610c3757610c37610a9a565b506001019056fea2646970667358221220679d7ff834a09a7c10a15290e0fa5f77ec1bf95a439836448a76f923ae02748464736f6c63430008090033",
  "devdoc": {
    "kind": "dev",
    "methods": {},
    "version": 1
  },
  "userdoc": {
    "kind": "user",
    "methods": {},
    "version": 1
  },
  "storageLayout": {
    "storage": [
      {
        "astId": 13560,
        "contract": "src/melobleeps/MeloBleepsAuction.sol:MeloBleepsAuction",
        "label": "_auctions",
        "offset": 0,
        "slot": "0",
        "type": "t_mapping(t_uint256,t_struct(Auction)13555_storage)"
      }
    ],
    "types": {
      "t_mapping(t_uint256,t_struct(Auction)13555_storage)": {
        "encoding": "mapping",
        "key": "t_uint256",
        "label": "mapping(uint256 => struct MeloBleepsAuction.Auction)",
        "numberOfBytes": "32",
        "value": "t_struct(Auction)13555_storage"
      },
      "t_struct(Auction)13555_storage": {
        "encoding": "inplace",
        "label": "struct MeloBleepsAuction.Auction",
        "members": [
          {
            "astId": 13548,
            "contract": "src/melobleeps/MeloBleepsAuction.sol:MeloBleepsAuction",
            "label": "startTime",
            "offset": 0,
            "slot": "0",
            "type": "t_uint64"
          },
          {
            "astId": 13550,
            "contract": "src/melobleeps/MeloBleepsAuction.sol:MeloBleepsAuction",
            "label": "startPriceinGWEI",
            "offset": 8,
            "slot": "0",
            "type": "t_uint64"
          },
          {
            "astId": 13552,
            "contract": "src/melobleeps/MeloBleepsAuction.sol:MeloBleepsAuction",
            "label": "endPriceinGWEI",
            "offset": 16,
            "slot": "0",
            "type": "t_uint64"
          },
          {
            "astId": 13554,
            "contract": "src/melobleeps/MeloBleepsAuction.sol:MeloBleepsAuction",
            "label": "duration",
            "offset": 24,
            "slot": "0",
            "type": "t_uint64"
          }
        ],
        "numberOfBytes": "32"
      },
      "t_uint256": {
        "encoding": "inplace",
        "label": "uint256",
        "numberOfBytes": "32"
      },
      "t_uint64": {
        "encoding": "inplace",
        "label": "uint64",
        "numberOfBytes": "8"
      }
    }
  }
}