{
  "address": "0x19927d7ff1055AA6bFf3226Ac4c2f8a84C7a3CB3",
  "abi": [
    {
      "inputs": [
        {
          "internalType": "address",
          "name": "initialOwner",
          "type": "address"
        },
        {
          "internalType": "address",
          "name": "initialTokenURIAdmin",
          "type": "address"
        },
        {
          "internalType": "address",
          "name": "initialRoyaltyAdmin",
          "type": "address"
        },
        {
          "internalType": "address",
          "name": "initialMinterAdmin",
          "type": "address"
        },
        {
          "internalType": "address",
          "name": "initialGuardian",
          "type": "address"
        },
        {
          "internalType": "contract MeloBleepsTokenURI",
          "name": "initialTokenURIContract",
          "type": "address"
        }
      ],
      "stateMutability": "nonpayable",
      "type": "constructor"
    },
    {
      "inputs": [
        {
          "internalType": "string",
          "name": "s",
          "type": "string"
        }
      ],
      "name": "StringTooLong",
      "type": "error"
    },
    {
      "anonymous": false,
      "inputs": [
        {
          "indexed": true,
          "internalType": "address",
          "name": "owner",
          "type": "address"
        },
        {
          "indexed": true,
          "internalType": "address",
          "name": "approved",
          "type": "address"
        },
        {
          "indexed": true,
          "internalType": "uint256",
          "name": "tokenId",
          "type": "uint256"
        }
      ],
      "name": "Approval",
      "type": "event"
    },
    {
      "anonymous": false,
      "inputs": [
        {
          "indexed": true,
          "internalType": "address",
          "name": "owner",
          "type": "address"
        },
        {
          "indexed": true,
          "internalType": "address",
          "name": "operator",
          "type": "address"
        },
        {
          "indexed": false,
          "internalType": "bool",
          "name": "approved",
          "type": "bool"
        }
      ],
      "name": "ApprovalForAll",
      "type": "event"
    },
    {
      "anonymous": false,
      "inputs": [
        {
          "indexed": false,
          "internalType": "address",
          "name": "newGuardian",
          "type": "address"
        }
      ],
      "name": "GuardianSet",
      "type": "event"
    },
    {
      "anonymous": false,
      "inputs": [
        {
          "indexed": false,
          "internalType": "address",
          "name": "newMinterAdmin",
          "type": "address"
        }
      ],
      "name": "MinterAdminSet",
      "type": "event"
    },
    {
      "anonymous": false,
      "inputs": [
        {
          "indexed": false,
          "internalType": "address",
          "name": "newMinter",
          "type": "address"
        }
      ],
      "name": "MinterSet",
      "type": "event"
    },
    {
      "anonymous": false,
      "inputs": [
        {
          "indexed": true,
          "internalType": "address",
          "name": "previousOwner",
          "type": "address"
        },
        {
          "indexed": true,
          "internalType": "address",
          "name": "newOwner",
          "type": "address"
        }
      ],
      "name": "OwnershipTransferred",
      "type": "event"
    },
    {
      "anonymous": false,
      "inputs": [
        {
          "indexed": true,
          "internalType": "address",
          "name": "artist",
          "type": "address"
        },
        {
          "indexed": false,
          "internalType": "uint256",
          "name": "id",
          "type": "uint256"
        },
        {
          "indexed": false,
          "internalType": "bytes32",
          "name": "melobleepsHash",
          "type": "bytes32"
        },
        {
          "indexed": false,
          "internalType": "string",
          "name": "name",
          "type": "string"
        },
        {
          "indexed": false,
          "internalType": "uint8",
          "name": "speed",
          "type": "uint8"
        }
      ],
      "name": "ReservationSubmitted",
      "type": "event"
    },
    {
      "anonymous": false,
      "inputs": [
        {
          "indexed": false,
          "internalType": "address",
          "name": "newRoyaltyAdmin",
          "type": "address"
        }
      ],
      "name": "RoyaltyAdminSet",
      "type": "event"
    },
    {
      "anonymous": false,
      "inputs": [
        {
          "indexed": false,
          "internalType": "address",
          "name": "newTokenURIAdmin",
          "type": "address"
        }
      ],
      "name": "TokenURIAdminSet",
      "type": "event"
    },
    {
      "anonymous": false,
      "inputs": [
        {
          "indexed": false,
          "internalType": "contract MeloBleepsTokenURI",
          "name": "newTokenURIContract",
          "type": "address"
        }
      ],
      "name": "TokenURIContractSet",
      "type": "event"
    },
    {
      "anonymous": false,
      "inputs": [
        {
          "indexed": true,
          "internalType": "address",
          "name": "from",
          "type": "address"
        },
        {
          "indexed": true,
          "internalType": "address",
          "name": "to",
          "type": "address"
        },
        {
          "indexed": true,
          "internalType": "uint256",
          "name": "tokenId",
          "type": "uint256"
        }
      ],
      "name": "Transfer",
      "type": "event"
    },
    {
      "inputs": [
        {
          "internalType": "address",
          "name": "operator",
          "type": "address"
        },
        {
          "internalType": "uint256",
          "name": "id",
          "type": "uint256"
        }
      ],
      "name": "approve",
      "outputs": [],
      "stateMutability": "nonpayable",
      "type": "function"
    },
    {
      "inputs": [
        {
          "internalType": "address",
          "name": "owner",
          "type": "address"
        }
      ],
      "name": "balanceOf",
      "outputs": [
        {
          "internalType": "uint256",
          "name": "balance",
          "type": "uint256"
        }
      ],
      "stateMutability": "view",
      "type": "function"
    },
    {
      "inputs": [
        {
          "internalType": "uint256",
          "name": "",
          "type": "uint256"
        }
      ],
      "name": "bleepsUsed",
      "outputs": [
        {
          "internalType": "uint104",
          "name": "num",
          "type": "uint104"
        },
        {
          "internalType": "uint152",
          "name": "value",
          "type": "uint152"
        }
      ],
      "stateMutability": "view",
      "type": "function"
    },
    {
      "inputs": [
        {
          "internalType": "uint256",
          "name": "id",
          "type": "uint256"
        }
      ],
      "name": "creatorOf",
      "outputs": [
        {
          "internalType": "address payable",
          "name": "",
          "type": "address"
        }
      ],
      "stateMutability": "view",
      "type": "function"
    },
    {
      "inputs": [
        {
          "internalType": "uint256",
          "name": "id",
          "type": "uint256"
        }
      ],
      "name": "getApproved",
      "outputs": [
        {
          "internalType": "address",
          "name": "",
          "type": "address"
        }
      ],
      "stateMutability": "view",
      "type": "function"
    },
    {
      "inputs": [],
      "name": "guardian",
      "outputs": [
        {
          "internalType": "address",
          "name": "",
          "type": "address"
        }
      ],
      "stateMutability": "view",
      "type": "function"
    },
    {
      "inputs": [
        {
          "internalType": "address",
          "name": "owner",
          "type": "address"
        },
        {
          "internalType": "address",
          "name": "operator",
          "type": "address"
        }
      ],
      "name": "isApprovedForAll",
      "outputs": [
        {
          "internalType": "bool",
          "name": "isOperator",
          "type": "bool"
        }
      ],
      "stateMutability": "view",
      "type": "function"
    },
    {
      "inputs": [
        {
          "internalType": "uint256",
          "name": "id",
          "type": "uint256"
        },
        {
          "internalType": "bytes32",
          "name": "data1",
          "type": "bytes32"
        },
        {
          "internalType": "bytes32",
          "name": "data2",
          "type": "bytes32"
        },
        {
          "internalType": "address",
          "name": "to",
          "type": "address"
        }
      ],
      "name": "mint",
      "outputs": [],
      "stateMutability": "nonpayable",
      "type": "function"
    },
    {
      "inputs": [],
      "name": "minter",
      "outputs": [
        {
          "internalType": "address",
          "name": "",
          "type": "address"
        }
      ],
      "stateMutability": "view",
      "type": "function"
    },
    {
      "inputs": [],
      "name": "minterAdmin",
      "outputs": [
        {
          "internalType": "address",
          "name": "",
          "type": "address"
        }
      ],
      "stateMutability": "view",
      "type": "function"
    },
    {
      "inputs": [
        {
          "internalType": "bytes[]",
          "name": "data",
          "type": "bytes[]"
        }
      ],
      "name": "multicall",
      "outputs": [
        {
          "internalType": "bytes[]",
          "name": "results",
          "type": "bytes[]"
        }
      ],
      "stateMutability": "payable",
      "type": "function"
    },
    {
      "inputs": [],
      "name": "name",
      "outputs": [
        {
          "internalType": "string",
          "name": "",
          "type": "string"
        }
      ],
      "stateMutability": "pure",
      "type": "function"
    },
    {
      "inputs": [],
      "name": "owner",
      "outputs": [
        {
          "internalType": "address",
          "name": "",
          "type": "address"
        }
      ],
      "stateMutability": "view",
      "type": "function"
    },
    {
      "inputs": [
        {
          "internalType": "uint256[]",
          "name": "ids",
          "type": "uint256[]"
        }
      ],
      "name": "ownerAndLastTransferBlockNumberList",
      "outputs": [
        {
          "components": [
            {
              "internalType": "address",
              "name": "owner",
              "type": "address"
            },
            {
              "internalType": "uint256",
              "name": "lastTransferBlockNumber",
              "type": "uint256"
            }
          ],
          "internalType": "struct ERC721Base.OwnerData[]",
          "name": "ownersData",
          "type": "tuple[]"
        }
      ],
      "stateMutability": "view",
      "type": "function"
    },
    {
      "inputs": [
        {
          "internalType": "uint256",
          "name": "id",
          "type": "uint256"
        }
      ],
      "name": "ownerOf",
      "outputs": [
        {
          "internalType": "address",
          "name": "owner",
          "type": "address"
        }
      ],
      "stateMutability": "view",
      "type": "function"
    },
    {
      "inputs": [
        {
          "internalType": "address payable",
          "name": "artist",
          "type": "address"
        },
        {
          "internalType": "string",
          "name": "name",
          "type": "string"
        },
        {
          "internalType": "bytes32",
          "name": "melobleepsHash",
          "type": "bytes32"
        },
        {
          "internalType": "uint8",
          "name": "speed",
          "type": "uint8"
        }
      ],
      "name": "reserve",
      "outputs": [
        {
          "internalType": "uint256",
          "name": "id",
          "type": "uint256"
        }
      ],
      "stateMutability": "nonpayable",
      "type": "function"
    },
    {
      "inputs": [
        {
          "internalType": "string",
          "name": "name",
          "type": "string"
        },
        {
          "internalType": "uint8",
          "name": "speed",
          "type": "uint8"
        },
        {
          "internalType": "bytes32",
          "name": "data1",
          "type": "bytes32"
        },
        {
          "internalType": "bytes32",
          "name": "data2",
          "type": "bytes32"
        },
        {
          "internalType": "address",
          "name": "to",
          "type": "address"
        }
      ],
      "name": "reserveAndMint",
      "outputs": [
        {
          "internalType": "uint256",
          "name": "id",
          "type": "uint256"
        }
      ],
      "stateMutability": "nonpayable",
      "type": "function"
    },
    {
      "inputs": [],
      "name": "royaltyAdmin",
      "outputs": [
        {
          "internalType": "address",
          "name": "",
          "type": "address"
        }
      ],
      "stateMutability": "view",
      "type": "function"
    },
    {
      "inputs": [
        {
          "internalType": "address",
          "name": "from",
          "type": "address"
        },
        {
          "internalType": "address",
          "name": "to",
          "type": "address"
        },
        {
          "internalType": "uint256",
          "name": "id",
          "type": "uint256"
        }
      ],
      "name": "safeTransferFrom",
      "outputs": [],
      "stateMutability": "nonpayable",
      "type": "function"
    },
    {
      "inputs": [
        {
          "internalType": "address",
          "name": "from",
          "type": "address"
        },
        {
          "internalType": "address",
          "name": "to",
          "type": "address"
        },
        {
          "internalType": "uint256",
          "name": "id",
          "type": "uint256"
        },
        {
          "internalType": "bytes",
          "name": "data",
          "type": "bytes"
        }
      ],
      "name": "safeTransferFrom",
      "outputs": [],
      "stateMutability": "nonpayable",
      "type": "function"
    },
    {
      "inputs": [
        {
          "internalType": "address",
          "name": "operator",
          "type": "address"
        },
        {
          "internalType": "bool",
          "name": "approved",
          "type": "bool"
        }
      ],
      "name": "setApprovalForAll",
      "outputs": [],
      "stateMutability": "nonpayable",
      "type": "function"
    },
    {
      "inputs": [
        {
          "internalType": "address",
          "name": "newGuardian",
          "type": "address"
        }
      ],
      "name": "setGuardian",
      "outputs": [],
      "stateMutability": "nonpayable",
      "type": "function"
    },
    {
      "inputs": [
        {
          "internalType": "address",
          "name": "newMinter",
          "type": "address"
        }
      ],
      "name": "setMinter",
      "outputs": [],
      "stateMutability": "nonpayable",
      "type": "function"
    },
    {
      "inputs": [
        {
          "internalType": "address",
          "name": "newMinterAdmin",
          "type": "address"
        }
      ],
      "name": "setMinterAdmin",
      "outputs": [],
      "stateMutability": "nonpayable",
      "type": "function"
    },
    {
      "inputs": [
        {
          "internalType": "address",
          "name": "newRoyaltyAdmin",
          "type": "address"
        }
      ],
      "name": "setRoyaltyAdmin",
      "outputs": [],
      "stateMutability": "nonpayable",
      "type": "function"
    },
    {
      "inputs": [
        {
          "internalType": "address",
          "name": "newTokenURIAdmin",
          "type": "address"
        }
      ],
      "name": "setTokenURIAdmin",
      "outputs": [],
      "stateMutability": "nonpayable",
      "type": "function"
    },
    {
      "inputs": [
        {
          "internalType": "contract MeloBleepsTokenURI",
          "name": "newTokenURIContract",
          "type": "address"
        }
      ],
      "name": "setTokenURIContract",
      "outputs": [],
      "stateMutability": "nonpayable",
      "type": "function"
    },
    {
      "inputs": [
        {
          "internalType": "bytes4",
          "name": "id",
          "type": "bytes4"
        }
      ],
      "name": "supportsInterface",
      "outputs": [
        {
          "internalType": "bool",
          "name": "",
          "type": "bool"
        }
      ],
      "stateMutability": "pure",
      "type": "function"
    },
    {
      "inputs": [],
      "name": "symbol",
      "outputs": [
        {
          "internalType": "string",
          "name": "",
          "type": "string"
        }
      ],
      "stateMutability": "pure",
      "type": "function"
    },
    {
      "inputs": [
        {
          "internalType": "uint256",
          "name": "id",
          "type": "uint256"
        }
      ],
      "name": "tokenURI",
      "outputs": [
        {
          "internalType": "string",
          "name": "",
          "type": "string"
        }
      ],
      "stateMutability": "view",
      "type": "function"
    },
    {
      "inputs": [],
      "name": "tokenURIAdmin",
      "outputs": [
        {
          "internalType": "address",
          "name": "",
          "type": "address"
        }
      ],
      "stateMutability": "view",
      "type": "function"
    },
    {
      "inputs": [],
      "name": "tokenURIContract",
      "outputs": [
        {
          "internalType": "contract MeloBleepsTokenURI",
          "name": "",
          "type": "address"
        }
      ],
      "stateMutability": "view",
      "type": "function"
    },
    {
      "inputs": [
        {
          "internalType": "address",
          "name": "from",
          "type": "address"
        },
        {
          "internalType": "address",
          "name": "to",
          "type": "address"
        },
        {
          "internalType": "uint256",
          "name": "id",
          "type": "uint256"
        }
      ],
      "name": "transferFrom",
      "outputs": [],
      "stateMutability": "nonpayable",
      "type": "function"
    },
    {
      "inputs": [
        {
          "internalType": "address",
          "name": "newOwner",
          "type": "address"
        }
      ],
      "name": "transferOwnership",
      "outputs": [],
      "stateMutability": "nonpayable",
      "type": "function"
    }
  ],
  "transactionHash": "0x71aaaca8549895a5ff9eb6c0e418bfe6ddd918e65532ca27d052f469f26bd75b",
  "args": [
    "0xCcFe9B3769473eeBb45a592313583616038f6274",
    "0xCcFe9B3769473eeBb45a592313583616038f6274",
    "0xCcFe9B3769473eeBb45a592313583616038f6274",
    "0xCcFe9B3769473eeBb45a592313583616038f6274",
    "0xCcFe9B3769473eeBb45a592313583616038f6274",
    "0xB5D95243Bc09e3C9059d381cDc2988011D43D8Cc"
  ],
  "numDeployments": 1,
  "solcInputHash": "033e5259db8a7b30206c03a47d8d035b",
  "bytecode": "0x60806040526000600f553480156200001657600080fd5b5060405162003788380380620037888339810160408190526200003991620001bd565b600480546001600160a01b038881166001600160a01b031992831617909255600580548884169083168117909155600680548785169084161790556007805493881693909216929092179055604051908152869086908690869086907f89de65ceb8cdf195a0b50021ed65dd305b54d3b744a0e283bd98c6058e2edd789060200160405180910390a16040516001600160a01b03831681527fb17416b845258d996b82b66c3c9166088ec5edf592b35fcce47c62a73d61ef419060200160405180910390a16040516001600160a01b03841681527fb8e0165b6664b7af8f9563c66e3d6b987c2d06fe192539d7123a0777b41a7c899060200160405180910390a15050600a80546001600160a01b0319166001600160a01b0386169081179091556040519081527f6bf5b09f847c9c9e97addeaf1ea9d5fd44ff6ae2c9c4aaf55fb476eca421a45d93506020019150620001909050565b60405180910390a150505050505062000251565b6001600160a01b0381168114620001ba57600080fd5b50565b60008060008060008060c08789031215620001d757600080fd5b8651620001e481620001a4565b6020880151909650620001f781620001a4565b60408801519095506200020a81620001a4565b60608801519094506200021d81620001a4565b60808801519093506200023081620001a4565b60a08801519092506200024381620001a4565b809150509295509295509295565b61352780620002616000396000f3fe6080604052600436106102195760003560e01c80637ba9638b1161011d578063a754d48f116100b0578063db2afcdf1161007f578063f2fde38b11610064578063f2fde38b146107ce578063f3945282146107ee578063fca3b5aa1461081b57600080fd5b8063db2afcdf146106db578063e985e9c51461077857600080fd5b8063a754d48f1461064e578063ac9650d81461067b578063b88d4fde1461069b578063c87b56dd146106bb57600080fd5b80638da5cb5b116100ec5780638da5cb5b1461059b57806395d89b41146105c857806399235f391461060e578063a22cb4651461062e57600080fd5b80637ba9638b1461050e57806382fc31471461052e578063894e851f1461054e5780638a0dac4a1461057b57600080fd5b806334dd800d116101b05780635d6859731161017f578063639147af11610164578063639147af146104a1578063698f87be146104c157806370a08231146104ee57600080fd5b80635d685973146104615780636352211e1461048157600080fd5b806334dd800d146103a457806342842e0e146103d1578063452a9320146103f1578063589a17431461041e57600080fd5b8063095ea7b3116101ec578063095ea7b3146103145780630b702e4e146103365780630b7a68671461036457806323b872dd1461038457600080fd5b806301ffc9a71461021e57806306fdde031461025357806307546172146102a2578063081812fc146102f4575b600080fd5b34801561022a57600080fd5b5061023e610239366004612be9565b61083b565b60405190151581526020015b60405180910390f35b34801561025f57600080fd5b5060408051808201909152601e81527f4d656c6f426c656570732c204d656c6f64696573206f6620426c65657073000060208201525b60405161024a9190612c7c565b3480156102ae57600080fd5b506008546102cf9073ffffffffffffffffffffffffffffffffffffffff1681565b60405173ffffffffffffffffffffffffffffffffffffffff909116815260200161024a565b34801561030057600080fd5b506102cf61030f366004612c8f565b610920565b34801561032057600080fd5b5061033461032f366004612cca565b610a11565b005b34801561034257600080fd5b50610356610351366004612d50565b610b7b565b60405190815260200161024a565b34801561037057600080fd5b5061033461037f366004612dcb565b610e11565b34801561039057600080fd5b5061033461039f366004612e0c565b61110a565b3480156103b057600080fd5b506005546102cf9073ffffffffffffffffffffffffffffffffffffffff1681565b3480156103dd57600080fd5b506103346103ec366004612e0c565b61144d565b3480156103fd57600080fd5b506009546102cf9073ffffffffffffffffffffffffffffffffffffffff1681565b34801561042a57600080fd5b506102cf610439366004612c8f565b6000908152600b602052604090205473ffffffffffffffffffffffffffffffffffffffff1690565b34801561046d57600080fd5b5061035661047c366004612e4d565b61146d565b34801561048d57600080fd5b506102cf61049c366004612c8f565b611737565b3480156104ad57600080fd5b506103346104bc366004612ebd565b6117c8565b3480156104cd57600080fd5b50600a546102cf9073ffffffffffffffffffffffffffffffffffffffff1681565b3480156104fa57600080fd5b50610356610509366004612ebd565b611904565b34801561051a57600080fd5b50610334610529366004612ebd565b6119ac565b34801561053a57600080fd5b50610334610549366004612ebd565b611ae1565b34801561055a57600080fd5b506006546102cf9073ffffffffffffffffffffffffffffffffffffffff1681565b34801561058757600080fd5b50610334610596366004612ebd565b611bd5565b3480156105a757600080fd5b506004546102cf9073ffffffffffffffffffffffffffffffffffffffff1681565b3480156105d457600080fd5b5060408051808201909152600681527f4d424c45455000000000000000000000000000000000000000000000000000006020820152610295565b34801561061a57600080fd5b50610334610629366004612ebd565b611cc9565b34801561063a57600080fd5b50610334610649366004612eda565b611dfe565b34801561065a57600080fd5b506007546102cf9073ffffffffffffffffffffffffffffffffffffffff1681565b61068e610689366004612f5d565b611e0d565b60405161024a9190612f9f565b3480156106a757600080fd5b506103346106b63660046130e3565b611f7f565b3480156106c757600080fd5b506102956106d6366004612c8f565b6122c4565b3480156106e757600080fd5b5061073f6106f6366004612c8f565b6011602052600090815260409020546cffffffffffffffffffffffffff8116906d0100000000000000000000000000900472ffffffffffffffffffffffffffffffffffffff1682565b604080516cffffffffffffffffffffffffff909316835272ffffffffffffffffffffffffffffffffffffff90911660208301520161024a565b34801561078457600080fd5b5061023e610793366004613192565b73ffffffffffffffffffffffffffffffffffffffff918216600090815260026020908152604080832093909416825291909152205460ff1690565b3480156107da57600080fd5b506103346107e9366004612ebd565b6123da565b3480156107fa57600080fd5b5061080e610809366004612f5d565b612475565b60405161024a91906131c0565b34801561082757600080fd5b50610334610836366004612ebd565b6125a8565b60007f01ffc9a7000000000000000000000000000000000000000000000000000000007fffffffff00000000000000000000000000000000000000000000000000000000831614806108ce57507f80ac58cd000000000000000000000000000000000000000000000000000000007fffffffff000000000000000000000000000000000000000000000000000000008316145b8061091a57507f5b5e139f000000000000000000000000000000000000000000000000000000007fffffffff000000000000000000000000000000000000000000000000000000008316145b92915050565b6000818152602081905260408120547f80000000000000000000000000000000000000000000000000000000000000008082161473ffffffffffffffffffffffffffffffffffffffff82166109d6576040517f08c379a000000000000000000000000000000000000000000000000000000000815260206004820152601160248201527f4e4f4e4558495354454e545f544f4b454e00000000000000000000000000000060448201526064015b60405180910390fd5b8015610a075750505060009081526003602052604090205473ffffffffffffffffffffffffffffffffffffffff1690565b5060009392505050565b6000818152602081905260409020546affffffffffffffffffffff60a082901c1673ffffffffffffffffffffffffffffffffffffffff8216610aaf576040517f08c379a000000000000000000000000000000000000000000000000000000000815260206004820152601160248201527f4e4f4e4558495354454e545f544f4b454e00000000000000000000000000000060448201526064016109cd565b3373ffffffffffffffffffffffffffffffffffffffff83161480610b03575073ffffffffffffffffffffffffffffffffffffffff8216600090815260026020908152604080832033845290915290205460ff165b610b69576040517f08c379a000000000000000000000000000000000000000000000000000000000815260206004820152601560248201527f554e415554484f52495a45445f415050524f56414c000000000000000000000060448201526064016109cd565b610b758282868661269c565b50505050565b6000600f60008154610b8c90613254565b91829055506000818152600b6020526040902080547fffffffffffffffffffffff00000000000000000000000000000000000000000016337fffffffffffffffffffffff00ffffffffffffffffffffffffffffffffffffffff16177401000000000000000000000000000000000000000060ff89160217905590508515610ce7576000610c4e88888080601f0160208091040260200160405190810160405280939291908181526020018383808284376000920191909152506127d592505050565b6000818152600e602052604090205490915015610cc7576040517f08c379a000000000000000000000000000000000000000000000000000000000815260206004820152601260248201527f4e414d455f414c52454144595f54414b454e000000000000000000000000000060448201526064016109cd565b6000818152600e60209081526040808320859055848352600d9091529020555b6000818152600c6020526040902084815560010183905573ffffffffffffffffffffffffffffffffffffffff8216610d7b576040517f08c379a000000000000000000000000000000000000000000000000000000000815260206004820152601260248201527f4e4f545f544f5f5a45524f41444452455353000000000000000000000000000060448201526064016109cd565b73ffffffffffffffffffffffffffffffffffffffff8216301415610dfb576040517f08c379a000000000000000000000000000000000000000000000000000000000815260206004820152600b60248201527f4e4f545f544f5f5448495300000000000000000000000000000000000000000060448201526064016109cd565b610e0760008383612829565b9695505050505050565b60085473ffffffffffffffffffffffffffffffffffffffff163314610e92576040517f08c379a000000000000000000000000000000000000000000000000000000000815260206004820152601360248201527f4f4e4c595f4d494e5445525f414c4c4f5745440000000000000000000000000060448201526064016109cd565b6000848152600b6020908152604080832054815180840188905280830187905282518082038401815260609091018352805190840120808552601090935292205473ffffffffffffffffffffffffffffffffffffffff90921691808714610f55576040517f08c379a000000000000000000000000000000000000000000000000000000000815260206004820152600c60248201527f494e56414c49445f48415348000000000000000000000000000000000000000060448201526064016109cd565b60008781526020819052604081205473ffffffffffffffffffffffffffffffffffffffff1614610fe1576040517f08c379a000000000000000000000000000000000000000000000000000000000815260206004820152600e60248201527f414c52454144595f4d494e54454400000000000000000000000000000000000060448201526064016109cd565b6000878152600c6020526040902086815560010185905573ffffffffffffffffffffffffffffffffffffffff8416611075576040517f08c379a000000000000000000000000000000000000000000000000000000000815260206004820152601260248201527f4e4f545f544f5f5a45524f41444452455353000000000000000000000000000060448201526064016109cd565b73ffffffffffffffffffffffffffffffffffffffff84163014156110f5576040517f08c379a000000000000000000000000000000000000000000000000000000000815260206004820152600b60248201527f4e4f545f544f5f5448495300000000000000000000000000000000000000000060448201526064016109cd565b61110160008589612829565b50505050505050565b6000818152602081905260409020547f80000000000000000000000000000000000000000000000000000000000000008082161473ffffffffffffffffffffffffffffffffffffffff82166111bb576040517f08c379a000000000000000000000000000000000000000000000000000000000815260206004820152601160248201527f4e4f4e4558495354454e545f544f4b454e00000000000000000000000000000060448201526064016109cd565b8473ffffffffffffffffffffffffffffffffffffffff168273ffffffffffffffffffffffffffffffffffffffff1614611250576040517f08c379a000000000000000000000000000000000000000000000000000000000815260206004820152600960248201527f4e4f545f4f574e4552000000000000000000000000000000000000000000000060448201526064016109cd565b73ffffffffffffffffffffffffffffffffffffffff84166112cd576040517f08c379a000000000000000000000000000000000000000000000000000000000815260206004820152601260248201527f4e4f545f544f5f5a45524f41444452455353000000000000000000000000000060448201526064016109cd565b73ffffffffffffffffffffffffffffffffffffffff841630141561134d576040517f08c379a000000000000000000000000000000000000000000000000000000000815260206004820152600b60248201527f4e4f545f544f5f5448495300000000000000000000000000000000000000000060448201526064016109cd565b3373ffffffffffffffffffffffffffffffffffffffff86161461143b5780801561139a575060008381526003602052604090205473ffffffffffffffffffffffffffffffffffffffff1633145b806113d5575073ffffffffffffffffffffffffffffffffffffffff8516600090815260026020908152604080832033845290915290205460ff165b61143b576040517f08c379a000000000000000000000000000000000000000000000000000000000815260206004820152601560248201527f554e415554484f52495a45445f5452414e53464552000000000000000000000060448201526064016109cd565b611446858585612829565b5050505050565b61146883838360405180602001604052806000815250611f7f565b505050565b60085460009073ffffffffffffffffffffffffffffffffffffffff1633146114f1576040517f08c379a000000000000000000000000000000000000000000000000000000000815260206004820152601360248201527f4f4e4c595f4d494e5445525f414c4c4f5745440000000000000000000000000060448201526064016109cd565b600f6000815461150090613254565b91829055506000848152601060205260409020549091501561157e576040517f08c379a000000000000000000000000000000000000000000000000000000000815260206004820152601060248201527f414c52454144595f52455345525645440000000000000000000000000000000060448201526064016109cd565b6000838152601060209081526040808320849055838352600b9091529020805460ff841674010000000000000000000000000000000000000000027fffffffffffffffffffffff00000000000000000000000000000000000000000090911673ffffffffffffffffffffffffffffffffffffffff89161717905583156116d857600061163f86868080601f0160208091040260200160405190810160405280939291908181526020018383808284376000920191909152506127d592505050565b6000818152600e6020526040902054909150156116b8576040517f08c379a000000000000000000000000000000000000000000000000000000000815260206004820152601260248201527f4e414d455f414c52454144595f54414b454e000000000000000000000000000060448201526064016109cd565b6000818152600e60209081526040808320859055848352600d9091529020555b8573ffffffffffffffffffffffffffffffffffffffff167f4854dca0c7122cd121303377cf678bfc67af2bddcf96f5013518c167c8b659f6828588888760405161172695949392919061328d565b60405180910390a295945050505050565b60008181526020819052604090205473ffffffffffffffffffffffffffffffffffffffff81166117c3576040517f08c379a000000000000000000000000000000000000000000000000000000000815260206004820152601160248201527f4e4f4e4558495354454e545f544f4b454e00000000000000000000000000000060448201526064016109cd565b919050565b60055473ffffffffffffffffffffffffffffffffffffffff16331480611824575060095473ffffffffffffffffffffffffffffffffffffffff1633148015611824575073ffffffffffffffffffffffffffffffffffffffff8116155b61188a576040517f08c379a000000000000000000000000000000000000000000000000000000000815260206004820152600e60248201527f4e4f545f415554484f52495a454400000000000000000000000000000000000060448201526064016109cd565b600580547fffffffffffffffffffffffff00000000000000000000000000000000000000001673ffffffffffffffffffffffffffffffffffffffff83169081179091556040519081527f89de65ceb8cdf195a0b50021ed65dd305b54d3b744a0e283bd98c6058e2edd78906020015b60405180910390a150565b600073ffffffffffffffffffffffffffffffffffffffff8216611983576040517f08c379a000000000000000000000000000000000000000000000000000000000815260206004820152601260248201527f5a45524f5f414444524553535f4f574e4552000000000000000000000000000060448201526064016109cd565b5073ffffffffffffffffffffffffffffffffffffffff1660009081526001602052604090205490565b60065473ffffffffffffffffffffffffffffffffffffffff16331480611a08575060095473ffffffffffffffffffffffffffffffffffffffff1633148015611a08575073ffffffffffffffffffffffffffffffffffffffff8116155b611a6e576040517f08c379a000000000000000000000000000000000000000000000000000000000815260206004820152600e60248201527f4e4f545f415554484f52495a454400000000000000000000000000000000000060448201526064016109cd565b600680547fffffffffffffffffffffffff00000000000000000000000000000000000000001673ffffffffffffffffffffffffffffffffffffffff83169081179091556040519081527fb17416b845258d996b82b66c3c9166088ec5edf592b35fcce47c62a73d61ef41906020016118f9565b60055473ffffffffffffffffffffffffffffffffffffffff163314611b62576040517f08c379a000000000000000000000000000000000000000000000000000000000815260206004820152600e60248201527f4e4f545f415554484f52495a454400000000000000000000000000000000000060448201526064016109cd565b600a80547fffffffffffffffffffffffff00000000000000000000000000000000000000001673ffffffffffffffffffffffffffffffffffffffff83169081179091556040519081527f6bf5b09f847c9c9e97addeaf1ea9d5fd44ff6ae2c9c4aaf55fb476eca421a45d906020016118f9565b60095473ffffffffffffffffffffffffffffffffffffffff163314611c56576040517f08c379a000000000000000000000000000000000000000000000000000000000815260206004820152600e60248201527f4e4f545f415554484f52495a454400000000000000000000000000000000000060448201526064016109cd565b600980547fffffffffffffffffffffffff00000000000000000000000000000000000000001673ffffffffffffffffffffffffffffffffffffffff83169081179091556040519081527fe6c09ffe4572dc9ceaa5ddde4ae41befa655d6fdfe8052077af0970f700e942e906020016118f9565b60075473ffffffffffffffffffffffffffffffffffffffff16331480611d25575060095473ffffffffffffffffffffffffffffffffffffffff1633148015611d25575073ffffffffffffffffffffffffffffffffffffffff8116155b611d8b576040517f08c379a000000000000000000000000000000000000000000000000000000000815260206004820152600e60248201527f4e4f545f415554484f52495a454400000000000000000000000000000000000060448201526064016109cd565b600780547fffffffffffffffffffffffff00000000000000000000000000000000000000001673ffffffffffffffffffffffffffffffffffffffff83169081179091556040519081527fb8e0165b6664b7af8f9563c66e3d6b987c2d06fe192539d7123a0777b41a7c89906020016118f9565b611e0933838361290d565b5050565b60608167ffffffffffffffff811115611e2857611e2861301f565b604051908082528060200260200182016040528015611e5b57816020015b6060815260200190600190039081611e465790505b50905060005b82811015611f785760008030868685818110611e7f57611e7f6132f5565b9050602002810190611e919190613324565b604051611e9f929190613389565b600060405180830381855af49150503d8060008114611eda576040519150601f19603f3d011682016040523d82523d6000602084013e611edf565b606091505b509150915081611f4557604481511015611ef857600080fd5b60048101905080806020019051810190611f129190613399565b6040517f08c379a00000000000000000000000000000000000000000000000000000000081526004016109cd9190612c7c565b80848481518110611f5857611f586132f5565b602002602001018190525050508080611f7090613254565b915050611e61565b5092915050565b6000828152602081905260409020547f80000000000000000000000000000000000000000000000000000000000000008082161473ffffffffffffffffffffffffffffffffffffffff8216612030576040517f08c379a000000000000000000000000000000000000000000000000000000000815260206004820152601160248201527f4e4f4e4558495354454e545f544f4b454e00000000000000000000000000000060448201526064016109cd565b8573ffffffffffffffffffffffffffffffffffffffff168273ffffffffffffffffffffffffffffffffffffffff16146120c5576040517f08c379a000000000000000000000000000000000000000000000000000000000815260206004820152600960248201527f4e4f545f4f574e4552000000000000000000000000000000000000000000000060448201526064016109cd565b73ffffffffffffffffffffffffffffffffffffffff8516612142576040517f08c379a000000000000000000000000000000000000000000000000000000000815260206004820152601260248201527f4e4f545f544f5f5a45524f41444452455353000000000000000000000000000060448201526064016109cd565b73ffffffffffffffffffffffffffffffffffffffff85163014156121c2576040517f08c379a000000000000000000000000000000000000000000000000000000000815260206004820152600b60248201527f4e4f545f544f5f5448495300000000000000000000000000000000000000000060448201526064016109cd565b3373ffffffffffffffffffffffffffffffffffffffff8716146122b05780801561220f575060008481526003602052604090205473ffffffffffffffffffffffffffffffffffffffff1633145b8061224a575073ffffffffffffffffffffffffffffffffffffffff8616600090815260026020908152604080832033845290915290205460ff165b6122b0576040517f08c379a000000000000000000000000000000000000000000000000000000000815260206004820152601560248201527f554e415554484f52495a45445f5452414e53464552000000000000000000000060448201526064016109cd565b6122bc868686866129a5565b505050505050565b6000818152600c602090815260408083208054600190910154600b845282852054600d9094529190932054600a546060949373ffffffffffffffffffffffffffffffffffffffff808216937401000000000000000000000000000000000000000090920460ff169216630214125d86868561233e86612a40565b6040518563ffffffff1660e01b815260040161235d9493929190613410565b60006040518083038186803b15801561237557600080fd5b505afa158015612389573d6000803e3d6000fd5b505050506040513d6000823e601f3d9081017fffffffffffffffffffffffffffffffffffffffffffffffffffffffffffffffe01682016040526123cf9190810190613399565b979650505050505050565b60045473ffffffffffffffffffffffffffffffffffffffff163381146123ff57600080fd5b600480547fffffffffffffffffffffffff00000000000000000000000000000000000000001673ffffffffffffffffffffffffffffffffffffffff84811691821790925560405190918316907f8be0079c531659141344cd1fd0a4f28419497f9722a3daafe3b4186f6b6457e090600090a35050565b60608167ffffffffffffffff8111156124905761249061301f565b6040519080825280602002602001820160405280156124d557816020015b60408051808201909152600080825260208201528152602001906001900390816124ae5790505b50905060005b82811015611f785760008060008686858181106124fa576124fa6132f5565b90506020020135815260200190815260200160002054905080838381518110612525576125256132f5565b60200260200101516000019073ffffffffffffffffffffffffffffffffffffffff16908173ffffffffffffffffffffffffffffffffffffffff168152505060a081901c6affffffffffffffffffffff16838381518110612587576125876132f5565b602090810291909101810151015250806125a081613254565b9150506124db565b60075473ffffffffffffffffffffffffffffffffffffffff163314612629576040517f08c379a000000000000000000000000000000000000000000000000000000000815260206004820152600e60248201527f4e4f545f415554484f52495a454400000000000000000000000000000000000060448201526064016109cd565b600880547fffffffffffffffffffffffff00000000000000000000000000000000000000001673ffffffffffffffffffffffffffffffffffffffff83169081179091556040519081527f726b590ef91a8c76ad05bbe91a57ef84605276528f49cd47d787f558a4e755b6906020016118f9565b73ffffffffffffffffffffffffffffffffffffffff82166126e957600081815260208190526040902060a084901b73ffffffffffffffffffffffffffffffffffffffff8616179055612774565b6000818152602081815260408083207f800000000000000000000000000000000000000000000000000000000000000073ffffffffffffffffffffffffffffffffffffffff89811660a08a901b1791909117909155600390925290912080547fffffffffffffffffffffffff0000000000000000000000000000000000000000169184169190911790555b808273ffffffffffffffffffffffffffffffffffffffff168573ffffffffffffffffffffffffffffffffffffffff167f8c5be1e5ebec7d5bd14f71427d1e84f3dd0314c0f7b2291e5b200ac8c7c3b92560405160405180910390a450505050565b60008082905060208151111561281957826040517f305a27a90000000000000000000000000000000000000000000000000000000081526004016109cd9190612c7c565b61282281613438565b9392505050565b73ffffffffffffffffffffffffffffffffffffffff8083166000908152600160208190526040909120805490910190558316156128ac5773ffffffffffffffffffffffffffffffffffffffff8316600090815260016020526040902080547fffffffffffffffffffffffffffffffffffffffffffffffffffffffffffffffff0190555b6000818152602081905260408082204360a01b73ffffffffffffffffffffffffffffffffffffffff80871691821790925591518493918716917fddf252ad1be2c89b69c2b068fc378daa952ba7f163c4a11628f55a4df523b3ef91a4505050565b73ffffffffffffffffffffffffffffffffffffffff83811660008181526002602090815260408083209487168084529482529182902080547fffffffffffffffffffffffffffffffffffffffffffffffffffffffffffffff001686151590811790915591519182527f17307eab39ab6107e8899845ad3d59bd9653f200f220920489ca2b5937696c31910160405180910390a3505050565b6129b0848484612829565b73ffffffffffffffffffffffffffffffffffffffff83163b15610b75576129da3385858585612a7f565b610b75576040517f08c379a000000000000000000000000000000000000000000000000000000000815260206004820152601860248201527f4552433732315f5452414e534645525f52454a4543544544000000000000000060448201526064016109cd565b604080516020808252818301909252606091600091906020820181803683370190505090506000612a7084612b63565b82525060208101929092525090565b6000808473ffffffffffffffffffffffffffffffffffffffff1663150b7a02888887876040518563ffffffff1660e01b8152600401612ac1949392919061347d565b602060405180830381600087803b158015612adb57600080fd5b505af1158015612aef573d6000803e3d6000fd5b505050506040513d601f19601f82011682018060405250810190612b1391906134bc565b7fffffffff00000000000000000000000000000000000000000000000000000000167f150b7a02000000000000000000000000000000000000000000000000000000001491505095945050505050565b600081817fff000000000000000000000000000000000000000000000000000000000000005b8015612bb057828116612b9b57612bb0565b612ba66001836134d9565b915060081c612b89565b509392505050565b7fffffffff0000000000000000000000000000000000000000000000000000000081168114612be657600080fd5b50565b600060208284031215612bfb57600080fd5b813561282281612bb8565b60005b83811015612c21578181015183820152602001612c09565b83811115610b755750506000910152565b60008151808452612c4a816020860160208601612c06565b601f017fffffffffffffffffffffffffffffffffffffffffffffffffffffffffffffffe0169290920160200192915050565b6020815260006128226020830184612c32565b600060208284031215612ca157600080fd5b5035919050565b73ffffffffffffffffffffffffffffffffffffffff81168114612be657600080fd5b60008060408385031215612cdd57600080fd5b8235612ce881612ca8565b946020939093013593505050565b60008083601f840112612d0857600080fd5b50813567ffffffffffffffff811115612d2057600080fd5b602083019150836020828501011115612d3857600080fd5b9250929050565b803560ff811681146117c357600080fd5b60008060008060008060a08789031215612d6957600080fd5b863567ffffffffffffffff811115612d8057600080fd5b612d8c89828a01612cf6565b9097509550612d9f905060208801612d3f565b935060408701359250606087013591506080870135612dbd81612ca8565b809150509295509295509295565b60008060008060808587031215612de157600080fd5b8435935060208501359250604085013591506060850135612e0181612ca8565b939692955090935050565b600080600060608486031215612e2157600080fd5b8335612e2c81612ca8565b92506020840135612e3c81612ca8565b929592945050506040919091013590565b600080600080600060808688031215612e6557600080fd5b8535612e7081612ca8565b9450602086013567ffffffffffffffff811115612e8c57600080fd5b612e9888828901612cf6565b90955093505060408601359150612eb160608701612d3f565b90509295509295909350565b600060208284031215612ecf57600080fd5b813561282281612ca8565b60008060408385031215612eed57600080fd5b8235612ef881612ca8565b915060208301358015158114612f0d57600080fd5b809150509250929050565b60008083601f840112612f2a57600080fd5b50813567ffffffffffffffff811115612f4257600080fd5b6020830191508360208260051b8501011115612d3857600080fd5b60008060208385031215612f7057600080fd5b823567ffffffffffffffff811115612f8757600080fd5b612f9385828601612f18565b90969095509350505050565b6000602080830181845280855180835260408601915060408160051b870101925083870160005b82811015613012577fffffffffffffffffffffffffffffffffffffffffffffffffffffffffffffffc0888603018452613000858351612c32565b94509285019290850190600101612fc6565b5092979650505050505050565b7f4e487b7100000000000000000000000000000000000000000000000000000000600052604160045260246000fd5b604051601f82017fffffffffffffffffffffffffffffffffffffffffffffffffffffffffffffffe016810167ffffffffffffffff811182821017156130955761309561301f565b604052919050565b600067ffffffffffffffff8211156130b7576130b761301f565b50601f017fffffffffffffffffffffffffffffffffffffffffffffffffffffffffffffffe01660200190565b600080600080608085870312156130f957600080fd5b843561310481612ca8565b9350602085013561311481612ca8565b925060408501359150606085013567ffffffffffffffff81111561313757600080fd5b8501601f8101871361314857600080fd5b803561315b6131568261309d565b61304e565b81815288602083850101111561317057600080fd5b8160208401602083013760006020838301015280935050505092959194509250565b600080604083850312156131a557600080fd5b82356131b081612ca8565b91506020830135612f0d81612ca8565b602080825282518282018190526000919060409081850190868401855b82811015613218578151805173ffffffffffffffffffffffffffffffffffffffff1685528601518685015292840192908501906001016131dd565b5091979650505050505050565b7f4e487b7100000000000000000000000000000000000000000000000000000000600052601160045260246000fd5b60007fffffffffffffffffffffffffffffffffffffffffffffffffffffffffffffffff82141561328657613286613225565b5060010190565b85815284602082015260806040820152826080820152828460a0830137600060a08483010152600060a07fffffffffffffffffffffffffffffffffffffffffffffffffffffffffffffffe0601f860116830101905060ff831660608301529695505050505050565b7f4e487b7100000000000000000000000000000000000000000000000000000000600052603260045260246000fd5b60008083357fffffffffffffffffffffffffffffffffffffffffffffffffffffffffffffffe184360301811261335957600080fd5b83018035915067ffffffffffffffff82111561337457600080fd5b602001915036819003821315612d3857600080fd5b8183823760009101908152919050565b6000602082840312156133ab57600080fd5b815167ffffffffffffffff8111156133c257600080fd5b8201601f810184136133d357600080fd5b80516133e16131568261309d565b8181528560208385010111156133f657600080fd5b613407826020830160208601612c06565b95945050505050565b84815283602082015260ff83166040820152608060608201526000610e076080830184612c32565b80516020808301519190811015613477577fffffffffffffffffffffffffffffffffffffffffffffffffffffffffffffffff8160200360031b1b821691505b50919050565b600073ffffffffffffffffffffffffffffffffffffffff808716835280861660208401525083604083015260806060830152610e076080830184612c32565b6000602082840312156134ce57600080fd5b815161282281612bb8565b600082198211156134ec576134ec613225565b50019056fea26469706673582212208b032d413669de09a192129a58cf84f36c3732edd748092f58c25780b7e5533064736f6c63430008090033",
  "devdoc": {
    "kind": "dev",
    "methods": {
      "approve(address,uint256)": {
        "params": {
          "id": "The id of the token.",
          "operator": "The address receiving the approval."
        }
      },
      "balanceOf(address)": {
        "params": {
          "owner": "The address to look for."
        },
        "returns": {
          "balance": "The number of tokens owned by the address."
        }
      },
      "constructor": {
        "params": {
          "initialGuardian": "guardian able to immortalize rules",
          "initialMinterAdmin": "admin able to set the minter contract.",
          "initialOwner": "address that can execute on behalf of Bleeps (example: can claim ENS name).",
          "initialRoyaltyAdmin": "admin able to update the royalty recipient and rates.",
          "initialTokenURIAdmin": "admin able to update the tokenURI contract.",
          "initialTokenURIContract": "initial tokenURI contract that generate the metadata including the wav file."
        }
      },
      "getApproved(uint256)": {
        "params": {
          "id": "The id of the token."
        },
        "returns": {
          "_0": "The address of the operator."
        }
      },
      "isApprovedForAll(address,address)": {
        "params": {
          "operator": "The address of the operator.",
          "owner": "The address of the owner."
        },
        "returns": {
          "isOperator": "The status of the approval."
        }
      },
      "multicall(bytes[])": {
        "details": "The `msg.value` should not be trusted for any method callable from multicall.",
        "params": {
          "data": "The encoded function data for each of the calls to make to this contract."
        },
        "returns": {
          "results": "The results from each of the calls passed in via data."
        }
      },
      "ownerAndLastTransferBlockNumberList(uint256[])": {
        "params": {
          "ids": "The list of token ids to check."
        },
        "returns": {
          "ownersData": "The list of (owner, lastTransferBlockNumber) for each ids given as input."
        }
      },
      "ownerOf(uint256)": {
        "params": {
          "id": "The id of the token."
        },
        "returns": {
          "owner": "The address of the token owner."
        }
      },
      "safeTransferFrom(address,address,uint256)": {
        "params": {
          "from": "The send of the token.",
          "id": "The id of the token.",
          "to": "The recipient of the token."
        }
      },
      "safeTransferFrom(address,address,uint256,bytes)": {
        "params": {
          "data": "Additional data.",
          "from": "The sender of the token.",
          "id": "The id of the token.",
          "to": "The recipient of the token."
        }
      },
      "setApprovalForAll(address,bool)": {
        "params": {
          "approved": "The determination of the approval.",
          "operator": "The address receiving the approval."
        }
      },
      "supportsInterface(bytes4)": {
        "params": {
          "id": "The id of the interface."
        },
        "returns": {
          "_0": "Whether the interface is supported."
        }
      },
      "transferFrom(address,address,uint256)": {
        "params": {
          "from": "The sender of the token.",
          "id": "The id of the token.",
          "to": "The recipient of the token."
        }
      }
    },
    "version": 1
  },
  "userdoc": {
    "kind": "user",
    "methods": {
      "approve(address,uint256)": {
        "notice": "Approve an operator to transfer a specific token on the senders behalf."
      },
      "balanceOf(address)": {
        "notice": "Get the number of tokens owned by an address."
      },
      "getApproved(uint256)": {
        "notice": "Get the approved operator for a specific token."
      },
      "guardian()": {
        "notice": "guardian has some special vetoing power to guide the direction of the DAO. It can only remove rights from the DAO. It could be used to immortalize rules."
      },
      "isApprovedForAll(address,address)": {
        "notice": "Check if the sender approved the operator."
      },
      "minter()": {
        "notice": "address allowed to mint, allow the sale contract to be separated from the token contract that can focus on the core logic"
      },
      "minterAdmin()": {
        "notice": "minterAdmin can update the minter. could be given to the DAO later so new mechanism of sales for Melobleeps can be tested."
      },
      "multicall(bytes[])": {
        "notice": "Call multiple functions in the current contract and return the data from all of them if they all succeed."
      },
      "name()": {
        "notice": "A descriptive name for a collection of NFTs in this contract"
      },
      "owner()": {
        "notice": "the address of the current owner, that is able to execute on behalf of this contract."
      },
      "ownerAndLastTransferBlockNumberList(uint256[])": {
        "notice": "Get the list of owner of a token and the blockNumber of its last transfer, useful to voting mechanism."
      },
      "ownerOf(uint256)": {
        "notice": "Get the owner of a token."
      },
      "royaltyAdmin()": {
        "notice": "address allowed to set royalty parameters"
      },
      "safeTransferFrom(address,address,uint256)": {
        "notice": "Transfer a token between 2 addresses letting the receiver know of the transfer."
      },
      "safeTransferFrom(address,address,uint256,bytes)": {
        "notice": "Transfer a token between 2 addresses letting the receiver knows of the transfer."
      },
      "setApprovalForAll(address,bool)": {
        "notice": "Set the approval for an operator to manage all the tokens of the sender."
      },
      "setGuardian(address)": {
        "notice": "set the new guardian that can freeze the other admins (except owner). Can only be called by the current guardian."
      },
      "setMinter(address)": {
        "notice": "set the new minter that can mint Bleeps (up to 1024). Can only be called by the minter admin."
      },
      "setMinterAdmin(address)": {
        "notice": "set the new minterAdmin that can set the minter for Bleeps Can only be called by the current minter admin."
      },
      "setRoyaltyAdmin(address)": {
        "notice": "set the new royaltyAdmin that can change the royalties Can only be called by the current royalty admin."
      },
      "setTokenURIAdmin(address)": {
        "notice": "set the new tokenURIAdmin that can change the tokenURI Can only be called by the current tokenURI admin."
      },
      "supportsInterface(bytes4)": {
        "notice": "Check if the contract supports an interface."
      },
      "symbol()": {
        "notice": "An abbreviated name for NFTs in this contract"
      },
      "tokenURIAdmin()": {
        "notice": "maintainer can update the tokenURI contract, this is intended to be relinquished once the tokenURI has been heavily tested in the wild and that no modification are needed."
      },
      "tokenURIContract()": {
        "notice": "the contract that actually generate the sound (and all metadata via the a data: uri as tokenURI)"
      },
      "transferFrom(address,address,uint256)": {
        "notice": "Transfer a token between 2 addresses."
      },
      "transferOwnership(address)": {
        "notice": "Transfers ownership of the contract to a new account (`newOwner`). Can only be called by the current owner."
      }
    },
    "version": 1
  },
  "storageLayout": {
    "storage": [
      {
        "astId": 6429,
        "contract": "src/melobleeps/MeloBleeps.sol:MeloBleeps",
        "label": "_owners",
        "offset": 0,
        "slot": "0",
        "type": "t_mapping(t_uint256,t_uint256)"
      },
      {
        "astId": 6433,
        "contract": "src/melobleeps/MeloBleeps.sol:MeloBleeps",
        "label": "_balances",
        "offset": 0,
        "slot": "1",
        "type": "t_mapping(t_address,t_uint256)"
      },
      {
        "astId": 6439,
        "contract": "src/melobleeps/MeloBleeps.sol:MeloBleeps",
        "label": "_operatorsForAll",
        "offset": 0,
        "slot": "2",
        "type": "t_mapping(t_address,t_mapping(t_address,t_bool))"
      },
      {
        "astId": 6443,
        "contract": "src/melobleeps/MeloBleeps.sol:MeloBleeps",
        "label": "_operators",
        "offset": 0,
        "slot": "3",
        "type": "t_mapping(t_uint256,t_address)"
      },
      {
        "astId": 14802,
        "contract": "src/melobleeps/MeloBleeps.sol:MeloBleeps",
        "label": "owner",
        "offset": 0,
        "slot": "4",
        "type": "t_address"
      },
      {
        "astId": 14805,
        "contract": "src/melobleeps/MeloBleeps.sol:MeloBleeps",
        "label": "tokenURIAdmin",
        "offset": 0,
        "slot": "5",
        "type": "t_address"
      },
      {
        "astId": 14808,
        "contract": "src/melobleeps/MeloBleeps.sol:MeloBleeps",
        "label": "royaltyAdmin",
        "offset": 0,
        "slot": "6",
        "type": "t_address"
      },
      {
        "astId": 14811,
        "contract": "src/melobleeps/MeloBleeps.sol:MeloBleeps",
        "label": "minterAdmin",
        "offset": 0,
        "slot": "7",
        "type": "t_address"
      },
      {
        "astId": 14814,
        "contract": "src/melobleeps/MeloBleeps.sol:MeloBleeps",
        "label": "minter",
        "offset": 0,
        "slot": "8",
        "type": "t_address"
      },
      {
        "astId": 14817,
        "contract": "src/melobleeps/MeloBleeps.sol:MeloBleeps",
        "label": "guardian",
        "offset": 0,
        "slot": "9",
        "type": "t_address"
      },
      {
        "astId": 13580,
        "contract": "src/melobleeps/MeloBleeps.sol:MeloBleeps",
        "label": "tokenURIContract",
        "offset": 0,
        "slot": "10",
        "type": "t_contract(MeloBleepsTokenURI)15411"
      },
      {
        "astId": 13595,
        "contract": "src/melobleeps/MeloBleeps.sol:MeloBleeps",
        "label": "_melodyMetadatas",
        "offset": 0,
        "slot": "11",
        "type": "t_mapping(t_uint256,t_struct(MelodyMetadata)13585_storage)"
      },
      {
        "astId": 13600,
        "contract": "src/melobleeps/MeloBleeps.sol:MeloBleeps",
        "label": "_melodyDatas",
        "offset": 0,
        "slot": "12",
        "type": "t_mapping(t_uint256,t_struct(MelodyData)13590_storage)"
      },
      {
        "astId": 13605,
        "contract": "src/melobleeps/MeloBleeps.sol:MeloBleeps",
        "label": "_named",
        "offset": 0,
        "slot": "13",
        "type": "t_mapping(t_uint256,t_userDefinedValueType(ShortString)13431)"
      },
      {
        "astId": 13610,
        "contract": "src/melobleeps/MeloBleeps.sol:MeloBleeps",
        "label": "_names",
        "offset": 0,
        "slot": "14",
        "type": "t_mapping(t_userDefinedValueType(ShortString)13431,t_uint256)"
      },
      {
        "astId": 13613,
        "contract": "src/melobleeps/MeloBleeps.sol:MeloBleeps",
        "label": "_supply",
        "offset": 0,
        "slot": "15",
        "type": "t_uint256"
      },
      {
        "astId": 13617,
        "contract": "src/melobleeps/MeloBleeps.sol:MeloBleeps",
        "label": "_reservations",
        "offset": 0,
        "slot": "16",
        "type": "t_mapping(t_bytes32,t_uint256)"
      },
      {
        "astId": 13627,
        "contract": "src/melobleeps/MeloBleeps.sol:MeloBleeps",
        "label": "bleepsUsed",
        "offset": 0,
        "slot": "17",
        "type": "t_mapping(t_uint256,t_struct(BleepUsed)13622_storage)"
      }
    ],
    "types": {
      "t_address": {
        "encoding": "inplace",
        "label": "address",
        "numberOfBytes": "20"
      },
      "t_address_payable": {
        "encoding": "inplace",
        "label": "address payable",
        "numberOfBytes": "20"
      },
      "t_bool": {
        "encoding": "inplace",
        "label": "bool",
        "numberOfBytes": "1"
      },
      "t_bytes32": {
        "encoding": "inplace",
        "label": "bytes32",
        "numberOfBytes": "32"
      },
      "t_contract(MeloBleepsTokenURI)15411": {
        "encoding": "inplace",
        "label": "contract MeloBleepsTokenURI",
        "numberOfBytes": "20"
      },
      "t_mapping(t_address,t_bool)": {
        "encoding": "mapping",
        "key": "t_address",
        "label": "mapping(address => bool)",
        "numberOfBytes": "32",
        "value": "t_bool"
      },
      "t_mapping(t_address,t_mapping(t_address,t_bool))": {
        "encoding": "mapping",
        "key": "t_address",
        "label": "mapping(address => mapping(address => bool))",
        "numberOfBytes": "32",
        "value": "t_mapping(t_address,t_bool)"
      },
      "t_mapping(t_address,t_uint256)": {
        "encoding": "mapping",
        "key": "t_address",
        "label": "mapping(address => uint256)",
        "numberOfBytes": "32",
        "value": "t_uint256"
      },
      "t_mapping(t_bytes32,t_uint256)": {
        "encoding": "mapping",
        "key": "t_bytes32",
        "label": "mapping(bytes32 => uint256)",
        "numberOfBytes": "32",
        "value": "t_uint256"
      },
      "t_mapping(t_uint256,t_address)": {
        "encoding": "mapping",
        "key": "t_uint256",
        "label": "mapping(uint256 => address)",
        "numberOfBytes": "32",
        "value": "t_address"
      },
      "t_mapping(t_uint256,t_struct(BleepUsed)13622_storage)": {
        "encoding": "mapping",
        "key": "t_uint256",
        "label": "mapping(uint256 => struct MeloBleeps.BleepUsed)",
        "numberOfBytes": "32",
        "value": "t_struct(BleepUsed)13622_storage"
      },
      "t_mapping(t_uint256,t_struct(MelodyData)13590_storage)": {
        "encoding": "mapping",
        "key": "t_uint256",
        "label": "mapping(uint256 => struct MeloBleeps.MelodyData)",
        "numberOfBytes": "32",
        "value": "t_struct(MelodyData)13590_storage"
      },
      "t_mapping(t_uint256,t_struct(MelodyMetadata)13585_storage)": {
        "encoding": "mapping",
        "key": "t_uint256",
        "label": "mapping(uint256 => struct MeloBleeps.MelodyMetadata)",
        "numberOfBytes": "32",
        "value": "t_struct(MelodyMetadata)13585_storage"
      },
      "t_mapping(t_uint256,t_uint256)": {
        "encoding": "mapping",
        "key": "t_uint256",
        "label": "mapping(uint256 => uint256)",
        "numberOfBytes": "32",
        "value": "t_uint256"
      },
      "t_mapping(t_uint256,t_userDefinedValueType(ShortString)13431)": {
        "encoding": "mapping",
        "key": "t_uint256",
        "label": "mapping(uint256 => ShortString)",
        "numberOfBytes": "32",
        "value": "t_userDefinedValueType(ShortString)13431"
      },
      "t_mapping(t_userDefinedValueType(ShortString)13431,t_uint256)": {
        "encoding": "mapping",
        "key": "t_userDefinedValueType(ShortString)13431",
        "label": "mapping(ShortString => uint256)",
        "numberOfBytes": "32",
        "value": "t_uint256"
      },
      "t_struct(BleepUsed)13622_storage": {
        "encoding": "inplace",
        "label": "struct MeloBleeps.BleepUsed",
        "members": [
          {
            "astId": 13619,
            "contract": "src/melobleeps/MeloBleeps.sol:MeloBleeps",
            "label": "num",
            "offset": 0,
            "slot": "0",
            "type": "t_uint104"
          },
          {
            "astId": 13621,
            "contract": "src/melobleeps/MeloBleeps.sol:MeloBleeps",
            "label": "value",
            "offset": 13,
            "slot": "0",
            "type": "t_uint152"
          }
        ],
        "numberOfBytes": "32"
      },
      "t_struct(MelodyData)13590_storage": {
        "encoding": "inplace",
        "label": "struct MeloBleeps.MelodyData",
        "members": [
          {
            "astId": 13587,
            "contract": "src/melobleeps/MeloBleeps.sol:MeloBleeps",
            "label": "data1",
            "offset": 0,
            "slot": "0",
            "type": "t_bytes32"
          },
          {
            "astId": 13589,
            "contract": "src/melobleeps/MeloBleeps.sol:MeloBleeps",
            "label": "data2",
            "offset": 0,
            "slot": "1",
            "type": "t_bytes32"
          }
        ],
        "numberOfBytes": "64"
      },
      "t_struct(MelodyMetadata)13585_storage": {
        "encoding": "inplace",
        "label": "struct MeloBleeps.MelodyMetadata",
        "members": [
          {
            "astId": 13582,
            "contract": "src/melobleeps/MeloBleeps.sol:MeloBleeps",
            "label": "artist",
            "offset": 0,
            "slot": "0",
            "type": "t_address_payable"
          },
          {
            "astId": 13584,
            "contract": "src/melobleeps/MeloBleeps.sol:MeloBleeps",
            "label": "speed",
            "offset": 20,
            "slot": "0",
            "type": "t_uint8"
          }
        ],
        "numberOfBytes": "32"
      },
      "t_uint104": {
        "encoding": "inplace",
        "label": "uint104",
        "numberOfBytes": "13"
      },
      "t_uint152": {
        "encoding": "inplace",
        "label": "uint152",
        "numberOfBytes": "19"
      },
      "t_uint256": {
        "encoding": "inplace",
        "label": "uint256",
        "numberOfBytes": "32"
      },
      "t_uint8": {
        "encoding": "inplace",
        "label": "uint8",
        "numberOfBytes": "1"
      },
      "t_userDefinedValueType(ShortString)13431": {
        "encoding": "inplace",
        "label": "ShortString",
        "numberOfBytes": "32"
      }
    }
  }
}