{
  "address": "0xC75B4E4c8Ddca2A634FBC44E2E608535d96EA071",
  "abi": [
    {
      "inputs": [
        {
          "internalType": "contract IWETH",
          "name": "weth",
          "type": "address"
        },
        {
          "internalType": "contract Bleeps",
          "name": "bleeps",
          "type": "address"
        },
        {
          "internalType": "contract MeloBleeps",
          "name": "meloBleeps",
          "type": "address"
        },
        {
          "internalType": "address payable",
          "name": "bleepsDAOAccount",
          "type": "address"
        }
      ],
      "stateMutability": "nonpayable",
      "type": "constructor"
    },
    {
      "anonymous": false,
      "inputs": [
        {
          "indexed": true,
          "internalType": "uint256",
          "name": "id",
          "type": "uint256"
        },
        {
          "indexed": true,
          "internalType": "address",
          "name": "bidder",
          "type": "address"
        },
        {
          "indexed": false,
          "internalType": "uint256",
          "name": "amount",
          "type": "uint256"
        },
        {
          "indexed": false,
          "internalType": "bool",
          "name": "extended",
          "type": "bool"
        }
      ],
      "name": "AuctionBid",
      "type": "event"
    },
    {
      "anonymous": false,
      "inputs": [
        {
          "indexed": true,
          "internalType": "uint256",
          "name": "id",
          "type": "uint256"
        },
        {
          "indexed": false,
          "internalType": "uint256",
          "name": "endTime",
          "type": "uint256"
        }
      ],
      "name": "AuctionExtended",
      "type": "event"
    },
    {
      "anonymous": false,
      "inputs": [
        {
          "indexed": true,
          "internalType": "uint256",
          "name": "id",
          "type": "uint256"
        },
        {
          "indexed": true,
          "internalType": "address",
          "name": "bidder",
          "type": "address"
        },
        {
          "indexed": false,
          "internalType": "uint256",
          "name": "amount",
          "type": "uint256"
        }
      ],
      "name": "AuctionSettled",
      "type": "event"
    },
    {
      "anonymous": false,
      "inputs": [
        {
          "indexed": true,
          "internalType": "address",
          "name": "artist",
          "type": "address"
        },
        {
          "indexed": false,
          "internalType": "uint256",
          "name": "id",
          "type": "uint256"
        },
        {
          "indexed": false,
          "internalType": "uint256",
          "name": "startTime",
          "type": "uint256"
        }
      ],
      "name": "AuctionSetup",
      "type": "event"
    },
    {
      "inputs": [
        {
          "internalType": "uint256",
          "name": "id",
          "type": "uint256"
        },
        {
          "internalType": "address payable",
          "name": "bidder",
          "type": "address"
        }
      ],
      "name": "bid",
      "outputs": [],
      "stateMutability": "payable",
      "type": "function"
    },
    {
      "inputs": [
        {
          "internalType": "uint256",
          "name": "id",
          "type": "uint256"
        },
        {
          "internalType": "bytes32",
          "name": "data1",
          "type": "bytes32"
        },
        {
          "internalType": "bytes32",
          "name": "data2",
          "type": "bytes32"
        },
        {
          "internalType": "uint8",
          "name": "speed",
          "type": "uint8"
        }
      ],
      "name": "settle",
      "outputs": [],
      "stateMutability": "nonpayable",
      "type": "function"
    },
    {
      "inputs": [
        {
          "internalType": "string",
          "name": "name",
          "type": "string"
        },
        {
          "internalType": "bytes32",
          "name": "data1",
          "type": "bytes32"
        },
        {
          "internalType": "bytes32",
          "name": "data2",
          "type": "bytes32"
        },
        {
          "internalType": "uint8",
          "name": "speed",
          "type": "uint8"
        }
      ],
      "name": "submit",
      "outputs": [],
      "stateMutability": "payable",
      "type": "function"
    }
  ],
  "transactionHash": "0xd60522b10c437ccb3bcfed8032e28b38727111ea1c796f9a10c0adcf6a3c7cf5",
  "args": [
    "0xf786B9c6dfceAC9D2702929925e9305883Dc7AF1",
    "0x285B3f7B4d68CdDe162793Ea5996F21252a6eE59",
    "0x66204c59d9D5b5BC2962E29674E859dDa62d2532",
    "0xDcf0fCaC9901b89819f5E9478b1B6A0919715172"
  ],
  "numDeployments": 1,
  "solcInputHash": "58d75ce0f3558ea0d4c3e05752382638",
  "bytecode": "0x60e06040523480156200001157600080fd5b50604051620016b9380380620016b983398101604081905262000034916200007e565b600080546001600160a01b0319166001600160a01b03958616179055918316608052821660a0521660c052620000e6565b6001600160a01b03811681146200007b57600080fd5b50565b600080600080608085870312156200009557600080fd5b8451620000a28162000065565b6020860151909450620000b58162000065565b6040860151909350620000c88162000065565b6060860151909250620000db8162000065565b939692955090935050565b60805160a05160c05161159962000120600039600061097c01526000818160c1015281816105db01526106f20152600050506115996000f3fe6080604052600436106100345760003560e01c80631969de29146100395780635b66ea911461004e5780639f04996d1461006e575b600080fd5b61004c6100473660046110d6565b610081565b005b34801561005a57600080fd5b5061004c610069366004611169565b61037a565b61004c61007c3660046111cd565b6109d2565b6040517fac2f1e3f00000000000000000000000000000000000000000000000000000000815260009073ffffffffffffffffffffffffffffffffffffffff7f0000000000000000000000000000000000000000000000000000000000000000169063ac2f1e3f906101009033908a908a908a908a908a906004016111fd565b602060405180830381600087803b15801561011a57600080fd5b505af115801561012e573d6000803e3d6000fd5b505050506040513d601f19601f820116820180604052508101906101529190611282565b90504260006170806201518061016884836112ca565b6101729190611321565b61017d9060016112ca565b61018a9062015180611344565b6101949190611370565b60008481526001602090815260409182902080547bffffffffffffffffffffffffffffffffffffffffffffffffffffffff167c010000000000000000000000000000000000000000000000000000000063ffffffff86169081029190911790915582518781529182015291925033917f7f4e03bc0048d7fb1db236f35fc79365a633e4488e3bbbffd402b87db60c0596910160405180910390a23415610370576000610244633b9aca0034611395565b9050801561031457600084815260016020526040902080547fffffffff0000000000000000000000000000000000000000000000000000000016337fffffffff0000000000000000ffffffffffffffffffffffffffffffffffffffff8116919091177401000000000000000000000000000000000000000067ffffffffffffffff85160217909155847f1159164c56f277e6fc99c11731bd380e0347deb969b75523398734c252706ea36102fc633b9aca00856113a9565b60408051918252600060208301520160405180910390a35b34610323633b9aca00836113a9565b1461036e57336108fc61033a633b9aca00846113a9565b61034490346113e6565b6040518115909202916000818181858888f1935050505015801561036c573d6000803e3d6000fd5b505b505b5050505050505050565b6000848152600160209081526040918290208251606081018452905473ffffffffffffffffffffffffffffffffffffffff8116825274010000000000000000000000000000000000000000810467ffffffffffffffff169282018390527c0100000000000000000000000000000000000000000000000000000000900463ffffffff169281019290925261046f576040517f08c379a000000000000000000000000000000000000000000000000000000000815260206004820152601160248201527f4e4f5448494e475f544f5f534554544c4500000000000000000000000000000060448201526064015b60405180910390fd5b600062015180826040015163ffffffff1661048a91906113fd565b9050816040015163ffffffff1660001415610501576040517f08c379a000000000000000000000000000000000000000000000000000000000815260206004820152601160248201527f41554354494f4e5f4e4f545f45584953540000000000000000000000000000006044820152606401610466565b8042101561056b576040517f08c379a000000000000000000000000000000000000000000000000000000000815260206004820152601160248201527f41554354494f4e5f4e4f545f454e4445440000000000000000000000000000006044820152606401610466565b6000868152600160205260409081902080547bffffffffffffffffffffffffffffffffffffffffffffffffffffffff169055825190517f94bf804d00000000000000000000000000000000000000000000000000000000815273ffffffffffffffffffffffffffffffffffffffff7f000000000000000000000000000000000000000000000000000000000000000016916394bf804d9161062f918a9160040191825273ffffffffffffffffffffffffffffffffffffffff16602082015260400190565b600060405180830381600087803b15801561064957600080fd5b505af115801561065d573d6000803e3d6000fd5b5050835160208086015160405167ffffffffffffffff909116815273ffffffffffffffffffffffffffffffffffffffff90921693508992507fc9f72b276a388619c6d185d146697036241880c36654b1a3ffdad07c24038d99910160405180910390a36040517f589a1743000000000000000000000000000000000000000000000000000000008152600481018790526000907f000000000000000000000000000000000000000000000000000000000000000073ffffffffffffffffffffffffffffffffffffffff169063589a17439060240160206040518083038186803b15801561074957600080fd5b505afa15801561075d573d6000803e3d6000fd5b505050506040513d601f19601f820116820180604052508101906107819190611415565b905060006064633b9aca00856020015167ffffffffffffffff166107a591906113a9565b6107b090600a6113a9565b6107ba9190611395565b9050600081633b9aca00866020015167ffffffffffffffff166107dd91906113a9565b6107e791906113e6565b90506107f38382610ef3565b606060005b81518110156109615781818151811061081357610813611439565b60200260200101516000015173ffffffffffffffffffffffffffffffffffffffff166108fc6064845185858151811061084e5761084e611439565b6020026020010151602001516bffffffffffffffffffffffff16633b9aca008c6020015167ffffffffffffffff1661088691906113a9565b6108919060056113a9565b61089b91906113a9565b6108a59190611395565b6108af9190611395565b6040518115909202916000818181858888f193505050501561094f57606482518383815181106108e1576108e1611439565b6020026020010151602001516bffffffffffffffffffffffff16633b9aca008a6020015167ffffffffffffffff1661091991906113a9565b6109249060056113a9565b61092e91906113a9565b6109389190611395565b6109429190611395565b61094c90856113e6565b93505b8061095981611468565b9150506107f8565b5060405173ffffffffffffffffffffffffffffffffffffffff7f0000000000000000000000000000000000000000000000000000000000000000169084156108fc029085906000818181858888f193505050501580156109c5573d6000803e3d6000fd5b5050505050505050505050565b60008281526001602090815260408083208151606081018352905473ffffffffffffffffffffffffffffffffffffffff8116825274010000000000000000000000000000000000000000810467ffffffffffffffff16938201939093527c010000000000000000000000000000000000000000000000000000000090920463ffffffff16908201819052909190610a6d9062015180906113fd565b9050816040015163ffffffff1660001415610ae4576040517f08c379a000000000000000000000000000000000000000000000000000000000815260206004820152601160248201527f41554354494f4e5f4e4f545f45584953540000000000000000000000000000006044820152606401610466565b816040015163ffffffff16421015610b58576040517f08c379a000000000000000000000000000000000000000000000000000000000815260206004820152601360248201527f41554354494f4e5f4e4f545f53544152544544000000000000000000000000006044820152606401610466565b804210610bc1576040517f08c379a000000000000000000000000000000000000000000000000000000000815260206004820152600f60248201527f41554354494f4e5f4558504952454400000000000000000000000000000000006044820152606401610466565b81516000610bd3633b9aca0034611395565b90506064600260ff168560200151610beb91906114a1565b610bf591906114c8565b8460200151610c0491906114e3565b67ffffffffffffffff16811015610c77576040517f08c379a000000000000000000000000000000000000000000000000000000000815260206004820152600a60248201527f4e4f545f454e4f554748000000000000000000000000000000000000000000006044820152606401610466565b34610c86633b9aca00836113a9565b14610cd157336108fc610c9d633b9aca00846113a9565b610ca790346113e6565b6040518115909202916000818181858888f19350505050158015610ccf573d6000803e3d6000fd5b505b600086815260016020526040812080547fffffffff00000000000000000000000000000000000000000000000000000000167401000000000000000000000000000000000000000067ffffffffffffffff8516027fffffffffffffffffffffffff0000000000000000000000000000000000000000161773ffffffffffffffffffffffffffffffffffffffff8816179055610d6c42856113e6565b905061012c81108015610dff57610d858261012c611370565b86604001818151610d9691906112ca565b63ffffffff90811690915260408089015160008c81526001602052919091208054919092167c0100000000000000000000000000000000000000000000000000000000027bffffffffffffffffffffffffffffffffffffffffffffffffffffffff909116179055505b73ffffffffffffffffffffffffffffffffffffffff8716887f1159164c56f277e6fc99c11731bd380e0347deb969b75523398734c252706ea3610e46633b9aca00876113a9565b6040805191825285151560208301520160405180910390a38015610eb157877f6e912a3a9105bdd2af817ba5adc14e6c127c1035b5b648faa29ca0d58ab8ff4e62015180886040015163ffffffff16610e9f91906113fd565b60405190815260200160405180910390a25b73ffffffffffffffffffffffffffffffffffffffff841615610370576103708660000151633b9aca00886020015167ffffffffffffffff16610ef391906113a9565b610efd8282611035565b6110315760008054906101000a900473ffffffffffffffffffffffffffffffffffffffff1673ffffffffffffffffffffffffffffffffffffffff1663d0e30db0826040518263ffffffff1660e01b81526004016000604051808303818588803b158015610f6957600080fd5b505af1158015610f7d573d6000803e3d6000fd5b50506000546040517fa9059cbb00000000000000000000000000000000000000000000000000000000815273ffffffffffffffffffffffffffffffffffffffff878116600483015260248201879052909116935063a9059cbb92506044019050602060405180830381600087803b158015610ff757600080fd5b505af115801561100b573d6000803e3d6000fd5b505050506040513d601f19601f8201168201806040525081019061102f9190611506565b505b5050565b60408051600080825260208201909252819073ffffffffffffffffffffffffffffffffffffffff8516906175309085906040516110729190611528565b600060405180830381858888f193505050503d80600081146110b0576040519150601f19603f3d011682016040523d82523d6000602084013e6110b5565b606091505b509095945050505050565b803560ff811681146110d157600080fd5b919050565b6000806000806000608086880312156110ee57600080fd5b853567ffffffffffffffff8082111561110657600080fd5b818801915088601f83011261111a57600080fd5b81358181111561112957600080fd5b89602082850101111561113b57600080fd5b6020928301975095505086013592506040860135915061115d606087016110c0565b90509295509295909350565b6000806000806080858703121561117f57600080fd5b84359350602085013592506040850135915061119d606086016110c0565b905092959194509250565b73ffffffffffffffffffffffffffffffffffffffff811681146111ca57600080fd5b50565b600080604083850312156111e057600080fd5b8235915060208301356111f2816111a8565b809150509250929050565b73ffffffffffffffffffffffffffffffffffffffff8716815260a060208201528460a0820152848660c0830137600060c08683010152600060c07fffffffffffffffffffffffffffffffffffffffffffffffffffffffffffffffe0601f880116830101905084604083015283606083015260ff83166080830152979650505050505050565b60006020828403121561129457600080fd5b5051919050565b7f4e487b7100000000000000000000000000000000000000000000000000000000600052601160045260246000fd5b600063ffffffff8083168185168083038211156112e9576112e961129b565b01949350505050565b7f4e487b7100000000000000000000000000000000000000000000000000000000600052601260045260246000fd5b600063ffffffff80841680611338576113386112f2565b92169190910492915050565b600063ffffffff808316818516818304811182151516156113675761136761129b565b02949350505050565b600063ffffffff8381169083168181101561138d5761138d61129b565b039392505050565b6000826113a4576113a46112f2565b500490565b6000817fffffffffffffffffffffffffffffffffffffffffffffffffffffffffffffffff04831182151516156113e1576113e161129b565b500290565b6000828210156113f8576113f861129b565b500390565b600082198211156114105761141061129b565b500190565b60006020828403121561142757600080fd5b8151611432816111a8565b9392505050565b7f4e487b7100000000000000000000000000000000000000000000000000000000600052603260045260246000fd5b60007fffffffffffffffffffffffffffffffffffffffffffffffffffffffffffffffff82141561149a5761149a61129b565b5060010190565b600067ffffffffffffffff808316818516818304811182151516156113675761136761129b565b600067ffffffffffffffff80841680611338576113386112f2565b600067ffffffffffffffff8083168185168083038211156112e9576112e961129b565b60006020828403121561151857600080fd5b8151801515811461143257600080fd5b6000825160005b81811015611549576020818601810151858301520161152f565b81811115611558576000828501525b50919091019291505056fea2646970667358221220cb0ee44a631d0666b2400dedfc2d68cef53aedd77f00ac66f78365fa7f94b03364736f6c63430008090033",
  "devdoc": {
    "kind": "dev",
    "methods": {},
    "version": 1
  },
  "userdoc": {
    "kind": "user",
    "methods": {},
    "version": 1
  },
  "storageLayout": {
    "storage": [
      {
        "astId": 14384,
        "contract": "src/melobleeps/MeloBleepsAuctions.sol:MeloBleepsAuctions",
        "label": "_weth",
        "offset": 0,
        "slot": "0",
        "type": "t_contract(IWETH)13427"
      },
      {
        "astId": 14396,
        "contract": "src/melobleeps/MeloBleepsAuctions.sol:MeloBleepsAuctions",
        "label": "_auctions",
        "offset": 0,
        "slot": "1",
        "type": "t_mapping(t_uint256,t_struct(Auction)14391_storage)"
      }
    ],
    "types": {
      "t_address_payable": {
        "encoding": "inplace",
        "label": "address payable",
        "numberOfBytes": "20"
      },
      "t_contract(IWETH)13427": {
        "encoding": "inplace",
        "label": "contract IWETH",
        "numberOfBytes": "20"
      },
      "t_mapping(t_uint256,t_struct(Auction)14391_storage)": {
        "encoding": "mapping",
        "key": "t_uint256",
        "label": "mapping(uint256 => struct MeloBleepsAuctions.Auction)",
        "numberOfBytes": "32",
        "value": "t_struct(Auction)14391_storage"
      },
      "t_struct(Auction)14391_storage": {
        "encoding": "inplace",
        "label": "struct MeloBleepsAuctions.Auction",
        "members": [
          {
            "astId": 14386,
            "contract": "src/melobleeps/MeloBleepsAuctions.sol:MeloBleepsAuctions",
            "label": "lastBidder",
            "offset": 0,
            "slot": "0",
            "type": "t_address_payable"
          },
          {
            "astId": 14388,
            "contract": "src/melobleeps/MeloBleepsAuctions.sol:MeloBleepsAuctions",
            "label": "amount",
            "offset": 20,
            "slot": "0",
            "type": "t_uint64"
          },
          {
            "astId": 14390,
            "contract": "src/melobleeps/MeloBleepsAuctions.sol:MeloBleepsAuctions",
            "label": "startTime",
            "offset": 28,
            "slot": "0",
            "type": "t_uint32"
          }
        ],
        "numberOfBytes": "32"
      },
      "t_uint256": {
        "encoding": "inplace",
        "label": "uint256",
        "numberOfBytes": "32"
      },
      "t_uint32": {
        "encoding": "inplace",
        "label": "uint32",
        "numberOfBytes": "4"
      },
      "t_uint64": {
        "encoding": "inplace",
        "label": "uint64",
        "numberOfBytes": "8"
      }
    }
  }
}