{
  "address": "0xB9B1d56540775eD097853C03BB2ed1A4A60DC9d7",
  "abi": [
    {
      "inputs": [
        {
          "internalType": "address",
          "name": "",
          "type": "address"
        }
      ],
      "name": "proxies",
      "outputs": [
        {
          "internalType": "contract OwnableDelegateProxy",
          "name": "",
          "type": "address"
        }
      ],
      "stateMutability": "view",
      "type": "function"
    },
    {
      "inputs": [
        {
          "internalType": "contract OwnableDelegateProxy",
          "name": "proxy",
          "type": "address"
        }
      ],
      "name": "setProxy",
      "outputs": [],
      "stateMutability": "nonpayable",
      "type": "function"
    }
  ],
  "transactionHash": "0x3287263d687bee1ce317ce754de4722df18b9a74873f0751e68a1461277d5bef",
  "args": [],
  "solcInputHash": "318eee13b73dee7ed533908ea3a28d66",
  "bytecode": "0x608060405234801561001057600080fd5b5061017d806100206000396000f3fe608060405234801561001057600080fd5b50600436106100365760003560e01c806397107d6d1461003b578063c45527911461009f575b600080fd5b61009d610049366004610123565b33600090815260208190526040902080547fffffffffffffffffffffffff00000000000000000000000000000000000000001673ffffffffffffffffffffffffffffffffffffffff92909216919091179055565b005b6100d56100ad366004610123565b60006020819052908152604090205473ffffffffffffffffffffffffffffffffffffffff1681565b60405173ffffffffffffffffffffffffffffffffffffffff909116815260200160405180910390f35b73ffffffffffffffffffffffffffffffffffffffff8116811461012057600080fd5b50565b60006020828403121561013557600080fd5b8135610140816100fe565b939250505056fea2646970667358221220dbb287328f8673b7c3e290658274f7feb7203cdfcf335930e8e7ed02834eb83864736f6c63430008090033",
  "devdoc": {
    "kind": "dev",
    "methods": {},
    "version": 1
  },
  "userdoc": {
    "kind": "user",
    "methods": {},
    "version": 1
  },
  "storageLayout": {
    "storage": [
      {
        "astId": 14679,
        "contract": "src/mock/OpenSeaProxyRegistryMock.sol:OpenSeaProxyRegistryMock",
        "label": "proxies",
        "offset": 0,
        "slot": "0",
        "type": "t_mapping(t_address,t_contract(OwnableDelegateProxy)9737)"
      }
    ],
    "types": {
      "t_address": {
        "encoding": "inplace",
        "label": "address",
        "numberOfBytes": "20"
      },
      "t_contract(OwnableDelegateProxy)9737": {
        "encoding": "inplace",
        "label": "contract OwnableDelegateProxy",
        "numberOfBytes": "20"
      },
      "t_mapping(t_address,t_contract(OwnableDelegateProxy)9737)": {
        "encoding": "mapping",
        "key": "t_address",
        "label": "mapping(address => contract OwnableDelegateProxy)",
        "numberOfBytes": "32",
        "value": "t_contract(OwnableDelegateProxy)9737"
      }
    }
  }
}