{
  "address": "0x40f866174121c82E4D95F74Ae420099D79b57594",
  "abi": [
    {
      "inputs": [
        {
          "internalType": "contract Bleeps",
          "name": "bleeps",
          "type": "address"
        },
        {
          "internalType": "uint256",
          "name": "price",
          "type": "uint256"
        },
        {
          "internalType": "uint256",
          "name": "startTime",
          "type": "uint256"
        },
        {
          "internalType": "uint256",
          "name": "whitelistPrice",
          "type": "uint256"
        },
        {
          "internalType": "uint256",
          "name": "whitelistEndTime",
          "type": "uint256"
        },
        {
          "internalType": "bytes32",
          "name": "whitelistMerkleRoot",
          "type": "bytes32"
        },
        {
          "internalType": "address payable",
          "name": "projectCreator",
          "type": "address"
        },
        {
          "internalType": "uint256",
          "name": "creatorFeePer10000",
          "type": "uint256"
        },
        {
          "internalType": "address payable",
          "name": "saleRecipient",
          "type": "address"
        },
        {
          "internalType": "uint256",
          "name": "uptoInstr",
          "type": "uint256"
        }
      ],
      "stateMutability": "nonpayable",
      "type": "constructor"
    },
    {
      "inputs": [
        {
          "internalType": "uint16",
          "name": "id",
          "type": "uint16"
        },
        {
          "internalType": "address",
          "name": "to",
          "type": "address"
        }
      ],
      "name": "creatorMint",
      "outputs": [],
      "stateMutability": "nonpayable",
      "type": "function"
    },
    {
      "inputs": [
        {
          "internalType": "uint16[]",
          "name": "ids",
          "type": "uint16[]"
        },
        {
          "internalType": "address",
          "name": "to",
          "type": "address"
        }
      ],
      "name": "creatorMultiMint",
      "outputs": [],
      "stateMutability": "nonpayable",
      "type": "function"
    },
    {
      "inputs": [
        {
          "internalType": "uint256",
          "name": "id",
          "type": "uint256"
        }
      ],
      "name": "isOpenForSale",
      "outputs": [
        {
          "internalType": "bool",
          "name": "",
          "type": "bool"
        }
      ],
      "stateMutability": "view",
      "type": "function"
    },
    {
      "inputs": [
        {
          "internalType": "uint256",
          "name": "passId",
          "type": "uint256"
        }
      ],
      "name": "isPassUsed",
      "outputs": [
        {
          "internalType": "bool",
          "name": "",
          "type": "bool"
        }
      ],
      "stateMutability": "view",
      "type": "function"
    },
    {
      "inputs": [
        {
          "internalType": "uint256",
          "name": "id",
          "type": "uint256"
        }
      ],
      "name": "isReserved",
      "outputs": [
        {
          "internalType": "bool",
          "name": "",
          "type": "bool"
        }
      ],
      "stateMutability": "pure",
      "type": "function"
    },
    {
      "inputs": [
        {
          "internalType": "uint16",
          "name": "id",
          "type": "uint16"
        },
        {
          "internalType": "address",
          "name": "to",
          "type": "address"
        }
      ],
      "name": "mint",
      "outputs": [],
      "stateMutability": "payable",
      "type": "function"
    },
    {
      "inputs": [
        {
          "internalType": "uint16",
          "name": "id",
          "type": "uint16"
        },
        {
          "internalType": "address",
          "name": "to",
          "type": "address"
        },
        {
          "internalType": "uint256",
          "name": "passId",
          "type": "uint256"
        },
        {
          "internalType": "bytes32[]",
          "name": "proof",
          "type": "bytes32[]"
        }
      ],
      "name": "mintWithPassId",
      "outputs": [],
      "stateMutability": "payable",
      "type": "function"
    },
    {
      "inputs": [
        {
          "internalType": "uint16",
          "name": "id",
          "type": "uint16"
        },
        {
          "internalType": "address",
          "name": "to",
          "type": "address"
        },
        {
          "internalType": "uint256",
          "name": "passId",
          "type": "uint256"
        },
        {
          "internalType": "bytes",
          "name": "signature",
          "type": "bytes"
        },
        {
          "internalType": "bytes32[]",
          "name": "proof",
          "type": "bytes32[]"
        }
      ],
      "name": "mintWithSalePass",
      "outputs": [],
      "stateMutability": "payable",
      "type": "function"
    },
    {
      "inputs": [
        {
          "internalType": "uint256",
          "name": "passId",
          "type": "uint256"
        },
        {
          "internalType": "uint256[]",
          "name": "ids",
          "type": "uint256[]"
        }
      ],
      "name": "ownersAndPriceInfo",
      "outputs": [
        {
          "internalType": "address[]",
          "name": "addresses",
          "type": "address[]"
        },
        {
          "internalType": "uint256",
          "name": "price",
          "type": "uint256"
        },
        {
          "internalType": "uint256",
          "name": "startTime",
          "type": "uint256"
        },
        {
          "internalType": "uint256",
          "name": "whitelistPrice",
          "type": "uint256"
        },
        {
          "internalType": "uint256",
          "name": "whitelistEndTime",
          "type": "uint256"
        },
        {
          "internalType": "bytes32",
          "name": "whitelistMerkleRoot",
          "type": "bytes32"
        },
        {
          "internalType": "bool",
          "name": "passUsed",
          "type": "bool"
        },
        {
          "internalType": "uint256",
          "name": "uptoInstr",
          "type": "uint256"
        }
      ],
      "stateMutability": "view",
      "type": "function"
    },
    {
      "inputs": [],
      "name": "priceInfo",
      "outputs": [
        {
          "internalType": "uint256",
          "name": "price",
          "type": "uint256"
        },
        {
          "internalType": "uint256",
          "name": "startTime",
          "type": "uint256"
        },
        {
          "internalType": "uint256",
          "name": "whitelistPrice",
          "type": "uint256"
        },
        {
          "internalType": "uint256",
          "name": "whitelistEndTime",
          "type": "uint256"
        },
        {
          "internalType": "bytes32",
          "name": "whitelistMerkleRoot",
          "type": "bytes32"
        }
      ],
      "stateMutability": "view",
      "type": "function"
    }
  ],
  "transactionHash": "0x7687d6f2fdb57e9ded7025a78e4be9a574406be1e8ef8470e23d9b6255448342",
  "args": [
    "0xC72d6D47C64460E6ED9D9aF9e01c2Ab4f37BEF78",
    "100000000000000000",
    1638266400,
    "100000000000000000",
    1638525600,
    "0x4f7dd0f5e1b8fae285e9a05a0d8be14c3442d07d7a262a7f164d559f2bd82778",
    "0x8350C9989EF11325b36Ce6f7549004D418dbcEE7",
    2500,
    "0x81Bbd7037169490cABc77a0DD0260C09b29e5316",
    8
  ],
  "linkedData": {
    "numPrivatePasses": 815,
    "leaves": [
      {
        "passId": "0",
        "signer": "0x9779685DbdAda0c0E91108d4B796EDD14Ec34337"
      },
      {
        "passId": "1",
        "signer": "0x4D2073e71b1e04b3c6D898266553DeC86F848831"
      },
      {
        "passId": "2",
        "signer": "0xAa6150CB2478D17427eb8bf5d55391B64097C521"
      },
      {
        "passId": "3",
        "signer": "0x8F056A34D62011283e3da78C8d8529665A2D4372"
      },
      {
        "passId": "4",
        "signer": "0x1F0134b76CD9eC90986ab33c9F2B5233d93548e9"
      },
      {
        "passId": "5",
        "signer": "0x145cFEFda4dD3ba083B25680Df533f88217f1D1a"
      },
      {
        "passId": "6",
        "signer": "0xE6050fce281E83Ce2f36422492b6725B2BE4EA9d"
      },
      {
        "passId": "7",
        "signer": "0x2993D84d2AB738be11EfC46aC532cd68810363AC"
      },
      {
        "passId": "8",
        "signer": "0x3354534ad6eb4006d1570b179CAbd155bfa0057b"
      },
      {
        "passId": "9",
        "signer": "0x344a74b9966BCd141F6D7caf2Be83D4b989295c0"
      },
      {
        "passId": "10",
        "signer": "0xb78c0A11956AcEF71cdE8C4EBc19720f22114250"
      },
      {
        "passId": "11",
        "signer": "0x45972a5729F1B3fb6D01786c35391110Dcb30BC4"
      },
      {
        "passId": "12",
        "signer": "0x23E1490CF1951BD1aeF520c580cE1b74a8fDD398"
      },
      {
        "passId": "13",
        "signer": "0x8e57c82E40d0EEb3D41a9f0616e75B5301AacfEf"
      },
      {
        "passId": "14",
        "signer": "0xe24d1FB68D026e0179AdEF8428Daba18f9b725Bb"
      },
      {
        "passId": "15",
        "signer": "0xdd272FAc42921BB01EE279c0AC0b3683787Bb502"
      },
      {
        "passId": "16",
        "signer": "0x215b3BBC5a1eaf2687dF9753dDC0Db30724a93A9"
      },
      {
        "passId": "17",
        "signer": "0x15F6e6617F12C2BA350bC8ce632318D291937242"
      },
      {
        "passId": "18",
        "signer": "0xE7C07Ab8a71254715b72E19cF519c5975458366b"
      },
      {
        "passId": "19",
        "signer": "0x410ac8bdB1C4eaEb2A04a5d0d8c2783AcfdEB16C"
      },
      {
        "passId": "20",
        "signer": "0xF69F62CCf53679276a6A5dCD4De24274a699F730"
      },
      {
        "passId": "21",
        "signer": "0x86ac381e3084be4cb0ED62449F8b22366cB9AEc9"
      },
      {
        "passId": "22",
        "signer": "0x03f387Cea54E383aD887B8c5734885E729A8B2e4"
      },
      {
        "passId": "23",
        "signer": "0x3A439e036241B1e2Cf8abb7DCD4CeDF5DFC858F2"
      },
      {
        "passId": "24",
        "signer": "0xD4c5E9a30776264F8CbEFde29d22F3f3a7C712E7"
      },
      {
        "passId": "25",
        "signer": "0xdA8e378AD24a096A5BF008E70764161d05a50271"
      },
      {
        "passId": "26",
        "signer": "0x4f83367Aa16bd8CCd47Cad5094422Df041Dd4A89"
      },
      {
        "passId": "27",
        "signer": "0x3b48180552593EB4208eC3f92099B1F4a5e4Ec90"
      },
      {
        "passId": "28",
        "signer": "0x09b938BBfC0be11924A82d4d3ADCAdA1e05177c9"
      },
      {
        "passId": "29",
        "signer": "0xd3c2C89022c723F264F91D62297D7Ad9400E6c1d"
      },
      {
        "passId": "30",
        "signer": "0x3614DD974b879a70e28c7e3461beB7e0C8bFF2A3"
      },
      {
        "passId": "31",
        "signer": "0x2017443d0AFcBf5Db4be0a88Ba55C3A4CD8530f0"
      },
      {
        "passId": "32",
        "signer": "0xa8f62987c2EfB0Fa3b8e36485800660b66d5E179"
      },
      {
        "passId": "33",
        "signer": "0x1033828D5Af5A881b026c8426DDf9b6ef24A5cfC"
      },
      {
        "passId": "34",
        "signer": "0xC55fD20541d3B26D8319ca306E33623744b5e143"
      },
      {
        "passId": "35",
        "signer": "0x449c5BB914999C9DdA9724Db49cA2ea4E6FeACDb"
      },
      {
        "passId": "36",
        "signer": "0x3FA589dcAf03360430D25961f29A8CE7851DE162"
      },
      {
        "passId": "37",
        "signer": "0xCD442BAA7d2d3B8ea2c602c704914E00E59eA273"
      },
      {
        "passId": "38",
        "signer": "0x41Cd052856aAa8281A5F73CCB1f8cF1d5Ee4E34a"
      },
      {
        "passId": "39",
        "signer": "0x2157e25172619C208f173393888E16F81965b1d9"
      },
      {
        "passId": "40",
        "signer": "0x9437dE2aF2E9631cE423869d07B7D597dC3e8d82"
      },
      {
        "passId": "41",
        "signer": "0x46DcA846798cA06a12dacC6450eB2647481467F4"
      },
      {
        "passId": "42",
        "signer": "0x597C19E5dC2c369FD7BcEAe7b38680804A63158d"
      },
      {
        "passId": "43",
        "signer": "0x0937805BFE4C9bEF66097f160329Ad0c105631b7"
      },
      {
        "passId": "44",
        "signer": "0xe3e75d7dA7a712b544a24eacb405C3Cccd02218e"
      },
      {
        "passId": "45",
        "signer": "0x6784f710CBf90e5F42a0EF6044869Dae3Fc24638"
      },
      {
        "passId": "46",
        "signer": "0x6F9fc2a39bfbA1E064fCD30b12845BA10eAC6e1A"
      },
      {
        "passId": "47",
        "signer": "0x84A4Ee8a165611939A34571D274cBB30a20E6dD1"
      },
      {
        "passId": "48",
        "signer": "0x2Af6fb408D52b2069DD0C48EAC53417A54245D4e"
      },
      {
        "passId": "49",
        "signer": "0xe4551e376dE011A57d8751F82f304490F92312aD"
      },
      {
        "passId": "50",
        "signer": "0x1fbb459c90fB841bD57CA77aB38933dbD60162C7"
      },
      {
        "passId": "51",
        "signer": "0xB5e0377805A2f977aD1E74888D539D8038bdFDaa"
      },
      {
        "passId": "52",
        "signer": "0x4Ed3704E611470430c0120b00ecb671F7Ff6C99B"
      },
      {
        "passId": "53",
        "signer": "0x58fC89b957d52ff2B02084819C0C03B6c75E98A2"
      },
      {
        "passId": "54",
        "signer": "0x9708d0a4c0d2E646E7b7a64803336eF14E2d76EF"
      },
      {
        "passId": "55",
        "signer": "0xcd7684F29b58D775416cc0A36eE6e4d1Ef180c63"
      },
      {
        "passId": "56",
        "signer": "0x77417A6F251b20a3dc2220A941A2952D202F19a0"
      },
      {
        "passId": "57",
        "signer": "0x2D53dFE085a5C37EEbb93eC2A42F18c5b8763406"
      },
      {
        "passId": "58",
        "signer": "0x045c113AEBe3f200De1377cF4709100CeCbC45f4"
      },
      {
        "passId": "59",
        "signer": "0xa007479E03144C26092159F4EE365Bf1772F4b0e"
      },
      {
        "passId": "60",
        "signer": "0xd69104E5E743e140B0FBa4F3D4f1450605AC8dFb"
      },
      {
        "passId": "61",
        "signer": "0x3c2a75EAA55a98007d238DD5cc6ebd8E5028B919"
      },
      {
        "passId": "62",
        "signer": "0x9b04A9a7a2cDE9e0A78B9c2eA435a5Ee683D8468"
      },
      {
        "passId": "63",
        "signer": "0xfca5a43A65FDcc6AEB26bF1E5404D13Df1108dfb"
      },
      {
        "passId": "64",
        "signer": "0x670c6b284cb7EA223dB593d97f924604b29ea5B8"
      },
      {
        "passId": "65",
        "signer": "0x03e36EDd8691Dd028F6efc1849ebb6a5Ca60F890"
      },
      {
        "passId": "66",
        "signer": "0xcAf0d6530083E50E598263934C1391abc1DC265a"
      },
      {
        "passId": "67",
        "signer": "0x87379CCaE969500bA46509d21bfC33267930244e"
      },
      {
        "passId": "68",
        "signer": "0x5FC0998D8b69C8a419F03aB1A73796e2Dd4a1C85"
      },
      {
        "passId": "69",
        "signer": "0xDF53a2163f7b9341ac697f0568C2600Bb0c33F39"
      },
      {
        "passId": "70",
        "signer": "0xF133298482b38ED5f1416B7e0C52c58B5eED26D9"
      },
      {
        "passId": "71",
        "signer": "0x9eEB713f7F4a08e3055e0002ff855c7D446BC65e"
      },
      {
        "passId": "72",
        "signer": "0x9b03b448B926cf93BFbeBD1ED4422b76c7472704"
      },
      {
        "passId": "73",
        "signer": "0x6C68097224cF3a9753011012558A74CF5317b7A9"
      },
      {
        "passId": "74",
        "signer": "0x8b7327135943920832091169FA4f5362f99c2A72"
      },
      {
        "passId": "75",
        "signer": "0x63565bBd2216f3e73cF959656370Bc457FBaEb05"
      },
      {
        "passId": "76",
        "signer": "0x2f74D5A9891E8B38638b8Df0ef147Afc87A8C4C9"
      },
      {
        "passId": "77",
        "signer": "0x9EaFe0D007cd2AF9a7fd0034D61c6243bcc943C6"
      },
      {
        "passId": "78",
        "signer": "0xE9A070dd4dDf20847B5f0D5d347C64C9a5c0e3d7"
      },
      {
        "passId": "79",
        "signer": "0x810F6Ab52A2A16e69336B1CFCA8F3D9e2D19Fe20"
      },
      {
        "passId": "80",
        "signer": "0xb3e1C725E07038e2615E7eb30dB99d12Ed4b60E0"
      },
      {
        "passId": "81",
        "signer": "0x135CD698769799AFe3dB984a158418E45c4C89d3"
      },
      {
        "passId": "82",
        "signer": "0xD95afb4a63A8632D4ad6692FD4755fe5a6079e44"
      },
      {
        "passId": "83",
        "signer": "0x92A9A620B36ac7AcB514cebe5D23aFab16027B83"
      },
      {
        "passId": "84",
        "signer": "0xe174D0e3D29C292714582948752454c2b429f92A"
      },
      {
        "passId": "85",
        "signer": "0xE6686C012c2995e95F56E889080Ed88652315e27"
      },
      {
        "passId": "86",
        "signer": "0x012A1859c80A98467B8d2626e2182E83991C93d7"
      },
      {
        "passId": "87",
        "signer": "0xA8FcA0cCC69188DcB9b964300df83fD9436Ad0a1"
      },
      {
        "passId": "88",
        "signer": "0xD460482a62c7A8C3556dfECe34aC4CB1343AaDE0"
      },
      {
        "passId": "89",
        "signer": "0x2fBE6051B7d63B6444EBb6c71F8515928e04d002"
      },
      {
        "passId": "90",
        "signer": "0x6da7Fa6D444F60df6cDe9714DaD7F6b358A09086"
      },
      {
        "passId": "91",
        "signer": "0x176BAf55C80ffd33d2BbEA6535878dc98304db46"
      },
      {
        "passId": "92",
        "signer": "0xA12ef0eEf80458E75D3F5CECbf87034eb9E50068"
      },
      {
        "passId": "93",
        "signer": "0x0F6e2dF17972152F90D2CFEaD01347a17E5B6324"
      },
      {
        "passId": "94",
        "signer": "0x52C5998F9c781a1d2800d6a187E816Ba8aCcE229"
      },
      {
        "passId": "95",
        "signer": "0x3952184a952c04C1937cc44Dc60B85CdC21F8d75"
      },
      {
        "passId": "96",
        "signer": "0xd0E9AcFC0A78344c2d2Be3df582f3956320D6640"
      },
      {
        "passId": "97",
        "signer": "0xCA03A87Db2f2f7df21Ab428F61f3Da0dEa0C71AD"
      },
      {
        "passId": "98",
        "signer": "0x2E497516D9FeaB12c929aC0D32CdA6b62C610A33"
      },
      {
        "passId": "99",
        "signer": "0x43A60269D7eab7C1aEFa333F39488B5Cd9C66F12"
      },
      {
        "passId": "100",
        "signer": "0xc0434E25eeCEf9DF8E62779Edf92424449dB8FD4"
      },
      {
        "passId": "101",
        "signer": "0xA5F4838Cf5F564C84CBDC10AB228321bc72981b3"
      },
      {
        "passId": "102",
        "signer": "0xC81d7Cb0c9df70c6e52B15a81e3856bC6aFa12fC"
      },
      {
        "passId": "103",
        "signer": "0x5657C4B942443AA164202D4976ECeED2Ffc54Bf1"
      },
      {
        "passId": "104",
        "signer": "0x0591B620b116E8c612cA9B3cbD3b1DB46A989045"
      },
      {
        "passId": "105",
        "signer": "0x3606aFc3D4BED5f71bb5BfAc0AD502F352eD12f6"
      },
      {
        "passId": "106",
        "signer": "0x2478167a8F2c9972CC6220aa4c72B6a5718f55A5"
      },
      {
        "passId": "107",
        "signer": "0x714151337Ff45743e9B241a2fF286aBEd72F54CF"
      },
      {
        "passId": "108",
        "signer": "0x3614c873796D5C7dCFBE73b9379047D4d9cFc3CA"
      },
      {
        "passId": "109",
        "signer": "0x98629b5B12A2E05601e825CA14b40f0d40Ca6b8A"
      },
      {
        "passId": "110",
        "signer": "0xa3C48E282FF75d8e2A12fBa1f7c79ABAB33AA6a3"
      },
      {
        "passId": "111",
        "signer": "0x977888EE04395732aE73d5E42023350E3913F917"
      },
      {
        "passId": "112",
        "signer": "0xB09c3F12cA7062b0082E27E30316c6026D3e6b4D"
      },
      {
        "passId": "113",
        "signer": "0x45b657fdC169Ecf6AC8214d4a272967597E0f5Ed"
      },
      {
        "passId": "114",
        "signer": "0x3ac1fCb7358fFcd37164F936c7355b6BF2e3Cd4F"
      },
      {
        "passId": "115",
        "signer": "0x9f32F2f3Ed9839e084eD517c40Bcd0808780D246"
      },
      {
        "passId": "116",
        "signer": "0x5A7Ad808D1255e7c424DD12b2BC2c9D61cE89494"
      },
      {
        "passId": "117",
        "signer": "0x59031B7A6c42B8446e0A2ce9107f6D6962755b60"
      },
      {
        "passId": "118",
        "signer": "0xd7712A76FDb76acD8222963eCcF85715b5ef470D"
      },
      {
        "passId": "119",
        "signer": "0x437E0f1C43B5a8931A483114Ce468Ed4671ba96e"
      },
      {
        "passId": "120",
        "signer": "0x672e7ea39276ef0F98e02Cd66fc8FB2c662fc919"
      },
      {
        "passId": "121",
        "signer": "0xD51F484E0Bf82D03c0c8c676f57c71d14618fd31"
      },
      {
        "passId": "122",
        "signer": "0xf476BACeB46cBA0B57d45E64c2cCc9e89C2FCEdc"
      },
      {
        "passId": "123",
        "signer": "0xb0C71c4B728B8281C439db2FcFAB0f41660FE626"
      },
      {
        "passId": "124",
        "signer": "0xC8f51f45C5e274e0F8D79da24fB696546AbFAA1e"
      },
      {
        "passId": "125",
        "signer": "0xf83021bF7D3586D908B41111b96008A16115c8A8"
      },
      {
        "passId": "126",
        "signer": "0x43558A2459bB144B81b0484ead84bc7Ff3998c02"
      },
      {
        "passId": "127",
        "signer": "0x7F87dE45E20F719e4Bc257ae9239eBAf9Bf36a07"
      },
      {
        "passId": "128",
        "signer": "0xa7593750a0BB12A3b04EB9Cae4Bc161B963BB1d3"
      },
      {
        "passId": "129",
        "signer": "0x60256d9C9b3095dDf57068646d8D191C88db1B0a"
      },
      {
        "passId": "130",
        "signer": "0x7A677BB383C31BE77262434976B43bE6D40BC98a"
      },
      {
        "passId": "131",
        "signer": "0x9A4e8bA3bbB3a10A6dC01DA055bE3492C561D782"
      },
      {
        "passId": "132",
        "signer": "0x54bb8e1bD292F7D2439C107096DE792c41c54F5C"
      },
      {
        "passId": "133",
        "signer": "0x927595306f6CfbfDf720b50c5Dd9F9b38f4f3a8A"
      },
      {
        "passId": "134",
        "signer": "0x1544a523b8D6d5f52Cca2b44c1b98e6FB7dd2053"
      },
      {
        "passId": "135",
        "signer": "0x0A32267979c349f5D8D1a1E4b75D307DefF83575"
      },
      {
        "passId": "136",
        "signer": "0xd73F4efAc149019a3255a2F940AE4116C588E3d5"
      },
      {
        "passId": "137",
        "signer": "0x3C970f9c36A381EF9C1869e67003e91989CAF466"
      },
      {
        "passId": "138",
        "signer": "0xC9c8AF94cFE0c59305CcDA8B1FE0d14f69606486"
      },
      {
        "passId": "139",
        "signer": "0xD0E6918Ff54eEB38D540F226957B88F39eB78c4d"
      },
      {
        "passId": "140",
        "signer": "0x8FF3a8D134199C5356ce498D56147Dd537c6E6E9"
      },
      {
        "passId": "141",
        "signer": "0x154dA685c65A8533aF15bde9eBDD46f9Fdc7737B"
      },
      {
        "passId": "142",
        "signer": "0x3Fb6b1F86692F06636ad5B99f70EDB301ac848F3"
      },
      {
        "passId": "143",
        "signer": "0x36cCA00EE9d1420315B074b1f12081b9264EED7d"
      },
      {
        "passId": "144",
        "signer": "0x283Fb83Bb5Af6D9968B29b0a207D632f955983ee"
      },
      {
        "passId": "145",
        "signer": "0x2aDaE01e1cE5d198897dEF886a087D6b3E79F6D8"
      },
      {
        "passId": "146",
        "signer": "0x873126352684c62818948ed4868097e22c98FaAe"
      },
      {
        "passId": "147",
        "signer": "0x8111dd54cB314D8DA39eBf2deD21F523384C50a5"
      },
      {
        "passId": "148",
        "signer": "0x4957E41Ad56ab54CEd0412Fd2412CD811BCADa37"
      },
      {
        "passId": "149",
        "signer": "0x7e5FcE664984c8FB2151042d7cdA56a1424CA702"
      },
      {
        "passId": "150",
        "signer": "0x6EEbdd49e2FEa45fC158927E20506De50E5f08D4"
      },
      {
        "passId": "151",
        "signer": "0xD56735cca51790109B604F8790ACA92685F70C18"
      },
      {
        "passId": "152",
        "signer": "0x070101049D49eff2687de9D3a6370B9029f89aa8"
      },
      {
        "passId": "153",
        "signer": "0x1168F00935C3d704093fC8cF3231E4fbEF20D900"
      },
      {
        "passId": "154",
        "signer": "0x08B5da962560154539EB76e859aCe8843c885391"
      },
      {
        "passId": "155",
        "signer": "0xF341aAaB06E0b578D42161a2a448556CA83DBBc2"
      },
      {
        "passId": "156",
        "signer": "0x178702Cbb7E077D655Af17b0f81ba3e259d822ae"
      },
      {
        "passId": "157",
        "signer": "0x97f0012Db57Fd2cE124734210531142620b749b0"
      },
      {
        "passId": "158",
        "signer": "0x33f2335b1D0692C6f113ecFFE7c6787f04feC4ac"
      },
      {
        "passId": "159",
        "signer": "0x02488Cf69a048064F352B3bf594f07b9b634c55e"
      },
      {
        "passId": "160",
        "signer": "0xFB6feDCD328130A9790188DDC1f8eC10A22bd705"
      },
      {
        "passId": "161",
        "signer": "0x723CbaE41CD9392952Aa2eb92eDdffD514a9fD0b"
      },
      {
        "passId": "162",
        "signer": "0x1238cc71792F106ba6D4D96BBdfec7E5e96FF3f5"
      },
      {
        "passId": "163",
        "signer": "0x0A8773Ac2993E585B6251b627Ce9965e4D8b380d"
      },
      {
        "passId": "164",
        "signer": "0x23191c59d86a22f8B521bcA62098a45c3f9D4614"
      },
      {
        "passId": "165",
        "signer": "0x3f8B59fE14Cfd854AFe7195c3Fb31e1b714DAf2d"
      },
      {
        "passId": "166",
        "signer": "0x11BfBDf45A5E6A591F265100A42422E0669D3145"
      },
      {
        "passId": "167",
        "signer": "0x2b5c909d473A0f01125cD1d88480a7DA0C4cfb2d"
      },
      {
        "passId": "168",
        "signer": "0x17Fce4Dc889790833C96c98F2099576A105bE83a"
      },
      {
        "passId": "169",
        "signer": "0xc9966ac80708d767Da924528976DD71B47036EEF"
      },
      {
        "passId": "170",
        "signer": "0x13Df7B44E44E7D34C8aB23C87c565936b7e4C3C9"
      },
      {
        "passId": "171",
        "signer": "0x9EB4e34296c3a3cBD4e2D8727d855492fcbCB49b"
      },
      {
        "passId": "172",
        "signer": "0x8f6745b62cFc210b1e08c187044e9541A077aD08"
      },
      {
        "passId": "173",
        "signer": "0x53Ef7B67c0D01c36ADc9Fd0dA15ed9A97d71018A"
      },
      {
        "passId": "174",
        "signer": "0x68aAb9aa7a863BF04d752e497D54820D024B12B1"
      },
      {
        "passId": "175",
        "signer": "0x31B3Bed6193301dD5A8a26473779b609ef172dc9"
      },
      {
        "passId": "176",
        "signer": "0x20bb60A6577fdA0D9edB3E9B4026EBE6556d97AC"
      },
      {
        "passId": "177",
        "signer": "0x93D8f4ace6fbB997D4760c9119EeA0756693eE58"
      },
      {
        "passId": "178",
        "signer": "0xDc8e566F9ff9b8f42dcc39E29318Ab860125F9A9"
      },
      {
        "passId": "179",
        "signer": "0x83b0fFE8666B9231cfd5f04d7ECB28367D5D65fd"
      },
      {
        "passId": "180",
        "signer": "0x07Ec7C0caD465197821a85545d055E3f998847f6"
      },
      {
        "passId": "181",
        "signer": "0x0882de0ff7386d6e901392cB2F6b67bDc5243C3C"
      },
      {
        "passId": "182",
        "signer": "0x348913e13af7b283ef9E6e38dEdf6F652E5859c8"
      },
      {
        "passId": "183",
        "signer": "0x7C2d66985DF8FCAc3bB14271cb42d610E04D5a3C"
      },
      {
        "passId": "184",
        "signer": "0xcb5672a4680d94F1CA00EEEACFe72C28c76Ff822"
      },
      {
        "passId": "185",
        "signer": "0x99d959afE28018EB379A8e808A6fE8c84E9C2dE3"
      },
      {
        "passId": "186",
        "signer": "0xB9B760cd6dC26816ECFa3Fd1A4bf80fdB00F02a4"
      },
      {
        "passId": "187",
        "signer": "0xbde30866c462e144F9294B996dd22c5F8c8bb4b7"
      },
      {
        "passId": "188",
        "signer": "0xee9DeAa24D7e93Ba8018A3F96a817b153485176D"
      },
      {
        "passId": "189",
        "signer": "0x16C950bdfA6491e49CDC753CAa00ac8aB3400254"
      },
      {
        "passId": "190",
        "signer": "0x9563Db6d5F248Ccce3649a79F4a93956d2E7d0Ab"
      },
      {
        "passId": "191",
        "signer": "0xdc3E9308F102c6634C93770CcBeaB75610876311"
      },
      {
        "passId": "192",
        "signer": "0x4cEc6Be3DDCC489762B703B8c5d1d40823a9222A"
      },
      {
        "passId": "193",
        "signer": "0x33F6A966141F0EbC8f48E94dB67d0eda34629B12"
      },
      {
        "passId": "194",
        "signer": "0x8400A71284dB88123e897911988dB0b0EaD6593f"
      },
      {
        "passId": "195",
        "signer": "0xD050B17Ba4cA454742FFC17cEeBC63CfEc5c9da4"
      },
      {
        "passId": "196",
        "signer": "0xC32F2D0F31984E06325E9e9908523EEB77F01C99"
      },
      {
        "passId": "197",
        "signer": "0xaf72ba328f00ee0255AF029E7b7324491BaB896d"
      },
      {
        "passId": "198",
        "signer": "0x815237Ea8b6dF72142a7894d5814b27d2FB89F42"
      },
      {
        "passId": "199",
        "signer": "0x4a4B4E12d40a79764952031B4016f88a58b155b6"
      },
      {
        "passId": "200",
        "signer": "0x7F31220709d0fdA30bCaD65C8Dcc78B834cf221b"
      },
      {
        "passId": "201",
        "signer": "0x086b62856508A19C6acDC8A6Ec8D630df0B55c50"
      },
      {
        "passId": "202",
        "signer": "0xc43Ae81f0d57fcB38d0D65E22fa7b2A0C651603b"
      },
      {
        "passId": "203",
        "signer": "0xF6D4478E3D4Da3292Ae644B9Eb8a3ff9605b78E8"
      },
      {
        "passId": "204",
        "signer": "0x63Ec217f46d57F376FE21BF263583786fbab35f3"
      },
      {
        "passId": "205",
        "signer": "0xc04c0F2B8C9e0fFaf6eA86637b0Bef5dd4104F4a"
      },
      {
        "passId": "206",
        "signer": "0x7cF6Eae41A9a3E87301cdA9271a66ECC1f8AC127"
      },
      {
        "passId": "207",
        "signer": "0xa4626Ae90055f6A269d13B6a0BdFd434716506dA"
      },
      {
        "passId": "208",
        "signer": "0x25C699EDA27072613dC40561367e430E41bd9b6b"
      },
      {
        "passId": "209",
        "signer": "0xf6506C5d7b9d61eFE54F79f2A22148CA62F61C59"
      },
      {
        "passId": "210",
        "signer": "0x137a683f34956a2025ac0Bf07F9d6126DAcf8b7e"
      },
      {
        "passId": "211",
        "signer": "0x0aDbBb0FF0D3010f5f15fFe7d62B605702C4482C"
      },
      {
        "passId": "212",
        "signer": "0x4e250847Ca6f2EE763Bc10F246cc87d3580E2994"
      },
      {
        "passId": "213",
        "signer": "0x190145c0340e91539c40cf23D3F76Aa88ffeACd5"
      },
      {
        "passId": "214",
        "signer": "0x9f875042f4B5cc55E5318Dd089615E1f7Ec39eF1"
      },
      {
        "passId": "215",
        "signer": "0xbaB104E34AeAb8590Cb3f5C76A64D34A4e641957"
      },
      {
        "passId": "216",
        "signer": "0x32478fdc24aAEd3D1A37d181731530fFbf874c5C"
      },
      {
        "passId": "217",
        "signer": "0x3eDE0ecDcC6dCd8AF5AE7dD740A6c5c179c90674"
      },
      {
        "passId": "218",
        "signer": "0x1b44f260dC86Cf731f4D0E9f0A62D4b564C6A250"
      },
      {
        "passId": "219",
        "signer": "0x861f41e3ce4441DA989c478168E121D78Bd65117"
      },
      {
        "passId": "220",
        "signer": "0x0c09506D7AFB582Ad2BE6020f742211854A54f37"
      },
      {
        "passId": "221",
        "signer": "0xfE50E07e9a18274bf6254F0B1531073Fe0EC9E50"
      },
      {
        "passId": "222",
        "signer": "0x07283E6bc5948D6A14dFc66917194873FAF17703"
      },
      {
        "passId": "223",
        "signer": "0x0fc1967b2ED5F4E7398421D48aEbD621c15Ec98D"
      },
      {
        "passId": "224",
        "signer": "0x965Fc7193E7349de42Ef07Adb620f32FAfFcF7A2"
      },
      {
        "passId": "225",
        "signer": "0xb3FE4aE7CeDb3d4f5A235Ab6C4570cdb708e4cD3"
      },
      {
        "passId": "226",
        "signer": "0x6a62599F741d34b32ddDEA87Ff6B46da4d7A628A"
      },
      {
        "passId": "227",
        "signer": "0x7B106821D3bC55bB6D39561c7395Ca67149FBC3C"
      },
      {
        "passId": "228",
        "signer": "0x1f18F4219FDbb0EFb48dC5Dc842776B922C333D3"
      },
      {
        "passId": "229",
        "signer": "0xF841F7ecc39046b598637D5755820fD002773c44"
      },
      {
        "passId": "230",
        "signer": "0x4B1FE29CCF6fA32B5d3f0069B3dE3Ca7cd545E69"
      },
      {
        "passId": "231",
        "signer": "0xA3Ad0c676ED8D4a7059b5c257Ad117d0271ccAE3"
      },
      {
        "passId": "232",
        "signer": "0x94C20a750e5e54Dc240E68368E425FDBf4700A6E"
      },
      {
        "passId": "233",
        "signer": "0xA5986508690C93bB4df3c43a45ee35Ef313af938"
      },
      {
        "passId": "234",
        "signer": "0xA3048e18116d3BF289fdF38ab29870b6039717A8"
      },
      {
        "passId": "235",
        "signer": "0xD5c471A26EBAc676D99Da5271c2Ac80B83f4b8FD"
      },
      {
        "passId": "236",
        "signer": "0xfE9299FdF4Cbf283Ab5Bd070f77C9a4509fda4f8"
      },
      {
        "passId": "237",
        "signer": "0xaF678DA657e8cd600147c6C706A86CDcA3C53F72"
      },
      {
        "passId": "238",
        "signer": "0x081eFd4d2419a403ebc9f5A73DeC32A1F3877017"
      },
      {
        "passId": "239",
        "signer": "0x0f0Ff1A08E1a27F43701589f53d4EA5B7F7ff85d"
      },
      {
        "passId": "240",
        "signer": "0xB31D6CC6B7294509CAcAbBDA70d5b4E429B7F467"
      },
      {
        "passId": "241",
        "signer": "0x06E0678C44BcEf715367b2aa5B2d7F87c142BffE"
      },
      {
        "passId": "242",
        "signer": "0x7de28b206e35b763A1D142f3DD6860a00C0e6300"
      },
      {
        "passId": "243",
        "signer": "0xFf01e12172150D882c2b5fdef6D475A634fa47F2"
      },
      {
        "passId": "244",
        "signer": "0xE66001ca160123dA936578a5E02D539bac7F9736"
      },
      {
        "passId": "245",
        "signer": "0xf7ed59d9d862C3BD111415742574175A969f0bf2"
      },
      {
        "passId": "246",
        "signer": "0xf0EBB63ebA2e60c7C1Cf7e9f22F000c8aEe33248"
      },
      {
        "passId": "247",
        "signer": "0x59Ba544bf22Bf6247F57AEcd9cC4D318f48cF10c"
      },
      {
        "passId": "248",
        "signer": "0x7a5d98D13fcbb58732F23044F2B10F5A31A43E90"
      },
      {
        "passId": "249",
        "signer": "0x2Ad79ebF0245637D0a5cb5e7527552036565AbB1"
      },
      {
        "passId": "250",
        "signer": "0x8db945a9E4D89d12FE2400410289CdC9269cd30A"
      },
      {
        "passId": "251",
        "signer": "0xCdb3e6F8746671CB31Ba7F915CE976bC7f169E89"
      },
      {
        "passId": "252",
        "signer": "0x4C0F78EE396DB3aB5a6cDfBFEaE80313A239dcF6"
      },
      {
        "passId": "253",
        "signer": "0xd4cD6311459B3f38ad440061D90Eaf67F3888109"
      },
      {
        "passId": "254",
        "signer": "0x3920Be839e66DFE40E63a5f431C773bB6ac6E247"
      },
      {
        "passId": "255",
        "signer": "0x2c85B21b3F7c28C9DE3cfEDE95314A6368950c66"
      },
      {
        "passId": "256",
        "signer": "0x2029c059F29D0D1CcF53C4474BD1C298Bb2F121c"
      },
      {
        "passId": "257",
        "signer": "0x5A25AE87F5Fa3e19Fc239c3e231c3531D90eFA8a"
      },
      {
        "passId": "258",
        "signer": "0x37099D7e9AE4d6424148E0797C3ad5c9FEB2B396"
      },
      {
        "passId": "259",
        "signer": "0x248f8E47C55beE42ACEA2F51702CEa9dc275A333"
      },
      {
        "passId": "260",
        "signer": "0x2eDce612F5b9E5e803aA4f95f6730492A93C7273"
      },
      {
        "passId": "261",
        "signer": "0x1e36A85Ebb122B532222F5796aDfC73A5cF80f33"
      },
      {
        "passId": "262",
        "signer": "0xC290C8E303BEe00b1419873DCe912901D8227236"
      },
      {
        "passId": "263",
        "signer": "0x1d97fBCc124465C993A6B5a4BE9d03e7E59F3205"
      },
      {
        "passId": "264",
        "signer": "0xeb962367947C69bbeF60f61891B21234eefa9940"
      },
      {
        "passId": "265",
        "signer": "0xEc7b393652ef31BDa6208Ad4E0c6666DaB02c41F"
      },
      {
        "passId": "266",
        "signer": "0x048707a03Bc83659d798500BC2286CA08717C921"
      },
      {
        "passId": "267",
        "signer": "0x413eC30FE8af68889904F01F5b36B45992a56577"
      },
      {
        "passId": "268",
        "signer": "0xF1B0DB6126Bb32551F05115875Ab3B53145EAD30"
      },
      {
        "passId": "269",
        "signer": "0x3a54f3bae6131028200F9beb9CcB852A9459c4Dc"
      },
      {
        "passId": "270",
        "signer": "0xa002178613EA629fDc1D4785eEb947A1bBDaEfb6"
      },
      {
        "passId": "271",
        "signer": "0x061A8ae6DD78F36AA05b586174f83406e8Bd3f05"
      },
      {
        "passId": "272",
        "signer": "0x9cc0c1C66d8683321eaf08D7bCf9cB95a025365A"
      },
      {
        "passId": "273",
        "signer": "0xaD7560482E1b7036E3500C35b4AFC72D964cFf82"
      },
      {
        "passId": "274",
        "signer": "0x34Caaf8ecDA705031725299363A206c38AceF881"
      },
      {
        "passId": "275",
        "signer": "0xc4C02008079c5dA6A1460F41F18F6eA6B6972806"
      },
      {
        "passId": "276",
        "signer": "0x75988B8e9Ff533DB95043b122c22b962d276f09D"
      },
      {
        "passId": "277",
        "signer": "0xe3e8824aBd34a50CB8B00F82074D0F09c877b11A"
      },
      {
        "passId": "278",
        "signer": "0x443BD27c9ae3A96716D9eC576d91bD5dd41CB53B"
      },
      {
        "passId": "279",
        "signer": "0xB26bf0F5F9057c8e80adB35AF97ca1E702a320D9"
      },
      {
        "passId": "280",
        "signer": "0x9DeAD6dD6E7faBd39032019C3aA595B397A1e371"
      },
      {
        "passId": "281",
        "signer": "0xc0F632Ea275a3CA3fc10b0B7e83237d5A0BE6B41"
      },
      {
        "passId": "282",
        "signer": "0x411dc2754eE3De3CB928630D22bbBaADB662c83f"
      },
      {
        "passId": "283",
        "signer": "0x975bF176eCC5Fea769A17Fef89e06745B7683551"
      },
      {
        "passId": "284",
        "signer": "0x012c317A337EAA9EaEAc398Ba902609D8570B880"
      },
      {
        "passId": "285",
        "signer": "0xdEC39bdaF3E899840956E004552EF0Cd45451e72"
      },
      {
        "passId": "286",
        "signer": "0xA68A12A2a962Cf494491a57f730f341a4cE8819D"
      },
      {
        "passId": "287",
        "signer": "0x9e75930f56c94A95379FF59572C5C4de1DD54F2A"
      },
      {
        "passId": "288",
        "signer": "0x92c8A87AC230e345BA65189D7bc9eD9E97064B8e"
      },
      {
        "passId": "289",
        "signer": "0xAd88FA3c058B049D5c719c88453156EF4a74A952"
      },
      {
        "passId": "290",
        "signer": "0x900fb5e04c67626516A6e1992eAb7bd2fdf35EEb"
      },
      {
        "passId": "291",
        "signer": "0xA4e34Cf12d42Cb8e4f112898f4909D278992b6E3"
      },
      {
        "passId": "292",
        "signer": "0x46174BB8360e0f7Ee5a22b6bAFE0BfAc8769150f"
      },
      {
        "passId": "293",
        "signer": "0xfB9104bdBE182947081B809F3Ec4708080286EEd"
      },
      {
        "passId": "294",
        "signer": "0x37393947837b79127450C1cdF55d3aaEA99dCf49"
      },
      {
        "passId": "295",
        "signer": "0xb52B88220946C5d5b2814e46E758875EBa71B75D"
      },
      {
        "passId": "296",
        "signer": "0xe227E7275bC73d9cC723706aBdc2F38E273dC937"
      },
      {
        "passId": "297",
        "signer": "0x6426438388D54a2D5Fb80a5554AD47600872f3cF"
      },
      {
        "passId": "298",
        "signer": "0xdEE9Cf2E5d5eDa12A55beAf33F72570CEe67C34c"
      },
      {
        "passId": "299",
        "signer": "0xD9a0d2694cDeb1d6ecA44b7e3f14f60D416785AC"
      },
      {
        "passId": "300",
        "signer": "0x5F633AA45904e8a4FA9B07F983b2F7Cb1117a727"
      },
      {
        "passId": "301",
        "signer": "0x50688Ebc9bd33Ef8A2aB0caf2CFc80CF580e659E"
      },
      {
        "passId": "302",
        "signer": "0xb0a6Bb5ca5b399DA48f66B339ACc754414929290"
      },
      {
        "passId": "303",
        "signer": "0xE1Afd52F163e27ad2D1485B13FeEd1DfF8696b68"
      },
      {
        "passId": "304",
        "signer": "0xB6253BF7B2d814d1f73576C3DCe5f9014441478C"
      },
      {
        "passId": "305",
        "signer": "0x1b50BEcA198dA707c5920cedFDE21D334Aba68e8"
      },
      {
        "passId": "306",
        "signer": "0x803456CB52b2439d9e7b524AccAcfA6f1EDd0e17"
      },
      {
        "passId": "307",
        "signer": "0xFdeDf4137958E5061339d0ab8F73F97386F7C64C"
      },
      {
        "passId": "308",
        "signer": "0x74f7415772221156D1202FaC08b08B15e51D3E01"
      },
      {
        "passId": "309",
        "signer": "0x68b307F20059b1FDF5bE248a0949bBA4954Ca831"
      },
      {
        "passId": "310",
        "signer": "0x1d4efA0A2D7A4800f846C15a82Bf24992d367cB2"
      },
      {
        "passId": "311",
        "signer": "0x498f6a5d2cA06e0f61fB18072Ac456eE9fDbF0Ee"
      },
      {
        "passId": "312",
        "signer": "0xb71255764f599740a657decCF5841C8c8eFc3Bd9"
      },
      {
        "passId": "313",
        "signer": "0x6553ef1E1C8B08Dd2f311472e74d2dA659BA12f4"
      },
      {
        "passId": "314",
        "signer": "0xda7F2261178Ff41eA212b9144d79Af588fF3A7E5"
      },
      {
        "passId": "315",
        "signer": "0x2d2c37599632c431BA6B7DA60e95b3102Dc67638"
      },
      {
        "passId": "316",
        "signer": "0x8e903a681aE86A843Eee901B2D56AD34C8128a3f"
      },
      {
        "passId": "317",
        "signer": "0xeF8fC45e2d46E5ceBDb02fca9A50A6f1cFb386af"
      },
      {
        "passId": "318",
        "signer": "0xe31F646Fd45156E308B435a4e658BF6d459923f9"
      },
      {
        "passId": "319",
        "signer": "0x60Ed280dcb8076C662Eb7Ef18FB2d69741a4a69e"
      },
      {
        "passId": "320",
        "signer": "0x23eF981eA9518CfDFDd9f2457D6FDD3A8799DEa2"
      },
      {
        "passId": "321",
        "signer": "0xfF3085c33B346CfF55509eab997765a39F78D28c"
      },
      {
        "passId": "322",
        "signer": "0x08eeb7bf5d47A1fbA0Ca0465B0f559A29848a084"
      },
      {
        "passId": "323",
        "signer": "0xDdFbe2DC840Fe530B107F4ebA6C18b313E4B2d5c"
      },
      {
        "passId": "324",
        "signer": "0x772c670e533142FFF5f704C3C34164EBEd299788"
      },
      {
        "passId": "325",
        "signer": "0x3FF875119Fec4d3635b50F14FC14B24835635B7D"
      },
      {
        "passId": "326",
        "signer": "0x1BbE708AbB605AB6E80f1936da9402c98482c1F0"
      },
      {
        "passId": "327",
        "signer": "0x73bDCdCFA2a0B7A146192Ea84DB371f0DB96a256"
      },
      {
        "passId": "328",
        "signer": "0xaCFA26dc538Ce890e4e2d0BDDAEc59cD7405074D"
      },
      {
        "passId": "329",
        "signer": "0x05FC22FFE457D7540B0628d19Acc495BaA4531c2"
      },
      {
        "passId": "330",
        "signer": "0xa6E6830ae7d178e82a0053D45163289C737823F1"
      },
      {
        "passId": "331",
        "signer": "0x6A43EB47d45CdaCf0111eC0F70bFdF66Fc6cde7a"
      },
      {
        "passId": "332",
        "signer": "0xF9B0A6E10b7d084aD69893f9F918D8E7BB40f8E3"
      },
      {
        "passId": "333",
        "signer": "0x158176eBF0f7B7113D7b0996cC600450fb4E5901"
      },
      {
        "passId": "334",
        "signer": "0x571b00DF74e0baC5998733f7A2F05dCe660a4b8F"
      },
      {
        "passId": "335",
        "signer": "0x53af8cF0E88e7D70332Bf7FFeaad597270fB4d44"
      },
      {
        "passId": "336",
        "signer": "0xc95aE8b63B5B07e550488cAEAB4D72429fB29321"
      },
      {
        "passId": "337",
        "signer": "0x5Ab5592062e71eA33849Cb0eaD09e03A87B4910E"
      },
      {
        "passId": "338",
        "signer": "0xFca622c31802de0Ad7B92f4288F9Ac0486c59Ad0"
      },
      {
        "passId": "339",
        "signer": "0x310E509cca9a0012E306b0A12924AA9A79a1E7A1"
      },
      {
        "passId": "340",
        "signer": "0x82f7f2455d6249EDF0A883DDbae07a2d345ed738"
      },
      {
        "passId": "341",
        "signer": "0x611e681cAE97ed82F32D87C88EFB33907f8E2618"
      },
      {
        "passId": "342",
        "signer": "0x41a7ceDcbCAF49Fd063E5F8862f4B0291FDFeEb8"
      },
      {
        "passId": "343",
        "signer": "0xbe9497408FDB3872611f9283ef1675A4d25d681E"
      },
      {
        "passId": "344",
        "signer": "0xC69aE3750f71a786ceDe644f865B032a2C8f6dcf"
      },
      {
        "passId": "345",
        "signer": "0x0e007Ba44fc90F2a2B491E92F3d77C48f4B912f7"
      },
      {
        "passId": "346",
        "signer": "0x7CdA6f439247af2A94147fa025b8A2B4fA9018BD"
      },
      {
        "passId": "347",
        "signer": "0xc0FC45AeaA66DB33194812EC1ceaCD828fd2DD41"
      },
      {
        "passId": "348",
        "signer": "0x14314CCB52500BDB930155e9428AE39425596683"
      },
      {
        "passId": "349",
        "signer": "0x71751b8b1d687be248CB1c9afaC06754398a5422"
      },
      {
        "passId": "350",
        "signer": "0xbBB1e38C7ffe0C65d211277111b87390F4a3Ed4B"
      },
      {
        "passId": "351",
        "signer": "0x4Fd7C3cc9B14276dAf9e91ac7634fe03FcF6B2Ca"
      },
      {
        "passId": "352",
        "signer": "0xcE78e93B77719C8ab72fCd934BF918e0F66A584B"
      },
      {
        "passId": "353",
        "signer": "0x9f81F45c0aee5E4cE40cb408163df1Df0367Ad58"
      },
      {
        "passId": "354",
        "signer": "0x8aD07E30DF16df3955c2832359c58A93917540D4"
      },
      {
        "passId": "355",
        "signer": "0xdc760999755CA1B62aB5D36cDeE6d511C539a723"
      },
      {
        "passId": "356",
        "signer": "0xB28260C3f6B8ef37B54c33bF9d83b99d24988A68"
      },
      {
        "passId": "357",
        "signer": "0xD7067Bda719cc82F8F0b0c0dC3478B5Cf32435D6"
      },
      {
        "passId": "358",
        "signer": "0x4f246572F8d35d8C3e71b8c85802548ebC1771b4"
      },
      {
        "passId": "359",
        "signer": "0xcDD04029faabD27D59B8A8ff0fc63803B353DaB1"
      },
      {
        "passId": "360",
        "signer": "0x78396FdFC4F3A7E776b777E6897Bfab82FE2314e"
      },
      {
        "passId": "361",
        "signer": "0x14ccB4D8F76696aE6c5f62888443d64F7C84108c"
      },
      {
        "passId": "362",
        "signer": "0xDee80EA86AbEBBF07922d99813BB9638Ff1f65b8"
      },
      {
        "passId": "363",
        "signer": "0x9A761516280245470301827A526CB19eCC513bce"
      },
      {
        "passId": "364",
        "signer": "0xDE4Bf7A0D042B2343BAF725eaEbd525b14A028A1"
      },
      {
        "passId": "365",
        "signer": "0xDbDD2F43C329bCB71218E976833C5673845801b6"
      },
      {
        "passId": "366",
        "signer": "0x24f8F2015FB31348C26A0076F948dEAbb41a17a2"
      },
      {
        "passId": "367",
        "signer": "0x8600137a517cC4144b705cc8A78a64C488b29519"
      },
      {
        "passId": "368",
        "signer": "0x977Cc2bD132eEA0f50e33D75aead3E613B04EF58"
      },
      {
        "passId": "369",
        "signer": "0x925357f73b0059775f49a99EA95e9A4bbc0bbe2a"
      },
      {
        "passId": "370",
        "signer": "0xEf091F6f6Eb2198EFb5b3EcB9e7f97eD623749aa"
      },
      {
        "passId": "371",
        "signer": "0x205abB76Df1258BbF2c107EcEE5BbAaD2284adB8"
      },
      {
        "passId": "372",
        "signer": "0x6Ae8A852fea1188aeE9acCb67C11E928b52DF393"
      },
      {
        "passId": "373",
        "signer": "0x4f1709301beB9739c2D6b1970b515845F345b7cf"
      },
      {
        "passId": "374",
        "signer": "0xfAAa8cD9a401d7361e6ba6D158447EB30f51c6D0"
      },
      {
        "passId": "375",
        "signer": "0xBb901769198D2DC98AED6ab8ff2d444b8E5CF85C"
      },
      {
        "passId": "376",
        "signer": "0xeC7800EA57F9ff58e80CC1D553B7B7f33173fA2b"
      },
      {
        "passId": "377",
        "signer": "0x8C60Cb583Aa85795e0E493578D180DD1678B9D58"
      },
      {
        "passId": "378",
        "signer": "0x0aA8E9B1F35988BCD95B4D15E9cA9a00AB255e01"
      },
      {
        "passId": "379",
        "signer": "0x5182Fa32Bc8271ff48D86c8987d968C65532aE7a"
      },
      {
        "passId": "380",
        "signer": "0xd1B428f3b13c7ffbb6581bC2dA1C57BC03674618"
      },
      {
        "passId": "381",
        "signer": "0xCd357cF43F9100e69318E48Be8EBd33AC375E4F3"
      },
      {
        "passId": "382",
        "signer": "0x7363f9B990343AE3953E9f9239769fFdBD0E0390"
      },
      {
        "passId": "383",
        "signer": "0x5C45422f4CC095cf3cB63686307d0011D14F7638"
      },
      {
        "passId": "384",
        "signer": "0x70C02946F4C286b0786F507D58456C34f4D7A1CF"
      },
      {
        "passId": "385",
        "signer": "0x3a4c2c8a4aD93D238106CC6F38e270050AE60344"
      },
      {
        "passId": "386",
        "signer": "0x23EC15254841EC87D3fEA89d8dB17206dFfaAe30"
      },
      {
        "passId": "387",
        "signer": "0x3914cc50a508000987DB3c8Dbd40434f88926116"
      },
      {
        "passId": "388",
        "signer": "0xb9f13635bF9DD90CC4e90b39A0AA09cdec4b00D9"
      },
      {
        "passId": "389",
        "signer": "0x6d717ceDA5E542a49C2Dd113496dc48C71288aAB"
      },
      {
        "passId": "390",
        "signer": "0xE762460F82B02F6248255153425bcf480b5FDa04"
      },
      {
        "passId": "391",
        "signer": "0x921a757D168933f2f9eDCcD6aef5e4E05d6D3241"
      },
      {
        "passId": "392",
        "signer": "0x82E22ad3Bde8Ae4a2adF88960104A99a57fd58Bb"
      },
      {
        "passId": "393",
        "signer": "0xCA28Aced7286dF96356E3B791532a2e6B5d73aE7"
      },
      {
        "passId": "394",
        "signer": "0x79F27C85Dd4F2dCF0b3EF14f8A57bBc930Abdd56"
      },
      {
        "passId": "395",
        "signer": "0x97404195CeF22112CBB6402C86d8b2D01d3d2950"
      },
      {
        "passId": "396",
        "signer": "0x2050F92756379E0a665C60760BADBc0d1953384D"
      },
      {
        "passId": "397",
        "signer": "0xA7A7c4379C90a17F051639e7f57b4a069Dd315Fa"
      },
      {
        "passId": "398",
        "signer": "0xAe4e5Ac0D2300DBB41055c56d4acd891f4981637"
      },
      {
        "passId": "399",
        "signer": "0x5258C05C8E3b5323e4C4A593ABF773e539F2Eb2f"
      },
      {
        "passId": "400",
        "signer": "0xE2258501da64023A084a104B1dfff700dD51cBbc"
      },
      {
        "passId": "401",
        "signer": "0x76dB1e14d50a1acFF5aD6e8b0B14e369ea6D9765"
      },
      {
        "passId": "402",
        "signer": "0x25FBdCD2A6EAbb73F3F2c49D7283F51C6CF4B605"
      },
      {
        "passId": "403",
        "signer": "0x556A9c2B66F9Be6fbCee54dCd53A9587cC20A758"
      },
      {
        "passId": "404",
        "signer": "0xC0EF3eC53675CB0Ecd61C0C35fc64c88d4518035"
      },
      {
        "passId": "405",
        "signer": "0x6e6c19EA718Ea9a70E5C5461198876113317dc3a"
      },
      {
        "passId": "406",
        "signer": "0x3b7C5411aF5EA4944Eba2487935C09e673F8Ad7f"
      },
      {
        "passId": "407",
        "signer": "0x6918397a55cf560cF00A8796B93977A33f397Ac2"
      },
      {
        "passId": "408",
        "signer": "0x7f7E21130d625ce579041326004b6140F8a3f285"
      },
      {
        "passId": "409",
        "signer": "0xe473A26cba52f4D3C62b576AeC5314341eA656BD"
      },
      {
        "passId": "410",
        "signer": "0x1fEB9bd5468934b0c5B7F3B756E8984cf5E086dc"
      },
      {
        "passId": "411",
        "signer": "0xA03F30f2468546C58860573f0D86C68842ad3587"
      },
      {
        "passId": "412",
        "signer": "0xBb1dE91682CFF25CE408c74E3DCa233225c7f98d"
      },
      {
        "passId": "413",
        "signer": "0x49e7010805B5cB59a9A881f0986d9650C8220185"
      },
      {
        "passId": "414",
        "signer": "0xb793EACf9Fa0Da614427A7c56C3d7889E24a8911"
      },
      {
        "passId": "415",
        "signer": "0x629b4D281B43B8b0C34785f3135D00A9ffd0601a"
      },
      {
        "passId": "416",
        "signer": "0x01d7Cb080beebEA7296EbA638E7B5b9A4FD0cAD1"
      },
      {
        "passId": "417",
        "signer": "0xc3b0dE36fabAe489Bc1f6c180a44C772D29345C7"
      },
      {
        "passId": "418",
        "signer": "0x055397Ae745582859Ddf84f3d50D1156D31cEb65"
      },
      {
        "passId": "419",
        "signer": "0xC7D65D697670161A6Fa904C4cAaF63d00b0A381D"
      },
      {
        "passId": "420",
        "signer": "0xc244C75B818F91E106860Df5dDd2Ec16eae73395"
      },
      {
        "passId": "421",
        "signer": "0xA5DfE97aB9Cde8913aa73c0b5aee3dd7dd7a9470"
      },
      {
        "passId": "422",
        "signer": "0x407E4735109a7e57fB4abbf2E24c81A680a8C5Ab"
      },
      {
        "passId": "423",
        "signer": "0x8898f896f7Aa10C908Ce98d3c1Da3DcCf4Eb968D"
      },
      {
        "passId": "424",
        "signer": "0xb71074E37C137710E0e84832299052272B6a2Ee1"
      },
      {
        "passId": "425",
        "signer": "0x2fF67DF11A7A5be1E2a4b2E02E3ab97a3637A61d"
      },
      {
        "passId": "426",
        "signer": "0x82fEFd3c7b9B19fAFeaA2B34a0378808b5Dd752d"
      },
      {
        "passId": "427",
        "signer": "0xb191E6b687366A39383f32d62c2ccF021522242B"
      },
      {
        "passId": "428",
        "signer": "0x4528Df3C0BD2dC6d4e3A6FA0a98d0C97118717eF"
      },
      {
        "passId": "429",
        "signer": "0x443Bb4E2C1A3bC8B304B59dbFe44E31d4E7ccA92"
      },
      {
        "passId": "430",
        "signer": "0xB857DcdF5d6038fD6199fF3437c66EA11988501c"
      },
      {
        "passId": "431",
        "signer": "0xc3fc4226a281b6688D73fe7B8da69126644d2f37"
      },
      {
        "passId": "432",
        "signer": "0xCDE3FEf75eD86F8287C33261E238Bb947a06a3E9"
      },
      {
        "passId": "433",
        "signer": "0x769AbE486b4c3806069832c0E7bd0cEc41675e70"
      },
      {
        "passId": "434",
        "signer": "0x7B61d85ee132c5a02E1c8Af405a8cc2Ea72d4573"
      },
      {
        "passId": "435",
        "signer": "0xa5e6Cf7543f7E4A2292D075876D054b4077AFAf9"
      },
      {
        "passId": "436",
        "signer": "0x44266d84CbD3831C3738184468D04ca794E18a53"
      },
      {
        "passId": "437",
        "signer": "0xf56Aab0c6FB9587AC7aEE7B47A4d38454a152717"
      },
      {
        "passId": "438",
        "signer": "0x99c6A5A4ac7385f0806CF7c16c7f4Ae05f477716"
      },
      {
        "passId": "439",
        "signer": "0xEf1A2919Aa09cbB3aB56aEf87aee67f3ABd78555"
      },
      {
        "passId": "440",
        "signer": "0x0Eb77397d66D861B871b631600e27b1Dafa21653"
      },
      {
        "passId": "441",
        "signer": "0xB3b9a1b18899112addEd222d7bC2d6c90823229a"
      },
      {
        "passId": "442",
        "signer": "0xb172f6F31f612a7EBf02283E1c65BD460014e682"
      },
      {
        "passId": "443",
        "signer": "0x6d72B226f7d781274f213C4B0BB893bccb739ad3"
      },
      {
        "passId": "444",
        "signer": "0x98c3bBe3AFc3837a55EEc4d97fefBa69831e8646"
      },
      {
        "passId": "445",
        "signer": "0xB3e873D60d5A180484de09B9ed9eF2F3980dfe9f"
      },
      {
        "passId": "446",
        "signer": "0x9116C9552afeD295034c560f1d28eC3a9e4443E6"
      },
      {
        "passId": "447",
        "signer": "0x7355E1ac5b51B587A26Ee7ef33ea13E574627b94"
      },
      {
        "passId": "448",
        "signer": "0x4d0C0a756cE14669A31844380b3081251D7BD47E"
      },
      {
        "passId": "449",
        "signer": "0xab8D728815775e36472aaFd1C9B9AC76736AB98c"
      },
      {
        "passId": "450",
        "signer": "0x74ae22eDf7c04d778b481c3Bc166F5fBBfa14DAD"
      },
      {
        "passId": "451",
        "signer": "0x958407c166dB173446111Ca818E030B112C1f7Fc"
      },
      {
        "passId": "452",
        "signer": "0xc7C8Bc834bbFfB5a353A1fc5AFb1ce51173344bd"
      },
      {
        "passId": "453",
        "signer": "0x1c1D5437240fc6f22DA0b2EFb87EFB4eCC8f739D"
      },
      {
        "passId": "454",
        "signer": "0x74ffb099FFCeE8f79014E778E2770015726817F6"
      },
      {
        "passId": "455",
        "signer": "0xbAcD86Bfb52EE15B78B28857C19eD11dDd8D6F9F"
      },
      {
        "passId": "456",
        "signer": "0x82b72b023296fDF449858578afA80Ad43d06F3a4"
      },
      {
        "passId": "457",
        "signer": "0x309d75DE1d995EE8df5433c03887673f105bd905"
      },
      {
        "passId": "458",
        "signer": "0x68Bc2F4DA8C039755b6555965e72A4A229EDe9de"
      },
      {
        "passId": "459",
        "signer": "0x9Bba8b412E92519362f336Eb1f62c5A936334b98"
      },
      {
        "passId": "460",
        "signer": "0x25e9144ea9C554e81bDdebea85F8DF2751c6a30C"
      },
      {
        "passId": "461",
        "signer": "0xf6d053e03b2E632151445103eef5e9C325c9f060"
      },
      {
        "passId": "462",
        "signer": "0xaE8a3c8b677DD2Cd796F1A9652bB7F984f17856f"
      },
      {
        "passId": "463",
        "signer": "0x78cb20B097033B5AA719076e4856cDE2e4c065EE"
      },
      {
        "passId": "464",
        "signer": "0x21fCd51F47770f66e4E63e044FE342B88C3E70f1"
      },
      {
        "passId": "465",
        "signer": "0xC753dCd1De58fAe240190051cfDe5568EE88E42D"
      },
      {
        "passId": "466",
        "signer": "0xFfCAFA203Ee78240256191b6dd1AF9F9914fd13D"
      },
      {
        "passId": "467",
        "signer": "0x4744248b5600bC6E81A4d4Dd86eD482e9Ff0BD1d"
      },
      {
        "passId": "468",
        "signer": "0xF1fAE6089CA0b9F6346927B74f97a5f1B41BB971"
      },
      {
        "passId": "469",
        "signer": "0x9888c845D718866519881dd01a5ddA6101639E20"
      },
      {
        "passId": "470",
        "signer": "0x199D686A9500E10e1f0Bf9aEbeFB29b93C88B319"
      },
      {
        "passId": "471",
        "signer": "0x1181a56a944B5cdf1dd4674f07ef37E06935296d"
      },
      {
        "passId": "472",
        "signer": "0xE350A04CCA269c743A478d1480352a1d88259387"
      },
      {
        "passId": "473",
        "signer": "0x7E9dB9E8B692675BD4cf118661B0FF5966506C9E"
      },
      {
        "passId": "474",
        "signer": "0x09324f80e5Bef49e9D26891d5A6fA0489Dc9518b"
      },
      {
        "passId": "475",
        "signer": "0x2FF565f836080FB7909A885dBf222e34065a9EA4"
      },
      {
        "passId": "476",
        "signer": "0x2Fc2B26672b88c2Cf59810a7F95659bc32e1FC87"
      },
      {
        "passId": "477",
        "signer": "0x2575626A2e2449407cD2C6DcBD3f82Ab15FD90A2"
      },
      {
        "passId": "478",
        "signer": "0xa27bf05cf75f1940974662F32cB6B2c9402D1abd"
      },
      {
        "passId": "479",
        "signer": "0x1FeD1F57115162b1724e539dD2B58EF3aE3192fe"
      },
      {
        "passId": "480",
        "signer": "0x41ED9EF74D443402D9e8bD5318eb99a38CD5706b"
      },
      {
        "passId": "481",
        "signer": "0xFAf49f028eFE2Ca00B2eECA2E57E00CC2e0038AE"
      },
      {
        "passId": "482",
        "signer": "0x725ea3B7790E55c6f30e5891111e62209163233A"
      },
      {
        "passId": "483",
        "signer": "0x700d8b7BA014B7f89d96c6efEad1D067bDB56F23"
      },
      {
        "passId": "484",
        "signer": "0x126a2F332258BC2050e3e5F93393fd530F99348e"
      },
      {
        "passId": "485",
        "signer": "0x267a79C3F5aDc79dBa124Faedb186357E10e40B6"
      },
      {
        "passId": "486",
        "signer": "0xbE7f5bE6a98c2B61E40887E62Aec7Ad0AedC19ef"
      },
      {
        "passId": "487",
        "signer": "0x453383E8Ff91Ce7901128e5e87C20CE51E3B4e79"
      },
      {
        "passId": "488",
        "signer": "0x211C1eF84E204EA57516B155D2E8225ac46f5bEA"
      },
      {
        "passId": "489",
        "signer": "0xF70cd3534d39d7F77E0a1e0C0111d62607042A2c"
      },
      {
        "passId": "490",
        "signer": "0x1d25b831f9F37c5f894da11826268B4ACDA07d9A"
      },
      {
        "passId": "491",
        "signer": "0x5c9f4ba84B8Ba8A6df4282384D58Db76cEBBC361"
      },
      {
        "passId": "492",
        "signer": "0x9c42c4f710ef661653b5ab30f1305b0612a39362"
      },
      {
        "passId": "493",
        "signer": "0xE52d5eD4898ee051161704Ad77C2B3569Eaa41E1"
      },
      {
        "passId": "494",
        "signer": "0x2a2A211D0e26239F112E59Fd2d18af85C7b1C261"
      },
      {
        "passId": "495",
        "signer": "0x7Cbd6Be11836168F6DBf70Cbe576c20d9A417a76"
      },
      {
        "passId": "496",
        "signer": "0xE4b0321F3064e4eC2DdaF9Bd02Fd8da515369298"
      },
      {
        "passId": "497",
        "signer": "0xFDAd2e3dA5A733a2694e81fe9044974979d9101A"
      },
      {
        "passId": "498",
        "signer": "0xD006ecC498c0c86c55f18A74F75D154525AbeD84"
      },
      {
        "passId": "499",
        "signer": "0xa60d41f6467DB18f77B92DEeA9BEb716b1f2c5aD"
      },
      {
        "passId": "500",
        "signer": "0x17ab5CeaEC1a4Cc053c81f45693c4C0d41d7A865"
      },
      {
        "passId": "501",
        "signer": "0x6100c88E213643d0a8662E29a6B6e4F2b099E2D1"
      },
      {
        "passId": "502",
        "signer": "0x8465497A5b087354d92d16C94CcB98225F455af0"
      },
      {
        "passId": "503",
        "signer": "0x1FF5096F001e58722FB332ed643551805A8D6820"
      },
      {
        "passId": "504",
        "signer": "0x22F30389CceC1615B6fc5C20d54FF97bAE968a78"
      },
      {
        "passId": "505",
        "signer": "0xCB302FEdD27c4b17d4a2c421866f109a5DB08179"
      },
      {
        "passId": "506",
        "signer": "0x9406cAab5FbA067FC6b7e71983a3a437f4298970"
      },
      {
        "passId": "507",
        "signer": "0xF0a425DaCEdc5e9b15a5a7BB282E855A1F06c41A"
      },
      {
        "passId": "508",
        "signer": "0xd9E944dF785942c74a9F24e2Bd50caB9Be924A05"
      },
      {
        "passId": "509",
        "signer": "0x5250862c9B826D39BBD05Ac9aA98aACbA7dd70c6"
      },
      {
        "passId": "510",
        "signer": "0xe92192b105EC89f02ff4cd5feEe5d67c56E75bAe"
      },
      {
        "passId": "511",
        "signer": "0x3f51A61fbF3673D8919b42F6B496Cb8E126f0E34"
      },
      {
        "passId": "512",
        "signer": "0xCEf7B95C941e0F18F88B5c8A17E03926c54e688b"
      },
      {
        "passId": "513",
        "signer": "0xfFA11B10f7A56a4082C52D08114761A50E195150"
      },
      {
        "passId": "514",
        "signer": "0x3Af956Dc76f00922781f05AdCB0dadCFfC71ffc6"
      },
      {
        "passId": "515",
        "signer": "0x7C341Fbd62881c5e42ac34d7b8af947643369Acf"
      },
      {
        "passId": "516",
        "signer": "0x49D6298323644Fa8EB93c1C1311Eb349EFfDd494"
      },
      {
        "passId": "517",
        "signer": "0xf7a09345285999086016701151845DB4715ebc41"
      },
      {
        "passId": "518",
        "signer": "0x5dB1995B67F4720393454bfAcb068858CCd88F19"
      },
      {
        "passId": "519",
        "signer": "0x6F450C5938290A0B0a27CF95db63a64508163982"
      },
      {
        "passId": "520",
        "signer": "0xC8dbe0792835ef958D8204571aeEa52DBA7c51E0"
      },
      {
        "passId": "521",
        "signer": "0xd99b85F1dd508cA98bd50a6F3Fb4A7235438B3bF"
      },
      {
        "passId": "522",
        "signer": "0x1B37597105239b805a0b8B73437A9283a0Df8bAf"
      },
      {
        "passId": "523",
        "signer": "0x7944225636a171f54861316e7C339F3458847517"
      },
      {
        "passId": "524",
        "signer": "0xA3929747c9B895a7aff56387828038c9c6273224"
      },
      {
        "passId": "525",
        "signer": "0xb51fA4d5b8B82DBecbe83A204023DBB1CeF64025"
      },
      {
        "passId": "526",
        "signer": "0xe613E8D967e13567b95299878565d83Bf63DF2EE"
      },
      {
        "passId": "527",
        "signer": "0xA7d36CDa6799D3545AE9D6164b38388B60f5F892"
      },
      {
        "passId": "528",
        "signer": "0x430d7fc18BC9E8929f533931C58eD4Ce22c01764"
      },
      {
        "passId": "529",
        "signer": "0x2DB1a17EdD066534290CFB29A2F8fEB771594a6b"
      },
      {
        "passId": "530",
        "signer": "0xb26F5a9A9ebE3f27A6475Fd90b608AcC13b5b20f"
      },
      {
        "passId": "531",
        "signer": "0x7b9fFA810182F11B792b070B806eD07f08640096"
      },
      {
        "passId": "532",
        "signer": "0x3836bB59D139E8E4e022c639332153e6C961FE18"
      },
      {
        "passId": "533",
        "signer": "0x29A057fb5e1B62d7844d288cd0749C7406Ea700a"
      },
      {
        "passId": "534",
        "signer": "0xC5a0d8b6634800c673c3CB11B8409f73179C8658"
      },
      {
        "passId": "535",
        "signer": "0x10525438CDDaD671447E2F0604C01B7951bBC2a6"
      },
      {
        "passId": "536",
        "signer": "0x7B961a45dF64B461E1CF112928Db43b0f06B80EC"
      },
      {
        "passId": "537",
        "signer": "0x0879e56a23ec90F4BB641DdE1a413E3FE85b74BA"
      },
      {
        "passId": "538",
        "signer": "0xD79817A142e02e4d0E50E7Cf4576D9dc08e8ecDa"
      },
      {
        "passId": "539",
        "signer": "0xd4154388810449F80410b49CeAd1D257028C55dE"
      },
      {
        "passId": "540",
        "signer": "0x2f1B849c1705333D7767b40844E13D4b740aEA4f"
      },
      {
        "passId": "541",
        "signer": "0x303e49313e705A5Aa114FD41E1e5fb1892c3AdC6"
      },
      {
        "passId": "542",
        "signer": "0xEEDc7C9a1C5016fe85C379BcE96B0183E736Df73"
      },
      {
        "passId": "543",
        "signer": "0x966e37b8C9737A0397d2a4103eCB7AaA8134302f"
      },
      {
        "passId": "544",
        "signer": "0x0aa588E2E25832d84b0A204A5c35eeD039c1EFe3"
      },
      {
        "passId": "545",
        "signer": "0x7dF8c84D2f68E88279FF34cc378e3C2E37AA9E69"
      },
      {
        "passId": "546",
        "signer": "0x7D1E70C83eC53EC1E7A8214A508ad1e14f42807e"
      },
      {
        "passId": "547",
        "signer": "0x1fB440Fb2BC8a4eC2F4C49A1DB519eE7cc87Eb79"
      },
      {
        "passId": "548",
        "signer": "0x7f072D5A94bb6c7ae1037779B9228F6ee1874383"
      },
      {
        "passId": "549",
        "signer": "0xC6fE5e6F7637fAC924CC264c1f120a19a68B2a4e"
      },
      {
        "passId": "550",
        "signer": "0xdd0807a6f712369B1508488Bd591020d86776F49"
      },
      {
        "passId": "551",
        "signer": "0x142d5d875820809160AE300bEB2B1326ad59E749"
      },
      {
        "passId": "552",
        "signer": "0x1aba1F04408f5DCDbe25751aeFa2137bde8f1260"
      },
      {
        "passId": "553",
        "signer": "0xC5C6Fbb10b2103B997AdFD8f92300657868dB985"
      },
      {
        "passId": "554",
        "signer": "0xF9a65ad5b9ec47DA08A3D6Bd4344FC7d77609e05"
      },
      {
        "passId": "555",
        "signer": "0x05Be96076393f055B6c35Ce51944B872F542Bd03"
      },
      {
        "passId": "556",
        "signer": "0x6590c7d89C36c1Fae72036dBBaf8A79a4D385758"
      },
      {
        "passId": "557",
        "signer": "0xB0724e20c7cdc2e789370ae8e2dff054E369f28f"
      },
      {
        "passId": "558",
        "signer": "0xb65923f4779E285f21A3c3a587C6390ccD21B260"
      },
      {
        "passId": "559",
        "signer": "0x49ab17aCeB40837D3f2Ec5CeE5Bf50F2BF07ab7f"
      },
      {
        "passId": "560",
        "signer": "0x50c9D4f5619F5Ff31f1bf5138382FeA83AdBC2Df"
      },
      {
        "passId": "561",
        "signer": "0x62af2068B4C144758E3058cF7FB86E983E2d1318"
      },
      {
        "passId": "562",
        "signer": "0xF0f631e644d7985a0ef6dB65D15f10b904539DdA"
      },
      {
        "passId": "563",
        "signer": "0xd784dCAcc58acc7cA2a3688c3CD99bC5Db058F29"
      },
      {
        "passId": "564",
        "signer": "0xeC6621Ed7Db06B4BB2434424B5AB9c975e9e878c"
      },
      {
        "passId": "565",
        "signer": "0xEfD35b815b5009d946Fb1F6faDD731C56A94Da99"
      },
      {
        "passId": "566",
        "signer": "0x48F2cd30586F0a545a0Bd1B8Fc1550817957557E"
      },
      {
        "passId": "567",
        "signer": "0x5478B2Dfe2C6a2086E43b2B96f426B62C450d123"
      },
      {
        "passId": "568",
        "signer": "0xbc952967c52e5e824fE86A56df0F366Cb972484D"
      },
      {
        "passId": "569",
        "signer": "0xf44b0b031F883e879Ac738B7AEC5E21f2FD420C4"
      },
      {
        "passId": "570",
        "signer": "0xFb7b5B50Cf14cC8A59a805d5736A68097E7a53EC"
      },
      {
        "passId": "571",
        "signer": "0x608B8Db125536278483FAE4b92458CEB2a874Ad4"
      },
      {
        "passId": "572",
        "signer": "0xA141286ddbAcA77Ca9F4232Ec436dA298BBD3eb5"
      },
      {
        "passId": "573",
        "signer": "0xAC77F4Af7B7786C6e93c1223b2842f07Bf078134"
      },
      {
        "passId": "574",
        "signer": "0x6BAc252d1A814E9358370c90575ff08C8f0365E5"
      },
      {
        "passId": "575",
        "signer": "0x8590b7091521AC0E6bFfd4247Da68A8363eff7b7"
      },
      {
        "passId": "576",
        "signer": "0xE8124E01299dFE1f9af60E4cD8f8B2e329F856b0"
      },
      {
        "passId": "577",
        "signer": "0x692916E32ae7c3181A162720f14153541AfCDC9e"
      },
      {
        "passId": "578",
        "signer": "0x2fA7bCc919466Dad3BB1E1D801b00983AABC949F"
      },
      {
        "passId": "579",
        "signer": "0x5c39895409F5e37651cE5bB28EA9b6b174B71c96"
      },
      {
        "passId": "580",
        "signer": "0x9727F5B90c5B98df6157677e72A23E750e197c67"
      },
      {
        "passId": "581",
        "signer": "0xfd67e1d877D6aC440e833aa48FCd2dA21d57111C"
      },
      {
        "passId": "582",
        "signer": "0xB1d825B95fa50E4D89c1B0e7Ae3D9299D785704d"
      },
      {
        "passId": "583",
        "signer": "0x3F98E1cfCa5862d6e23335159A5A0982Ead680b4"
      },
      {
        "passId": "584",
        "signer": "0x3896212de65eC9F0F9B7415052433d1740Bc58D6"
      },
      {
        "passId": "585",
        "signer": "0x928C0e0FbF2c4aEbBB3357abfC3080B5cC9b6bdD"
      },
      {
        "passId": "586",
        "signer": "0xEdcCf8239924f57b1E8a54cc665A6d22D9DA1E17"
      },
      {
        "passId": "587",
        "signer": "0x4F5D803b30E6373D843c805a24f1d60aD0E169db"
      },
      {
        "passId": "588",
        "signer": "0x04B899Db881dE7fCB3a39C72b8022E8ccb74a6A1"
      },
      {
        "passId": "589",
        "signer": "0x9469C558A3Cb51dAcAb8a33A2A7d38344ab96daA"
      },
      {
        "passId": "590",
        "signer": "0xE190B5D7b0ff56585EBf33fff64a7aEA0ce464b4"
      },
      {
        "passId": "591",
        "signer": "0x5AD7ba2E2C7749bb2C6F70F3D41a2728658aC928"
      },
      {
        "passId": "592",
        "signer": "0x6E25b1423715378A7c4bB91F8DA17e27c29c9f74"
      },
      {
        "passId": "593",
        "signer": "0xF8ccaB0615e9a376d793709D112aAaaB36c5290d"
      },
      {
        "passId": "594",
        "signer": "0xe647ECC7EfF9485128FdB8cE3e698373509ff918"
      },
      {
        "passId": "595",
        "signer": "0xa8Ad4D6485431a62088BE8675C041976Fbd611bB"
      },
      {
        "passId": "596",
        "signer": "0x368C5C368C2134E6444fBd2Ef3BE87F680BdB111"
      },
      {
        "passId": "597",
        "signer": "0x71d59A990d69341387D5a72Cc248EE6F5c5E748a"
      },
      {
        "passId": "598",
        "signer": "0x7F9C4d8Eb62D1F557D29c91e49460B55E0b6AB55"
      },
      {
        "passId": "599",
        "signer": "0xc14Fd4093b6cE000f268c34EafA1E19E03Fe0ad0"
      },
      {
        "passId": "600",
        "signer": "0x5f5AF01695f8B2415ef17d083Aec51E49ecA6425"
      },
      {
        "passId": "601",
        "signer": "0x60ea9deb80722C6c10B3Fe581311367CC05Df162"
      },
      {
        "passId": "602",
        "signer": "0xA347aD52aBc2c781324bfE2aeC35CBb0c25518Da"
      },
      {
        "passId": "603",
        "signer": "0x1bbc58865492B7AEFC1E8d794AB86Daba2B1c329"
      },
      {
        "passId": "604",
        "signer": "0x88104370D87ac2DcB2aA9905D28C754502D6455e"
      },
      {
        "passId": "605",
        "signer": "0x8dc2D00f7A37D1B6B4558B69eeB0188476175875"
      },
      {
        "passId": "606",
        "signer": "0x3fEd87278b443a679550dE23f2a868E7e2a9b85C"
      },
      {
        "passId": "607",
        "signer": "0xE3A74F969b6C19f73289757Af6917554B9CFb477"
      },
      {
        "passId": "608",
        "signer": "0xB5a458Ac2DA622dD1a193E511d41146A4b3f30fe"
      },
      {
        "passId": "609",
        "signer": "0xcDF5372EC854e4ffC3252e6d2683C44c6bAb756c"
      },
      {
        "passId": "610",
        "signer": "0x9FCC3a6F6740341C5D4630f19EbAc51c433f45D7"
      },
      {
        "passId": "611",
        "signer": "0xbd166889381E6278791eD6569d9adD500B15493d"
      },
      {
        "passId": "612",
        "signer": "0x968A55ead0916886c337B9722175f65736825b61"
      },
      {
        "passId": "613",
        "signer": "0x73E40494ac1163e84b8e542157F6827c1d080f6A"
      },
      {
        "passId": "614",
        "signer": "0xC24CfDcC4c9d7290BF29fB8E50c5056b2866142C"
      },
      {
        "passId": "615",
        "signer": "0x20762b190d6d32f253F94eE68664615005708016"
      },
      {
        "passId": "616",
        "signer": "0xC5E7F797a9BEe1c30165E0cC0C507Db6e57b7E8F"
      },
      {
        "passId": "617",
        "signer": "0x1635E195df2E567cab02aEb5A9a89aD9CBB72713"
      },
      {
        "passId": "618",
        "signer": "0x9667be575546E21EFDA95638f4c15D34C70Fdc61"
      },
      {
        "passId": "619",
        "signer": "0x7908dd42FbD0bf8b39C41e253C7E2C0F57166F54"
      },
      {
        "passId": "620",
        "signer": "0xDC22323D8c9D9342860db2b4443DF46C343ABe7C"
      },
      {
        "passId": "621",
        "signer": "0xCb2924c930f6DDB852b1a9A994839438Ecb7BF57"
      },
      {
        "passId": "622",
        "signer": "0xD0Ae2A961159BBDf32fbb39dba0754Ce40a1d7F1"
      },
      {
        "passId": "623",
        "signer": "0x785783d0b8e838E183855a5323986516CC58BA1E"
      },
      {
        "passId": "624",
        "signer": "0x3efb8ade532ecdDDE788A11F48F738f94577A862"
      },
      {
        "passId": "625",
        "signer": "0xB35DdC087e5e4723D284D060C3aa2DA5cf51C7f2"
      },
      {
        "passId": "626",
        "signer": "0x245eeD56E15d59A50DbcFa004A8e3840219E0a1e"
      },
      {
        "passId": "627",
        "signer": "0xFD1729E20D291946af3Da886504CDfb0816168E2"
      },
      {
        "passId": "628",
        "signer": "0x0eeD6F80ab815b05596D724054dD83d9E9C00dbb"
      },
      {
        "passId": "629",
        "signer": "0x47D0D6c5651e3bd1b37dFd952246E841204232b6"
      },
      {
        "passId": "630",
        "signer": "0x9E13dFf34B768429Adec03761d53B4388eA320df"
      },
      {
        "passId": "631",
        "signer": "0xd9d15cFd34424eEcA0ef5Bcf3CE670F9fb64c617"
      },
      {
        "passId": "632",
        "signer": "0x91f29BA8842FF5C07E86F3eF600933b1a3e98bE0"
      },
      {
        "passId": "633",
        "signer": "0xCe6884EeBdccac06BD87485B88F44A6CE5aAE297"
      },
      {
        "passId": "634",
        "signer": "0x3957E344cD30e6BBafF99d00E6D10ae5944C980a"
      },
      {
        "passId": "635",
        "signer": "0x084FcE358e79031C9840bC75cF217Dc2Ed156C51"
      },
      {
        "passId": "636",
        "signer": "0x2b2Badd5D0A937889af3BEDe0D69d80ED3219120"
      },
      {
        "passId": "637",
        "signer": "0x03Ae229e47444f2555F2bfF9bfcf53666604c35F"
      },
      {
        "passId": "638",
        "signer": "0xB4b40cB9a8E0c1e4De7f66d24e4b171fb355D34e"
      },
      {
        "passId": "639",
        "signer": "0xB2A8535aa46c8Be9Da1332014af08C370D7E67b0"
      },
      {
        "passId": "640",
        "signer": "0xb2547b0bCD7daf7A2e6Ff63d98AB27Be9bfefF64"
      },
      {
        "passId": "641",
        "signer": "0x81d82F4E809AB4bB69ef4a7e2e9b0d7663bEBF81"
      },
      {
        "passId": "642",
        "signer": "0x201Da52150CB427B361acfc6D069fE899c6CCf4C"
      },
      {
        "passId": "643",
        "signer": "0x4fc543fF869f613A88636D627492cD836ef25c5e"
      },
      {
        "passId": "644",
        "signer": "0xdD4399cD287099f61709932AAcfF94720Cd52B3f"
      },
      {
        "passId": "645",
        "signer": "0xBC94c9c6D6aD03794834aa1fEC01ce3Be520341c"
      },
      {
        "passId": "646",
        "signer": "0xAB22DF5E626be35056C5Eb34D8d0122D340649aa"
      },
      {
        "passId": "647",
        "signer": "0xeD99037E4F95310be07761429AF48F11DFddd9F4"
      },
      {
        "passId": "648",
        "signer": "0x44c4d7F894c9050dFF1C7781168EE037579c5130"
      },
      {
        "passId": "649",
        "signer": "0x5789B9B0e3FAF0535cD165D41A3A1E80749a9DCf"
      },
      {
        "passId": "650",
        "signer": "0xbBa39Ca3978071aDb890FDCcF9b866e8f64315EE"
      },
      {
        "passId": "651",
        "signer": "0xf49E635dBABe10742E1De0124E2d41F7384d43ba"
      },
      {
        "passId": "652",
        "signer": "0x8d0aDEd20D5A0Df1BA9D1a8C0496010dff28D7AE"
      },
      {
        "passId": "653",
        "signer": "0xeAc8e30Ff63d9FaB7a161a4fE90dEeB65275Ffb8"
      },
      {
        "passId": "654",
        "signer": "0x1E15766c063f0d516cC89700c65F6189632a0373"
      },
      {
        "passId": "655",
        "signer": "0xF296777a08678255Fa43C4aD429acB71B29230F3"
      },
      {
        "passId": "656",
        "signer": "0x14d644e0DB7a21b5E4B42e75AE77F6B931058dac"
      },
      {
        "passId": "657",
        "signer": "0x310C3F25FD70b833881d02CbA91D185d8f432908"
      },
      {
        "passId": "658",
        "signer": "0xdf842AeFBEE114741f1Ab58c4C829030cBe19928"
      },
      {
        "passId": "659",
        "signer": "0x83d1fC62A180630b9Cb5067fDd2289306032A676"
      },
      {
        "passId": "660",
        "signer": "0x3a0110446cbdEF88BA89B27b501e48ddFfd3ed22"
      },
      {
        "passId": "661",
        "signer": "0x466F2eca2E09b842C1A877B3733607B8519D45D7"
      },
      {
        "passId": "662",
        "signer": "0xAAd17F3C7e427e0F2A049498EE9eb0445A47e39B"
      },
      {
        "passId": "663",
        "signer": "0x27379fd28839aca6446E151BeEC05a7c7f3Debf7"
      },
      {
        "passId": "664",
        "signer": "0xC110fdC90c23d63b731E9437aa2523bc4Fb02Bc8"
      },
      {
        "passId": "665",
        "signer": "0xCC604Ba854FE7874FE8CC38e58Adaa0b83f91008"
      },
      {
        "passId": "666",
        "signer": "0xc544bF7A11432C5BC012Ae4744dfBfE2BC4Af6F6"
      },
      {
        "passId": "667",
        "signer": "0xE492b9Ab3427f24580C14188e690F065256F2C8c"
      },
      {
        "passId": "668",
        "signer": "0xb9cCBB807C81EdeE6057c791bB68d548be869F20"
      },
      {
        "passId": "669",
        "signer": "0x114205820E2D1E0b4C750B477b6b42f8aE258917"
      },
      {
        "passId": "670",
        "signer": "0xE05fe7e0e19FAD8401fc3314cED7726AF4Ab3aa0"
      },
      {
        "passId": "671",
        "signer": "0xcFDe261191208Ed25D3A3f68dBda115fE1928f82"
      },
      {
        "passId": "672",
        "signer": "0x86F2A2429aC47363E3F9F7f7c3a9231239895c51"
      },
      {
        "passId": "673",
        "signer": "0x59A56D85532F764492095107B94d3e33cb21664C"
      },
      {
        "passId": "674",
        "signer": "0xBFcDFFB4128B05c159814387Dd5A4B4EE9b7ce72"
      },
      {
        "passId": "675",
        "signer": "0xA57Bf97251a559dE87cF6C7F6886642f00bF3E9d"
      },
      {
        "passId": "676",
        "signer": "0x6D3e29903f59959c72C68A520d68D1C5b1226615"
      },
      {
        "passId": "677",
        "signer": "0x91C482Ff06152a15d9Ccb5B028Da7973caC32200"
      },
      {
        "passId": "678",
        "signer": "0x9518FebC77d6317A624641C0fc6BC38fb630d700"
      },
      {
        "passId": "679",
        "signer": "0x8238706AD91C3cD5FF8A1fd7613E99afB162e892"
      },
      {
        "passId": "680",
        "signer": "0x990E4BD317a96aF12320D210BA6feF0f6eBc07D0"
      },
      {
        "passId": "681",
        "signer": "0xb6AD6c8F4e9fC818866AB4a15Af2D47b038a1F5a"
      },
      {
        "passId": "682",
        "signer": "0x8E6c959576Ad16fF7F057b30e60487Df4598fA03"
      },
      {
        "passId": "683",
        "signer": "0xb60fa372De95F3D0a2f9e0AC207Bb1f22Ab87c67"
      },
      {
        "passId": "684",
        "signer": "0x1d4D617206309AFBbe9bD7b44eacc351daD9C8Ad"
      },
      {
        "passId": "685",
        "signer": "0x8b5Aea2fc3098b47cB3a3038340a00195E85f408"
      },
      {
        "passId": "686",
        "signer": "0x614a3819d18A0Cee376147515f59d321F90Eb0Dd"
      },
      {
        "passId": "687",
        "signer": "0xcB8465dd175f8E14d0e9762Af68BF80a1900E822"
      },
      {
        "passId": "688",
        "signer": "0xd6c42c028A238b7D732B2263B9ca47b37B07B00a"
      },
      {
        "passId": "689",
        "signer": "0x7F9A998D143c366dd0c8c1cCC139372d8199597A"
      },
      {
        "passId": "690",
        "signer": "0x60AF3D38dE1161C33D344418a3f06bc313f3980A"
      },
      {
        "passId": "691",
        "signer": "0x31D690e4bf769a567dF490B9D6d87117A3A574FB"
      },
      {
        "passId": "692",
        "signer": "0xf2363773603D420Ee65FE7241bbc33a5930F5a36"
      },
      {
        "passId": "693",
        "signer": "0x4075a20772d947e5befA5b4aC1DF10C729E6A92A"
      },
      {
        "passId": "694",
        "signer": "0x2679c4C166C29152C254Ad116134336a21b55633"
      },
      {
        "passId": "695",
        "signer": "0xB499aa5F17528E65226B756958A77c04C5997c0C"
      },
      {
        "passId": "696",
        "signer": "0xfE353227f4212d99041A45558D4660e3782CF6CF"
      },
      {
        "passId": "697",
        "signer": "0x1C9592f7D14C3601e6D7bC6a9a3D734C8C09cE9b"
      },
      {
        "passId": "698",
        "signer": "0x6Abff4d389b7189009795acc08103e5c775DeAF6"
      },
      {
        "passId": "699",
        "signer": "0x1769F1A119930244E4Bb416154eA874425522A99"
      },
      {
        "passId": "700",
        "signer": "0x24141575d4Fe8e3cC934124Ce5c0B80c8a650058"
      },
      {
        "passId": "701",
        "signer": "0x1Bc1318C608035532B5A52A3E2D80160314819e1"
      },
      {
        "passId": "702",
        "signer": "0xb5184B1Aa7cD50126d39259124cf8714DD2B2217"
      },
      {
        "passId": "703",
        "signer": "0x87A09A0D2Ec2eee9cFb0748F0C5ee88EC6D8b6fF"
      },
      {
        "passId": "704",
        "signer": "0x9C2560ac43A1431aD8165987F7F1415AcD9d5f7f"
      },
      {
        "passId": "705",
        "signer": "0x7873bb16EEad578e7ae23a000c61f14Fb17B04ea"
      },
      {
        "passId": "706",
        "signer": "0x7DfE7073Ed1A88019F33056F608A5Bea6e53D092"
      },
      {
        "passId": "707",
        "signer": "0xEFd28fdB2f29E4b56feffa2a5D54c34cEbA911E1"
      },
      {
        "passId": "708",
        "signer": "0xE5fdF827e1c2FEDBD82EC4F227405aAc25eDDf7e"
      },
      {
        "passId": "709",
        "signer": "0xACDD4e44863c522256764eC3740dC655143c0816"
      },
      {
        "passId": "710",
        "signer": "0xD6719A627D473aE2d59dBdBF3c40d0f1650992c2"
      },
      {
        "passId": "711",
        "signer": "0x38a6740829EF0Be7F7eCf586f126cb1Daa4f64aE"
      },
      {
        "passId": "712",
        "signer": "0x4B62398c46365e1587104D9a80E63885aA2F13BE"
      },
      {
        "passId": "713",
        "signer": "0x9e16137DB14E1890a360408CC399bBcbE6eE3658"
      },
      {
        "passId": "714",
        "signer": "0x0E23C8b33871c42cA2D285B354e039cA62AB30aD"
      },
      {
        "passId": "715",
        "signer": "0x903b6F0a640a70B7Fea291a210A0857FeF6D9fE5"
      },
      {
        "passId": "716",
        "signer": "0x2cF862ca832387c88560446efe0B112968711622"
      },
      {
        "passId": "717",
        "signer": "0xBDfF85E67d611214CE1748b451998312c5C3cCd6"
      },
      {
        "passId": "718",
        "signer": "0x7aDDa799875036fe23f3FCd17D50B1De446324a8"
      },
      {
        "passId": "719",
        "signer": "0x2AA98F1a166C6C9ccBD9456f43535305bADC28dc"
      },
      {
        "passId": "720",
        "signer": "0x769c9f02a369eeaA036b0a09aEd19213f9f3e46D"
      },
      {
        "passId": "721",
        "signer": "0xc4A1950024bE4C865733F34656f754716c04EB84"
      },
      {
        "passId": "722",
        "signer": "0xeE93BBFd4212a5Ef193dE02Ae236AaAac1ccc4Aa"
      },
      {
        "passId": "723",
        "signer": "0x3325528a10339286d3ad6Af0B4C76da1EC659Db7"
      },
      {
        "passId": "724",
        "signer": "0x8b66d2e55032AD4227A81e4A77Ce01C3cA6f13bf"
      },
      {
        "passId": "725",
        "signer": "0xB99B99ceD54997c682e24010dB4E1200e307799E"
      },
      {
        "passId": "726",
        "signer": "0x10b5b75d31103c1E8019358Cf8Ee324667760a41"
      },
      {
        "passId": "727",
        "signer": "0x81898C387F400bd99c01eBa0Ec870Fac6CBbBa81"
      },
      {
        "passId": "728",
        "signer": "0x3b1347489506Bd8A86830e5517FAc4434aaFD110"
      },
      {
        "passId": "729",
        "signer": "0x9B86643c90cF401b01601e2B28CF57Fcc8540A40"
      },
      {
        "passId": "730",
        "signer": "0x23BAf760547C5f2BE15724BFC9490372A9C0e82B"
      },
      {
        "passId": "731",
        "signer": "0xb9100D4032E6811875A4BC8dFcf0864BDF9732f4"
      },
      {
        "passId": "732",
        "signer": "0xEEB8E0385a99091C0d45706707889c54b51F878a"
      },
      {
        "passId": "733",
        "signer": "0x000C2c5133C5C55716e35ad42D314aF0c756Aa1e"
      },
      {
        "passId": "734",
        "signer": "0x8C50Eb500E11aed5ee985EBF61CD952BD17Aa901"
      },
      {
        "passId": "735",
        "signer": "0x970b40b919C684E5ae8F72Ee24A35e3c2Ab047ff"
      },
      {
        "passId": "736",
        "signer": "0x3a35f40Ace8Ee9783038590173b22AE2bF09E58c"
      },
      {
        "passId": "737",
        "signer": "0x023887D979055d6DD5A240c5dD4C6164c603FecE"
      },
      {
        "passId": "738",
        "signer": "0x8d6AeC01001fF2d6fF69639Bda34Eb09bFa9bAE6"
      },
      {
        "passId": "739",
        "signer": "0x736d0c8f21aC3342704AB4CaB351a5F2Ce8a5Df3"
      },
      {
        "passId": "740",
        "signer": "0xC6BE751cc7911e520A7c938C12121dbFbe8d4402"
      },
      {
        "passId": "741",
        "signer": "0x5C5663993eB2CE39a9e29b5370D8662a4CD333a9"
      },
      {
        "passId": "742",
        "signer": "0xA804fdd1C71109274e88A24BC0F47A6522aE8830"
      },
      {
        "passId": "743",
        "signer": "0x2ce694d9d59aa7dFD80cc357D2044a4c7e0F33b7"
      },
      {
        "passId": "744",
        "signer": "0x0e25C14ACeF4c1B5379c7b011B5b42f25e0CE5Bb"
      },
      {
        "passId": "745",
        "signer": "0xBe35F35E7E5e8aECc20167eBAc48ad25d81e0F7E"
      },
      {
        "passId": "746",
        "signer": "0x6B05F1AD9AB1C11Cba66F1ac07eEa63E9Fb1B853"
      },
      {
        "passId": "747",
        "signer": "0xeCcCD75c436D9e71d5E26A815Ed99D7dF908A8A6"
      },
      {
        "passId": "748",
        "signer": "0x24Aa283E3bbdB0c7055476600C8c6801b41e1b52"
      },
      {
        "passId": "749",
        "signer": "0x77d5AFE669E4C17a408C6F83A964f69EAb3A9E3A"
      },
      {
        "passId": "750",
        "signer": "0xaaefF62972a3b38f686814219763f6dDdFA07917"
      },
      {
        "passId": "751",
        "signer": "0x09622Fa3Fce2946016bd85A452718eB4B2c9B613"
      },
      {
        "passId": "752",
        "signer": "0x92565B9e4450FAb7A971AfD8b0ba6ED986D33d9a"
      },
      {
        "passId": "753",
        "signer": "0x84de6AAEB7EC8300E8780395D046D99155B3E1A7"
      },
      {
        "passId": "754",
        "signer": "0x4366E2C01f67b9335c2fE02bd6E28339569b4B16"
      },
      {
        "passId": "755",
        "signer": "0xB2C26296236FF2975eE104d0B110Cb9bd6F45FFf"
      },
      {
        "passId": "756",
        "signer": "0xbed284FFEC05a004A12AeAED96eD841Eb791D9e4"
      },
      {
        "passId": "757",
        "signer": "0x0019452e1B5392991bc48Db7fcdAeAEb229Ff5C0"
      },
      {
        "passId": "758",
        "signer": "0x3794851E90f96E1fBAEF2C0F0EEc12078a2B9032"
      },
      {
        "passId": "759",
        "signer": "0x3736Bb3a19772636dBD4F4DC0BaB21d55FBC8d3e"
      },
      {
        "passId": "760",
        "signer": "0xe48Fa09483619C1116DC98D9603c97994B5D8084"
      },
      {
        "passId": "761",
        "signer": "0xEEa247Df6Cd60A5D48a0a1a59D77a7F8ce9A753B"
      },
      {
        "passId": "762",
        "signer": "0x92E005955ba39fdC07490ACd36444f514CF15623"
      },
      {
        "passId": "763",
        "signer": "0x99220572Db64aDD927fc941Ee8817228aCb7cf53"
      },
      {
        "passId": "764",
        "signer": "0x53A154758bb2d88c9DF6fFC205eBa9A502e4eF8d"
      },
      {
        "passId": "765",
        "signer": "0x3C6a51F97A8613A69A47beAe2d91C6f1A70b084d"
      },
      {
        "passId": "766",
        "signer": "0xeaAcCc90Db191b409F41E27637A2637de2F4231E"
      },
      {
        "passId": "767",
        "signer": "0x13612Cc84cF184b675EfFBB3cDf6d5dd0F26E182"
      },
      {
        "passId": "768",
        "signer": "0x3D2ece80e71d9F82b6893DA5570Cd328a3345f96"
      },
      {
        "passId": "769",
        "signer": "0x912D883Ac0d87C16df085c53d43bC899a7199343"
      },
      {
        "passId": "770",
        "signer": "0xF3bC43704341931206BEBB5Fbb8DA3e56fe5Fc3B"
      },
      {
        "passId": "771",
        "signer": "0xC2Af1e93AA7DBb6E01e49aBbFfc91a5D49795B3b"
      },
      {
        "passId": "772",
        "signer": "0xCe0b80e35A550B39587e58022d050Ea3A0cEC535"
      },
      {
        "passId": "773",
        "signer": "0xc34a8e780921c9A60C6cc55dfc41D4480DdED924"
      },
      {
        "passId": "774",
        "signer": "0xcc1522596A95168693c4eD308a8c9cBe5087742a"
      },
      {
        "passId": "775",
        "signer": "0x174242ac441C4E808ab94382F37f3C80605285b3"
      },
      {
        "passId": "776",
        "signer": "0x0f3abcBA70DA9f3aE2C0d4c8588fc4D238aB43CD"
      },
      {
        "passId": "777",
        "signer": "0xeC7755Abb625267D26A766c8EDce1b279F111700"
      },
      {
        "passId": "778",
        "signer": "0x5daBc1256532DdE48c8D00e3aaf7B0a12954c437"
      },
      {
        "passId": "779",
        "signer": "0x4aebD09Ded8c37ae4aA62d6cfF8AB8e162CFdAE5"
      },
      {
        "passId": "780",
        "signer": "0x31c5ea6074506a5446D7000D5c6BFC6c10bb747e"
      },
      {
        "passId": "781",
        "signer": "0xb53d80CFf17e0eE73b56145326359CDb7836155e"
      },
      {
        "passId": "782",
        "signer": "0xacd94D082EE42a887534AF971467fBa84Dc16072"
      },
      {
        "passId": "783",
        "signer": "0x381eef1F717F584D413EA7960478e6AD0c147Fb3"
      },
      {
        "passId": "784",
        "signer": "0x579e00E35BC8b4739F30c3a9ddc8D5F9eAc9f859"
      },
      {
        "passId": "785",
        "signer": "0x2bEf6D5713F45f88B6d51ADBE5c0ab4aa9c84C83"
      },
      {
        "passId": "786",
        "signer": "0x127945413DcE148164C31780fc0d297AdDBAbD17"
      },
      {
        "passId": "787",
        "signer": "0x2A8907E7D68d7397C70585ceA3c7E25c651be409"
      },
      {
        "passId": "788",
        "signer": "0x37A2036fC838aDd9c7b21B97FF69f0264c972F02"
      },
      {
        "passId": "789",
        "signer": "0xF02c6e38fDBBB71468578Afd156822f9517cBB55"
      },
      {
        "passId": "790",
        "signer": "0x7fC05961A4f86B8774D0Da26979E9EDF63c8a5FE"
      },
      {
        "passId": "791",
        "signer": "0x0bf3e759E987325C5fF91Dd1F020B3be492A0CED"
      },
      {
        "passId": "792",
        "signer": "0xb80b63D0750654F5114823Ef06E22d016fA007B5"
      },
      {
        "passId": "793",
        "signer": "0x828B80f47B56D3DBc0c10AaF373e0d8E8C169AF7"
      },
      {
        "passId": "794",
        "signer": "0xb10614b605F4D1130879a4581237f1FdF83a895F"
      },
      {
        "passId": "795",
        "signer": "0xDD5E7F5B3fC06b0F95338f007984aCAAE83C8C71"
      },
      {
        "passId": "796",
        "signer": "0xa04AD065493F29DC2f1b7784c8C16bb73b5549d8"
      },
      {
        "passId": "797",
        "signer": "0x25372feA1EFCdD6dF7D8D85f0140693D58ea283b"
      },
      {
        "passId": "798",
        "signer": "0x5e623e3554e7997a5693283A06fCB9b32591A594"
      },
      {
        "passId": "799",
        "signer": "0x5665D572b512BeE9385A216E38B1e92aa60533e8"
      },
      {
        "passId": "800",
        "signer": "0xC1af5103384a985C046A178A9916Fdf0D332DB1c"
      },
      {
        "passId": "801",
        "signer": "0x5E08BB36cf88a5B418A3FD193E617cE1EAeBd6a9"
      },
      {
        "passId": "802",
        "signer": "0xB56049fE3760C7C387fC4238C7B5C4259b3A78FB"
      },
      {
        "passId": "803",
        "signer": "0x667f2Bf39A4eeB6d3446cC5D6517c903B2C21212"
      },
      {
        "passId": "804",
        "signer": "0xBA5371B0e54D6Bbe495875E37295B8454297bc26"
      },
      {
        "passId": "805",
        "signer": "0x0B588D9A4CF1461C5df41fE3A40F5fc785800C01"
      },
      {
        "passId": "806",
        "signer": "0x2F5C3bB420939559a16b5cBf92d4de5463daB2CF"
      },
      {
        "passId": "807",
        "signer": "0xB149eBa2D9c509Dbe21aED77Cc41e21B7706e781"
      },
      {
        "passId": "808",
        "signer": "0xa99B8Fb1b5BeC1ea90C328eF71e2ac9c56A9FcD3"
      },
      {
        "passId": "809",
        "signer": "0x0876Bc351951b529E335A37CA7fE735b92377B50"
      },
      {
        "passId": "810",
        "signer": "0x7Df76eB02b08C74c19969080Ec0E302cc29C9D46"
      },
      {
        "passId": "811",
        "signer": "0x3656A477f16bf43232acB921BD7Bc557B5c7C131"
      },
      {
        "passId": "812",
        "signer": "0xBCc793E734B34A99Babcf3CE2F66A2C459E31b7D"
      },
      {
        "passId": "813",
        "signer": "0x5ca3Eee78A7217821549dC89d53247111C9D8efB"
      },
      {
        "passId": "814",
        "signer": "0xc63C749dc67C14F2788E998B010FEC4321D2A6e3"
      },
      {
        "passId": "815",
        "signer": "0x000000000000000000000000000000000000dead"
      },
      {
        "passId": "816",
        "signer": "0x000001f568875f378bf6d170b790967fe429c81a"
      },
      {
        "passId": "817",
        "signer": "0x0078c86e12186e2de1ff6fef5f1ada2bffde4ea5"
      },
      {
        "passId": "818",
        "signer": "0x024f1f8b3789bfdf9edb47f58a0d7a3afeaea804"
      },
      {
        "passId": "819",
        "signer": "0x049808d5eaa90a2665b9703d2246dded34f1eb73"
      },
      {
        "passId": "820",
        "signer": "0x05e8074088797c1f9057febf374deee0bc38e894"
      },
      {
        "passId": "821",
        "signer": "0x05ea539365d91df315e8ddd736e90431696fe8c4"
      },
      {
        "passId": "822",
        "signer": "0x09280340849e66948149804cac539cc7227512be"
      },
      {
        "passId": "823",
        "signer": "0x0946bc5c2f9848665cc3811458de403d0a78ad8e"
      },
      {
        "passId": "824",
        "signer": "0x0985224a811e65c235dbf4a2c2117712aabe4e39"
      },
      {
        "passId": "825",
        "signer": "0x0d0aca99686fced8e6fb39134aaed96f09b5283c"
      },
      {
        "passId": "826",
        "signer": "0x0d94b6e4c2aa9383964986020b3534d34885f700"
      },
      {
        "passId": "827",
        "signer": "0x0dd544d0da95666d7c3d38460feb4b5f25eaa515"
      },
      {
        "passId": "828",
        "signer": "0x0ea59c05be4b7149aaed26be764b618ac0255643"
      },
      {
        "passId": "829",
        "signer": "0x10b28ee04853bdd30d1fd7b302fbe5691c144aa0"
      },
      {
        "passId": "830",
        "signer": "0x10f6c58b9dc9603cb24ee9a5220bb4a470781676"
      },
      {
        "passId": "831",
        "signer": "0x12579783fbe8c2645d7a634b238da748405975a2"
      },
      {
        "passId": "832",
        "signer": "0x136c65a3f31682fcf683906ddbf3c76db2633f99"
      },
      {
        "passId": "833",
        "signer": "0x139d9a36ff2b6bfb8558dfbc22486da48c77a396"
      },
      {
        "passId": "834",
        "signer": "0x13b3a50f3947476eda74fe191344524e2d2d28e5"
      },
      {
        "passId": "835",
        "signer": "0x13e46ccd194ca86212236543d2e7376b00bafa42"
      },
      {
        "passId": "836",
        "signer": "0x1423fcc74da82fa03d70fa1f7a122db1ba231783"
      },
      {
        "passId": "837",
        "signer": "0x1436dbffbdde71d16a2c4d23f9116c3158c4d984"
      },
      {
        "passId": "838",
        "signer": "0x1527fa3a0778d574adfe714b7e60c7b2a1bf7c29"
      },
      {
        "passId": "839",
        "signer": "0x1974341df4b113a4c16f3d3f106176dec0e4da67"
      },
      {
        "passId": "840",
        "signer": "0x1c062628943a930b805849b494719c7d23c77bd5"
      },
      {
        "passId": "841",
        "signer": "0x1ec9503bbdad721ef3ad485b4b14ce0671dc9925"
      },
      {
        "passId": "842",
        "signer": "0x21c5edc237e95049f92059af6a571fdb700f2b82"
      },
      {
        "passId": "843",
        "signer": "0x2224acd07fd9b269ab5200a9a3df8062624deefb"
      },
      {
        "passId": "844",
        "signer": "0x230eb64900d027dfe372786b3342bd6178ec37d1"
      },
      {
        "passId": "845",
        "signer": "0x273c25abd33eca095e228fde0f15e8f7ec4eb4d9"
      },
      {
        "passId": "846",
        "signer": "0x27d9b6692ec1fb802cc8ceef74270ca4b448076a"
      },
      {
        "passId": "847",
        "signer": "0x290420874bf65691b98b67d042c06bbc31f85f11"
      },
      {
        "passId": "848",
        "signer": "0x2993db31d165c33d848e44a1c26a805ba411d324"
      },
      {
        "passId": "849",
        "signer": "0x2d2c46d26c8fec693586e067c4fc2b2ddc2b4cb3"
      },
      {
        "passId": "850",
        "signer": "0x2d79097b9e4c4f41654b2c91c39fd2c97af00c76"
      },
      {
        "passId": "851",
        "signer": "0x2de2299db048a9e3b8d1934b8dae11b8041cc4fd"
      },
      {
        "passId": "852",
        "signer": "0x2e50783188e23742dd3168682e39381ff5fa9731"
      },
      {
        "passId": "853",
        "signer": "0x2e699391d1b3b8577557b4c0ef6a1d9e8a394f04"
      },
      {
        "passId": "854",
        "signer": "0x308bff328370fc4a9683ab9fcd79a21be6dc5ee4"
      },
      {
        "passId": "855",
        "signer": "0x342c6bfa287ce37b8b53eee0e5b6e6bcbea98c76"
      },
      {
        "passId": "856",
        "signer": "0x362f020fd4420c317e7a0722994ba8bc3380d0e8"
      },
      {
        "passId": "857",
        "signer": "0x3668a20653316a7dd85342f64a4c984d146cadfe"
      },
      {
        "passId": "858",
        "signer": "0x37b699d7eead58433d352d1c77b2db1391f11ce5"
      },
      {
        "passId": "859",
        "signer": "0x3ad353e2845b96fb1b58c1ca6cda46b870de8d6f"
      },
      {
        "passId": "860",
        "signer": "0x3d14410609731ec7924ea8b1f13de544bb46a9a6"
      },
      {
        "passId": "861",
        "signer": "0x4011d09a86d0aca8377a4a8bad691f1aceecd672"
      },
      {
        "passId": "862",
        "signer": "0x41a7276167b80da8815df5b0ddaba3be29984250"
      },
      {
        "passId": "863",
        "signer": "0x44dc2ec15b3483fc8590f6b396cea5f8f2fbf3bd"
      },
      {
        "passId": "864",
        "signer": "0x4530307f98208d3bd5b9631880bc7351770c8810"
      },
      {
        "passId": "865",
        "signer": "0x4a1d757699ab73dd4b48b15049b6f1479b2f3511"
      },
      {
        "passId": "866",
        "signer": "0x4b0bd713574e67a97b3ff8f647f329794a2cbb64"
      },
      {
        "passId": "867",
        "signer": "0x4d03a186b3c7d039ff9a212cd8e81dc34a670b35"
      },
      {
        "passId": "868",
        "signer": "0x4de4a829d42191007431d608775430f3ab072082"
      },
      {
        "passId": "869",
        "signer": "0x4e012d25472225f3385baa43ed64dfec5885c51d"
      },
      {
        "passId": "870",
        "signer": "0x4ffb72b66eba24521736924f87dfe10677d82286"
      },
      {
        "passId": "871",
        "signer": "0x50f27cdb650879a41fb07038bf2b818845c20e17"
      },
      {
        "passId": "872",
        "signer": "0x5285ac85a979b612f5c5320961311bba099670f0"
      },
      {
        "passId": "873",
        "signer": "0x530cf036ed4fa58f7301a9c788c9806624cefd19"
      },
      {
        "passId": "874",
        "signer": "0x5310a9b64847c1b927f823a4bc8836e93f09dc78"
      },
      {
        "passId": "875",
        "signer": "0x54463aae905082c678708bb6c25226eb8f38d5a6"
      },
      {
        "passId": "876",
        "signer": "0x562bf1b67dc40d9b7c3ddd49e45ae58e61e1b76e"
      },
      {
        "passId": "877",
        "signer": "0x568b491fb2b4b9440f6d05e7723df0060fdaef1c"
      },
      {
        "passId": "878",
        "signer": "0x5a016b206d0314c7ec641c3a6fd89dac7fea010e"
      },
      {
        "passId": "879",
        "signer": "0x5b158f897f5ace2afefaf7ace8ce0cdbbbc9168a"
      },
      {
        "passId": "880",
        "signer": "0x5ba02f4ff6af1d9d2af8774d10fd32eb57d4e2e6"
      },
      {
        "passId": "881",
        "signer": "0x5bd685375c21375165438ca7f3eae7ec4fade8c5"
      },
      {
        "passId": "882",
        "signer": "0x5d9e720a1c16b98ab897165803c4d96e8060b8e4"
      },
      {
        "passId": "883",
        "signer": "0x5e01d9928ea32d1d3ae2f3263b6ec6c165dc2d76"
      },
      {
        "passId": "884",
        "signer": "0x5ee42438d0d8fc399c94ef3543665e993e847b49"
      },
      {
        "passId": "885",
        "signer": "0x5f8e56d7f3642dd8783774460da2d3a7c54aacda"
      },
      {
        "passId": "886",
        "signer": "0x5fb8b9512684d451d4e585a1a0aabfb48a253c67"
      },
      {
        "passId": "887",
        "signer": "0x6186290b28d511bff971631c916244a9fc539cfe"
      },
      {
        "passId": "888",
        "signer": "0x62f099a34f01d57c67a100851184bea0d48b45f6"
      },
      {
        "passId": "889",
        "signer": "0x63244b5f1ebcb999ea012da652dffee6653bf8f5"
      },
      {
        "passId": "890",
        "signer": "0x64e00561fa9b1f2f2048b2d4f571279689dd9541"
      },
      {
        "passId": "891",
        "signer": "0x65565244e5700b85c90358468faf37c85db55099"
      },
      {
        "passId": "892",
        "signer": "0x6584b48ccebd9c3e4413a1dd4cdbc38b2500cdf3"
      },
      {
        "passId": "893",
        "signer": "0x65d88c64b01b9481352fa8a68b54ed1b3b687388"
      },
      {
        "passId": "894",
        "signer": "0x663d3947f03ef5b387992b880ac85940057c13e3"
      },
      {
        "passId": "895",
        "signer": "0x67c3097a968db89610825976ec9a5976a966c044"
      },
      {
        "passId": "896",
        "signer": "0x68016f094ebb7b55b04372af335455854b0e2eb6"
      },
      {
        "passId": "897",
        "signer": "0x6854dc5c9e3d3ce0b9dd7250d866908515465dc6"
      },
      {
        "passId": "898",
        "signer": "0x686e960ebd9aceb1771850444d4d3a7810a0dac9"
      },
      {
        "passId": "899",
        "signer": "0x6d7fd0438219c0f753a1ccf7c4885bb6cb260999"
      },
      {
        "passId": "900",
        "signer": "0x704c978d50590b21e4c2f43eb4da24fe61fcd707"
      },
      {
        "passId": "901",
        "signer": "0x73e60cd967e957bc6e074f93320ffa1d52697d5b"
      },
      {
        "passId": "902",
        "signer": "0x75331ebbe0b00b97cab532384f13c9b479f074ec"
      },
      {
        "passId": "903",
        "signer": "0x75ef2eff7b12f5f900ef5c787036deab18423d1a"
      },
      {
        "passId": "904",
        "signer": "0x78885686feec340ab544428f161e7d621f520e29"
      },
      {
        "passId": "905",
        "signer": "0x79bebfcb560141f22959c62bbd2930d5c7e35d30"
      },
      {
        "passId": "906",
        "signer": "0x79fd2f15e0ea8c27b5192259f9da63f4e562f021"
      },
      {
        "passId": "907",
        "signer": "0x7a824bea2bed9399a68cd0e340224809521c81d9"
      },
      {
        "passId": "908",
        "signer": "0x7d6a8ffcaf98cac58340329b3a91759888cb1363"
      },
      {
        "passId": "909",
        "signer": "0x7e7a55b11dd9a02b4da169620adfc36b930100fc"
      },
      {
        "passId": "910",
        "signer": "0x80d0d54050c15971b21e877d95441800f5aa9ee8"
      },
      {
        "passId": "911",
        "signer": "0x8177598e08ee8199c160a48c7a0af31ab54bb59f"
      },
      {
        "passId": "912",
        "signer": "0x82410609593d876761681580cf304c794bd58d09"
      },
      {
        "passId": "913",
        "signer": "0x826f63afd9517364cbebe91a859f10b102505a40"
      },
      {
        "passId": "914",
        "signer": "0x836ef81a58e5565b8d1d555ec8e9a5c2792511c6"
      },
      {
        "passId": "915",
        "signer": "0x83d3c179e7906e7f6755658c70e106f1ed3c5782"
      },
      {
        "passId": "916",
        "signer": "0x84eeb7db3f93feb5a8a98f56dabb970a6797c187"
      },
      {
        "passId": "917",
        "signer": "0x865c2f85c9fea1c6ac7f53de07554d68cb92ed88"
      },
      {
        "passId": "918",
        "signer": "0x8725be0bb6ea759d10fbb52fedecc7dcd6890072"
      },
      {
        "passId": "919",
        "signer": "0x87dfef3b445667292aac89078b51f0f75795805f"
      },
      {
        "passId": "920",
        "signer": "0x88906af7616f88f610d1e479325a5c5f93ba1e2c"
      },
      {
        "passId": "921",
        "signer": "0x8a53b8b59877df193c6dae7b8d1d38251af563cf"
      },
      {
        "passId": "922",
        "signer": "0x8b5e90aa714c967efc8c286f46ce0fc822e1cfb0"
      },
      {
        "passId": "923",
        "signer": "0x8c0c3c60118b24b31806eae82ab4186821bf23f1"
      },
      {
        "passId": "924",
        "signer": "0x8c2e67bd3d0f432ef75d9ae6623cd0dfbce66050"
      },
      {
        "passId": "925",
        "signer": "0x8dc9d43df20681cd62ca0acb24ae7ce2794f835d"
      },
      {
        "passId": "926",
        "signer": "0x8df55ecf2c261b44d079302dc95327fe32f74eed"
      },
      {
        "passId": "927",
        "signer": "0x8ebbf8f59b7b7849e359f7e1cc395df6741c24b9"
      },
      {
        "passId": "928",
        "signer": "0x92e7faa1c7b1cf703e3cda42183978f16fa15713"
      },
      {
        "passId": "929",
        "signer": "0x932a824a4d3d0680e0b352de150e6f212b8ac841"
      },
      {
        "passId": "930",
        "signer": "0x95a4350e1cb5e795d3ebe8bee63d9183de5449d1"
      },
      {
        "passId": "931",
        "signer": "0x96dc89dbe84970ee42a2f0b35fb50599e6745ff8"
      },
      {
        "passId": "932",
        "signer": "0x975ab68d4c15d6db02e101d5be03c5b49b9a3282"
      },
      {
        "passId": "933",
        "signer": "0x9de0b0402258a6a562331da7b3c13b29578789c4"
      },
      {
        "passId": "934",
        "signer": "0x9fc6d6c7326585fd3c2a743a1f505990d6e9df3f"
      },
      {
        "passId": "935",
        "signer": "0xa0863e36c30f4974a3a0e2cfc2802513cfaa22f1"
      },
      {
        "passId": "936",
        "signer": "0xa0a6dc36041fb386378458006fecbddd02555ddd"
      },
      {
        "passId": "937",
        "signer": "0xa0d71d516c6149c958c489ab24223c99f5df906f"
      },
      {
        "passId": "938",
        "signer": "0xa0f838d02983161ee469bff969964b7051ac1cd9"
      },
      {
        "passId": "939",
        "signer": "0xa596370bc21dee36872b98009dfbbf465dbfefa3"
      },
      {
        "passId": "940",
        "signer": "0xa5975974cac3fefd831e42bdd2fe84cb5ee3b3de"
      },
      {
        "passId": "941",
        "signer": "0xa6157b7bb7ec05e2b6feafd686797f9ea05411cc"
      },
      {
        "passId": "942",
        "signer": "0xa6f4fa9840aa6825446c820af6d5eccf9f78ba05"
      },
      {
        "passId": "943",
        "signer": "0xa77d9227eee861e01519548b6000acca8600eebe"
      },
      {
        "passId": "944",
        "signer": "0xa7d9f4fd84cdd4bee564adc1b18e3e8aa79d25f1"
      },
      {
        "passId": "945",
        "signer": "0xa88e4a192f3ff5e46dcc96efefb38dfec7bb250c"
      },
      {
        "passId": "946",
        "signer": "0xab2f02d8d409ee4f67fdda5aac5ca7a64a897271"
      },
      {
        "passId": "947",
        "signer": "0xac75cdc34283406b050cadf4ea5902a9310b138e"
      },
      {
        "passId": "948",
        "signer": "0xad9f9194c68bd83250a534a7da574687e1f102ff"
      },
      {
        "passId": "949",
        "signer": "0xae8ce6bb2b95684f57c097b407f4e9b55d9ca432"
      },
      {
        "passId": "950",
        "signer": "0xaee2f40fe0568bd859bc6a518c7ef3252fdc9bf0"
      },
      {
        "passId": "951",
        "signer": "0xaf5cb828389bd6413e7bcd00ed2dcf2bdc1a015a"
      },
      {
        "passId": "952",
        "signer": "0xaf8fbf59e221d27b55dc3adc2366f9230bcf5096"
      },
      {
        "passId": "953",
        "signer": "0xb29b1936c11b77cec6061a9daf765ee2666c8f77"
      },
      {
        "passId": "954",
        "signer": "0xb347b5b99c49ce6c555071a1f0498c81511ad977"
      },
      {
        "passId": "955",
        "signer": "0xb3522064694ac9870dbf00eebc2712762193bb64"
      },
      {
        "passId": "956",
        "signer": "0xb353268ce17d2c7f0f4f8aff152e548c43633df5"
      },
      {
        "passId": "957",
        "signer": "0xb66190f67ed8f0ca790ddfe541ee1bd0da53fe70"
      },
      {
        "passId": "958",
        "signer": "0xb74e4d1592dad73f3745f57605580108ebaedad5"
      },
      {
        "passId": "959",
        "signer": "0xb7f9f538aa1b41ae2853eb63f1939187ffe70eb4"
      },
      {
        "passId": "960",
        "signer": "0xbb46c6e4d8a59520fbb11638c2d1228cc65f5a6c"
      },
      {
        "passId": "961",
        "signer": "0xbc10a3ae909b1b94f4c3e39607ad19d386dce32a"
      },
      {
        "passId": "962",
        "signer": "0xbd12aa424c207e90b66402c1f0aec357e8b1ded7"
      },
      {
        "passId": "963",
        "signer": "0xbe5be517537e53f09e88bcdf61da238477dca226"
      },
      {
        "passId": "964",
        "signer": "0xbeeef66749b64afe43bbc9475635eb510cfe4922"
      },
      {
        "passId": "965",
        "signer": "0xbf1ed1ea654ad49472daedc21a31c8d28e6bb790"
      },
      {
        "passId": "966",
        "signer": "0xbf27384febdc054bbd7e388761919e7d98f7da0c"
      },
      {
        "passId": "967",
        "signer": "0xbfdb50dc66c8df9fd9688d8fe5a0c34126427645"
      },
      {
        "passId": "968",
        "signer": "0xc09d3402515676b81a2f768c365146ea3faa5605"
      },
      {
        "passId": "969",
        "signer": "0xc0e5e14bdecd9ed6954a9e14c74e97cebd91bb94"
      },
      {
        "passId": "970",
        "signer": "0xc169699a825066f2f07e0b29c4082094b32a3f3e"
      },
      {
        "passId": "971",
        "signer": "0xc3a67c1437353bdc9c53060235a34018711de0cf"
      },
      {
        "passId": "972",
        "signer": "0xc42c694d0215b27bce1a871a4a2ad38cf0120a82"
      },
      {
        "passId": "973",
        "signer": "0xc555347d2b369b074be94fe6f7ae9ab43966b884"
      },
      {
        "passId": "974",
        "signer": "0xc665a60f22dda926b920deb8ffac0ef9d8a17460"
      },
      {
        "passId": "975",
        "signer": "0xc8286a9bf1f9bf8f3006fa014915c78b7e75111c"
      },
      {
        "passId": "976",
        "signer": "0xc8bace82793074fad3337424bdb84e306b2f8a44"
      },
      {
        "passId": "977",
        "signer": "0xc9a009bed9ed8a32499e18c20f7cd12132c8d6cb"
      },
      {
        "passId": "978",
        "signer": "0xca11d10ceb098f597a0cab28117fc3465991a63c"
      },
      {
        "passId": "979",
        "signer": "0xcbd2f544073eb35b59a8eb19194a222a5361cd74"
      },
      {
        "passId": "980",
        "signer": "0xcda685c8444f659ac3fe778f8d143aabdf1a21ab"
      },
      {
        "passId": "981",
        "signer": "0xcea78aaa93e917fb5e1802901db2b20aa4411b44"
      },
      {
        "passId": "982",
        "signer": "0xcef871b113d2bb5d3fa5dc96d2d288dd38082aae"
      },
      {
        "passId": "983",
        "signer": "0xcf680fb77c12e2aa2dec82f3ae0c0e527f549fe2"
      },
      {
        "passId": "984",
        "signer": "0xd1eddfcc4596cc8bd0bd7495beab9b979fc50336"
      },
      {
        "passId": "985",
        "signer": "0xd3e64b9dea13e4840a0da20965bd0ca37d05a12a"
      },
      {
        "passId": "986",
        "signer": "0xd651e2c626ee210fc38676124d5007ac822ad749"
      },
      {
        "passId": "987",
        "signer": "0xd657860fc512ec2250a7385a353f599e3276fddb"
      },
      {
        "passId": "988",
        "signer": "0xd6e02c13a6cc133c9d019495414667ea7bee05cc"
      },
      {
        "passId": "989",
        "signer": "0xdc190d7cea8e8bf0b381617062200c10cfff0a91"
      },
      {
        "passId": "990",
        "signer": "0xdd6c81d6d587e2d49eaadffb4ce380564046002a"
      },
      {
        "passId": "991",
        "signer": "0xddb92a96054132801cae3943b2f966fc2c308ac8"
      },
      {
        "passId": "992",
        "signer": "0xdde3ca351d85a4b4cc6aff8d42c0840959859053"
      },
      {
        "passId": "993",
        "signer": "0xe00a3ab72b29eb4ac2695221f62cdf872cb5d483"
      },
      {
        "passId": "994",
        "signer": "0xe120ed22a0cd12d5de6122aa7d5b6d93ac218b49"
      },
      {
        "passId": "995",
        "signer": "0xe20adb03a470b5573bf572dd918e052d0d17866e"
      },
      {
        "passId": "996",
        "signer": "0xe363c2fba75cbd27487b17430e1efbdd2add374e"
      },
      {
        "passId": "997",
        "signer": "0xe5a3d77d7788a83f3549dd7f08fc2aced7e262d2"
      },
      {
        "passId": "998",
        "signer": "0xe66e1e9e37e4e148b21eb22001431818e980d060"
      },
      {
        "passId": "999",
        "signer": "0xe7bd51dc30d4bdc9fddd42ea7c0a283590c9d416"
      },
      {
        "passId": "1000",
        "signer": "0xeb42cd8a1fe1ff556960a9a03ca29aa13f8aa838"
      },
      {
        "passId": "1001",
        "signer": "0xed0f30677c760ea8f0bff70c76eafc79d5f7c3c8"
      },
      {
        "passId": "1002",
        "signer": "0xeddd55a234240042695d7430bf0a09b9038a26ad"
      },
      {
        "passId": "1003",
        "signer": "0xee4d308cc1cde3dd0adcb5a2c85edff22db64918"
      },
      {
        "passId": "1004",
        "signer": "0xee9439a12a7c2a9b6600ca8a498620580d2f116e"
      },
      {
        "passId": "1005",
        "signer": "0xeeaf61935c0c48f8f8cc28c381683d7fa2f75e1c"
      },
      {
        "passId": "1006",
        "signer": "0xef1271ae97bc1a1b356ab697e9ed0d1d4e05fcda"
      },
      {
        "passId": "1007",
        "signer": "0xf19bc58f747d6ea11959bf2a0fa81e53285546ac"
      },
      {
        "passId": "1008",
        "signer": "0xf1e1c701b49b1dc2405a9e8ef40f9f88802b80fa"
      },
      {
        "passId": "1009",
        "signer": "0xf2b15320db6992ba49a7563e50e888c20edcbe3c"
      },
      {
        "passId": "1010",
        "signer": "0xf341c3abb49feb96b4822e68227b54c6fb9f6318"
      },
      {
        "passId": "1011",
        "signer": "0xf3493f6812b1f22b40f8539db2510e13ac251f96"
      },
      {
        "passId": "1012",
        "signer": "0xf3b1b6e83be4d55695f1d30ac3d307d9d5ca98ff"
      },
      {
        "passId": "1013",
        "signer": "0xf464d1a37d8ef9449722f44a4eeb715c0e0acdb3"
      },
      {
        "passId": "1014",
        "signer": "0xf6910d47fbb1f5518d60c721d4189936ecd5a1b6"
      },
      {
        "passId": "1015",
        "signer": "0xf73c935815908ad9a056fc50269f95d8ba032e9d"
      },
      {
        "passId": "1016",
        "signer": "0xf78cd306b23031de9e739a5bcde61764e82ad5ef"
      },
      {
        "passId": "1017",
        "signer": "0xf942040710bedf7220beb24b220631c2255e87f1"
      },
      {
        "passId": "1018",
        "signer": "0xf943e1d2db38db468f66a79b08ec23f8c4375ce3"
      },
      {
        "passId": "1019",
        "signer": "0xfa46dedf812c5803b1e2cea10eef3f27dafeca56"
      },
      {
        "passId": "1020",
        "signer": "0xfa9f104f338846b38b083c9e567ff6bbe43ab5f7"
      },
      {
        "passId": "1021",
        "signer": "0xfd12799b9fb97dc61d9ad7ad4ffba5624004bc62"
      },
      {
        "passId": "1022",
        "signer": "0xfe1e7dc61721f34a25c9eb4dc1a1a8f352c923ef"
      },
      {
        "passId": "1023",
        "signer": "0xfffff6e70842330948ca47254f2be673b1cb0db7"
      }
    ],
    "startTime": 1638266400,
    "publicSaleTimestamp": 1638525600,
    "percentageForCreator": 2500,
    "price": "100000000000000000"
  },
  "solcInputHash": "fe2d698dc766749c774f141be3fe643d",
  "bytecode": "0x6101a06040523480156200001257600080fd5b506040516200210138038062002101833981016040819052620000359162000091565b6001600160a01b03998a1660805292891660a05260c09190915290961660e05261010094909452610120929092526101405261016052610180526000556200012c565b6001600160a01b03811681146200008e57600080fd5b50565b6000806000806000806000806000806101408b8d031215620000b257600080fd5b8a51620000bf8162000078565b809a505060208b0151985060408b0151975060608b0151965060808b0151955060a08b0151945060c08b0151620000f68162000078565b60e08c01516101008d01519195509350620001118162000078565b809250506101208b015190509295989b9194979a5092959850565b60805160a05160c05160e0516101005161012051610140516101605161018051611edf62000222600039600081816101bd01528181610c050152610e2e015260008181610197015281816102dc015281816104110152818161051f01528181610be2015261103701526000818161016f01528181610bbf015261105f01526000818161014901528181610b9c0152610e5501526000818161012601528181610b7901526110850152600061159e0152600081816114ac01526114da0152600081816105cd015281816107fd015261152601526000818161078501528181610a0d01528181610aaa01526111a90152611edf6000f3fe6080604052600436106100b15760003560e01c80639c20551311610069578063d93459b61161004e578063d93459b61461023c578063e957a3811461025c578063f19b57c21461027c57600080fd5b80639c20551314610209578063ca9dca041461021c57600080fd5b80637361a72e1161009a5780637361a72e1461010057806381059f7814610113578063990b0f60146101e957600080fd5b80632228adcc146100b65780632558e933146100eb575b600080fd5b3480156100c257600080fd5b506100d66100d1366004611747565b6102b0565b60405190151581526020015b60405180910390f35b6100fe6100f93660046118a6565b6102da565b005b6100fe61010e3660046119a8565b61040f565b34801561011f57600080fd5b50604080517f000000000000000000000000000000000000000000000000000000000000000081527f000000000000000000000000000000000000000000000000000000000000000060208201527f0000000000000000000000000000000000000000000000000000000000000000918101919091527f000000000000000000000000000000000000000000000000000000000000000060608201527f0000000000000000000000000000000000000000000000000000000000000000608082015260a0016100e2565b3480156101f557600080fd5b506100d6610204366004611747565b6104d2565b6100fe610217366004611a12565b61051d565b34801561022857600080fd5b506100fe610237366004611a12565b6105b5565b34801561024857600080fd5b506100fe610257366004611a8e565b6107e5565b34801561026857600080fd5b506100d6610277366004611747565b610a7d565b34801561028857600080fd5b5061029c610297366004611ae5565b610a9b565b6040516100e2989796959493929190611b31565b6000806102c26010600685901c611bf7565b905080600714806102d35750806008145b9392505050565b7f00000000000000000000000000000000000000000000000000000000000000004210156103fe5761030b83610c43565b600061037683858760405160200161035292919091825260601b7fffffffffffffffffffffffffffffffffffffffff00000000000000000000000016602082015260340190565b60405160208183030381529060405280519060200120610d0190919063ffffffff16565b905060006103848583610d25565b90506103908382610d86565b6103fb576040517f08c379a000000000000000000000000000000000000000000000000000000000815260206004820152600d60248201527f494e56414c49445f50524f4f460000000000000000000000000000000000000060448201526064015b60405180910390fd5b50505b6104088585610e53565b5050505050565b7f00000000000000000000000000000000000000000000000000000000000000004210156104c25761044082610c43565b33600061044d8483610d25565b90506104598382610d86565b6104bf576040517f08c379a000000000000000000000000000000000000000000000000000000000815260206004820152600d60248201527f494e56414c49445f50524f4f460000000000000000000000000000000000000060448201526064016103f2565b50505b6104cc8484610e53565b50505050565b6000806104e161010084611c3a565b905060006104f182610100611c4e565b6104fb9085611c8b565b60009283526001602081905260409093205492901b9182169091149392505050565b7f00000000000000000000000000000000000000000000000000000000000000004210156105a7576040517f08c379a000000000000000000000000000000000000000000000000000000000815260206004820152601460248201527f524551554952455f504153535f4f525f5741495400000000000000000000000060448201526064016103f2565b6105b18282610e53565b5050565b3373ffffffffffffffffffffffffffffffffffffffff7f00000000000000000000000000000000000000000000000000000000000000001614610654576040517f08c379a000000000000000000000000000000000000000000000000000000000815260206004820152600e60248201527f4e4f545f415554484f52495a454400000000000000000000000000000000000060448201526064016103f2565b6102408261ffff16106106c3576040517f08c379a000000000000000000000000000000000000000000000000000000000815260206004820152600d60248201527f494e56414c49445f534f554e440000000000000000000000000000000000000060448201526064016103f2565b6106d08261ffff166102b0565b610736576040517f08c379a000000000000000000000000000000000000000000000000000000000815260206004820152600c60248201527f4e4f545f5245534552564544000000000000000000000000000000000000000060448201526064016103f2565b6040517f9c20551300000000000000000000000000000000000000000000000000000000815261ffff8316600482015273ffffffffffffffffffffffffffffffffffffffff82811660248301527f00000000000000000000000000000000000000000000000000000000000000001690639c20551390604401600060405180830381600087803b1580156107c957600080fd5b505af11580156107dd573d6000803e3d6000fd5b505050505050565b3373ffffffffffffffffffffffffffffffffffffffff7f00000000000000000000000000000000000000000000000000000000000000001614610884576040517f08c379a000000000000000000000000000000000000000000000000000000000815260206004820152600e60248201527f4e4f545f415554484f52495a454400000000000000000000000000000000000060448201526064016103f2565b60005b828110156109cf576102408484838181106108a4576108a4611ca2565b90506020020160208101906108b99190611cd1565b61ffff1610610924576040517f08c379a000000000000000000000000000000000000000000000000000000000815260206004820152600d60248201527f494e56414c49445f534f554e440000000000000000000000000000000000000060448201526064016103f2565b61095784848381811061093957610939611ca2565b905060200201602081019061094e9190611cd1565b61ffff166102b0565b6109bd576040517f08c379a000000000000000000000000000000000000000000000000000000000815260206004820152600c60248201527f4e4f545f5245534552564544000000000000000000000000000000000000000060448201526064016103f2565b806109c781611cec565b915050610887565b506040517fe2ea128800000000000000000000000000000000000000000000000000000000815273ffffffffffffffffffffffffffffffffffffffff7f0000000000000000000000000000000000000000000000000000000000000000169063e2ea128890610a4690869086908690600401611d25565b600060405180830381600087803b158015610a6057600080fd5b505af1158015610a74573d6000803e3d6000fd5b50505050505050565b600080610a8f6010600685901c611bf7565b60005410159392505050565b606060008060008060008060007f000000000000000000000000000000000000000000000000000000000000000073ffffffffffffffffffffffffffffffffffffffff1663a0554c268b8b6040518363ffffffff1660e01b8152600401610b03929190611d8b565b60006040518083038186803b158015610b1b57600080fd5b505afa158015610b2f573d6000803e3d6000fd5b505050506040513d6000823e601f3d9081017fffffffffffffffffffffffffffffffffffffffffffffffffffffffffffffffe0168201604052610b759190810190611de0565b97507f000000000000000000000000000000000000000000000000000000000000000096507f000000000000000000000000000000000000000000000000000000000000000095507f000000000000000000000000000000000000000000000000000000000000000094507f000000000000000000000000000000000000000000000000000000000000000093507f00000000000000000000000000000000000000000000000000000000000000009250610c2f8b6104d2565b915060005490509397509397509397509397565b6000610c5161010083611c3a565b90506000610c6182610100611c4e565b610c6b9084611c8b565b600083815260016020819052604090912054911b915080821615610ceb576040517f08c379a000000000000000000000000000000000000000000000000000000000815260206004820152601160248201527f504153535f414c52454144595f5553454400000000000000000000000000000060448201526064016103f2565b6000928352600160205260409092209117905550565b6000806000610d1085856111d8565b91509150610d1d81611248565b509392505050565b60008282604051602001610d6892919091825260601b7fffffffffffffffffffffffffffffffffffffffff00000000000000000000000016602082015260340190565b60405160208183030381529060405280519060200120905092915050565b6000805b8351811015610e2a576000848281518110610da757610da7611ca2565b6020026020010151905080841015610dea576040805160208101869052908101829052606001604051602081830303815290604052805190602001209350610e17565b60408051602081018390529081018590526060016040516020818303038152906040528051906020012093505b5080610e2281611cec565b915050610d8a565b50507f000000000000000000000000000000000000000000000000000000000000000014919050565b7f0000000000000000000000000000000000000000000000000000000000000000421015610edd576040517f08c379a000000000000000000000000000000000000000000000000000000000815260206004820152601060248201527f53414c455f4e4f545f535441525445440000000000000000000000000000000060448201526064016103f2565b6102408261ffff1610610f4c576040517f08c379a000000000000000000000000000000000000000000000000000000000815260206004820152600d60248201527f494e56414c49445f534f554e440000000000000000000000000000000000000060448201526064016103f2565b610f598261ffff16610a7d565b610fbf576040517f08c379a000000000000000000000000000000000000000000000000000000000815260206004820152601b60248201527f494e535455524d454e545f4e4f545f5945545f464f525f53414c45000000000060448201526064016103f2565b610fcc8261ffff166102b0565b15611033576040517f08c379a000000000000000000000000000000000000000000000000000000000815260206004820152600860248201527f524553455256454400000000000000000000000000000000000000000000000060448201526064016103f2565b60007f0000000000000000000000000000000000000000000000000000000000000000421015611083577f00000000000000000000000000000000000000000000000000000000000000006110a5565b7f00000000000000000000000000000000000000000000000000000000000000005b905080341015611111576040517f08c379a000000000000000000000000000000000000000000000000000000000815260206004820152600a60248201527f4e4f545f454e4f5547480000000000000000000000000000000000000000000060448201526064016103f2565b8034111561115157336108fc6111278334611c8b565b6040518115909202916000818181858888f1935050505015801561114f573d6000803e3d6000fd5b505b61115a816114a4565b6040517f9c20551300000000000000000000000000000000000000000000000000000000815261ffff8416600482015273ffffffffffffffffffffffffffffffffffffffff83811660248301527f00000000000000000000000000000000000000000000000000000000000000001690639c20551390604401610a46565b60008082516041141561120f5760208301516040840151606085015160001a611203878285856115e7565b94509450505050611241565b825160401415611239576020830151604084015161122e8683836116ff565b935093505050611241565b506000905060025b9250929050565b600081600481111561125c5761125c611e7a565b14156112655750565b600181600481111561127957611279611e7a565b14156112e1576040517f08c379a000000000000000000000000000000000000000000000000000000000815260206004820152601860248201527f45434453413a20696e76616c6964207369676e6174757265000000000000000060448201526064016103f2565b60028160048111156112f5576112f5611e7a565b141561135d576040517f08c379a000000000000000000000000000000000000000000000000000000000815260206004820152601f60248201527f45434453413a20696e76616c6964207369676e6174757265206c656e6774680060448201526064016103f2565b600381600481111561137157611371611e7a565b14156113ff576040517f08c379a000000000000000000000000000000000000000000000000000000000815260206004820152602260248201527f45434453413a20696e76616c6964207369676e6174757265202773272076616c60448201527f756500000000000000000000000000000000000000000000000000000000000060648201526084016103f2565b600481600481111561141357611413611e7a565b14156114a1576040517f08c379a000000000000000000000000000000000000000000000000000000000815260206004820152602260248201527f45434453413a20696e76616c6964207369676e6174757265202776272076616c60448201527f756500000000000000000000000000000000000000000000000000000000000060648201526084016103f2565b50565b80156114a1577f00000000000000000000000000000000000000000000000000000000000000001561157e5760006127106114ff7f000000000000000000000000000000000000000000000000000000000000000084611c4e565b6115099190611c3a565b60405190915073ffffffffffffffffffffffffffffffffffffffff7f0000000000000000000000000000000000000000000000000000000000000000169082156108fc029083906000818181858888f1935050505015801561156f573d6000803e3d6000fd5b5061157a8183611c8b565b9150505b80156114a15760405173ffffffffffffffffffffffffffffffffffffffff7f0000000000000000000000000000000000000000000000000000000000000000169082156108fc029083906000818181858888f193505050501580156105b1573d6000803e3d6000fd5b6000807f7fffffffffffffffffffffffffffffff5d576e7357a4501ddfe92f46681b20a083111561161e57506000905060036116f6565b8460ff16601b1415801561163657508460ff16601c14155b1561164757506000905060046116f6565b6040805160008082526020820180845289905260ff881692820192909252606081018690526080810185905260019060a0016020604051602081039080840390855afa15801561169b573d6000803e3d6000fd5b50506040517fffffffffffffffffffffffffffffffffffffffffffffffffffffffffffffffe0015191505073ffffffffffffffffffffffffffffffffffffffff81166116ef576000600192509250506116f6565b9150600090505b94509492505050565b6000807f7fffffffffffffffffffffffffffffffffffffffffffffffffffffffffffffff831660ff84901c601b01611739878288856115e7565b935093505050935093915050565b60006020828403121561175957600080fd5b5035919050565b803561ffff8116811461177257600080fd5b919050565b73ffffffffffffffffffffffffffffffffffffffff811681146114a157600080fd5b7f4e487b7100000000000000000000000000000000000000000000000000000000600052604160045260246000fd5b604051601f82017fffffffffffffffffffffffffffffffffffffffffffffffffffffffffffffffe016810167ffffffffffffffff8111828210171561180f5761180f611799565b604052919050565b600067ffffffffffffffff82111561183157611831611799565b5060051b60200190565b600082601f83011261184c57600080fd5b8135602061186161185c83611817565b6117c8565b82815260059290921b8401810191818101908684111561188057600080fd5b8286015b8481101561189b5780358352918301918301611884565b509695505050505050565b600080600080600060a086880312156118be57600080fd5b6118c786611760565b94506020808701356118d881611777565b945060408701359350606087013567ffffffffffffffff808211156118fc57600080fd5b818901915089601f83011261191057600080fd5b81358181111561192257611922611799565b611952847fffffffffffffffffffffffffffffffffffffffffffffffffffffffffffffffe0601f840116016117c8565b8181528b8583860101111561196657600080fd5b81858501868301376000918101909401529193506080880135918083111561198d57600080fd5b505061199b8882890161183b565b9150509295509295909350565b600080600080608085870312156119be57600080fd5b6119c785611760565b935060208501356119d781611777565b925060408501359150606085013567ffffffffffffffff8111156119fa57600080fd5b611a068782880161183b565b91505092959194509250565b60008060408385031215611a2557600080fd5b611a2e83611760565b91506020830135611a3e81611777565b809150509250929050565b60008083601f840112611a5b57600080fd5b50813567ffffffffffffffff811115611a7357600080fd5b6020830191508360208260051b850101111561124157600080fd5b600080600060408486031215611aa357600080fd5b833567ffffffffffffffff811115611aba57600080fd5b611ac686828701611a49565b9094509250506020840135611ada81611777565b809150509250925092565b600080600060408486031215611afa57600080fd5b83359250602084013567ffffffffffffffff811115611b1857600080fd5b611b2486828701611a49565b9497909650939450505050565b6101008082528951908201819052600090610120830190602090818d01845b82811015611b8257815173ffffffffffffffffffffffffffffffffffffffff1685529383019390830190600101611b50565b5050508192508a8185015250508760408301528660608301528560808301528460a0830152611bb560c083018515159052565b8260e08301529998505050505050505050565b7f4e487b7100000000000000000000000000000000000000000000000000000000600052601260045260246000fd5b600082611c0657611c06611bc8565b500690565b7f4e487b7100000000000000000000000000000000000000000000000000000000600052601160045260246000fd5b600082611c4957611c49611bc8565b500490565b6000817fffffffffffffffffffffffffffffffffffffffffffffffffffffffffffffffff0483118215151615611c8657611c86611c0b565b500290565b600082821015611c9d57611c9d611c0b565b500390565b7f4e487b7100000000000000000000000000000000000000000000000000000000600052603260045260246000fd5b600060208284031215611ce357600080fd5b6102d382611760565b60007fffffffffffffffffffffffffffffffffffffffffffffffffffffffffffffffff821415611d1e57611d1e611c0b565b5060010190565b6040808252810183905260008460608301825b86811015611d615761ffff611d4c84611760565b16825260209283019290910190600101611d38565b50809250505073ffffffffffffffffffffffffffffffffffffffff83166020830152949350505050565b6020815281602082015260007f07ffffffffffffffffffffffffffffffffffffffffffffffffffffffffffffff831115611dc457600080fd5b8260051b80856040850137600092016040019182525092915050565b60006020808385031215611df357600080fd5b825167ffffffffffffffff811115611e0a57600080fd5b8301601f81018513611e1b57600080fd5b8051611e2961185c82611817565b81815260059190911b82018301908381019087831115611e4857600080fd5b928401925b82841015611e6f578351611e6081611777565b82529284019290840190611e4d565b979650505050505050565b7f4e487b7100000000000000000000000000000000000000000000000000000000600052602160045260246000fdfea2646970667358221220e378235ed66e6e75e6fa87153cdeaddb3c6049d070bd1ac4da44e7058205335f64736f6c63430008090033",
  "devdoc": {
    "kind": "dev",
    "methods": {},
    "version": 1
  },
  "userdoc": {
    "kind": "user",
    "methods": {},
    "version": 1
  },
  "storageLayout": {
    "storage": [
      {
        "astId": 10767,
        "contract": "src/bleeps/BleepsFixedPriceSale.sol:BleepsFixedPriceSale",
        "label": "_uptoInstr",
        "offset": 0,
        "slot": "0",
        "type": "t_uint256"
      },
      {
        "astId": 10771,
        "contract": "src/bleeps/BleepsFixedPriceSale.sol:BleepsFixedPriceSale",
        "label": "_passUsed",
        "offset": 0,
        "slot": "1",
        "type": "t_mapping(t_uint256,t_uint256)"
      }
    ],
    "types": {
      "t_mapping(t_uint256,t_uint256)": {
        "encoding": "mapping",
        "key": "t_uint256",
        "label": "mapping(uint256 => uint256)",
        "numberOfBytes": "32",
        "value": "t_uint256"
      },
      "t_uint256": {
        "encoding": "inplace",
        "label": "uint256",
        "numberOfBytes": "32"
      }
    }
  }
}